{
	"contracts/fraud-detector/libs/decode/msgDecoding.sol": {
		"FraudProofDecoderLibrary": {
			"abi": [
				{
					"anonymous": false,
					"inputs": [
						{
							"indexed": false,
							"internalType": "bytes32",
							"name": "channelId",
							"type": "bytes32"
						},
						{
							"indexed": false,
							"internalType": "uint256",
							"name": "Amount",
							"type": "uint256"
						},
						{
							"indexed": false,
							"internalType": "bytes32",
							"name": "LocalBlockHash",
							"type": "bytes32"
						},
						{
							"indexed": false,
							"internalType": "bytes",
							"name": "ReqBytes",
							"type": "bytes"
						},
						{
							"indexed": false,
							"internalType": "uint256",
							"name": "length",
							"type": "uint256"
						}
					],
					"name": "DecodeRequest",
					"type": "event"
				},
				{
					"anonymous": false,
					"inputs": [
						{
							"indexed": false,
							"internalType": "string",
							"name": "Type",
							"type": "string"
						},
						{
							"indexed": false,
							"internalType": "bytes32",
							"name": "ChannelId",
							"type": "bytes32"
						},
						{
							"indexed": false,
							"internalType": "uint256",
							"name": "Amount",
							"type": "uint256"
						},
						{
							"indexed": false,
							"internalType": "bytes32",
							"name": "ReqBodyHash",
							"type": "bytes32"
						},
						{
							"indexed": false,
							"internalType": "bytes",
							"name": "SignedReqBody",
							"type": "bytes"
						},
						{
							"indexed": false,
							"internalType": "uint256",
							"name": "CurrentBlockHeight",
							"type": "uint256"
						},
						{
							"indexed": false,
							"internalType": "bytes",
							"name": "ReturnValue",
							"type": "bytes"
						},
						{
							"indexed": false,
							"internalType": "bytes[]",
							"name": "Proof",
							"type": "bytes[]"
						},
						{
							"indexed": false,
							"internalType": "bytes32",
							"name": "TxHash",
							"type": "bytes32"
						},
						{
							"indexed": false,
							"internalType": "bytes",
							"name": "TxIdx",
							"type": "bytes"
						},
						{
							"indexed": false,
							"internalType": "bytes",
							"name": "Signature",
							"type": "bytes"
						}
					],
					"name": "DecodedResponse",
					"type": "event"
				},
				{
					"anonymous": false,
					"inputs": [
						{
							"indexed": false,
							"internalType": "string",
							"name": "Type",
							"type": "string"
						},
						{
							"indexed": false,
							"internalType": "bytes32",
							"name": "ChannelId",
							"type": "bytes32"
						},
						{
							"indexed": false,
							"internalType": "uint256",
							"name": "Amount",
							"type": "uint256"
						},
						{
							"indexed": false,
							"internalType": "bytes32",
							"name": "ReqBodyHash",
							"type": "bytes32"
						},
						{
							"indexed": false,
							"internalType": "bytes",
							"name": "SignedReqBody",
							"type": "bytes"
						},
						{
							"indexed": false,
							"internalType": "uint256",
							"name": "CurrentBlockHeight",
							"type": "uint256"
						},
						{
							"indexed": false,
							"internalType": "bytes",
							"name": "ReturnValue",
							"type": "bytes"
						},
						{
							"indexed": false,
							"internalType": "bytes[]",
							"name": "Proof",
							"type": "bytes[]"
						},
						{
							"indexed": false,
							"internalType": "bytes",
							"name": "Address",
							"type": "bytes"
						},
						{
							"indexed": false,
							"internalType": "bytes",
							"name": "Signature",
							"type": "bytes"
						}
					],
					"name": "DecodedResponseSP",
					"type": "event"
				},
				{
					"anonymous": false,
					"inputs": [
						{
							"indexed": false,
							"internalType": "uint256",
							"name": "amount",
							"type": "uint256"
						}
					],
					"name": "emitAmount",
					"type": "event"
				},
				{
					"anonymous": false,
					"inputs": [
						{
							"indexed": false,
							"internalType": "bytes32",
							"name": "LocalBlockHash",
							"type": "bytes32"
						}
					],
					"name": "emitLocalBlockHash",
					"type": "event"
				},
				{
					"anonymous": false,
					"inputs": [
						{
							"indexed": false,
							"internalType": "bytes32",
							"name": "msgHash",
							"type": "bytes32"
						}
					],
					"name": "msgHash",
					"type": "event"
				},
				{
					"anonymous": false,
					"inputs": [
						{
							"indexed": false,
							"internalType": "bytes",
							"name": "SignedReqBody",
							"type": "bytes"
						}
					],
					"name": "reqByte",
					"type": "event"
				},
				{
					"inputs": [
						{
							"internalType": "bytes32",
							"name": "ChannelId",
							"type": "bytes32"
						},
						{
							"internalType": "bytes[]",
							"name": "proof",
							"type": "bytes[]"
						},
						{
							"internalType": "bytes",
							"name": "SignedReqBody",
							"type": "bytes"
						},
						{
							"internalType": "bytes",
							"name": "Address",
							"type": "bytes"
						},
						{
							"internalType": "uint256",
							"name": "blockNr",
							"type": "uint256"
						}
					],
					"name": "getMessageHashSP",
					"outputs": [
						{
							"internalType": "bytes32",
							"name": "",
							"type": "bytes32"
						}
					],
					"stateMutability": "pure",
					"type": "function"
				},
				{
					"inputs": [
						{
							"internalType": "bytes32",
							"name": "ChannelId",
							"type": "bytes32"
						},
						{
							"internalType": "uint256",
							"name": "Amount",
							"type": "uint256"
						},
						{
							"internalType": "bytes32",
							"name": "LocalBlockHash",
							"type": "bytes32"
						},
						{
							"internalType": "bytes",
							"name": "ReqBytes",
							"type": "bytes"
						}
					],
					"name": "getReqMessageHash",
					"outputs": [
						{
							"internalType": "bytes32",
							"name": "",
							"type": "bytes32"
						}
					],
					"stateMutability": "pure",
					"type": "function"
				}
			],
			"devdoc": {
				"kind": "dev",
				"methods": {},
				"version": 1
			},
			"evm": {
				"assembly": "    /* \"contracts/fraud-detector/libs/decode/msgDecoding.sol\":158:7789  library FraudProofDecoderLibrary {... */\n  0x80\n  dup1\n  0x40\n  mstore\n  jumpi(tag_1, callvalue)\n  dataSize(sub_0)\n  swap1\n  dup2\n  dataOffset(sub_0)\n  dup3\n  codecopy\n  address\n  dup2\n  assignImmutable(\"0xcd5a02d485074f67d63783a7acdae578618045c23ccf47fa4e3f1a01c11714ad\")\n  return\ntag_1:\n  0x00\n  dup1\n  revert\nstop\n\nsub_0: assembly {\n        /* \"contracts/fraud-detector/libs/decode/msgDecoding.sol\":158:7789  library FraudProofDecoderLibrary {... */\n      mstore(0x40, 0x80)\n      eq(immutable(\"0xcd5a02d485074f67d63783a7acdae578618045c23ccf47fa4e3f1a01c11714ad\"), address)\n      jumpi(tag_73, iszero(lt(calldatasize, 0x04)))\n      0x00\n      dup1\n      revert\n    tag_73:\n      shr(0xe0, calldataload(0x00))\n      dup1\n      0x15515246\n      eq\n      tag_75\n      jumpi\n      dup1\n      0x2c66f61a\n      eq\n      tag_77\n      jumpi\n      dup1\n      0x88ede4a2\n      eq\n      tag_79\n      jumpi\n      dup1\n      0xc7d60a06\n      eq\n      tag_81\n      jumpi\n      dup1\n      0xe09bc827\n      eq\n      tag_83\n      jumpi\n      0xfe0103f7\n      eq\n      tag_85\n      jumpi\n      0x00\n      dup1\n      revert\n    tag_85:\n      iszero\n      tag_22\n      jumpi\n    tag_87:\n      0x00\n      dup1\n      revert\n    tag_83:\n      pop\n      iszero\n      tag_20\n      jumpi\n      0x00\n      dup1\n      revert\n    tag_81:\n      pop\n      iszero\n      tag_18\n      jumpi\n      0x00\n      dup1\n      revert\n    tag_79:\n      pop\n      iszero\n      tag_17\n      jumpi\n      0x00\n      dup1\n      revert\n    tag_77:\n      tag_11\n      jump\t// in\n    tag_75:\n      tag_8\n      jump\t// in\n    tag_1:\n      mstore(0x00, shl(0xe0, 0x4e487b71))\n      mstore(0x04, 0x41)\n      revert(0x00, 0x24)\n    tag_2:\n      0x40\n      dup2\n      add\n      swap1\n      dup2\n      lt\n      0xffffffffffffffff\n      dup3\n      gt\n      or\n      tag_95\n      jumpi\n      0x40\n      mstore\n      jump\t// out\n    tag_95:\n      tag_1\n      jump\t// in\n    tag_3:\n      swap1\n      0x1f\n      dup1\n      not\n      swap2\n      add\n      and\n      dup2\n      add\n      swap1\n      dup2\n      lt\n      0xffffffffffffffff\n      dup3\n      gt\n      or\n      tag_95\n      jumpi\n      0x40\n      mstore\n      jump\t// out\n    tag_4:\n      mload(0x40)\n      swap1\n      tag_99\n      dup3\n      tag_2\n      jump\t// in\n    tag_99:\n      jump\t// out\n    tag_5:\n      0xffffffffffffffff\n      dup2\n      gt\n      tag_95\n      jumpi\n      0x1f\n      add\n      not(0x1f)\n      and\n      0x20\n      add\n      swap1\n      jump\t// out\n    tag_6:\n      dup2\n      0x1f\n      dup3\n      add\n      slt\n      iszero\n      tag_87\n      jumpi\n      dup1\n      calldataload\n      swap1\n      tag_104\n      dup3\n      tag_5\n      jump\t// in\n    tag_104:\n      swap3\n      tag_105\n      mload(0x40)\n      swap5\n      dup6\n      tag_3\n      jump\t// in\n    tag_105:\n      dup3\n      dup5\n      mstore\n      0x20\n      dup4\n      dup4\n      add\n      add\n      gt\n      tag_87\n      jumpi\n      dup2\n      0x00\n      swap3\n      0x20\n      dup1\n      swap4\n      add\n      dup4\n      dup7\n      add\n      calldatacopy\n      dup4\n      add\n      add\n      mstore\n      swap1\n      jump\t// out\n    tag_8:\n      jumpi(tag_87, slt(add(not(0x03), calldatasize), 0x80))\n      calldataload(0x64)\n      0xffffffffffffffff\n      dup2\n      gt\n      tag_87\n      jumpi\n      tag_112\n      tag_113\n      0x20\n      swap3\n      calldatasize\n      swap1\n      0x04\n      add\n      tag_6\n      jump\t// in\n    tag_113:\n      calldataload(0x44)\n      calldataload(0x24)\n      calldataload(0x04)\n      tag_24\n      jump\t// in\n    tag_112:\n      mload(0x40)\n      swap1\n      dup2\n      mstore\n      return\n    tag_9:\n      0xffffffffffffffff\n      dup2\n      gt\n      tag_95\n      jumpi\n      0x05\n      shl\n      0x20\n      add\n      swap1\n      jump\t// out\n    tag_10:\n      dup2\n      0x1f\n      dup3\n      add\n      slt\n      iszero\n      tag_87\n      jumpi\n      dup1\n      calldataload\n      swap2\n      0x20\n      swap2\n      tag_118\n      dup5\n      tag_9\n      jump\t// in\n    tag_118:\n      swap4\n      tag_119\n      mload(0x40)\n      swap6\n      dup7\n      tag_3\n      jump\t// in\n    tag_119:\n      dup1\n      dup6\n      mstore\n      dup4\n      dup1\n      dup7\n      add\n      swap2\n      0x05\n      shl\n      dup4\n      add\n      add\n      swap3\n      dup1\n      dup5\n      gt\n      tag_87\n      jumpi\n      dup5\n      dup4\n      add\n      swap2\n    tag_122:\n      dup5\n      dup4\n      lt\n      tag_123\n      jumpi\n      pop\n      pop\n      pop\n      pop\n      pop\n      pop\n      swap1\n      jump\t// out\n    tag_123:\n      dup3\n      calldataload\n      0xffffffffffffffff\n      dup2\n      gt\n      tag_87\n      jumpi\n      dup7\n      swap2\n      tag_127\n      dup5\n      dup5\n      dup1\n      swap5\n      dup10\n      add\n      add\n      tag_6\n      jump\t// in\n    tag_127:\n      dup2\n      mstore\n      add\n      swap3\n      add\n      swap2\n      jump(tag_122)\n    tag_11:\n      jumpi(tag_87, slt(add(not(0x03), calldatasize), 0xa0))\n      0xffffffffffffffff\n      calldataload(0x24)\n      dup2\n      dup2\n      gt\n      tag_87\n      jumpi\n      tag_132\n      swap1\n      calldatasize\n      swap1\n      0x04\n      add\n      tag_10\n      jump\t// in\n    tag_132:\n      swap1\n      calldataload(0x44)\n      dup2\n      dup2\n      gt\n      tag_87\n      jumpi\n      tag_135\n      swap1\n      calldatasize\n      swap1\n      0x04\n      add\n      tag_6\n      jump\t// in\n    tag_135:\n      calldataload(0x64)\n      swap2\n      dup3\n      gt\n      tag_87\n      jumpi\n      0x20\n      swap3\n      tag_138\n      tag_112\n      swap4\n      calldatasize\n      swap1\n      0x04\n      add\n      tag_6\n      jump\t// in\n    tag_138:\n      pop\n      calldataload(0x04)\n      tag_39\n      jump\t// in\n    tag_12:\n      0x20\n      not(0x03)\n      dup3\n      add\n      slt\n      tag_87\n      jumpi\n      calldataload(0x04)\n      swap1\n      0xffffffffffffffff\n      dup3\n      gt\n      tag_87\n      jumpi\n      tag_144\n      swap2\n      0x04\n      add\n      tag_6\n      jump\t// in\n    tag_144:\n      swap1\n      jump\t// out\n    tag_13:\n      0x00\n    tag_145:\n      dup4\n      dup2\n      lt\n      tag_146\n      jumpi\n      pop\n      pop\n      0x00\n      swap2\n      add\n      mstore\n      jump\t// out\n    tag_146:\n      dup2\n      dup2\n      add\n      mload\n      dup4\n      dup3\n      add\n      mstore\n      0x20\n      add\n      jump(tag_145)\n    tag_14:\n      swap1\n      0x20\n      swap2\n      tag_148\n      dup2\n      mload\n      dup1\n      swap3\n      dup2\n      dup6\n      mstore\n      dup6\n      dup1\n      dup7\n      add\n      swap2\n      add\n      tag_13\n      jump\t// in\n    tag_148:\n      0x1f\n      add\n      not(0x1f)\n      and\n      add\n      add\n      swap1\n      jump\t// out\n    tag_15:\n      swap1\n      dup1\n      dup3\n      mload\n      swap1\n      dup2\n      dup2\n      mstore\n      0x20\n      dup1\n      swap2\n      add\n      swap3\n      0x20\n      dup1\n      dup5\n      0x05\n      shl\n      dup4\n      add\n      add\n      swap6\n      add\n      swap4\n      0x00\n      swap2\n    tag_149:\n      dup5\n      dup4\n      lt\n      tag_150\n      jumpi\n      pop\n      pop\n      pop\n      pop\n      pop\n      pop\n      swap1\n      jump\t// out\n    tag_150:\n      swap1\n      swap2\n      swap3\n      swap4\n      swap5\n      swap6\n      dup5\n      dup1\n      tag_152\n      0x01\n      swap4\n      not(0x1f)\n      dup7\n      dup3\n      sub\n      add\n      dup8\n      mstore\n      dup11\n      mload\n      tag_14\n      jump\t// in\n    tag_152:\n      swap9\n      add\n      swap4\n      add\n      swap4\n      add\n      swap2\n      swap5\n      swap4\n      swap3\n      swap1\n      jump(tag_149)\n    tag_16:\n      swap3\n      swap2\n      swap1\n      0x20\n      swap1\n      0x40\n      dup6\n      mstore\n      dup1\n      mload\n      tag_153\n      tag_154\n      0x0180\n      swap3\n      dup4\n      0x40\n      dup11\n      add\n      mstore\n      0x01c0\n      dup10\n      add\n      swap1\n      tag_14\n      jump\t// in\n    tag_154:\n      swap2\n      dup5\n      dup5\n      add\n      mload\n      0x60\n      dup10\n      add\n      mstore\n      0x40\n      dup5\n      add\n      mload\n      0x80\n      dup10\n      add\n      mstore\n      0x60\n      dup5\n      add\n      mload\n      0xa0\n      dup10\n      add\n      mstore\n      tag_155\n      0x80\n      dup6\n      add\n      mload\n      swap4\n      not(0x3f)\n      swap5\n      dup6\n      dup12\n      dup4\n      sub\n      add\n      0xc0\n      dup13\n      add\n      mstore\n      tag_14\n      jump\t// in\n    tag_155:\n      swap3\n      0xa0\n      dup6\n      add\n      mload\n      0xe0\n      dup11\n      add\n      mstore\n      tag_156\n      0xc0\n      dup7\n      add\n      mload\n      swap5\n      0x0100\n      swap6\n      dup4\n      dup13\n      dup4\n      sub\n      add\n      dup8\n      dup14\n      add\n      mstore\n      tag_14\n      jump\t// in\n    tag_156:\n      swap2\n      tag_157\n      tag_158\n      0xe0\n      dup9\n      add\n      mload\n      swap5\n      0x0120\n      swap6\n      dup14\n      dup8\n      dup8\n      dup3\n      dup6\n      sub\n      add\n      swap2\n      add\n      mstore\n      tag_15\n      jump\t// in\n    tag_158:\n      swap6\n      dup8\n      add\n      mload\n      swap4\n      0x0140\n      swap5\n      dup6\n      dup14\n      add\n      mstore\n      dup8\n      add\n      mload\n      swap6\n      0x0160\n      swap7\n      dup13\n      dup9\n      dup7\n      dup3\n      dup6\n      sub\n      add\n      swap2\n      add\n      mstore\n      tag_14\n      jump\t// in\n    tag_157:\n      swap3\n      dup7\n      add\n      mload\n      swap2\n      dup11\n      dup5\n      sub\n      add\n      swap1\n      dup11\n      add\n      mstore\n      tag_14\n      jump\t// in\n    tag_153:\n      swap2\n      add\n      mload\n      0x01a0\n      dup7\n      add\n      mstore\n      swap4\n      add\n      mstore\n      jump\t// out\n    tag_17:\n        /* \"contracts/fraud-detector/libs/decode/msgDecoding.sol\":456:480  res.toRlpItem().toList() */\n      tag_159\n        /* \"contracts/fraud-detector/libs/decode/msgDecoding.sol\":456:471  res.toRlpItem() */\n      tag_160\n        /* \"contracts/fraud-detector/libs/decode/msgDecoding.sol\":158:7789  library FraudProofDecoderLibrary {... */\n      tag_161\n      calldatasize\n      tag_12\n      jump\t// in\n    tag_161:\n      tag_162\n      tag_40\n      jump\t// in\n    tag_162:\n      pop\n        /* \"contracts/fraud-detector/libs/decode/msgDecoding.sol\":456:471  res.toRlpItem() */\n      tag_53\n      jump\t// in\n    tag_160:\n        /* \"contracts/fraud-detector/libs/decode/msgDecoding.sol\":456:480  res.toRlpItem().toList() */\n      tag_57\n      jump\t// in\n    tag_159:\n        /* \"contracts/fraud-detector/libs/decode/msgDecoding.sol\":594:671  require(items.length == 12, \"Incorrect number of fields in RLP encoded data\") */\n      tag_163\n        /* \"contracts/fraud-detector/libs/decode/msgDecoding.sol\":618:620  12 */\n      0x0c\n        /* \"contracts/fraud-detector/libs/decode/msgDecoding.sol\":158:7789  library FraudProofDecoderLibrary {... */\n      dup3\n      mload\n        /* \"contracts/fraud-detector/libs/decode/msgDecoding.sol\":602:620  items.length == 12 */\n      eq\n        /* \"contracts/fraud-detector/libs/decode/msgDecoding.sol\":594:671  require(items.length == 12, \"Incorrect number of fields in RLP encoded data\") */\n      tag_41\n      jump\t// in\n    tag_163:\n        /* \"contracts/fraud-detector/libs/decode/msgDecoding.sol\":158:7789  library FraudProofDecoderLibrary {... */\n      tag_164\n      tag_40\n      jump\t// in\n    tag_164:\n        /* \"contracts/fraud-detector/libs/decode/msgDecoding.sol\":774:782  items[0] */\n      swap1\n        /* \"contracts/fraud-detector/libs/decode/msgDecoding.sol\":774:792  items[0].toBytes() */\n      tag_165\n        /* \"contracts/fraud-detector/libs/decode/msgDecoding.sol\":774:782  items[0] */\n      tag_166\n      dup3\n      tag_26\n      jump\t// in\n    tag_166:\n      mload\n        /* \"contracts/fraud-detector/libs/decode/msgDecoding.sol\":774:792  items[0].toBytes() */\n      tag_58\n      jump\t// in\n    tag_165:\n        /* \"contracts/fraud-detector/libs/decode/msgDecoding.sol\":751:793  response.Type = string(items[0].toBytes()) */\n      dup3\n      mstore\n        /* \"contracts/fraud-detector/libs/decode/msgDecoding.sol\":884:911  bytes32(items[1].toBytes()) */\n      tag_167\n        /* \"contracts/fraud-detector/libs/decode/msgDecoding.sol\":892:910  items[1].toBytes() */\n      tag_168\n        /* \"contracts/fraud-detector/libs/decode/msgDecoding.sol\":892:900  items[1] */\n      tag_166\n      dup4\n      tag_27\n      jump\t// in\n        /* \"contracts/fraud-detector/libs/decode/msgDecoding.sol\":892:910  items[1].toBytes() */\n    tag_168:\n        /* \"contracts/fraud-detector/libs/decode/msgDecoding.sol\":884:911  bytes32(items[1].toBytes()) */\n      tag_42\n      jump\t// in\n    tag_167:\n        /* \"contracts/fraud-detector/libs/decode/msgDecoding.sol\":863:881  response.ChannelId */\n      0x20\n      dup4\n      add\n        /* \"contracts/fraud-detector/libs/decode/msgDecoding.sol\":158:7789  library FraudProofDecoderLibrary {... */\n      swap1\n      dup2\n      mstore\n        /* \"contracts/fraud-detector/libs/decode/msgDecoding.sol\":983:1000  items[2].toUint() */\n      tag_170\n        /* \"contracts/fraud-detector/libs/decode/msgDecoding.sol\":983:991  items[2] */\n      tag_171\n      dup4\n      tag_28\n      jump\t// in\n    tag_171:\n      mload\n        /* \"contracts/fraud-detector/libs/decode/msgDecoding.sol\":983:1000  items[2].toUint() */\n      tag_59\n      jump\t// in\n    tag_170:\n        /* \"contracts/fraud-detector/libs/decode/msgDecoding.sol\":965:980  response.Amount */\n      swap1\n      0x40\n      dup5\n      add\n        /* \"contracts/fraud-detector/libs/decode/msgDecoding.sol\":158:7789  library FraudProofDecoderLibrary {... */\n      swap2\n      dup3\n      mstore\n        /* \"contracts/fraud-detector/libs/decode/msgDecoding.sol\":1034:1061  bytes32(items[3].toBytes()) */\n      tag_172\n        /* \"contracts/fraud-detector/libs/decode/msgDecoding.sol\":1042:1060  items[3].toBytes() */\n      tag_168\n        /* \"contracts/fraud-detector/libs/decode/msgDecoding.sol\":1042:1050  items[3] */\n      tag_166\n      dup6\n      tag_29\n      jump\t// in\n        /* \"contracts/fraud-detector/libs/decode/msgDecoding.sol\":1034:1061  bytes32(items[3].toBytes()) */\n    tag_172:\n        /* \"contracts/fraud-detector/libs/decode/msgDecoding.sol\":1011:1031  response.ReqBodyHash */\n      swap2\n      0x60\n      dup6\n      add\n        /* \"contracts/fraud-detector/libs/decode/msgDecoding.sol\":158:7789  library FraudProofDecoderLibrary {... */\n      swap3\n      dup4\n      mstore\n        /* \"contracts/fraud-detector/libs/decode/msgDecoding.sol\":1147:1165  items[4].toBytes() */\n      tag_175\n        /* \"contracts/fraud-detector/libs/decode/msgDecoding.sol\":1147:1155  items[4] */\n      tag_166\n      dup6\n      tag_30\n      jump\t// in\n        /* \"contracts/fraud-detector/libs/decode/msgDecoding.sol\":1147:1165  items[4].toBytes() */\n    tag_175:\n        /* \"contracts/fraud-detector/libs/decode/msgDecoding.sol\":1122:1144  response.SignedReqBody */\n      swap1\n      0x80\n      dup7\n      add\n        /* \"contracts/fraud-detector/libs/decode/msgDecoding.sol\":1122:1165  response.SignedReqBody = items[4].toBytes() */\n      swap2\n      dup3\n      mstore\n        /* \"contracts/fraud-detector/libs/decode/msgDecoding.sol\":1261:1278  items[5].toUint() */\n      tag_177\n        /* \"contracts/fraud-detector/libs/decode/msgDecoding.sol\":1261:1269  items[5] */\n      tag_171\n      dup7\n      tag_31\n      jump\t// in\n        /* \"contracts/fraud-detector/libs/decode/msgDecoding.sol\":1261:1278  items[5].toUint() */\n    tag_177:\n        /* \"contracts/fraud-detector/libs/decode/msgDecoding.sol\":1231:1258  response.CurrentBlockHeight */\n      swap3\n      0xa0\n      dup8\n      add\n        /* \"contracts/fraud-detector/libs/decode/msgDecoding.sol\":158:7789  library FraudProofDecoderLibrary {... */\n      swap4\n      dup5\n      mstore\n        /* \"contracts/fraud-detector/libs/decode/msgDecoding.sol\":1361:1379  items[6].toBytes() */\n      tag_179\n        /* \"contracts/fraud-detector/libs/decode/msgDecoding.sol\":1361:1369  items[6] */\n      tag_166\n      dup8\n      tag_32\n      jump\t// in\n        /* \"contracts/fraud-detector/libs/decode/msgDecoding.sol\":1361:1379  items[6].toBytes() */\n    tag_179:\n        /* \"contracts/fraud-detector/libs/decode/msgDecoding.sol\":1338:1358  response.ReturnValue */\n      swap2\n      0xc0\n      dup9\n      add\n        /* \"contracts/fraud-detector/libs/decode/msgDecoding.sol\":1338:1379  response.ReturnValue = items[6].toBytes() */\n      swap3\n      dup4\n      mstore\n        /* \"contracts/fraud-detector/libs/decode/msgDecoding.sol\":1479:1496  items[7].toList() */\n      tag_181\n        /* \"contracts/fraud-detector/libs/decode/msgDecoding.sol\":1479:1487  items[7] */\n      tag_182\n      dup9\n      tag_33\n      jump\t// in\n    tag_182:\n      mload\n        /* \"contracts/fraud-detector/libs/decode/msgDecoding.sol\":1479:1496  items[7].toList() */\n      tag_57\n      jump\t// in\n    tag_181:\n        /* \"contracts/fraud-detector/libs/decode/msgDecoding.sol\":158:7789  library FraudProofDecoderLibrary {... */\n      swap5\n        /* \"contracts/fraud-detector/libs/decode/msgDecoding.sol\":1523:1553  new bytes[](proofItems.length) */\n      tag_183\n        /* \"contracts/fraud-detector/libs/decode/msgDecoding.sol\":158:7789  library FraudProofDecoderLibrary {... */\n      dup7\n      mload\n        /* \"contracts/fraud-detector/libs/decode/msgDecoding.sol\":1523:1553  new bytes[](proofItems.length) */\n      tag_43\n      jump\t// in\n    tag_183:\n        /* \"contracts/fraud-detector/libs/decode/msgDecoding.sol\":1506:1520  response.Proof */\n      swap7\n      0xe0\n      dup11\n      add\n        /* \"contracts/fraud-detector/libs/decode/msgDecoding.sol\":1506:1553  response.Proof = new bytes[](proofItems.length) */\n      swap8\n      dup9\n      mstore\n      0x00\n        /* \"contracts/fraud-detector/libs/decode/msgDecoding.sol\":1606:1609  i++ */\n    tag_184:\n        /* \"contracts/fraud-detector/libs/decode/msgDecoding.sol\":158:7789  library FraudProofDecoderLibrary {... */\n      dup11\n      dup9\n      mload\n        /* \"contracts/fraud-detector/libs/decode/msgDecoding.sol\":1583:1604  i < proofItems.length */\n      dup3\n      lt\n      iszero\n      tag_185\n      jumpi\n        /* \"contracts/fraud-detector/libs/decode/msgDecoding.sol\":1651:1664  proofItems[i] */\n      pop\n      dup1\n        /* \"contracts/fraud-detector/libs/decode/msgDecoding.sol\":1625:1675  response.Proof[i] = bytes(proofItems[i].toBytes()) */\n      tag_187\n        /* \"contracts/fraud-detector/libs/decode/msgDecoding.sol\":1651:1664  proofItems[i] */\n      dup2\n        /* \"contracts/fraud-detector/libs/decode/msgDecoding.sol\":1651:1674  proofItems[i].toBytes() */\n      tag_188\n        /* \"contracts/fraud-detector/libs/decode/msgDecoding.sol\":1651:1664  proofItems[i] */\n      tag_166\n        /* \"contracts/fraud-detector/libs/decode/msgDecoding.sol\":898:899  1 */\n      0x01\n        /* \"contracts/fraud-detector/libs/decode/msgDecoding.sol\":1651:1664  proofItems[i] */\n      swap6\n      dup14\n      tag_38\n      jump\t// in\n        /* \"contracts/fraud-detector/libs/decode/msgDecoding.sol\":1651:1674  proofItems[i].toBytes() */\n    tag_188:\n        /* \"contracts/fraud-detector/libs/decode/msgDecoding.sol\":1625:1639  response.Proof */\n      dup13\n      mload\n        /* \"contracts/fraud-detector/libs/decode/msgDecoding.sol\":1625:1675  response.Proof[i] = bytes(proofItems[i].toBytes()) */\n      swap1\n      tag_190\n      dup4\n      dup4\n      tag_38\n      jump\t// in\n    tag_190:\n      mstore\n      tag_38\n      jump\t// in\n    tag_187:\n      pop\n        /* \"contracts/fraud-detector/libs/decode/msgDecoding.sol\":158:7789  library FraudProofDecoderLibrary {... */\n      add\n        /* \"contracts/fraud-detector/libs/decode/msgDecoding.sol\":1568:1581  uint256 i = 0 */\n      jump(tag_184)\n        /* \"contracts/fraud-detector/libs/decode/msgDecoding.sol\":1583:1604  i < proofItems.length */\n    tag_185:\n      swap7\n      swap8\n      pop\n      pop\n      swap1\n        /* \"contracts/fraud-detector/libs/decode/msgDecoding.sol\":2123:2498  DecodedResponse(... */\n      tag_191\n      0x90eee31558acfcfed6439516fb8d12f248b9aef0fa51dd84936c1256090643f0\n        /* \"contracts/fraud-detector/libs/decode/msgDecoding.sol\":1583:1604  i < proofItems.length */\n      swap4\n      swap3\n        /* \"contracts/fraud-detector/libs/decode/msgDecoding.sol\":2527:2634  getMessageHash(response.ChannelId, response.Proof, response.TxHash, response.TxIdx, response.SignedReqBody) */\n      tag_192\n        /* \"contracts/fraud-detector/libs/decode/msgDecoding.sol\":1583:1604  i < proofItems.length */\n      swap11\n        /* \"contracts/fraud-detector/libs/decode/msgDecoding.sol\":1760:1787  bytes32(items[8].toBytes()) */\n      tag_193\n        /* \"contracts/fraud-detector/libs/decode/msgDecoding.sol\":1768:1786  items[8].toBytes() */\n      tag_168\n        /* \"contracts/fraud-detector/libs/decode/msgDecoding.sol\":1768:1776  items[8] */\n      tag_166\n      dup4\n      tag_34\n      jump\t// in\n        /* \"contracts/fraud-detector/libs/decode/msgDecoding.sol\":1760:1787  bytes32(items[8].toBytes()) */\n    tag_193:\n        /* \"contracts/fraud-detector/libs/decode/msgDecoding.sol\":1742:1757  response.TxHash */\n      swap8\n      0x0100\n      dup11\n      add\n        /* \"contracts/fraud-detector/libs/decode/msgDecoding.sol\":158:7789  library FraudProofDecoderLibrary {... */\n      swap9\n      dup10\n      mstore\n        /* \"contracts/fraud-detector/libs/decode/msgDecoding.sol\":1859:1867  items[9] */\n      dup11\n      dup13\n        /* \"contracts/fraud-detector/libs/decode/msgDecoding.sol\":1859:1877  items[9].toBytes() */\n      tag_196\n        /* \"contracts/fraud-detector/libs/decode/msgDecoding.sol\":1859:1867  items[9] */\n      tag_166\n      dup6\n      tag_35\n      jump\t// in\n        /* \"contracts/fraud-detector/libs/decode/msgDecoding.sol\":1859:1877  items[9].toBytes() */\n    tag_196:\n        /* \"contracts/fraud-detector/libs/decode/msgDecoding.sol\":1842:1856  response.TxIdx */\n      swap3\n      0x0120\n      dup14\n      add\n        /* \"contracts/fraud-detector/libs/decode/msgDecoding.sol\":1842:1877  response.TxIdx = items[9].toBytes() */\n      swap13\n      dup14\n      swap5\n      dup6\n      mstore\n        /* \"contracts/fraud-detector/libs/decode/msgDecoding.sol\":2008:2036  bytes32(items[11].toBytes()) */\n      tag_198\n        /* \"contracts/fraud-detector/libs/decode/msgDecoding.sol\":2016:2035  items[11].toBytes() */\n      tag_168\n        /* \"contracts/fraud-detector/libs/decode/msgDecoding.sol\":2016:2025  items[11] */\n      tag_166\n        /* \"contracts/fraud-detector/libs/decode/msgDecoding.sol\":1956:1975  items[10].toBytes() */\n      tag_201\n        /* \"contracts/fraud-detector/libs/decode/msgDecoding.sol\":1956:1965  items[10] */\n      tag_166\n      dup11\n      tag_36\n      jump\t// in\n        /* \"contracts/fraud-detector/libs/decode/msgDecoding.sol\":1956:1975  items[10].toBytes() */\n    tag_201:\n        /* \"contracts/fraud-detector/libs/decode/msgDecoding.sol\":1935:1953  response.Signature */\n      swap9\n      0x0140\n      dup6\n      add\n        /* \"contracts/fraud-detector/libs/decode/msgDecoding.sol\":1935:1975  response.Signature = items[10].toBytes() */\n      swap10\n      dup11\n      mstore\n        /* \"contracts/fraud-detector/libs/decode/msgDecoding.sol\":2016:2025  items[11] */\n      tag_37\n      jump\t// in\n        /* \"contracts/fraud-detector/libs/decode/msgDecoding.sol\":2008:2036  bytes32(items[11].toBytes()) */\n    tag_198:\n        /* \"contracts/fraud-detector/libs/decode/msgDecoding.sol\":1986:2005  response.TxRootHash */\n      0x0160\n      dup3\n      add\n        /* \"contracts/fraud-detector/libs/decode/msgDecoding.sol\":158:7789  library FraudProofDecoderLibrary {... */\n      mstore\n        /* \"contracts/fraud-detector/libs/decode/msgDecoding.sol\":2152:2165  response.Type */\n      mload\n        /* \"contracts/fraud-detector/libs/decode/msgDecoding.sol\":158:7789  library FraudProofDecoderLibrary {... */\n      swap8\n      dup12\n      mload\n      swap10\n      mload\n      swap7\n      mload\n        /* \"contracts/fraud-detector/libs/decode/msgDecoding.sol\":2274:2296  response.SignedReqBody */\n      swap4\n      mload\n        /* \"contracts/fraud-detector/libs/decode/msgDecoding.sol\":158:7789  library FraudProofDecoderLibrary {... */\n      swap1\n      mload\n        /* \"contracts/fraud-detector/libs/decode/msgDecoding.sol\":2351:2371  response.ReturnValue */\n      swap2\n      mload\n        /* \"contracts/fraud-detector/libs/decode/msgDecoding.sol\":2385:2399  response.Proof */\n      swap3\n      mload\n        /* \"contracts/fraud-detector/libs/decode/msgDecoding.sol\":158:7789  library FraudProofDecoderLibrary {... */\n      swap4\n      dup14\n      mload\n        /* \"contracts/fraud-detector/libs/decode/msgDecoding.sol\":2442:2456  response.TxIdx */\n      swap6\n      mload\n        /* \"contracts/fraud-detector/libs/decode/msgDecoding.sol\":2470:2488  response.Signature */\n      swap7\n      mload\n        /* \"contracts/fraud-detector/libs/decode/msgDecoding.sol\":158:7789  library FraudProofDecoderLibrary {... */\n      swap8\n        /* \"contracts/fraud-detector/libs/decode/msgDecoding.sol\":965:980  response.Amount */\n      0x40\n        /* \"contracts/fraud-detector/libs/decode/msgDecoding.sol\":158:7789  library FraudProofDecoderLibrary {... */\n      mload\n        /* \"contracts/fraud-detector/libs/decode/msgDecoding.sol\":2123:2498  DecodedResponse(... */\n      swap12\n      dup13\n      swap12\n      dup13\n      tag_45\n      jump\t// in\n    tag_191:\n      sub\n      swap1\n      log1\n        /* \"contracts/fraud-detector/libs/decode/msgDecoding.sol\":158:7789  library FraudProofDecoderLibrary {... */\n      mload\n        /* \"contracts/fraud-detector/libs/decode/msgDecoding.sol\":2562:2576  response.Proof */\n      swap4\n      mload\n        /* \"contracts/fraud-detector/libs/decode/msgDecoding.sol\":158:7789  library FraudProofDecoderLibrary {... */\n      swap1\n      mload\n        /* \"contracts/fraud-detector/libs/decode/msgDecoding.sol\":2595:2609  response.TxIdx */\n      swap2\n      mload\n        /* \"contracts/fraud-detector/libs/decode/msgDecoding.sol\":2611:2633  response.SignedReqBody */\n      swap3\n      mload\n        /* \"contracts/fraud-detector/libs/decode/msgDecoding.sol\":2527:2634  getMessageHash(response.ChannelId, response.Proof, response.TxHash, response.TxIdx, response.SignedReqBody) */\n      swap4\n      tag_47\n      jump\t// in\n    tag_192:\n        /* \"contracts/fraud-detector/libs/decode/msgDecoding.sol\":158:7789  library FraudProofDecoderLibrary {... */\n      swap1\n        /* \"contracts/fraud-detector/libs/decode/msgDecoding.sol\":2649:2665  msgHash(resHash) */\n      0xf9a7ea37911815f4a89b25e48dc4ee38541a0e1128907411984b0a228788c879\n        /* \"contracts/fraud-detector/libs/decode/msgDecoding.sol\":965:980  response.Amount */\n      0x40\n        /* \"contracts/fraud-detector/libs/decode/msgDecoding.sol\":158:7789  library FraudProofDecoderLibrary {... */\n      mload\n        /* \"contracts/fraud-detector/libs/decode/msgDecoding.sol\":2649:2665  msgHash(resHash) */\n      dup1\n      tag_203\n      dup6\n      dup3\n        /* \"contracts/fraud-detector/libs/decode/msgDecoding.sol\":158:7789  library FraudProofDecoderLibrary {... */\n      swap2\n      swap1\n      0x20\n      dup4\n      add\n      swap3\n      mstore\n      jump\n        /* \"contracts/fraud-detector/libs/decode/msgDecoding.sol\":2649:2665  msgHash(resHash) */\n    tag_203:\n      sub\n      swap1\n      log1\n        /* \"contracts/fraud-detector/libs/decode/msgDecoding.sol\":158:7789  library FraudProofDecoderLibrary {... */\n      tag_204\n        /* \"contracts/fraud-detector/libs/decode/msgDecoding.sol\":965:980  response.Amount */\n      0x40\n        /* \"contracts/fraud-detector/libs/decode/msgDecoding.sol\":158:7789  library FraudProofDecoderLibrary {... */\n      mload\n      swap3\n      dup4\n      swap3\n      dup4\n      tag_16\n      jump\t// in\n    tag_204:\n      sub\n      swap1\n      return\n    tag_18:\n      jumpi(tag_87, slt(add(not(0x03), calldatasize), 0xa0))\n      0xffffffffffffffff\n      calldataload(0x24)\n      dup2\n      dup2\n      gt\n      tag_87\n      jumpi\n      tag_209\n      swap1\n      calldatasize\n      swap1\n      0x04\n      add\n      tag_10\n      jump\t// in\n    tag_209:\n      swap1\n      calldataload(0x64)\n      dup2\n      dup2\n      gt\n      tag_87\n      jumpi\n      tag_212\n      swap1\n      calldatasize\n      swap1\n      0x04\n      add\n      tag_6\n      jump\t// in\n    tag_212:\n      swap2\n      calldataload(0x84)\n      swap2\n      dup3\n      gt\n      tag_87\n      jumpi\n      0x20\n      swap3\n      tag_215\n      tag_112\n      swap4\n      calldatasize\n      swap1\n      0x04\n      add\n      tag_6\n      jump\t// in\n    tag_215:\n      swap2\n      calldataload(0x44)\n      swap1\n      calldataload(0x04)\n      tag_47\n      jump\t// in\n    tag_19:\n      swap3\n      swap2\n      swap1\n      0x20\n      swap1\n      0x40\n      dup6\n      mstore\n      dup1\n      mload\n      tag_217\n      tag_218\n      0x0160\n      swap3\n      dup4\n      0x40\n      dup11\n      add\n      mstore\n      0x01a0\n      dup10\n      add\n      swap1\n      tag_14\n      jump\t// in\n    tag_218:\n      swap2\n      dup5\n      dup5\n      add\n      mload\n      0x60\n      dup10\n      add\n      mstore\n      0x40\n      dup5\n      add\n      mload\n      0x80\n      dup10\n      add\n      mstore\n      0x60\n      dup5\n      add\n      mload\n      0xa0\n      dup10\n      add\n      mstore\n      tag_219\n      0x80\n      dup6\n      add\n      mload\n      swap4\n      not(0x3f)\n      swap5\n      dup6\n      dup12\n      dup4\n      sub\n      add\n      0xc0\n      dup13\n      add\n      mstore\n      tag_14\n      jump\t// in\n    tag_219:\n      swap3\n      0xa0\n      dup6\n      add\n      mload\n      0xe0\n      dup11\n      add\n      mstore\n      tag_220\n      0xc0\n      dup7\n      add\n      mload\n      swap5\n      0x0100\n      swap6\n      dup4\n      dup13\n      dup4\n      sub\n      add\n      dup8\n      dup14\n      add\n      mstore\n      tag_14\n      jump\t// in\n    tag_220:\n      swap2\n      tag_157\n      tag_222\n      0xe0\n      dup9\n      add\n      mload\n      swap5\n      0x0120\n      swap6\n      dup14\n      dup8\n      dup8\n      dup3\n      dup6\n      sub\n      add\n      swap2\n      add\n      mstore\n      tag_15\n      jump\t// in\n    tag_222:\n      swap6\n      dup8\n      add\n      mload\n      swap6\n      0x0140\n      swap7\n      dup13\n      dup9\n      dup7\n      dup3\n      dup6\n      sub\n      add\n      swap2\n      add\n      mstore\n      tag_14\n      jump\t// in\n    tag_217:\n      swap2\n      add\n      mload\n      0x0180\n      dup7\n      add\n      mstore\n      swap4\n      add\n      mstore\n      jump\t// out\n    tag_20:\n        /* \"contracts/fraud-detector/libs/decode/msgDecoding.sol\":5295:5326  encodedMsg.toRlpItem().toList() */\n      tag_223\n        /* \"contracts/fraud-detector/libs/decode/msgDecoding.sol\":5295:5317  encodedMsg.toRlpItem() */\n      tag_160\n        /* \"contracts/fraud-detector/libs/decode/msgDecoding.sol\":158:7789  library FraudProofDecoderLibrary {... */\n      tag_225\n      calldatasize\n      tag_12\n      jump\t// in\n    tag_225:\n      tag_162\n      tag_48\n      jump\t// in\n        /* \"contracts/fraud-detector/libs/decode/msgDecoding.sol\":5295:5326  encodedMsg.toRlpItem().toList() */\n    tag_223:\n        /* \"contracts/fraud-detector/libs/decode/msgDecoding.sol\":5384:5461  require(items.length == 11, \"Incorrect number of fields in RLP encoded data\") */\n      tag_227\n        /* \"contracts/fraud-detector/libs/decode/msgDecoding.sol\":5408:5410  11 */\n      0x0b\n        /* \"contracts/fraud-detector/libs/decode/msgDecoding.sol\":158:7789  library FraudProofDecoderLibrary {... */\n      dup3\n      mload\n        /* \"contracts/fraud-detector/libs/decode/msgDecoding.sol\":5392:5410  items.length == 11 */\n      eq\n        /* \"contracts/fraud-detector/libs/decode/msgDecoding.sol\":5384:5461  require(items.length == 11, \"Incorrect number of fields in RLP encoded data\") */\n      tag_41\n      jump\t// in\n    tag_227:\n        /* \"contracts/fraud-detector/libs/decode/msgDecoding.sol\":158:7789  library FraudProofDecoderLibrary {... */\n      tag_228\n      tag_48\n      jump\t// in\n    tag_228:\n        /* \"contracts/fraud-detector/libs/decode/msgDecoding.sol\":5564:5582  items[0].toBytes() */\n      tag_229\n        /* \"contracts/fraud-detector/libs/decode/msgDecoding.sol\":5564:5572  items[0] */\n      tag_166\n      dup4\n      tag_26\n      jump\t// in\n        /* \"contracts/fraud-detector/libs/decode/msgDecoding.sol\":5564:5582  items[0].toBytes() */\n    tag_229:\n        /* \"contracts/fraud-detector/libs/decode/msgDecoding.sol\":5539:5583  responseSP.Type = string(items[0].toBytes()) */\n      dup2\n      mstore\n        /* \"contracts/fraud-detector/libs/decode/msgDecoding.sol\":5616:5643  bytes32(items[1].toBytes()) */\n      tag_231\n        /* \"contracts/fraud-detector/libs/decode/msgDecoding.sol\":5624:5642  items[1].toBytes() */\n      tag_168\n        /* \"contracts/fraud-detector/libs/decode/msgDecoding.sol\":5624:5632  items[1] */\n      tag_166\n      dup5\n      tag_27\n      jump\t// in\n        /* \"contracts/fraud-detector/libs/decode/msgDecoding.sol\":5616:5643  bytes32(items[1].toBytes()) */\n    tag_231:\n        /* \"contracts/fraud-detector/libs/decode/msgDecoding.sol\":5593:5613  responseSP.ChannelId */\n      swap2\n      0x20\n      dup3\n      add\n        /* \"contracts/fraud-detector/libs/decode/msgDecoding.sol\":158:7789  library FraudProofDecoderLibrary {... */\n      swap3\n      dup4\n      mstore\n        /* \"contracts/fraud-detector/libs/decode/msgDecoding.sol\":5673:5690  items[2].toUint() */\n      tag_234\n        /* \"contracts/fraud-detector/libs/decode/msgDecoding.sol\":5673:5681  items[2] */\n      tag_171\n      dup3\n      tag_28\n      jump\t// in\n        /* \"contracts/fraud-detector/libs/decode/msgDecoding.sol\":5673:5690  items[2].toUint() */\n    tag_234:\n        /* \"contracts/fraud-detector/libs/decode/msgDecoding.sol\":5653:5670  responseSP.Amount */\n      swap2\n      0x40\n      dup2\n      add\n        /* \"contracts/fraud-detector/libs/decode/msgDecoding.sol\":158:7789  library FraudProofDecoderLibrary {... */\n      swap3\n      dup4\n      mstore\n        /* \"contracts/fraud-detector/libs/decode/msgDecoding.sol\":5725:5752  bytes32(items[3].toBytes()) */\n      tag_236\n        /* \"contracts/fraud-detector/libs/decode/msgDecoding.sol\":5733:5751  items[3].toBytes() */\n      tag_168\n        /* \"contracts/fraud-detector/libs/decode/msgDecoding.sol\":5733:5741  items[3] */\n      tag_166\n      dup5\n      tag_29\n      jump\t// in\n        /* \"contracts/fraud-detector/libs/decode/msgDecoding.sol\":5725:5752  bytes32(items[3].toBytes()) */\n    tag_236:\n        /* \"contracts/fraud-detector/libs/decode/msgDecoding.sol\":5700:5722  responseSP.ReqBodyHash */\n      swap4\n      0x60\n      dup3\n      add\n        /* \"contracts/fraud-detector/libs/decode/msgDecoding.sol\":158:7789  library FraudProofDecoderLibrary {... */\n      swap5\n      dup6\n      mstore\n        /* \"contracts/fraud-detector/libs/decode/msgDecoding.sol\":5789:5807  items[4].toBytes() */\n      tag_239\n        /* \"contracts/fraud-detector/libs/decode/msgDecoding.sol\":5789:5797  items[4] */\n      tag_166\n      dup5\n      tag_30\n      jump\t// in\n        /* \"contracts/fraud-detector/libs/decode/msgDecoding.sol\":5789:5807  items[4].toBytes() */\n    tag_239:\n        /* \"contracts/fraud-detector/libs/decode/msgDecoding.sol\":5762:5786  responseSP.SignedReqBody */\n      swap1\n      0x80\n      dup4\n      add\n        /* \"contracts/fraud-detector/libs/decode/msgDecoding.sol\":5762:5807  responseSP.SignedReqBody = items[4].toBytes() */\n      swap2\n      dup3\n      mstore\n        /* \"contracts/fraud-detector/libs/decode/msgDecoding.sol\":5849:5866  items[5].toUint() */\n      tag_241\n        /* \"contracts/fraud-detector/libs/decode/msgDecoding.sol\":5849:5857  items[5] */\n      tag_171\n      dup6\n      tag_31\n      jump\t// in\n        /* \"contracts/fraud-detector/libs/decode/msgDecoding.sol\":5849:5866  items[5].toUint() */\n    tag_241:\n        /* \"contracts/fraud-detector/libs/decode/msgDecoding.sol\":5817:5846  responseSP.CurrentBlockHeight */\n      swap5\n      0xa0\n      dup5\n      add\n        /* \"contracts/fraud-detector/libs/decode/msgDecoding.sol\":158:7789  library FraudProofDecoderLibrary {... */\n      swap6\n      dup7\n      mstore\n        /* \"contracts/fraud-detector/libs/decode/msgDecoding.sol\":5901:5919  items[6].toBytes() */\n      tag_243\n        /* \"contracts/fraud-detector/libs/decode/msgDecoding.sol\":5901:5909  items[6] */\n      tag_166\n      dup7\n      tag_32\n      jump\t// in\n        /* \"contracts/fraud-detector/libs/decode/msgDecoding.sol\":5901:5919  items[6].toBytes() */\n    tag_243:\n        /* \"contracts/fraud-detector/libs/decode/msgDecoding.sol\":5876:5898  responseSP.ReturnValue */\n      0xc0\n      dup6\n      add\n        /* \"contracts/fraud-detector/libs/decode/msgDecoding.sol\":5876:5919  responseSP.ReturnValue = items[6].toBytes() */\n      swap1\n      dup2\n      mstore\n        /* \"contracts/fraud-detector/libs/decode/msgDecoding.sol\":6029:6046  items[7].toList() */\n      tag_245\n        /* \"contracts/fraud-detector/libs/decode/msgDecoding.sol\":6029:6037  items[7] */\n      tag_182\n      dup8\n      tag_33\n      jump\t// in\n        /* \"contracts/fraud-detector/libs/decode/msgDecoding.sol\":6029:6046  items[7].toList() */\n    tag_245:\n        /* \"contracts/fraud-detector/libs/decode/msgDecoding.sol\":158:7789  library FraudProofDecoderLibrary {... */\n      swap8\n        /* \"contracts/fraud-detector/libs/decode/msgDecoding.sol\":6075:6105  new bytes[](proofItems.length) */\n      tag_247\n        /* \"contracts/fraud-detector/libs/decode/msgDecoding.sol\":158:7789  library FraudProofDecoderLibrary {... */\n      dup10\n      mload\n        /* \"contracts/fraud-detector/libs/decode/msgDecoding.sol\":6075:6105  new bytes[](proofItems.length) */\n      tag_43\n      jump\t// in\n    tag_247:\n        /* \"contracts/fraud-detector/libs/decode/msgDecoding.sol\":6056:6072  responseSP.Proof */\n      swap7\n      0xe0\n      dup8\n      add\n        /* \"contracts/fraud-detector/libs/decode/msgDecoding.sol\":6056:6105  responseSP.Proof = new bytes[](proofItems.length) */\n      swap8\n      dup9\n      mstore\n      0x00\n        /* \"contracts/fraud-detector/libs/decode/msgDecoding.sol\":6158:6161  i++ */\n    tag_248:\n        /* \"contracts/fraud-detector/libs/decode/msgDecoding.sol\":158:7789  library FraudProofDecoderLibrary {... */\n      dup11\n      mload\n        /* \"contracts/fraud-detector/libs/decode/msgDecoding.sol\":6135:6156  i < proofItems.length */\n      dup2\n      lt\n      iszero\n      tag_249\n      jumpi\n        /* \"contracts/fraud-detector/libs/decode/msgDecoding.sol\":6199:6212  proofItems[i] */\n      dup1\n        /* \"contracts/fraud-detector/libs/decode/msgDecoding.sol\":6177:6222  responseSP.Proof[i] = proofItems[i].toBytes() */\n      tag_251\n        /* \"contracts/fraud-detector/libs/decode/msgDecoding.sol\":6199:6212  proofItems[i] */\n      dup2\n        /* \"contracts/fraud-detector/libs/decode/msgDecoding.sol\":6199:6222  proofItems[i].toBytes() */\n      tag_188\n        /* \"contracts/fraud-detector/libs/decode/msgDecoding.sol\":6199:6212  proofItems[i] */\n      tag_166\n      dup16\n      swap6\n        /* \"contracts/fraud-detector/libs/decode/msgDecoding.sol\":5630:5631  1 */\n      0x01\n        /* \"contracts/fraud-detector/libs/decode/msgDecoding.sol\":6199:6212  proofItems[i] */\n      swap7\n      tag_38\n      jump\t// in\n        /* \"contracts/fraud-detector/libs/decode/msgDecoding.sol\":6177:6222  responseSP.Proof[i] = proofItems[i].toBytes() */\n    tag_251:\n      pop\n        /* \"contracts/fraud-detector/libs/decode/msgDecoding.sol\":158:7789  library FraudProofDecoderLibrary {... */\n      add\n        /* \"contracts/fraud-detector/libs/decode/msgDecoding.sol\":6120:6133  uint256 i = 0 */\n      jump(tag_248)\n        /* \"contracts/fraud-detector/libs/decode/msgDecoding.sol\":6135:6156  i < proofItems.length */\n    tag_249:\n      pop\n        /* \"contracts/fraud-detector/libs/decode/msgDecoding.sol\":6462:6867  DecodedResponseSP(... */\n      0xe5fda43f81ac665889dc77778f276a13836ee131965d49e6cdd827ea35343f15\n        /* \"contracts/fraud-detector/libs/decode/msgDecoding.sol\":6135:6156  i < proofItems.length */\n      swap4\n      swap3\n      swap2\n        /* \"contracts/fraud-detector/libs/decode/msgDecoding.sol\":6462:6867  DecodedResponseSP(... */\n      tag_255\n        /* \"contracts/fraud-detector/libs/decode/msgDecoding.sol\":6135:6156  i < proofItems.length */\n      swap2\n        /* \"contracts/fraud-detector/libs/decode/msgDecoding.sol\":7112:7785  function getMessageHashSP(... */\n      tag_256\n        /* \"contracts/fraud-detector/libs/decode/msgDecoding.sol\":6135:6156  i < proofItems.length */\n      swap10\n      swap9\n      swap11\n        /* \"contracts/fraud-detector/libs/decode/msgDecoding.sol\":6264:6282  items[8].toBytes() */\n      tag_257\n        /* \"contracts/fraud-detector/libs/decode/msgDecoding.sol\":6264:6272  items[8] */\n      tag_166\n      dup4\n      tag_34\n      jump\t// in\n        /* \"contracts/fraud-detector/libs/decode/msgDecoding.sol\":6264:6282  items[8].toBytes() */\n    tag_257:\n        /* \"contracts/fraud-detector/libs/decode/msgDecoding.sol\":6243:6261  responseSP.Address */\n      swap1\n      0x0100\n      dup14\n      add\n        /* \"contracts/fraud-detector/libs/decode/msgDecoding.sol\":6243:6282  responseSP.Address = items[8].toBytes() */\n      swap2\n      dup3\n      mstore\n        /* \"contracts/fraud-detector/libs/decode/msgDecoding.sol\":6366:6374  items[9] */\n      dup13\n        /* \"contracts/fraud-detector/libs/decode/msgDecoding.sol\":6394:6415  responseSP.TxRootHash */\n      0x0140\n        /* \"contracts/fraud-detector/libs/decode/msgDecoding.sol\":6418:6446  bytes32(items[10].toBytes()) */\n      tag_259\n        /* \"contracts/fraud-detector/libs/decode/msgDecoding.sol\":6426:6445  items[10].toBytes() */\n      tag_168\n        /* \"contracts/fraud-detector/libs/decode/msgDecoding.sol\":6426:6435  items[10] */\n      tag_166\n        /* \"contracts/fraud-detector/libs/decode/msgDecoding.sol\":6366:6384  items[9].toBytes() */\n      tag_262\n        /* \"contracts/fraud-detector/libs/decode/msgDecoding.sol\":6366:6374  items[9] */\n      tag_166\n      dup10\n      tag_35\n      jump\t// in\n        /* \"contracts/fraud-detector/libs/decode/msgDecoding.sol\":6366:6384  items[9].toBytes() */\n    tag_262:\n        /* \"contracts/fraud-detector/libs/decode/msgDecoding.sol\":6343:6363  responseSP.Signature */\n      swap8\n      0x0120\n      dup7\n      add\n        /* \"contracts/fraud-detector/libs/decode/msgDecoding.sol\":6343:6384  responseSP.Signature = items[9].toBytes() */\n      swap9\n      dup10\n      mstore\n        /* \"contracts/fraud-detector/libs/decode/msgDecoding.sol\":6426:6435  items[10] */\n      tag_36\n      jump\t// in\n        /* \"contracts/fraud-detector/libs/decode/msgDecoding.sol\":6418:6446  bytes32(items[10].toBytes()) */\n    tag_259:\n        /* \"contracts/fraud-detector/libs/decode/msgDecoding.sol\":6394:6415  responseSP.TxRootHash */\n      swap2\n      add\n        /* \"contracts/fraud-detector/libs/decode/msgDecoding.sol\":158:7789  library FraudProofDecoderLibrary {... */\n      mstore\n        /* \"contracts/fraud-detector/libs/decode/msgDecoding.sol\":6493:6508  responseSP.Type */\n      dup13\n      mload\n        /* \"contracts/fraud-detector/libs/decode/msgDecoding.sol\":158:7789  library FraudProofDecoderLibrary {... */\n      swap6\n      dup10\n      mload\n      swap8\n      mload\n      swap5\n      mload\n        /* \"contracts/fraud-detector/libs/decode/msgDecoding.sol\":6623:6647  responseSP.SignedReqBody */\n      swap2\n      dup12\n      mload\n        /* \"contracts/fraud-detector/libs/decode/msgDecoding.sol\":158:7789  library FraudProofDecoderLibrary {... */\n      swap1\n      mload\n        /* \"contracts/fraud-detector/libs/decode/msgDecoding.sol\":6704:6726  responseSP.ReturnValue */\n      swap2\n      mload\n        /* \"contracts/fraud-detector/libs/decode/msgDecoding.sol\":6740:6756  responseSP.Proof */\n      swap3\n      dup14\n      mload\n        /* \"contracts/fraud-detector/libs/decode/msgDecoding.sol\":6770:6788  responseSP.Address */\n      swap5\n      mload\n        /* \"contracts/fraud-detector/libs/decode/msgDecoding.sol\":6837:6857  responseSP.Signature */\n      swap6\n      mload\n        /* \"contracts/fraud-detector/libs/decode/msgDecoding.sol\":158:7789  library FraudProofDecoderLibrary {... */\n      swap7\n        /* \"contracts/fraud-detector/libs/decode/msgDecoding.sol\":5653:5670  responseSP.Amount */\n      0x40\n        /* \"contracts/fraud-detector/libs/decode/msgDecoding.sol\":158:7789  library FraudProofDecoderLibrary {... */\n      mload\n        /* \"contracts/fraud-detector/libs/decode/msgDecoding.sol\":6462:6867  DecodedResponseSP(... */\n      swap11\n      dup12\n      swap11\n      dup12\n      tag_49\n      jump\t// in\n    tag_255:\n      sub\n      swap1\n      log1\n        /* \"contracts/fraud-detector/libs/decode/msgDecoding.sol\":158:7789  library FraudProofDecoderLibrary {... */\n      mload\n        /* \"contracts/fraud-detector/libs/decode/msgDecoding.sol\":6935:6951  responseSP.Proof */\n      swap2\n      mload\n        /* \"contracts/fraud-detector/libs/decode/msgDecoding.sol\":6953:6977  responseSP.SignedReqBody */\n      swap1\n      mload\n        /* \"contracts/fraud-detector/libs/decode/msgDecoding.sol\":7112:7785  function getMessageHashSP(... */\n      swap2\n      tag_39\n      jump\t// in\n    tag_256:\n        /* \"contracts/fraud-detector/libs/decode/msgDecoding.sol\":158:7789  library FraudProofDecoderLibrary {... */\n      swap1\n        /* \"contracts/fraud-detector/libs/decode/msgDecoding.sol\":7044:7060  msgHash(resHash) */\n      0xf9a7ea37911815f4a89b25e48dc4ee38541a0e1128907411984b0a228788c879\n        /* \"contracts/fraud-detector/libs/decode/msgDecoding.sol\":5653:5670  responseSP.Amount */\n      0x40\n        /* \"contracts/fraud-detector/libs/decode/msgDecoding.sol\":158:7789  library FraudProofDecoderLibrary {... */\n      mload\n        /* \"contracts/fraud-detector/libs/decode/msgDecoding.sol\":7044:7060  msgHash(resHash) */\n      dup1\n      tag_264\n      dup6\n      dup3\n        /* \"contracts/fraud-detector/libs/decode/msgDecoding.sol\":158:7789  library FraudProofDecoderLibrary {... */\n      swap2\n      swap1\n      0x20\n      dup4\n      add\n      swap3\n      mstore\n      jump\n        /* \"contracts/fraud-detector/libs/decode/msgDecoding.sol\":7044:7060  msgHash(resHash) */\n    tag_264:\n      sub\n      swap1\n      log1\n        /* \"contracts/fraud-detector/libs/decode/msgDecoding.sol\":158:7789  library FraudProofDecoderLibrary {... */\n      tag_204\n        /* \"contracts/fraud-detector/libs/decode/msgDecoding.sol\":5653:5670  responseSP.Amount */\n      0x40\n        /* \"contracts/fraud-detector/libs/decode/msgDecoding.sol\":158:7789  library FraudProofDecoderLibrary {... */\n      mload\n      swap3\n      dup4\n      swap3\n      dup4\n      tag_19\n      jump\t// in\n    tag_21:\n      swap3\n      swap2\n      swap1\n      tag_266\n      0x60\n      0x20\n      swap3\n      0x40\n      dup8\n      mstore\n      dup1\n      mload\n      0x40\n      dup9\n      add\n      mstore\n      dup4\n      dup2\n      add\n      mload\n      dup3\n      dup9\n      add\n      mstore\n      0x40\n      dup2\n      add\n      mload\n      0x80\n      dup9\n      add\n      mstore\n      add\n      mload\n      0x80\n      0xa0\n      dup8\n      add\n      mstore\n      0xc0\n      dup7\n      add\n      swap1\n      tag_14\n      jump\t// in\n    tag_266:\n      swap4\n      add\n      mstore\n      jump\t// out\n    tag_22:\n        /* \"contracts/fraud-detector/libs/decode/msgDecoding.sol\":3533:3571  serializedReqBody.toRlpItem().toList() */\n      tag_267\n        /* \"contracts/fraud-detector/libs/decode/msgDecoding.sol\":3533:3562  serializedReqBody.toRlpItem() */\n      tag_160\n        /* \"contracts/fraud-detector/libs/decode/msgDecoding.sol\":158:7789  library FraudProofDecoderLibrary {... */\n      tag_269\n      calldatasize\n      tag_12\n      jump\t// in\n    tag_269:\n      tag_162\n      tag_50\n      jump\t// in\n        /* \"contracts/fraud-detector/libs/decode/msgDecoding.sol\":3533:3571  serializedReqBody.toRlpItem().toList() */\n    tag_267:\n        /* \"contracts/fraud-detector/libs/decode/msgDecoding.sol\":3685:3761  require(items.length == 4, \"Incorrect number of fields in RLP encoded data\") */\n      tag_271\n        /* \"contracts/fraud-detector/libs/decode/msgDecoding.sol\":158:7789  library FraudProofDecoderLibrary {... */\n      0x04\n      dup3\n      mload\n        /* \"contracts/fraud-detector/libs/decode/msgDecoding.sol\":3693:3710  items.length == 4 */\n      eq\n        /* \"contracts/fraud-detector/libs/decode/msgDecoding.sol\":3685:3761  require(items.length == 4, \"Incorrect number of fields in RLP encoded data\") */\n      tag_41\n      jump\t// in\n    tag_271:\n        /* \"contracts/fraud-detector/libs/decode/msgDecoding.sol\":158:7789  library FraudProofDecoderLibrary {... */\n      tag_272\n      tag_50\n      jump\t// in\n    tag_272:\n        /* \"contracts/fraud-detector/libs/decode/msgDecoding.sol\":4039:4066  bytes32(items[0].toBytes()) */\n      tag_273\n        /* \"contracts/fraud-detector/libs/decode/msgDecoding.sol\":4047:4065  items[0].toBytes() */\n      tag_168\n        /* \"contracts/fraud-detector/libs/decode/msgDecoding.sol\":4047:4055  items[0] */\n      tag_166\n      dup5\n      tag_26\n      jump\t// in\n        /* \"contracts/fraud-detector/libs/decode/msgDecoding.sol\":4039:4066  bytes32(items[0].toBytes()) */\n    tag_273:\n        /* \"contracts/fraud-detector/libs/decode/msgDecoding.sol\":158:7789  library FraudProofDecoderLibrary {... */\n      dup2\n      mstore\n      tag_204\n        /* \"contracts/fraud-detector/libs/decode/msgDecoding.sol\":4596:4690  getReqMessageHash(reqBody.ChannelId, reqBody.Amount, reqBody.LocalBlockHash, reqBody.ReqBytes) */\n      tag_277\n        /* \"contracts/fraud-detector/libs/decode/msgDecoding.sol\":4147:4164  items[1].toUint() */\n      tag_278\n        /* \"contracts/fraud-detector/libs/decode/msgDecoding.sol\":4147:4155  items[1] */\n      tag_171\n      dup6\n      tag_27\n      jump\t// in\n        /* \"contracts/fraud-detector/libs/decode/msgDecoding.sol\":4147:4164  items[1].toUint() */\n    tag_278:\n        /* \"contracts/fraud-detector/libs/decode/msgDecoding.sol\":4130:4144  reqBody.Amount */\n      swap4\n      0x20\n      dup5\n      add\n        /* \"contracts/fraud-detector/libs/decode/msgDecoding.sol\":158:7789  library FraudProofDecoderLibrary {... */\n      swap1\n      dup6\n      dup3\n      mstore\n        /* \"contracts/fraud-detector/libs/decode/msgDecoding.sol\":4179:4205  emitAmount(reqBody.Amount) */\n      0x245716014a178144670148ec993e73f5f2cbc96529afa0b8fbe731b4a74566bc\n      tag_280\n        /* \"contracts/fraud-detector/libs/decode/msgDecoding.sol\":158:7789  library FraudProofDecoderLibrary {... */\n      0x40\n      swap8\n      dup9\n      mload\n        /* \"contracts/fraud-detector/libs/decode/msgDecoding.sol\":4179:4205  emitAmount(reqBody.Amount) */\n      swap2\n      dup3\n      swap2\n      dup3\n        /* \"contracts/fraud-detector/libs/decode/msgDecoding.sol\":158:7789  library FraudProofDecoderLibrary {... */\n      swap2\n      swap1\n      0x20\n      dup4\n      add\n      swap3\n      mstore\n      jump\n        /* \"contracts/fraud-detector/libs/decode/msgDecoding.sol\":4179:4205  emitAmount(reqBody.Amount) */\n    tag_280:\n      sub\n      swap1\n      log1\n        /* \"contracts/fraud-detector/libs/decode/msgDecoding.sol\":4310:4337  bytes32(items[2].toBytes()) */\n      tag_281\n        /* \"contracts/fraud-detector/libs/decode/msgDecoding.sol\":4318:4336  items[2].toBytes() */\n      tag_168\n        /* \"contracts/fraud-detector/libs/decode/msgDecoding.sol\":4318:4326  items[2] */\n      tag_166\n      dup4\n      tag_28\n      jump\t// in\n        /* \"contracts/fraud-detector/libs/decode/msgDecoding.sol\":4310:4337  bytes32(items[2].toBytes()) */\n    tag_281:\n        /* \"contracts/fraud-detector/libs/decode/msgDecoding.sol\":4285:4307  reqBody.LocalBlockHash */\n      dup7\n      dup7\n      add\n        /* \"contracts/fraud-detector/libs/decode/msgDecoding.sol\":158:7789  library FraudProofDecoderLibrary {... */\n      dup2\n      dup2\n      mstore\n      dup8\n      mload\n      swap2\n      dup3\n      mstore\n        /* \"contracts/fraud-detector/libs/decode/msgDecoding.sol\":4285:4307  reqBody.LocalBlockHash */\n      swap1\n        /* \"contracts/fraud-detector/libs/decode/msgDecoding.sol\":4352:4394  emitLocalBlockHash(reqBody.LocalBlockHash) */\n      0xb7cfa42c424e0e7e35ff08e6ea1cf2789fec94621f570d48f844b82582a4b8ec\n      swap1\n        /* \"contracts/fraud-detector/libs/decode/msgDecoding.sol\":158:7789  library FraudProofDecoderLibrary {... */\n      0x20\n      swap1\n        /* \"contracts/fraud-detector/libs/decode/msgDecoding.sol\":4352:4394  emitLocalBlockHash(reqBody.LocalBlockHash) */\n      log1\n        /* \"contracts/fraud-detector/libs/decode/msgDecoding.sol\":4459:4563  DecodeRequest(reqBody.ChannelId, reqBody.Amount, reqBody.LocalBlockHash, reqBody.ReqBytes, items.length) */\n      0xa690c9f86196602d7fd3dd6934f38b29ee9bd564d1a89bb5d3372ae964f0d537\n        /* \"contracts/fraud-detector/libs/decode/msgDecoding.sol\":4424:4442  items[3].toBytes() */\n      tag_285\n        /* \"contracts/fraud-detector/libs/decode/msgDecoding.sol\":4424:4432  items[3] */\n      tag_166\n      dup5\n      tag_29\n      jump\t// in\n        /* \"contracts/fraud-detector/libs/decode/msgDecoding.sol\":4424:4442  items[3].toBytes() */\n    tag_285:\n        /* \"contracts/fraud-detector/libs/decode/msgDecoding.sol\":4405:4421  reqBody.ReqBytes */\n      0x60\n      dup9\n      add\n        /* \"contracts/fraud-detector/libs/decode/msgDecoding.sol\":4405:4442  reqBody.ReqBytes = items[3].toBytes() */\n      swap4\n      dup2\n      dup6\n      mstore\n        /* \"contracts/fraud-detector/libs/decode/msgDecoding.sol\":4459:4563  DecodeRequest(reqBody.ChannelId, reqBody.Amount, reqBody.LocalBlockHash, reqBody.ReqBytes, items.length) */\n      tag_287\n        /* \"contracts/fraud-detector/libs/decode/msgDecoding.sol\":158:7789  library FraudProofDecoderLibrary {... */\n      dup10\n      mload\n      swap2\n      dup8\n      mload\n      swap4\n      dup7\n      mload\n      swap2\n      mload\n      swap2\n      dup14\n      mload\n        /* \"contracts/fraud-detector/libs/decode/msgDecoding.sol\":4459:4563  DecodeRequest(reqBody.ChannelId, reqBody.Amount, reqBody.LocalBlockHash, reqBody.ReqBytes, items.length) */\n      swap6\n      dup7\n      swap6\n      dup7\n      tag_51\n      jump\t// in\n    tag_287:\n      sub\n      swap1\n      log1\n        /* \"contracts/fraud-detector/libs/decode/msgDecoding.sol\":158:7789  library FraudProofDecoderLibrary {... */\n      dup6\n      mload\n      swap3\n      mload\n      swap1\n      mload\n        /* \"contracts/fraud-detector/libs/decode/msgDecoding.sol\":4673:4689  reqBody.ReqBytes */\n      swap2\n      mload\n        /* \"contracts/fraud-detector/libs/decode/msgDecoding.sol\":4596:4690  getReqMessageHash(reqBody.ChannelId, reqBody.Amount, reqBody.LocalBlockHash, reqBody.ReqBytes) */\n      swap3\n      tag_24\n      jump\t// in\n    tag_277:\n        /* \"contracts/fraud-detector/libs/decode/msgDecoding.sol\":158:7789  library FraudProofDecoderLibrary {... */\n      swap3\n        /* \"contracts/fraud-detector/libs/decode/msgDecoding.sol\":4705:4725  msgHash(messageHash) */\n      0xf9a7ea37911815f4a89b25e48dc4ee38541a0e1128907411984b0a228788c879\n        /* \"contracts/fraud-detector/libs/decode/msgDecoding.sol\":158:7789  library FraudProofDecoderLibrary {... */\n      dup2\n      mload\n        /* \"contracts/fraud-detector/libs/decode/msgDecoding.sol\":4705:4725  msgHash(messageHash) */\n      dup1\n      tag_288\n      dup8\n      dup3\n        /* \"contracts/fraud-detector/libs/decode/msgDecoding.sol\":158:7789  library FraudProofDecoderLibrary {... */\n      swap2\n      swap1\n      0x20\n      dup4\n      add\n      swap3\n      mstore\n      jump\n        /* \"contracts/fraud-detector/libs/decode/msgDecoding.sol\":4705:4725  msgHash(messageHash) */\n    tag_288:\n      sub\n      swap1\n      log1\n        /* \"contracts/fraud-detector/libs/decode/msgDecoding.sol\":158:7789  library FraudProofDecoderLibrary {... */\n      mload\n      swap3\n      dup4\n      swap3\n      dup4\n      tag_21\n      jump\t// in\n    tag_23:\n      swap1\n      tag_289\n      0x20\n      swap3\n      dup3\n      dup2\n      mload\n      swap5\n      dup6\n      swap3\n      add\n      tag_13\n      jump\t// in\n    tag_289:\n      add\n      swap1\n      jump\t// out\n        /* \"contracts/fraud-detector/libs/decode/msgDecoding.sol\":4777:5105  function getReqMessageHash(... */\n    tag_24:\n      swap3\n        /* \"contracts/fraud-detector/libs/decode/msgDecoding.sol\":4978:5097  abi.encodePacked(... */\n      tag_290\n        /* \"contracts/fraud-detector/libs/decode/msgDecoding.sol\":4777:5105  function getReqMessageHash(... */\n      swap2\n        /* \"contracts/fraud-detector/libs/decode/msgDecoding.sol\":158:7789  library FraudProofDecoderLibrary {... */\n      0x80\n        /* \"contracts/fraud-detector/libs/decode/msgDecoding.sol\":4777:5105  function getReqMessageHash(... */\n      swap2\n        /* \"contracts/fraud-detector/libs/decode/msgDecoding.sol\":158:7789  library FraudProofDecoderLibrary {... */\n      mload(0x40)\n        /* \"contracts/fraud-detector/libs/decode/msgDecoding.sol\":4978:5097  abi.encodePacked(... */\n      swap5\n      dup6\n      swap3\n      0x20\n      dup5\n      add\n        /* \"contracts/fraud-detector/libs/decode/msgDecoding.sol\":158:7789  library FraudProofDecoderLibrary {... */\n      swap8\n      dup9\n      mstore\n      0x40\n      dup5\n      add\n      mstore\n      0x60\n      dup4\n      add\n      mstore\n      tag_291\n      dup2\n      mload\n      dup1\n      swap3\n        /* \"contracts/fraud-detector/libs/decode/msgDecoding.sol\":4978:5097  abi.encodePacked(... */\n      0x20\n        /* \"contracts/fraud-detector/libs/decode/msgDecoding.sol\":158:7789  library FraudProofDecoderLibrary {... */\n      dup7\n      dup7\n      add\n      swap2\n      add\n      tag_13\n      jump\t// in\n    tag_291:\n      dup2\n      add\n        /* \"contracts/fraud-detector/libs/decode/msgDecoding.sol\":4978:5097  abi.encodePacked(... */\n      sub\n        /* \"contracts/fraud-detector/libs/decode/msgDecoding.sol\":158:7789  library FraudProofDecoderLibrary {... */\n      0x60\n        /* \"contracts/fraud-detector/libs/decode/msgDecoding.sol\":4978:5097  abi.encodePacked(... */\n      dup2\n      add\n      dup5\n      mstore\n      add\n      dup3\n      tag_3\n      jump\t// in\n    tag_290:\n        /* \"contracts/fraud-detector/libs/decode/msgDecoding.sol\":158:7789  library FraudProofDecoderLibrary {... */\n      mload\n        /* \"contracts/fraud-detector/libs/decode/msgDecoding.sol\":4968:5098  keccak256(abi.encodePacked(... */\n      swap1\n      keccak256\n        /* \"contracts/fraud-detector/libs/decode/msgDecoding.sol\":4777:5105  function getReqMessageHash(... */\n      swap1\n      jump\t// out\n        /* \"contracts/fraud-detector/libs/decode/msgDecoding.sol\":158:7789  library FraudProofDecoderLibrary {... */\n    tag_25:\n      mstore(0x00, shl(0xe0, 0x4e487b71))\n      mstore(0x04, 0x32)\n      revert(0x00, 0x24)\n    tag_26:\n      dup1\n      mload\n      iszero\n      tag_292\n      jumpi\n      0x20\n      add\n      swap1\n      jump\t// out\n    tag_292:\n      tag_25\n      jump\t// in\n    tag_27:\n      dup1\n      mload\n        /* \"contracts/fraud-detector/libs/decode/msgDecoding.sol\":898:899  1 */\n      0x01\n        /* \"contracts/fraud-detector/libs/decode/msgDecoding.sol\":158:7789  library FraudProofDecoderLibrary {... */\n      lt\n      iszero\n      tag_292\n      jumpi\n      0x40\n      add\n      swap1\n      jump\t// out\n    tag_28:\n      dup1\n      mload\n        /* \"contracts/fraud-detector/libs/decode/msgDecoding.sol\":989:990  2 */\n      0x02\n        /* \"contracts/fraud-detector/libs/decode/msgDecoding.sol\":158:7789  library FraudProofDecoderLibrary {... */\n      lt\n      iszero\n      tag_292\n      jumpi\n      0x60\n      add\n      swap1\n      jump\t// out\n    tag_29:\n      dup1\n      mload\n        /* \"contracts/fraud-detector/libs/decode/msgDecoding.sol\":1048:1049  3 */\n      0x03\n        /* \"contracts/fraud-detector/libs/decode/msgDecoding.sol\":158:7789  library FraudProofDecoderLibrary {... */\n      lt\n      iszero\n      tag_292\n      jumpi\n      0x80\n      add\n      swap1\n      jump\t// out\n    tag_30:\n      dup1\n      mload\n      0x04\n      lt\n      iszero\n      tag_292\n      jumpi\n      0xa0\n      add\n      swap1\n      jump\t// out\n    tag_31:\n      dup1\n      mload\n        /* \"contracts/fraud-detector/libs/decode/msgDecoding.sol\":1267:1268  5 */\n      0x05\n        /* \"contracts/fraud-detector/libs/decode/msgDecoding.sol\":158:7789  library FraudProofDecoderLibrary {... */\n      lt\n      iszero\n      tag_292\n      jumpi\n      0xc0\n      add\n      swap1\n      jump\t// out\n    tag_32:\n      dup1\n      mload\n        /* \"contracts/fraud-detector/libs/decode/msgDecoding.sol\":1367:1368  6 */\n      0x06\n        /* \"contracts/fraud-detector/libs/decode/msgDecoding.sol\":158:7789  library FraudProofDecoderLibrary {... */\n      lt\n      iszero\n      tag_292\n      jumpi\n      0xe0\n      add\n      swap1\n      jump\t// out\n    tag_33:\n      dup1\n      mload\n        /* \"contracts/fraud-detector/libs/decode/msgDecoding.sol\":1485:1486  7 */\n      0x07\n        /* \"contracts/fraud-detector/libs/decode/msgDecoding.sol\":158:7789  library FraudProofDecoderLibrary {... */\n      lt\n      iszero\n      tag_292\n      jumpi\n      0x0100\n      add\n      swap1\n      jump\t// out\n    tag_34:\n      dup1\n      mload\n        /* \"contracts/fraud-detector/libs/decode/msgDecoding.sol\":1774:1775  8 */\n      0x08\n        /* \"contracts/fraud-detector/libs/decode/msgDecoding.sol\":158:7789  library FraudProofDecoderLibrary {... */\n      lt\n      iszero\n      tag_292\n      jumpi\n      0x0120\n      add\n      swap1\n      jump\t// out\n    tag_35:\n      dup1\n      mload\n        /* \"contracts/fraud-detector/libs/decode/msgDecoding.sol\":1865:1866  9 */\n      0x09\n        /* \"contracts/fraud-detector/libs/decode/msgDecoding.sol\":158:7789  library FraudProofDecoderLibrary {... */\n      lt\n      iszero\n      tag_292\n      jumpi\n      0x0140\n      add\n      swap1\n      jump\t// out\n    tag_36:\n      dup1\n      mload\n        /* \"contracts/fraud-detector/libs/decode/msgDecoding.sol\":1962:1964  10 */\n      0x0a\n        /* \"contracts/fraud-detector/libs/decode/msgDecoding.sol\":158:7789  library FraudProofDecoderLibrary {... */\n      lt\n      iszero\n      tag_292\n      jumpi\n      0x0160\n      add\n      swap1\n      jump\t// out\n    tag_37:\n      dup1\n      mload\n        /* \"contracts/fraud-detector/libs/decode/msgDecoding.sol\":2022:2024  11 */\n      0x0b\n        /* \"contracts/fraud-detector/libs/decode/msgDecoding.sol\":158:7789  library FraudProofDecoderLibrary {... */\n      lt\n      iszero\n      tag_292\n      jumpi\n      0x0180\n      add\n      swap1\n      jump\t// out\n    tag_38:\n      dup1\n      mload\n      dup3\n      lt\n      iszero\n      tag_292\n      jumpi\n      0x20\n      swap2\n      0x05\n      shl\n      add\n      add\n      swap1\n      jump\t// out\n        /* \"contracts/fraud-detector/libs/decode/msgDecoding.sol\":7112:7785  function getMessageHashSP(... */\n    tag_39:\n      swap1\n      swap3\n      0x00\n      swap2\n        /* \"contracts/fraud-detector/libs/decode/msgDecoding.sol\":158:7789  library FraudProofDecoderLibrary {... */\n      0x60\n        /* \"contracts/fraud-detector/libs/decode/msgDecoding.sol\":7403:7406  i++ */\n    tag_318:\n        /* \"contracts/fraud-detector/libs/decode/msgDecoding.sol\":158:7789  library FraudProofDecoderLibrary {... */\n      dup6\n      mload\n        /* \"contracts/fraud-detector/libs/decode/msgDecoding.sol\":7385:7401  i < proof.length */\n      dup5\n      lt\n      iszero\n      tag_319\n      jumpi\n        /* \"contracts/fraud-detector/libs/decode/msgDecoding.sol\":158:7789  library FraudProofDecoderLibrary {... */\n      0x01\n        /* \"contracts/fraud-detector/libs/decode/msgDecoding.sol\":7464:7472  proof[i] */\n      swap1\n        /* \"contracts/fraud-detector/libs/decode/msgDecoding.sol\":7435:7473  abi.encodePacked(proofBytes, proof[i]) */\n      tag_321\n        /* \"contracts/fraud-detector/libs/decode/msgDecoding.sol\":7464:7472  proof[i] */\n      tag_322\n      dup7\n      dup10\n      tag_38\n      jump\t// in\n    tag_322:\n      mload\n        /* \"contracts/fraud-detector/libs/decode/msgDecoding.sol\":158:7789  library FraudProofDecoderLibrary {... */\n      swap2\n      mload(0x40)\n        /* \"contracts/fraud-detector/libs/decode/msgDecoding.sol\":7435:7473  abi.encodePacked(proofBytes, proof[i]) */\n      dup1\n      swap4\n      0x20\n        /* \"contracts/fraud-detector/libs/decode/msgDecoding.sol\":158:7789  library FraudProofDecoderLibrary {... */\n      swap3\n      tag_323\n      dup2\n      mload\n        /* \"contracts/fraud-detector/libs/decode/msgDecoding.sol\":7435:7473  abi.encodePacked(proofBytes, proof[i]) */\n      dup1\n      swap3\n      dup7\n      dup1\n      dup8\n      add\n        /* \"contracts/fraud-detector/libs/decode/msgDecoding.sol\":158:7789  library FraudProofDecoderLibrary {... */\n      swap2\n      add\n      tag_13\n      jump\t// in\n    tag_323:\n      dup3\n      add\n      tag_324\n      dup3\n      mload\n      dup1\n      swap4\n      dup7\n      dup1\n      dup6\n      add\n      swap2\n      add\n      tag_13\n      jump\t// in\n    tag_324:\n      add\n        /* \"contracts/fraud-detector/libs/decode/msgDecoding.sol\":7435:7473  abi.encodePacked(proofBytes, proof[i]) */\n      sub\n      dup1\n      dup5\n      mstore\n      add\n      dup3\n      tag_3\n      jump\t// in\n    tag_321:\n        /* \"contracts/fraud-detector/libs/decode/msgDecoding.sol\":7403:7406  i++ */\n      swap4\n        /* \"contracts/fraud-detector/libs/decode/msgDecoding.sol\":158:7789  library FraudProofDecoderLibrary {... */\n      add\n        /* \"contracts/fraud-detector/libs/decode/msgDecoding.sol\":7370:7383  uint256 i = 0 */\n      swap3\n      jump(tag_318)\n        /* \"contracts/fraud-detector/libs/decode/msgDecoding.sol\":7385:7401  i < proof.length */\n    tag_319:\n      swap3\n      pop\n      swap3\n        /* \"contracts/fraud-detector/libs/decode/msgDecoding.sol\":7626:7777  abi.encodePacked(... */\n      tag_290\n        /* \"contracts/fraud-detector/libs/decode/msgDecoding.sol\":7385:7401  i < proof.length */\n      swap2\n      swap5\n      pop\n        /* \"contracts/fraud-detector/libs/decode/msgDecoding.sol\":158:7789  library FraudProofDecoderLibrary {... */\n      0x40\n        /* \"contracts/fraud-detector/libs/decode/msgDecoding.sol\":7385:7401  i < proof.length */\n      swap1\n        /* \"contracts/fraud-detector/libs/decode/msgDecoding.sol\":158:7789  library FraudProofDecoderLibrary {... */\n      dup2\n      mload\n        /* \"contracts/fraud-detector/libs/decode/msgDecoding.sol\":7626:7777  abi.encodePacked(... */\n      swap4\n      dup5\n      swap2\n        /* \"contracts/fraud-detector/libs/decode/msgDecoding.sol\":7435:7473  abi.encodePacked(proofBytes, proof[i]) */\n      0x20\n        /* \"contracts/fraud-detector/libs/decode/msgDecoding.sol\":7626:7777  abi.encodePacked(... */\n      dup4\n      add\n        /* \"contracts/fraud-detector/libs/decode/msgDecoding.sol\":158:7789  library FraudProofDecoderLibrary {... */\n      swap7\n      dup8\n      mstore\n      tag_326\n      dup2\n      mload\n      dup1\n      swap3\n        /* \"contracts/fraud-detector/libs/decode/msgDecoding.sol\":7435:7473  abi.encodePacked(proofBytes, proof[i]) */\n      0x20\n        /* \"contracts/fraud-detector/libs/decode/msgDecoding.sol\":158:7789  library FraudProofDecoderLibrary {... */\n      dup8\n      dup8\n      add\n      swap2\n      add\n      tag_13\n      jump\t// in\n    tag_326:\n      dup3\n      add\n      tag_327\n      dup3\n      mload\n      dup1\n      swap4\n        /* \"contracts/fraud-detector/libs/decode/msgDecoding.sol\":7435:7473  abi.encodePacked(proofBytes, proof[i]) */\n      0x20\n        /* \"contracts/fraud-detector/libs/decode/msgDecoding.sol\":158:7789  library FraudProofDecoderLibrary {... */\n      dup8\n      dup6\n      add\n      swap2\n      add\n      tag_13\n      jump\t// in\n    tag_327:\n      add\n        /* \"contracts/fraud-detector/libs/decode/msgDecoding.sol\":7626:7777  abi.encodePacked(... */\n      sub\n        /* \"contracts/fraud-detector/libs/decode/msgDecoding.sol\":7435:7473  abi.encodePacked(proofBytes, proof[i]) */\n      0x20\n        /* \"contracts/fraud-detector/libs/decode/msgDecoding.sol\":7626:7777  abi.encodePacked(... */\n      dup2\n      add\n      dup5\n      mstore\n      add\n      dup3\n      tag_3\n      jump\t// in\n        /* \"contracts/fraud-detector/libs/decode/msgDecoding.sol\":158:7789  library FraudProofDecoderLibrary {... */\n    tag_40:\n      mload(0x40)\n      swap1\n      0x0180\n      dup3\n      add\n      dup3\n      dup2\n      lt\n      0xffffffffffffffff\n      dup3\n      gt\n      or\n      tag_95\n      jumpi\n      0x40\n      mstore\n      0x00\n      0x0160\n      dup4\n      0x60\n      dup1\n      dup3\n      mstore\n      dup4\n      0x20\n      dup4\n      add\n      mstore\n      dup4\n      0x40\n      dup4\n      add\n      mstore\n      dup4\n      dup2\n      dup4\n      add\n      mstore\n      dup1\n      0x80\n      dup4\n      add\n      mstore\n      dup4\n      0xa0\n      dup4\n      add\n      mstore\n      dup1\n      0xc0\n      dup4\n      add\n      mstore\n      dup1\n      0xe0\n      dup4\n      add\n      mstore\n      dup4\n      0x0100\n      dup4\n      add\n      mstore\n      dup1\n      0x0120\n      dup4\n      add\n      mstore\n      0x0140\n      dup3\n      add\n      mstore\n      add\n      mstore\n      jump\t// out\n    tag_41:\n      iszero\n      tag_330\n      jumpi\n      jump\t// out\n    tag_330:\n      mload(0x40)\n      shl(0xe5, 0x461bcd)\n      dup2\n      mstore\n      0x20\n      0x04\n      dup3\n      add\n      mstore\n      0x2e\n      0x24\n      dup3\n      add\n      mstore\n      0x496e636f7272656374206e756d626572206f66206669656c647320696e20524c\n      0x44\n      dup3\n      add\n      mstore\n      shl(0x90, 0x5020656e636f6465642064617461)\n      0x64\n      dup3\n      add\n      mstore\n      0x84\n      swap1\n      revert\n    tag_42:\n      0x20\n      dup2\n      mload\n      swap2\n      add\n      mload\n      swap1\n      0x20\n      dup2\n      lt\n      tag_332\n      jumpi\n      pop\n      swap1\n      jump\t// out\n    tag_332:\n      not(0x00)\n      swap1\n      0x20\n      sub\n      0x03\n      shl\n      shl\n      and\n      swap1\n      jump\t// out\n    tag_43:\n      swap1\n      tag_334\n      dup3\n      tag_9\n      jump\t// in\n    tag_334:\n      tag_335\n      mload(0x40)\n      swap2\n      dup3\n      tag_3\n      jump\t// in\n    tag_335:\n      dup3\n      dup2\n      mstore\n      dup1\n      swap3\n      tag_336\n      not(0x1f)\n      swap2\n      tag_9\n      jump\t// in\n    tag_336:\n      add\n      swap1\n      0x00\n    tag_337:\n      dup3\n      dup2\n      lt\n      tag_338\n      jumpi\n      pop\n      pop\n      pop\n      jump\t// out\n    tag_338:\n      dup1\n      0x60\n      0x20\n      dup1\n      swap4\n      dup6\n      add\n      add\n      mstore\n      add\n      jump(tag_337)\n    tag_44:\n      swap1\n      dup1\n      dup3\n      mload\n      swap1\n      dup2\n      dup2\n      mstore\n      0x20\n      dup1\n      swap2\n      add\n      swap3\n      0x20\n      dup1\n      dup5\n      0x05\n      shl\n      dup4\n      add\n      add\n      swap6\n      add\n      swap4\n      0x00\n      swap2\n    tag_340:\n      dup5\n      dup4\n      lt\n      tag_341\n      jumpi\n      pop\n      pop\n      pop\n      pop\n      pop\n      pop\n      swap1\n      jump\t// out\n    tag_341:\n      swap1\n      swap2\n      swap3\n      swap4\n      swap5\n      swap6\n      dup5\n      dup1\n      tag_343\n      0x01\n      swap4\n      not(0x1f)\n      dup7\n      dup3\n      sub\n      add\n      dup8\n      mstore\n      dup11\n      mload\n      tag_14\n      jump\t// in\n    tag_343:\n      swap9\n      add\n      swap4\n      add\n      swap4\n      add\n      swap2\n      swap5\n      swap4\n      swap3\n      swap1\n      jump(tag_340)\n    tag_45:\n      swap10\n      swap6\n      swap2\n      tag_344\n      swap1\n      tag_345\n      swap7\n      tag_346\n      swap11\n      swap7\n      0x60\n      tag_144\n      swap16\n      swap14\n      swap12\n      swap6\n      dup16\n      swap1\n      swap9\n      tag_348\n      tag_349\n      swap11\n      0x0160\n      dup1\n      dup6\n      mstore\n      dup5\n      add\n      swap1\n      tag_14\n      jump\t// in\n    tag_348:\n      swap6\n      0x20\n      dup4\n      add\n      mstore\n      0x40\n      dup3\n      add\n      mstore\n      add\n      mstore\n      dup13\n      0x80\n      dup2\n      dup5\n      sub\n      swap2\n      add\n      mstore\n      tag_14\n      jump\t// in\n    tag_344:\n      swap2\n      0xa0\n      dup12\n      add\n      mstore\n      dup10\n      dup3\n      sub\n      0xc0\n      dup12\n      add\n      mstore\n      tag_14\n      jump\t// in\n    tag_349:\n      swap1\n      dup8\n      dup3\n      sub\n      0xe0\n      dup10\n      add\n      mstore\n      tag_44\n      jump\t// in\n    tag_345:\n      swap2\n      0x0100\n      dup7\n      add\n      mstore\n      dup5\n      dup3\n      sub\n      0x0120\n      dup7\n      add\n      mstore\n      tag_14\n      jump\t// in\n    tag_346:\n      swap2\n      0x0140\n      dup2\n      dup5\n      sub\n      swap2\n      add\n      mstore\n      tag_14\n      jump\t// in\n    tag_46:\n      swap1\n      swap3\n      tag_350\n      swap3\n      0x40\n      swap7\n      swap6\n      swap5\n      dup4\n      mstore\n      0x20\n      swap3\n      tag_351\n      dup3\n      mload\n      dup1\n      swap4\n      dup7\n      dup1\n      dup6\n      add\n      swap2\n      add\n      tag_13\n      jump\t// in\n    tag_351:\n      add\n      tag_352\n      dup3\n      mload\n      dup1\n      swap4\n      dup6\n      dup1\n      dup6\n      add\n      swap2\n      add\n      tag_13\n      jump\t// in\n    tag_352:\n      add\n      swap3\n      dup2\n      dup5\n      add\n      mstore\n      dup4\n      mload\n      swap4\n      dup5\n      swap2\n      dup7\n      dup6\n      add\n      swap2\n      add\n      tag_13\n      jump\t// in\n    tag_350:\n      add\n      add\n      swap1\n      jump\t// out\n        /* \"contracts/fraud-detector/libs/decode/msgDecoding.sol\":2715:3383  function getMessageHash(... */\n    tag_47:\n      swap2\n      swap4\n      swap3\n      swap5\n        /* \"contracts/fraud-detector/libs/decode/msgDecoding.sol\":158:7789  library FraudProofDecoderLibrary {... */\n      0x40\n      swap3\n      mload(0x40)\n      swap5\n        /* \"contracts/fraud-detector/libs/decode/msgDecoding.sol\":3026:3048  reqByte(SignedReqBody) */\n      0x5dcadceca961b7159cec0e118986188b438287559ed58b29a762182b22a52cad\n        /* \"contracts/fraud-detector/libs/decode/msgDecoding.sol\":158:7789  library FraudProofDecoderLibrary {... */\n      0x20\n      swap7\n      dup8\n      dup2\n      mstore\n      dup1\n      tag_353\n      dup10\n      dup3\n      add\n      dup6\n      tag_14\n      jump\t// in\n    tag_353:\n        /* \"contracts/fraud-detector/libs/decode/msgDecoding.sol\":3026:3048  reqByte(SignedReqBody) */\n      sub\n      swap1\n      log1\n      0x00\n      swap8\n        /* \"contracts/fraud-detector/libs/decode/msgDecoding.sol\":158:7789  library FraudProofDecoderLibrary {... */\n      0x60\n        /* \"contracts/fraud-detector/libs/decode/msgDecoding.sol\":3129:3132  i++ */\n    tag_354:\n        /* \"contracts/fraud-detector/libs/decode/msgDecoding.sol\":158:7789  library FraudProofDecoderLibrary {... */\n      dup6\n      mload\n        /* \"contracts/fraud-detector/libs/decode/msgDecoding.sol\":3111:3127  i < Proof.length */\n      dup11\n      lt\n      iszero\n      tag_355\n      jumpi\n        /* \"contracts/fraud-detector/libs/decode/msgDecoding.sol\":3190:3198  Proof[i] */\n      dup8\n        /* \"contracts/fraud-detector/libs/decode/msgDecoding.sol\":3161:3199  abi.encodePacked(proofBytes, Proof[i]) */\n      tag_357\n        /* \"contracts/fraud-detector/libs/decode/msgDecoding.sol\":158:7789  library FraudProofDecoderLibrary {... */\n      0x01\n        /* \"contracts/fraud-detector/libs/decode/msgDecoding.sol\":3190:3198  Proof[i] */\n      swap3\n        /* \"contracts/fraud-detector/libs/decode/msgDecoding.sol\":158:7789  library FraudProofDecoderLibrary {... */\n      tag_358\n        /* \"contracts/fraud-detector/libs/decode/msgDecoding.sol\":3190:3198  Proof[i] */\n      tag_359\n      dup15\n      dup12\n      tag_38\n      jump\t// in\n    tag_359:\n      mload\n        /* \"contracts/fraud-detector/libs/decode/msgDecoding.sol\":158:7789  library FraudProofDecoderLibrary {... */\n      dup12\n      mload\n      swap5\n      dup4\n      tag_360\n      dup8\n      swap6\n      mload\n        /* \"contracts/fraud-detector/libs/decode/msgDecoding.sol\":3161:3199  abi.encodePacked(proofBytes, Proof[i]) */\n      dup1\n      swap3\n      dup5\n      dup1\n      dup10\n      add\n        /* \"contracts/fraud-detector/libs/decode/msgDecoding.sol\":158:7789  library FraudProofDecoderLibrary {... */\n      swap2\n      add\n      tag_13\n      jump\t// in\n    tag_360:\n      dup5\n      add\n      add\n      swap1\n      tag_23\n      jump\t// in\n    tag_358:\n        /* \"contracts/fraud-detector/libs/decode/msgDecoding.sol\":3161:3199  abi.encodePacked(proofBytes, Proof[i]) */\n      sub\n        /* \"contracts/fraud-detector/libs/decode/msgDecoding.sol\":158:7789  library FraudProofDecoderLibrary {... */\n      not(0x1f)\n        /* \"contracts/fraud-detector/libs/decode/msgDecoding.sol\":3161:3199  abi.encodePacked(proofBytes, Proof[i]) */\n      dup2\n      add\n      dup4\n      mstore\n      dup3\n      tag_3\n      jump\t// in\n    tag_357:\n        /* \"contracts/fraud-detector/libs/decode/msgDecoding.sol\":3129:3132  i++ */\n      swap10\n        /* \"contracts/fraud-detector/libs/decode/msgDecoding.sol\":158:7789  library FraudProofDecoderLibrary {... */\n      add\n        /* \"contracts/fraud-detector/libs/decode/msgDecoding.sol\":3096:3109  uint256 i = 0 */\n      swap9\n      jump(tag_354)\n        /* \"contracts/fraud-detector/libs/decode/msgDecoding.sol\":3111:3127  i < Proof.length */\n    tag_355:\n      swap1\n      swap3\n      swap8\n      swap2\n      swap7\n      swap5\n      pop\n        /* \"contracts/fraud-detector/libs/decode/msgDecoding.sol\":3236:3375  abi.encodePacked(... */\n      tag_358\n        /* \"contracts/fraud-detector/libs/decode/msgDecoding.sol\":3111:3127  i < Proof.length */\n      swap4\n      swap9\n      pop\n        /* \"contracts/fraud-detector/libs/decode/msgDecoding.sol\":3236:3375  abi.encodePacked(... */\n      tag_290\n        /* \"contracts/fraud-detector/libs/decode/msgDecoding.sol\":3111:3127  i < Proof.length */\n      swap6\n      pop\n        /* \"contracts/fraud-detector/libs/decode/msgDecoding.sol\":158:7789  library FraudProofDecoderLibrary {... */\n      mload(0x40)\n        /* \"contracts/fraud-detector/libs/decode/msgDecoding.sol\":3236:3375  abi.encodePacked(... */\n      swap7\n      dup8\n      swap6\n      dup7\n      add\n      swap9\n      dup10\n      tag_46\n      jump\t// in\n        /* \"contracts/fraud-detector/libs/decode/msgDecoding.sol\":158:7789  library FraudProofDecoderLibrary {... */\n    tag_48:\n      mload(0x40)\n      swap1\n      0x0160\n      dup3\n      add\n      dup3\n      dup2\n      lt\n      0xffffffffffffffff\n      dup3\n      gt\n      or\n      tag_95\n      jumpi\n      0x40\n      mstore\n      0x00\n      0x0140\n      dup4\n      0x60\n      dup1\n      dup3\n      mstore\n      dup4\n      0x20\n      dup4\n      add\n      mstore\n      dup4\n      0x40\n      dup4\n      add\n      mstore\n      dup4\n      dup2\n      dup4\n      add\n      mstore\n      dup1\n      0x80\n      dup4\n      add\n      mstore\n      dup4\n      0xa0\n      dup4\n      add\n      mstore\n      dup1\n      0xc0\n      dup4\n      add\n      mstore\n      dup1\n      0xe0\n      dup4\n      add\n      mstore\n      dup1\n      0x0100\n      dup4\n      add\n      mstore\n      0x0120\n      dup3\n      add\n      mstore\n      add\n      mstore\n      jump\t// out\n    tag_49:\n      swap9\n      swap6\n      swap2\n      tag_365\n      swap1\n      tag_366\n      swap7\n      tag_144\n      swap13\n      swap11\n      swap7\n      tag_368\n      swap7\n      0x40\n      dup15\n      tag_369\n      tag_370\n      swap15\n      swap9\n      0x0140\n      dup1\n      dup5\n      mstore\n      dup4\n      add\n      swap1\n      tag_14\n      jump\t// in\n    tag_369:\n      swap6\n      0x20\n      dup3\n      add\n      mstore\n      add\n      mstore\n      0x60\n      dup14\n      add\n      mstore\n      dup12\n      dup3\n      sub\n      0x80\n      dup14\n      add\n      mstore\n      tag_14\n      jump\t// in\n    tag_365:\n      swap2\n      0xa0\n      dup11\n      add\n      mstore\n      dup9\n      dup3\n      sub\n      0xc0\n      dup11\n      add\n      mstore\n      tag_14\n      jump\t// in\n    tag_368:\n      swap1\n      dup7\n      dup3\n      sub\n      0xe0\n      dup9\n      add\n      mstore\n      tag_44\n      jump\t// in\n    tag_366:\n      swap1\n      dup5\n      dup3\n      sub\n      0x0100\n      dup7\n      add\n      mstore\n      tag_14\n      jump\t// in\n    tag_370:\n      swap2\n      0x0120\n      dup2\n      dup5\n      sub\n      swap2\n      add\n      mstore\n      tag_14\n      jump\t// in\n    tag_50:\n      mload(0x40)\n      swap1\n      0x80\n      dup3\n      add\n      dup3\n      dup2\n      lt\n      0xffffffffffffffff\n      dup3\n      gt\n      or\n      tag_95\n      jumpi\n      0x40\n      mstore\n      0x60\n      dup1\n      dup4\n      0x00\n      dup2\n      mstore\n      0x00\n      0x20\n      dup3\n      add\n      mstore\n      0x00\n      0x40\n      dup3\n      add\n      mstore\n      add\n      mstore\n      jump\t// out\n    tag_51:\n      swap6\n      swap5\n      swap4\n      swap1\n      swap3\n      tag_266\n      swap3\n      0x80\n      swap5\n      dup9\n      mstore\n      0x20\n      dup9\n      add\n      mstore\n      0x40\n      dup8\n      add\n      mstore\n      0xa0\n      0x60\n      dup8\n      add\n      mstore\n      0xa0\n      dup7\n      add\n      swap1\n      tag_14\n      jump\t// in\n    tag_52:\n      mload(0x40)\n      swap1\n      tag_374\n      dup3\n      tag_2\n      jump\t// in\n    tag_374:\n      0x00\n      0x20\n      dup4\n      dup3\n      dup2\n      mstore\n      add\n      mstore\n      jump\t// out\n        /* \"contracts/fraud-detector/libs/rlp/RLPReader.sol\":1513:1734  function toRlpItem(bytes memory item) internal pure returns (RLPItem memory) {... */\n    tag_53:\n        /* \"contracts/fraud-detector/libs/decode/msgDecoding.sol\":158:7789  library FraudProofDecoderLibrary {... */\n      tag_375\n      tag_52\n      jump\t// in\n    tag_375:\n      pop\n        /* \"contracts/fraud-detector/libs/rlp/RLPReader.sol\":1624:1682  assembly {... */\n      0x20\n        /* \"contracts/fraud-detector/libs/decode/msgDecoding.sol\":158:7789  library FraudProofDecoderLibrary {... */\n      dup2\n      mload\n      swap2\n      mload(0x40)\n      swap3\n      tag_376\n      dup5\n      tag_2\n      jump\t// in\n    tag_376:\n      dup4\n      mstore\n        /* \"contracts/fraud-detector/libs/rlp/RLPReader.sol\":1624:1682  assembly {... */\n      add\n      0x20\n        /* \"contracts/fraud-detector/libs/rlp/RLPReader.sol\":1699:1727  RLPItem(item.length, memPtr) */\n      dup3\n      add\n        /* \"contracts/fraud-detector/libs/decode/msgDecoding.sol\":158:7789  library FraudProofDecoderLibrary {... */\n      mstore\n        /* \"contracts/fraud-detector/libs/rlp/RLPReader.sol\":1513:1734  function toRlpItem(bytes memory item) internal pure returns (RLPItem memory) {... */\n      swap1\n      jump\t// out\n        /* \"contracts/fraud-detector/libs/decode/msgDecoding.sol\":158:7789  library FraudProofDecoderLibrary {... */\n    tag_54:\n      mstore(0x00, shl(0xe0, 0x4e487b71))\n      mstore(0x04, 0x11)\n      revert(0x00, 0x24)\n    tag_55:\n      swap1\n        /* \"contracts/fraud-detector/libs/rlp/RLPReader.sol\":9690:9691  1 */\n      0x01\n        /* \"contracts/fraud-detector/libs/decode/msgDecoding.sol\":158:7789  library FraudProofDecoderLibrary {... */\n      dup3\n      add\n      dup1\n      swap3\n      gt\n      tag_377\n      jumpi\n      jump\t// out\n    tag_377:\n      tag_54\n      jump\t// in\n    tag_56:\n      swap2\n      swap1\n      dup3\n      add\n      dup1\n      swap3\n      gt\n      tag_377\n      jumpi\n      jump\t// out\n        /* \"contracts/fraud-detector/libs/rlp/RLPReader.sol\":2946:3465  function toList(RLPItem memory item) internal pure returns (RLPItem[] memory) {... */\n    tag_57:\n        /* \"contracts/fraud-detector/libs/rlp/RLPReader.sol\":3042:3054  isList(item) */\n      tag_381\n      dup2\n      tag_60\n      jump\t// in\n    tag_381:\n        /* \"contracts/fraud-detector/libs/decode/msgDecoding.sol\":158:7789  library FraudProofDecoderLibrary {... */\n      iszero\n      tag_87\n      jumpi\n        /* \"contracts/fraud-detector/libs/rlp/RLPReader.sol\":3082:3096  numItems(item) */\n      tag_384\n      dup2\n      tag_61\n      jump\t// in\n    tag_384:\n        /* \"contracts/fraud-detector/libs/decode/msgDecoding.sol\":158:7789  library FraudProofDecoderLibrary {... */\n      tag_385\n      dup2\n      tag_9\n      jump\t// in\n    tag_385:\n      swap2\n      tag_386\n      mload(0x40)\n      swap4\n      dup5\n      tag_3\n      jump\t// in\n    tag_386:\n      dup2\n      dup4\n      mstore\n      not(0x1f)\n      tag_387\n      dup4\n      tag_9\n      jump\t// in\n    tag_387:\n      add\n      0x00\n    tag_388:\n      dup2\n      dup2\n      lt\n      tag_389\n      jumpi\n      pop\n      pop\n        /* \"contracts/fraud-detector/libs/rlp/RLPReader.sol\":3180:3221  item.memPtr + _payloadOffset(item.memPtr) */\n      tag_391\n        /* \"contracts/fraud-detector/libs/decode/msgDecoding.sol\":158:7789  library FraudProofDecoderLibrary {... */\n      0x20\n      dup1\n        /* \"contracts/fraud-detector/libs/rlp/RLPReader.sol\":3180:3191  item.memPtr */\n      swap3\n      add\n        /* \"contracts/fraud-detector/libs/decode/msgDecoding.sol\":158:7789  library FraudProofDecoderLibrary {... */\n      mload\n        /* \"contracts/fraud-detector/libs/rlp/RLPReader.sol\":3194:3221  _payloadOffset(item.memPtr) */\n      tag_392\n      dup2\n      tag_68\n      jump\t// in\n    tag_392:\n        /* \"contracts/fraud-detector/libs/rlp/RLPReader.sol\":3180:3221  item.memPtr + _payloadOffset(item.memPtr) */\n      swap1\n      tag_56\n      jump\t// in\n    tag_391:\n      0x00\n        /* \"contracts/fraud-detector/libs/rlp/RLPReader.sol\":3256:3435  for (uint256 i = 0; i < items; i++) {... */\n      swap1\n        /* \"contracts/fraud-detector/libs/rlp/RLPReader.sol\":3276:3285  i < items */\n    tag_393:\n      dup4\n      dup3\n      lt\n      tag_394\n      jumpi\n        /* \"contracts/fraud-detector/libs/rlp/RLPReader.sol\":3445:3458  return result */\n      pop\n      pop\n      pop\n      pop\n        /* \"contracts/fraud-detector/libs/rlp/RLPReader.sol\":2946:3465  function toList(RLPItem memory item) internal pure returns (RLPItem[] memory) {... */\n      swap1\n      jump\t// out\n        /* \"contracts/fraud-detector/libs/rlp/RLPReader.sol\":3287:3290  i++ */\n    tag_394:\n        /* \"contracts/fraud-detector/libs/rlp/RLPReader.sol\":3408:3424  memPtr + dataLen */\n      tag_396\n        /* \"contracts/fraud-detector/libs/rlp/RLPReader.sol\":3316:3335  _itemLength(memPtr) */\n      dup2\n      tag_397\n        /* \"contracts/fraud-detector/libs/decode/msgDecoding.sol\":158:7789  library FraudProofDecoderLibrary {... */\n      0x01\n        /* \"contracts/fraud-detector/libs/rlp/RLPReader.sol\":3316:3335  _itemLength(memPtr) */\n      swap4\n      tag_69\n      jump\t// in\n    tag_397:\n        /* \"contracts/fraud-detector/libs/decode/msgDecoding.sol\":158:7789  library FraudProofDecoderLibrary {... */\n      swap1\n      tag_398\n      tag_4\n      jump\t// in\n    tag_398:\n      dup3\n      dup2\n      mstore\n        /* \"contracts/fraud-detector/libs/rlp/RLPReader.sol\":3361:3385  RLPItem(dataLen, memPtr) */\n      dup2\n      dup8\n      dup3\n      add\n        /* \"contracts/fraud-detector/libs/decode/msgDecoding.sol\":158:7789  library FraudProofDecoderLibrary {... */\n      mstore\n        /* \"contracts/fraud-detector/libs/rlp/RLPReader.sol\":3349:3385  result[i] = RLPItem(dataLen, memPtr) */\n      tag_399\n      dup7\n      dup11\n      tag_38\n      jump\t// in\n    tag_399:\n      mstore\n      tag_400\n      dup6\n      dup10\n      tag_38\n      jump\t// in\n    tag_400:\n      pop\n        /* \"contracts/fraud-detector/libs/rlp/RLPReader.sol\":3408:3424  memPtr + dataLen */\n      tag_56\n      jump\t// in\n    tag_396:\n        /* \"contracts/fraud-detector/libs/rlp/RLPReader.sol\":3287:3290  i++ */\n      swap2\n        /* \"contracts/fraud-detector/libs/decode/msgDecoding.sol\":158:7789  library FraudProofDecoderLibrary {... */\n      add\n        /* \"contracts/fraud-detector/libs/rlp/RLPReader.sol\":3261:3274  uint256 i = 0 */\n      swap1\n      jump(tag_393)\n        /* \"contracts/fraud-detector/libs/decode/msgDecoding.sol\":158:7789  library FraudProofDecoderLibrary {... */\n    tag_389:\n      0x20\n      swap1\n      tag_401\n      tag_52\n      jump\t// in\n    tag_401:\n      dup3\n      dup3\n      dup9\n      add\n      add\n      mstore\n      add\n      jump(tag_388)\n        /* \"contracts/fraud-detector/libs/rlp/RLPReader.sol\":6857:7236  function toBytes(RLPItem memory item) internal pure returns (bytes memory) {... */\n    tag_58:\n        /* \"contracts/fraud-detector/libs/decode/msgDecoding.sol\":158:7789  library FraudProofDecoderLibrary {... */\n      dup1\n      mload\n        /* \"contracts/fraud-detector/libs/rlp/RLPReader.sol\":6950:6962  item.len > 0 */\n      iszero\n        /* \"contracts/fraud-detector/libs/decode/msgDecoding.sol\":158:7789  library FraudProofDecoderLibrary {... */\n      tag_87\n      jumpi\n        /* \"contracts/fraud-detector/libs/rlp/RLPReader.sol\":7006:7027  payloadLocation(item) */\n      tag_404\n        /* \"contracts/fraud-detector/libs/rlp/RLPReader.sol\":7202:7205  len */\n      tag_144\n        /* \"contracts/fraud-detector/libs/rlp/RLPReader.sol\":7006:7027  payloadLocation(item) */\n      swap2\n      tag_70\n      jump\t// in\n    tag_404:\n        /* \"contracts/fraud-detector/libs/decode/msgDecoding.sol\":158:7789  library FraudProofDecoderLibrary {... */\n      tag_406\n      dup2\n      swap4\n      swap3\n      swap4\n      tag_5\n      jump\t// in\n    tag_406:\n      swap3\n      tag_407\n      mload(0x40)\n      swap5\n      dup6\n      tag_3\n      jump\t// in\n    tag_407:\n      dup2\n      dup5\n      mstore\n      not(0x1f)\n      tag_408\n      dup4\n      tag_5\n      jump\t// in\n    tag_408:\n      add\n      calldatasize\n      0x20\n      dup7\n      add\n      calldatacopy\n        /* \"contracts/fraud-detector/libs/rlp/RLPReader.sol\":7109:7170  assembly {... */\n      dup4\n        /* \"contracts/fraud-detector/libs/decode/msgDecoding.sol\":158:7789  library FraudProofDecoderLibrary {... */\n      0x20\n        /* \"contracts/fraud-detector/libs/rlp/RLPReader.sol\":7109:7170  assembly {... */\n      add\n        /* \"contracts/fraud-detector/libs/rlp/RLPReader.sol\":7202:7205  len */\n      swap1\n      tag_72\n      jump\t// in\n        /* \"contracts/fraud-detector/libs/rlp/RLPReader.sol\":6049:6516  function toUint(RLPItem memory item) internal pure returns (uint256) {... */\n    tag_59:\n        /* \"contracts/fraud-detector/libs/decode/msgDecoding.sol\":158:7789  library FraudProofDecoderLibrary {... */\n      dup1\n      mload\n        /* \"contracts/fraud-detector/libs/rlp/RLPReader.sol\":6136:6148  item.len > 0 */\n      dup1\n      iszero\n      iszero\n        /* \"contracts/fraud-detector/libs/rlp/RLPReader.sol\":6136:6166  item.len > 0 && item.len <= 33 */\n      swap1\n      dup2\n      tag_409\n      jumpi\n        /* \"contracts/fraud-detector/libs/rlp/RLPReader.sol\":6049:6516  function toUint(RLPItem memory item) internal pure returns (uint256) {... */\n    tag_410:\n        /* \"contracts/fraud-detector/libs/decode/msgDecoding.sol\":158:7789  library FraudProofDecoderLibrary {... */\n      pop\n      iszero\n      tag_87\n      jumpi\n        /* \"contracts/fraud-detector/libs/rlp/RLPReader.sol\":6210:6231  payloadLocation(item) */\n      tag_413\n      swap1\n      tag_70\n      jump\t// in\n    tag_413:\n        /* \"contracts/fraud-detector/libs/rlp/RLPReader.sol\":6242:6256  uint256 result */\n      swap1\n        /* \"contracts/fraud-detector/libs/rlp/RLPReader.sol\":6266:6486  assembly {... */\n      mload\n      swap1\n      0x20\n      dup2\n      lt\n      tag_414\n      jumpi\n        /* \"contracts/fraud-detector/libs/rlp/RLPReader.sol\":6496:6509  return result */\n      pop\n        /* \"contracts/fraud-detector/libs/rlp/RLPReader.sol\":6049:6516  function toUint(RLPItem memory item) internal pure returns (uint256) {... */\n      swap1\n      jump\t// out\n        /* \"contracts/fraud-detector/libs/rlp/RLPReader.sol\":6266:6486  assembly {... */\n    tag_414:\n      0x20\n      sub\n      0x0100\n      exp\n      swap1\n      div\n        /* \"contracts/fraud-detector/libs/rlp/RLPReader.sol\":6049:6516  function toUint(RLPItem memory item) internal pure returns (uint256) {... */\n      swap1\n      jump\t// out\n        /* \"contracts/fraud-detector/libs/rlp/RLPReader.sol\":6136:6166  item.len > 0 && item.len <= 33 */\n    tag_409:\n        /* \"contracts/fraud-detector/libs/rlp/RLPReader.sol\":6164:6166  33 */\n      0x21\n        /* \"contracts/fraud-detector/libs/rlp/RLPReader.sol\":6152:6166  item.len <= 33 */\n      swap2\n      pop\n      gt\n      iszero\n        /* \"contracts/fraud-detector/libs/rlp/RLPReader.sol\":6136:6166  item.len > 0 && item.len <= 33 */\n      0x00\n      jump(tag_410)\n        /* \"contracts/fraud-detector/libs/rlp/RLPReader.sol\":3569:3890  function isList(RLPItem memory item) internal pure returns (bool) {... */\n    tag_60:\n        /* \"contracts/fraud-detector/libs/decode/msgDecoding.sol\":158:7789  library FraudProofDecoderLibrary {... */\n      dup1\n      mload\n        /* \"contracts/fraud-detector/libs/rlp/RLPReader.sol\":3649:3662  item.len == 0 */\n      iszero\n        /* \"contracts/fraud-detector/libs/rlp/RLPReader.sol\":3645:3676  if (item.len == 0) return false */\n      tag_416\n      jumpi\n        /* \"contracts/fraud-detector/libs/rlp/RLPReader.sol\":3725:3736  item.memPtr */\n      0x20\n        /* \"contracts/fraud-detector/libs/rlp/RLPReader.sol\":328:332  0xc0 */\n      0xc0\n        /* \"contracts/fraud-detector/libs/rlp/RLPReader.sol\":3725:3736  item.memPtr */\n      swap2\n      add\n        /* \"contracts/fraud-detector/libs/decode/msgDecoding.sol\":158:7789  library FraudProofDecoderLibrary {... */\n      mload\n        /* \"contracts/fraud-detector/libs/rlp/RLPReader.sol\":3746:3810  assembly {... */\n      mload\n      0x00\n      byte\n        /* \"contracts/fraud-detector/libs/rlp/RLPReader.sol\":3824:3848  byte0 < LIST_SHORT_START */\n      lt\n        /* \"contracts/fraud-detector/libs/rlp/RLPReader.sol\":3820:3862  if (byte0 < LIST_SHORT_START) return false */\n      tag_418\n      jumpi\n        /* \"contracts/fraud-detector/libs/rlp/RLPReader.sol\":3879:3883  true */\n      0x01\n        /* \"contracts/fraud-detector/libs/rlp/RLPReader.sol\":3569:3890  function isList(RLPItem memory item) internal pure returns (bool) {... */\n      swap1\n      jump\t// out\n        /* \"contracts/fraud-detector/libs/rlp/RLPReader.sol\":3820:3862  if (byte0 < LIST_SHORT_START) return false */\n    tag_418:\n      0x00\n        /* \"contracts/fraud-detector/libs/rlp/RLPReader.sol\":3850:3862  return false */\n      swap1\n      jump\t// out\n        /* \"contracts/fraud-detector/libs/rlp/RLPReader.sol\":3645:3676  if (item.len == 0) return false */\n    tag_416:\n        /* \"contracts/fraud-detector/libs/rlp/RLPReader.sol\":3664:3676  return false */\n      pop\n      0x00\n      swap1\n      jump\t// out\n        /* \"contracts/fraud-detector/libs/rlp/RLPReader.sol\":7344:7768  function numItems(RLPItem memory item) private pure returns (uint256) {... */\n    tag_61:\n        /* \"contracts/fraud-detector/libs/decode/msgDecoding.sol\":158:7789  library FraudProofDecoderLibrary {... */\n      dup1\n      mload\n        /* \"contracts/fraud-detector/libs/rlp/RLPReader.sol\":7428:7441  item.len == 0 */\n      iszero\n        /* \"contracts/fraud-detector/libs/rlp/RLPReader.sol\":7424:7451  if (item.len == 0) return 0 */\n      tag_416\n      jumpi\n      0x00\n        /* \"contracts/fraud-detector/libs/rlp/RLPReader.sol\":7507:7518  item.memPtr */\n      swap1\n      0x20\n      dup2\n      add\n        /* \"contracts/fraud-detector/libs/decode/msgDecoding.sol\":158:7789  library FraudProofDecoderLibrary {... */\n      swap1\n      dup2\n      mload\n        /* \"contracts/fraud-detector/libs/rlp/RLPReader.sol\":7521:7548  _payloadOffset(item.memPtr) */\n      tag_422\n      dup2\n      tag_68\n      jump\t// in\n    tag_422:\n        /* \"contracts/fraud-detector/libs/decode/msgDecoding.sol\":158:7789  library FraudProofDecoderLibrary {... */\n      dup2\n      add\n      dup1\n      swap2\n      gt\n      tag_377\n      jumpi\n      swap2\n      mload\n      swap1\n      mload\n      dup2\n      add\n      dup1\n      swap2\n      gt\n      tag_377\n      jumpi\n        /* \"contracts/fraud-detector/libs/rlp/RLPReader.sol\":7607:7739  while (currPtr < endPtr) {... */\n      swap2\n      swap1\n        /* \"contracts/fraud-detector/libs/rlp/RLPReader.sol\":7614:7630  currPtr < endPtr */\n    tag_427:\n      dup3\n      dup2\n      lt\n      tag_428\n      jumpi\n        /* \"contracts/fraud-detector/libs/rlp/RLPReader.sol\":7749:7761  return count */\n      pop\n      swap1\n      pop\n        /* \"contracts/fraud-detector/libs/rlp/RLPReader.sol\":7344:7768  function numItems(RLPItem memory item) private pure returns (uint256) {... */\n      swap1\n      jump\t// out\n        /* \"contracts/fraud-detector/libs/rlp/RLPReader.sol\":7607:7739  while (currPtr < endPtr) {... */\n    tag_428:\n        /* \"contracts/fraud-detector/libs/rlp/RLPReader.sol\":7666:7686  _itemLength(currPtr) */\n      tag_430\n      dup2\n      tag_69\n      jump\t// in\n    tag_430:\n        /* \"contracts/fraud-detector/libs/decode/msgDecoding.sol\":158:7789  library FraudProofDecoderLibrary {... */\n      dup2\n      add\n      dup1\n      swap2\n      gt\n      tag_377\n      jumpi\n      swap1\n      not(0x00)\n      dup2\n      eq\n      tag_377\n      jumpi\n      0x01\n      add\n        /* \"contracts/fraud-detector/libs/rlp/RLPReader.sol\":7607:7739  while (currPtr < endPtr) {... */\n      swap1\n      jump(tag_427)\n        /* \"contracts/fraud-detector/libs/rlp/RLPReader.sol\":371:375  0xf8 */\n    tag_62:\n      not(0xbf)\n      dup2\n      add\n      swap2\n      swap1\n      dup3\n      gt\n      tag_377\n      jumpi\n      jump\t// out\n    tag_63:\n      not(0x7f)\n      dup2\n      add\n      swap2\n      swap1\n      dup3\n      gt\n      tag_377\n      jumpi\n      jump\t// out\n    tag_64:\n        /* \"contracts/fraud-detector/libs/decode/msgDecoding.sol\":158:7789  library FraudProofDecoderLibrary {... */\n      0x20\n        /* \"contracts/fraud-detector/libs/rlp/RLPReader.sol\":371:375  0xf8 */\n      sub\n      swap1\n        /* \"contracts/fraud-detector/libs/decode/msgDecoding.sol\":158:7789  library FraudProofDecoderLibrary {... */\n      0x20\n        /* \"contracts/fraud-detector/libs/rlp/RLPReader.sol\":371:375  0xf8 */\n      dup3\n      gt\n      tag_377\n      jumpi\n      jump\t// out\n    tag_65:\n      not(0x00)\n      dup2\n      add\n      swap2\n      swap1\n      dup3\n      gt\n      tag_377\n      jumpi\n      jump\t// out\n    tag_66:\n      not(0xf6)\n      dup2\n      add\n      swap2\n      swap1\n      dup3\n      gt\n      tag_377\n      jumpi\n      jump\t// out\n    tag_67:\n      not(0xb6)\n      dup2\n      add\n      swap2\n      swap1\n      dup3\n      gt\n      tag_377\n      jumpi\n      jump\t// out\n        /* \"contracts/fraud-detector/libs/rlp/RLPReader.sol\":9132:9713  function _payloadOffset(uint256 memPtr) private pure returns (uint256) {... */\n    tag_68:\n        /* \"contracts/fraud-detector/libs/rlp/RLPReader.sol\":9236:9300  assembly {... */\n      mload\n      0x00\n      byte\n        /* \"contracts/fraud-detector/libs/rlp/RLPReader.sol\":239:243  0x80 */\n      0x80\n        /* \"contracts/fraud-detector/libs/rlp/RLPReader.sol\":9314:9340  byte0 < STRING_SHORT_START */\n      dup2\n      lt\n        /* \"contracts/fraud-detector/libs/rlp/RLPReader.sol\":239:243  0x80 */\n      iszero\n      tag_447\n      jumpi\n        /* \"contracts/fraud-detector/libs/rlp/RLPReader.sol\":9356:9364  return 0 */\n      pop\n      0x00\n      swap1\n      jump\t// out\n        /* \"contracts/fraud-detector/libs/rlp/RLPReader.sol\":9310:9707  if (byte0 < STRING_SHORT_START) {... */\n    tag_447:\n        /* \"contracts/fraud-detector/libs/rlp/RLPReader.sol\":284:288  0xb8 */\n      0xb8\n        /* \"contracts/fraud-detector/libs/rlp/RLPReader.sol\":9385:9410  byte0 < STRING_LONG_START */\n      dup2\n      lt\n        /* \"contracts/fraud-detector/libs/rlp/RLPReader.sol\":9385:9468  byte0 < STRING_LONG_START || (byte0 >= LIST_SHORT_START && byte0 < LIST_LONG_START) */\n      dup1\n      iszero\n      tag_449\n      jumpi\n        /* \"contracts/fraud-detector/libs/rlp/RLPReader.sol\":9310:9707  if (byte0 < STRING_SHORT_START) {... */\n    tag_450:\n        /* \"contracts/fraud-detector/libs/rlp/RLPReader.sol\":9381:9707  if (byte0 < STRING_LONG_START || (byte0 >= LIST_SHORT_START && byte0 < LIST_LONG_START)) {... */\n      iszero\n      tag_451\n      jumpi\n        /* \"contracts/fraud-detector/libs/rlp/RLPReader.sol\":9484:9492  return 1 */\n      pop\n        /* \"contracts/fraud-detector/libs/rlp/RLPReader.sol\":9491:9492  1 */\n      0x01\n        /* \"contracts/fraud-detector/libs/rlp/RLPReader.sol\":9484:9492  return 1 */\n      swap1\n      jump\t// out\n        /* \"contracts/fraud-detector/libs/rlp/RLPReader.sol\":9381:9707  if (byte0 < STRING_LONG_START || (byte0 >= LIST_SHORT_START && byte0 < LIST_LONG_START)) {... */\n    tag_451:\n        /* \"contracts/fraud-detector/libs/rlp/RLPReader.sol\":328:332  0xc0 */\n      0xc0\n        /* \"contracts/fraud-detector/libs/rlp/RLPReader.sol\":9513:9537  byte0 < LIST_SHORT_START */\n      dup2\n      lt\n        /* \"contracts/fraud-detector/libs/rlp/RLPReader.sol\":328:332  0xc0 */\n      iszero\n      tag_453\n      jumpi\n        /* \"contracts/fraud-detector/libs/rlp/RLPReader.sol\":9590:9621  byte0 - (STRING_LONG_START - 1) */\n      tag_455\n        /* \"contracts/fraud-detector/libs/rlp/RLPReader.sol\":9590:9625  byte0 - (STRING_LONG_START - 1) + 1 */\n      tag_144\n        /* \"contracts/fraud-detector/libs/rlp/RLPReader.sol\":9590:9621  byte0 - (STRING_LONG_START - 1) */\n      swap2\n      tag_67\n      jump\t// in\n    tag_455:\n        /* \"contracts/fraud-detector/libs/rlp/RLPReader.sol\":9590:9625  byte0 - (STRING_LONG_START - 1) + 1 */\n      tag_55\n      jump\t// in\n        /* \"contracts/fraud-detector/libs/rlp/RLPReader.sol\":9509:9707  if (byte0 < LIST_SHORT_START) {... */\n    tag_453:\n        /* \"contracts/fraud-detector/libs/rlp/RLPReader.sol\":9663:9692  byte0 - (LIST_LONG_START - 1) */\n      tag_455\n        /* \"contracts/fraud-detector/libs/rlp/RLPReader.sol\":9663:9696  byte0 - (LIST_LONG_START - 1) + 1 */\n      tag_144\n        /* \"contracts/fraud-detector/libs/rlp/RLPReader.sol\":9663:9692  byte0 - (LIST_LONG_START - 1) */\n      swap2\n      tag_66\n      jump\t// in\n        /* \"contracts/fraud-detector/libs/rlp/RLPReader.sol\":9385:9468  byte0 < STRING_LONG_START || (byte0 >= LIST_SHORT_START && byte0 < LIST_LONG_START) */\n    tag_449:\n        /* \"contracts/fraud-detector/libs/rlp/RLPReader.sol\":9415:9440  byte0 >= LIST_SHORT_START */\n      pop\n        /* \"contracts/fraud-detector/libs/rlp/RLPReader.sol\":328:332  0xc0 */\n      0xc0\n        /* \"contracts/fraud-detector/libs/rlp/RLPReader.sol\":9415:9440  byte0 >= LIST_SHORT_START */\n      dup2\n      lt\n      iszero\n        /* \"contracts/fraud-detector/libs/rlp/RLPReader.sol\":9415:9467  byte0 >= LIST_SHORT_START && byte0 < LIST_LONG_START */\n      dup1\n      iszero\n        /* \"contracts/fraud-detector/libs/rlp/RLPReader.sol\":9385:9468  byte0 < STRING_LONG_START || (byte0 >= LIST_SHORT_START && byte0 < LIST_LONG_START) */\n      tag_450\n        /* \"contracts/fraud-detector/libs/rlp/RLPReader.sol\":9415:9467  byte0 >= LIST_SHORT_START && byte0 < LIST_LONG_START */\n      jumpi\n        /* \"contracts/fraud-detector/libs/rlp/RLPReader.sol\":9444:9467  byte0 < LIST_LONG_START */\n      pop\n        /* \"contracts/fraud-detector/libs/rlp/RLPReader.sol\":371:375  0xf8 */\n      0xf8\n        /* \"contracts/fraud-detector/libs/rlp/RLPReader.sol\":9444:9467  byte0 < LIST_LONG_START */\n      dup2\n      lt\n        /* \"contracts/fraud-detector/libs/rlp/RLPReader.sol\":9385:9468  byte0 < STRING_LONG_START || (byte0 >= LIST_SHORT_START && byte0 < LIST_LONG_START) */\n      jump(tag_450)\n        /* \"contracts/fraud-detector/libs/rlp/RLPReader.sol\":7817:9080  function _itemLength(uint256 memPtr) private pure returns (uint256) {... */\n    tag_69:\n        /* \"contracts/fraud-detector/libs/rlp/RLPReader.sol\":7943:8007  assembly {... */\n      dup1\n      mload\n      0x00\n      byte\n      swap1\n        /* \"contracts/fraud-detector/libs/rlp/RLPReader.sol\":239:243  0x80 */\n      0x80\n        /* \"contracts/fraud-detector/libs/rlp/RLPReader.sol\":8021:8047  byte0 < STRING_SHORT_START */\n      dup3\n      lt\n        /* \"contracts/fraud-detector/libs/rlp/RLPReader.sol\":239:243  0x80 */\n      iszero\n      tag_461\n      jumpi\n        /* \"contracts/fraud-detector/libs/rlp/RLPReader.sol\":8063:8074  itemLen = 1 */\n      pop\n      pop\n        /* \"contracts/fraud-detector/libs/rlp/RLPReader.sol\":8073:8074  1 */\n      0x01\n        /* \"contracts/fraud-detector/libs/rlp/RLPReader.sol\":7817:9080  function _itemLength(uint256 memPtr) private pure returns (uint256) {... */\n      swap1\n      jump\t// out\n        /* \"contracts/fraud-detector/libs/rlp/RLPReader.sol\":8017:9049  if (byte0 < STRING_SHORT_START) {... */\n    tag_461:\n        /* \"contracts/fraud-detector/libs/rlp/RLPReader.sol\":284:288  0xb8 */\n      0xb8\n        /* \"contracts/fraud-detector/libs/rlp/RLPReader.sol\":8095:8120  byte0 < STRING_LONG_START */\n      dup3\n      lt\n        /* \"contracts/fraud-detector/libs/rlp/RLPReader.sol\":284:288  0xb8 */\n      iszero\n      tag_464\n      jumpi\n        /* \"contracts/fraud-detector/libs/rlp/RLPReader.sol\":8146:8172  byte0 - STRING_SHORT_START */\n      pop\n      tag_455\n        /* \"contracts/fraud-detector/libs/rlp/RLPReader.sol\":8146:8176  byte0 - STRING_SHORT_START + 1 */\n      tag_144\n        /* \"contracts/fraud-detector/libs/rlp/RLPReader.sol\":8146:8172  byte0 - STRING_SHORT_START */\n      swap2\n      tag_63\n      jump\t// in\n        /* \"contracts/fraud-detector/libs/rlp/RLPReader.sol\":8091:9049  if (byte0 < STRING_LONG_START) {... */\n    tag_464:\n        /* \"contracts/fraud-detector/libs/rlp/RLPReader.sol\":8197:8221  byte0 < LIST_SHORT_START */\n      swap1\n        /* \"contracts/fraud-detector/libs/rlp/RLPReader.sol\":328:332  0xc0 */\n      0xc0\n        /* \"contracts/fraud-detector/libs/rlp/RLPReader.sol\":8197:8221  byte0 < LIST_SHORT_START */\n      dup2\n      lt\n        /* \"contracts/fraud-detector/libs/rlp/RLPReader.sol\":328:332  0xc0 */\n      iszero\n      tag_469\n      jumpi\n        /* \"contracts/fraud-detector/libs/rlp/RLPReader.sol\":8237:8622  assembly {... */\n      not(0xb5)\n      swap2\n      0x01\n      0xb7\n      dup4\n      0x20\n      sub\n      add\n      0x0100\n      exp\n      swap2\n      add\n      mload\n      div\n      add\n      add\n        /* \"contracts/fraud-detector/libs/decode/msgDecoding.sol\":158:7789  library FraudProofDecoderLibrary {... */\n      swap1\n      jump\t// out\n        /* \"contracts/fraud-detector/libs/rlp/RLPReader.sol\":8193:9049  if (byte0 < LIST_SHORT_START) {... */\n    tag_469:\n        /* \"contracts/fraud-detector/libs/rlp/RLPReader.sol\":8642:8665  byte0 < LIST_LONG_START */\n      swap1\n        /* \"contracts/fraud-detector/libs/rlp/RLPReader.sol\":371:375  0xf8 */\n      0xf8\n        /* \"contracts/fraud-detector/libs/rlp/RLPReader.sol\":8642:8665  byte0 < LIST_LONG_START */\n      dup3\n      lt\n        /* \"contracts/fraud-detector/libs/rlp/RLPReader.sol\":371:375  0xf8 */\n      iszero\n      tag_472\n      jumpi\n        /* \"contracts/fraud-detector/libs/rlp/RLPReader.sol\":8691:8715  byte0 - LIST_SHORT_START */\n      pop\n      tag_455\n        /* \"contracts/fraud-detector/libs/rlp/RLPReader.sol\":8691:8719  byte0 - LIST_SHORT_START + 1 */\n      tag_144\n        /* \"contracts/fraud-detector/libs/rlp/RLPReader.sol\":8691:8715  byte0 - LIST_SHORT_START */\n      swap2\n      tag_62\n      jump\t// in\n        /* \"contracts/fraud-detector/libs/rlp/RLPReader.sol\":8638:9049  if (byte0 < LIST_LONG_START) {... */\n    tag_472:\n        /* \"contracts/fraud-detector/libs/rlp/RLPReader.sol\":8750:9039  assembly {... */\n      0x01\n      add\n      mload\n      0x20\n      dup3\n      swap1\n      sub\n      0xf7\n      add\n      0x0100\n      exp\n      swap1\n      div\n      add\n      not(0xf5)\n      add\n        /* \"contracts/fraud-detector/libs/decode/msgDecoding.sol\":158:7789  library FraudProofDecoderLibrary {... */\n      swap1\n      jump\t// out\n        /* \"contracts/fraud-detector/libs/rlp/RLPReader.sol\":2390:2671  function payloadLocation(RLPItem memory item) internal pure returns (uint256, uint256) {... */\n    tag_70:\n      swap1\n        /* \"contracts/fraud-detector/libs/rlp/RLPReader.sol\":2519:2530  item.memPtr */\n      0x20\n      dup3\n      add\n        /* \"contracts/fraud-detector/libs/decode/msgDecoding.sol\":158:7789  library FraudProofDecoderLibrary {... */\n      swap2\n        /* \"contracts/fraud-detector/libs/rlp/RLPReader.sol\":2504:2531  _payloadOffset(item.memPtr) */\n      tag_477\n        /* \"contracts/fraud-detector/libs/decode/msgDecoding.sol\":158:7789  library FraudProofDecoderLibrary {... */\n      dup4\n      mload\n        /* \"contracts/fraud-detector/libs/rlp/RLPReader.sol\":2504:2531  _payloadOffset(item.memPtr) */\n      tag_68\n      jump\t// in\n    tag_477:\n        /* \"contracts/fraud-detector/libs/decode/msgDecoding.sol\":158:7789  library FraudProofDecoderLibrary {... */\n      swap3\n      mload\n      swap1\n      dup4\n      dup3\n      add\n      dup1\n      swap3\n      gt\n      tag_377\n      jumpi\n      mload\n        /* \"contracts/fraud-detector/libs/rlp/RLPReader.sol\":371:375  0xf8 */\n      swap3\n      dup4\n      sub\n      swap3\n      dup4\n      gt\n      tag_377\n      jumpi\n        /* \"contracts/fraud-detector/libs/rlp/RLPReader.sol\":2644:2664  return (memPtr, len) */\n      swap2\n        /* \"contracts/fraud-detector/libs/rlp/RLPReader.sol\":2390:2671  function payloadLocation(RLPItem memory item) internal pure returns (uint256, uint256) {... */\n      swap1\n      jump\t// out\n        /* \"contracts/fraud-detector/libs/rlp/RLPReader.sol\":408:410  32 */\n    tag_71:\n      0x1f\n      dup2\n      gt\n      tag_377\n      jumpi\n      0x0100\n      exp\n      swap1\n      jump\t// out\n        /* \"contracts/fraud-detector/libs/rlp/RLPReader.sol\":9871:10639  function copy(uint256 src, uint256 dest, uint256 len) private pure {... */\n    tag_72:\n      swap3\n      swap1\n      swap2\n      swap3\n        /* \"contracts/fraud-detector/libs/rlp/RLPReader.sol\":9952:9960  len == 0 */\n      dup4\n      iszero\n        /* \"contracts/fraud-detector/libs/rlp/RLPReader.sol\":9948:9969  if (len == 0) return; */\n      tag_484\n      jumpi\n        /* \"contracts/fraud-detector/libs/rlp/RLPReader.sol\":10026:10220  for (; len >= WORD_SIZE; len -= WORD_SIZE) {... */\n      swap3\n      swap2\n        /* \"contracts/fraud-detector/libs/rlp/RLPReader.sol\":10051:10067  len -= WORD_SIZE */\n    tag_486:\n        /* \"contracts/fraud-detector/libs/rlp/RLPReader.sol\":408:410  32 */\n      0x20\n        /* \"contracts/fraud-detector/libs/rlp/RLPReader.sol\":10033:10049  len >= WORD_SIZE */\n      swap4\n      dup5\n      dup5\n      lt\n      tag_487\n      jumpi\n        /* \"contracts/fraud-detector/libs/rlp/RLPReader.sol\":10083:10148  assembly {... */\n      dup1\n      mload\n      dup3\n      mstore\n        /* \"contracts/fraud-detector/libs/decode/msgDecoding.sol\":158:7789  library FraudProofDecoderLibrary {... */\n      dup5\n      dup2\n      add\n      dup1\n      swap2\n      gt\n      tag_377\n      jumpi\n      swap4\n      dup2\n      add\n      dup1\n      swap2\n      gt\n      tag_377\n      jumpi\n        /* \"contracts/fraud-detector/libs/rlp/RLPReader.sol\":10051:10067  len -= WORD_SIZE */\n      swap2\n      not(0x1f)\n        /* \"contracts/fraud-detector/libs/rlp/RLPReader.sol\":371:375  0xf8 */\n      dup2\n      add\n      swap1\n      dup2\n      gt\n      tag_377\n      jumpi\n        /* \"contracts/fraud-detector/libs/rlp/RLPReader.sol\":10026:10220  for (; len >= WORD_SIZE; len -= WORD_SIZE) {... */\n      swap2\n      jump(tag_486)\n        /* \"contracts/fraud-detector/libs/rlp/RLPReader.sol\":10033:10049  len >= WORD_SIZE */\n    tag_487:\n      swap2\n      swap4\n      pop\n      swap2\n        /* \"contracts/fraud-detector/libs/rlp/RLPReader.sol\":10234:10241  len > 0 */\n      dup1\n        /* \"contracts/fraud-detector/libs/rlp/RLPReader.sol\":10230:10633  if (len > 0) {... */\n      tag_495\n      jumpi\n        /* \"contracts/fraud-detector/libs/rlp/RLPReader.sol\":9871:10639  function copy(uint256 src, uint256 dest, uint256 len) private pure {... */\n      pop\n      pop\n      pop\n      jump\t// out\n        /* \"contracts/fraud-detector/libs/rlp/RLPReader.sol\":10230:10633  if (len > 0) {... */\n    tag_495:\n        /* \"contracts/fraud-detector/libs/rlp/RLPReader.sol\":10356:10378  256**(WORD_SIZE - len) */\n      tag_497\n        /* \"contracts/fraud-detector/libs/rlp/RLPReader.sol\":10362:10377  WORD_SIZE - len */\n      tag_498\n        /* \"contracts/fraud-detector/libs/rlp/RLPReader.sol\":10356:10382  256**(WORD_SIZE - len) - 1 */\n      tag_499\n        /* \"contracts/fraud-detector/libs/rlp/RLPReader.sol\":10362:10377  WORD_SIZE - len */\n      swap3\n      tag_64\n      jump\t// in\n    tag_498:\n        /* \"contracts/fraud-detector/libs/rlp/RLPReader.sol\":10356:10378  256**(WORD_SIZE - len) */\n      tag_71\n      jump\t// in\n    tag_497:\n        /* \"contracts/fraud-detector/libs/rlp/RLPReader.sol\":10356:10382  256**(WORD_SIZE - len) - 1 */\n      tag_65\n      jump\t// in\n    tag_499:\n        /* \"contracts/fraud-detector/libs/rlp/RLPReader.sol\":10396:10623  assembly {... */\n      swap1\n      mload\n      dup3\n      mload\n      dup3\n      and\n      swap2\n      not\n      and\n      or\n      swap1\n      mstore\n        /* \"contracts/fraud-detector/libs/rlp/RLPReader.sol\":9871:10639  function copy(uint256 src, uint256 dest, uint256 len) private pure {... */\n      jump\t// out\n        /* \"contracts/fraud-detector/libs/rlp/RLPReader.sol\":9948:9969  if (len == 0) return; */\n    tag_484:\n        /* \"contracts/fraud-detector/libs/rlp/RLPReader.sol\":9962:9969  return; */\n      pop\n      swap2\n      pop\n      pop\n      jump\t// out\n\n    auxdata: 0xa2646970667358221220904a731aaf0bcc0cde52d1981bc8e194279040fff3366a93cbc0173199cae29a64736f6c63430008180033\n}\n",
				"bytecode": {
					"linkReferences": {},
					"object": "6080806040523461001c5761168990816100218239308160070152f35b5f80fdfe6080604052307f0000000000000000000000000000000000000000000000000000000000000000146004361015610034575f80fd5b5f3560e01c806315515246146100ab5780632c66f61a146100a657806388ede4a21461009c578063c7d60a0614610092578063e09bc827146100885763fe0103f71461007e575f80fd5b15610a20575b5f80fd5b50156107fc575f80fd5b50156106bd575f80fd5b501561047f575f80fd5b610257565b610178565b634e487b7160e01b5f52604160045260245ffd5b6040810190811067ffffffffffffffff8211176100e057604052565b6100b0565b90601f8019910116810190811067ffffffffffffffff8211176100e057604052565b60405190610114826100c4565b565b67ffffffffffffffff81116100e057601f01601f191660200190565b81601f820112156100845780359061014982610116565b9261015760405194856100e5565b8284526020838301011161008457815f926020809301838601378301015290565b60803660031901126100845760643567ffffffffffffffff8111610084576101b76101a96020923690600401610132565b604435602435600435610baa565b604051908152f35b67ffffffffffffffff81116100e05760051b60200190565b81601f82011215610084578035916020916101f1846101bf565b936101ff60405195866100e5565b808552838086019160051b8301019280841161008457848301915b84831061022a5750505050505090565b823567ffffffffffffffff811161008457869161024c84848094890101610132565b81520192019161021a565b60a03660031901126100845767ffffffffffffffff602435818111610084576102849036906004016101d7565b906044358181116100845761029d903690600401610132565b606435918211610084576020926102bb6101b7933690600401610132565b50600435610ce1565b6020600319820112610084576004359067ffffffffffffffff8211610084576102ef91600401610132565b90565b5f5b8381106103035750505f910152565b81810151838201526020016102f4565b9060209161032c815180928185528580860191016102f2565b601f01601f1916010190565b90808251908181526020809101926020808460051b8301019501935f915b8483106103665750505050505090565b9091929394958480610384600193601f198682030187528a51610313565b9801930193019194939290610356565b9291906020906040855280516104716103bb610180928360408a01526101c0890190610313565b9184840151606089015260408401516080890152606084015160a08901526103f5608085015193603f1994858b83030160c08c0152610313565b9260a085015160e08a015261041b60c08601519461010095838c830301878d0152610313565b9161045f61043b60e088015194610120958d878782850301910152610338565b958701519361014094858d015287015195610160968c888682850301910152610313565b92860151918a840301908a0152610313565b9101516101a0860152930152565b6104a161049c61048e366102c4565b610496610d94565b50611224565b61127e565b6104ae600c825114610dfe565b6104b6610d94565b906104c96104c382610c06565b5161134a565b82526104df6104da6104c383610c18565b610e61565b602083019081526104f86104f283610c28565b51611397565b906040840191825261050f6104da6104c385610c38565b91606085019283526105236104c385610c48565b90608086019182526105376104f286610c58565b9260a0870193845261054b6104c387610c68565b9160c0880192835261056561055f88610c78565b5161127e565b946105708651610e83565b9660e08a019788525f5b8a88518210156105b35750806105ac816105996104c36001958d610ccd565b8c51906105a68383610ccd565b52610ccd565b500161057a565b96975050906106607f90eee31558acfcfed6439516fb8d12f248b9aef0fa51dd84936c1256090643f093926106729a6105f16104da6104c383610c89565b976101008a019889528a8c6106086104c385610c9a565b926101208d019c8d9485526106366104da6104c36106286104c38a610cab565b986101408501998a52610cbc565b61016082015251978b51995196519351905191519251938d5195519651976040519b8c9b8c610f28565b0390a151935190519151925193611008565b907ff9a7ea37911815f4a89b25e48dc4ee38541a0e1128907411984b0a228788c879604051806106a785829190602083019252565b0390a16106b960405192839283610394565b0390f35b60a03660031901126100845767ffffffffffffffff602435818111610084576106ea9036906004016101d7565b9060643581811161008457610703903690600401610132565b91608435918211610084576020926107226101b7933690600401610132565b9160443590600435611008565b9291906020906040855280516107ee610756610160928360408a01526101a0890190610313565b9184840151606089015260408401516080890152606084015160a0890152610790608085015193603f1994858b83030160c08c0152610313565b9260a085015160e08a01526107b660c08601519461010095838c830301878d0152610313565b9161045f6107d660e088015194610120958d878782850301910152610338565b9587015195610140968c888682850301910152610313565b910151610180860152930152565b61081361049c61080b366102c4565b6104966110c4565b610820600b825114610dfe565b6108286110c4565b6108346104c383610c06565b81526108456104da6104c384610c18565b91602082019283526108596104f282610c28565b91604081019283526108706104da6104c384610c38565b93606082019485526108846104c384610c48565b90608083019182526108986104f285610c58565b9460a084019586526108ac6104c386610c68565b60c085019081526108bf61055f87610c78565b976108ca8951610e83565b9660e087019788525f5b8a518110156108f957806108f2816105996104c38f95600196610ccd565b50016108d4565b507fe5fda43f81ac665889dc77778f276a13836ee131965d49e6cdd827ea35343f1593929161098b9161099999989a6109346104c383610c89565b906101008d019182528c6101406109646104da6104c36109566104c389610c9a565b976101208601988952610cab565b9101528c5195895197519451918b5190519151928d5194519551966040519a8b9a8b611127565b0390a1519151905191610ce1565b907ff9a7ea37911815f4a89b25e48dc4ee38541a0e1128907411984b0a228788c879604051806109ce85829190602083019252565b0390a16106b96040519283928361072f565b929190610a1b606060209260408752805160408801528381015182880152604081015160808801520151608060a087015260c0860190610313565b930152565b610a3761049c610a2f366102c4565b6104966111ae565b610a446004825114610dfe565b610a4c6111ae565b610a5b6104da6104c384610c06565b81526106b9610b52610a6f6104f285610c18565b9360208401908582527f245716014a178144670148ec993e73f5f2cbc96529afa0b8fbe731b4a74566bc610aaf6040978851918291829190602083019252565b0390a1610ac16104da6104c383610c28565b8686018181528751918252907fb7cfa42c424e0e7e35ff08e6ea1cf2789fec94621f570d48f844b82582a4b8ec90602090a17fa690c9f86196602d7fd3dd6934f38b29ee9bd564d1a89bb5d3372ae964f0d537610b206104c384610c38565b6060880193818552610b4189519187519386519151918d51958695866111e3565b0390a1855192519051915192610baa565b927ff9a7ea37911815f4a89b25e48dc4ee38541a0e1128907411984b0a228788c879815180610b8687829190602083019252565b0390a151928392836109e0565b90610ba6602092828151948592016102f2565b0190565b92610bec916080916040519485926020840197885260408401526060830152610bdc81518092602086860191016102f2565b81010360608101845201826100e5565b51902090565b634e487b7160e01b5f52603260045260245ffd5b805115610c135760200190565b610bf2565b805160011015610c135760400190565b805160021015610c135760600190565b805160031015610c135760800190565b805160041015610c135760a00190565b805160051015610c135760c00190565b805160061015610c135760e00190565b805160071015610c13576101000190565b805160081015610c13576101200190565b805160091015610c13576101400190565b8051600a1015610c13576101600190565b8051600b1015610c13576101800190565b8051821015610c135760209160051b010190565b90925f9160605b8551841015610d4557600190610d3d610d018689610ccd565b51916040518093602092610d1d815180928680870191016102f2565b8201610d31825180938680850191016102f2565b010380845201826100e5565b930192610ce8565b925092610bec919450604090815193849160208301968752610d7081518092602087870191016102f2565b8201610d8582518093602087850191016102f2565b010360208101845201826100e5565b60405190610180820182811067ffffffffffffffff8211176100e0576040525f61016083606080825283602083015283604083015283818301528060808301528360a08301528060c08301528060e083015283610100830152806101208301526101408201520152565b15610e0557565b60405162461bcd60e51b815260206004820152602e60248201527f496e636f7272656374206e756d626572206f66206669656c647320696e20524c60448201526d5020656e636f646564206461746160901b6064820152608490fd5b602081519101519060208110610e75575090565b5f199060200360031b1b1690565b90610e8d826101bf565b610e9a60405191826100e5565b8281528092610eab601f19916101bf565b01905f5b828110610ebb57505050565b806060602080938501015201610eaf565b90808251908181526020809101926020808460051b8301019501935f915b848310610efa5750505050505090565b9091929394958480610f18600193601f198682030187528a51610313565b9801930193019194939290610eea565b999591610f7490610f9596610faa9a9660606102ef9f9d9b958f9098610f59610f879a610160808552840190610313565b956020830152604082015201528c6080818403910152610313565b9160a08b015289820360c08b0152610313565b9087820360e0890152610ecc565b91610100860152848203610120860152610313565b91610140818403910152610313565b90926110039260409695948352602092610fdb825180938680850191016102f2565b01610fee825180938580850191016102f2565b019281840152835193849186850191016102f2565b010190565b91939294604092604051947f5dcadceca961b7159cec0e118986188b438287559ed58b29a762182b22a52cad6020968781528061104789820185610313565b0390a15f9760605b85518a10156110a3578761109b60019261108d61106c8e8b610ccd565b518b51948361108487955180928480890191016102f2565b84010190610b93565b03601f1981018352826100e5565b99019861104f565b9092979196945061108d939850610bec955060405196879586019889610fb9565b60405190610160820182811067ffffffffffffffff8211176100e0576040525f61014083606080825283602083015283604083015283818301528060808301528360a08301528060c08301528060e0830152806101008301526101208201520152565b98959161116f90611190966102ef9c9a966111829660408e61115561119f9e98610140808452830190610313565b956020820152015260608d01528b820360808d0152610313565b9160a08a015288820360c08a0152610313565b9086820360e0880152610ecc565b90848203610100860152610313565b91610120818403910152610313565b604051906080820182811067ffffffffffffffff8211176100e057604052606080835f81525f60208201525f60408201520152565b9594939092610a1b9260809488526020880152604087015260a0606087015260a0860190610313565b60405190611219826100c4565b5f6020838281520152565b61122c61120c565b5060208151916040519261123f846100c4565b835201602082015290565b634e487b7160e01b5f52601160045260245ffd5b906001820180921161126c57565b61124a565b9190820180921161126c57565b611287816113d9565b1561008457611295816113fd565b61129e816101bf565b916112ac60405193846100e5565b818352601f196112bb836101bf565b015f5b8181106113335750506112df6020809201516112d9816114b8565b90611271565b5f905b8382106112f0575050505090565b61132b816112ff60019361151b565b90611308610107565b828152818782015261131a868a610ccd565b526113258589610ccd565b50611271565b9101906112e2565b60209061133e61120c565b828288010152016112be565b8051156100845761135d6102ef9161159b565b61136981939293610116565b9261137760405194856100e5565b818452601f1961138683610116565b0136602086013783602001906115d6565b805180151590816113cd575b5015610084576113b29061159b565b905190602081106113c1575090565b6020036101000a900490565b6021915011155f6113a3565b8051156113f857602060c0910151515f1a106113f457600190565b5f90565b505f90565b8051156113f8575f9060208101908151611416816114b8565b810180911161126c5791519051810180911161126c5791905b82811061143c5750905090565b6114458161151b565b810180911161126c57905f19811461126c576001019061142f565b60bf1981019190821161126c57565b607f1981019190821161126c57565b602003906020821161126c57565b5f1981019190821161126c57565b60f61981019190821161126c57565b60b61981019190821161126c57565b515f1a60808110156114c957505f90565b60b881108015611505575b156114df5750600190565b60c08110156114f9576114f46102ef916114a9565b61125e565b6114f46102ef9161149a565b5060c081101580156114d4575060f881106114d4565b80515f1a906080821015611530575050600190565b60b882101561154657506114f46102ef9161146f565b9060c081101561156a5760b51991600160b783602003016101000a91015104010190565b9060f882101561158157506114f46102ef91611460565b60010151602082900360f7016101000a90040160f5190190565b9060208201916115ab83516114b8565b92519083820180921161126c575192830392831161126c579190565b601f811161126c576101000a90565b92909192831561164d5792915b602093848410611618578051825284810180911161126c5793810180911161126c5791601f19810190811161126c57916115e3565b919350918061162657505050565b61163a61163561163f9261147e565b6115c7565b61148c565b905182518216911916179052565b5091505056fea2646970667358221220904a731aaf0bcc0cde52d1981bc8e194279040fff3366a93cbc0173199cae29a64736f6c63430008180033",
					"opcodes": "PUSH1 0x80 DUP1 PUSH1 0x40 MSTORE CALLVALUE PUSH2 0x1C JUMPI PUSH2 0x1689 SWAP1 DUP2 PUSH2 0x21 DUP3 CODECOPY ADDRESS DUP2 PUSH1 0x7 ADD MSTORE RETURN JUMPDEST PUSH0 DUP1 REVERT INVALID PUSH1 0x80 PUSH1 0x40 MSTORE ADDRESS PUSH32 0x0 EQ PUSH1 0x4 CALLDATASIZE LT ISZERO PUSH2 0x34 JUMPI PUSH0 DUP1 REVERT JUMPDEST PUSH0 CALLDATALOAD PUSH1 0xE0 SHR DUP1 PUSH4 0x15515246 EQ PUSH2 0xAB JUMPI DUP1 PUSH4 0x2C66F61A EQ PUSH2 0xA6 JUMPI DUP1 PUSH4 0x88EDE4A2 EQ PUSH2 0x9C JUMPI DUP1 PUSH4 0xC7D60A06 EQ PUSH2 0x92 JUMPI DUP1 PUSH4 0xE09BC827 EQ PUSH2 0x88 JUMPI PUSH4 0xFE0103F7 EQ PUSH2 0x7E JUMPI PUSH0 DUP1 REVERT JUMPDEST ISZERO PUSH2 0xA20 JUMPI JUMPDEST PUSH0 DUP1 REVERT JUMPDEST POP ISZERO PUSH2 0x7FC JUMPI PUSH0 DUP1 REVERT JUMPDEST POP ISZERO PUSH2 0x6BD JUMPI PUSH0 DUP1 REVERT JUMPDEST POP ISZERO PUSH2 0x47F JUMPI PUSH0 DUP1 REVERT JUMPDEST PUSH2 0x257 JUMP JUMPDEST PUSH2 0x178 JUMP JUMPDEST PUSH4 0x4E487B71 PUSH1 0xE0 SHL PUSH0 MSTORE PUSH1 0x41 PUSH1 0x4 MSTORE PUSH1 0x24 PUSH0 REVERT JUMPDEST PUSH1 0x40 DUP2 ADD SWAP1 DUP2 LT PUSH8 0xFFFFFFFFFFFFFFFF DUP3 GT OR PUSH2 0xE0 JUMPI PUSH1 0x40 MSTORE JUMP JUMPDEST PUSH2 0xB0 JUMP JUMPDEST SWAP1 PUSH1 0x1F DUP1 NOT SWAP2 ADD AND DUP2 ADD SWAP1 DUP2 LT PUSH8 0xFFFFFFFFFFFFFFFF DUP3 GT OR PUSH2 0xE0 JUMPI PUSH1 0x40 MSTORE JUMP JUMPDEST PUSH1 0x40 MLOAD SWAP1 PUSH2 0x114 DUP3 PUSH2 0xC4 JUMP JUMPDEST JUMP JUMPDEST PUSH8 0xFFFFFFFFFFFFFFFF DUP2 GT PUSH2 0xE0 JUMPI PUSH1 0x1F ADD PUSH1 0x1F NOT AND PUSH1 0x20 ADD SWAP1 JUMP JUMPDEST DUP2 PUSH1 0x1F DUP3 ADD SLT ISZERO PUSH2 0x84 JUMPI DUP1 CALLDATALOAD SWAP1 PUSH2 0x149 DUP3 PUSH2 0x116 JUMP JUMPDEST SWAP3 PUSH2 0x157 PUSH1 0x40 MLOAD SWAP5 DUP6 PUSH2 0xE5 JUMP JUMPDEST DUP3 DUP5 MSTORE PUSH1 0x20 DUP4 DUP4 ADD ADD GT PUSH2 0x84 JUMPI DUP2 PUSH0 SWAP3 PUSH1 0x20 DUP1 SWAP4 ADD DUP4 DUP7 ADD CALLDATACOPY DUP4 ADD ADD MSTORE SWAP1 JUMP JUMPDEST PUSH1 0x80 CALLDATASIZE PUSH1 0x3 NOT ADD SLT PUSH2 0x84 JUMPI PUSH1 0x64 CALLDATALOAD PUSH8 0xFFFFFFFFFFFFFFFF DUP2 GT PUSH2 0x84 JUMPI PUSH2 0x1B7 PUSH2 0x1A9 PUSH1 0x20 SWAP3 CALLDATASIZE SWAP1 PUSH1 0x4 ADD PUSH2 0x132 JUMP JUMPDEST PUSH1 0x44 CALLDATALOAD PUSH1 0x24 CALLDATALOAD PUSH1 0x4 CALLDATALOAD PUSH2 0xBAA JUMP JUMPDEST PUSH1 0x40 MLOAD SWAP1 DUP2 MSTORE RETURN JUMPDEST PUSH8 0xFFFFFFFFFFFFFFFF DUP2 GT PUSH2 0xE0 JUMPI PUSH1 0x5 SHL PUSH1 0x20 ADD SWAP1 JUMP JUMPDEST DUP2 PUSH1 0x1F DUP3 ADD SLT ISZERO PUSH2 0x84 JUMPI DUP1 CALLDATALOAD SWAP2 PUSH1 0x20 SWAP2 PUSH2 0x1F1 DUP5 PUSH2 0x1BF JUMP JUMPDEST SWAP4 PUSH2 0x1FF PUSH1 0x40 MLOAD SWAP6 DUP7 PUSH2 0xE5 JUMP JUMPDEST DUP1 DUP6 MSTORE DUP4 DUP1 DUP7 ADD SWAP2 PUSH1 0x5 SHL DUP4 ADD ADD SWAP3 DUP1 DUP5 GT PUSH2 0x84 JUMPI DUP5 DUP4 ADD SWAP2 JUMPDEST DUP5 DUP4 LT PUSH2 0x22A JUMPI POP POP POP POP POP POP SWAP1 JUMP JUMPDEST DUP3 CALLDATALOAD PUSH8 0xFFFFFFFFFFFFFFFF DUP2 GT PUSH2 0x84 JUMPI DUP7 SWAP2 PUSH2 0x24C DUP5 DUP5 DUP1 SWAP5 DUP10 ADD ADD PUSH2 0x132 JUMP JUMPDEST DUP2 MSTORE ADD SWAP3 ADD SWAP2 PUSH2 0x21A JUMP JUMPDEST PUSH1 0xA0 CALLDATASIZE PUSH1 0x3 NOT ADD SLT PUSH2 0x84 JUMPI PUSH8 0xFFFFFFFFFFFFFFFF PUSH1 0x24 CALLDATALOAD DUP2 DUP2 GT PUSH2 0x84 JUMPI PUSH2 0x284 SWAP1 CALLDATASIZE SWAP1 PUSH1 0x4 ADD PUSH2 0x1D7 JUMP JUMPDEST SWAP1 PUSH1 0x44 CALLDATALOAD DUP2 DUP2 GT PUSH2 0x84 JUMPI PUSH2 0x29D SWAP1 CALLDATASIZE SWAP1 PUSH1 0x4 ADD PUSH2 0x132 JUMP JUMPDEST PUSH1 0x64 CALLDATALOAD SWAP2 DUP3 GT PUSH2 0x84 JUMPI PUSH1 0x20 SWAP3 PUSH2 0x2BB PUSH2 0x1B7 SWAP4 CALLDATASIZE SWAP1 PUSH1 0x4 ADD PUSH2 0x132 JUMP JUMPDEST POP PUSH1 0x4 CALLDATALOAD PUSH2 0xCE1 JUMP JUMPDEST PUSH1 0x20 PUSH1 0x3 NOT DUP3 ADD SLT PUSH2 0x84 JUMPI PUSH1 0x4 CALLDATALOAD SWAP1 PUSH8 0xFFFFFFFFFFFFFFFF DUP3 GT PUSH2 0x84 JUMPI PUSH2 0x2EF SWAP2 PUSH1 0x4 ADD PUSH2 0x132 JUMP JUMPDEST SWAP1 JUMP JUMPDEST PUSH0 JUMPDEST DUP4 DUP2 LT PUSH2 0x303 JUMPI POP POP PUSH0 SWAP2 ADD MSTORE JUMP JUMPDEST DUP2 DUP2 ADD MLOAD DUP4 DUP3 ADD MSTORE PUSH1 0x20 ADD PUSH2 0x2F4 JUMP JUMPDEST SWAP1 PUSH1 0x20 SWAP2 PUSH2 0x32C DUP2 MLOAD DUP1 SWAP3 DUP2 DUP6 MSTORE DUP6 DUP1 DUP7 ADD SWAP2 ADD PUSH2 0x2F2 JUMP JUMPDEST PUSH1 0x1F ADD PUSH1 0x1F NOT AND ADD ADD SWAP1 JUMP JUMPDEST SWAP1 DUP1 DUP3 MLOAD SWAP1 DUP2 DUP2 MSTORE PUSH1 0x20 DUP1 SWAP2 ADD SWAP3 PUSH1 0x20 DUP1 DUP5 PUSH1 0x5 SHL DUP4 ADD ADD SWAP6 ADD SWAP4 PUSH0 SWAP2 JUMPDEST DUP5 DUP4 LT PUSH2 0x366 JUMPI POP POP POP POP POP POP SWAP1 JUMP JUMPDEST SWAP1 SWAP2 SWAP3 SWAP4 SWAP5 SWAP6 DUP5 DUP1 PUSH2 0x384 PUSH1 0x1 SWAP4 PUSH1 0x1F NOT DUP7 DUP3 SUB ADD DUP8 MSTORE DUP11 MLOAD PUSH2 0x313 JUMP JUMPDEST SWAP9 ADD SWAP4 ADD SWAP4 ADD SWAP2 SWAP5 SWAP4 SWAP3 SWAP1 PUSH2 0x356 JUMP JUMPDEST SWAP3 SWAP2 SWAP1 PUSH1 0x20 SWAP1 PUSH1 0x40 DUP6 MSTORE DUP1 MLOAD PUSH2 0x471 PUSH2 0x3BB PUSH2 0x180 SWAP3 DUP4 PUSH1 0x40 DUP11 ADD MSTORE PUSH2 0x1C0 DUP10 ADD SWAP1 PUSH2 0x313 JUMP JUMPDEST SWAP2 DUP5 DUP5 ADD MLOAD PUSH1 0x60 DUP10 ADD MSTORE PUSH1 0x40 DUP5 ADD MLOAD PUSH1 0x80 DUP10 ADD MSTORE PUSH1 0x60 DUP5 ADD MLOAD PUSH1 0xA0 DUP10 ADD MSTORE PUSH2 0x3F5 PUSH1 0x80 DUP6 ADD MLOAD SWAP4 PUSH1 0x3F NOT SWAP5 DUP6 DUP12 DUP4 SUB ADD PUSH1 0xC0 DUP13 ADD MSTORE PUSH2 0x313 JUMP JUMPDEST SWAP3 PUSH1 0xA0 DUP6 ADD MLOAD PUSH1 0xE0 DUP11 ADD MSTORE PUSH2 0x41B PUSH1 0xC0 DUP7 ADD MLOAD SWAP5 PUSH2 0x100 SWAP6 DUP4 DUP13 DUP4 SUB ADD DUP8 DUP14 ADD MSTORE PUSH2 0x313 JUMP JUMPDEST SWAP2 PUSH2 0x45F PUSH2 0x43B PUSH1 0xE0 DUP9 ADD MLOAD SWAP5 PUSH2 0x120 SWAP6 DUP14 DUP8 DUP8 DUP3 DUP6 SUB ADD SWAP2 ADD MSTORE PUSH2 0x338 JUMP JUMPDEST SWAP6 DUP8 ADD MLOAD SWAP4 PUSH2 0x140 SWAP5 DUP6 DUP14 ADD MSTORE DUP8 ADD MLOAD SWAP6 PUSH2 0x160 SWAP7 DUP13 DUP9 DUP7 DUP3 DUP6 SUB ADD SWAP2 ADD MSTORE PUSH2 0x313 JUMP JUMPDEST SWAP3 DUP7 ADD MLOAD SWAP2 DUP11 DUP5 SUB ADD SWAP1 DUP11 ADD MSTORE PUSH2 0x313 JUMP JUMPDEST SWAP2 ADD MLOAD PUSH2 0x1A0 DUP7 ADD MSTORE SWAP4 ADD MSTORE JUMP JUMPDEST PUSH2 0x4A1 PUSH2 0x49C PUSH2 0x48E CALLDATASIZE PUSH2 0x2C4 JUMP JUMPDEST PUSH2 0x496 PUSH2 0xD94 JUMP JUMPDEST POP PUSH2 0x1224 JUMP JUMPDEST PUSH2 0x127E JUMP JUMPDEST PUSH2 0x4AE PUSH1 0xC DUP3 MLOAD EQ PUSH2 0xDFE JUMP JUMPDEST PUSH2 0x4B6 PUSH2 0xD94 JUMP JUMPDEST SWAP1 PUSH2 0x4C9 PUSH2 0x4C3 DUP3 PUSH2 0xC06 JUMP JUMPDEST MLOAD PUSH2 0x134A JUMP JUMPDEST DUP3 MSTORE PUSH2 0x4DF PUSH2 0x4DA PUSH2 0x4C3 DUP4 PUSH2 0xC18 JUMP JUMPDEST PUSH2 0xE61 JUMP JUMPDEST PUSH1 0x20 DUP4 ADD SWAP1 DUP2 MSTORE PUSH2 0x4F8 PUSH2 0x4F2 DUP4 PUSH2 0xC28 JUMP JUMPDEST MLOAD PUSH2 0x1397 JUMP JUMPDEST SWAP1 PUSH1 0x40 DUP5 ADD SWAP2 DUP3 MSTORE PUSH2 0x50F PUSH2 0x4DA PUSH2 0x4C3 DUP6 PUSH2 0xC38 JUMP JUMPDEST SWAP2 PUSH1 0x60 DUP6 ADD SWAP3 DUP4 MSTORE PUSH2 0x523 PUSH2 0x4C3 DUP6 PUSH2 0xC48 JUMP JUMPDEST SWAP1 PUSH1 0x80 DUP7 ADD SWAP2 DUP3 MSTORE PUSH2 0x537 PUSH2 0x4F2 DUP7 PUSH2 0xC58 JUMP JUMPDEST SWAP3 PUSH1 0xA0 DUP8 ADD SWAP4 DUP5 MSTORE PUSH2 0x54B PUSH2 0x4C3 DUP8 PUSH2 0xC68 JUMP JUMPDEST SWAP2 PUSH1 0xC0 DUP9 ADD SWAP3 DUP4 MSTORE PUSH2 0x565 PUSH2 0x55F DUP9 PUSH2 0xC78 JUMP JUMPDEST MLOAD PUSH2 0x127E JUMP JUMPDEST SWAP5 PUSH2 0x570 DUP7 MLOAD PUSH2 0xE83 JUMP JUMPDEST SWAP7 PUSH1 0xE0 DUP11 ADD SWAP8 DUP9 MSTORE PUSH0 JUMPDEST DUP11 DUP9 MLOAD DUP3 LT ISZERO PUSH2 0x5B3 JUMPI POP DUP1 PUSH2 0x5AC DUP2 PUSH2 0x599 PUSH2 0x4C3 PUSH1 0x1 SWAP6 DUP14 PUSH2 0xCCD JUMP JUMPDEST DUP13 MLOAD SWAP1 PUSH2 0x5A6 DUP4 DUP4 PUSH2 0xCCD JUMP JUMPDEST MSTORE PUSH2 0xCCD JUMP JUMPDEST POP ADD PUSH2 0x57A JUMP JUMPDEST SWAP7 SWAP8 POP POP SWAP1 PUSH2 0x660 PUSH32 0x90EEE31558ACFCFED6439516FB8D12F248B9AEF0FA51DD84936C1256090643F0 SWAP4 SWAP3 PUSH2 0x672 SWAP11 PUSH2 0x5F1 PUSH2 0x4DA PUSH2 0x4C3 DUP4 PUSH2 0xC89 JUMP JUMPDEST SWAP8 PUSH2 0x100 DUP11 ADD SWAP9 DUP10 MSTORE DUP11 DUP13 PUSH2 0x608 PUSH2 0x4C3 DUP6 PUSH2 0xC9A JUMP JUMPDEST SWAP3 PUSH2 0x120 DUP14 ADD SWAP13 DUP14 SWAP5 DUP6 MSTORE PUSH2 0x636 PUSH2 0x4DA PUSH2 0x4C3 PUSH2 0x628 PUSH2 0x4C3 DUP11 PUSH2 0xCAB JUMP JUMPDEST SWAP9 PUSH2 0x140 DUP6 ADD SWAP10 DUP11 MSTORE PUSH2 0xCBC JUMP JUMPDEST PUSH2 0x160 DUP3 ADD MSTORE MLOAD SWAP8 DUP12 MLOAD SWAP10 MLOAD SWAP7 MLOAD SWAP4 MLOAD SWAP1 MLOAD SWAP2 MLOAD SWAP3 MLOAD SWAP4 DUP14 MLOAD SWAP6 MLOAD SWAP7 MLOAD SWAP8 PUSH1 0x40 MLOAD SWAP12 DUP13 SWAP12 DUP13 PUSH2 0xF28 JUMP JUMPDEST SUB SWAP1 LOG1 MLOAD SWAP4 MLOAD SWAP1 MLOAD SWAP2 MLOAD SWAP3 MLOAD SWAP4 PUSH2 0x1008 JUMP JUMPDEST SWAP1 PUSH32 0xF9A7EA37911815F4A89B25E48DC4EE38541A0E1128907411984B0A228788C879 PUSH1 0x40 MLOAD DUP1 PUSH2 0x6A7 DUP6 DUP3 SWAP2 SWAP1 PUSH1 0x20 DUP4 ADD SWAP3 MSTORE JUMP JUMPDEST SUB SWAP1 LOG1 PUSH2 0x6B9 PUSH1 0x40 MLOAD SWAP3 DUP4 SWAP3 DUP4 PUSH2 0x394 JUMP JUMPDEST SUB SWAP1 RETURN JUMPDEST PUSH1 0xA0 CALLDATASIZE PUSH1 0x3 NOT ADD SLT PUSH2 0x84 JUMPI PUSH8 0xFFFFFFFFFFFFFFFF PUSH1 0x24 CALLDATALOAD DUP2 DUP2 GT PUSH2 0x84 JUMPI PUSH2 0x6EA SWAP1 CALLDATASIZE SWAP1 PUSH1 0x4 ADD PUSH2 0x1D7 JUMP JUMPDEST SWAP1 PUSH1 0x64 CALLDATALOAD DUP2 DUP2 GT PUSH2 0x84 JUMPI PUSH2 0x703 SWAP1 CALLDATASIZE SWAP1 PUSH1 0x4 ADD PUSH2 0x132 JUMP JUMPDEST SWAP2 PUSH1 0x84 CALLDATALOAD SWAP2 DUP3 GT PUSH2 0x84 JUMPI PUSH1 0x20 SWAP3 PUSH2 0x722 PUSH2 0x1B7 SWAP4 CALLDATASIZE SWAP1 PUSH1 0x4 ADD PUSH2 0x132 JUMP JUMPDEST SWAP2 PUSH1 0x44 CALLDATALOAD SWAP1 PUSH1 0x4 CALLDATALOAD PUSH2 0x1008 JUMP JUMPDEST SWAP3 SWAP2 SWAP1 PUSH1 0x20 SWAP1 PUSH1 0x40 DUP6 MSTORE DUP1 MLOAD PUSH2 0x7EE PUSH2 0x756 PUSH2 0x160 SWAP3 DUP4 PUSH1 0x40 DUP11 ADD MSTORE PUSH2 0x1A0 DUP10 ADD SWAP1 PUSH2 0x313 JUMP JUMPDEST SWAP2 DUP5 DUP5 ADD MLOAD PUSH1 0x60 DUP10 ADD MSTORE PUSH1 0x40 DUP5 ADD MLOAD PUSH1 0x80 DUP10 ADD MSTORE PUSH1 0x60 DUP5 ADD MLOAD PUSH1 0xA0 DUP10 ADD MSTORE PUSH2 0x790 PUSH1 0x80 DUP6 ADD MLOAD SWAP4 PUSH1 0x3F NOT SWAP5 DUP6 DUP12 DUP4 SUB ADD PUSH1 0xC0 DUP13 ADD MSTORE PUSH2 0x313 JUMP JUMPDEST SWAP3 PUSH1 0xA0 DUP6 ADD MLOAD PUSH1 0xE0 DUP11 ADD MSTORE PUSH2 0x7B6 PUSH1 0xC0 DUP7 ADD MLOAD SWAP5 PUSH2 0x100 SWAP6 DUP4 DUP13 DUP4 SUB ADD DUP8 DUP14 ADD MSTORE PUSH2 0x313 JUMP JUMPDEST SWAP2 PUSH2 0x45F PUSH2 0x7D6 PUSH1 0xE0 DUP9 ADD MLOAD SWAP5 PUSH2 0x120 SWAP6 DUP14 DUP8 DUP8 DUP3 DUP6 SUB ADD SWAP2 ADD MSTORE PUSH2 0x338 JUMP JUMPDEST SWAP6 DUP8 ADD MLOAD SWAP6 PUSH2 0x140 SWAP7 DUP13 DUP9 DUP7 DUP3 DUP6 SUB ADD SWAP2 ADD MSTORE PUSH2 0x313 JUMP JUMPDEST SWAP2 ADD MLOAD PUSH2 0x180 DUP7 ADD MSTORE SWAP4 ADD MSTORE JUMP JUMPDEST PUSH2 0x813 PUSH2 0x49C PUSH2 0x80B CALLDATASIZE PUSH2 0x2C4 JUMP JUMPDEST PUSH2 0x496 PUSH2 0x10C4 JUMP JUMPDEST PUSH2 0x820 PUSH1 0xB DUP3 MLOAD EQ PUSH2 0xDFE JUMP JUMPDEST PUSH2 0x828 PUSH2 0x10C4 JUMP JUMPDEST PUSH2 0x834 PUSH2 0x4C3 DUP4 PUSH2 0xC06 JUMP JUMPDEST DUP2 MSTORE PUSH2 0x845 PUSH2 0x4DA PUSH2 0x4C3 DUP5 PUSH2 0xC18 JUMP JUMPDEST SWAP2 PUSH1 0x20 DUP3 ADD SWAP3 DUP4 MSTORE PUSH2 0x859 PUSH2 0x4F2 DUP3 PUSH2 0xC28 JUMP JUMPDEST SWAP2 PUSH1 0x40 DUP2 ADD SWAP3 DUP4 MSTORE PUSH2 0x870 PUSH2 0x4DA PUSH2 0x4C3 DUP5 PUSH2 0xC38 JUMP JUMPDEST SWAP4 PUSH1 0x60 DUP3 ADD SWAP5 DUP6 MSTORE PUSH2 0x884 PUSH2 0x4C3 DUP5 PUSH2 0xC48 JUMP JUMPDEST SWAP1 PUSH1 0x80 DUP4 ADD SWAP2 DUP3 MSTORE PUSH2 0x898 PUSH2 0x4F2 DUP6 PUSH2 0xC58 JUMP JUMPDEST SWAP5 PUSH1 0xA0 DUP5 ADD SWAP6 DUP7 MSTORE PUSH2 0x8AC PUSH2 0x4C3 DUP7 PUSH2 0xC68 JUMP JUMPDEST PUSH1 0xC0 DUP6 ADD SWAP1 DUP2 MSTORE PUSH2 0x8BF PUSH2 0x55F DUP8 PUSH2 0xC78 JUMP JUMPDEST SWAP8 PUSH2 0x8CA DUP10 MLOAD PUSH2 0xE83 JUMP JUMPDEST SWAP7 PUSH1 0xE0 DUP8 ADD SWAP8 DUP9 MSTORE PUSH0 JUMPDEST DUP11 MLOAD DUP2 LT ISZERO PUSH2 0x8F9 JUMPI DUP1 PUSH2 0x8F2 DUP2 PUSH2 0x599 PUSH2 0x4C3 DUP16 SWAP6 PUSH1 0x1 SWAP7 PUSH2 0xCCD JUMP JUMPDEST POP ADD PUSH2 0x8D4 JUMP JUMPDEST POP PUSH32 0xE5FDA43F81AC665889DC77778F276A13836EE131965D49E6CDD827EA35343F15 SWAP4 SWAP3 SWAP2 PUSH2 0x98B SWAP2 PUSH2 0x999 SWAP10 SWAP9 SWAP11 PUSH2 0x934 PUSH2 0x4C3 DUP4 PUSH2 0xC89 JUMP JUMPDEST SWAP1 PUSH2 0x100 DUP14 ADD SWAP2 DUP3 MSTORE DUP13 PUSH2 0x140 PUSH2 0x964 PUSH2 0x4DA PUSH2 0x4C3 PUSH2 0x956 PUSH2 0x4C3 DUP10 PUSH2 0xC9A JUMP JUMPDEST SWAP8 PUSH2 0x120 DUP7 ADD SWAP9 DUP10 MSTORE PUSH2 0xCAB JUMP JUMPDEST SWAP2 ADD MSTORE DUP13 MLOAD SWAP6 DUP10 MLOAD SWAP8 MLOAD SWAP5 MLOAD SWAP2 DUP12 MLOAD SWAP1 MLOAD SWAP2 MLOAD SWAP3 DUP14 MLOAD SWAP5 MLOAD SWAP6 MLOAD SWAP7 PUSH1 0x40 MLOAD SWAP11 DUP12 SWAP11 DUP12 PUSH2 0x1127 JUMP JUMPDEST SUB SWAP1 LOG1 MLOAD SWAP2 MLOAD SWAP1 MLOAD SWAP2 PUSH2 0xCE1 JUMP JUMPDEST SWAP1 PUSH32 0xF9A7EA37911815F4A89B25E48DC4EE38541A0E1128907411984B0A228788C879 PUSH1 0x40 MLOAD DUP1 PUSH2 0x9CE DUP6 DUP3 SWAP2 SWAP1 PUSH1 0x20 DUP4 ADD SWAP3 MSTORE JUMP JUMPDEST SUB SWAP1 LOG1 PUSH2 0x6B9 PUSH1 0x40 MLOAD SWAP3 DUP4 SWAP3 DUP4 PUSH2 0x72F JUMP JUMPDEST SWAP3 SWAP2 SWAP1 PUSH2 0xA1B PUSH1 0x60 PUSH1 0x20 SWAP3 PUSH1 0x40 DUP8 MSTORE DUP1 MLOAD PUSH1 0x40 DUP9 ADD MSTORE DUP4 DUP2 ADD MLOAD DUP3 DUP9 ADD MSTORE PUSH1 0x40 DUP2 ADD MLOAD PUSH1 0x80 DUP9 ADD MSTORE ADD MLOAD PUSH1 0x80 PUSH1 0xA0 DUP8 ADD MSTORE PUSH1 0xC0 DUP7 ADD SWAP1 PUSH2 0x313 JUMP JUMPDEST SWAP4 ADD MSTORE JUMP JUMPDEST PUSH2 0xA37 PUSH2 0x49C PUSH2 0xA2F CALLDATASIZE PUSH2 0x2C4 JUMP JUMPDEST PUSH2 0x496 PUSH2 0x11AE JUMP JUMPDEST PUSH2 0xA44 PUSH1 0x4 DUP3 MLOAD EQ PUSH2 0xDFE JUMP JUMPDEST PUSH2 0xA4C PUSH2 0x11AE JUMP JUMPDEST PUSH2 0xA5B PUSH2 0x4DA PUSH2 0x4C3 DUP5 PUSH2 0xC06 JUMP JUMPDEST DUP2 MSTORE PUSH2 0x6B9 PUSH2 0xB52 PUSH2 0xA6F PUSH2 0x4F2 DUP6 PUSH2 0xC18 JUMP JUMPDEST SWAP4 PUSH1 0x20 DUP5 ADD SWAP1 DUP6 DUP3 MSTORE PUSH32 0x245716014A178144670148EC993E73F5F2CBC96529AFA0B8FBE731B4A74566BC PUSH2 0xAAF PUSH1 0x40 SWAP8 DUP9 MLOAD SWAP2 DUP3 SWAP2 DUP3 SWAP2 SWAP1 PUSH1 0x20 DUP4 ADD SWAP3 MSTORE JUMP JUMPDEST SUB SWAP1 LOG1 PUSH2 0xAC1 PUSH2 0x4DA PUSH2 0x4C3 DUP4 PUSH2 0xC28 JUMP JUMPDEST DUP7 DUP7 ADD DUP2 DUP2 MSTORE DUP8 MLOAD SWAP2 DUP3 MSTORE SWAP1 PUSH32 0xB7CFA42C424E0E7E35FF08E6EA1CF2789FEC94621F570D48F844B82582A4B8EC SWAP1 PUSH1 0x20 SWAP1 LOG1 PUSH32 0xA690C9F86196602D7FD3DD6934F38B29EE9BD564D1A89BB5D3372AE964F0D537 PUSH2 0xB20 PUSH2 0x4C3 DUP5 PUSH2 0xC38 JUMP JUMPDEST PUSH1 0x60 DUP9 ADD SWAP4 DUP2 DUP6 MSTORE PUSH2 0xB41 DUP10 MLOAD SWAP2 DUP8 MLOAD SWAP4 DUP7 MLOAD SWAP2 MLOAD SWAP2 DUP14 MLOAD SWAP6 DUP7 SWAP6 DUP7 PUSH2 0x11E3 JUMP JUMPDEST SUB SWAP1 LOG1 DUP6 MLOAD SWAP3 MLOAD SWAP1 MLOAD SWAP2 MLOAD SWAP3 PUSH2 0xBAA JUMP JUMPDEST SWAP3 PUSH32 0xF9A7EA37911815F4A89B25E48DC4EE38541A0E1128907411984B0A228788C879 DUP2 MLOAD DUP1 PUSH2 0xB86 DUP8 DUP3 SWAP2 SWAP1 PUSH1 0x20 DUP4 ADD SWAP3 MSTORE JUMP JUMPDEST SUB SWAP1 LOG1 MLOAD SWAP3 DUP4 SWAP3 DUP4 PUSH2 0x9E0 JUMP JUMPDEST SWAP1 PUSH2 0xBA6 PUSH1 0x20 SWAP3 DUP3 DUP2 MLOAD SWAP5 DUP6 SWAP3 ADD PUSH2 0x2F2 JUMP JUMPDEST ADD SWAP1 JUMP JUMPDEST SWAP3 PUSH2 0xBEC SWAP2 PUSH1 0x80 SWAP2 PUSH1 0x40 MLOAD SWAP5 DUP6 SWAP3 PUSH1 0x20 DUP5 ADD SWAP8 DUP9 MSTORE PUSH1 0x40 DUP5 ADD MSTORE PUSH1 0x60 DUP4 ADD MSTORE PUSH2 0xBDC DUP2 MLOAD DUP1 SWAP3 PUSH1 0x20 DUP7 DUP7 ADD SWAP2 ADD PUSH2 0x2F2 JUMP JUMPDEST DUP2 ADD SUB PUSH1 0x60 DUP2 ADD DUP5 MSTORE ADD DUP3 PUSH2 0xE5 JUMP JUMPDEST MLOAD SWAP1 KECCAK256 SWAP1 JUMP JUMPDEST PUSH4 0x4E487B71 PUSH1 0xE0 SHL PUSH0 MSTORE PUSH1 0x32 PUSH1 0x4 MSTORE PUSH1 0x24 PUSH0 REVERT JUMPDEST DUP1 MLOAD ISZERO PUSH2 0xC13 JUMPI PUSH1 0x20 ADD SWAP1 JUMP JUMPDEST PUSH2 0xBF2 JUMP JUMPDEST DUP1 MLOAD PUSH1 0x1 LT ISZERO PUSH2 0xC13 JUMPI PUSH1 0x40 ADD SWAP1 JUMP JUMPDEST DUP1 MLOAD PUSH1 0x2 LT ISZERO PUSH2 0xC13 JUMPI PUSH1 0x60 ADD SWAP1 JUMP JUMPDEST DUP1 MLOAD PUSH1 0x3 LT ISZERO PUSH2 0xC13 JUMPI PUSH1 0x80 ADD SWAP1 JUMP JUMPDEST DUP1 MLOAD PUSH1 0x4 LT ISZERO PUSH2 0xC13 JUMPI PUSH1 0xA0 ADD SWAP1 JUMP JUMPDEST DUP1 MLOAD PUSH1 0x5 LT ISZERO PUSH2 0xC13 JUMPI PUSH1 0xC0 ADD SWAP1 JUMP JUMPDEST DUP1 MLOAD PUSH1 0x6 LT ISZERO PUSH2 0xC13 JUMPI PUSH1 0xE0 ADD SWAP1 JUMP JUMPDEST DUP1 MLOAD PUSH1 0x7 LT ISZERO PUSH2 0xC13 JUMPI PUSH2 0x100 ADD SWAP1 JUMP JUMPDEST DUP1 MLOAD PUSH1 0x8 LT ISZERO PUSH2 0xC13 JUMPI PUSH2 0x120 ADD SWAP1 JUMP JUMPDEST DUP1 MLOAD PUSH1 0x9 LT ISZERO PUSH2 0xC13 JUMPI PUSH2 0x140 ADD SWAP1 JUMP JUMPDEST DUP1 MLOAD PUSH1 0xA LT ISZERO PUSH2 0xC13 JUMPI PUSH2 0x160 ADD SWAP1 JUMP JUMPDEST DUP1 MLOAD PUSH1 0xB LT ISZERO PUSH2 0xC13 JUMPI PUSH2 0x180 ADD SWAP1 JUMP JUMPDEST DUP1 MLOAD DUP3 LT ISZERO PUSH2 0xC13 JUMPI PUSH1 0x20 SWAP2 PUSH1 0x5 SHL ADD ADD SWAP1 JUMP JUMPDEST SWAP1 SWAP3 PUSH0 SWAP2 PUSH1 0x60 JUMPDEST DUP6 MLOAD DUP5 LT ISZERO PUSH2 0xD45 JUMPI PUSH1 0x1 SWAP1 PUSH2 0xD3D PUSH2 0xD01 DUP7 DUP10 PUSH2 0xCCD JUMP JUMPDEST MLOAD SWAP2 PUSH1 0x40 MLOAD DUP1 SWAP4 PUSH1 0x20 SWAP3 PUSH2 0xD1D DUP2 MLOAD DUP1 SWAP3 DUP7 DUP1 DUP8 ADD SWAP2 ADD PUSH2 0x2F2 JUMP JUMPDEST DUP3 ADD PUSH2 0xD31 DUP3 MLOAD DUP1 SWAP4 DUP7 DUP1 DUP6 ADD SWAP2 ADD PUSH2 0x2F2 JUMP JUMPDEST ADD SUB DUP1 DUP5 MSTORE ADD DUP3 PUSH2 0xE5 JUMP JUMPDEST SWAP4 ADD SWAP3 PUSH2 0xCE8 JUMP JUMPDEST SWAP3 POP SWAP3 PUSH2 0xBEC SWAP2 SWAP5 POP PUSH1 0x40 SWAP1 DUP2 MLOAD SWAP4 DUP5 SWAP2 PUSH1 0x20 DUP4 ADD SWAP7 DUP8 MSTORE PUSH2 0xD70 DUP2 MLOAD DUP1 SWAP3 PUSH1 0x20 DUP8 DUP8 ADD SWAP2 ADD PUSH2 0x2F2 JUMP JUMPDEST DUP3 ADD PUSH2 0xD85 DUP3 MLOAD DUP1 SWAP4 PUSH1 0x20 DUP8 DUP6 ADD SWAP2 ADD PUSH2 0x2F2 JUMP JUMPDEST ADD SUB PUSH1 0x20 DUP2 ADD DUP5 MSTORE ADD DUP3 PUSH2 0xE5 JUMP JUMPDEST PUSH1 0x40 MLOAD SWAP1 PUSH2 0x180 DUP3 ADD DUP3 DUP2 LT PUSH8 0xFFFFFFFFFFFFFFFF DUP3 GT OR PUSH2 0xE0 JUMPI PUSH1 0x40 MSTORE PUSH0 PUSH2 0x160 DUP4 PUSH1 0x60 DUP1 DUP3 MSTORE DUP4 PUSH1 0x20 DUP4 ADD MSTORE DUP4 PUSH1 0x40 DUP4 ADD MSTORE DUP4 DUP2 DUP4 ADD MSTORE DUP1 PUSH1 0x80 DUP4 ADD MSTORE DUP4 PUSH1 0xA0 DUP4 ADD MSTORE DUP1 PUSH1 0xC0 DUP4 ADD MSTORE DUP1 PUSH1 0xE0 DUP4 ADD MSTORE DUP4 PUSH2 0x100 DUP4 ADD MSTORE DUP1 PUSH2 0x120 DUP4 ADD MSTORE PUSH2 0x140 DUP3 ADD MSTORE ADD MSTORE JUMP JUMPDEST ISZERO PUSH2 0xE05 JUMPI JUMP JUMPDEST PUSH1 0x40 MLOAD PUSH3 0x461BCD PUSH1 0xE5 SHL DUP2 MSTORE PUSH1 0x20 PUSH1 0x4 DUP3 ADD MSTORE PUSH1 0x2E PUSH1 0x24 DUP3 ADD MSTORE PUSH32 0x496E636F7272656374206E756D626572206F66206669656C647320696E20524C PUSH1 0x44 DUP3 ADD MSTORE PUSH14 0x5020656E636F6465642064617461 PUSH1 0x90 SHL PUSH1 0x64 DUP3 ADD MSTORE PUSH1 0x84 SWAP1 REVERT JUMPDEST PUSH1 0x20 DUP2 MLOAD SWAP2 ADD MLOAD SWAP1 PUSH1 0x20 DUP2 LT PUSH2 0xE75 JUMPI POP SWAP1 JUMP JUMPDEST PUSH0 NOT SWAP1 PUSH1 0x20 SUB PUSH1 0x3 SHL SHL AND SWAP1 JUMP JUMPDEST SWAP1 PUSH2 0xE8D DUP3 PUSH2 0x1BF JUMP JUMPDEST PUSH2 0xE9A PUSH1 0x40 MLOAD SWAP2 DUP3 PUSH2 0xE5 JUMP JUMPDEST DUP3 DUP2 MSTORE DUP1 SWAP3 PUSH2 0xEAB PUSH1 0x1F NOT SWAP2 PUSH2 0x1BF JUMP JUMPDEST ADD SWAP1 PUSH0 JUMPDEST DUP3 DUP2 LT PUSH2 0xEBB JUMPI POP POP POP JUMP JUMPDEST DUP1 PUSH1 0x60 PUSH1 0x20 DUP1 SWAP4 DUP6 ADD ADD MSTORE ADD PUSH2 0xEAF JUMP JUMPDEST SWAP1 DUP1 DUP3 MLOAD SWAP1 DUP2 DUP2 MSTORE PUSH1 0x20 DUP1 SWAP2 ADD SWAP3 PUSH1 0x20 DUP1 DUP5 PUSH1 0x5 SHL DUP4 ADD ADD SWAP6 ADD SWAP4 PUSH0 SWAP2 JUMPDEST DUP5 DUP4 LT PUSH2 0xEFA JUMPI POP POP POP POP POP POP SWAP1 JUMP JUMPDEST SWAP1 SWAP2 SWAP3 SWAP4 SWAP5 SWAP6 DUP5 DUP1 PUSH2 0xF18 PUSH1 0x1 SWAP4 PUSH1 0x1F NOT DUP7 DUP3 SUB ADD DUP8 MSTORE DUP11 MLOAD PUSH2 0x313 JUMP JUMPDEST SWAP9 ADD SWAP4 ADD SWAP4 ADD SWAP2 SWAP5 SWAP4 SWAP3 SWAP1 PUSH2 0xEEA JUMP JUMPDEST SWAP10 SWAP6 SWAP2 PUSH2 0xF74 SWAP1 PUSH2 0xF95 SWAP7 PUSH2 0xFAA SWAP11 SWAP7 PUSH1 0x60 PUSH2 0x2EF SWAP16 SWAP14 SWAP12 SWAP6 DUP16 SWAP1 SWAP9 PUSH2 0xF59 PUSH2 0xF87 SWAP11 PUSH2 0x160 DUP1 DUP6 MSTORE DUP5 ADD SWAP1 PUSH2 0x313 JUMP JUMPDEST SWAP6 PUSH1 0x20 DUP4 ADD MSTORE PUSH1 0x40 DUP3 ADD MSTORE ADD MSTORE DUP13 PUSH1 0x80 DUP2 DUP5 SUB SWAP2 ADD MSTORE PUSH2 0x313 JUMP JUMPDEST SWAP2 PUSH1 0xA0 DUP12 ADD MSTORE DUP10 DUP3 SUB PUSH1 0xC0 DUP12 ADD MSTORE PUSH2 0x313 JUMP JUMPDEST SWAP1 DUP8 DUP3 SUB PUSH1 0xE0 DUP10 ADD MSTORE PUSH2 0xECC JUMP JUMPDEST SWAP2 PUSH2 0x100 DUP7 ADD MSTORE DUP5 DUP3 SUB PUSH2 0x120 DUP7 ADD MSTORE PUSH2 0x313 JUMP JUMPDEST SWAP2 PUSH2 0x140 DUP2 DUP5 SUB SWAP2 ADD MSTORE PUSH2 0x313 JUMP JUMPDEST SWAP1 SWAP3 PUSH2 0x1003 SWAP3 PUSH1 0x40 SWAP7 SWAP6 SWAP5 DUP4 MSTORE PUSH1 0x20 SWAP3 PUSH2 0xFDB DUP3 MLOAD DUP1 SWAP4 DUP7 DUP1 DUP6 ADD SWAP2 ADD PUSH2 0x2F2 JUMP JUMPDEST ADD PUSH2 0xFEE DUP3 MLOAD DUP1 SWAP4 DUP6 DUP1 DUP6 ADD SWAP2 ADD PUSH2 0x2F2 JUMP JUMPDEST ADD SWAP3 DUP2 DUP5 ADD MSTORE DUP4 MLOAD SWAP4 DUP5 SWAP2 DUP7 DUP6 ADD SWAP2 ADD PUSH2 0x2F2 JUMP JUMPDEST ADD ADD SWAP1 JUMP JUMPDEST SWAP2 SWAP4 SWAP3 SWAP5 PUSH1 0x40 SWAP3 PUSH1 0x40 MLOAD SWAP5 PUSH32 0x5DCADCECA961B7159CEC0E118986188B438287559ED58B29A762182B22A52CAD PUSH1 0x20 SWAP7 DUP8 DUP2 MSTORE DUP1 PUSH2 0x1047 DUP10 DUP3 ADD DUP6 PUSH2 0x313 JUMP JUMPDEST SUB SWAP1 LOG1 PUSH0 SWAP8 PUSH1 0x60 JUMPDEST DUP6 MLOAD DUP11 LT ISZERO PUSH2 0x10A3 JUMPI DUP8 PUSH2 0x109B PUSH1 0x1 SWAP3 PUSH2 0x108D PUSH2 0x106C DUP15 DUP12 PUSH2 0xCCD JUMP JUMPDEST MLOAD DUP12 MLOAD SWAP5 DUP4 PUSH2 0x1084 DUP8 SWAP6 MLOAD DUP1 SWAP3 DUP5 DUP1 DUP10 ADD SWAP2 ADD PUSH2 0x2F2 JUMP JUMPDEST DUP5 ADD ADD SWAP1 PUSH2 0xB93 JUMP JUMPDEST SUB PUSH1 0x1F NOT DUP2 ADD DUP4 MSTORE DUP3 PUSH2 0xE5 JUMP JUMPDEST SWAP10 ADD SWAP9 PUSH2 0x104F JUMP JUMPDEST SWAP1 SWAP3 SWAP8 SWAP2 SWAP7 SWAP5 POP PUSH2 0x108D SWAP4 SWAP9 POP PUSH2 0xBEC SWAP6 POP PUSH1 0x40 MLOAD SWAP7 DUP8 SWAP6 DUP7 ADD SWAP9 DUP10 PUSH2 0xFB9 JUMP JUMPDEST PUSH1 0x40 MLOAD SWAP1 PUSH2 0x160 DUP3 ADD DUP3 DUP2 LT PUSH8 0xFFFFFFFFFFFFFFFF DUP3 GT OR PUSH2 0xE0 JUMPI PUSH1 0x40 MSTORE PUSH0 PUSH2 0x140 DUP4 PUSH1 0x60 DUP1 DUP3 MSTORE DUP4 PUSH1 0x20 DUP4 ADD MSTORE DUP4 PUSH1 0x40 DUP4 ADD MSTORE DUP4 DUP2 DUP4 ADD MSTORE DUP1 PUSH1 0x80 DUP4 ADD MSTORE DUP4 PUSH1 0xA0 DUP4 ADD MSTORE DUP1 PUSH1 0xC0 DUP4 ADD MSTORE DUP1 PUSH1 0xE0 DUP4 ADD MSTORE DUP1 PUSH2 0x100 DUP4 ADD MSTORE PUSH2 0x120 DUP3 ADD MSTORE ADD MSTORE JUMP JUMPDEST SWAP9 SWAP6 SWAP2 PUSH2 0x116F SWAP1 PUSH2 0x1190 SWAP7 PUSH2 0x2EF SWAP13 SWAP11 SWAP7 PUSH2 0x1182 SWAP7 PUSH1 0x40 DUP15 PUSH2 0x1155 PUSH2 0x119F SWAP15 SWAP9 PUSH2 0x140 DUP1 DUP5 MSTORE DUP4 ADD SWAP1 PUSH2 0x313 JUMP JUMPDEST SWAP6 PUSH1 0x20 DUP3 ADD MSTORE ADD MSTORE PUSH1 0x60 DUP14 ADD MSTORE DUP12 DUP3 SUB PUSH1 0x80 DUP14 ADD MSTORE PUSH2 0x313 JUMP JUMPDEST SWAP2 PUSH1 0xA0 DUP11 ADD MSTORE DUP9 DUP3 SUB PUSH1 0xC0 DUP11 ADD MSTORE PUSH2 0x313 JUMP JUMPDEST SWAP1 DUP7 DUP3 SUB PUSH1 0xE0 DUP9 ADD MSTORE PUSH2 0xECC JUMP JUMPDEST SWAP1 DUP5 DUP3 SUB PUSH2 0x100 DUP7 ADD MSTORE PUSH2 0x313 JUMP JUMPDEST SWAP2 PUSH2 0x120 DUP2 DUP5 SUB SWAP2 ADD MSTORE PUSH2 0x313 JUMP JUMPDEST PUSH1 0x40 MLOAD SWAP1 PUSH1 0x80 DUP3 ADD DUP3 DUP2 LT PUSH8 0xFFFFFFFFFFFFFFFF DUP3 GT OR PUSH2 0xE0 JUMPI PUSH1 0x40 MSTORE PUSH1 0x60 DUP1 DUP4 PUSH0 DUP2 MSTORE PUSH0 PUSH1 0x20 DUP3 ADD MSTORE PUSH0 PUSH1 0x40 DUP3 ADD MSTORE ADD MSTORE JUMP JUMPDEST SWAP6 SWAP5 SWAP4 SWAP1 SWAP3 PUSH2 0xA1B SWAP3 PUSH1 0x80 SWAP5 DUP9 MSTORE PUSH1 0x20 DUP9 ADD MSTORE PUSH1 0x40 DUP8 ADD MSTORE PUSH1 0xA0 PUSH1 0x60 DUP8 ADD MSTORE PUSH1 0xA0 DUP7 ADD SWAP1 PUSH2 0x313 JUMP JUMPDEST PUSH1 0x40 MLOAD SWAP1 PUSH2 0x1219 DUP3 PUSH2 0xC4 JUMP JUMPDEST PUSH0 PUSH1 0x20 DUP4 DUP3 DUP2 MSTORE ADD MSTORE JUMP JUMPDEST PUSH2 0x122C PUSH2 0x120C JUMP JUMPDEST POP PUSH1 0x20 DUP2 MLOAD SWAP2 PUSH1 0x40 MLOAD SWAP3 PUSH2 0x123F DUP5 PUSH2 0xC4 JUMP JUMPDEST DUP4 MSTORE ADD PUSH1 0x20 DUP3 ADD MSTORE SWAP1 JUMP JUMPDEST PUSH4 0x4E487B71 PUSH1 0xE0 SHL PUSH0 MSTORE PUSH1 0x11 PUSH1 0x4 MSTORE PUSH1 0x24 PUSH0 REVERT JUMPDEST SWAP1 PUSH1 0x1 DUP3 ADD DUP1 SWAP3 GT PUSH2 0x126C JUMPI JUMP JUMPDEST PUSH2 0x124A JUMP JUMPDEST SWAP2 SWAP1 DUP3 ADD DUP1 SWAP3 GT PUSH2 0x126C JUMPI JUMP JUMPDEST PUSH2 0x1287 DUP2 PUSH2 0x13D9 JUMP JUMPDEST ISZERO PUSH2 0x84 JUMPI PUSH2 0x1295 DUP2 PUSH2 0x13FD JUMP JUMPDEST PUSH2 0x129E DUP2 PUSH2 0x1BF JUMP JUMPDEST SWAP2 PUSH2 0x12AC PUSH1 0x40 MLOAD SWAP4 DUP5 PUSH2 0xE5 JUMP JUMPDEST DUP2 DUP4 MSTORE PUSH1 0x1F NOT PUSH2 0x12BB DUP4 PUSH2 0x1BF JUMP JUMPDEST ADD PUSH0 JUMPDEST DUP2 DUP2 LT PUSH2 0x1333 JUMPI POP POP PUSH2 0x12DF PUSH1 0x20 DUP1 SWAP3 ADD MLOAD PUSH2 0x12D9 DUP2 PUSH2 0x14B8 JUMP JUMPDEST SWAP1 PUSH2 0x1271 JUMP JUMPDEST PUSH0 SWAP1 JUMPDEST DUP4 DUP3 LT PUSH2 0x12F0 JUMPI POP POP POP POP SWAP1 JUMP JUMPDEST PUSH2 0x132B DUP2 PUSH2 0x12FF PUSH1 0x1 SWAP4 PUSH2 0x151B JUMP JUMPDEST SWAP1 PUSH2 0x1308 PUSH2 0x107 JUMP JUMPDEST DUP3 DUP2 MSTORE DUP2 DUP8 DUP3 ADD MSTORE PUSH2 0x131A DUP7 DUP11 PUSH2 0xCCD JUMP JUMPDEST MSTORE PUSH2 0x1325 DUP6 DUP10 PUSH2 0xCCD JUMP JUMPDEST POP PUSH2 0x1271 JUMP JUMPDEST SWAP2 ADD SWAP1 PUSH2 0x12E2 JUMP JUMPDEST PUSH1 0x20 SWAP1 PUSH2 0x133E PUSH2 0x120C JUMP JUMPDEST DUP3 DUP3 DUP9 ADD ADD MSTORE ADD PUSH2 0x12BE JUMP JUMPDEST DUP1 MLOAD ISZERO PUSH2 0x84 JUMPI PUSH2 0x135D PUSH2 0x2EF SWAP2 PUSH2 0x159B JUMP JUMPDEST PUSH2 0x1369 DUP2 SWAP4 SWAP3 SWAP4 PUSH2 0x116 JUMP JUMPDEST SWAP3 PUSH2 0x1377 PUSH1 0x40 MLOAD SWAP5 DUP6 PUSH2 0xE5 JUMP JUMPDEST DUP2 DUP5 MSTORE PUSH1 0x1F NOT PUSH2 0x1386 DUP4 PUSH2 0x116 JUMP JUMPDEST ADD CALLDATASIZE PUSH1 0x20 DUP7 ADD CALLDATACOPY DUP4 PUSH1 0x20 ADD SWAP1 PUSH2 0x15D6 JUMP JUMPDEST DUP1 MLOAD DUP1 ISZERO ISZERO SWAP1 DUP2 PUSH2 0x13CD JUMPI JUMPDEST POP ISZERO PUSH2 0x84 JUMPI PUSH2 0x13B2 SWAP1 PUSH2 0x159B JUMP JUMPDEST SWAP1 MLOAD SWAP1 PUSH1 0x20 DUP2 LT PUSH2 0x13C1 JUMPI POP SWAP1 JUMP JUMPDEST PUSH1 0x20 SUB PUSH2 0x100 EXP SWAP1 DIV SWAP1 JUMP JUMPDEST PUSH1 0x21 SWAP2 POP GT ISZERO PUSH0 PUSH2 0x13A3 JUMP JUMPDEST DUP1 MLOAD ISZERO PUSH2 0x13F8 JUMPI PUSH1 0x20 PUSH1 0xC0 SWAP2 ADD MLOAD MLOAD PUSH0 BYTE LT PUSH2 0x13F4 JUMPI PUSH1 0x1 SWAP1 JUMP JUMPDEST PUSH0 SWAP1 JUMP JUMPDEST POP PUSH0 SWAP1 JUMP JUMPDEST DUP1 MLOAD ISZERO PUSH2 0x13F8 JUMPI PUSH0 SWAP1 PUSH1 0x20 DUP2 ADD SWAP1 DUP2 MLOAD PUSH2 0x1416 DUP2 PUSH2 0x14B8 JUMP JUMPDEST DUP2 ADD DUP1 SWAP2 GT PUSH2 0x126C JUMPI SWAP2 MLOAD SWAP1 MLOAD DUP2 ADD DUP1 SWAP2 GT PUSH2 0x126C JUMPI SWAP2 SWAP1 JUMPDEST DUP3 DUP2 LT PUSH2 0x143C JUMPI POP SWAP1 POP SWAP1 JUMP JUMPDEST PUSH2 0x1445 DUP2 PUSH2 0x151B JUMP JUMPDEST DUP2 ADD DUP1 SWAP2 GT PUSH2 0x126C JUMPI SWAP1 PUSH0 NOT DUP2 EQ PUSH2 0x126C JUMPI PUSH1 0x1 ADD SWAP1 PUSH2 0x142F JUMP JUMPDEST PUSH1 0xBF NOT DUP2 ADD SWAP2 SWAP1 DUP3 GT PUSH2 0x126C JUMPI JUMP JUMPDEST PUSH1 0x7F NOT DUP2 ADD SWAP2 SWAP1 DUP3 GT PUSH2 0x126C JUMPI JUMP JUMPDEST PUSH1 0x20 SUB SWAP1 PUSH1 0x20 DUP3 GT PUSH2 0x126C JUMPI JUMP JUMPDEST PUSH0 NOT DUP2 ADD SWAP2 SWAP1 DUP3 GT PUSH2 0x126C JUMPI JUMP JUMPDEST PUSH1 0xF6 NOT DUP2 ADD SWAP2 SWAP1 DUP3 GT PUSH2 0x126C JUMPI JUMP JUMPDEST PUSH1 0xB6 NOT DUP2 ADD SWAP2 SWAP1 DUP3 GT PUSH2 0x126C JUMPI JUMP JUMPDEST MLOAD PUSH0 BYTE PUSH1 0x80 DUP2 LT ISZERO PUSH2 0x14C9 JUMPI POP PUSH0 SWAP1 JUMP JUMPDEST PUSH1 0xB8 DUP2 LT DUP1 ISZERO PUSH2 0x1505 JUMPI JUMPDEST ISZERO PUSH2 0x14DF JUMPI POP PUSH1 0x1 SWAP1 JUMP JUMPDEST PUSH1 0xC0 DUP2 LT ISZERO PUSH2 0x14F9 JUMPI PUSH2 0x14F4 PUSH2 0x2EF SWAP2 PUSH2 0x14A9 JUMP JUMPDEST PUSH2 0x125E JUMP JUMPDEST PUSH2 0x14F4 PUSH2 0x2EF SWAP2 PUSH2 0x149A JUMP JUMPDEST POP PUSH1 0xC0 DUP2 LT ISZERO DUP1 ISZERO PUSH2 0x14D4 JUMPI POP PUSH1 0xF8 DUP2 LT PUSH2 0x14D4 JUMP JUMPDEST DUP1 MLOAD PUSH0 BYTE SWAP1 PUSH1 0x80 DUP3 LT ISZERO PUSH2 0x1530 JUMPI POP POP PUSH1 0x1 SWAP1 JUMP JUMPDEST PUSH1 0xB8 DUP3 LT ISZERO PUSH2 0x1546 JUMPI POP PUSH2 0x14F4 PUSH2 0x2EF SWAP2 PUSH2 0x146F JUMP JUMPDEST SWAP1 PUSH1 0xC0 DUP2 LT ISZERO PUSH2 0x156A JUMPI PUSH1 0xB5 NOT SWAP2 PUSH1 0x1 PUSH1 0xB7 DUP4 PUSH1 0x20 SUB ADD PUSH2 0x100 EXP SWAP2 ADD MLOAD DIV ADD ADD SWAP1 JUMP JUMPDEST SWAP1 PUSH1 0xF8 DUP3 LT ISZERO PUSH2 0x1581 JUMPI POP PUSH2 0x14F4 PUSH2 0x2EF SWAP2 PUSH2 0x1460 JUMP JUMPDEST PUSH1 0x1 ADD MLOAD PUSH1 0x20 DUP3 SWAP1 SUB PUSH1 0xF7 ADD PUSH2 0x100 EXP SWAP1 DIV ADD PUSH1 0xF5 NOT ADD SWAP1 JUMP JUMPDEST SWAP1 PUSH1 0x20 DUP3 ADD SWAP2 PUSH2 0x15AB DUP4 MLOAD PUSH2 0x14B8 JUMP JUMPDEST SWAP3 MLOAD SWAP1 DUP4 DUP3 ADD DUP1 SWAP3 GT PUSH2 0x126C JUMPI MLOAD SWAP3 DUP4 SUB SWAP3 DUP4 GT PUSH2 0x126C JUMPI SWAP2 SWAP1 JUMP JUMPDEST PUSH1 0x1F DUP2 GT PUSH2 0x126C JUMPI PUSH2 0x100 EXP SWAP1 JUMP JUMPDEST SWAP3 SWAP1 SWAP2 SWAP3 DUP4 ISZERO PUSH2 0x164D JUMPI SWAP3 SWAP2 JUMPDEST PUSH1 0x20 SWAP4 DUP5 DUP5 LT PUSH2 0x1618 JUMPI DUP1 MLOAD DUP3 MSTORE DUP5 DUP2 ADD DUP1 SWAP2 GT PUSH2 0x126C JUMPI SWAP4 DUP2 ADD DUP1 SWAP2 GT PUSH2 0x126C JUMPI SWAP2 PUSH1 0x1F NOT DUP2 ADD SWAP1 DUP2 GT PUSH2 0x126C JUMPI SWAP2 PUSH2 0x15E3 JUMP JUMPDEST SWAP2 SWAP4 POP SWAP2 DUP1 PUSH2 0x1626 JUMPI POP POP POP JUMP JUMPDEST PUSH2 0x163A PUSH2 0x1635 PUSH2 0x163F SWAP3 PUSH2 0x147E JUMP JUMPDEST PUSH2 0x15C7 JUMP JUMPDEST PUSH2 0x148C JUMP JUMPDEST SWAP1 MLOAD DUP3 MLOAD DUP3 AND SWAP2 NOT AND OR SWAP1 MSTORE JUMP JUMPDEST POP SWAP2 POP POP JUMP INVALID LOG2 PUSH5 0x6970667358 0x22 SLT KECCAK256 SWAP1 BLOBBASEFEE PUSH20 0x1AAF0BCC0CDE52D1981BC8E194279040FFF3366A SWAP4 0xCB 0xC0 OR BALANCE SWAP10 0xCA 0xE2 SWAP11 PUSH5 0x736F6C6343 STOP ADDMOD XOR STOP CALLER "
				},
				"gasEstimates": {
					"creation": {
						"codeDepositCost": "1153800",
						"executionCost": "infinite",
						"totalCost": "infinite"
					},
					"external": {
						"decodeRequest(bytes)": "infinite",
						"decodeResponse(bytes)": "infinite",
						"decodeResponseSP(bytes)": "infinite",
						"getMessageHash(bytes32,bytes[],bytes32,bytes,bytes)": "infinite",
						"getMessageHashSP(bytes32,bytes[],bytes,bytes,uint256)": "infinite",
						"getReqMessageHash(bytes32,uint256,bytes32,bytes)": "infinite"
					}
				},
				"methodIdentifiers": {
					"decodeRequest(bytes)": "fe0103f7",
					"decodeResponse(bytes)": "88ede4a2",
					"decodeResponseSP(bytes)": "e09bc827",
					"getMessageHash(bytes32,bytes[],bytes32,bytes,bytes)": "c7d60a06",
					"getMessageHashSP(bytes32,bytes[],bytes,bytes,uint256)": "2c66f61a",
					"getReqMessageHash(bytes32,uint256,bytes32,bytes)": "15515246"
				}
			},
			"storageLayout": {
				"storage": [],
				"types": null
			},
			"userdoc": {
				"kind": "user",
				"methods": {},
				"version": 1
			}
		}
	}
}