{
	"contracts/fraud-detector/libs/rlp/Helper.sol": {
		"Helper": {
			"abi": [
				{
					"inputs": [
						{
							"internalType": "bytes",
							"name": "item",
							"type": "bytes"
						}
					],
					"name": "bytesToString",
					"outputs": [
						{
							"internalType": "string",
							"name": "",
							"type": "string"
						}
					],
					"stateMutability": "pure",
					"type": "function"
				},
				{
					"inputs": [
						{
							"internalType": "bytes",
							"name": "item",
							"type": "bytes"
						}
					],
					"name": "customDestructure",
					"outputs": [
						{
							"internalType": "address",
							"name": "",
							"type": "address"
						},
						{
							"internalType": "bool",
							"name": "",
							"type": "bool"
						},
						{
							"internalType": "uint256",
							"name": "",
							"type": "uint256"
						}
					],
					"stateMutability": "pure",
					"type": "function"
				},
				{
					"inputs": [
						{
							"internalType": "bytes",
							"name": "item",
							"type": "bytes"
						}
					],
					"name": "customNestedDestructure",
					"outputs": [
						{
							"internalType": "address",
							"name": "",
							"type": "address"
						},
						{
							"internalType": "uint256",
							"name": "",
							"type": "uint256"
						}
					],
					"stateMutability": "pure",
					"type": "function"
				},
				{
					"inputs": [
						{
							"internalType": "bytes",
							"name": "item",
							"type": "bytes"
						}
					],
					"name": "customNestedDestructureKeccak",
					"outputs": [
						{
							"internalType": "bytes32",
							"name": "",
							"type": "bytes32"
						},
						{
							"internalType": "bytes32",
							"name": "",
							"type": "bytes32"
						}
					],
					"stateMutability": "pure",
					"type": "function"
				},
				{
					"inputs": [
						{
							"internalType": "bytes",
							"name": "item",
							"type": "bytes"
						}
					],
					"name": "customNestedToRlpBytes",
					"outputs": [
						{
							"internalType": "bytes",
							"name": "",
							"type": "bytes"
						}
					],
					"stateMutability": "pure",
					"type": "function"
				},
				{
					"inputs": [
						{
							"internalType": "bytes",
							"name": "item",
							"type": "bytes"
						}
					],
					"name": "isList",
					"outputs": [
						{
							"internalType": "bool",
							"name": "",
							"type": "bool"
						}
					],
					"stateMutability": "pure",
					"type": "function"
				},
				{
					"inputs": [
						{
							"internalType": "bytes",
							"name": "item",
							"type": "bytes"
						}
					],
					"name": "itemLength",
					"outputs": [
						{
							"internalType": "uint256",
							"name": "",
							"type": "uint256"
						}
					],
					"stateMutability": "pure",
					"type": "function"
				},
				{
					"inputs": [
						{
							"internalType": "bytes",
							"name": "item",
							"type": "bytes"
						}
					],
					"name": "nestedIteration",
					"outputs": [
						{
							"internalType": "string",
							"name": "",
							"type": "string"
						}
					],
					"stateMutability": "pure",
					"type": "function"
				},
				{
					"inputs": [
						{
							"internalType": "bytes",
							"name": "item",
							"type": "bytes"
						}
					],
					"name": "numItems",
					"outputs": [
						{
							"internalType": "uint256",
							"name": "",
							"type": "uint256"
						}
					],
					"stateMutability": "pure",
					"type": "function"
				},
				{
					"inputs": [
						{
							"internalType": "bytes",
							"name": "item",
							"type": "bytes"
						}
					],
					"name": "payloadKeccak256",
					"outputs": [
						{
							"internalType": "bytes32",
							"name": "",
							"type": "bytes32"
						}
					],
					"stateMutability": "pure",
					"type": "function"
				},
				{
					"inputs": [
						{
							"internalType": "bytes",
							"name": "item",
							"type": "bytes"
						}
					],
					"name": "payloadLocation",
					"outputs": [
						{
							"internalType": "uint256",
							"name": "payloadMemPtr",
							"type": "uint256"
						},
						{
							"internalType": "uint256",
							"name": "payloadLen",
							"type": "uint256"
						},
						{
							"internalType": "uint256",
							"name": "itemMemPtr",
							"type": "uint256"
						}
					],
					"stateMutability": "pure",
					"type": "function"
				},
				{
					"inputs": [
						{
							"internalType": "bytes",
							"name": "item",
							"type": "bytes"
						}
					],
					"name": "rlpBytesKeccak256",
					"outputs": [
						{
							"internalType": "bytes32",
							"name": "",
							"type": "bytes32"
						}
					],
					"stateMutability": "pure",
					"type": "function"
				},
				{
					"inputs": [
						{
							"internalType": "bytes",
							"name": "item",
							"type": "bytes"
						}
					],
					"name": "rlpLen",
					"outputs": [
						{
							"internalType": "uint256",
							"name": "",
							"type": "uint256"
						}
					],
					"stateMutability": "pure",
					"type": "function"
				},
				{
					"inputs": [
						{
							"internalType": "bytes",
							"name": "item",
							"type": "bytes"
						}
					],
					"name": "toAddress",
					"outputs": [
						{
							"internalType": "address",
							"name": "",
							"type": "address"
						}
					],
					"stateMutability": "pure",
					"type": "function"
				},
				{
					"inputs": [
						{
							"internalType": "bytes",
							"name": "rlpHeader",
							"type": "bytes"
						}
					],
					"name": "toBlockHeader",
					"outputs": [
						{
							"internalType": "bytes32",
							"name": "parentHash",
							"type": "bytes32"
						},
						{
							"internalType": "bytes32",
							"name": "sha3Uncles",
							"type": "bytes32"
						},
						{
							"internalType": "bytes32",
							"name": "stateRoot",
							"type": "bytes32"
						},
						{
							"internalType": "bytes32",
							"name": "transactionsRoot",
							"type": "bytes32"
						},
						{
							"internalType": "bytes32",
							"name": "receiptsRoot",
							"type": "bytes32"
						},
						{
							"internalType": "uint256",
							"name": "difficulty",
							"type": "uint256"
						},
						{
							"internalType": "uint256",
							"name": "number",
							"type": "uint256"
						},
						{
							"internalType": "uint256",
							"name": "gasLimit",
							"type": "uint256"
						},
						{
							"internalType": "uint256",
							"name": "gasUsed",
							"type": "uint256"
						},
						{
							"internalType": "uint256",
							"name": "timestamp",
							"type": "uint256"
						},
						{
							"internalType": "uint256",
							"name": "nonce",
							"type": "uint256"
						}
					],
					"stateMutability": "pure",
					"type": "function"
				},
				{
					"inputs": [
						{
							"internalType": "bytes",
							"name": "item",
							"type": "bytes"
						}
					],
					"name": "toBoolean",
					"outputs": [
						{
							"internalType": "bool",
							"name": "",
							"type": "bool"
						}
					],
					"stateMutability": "pure",
					"type": "function"
				},
				{
					"inputs": [
						{
							"internalType": "bytes",
							"name": "item",
							"type": "bytes"
						}
					],
					"name": "toBytes",
					"outputs": [
						{
							"internalType": "bytes",
							"name": "",
							"type": "bytes"
						}
					],
					"stateMutability": "pure",
					"type": "function"
				},
				{
					"inputs": [
						{
							"internalType": "bytes",
							"name": "item",
							"type": "bytes"
						}
					],
					"name": "toIterator",
					"outputs": [],
					"stateMutability": "pure",
					"type": "function"
				},
				{
					"inputs": [
						{
							"internalType": "bytes",
							"name": "item",
							"type": "bytes"
						}
					],
					"name": "toRlpBytes",
					"outputs": [
						{
							"internalType": "bytes",
							"name": "",
							"type": "bytes"
						}
					],
					"stateMutability": "pure",
					"type": "function"
				},
				{
					"inputs": [
						{
							"internalType": "bytes",
							"name": "item",
							"type": "bytes"
						}
					],
					"name": "toUint",
					"outputs": [
						{
							"internalType": "uint256",
							"name": "",
							"type": "uint256"
						}
					],
					"stateMutability": "pure",
					"type": "function"
				},
				{
					"inputs": [
						{
							"internalType": "bytes",
							"name": "item",
							"type": "bytes"
						}
					],
					"name": "toUintStrict",
					"outputs": [
						{
							"internalType": "uint256",
							"name": "",
							"type": "uint256"
						}
					],
					"stateMutability": "pure",
					"type": "function"
				}
			],
			"devdoc": {
				"kind": "dev",
				"methods": {},
				"version": 1
			},
			"evm": {
				"assembly": "    /* \"contracts/fraud-detector/libs/rlp/Helper.sol\":167:7562  contract Helper {... */\n  0x80\n  dup1\n  0x40\n  mstore\n  jumpi(tag_1, callvalue)\n  dataSize(sub_0)\n  swap1\n  dup2\n  dataOffset(sub_0)\n  dup3\n  codecopy\n  return\ntag_1:\n  0x00\n  dup1\n  revert\nstop\n\nsub_0: assembly {\n        /* \"contracts/fraud-detector/libs/rlp/Helper.sol\":167:7562  contract Helper {... */\n      mstore(0x40, 0x80)\n      jumpi(tag_61, iszero(lt(calldatasize, 0x04)))\n      0x00\n      dup1\n      revert\n    tag_61:\n      shr(0xe0, calldataload(0x00))\n      dup1\n      0x04ba3427\n      eq\n      tag_63\n      jumpi\n      dup1\n      0x059a97fb\n      eq\n      tag_65\n      jumpi\n      dup1\n      0x15943cb6\n      eq\n      tag_67\n      jumpi\n      dup1\n      0x19921bd0\n      eq\n      tag_69\n      jumpi\n      dup1\n      0x20f91849\n      eq\n      tag_71\n      jumpi\n      dup1\n      0x2d888869\n      eq\n      tag_73\n      jumpi\n      dup1\n      0x33c82d18\n      eq\n      tag_75\n      jumpi\n      dup1\n      0x39614e4f\n      eq\n      tag_99\n      jumpi\n      dup1\n      0x45fce4f9\n      eq\n      tag_79\n      jumpi\n      dup1\n      0x64ea1929\n      eq\n      tag_81\n      jumpi\n      dup1\n      0x74c4c494\n      eq\n      tag_83\n      jumpi\n      dup1\n      0x76193f8c\n      eq\n      tag_85\n      jumpi\n      dup1\n      0x8109672f\n      eq\n      tag_87\n      jumpi\n      dup1\n      0x8529d576\n      eq\n      tag_89\n      jumpi\n      dup1\n      0xaac19545\n      eq\n      tag_91\n      jumpi\n      dup1\n      0xd03ca5a3\n      eq\n      tag_93\n      jumpi\n      dup1\n      0xdd208ea1\n      eq\n      tag_95\n      jumpi\n      dup1\n      0xe7617bf8\n      eq\n      tag_97\n      jumpi\n      dup1\n      0xe79fbcec\n      eq\n      tag_99\n      jumpi\n      dup1\n      0xeb4eb372\n      eq\n      tag_101\n      jumpi\n      0xf29cddc0\n      eq\n      tag_103\n      jumpi\n      0x00\n      dup1\n      revert\n    tag_103:\n      tag_27\n      jump\t// in\n    tag_101:\n      tag_26\n      jump\t// in\n    tag_99:\n      tag_14\n      jump\t// in\n    tag_97:\n      tag_25\n      jump\t// in\n    tag_95:\n      tag_23\n      jump\t// in\n    tag_93:\n      tag_22\n      jump\t// in\n    tag_91:\n      tag_21\n      jump\t// in\n    tag_89:\n      tag_20\n      jump\t// in\n    tag_87:\n      tag_19\n      jump\t// in\n    tag_85:\n      tag_18\n      jump\t// in\n    tag_83:\n      tag_17\n      jump\t// in\n    tag_81:\n      tag_16\n      jump\t// in\n    tag_79:\n      tag_15\n      jump\t// in\n    tag_75:\n      tag_13\n      jump\t// in\n    tag_73:\n      tag_11\n      jump\t// in\n    tag_71:\n      tag_10\n      jump\t// in\n    tag_69:\n      tag_9\n      jump\t// in\n    tag_67:\n      tag_8\n      jump\t// in\n    tag_65:\n      tag_7\n      jump\t// in\n    tag_63:\n      tag_6\n      jump\t// in\n    tag_1:\n      mstore(0x00, shl(0xe0, 0x4e487b71))\n      mstore(0x04, 0x41)\n      revert(0x00, 0x24)\n    tag_2:\n      mload(0x40)\n      swap1\n      0x40\n      dup3\n      add\n      dup3\n      dup2\n      lt\n      0xffffffffffffffff\n      dup3\n      gt\n      or\n      tag_105\n      jumpi\n      0x40\n      mstore\n      jump\t// out\n    tag_105:\n      tag_1\n      jump\t// in\n    tag_3:\n      mload(0x40)\n      swap2\n      swap1\n      0x1f\n      add\n      not(0x1f)\n      and\n      dup3\n      add\n      0xffffffffffffffff\n      dup2\n      gt\n      dup4\n      dup3\n      lt\n      or\n      tag_105\n      jumpi\n      0x40\n      mstore\n      jump\t// out\n    tag_4:\n      0xffffffffffffffff\n      dup2\n      gt\n      tag_105\n      jumpi\n      0x1f\n      add\n      not(0x1f)\n      and\n      0x20\n      add\n      swap1\n      jump\t// out\n    tag_5:\n      0x20\n      not(0x03)\n      dup3\n      add\n      slt\n      tag_119\n      jumpi\n      calldataload(0x04)\n      0xffffffffffffffff\n      dup2\n      gt\n      tag_119\n      jumpi\n      dup2\n      0x23\n      dup3\n      add\n      slt\n      iszero\n      tag_119\n      jumpi\n      dup1\n      0x04\n      add\n      calldataload\n      swap1\n      tag_117\n      tag_118\n      dup4\n      tag_4\n      jump\t// in\n    tag_118:\n      tag_3\n      jump\t// in\n    tag_117:\n      swap3\n      dup3\n      dup5\n      mstore\n      0x24\n      dup4\n      dup4\n      add\n      add\n      gt\n      tag_119\n      jumpi\n      dup2\n      0x00\n      swap3\n      0x24\n      0x20\n      swap4\n      add\n      dup4\n      dup7\n      add\n      calldatacopy\n      dup4\n      add\n      add\n      mstore\n      swap1\n      jump\t// out\n    tag_119:\n      0x00\n      dup1\n      revert\n    tag_6:\n      jumpi(tag_119, callvalue)\n      0x20\n        /* \"contracts/fraud-detector/libs/rlp/Helper.sol\":2811:2830  rlpItem.toBoolean() */\n      tag_123\n        /* \"contracts/fraud-detector/libs/rlp/Helper.sol\":2778:2794  item.toRlpItem() */\n      tag_124\n        /* \"contracts/fraud-detector/libs/rlp/Helper.sol\":167:7562  contract Helper {... */\n      tag_125\n      calldatasize\n      tag_5\n      jump\t// in\n    tag_125:\n        /* \"contracts/fraud-detector/libs/rlp/Helper.sol\":2778:2794  item.toRlpItem() */\n      tag_34\n      jump\t// in\n    tag_124:\n        /* \"contracts/fraud-detector/libs/rlp/Helper.sol\":2811:2830  rlpItem.toBoolean() */\n      tag_35\n      jump\t// in\n    tag_123:\n        /* \"contracts/fraud-detector/libs/rlp/Helper.sol\":167:7562  contract Helper {... */\n      mload(0x40)\n      swap1\n      iszero\n      iszero\n      dup2\n      mstore\n      return\n    tag_7:\n      jumpi(tag_119, callvalue)\n        /* \"contracts/fraud-detector/libs/rlp/Helper.sol\":5168:5193  item.toRlpItem().toList() */\n      tag_128\n        /* \"contracts/fraud-detector/libs/rlp/Helper.sol\":5168:5184  item.toRlpItem() */\n      tag_129\n        /* \"contracts/fraud-detector/libs/rlp/Helper.sol\":167:7562  contract Helper {... */\n      tag_125\n      calldatasize\n      tag_5\n      jump\t// in\n        /* \"contracts/fraud-detector/libs/rlp/Helper.sol\":5168:5184  item.toRlpItem() */\n    tag_129:\n        /* \"contracts/fraud-detector/libs/rlp/Helper.sol\":5168:5193  item.toRlpItem().toList() */\n      tag_39\n      jump\t// in\n    tag_128:\n        /* \"contracts/fraud-detector/libs/rlp/Helper.sol\":5211:5231  items[0].toAddress() */\n      tag_131\n        /* \"contracts/fraud-detector/libs/rlp/Helper.sol\":5211:5219  items[0] */\n      tag_132\n      dup3\n      tag_28\n      jump\t// in\n    tag_132:\n      mload\n        /* \"contracts/fraud-detector/libs/rlp/Helper.sol\":5211:5231  items[0].toAddress() */\n      tag_40\n      jump\t// in\n    tag_131:\n        /* \"contracts/fraud-detector/libs/rlp/Helper.sol\":5233:5253  items[1].toBoolean() */\n      tag_133\n        /* \"contracts/fraud-detector/libs/rlp/Helper.sol\":5233:5241  items[1] */\n      tag_134\n      dup4\n      tag_29\n      jump\t// in\n    tag_134:\n      mload\n        /* \"contracts/fraud-detector/libs/rlp/Helper.sol\":5233:5253  items[1].toBoolean() */\n      tag_35\n      jump\t// in\n    tag_133:\n        /* \"contracts/fraud-detector/libs/rlp/Helper.sol\":167:7562  contract Helper {... */\n      dup3\n      mload\n        /* \"contracts/fraud-detector/libs/rlp/Helper.sol\":5261:5262  2 */\n      0x02\n        /* \"contracts/fraud-detector/libs/rlp/Helper.sol\":167:7562  contract Helper {... */\n      lt\n      iszero\n      tag_135\n      jumpi\n        /* \"contracts/fraud-detector/libs/rlp/Helper.sol\":5255:5272  items[2].toUint() */\n      tag_137\n        /* \"contracts/fraud-detector/libs/rlp/Helper.sol\":167:7562  contract Helper {... */\n      0x60\n      dup1\n      swap5\n      add\n        /* \"contracts/fraud-detector/libs/rlp/Helper.sol\":5255:5263  items[2] */\n      mload\n        /* \"contracts/fraud-detector/libs/rlp/Helper.sol\":5255:5272  items[2].toUint() */\n      tag_41\n      jump\t// in\n    tag_137:\n        /* \"contracts/fraud-detector/libs/rlp/Helper.sol\":167:7562  contract Helper {... */\n      0x40\n      dup1\n      mload\n      sub(shl(0xa0, 0x01), 0x01)\n      swap1\n      swap5\n      and\n      dup5\n      mstore\n      swap2\n      iszero\n      iszero\n      0x20\n      dup5\n      add\n      mstore\n      swap1\n      dup3\n      add\n      mstore\n      return\n    tag_135:\n      mstore(0x00, shl(0xe0, 0x4e487b71))\n      mstore(0x04, 0x32)\n      revert(0x00, 0x24)\n    tag_8:\n      jumpi(tag_119, callvalue)\n      0x40\n        /* \"contracts/fraud-detector/libs/rlp/Helper.sol\":5462:5479  items[0].toList() */\n      tag_140\n        /* \"contracts/fraud-detector/libs/rlp/Helper.sol\":5462:5470  items[0] */\n      tag_141\n        /* \"contracts/fraud-detector/libs/rlp/Helper.sol\":5419:5444  item.toRlpItem().toList() */\n      tag_142\n        /* \"contracts/fraud-detector/libs/rlp/Helper.sol\":5419:5435  item.toRlpItem() */\n      tag_129\n        /* \"contracts/fraud-detector/libs/rlp/Helper.sol\":167:7562  contract Helper {... */\n      tag_125\n      calldatasize\n      tag_5\n      jump\t// in\n        /* \"contracts/fraud-detector/libs/rlp/Helper.sol\":5419:5444  item.toRlpItem().toList() */\n    tag_142:\n        /* \"contracts/fraud-detector/libs/rlp/Helper.sol\":5462:5470  items[0] */\n      tag_28\n      jump\t// in\n    tag_141:\n      mload\n        /* \"contracts/fraud-detector/libs/rlp/Helper.sol\":5462:5479  items[0].toList() */\n      tag_39\n      jump\t// in\n    tag_140:\n        /* \"contracts/fraud-detector/libs/rlp/Helper.sol\":5519:5536  items[1].toUint() */\n      tag_145\n        /* \"contracts/fraud-detector/libs/rlp/Helper.sol\":5519:5527  items[1] */\n      tag_146\n        /* \"contracts/fraud-detector/libs/rlp/Helper.sol\":5497:5517  items[0].toAddress() */\n      tag_147\n        /* \"contracts/fraud-detector/libs/rlp/Helper.sol\":5497:5505  items[0] */\n      tag_132\n      dup5\n      tag_28\n      jump\t// in\n        /* \"contracts/fraud-detector/libs/rlp/Helper.sol\":5497:5517  items[0].toAddress() */\n    tag_147:\n        /* \"contracts/fraud-detector/libs/rlp/Helper.sol\":5519:5527  items[1] */\n      swap3\n      tag_29\n      jump\t// in\n    tag_146:\n      mload\n        /* \"contracts/fraud-detector/libs/rlp/Helper.sol\":5519:5536  items[1].toUint() */\n      tag_41\n      jump\t// in\n    tag_145:\n        /* \"contracts/fraud-detector/libs/rlp/Helper.sol\":167:7562  contract Helper {... */\n      dup3\n      mload\n      sub(shl(0xa0, 0x01), 0x01)\n      swap1\n      swap3\n      and\n      dup3\n      mstore\n      0x20\n      dup3\n      add\n      mstore\n      return\n    tag_9:\n      jumpi(tag_119, callvalue)\n      0x20\n        /* \"contracts/fraud-detector/libs/rlp/Helper.sol\":478:494  rlpItem.isList() */\n      tag_123\n        /* \"contracts/fraud-detector/libs/rlp/Helper.sol\":445:461  item.toRlpItem() */\n      tag_152\n        /* \"contracts/fraud-detector/libs/rlp/Helper.sol\":167:7562  contract Helper {... */\n      tag_125\n      calldatasize\n      tag_5\n      jump\t// in\n        /* \"contracts/fraud-detector/libs/rlp/Helper.sol\":445:461  item.toRlpItem() */\n    tag_152:\n        /* \"contracts/fraud-detector/libs/rlp/Helper.sol\":478:494  rlpItem.isList() */\n      tag_42\n      jump\t// in\n        /* \"contracts/fraud-detector/libs/rlp/Helper.sol\":167:7562  contract Helper {... */\n    tag_10:\n      jumpi(tag_119, callvalue)\n        /* \"contracts/fraud-detector/libs/rlp/Helper.sol\":2422:2438  item.toRlpItem() */\n      tag_156\n        /* \"contracts/fraud-detector/libs/rlp/Helper.sol\":167:7562  contract Helper {... */\n      tag_125\n      calldatasize\n      tag_5\n      jump\t// in\n        /* \"contracts/fraud-detector/libs/rlp/Helper.sol\":2422:2438  item.toRlpItem() */\n    tag_156:\n        /* \"contracts/fraud-detector/libs/rlp/RLPReader.sol\":6685:6687  33 */\n      0x21\n        /* \"contracts/fraud-detector/libs/rlp/Helper.sol\":167:7562  contract Helper {... */\n      dup2\n      mload\n        /* \"contracts/fraud-detector/libs/rlp/RLPReader.sol\":6673:6687  item.len == 33 */\n      sub\n        /* \"contracts/fraud-detector/libs/rlp/Helper.sol\":167:7562  contract Helper {... */\n      tag_119\n      jumpi\n        /* \"contracts/fraud-detector/libs/rlp/RLPReader.sol\":6740:6751  item.memPtr */\n      0x20\n      add\n        /* \"contracts/fraud-detector/libs/rlp/Helper.sol\":167:7562  contract Helper {... */\n      mload\n        /* \"contracts/fraud-detector/libs/rlp/RLPReader.sol\":6754:6755  1 */\n      0x01\n        /* \"contracts/fraud-detector/libs/rlp/Helper.sol\":167:7562  contract Helper {... */\n      dup2\n      add\n      dup1\n      swap2\n      gt\n      tag_160\n      jumpi\n        /* \"contracts/fraud-detector/libs/rlp/RLPReader.sol\":6740:6751  item.memPtr */\n      0x20\n        /* \"contracts/fraud-detector/libs/rlp/RLPReader.sol\":6765:6821  assembly {... */\n      swap1\n      mload\n        /* \"contracts/fraud-detector/libs/rlp/Helper.sol\":167:7562  contract Helper {... */\n      mload(0x40)\n      swap1\n      dup2\n      mstore\n      return\n    tag_160:\n      tag_31\n      jump\t// in\n    tag_11:\n      jumpi(tag_119, callvalue)\n      0x20\n        /* \"contracts/fraud-detector/libs/rlp/Helper.sol\":2636:2655  rlpItem.toAddress() */\n      tag_164\n        /* \"contracts/fraud-detector/libs/rlp/Helper.sol\":2603:2619  item.toRlpItem() */\n      tag_165\n        /* \"contracts/fraud-detector/libs/rlp/Helper.sol\":167:7562  contract Helper {... */\n      tag_125\n      calldatasize\n      tag_5\n      jump\t// in\n        /* \"contracts/fraud-detector/libs/rlp/Helper.sol\":2603:2619  item.toRlpItem() */\n    tag_165:\n        /* \"contracts/fraud-detector/libs/rlp/Helper.sol\":2636:2655  rlpItem.toAddress() */\n      tag_40\n      jump\t// in\n    tag_164:\n        /* \"contracts/fraud-detector/libs/rlp/Helper.sol\":167:7562  contract Helper {... */\n      mload(0x40)\n      sub(shl(0xa0, 0x01), 0x01)\n      swap1\n      swap2\n      and\n      dup2\n      mstore\n      return\n    tag_12:\n      swap2\n      swap1\n      dup3\n      mload\n      swap3\n      dup4\n      dup3\n      mstore\n      0x00\n    tag_167:\n      dup5\n      dup2\n      lt\n      tag_168\n      jumpi\n      pop\n      pop\n      dup3\n      0x00\n      0x20\n      dup1\n      swap5\n      swap6\n      dup5\n      add\n      add\n      mstore\n      0x1f\n      dup1\n      not\n      swap2\n      add\n      and\n      add\n      add\n      swap1\n      jump\t// out\n    tag_168:\n      0x20\n      dup2\n      dup4\n      add\n      dup2\n      add\n      mload\n      dup5\n      dup4\n      add\n      dup3\n      add\n      mstore\n      add\n      jump(tag_167)\n    tag_13:\n      jumpi(tag_119, callvalue)\n      tag_172\n        /* \"contracts/fraud-detector/libs/rlp/Helper.sol\":1928:1948  rlpItem.toRlpBytes() */\n      tag_173\n        /* \"contracts/fraud-detector/libs/rlp/Helper.sol\":1895:1911  item.toRlpItem() */\n      tag_174\n        /* \"contracts/fraud-detector/libs/rlp/Helper.sol\":167:7562  contract Helper {... */\n      tag_125\n      calldatasize\n      tag_5\n      jump\t// in\n        /* \"contracts/fraud-detector/libs/rlp/Helper.sol\":1895:1911  item.toRlpItem() */\n    tag_174:\n        /* \"contracts/fraud-detector/libs/rlp/Helper.sol\":1928:1948  rlpItem.toRlpBytes() */\n      tag_44\n      jump\t// in\n    tag_173:\n        /* \"contracts/fraud-detector/libs/rlp/Helper.sol\":167:7562  contract Helper {... */\n      mload(0x40)\n      swap2\n      dup3\n      swap2\n      0x20\n      dup4\n      mstore\n      0x20\n      dup4\n      add\n      swap1\n      tag_12\n      jump\t// in\n    tag_172:\n      sub\n      swap1\n      return\n    tag_14:\n      jumpi(tag_119, callvalue)\n      tag_172\n        /* \"contracts/fraud-detector/libs/rlp/Helper.sol\":3006:3023  rlpItem.toBytes() */\n      tag_173\n        /* \"contracts/fraud-detector/libs/rlp/Helper.sol\":2966:2982  item.toRlpItem() */\n      tag_180\n        /* \"contracts/fraud-detector/libs/rlp/Helper.sol\":167:7562  contract Helper {... */\n      tag_125\n      calldatasize\n      tag_5\n      jump\t// in\n        /* \"contracts/fraud-detector/libs/rlp/Helper.sol\":2966:2982  item.toRlpItem() */\n    tag_180:\n        /* \"contracts/fraud-detector/libs/rlp/Helper.sol\":3006:3023  rlpItem.toBytes() */\n      tag_45\n      jump\t// in\n        /* \"contracts/fraud-detector/libs/rlp/Helper.sol\":167:7562  contract Helper {... */\n    tag_15:\n      jumpi(tag_119, callvalue)\n      0x60\n        /* \"contracts/fraud-detector/libs/rlp/Helper.sol\":1074:1090  item.toRlpItem() */\n      tag_184\n        /* \"contracts/fraud-detector/libs/rlp/Helper.sol\":167:7562  contract Helper {... */\n      tag_125\n      calldatasize\n      tag_5\n      jump\t// in\n        /* \"contracts/fraud-detector/libs/rlp/Helper.sol\":1074:1090  item.toRlpItem() */\n    tag_184:\n        /* \"contracts/fraud-detector/libs/rlp/Helper.sol\":1182:1196  rlpItem.memPtr */\n      0x20\n        /* \"contracts/fraud-detector/libs/rlp/Helper.sol\":1126:1151  rlpItem.payloadLocation() */\n      tag_186\n      dup3\n      tag_52\n      jump\t// in\n    tag_186:\n        /* \"contracts/fraud-detector/libs/rlp/Helper.sol\":1182:1196  rlpItem.memPtr */\n      swap2\n      swap1\n      swap3\n      add\n        /* \"contracts/fraud-detector/libs/rlp/Helper.sol\":167:7562  contract Helper {... */\n      mload\n      swap1\n      mload(0x40)\n      swap3\n      dup4\n      mstore\n        /* \"contracts/fraud-detector/libs/rlp/Helper.sol\":1182:1196  rlpItem.memPtr */\n      0x20\n        /* \"contracts/fraud-detector/libs/rlp/Helper.sol\":167:7562  contract Helper {... */\n      dup4\n      add\n      mstore\n      0x40\n      dup3\n      add\n      mstore\n      return\n    tag_16:\n      jumpi(tag_119, callvalue)\n      0x40\n        /* \"contracts/fraud-detector/libs/rlp/Helper.sol\":5767:5784  items[0].toList() */\n      tag_189\n        /* \"contracts/fraud-detector/libs/rlp/Helper.sol\":5767:5775  items[0] */\n      tag_141\n        /* \"contracts/fraud-detector/libs/rlp/Helper.sol\":5724:5749  item.toRlpItem().toList() */\n      tag_142\n        /* \"contracts/fraud-detector/libs/rlp/Helper.sol\":5724:5740  item.toRlpItem() */\n      tag_129\n        /* \"contracts/fraud-detector/libs/rlp/Helper.sol\":167:7562  contract Helper {... */\n      tag_125\n      calldatasize\n      tag_5\n      jump\t// in\n        /* \"contracts/fraud-detector/libs/rlp/Helper.sol\":5767:5784  items[0].toList() */\n    tag_189:\n        /* \"contracts/fraud-detector/libs/rlp/RLPReader.sol\":4603:4624  payloadLocation(item) */\n      tag_194\n        /* \"contracts/fraud-detector/libs/rlp/Helper.sol\":5831:5839  items[1] */\n      tag_197\n        /* \"contracts/fraud-detector/libs/rlp/RLPReader.sol\":4603:4624  payloadLocation(item) */\n      tag_196\n        /* \"contracts/fraud-detector/libs/rlp/Helper.sol\":5802:5810  items[0] */\n      tag_197\n      dup5\n      tag_28\n      jump\t// in\n    tag_197:\n      mload\n        /* \"contracts/fraud-detector/libs/rlp/RLPReader.sol\":4603:4624  payloadLocation(item) */\n      tag_52\n      jump\t// in\n    tag_196:\n        /* \"contracts/fraud-detector/libs/rlp/RLPReader.sol\":4658:4723  assembly {... */\n      swap1\n      keccak256\n        /* \"contracts/fraud-detector/libs/rlp/Helper.sol\":5831:5839  items[1] */\n      swap3\n      tag_29\n      jump\t// in\n        /* \"contracts/fraud-detector/libs/rlp/RLPReader.sol\":4603:4624  payloadLocation(item) */\n    tag_194:\n        /* \"contracts/fraud-detector/libs/rlp/RLPReader.sol\":4658:4723  assembly {... */\n      swap1\n      keccak256\n        /* \"contracts/fraud-detector/libs/rlp/Helper.sol\":167:7562  contract Helper {... */\n      dup3\n      mload\n      swap2\n      dup3\n      mstore\n      0x20\n      dup3\n      add\n      mstore\n      return\n    tag_17:\n      jumpi(tag_119, callvalue)\n      tag_172\n        /* \"contracts/fraud-detector/libs/rlp/Helper.sol\":6045:6066  items[0].toRlpBytes() */\n      tag_173\n        /* \"contracts/fraud-detector/libs/rlp/Helper.sol\":6045:6053  items[0] */\n      tag_202\n        /* \"contracts/fraud-detector/libs/rlp/Helper.sol\":6003:6028  item.toRlpItem().toList() */\n      tag_142\n        /* \"contracts/fraud-detector/libs/rlp/Helper.sol\":6003:6019  item.toRlpItem() */\n      tag_129\n        /* \"contracts/fraud-detector/libs/rlp/Helper.sol\":167:7562  contract Helper {... */\n      tag_125\n      calldatasize\n      tag_5\n      jump\t// in\n        /* \"contracts/fraud-detector/libs/rlp/Helper.sol\":6045:6053  items[0] */\n    tag_202:\n      mload\n        /* \"contracts/fraud-detector/libs/rlp/Helper.sol\":6045:6066  items[0].toRlpBytes() */\n      tag_44\n      jump\t// in\n        /* \"contracts/fraud-detector/libs/rlp/Helper.sol\":167:7562  contract Helper {... */\n    tag_18:\n      jumpi(tag_119, callvalue)\n        /* \"contracts/fraud-detector/libs/rlp/Helper.sol\":3343:3370  item.toRlpItem().iterator() */\n      tag_208\n        /* \"contracts/fraud-detector/libs/rlp/Helper.sol\":3343:3359  item.toRlpItem() */\n      tag_209\n        /* \"contracts/fraud-detector/libs/rlp/Helper.sol\":167:7562  contract Helper {... */\n      tag_125\n      calldatasize\n      tag_5\n      jump\t// in\n        /* \"contracts/fraud-detector/libs/rlp/Helper.sol\":3343:3359  item.toRlpItem() */\n    tag_209:\n        /* \"contracts/fraud-detector/libs/rlp/Helper.sol\":3343:3370  item.toRlpItem().iterator() */\n      tag_53\n      jump\t// in\n    tag_208:\n        /* \"contracts/fraud-detector/libs/rlp/Helper.sol\":3416:3438  iter.next().iterator() */\n      tag_211\n        /* \"contracts/fraud-detector/libs/rlp/Helper.sol\":3416:3427  iter.next() */\n      tag_209\n      dup3\n      tag_54\n      jump\t// in\n        /* \"contracts/fraud-detector/libs/rlp/Helper.sol\":3416:3438  iter.next().iterator() */\n    tag_211:\n        /* \"contracts/fraud-detector/libs/rlp/Helper.sol\":3523:3537  iter.hasNext() */\n      tag_213\n        /* \"contracts/fraud-detector/libs/rlp/Helper.sol\":3478:3502  subIter.next().toBytes() */\n      tag_214\n        /* \"contracts/fraud-detector/libs/rlp/Helper.sol\":3478:3492  subIter.next() */\n      tag_180\n      dup4\n      tag_54\n      jump\t// in\n        /* \"contracts/fraud-detector/libs/rlp/Helper.sol\":3478:3502  subIter.next().toBytes() */\n    tag_214:\n        /* \"contracts/fraud-detector/libs/rlp/Helper.sol\":3523:3537  iter.hasNext() */\n      swap3\n      tag_55\n      jump\t// in\n    tag_213:\n        /* \"contracts/fraud-detector/libs/rlp/Helper.sol\":167:7562  contract Helper {... */\n      tag_119\n      jumpi\n        /* \"contracts/fraud-detector/libs/rlp/Helper.sol\":3557:3574  subIter.hasNext() */\n      tag_218\n      swap1\n      tag_55\n      jump\t// in\n    tag_218:\n        /* \"contracts/fraud-detector/libs/rlp/Helper.sol\":167:7562  contract Helper {... */\n      tag_119\n      jumpi\n      tag_172\n      swap1\n      mload(0x40)\n      swap2\n      dup3\n      swap2\n      0x20\n      dup4\n      mstore\n      0x20\n      dup4\n      add\n      swap1\n      tag_12\n      jump\t// in\n    tag_19:\n      jumpi(tag_119, callvalue)\n        /* \"contracts/fraud-detector/libs/rlp/Helper.sol\":604:662  assembly {... */\n      0x20\n        /* \"contracts/fraud-detector/libs/rlp/Helper.sol\":679:698  _itemLength(memPtr) */\n      tag_224\n        /* \"contracts/fraud-detector/libs/rlp/Helper.sol\":167:7562  contract Helper {... */\n      dup2\n      tag_225\n      calldatasize\n      tag_5\n      jump\t// in\n    tag_225:\n        /* \"contracts/fraud-detector/libs/rlp/Helper.sol\":604:662  assembly {... */\n      add\n        /* \"contracts/fraud-detector/libs/rlp/Helper.sol\":679:698  _itemLength(memPtr) */\n      tag_56\n      jump\t// in\n    tag_224:\n        /* \"contracts/fraud-detector/libs/rlp/Helper.sol\":167:7562  contract Helper {... */\n      mload(0x40)\n      swap1\n      dup2\n      mstore\n      return\n    tag_20:\n      jumpi(tag_119, callvalue)\n      0x20\n        /* \"contracts/fraud-detector/libs/rlp/Helper.sol\":2280:2296  rlpItem.toUint() */\n      tag_224\n        /* \"contracts/fraud-detector/libs/rlp/Helper.sol\":2247:2263  item.toRlpItem() */\n      tag_229\n        /* \"contracts/fraud-detector/libs/rlp/Helper.sol\":167:7562  contract Helper {... */\n      tag_125\n      calldatasize\n      tag_5\n      jump\t// in\n        /* \"contracts/fraud-detector/libs/rlp/Helper.sol\":2247:2263  item.toRlpItem() */\n    tag_229:\n        /* \"contracts/fraud-detector/libs/rlp/Helper.sol\":2280:2296  rlpItem.toUint() */\n      tag_41\n      jump\t// in\n        /* \"contracts/fraud-detector/libs/rlp/Helper.sol\":167:7562  contract Helper {... */\n    tag_21:\n      jumpi(tag_119, callvalue)\n      0x20\n        /* \"contracts/fraud-detector/libs/rlp/Helper.sol\":818:834  item.toRlpItem() */\n      tag_233\n        /* \"contracts/fraud-detector/libs/rlp/Helper.sol\":167:7562  contract Helper {... */\n      tag_125\n      calldatasize\n      tag_5\n      jump\t// in\n        /* \"contracts/fraud-detector/libs/rlp/Helper.sol\":818:834  item.toRlpItem() */\n    tag_233:\n        /* \"contracts/fraud-detector/libs/rlp/Helper.sol\":167:7562  contract Helper {... */\n      mload\n      mload(0x40)\n      swap1\n      dup2\n      mstore\n      return\n    tag_22:\n      jumpi(tag_119, callvalue)\n        /* \"contracts/fraud-detector/libs/rlp/Helper.sol\":3148:3175  item.toRlpItem().iterator() */\n      tag_237\n        /* \"contracts/fraud-detector/libs/rlp/Helper.sol\":3148:3164  item.toRlpItem() */\n      tag_209\n        /* \"contracts/fraud-detector/libs/rlp/Helper.sol\":167:7562  contract Helper {... */\n      tag_125\n      calldatasize\n      tag_5\n      jump\t// in\n        /* \"contracts/fraud-detector/libs/rlp/Helper.sol\":3148:3175  item.toRlpItem().iterator() */\n    tag_237:\n        /* \"contracts/fraud-detector/libs/rlp/Helper.sol\":167:7562  contract Helper {... */\n      stop\n    tag_23:\n      jumpi(tag_119, callvalue)\n      0x20\n        /* \"contracts/fraud-detector/libs/rlp/Helper.sol\":1321:1346  item.toRlpItem().toList() */\n      tag_233\n        /* \"contracts/fraud-detector/libs/rlp/Helper.sol\":1321:1337  item.toRlpItem() */\n      tag_129\n        /* \"contracts/fraud-detector/libs/rlp/Helper.sol\":167:7562  contract Helper {... */\n      tag_125\n      calldatasize\n      tag_5\n      jump\t// in\n    tag_25:\n      jumpi(tag_119, callvalue)\n      tag_247\n      calldatasize\n      tag_5\n      jump\t// in\n    tag_247:\n      0x00\n      dup1\n        /* \"contracts/fraud-detector/libs/rlp/Helper.sol\":3729:3746  bytes32 stateRoot */\n      swap2\n      0x00\n        /* \"contracts/fraud-detector/libs/rlp/Helper.sol\":3748:3772  bytes32 transactionsRoot */\n      swap2\n      0x00\n        /* \"contracts/fraud-detector/libs/rlp/Helper.sol\":3774:3794  bytes32 receiptsRoot */\n      swap2\n      0x00\n      dup1\n      0x00\n      dup1\n      0x00\n        /* \"contracts/fraud-detector/libs/rlp/Helper.sol\":3863:3877  uint timestamp */\n      swap3\n      0x00\n        /* \"contracts/fraud-detector/libs/rlp/Helper.sol\":3879:3889  uint nonce */\n      swap5\n        /* \"contracts/fraud-detector/libs/rlp/Helper.sol\":3933:3965  rlpHeader.toRlpItem().iterator() */\n      tag_248\n        /* \"contracts/fraud-detector/libs/rlp/Helper.sol\":3933:3954  rlpHeader.toRlpItem() */\n      tag_209\n      0x00\n      swap9\n      tag_34\n      jump\t// in\n        /* \"contracts/fraud-detector/libs/rlp/Helper.sol\":3933:3965  rlpHeader.toRlpItem().iterator() */\n    tag_248:\n        /* \"contracts/fraud-detector/libs/rlp/Helper.sol\":3975:3983  uint idx */\n      swap9\n      0x00\n        /* \"contracts/fraud-detector/libs/rlp/Helper.sol\":3993:4909  while(it.hasNext()) {... */\n      swap9\n    tag_250:\n        /* \"contracts/fraud-detector/libs/rlp/Helper.sol\":3999:4011  it.hasNext() */\n      tag_251\n      dup12\n      tag_55\n      jump\t// in\n    tag_251:\n      iszero\n      tag_252\n      jumpi\n        /* \"contracts/fraud-detector/libs/rlp/Helper.sol\":4032:4040  idx == 0 */\n      dup10\n      tag_254\n      jumpi\n        /* \"contracts/fraud-detector/libs/rlp/Helper.sol\":4075:4084  it.next() */\n      pop\n        /* \"contracts/fraud-detector/libs/rlp/Helper.sol\":4893:4898  idx++ */\n      tag_256\n        /* \"contracts/fraud-detector/libs/rlp/Helper.sol\":4075:4093  it.next().toUint() */\n      tag_257\n        /* \"contracts/fraud-detector/libs/rlp/Helper.sol\":4075:4084  it.next() */\n      tag_229\n      dup13\n      tag_54\n      jump\t// in\n        /* \"contracts/fraud-detector/libs/rlp/Helper.sol\":4075:4093  it.next().toUint() */\n    tag_257:\n        /* \"contracts/fraud-detector/libs/rlp/Helper.sol\":4027:4878  if ( idx == 0 )      parentHash       = bytes32(it.next().toUint());... */\n      swap10\n        /* \"contracts/fraud-detector/libs/rlp/Helper.sol\":4893:4898  idx++ */\n      tag_32\n      jump\t// in\n    tag_256:\n        /* \"contracts/fraud-detector/libs/rlp/Helper.sol\":3993:4909  while(it.hasNext()) {... */\n      swap9\n      jump(tag_250)\n        /* \"contracts/fraud-detector/libs/rlp/Helper.sol\":4027:4878  if ( idx == 0 )      parentHash       = bytes32(it.next().toUint());... */\n    tag_254:\n        /* \"contracts/fraud-detector/libs/rlp/Helper.sol\":4118:4126  idx == 1 */\n      swap9\n      swap12\n        /* \"contracts/fraud-detector/libs/rlp/Helper.sol\":4125:4126  1 */\n      0x01\n        /* \"contracts/fraud-detector/libs/rlp/Helper.sol\":4118:4126  idx == 1 */\n      dup14\n      sub\n        /* \"contracts/fraud-detector/libs/rlp/Helper.sol\":4125:4126  1 */\n      tag_260\n      jumpi\n        /* \"contracts/fraud-detector/libs/rlp/Helper.sol\":4156:4165  it.next() */\n      pop\n        /* \"contracts/fraud-detector/libs/rlp/Helper.sol\":4893:4898  idx++ */\n      tag_256\n        /* \"contracts/fraud-detector/libs/rlp/Helper.sol\":4156:4174  it.next().toUint() */\n      tag_262\n        /* \"contracts/fraud-detector/libs/rlp/Helper.sol\":4156:4165  it.next() */\n      tag_229\n      dup13\n      tag_54\n      jump\t// in\n        /* \"contracts/fraud-detector/libs/rlp/Helper.sol\":4156:4174  it.next().toUint() */\n    tag_262:\n        /* \"contracts/fraud-detector/libs/rlp/Helper.sol\":4113:4878  if ( idx == 1 ) sha3Uncles       = bytes32(it.next().toUint());... */\n      swap13\n        /* \"contracts/fraud-detector/libs/rlp/Helper.sol\":4893:4898  idx++ */\n      tag_32\n      jump\t// in\n        /* \"contracts/fraud-detector/libs/rlp/Helper.sol\":4113:4878  if ( idx == 1 ) sha3Uncles       = bytes32(it.next().toUint());... */\n    tag_260:\n        /* \"contracts/fraud-detector/libs/rlp/Helper.sol\":4199:4207  idx == 3 */\n      swap12\n      swap11\n        /* \"contracts/fraud-detector/libs/rlp/Helper.sol\":4206:4207  3 */\n      0x03\n        /* \"contracts/fraud-detector/libs/rlp/Helper.sol\":4199:4207  idx == 3 */\n      dup13\n      sub\n        /* \"contracts/fraud-detector/libs/rlp/Helper.sol\":4206:4207  3 */\n      tag_265\n      jumpi\n        /* \"contracts/fraud-detector/libs/rlp/Helper.sol\":4237:4246  it.next() */\n      pop\n        /* \"contracts/fraud-detector/libs/rlp/Helper.sol\":4893:4898  idx++ */\n      tag_256\n        /* \"contracts/fraud-detector/libs/rlp/Helper.sol\":4237:4255  it.next().toUint() */\n      tag_267\n        /* \"contracts/fraud-detector/libs/rlp/Helper.sol\":4237:4246  it.next() */\n      tag_229\n      dup13\n      tag_54\n      jump\t// in\n        /* \"contracts/fraud-detector/libs/rlp/Helper.sol\":4237:4255  it.next().toUint() */\n    tag_267:\n        /* \"contracts/fraud-detector/libs/rlp/Helper.sol\":4194:4878  if ( idx == 3 ) stateRoot        = bytes32(it.next().toUint());... */\n      swap12\n        /* \"contracts/fraud-detector/libs/rlp/Helper.sol\":4893:4898  idx++ */\n      tag_32\n      jump\t// in\n        /* \"contracts/fraud-detector/libs/rlp/Helper.sol\":4194:4878  if ( idx == 3 ) stateRoot        = bytes32(it.next().toUint());... */\n    tag_265:\n        /* \"contracts/fraud-detector/libs/rlp/Helper.sol\":4280:4288  idx == 4 */\n      swap11\n      swap1\n        /* \"contracts/fraud-detector/libs/rlp/Helper.sol\":167:7562  contract Helper {... */\n      0x04\n        /* \"contracts/fraud-detector/libs/rlp/Helper.sol\":4280:4288  idx == 4 */\n      dup3\n      sub\n        /* \"contracts/fraud-detector/libs/rlp/Helper.sol\":167:7562  contract Helper {... */\n      tag_270\n      jumpi\n        /* \"contracts/fraud-detector/libs/rlp/Helper.sol\":4318:4327  it.next() */\n      pop\n        /* \"contracts/fraud-detector/libs/rlp/Helper.sol\":4893:4898  idx++ */\n      tag_256\n        /* \"contracts/fraud-detector/libs/rlp/Helper.sol\":4318:4336  it.next().toUint() */\n      tag_272\n        /* \"contracts/fraud-detector/libs/rlp/Helper.sol\":4318:4327  it.next() */\n      tag_229\n      dup13\n      tag_54\n      jump\t// in\n        /* \"contracts/fraud-detector/libs/rlp/Helper.sol\":4318:4336  it.next().toUint() */\n    tag_272:\n        /* \"contracts/fraud-detector/libs/rlp/Helper.sol\":4275:4878  if ( idx == 4 ) transactionsRoot = bytes32(it.next().toUint());... */\n      swap2\n        /* \"contracts/fraud-detector/libs/rlp/Helper.sol\":4893:4898  idx++ */\n      tag_32\n      jump\t// in\n        /* \"contracts/fraud-detector/libs/rlp/Helper.sol\":4275:4878  if ( idx == 4 ) transactionsRoot = bytes32(it.next().toUint());... */\n    tag_270:\n        /* \"contracts/fraud-detector/libs/rlp/Helper.sol\":4361:4369  idx == 5 */\n      swap1\n      swap2\n        /* \"contracts/fraud-detector/libs/rlp/Helper.sol\":4368:4369  5 */\n      0x05\n        /* \"contracts/fraud-detector/libs/rlp/Helper.sol\":4361:4369  idx == 5 */\n      dup4\n      sub\n        /* \"contracts/fraud-detector/libs/rlp/Helper.sol\":4368:4369  5 */\n      tag_275\n      jumpi\n        /* \"contracts/fraud-detector/libs/rlp/Helper.sol\":4399:4408  it.next() */\n      pop\n        /* \"contracts/fraud-detector/libs/rlp/Helper.sol\":4893:4898  idx++ */\n      tag_256\n        /* \"contracts/fraud-detector/libs/rlp/Helper.sol\":4399:4417  it.next().toUint() */\n      tag_277\n        /* \"contracts/fraud-detector/libs/rlp/Helper.sol\":4399:4408  it.next() */\n      tag_229\n      dup13\n      tag_54\n      jump\t// in\n        /* \"contracts/fraud-detector/libs/rlp/Helper.sol\":4399:4417  it.next().toUint() */\n    tag_277:\n        /* \"contracts/fraud-detector/libs/rlp/Helper.sol\":4356:4878  if ( idx == 5 ) receiptsRoot     = bytes32(it.next().toUint());... */\n      swap3\n        /* \"contracts/fraud-detector/libs/rlp/Helper.sol\":4893:4898  idx++ */\n      tag_32\n      jump\t// in\n        /* \"contracts/fraud-detector/libs/rlp/Helper.sol\":4356:4878  if ( idx == 5 ) receiptsRoot     = bytes32(it.next().toUint());... */\n    tag_275:\n        /* \"contracts/fraud-detector/libs/rlp/Helper.sol\":4442:4450  idx == 7 */\n      swap2\n      swap3\n        /* \"contracts/fraud-detector/libs/rlp/Helper.sol\":4449:4450  7 */\n      0x07\n        /* \"contracts/fraud-detector/libs/rlp/Helper.sol\":4442:4450  idx == 7 */\n      dup5\n      sub\n        /* \"contracts/fraud-detector/libs/rlp/Helper.sol\":4449:4450  7 */\n      tag_280\n      jumpi\n        /* \"contracts/fraud-detector/libs/rlp/Helper.sol\":4472:4481  it.next() */\n      pop\n        /* \"contracts/fraud-detector/libs/rlp/Helper.sol\":4893:4898  idx++ */\n      tag_256\n        /* \"contracts/fraud-detector/libs/rlp/Helper.sol\":4472:4490  it.next().toUint() */\n      tag_282\n        /* \"contracts/fraud-detector/libs/rlp/Helper.sol\":4472:4481  it.next() */\n      tag_229\n      dup13\n      tag_54\n      jump\t// in\n        /* \"contracts/fraud-detector/libs/rlp/Helper.sol\":4472:4490  it.next().toUint() */\n    tag_282:\n        /* \"contracts/fraud-detector/libs/rlp/Helper.sol\":4437:4878  if ( idx == 7 ) difficulty       = it.next().toUint();... */\n      swap4\n        /* \"contracts/fraud-detector/libs/rlp/Helper.sol\":4893:4898  idx++ */\n      tag_32\n      jump\t// in\n        /* \"contracts/fraud-detector/libs/rlp/Helper.sol\":4437:4878  if ( idx == 7 ) difficulty       = it.next().toUint();... */\n    tag_280:\n        /* \"contracts/fraud-detector/libs/rlp/Helper.sol\":4514:4522  idx == 8 */\n      swap3\n      swap4\n        /* \"contracts/fraud-detector/libs/rlp/Helper.sol\":4521:4522  8 */\n      0x08\n        /* \"contracts/fraud-detector/libs/rlp/Helper.sol\":4514:4522  idx == 8 */\n      dup6\n      sub\n        /* \"contracts/fraud-detector/libs/rlp/Helper.sol\":4521:4522  8 */\n      tag_285\n      jumpi\n        /* \"contracts/fraud-detector/libs/rlp/Helper.sol\":4544:4553  it.next() */\n      pop\n        /* \"contracts/fraud-detector/libs/rlp/Helper.sol\":4893:4898  idx++ */\n      tag_256\n        /* \"contracts/fraud-detector/libs/rlp/Helper.sol\":4544:4562  it.next().toUint() */\n      tag_287\n        /* \"contracts/fraud-detector/libs/rlp/Helper.sol\":4544:4553  it.next() */\n      tag_229\n      dup13\n      tag_54\n      jump\t// in\n        /* \"contracts/fraud-detector/libs/rlp/Helper.sol\":4544:4562  it.next().toUint() */\n    tag_287:\n        /* \"contracts/fraud-detector/libs/rlp/Helper.sol\":4509:4878  if ( idx == 8 ) number           = it.next().toUint();... */\n      swap5\n        /* \"contracts/fraud-detector/libs/rlp/Helper.sol\":4893:4898  idx++ */\n      tag_32\n      jump\t// in\n        /* \"contracts/fraud-detector/libs/rlp/Helper.sol\":4509:4878  if ( idx == 8 ) number           = it.next().toUint();... */\n    tag_285:\n        /* \"contracts/fraud-detector/libs/rlp/Helper.sol\":4586:4594  idx == 9 */\n      swap4\n      swap5\n        /* \"contracts/fraud-detector/libs/rlp/Helper.sol\":4593:4594  9 */\n      0x09\n        /* \"contracts/fraud-detector/libs/rlp/Helper.sol\":4586:4594  idx == 9 */\n      dup7\n      sub\n        /* \"contracts/fraud-detector/libs/rlp/Helper.sol\":4593:4594  9 */\n      tag_290\n      jumpi\n        /* \"contracts/fraud-detector/libs/rlp/Helper.sol\":4616:4625  it.next() */\n      pop\n        /* \"contracts/fraud-detector/libs/rlp/Helper.sol\":4893:4898  idx++ */\n      tag_256\n        /* \"contracts/fraud-detector/libs/rlp/Helper.sol\":4616:4634  it.next().toUint() */\n      tag_292\n        /* \"contracts/fraud-detector/libs/rlp/Helper.sol\":4616:4625  it.next() */\n      tag_229\n      dup13\n      tag_54\n      jump\t// in\n        /* \"contracts/fraud-detector/libs/rlp/Helper.sol\":4616:4634  it.next().toUint() */\n    tag_292:\n        /* \"contracts/fraud-detector/libs/rlp/Helper.sol\":4581:4878  if ( idx == 9 ) gasLimit         = it.next().toUint();... */\n      swap6\n        /* \"contracts/fraud-detector/libs/rlp/Helper.sol\":4893:4898  idx++ */\n      tag_32\n      jump\t// in\n        /* \"contracts/fraud-detector/libs/rlp/Helper.sol\":4581:4878  if ( idx == 9 ) gasLimit         = it.next().toUint();... */\n    tag_290:\n        /* \"contracts/fraud-detector/libs/rlp/Helper.sol\":4658:4667  idx == 10 */\n      swap5\n      swap6\n        /* \"contracts/fraud-detector/libs/rlp/Helper.sol\":4665:4667  10 */\n      0x0a\n        /* \"contracts/fraud-detector/libs/rlp/Helper.sol\":4658:4667  idx == 10 */\n      dup8\n      sub\n        /* \"contracts/fraud-detector/libs/rlp/Helper.sol\":4665:4667  10 */\n      tag_295\n      jumpi\n        /* \"contracts/fraud-detector/libs/rlp/Helper.sol\":4688:4697  it.next() */\n      pop\n        /* \"contracts/fraud-detector/libs/rlp/Helper.sol\":4893:4898  idx++ */\n      tag_256\n        /* \"contracts/fraud-detector/libs/rlp/Helper.sol\":4688:4706  it.next().toUint() */\n      tag_297\n        /* \"contracts/fraud-detector/libs/rlp/Helper.sol\":4688:4697  it.next() */\n      tag_229\n      dup13\n      tag_54\n      jump\t// in\n        /* \"contracts/fraud-detector/libs/rlp/Helper.sol\":4688:4706  it.next().toUint() */\n    tag_297:\n        /* \"contracts/fraud-detector/libs/rlp/Helper.sol\":4653:4878  if ( idx == 10 ) gasUsed         = it.next().toUint();... */\n      swap7\n        /* \"contracts/fraud-detector/libs/rlp/Helper.sol\":4893:4898  idx++ */\n      tag_32\n      jump\t// in\n        /* \"contracts/fraud-detector/libs/rlp/Helper.sol\":4653:4878  if ( idx == 10 ) gasUsed         = it.next().toUint();... */\n    tag_295:\n        /* \"contracts/fraud-detector/libs/rlp/Helper.sol\":4730:4739  idx == 11 */\n      swap6\n      swap7\n        /* \"contracts/fraud-detector/libs/rlp/Helper.sol\":4737:4739  11 */\n      0x0b\n        /* \"contracts/fraud-detector/libs/rlp/Helper.sol\":4730:4739  idx == 11 */\n      dup9\n      sub\n        /* \"contracts/fraud-detector/libs/rlp/Helper.sol\":4737:4739  11 */\n      tag_300\n      jumpi\n        /* \"contracts/fraud-detector/libs/rlp/Helper.sol\":4760:4769  it.next() */\n      pop\n        /* \"contracts/fraud-detector/libs/rlp/Helper.sol\":4893:4898  idx++ */\n      tag_256\n        /* \"contracts/fraud-detector/libs/rlp/Helper.sol\":4760:4778  it.next().toUint() */\n      tag_302\n        /* \"contracts/fraud-detector/libs/rlp/Helper.sol\":4760:4769  it.next() */\n      tag_229\n      dup13\n      tag_54\n      jump\t// in\n        /* \"contracts/fraud-detector/libs/rlp/Helper.sol\":4760:4778  it.next().toUint() */\n    tag_302:\n        /* \"contracts/fraud-detector/libs/rlp/Helper.sol\":4725:4878  if ( idx == 11 ) timestamp       = it.next().toUint();... */\n      swap8\n        /* \"contracts/fraud-detector/libs/rlp/Helper.sol\":4893:4898  idx++ */\n      tag_32\n      jump\t// in\n        /* \"contracts/fraud-detector/libs/rlp/Helper.sol\":4725:4878  if ( idx == 11 ) timestamp       = it.next().toUint();... */\n    tag_300:\n        /* \"contracts/fraud-detector/libs/rlp/Helper.sol\":4802:4811  idx == 14 */\n      swap7\n      swap8\n        /* \"contracts/fraud-detector/libs/rlp/Helper.sol\":4809:4811  14 */\n      0x0e\n        /* \"contracts/fraud-detector/libs/rlp/Helper.sol\":4802:4811  idx == 14 */\n      dup10\n      sub\n        /* \"contracts/fraud-detector/libs/rlp/Helper.sol\":4809:4811  14 */\n      tag_305\n      jumpi\n        /* \"contracts/fraud-detector/libs/rlp/Helper.sol\":4832:4841  it.next() */\n      pop\n        /* \"contracts/fraud-detector/libs/rlp/Helper.sol\":4893:4898  idx++ */\n      tag_256\n        /* \"contracts/fraud-detector/libs/rlp/Helper.sol\":4832:4850  it.next().toUint() */\n      tag_307\n        /* \"contracts/fraud-detector/libs/rlp/Helper.sol\":4832:4841  it.next() */\n      tag_229\n      dup13\n      tag_54\n      jump\t// in\n        /* \"contracts/fraud-detector/libs/rlp/Helper.sol\":4832:4850  it.next().toUint() */\n    tag_307:\n        /* \"contracts/fraud-detector/libs/rlp/Helper.sol\":4797:4878  if ( idx == 14 ) nonce           = it.next().toUint();... */\n      swap9\n        /* \"contracts/fraud-detector/libs/rlp/Helper.sol\":4893:4898  idx++ */\n      tag_32\n      jump\t// in\n        /* \"contracts/fraud-detector/libs/rlp/Helper.sol\":4797:4878  if ( idx == 14 ) nonce           = it.next().toUint();... */\n    tag_305:\n        /* \"contracts/fraud-detector/libs/rlp/Helper.sol\":4869:4878  it.next() */\n      swap8\n        /* \"contracts/fraud-detector/libs/rlp/Helper.sol\":4893:4898  idx++ */\n      tag_256\n        /* \"contracts/fraud-detector/libs/rlp/Helper.sol\":4869:4878  it.next() */\n      swap1\n      tag_310\n      dup13\n      tag_54\n      jump\t// in\n    tag_310:\n      pop\n        /* \"contracts/fraud-detector/libs/rlp/Helper.sol\":4893:4898  idx++ */\n      tag_32\n      jump\t// in\n        /* \"contracts/fraud-detector/libs/rlp/Helper.sol\":3999:4011  it.hasNext() */\n    tag_252:\n        /* \"contracts/fraud-detector/libs/rlp/Helper.sol\":167:7562  contract Helper {... */\n      0x40\n      dup1\n      mload\n      swap2\n      dup3\n      mstore\n      0x20\n      dup3\n      add\n      dup15\n      swap1\n      mstore\n      dup2\n      add\n      swap12\n      swap1\n      swap12\n      mstore\n      0x60\n      dup12\n      add\n      mstore\n      0x80\n      dup11\n      add\n      mstore\n      0xa0\n      dup10\n      add\n      mstore\n      0xc0\n      dup9\n      add\n      mstore\n      0xe0\n      dup8\n      add\n      mstore\n      0x0100\n      dup7\n      add\n      mstore\n      0x0120\n      dup6\n      add\n      mstore\n      0x0140\n      dup5\n      add\n      mstore\n      pop\n      0x0160\n      swap2\n      swap1\n      pop\n      return\n    tag_26:\n      jumpi(tag_119, callvalue)\n      0x20\n        /* \"contracts/fraud-detector/libs/rlp/RLPReader.sol\":4603:4624  payloadLocation(item) */\n      tag_314\n        /* \"contracts/fraud-detector/libs/rlp/Helper.sol\":1704:1720  item.toRlpItem() */\n      tag_315\n        /* \"contracts/fraud-detector/libs/rlp/Helper.sol\":167:7562  contract Helper {... */\n      tag_125\n      calldatasize\n      tag_5\n      jump\t// in\n        /* \"contracts/fraud-detector/libs/rlp/Helper.sol\":1704:1720  item.toRlpItem() */\n    tag_315:\n        /* \"contracts/fraud-detector/libs/rlp/RLPReader.sol\":4603:4624  payloadLocation(item) */\n      tag_52\n      jump\t// in\n    tag_314:\n        /* \"contracts/fraud-detector/libs/rlp/RLPReader.sol\":4658:4723  assembly {... */\n      swap1\n      keccak256\n        /* \"contracts/fraud-detector/libs/rlp/Helper.sol\":167:7562  contract Helper {... */\n      mload(0x40)\n      swap1\n      dup2\n      mstore\n      return\n    tag_27:\n      jumpi(tag_119, callvalue)\n        /* \"contracts/fraud-detector/libs/rlp/RLPReader.sol\":4156:4167  item.memPtr */\n      0x20\n        /* \"contracts/fraud-detector/libs/rlp/Helper.sol\":1511:1527  item.toRlpItem() */\n      tag_319\n        /* \"contracts/fraud-detector/libs/rlp/Helper.sol\":167:7562  contract Helper {... */\n      tag_125\n      calldatasize\n      tag_5\n      jump\t// in\n        /* \"contracts/fraud-detector/libs/rlp/Helper.sol\":1511:1527  item.toRlpItem() */\n    tag_319:\n        /* \"contracts/fraud-detector/libs/rlp/RLPReader.sol\":4156:4167  item.memPtr */\n      dup2\n      dup2\n      add\n        /* \"contracts/fraud-detector/libs/rlp/Helper.sol\":167:7562  contract Helper {... */\n      mload\n      swap1\n      mload\n        /* \"contracts/fraud-detector/libs/rlp/RLPReader.sol\":4233:4295  assembly {... */\n      swap1\n      keccak256\n        /* \"contracts/fraud-detector/libs/rlp/Helper.sol\":167:7562  contract Helper {... */\n      mload(0x40)\n      swap1\n      dup2\n      mstore\n      return\n    tag_28:\n      dup1\n      mload\n      iszero\n      tag_135\n      jumpi\n      0x20\n      add\n      swap1\n      jump\t// out\n    tag_29:\n      dup1\n      mload\n        /* \"contracts/fraud-detector/libs/rlp/Helper.sol\":5239:5240  1 */\n      0x01\n        /* \"contracts/fraud-detector/libs/rlp/Helper.sol\":167:7562  contract Helper {... */\n      lt\n      iszero\n      tag_135\n      jumpi\n      0x40\n      add\n      swap1\n      jump\t// out\n    tag_30:\n      dup1\n      mload\n      dup3\n      lt\n      iszero\n      tag_135\n      jumpi\n      0x20\n      swap2\n      0x05\n      shl\n      add\n      add\n      swap1\n      jump\t// out\n    tag_31:\n      mstore(0x00, shl(0xe0, 0x4e487b71))\n      mstore(0x04, 0x11)\n      revert(0x00, 0x24)\n    tag_32:\n      not(0x00)\n      dup2\n      eq\n      tag_160\n      jumpi\n      0x01\n      add\n      swap1\n      jump\t// out\n    tag_33:\n      tag_329\n      tag_2\n      jump\t// in\n    tag_329:\n      swap1\n      0x00\n      dup3\n      mstore\n      0x00\n      0x20\n      dup4\n      add\n      mstore\n      jump\t// out\n        /* \"contracts/fraud-detector/libs/rlp/RLPReader.sol\":1513:1734  function toRlpItem(bytes memory item) internal pure returns (RLPItem memory) {... */\n    tag_34:\n      0x00\n        /* \"contracts/fraud-detector/libs/rlp/Helper.sol\":167:7562  contract Helper {... */\n      0x20\n      tag_330\n      tag_2\n      jump\t// in\n    tag_330:\n      dup3\n      dup2\n      mstore\n      add\n      mstore\n      0x20\n      dup2\n      mload\n      swap2\n      tag_331\n      tag_2\n      jump\t// in\n    tag_331:\n      swap3\n      dup4\n      mstore\n        /* \"contracts/fraud-detector/libs/rlp/RLPReader.sol\":1624:1682  assembly {... */\n      add\n        /* \"contracts/fraud-detector/libs/rlp/Helper.sol\":167:7562  contract Helper {... */\n      0x20\n        /* \"contracts/fraud-detector/libs/rlp/RLPReader.sol\":1699:1727  RLPItem(item.length, memPtr) */\n      dup3\n      add\n        /* \"contracts/fraud-detector/libs/rlp/Helper.sol\":167:7562  contract Helper {... */\n      mstore\n        /* \"contracts/fraud-detector/libs/rlp/RLPReader.sol\":1513:1734  function toRlpItem(bytes memory item) internal pure returns (RLPItem memory) {... */\n      swap1\n      jump\t// out\n        /* \"contracts/fraud-detector/libs/rlp/RLPReader.sol\":5250:5837  function toBoolean(RLPItem memory item) internal pure returns (bool) {... */\n    tag_35:\n        /* \"contracts/fraud-detector/libs/rlp/RLPReader.sol\":5349:5350  1 */\n      0x01\n        /* \"contracts/fraud-detector/libs/rlp/Helper.sol\":167:7562  contract Helper {... */\n      dup2\n      mload\n        /* \"contracts/fraud-detector/libs/rlp/RLPReader.sol\":5337:5350  item.len == 1 */\n      sub\n        /* \"contracts/fraud-detector/libs/rlp/Helper.sol\":167:7562  contract Helper {... */\n      tag_119\n      jumpi\n        /* \"contracts/fraud-detector/libs/rlp/RLPReader.sol\":5402:5413  item.memPtr */\n      0x20\n      add\n        /* \"contracts/fraud-detector/libs/rlp/Helper.sol\":167:7562  contract Helper {... */\n      mload\n        /* \"contracts/fraud-detector/libs/rlp/RLPReader.sol\":5423:5488  assembly {... */\n      mload\n      0x00\n      byte\n        /* \"contracts/fraud-detector/libs/rlp/RLPReader.sol\":5707:5718  result == 0 */\n      dup1\n      iszero\n        /* \"contracts/fraud-detector/libs/rlp/RLPReader.sol\":5707:5750  result == 0 || result == STRING_SHORT_START */\n      swap1\n      dup2\n      iszero\n      tag_334\n      jumpi\n        /* \"contracts/fraud-detector/libs/rlp/RLPReader.sol\":5250:5837  function toBoolean(RLPItem memory item) internal pure returns (bool) {... */\n    tag_335:\n      pop\n        /* \"contracts/fraud-detector/libs/rlp/RLPReader.sol\":5703:5831  if (result == 0 || result == STRING_SHORT_START) {... */\n      iszero\n      tag_336\n      jumpi\n      0x00\n        /* \"contracts/fraud-detector/libs/rlp/RLPReader.sol\":5766:5778  return false */\n      swap1\n      jump\t// out\n        /* \"contracts/fraud-detector/libs/rlp/RLPReader.sol\":5703:5831  if (result == 0 || result == STRING_SHORT_START) {... */\n    tag_336:\n        /* \"contracts/fraud-detector/libs/rlp/RLPReader.sol\":5349:5350  1 */\n      0x01\n        /* \"contracts/fraud-detector/libs/rlp/RLPReader.sol\":5809:5820  return true */\n      swap1\n      jump\t// out\n        /* \"contracts/fraud-detector/libs/rlp/RLPReader.sol\":5707:5750  result == 0 || result == STRING_SHORT_START */\n    tag_334:\n        /* \"contracts/fraud-detector/libs/rlp/RLPReader.sol\":239:243  0x80 */\n      0x80\n        /* \"contracts/fraud-detector/libs/rlp/RLPReader.sol\":5722:5750  result == STRING_SHORT_START */\n      swap2\n      pop\n      eq\n        /* \"contracts/fraud-detector/libs/rlp/RLPReader.sol\":5707:5750  result == 0 || result == STRING_SHORT_START */\n      0x00\n      jump(tag_335)\n        /* \"contracts/fraud-detector/libs/rlp/Helper.sol\":167:7562  contract Helper {... */\n    tag_36:\n      0xffffffffffffffff\n      dup2\n      gt\n      tag_105\n      jumpi\n      0x05\n      shl\n      0x20\n      add\n      swap1\n      jump\t// out\n    tag_37:\n      swap1\n        /* \"contracts/fraud-detector/libs/rlp/Helper.sol\":7199:7200  1 */\n      0x01\n        /* \"contracts/fraud-detector/libs/rlp/Helper.sol\":167:7562  contract Helper {... */\n      dup3\n      add\n      dup1\n      swap3\n      gt\n      tag_160\n      jumpi\n      jump\t// out\n    tag_38:\n      swap2\n      swap1\n      dup3\n      add\n      dup1\n      swap3\n      gt\n      tag_160\n      jumpi\n      jump\t// out\n        /* \"contracts/fraud-detector/libs/rlp/RLPReader.sol\":2946:3465  function toList(RLPItem memory item) internal pure returns (RLPItem[] memory) {... */\n    tag_39:\n        /* \"contracts/fraud-detector/libs/rlp/RLPReader.sol\":3042:3054  isList(item) */\n      tag_344\n      dup2\n      tag_42\n      jump\t// in\n    tag_344:\n        /* \"contracts/fraud-detector/libs/rlp/Helper.sol\":167:7562  contract Helper {... */\n      iszero\n      tag_119\n      jumpi\n        /* \"contracts/fraud-detector/libs/rlp/RLPReader.sol\":3082:3096  numItems(item) */\n      tag_347\n      dup2\n      tag_57\n      jump\t// in\n    tag_347:\n        /* \"contracts/fraud-detector/libs/rlp/Helper.sol\":167:7562  contract Helper {... */\n      tag_348\n      tag_118\n      dup3\n      tag_36\n      jump\t// in\n    tag_348:\n      dup2\n      dup2\n      mstore\n      swap2\n      not(0x1f)\n      tag_350\n      dup4\n      tag_36\n      jump\t// in\n    tag_350:\n      add\n      0x00\n    tag_351:\n      dup2\n      dup2\n      lt\n      tag_352\n      jumpi\n      pop\n      pop\n        /* \"contracts/fraud-detector/libs/rlp/RLPReader.sol\":3180:3221  item.memPtr + _payloadOffset(item.memPtr) */\n      tag_354\n        /* \"contracts/fraud-detector/libs/rlp/Helper.sol\":167:7562  contract Helper {... */\n      0x20\n      dup1\n        /* \"contracts/fraud-detector/libs/rlp/RLPReader.sol\":3180:3191  item.memPtr */\n      swap3\n      add\n        /* \"contracts/fraud-detector/libs/rlp/Helper.sol\":167:7562  contract Helper {... */\n      mload\n        /* \"contracts/fraud-detector/libs/rlp/RLPReader.sol\":3194:3221  _payloadOffset(item.memPtr) */\n      tag_355\n      dup2\n      tag_58\n      jump\t// in\n    tag_355:\n        /* \"contracts/fraud-detector/libs/rlp/RLPReader.sol\":3180:3221  item.memPtr + _payloadOffset(item.memPtr) */\n      swap1\n      tag_38\n      jump\t// in\n    tag_354:\n      0x00\n        /* \"contracts/fraud-detector/libs/rlp/RLPReader.sol\":3256:3435  for (uint256 i = 0; i < items; i++) {... */\n      swap1\n        /* \"contracts/fraud-detector/libs/rlp/RLPReader.sol\":3276:3285  i < items */\n    tag_356:\n      dup4\n      dup3\n      lt\n      tag_357\n      jumpi\n        /* \"contracts/fraud-detector/libs/rlp/RLPReader.sol\":3445:3458  return result */\n      pop\n      pop\n      pop\n      pop\n        /* \"contracts/fraud-detector/libs/rlp/RLPReader.sol\":2946:3465  function toList(RLPItem memory item) internal pure returns (RLPItem[] memory) {... */\n      swap1\n      jump\t// out\n        /* \"contracts/fraud-detector/libs/rlp/RLPReader.sol\":3287:3290  i++ */\n    tag_357:\n        /* \"contracts/fraud-detector/libs/rlp/RLPReader.sol\":3408:3424  memPtr + dataLen */\n      tag_359\n        /* \"contracts/fraud-detector/libs/rlp/RLPReader.sol\":3316:3335  _itemLength(memPtr) */\n      dup2\n      tag_360\n        /* \"contracts/fraud-detector/libs/rlp/Helper.sol\":167:7562  contract Helper {... */\n      0x01\n        /* \"contracts/fraud-detector/libs/rlp/RLPReader.sol\":3316:3335  _itemLength(memPtr) */\n      swap4\n      tag_56\n      jump\t// in\n    tag_360:\n        /* \"contracts/fraud-detector/libs/rlp/Helper.sol\":167:7562  contract Helper {... */\n      swap1\n      tag_361\n      tag_2\n      jump\t// in\n    tag_361:\n      dup3\n      dup2\n      mstore\n        /* \"contracts/fraud-detector/libs/rlp/RLPReader.sol\":3361:3385  RLPItem(dataLen, memPtr) */\n      dup2\n      dup8\n      dup3\n      add\n        /* \"contracts/fraud-detector/libs/rlp/Helper.sol\":167:7562  contract Helper {... */\n      mstore\n        /* \"contracts/fraud-detector/libs/rlp/RLPReader.sol\":3349:3385  result[i] = RLPItem(dataLen, memPtr) */\n      tag_362\n      dup7\n      dup11\n      tag_30\n      jump\t// in\n    tag_362:\n      mstore\n      tag_363\n      dup6\n      dup10\n      tag_30\n      jump\t// in\n    tag_363:\n      pop\n        /* \"contracts/fraud-detector/libs/rlp/RLPReader.sol\":3408:3424  memPtr + dataLen */\n      tag_38\n      jump\t// in\n    tag_359:\n        /* \"contracts/fraud-detector/libs/rlp/RLPReader.sol\":3287:3290  i++ */\n      swap2\n        /* \"contracts/fraud-detector/libs/rlp/Helper.sol\":167:7562  contract Helper {... */\n      add\n        /* \"contracts/fraud-detector/libs/rlp/RLPReader.sol\":3261:3274  uint256 i = 0 */\n      swap1\n      jump(tag_356)\n        /* \"contracts/fraud-detector/libs/rlp/Helper.sol\":167:7562  contract Helper {... */\n    tag_352:\n      0x20\n      swap1\n      tag_364\n      tag_33\n      jump\t// in\n    tag_364:\n      dup3\n      dup3\n      dup9\n      add\n      add\n      mstore\n      add\n      jump(tag_351)\n        /* \"contracts/fraud-detector/libs/rlp/RLPReader.sol\":5843:6043  function toAddress(RLPItem memory item) internal pure returns (address) {... */\n    tag_40:\n        /* \"contracts/fraud-detector/libs/rlp/RLPReader.sol\":5985:5987  21 */\n      0x15\n        /* \"contracts/fraud-detector/libs/rlp/Helper.sol\":167:7562  contract Helper {... */\n      dup2\n      mload\n        /* \"contracts/fraud-detector/libs/rlp/RLPReader.sol\":5973:5987  item.len == 21 */\n      sub\n        /* \"contracts/fraud-detector/libs/rlp/Helper.sol\":167:7562  contract Helper {... */\n      tag_119\n      jumpi\n      sub(shl(0xa0, 0x01), 0x01)\n      swap1\n        /* \"contracts/fraud-detector/libs/rlp/RLPReader.sol\":6022:6034  toUint(item) */\n      tag_367\n      swap1\n      tag_41\n      jump\t// in\n    tag_367:\n        /* \"contracts/fraud-detector/libs/rlp/Helper.sol\":167:7562  contract Helper {... */\n      and\n        /* \"contracts/fraud-detector/libs/rlp/RLPReader.sol\":5843:6043  function toAddress(RLPItem memory item) internal pure returns (address) {... */\n      swap1\n      jump\t// out\n        /* \"contracts/fraud-detector/libs/rlp/RLPReader.sol\":6049:6516  function toUint(RLPItem memory item) internal pure returns (uint256) {... */\n    tag_41:\n        /* \"contracts/fraud-detector/libs/rlp/Helper.sol\":167:7562  contract Helper {... */\n      dup1\n      mload\n        /* \"contracts/fraud-detector/libs/rlp/RLPReader.sol\":6136:6148  item.len > 0 */\n      dup1\n      iszero\n      iszero\n        /* \"contracts/fraud-detector/libs/rlp/RLPReader.sol\":6136:6166  item.len > 0 && item.len <= 33 */\n      swap1\n      dup2\n      tag_368\n      jumpi\n        /* \"contracts/fraud-detector/libs/rlp/RLPReader.sol\":6049:6516  function toUint(RLPItem memory item) internal pure returns (uint256) {... */\n    tag_369:\n        /* \"contracts/fraud-detector/libs/rlp/Helper.sol\":167:7562  contract Helper {... */\n      pop\n      iszero\n      tag_119\n      jumpi\n        /* \"contracts/fraud-detector/libs/rlp/RLPReader.sol\":6210:6231  payloadLocation(item) */\n      tag_372\n      swap1\n      tag_52\n      jump\t// in\n    tag_372:\n        /* \"contracts/fraud-detector/libs/rlp/RLPReader.sol\":6242:6256  uint256 result */\n      swap1\n        /* \"contracts/fraud-detector/libs/rlp/RLPReader.sol\":6266:6486  assembly {... */\n      mload\n      swap1\n      0x20\n      dup2\n      lt\n      tag_373\n      jumpi\n        /* \"contracts/fraud-detector/libs/rlp/RLPReader.sol\":6496:6509  return result */\n      pop\n        /* \"contracts/fraud-detector/libs/rlp/RLPReader.sol\":6049:6516  function toUint(RLPItem memory item) internal pure returns (uint256) {... */\n      swap1\n      jump\t// out\n        /* \"contracts/fraud-detector/libs/rlp/RLPReader.sol\":6266:6486  assembly {... */\n    tag_373:\n      0x20\n      sub\n      0x0100\n      exp\n      swap1\n      div\n        /* \"contracts/fraud-detector/libs/rlp/RLPReader.sol\":6049:6516  function toUint(RLPItem memory item) internal pure returns (uint256) {... */\n      swap1\n      jump\t// out\n        /* \"contracts/fraud-detector/libs/rlp/RLPReader.sol\":6136:6166  item.len > 0 && item.len <= 33 */\n    tag_368:\n        /* \"contracts/fraud-detector/libs/rlp/RLPReader.sol\":6164:6166  33 */\n      0x21\n        /* \"contracts/fraud-detector/libs/rlp/RLPReader.sol\":6152:6166  item.len <= 33 */\n      swap2\n      pop\n      gt\n      iszero\n        /* \"contracts/fraud-detector/libs/rlp/RLPReader.sol\":6136:6166  item.len > 0 && item.len <= 33 */\n      0x00\n      jump(tag_369)\n        /* \"contracts/fraud-detector/libs/rlp/RLPReader.sol\":3569:3890  function isList(RLPItem memory item) internal pure returns (bool) {... */\n    tag_42:\n        /* \"contracts/fraud-detector/libs/rlp/Helper.sol\":167:7562  contract Helper {... */\n      dup1\n      mload\n        /* \"contracts/fraud-detector/libs/rlp/RLPReader.sol\":3649:3662  item.len == 0 */\n      iszero\n        /* \"contracts/fraud-detector/libs/rlp/RLPReader.sol\":3645:3676  if (item.len == 0) return false */\n      tag_375\n      jumpi\n        /* \"contracts/fraud-detector/libs/rlp/RLPReader.sol\":3725:3736  item.memPtr */\n      0x20\n        /* \"contracts/fraud-detector/libs/rlp/RLPReader.sol\":328:332  0xc0 */\n      0xc0\n        /* \"contracts/fraud-detector/libs/rlp/RLPReader.sol\":3725:3736  item.memPtr */\n      swap2\n      add\n        /* \"contracts/fraud-detector/libs/rlp/Helper.sol\":167:7562  contract Helper {... */\n      mload\n        /* \"contracts/fraud-detector/libs/rlp/RLPReader.sol\":3746:3810  assembly {... */\n      mload\n      0x00\n      byte\n        /* \"contracts/fraud-detector/libs/rlp/RLPReader.sol\":3824:3848  byte0 < LIST_SHORT_START */\n      lt\n        /* \"contracts/fraud-detector/libs/rlp/RLPReader.sol\":3820:3862  if (byte0 < LIST_SHORT_START) return false */\n      tag_377\n      jumpi\n        /* \"contracts/fraud-detector/libs/rlp/RLPReader.sol\":3879:3883  true */\n      0x01\n        /* \"contracts/fraud-detector/libs/rlp/RLPReader.sol\":3569:3890  function isList(RLPItem memory item) internal pure returns (bool) {... */\n      swap1\n      jump\t// out\n        /* \"contracts/fraud-detector/libs/rlp/RLPReader.sol\":3820:3862  if (byte0 < LIST_SHORT_START) return false */\n    tag_377:\n      0x00\n        /* \"contracts/fraud-detector/libs/rlp/RLPReader.sol\":3850:3862  return false */\n      swap1\n      jump\t// out\n        /* \"contracts/fraud-detector/libs/rlp/RLPReader.sol\":3645:3676  if (item.len == 0) return false */\n    tag_375:\n        /* \"contracts/fraud-detector/libs/rlp/RLPReader.sol\":3664:3676  return false */\n      pop\n      0x00\n      swap1\n      jump\t// out\n        /* \"contracts/fraud-detector/libs/rlp/Helper.sol\":167:7562  contract Helper {... */\n    tag_43:\n      swap1\n      tag_379\n      tag_118\n      dup4\n      tag_4\n      jump\t// in\n    tag_379:\n      dup3\n      dup2\n      mstore\n      dup1\n      swap3\n      tag_381\n      not(0x1f)\n      swap2\n      tag_4\n      jump\t// in\n    tag_381:\n      add\n      swap1\n      0x20\n      calldatasize\n      swap2\n      add\n      calldatacopy\n      jump\t// out\n        /* \"contracts/fraud-detector/libs/rlp/RLPReader.sol\":4849:5186  function toRlpBytes(RLPItem memory item) internal pure returns (bytes memory) {... */\n    tag_44:\n        /* \"contracts/fraud-detector/libs/rlp/RLPReader.sol\":4959:4978  new bytes(item.len) */\n      tag_382\n        /* \"contracts/fraud-detector/libs/rlp/Helper.sol\":167:7562  contract Helper {... */\n      dup2\n      mload\n        /* \"contracts/fraud-detector/libs/rlp/RLPReader.sol\":4959:4978  new bytes(item.len) */\n      tag_43\n      jump\t// in\n    tag_382:\n        /* \"contracts/fraud-detector/libs/rlp/Helper.sol\":167:7562  contract Helper {... */\n      swap1\n      dup2\n      mload\n        /* \"contracts/fraud-detector/libs/rlp/RLPReader.sol\":4992:5010  result.length == 0 */\n      iszero\n        /* \"contracts/fraud-detector/libs/rlp/RLPReader.sol\":4988:5025  if (result.length == 0) return result */\n      tag_383\n      jumpi\n        /* \"contracts/fraud-detector/libs/rlp/RLPReader.sol\":5129:5140  item.memPtr */\n      dup1\n        /* \"contracts/fraud-detector/libs/rlp/RLPReader.sol\":5057:5114  assembly {... */\n      0x20\n        /* \"contracts/fraud-detector/libs/rlp/RLPReader.sol\":5147:5155  item.len */\n      tag_385\n        /* \"contracts/fraud-detector/libs/rlp/RLPReader.sol\":5129:5140  item.memPtr */\n      swap3\n      add\n        /* \"contracts/fraud-detector/libs/rlp/Helper.sol\":167:7562  contract Helper {... */\n      mload\n      swap1\n      mload\n        /* \"contracts/fraud-detector/libs/rlp/RLPReader.sol\":5057:5114  assembly {... */\n      swap1\n      dup4\n      0x20\n      add\n        /* \"contracts/fraud-detector/libs/rlp/RLPReader.sol\":5147:5155  item.len */\n      swap1\n      tag_60\n      jump\t// in\n    tag_385:\n        /* \"contracts/fraud-detector/libs/rlp/RLPReader.sol\":4849:5186  function toRlpBytes(RLPItem memory item) internal pure returns (bytes memory) {... */\n      swap1\n      jump\t// out\n        /* \"contracts/fraud-detector/libs/rlp/RLPReader.sol\":4988:5025  if (result.length == 0) return result */\n    tag_383:\n        /* \"contracts/fraud-detector/libs/rlp/RLPReader.sol\":5012:5025  return result */\n      pop\n      swap1\n      jump\t// out\n        /* \"contracts/fraud-detector/libs/rlp/RLPReader.sol\":6857:7236  function toBytes(RLPItem memory item) internal pure returns (bytes memory) {... */\n    tag_45:\n        /* \"contracts/fraud-detector/libs/rlp/Helper.sol\":167:7562  contract Helper {... */\n      dup1\n      mload\n        /* \"contracts/fraud-detector/libs/rlp/RLPReader.sol\":6950:6962  item.len > 0 */\n      iszero\n        /* \"contracts/fraud-detector/libs/rlp/Helper.sol\":167:7562  contract Helper {... */\n      tag_119\n      jumpi\n        /* \"contracts/fraud-detector/libs/rlp/RLPReader.sol\":7006:7027  payloadLocation(item) */\n      tag_388\n        /* \"contracts/fraud-detector/libs/rlp/RLPReader.sol\":7202:7205  len */\n      tag_385\n        /* \"contracts/fraud-detector/libs/rlp/RLPReader.sol\":7006:7027  payloadLocation(item) */\n      swap2\n      tag_52\n      jump\t// in\n    tag_388:\n        /* \"contracts/fraud-detector/libs/rlp/RLPReader.sol\":7059:7073  new bytes(len) */\n      tag_390\n      dup2\n      swap4\n      swap3\n      swap4\n      tag_43\n      jump\t// in\n    tag_390:\n        /* \"contracts/fraud-detector/libs/rlp/RLPReader.sol\":7109:7170  assembly {... */\n      swap3\n      dup4\n      0x20\n      add\n        /* \"contracts/fraud-detector/libs/rlp/RLPReader.sol\":7202:7205  len */\n      swap1\n      tag_60\n      jump\t// in\n        /* \"contracts/fraud-detector/libs/rlp/Helper.sol\":167:7562  contract Helper {... */\n    tag_46:\n      not(0xbf)\n      dup2\n      add\n      swap2\n      swap1\n      dup3\n      gt\n      tag_160\n      jumpi\n      jump\t// out\n    tag_47:\n      not(0x7f)\n      dup2\n      add\n      swap2\n      swap1\n      dup3\n      gt\n      tag_160\n      jumpi\n      jump\t// out\n    tag_48:\n      0x20\n      sub\n      swap1\n      0x20\n      dup3\n      gt\n      tag_160\n      jumpi\n      jump\t// out\n    tag_49:\n      not(0x00)\n      dup2\n      add\n      swap2\n      swap1\n      dup3\n      gt\n      tag_160\n      jumpi\n      jump\t// out\n    tag_50:\n      not(0xf6)\n      dup2\n      add\n      swap2\n      swap1\n      dup3\n      gt\n      tag_160\n      jumpi\n      jump\t// out\n    tag_51:\n      not(0xb6)\n      dup2\n      add\n      swap2\n      swap1\n      dup3\n      gt\n      tag_160\n      jumpi\n      jump\t// out\n        /* \"contracts/fraud-detector/libs/rlp/RLPReader.sol\":2390:2671  function payloadLocation(RLPItem memory item) internal pure returns (uint256, uint256) {... */\n    tag_52:\n      swap1\n        /* \"contracts/fraud-detector/libs/rlp/RLPReader.sol\":2519:2530  item.memPtr */\n      0x20\n      dup3\n      add\n        /* \"contracts/fraud-detector/libs/rlp/Helper.sol\":167:7562  contract Helper {... */\n      swap2\n        /* \"contracts/fraud-detector/libs/rlp/RLPReader.sol\":2504:2531  _payloadOffset(item.memPtr) */\n      tag_403\n        /* \"contracts/fraud-detector/libs/rlp/Helper.sol\":167:7562  contract Helper {... */\n      dup4\n      mload\n        /* \"contracts/fraud-detector/libs/rlp/RLPReader.sol\":2504:2531  _payloadOffset(item.memPtr) */\n      tag_58\n      jump\t// in\n    tag_403:\n        /* \"contracts/fraud-detector/libs/rlp/Helper.sol\":167:7562  contract Helper {... */\n      swap3\n      mload\n      swap1\n      dup4\n      dup3\n      add\n      dup1\n      swap3\n      gt\n      tag_160\n      jumpi\n      mload\n      swap3\n      dup4\n      sub\n      swap3\n      dup4\n      gt\n      tag_160\n      jumpi\n        /* \"contracts/fraud-detector/libs/rlp/RLPReader.sol\":2644:2664  return (memPtr, len) */\n      swap2\n        /* \"contracts/fraud-detector/libs/rlp/RLPReader.sol\":2390:2671  function payloadLocation(RLPItem memory item) internal pure returns (uint256, uint256) {... */\n      swap1\n      jump\t// out\n        /* \"contracts/fraud-detector/libs/rlp/RLPReader.sol\":1895:2114  function iterator(RLPItem memory self) internal pure returns (Iterator memory) {... */\n    tag_53:\n      0x00\n        /* \"contracts/fraud-detector/libs/rlp/Helper.sol\":167:7562  contract Helper {... */\n      0x20\n      tag_408\n      tag_2\n      jump\t// in\n    tag_408:\n      tag_409\n      tag_2\n      jump\t// in\n    tag_409:\n      dup4\n      dup2\n      mstore\n      dup4\n      dup4\n      dup3\n      add\n      mstore\n      dup2\n      mstore\n      add\n      mstore\n        /* \"contracts/fraud-detector/libs/rlp/RLPReader.sol\":1992:2004  isList(self) */\n      tag_410\n      dup2\n      tag_42\n      jump\t// in\n    tag_410:\n        /* \"contracts/fraud-detector/libs/rlp/Helper.sol\":167:7562  contract Helper {... */\n      iszero\n      tag_119\n      jumpi\n      0x20\n        /* \"contracts/fraud-detector/libs/rlp/RLPReader.sol\":2030:2041  self.memPtr */\n      dup2\n      add\n        /* \"contracts/fraud-detector/libs/rlp/Helper.sol\":167:7562  contract Helper {... */\n      mload\n        /* \"contracts/fraud-detector/libs/rlp/RLPReader.sol\":2044:2071  _payloadOffset(self.memPtr) */\n      tag_413\n      dup2\n      tag_58\n      jump\t// in\n    tag_413:\n        /* \"contracts/fraud-detector/libs/rlp/Helper.sol\":167:7562  contract Helper {... */\n      dup2\n      add\n      dup1\n      swap2\n      gt\n      tag_160\n      jumpi\n      tag_416\n      tag_2\n      jump\t// in\n    tag_416:\n      swap2\n      dup3\n      mstore\n      0x20\n        /* \"contracts/fraud-detector/libs/rlp/RLPReader.sol\":2088:2107  Iterator(self, ptr) */\n      dup3\n      add\n        /* \"contracts/fraud-detector/libs/rlp/Helper.sol\":167:7562  contract Helper {... */\n      mstore\n        /* \"contracts/fraud-detector/libs/rlp/RLPReader.sol\":1895:2114  function iterator(RLPItem memory self) internal pure returns (Iterator memory) {... */\n      swap1\n      jump\t// out\n        /* \"contracts/fraud-detector/libs/rlp/RLPReader.sol\":833:1114  function next(Iterator memory self) internal pure returns (RLPItem memory) {... */\n    tag_54:\n      0x00\n        /* \"contracts/fraud-detector/libs/rlp/Helper.sol\":167:7562  contract Helper {... */\n      0x20\n      tag_417\n      tag_2\n      jump\t// in\n    tag_417:\n      dup3\n      dup2\n      mstore\n      add\n      mstore\n        /* \"contracts/fraud-detector/libs/rlp/RLPReader.sol\":926:939  hasNext(self) */\n      tag_418\n      dup2\n      tag_55\n      jump\t// in\n    tag_418:\n        /* \"contracts/fraud-detector/libs/rlp/Helper.sol\":167:7562  contract Helper {... */\n      iszero\n      tag_119\n      jumpi\n      0x20\n        /* \"contracts/fraud-detector/libs/rlp/RLPReader.sol\":965:977  self.nextPtr */\n      add\n        /* \"contracts/fraud-detector/libs/rlp/Helper.sol\":167:7562  contract Helper {... */\n      dup1\n      mload\n        /* \"contracts/fraud-detector/libs/rlp/RLPReader.sol\":1008:1024  _itemLength(ptr) */\n      tag_421\n      dup2\n      tag_56\n      jump\t// in\n    tag_421:\n        /* \"contracts/fraud-detector/libs/rlp/Helper.sol\":167:7562  contract Helper {... */\n      swap2\n      dup3\n      dup3\n      add\n      swap1\n      dup2\n      dup4\n      gt\n      tag_160\n      jumpi\n      mstore\n      tag_416\n      tag_2\n      jump\t// in\n        /* \"contracts/fraud-detector/libs/rlp/RLPReader.sol\":1285:1455  function hasNext(Iterator memory self) internal pure returns (bool) {... */\n    tag_55:\n        /* \"contracts/fraud-detector/libs/rlp/RLPReader.sol\":1411:1423  self.nextPtr */\n      0x20\n        /* \"contracts/fraud-detector/libs/rlp/RLPReader.sol\":1385:1394  self.item */\n      dup2\n      mload\n        /* \"contracts/fraud-detector/libs/rlp/RLPReader.sol\":1411:1423  self.nextPtr */\n      swap2\n      add\n        /* \"contracts/fraud-detector/libs/rlp/Helper.sol\":167:7562  contract Helper {... */\n      mload\n        /* \"contracts/fraud-detector/libs/rlp/RLPReader.sol\":1411:1423  self.nextPtr */\n      0x20\n        /* \"contracts/fraud-detector/libs/rlp/RLPReader.sol\":1426:1437  item.memPtr */\n      dup3\n      add\n        /* \"contracts/fraud-detector/libs/rlp/Helper.sol\":167:7562  contract Helper {... */\n      mload\n      swap2\n      mload\n      dup3\n      add\n      dup1\n      swap3\n      gt\n      tag_160\n      jumpi\n        /* \"contracts/fraud-detector/libs/rlp/RLPReader.sol\":1411:1448  self.nextPtr < item.memPtr + item.len */\n      lt\n        /* \"contracts/fraud-detector/libs/rlp/RLPReader.sol\":1285:1455  function hasNext(Iterator memory self) internal pure returns (bool) {... */\n      swap1\n      jump\t// out\n        /* \"contracts/fraud-detector/libs/rlp/Helper.sol\":6327:7560  function _itemLength(uint memPtr) private pure returns (uint) {... */\n    tag_56:\n        /* \"contracts/fraud-detector/libs/rlp/Helper.sol\":6438:6500  assembly {... */\n      dup1\n      mload\n      0x00\n      byte\n      swap1\n        /* \"contracts/fraud-detector/libs/rlp/RLPReader.sol\":239:243  0x80 */\n      0x80\n        /* \"contracts/fraud-detector/libs/rlp/Helper.sol\":6513:6539  byte0 < STRING_SHORT_START */\n      dup3\n      lt\n        /* \"contracts/fraud-detector/libs/rlp/RLPReader.sol\":239:243  0x80 */\n      iszero\n      tag_427\n      jumpi\n        /* \"contracts/fraud-detector/libs/rlp/Helper.sol\":6552:6563  itemLen = 1 */\n      pop\n      pop\n        /* \"contracts/fraud-detector/libs/rlp/Helper.sol\":6562:6563  1 */\n      0x01\n        /* \"contracts/fraud-detector/libs/rlp/Helper.sol\":6327:7560  function _itemLength(uint memPtr) private pure returns (uint) {... */\n      swap1\n      jump\t// out\n        /* \"contracts/fraud-detector/libs/rlp/Helper.sol\":6509:7530  if (byte0 < STRING_SHORT_START)... */\n    tag_427:\n        /* \"contracts/fraud-detector/libs/rlp/Helper.sol\":6225:6229  0xb8 */\n      0xb8\n        /* \"contracts/fraud-detector/libs/rlp/Helper.sol\":6582:6607  byte0 < STRING_LONG_START */\n      dup3\n      lt\n        /* \"contracts/fraud-detector/libs/rlp/Helper.sol\":6225:6229  0xb8 */\n      iszero\n      tag_430\n      jumpi\n        /* \"contracts/fraud-detector/libs/rlp/Helper.sol\":6630:6656  byte0 - STRING_SHORT_START */\n      pop\n      tag_432\n        /* \"contracts/fraud-detector/libs/rlp/Helper.sol\":6630:6660  byte0 - STRING_SHORT_START + 1 */\n      tag_385\n        /* \"contracts/fraud-detector/libs/rlp/Helper.sol\":6630:6656  byte0 - STRING_SHORT_START */\n      swap2\n      tag_47\n      jump\t// in\n    tag_432:\n        /* \"contracts/fraud-detector/libs/rlp/Helper.sol\":6630:6660  byte0 - STRING_SHORT_START + 1 */\n      tag_37\n      jump\t// in\n        /* \"contracts/fraud-detector/libs/rlp/Helper.sol\":6578:7530  if (byte0 < STRING_LONG_START)... */\n    tag_430:\n        /* \"contracts/fraud-detector/libs/rlp/Helper.sol\":6679:6703  byte0 < LIST_SHORT_START */\n      swap1\n        /* \"contracts/fraud-detector/libs/rlp/RLPReader.sol\":328:332  0xc0 */\n      0xc0\n        /* \"contracts/fraud-detector/libs/rlp/Helper.sol\":6679:6703  byte0 < LIST_SHORT_START */\n      dup2\n      lt\n        /* \"contracts/fraud-detector/libs/rlp/RLPReader.sol\":328:332  0xc0 */\n      iszero\n      tag_435\n      jumpi\n        /* \"contracts/fraud-detector/libs/rlp/Helper.sol\":6718:7097  assembly {... */\n      not(0xb5)\n      swap2\n      0x01\n      0xb7\n      dup4\n      0x20\n      sub\n      add\n      0x0100\n      exp\n      swap2\n      add\n      mload\n      div\n      add\n      add\n        /* \"contracts/fraud-detector/libs/rlp/RLPReader.sol\":4849:5186  function toRlpBytes(RLPItem memory item) internal pure returns (bytes memory) {... */\n      swap1\n      jump\t// out\n        /* \"contracts/fraud-detector/libs/rlp/Helper.sol\":6675:7530  if (byte0 < LIST_SHORT_START) {... */\n    tag_435:\n        /* \"contracts/fraud-detector/libs/rlp/Helper.sol\":7124:7147  byte0 < LIST_LONG_START */\n      swap1\n        /* \"contracts/fraud-detector/libs/rlp/Helper.sol\":6317:6321  0xf8 */\n      0xf8\n        /* \"contracts/fraud-detector/libs/rlp/Helper.sol\":7124:7147  byte0 < LIST_LONG_START */\n      dup3\n      lt\n        /* \"contracts/fraud-detector/libs/rlp/Helper.sol\":6317:6321  0xf8 */\n      iszero\n      tag_438\n      jumpi\n        /* \"contracts/fraud-detector/libs/rlp/Helper.sol\":7172:7196  byte0 - LIST_SHORT_START */\n      pop\n      tag_432\n        /* \"contracts/fraud-detector/libs/rlp/Helper.sol\":7172:7200  byte0 - LIST_SHORT_START + 1 */\n      tag_385\n        /* \"contracts/fraud-detector/libs/rlp/Helper.sol\":7172:7196  byte0 - LIST_SHORT_START */\n      swap2\n      tag_46\n      jump\t// in\n        /* \"contracts/fraud-detector/libs/rlp/Helper.sol\":7120:7530  if (byte0 < LIST_LONG_START) {... */\n    tag_438:\n        /* \"contracts/fraud-detector/libs/rlp/Helper.sol\":7237:7521  assembly {... */\n      0x01\n      add\n      mload\n      0x20\n      dup3\n      swap1\n      sub\n      0xf7\n      add\n      0x0100\n      exp\n      swap1\n      div\n      add\n      not(0xf5)\n      add\n        /* \"contracts/fraud-detector/libs/rlp/RLPReader.sol\":4849:5186  function toRlpBytes(RLPItem memory item) internal pure returns (bytes memory) {... */\n      swap1\n      jump\t// out\n        /* \"contracts/fraud-detector/libs/rlp/RLPReader.sol\":7344:7768  function numItems(RLPItem memory item) private pure returns (uint256) {... */\n    tag_57:\n        /* \"contracts/fraud-detector/libs/rlp/Helper.sol\":167:7562  contract Helper {... */\n      dup1\n      mload\n        /* \"contracts/fraud-detector/libs/rlp/RLPReader.sol\":7428:7441  item.len == 0 */\n      iszero\n        /* \"contracts/fraud-detector/libs/rlp/RLPReader.sol\":7424:7451  if (item.len == 0) return 0 */\n      tag_375\n      jumpi\n      0x00\n        /* \"contracts/fraud-detector/libs/rlp/RLPReader.sol\":7507:7518  item.memPtr */\n      swap1\n      0x20\n      dup2\n      add\n        /* \"contracts/fraud-detector/libs/rlp/Helper.sol\":167:7562  contract Helper {... */\n      swap1\n      dup2\n      mload\n        /* \"contracts/fraud-detector/libs/rlp/RLPReader.sol\":7521:7548  _payloadOffset(item.memPtr) */\n      tag_445\n      dup2\n      tag_58\n      jump\t// in\n    tag_445:\n        /* \"contracts/fraud-detector/libs/rlp/Helper.sol\":167:7562  contract Helper {... */\n      dup2\n      add\n      dup1\n      swap2\n      gt\n      tag_160\n      jumpi\n      swap2\n      mload\n      swap1\n      mload\n      dup2\n      add\n      dup1\n      swap2\n      gt\n      tag_160\n      jumpi\n        /* \"contracts/fraud-detector/libs/rlp/RLPReader.sol\":7607:7739  while (currPtr < endPtr) {... */\n      swap2\n      swap1\n        /* \"contracts/fraud-detector/libs/rlp/RLPReader.sol\":7614:7630  currPtr < endPtr */\n    tag_450:\n      dup3\n      dup2\n      lt\n      tag_451\n      jumpi\n        /* \"contracts/fraud-detector/libs/rlp/RLPReader.sol\":7749:7761  return count */\n      pop\n      swap1\n      pop\n        /* \"contracts/fraud-detector/libs/rlp/RLPReader.sol\":7344:7768  function numItems(RLPItem memory item) private pure returns (uint256) {... */\n      swap1\n      jump\t// out\n        /* \"contracts/fraud-detector/libs/rlp/RLPReader.sol\":7607:7739  while (currPtr < endPtr) {... */\n    tag_451:\n        /* \"contracts/fraud-detector/libs/rlp/RLPReader.sol\":7666:7686  _itemLength(currPtr) */\n      tag_453\n      dup2\n      tag_56\n      jump\t// in\n    tag_453:\n        /* \"contracts/fraud-detector/libs/rlp/Helper.sol\":167:7562  contract Helper {... */\n      dup2\n      add\n      dup1\n      swap2\n      gt\n      tag_160\n      jumpi\n        /* \"contracts/fraud-detector/libs/rlp/RLPReader.sol\":7721:7728  count++ */\n      tag_456\n        /* \"contracts/fraud-detector/libs/rlp/RLPReader.sol\":7646:7686  currPtr = currPtr + _itemLength(currPtr) */\n      swap1\n        /* \"contracts/fraud-detector/libs/rlp/RLPReader.sol\":7721:7728  count++ */\n      swap2\n      tag_32\n      jump\t// in\n    tag_456:\n        /* \"contracts/fraud-detector/libs/rlp/RLPReader.sol\":7607:7739  while (currPtr < endPtr) {... */\n      swap1\n      jump(tag_450)\n        /* \"contracts/fraud-detector/libs/rlp/RLPReader.sol\":9132:9713  function _payloadOffset(uint256 memPtr) private pure returns (uint256) {... */\n    tag_58:\n        /* \"contracts/fraud-detector/libs/rlp/RLPReader.sol\":9236:9300  assembly {... */\n      mload\n      0x00\n      byte\n        /* \"contracts/fraud-detector/libs/rlp/RLPReader.sol\":239:243  0x80 */\n      0x80\n        /* \"contracts/fraud-detector/libs/rlp/RLPReader.sol\":9314:9340  byte0 < STRING_SHORT_START */\n      dup2\n      lt\n        /* \"contracts/fraud-detector/libs/rlp/RLPReader.sol\":239:243  0x80 */\n      iszero\n      tag_457\n      jumpi\n        /* \"contracts/fraud-detector/libs/rlp/RLPReader.sol\":9356:9364  return 0 */\n      pop\n      0x00\n      swap1\n      jump\t// out\n        /* \"contracts/fraud-detector/libs/rlp/RLPReader.sol\":9310:9707  if (byte0 < STRING_SHORT_START) {... */\n    tag_457:\n        /* \"contracts/fraud-detector/libs/rlp/Helper.sol\":6225:6229  0xb8 */\n      0xb8\n        /* \"contracts/fraud-detector/libs/rlp/RLPReader.sol\":9385:9410  byte0 < STRING_LONG_START */\n      dup2\n      lt\n        /* \"contracts/fraud-detector/libs/rlp/RLPReader.sol\":9385:9468  byte0 < STRING_LONG_START || (byte0 >= LIST_SHORT_START && byte0 < LIST_LONG_START) */\n      dup1\n      iszero\n      tag_459\n      jumpi\n        /* \"contracts/fraud-detector/libs/rlp/RLPReader.sol\":9310:9707  if (byte0 < STRING_SHORT_START) {... */\n    tag_460:\n        /* \"contracts/fraud-detector/libs/rlp/RLPReader.sol\":9381:9707  if (byte0 < STRING_LONG_START || (byte0 >= LIST_SHORT_START && byte0 < LIST_LONG_START)) {... */\n      iszero\n      tag_461\n      jumpi\n        /* \"contracts/fraud-detector/libs/rlp/RLPReader.sol\":9484:9492  return 1 */\n      pop\n        /* \"contracts/fraud-detector/libs/rlp/RLPReader.sol\":9491:9492  1 */\n      0x01\n        /* \"contracts/fraud-detector/libs/rlp/RLPReader.sol\":9484:9492  return 1 */\n      swap1\n      jump\t// out\n        /* \"contracts/fraud-detector/libs/rlp/RLPReader.sol\":9381:9707  if (byte0 < STRING_LONG_START || (byte0 >= LIST_SHORT_START && byte0 < LIST_LONG_START)) {... */\n    tag_461:\n        /* \"contracts/fraud-detector/libs/rlp/RLPReader.sol\":328:332  0xc0 */\n      0xc0\n        /* \"contracts/fraud-detector/libs/rlp/RLPReader.sol\":9513:9537  byte0 < LIST_SHORT_START */\n      dup2\n      lt\n        /* \"contracts/fraud-detector/libs/rlp/RLPReader.sol\":328:332  0xc0 */\n      iszero\n      tag_463\n      jumpi\n        /* \"contracts/fraud-detector/libs/rlp/RLPReader.sol\":9590:9621  byte0 - (STRING_LONG_START - 1) */\n      tag_432\n        /* \"contracts/fraud-detector/libs/rlp/RLPReader.sol\":9590:9625  byte0 - (STRING_LONG_START - 1) + 1 */\n      tag_385\n        /* \"contracts/fraud-detector/libs/rlp/RLPReader.sol\":9590:9621  byte0 - (STRING_LONG_START - 1) */\n      swap2\n      tag_51\n      jump\t// in\n        /* \"contracts/fraud-detector/libs/rlp/RLPReader.sol\":9509:9707  if (byte0 < LIST_SHORT_START) {... */\n    tag_463:\n        /* \"contracts/fraud-detector/libs/rlp/RLPReader.sol\":9663:9692  byte0 - (LIST_LONG_START - 1) */\n      tag_432\n        /* \"contracts/fraud-detector/libs/rlp/RLPReader.sol\":9663:9696  byte0 - (LIST_LONG_START - 1) + 1 */\n      tag_385\n        /* \"contracts/fraud-detector/libs/rlp/RLPReader.sol\":9663:9692  byte0 - (LIST_LONG_START - 1) */\n      swap2\n      tag_50\n      jump\t// in\n        /* \"contracts/fraud-detector/libs/rlp/RLPReader.sol\":9385:9468  byte0 < STRING_LONG_START || (byte0 >= LIST_SHORT_START && byte0 < LIST_LONG_START) */\n    tag_459:\n        /* \"contracts/fraud-detector/libs/rlp/RLPReader.sol\":9415:9440  byte0 >= LIST_SHORT_START */\n      pop\n        /* \"contracts/fraud-detector/libs/rlp/RLPReader.sol\":328:332  0xc0 */\n      0xc0\n        /* \"contracts/fraud-detector/libs/rlp/RLPReader.sol\":9415:9440  byte0 >= LIST_SHORT_START */\n      dup2\n      lt\n      iszero\n        /* \"contracts/fraud-detector/libs/rlp/RLPReader.sol\":9415:9467  byte0 >= LIST_SHORT_START && byte0 < LIST_LONG_START */\n      dup1\n      iszero\n        /* \"contracts/fraud-detector/libs/rlp/RLPReader.sol\":9385:9468  byte0 < STRING_LONG_START || (byte0 >= LIST_SHORT_START && byte0 < LIST_LONG_START) */\n      tag_460\n        /* \"contracts/fraud-detector/libs/rlp/RLPReader.sol\":9415:9467  byte0 >= LIST_SHORT_START && byte0 < LIST_LONG_START */\n      jumpi\n        /* \"contracts/fraud-detector/libs/rlp/RLPReader.sol\":9444:9467  byte0 < LIST_LONG_START */\n      pop\n        /* \"contracts/fraud-detector/libs/rlp/Helper.sol\":6317:6321  0xf8 */\n      0xf8\n        /* \"contracts/fraud-detector/libs/rlp/RLPReader.sol\":9444:9467  byte0 < LIST_LONG_START */\n      dup2\n      lt\n        /* \"contracts/fraud-detector/libs/rlp/RLPReader.sol\":9385:9468  byte0 < STRING_LONG_START || (byte0 >= LIST_SHORT_START && byte0 < LIST_LONG_START) */\n      jump(tag_460)\n        /* \"contracts/fraud-detector/libs/rlp/RLPReader.sol\":408:410  32 */\n    tag_59:\n      0x1f\n      dup2\n      gt\n      tag_160\n      jumpi\n      0x0100\n      exp\n      swap1\n      jump\t// out\n        /* \"contracts/fraud-detector/libs/rlp/RLPReader.sol\":9871:10639  function copy(uint256 src, uint256 dest, uint256 len) private pure {... */\n    tag_60:\n      swap3\n      swap1\n      swap2\n      swap3\n        /* \"contracts/fraud-detector/libs/rlp/RLPReader.sol\":9952:9960  len == 0 */\n      dup4\n      iszero\n        /* \"contracts/fraud-detector/libs/rlp/RLPReader.sol\":9948:9969  if (len == 0) return; */\n      tag_473\n      jumpi\n        /* \"contracts/fraud-detector/libs/rlp/RLPReader.sol\":10026:10220  for (; len >= WORD_SIZE; len -= WORD_SIZE) {... */\n      swap3\n      swap2\n        /* \"contracts/fraud-detector/libs/rlp/RLPReader.sol\":10051:10067  len -= WORD_SIZE */\n    tag_475:\n        /* \"contracts/fraud-detector/libs/rlp/RLPReader.sol\":408:410  32 */\n      0x20\n        /* \"contracts/fraud-detector/libs/rlp/RLPReader.sol\":10033:10049  len >= WORD_SIZE */\n      swap4\n      dup5\n      dup5\n      lt\n      tag_476\n      jumpi\n        /* \"contracts/fraud-detector/libs/rlp/RLPReader.sol\":10083:10148  assembly {... */\n      dup1\n      mload\n      dup3\n      mstore\n        /* \"contracts/fraud-detector/libs/rlp/Helper.sol\":167:7562  contract Helper {... */\n      dup5\n      dup2\n      add\n      dup1\n      swap2\n      gt\n      tag_160\n      jumpi\n      swap4\n      dup2\n      add\n      dup1\n      swap2\n      gt\n      tag_160\n      jumpi\n        /* \"contracts/fraud-detector/libs/rlp/RLPReader.sol\":10051:10067  len -= WORD_SIZE */\n      swap2\n      not(0x1f)\n        /* \"contracts/fraud-detector/libs/rlp/Helper.sol\":167:7562  contract Helper {... */\n      dup2\n      add\n      swap1\n      dup2\n      gt\n      tag_160\n      jumpi\n        /* \"contracts/fraud-detector/libs/rlp/RLPReader.sol\":10026:10220  for (; len >= WORD_SIZE; len -= WORD_SIZE) {... */\n      swap2\n      jump(tag_475)\n        /* \"contracts/fraud-detector/libs/rlp/RLPReader.sol\":10033:10049  len >= WORD_SIZE */\n    tag_476:\n      swap2\n      swap4\n      pop\n      swap2\n        /* \"contracts/fraud-detector/libs/rlp/RLPReader.sol\":10234:10241  len > 0 */\n      dup1\n        /* \"contracts/fraud-detector/libs/rlp/RLPReader.sol\":10230:10633  if (len > 0) {... */\n      tag_484\n      jumpi\n        /* \"contracts/fraud-detector/libs/rlp/RLPReader.sol\":9871:10639  function copy(uint256 src, uint256 dest, uint256 len) private pure {... */\n      pop\n      pop\n      pop\n      jump\t// out\n        /* \"contracts/fraud-detector/libs/rlp/RLPReader.sol\":10230:10633  if (len > 0) {... */\n    tag_484:\n        /* \"contracts/fraud-detector/libs/rlp/RLPReader.sol\":10356:10378  256**(WORD_SIZE - len) */\n      tag_486\n        /* \"contracts/fraud-detector/libs/rlp/RLPReader.sol\":10362:10377  WORD_SIZE - len */\n      tag_487\n        /* \"contracts/fraud-detector/libs/rlp/RLPReader.sol\":10356:10382  256**(WORD_SIZE - len) - 1 */\n      tag_488\n        /* \"contracts/fraud-detector/libs/rlp/RLPReader.sol\":10362:10377  WORD_SIZE - len */\n      swap3\n      tag_48\n      jump\t// in\n    tag_487:\n        /* \"contracts/fraud-detector/libs/rlp/RLPReader.sol\":10356:10378  256**(WORD_SIZE - len) */\n      tag_59\n      jump\t// in\n    tag_486:\n        /* \"contracts/fraud-detector/libs/rlp/RLPReader.sol\":10356:10382  256**(WORD_SIZE - len) - 1 */\n      tag_49\n      jump\t// in\n    tag_488:\n        /* \"contracts/fraud-detector/libs/rlp/RLPReader.sol\":10396:10623  assembly {... */\n      swap1\n      mload\n      dup3\n      mload\n      dup3\n      and\n      swap2\n      not\n      and\n      or\n      swap1\n      mstore\n        /* \"contracts/fraud-detector/libs/rlp/RLPReader.sol\":9871:10639  function copy(uint256 src, uint256 dest, uint256 len) private pure {... */\n      jump\t// out\n        /* \"contracts/fraud-detector/libs/rlp/RLPReader.sol\":9948:9969  if (len == 0) return; */\n    tag_473:\n        /* \"contracts/fraud-detector/libs/rlp/RLPReader.sol\":9962:9969  return; */\n      pop\n      swap2\n      pop\n      pop\n      jump\t// out\n\n    auxdata: 0xa26469706673582212203f4c246152cd481e1d348ee5ff48cfcc569a52f895551f27d733481bb04ea5d964736f6c63430008180033\n}\n",
				"bytecode": {
					"linkReferences": {},
					"object": "6080806040523461001657610e2b908161001b8239f35b5f80fdfe60806040526004361015610011575f80fd5b5f3560e01c806304ba34271461015f578063059a97fb1461015a57806315943cb61461015557806319921bd01461015057806320f918491461014b5780632d8888691461014657806333c82d181461014157806339614e4f1461010a57806345fce4f91461013c57806364ea19291461013757806374c4c4941461013257806376193f8c1461012d5780638109672f146101285780638529d57614610123578063aac195451461011e578063d03ca5a314610119578063dd208ea114610114578063e7617bf81461010f578063e79fbcec1461010a578063eb4eb372146101055763f29cddc014610100575f80fd5b61080c565b6107e7565b610447565b6105ee565b6105d8565b6105c2565b6105a6565b61058b565b610569565b610506565b6104e3565b610499565b610463565b610413565b6103a8565b61036e565b610353565b6102f8565b610270565b610246565b634e487b7160e01b5f52604160045260245ffd5b604051906040820182811067ffffffffffffffff82111761019857604052565b610164565b6040519190601f01601f1916820167ffffffffffffffff81118382101761019857604052565b67ffffffffffffffff811161019857601f01601f191660200190565b60206003198201126102425760043567ffffffffffffffff811161024257816023820112156102425780600401359061021f61021a836101c3565b61019d565b928284526024838301011161024257815f92602460209301838601378301015290565b5f80fd5b3461024257602061026661026161025c366101df565b610896565b6108bf565b6040519015158152f35b346102425761028961028461025c366101df565b610926565b61029b6102958261082f565b516109e8565b6102ad6102a78361083c565b516108bf565b8251600210156102e4576102c5606080940151610a07565b604080516001600160a01b039094168452911515602084015290820152f35b634e487b7160e01b5f52603260045260245ffd5b3461024257604061031f61031961031461028461025c366101df565b61082f565b51610926565b61033d6103376103316102958461082f565b9261083c565b51610a07565b82516001600160a01b0390921682526020820152f35b3461024257602061026661036961025c366101df565b610a49565b346102425761037f61025c366101df565b60218151036102425760200151600181018091116103a35760209051604051908152f35b610860565b346102425760206103c36103be61025c366101df565b6109e8565b6040516001600160a01b039091168152f35b91908251928382525f5b8481106103ff575050825f602080949584010152601f8019910116010190565b6020818301810151848301820152016103df565b346102425761044361042f61042a61025c366101df565b610a95565b6040519182916020835260208301906103d5565b0390f35b346102425761044361042f61045e61025c366101df565b610ac4565b3461024257606061047661025c366101df565b602061048182610b46565b91909201519060405192835260208301526040820152f35b346102425760406104b561031961031461028461025c366101df565b6104d56104c76104cd6104c78461082f565b51610b46565b90209261083c565b902082519182526020820152f35b346102425761044361042f61050061031461028461025c366101df565b51610a95565b346102425761051f61051a61025c366101df565b610b72565b61052b61051a82610bc9565b61054061053a61045e83610bc9565b92610c0a565b6102425761054d90610c0a565b61024257610443906040519182916020835260208301906103d5565b346102425760206105838161057d366101df565b01610c25565b604051908152f35b346102425760206105836105a161025c366101df565b610a07565b346102425760206105b961025c366101df565b51604051908152f35b34610242576105d661051a61025c366101df565b005b346102425760206105b961028461025c366101df565b34610242576105fc366101df565b5f80915f915f915f805f805f925f9461061861051a5f98610896565b985f985b6106258b610c0a565b1561079f578961064b575061064561063f6105a18c610bc9565b99610874565b9861061c565b989b60018d0361066b57506106456106656105a18c610bc9565b9c610874565b9b9a60038c0361068b57506106456106856105a18c610bc9565b9b610874565b9a90600482036106ab57506106456106a56105a18c610bc9565b91610874565b9091600583036106cb57506106456106c56105a18c610bc9565b92610874565b9192600784036106eb57506106456106e56105a18c610bc9565b93610874565b92936008850361070b57506106456107056105a18c610bc9565b94610874565b93946009860361072b57506106456107256105a18c610bc9565b95610874565b9495600a870361074b57506106456107456105a18c610bc9565b96610874565b9596600b880361076b57506106456107656105a18c610bc9565b97610874565b9697600e890361078b57506106456107856105a18c610bc9565b98610874565b97610645906107998c610bc9565b50610874565b60408051918252602082018e905281019b909b5260608b015260808a015260a089015260c088015260e087015261010086015261012085015261014084015250610160919050f35b346102425760206108026107fd61025c366101df565b610b46565b9020604051908152f35b3461024257602061081f61025c366101df565b8181015190519020604051908152f35b8051156102e45760200190565b8051600110156102e45760400190565b80518210156102e45760209160051b010190565b634e487b7160e01b5f52601160045260245ffd5b5f1981146103a35760010190565b61088a610178565b905f82525f6020830152565b5f60206108a1610178565b828152015260208151916108b3610178565b92835201602082015290565b60018151036102425760200151515f1a80159081156108e8575b50156108e3575f90565b600190565b60809150145f6108d9565b67ffffffffffffffff81116101985760051b60200190565b90600182018092116103a357565b919082018092116103a357565b61092f81610a49565b156102425761093d81610caa565b61094961021a826108f3565b81815291601f19610959836108f3565b015f5b8181106109d157505061097d60208092015161097781610d0b565b90610919565b5f905b83821061098e575050505090565b6109c98161099d600193610c25565b906109a6610178565b82815281878201526109b8868a61084c565b526109c3858961084c565b50610919565b910190610980565b6020906109dc610882565b8282880101520161095c565b6015815103610242576001600160a01b0390610a0390610a07565b1690565b80518015159081610a3d575b501561024257610a2290610b46565b90519060208110610a31575090565b6020036101000a900490565b6021915011155f610a13565b805115610a6857602060c0910151515f1a10610a6457600190565b5f90565b505f90565b90610a7a61021a836101c3565b8281528092610a8b601f19916101c3565b0190602036910137565b610a9f8151610a6d565b90815115610ac057806020610abd9201519051908360200190610d78565b90565b5090565b80511561024257610ad7610abd91610b46565b610ae381939293610a6d565b928360200190610d78565b60bf198101919082116103a357565b607f198101919082116103a357565b60200390602082116103a357565b5f198101919082116103a357565b60f6198101919082116103a357565b60b6198101919082116103a357565b906020820191610b568351610d0b565b9251908382018092116103a357519283039283116103a3579190565b5f6020610b7d610178565b610b85610178565b838152838382015281520152610b9a81610a49565b15610242576020810151610bad81610d0b565b81018091116103a357610bbe610178565b918252602082015290565b5f6020610bd4610178565b8281520152610be281610c0a565b15610242576020018051610bf581610c25565b91828201908183116103a35752610bbe610178565b602081519101516020820151915182018092116103a3571090565b80515f1a906080821015610c3a575050600190565b60b8821015610c555750610c50610abd91610afd565b61090b565b9060c0811015610c795760b51991600160b783602003016101000a91015104010190565b9060f8821015610c905750610c50610abd91610aee565b60010151602082900360f7016101000a90040160f5190190565b805115610a68575f9060208101908151610cc381610d0b565b81018091116103a3579151905181018091116103a35791905b828110610ce95750905090565b610cf281610c25565b81018091116103a357610d059091610874565b90610cdc565b515f1a6080811015610d1c57505f90565b60b881108015610d53575b15610d325750600190565b60c0811015610d4757610c50610abd91610b37565b610c50610abd91610b28565b5060c08110158015610d27575060f88110610d27565b601f81116103a3576101000a90565b929091928315610def5792915b602093848410610dba57805182528481018091116103a3579381018091116103a35791601f1981019081116103a35791610d85565b9193509180610dc857505050565b610ddc610dd7610de192610b0c565b610d69565b610b1a565b905182518216911916179052565b5091505056fea26469706673582212203f4c246152cd481e1d348ee5ff48cfcc569a52f895551f27d733481bb04ea5d964736f6c63430008180033",
					"opcodes": "PUSH1 0x80 DUP1 PUSH1 0x40 MSTORE CALLVALUE PUSH2 0x16 JUMPI PUSH2 0xE2B SWAP1 DUP2 PUSH2 0x1B DUP3 CODECOPY RETURN JUMPDEST PUSH0 DUP1 REVERT INVALID PUSH1 0x80 PUSH1 0x40 MSTORE PUSH1 0x4 CALLDATASIZE LT ISZERO PUSH2 0x11 JUMPI PUSH0 DUP1 REVERT JUMPDEST PUSH0 CALLDATALOAD PUSH1 0xE0 SHR DUP1 PUSH4 0x4BA3427 EQ PUSH2 0x15F JUMPI DUP1 PUSH4 0x59A97FB EQ PUSH2 0x15A JUMPI DUP1 PUSH4 0x15943CB6 EQ PUSH2 0x155 JUMPI DUP1 PUSH4 0x19921BD0 EQ PUSH2 0x150 JUMPI DUP1 PUSH4 0x20F91849 EQ PUSH2 0x14B JUMPI DUP1 PUSH4 0x2D888869 EQ PUSH2 0x146 JUMPI DUP1 PUSH4 0x33C82D18 EQ PUSH2 0x141 JUMPI DUP1 PUSH4 0x39614E4F EQ PUSH2 0x10A JUMPI DUP1 PUSH4 0x45FCE4F9 EQ PUSH2 0x13C JUMPI DUP1 PUSH4 0x64EA1929 EQ PUSH2 0x137 JUMPI DUP1 PUSH4 0x74C4C494 EQ PUSH2 0x132 JUMPI DUP1 PUSH4 0x76193F8C EQ PUSH2 0x12D JUMPI DUP1 PUSH4 0x8109672F EQ PUSH2 0x128 JUMPI DUP1 PUSH4 0x8529D576 EQ PUSH2 0x123 JUMPI DUP1 PUSH4 0xAAC19545 EQ PUSH2 0x11E JUMPI DUP1 PUSH4 0xD03CA5A3 EQ PUSH2 0x119 JUMPI DUP1 PUSH4 0xDD208EA1 EQ PUSH2 0x114 JUMPI DUP1 PUSH4 0xE7617BF8 EQ PUSH2 0x10F JUMPI DUP1 PUSH4 0xE79FBCEC EQ PUSH2 0x10A JUMPI DUP1 PUSH4 0xEB4EB372 EQ PUSH2 0x105 JUMPI PUSH4 0xF29CDDC0 EQ PUSH2 0x100 JUMPI PUSH0 DUP1 REVERT JUMPDEST PUSH2 0x80C JUMP JUMPDEST PUSH2 0x7E7 JUMP JUMPDEST PUSH2 0x447 JUMP JUMPDEST PUSH2 0x5EE JUMP JUMPDEST PUSH2 0x5D8 JUMP JUMPDEST PUSH2 0x5C2 JUMP JUMPDEST PUSH2 0x5A6 JUMP JUMPDEST PUSH2 0x58B JUMP JUMPDEST PUSH2 0x569 JUMP JUMPDEST PUSH2 0x506 JUMP JUMPDEST PUSH2 0x4E3 JUMP JUMPDEST PUSH2 0x499 JUMP JUMPDEST PUSH2 0x463 JUMP JUMPDEST PUSH2 0x413 JUMP JUMPDEST PUSH2 0x3A8 JUMP JUMPDEST PUSH2 0x36E JUMP JUMPDEST PUSH2 0x353 JUMP JUMPDEST PUSH2 0x2F8 JUMP JUMPDEST PUSH2 0x270 JUMP JUMPDEST PUSH2 0x246 JUMP JUMPDEST PUSH4 0x4E487B71 PUSH1 0xE0 SHL PUSH0 MSTORE PUSH1 0x41 PUSH1 0x4 MSTORE PUSH1 0x24 PUSH0 REVERT JUMPDEST PUSH1 0x40 MLOAD SWAP1 PUSH1 0x40 DUP3 ADD DUP3 DUP2 LT PUSH8 0xFFFFFFFFFFFFFFFF DUP3 GT OR PUSH2 0x198 JUMPI PUSH1 0x40 MSTORE JUMP JUMPDEST PUSH2 0x164 JUMP JUMPDEST PUSH1 0x40 MLOAD SWAP2 SWAP1 PUSH1 0x1F ADD PUSH1 0x1F NOT AND DUP3 ADD PUSH8 0xFFFFFFFFFFFFFFFF DUP2 GT DUP4 DUP3 LT OR PUSH2 0x198 JUMPI PUSH1 0x40 MSTORE JUMP JUMPDEST PUSH8 0xFFFFFFFFFFFFFFFF DUP2 GT PUSH2 0x198 JUMPI PUSH1 0x1F ADD PUSH1 0x1F NOT AND PUSH1 0x20 ADD SWAP1 JUMP JUMPDEST PUSH1 0x20 PUSH1 0x3 NOT DUP3 ADD SLT PUSH2 0x242 JUMPI PUSH1 0x4 CALLDATALOAD PUSH8 0xFFFFFFFFFFFFFFFF DUP2 GT PUSH2 0x242 JUMPI DUP2 PUSH1 0x23 DUP3 ADD SLT ISZERO PUSH2 0x242 JUMPI DUP1 PUSH1 0x4 ADD CALLDATALOAD SWAP1 PUSH2 0x21F PUSH2 0x21A DUP4 PUSH2 0x1C3 JUMP JUMPDEST PUSH2 0x19D JUMP JUMPDEST SWAP3 DUP3 DUP5 MSTORE PUSH1 0x24 DUP4 DUP4 ADD ADD GT PUSH2 0x242 JUMPI DUP2 PUSH0 SWAP3 PUSH1 0x24 PUSH1 0x20 SWAP4 ADD DUP4 DUP7 ADD CALLDATACOPY DUP4 ADD ADD MSTORE SWAP1 JUMP JUMPDEST PUSH0 DUP1 REVERT JUMPDEST CALLVALUE PUSH2 0x242 JUMPI PUSH1 0x20 PUSH2 0x266 PUSH2 0x261 PUSH2 0x25C CALLDATASIZE PUSH2 0x1DF JUMP JUMPDEST PUSH2 0x896 JUMP JUMPDEST PUSH2 0x8BF JUMP JUMPDEST PUSH1 0x40 MLOAD SWAP1 ISZERO ISZERO DUP2 MSTORE RETURN JUMPDEST CALLVALUE PUSH2 0x242 JUMPI PUSH2 0x289 PUSH2 0x284 PUSH2 0x25C CALLDATASIZE PUSH2 0x1DF JUMP JUMPDEST PUSH2 0x926 JUMP JUMPDEST PUSH2 0x29B PUSH2 0x295 DUP3 PUSH2 0x82F JUMP JUMPDEST MLOAD PUSH2 0x9E8 JUMP JUMPDEST PUSH2 0x2AD PUSH2 0x2A7 DUP4 PUSH2 0x83C JUMP JUMPDEST MLOAD PUSH2 0x8BF JUMP JUMPDEST DUP3 MLOAD PUSH1 0x2 LT ISZERO PUSH2 0x2E4 JUMPI PUSH2 0x2C5 PUSH1 0x60 DUP1 SWAP5 ADD MLOAD PUSH2 0xA07 JUMP JUMPDEST PUSH1 0x40 DUP1 MLOAD PUSH1 0x1 PUSH1 0x1 PUSH1 0xA0 SHL SUB SWAP1 SWAP5 AND DUP5 MSTORE SWAP2 ISZERO ISZERO PUSH1 0x20 DUP5 ADD MSTORE SWAP1 DUP3 ADD MSTORE RETURN JUMPDEST PUSH4 0x4E487B71 PUSH1 0xE0 SHL PUSH0 MSTORE PUSH1 0x32 PUSH1 0x4 MSTORE PUSH1 0x24 PUSH0 REVERT JUMPDEST CALLVALUE PUSH2 0x242 JUMPI PUSH1 0x40 PUSH2 0x31F PUSH2 0x319 PUSH2 0x314 PUSH2 0x284 PUSH2 0x25C CALLDATASIZE PUSH2 0x1DF JUMP JUMPDEST PUSH2 0x82F JUMP JUMPDEST MLOAD PUSH2 0x926 JUMP JUMPDEST PUSH2 0x33D PUSH2 0x337 PUSH2 0x331 PUSH2 0x295 DUP5 PUSH2 0x82F JUMP JUMPDEST SWAP3 PUSH2 0x83C JUMP JUMPDEST MLOAD PUSH2 0xA07 JUMP JUMPDEST DUP3 MLOAD PUSH1 0x1 PUSH1 0x1 PUSH1 0xA0 SHL SUB SWAP1 SWAP3 AND DUP3 MSTORE PUSH1 0x20 DUP3 ADD MSTORE RETURN JUMPDEST CALLVALUE PUSH2 0x242 JUMPI PUSH1 0x20 PUSH2 0x266 PUSH2 0x369 PUSH2 0x25C CALLDATASIZE PUSH2 0x1DF JUMP JUMPDEST PUSH2 0xA49 JUMP JUMPDEST CALLVALUE PUSH2 0x242 JUMPI PUSH2 0x37F PUSH2 0x25C CALLDATASIZE PUSH2 0x1DF JUMP JUMPDEST PUSH1 0x21 DUP2 MLOAD SUB PUSH2 0x242 JUMPI PUSH1 0x20 ADD MLOAD PUSH1 0x1 DUP2 ADD DUP1 SWAP2 GT PUSH2 0x3A3 JUMPI PUSH1 0x20 SWAP1 MLOAD PUSH1 0x40 MLOAD SWAP1 DUP2 MSTORE RETURN JUMPDEST PUSH2 0x860 JUMP JUMPDEST CALLVALUE PUSH2 0x242 JUMPI PUSH1 0x20 PUSH2 0x3C3 PUSH2 0x3BE PUSH2 0x25C CALLDATASIZE PUSH2 0x1DF JUMP JUMPDEST PUSH2 0x9E8 JUMP JUMPDEST PUSH1 0x40 MLOAD PUSH1 0x1 PUSH1 0x1 PUSH1 0xA0 SHL SUB SWAP1 SWAP2 AND DUP2 MSTORE RETURN JUMPDEST SWAP2 SWAP1 DUP3 MLOAD SWAP3 DUP4 DUP3 MSTORE PUSH0 JUMPDEST DUP5 DUP2 LT PUSH2 0x3FF JUMPI POP POP DUP3 PUSH0 PUSH1 0x20 DUP1 SWAP5 SWAP6 DUP5 ADD ADD MSTORE PUSH1 0x1F DUP1 NOT SWAP2 ADD AND ADD ADD SWAP1 JUMP JUMPDEST PUSH1 0x20 DUP2 DUP4 ADD DUP2 ADD MLOAD DUP5 DUP4 ADD DUP3 ADD MSTORE ADD PUSH2 0x3DF JUMP JUMPDEST CALLVALUE PUSH2 0x242 JUMPI PUSH2 0x443 PUSH2 0x42F PUSH2 0x42A PUSH2 0x25C CALLDATASIZE PUSH2 0x1DF JUMP JUMPDEST PUSH2 0xA95 JUMP JUMPDEST PUSH1 0x40 MLOAD SWAP2 DUP3 SWAP2 PUSH1 0x20 DUP4 MSTORE PUSH1 0x20 DUP4 ADD SWAP1 PUSH2 0x3D5 JUMP JUMPDEST SUB SWAP1 RETURN JUMPDEST CALLVALUE PUSH2 0x242 JUMPI PUSH2 0x443 PUSH2 0x42F PUSH2 0x45E PUSH2 0x25C CALLDATASIZE PUSH2 0x1DF JUMP JUMPDEST PUSH2 0xAC4 JUMP JUMPDEST CALLVALUE PUSH2 0x242 JUMPI PUSH1 0x60 PUSH2 0x476 PUSH2 0x25C CALLDATASIZE PUSH2 0x1DF JUMP JUMPDEST PUSH1 0x20 PUSH2 0x481 DUP3 PUSH2 0xB46 JUMP JUMPDEST SWAP2 SWAP1 SWAP3 ADD MLOAD SWAP1 PUSH1 0x40 MLOAD SWAP3 DUP4 MSTORE PUSH1 0x20 DUP4 ADD MSTORE PUSH1 0x40 DUP3 ADD MSTORE RETURN JUMPDEST CALLVALUE PUSH2 0x242 JUMPI PUSH1 0x40 PUSH2 0x4B5 PUSH2 0x319 PUSH2 0x314 PUSH2 0x284 PUSH2 0x25C CALLDATASIZE PUSH2 0x1DF JUMP JUMPDEST PUSH2 0x4D5 PUSH2 0x4C7 PUSH2 0x4CD PUSH2 0x4C7 DUP5 PUSH2 0x82F JUMP JUMPDEST MLOAD PUSH2 0xB46 JUMP JUMPDEST SWAP1 KECCAK256 SWAP3 PUSH2 0x83C JUMP JUMPDEST SWAP1 KECCAK256 DUP3 MLOAD SWAP2 DUP3 MSTORE PUSH1 0x20 DUP3 ADD MSTORE RETURN JUMPDEST CALLVALUE PUSH2 0x242 JUMPI PUSH2 0x443 PUSH2 0x42F PUSH2 0x500 PUSH2 0x314 PUSH2 0x284 PUSH2 0x25C CALLDATASIZE PUSH2 0x1DF JUMP JUMPDEST MLOAD PUSH2 0xA95 JUMP JUMPDEST CALLVALUE PUSH2 0x242 JUMPI PUSH2 0x51F PUSH2 0x51A PUSH2 0x25C CALLDATASIZE PUSH2 0x1DF JUMP JUMPDEST PUSH2 0xB72 JUMP JUMPDEST PUSH2 0x52B PUSH2 0x51A DUP3 PUSH2 0xBC9 JUMP JUMPDEST PUSH2 0x540 PUSH2 0x53A PUSH2 0x45E DUP4 PUSH2 0xBC9 JUMP JUMPDEST SWAP3 PUSH2 0xC0A JUMP JUMPDEST PUSH2 0x242 JUMPI PUSH2 0x54D SWAP1 PUSH2 0xC0A JUMP JUMPDEST PUSH2 0x242 JUMPI PUSH2 0x443 SWAP1 PUSH1 0x40 MLOAD SWAP2 DUP3 SWAP2 PUSH1 0x20 DUP4 MSTORE PUSH1 0x20 DUP4 ADD SWAP1 PUSH2 0x3D5 JUMP JUMPDEST CALLVALUE PUSH2 0x242 JUMPI PUSH1 0x20 PUSH2 0x583 DUP2 PUSH2 0x57D CALLDATASIZE PUSH2 0x1DF JUMP JUMPDEST ADD PUSH2 0xC25 JUMP JUMPDEST PUSH1 0x40 MLOAD SWAP1 DUP2 MSTORE RETURN JUMPDEST CALLVALUE PUSH2 0x242 JUMPI PUSH1 0x20 PUSH2 0x583 PUSH2 0x5A1 PUSH2 0x25C CALLDATASIZE PUSH2 0x1DF JUMP JUMPDEST PUSH2 0xA07 JUMP JUMPDEST CALLVALUE PUSH2 0x242 JUMPI PUSH1 0x20 PUSH2 0x5B9 PUSH2 0x25C CALLDATASIZE PUSH2 0x1DF JUMP JUMPDEST MLOAD PUSH1 0x40 MLOAD SWAP1 DUP2 MSTORE RETURN JUMPDEST CALLVALUE PUSH2 0x242 JUMPI PUSH2 0x5D6 PUSH2 0x51A PUSH2 0x25C CALLDATASIZE PUSH2 0x1DF JUMP JUMPDEST STOP JUMPDEST CALLVALUE PUSH2 0x242 JUMPI PUSH1 0x20 PUSH2 0x5B9 PUSH2 0x284 PUSH2 0x25C CALLDATASIZE PUSH2 0x1DF JUMP JUMPDEST CALLVALUE PUSH2 0x242 JUMPI PUSH2 0x5FC CALLDATASIZE PUSH2 0x1DF JUMP JUMPDEST PUSH0 DUP1 SWAP2 PUSH0 SWAP2 PUSH0 SWAP2 PUSH0 DUP1 PUSH0 DUP1 PUSH0 SWAP3 PUSH0 SWAP5 PUSH2 0x618 PUSH2 0x51A PUSH0 SWAP9 PUSH2 0x896 JUMP JUMPDEST SWAP9 PUSH0 SWAP9 JUMPDEST PUSH2 0x625 DUP12 PUSH2 0xC0A JUMP JUMPDEST ISZERO PUSH2 0x79F JUMPI DUP10 PUSH2 0x64B JUMPI POP PUSH2 0x645 PUSH2 0x63F PUSH2 0x5A1 DUP13 PUSH2 0xBC9 JUMP JUMPDEST SWAP10 PUSH2 0x874 JUMP JUMPDEST SWAP9 PUSH2 0x61C JUMP JUMPDEST SWAP9 SWAP12 PUSH1 0x1 DUP14 SUB PUSH2 0x66B JUMPI POP PUSH2 0x645 PUSH2 0x665 PUSH2 0x5A1 DUP13 PUSH2 0xBC9 JUMP JUMPDEST SWAP13 PUSH2 0x874 JUMP JUMPDEST SWAP12 SWAP11 PUSH1 0x3 DUP13 SUB PUSH2 0x68B JUMPI POP PUSH2 0x645 PUSH2 0x685 PUSH2 0x5A1 DUP13 PUSH2 0xBC9 JUMP JUMPDEST SWAP12 PUSH2 0x874 JUMP JUMPDEST SWAP11 SWAP1 PUSH1 0x4 DUP3 SUB PUSH2 0x6AB JUMPI POP PUSH2 0x645 PUSH2 0x6A5 PUSH2 0x5A1 DUP13 PUSH2 0xBC9 JUMP JUMPDEST SWAP2 PUSH2 0x874 JUMP JUMPDEST SWAP1 SWAP2 PUSH1 0x5 DUP4 SUB PUSH2 0x6CB JUMPI POP PUSH2 0x645 PUSH2 0x6C5 PUSH2 0x5A1 DUP13 PUSH2 0xBC9 JUMP JUMPDEST SWAP3 PUSH2 0x874 JUMP JUMPDEST SWAP2 SWAP3 PUSH1 0x7 DUP5 SUB PUSH2 0x6EB JUMPI POP PUSH2 0x645 PUSH2 0x6E5 PUSH2 0x5A1 DUP13 PUSH2 0xBC9 JUMP JUMPDEST SWAP4 PUSH2 0x874 JUMP JUMPDEST SWAP3 SWAP4 PUSH1 0x8 DUP6 SUB PUSH2 0x70B JUMPI POP PUSH2 0x645 PUSH2 0x705 PUSH2 0x5A1 DUP13 PUSH2 0xBC9 JUMP JUMPDEST SWAP5 PUSH2 0x874 JUMP JUMPDEST SWAP4 SWAP5 PUSH1 0x9 DUP7 SUB PUSH2 0x72B JUMPI POP PUSH2 0x645 PUSH2 0x725 PUSH2 0x5A1 DUP13 PUSH2 0xBC9 JUMP JUMPDEST SWAP6 PUSH2 0x874 JUMP JUMPDEST SWAP5 SWAP6 PUSH1 0xA DUP8 SUB PUSH2 0x74B JUMPI POP PUSH2 0x645 PUSH2 0x745 PUSH2 0x5A1 DUP13 PUSH2 0xBC9 JUMP JUMPDEST SWAP7 PUSH2 0x874 JUMP JUMPDEST SWAP6 SWAP7 PUSH1 0xB DUP9 SUB PUSH2 0x76B JUMPI POP PUSH2 0x645 PUSH2 0x765 PUSH2 0x5A1 DUP13 PUSH2 0xBC9 JUMP JUMPDEST SWAP8 PUSH2 0x874 JUMP JUMPDEST SWAP7 SWAP8 PUSH1 0xE DUP10 SUB PUSH2 0x78B JUMPI POP PUSH2 0x645 PUSH2 0x785 PUSH2 0x5A1 DUP13 PUSH2 0xBC9 JUMP JUMPDEST SWAP9 PUSH2 0x874 JUMP JUMPDEST SWAP8 PUSH2 0x645 SWAP1 PUSH2 0x799 DUP13 PUSH2 0xBC9 JUMP JUMPDEST POP PUSH2 0x874 JUMP JUMPDEST PUSH1 0x40 DUP1 MLOAD SWAP2 DUP3 MSTORE PUSH1 0x20 DUP3 ADD DUP15 SWAP1 MSTORE DUP2 ADD SWAP12 SWAP1 SWAP12 MSTORE PUSH1 0x60 DUP12 ADD MSTORE PUSH1 0x80 DUP11 ADD MSTORE PUSH1 0xA0 DUP10 ADD MSTORE PUSH1 0xC0 DUP9 ADD MSTORE PUSH1 0xE0 DUP8 ADD MSTORE PUSH2 0x100 DUP7 ADD MSTORE PUSH2 0x120 DUP6 ADD MSTORE PUSH2 0x140 DUP5 ADD MSTORE POP PUSH2 0x160 SWAP2 SWAP1 POP RETURN JUMPDEST CALLVALUE PUSH2 0x242 JUMPI PUSH1 0x20 PUSH2 0x802 PUSH2 0x7FD PUSH2 0x25C CALLDATASIZE PUSH2 0x1DF JUMP JUMPDEST PUSH2 0xB46 JUMP JUMPDEST SWAP1 KECCAK256 PUSH1 0x40 MLOAD SWAP1 DUP2 MSTORE RETURN JUMPDEST CALLVALUE PUSH2 0x242 JUMPI PUSH1 0x20 PUSH2 0x81F PUSH2 0x25C CALLDATASIZE PUSH2 0x1DF JUMP JUMPDEST DUP2 DUP2 ADD MLOAD SWAP1 MLOAD SWAP1 KECCAK256 PUSH1 0x40 MLOAD SWAP1 DUP2 MSTORE RETURN JUMPDEST DUP1 MLOAD ISZERO PUSH2 0x2E4 JUMPI PUSH1 0x20 ADD SWAP1 JUMP JUMPDEST DUP1 MLOAD PUSH1 0x1 LT ISZERO PUSH2 0x2E4 JUMPI PUSH1 0x40 ADD SWAP1 JUMP JUMPDEST DUP1 MLOAD DUP3 LT ISZERO PUSH2 0x2E4 JUMPI PUSH1 0x20 SWAP2 PUSH1 0x5 SHL ADD ADD SWAP1 JUMP JUMPDEST PUSH4 0x4E487B71 PUSH1 0xE0 SHL PUSH0 MSTORE PUSH1 0x11 PUSH1 0x4 MSTORE PUSH1 0x24 PUSH0 REVERT JUMPDEST PUSH0 NOT DUP2 EQ PUSH2 0x3A3 JUMPI PUSH1 0x1 ADD SWAP1 JUMP JUMPDEST PUSH2 0x88A PUSH2 0x178 JUMP JUMPDEST SWAP1 PUSH0 DUP3 MSTORE PUSH0 PUSH1 0x20 DUP4 ADD MSTORE JUMP JUMPDEST PUSH0 PUSH1 0x20 PUSH2 0x8A1 PUSH2 0x178 JUMP JUMPDEST DUP3 DUP2 MSTORE ADD MSTORE PUSH1 0x20 DUP2 MLOAD SWAP2 PUSH2 0x8B3 PUSH2 0x178 JUMP JUMPDEST SWAP3 DUP4 MSTORE ADD PUSH1 0x20 DUP3 ADD MSTORE SWAP1 JUMP JUMPDEST PUSH1 0x1 DUP2 MLOAD SUB PUSH2 0x242 JUMPI PUSH1 0x20 ADD MLOAD MLOAD PUSH0 BYTE DUP1 ISZERO SWAP1 DUP2 ISZERO PUSH2 0x8E8 JUMPI JUMPDEST POP ISZERO PUSH2 0x8E3 JUMPI PUSH0 SWAP1 JUMP JUMPDEST PUSH1 0x1 SWAP1 JUMP JUMPDEST PUSH1 0x80 SWAP2 POP EQ PUSH0 PUSH2 0x8D9 JUMP JUMPDEST PUSH8 0xFFFFFFFFFFFFFFFF DUP2 GT PUSH2 0x198 JUMPI PUSH1 0x5 SHL PUSH1 0x20 ADD SWAP1 JUMP JUMPDEST SWAP1 PUSH1 0x1 DUP3 ADD DUP1 SWAP3 GT PUSH2 0x3A3 JUMPI JUMP JUMPDEST SWAP2 SWAP1 DUP3 ADD DUP1 SWAP3 GT PUSH2 0x3A3 JUMPI JUMP JUMPDEST PUSH2 0x92F DUP2 PUSH2 0xA49 JUMP JUMPDEST ISZERO PUSH2 0x242 JUMPI PUSH2 0x93D DUP2 PUSH2 0xCAA JUMP JUMPDEST PUSH2 0x949 PUSH2 0x21A DUP3 PUSH2 0x8F3 JUMP JUMPDEST DUP2 DUP2 MSTORE SWAP2 PUSH1 0x1F NOT PUSH2 0x959 DUP4 PUSH2 0x8F3 JUMP JUMPDEST ADD PUSH0 JUMPDEST DUP2 DUP2 LT PUSH2 0x9D1 JUMPI POP POP PUSH2 0x97D PUSH1 0x20 DUP1 SWAP3 ADD MLOAD PUSH2 0x977 DUP2 PUSH2 0xD0B JUMP JUMPDEST SWAP1 PUSH2 0x919 JUMP JUMPDEST PUSH0 SWAP1 JUMPDEST DUP4 DUP3 LT PUSH2 0x98E JUMPI POP POP POP POP SWAP1 JUMP JUMPDEST PUSH2 0x9C9 DUP2 PUSH2 0x99D PUSH1 0x1 SWAP4 PUSH2 0xC25 JUMP JUMPDEST SWAP1 PUSH2 0x9A6 PUSH2 0x178 JUMP JUMPDEST DUP3 DUP2 MSTORE DUP2 DUP8 DUP3 ADD MSTORE PUSH2 0x9B8 DUP7 DUP11 PUSH2 0x84C JUMP JUMPDEST MSTORE PUSH2 0x9C3 DUP6 DUP10 PUSH2 0x84C JUMP JUMPDEST POP PUSH2 0x919 JUMP JUMPDEST SWAP2 ADD SWAP1 PUSH2 0x980 JUMP JUMPDEST PUSH1 0x20 SWAP1 PUSH2 0x9DC PUSH2 0x882 JUMP JUMPDEST DUP3 DUP3 DUP9 ADD ADD MSTORE ADD PUSH2 0x95C JUMP JUMPDEST PUSH1 0x15 DUP2 MLOAD SUB PUSH2 0x242 JUMPI PUSH1 0x1 PUSH1 0x1 PUSH1 0xA0 SHL SUB SWAP1 PUSH2 0xA03 SWAP1 PUSH2 0xA07 JUMP JUMPDEST AND SWAP1 JUMP JUMPDEST DUP1 MLOAD DUP1 ISZERO ISZERO SWAP1 DUP2 PUSH2 0xA3D JUMPI JUMPDEST POP ISZERO PUSH2 0x242 JUMPI PUSH2 0xA22 SWAP1 PUSH2 0xB46 JUMP JUMPDEST SWAP1 MLOAD SWAP1 PUSH1 0x20 DUP2 LT PUSH2 0xA31 JUMPI POP SWAP1 JUMP JUMPDEST PUSH1 0x20 SUB PUSH2 0x100 EXP SWAP1 DIV SWAP1 JUMP JUMPDEST PUSH1 0x21 SWAP2 POP GT ISZERO PUSH0 PUSH2 0xA13 JUMP JUMPDEST DUP1 MLOAD ISZERO PUSH2 0xA68 JUMPI PUSH1 0x20 PUSH1 0xC0 SWAP2 ADD MLOAD MLOAD PUSH0 BYTE LT PUSH2 0xA64 JUMPI PUSH1 0x1 SWAP1 JUMP JUMPDEST PUSH0 SWAP1 JUMP JUMPDEST POP PUSH0 SWAP1 JUMP JUMPDEST SWAP1 PUSH2 0xA7A PUSH2 0x21A DUP4 PUSH2 0x1C3 JUMP JUMPDEST DUP3 DUP2 MSTORE DUP1 SWAP3 PUSH2 0xA8B PUSH1 0x1F NOT SWAP2 PUSH2 0x1C3 JUMP JUMPDEST ADD SWAP1 PUSH1 0x20 CALLDATASIZE SWAP2 ADD CALLDATACOPY JUMP JUMPDEST PUSH2 0xA9F DUP2 MLOAD PUSH2 0xA6D JUMP JUMPDEST SWAP1 DUP2 MLOAD ISZERO PUSH2 0xAC0 JUMPI DUP1 PUSH1 0x20 PUSH2 0xABD SWAP3 ADD MLOAD SWAP1 MLOAD SWAP1 DUP4 PUSH1 0x20 ADD SWAP1 PUSH2 0xD78 JUMP JUMPDEST SWAP1 JUMP JUMPDEST POP SWAP1 JUMP JUMPDEST DUP1 MLOAD ISZERO PUSH2 0x242 JUMPI PUSH2 0xAD7 PUSH2 0xABD SWAP2 PUSH2 0xB46 JUMP JUMPDEST PUSH2 0xAE3 DUP2 SWAP4 SWAP3 SWAP4 PUSH2 0xA6D JUMP JUMPDEST SWAP3 DUP4 PUSH1 0x20 ADD SWAP1 PUSH2 0xD78 JUMP JUMPDEST PUSH1 0xBF NOT DUP2 ADD SWAP2 SWAP1 DUP3 GT PUSH2 0x3A3 JUMPI JUMP JUMPDEST PUSH1 0x7F NOT DUP2 ADD SWAP2 SWAP1 DUP3 GT PUSH2 0x3A3 JUMPI JUMP JUMPDEST PUSH1 0x20 SUB SWAP1 PUSH1 0x20 DUP3 GT PUSH2 0x3A3 JUMPI JUMP JUMPDEST PUSH0 NOT DUP2 ADD SWAP2 SWAP1 DUP3 GT PUSH2 0x3A3 JUMPI JUMP JUMPDEST PUSH1 0xF6 NOT DUP2 ADD SWAP2 SWAP1 DUP3 GT PUSH2 0x3A3 JUMPI JUMP JUMPDEST PUSH1 0xB6 NOT DUP2 ADD SWAP2 SWAP1 DUP3 GT PUSH2 0x3A3 JUMPI JUMP JUMPDEST SWAP1 PUSH1 0x20 DUP3 ADD SWAP2 PUSH2 0xB56 DUP4 MLOAD PUSH2 0xD0B JUMP JUMPDEST SWAP3 MLOAD SWAP1 DUP4 DUP3 ADD DUP1 SWAP3 GT PUSH2 0x3A3 JUMPI MLOAD SWAP3 DUP4 SUB SWAP3 DUP4 GT PUSH2 0x3A3 JUMPI SWAP2 SWAP1 JUMP JUMPDEST PUSH0 PUSH1 0x20 PUSH2 0xB7D PUSH2 0x178 JUMP JUMPDEST PUSH2 0xB85 PUSH2 0x178 JUMP JUMPDEST DUP4 DUP2 MSTORE DUP4 DUP4 DUP3 ADD MSTORE DUP2 MSTORE ADD MSTORE PUSH2 0xB9A DUP2 PUSH2 0xA49 JUMP JUMPDEST ISZERO PUSH2 0x242 JUMPI PUSH1 0x20 DUP2 ADD MLOAD PUSH2 0xBAD DUP2 PUSH2 0xD0B JUMP JUMPDEST DUP2 ADD DUP1 SWAP2 GT PUSH2 0x3A3 JUMPI PUSH2 0xBBE PUSH2 0x178 JUMP JUMPDEST SWAP2 DUP3 MSTORE PUSH1 0x20 DUP3 ADD MSTORE SWAP1 JUMP JUMPDEST PUSH0 PUSH1 0x20 PUSH2 0xBD4 PUSH2 0x178 JUMP JUMPDEST DUP3 DUP2 MSTORE ADD MSTORE PUSH2 0xBE2 DUP2 PUSH2 0xC0A JUMP JUMPDEST ISZERO PUSH2 0x242 JUMPI PUSH1 0x20 ADD DUP1 MLOAD PUSH2 0xBF5 DUP2 PUSH2 0xC25 JUMP JUMPDEST SWAP2 DUP3 DUP3 ADD SWAP1 DUP2 DUP4 GT PUSH2 0x3A3 JUMPI MSTORE PUSH2 0xBBE PUSH2 0x178 JUMP JUMPDEST PUSH1 0x20 DUP2 MLOAD SWAP2 ADD MLOAD PUSH1 0x20 DUP3 ADD MLOAD SWAP2 MLOAD DUP3 ADD DUP1 SWAP3 GT PUSH2 0x3A3 JUMPI LT SWAP1 JUMP JUMPDEST DUP1 MLOAD PUSH0 BYTE SWAP1 PUSH1 0x80 DUP3 LT ISZERO PUSH2 0xC3A JUMPI POP POP PUSH1 0x1 SWAP1 JUMP JUMPDEST PUSH1 0xB8 DUP3 LT ISZERO PUSH2 0xC55 JUMPI POP PUSH2 0xC50 PUSH2 0xABD SWAP2 PUSH2 0xAFD JUMP JUMPDEST PUSH2 0x90B JUMP JUMPDEST SWAP1 PUSH1 0xC0 DUP2 LT ISZERO PUSH2 0xC79 JUMPI PUSH1 0xB5 NOT SWAP2 PUSH1 0x1 PUSH1 0xB7 DUP4 PUSH1 0x20 SUB ADD PUSH2 0x100 EXP SWAP2 ADD MLOAD DIV ADD ADD SWAP1 JUMP JUMPDEST SWAP1 PUSH1 0xF8 DUP3 LT ISZERO PUSH2 0xC90 JUMPI POP PUSH2 0xC50 PUSH2 0xABD SWAP2 PUSH2 0xAEE JUMP JUMPDEST PUSH1 0x1 ADD MLOAD PUSH1 0x20 DUP3 SWAP1 SUB PUSH1 0xF7 ADD PUSH2 0x100 EXP SWAP1 DIV ADD PUSH1 0xF5 NOT ADD SWAP1 JUMP JUMPDEST DUP1 MLOAD ISZERO PUSH2 0xA68 JUMPI PUSH0 SWAP1 PUSH1 0x20 DUP2 ADD SWAP1 DUP2 MLOAD PUSH2 0xCC3 DUP2 PUSH2 0xD0B JUMP JUMPDEST DUP2 ADD DUP1 SWAP2 GT PUSH2 0x3A3 JUMPI SWAP2 MLOAD SWAP1 MLOAD DUP2 ADD DUP1 SWAP2 GT PUSH2 0x3A3 JUMPI SWAP2 SWAP1 JUMPDEST DUP3 DUP2 LT PUSH2 0xCE9 JUMPI POP SWAP1 POP SWAP1 JUMP JUMPDEST PUSH2 0xCF2 DUP2 PUSH2 0xC25 JUMP JUMPDEST DUP2 ADD DUP1 SWAP2 GT PUSH2 0x3A3 JUMPI PUSH2 0xD05 SWAP1 SWAP2 PUSH2 0x874 JUMP JUMPDEST SWAP1 PUSH2 0xCDC JUMP JUMPDEST MLOAD PUSH0 BYTE PUSH1 0x80 DUP2 LT ISZERO PUSH2 0xD1C JUMPI POP PUSH0 SWAP1 JUMP JUMPDEST PUSH1 0xB8 DUP2 LT DUP1 ISZERO PUSH2 0xD53 JUMPI JUMPDEST ISZERO PUSH2 0xD32 JUMPI POP PUSH1 0x1 SWAP1 JUMP JUMPDEST PUSH1 0xC0 DUP2 LT ISZERO PUSH2 0xD47 JUMPI PUSH2 0xC50 PUSH2 0xABD SWAP2 PUSH2 0xB37 JUMP JUMPDEST PUSH2 0xC50 PUSH2 0xABD SWAP2 PUSH2 0xB28 JUMP JUMPDEST POP PUSH1 0xC0 DUP2 LT ISZERO DUP1 ISZERO PUSH2 0xD27 JUMPI POP PUSH1 0xF8 DUP2 LT PUSH2 0xD27 JUMP JUMPDEST PUSH1 0x1F DUP2 GT PUSH2 0x3A3 JUMPI PUSH2 0x100 EXP SWAP1 JUMP JUMPDEST SWAP3 SWAP1 SWAP2 SWAP3 DUP4 ISZERO PUSH2 0xDEF JUMPI SWAP3 SWAP2 JUMPDEST PUSH1 0x20 SWAP4 DUP5 DUP5 LT PUSH2 0xDBA JUMPI DUP1 MLOAD DUP3 MSTORE DUP5 DUP2 ADD DUP1 SWAP2 GT PUSH2 0x3A3 JUMPI SWAP4 DUP2 ADD DUP1 SWAP2 GT PUSH2 0x3A3 JUMPI SWAP2 PUSH1 0x1F NOT DUP2 ADD SWAP1 DUP2 GT PUSH2 0x3A3 JUMPI SWAP2 PUSH2 0xD85 JUMP JUMPDEST SWAP2 SWAP4 POP SWAP2 DUP1 PUSH2 0xDC8 JUMPI POP POP POP JUMP JUMPDEST PUSH2 0xDDC PUSH2 0xDD7 PUSH2 0xDE1 SWAP3 PUSH2 0xB0C JUMP JUMPDEST PUSH2 0xD69 JUMP JUMPDEST PUSH2 0xB1A JUMP JUMPDEST SWAP1 MLOAD DUP3 MLOAD DUP3 AND SWAP2 NOT AND OR SWAP1 MSTORE JUMP JUMPDEST POP SWAP2 POP POP JUMP INVALID LOG2 PUSH5 0x6970667358 0x22 SLT KECCAK256 EXTCODEHASH 0x4C 0x24 PUSH2 0x52CD BASEFEE 0x1E SAR CALLVALUE DUP15 0xE5 SELFDESTRUCT BASEFEE 0xCF 0xCC JUMP SWAP11 MSTORE 0xF8 SWAP6 SSTORE 0x1F 0x27 0xD7 CALLER BASEFEE SHL 0xB0 0x4E 0xA5 0xD9 PUSH5 0x736F6C6343 STOP ADDMOD XOR STOP CALLER "
				},
				"gasEstimates": {
					"creation": {
						"codeDepositCost": "725400",
						"executionCost": "768",
						"totalCost": "726168"
					},
					"external": {
						"bytesToString(bytes)": "infinite",
						"customDestructure(bytes)": "infinite",
						"customNestedDestructure(bytes)": "infinite",
						"customNestedDestructureKeccak(bytes)": "infinite",
						"customNestedToRlpBytes(bytes)": "infinite",
						"isList(bytes)": "infinite",
						"itemLength(bytes)": "infinite",
						"nestedIteration(bytes)": "infinite",
						"numItems(bytes)": "infinite",
						"payloadKeccak256(bytes)": "infinite",
						"payloadLocation(bytes)": "infinite",
						"rlpBytesKeccak256(bytes)": "infinite",
						"rlpLen(bytes)": "infinite",
						"toAddress(bytes)": "infinite",
						"toBlockHeader(bytes)": "infinite",
						"toBoolean(bytes)": "infinite",
						"toBytes(bytes)": "infinite",
						"toIterator(bytes)": "infinite",
						"toRlpBytes(bytes)": "infinite",
						"toUint(bytes)": "infinite",
						"toUintStrict(bytes)": "infinite"
					},
					"internal": {
						"_itemLength(uint256)": "infinite"
					}
				},
				"methodIdentifiers": {
					"bytesToString(bytes)": "39614e4f",
					"customDestructure(bytes)": "059a97fb",
					"customNestedDestructure(bytes)": "15943cb6",
					"customNestedDestructureKeccak(bytes)": "64ea1929",
					"customNestedToRlpBytes(bytes)": "74c4c494",
					"isList(bytes)": "19921bd0",
					"itemLength(bytes)": "8109672f",
					"nestedIteration(bytes)": "76193f8c",
					"numItems(bytes)": "dd208ea1",
					"payloadKeccak256(bytes)": "eb4eb372",
					"payloadLocation(bytes)": "45fce4f9",
					"rlpBytesKeccak256(bytes)": "f29cddc0",
					"rlpLen(bytes)": "aac19545",
					"toAddress(bytes)": "2d888869",
					"toBlockHeader(bytes)": "e7617bf8",
					"toBoolean(bytes)": "04ba3427",
					"toBytes(bytes)": "e79fbcec",
					"toIterator(bytes)": "d03ca5a3",
					"toRlpBytes(bytes)": "33c82d18",
					"toUint(bytes)": "8529d576",
					"toUintStrict(bytes)": "20f91849"
				}
			},
			"storageLayout": {
				"storage": [],
				"types": null
			},
			"userdoc": {
				"kind": "user",
				"methods": {},
				"version": 1
			}
		}
	}
}