{
	"contracts/fraud-detector/libs/decode/msgDecoding.sol": {
		"FraudProofDecoderLibrary": {
			"abi": [
				{
					"anonymous": false,
					"inputs": [
						{
							"indexed": false,
							"internalType": "bytes32",
							"name": "channelId",
							"type": "bytes32"
						},
						{
							"indexed": false,
							"internalType": "uint256",
							"name": "Amount",
							"type": "uint256"
						},
						{
							"indexed": false,
							"internalType": "bytes32",
							"name": "LocalBlockHash",
							"type": "bytes32"
						},
						{
							"indexed": false,
							"internalType": "bytes",
							"name": "ReqBytes",
							"type": "bytes"
						},
						{
							"indexed": false,
							"internalType": "uint256",
							"name": "length",
							"type": "uint256"
						}
					],
					"name": "DecodeRequest",
					"type": "event"
				},
				{
					"anonymous": false,
					"inputs": [
						{
							"indexed": false,
							"internalType": "string",
							"name": "Type",
							"type": "string"
						},
						{
							"indexed": false,
							"internalType": "bytes32",
							"name": "ChannelId",
							"type": "bytes32"
						},
						{
							"indexed": false,
							"internalType": "uint256",
							"name": "Amount",
							"type": "uint256"
						},
						{
							"indexed": false,
							"internalType": "bytes32",
							"name": "ReqBodyHash",
							"type": "bytes32"
						},
						{
							"indexed": false,
							"internalType": "bytes",
							"name": "SignedReqBody",
							"type": "bytes"
						},
						{
							"indexed": false,
							"internalType": "uint256",
							"name": "CurrentBlockHeight",
							"type": "uint256"
						},
						{
							"indexed": false,
							"internalType": "bytes",
							"name": "ReturnValue",
							"type": "bytes"
						},
						{
							"indexed": false,
							"internalType": "bytes[]",
							"name": "Proof",
							"type": "bytes[]"
						},
						{
							"indexed": false,
							"internalType": "bytes32",
							"name": "TxHash",
							"type": "bytes32"
						},
						{
							"indexed": false,
							"internalType": "bytes",
							"name": "TxIdx",
							"type": "bytes"
						},
						{
							"indexed": false,
							"internalType": "bytes",
							"name": "Signature",
							"type": "bytes"
						}
					],
					"name": "DecodedResponse",
					"type": "event"
				},
				{
					"anonymous": false,
					"inputs": [
						{
							"indexed": false,
							"internalType": "string",
							"name": "Type",
							"type": "string"
						},
						{
							"indexed": false,
							"internalType": "bytes32",
							"name": "ChannelId",
							"type": "bytes32"
						},
						{
							"indexed": false,
							"internalType": "uint256",
							"name": "Amount",
							"type": "uint256"
						},
						{
							"indexed": false,
							"internalType": "bytes32",
							"name": "ReqBodyHash",
							"type": "bytes32"
						},
						{
							"indexed": false,
							"internalType": "bytes",
							"name": "SignedReqBody",
							"type": "bytes"
						},
						{
							"indexed": false,
							"internalType": "uint256",
							"name": "CurrentBlockHeight",
							"type": "uint256"
						},
						{
							"indexed": false,
							"internalType": "bytes",
							"name": "ReturnValue",
							"type": "bytes"
						},
						{
							"indexed": false,
							"internalType": "bytes[]",
							"name": "Proof",
							"type": "bytes[]"
						},
						{
							"indexed": false,
							"internalType": "bytes",
							"name": "Address",
							"type": "bytes"
						},
						{
							"indexed": false,
							"internalType": "bytes",
							"name": "Signature",
							"type": "bytes"
						}
					],
					"name": "DecodedResponseSP",
					"type": "event"
				},
				{
					"anonymous": false,
					"inputs": [
						{
							"indexed": false,
							"internalType": "uint256",
							"name": "amount",
							"type": "uint256"
						}
					],
					"name": "emitAmount",
					"type": "event"
				},
				{
					"anonymous": false,
					"inputs": [
						{
							"indexed": false,
							"internalType": "bytes32",
							"name": "LocalBlockHash",
							"type": "bytes32"
						}
					],
					"name": "emitLocalBlockHash",
					"type": "event"
				},
				{
					"anonymous": false,
					"inputs": [
						{
							"indexed": false,
							"internalType": "bytes32",
							"name": "msgHash",
							"type": "bytes32"
						}
					],
					"name": "msgHash",
					"type": "event"
				},
				{
					"anonymous": false,
					"inputs": [
						{
							"indexed": false,
							"internalType": "bytes",
							"name": "SignedReqBody",
							"type": "bytes"
						}
					],
					"name": "reqByte",
					"type": "event"
				},
				{
					"inputs": [
						{
							"internalType": "bytes32",
							"name": "ChannelId",
							"type": "bytes32"
						},
						{
							"internalType": "bytes[]",
							"name": "proof",
							"type": "bytes[]"
						},
						{
							"internalType": "bytes",
							"name": "SignedReqBody",
							"type": "bytes"
						},
						{
							"internalType": "bytes",
							"name": "Address",
							"type": "bytes"
						},
						{
							"internalType": "uint256",
							"name": "blockNr",
							"type": "uint256"
						}
					],
					"name": "getMessageHashSP",
					"outputs": [
						{
							"internalType": "bytes32",
							"name": "",
							"type": "bytes32"
						}
					],
					"stateMutability": "pure",
					"type": "function"
				},
				{
					"inputs": [
						{
							"internalType": "bytes32",
							"name": "ChannelId",
							"type": "bytes32"
						},
						{
							"internalType": "uint256",
							"name": "Amount",
							"type": "uint256"
						},
						{
							"internalType": "bytes32",
							"name": "LocalBlockHash",
							"type": "bytes32"
						},
						{
							"internalType": "bytes",
							"name": "ReqBytes",
							"type": "bytes"
						}
					],
					"name": "getReqMessageHash",
					"outputs": [
						{
							"internalType": "bytes32",
							"name": "",
							"type": "bytes32"
						}
					],
					"stateMutability": "pure",
					"type": "function"
				}
			],
			"devdoc": {
				"kind": "dev",
				"methods": {},
				"version": 1
			},
			"evm": {
				"assembly": "    /* \"contracts/fraud-detector/libs/decode/msgDecoding.sol\":158:7789  library FraudProofDecoderLibrary {... */\n  dataSize(sub_0)\n  dataOffset(sub_0)\n  0x0b\n  dup3\n  dup3\n  dup3\n  codecopy\n  dup1\n  mload\n  0x00\n  byte\n  0x73\n  eq\n  tag_1\n  jumpi\n  mstore(0x00, shl(0xe0, 0x4e487b71))\n  mstore(0x04, 0x00)\n  revert(0x00, 0x24)\ntag_1:\n  mstore(0x00, address)\n  0x73\n  dup2\n  mstore8\n  dup3\n  dup2\n  return\nstop\n\nsub_0: assembly {\n        /* \"contracts/fraud-detector/libs/decode/msgDecoding.sol\":158:7789  library FraudProofDecoderLibrary {... */\n      eq(address, deployTimeAddress())\n      mstore(0x40, 0x80)\n      jumpi(tag_1, lt(calldatasize, 0x04))\n      shr(0xe0, calldataload(0x00))\n      dup1\n      0x15515246\n      eq\n      tag_2\n      jumpi\n      dup1\n      0x2c66f61a\n      eq\n      tag_3\n      jumpi\n      dup1\n      0x88ede4a2\n      eq\n      tag_4\n      jumpi\n      dup1\n      0xc7d60a06\n      eq\n      tag_5\n      jumpi\n      dup1\n      0xe09bc827\n      eq\n      tag_6\n      jumpi\n      dup1\n      0xfe0103f7\n      eq\n      tag_7\n      jumpi\n    tag_1:\n      0x00\n      dup1\n      revert\n        /* \"contracts/fraud-detector/libs/decode/msgDecoding.sol\":4777:5105  function getReqMessageHash(... */\n    tag_2:\n      tag_8\n      tag_9\n      calldatasize\n      0x04\n      tag_10\n      jump\t// in\n    tag_9:\n      tag_11\n      jump\t// in\n    tag_8:\n      mload(0x40)\n        /* \"#utility.yul\":1823:1848   */\n      swap1\n      dup2\n      mstore\n        /* \"#utility.yul\":1811:1813   */\n      0x20\n        /* \"#utility.yul\":1796:1814   */\n      add\n        /* \"contracts/fraud-detector/libs/decode/msgDecoding.sol\":4777:5105  function getReqMessageHash(... */\n    tag_12:\n      mload(0x40)\n      dup1\n      swap2\n      sub\n      swap1\n      return\n        /* \"contracts/fraud-detector/libs/decode/msgDecoding.sol\":7112:7785  function getMessageHashSP(... */\n    tag_3:\n      tag_8\n      tag_15\n      calldatasize\n      0x04\n      tag_16\n      jump\t// in\n    tag_15:\n      tag_17\n      jump\t// in\n        /* \"contracts/fraud-detector/libs/decode/msgDecoding.sol\":276:2709  function decodeResponse(bytes memory res) external returns (ResponseMsg memory, bytes32) {... */\n    tag_4:\n      dup2\n      dup1\n      iszero\n      tag_19\n      jumpi\n      0x00\n      dup1\n      revert\n    tag_19:\n      pop\n      tag_20\n      tag_21\n      calldatasize\n      0x04\n      tag_22\n      jump\t// in\n    tag_21:\n      tag_23\n      jump\t// in\n    tag_20:\n      mload(0x40)\n      tag_12\n      swap3\n      swap2\n      swap1\n      tag_25\n      jump\t// in\n        /* \"contracts/fraud-detector/libs/decode/msgDecoding.sol\":2715:3383  function getMessageHash(... */\n    tag_5:\n      dup2\n      dup1\n      iszero\n      tag_26\n      jumpi\n      0x00\n      dup1\n      revert\n    tag_26:\n      pop\n      tag_8\n      tag_28\n      calldatasize\n      0x04\n      tag_29\n      jump\t// in\n    tag_28:\n      tag_30\n      jump\t// in\n        /* \"contracts/fraud-detector/libs/decode/msgDecoding.sol\":5113:7105  function decodeResponseSP(bytes memory encodedMsg) public returns (ResponseSPMsg memory, bytes32) {... */\n    tag_6:\n      dup2\n      dup1\n      iszero\n      tag_32\n      jumpi\n      0x00\n      dup1\n      revert\n    tag_32:\n      pop\n      tag_33\n      tag_34\n      calldatasize\n      0x04\n      tag_22\n      jump\t// in\n    tag_34:\n      tag_35\n      jump\t// in\n    tag_33:\n      mload(0x40)\n      tag_12\n      swap3\n      swap2\n      swap1\n      tag_37\n      jump\t// in\n        /* \"contracts/fraud-detector/libs/decode/msgDecoding.sol\":3389:4771  function decodeRequest(bytes memory serializedReqBody) public returns(RequestBody memory, bytes32) {... */\n    tag_7:\n      dup2\n      dup1\n      iszero\n      tag_38\n      jumpi\n      0x00\n      dup1\n      revert\n    tag_38:\n      pop\n      tag_39\n      tag_40\n      calldatasize\n      0x04\n      tag_22\n      jump\t// in\n    tag_40:\n      tag_41\n      jump\t// in\n    tag_39:\n      mload(0x40)\n      tag_12\n      swap3\n      swap2\n      swap1\n      tag_43\n      jump\t// in\n        /* \"contracts/fraud-detector/libs/decode/msgDecoding.sol\":4777:5105  function getReqMessageHash(... */\n    tag_11:\n        /* \"contracts/fraud-detector/libs/decode/msgDecoding.sol\":4942:4949  bytes32 */\n      0x00\n        /* \"contracts/fraud-detector/libs/decode/msgDecoding.sol\":5008:5017  ChannelId */\n      dup5\n        /* \"contracts/fraud-detector/libs/decode/msgDecoding.sol\":5031:5037  Amount */\n      dup5\n        /* \"contracts/fraud-detector/libs/decode/msgDecoding.sol\":5051:5065  LocalBlockHash */\n      dup5\n        /* \"contracts/fraud-detector/libs/decode/msgDecoding.sol\":5079:5087  ReqBytes */\n      dup5\n        /* \"contracts/fraud-detector/libs/decode/msgDecoding.sol\":4978:5097  abi.encodePacked(... */\n      add(0x20, mload(0x40))\n      tag_45\n      swap5\n      swap4\n      swap3\n      swap2\n      swap1\n      tag_46\n      jump\t// in\n    tag_45:\n      mload(0x40)\n      0x20\n      dup2\n      dup4\n      sub\n      sub\n      dup2\n      mstore\n      swap1\n      0x40\n      mstore\n        /* \"contracts/fraud-detector/libs/decode/msgDecoding.sol\":4968:5098  keccak256(abi.encodePacked(... */\n      dup1\n      mload\n      swap1\n      0x20\n      add\n      keccak256\n        /* \"contracts/fraud-detector/libs/decode/msgDecoding.sol\":4961:5098  return keccak256(abi.encodePacked(... */\n      swap1\n      pop\n        /* \"contracts/fraud-detector/libs/decode/msgDecoding.sol\":4777:5105  function getReqMessageHash(... */\n      swap5\n      swap4\n      pop\n      pop\n      pop\n      pop\n      jump\t// out\n        /* \"contracts/fraud-detector/libs/decode/msgDecoding.sol\":7112:7785  function getMessageHashSP(... */\n    tag_17:\n        /* \"contracts/fraud-detector/libs/decode/msgDecoding.sol\":7313:7320  bytes32 */\n      0x00\n        /* \"contracts/fraud-detector/libs/decode/msgDecoding.sol\":7332:7355  bytes memory proofBytes */\n      0x60\n        /* \"contracts/fraud-detector/libs/decode/msgDecoding.sol\":7370:7379  uint256 i */\n      0x00\n        /* \"contracts/fraud-detector/libs/decode/msgDecoding.sol\":7365:7484  for (uint256 i = 0; i < proof.length; i++) {... */\n    tag_48:\n        /* \"contracts/fraud-detector/libs/decode/msgDecoding.sol\":7389:7394  proof */\n      dup7\n        /* \"contracts/fraud-detector/libs/decode/msgDecoding.sol\":7389:7401  proof.length */\n      mload\n        /* \"contracts/fraud-detector/libs/decode/msgDecoding.sol\":7385:7386  i */\n      dup2\n        /* \"contracts/fraud-detector/libs/decode/msgDecoding.sol\":7385:7401  i < proof.length */\n      lt\n        /* \"contracts/fraud-detector/libs/decode/msgDecoding.sol\":7365:7484  for (uint256 i = 0; i < proof.length; i++) {... */\n      iszero\n      tag_49\n      jumpi\n        /* \"contracts/fraud-detector/libs/decode/msgDecoding.sol\":7452:7462  proofBytes */\n      dup2\n        /* \"contracts/fraud-detector/libs/decode/msgDecoding.sol\":7464:7469  proof */\n      dup8\n        /* \"contracts/fraud-detector/libs/decode/msgDecoding.sol\":7470:7471  i */\n      dup3\n        /* \"contracts/fraud-detector/libs/decode/msgDecoding.sol\":7464:7472  proof[i] */\n      dup2\n      mload\n      dup2\n      lt\n      tag_52\n      jumpi\n      tag_52\n      tag_53\n      jump\t// in\n    tag_52:\n      0x20\n      mul\n      0x20\n      add\n      add\n      mload\n        /* \"contracts/fraud-detector/libs/decode/msgDecoding.sol\":7435:7473  abi.encodePacked(proofBytes, proof[i]) */\n      add(0x20, mload(0x40))\n      tag_54\n      swap3\n      swap2\n      swap1\n      tag_55\n      jump\t// in\n    tag_54:\n      0x40\n      dup1\n      mload\n      not(0x1f)\n      dup2\n      dup5\n      sub\n      add\n      dup2\n      mstore\n      swap2\n      swap1\n      mstore\n      swap2\n      pop\n        /* \"contracts/fraud-detector/libs/decode/msgDecoding.sol\":7403:7406  i++ */\n      0x01\n      add\n        /* \"contracts/fraud-detector/libs/decode/msgDecoding.sol\":7365:7484  for (uint256 i = 0; i < proof.length; i++) {... */\n      jump(tag_48)\n    tag_49:\n      pop\n        /* \"contracts/fraud-detector/libs/decode/msgDecoding.sol\":7656:7665  ChannelId */\n      dup7\n        /* \"contracts/fraud-detector/libs/decode/msgDecoding.sol\":7679:7692  SignedReqBody */\n      dup6\n        /* \"contracts/fraud-detector/libs/decode/msgDecoding.sol\":7706:7716  proofBytes */\n      dup3\n        /* \"contracts/fraud-detector/libs/decode/msgDecoding.sol\":7626:7777  abi.encodePacked(... */\n      add(0x20, mload(0x40))\n      tag_56\n      swap4\n      swap3\n      swap2\n      swap1\n      tag_57\n      jump\t// in\n    tag_56:\n      mload(0x40)\n      0x20\n      dup2\n      dup4\n      sub\n      sub\n      dup2\n      mstore\n      swap1\n      0x40\n      mstore\n        /* \"contracts/fraud-detector/libs/decode/msgDecoding.sol\":7616:7778  keccak256(abi.encodePacked(... */\n      dup1\n      mload\n      swap1\n      0x20\n      add\n      keccak256\n        /* \"contracts/fraud-detector/libs/decode/msgDecoding.sol\":7609:7778  return keccak256(abi.encodePacked(... */\n      swap2\n      pop\n      pop\n        /* \"contracts/fraud-detector/libs/decode/msgDecoding.sol\":7112:7785  function getMessageHashSP(... */\n      swap6\n      swap5\n      pop\n      pop\n      pop\n      pop\n      pop\n      jump\t// out\n        /* \"contracts/fraud-detector/libs/decode/msgDecoding.sol\":276:2709  function decodeResponse(bytes memory res) external returns (ResponseMsg memory, bytes32) {... */\n    tag_23:\n        /* \"contracts/fraud-detector/libs/decode/msgDecoding.sol\":336:354  ResponseMsg memory */\n      tag_58\n      tag_59\n      jump\t// in\n    tag_58:\n        /* \"contracts/fraud-detector/libs/decode/msgDecoding.sol\":356:363  bytes32 */\n      0x00\n        /* \"contracts/fraud-detector/libs/decode/msgDecoding.sol\":421:453  RLPReader.RLPItem[] memory items */\n      dup1\n        /* \"contracts/fraud-detector/libs/decode/msgDecoding.sol\":456:480  res.toRlpItem().toList() */\n      tag_61\n        /* \"contracts/fraud-detector/libs/decode/msgDecoding.sol\":456:471  res.toRlpItem() */\n      tag_62\n        /* \"contracts/fraud-detector/libs/decode/msgDecoding.sol\":456:459  res */\n      dup6\n      0x40\n      dup1\n      mload\n      dup1\n      dup3\n      add\n      dup3\n      mstore\n      0x00\n      dup1\n      dup3\n      mstore\n      0x20\n      swap2\n      dup3\n      add\n      mstore\n        /* \"contracts/fraud-detector/libs/rlp/RLPReader.sol\":1699:1727  RLPItem(item.length, memPtr) */\n      dup2\n      mload\n      dup1\n      dup4\n      add\n      swap1\n      swap3\n      mstore\n        /* \"contracts/fraud-detector/libs/rlp/RLPReader.sol\":1707:1718  item.length */\n      dup3\n      mload\n        /* \"contracts/fraud-detector/libs/rlp/RLPReader.sol\":1699:1727  RLPItem(item.length, memPtr) */\n      dup3\n      mstore\n        /* \"contracts/fraud-detector/libs/rlp/RLPReader.sol\":1657:1672  add(item, 0x20) */\n      swap2\n      dup3\n      add\n        /* \"contracts/fraud-detector/libs/rlp/RLPReader.sol\":1699:1727  RLPItem(item.length, memPtr) */\n      swap2\n      dup2\n      add\n      swap2\n      swap1\n      swap2\n      mstore\n      swap1\n        /* \"contracts/fraud-detector/libs/rlp/RLPReader.sol\":1513:1734  function toRlpItem(bytes memory item) internal pure returns (RLPItem memory) {... */\n      jump\n        /* \"contracts/fraud-detector/libs/decode/msgDecoding.sol\":456:471  res.toRlpItem() */\n    tag_62:\n        /* \"contracts/fraud-detector/libs/decode/msgDecoding.sol\":456:478  res.toRlpItem().toList */\n      tag_64\n        /* \"contracts/fraud-detector/libs/decode/msgDecoding.sol\":456:480  res.toRlpItem().toList() */\n      jump\t// in\n    tag_61:\n        /* \"contracts/fraud-detector/libs/decode/msgDecoding.sol\":421:480  RLPReader.RLPItem[] memory items = res.toRlpItem().toList() */\n      swap1\n      pop\n        /* \"contracts/fraud-detector/libs/decode/msgDecoding.sol\":602:607  items */\n      dup1\n        /* \"contracts/fraud-detector/libs/decode/msgDecoding.sol\":602:614  items.length */\n      mload\n        /* \"contracts/fraud-detector/libs/decode/msgDecoding.sol\":618:620  12 */\n      0x0c\n        /* \"contracts/fraud-detector/libs/decode/msgDecoding.sol\":602:620  items.length == 12 */\n      eq\n        /* \"contracts/fraud-detector/libs/decode/msgDecoding.sol\":594:671  require(items.length == 12, \"Incorrect number of fields in RLP encoded data\") */\n      tag_65\n      jumpi\n      mload(0x40)\n      shl(0xe5, 0x461bcd)\n      dup2\n      mstore\n      0x04\n      add\n      tag_66\n      swap1\n      tag_67\n      jump\t// in\n    tag_66:\n      mload(0x40)\n      dup1\n      swap2\n      sub\n      swap1\n      revert\n    tag_65:\n        /* \"contracts/fraud-detector/libs/decode/msgDecoding.sol\":682:709  ResponseMsg memory response */\n      tag_68\n      tag_59\n      jump\t// in\n    tag_68:\n        /* \"contracts/fraud-detector/libs/decode/msgDecoding.sol\":774:792  items[0].toBytes() */\n      tag_69\n        /* \"contracts/fraud-detector/libs/decode/msgDecoding.sol\":774:779  items */\n      dup3\n        /* \"contracts/fraud-detector/libs/decode/msgDecoding.sol\":780:781  0 */\n      0x00\n        /* \"contracts/fraud-detector/libs/decode/msgDecoding.sol\":774:782  items[0] */\n      dup2\n      mload\n      dup2\n      lt\n      tag_71\n      jumpi\n      tag_71\n      tag_53\n      jump\t// in\n    tag_71:\n      0x20\n      mul\n      0x20\n      add\n      add\n      mload\n        /* \"contracts/fraud-detector/libs/decode/msgDecoding.sol\":774:790  items[0].toBytes */\n      tag_72\n        /* \"contracts/fraud-detector/libs/decode/msgDecoding.sol\":774:792  items[0].toBytes() */\n      jump\t// in\n    tag_69:\n        /* \"contracts/fraud-detector/libs/decode/msgDecoding.sol\":751:793  response.Type = string(items[0].toBytes()) */\n      dup2\n      mstore\n        /* \"contracts/fraud-detector/libs/decode/msgDecoding.sol\":892:900  items[1] */\n      dup2\n      mload\n        /* \"contracts/fraud-detector/libs/decode/msgDecoding.sol\":892:910  items[1].toBytes() */\n      tag_73\n      swap1\n        /* \"contracts/fraud-detector/libs/decode/msgDecoding.sol\":892:897  items */\n      dup4\n      swap1\n        /* \"contracts/fraud-detector/libs/decode/msgDecoding.sol\":898:899  1 */\n      0x01\n      swap1\n        /* \"contracts/fraud-detector/libs/decode/msgDecoding.sol\":892:900  items[1] */\n      dup2\n      lt\n      tag_71\n      jumpi\n      tag_71\n      tag_53\n      jump\t// in\n        /* \"contracts/fraud-detector/libs/decode/msgDecoding.sol\":892:910  items[1].toBytes() */\n    tag_73:\n        /* \"contracts/fraud-detector/libs/decode/msgDecoding.sol\":884:911  bytes32(items[1].toBytes()) */\n      tag_76\n      swap1\n      tag_77\n      jump\t// in\n    tag_76:\n        /* \"contracts/fraud-detector/libs/decode/msgDecoding.sol\":863:881  response.ChannelId */\n      0x20\n      dup3\n      add\n        /* \"contracts/fraud-detector/libs/decode/msgDecoding.sol\":863:911  response.ChannelId = bytes32(items[1].toBytes()) */\n      mstore\n        /* \"contracts/fraud-detector/libs/decode/msgDecoding.sol\":983:991  items[2] */\n      dup2\n      mload\n        /* \"contracts/fraud-detector/libs/decode/msgDecoding.sol\":983:1000  items[2].toUint() */\n      tag_78\n      swap1\n        /* \"contracts/fraud-detector/libs/decode/msgDecoding.sol\":983:988  items */\n      dup4\n      swap1\n        /* \"contracts/fraud-detector/libs/decode/msgDecoding.sol\":989:990  2 */\n      0x02\n      swap1\n        /* \"contracts/fraud-detector/libs/decode/msgDecoding.sol\":983:991  items[2] */\n      dup2\n      lt\n      tag_80\n      jumpi\n      tag_80\n      tag_53\n      jump\t// in\n    tag_80:\n      0x20\n      mul\n      0x20\n      add\n      add\n      mload\n        /* \"contracts/fraud-detector/libs/decode/msgDecoding.sol\":983:998  items[2].toUint */\n      tag_81\n        /* \"contracts/fraud-detector/libs/decode/msgDecoding.sol\":983:1000  items[2].toUint() */\n      jump\t// in\n    tag_78:\n        /* \"contracts/fraud-detector/libs/decode/msgDecoding.sol\":965:980  response.Amount */\n      0x40\n      dup3\n      add\n        /* \"contracts/fraud-detector/libs/decode/msgDecoding.sol\":965:1000  response.Amount = items[2].toUint() */\n      mstore\n        /* \"contracts/fraud-detector/libs/decode/msgDecoding.sol\":1042:1050  items[3] */\n      dup2\n      mload\n        /* \"contracts/fraud-detector/libs/decode/msgDecoding.sol\":1042:1060  items[3].toBytes() */\n      tag_82\n      swap1\n        /* \"contracts/fraud-detector/libs/decode/msgDecoding.sol\":1042:1047  items */\n      dup4\n      swap1\n        /* \"contracts/fraud-detector/libs/decode/msgDecoding.sol\":1048:1049  3 */\n      0x03\n      swap1\n        /* \"contracts/fraud-detector/libs/decode/msgDecoding.sol\":1042:1050  items[3] */\n      dup2\n      lt\n      tag_71\n      jumpi\n      tag_71\n      tag_53\n      jump\t// in\n        /* \"contracts/fraud-detector/libs/decode/msgDecoding.sol\":1042:1060  items[3].toBytes() */\n    tag_82:\n        /* \"contracts/fraud-detector/libs/decode/msgDecoding.sol\":1034:1061  bytes32(items[3].toBytes()) */\n      tag_85\n      swap1\n      tag_77\n      jump\t// in\n    tag_85:\n        /* \"contracts/fraud-detector/libs/decode/msgDecoding.sol\":1011:1031  response.ReqBodyHash */\n      0x60\n      dup3\n      add\n        /* \"contracts/fraud-detector/libs/decode/msgDecoding.sol\":1011:1061  response.ReqBodyHash = bytes32(items[3].toBytes()) */\n      mstore\n        /* \"contracts/fraud-detector/libs/decode/msgDecoding.sol\":1147:1155  items[4] */\n      dup2\n      mload\n        /* \"contracts/fraud-detector/libs/decode/msgDecoding.sol\":1147:1165  items[4].toBytes() */\n      tag_86\n      swap1\n        /* \"contracts/fraud-detector/libs/decode/msgDecoding.sol\":1147:1152  items */\n      dup4\n      swap1\n        /* \"contracts/fraud-detector/libs/decode/msgDecoding.sol\":1153:1154  4 */\n      0x04\n      swap1\n        /* \"contracts/fraud-detector/libs/decode/msgDecoding.sol\":1147:1155  items[4] */\n      dup2\n      lt\n      tag_71\n      jumpi\n      tag_71\n      tag_53\n      jump\t// in\n        /* \"contracts/fraud-detector/libs/decode/msgDecoding.sol\":1147:1165  items[4].toBytes() */\n    tag_86:\n        /* \"contracts/fraud-detector/libs/decode/msgDecoding.sol\":1122:1130  response */\n      dup2\n        /* \"contracts/fraud-detector/libs/decode/msgDecoding.sol\":1122:1144  response.SignedReqBody */\n      0x80\n      add\n        /* \"contracts/fraud-detector/libs/decode/msgDecoding.sol\":1122:1165  response.SignedReqBody = items[4].toBytes() */\n      dup2\n      swap1\n      mstore\n      pop\n        /* \"contracts/fraud-detector/libs/decode/msgDecoding.sol\":1261:1278  items[5].toUint() */\n      tag_89\n        /* \"contracts/fraud-detector/libs/decode/msgDecoding.sol\":1261:1266  items */\n      dup3\n        /* \"contracts/fraud-detector/libs/decode/msgDecoding.sol\":1267:1268  5 */\n      0x05\n        /* \"contracts/fraud-detector/libs/decode/msgDecoding.sol\":1261:1269  items[5] */\n      dup2\n      mload\n      dup2\n      lt\n      tag_80\n      jumpi\n      tag_80\n      tag_53\n      jump\t// in\n        /* \"contracts/fraud-detector/libs/decode/msgDecoding.sol\":1261:1278  items[5].toUint() */\n    tag_89:\n        /* \"contracts/fraud-detector/libs/decode/msgDecoding.sol\":1231:1258  response.CurrentBlockHeight */\n      0xa0\n      dup3\n      add\n        /* \"contracts/fraud-detector/libs/decode/msgDecoding.sol\":1231:1278  response.CurrentBlockHeight = items[5].toUint() */\n      mstore\n        /* \"contracts/fraud-detector/libs/decode/msgDecoding.sol\":1361:1369  items[6] */\n      dup2\n      mload\n        /* \"contracts/fraud-detector/libs/decode/msgDecoding.sol\":1361:1379  items[6].toBytes() */\n      tag_92\n      swap1\n        /* \"contracts/fraud-detector/libs/decode/msgDecoding.sol\":1361:1366  items */\n      dup4\n      swap1\n        /* \"contracts/fraud-detector/libs/decode/msgDecoding.sol\":1367:1368  6 */\n      0x06\n      swap1\n        /* \"contracts/fraud-detector/libs/decode/msgDecoding.sol\":1361:1369  items[6] */\n      dup2\n      lt\n      tag_71\n      jumpi\n      tag_71\n      tag_53\n      jump\t// in\n        /* \"contracts/fraud-detector/libs/decode/msgDecoding.sol\":1361:1379  items[6].toBytes() */\n    tag_92:\n        /* \"contracts/fraud-detector/libs/decode/msgDecoding.sol\":1338:1346  response */\n      dup2\n        /* \"contracts/fraud-detector/libs/decode/msgDecoding.sol\":1338:1358  response.ReturnValue */\n      0xc0\n      add\n        /* \"contracts/fraud-detector/libs/decode/msgDecoding.sol\":1338:1379  response.ReturnValue = items[6].toBytes() */\n      dup2\n      swap1\n      mstore\n      pop\n        /* \"contracts/fraud-detector/libs/decode/msgDecoding.sol\":1439:1476  RLPReader.RLPItem[] memory proofItems */\n      0x00\n        /* \"contracts/fraud-detector/libs/decode/msgDecoding.sol\":1479:1496  items[7].toList() */\n      tag_95\n        /* \"contracts/fraud-detector/libs/decode/msgDecoding.sol\":1479:1484  items */\n      dup4\n        /* \"contracts/fraud-detector/libs/decode/msgDecoding.sol\":1485:1486  7 */\n      0x07\n        /* \"contracts/fraud-detector/libs/decode/msgDecoding.sol\":1479:1487  items[7] */\n      dup2\n      mload\n      dup2\n      lt\n      tag_97\n      jumpi\n      tag_97\n      tag_53\n      jump\t// in\n    tag_97:\n      0x20\n      mul\n      0x20\n      add\n      add\n      mload\n        /* \"contracts/fraud-detector/libs/decode/msgDecoding.sol\":1479:1494  items[7].toList */\n      tag_64\n        /* \"contracts/fraud-detector/libs/decode/msgDecoding.sol\":1479:1496  items[7].toList() */\n      jump\t// in\n    tag_95:\n        /* \"contracts/fraud-detector/libs/decode/msgDecoding.sol\":1439:1496  RLPReader.RLPItem[] memory proofItems = items[7].toList() */\n      swap1\n      pop\n        /* \"contracts/fraud-detector/libs/decode/msgDecoding.sol\":1535:1545  proofItems */\n      dup1\n        /* \"contracts/fraud-detector/libs/decode/msgDecoding.sol\":1535:1552  proofItems.length */\n      mload\n      sub(shl(0x40, 0x01), 0x01)\n        /* \"contracts/fraud-detector/libs/decode/msgDecoding.sol\":1523:1553  new bytes[](proofItems.length) */\n      dup2\n      gt\n      iszero\n      tag_99\n      jumpi\n      tag_99\n      tag_100\n      jump\t// in\n    tag_99:\n      mload(0x40)\n      swap1\n      dup1\n      dup3\n      mstore\n      dup1\n      0x20\n      mul\n      0x20\n      add\n      dup3\n      add\n      0x40\n      mstore\n      dup1\n      iszero\n      tag_101\n      jumpi\n      dup2\n      0x20\n      add\n    tag_102:\n      0x60\n      dup2\n      mstore\n      0x20\n      add\n      swap1\n      0x01\n      swap1\n      sub\n      swap1\n      dup2\n      tag_102\n      jumpi\n      swap1\n      pop\n    tag_101:\n      pop\n        /* \"contracts/fraud-detector/libs/decode/msgDecoding.sol\":1506:1520  response.Proof */\n      0xe0\n      dup4\n      add\n        /* \"contracts/fraud-detector/libs/decode/msgDecoding.sol\":1506:1553  response.Proof = new bytes[](proofItems.length) */\n      mstore\n        /* \"contracts/fraud-detector/libs/decode/msgDecoding.sol\":1568:1577  uint256 i */\n      0x00\n        /* \"contracts/fraud-detector/libs/decode/msgDecoding.sol\":1563:1686  for (uint256 i = 0; i < proofItems.length; i++) {... */\n    tag_103:\n        /* \"contracts/fraud-detector/libs/decode/msgDecoding.sol\":1587:1597  proofItems */\n      dup2\n        /* \"contracts/fraud-detector/libs/decode/msgDecoding.sol\":1587:1604  proofItems.length */\n      mload\n        /* \"contracts/fraud-detector/libs/decode/msgDecoding.sol\":1583:1584  i */\n      dup2\n        /* \"contracts/fraud-detector/libs/decode/msgDecoding.sol\":1583:1604  i < proofItems.length */\n      lt\n        /* \"contracts/fraud-detector/libs/decode/msgDecoding.sol\":1563:1686  for (uint256 i = 0; i < proofItems.length; i++) {... */\n      iszero\n      tag_104\n      jumpi\n        /* \"contracts/fraud-detector/libs/decode/msgDecoding.sol\":1651:1674  proofItems[i].toBytes() */\n      tag_106\n        /* \"contracts/fraud-detector/libs/decode/msgDecoding.sol\":1651:1661  proofItems */\n      dup3\n        /* \"contracts/fraud-detector/libs/decode/msgDecoding.sol\":1662:1663  i */\n      dup3\n        /* \"contracts/fraud-detector/libs/decode/msgDecoding.sol\":1651:1664  proofItems[i] */\n      dup2\n      mload\n      dup2\n      lt\n      tag_71\n      jumpi\n      tag_71\n      tag_53\n      jump\t// in\n        /* \"contracts/fraud-detector/libs/decode/msgDecoding.sol\":1651:1674  proofItems[i].toBytes() */\n    tag_106:\n        /* \"contracts/fraud-detector/libs/decode/msgDecoding.sol\":1625:1633  response */\n      dup4\n        /* \"contracts/fraud-detector/libs/decode/msgDecoding.sol\":1625:1639  response.Proof */\n      0xe0\n      add\n      mload\n        /* \"contracts/fraud-detector/libs/decode/msgDecoding.sol\":1640:1641  i */\n      dup3\n        /* \"contracts/fraud-detector/libs/decode/msgDecoding.sol\":1625:1642  response.Proof[i] */\n      dup2\n      mload\n      dup2\n      lt\n      tag_110\n      jumpi\n      tag_110\n      tag_53\n      jump\t// in\n    tag_110:\n      0x20\n      swap1\n      dup2\n      mul\n      swap2\n      swap1\n      swap2\n      add\n      add\n        /* \"contracts/fraud-detector/libs/decode/msgDecoding.sol\":1625:1675  response.Proof[i] = bytes(proofItems[i].toBytes()) */\n      mstore\n        /* \"contracts/fraud-detector/libs/decode/msgDecoding.sol\":1606:1609  i++ */\n      0x01\n      add\n        /* \"contracts/fraud-detector/libs/decode/msgDecoding.sol\":1563:1686  for (uint256 i = 0; i < proofItems.length; i++) {... */\n      jump(tag_103)\n    tag_104:\n      pop\n        /* \"contracts/fraud-detector/libs/decode/msgDecoding.sol\":1768:1786  items[8].toBytes() */\n      tag_111\n        /* \"contracts/fraud-detector/libs/decode/msgDecoding.sol\":1768:1773  items */\n      dup4\n        /* \"contracts/fraud-detector/libs/decode/msgDecoding.sol\":1774:1775  8 */\n      0x08\n        /* \"contracts/fraud-detector/libs/decode/msgDecoding.sol\":1768:1776  items[8] */\n      dup2\n      mload\n      dup2\n      lt\n      tag_71\n      jumpi\n      tag_71\n      tag_53\n      jump\t// in\n        /* \"contracts/fraud-detector/libs/decode/msgDecoding.sol\":1768:1786  items[8].toBytes() */\n    tag_111:\n        /* \"contracts/fraud-detector/libs/decode/msgDecoding.sol\":1760:1787  bytes32(items[8].toBytes()) */\n      tag_114\n      swap1\n      tag_77\n      jump\t// in\n    tag_114:\n        /* \"contracts/fraud-detector/libs/decode/msgDecoding.sol\":1742:1757  response.TxHash */\n      0x0100\n      dup4\n      add\n        /* \"contracts/fraud-detector/libs/decode/msgDecoding.sol\":1742:1787  response.TxHash = bytes32(items[8].toBytes()) */\n      mstore\n        /* \"contracts/fraud-detector/libs/decode/msgDecoding.sol\":1859:1867  items[9] */\n      dup3\n      mload\n        /* \"contracts/fraud-detector/libs/decode/msgDecoding.sol\":1859:1877  items[9].toBytes() */\n      tag_115\n      swap1\n        /* \"contracts/fraud-detector/libs/decode/msgDecoding.sol\":1859:1864  items */\n      dup5\n      swap1\n        /* \"contracts/fraud-detector/libs/decode/msgDecoding.sol\":1865:1866  9 */\n      0x09\n      swap1\n        /* \"contracts/fraud-detector/libs/decode/msgDecoding.sol\":1859:1867  items[9] */\n      dup2\n      lt\n      tag_71\n      jumpi\n      tag_71\n      tag_53\n      jump\t// in\n        /* \"contracts/fraud-detector/libs/decode/msgDecoding.sol\":1859:1877  items[9].toBytes() */\n    tag_115:\n        /* \"contracts/fraud-detector/libs/decode/msgDecoding.sol\":1842:1850  response */\n      dup3\n        /* \"contracts/fraud-detector/libs/decode/msgDecoding.sol\":1842:1856  response.TxIdx */\n      0x0120\n      add\n        /* \"contracts/fraud-detector/libs/decode/msgDecoding.sol\":1842:1877  response.TxIdx = items[9].toBytes() */\n      dup2\n      swap1\n      mstore\n      pop\n        /* \"contracts/fraud-detector/libs/decode/msgDecoding.sol\":1956:1975  items[10].toBytes() */\n      tag_118\n        /* \"contracts/fraud-detector/libs/decode/msgDecoding.sol\":1956:1961  items */\n      dup4\n        /* \"contracts/fraud-detector/libs/decode/msgDecoding.sol\":1962:1964  10 */\n      0x0a\n        /* \"contracts/fraud-detector/libs/decode/msgDecoding.sol\":1956:1965  items[10] */\n      dup2\n      mload\n      dup2\n      lt\n      tag_71\n      jumpi\n      tag_71\n      tag_53\n      jump\t// in\n        /* \"contracts/fraud-detector/libs/decode/msgDecoding.sol\":1956:1975  items[10].toBytes() */\n    tag_118:\n        /* \"contracts/fraud-detector/libs/decode/msgDecoding.sol\":1935:1943  response */\n      dup3\n        /* \"contracts/fraud-detector/libs/decode/msgDecoding.sol\":1935:1953  response.Signature */\n      0x0140\n      add\n        /* \"contracts/fraud-detector/libs/decode/msgDecoding.sol\":1935:1975  response.Signature = items[10].toBytes() */\n      dup2\n      swap1\n      mstore\n      pop\n        /* \"contracts/fraud-detector/libs/decode/msgDecoding.sol\":2016:2035  items[11].toBytes() */\n      tag_121\n        /* \"contracts/fraud-detector/libs/decode/msgDecoding.sol\":2016:2021  items */\n      dup4\n        /* \"contracts/fraud-detector/libs/decode/msgDecoding.sol\":2022:2024  11 */\n      0x0b\n        /* \"contracts/fraud-detector/libs/decode/msgDecoding.sol\":2016:2025  items[11] */\n      dup2\n      mload\n      dup2\n      lt\n      tag_71\n      jumpi\n      tag_71\n      tag_53\n      jump\t// in\n        /* \"contracts/fraud-detector/libs/decode/msgDecoding.sol\":2016:2035  items[11].toBytes() */\n    tag_121:\n        /* \"contracts/fraud-detector/libs/decode/msgDecoding.sol\":2008:2036  bytes32(items[11].toBytes()) */\n      tag_124\n      swap1\n      tag_77\n      jump\t// in\n    tag_124:\n        /* \"contracts/fraud-detector/libs/decode/msgDecoding.sol\":1986:2005  response.TxRootHash */\n      0x0160\n      dup4\n      add\n        /* \"contracts/fraud-detector/libs/decode/msgDecoding.sol\":1986:2036  response.TxRootHash = bytes32(items[11].toBytes()) */\n      mstore\n        /* \"contracts/fraud-detector/libs/decode/msgDecoding.sol\":2152:2165  response.Type */\n      dup2\n      mload\n        /* \"contracts/fraud-detector/libs/decode/msgDecoding.sol\":2179:2197  response.ChannelId */\n      0x20\n      dup4\n      add\n      mload\n        /* \"contracts/fraud-detector/libs/decode/msgDecoding.sol\":2211:2226  response.Amount */\n      0x40\n      dup1\n      dup6\n      add\n      mload\n        /* \"contracts/fraud-detector/libs/decode/msgDecoding.sol\":2240:2260  response.ReqBodyHash */\n      0x60\n      dup7\n      add\n      mload\n        /* \"contracts/fraud-detector/libs/decode/msgDecoding.sol\":2274:2296  response.SignedReqBody */\n      0x80\n      dup8\n      add\n      mload\n        /* \"contracts/fraud-detector/libs/decode/msgDecoding.sol\":2310:2337  response.CurrentBlockHeight */\n      0xa0\n      dup9\n      add\n      mload\n        /* \"contracts/fraud-detector/libs/decode/msgDecoding.sol\":2351:2371  response.ReturnValue */\n      0xc0\n      dup10\n      add\n      mload\n        /* \"contracts/fraud-detector/libs/decode/msgDecoding.sol\":2385:2399  response.Proof */\n      0xe0\n      dup11\n      add\n      mload\n        /* \"contracts/fraud-detector/libs/decode/msgDecoding.sol\":2413:2428  response.TxHash */\n      0x0100\n      dup12\n      add\n      mload\n        /* \"contracts/fraud-detector/libs/decode/msgDecoding.sol\":2442:2456  response.TxIdx */\n      0x0120\n      dup13\n      add\n      mload\n        /* \"contracts/fraud-detector/libs/decode/msgDecoding.sol\":2470:2488  response.Signature */\n      0x0140\n      dup14\n      add\n      mload\n        /* \"contracts/fraud-detector/libs/decode/msgDecoding.sol\":2123:2498  DecodedResponse(... */\n      swap9\n      mload\n      0x90eee31558acfcfed6439516fb8d12f248b9aef0fa51dd84936c1256090643f0\n      swap12\n      tag_125\n      swap12\n        /* \"contracts/fraud-detector/libs/decode/msgDecoding.sol\":2152:2165  response.Type */\n      swap1\n      swap11\n        /* \"contracts/fraud-detector/libs/decode/msgDecoding.sol\":2179:2197  response.ChannelId */\n      swap1\n      swap10\n        /* \"contracts/fraud-detector/libs/decode/msgDecoding.sol\":2211:2226  response.Amount */\n      swap9\n        /* \"contracts/fraud-detector/libs/decode/msgDecoding.sol\":2240:2260  response.ReqBodyHash */\n      swap8\n        /* \"contracts/fraud-detector/libs/decode/msgDecoding.sol\":2274:2296  response.SignedReqBody */\n      swap7\n        /* \"contracts/fraud-detector/libs/decode/msgDecoding.sol\":2310:2337  response.CurrentBlockHeight */\n      swap6\n        /* \"contracts/fraud-detector/libs/decode/msgDecoding.sol\":2351:2371  response.ReturnValue */\n      swap5\n        /* \"contracts/fraud-detector/libs/decode/msgDecoding.sol\":2385:2399  response.Proof */\n      swap4\n        /* \"contracts/fraud-detector/libs/decode/msgDecoding.sol\":2413:2428  response.TxHash */\n      swap3\n        /* \"contracts/fraud-detector/libs/decode/msgDecoding.sol\":2442:2456  response.TxIdx */\n      swap2\n        /* \"contracts/fraud-detector/libs/decode/msgDecoding.sol\":2123:2498  DecodedResponse(... */\n      tag_126\n      jump\t// in\n    tag_125:\n      mload(0x40)\n      dup1\n      swap2\n      sub\n      swap1\n      log1\n        /* \"contracts/fraud-detector/libs/decode/msgDecoding.sol\":2509:2524  bytes32 resHash */\n      0x00\n        /* \"contracts/fraud-detector/libs/decode/msgDecoding.sol\":2527:2634  getMessageHash(response.ChannelId, response.Proof, response.TxHash, response.TxIdx, response.SignedReqBody) */\n      tag_127\n        /* \"contracts/fraud-detector/libs/decode/msgDecoding.sol\":2542:2550  response */\n      dup4\n        /* \"contracts/fraud-detector/libs/decode/msgDecoding.sol\":2542:2560  response.ChannelId */\n      0x20\n      add\n      mload\n        /* \"contracts/fraud-detector/libs/decode/msgDecoding.sol\":2562:2570  response */\n      dup5\n        /* \"contracts/fraud-detector/libs/decode/msgDecoding.sol\":2562:2576  response.Proof */\n      0xe0\n      add\n      mload\n        /* \"contracts/fraud-detector/libs/decode/msgDecoding.sol\":2578:2586  response */\n      dup6\n        /* \"contracts/fraud-detector/libs/decode/msgDecoding.sol\":2578:2593  response.TxHash */\n      0x0100\n      add\n      mload\n        /* \"contracts/fraud-detector/libs/decode/msgDecoding.sol\":2595:2603  response */\n      dup7\n        /* \"contracts/fraud-detector/libs/decode/msgDecoding.sol\":2595:2609  response.TxIdx */\n      0x0120\n      add\n      mload\n        /* \"contracts/fraud-detector/libs/decode/msgDecoding.sol\":2611:2619  response */\n      dup8\n        /* \"contracts/fraud-detector/libs/decode/msgDecoding.sol\":2611:2633  response.SignedReqBody */\n      0x80\n      add\n      mload\n        /* \"contracts/fraud-detector/libs/decode/msgDecoding.sol\":2527:2541  getMessageHash */\n      tag_30\n        /* \"contracts/fraud-detector/libs/decode/msgDecoding.sol\":2527:2634  getMessageHash(response.ChannelId, response.Proof, response.TxHash, response.TxIdx, response.SignedReqBody) */\n      jump\t// in\n    tag_127:\n        /* \"contracts/fraud-detector/libs/decode/msgDecoding.sol\":2509:2634  bytes32 resHash = getMessageHash(response.ChannelId, response.Proof, response.TxHash, response.TxIdx, response.SignedReqBody) */\n      swap1\n      pop\n        /* \"contracts/fraud-detector/libs/decode/msgDecoding.sol\":2649:2665  msgHash(resHash) */\n      0xf9a7ea37911815f4a89b25e48dc4ee38541a0e1128907411984b0a228788c879\n        /* \"contracts/fraud-detector/libs/decode/msgDecoding.sol\":2657:2664  resHash */\n      dup2\n        /* \"contracts/fraud-detector/libs/decode/msgDecoding.sol\":2649:2665  msgHash(resHash) */\n      mload(0x40)\n      tag_128\n      swap2\n        /* \"#utility.yul\":1823:1848   */\n      dup2\n      mstore\n        /* \"#utility.yul\":1811:1813   */\n      0x20\n        /* \"#utility.yul\":1796:1814   */\n      add\n      swap1\n        /* \"#utility.yul\":1669:1854   */\n      jump\n        /* \"contracts/fraud-detector/libs/decode/msgDecoding.sol\":2649:2665  msgHash(resHash) */\n    tag_128:\n      mload(0x40)\n      dup1\n      swap2\n      sub\n      swap1\n      log1\n        /* \"contracts/fraud-detector/libs/decode/msgDecoding.sol\":2684:2692  response */\n      swap2\n      swap7\n        /* \"contracts/fraud-detector/libs/decode/msgDecoding.sol\":2694:2701  resHash */\n      swap2\n      swap6\n      pop\n        /* \"contracts/fraud-detector/libs/decode/msgDecoding.sol\":276:2709  function decodeResponse(bytes memory res) external returns (ResponseMsg memory, bytes32) {... */\n      swap1\n      swap4\n      pop\n      pop\n      pop\n      pop\n      jump\t// out\n        /* \"contracts/fraud-detector/libs/decode/msgDecoding.sol\":2715:3383  function getMessageHash(... */\n    tag_30:\n        /* \"contracts/fraud-detector/libs/decode/msgDecoding.sol\":2906:2913  bytes32 */\n      0x00\n        /* \"contracts/fraud-detector/libs/decode/msgDecoding.sol\":3026:3048  reqByte(SignedReqBody) */\n      0x5dcadceca961b7159cec0e118986188b438287559ed58b29a762182b22a52cad\n        /* \"contracts/fraud-detector/libs/decode/msgDecoding.sol\":3034:3047  SignedReqBody */\n      dup3\n        /* \"contracts/fraud-detector/libs/decode/msgDecoding.sol\":3026:3048  reqByte(SignedReqBody) */\n      mload(0x40)\n      tag_131\n      swap2\n      swap1\n      tag_132\n      jump\t// in\n    tag_131:\n      mload(0x40)\n      dup1\n      swap2\n      sub\n      swap1\n      log1\n        /* \"contracts/fraud-detector/libs/decode/msgDecoding.sol\":3058:3081  bytes memory proofBytes */\n      0x60\n        /* \"contracts/fraud-detector/libs/decode/msgDecoding.sol\":3096:3105  uint256 i */\n      0x00\n        /* \"contracts/fraud-detector/libs/decode/msgDecoding.sol\":3091:3210  for (uint256 i = 0; i < Proof.length; i++) {... */\n    tag_133:\n        /* \"contracts/fraud-detector/libs/decode/msgDecoding.sol\":3115:3120  Proof */\n      dup7\n        /* \"contracts/fraud-detector/libs/decode/msgDecoding.sol\":3115:3127  Proof.length */\n      mload\n        /* \"contracts/fraud-detector/libs/decode/msgDecoding.sol\":3111:3112  i */\n      dup2\n        /* \"contracts/fraud-detector/libs/decode/msgDecoding.sol\":3111:3127  i < Proof.length */\n      lt\n        /* \"contracts/fraud-detector/libs/decode/msgDecoding.sol\":3091:3210  for (uint256 i = 0; i < Proof.length; i++) {... */\n      iszero\n      tag_134\n      jumpi\n        /* \"contracts/fraud-detector/libs/decode/msgDecoding.sol\":3178:3188  proofBytes */\n      dup2\n        /* \"contracts/fraud-detector/libs/decode/msgDecoding.sol\":3190:3195  Proof */\n      dup8\n        /* \"contracts/fraud-detector/libs/decode/msgDecoding.sol\":3196:3197  i */\n      dup3\n        /* \"contracts/fraud-detector/libs/decode/msgDecoding.sol\":3190:3198  Proof[i] */\n      dup2\n      mload\n      dup2\n      lt\n      tag_137\n      jumpi\n      tag_137\n      tag_53\n      jump\t// in\n    tag_137:\n      0x20\n      mul\n      0x20\n      add\n      add\n      mload\n        /* \"contracts/fraud-detector/libs/decode/msgDecoding.sol\":3161:3199  abi.encodePacked(proofBytes, Proof[i]) */\n      add(0x20, mload(0x40))\n      tag_138\n      swap3\n      swap2\n      swap1\n      tag_55\n      jump\t// in\n    tag_138:\n      0x40\n      dup1\n      mload\n      not(0x1f)\n      dup2\n      dup5\n      sub\n      add\n      dup2\n      mstore\n      swap2\n      swap1\n      mstore\n      swap2\n      pop\n        /* \"contracts/fraud-detector/libs/decode/msgDecoding.sol\":3129:3132  i++ */\n      0x01\n      add\n        /* \"contracts/fraud-detector/libs/decode/msgDecoding.sol\":3091:3210  for (uint256 i = 0; i < Proof.length; i++) {... */\n      jump(tag_133)\n    tag_134:\n      pop\n        /* \"contracts/fraud-detector/libs/decode/msgDecoding.sol\":3266:3275  ChannelId */\n      dup7\n        /* \"contracts/fraud-detector/libs/decode/msgDecoding.sol\":3289:3302  SignedReqBody */\n      dup4\n        /* \"contracts/fraud-detector/libs/decode/msgDecoding.sol\":3316:3326  proofBytes */\n      dup3\n        /* \"contracts/fraud-detector/libs/decode/msgDecoding.sol\":3340:3346  TxHash */\n      dup8\n        /* \"contracts/fraud-detector/libs/decode/msgDecoding.sol\":3360:3365  TxIdx */\n      dup8\n        /* \"contracts/fraud-detector/libs/decode/msgDecoding.sol\":3236:3375  abi.encodePacked(... */\n      add(0x20, mload(0x40))\n      tag_56\n      swap6\n      swap5\n      swap4\n      swap3\n      swap2\n      swap1\n      tag_140\n      jump\t// in\n        /* \"contracts/fraud-detector/libs/decode/msgDecoding.sol\":5113:7105  function decodeResponseSP(bytes memory encodedMsg) public returns (ResponseSPMsg memory, bytes32) {... */\n    tag_35:\n        /* \"contracts/fraud-detector/libs/decode/msgDecoding.sol\":5180:5200  ResponseSPMsg memory */\n      tag_141\n      tag_142\n      jump\t// in\n    tag_141:\n        /* \"contracts/fraud-detector/libs/decode/msgDecoding.sol\":5202:5209  bytes32 */\n      0x00\n        /* \"contracts/fraud-detector/libs/decode/msgDecoding.sol\":5260:5292  RLPReader.RLPItem[] memory items */\n      dup1\n        /* \"contracts/fraud-detector/libs/decode/msgDecoding.sol\":5295:5326  encodedMsg.toRlpItem().toList() */\n      tag_144\n        /* \"contracts/fraud-detector/libs/decode/msgDecoding.sol\":5295:5317  encodedMsg.toRlpItem() */\n      tag_62\n        /* \"contracts/fraud-detector/libs/decode/msgDecoding.sol\":5295:5305  encodedMsg */\n      dup6\n      0x40\n      dup1\n      mload\n      dup1\n      dup3\n      add\n      dup3\n      mstore\n      0x00\n      dup1\n      dup3\n      mstore\n      0x20\n      swap2\n      dup3\n      add\n      mstore\n        /* \"contracts/fraud-detector/libs/rlp/RLPReader.sol\":1699:1727  RLPItem(item.length, memPtr) */\n      dup2\n      mload\n      dup1\n      dup4\n      add\n      swap1\n      swap3\n      mstore\n        /* \"contracts/fraud-detector/libs/rlp/RLPReader.sol\":1707:1718  item.length */\n      dup3\n      mload\n        /* \"contracts/fraud-detector/libs/rlp/RLPReader.sol\":1699:1727  RLPItem(item.length, memPtr) */\n      dup3\n      mstore\n        /* \"contracts/fraud-detector/libs/rlp/RLPReader.sol\":1657:1672  add(item, 0x20) */\n      swap2\n      dup3\n      add\n        /* \"contracts/fraud-detector/libs/rlp/RLPReader.sol\":1699:1727  RLPItem(item.length, memPtr) */\n      swap2\n      dup2\n      add\n      swap2\n      swap1\n      swap2\n      mstore\n      swap1\n        /* \"contracts/fraud-detector/libs/rlp/RLPReader.sol\":1513:1734  function toRlpItem(bytes memory item) internal pure returns (RLPItem memory) {... */\n      jump\n        /* \"contracts/fraud-detector/libs/decode/msgDecoding.sol\":5295:5326  encodedMsg.toRlpItem().toList() */\n    tag_144:\n        /* \"contracts/fraud-detector/libs/decode/msgDecoding.sol\":5260:5326  RLPReader.RLPItem[] memory items = encodedMsg.toRlpItem().toList() */\n      swap1\n      pop\n        /* \"contracts/fraud-detector/libs/decode/msgDecoding.sol\":5392:5397  items */\n      dup1\n        /* \"contracts/fraud-detector/libs/decode/msgDecoding.sol\":5392:5404  items.length */\n      mload\n        /* \"contracts/fraud-detector/libs/decode/msgDecoding.sol\":5408:5410  11 */\n      0x0b\n        /* \"contracts/fraud-detector/libs/decode/msgDecoding.sol\":5392:5410  items.length == 11 */\n      eq\n        /* \"contracts/fraud-detector/libs/decode/msgDecoding.sol\":5384:5461  require(items.length == 11, \"Incorrect number of fields in RLP encoded data\") */\n      tag_146\n      jumpi\n      mload(0x40)\n      shl(0xe5, 0x461bcd)\n      dup2\n      mstore\n      0x04\n      add\n      tag_66\n      swap1\n      tag_67\n      jump\t// in\n    tag_146:\n        /* \"contracts/fraud-detector/libs/decode/msgDecoding.sol\":5472:5503  ResponseSPMsg memory responseSP */\n      tag_148\n      tag_142\n      jump\t// in\n    tag_148:\n        /* \"contracts/fraud-detector/libs/decode/msgDecoding.sol\":5564:5582  items[0].toBytes() */\n      tag_149\n        /* \"contracts/fraud-detector/libs/decode/msgDecoding.sol\":5564:5569  items */\n      dup3\n        /* \"contracts/fraud-detector/libs/decode/msgDecoding.sol\":5570:5571  0 */\n      0x00\n        /* \"contracts/fraud-detector/libs/decode/msgDecoding.sol\":5564:5572  items[0] */\n      dup2\n      mload\n      dup2\n      lt\n      tag_71\n      jumpi\n      tag_71\n      tag_53\n      jump\t// in\n        /* \"contracts/fraud-detector/libs/decode/msgDecoding.sol\":5564:5582  items[0].toBytes() */\n    tag_149:\n        /* \"contracts/fraud-detector/libs/decode/msgDecoding.sol\":5539:5583  responseSP.Type = string(items[0].toBytes()) */\n      dup2\n      mstore\n        /* \"contracts/fraud-detector/libs/decode/msgDecoding.sol\":5624:5632  items[1] */\n      dup2\n      mload\n        /* \"contracts/fraud-detector/libs/decode/msgDecoding.sol\":5624:5642  items[1].toBytes() */\n      tag_152\n      swap1\n        /* \"contracts/fraud-detector/libs/decode/msgDecoding.sol\":5624:5629  items */\n      dup4\n      swap1\n        /* \"contracts/fraud-detector/libs/decode/msgDecoding.sol\":5630:5631  1 */\n      0x01\n      swap1\n        /* \"contracts/fraud-detector/libs/decode/msgDecoding.sol\":5624:5632  items[1] */\n      dup2\n      lt\n      tag_71\n      jumpi\n      tag_71\n      tag_53\n      jump\t// in\n        /* \"contracts/fraud-detector/libs/decode/msgDecoding.sol\":5624:5642  items[1].toBytes() */\n    tag_152:\n        /* \"contracts/fraud-detector/libs/decode/msgDecoding.sol\":5616:5643  bytes32(items[1].toBytes()) */\n      tag_155\n      swap1\n      tag_77\n      jump\t// in\n    tag_155:\n        /* \"contracts/fraud-detector/libs/decode/msgDecoding.sol\":5593:5613  responseSP.ChannelId */\n      0x20\n      dup3\n      add\n        /* \"contracts/fraud-detector/libs/decode/msgDecoding.sol\":5593:5643  responseSP.ChannelId = bytes32(items[1].toBytes()) */\n      mstore\n        /* \"contracts/fraud-detector/libs/decode/msgDecoding.sol\":5673:5681  items[2] */\n      dup2\n      mload\n        /* \"contracts/fraud-detector/libs/decode/msgDecoding.sol\":5673:5690  items[2].toUint() */\n      tag_156\n      swap1\n        /* \"contracts/fraud-detector/libs/decode/msgDecoding.sol\":5673:5678  items */\n      dup4\n      swap1\n        /* \"contracts/fraud-detector/libs/decode/msgDecoding.sol\":5679:5680  2 */\n      0x02\n      swap1\n        /* \"contracts/fraud-detector/libs/decode/msgDecoding.sol\":5673:5681  items[2] */\n      dup2\n      lt\n      tag_80\n      jumpi\n      tag_80\n      tag_53\n      jump\t// in\n        /* \"contracts/fraud-detector/libs/decode/msgDecoding.sol\":5673:5690  items[2].toUint() */\n    tag_156:\n        /* \"contracts/fraud-detector/libs/decode/msgDecoding.sol\":5653:5670  responseSP.Amount */\n      0x40\n      dup3\n      add\n        /* \"contracts/fraud-detector/libs/decode/msgDecoding.sol\":5653:5690  responseSP.Amount = items[2].toUint() */\n      mstore\n        /* \"contracts/fraud-detector/libs/decode/msgDecoding.sol\":5733:5741  items[3] */\n      dup2\n      mload\n        /* \"contracts/fraud-detector/libs/decode/msgDecoding.sol\":5733:5751  items[3].toBytes() */\n      tag_159\n      swap1\n        /* \"contracts/fraud-detector/libs/decode/msgDecoding.sol\":5733:5738  items */\n      dup4\n      swap1\n        /* \"contracts/fraud-detector/libs/decode/msgDecoding.sol\":5739:5740  3 */\n      0x03\n      swap1\n        /* \"contracts/fraud-detector/libs/decode/msgDecoding.sol\":5733:5741  items[3] */\n      dup2\n      lt\n      tag_71\n      jumpi\n      tag_71\n      tag_53\n      jump\t// in\n        /* \"contracts/fraud-detector/libs/decode/msgDecoding.sol\":5733:5751  items[3].toBytes() */\n    tag_159:\n        /* \"contracts/fraud-detector/libs/decode/msgDecoding.sol\":5725:5752  bytes32(items[3].toBytes()) */\n      tag_162\n      swap1\n      tag_77\n      jump\t// in\n    tag_162:\n        /* \"contracts/fraud-detector/libs/decode/msgDecoding.sol\":5700:5722  responseSP.ReqBodyHash */\n      0x60\n      dup3\n      add\n        /* \"contracts/fraud-detector/libs/decode/msgDecoding.sol\":5700:5752  responseSP.ReqBodyHash = bytes32(items[3].toBytes()) */\n      mstore\n        /* \"contracts/fraud-detector/libs/decode/msgDecoding.sol\":5789:5797  items[4] */\n      dup2\n      mload\n        /* \"contracts/fraud-detector/libs/decode/msgDecoding.sol\":5789:5807  items[4].toBytes() */\n      tag_163\n      swap1\n        /* \"contracts/fraud-detector/libs/decode/msgDecoding.sol\":5789:5794  items */\n      dup4\n      swap1\n        /* \"contracts/fraud-detector/libs/decode/msgDecoding.sol\":5795:5796  4 */\n      0x04\n      swap1\n        /* \"contracts/fraud-detector/libs/decode/msgDecoding.sol\":5789:5797  items[4] */\n      dup2\n      lt\n      tag_71\n      jumpi\n      tag_71\n      tag_53\n      jump\t// in\n        /* \"contracts/fraud-detector/libs/decode/msgDecoding.sol\":5789:5807  items[4].toBytes() */\n    tag_163:\n        /* \"contracts/fraud-detector/libs/decode/msgDecoding.sol\":5762:5772  responseSP */\n      dup2\n        /* \"contracts/fraud-detector/libs/decode/msgDecoding.sol\":5762:5786  responseSP.SignedReqBody */\n      0x80\n      add\n        /* \"contracts/fraud-detector/libs/decode/msgDecoding.sol\":5762:5807  responseSP.SignedReqBody = items[4].toBytes() */\n      dup2\n      swap1\n      mstore\n      pop\n        /* \"contracts/fraud-detector/libs/decode/msgDecoding.sol\":5849:5866  items[5].toUint() */\n      tag_166\n        /* \"contracts/fraud-detector/libs/decode/msgDecoding.sol\":5849:5854  items */\n      dup3\n        /* \"contracts/fraud-detector/libs/decode/msgDecoding.sol\":5855:5856  5 */\n      0x05\n        /* \"contracts/fraud-detector/libs/decode/msgDecoding.sol\":5849:5857  items[5] */\n      dup2\n      mload\n      dup2\n      lt\n      tag_80\n      jumpi\n      tag_80\n      tag_53\n      jump\t// in\n        /* \"contracts/fraud-detector/libs/decode/msgDecoding.sol\":5849:5866  items[5].toUint() */\n    tag_166:\n        /* \"contracts/fraud-detector/libs/decode/msgDecoding.sol\":5817:5846  responseSP.CurrentBlockHeight */\n      0xa0\n      dup3\n      add\n        /* \"contracts/fraud-detector/libs/decode/msgDecoding.sol\":5817:5866  responseSP.CurrentBlockHeight = items[5].toUint() */\n      mstore\n        /* \"contracts/fraud-detector/libs/decode/msgDecoding.sol\":5901:5909  items[6] */\n      dup2\n      mload\n        /* \"contracts/fraud-detector/libs/decode/msgDecoding.sol\":5901:5919  items[6].toBytes() */\n      tag_169\n      swap1\n        /* \"contracts/fraud-detector/libs/decode/msgDecoding.sol\":5901:5906  items */\n      dup4\n      swap1\n        /* \"contracts/fraud-detector/libs/decode/msgDecoding.sol\":5907:5908  6 */\n      0x06\n      swap1\n        /* \"contracts/fraud-detector/libs/decode/msgDecoding.sol\":5901:5909  items[6] */\n      dup2\n      lt\n      tag_71\n      jumpi\n      tag_71\n      tag_53\n      jump\t// in\n        /* \"contracts/fraud-detector/libs/decode/msgDecoding.sol\":5901:5919  items[6].toBytes() */\n    tag_169:\n        /* \"contracts/fraud-detector/libs/decode/msgDecoding.sol\":5876:5886  responseSP */\n      dup2\n        /* \"contracts/fraud-detector/libs/decode/msgDecoding.sol\":5876:5898  responseSP.ReturnValue */\n      0xc0\n      add\n        /* \"contracts/fraud-detector/libs/decode/msgDecoding.sol\":5876:5919  responseSP.ReturnValue = items[6].toBytes() */\n      dup2\n      swap1\n      mstore\n      pop\n        /* \"contracts/fraud-detector/libs/decode/msgDecoding.sol\":5989:6026  RLPReader.RLPItem[] memory proofItems */\n      0x00\n        /* \"contracts/fraud-detector/libs/decode/msgDecoding.sol\":6029:6046  items[7].toList() */\n      tag_172\n        /* \"contracts/fraud-detector/libs/decode/msgDecoding.sol\":6029:6034  items */\n      dup4\n        /* \"contracts/fraud-detector/libs/decode/msgDecoding.sol\":6035:6036  7 */\n      0x07\n        /* \"contracts/fraud-detector/libs/decode/msgDecoding.sol\":6029:6037  items[7] */\n      dup2\n      mload\n      dup2\n      lt\n      tag_97\n      jumpi\n      tag_97\n      tag_53\n      jump\t// in\n        /* \"contracts/fraud-detector/libs/decode/msgDecoding.sol\":6029:6046  items[7].toList() */\n    tag_172:\n        /* \"contracts/fraud-detector/libs/decode/msgDecoding.sol\":5989:6046  RLPReader.RLPItem[] memory proofItems = items[7].toList() */\n      swap1\n      pop\n        /* \"contracts/fraud-detector/libs/decode/msgDecoding.sol\":6087:6097  proofItems */\n      dup1\n        /* \"contracts/fraud-detector/libs/decode/msgDecoding.sol\":6087:6104  proofItems.length */\n      mload\n      sub(shl(0x40, 0x01), 0x01)\n        /* \"contracts/fraud-detector/libs/decode/msgDecoding.sol\":6075:6105  new bytes[](proofItems.length) */\n      dup2\n      gt\n      iszero\n      tag_176\n      jumpi\n      tag_176\n      tag_100\n      jump\t// in\n    tag_176:\n      mload(0x40)\n      swap1\n      dup1\n      dup3\n      mstore\n      dup1\n      0x20\n      mul\n      0x20\n      add\n      dup3\n      add\n      0x40\n      mstore\n      dup1\n      iszero\n      tag_177\n      jumpi\n      dup2\n      0x20\n      add\n    tag_178:\n      0x60\n      dup2\n      mstore\n      0x20\n      add\n      swap1\n      0x01\n      swap1\n      sub\n      swap1\n      dup2\n      tag_178\n      jumpi\n      swap1\n      pop\n    tag_177:\n      pop\n        /* \"contracts/fraud-detector/libs/decode/msgDecoding.sol\":6056:6072  responseSP.Proof */\n      0xe0\n      dup4\n      add\n        /* \"contracts/fraud-detector/libs/decode/msgDecoding.sol\":6056:6105  responseSP.Proof = new bytes[](proofItems.length) */\n      mstore\n        /* \"contracts/fraud-detector/libs/decode/msgDecoding.sol\":6120:6129  uint256 i */\n      0x00\n        /* \"contracts/fraud-detector/libs/decode/msgDecoding.sol\":6115:6233  for (uint256 i = 0; i < proofItems.length; i++) {... */\n    tag_179:\n        /* \"contracts/fraud-detector/libs/decode/msgDecoding.sol\":6139:6149  proofItems */\n      dup2\n        /* \"contracts/fraud-detector/libs/decode/msgDecoding.sol\":6139:6156  proofItems.length */\n      mload\n        /* \"contracts/fraud-detector/libs/decode/msgDecoding.sol\":6135:6136  i */\n      dup2\n        /* \"contracts/fraud-detector/libs/decode/msgDecoding.sol\":6135:6156  i < proofItems.length */\n      lt\n        /* \"contracts/fraud-detector/libs/decode/msgDecoding.sol\":6115:6233  for (uint256 i = 0; i < proofItems.length; i++) {... */\n      iszero\n      tag_180\n      jumpi\n        /* \"contracts/fraud-detector/libs/decode/msgDecoding.sol\":6199:6222  proofItems[i].toBytes() */\n      tag_182\n        /* \"contracts/fraud-detector/libs/decode/msgDecoding.sol\":6199:6209  proofItems */\n      dup3\n        /* \"contracts/fraud-detector/libs/decode/msgDecoding.sol\":6210:6211  i */\n      dup3\n        /* \"contracts/fraud-detector/libs/decode/msgDecoding.sol\":6199:6212  proofItems[i] */\n      dup2\n      mload\n      dup2\n      lt\n      tag_71\n      jumpi\n      tag_71\n      tag_53\n      jump\t// in\n        /* \"contracts/fraud-detector/libs/decode/msgDecoding.sol\":6199:6222  proofItems[i].toBytes() */\n    tag_182:\n        /* \"contracts/fraud-detector/libs/decode/msgDecoding.sol\":6177:6187  responseSP */\n      dup4\n        /* \"contracts/fraud-detector/libs/decode/msgDecoding.sol\":6177:6193  responseSP.Proof */\n      0xe0\n      add\n      mload\n        /* \"contracts/fraud-detector/libs/decode/msgDecoding.sol\":6194:6195  i */\n      dup3\n        /* \"contracts/fraud-detector/libs/decode/msgDecoding.sol\":6177:6196  responseSP.Proof[i] */\n      dup2\n      mload\n      dup2\n      lt\n      tag_186\n      jumpi\n      tag_186\n      tag_53\n      jump\t// in\n    tag_186:\n      0x20\n      swap1\n      dup2\n      mul\n      swap2\n      swap1\n      swap2\n      add\n      add\n        /* \"contracts/fraud-detector/libs/decode/msgDecoding.sol\":6177:6222  responseSP.Proof[i] = proofItems[i].toBytes() */\n      mstore\n        /* \"contracts/fraud-detector/libs/decode/msgDecoding.sol\":6158:6161  i++ */\n      0x01\n      add\n        /* \"contracts/fraud-detector/libs/decode/msgDecoding.sol\":6115:6233  for (uint256 i = 0; i < proofItems.length; i++) {... */\n      jump(tag_179)\n    tag_180:\n      pop\n        /* \"contracts/fraud-detector/libs/decode/msgDecoding.sol\":6264:6282  items[8].toBytes() */\n      tag_187\n        /* \"contracts/fraud-detector/libs/decode/msgDecoding.sol\":6264:6269  items */\n      dup4\n        /* \"contracts/fraud-detector/libs/decode/msgDecoding.sol\":6270:6271  8 */\n      0x08\n        /* \"contracts/fraud-detector/libs/decode/msgDecoding.sol\":6264:6272  items[8] */\n      dup2\n      mload\n      dup2\n      lt\n      tag_71\n      jumpi\n      tag_71\n      tag_53\n      jump\t// in\n        /* \"contracts/fraud-detector/libs/decode/msgDecoding.sol\":6264:6282  items[8].toBytes() */\n    tag_187:\n        /* \"contracts/fraud-detector/libs/decode/msgDecoding.sol\":6243:6253  responseSP */\n      dup3\n        /* \"contracts/fraud-detector/libs/decode/msgDecoding.sol\":6243:6261  responseSP.Address */\n      0x0100\n      add\n        /* \"contracts/fraud-detector/libs/decode/msgDecoding.sol\":6243:6282  responseSP.Address = items[8].toBytes() */\n      dup2\n      swap1\n      mstore\n      pop\n        /* \"contracts/fraud-detector/libs/decode/msgDecoding.sol\":6366:6384  items[9].toBytes() */\n      tag_190\n        /* \"contracts/fraud-detector/libs/decode/msgDecoding.sol\":6366:6371  items */\n      dup4\n        /* \"contracts/fraud-detector/libs/decode/msgDecoding.sol\":6372:6373  9 */\n      0x09\n        /* \"contracts/fraud-detector/libs/decode/msgDecoding.sol\":6366:6374  items[9] */\n      dup2\n      mload\n      dup2\n      lt\n      tag_71\n      jumpi\n      tag_71\n      tag_53\n      jump\t// in\n        /* \"contracts/fraud-detector/libs/decode/msgDecoding.sol\":6366:6384  items[9].toBytes() */\n    tag_190:\n        /* \"contracts/fraud-detector/libs/decode/msgDecoding.sol\":6343:6353  responseSP */\n      dup3\n        /* \"contracts/fraud-detector/libs/decode/msgDecoding.sol\":6343:6363  responseSP.Signature */\n      0x0120\n      add\n        /* \"contracts/fraud-detector/libs/decode/msgDecoding.sol\":6343:6384  responseSP.Signature = items[9].toBytes() */\n      dup2\n      swap1\n      mstore\n      pop\n        /* \"contracts/fraud-detector/libs/decode/msgDecoding.sol\":6426:6445  items[10].toBytes() */\n      tag_193\n        /* \"contracts/fraud-detector/libs/decode/msgDecoding.sol\":6426:6431  items */\n      dup4\n        /* \"contracts/fraud-detector/libs/decode/msgDecoding.sol\":6432:6434  10 */\n      0x0a\n        /* \"contracts/fraud-detector/libs/decode/msgDecoding.sol\":6426:6435  items[10] */\n      dup2\n      mload\n      dup2\n      lt\n      tag_71\n      jumpi\n      tag_71\n      tag_53\n      jump\t// in\n        /* \"contracts/fraud-detector/libs/decode/msgDecoding.sol\":6426:6445  items[10].toBytes() */\n    tag_193:\n        /* \"contracts/fraud-detector/libs/decode/msgDecoding.sol\":6418:6446  bytes32(items[10].toBytes()) */\n      tag_196\n      swap1\n      tag_77\n      jump\t// in\n    tag_196:\n        /* \"contracts/fraud-detector/libs/decode/msgDecoding.sol\":6394:6415  responseSP.TxRootHash */\n      0x0140\n      dup4\n      add\n        /* \"contracts/fraud-detector/libs/decode/msgDecoding.sol\":6394:6446  responseSP.TxRootHash = bytes32(items[10].toBytes()) */\n      mstore\n        /* \"contracts/fraud-detector/libs/decode/msgDecoding.sol\":6493:6508  responseSP.Type */\n      dup2\n      mload\n        /* \"contracts/fraud-detector/libs/decode/msgDecoding.sol\":6522:6542  responseSP.ChannelId */\n      0x20\n      dup4\n      add\n      mload\n        /* \"contracts/fraud-detector/libs/decode/msgDecoding.sol\":6556:6573  responseSP.Amount */\n      0x40\n      dup1\n      dup6\n      add\n      mload\n        /* \"contracts/fraud-detector/libs/decode/msgDecoding.sol\":6587:6609  responseSP.ReqBodyHash */\n      0x60\n      dup7\n      add\n      mload\n        /* \"contracts/fraud-detector/libs/decode/msgDecoding.sol\":6623:6647  responseSP.SignedReqBody */\n      0x80\n      dup8\n      add\n      mload\n        /* \"contracts/fraud-detector/libs/decode/msgDecoding.sol\":6661:6690  responseSP.CurrentBlockHeight */\n      0xa0\n      dup9\n      add\n      mload\n        /* \"contracts/fraud-detector/libs/decode/msgDecoding.sol\":6704:6726  responseSP.ReturnValue */\n      0xc0\n      dup10\n      add\n      mload\n        /* \"contracts/fraud-detector/libs/decode/msgDecoding.sol\":6740:6756  responseSP.Proof */\n      0xe0\n      dup11\n      add\n      mload\n        /* \"contracts/fraud-detector/libs/decode/msgDecoding.sol\":6770:6788  responseSP.Address */\n      0x0100\n      dup12\n      add\n      mload\n        /* \"contracts/fraud-detector/libs/decode/msgDecoding.sol\":6837:6857  responseSP.Signature */\n      0x0120\n      dup13\n      add\n      mload\n        /* \"contracts/fraud-detector/libs/decode/msgDecoding.sol\":6462:6867  DecodedResponseSP(... */\n      swap8\n      mload\n      0xe5fda43f81ac665889dc77778f276a13836ee131965d49e6cdd827ea35343f15\n      swap11\n      tag_197\n      swap11\n        /* \"contracts/fraud-detector/libs/decode/msgDecoding.sol\":6493:6508  responseSP.Type */\n      swap1\n      swap10\n        /* \"contracts/fraud-detector/libs/decode/msgDecoding.sol\":6522:6542  responseSP.ChannelId */\n      swap1\n      swap9\n        /* \"contracts/fraud-detector/libs/decode/msgDecoding.sol\":6556:6573  responseSP.Amount */\n      swap8\n        /* \"contracts/fraud-detector/libs/decode/msgDecoding.sol\":6587:6609  responseSP.ReqBodyHash */\n      swap7\n        /* \"contracts/fraud-detector/libs/decode/msgDecoding.sol\":6623:6647  responseSP.SignedReqBody */\n      swap6\n        /* \"contracts/fraud-detector/libs/decode/msgDecoding.sol\":6661:6690  responseSP.CurrentBlockHeight */\n      swap5\n        /* \"contracts/fraud-detector/libs/decode/msgDecoding.sol\":6704:6726  responseSP.ReturnValue */\n      swap4\n        /* \"contracts/fraud-detector/libs/decode/msgDecoding.sol\":6740:6756  responseSP.Proof */\n      swap3\n        /* \"contracts/fraud-detector/libs/decode/msgDecoding.sol\":6770:6788  responseSP.Address */\n      swap2\n        /* \"contracts/fraud-detector/libs/decode/msgDecoding.sol\":6462:6867  DecodedResponseSP(... */\n      tag_198\n      jump\t// in\n    tag_197:\n      mload(0x40)\n      dup1\n      swap2\n      sub\n      swap1\n      log1\n        /* \"contracts/fraud-detector/libs/decode/msgDecoding.sol\":6878:6893  bytes32 resHash */\n      0x00\n        /* \"contracts/fraud-detector/libs/decode/msgDecoding.sol\":6896:7029  getMessageHashSP(responseSP.ChannelId, responseSP.Proof, responseSP.SignedReqBody, responseSP.Address, responseSP.CurrentBlockHeight) */\n      tag_127\n        /* \"contracts/fraud-detector/libs/decode/msgDecoding.sol\":6913:6923  responseSP */\n      dup4\n        /* \"contracts/fraud-detector/libs/decode/msgDecoding.sol\":6913:6933  responseSP.ChannelId */\n      0x20\n      add\n      mload\n        /* \"contracts/fraud-detector/libs/decode/msgDecoding.sol\":6935:6945  responseSP */\n      dup5\n        /* \"contracts/fraud-detector/libs/decode/msgDecoding.sol\":6935:6951  responseSP.Proof */\n      0xe0\n      add\n      mload\n        /* \"contracts/fraud-detector/libs/decode/msgDecoding.sol\":6953:6963  responseSP */\n      dup6\n        /* \"contracts/fraud-detector/libs/decode/msgDecoding.sol\":6953:6977  responseSP.SignedReqBody */\n      0x80\n      add\n      mload\n        /* \"contracts/fraud-detector/libs/decode/msgDecoding.sol\":6979:6989  responseSP */\n      dup7\n        /* \"contracts/fraud-detector/libs/decode/msgDecoding.sol\":6979:6997  responseSP.Address */\n      0x0100\n      add\n      mload\n        /* \"contracts/fraud-detector/libs/decode/msgDecoding.sol\":6999:7009  responseSP */\n      dup8\n        /* \"contracts/fraud-detector/libs/decode/msgDecoding.sol\":6999:7028  responseSP.CurrentBlockHeight */\n      0xa0\n      add\n      mload\n        /* \"contracts/fraud-detector/libs/decode/msgDecoding.sol\":6896:6912  getMessageHashSP */\n      tag_17\n        /* \"contracts/fraud-detector/libs/decode/msgDecoding.sol\":6896:7029  getMessageHashSP(responseSP.ChannelId, responseSP.Proof, responseSP.SignedReqBody, responseSP.Address, responseSP.CurrentBlockHeight) */\n      jump\t// in\n        /* \"contracts/fraud-detector/libs/decode/msgDecoding.sol\":3389:4771  function decodeRequest(bytes memory serializedReqBody) public returns(RequestBody memory, bytes32) {... */\n    tag_41:\n      0x40\n      dup1\n      mload\n      0x80\n      dup2\n      add\n      dup3\n      mstore\n      0x00\n      dup1\n      dup3\n      mstore\n      0x20\n      dup1\n      dup4\n      add\n      dup3\n      swap1\n      mstore\n      dup3\n      dup5\n      add\n      dup3\n      swap1\n      mstore\n      0x60\n      dup1\n      dup5\n      add\n      mstore\n      dup4\n      mload\n      dup1\n      dup6\n      add\n      dup6\n      mstore\n      dup3\n      dup2\n      mstore\n      dup2\n      add\n      dup3\n      swap1\n      mstore\n        /* \"contracts/fraud-detector/libs/rlp/RLPReader.sol\":1699:1727  RLPItem(item.length, memPtr) */\n      dup4\n      mload\n      dup1\n      dup6\n      add\n      swap1\n      swap5\n      mstore\n        /* \"contracts/fraud-detector/libs/rlp/RLPReader.sol\":1707:1718  item.length */\n      dup5\n      mload\n        /* \"contracts/fraud-detector/libs/rlp/RLPReader.sol\":1699:1727  RLPItem(item.length, memPtr) */\n      dup5\n      mstore\n        /* \"contracts/fraud-detector/libs/rlp/RLPReader.sol\":1657:1672  add(item, 0x20) */\n      dup5\n      dup2\n      add\n        /* \"contracts/fraud-detector/libs/rlp/RLPReader.sol\":1699:1727  RLPItem(item.length, memPtr) */\n      swap1\n      dup5\n      add\n      mstore\n      swap1\n      swap2\n      dup2\n      swap1\n        /* \"contracts/fraud-detector/libs/decode/msgDecoding.sol\":3533:3571  serializedReqBody.toRlpItem().toList() */\n      tag_204\n      swap1\n        /* \"contracts/fraud-detector/libs/decode/msgDecoding.sol\":456:478  res.toRlpItem().toList */\n      tag_64\n        /* \"contracts/fraud-detector/libs/decode/msgDecoding.sol\":456:480  res.toRlpItem().toList() */\n      jump\t// in\n        /* \"contracts/fraud-detector/libs/decode/msgDecoding.sol\":3533:3571  serializedReqBody.toRlpItem().toList() */\n    tag_204:\n        /* \"contracts/fraud-detector/libs/decode/msgDecoding.sol\":3498:3571  RLPReader.RLPItem[] memory items = serializedReqBody.toRlpItem().toList() */\n      swap1\n      pop\n        /* \"contracts/fraud-detector/libs/decode/msgDecoding.sol\":3693:3698  items */\n      dup1\n        /* \"contracts/fraud-detector/libs/decode/msgDecoding.sol\":3693:3705  items.length */\n      mload\n        /* \"contracts/fraud-detector/libs/decode/msgDecoding.sol\":3709:3710  4 */\n      0x04\n        /* \"contracts/fraud-detector/libs/decode/msgDecoding.sol\":3693:3710  items.length == 4 */\n      eq\n        /* \"contracts/fraud-detector/libs/decode/msgDecoding.sol\":3685:3761  require(items.length == 4, \"Incorrect number of fields in RLP encoded data\") */\n      tag_206\n      jumpi\n      mload(0x40)\n      shl(0xe5, 0x461bcd)\n      dup2\n      mstore\n      0x04\n      add\n      tag_66\n      swap1\n      tag_67\n      jump\t// in\n    tag_206:\n      0x40\n      dup1\n      mload\n      0x80\n      dup2\n      add\n      dup3\n      mstore\n      0x00\n      dup1\n      dup3\n      mstore\n      0x20\n      dup3\n      add\n      dup2\n      swap1\n      mstore\n      swap2\n      dup2\n      add\n      swap2\n      swap1\n      swap2\n      mstore\n      0x60\n      dup1\n      dup3\n      add\n      mstore\n        /* \"contracts/fraud-detector/libs/decode/msgDecoding.sol\":4047:4065  items[0].toBytes() */\n      tag_209\n        /* \"contracts/fraud-detector/libs/decode/msgDecoding.sol\":4047:4052  items */\n      dup3\n        /* \"contracts/fraud-detector/libs/decode/msgDecoding.sol\":4053:4054  0 */\n      0x00\n        /* \"contracts/fraud-detector/libs/decode/msgDecoding.sol\":4047:4055  items[0] */\n      dup2\n      mload\n      dup2\n      lt\n      tag_71\n      jumpi\n      tag_71\n      tag_53\n      jump\t// in\n        /* \"contracts/fraud-detector/libs/decode/msgDecoding.sol\":4047:4065  items[0].toBytes() */\n    tag_209:\n        /* \"contracts/fraud-detector/libs/decode/msgDecoding.sol\":4039:4066  bytes32(items[0].toBytes()) */\n      tag_212\n      swap1\n      tag_77\n      jump\t// in\n    tag_212:\n        /* \"contracts/fraud-detector/libs/decode/msgDecoding.sol\":4019:4066  reqBody.ChannelId = bytes32(items[0].toBytes()) */\n      dup2\n      mstore\n        /* \"contracts/fraud-detector/libs/decode/msgDecoding.sol\":4147:4155  items[1] */\n      dup2\n      mload\n        /* \"contracts/fraud-detector/libs/decode/msgDecoding.sol\":4147:4164  items[1].toUint() */\n      tag_213\n      swap1\n        /* \"contracts/fraud-detector/libs/decode/msgDecoding.sol\":4147:4152  items */\n      dup4\n      swap1\n        /* \"contracts/fraud-detector/libs/decode/msgDecoding.sol\":4153:4154  1 */\n      0x01\n      swap1\n        /* \"contracts/fraud-detector/libs/decode/msgDecoding.sol\":4147:4155  items[1] */\n      dup2\n      lt\n      tag_80\n      jumpi\n      tag_80\n      tag_53\n      jump\t// in\n        /* \"contracts/fraud-detector/libs/decode/msgDecoding.sol\":4147:4164  items[1].toUint() */\n    tag_213:\n        /* \"contracts/fraud-detector/libs/decode/msgDecoding.sol\":4130:4144  reqBody.Amount */\n      0x20\n      dup3\n      dup2\n      add\n        /* \"contracts/fraud-detector/libs/decode/msgDecoding.sol\":4130:4164  reqBody.Amount = items[1].toUint() */\n      dup3\n      swap1\n      mstore\n        /* \"contracts/fraud-detector/libs/decode/msgDecoding.sol\":4179:4205  emitAmount(reqBody.Amount) */\n      mload(0x40)\n        /* \"#utility.yul\":1823:1848   */\n      swap2\n      dup3\n      mstore\n        /* \"contracts/fraud-detector/libs/decode/msgDecoding.sol\":4179:4205  emitAmount(reqBody.Amount) */\n      0x245716014a178144670148ec993e73f5f2cbc96529afa0b8fbe731b4a74566bc\n      swap2\n        /* \"#utility.yul\":1796:1814   */\n      add\n        /* \"contracts/fraud-detector/libs/decode/msgDecoding.sol\":4179:4205  emitAmount(reqBody.Amount) */\n      mload(0x40)\n      dup1\n      swap2\n      sub\n      swap1\n      log1\n        /* \"contracts/fraud-detector/libs/decode/msgDecoding.sol\":4318:4336  items[2].toBytes() */\n      tag_218\n        /* \"contracts/fraud-detector/libs/decode/msgDecoding.sol\":4318:4323  items */\n      dup3\n        /* \"contracts/fraud-detector/libs/decode/msgDecoding.sol\":4324:4325  2 */\n      0x02\n        /* \"contracts/fraud-detector/libs/decode/msgDecoding.sol\":4318:4326  items[2] */\n      dup2\n      mload\n      dup2\n      lt\n      tag_71\n      jumpi\n      tag_71\n      tag_53\n      jump\t// in\n        /* \"contracts/fraud-detector/libs/decode/msgDecoding.sol\":4318:4336  items[2].toBytes() */\n    tag_218:\n        /* \"contracts/fraud-detector/libs/decode/msgDecoding.sol\":4310:4337  bytes32(items[2].toBytes()) */\n      tag_221\n      swap1\n      tag_77\n      jump\t// in\n    tag_221:\n        /* \"contracts/fraud-detector/libs/decode/msgDecoding.sol\":4285:4307  reqBody.LocalBlockHash */\n      0x40\n      dup3\n      dup2\n      add\n        /* \"contracts/fraud-detector/libs/decode/msgDecoding.sol\":4285:4337  reqBody.LocalBlockHash = bytes32(items[2].toBytes()) */\n      dup3\n      swap1\n      mstore\n        /* \"contracts/fraud-detector/libs/decode/msgDecoding.sol\":4352:4394  emitLocalBlockHash(reqBody.LocalBlockHash) */\n      mload\n        /* \"#utility.yul\":1823:1848   */\n      swap1\n      dup2\n      mstore\n        /* \"contracts/fraud-detector/libs/decode/msgDecoding.sol\":4352:4394  emitLocalBlockHash(reqBody.LocalBlockHash) */\n      0xb7cfa42c424e0e7e35ff08e6ea1cf2789fec94621f570d48f844b82582a4b8ec\n      swap1\n        /* \"#utility.yul\":1811:1813   */\n      0x20\n        /* \"#utility.yul\":1796:1814   */\n      add\n        /* \"contracts/fraud-detector/libs/decode/msgDecoding.sol\":4352:4394  emitLocalBlockHash(reqBody.LocalBlockHash) */\n      mload(0x40)\n      dup1\n      swap2\n      sub\n      swap1\n      log1\n        /* \"contracts/fraud-detector/libs/decode/msgDecoding.sol\":4424:4442  items[3].toBytes() */\n      tag_223\n        /* \"contracts/fraud-detector/libs/decode/msgDecoding.sol\":4424:4429  items */\n      dup3\n        /* \"contracts/fraud-detector/libs/decode/msgDecoding.sol\":4430:4431  3 */\n      0x03\n        /* \"contracts/fraud-detector/libs/decode/msgDecoding.sol\":4424:4432  items[3] */\n      dup2\n      mload\n      dup2\n      lt\n      tag_71\n      jumpi\n      tag_71\n      tag_53\n      jump\t// in\n        /* \"contracts/fraud-detector/libs/decode/msgDecoding.sol\":4424:4442  items[3].toBytes() */\n    tag_223:\n        /* \"contracts/fraud-detector/libs/decode/msgDecoding.sol\":4405:4421  reqBody.ReqBytes */\n      0x60\n      dup3\n      add\n        /* \"contracts/fraud-detector/libs/decode/msgDecoding.sol\":4405:4442  reqBody.ReqBytes = items[3].toBytes() */\n      dup2\n      swap1\n      mstore\n        /* \"contracts/fraud-detector/libs/decode/msgDecoding.sol\":4473:4490  reqBody.ChannelId */\n      dup2\n      mload\n        /* \"contracts/fraud-detector/libs/decode/msgDecoding.sol\":4492:4506  reqBody.Amount */\n      0x20\n      dup4\n      add\n      mload\n        /* \"contracts/fraud-detector/libs/decode/msgDecoding.sol\":4508:4530  reqBody.LocalBlockHash */\n      0x40\n      dup1\n      dup6\n      add\n      mload\n        /* \"contracts/fraud-detector/libs/decode/msgDecoding.sol\":4550:4562  items.length */\n      dup7\n      mload\n        /* \"contracts/fraud-detector/libs/decode/msgDecoding.sol\":4459:4563  DecodeRequest(reqBody.ChannelId, reqBody.Amount, reqBody.LocalBlockHash, reqBody.ReqBytes, items.length) */\n      swap2\n      mload\n      0xa690c9f86196602d7fd3dd6934f38b29ee9bd564d1a89bb5d3372ae964f0d537\n      swap6\n      tag_226\n      swap6\n        /* \"contracts/fraud-detector/libs/decode/msgDecoding.sol\":4473:4490  reqBody.ChannelId */\n      swap5\n        /* \"contracts/fraud-detector/libs/decode/msgDecoding.sol\":4492:4506  reqBody.Amount */\n      swap4\n        /* \"contracts/fraud-detector/libs/decode/msgDecoding.sol\":4405:4442  reqBody.ReqBytes = items[3].toBytes() */\n      swap1\n      swap2\n        /* \"contracts/fraud-detector/libs/decode/msgDecoding.sol\":4459:4563  DecodeRequest(reqBody.ChannelId, reqBody.Amount, reqBody.LocalBlockHash, reqBody.ReqBytes, items.length) */\n      tag_227\n      jump\t// in\n    tag_226:\n      mload(0x40)\n      dup1\n      swap2\n      sub\n      swap1\n      log1\n        /* \"contracts/fraud-detector/libs/decode/msgDecoding.sol\":4574:4593  bytes32 messageHash */\n      0x00\n        /* \"contracts/fraud-detector/libs/decode/msgDecoding.sol\":4596:4690  getReqMessageHash(reqBody.ChannelId, reqBody.Amount, reqBody.LocalBlockHash, reqBody.ReqBytes) */\n      tag_228\n        /* \"contracts/fraud-detector/libs/decode/msgDecoding.sol\":4614:4621  reqBody */\n      dup3\n        /* \"contracts/fraud-detector/libs/decode/msgDecoding.sol\":4614:4631  reqBody.ChannelId */\n      0x00\n      add\n      mload\n        /* \"contracts/fraud-detector/libs/decode/msgDecoding.sol\":4633:4640  reqBody */\n      dup4\n        /* \"contracts/fraud-detector/libs/decode/msgDecoding.sol\":4633:4647  reqBody.Amount */\n      0x20\n      add\n      mload\n        /* \"contracts/fraud-detector/libs/decode/msgDecoding.sol\":4649:4656  reqBody */\n      dup5\n        /* \"contracts/fraud-detector/libs/decode/msgDecoding.sol\":4649:4671  reqBody.LocalBlockHash */\n      0x40\n      add\n      mload\n        /* \"contracts/fraud-detector/libs/decode/msgDecoding.sol\":4673:4680  reqBody */\n      dup6\n        /* \"contracts/fraud-detector/libs/decode/msgDecoding.sol\":4673:4689  reqBody.ReqBytes */\n      0x60\n      add\n      mload\n        /* \"contracts/fraud-detector/libs/decode/msgDecoding.sol\":4596:4613  getReqMessageHash */\n      tag_11\n        /* \"contracts/fraud-detector/libs/decode/msgDecoding.sol\":4596:4690  getReqMessageHash(reqBody.ChannelId, reqBody.Amount, reqBody.LocalBlockHash, reqBody.ReqBytes) */\n      jump\t// in\n    tag_228:\n        /* \"contracts/fraud-detector/libs/decode/msgDecoding.sol\":4574:4690  bytes32 messageHash = getReqMessageHash(reqBody.ChannelId, reqBody.Amount, reqBody.LocalBlockHash, reqBody.ReqBytes) */\n      swap1\n      pop\n        /* \"contracts/fraud-detector/libs/decode/msgDecoding.sol\":4705:4725  msgHash(messageHash) */\n      0xf9a7ea37911815f4a89b25e48dc4ee38541a0e1128907411984b0a228788c879\n        /* \"contracts/fraud-detector/libs/decode/msgDecoding.sol\":4713:4724  messageHash */\n      dup2\n        /* \"contracts/fraud-detector/libs/decode/msgDecoding.sol\":4705:4725  msgHash(messageHash) */\n      mload(0x40)\n      tag_229\n      swap2\n        /* \"#utility.yul\":1823:1848   */\n      dup2\n      mstore\n        /* \"#utility.yul\":1811:1813   */\n      0x20\n        /* \"#utility.yul\":1796:1814   */\n      add\n      swap1\n        /* \"#utility.yul\":1669:1854   */\n      jump\n        /* \"contracts/fraud-detector/libs/decode/msgDecoding.sol\":4705:4725  msgHash(messageHash) */\n    tag_229:\n      mload(0x40)\n      dup1\n      swap2\n      sub\n      swap1\n      log1\n        /* \"contracts/fraud-detector/libs/decode/msgDecoding.sol\":4743:4750  reqBody */\n      swap1\n      swap6\n        /* \"contracts/fraud-detector/libs/decode/msgDecoding.sol\":4752:4763  messageHash */\n      swap1\n      swap5\n      pop\n        /* \"contracts/fraud-detector/libs/decode/msgDecoding.sol\":3389:4771  function decodeRequest(bytes memory serializedReqBody) public returns(RequestBody memory, bytes32) {... */\n      swap3\n      pop\n      pop\n      pop\n      jump\t// out\n        /* \"contracts/fraud-detector/libs/rlp/RLPReader.sol\":2946:3465  function toList(RLPItem memory item) internal pure returns (RLPItem[] memory) {... */\n    tag_64:\n        /* \"contracts/fraud-detector/libs/rlp/RLPReader.sol\":3006:3022  RLPItem[] memory */\n      0x60\n        /* \"contracts/fraud-detector/libs/rlp/RLPReader.sol\":3042:3054  isList(item) */\n      tag_234\n        /* \"contracts/fraud-detector/libs/rlp/RLPReader.sol\":3049:3053  item */\n      dup3\n        /* \"contracts/fraud-detector/libs/rlp/RLPReader.sol\":3042:3048  isList */\n      tag_235\n        /* \"contracts/fraud-detector/libs/rlp/RLPReader.sol\":3042:3054  isList(item) */\n      jump\t// in\n    tag_234:\n        /* \"contracts/fraud-detector/libs/rlp/RLPReader.sol\":3034:3055  require(isList(item)) */\n      tag_236\n      jumpi\n      0x00\n      dup1\n      revert\n    tag_236:\n        /* \"contracts/fraud-detector/libs/rlp/RLPReader.sol\":3066:3079  uint256 items */\n      0x00\n        /* \"contracts/fraud-detector/libs/rlp/RLPReader.sol\":3082:3096  numItems(item) */\n      tag_237\n        /* \"contracts/fraud-detector/libs/rlp/RLPReader.sol\":3091:3095  item */\n      dup4\n        /* \"contracts/fraud-detector/libs/rlp/RLPReader.sol\":3082:3090  numItems */\n      tag_238\n        /* \"contracts/fraud-detector/libs/rlp/RLPReader.sol\":3082:3096  numItems(item) */\n      jump\t// in\n    tag_237:\n        /* \"contracts/fraud-detector/libs/rlp/RLPReader.sol\":3066:3096  uint256 items = numItems(item) */\n      swap1\n      pop\n        /* \"contracts/fraud-detector/libs/rlp/RLPReader.sol\":3106:3129  RLPItem[] memory result */\n      0x00\n        /* \"contracts/fraud-detector/libs/rlp/RLPReader.sol\":3146:3151  items */\n      dup2\n      sub(shl(0x40, 0x01), 0x01)\n        /* \"contracts/fraud-detector/libs/rlp/RLPReader.sol\":3132:3152  new RLPItem[](items) */\n      dup2\n      gt\n      iszero\n      tag_240\n      jumpi\n      tag_240\n      tag_100\n      jump\t// in\n    tag_240:\n      mload(0x40)\n      swap1\n      dup1\n      dup3\n      mstore\n      dup1\n      0x20\n      mul\n      0x20\n      add\n      dup3\n      add\n      0x40\n      mstore\n      dup1\n      iszero\n      tag_241\n      jumpi\n      dup2\n      0x20\n      add\n    tag_242:\n      0x40\n      dup1\n      mload\n      dup1\n      dup3\n      add\n      swap1\n      swap2\n      mstore\n      0x00\n      dup1\n      dup3\n      mstore\n      0x20\n      dup3\n      add\n      mstore\n      dup2\n      mstore\n      0x20\n      add\n      swap1\n      0x01\n      swap1\n      sub\n      swap1\n      dup2\n      tag_242\n      jumpi\n      swap1\n      pop\n    tag_241:\n      pop\n        /* \"contracts/fraud-detector/libs/rlp/RLPReader.sol\":3106:3152  RLPItem[] memory result = new RLPItem[](items) */\n      swap1\n      pop\n        /* \"contracts/fraud-detector/libs/rlp/RLPReader.sol\":3163:3177  uint256 memPtr */\n      0x00\n        /* \"contracts/fraud-detector/libs/rlp/RLPReader.sol\":3194:3221  _payloadOffset(item.memPtr) */\n      tag_244\n        /* \"contracts/fraud-detector/libs/rlp/RLPReader.sol\":3209:3213  item */\n      dup6\n        /* \"contracts/fraud-detector/libs/rlp/RLPReader.sol\":3209:3220  item.memPtr */\n      0x20\n      add\n      mload\n        /* \"contracts/fraud-detector/libs/rlp/RLPReader.sol\":3194:3208  _payloadOffset */\n      tag_245\n        /* \"contracts/fraud-detector/libs/rlp/RLPReader.sol\":3194:3221  _payloadOffset(item.memPtr) */\n      jump\t// in\n    tag_244:\n        /* \"contracts/fraud-detector/libs/rlp/RLPReader.sol\":3180:3184  item */\n      dup6\n        /* \"contracts/fraud-detector/libs/rlp/RLPReader.sol\":3180:3191  item.memPtr */\n      0x20\n      add\n      mload\n        /* \"contracts/fraud-detector/libs/rlp/RLPReader.sol\":3180:3221  item.memPtr + _payloadOffset(item.memPtr) */\n      tag_246\n      swap2\n      swap1\n      tag_247\n      jump\t// in\n    tag_246:\n        /* \"contracts/fraud-detector/libs/rlp/RLPReader.sol\":3163:3221  uint256 memPtr = item.memPtr + _payloadOffset(item.memPtr) */\n      swap1\n      pop\n        /* \"contracts/fraud-detector/libs/rlp/RLPReader.sol\":3231:3246  uint256 dataLen */\n      0x00\n      dup1\n        /* \"contracts/fraud-detector/libs/rlp/RLPReader.sol\":3256:3435  for (uint256 i = 0; i < items; i++) {... */\n    tag_248:\n        /* \"contracts/fraud-detector/libs/rlp/RLPReader.sol\":3280:3285  items */\n      dup5\n        /* \"contracts/fraud-detector/libs/rlp/RLPReader.sol\":3276:3277  i */\n      dup2\n        /* \"contracts/fraud-detector/libs/rlp/RLPReader.sol\":3276:3285  i < items */\n      lt\n        /* \"contracts/fraud-detector/libs/rlp/RLPReader.sol\":3256:3435  for (uint256 i = 0; i < items; i++) {... */\n      iszero\n      tag_249\n      jumpi\n        /* \"contracts/fraud-detector/libs/rlp/RLPReader.sol\":3316:3335  _itemLength(memPtr) */\n      tag_251\n        /* \"contracts/fraud-detector/libs/rlp/RLPReader.sol\":3328:3334  memPtr */\n      dup4\n        /* \"contracts/fraud-detector/libs/rlp/RLPReader.sol\":3316:3327  _itemLength */\n      tag_252\n        /* \"contracts/fraud-detector/libs/rlp/RLPReader.sol\":3316:3335  _itemLength(memPtr) */\n      jump\t// in\n    tag_251:\n        /* \"contracts/fraud-detector/libs/rlp/RLPReader.sol\":3306:3335  dataLen = _itemLength(memPtr) */\n      swap2\n      pop\n        /* \"contracts/fraud-detector/libs/rlp/RLPReader.sol\":3361:3385  RLPItem(dataLen, memPtr) */\n      mload(0x40)\n      dup1\n      0x40\n      add\n      0x40\n      mstore\n      dup1\n        /* \"contracts/fraud-detector/libs/rlp/RLPReader.sol\":3369:3376  dataLen */\n      dup4\n        /* \"contracts/fraud-detector/libs/rlp/RLPReader.sol\":3361:3385  RLPItem(dataLen, memPtr) */\n      dup2\n      mstore\n      0x20\n      add\n        /* \"contracts/fraud-detector/libs/rlp/RLPReader.sol\":3378:3384  memPtr */\n      dup5\n        /* \"contracts/fraud-detector/libs/rlp/RLPReader.sol\":3361:3385  RLPItem(dataLen, memPtr) */\n      dup2\n      mstore\n      pop\n        /* \"contracts/fraud-detector/libs/rlp/RLPReader.sol\":3349:3355  result */\n      dup5\n        /* \"contracts/fraud-detector/libs/rlp/RLPReader.sol\":3356:3357  i */\n      dup3\n        /* \"contracts/fraud-detector/libs/rlp/RLPReader.sol\":3349:3358  result[i] */\n      dup2\n      mload\n      dup2\n      lt\n      tag_254\n      jumpi\n      tag_254\n      tag_53\n      jump\t// in\n    tag_254:\n      0x20\n      swap1\n      dup2\n      mul\n      swap2\n      swap1\n      swap2\n      add\n      add\n        /* \"contracts/fraud-detector/libs/rlp/RLPReader.sol\":3349:3385  result[i] = RLPItem(dataLen, memPtr) */\n      mstore\n        /* \"contracts/fraud-detector/libs/rlp/RLPReader.sol\":3408:3424  memPtr + dataLen */\n      tag_255\n        /* \"contracts/fraud-detector/libs/rlp/RLPReader.sol\":3417:3424  dataLen */\n      dup3\n        /* \"contracts/fraud-detector/libs/rlp/RLPReader.sol\":3408:3414  memPtr */\n      dup5\n        /* \"contracts/fraud-detector/libs/rlp/RLPReader.sol\":3408:3424  memPtr + dataLen */\n      tag_247\n      jump\t// in\n    tag_255:\n        /* \"contracts/fraud-detector/libs/rlp/RLPReader.sol\":3399:3424  memPtr = memPtr + dataLen */\n      swap3\n      pop\n        /* \"contracts/fraud-detector/libs/rlp/RLPReader.sol\":3287:3290  i++ */\n      0x01\n      add\n        /* \"contracts/fraud-detector/libs/rlp/RLPReader.sol\":3256:3435  for (uint256 i = 0; i < items; i++) {... */\n      jump(tag_248)\n    tag_249:\n      pop\n        /* \"contracts/fraud-detector/libs/rlp/RLPReader.sol\":3452:3458  result */\n      swap2\n      swap6\n        /* \"contracts/fraud-detector/libs/rlp/RLPReader.sol\":2946:3465  function toList(RLPItem memory item) internal pure returns (RLPItem[] memory) {... */\n      swap5\n      pop\n      pop\n      pop\n      pop\n      pop\n      jump\t// out\n        /* \"contracts/fraud-detector/libs/rlp/RLPReader.sol\":6857:7236  function toBytes(RLPItem memory item) internal pure returns (bytes memory) {... */\n    tag_72:\n        /* \"contracts/fraud-detector/libs/rlp/RLPReader.sol\":6950:6958  item.len */\n      dup1\n      mload\n        /* \"contracts/fraud-detector/libs/rlp/RLPReader.sol\":6918:6930  bytes memory */\n      0x60\n      swap1\n        /* \"contracts/fraud-detector/libs/rlp/RLPReader.sol\":6942:6963  require(item.len > 0) */\n      tag_257\n      jumpi\n      0x00\n      dup1\n      revert\n    tag_257:\n        /* \"contracts/fraud-detector/libs/rlp/RLPReader.sol\":6975:6989  uint256 memPtr */\n      0x00\n        /* \"contracts/fraud-detector/libs/rlp/RLPReader.sol\":6991:7002  uint256 len */\n      dup1\n        /* \"contracts/fraud-detector/libs/rlp/RLPReader.sol\":7006:7027  payloadLocation(item) */\n      tag_258\n        /* \"contracts/fraud-detector/libs/rlp/RLPReader.sol\":7022:7026  item */\n      dup5\n        /* \"contracts/fraud-detector/libs/rlp/RLPReader.sol\":7006:7021  payloadLocation */\n      tag_259\n        /* \"contracts/fraud-detector/libs/rlp/RLPReader.sol\":7006:7027  payloadLocation(item) */\n      jump\t// in\n    tag_258:\n        /* \"contracts/fraud-detector/libs/rlp/RLPReader.sol\":6974:7027  (uint256 memPtr, uint256 len) = payloadLocation(item) */\n      swap2\n      pop\n      swap2\n      pop\n        /* \"contracts/fraud-detector/libs/rlp/RLPReader.sol\":7037:7056  bytes memory result */\n      0x00\n        /* \"contracts/fraud-detector/libs/rlp/RLPReader.sol\":7069:7072  len */\n      dup2\n      sub(shl(0x40, 0x01), 0x01)\n        /* \"contracts/fraud-detector/libs/rlp/RLPReader.sol\":7059:7073  new bytes(len) */\n      dup2\n      gt\n      iszero\n      tag_261\n      jumpi\n      tag_261\n      tag_100\n      jump\t// in\n    tag_261:\n      mload(0x40)\n      swap1\n      dup1\n      dup3\n      mstore\n      dup1\n      0x1f\n      add\n      not(0x1f)\n      and\n      0x20\n      add\n      dup3\n      add\n      0x40\n      mstore\n      dup1\n      iszero\n      tag_262\n      jumpi\n      0x20\n      dup3\n      add\n      dup2\n      dup1\n      calldatasize\n      dup4\n      calldatacopy\n      add\n      swap1\n      pop\n    tag_262:\n      pop\n        /* \"contracts/fraud-detector/libs/rlp/RLPReader.sol\":7037:7073  bytes memory result = new bytes(len) */\n      swap1\n      pop\n        /* \"contracts/fraud-detector/libs/rlp/RLPReader.sol\":7147:7151  0x20 */\n      0x20\n        /* \"contracts/fraud-detector/libs/rlp/RLPReader.sol\":7143:7160  add(0x20, result) */\n      dup2\n      add\n        /* \"contracts/fraud-detector/libs/rlp/RLPReader.sol\":7180:7206  copy(memPtr, destPtr, len) */\n      tag_263\n        /* \"contracts/fraud-detector/libs/rlp/RLPReader.sol\":7185:7191  memPtr */\n      dup5\n        /* \"contracts/fraud-detector/libs/rlp/RLPReader.sol\":7143:7160  add(0x20, result) */\n      dup3\n        /* \"contracts/fraud-detector/libs/rlp/RLPReader.sol\":7202:7205  len */\n      dup6\n        /* \"contracts/fraud-detector/libs/rlp/RLPReader.sol\":7180:7184  copy */\n      tag_264\n        /* \"contracts/fraud-detector/libs/rlp/RLPReader.sol\":7180:7206  copy(memPtr, destPtr, len) */\n      jump\t// in\n    tag_263:\n      pop\n        /* \"contracts/fraud-detector/libs/rlp/RLPReader.sol\":7223:7229  result */\n      swap5\n        /* \"contracts/fraud-detector/libs/rlp/RLPReader.sol\":6857:7236  function toBytes(RLPItem memory item) internal pure returns (bytes memory) {... */\n      swap4\n      pop\n      pop\n      pop\n      pop\n      jump\t// out\n        /* \"contracts/fraud-detector/libs/rlp/RLPReader.sol\":6049:6516  function toUint(RLPItem memory item) internal pure returns (uint256) {... */\n    tag_81:\n        /* \"contracts/fraud-detector/libs/rlp/RLPReader.sol\":6136:6144  item.len */\n      dup1\n      mload\n        /* \"contracts/fraud-detector/libs/rlp/RLPReader.sol\":6109:6116  uint256 */\n      0x00\n      swap1\n        /* \"contracts/fraud-detector/libs/rlp/RLPReader.sol\":6136:6148  item.len > 0 */\n      iszero\n      dup1\n      iszero\n      swap1\n        /* \"contracts/fraud-detector/libs/rlp/RLPReader.sol\":6136:6166  item.len > 0 && item.len <= 33 */\n      tag_266\n      jumpi\n      pop\n        /* \"contracts/fraud-detector/libs/rlp/RLPReader.sol\":6152:6160  item.len */\n      dup2\n      mload\n        /* \"contracts/fraud-detector/libs/rlp/RLPReader.sol\":6164:6166  33 */\n      0x21\n      lt\n        /* \"contracts/fraud-detector/libs/rlp/RLPReader.sol\":6152:6166  item.len <= 33 */\n      iszero\n        /* \"contracts/fraud-detector/libs/rlp/RLPReader.sol\":6136:6166  item.len > 0 && item.len <= 33 */\n    tag_266:\n        /* \"contracts/fraud-detector/libs/rlp/RLPReader.sol\":6128:6167  require(item.len > 0 && item.len <= 33) */\n      tag_267\n      jumpi\n      0x00\n      dup1\n      revert\n    tag_267:\n        /* \"contracts/fraud-detector/libs/rlp/RLPReader.sol\":6179:6193  uint256 memPtr */\n      0x00\n        /* \"contracts/fraud-detector/libs/rlp/RLPReader.sol\":6195:6206  uint256 len */\n      dup1\n        /* \"contracts/fraud-detector/libs/rlp/RLPReader.sol\":6210:6231  payloadLocation(item) */\n      tag_268\n        /* \"contracts/fraud-detector/libs/rlp/RLPReader.sol\":6226:6230  item */\n      dup5\n        /* \"contracts/fraud-detector/libs/rlp/RLPReader.sol\":6210:6225  payloadLocation */\n      tag_259\n        /* \"contracts/fraud-detector/libs/rlp/RLPReader.sol\":6210:6231  payloadLocation(item) */\n      jump\t// in\n    tag_268:\n        /* \"contracts/fraud-detector/libs/rlp/RLPReader.sol\":6299:6312  mload(memPtr) */\n      dup2\n      mload\n        /* \"contracts/fraud-detector/libs/rlp/RLPReader.sol\":6178:6231  (uint256 memPtr, uint256 len) = payloadLocation(item) */\n      swap2\n      swap4\n      pop\n      swap2\n      pop\n        /* \"contracts/fraud-detector/libs/rlp/RLPReader.sol\":6395:6397  32 */\n      0x20\n        /* \"contracts/fraud-detector/libs/rlp/RLPReader.sol\":6387:6398  lt(len, 32) */\n      dup3\n      lt\n        /* \"contracts/fraud-detector/libs/rlp/RLPReader.sol\":6384:6476  if lt(len, 32) {... */\n      iszero\n      tag_269\n      jumpi\n        /* \"contracts/fraud-detector/libs/rlp/RLPReader.sol\":6452:6454  32 */\n      0x20\n        /* \"contracts/fraud-detector/libs/rlp/RLPReader.sol\":6448:6460  sub(32, len) */\n      dup3\n      swap1\n      sub\n        /* \"contracts/fraud-detector/libs/rlp/RLPReader.sol\":6443:6446  256 */\n      0x0100\n        /* \"contracts/fraud-detector/libs/rlp/RLPReader.sol\":6439:6461  exp(256, sub(32, len)) */\n      exp\n        /* \"contracts/fraud-detector/libs/rlp/RLPReader.sol\":6427:6462  div(result, exp(256, sub(32, len))) */\n      swap1\n      div\n        /* \"contracts/fraud-detector/libs/rlp/RLPReader.sol\":6384:6476  if lt(len, 32) {... */\n    tag_269:\n        /* \"contracts/fraud-detector/libs/rlp/RLPReader.sol\":6503:6509  result */\n      swap5\n        /* \"contracts/fraud-detector/libs/rlp/RLPReader.sol\":6049:6516  function toUint(RLPItem memory item) internal pure returns (uint256) {... */\n      swap4\n      pop\n      pop\n      pop\n      pop\n      jump\t// out\n        /* \"contracts/fraud-detector/libs/rlp/RLPReader.sol\":3569:3890  function isList(RLPItem memory item) internal pure returns (bool) {... */\n    tag_235:\n        /* \"contracts/fraud-detector/libs/rlp/RLPReader.sol\":3649:3657  item.len */\n      dup1\n      mload\n        /* \"contracts/fraud-detector/libs/rlp/RLPReader.sol\":3629:3633  bool */\n      0x00\n      swap1\n        /* \"contracts/fraud-detector/libs/rlp/RLPReader.sol\":3649:3662  item.len == 0 */\n      dup2\n      sub\n        /* \"contracts/fraud-detector/libs/rlp/RLPReader.sol\":3645:3676  if (item.len == 0) return false */\n      tag_271\n      jumpi\n      pop\n        /* \"contracts/fraud-detector/libs/rlp/RLPReader.sol\":3671:3676  false */\n      0x00\n      swap2\n        /* \"contracts/fraud-detector/libs/rlp/RLPReader.sol\":3569:3890  function isList(RLPItem memory item) internal pure returns (bool) {... */\n      swap1\n      pop\n      jump\t// out\n        /* \"contracts/fraud-detector/libs/rlp/RLPReader.sol\":3645:3676  if (item.len == 0) return false */\n    tag_271:\n        /* \"contracts/fraud-detector/libs/rlp/RLPReader.sol\":3725:3736  item.memPtr */\n      0x20\n      dup3\n      add\n      mload\n        /* \"contracts/fraud-detector/libs/rlp/RLPReader.sol\":3786:3799  mload(memPtr) */\n      dup1\n      mload\n        /* \"contracts/fraud-detector/libs/rlp/RLPReader.sol\":3687:3698  uint8 byte0 */\n      0x00\n        /* \"contracts/fraud-detector/libs/rlp/RLPReader.sol\":3778:3800  byte(0, mload(memPtr)) */\n      byte\n      swap1\n        /* \"contracts/fraud-detector/libs/rlp/RLPReader.sol\":328:332  0xc0 */\n      0xc0\n        /* \"contracts/fraud-detector/libs/rlp/RLPReader.sol\":3824:3848  byte0 < LIST_SHORT_START */\n      dup3\n      lt\n        /* \"contracts/fraud-detector/libs/rlp/RLPReader.sol\":3820:3862  if (byte0 < LIST_SHORT_START) return false */\n      iszero\n      tag_272\n      jumpi\n      pop\n        /* \"contracts/fraud-detector/libs/rlp/RLPReader.sol\":3857:3862  false */\n      0x00\n      swap4\n        /* \"contracts/fraud-detector/libs/rlp/RLPReader.sol\":3569:3890  function isList(RLPItem memory item) internal pure returns (bool) {... */\n      swap3\n      pop\n      pop\n      pop\n      jump\t// out\n        /* \"contracts/fraud-detector/libs/rlp/RLPReader.sol\":3820:3862  if (byte0 < LIST_SHORT_START) return false */\n    tag_272:\n      pop\n        /* \"contracts/fraud-detector/libs/rlp/RLPReader.sol\":3879:3883  true */\n      0x01\n      swap4\n        /* \"contracts/fraud-detector/libs/rlp/RLPReader.sol\":3569:3890  function isList(RLPItem memory item) internal pure returns (bool) {... */\n      swap3\n      pop\n      pop\n      pop\n      jump\t// out\n        /* \"contracts/fraud-detector/libs/rlp/RLPReader.sol\":7344:7768  function numItems(RLPItem memory item) private pure returns (uint256) {... */\n    tag_238:\n        /* \"contracts/fraud-detector/libs/rlp/RLPReader.sol\":7428:7436  item.len */\n      dup1\n      mload\n        /* \"contracts/fraud-detector/libs/rlp/RLPReader.sol\":7405:7412  uint256 */\n      0x00\n      swap1\n        /* \"contracts/fraud-detector/libs/rlp/RLPReader.sol\":7428:7441  item.len == 0 */\n      dup2\n      sub\n        /* \"contracts/fraud-detector/libs/rlp/RLPReader.sol\":7424:7451  if (item.len == 0) return 0 */\n      tag_274\n      jumpi\n      pop\n        /* \"contracts/fraud-detector/libs/rlp/RLPReader.sol\":7450:7451  0 */\n      0x00\n      swap2\n        /* \"contracts/fraud-detector/libs/rlp/RLPReader.sol\":7344:7768  function numItems(RLPItem memory item) private pure returns (uint256) {... */\n      swap1\n      pop\n      jump\t// out\n        /* \"contracts/fraud-detector/libs/rlp/RLPReader.sol\":7424:7451  if (item.len == 0) return 0 */\n    tag_274:\n        /* \"contracts/fraud-detector/libs/rlp/RLPReader.sol\":7462:7475  uint256 count */\n      0x00\n        /* \"contracts/fraud-detector/libs/rlp/RLPReader.sol\":7489:7504  uint256 currPtr */\n      dup1\n        /* \"contracts/fraud-detector/libs/rlp/RLPReader.sol\":7521:7548  _payloadOffset(item.memPtr) */\n      tag_275\n        /* \"contracts/fraud-detector/libs/rlp/RLPReader.sol\":7536:7540  item */\n      dup5\n        /* \"contracts/fraud-detector/libs/rlp/RLPReader.sol\":7536:7547  item.memPtr */\n      0x20\n      add\n      mload\n        /* \"contracts/fraud-detector/libs/rlp/RLPReader.sol\":7521:7535  _payloadOffset */\n      tag_245\n        /* \"contracts/fraud-detector/libs/rlp/RLPReader.sol\":7521:7548  _payloadOffset(item.memPtr) */\n      jump\t// in\n    tag_275:\n        /* \"contracts/fraud-detector/libs/rlp/RLPReader.sol\":7507:7511  item */\n      dup5\n        /* \"contracts/fraud-detector/libs/rlp/RLPReader.sol\":7507:7518  item.memPtr */\n      0x20\n      add\n      mload\n        /* \"contracts/fraud-detector/libs/rlp/RLPReader.sol\":7507:7548  item.memPtr + _payloadOffset(item.memPtr) */\n      tag_276\n      swap2\n      swap1\n      tag_247\n      jump\t// in\n    tag_276:\n        /* \"contracts/fraud-detector/libs/rlp/RLPReader.sol\":7489:7548  uint256 currPtr = item.memPtr + _payloadOffset(item.memPtr) */\n      swap1\n      pop\n        /* \"contracts/fraud-detector/libs/rlp/RLPReader.sol\":7558:7572  uint256 endPtr */\n      0x00\n        /* \"contracts/fraud-detector/libs/rlp/RLPReader.sol\":7589:7593  item */\n      dup5\n        /* \"contracts/fraud-detector/libs/rlp/RLPReader.sol\":7589:7597  item.len */\n      0x00\n      add\n      mload\n        /* \"contracts/fraud-detector/libs/rlp/RLPReader.sol\":7575:7579  item */\n      dup6\n        /* \"contracts/fraud-detector/libs/rlp/RLPReader.sol\":7575:7586  item.memPtr */\n      0x20\n      add\n      mload\n        /* \"contracts/fraud-detector/libs/rlp/RLPReader.sol\":7575:7597  item.memPtr + item.len */\n      tag_277\n      swap2\n      swap1\n      tag_247\n      jump\t// in\n    tag_277:\n        /* \"contracts/fraud-detector/libs/rlp/RLPReader.sol\":7558:7597  uint256 endPtr = item.memPtr + item.len */\n      swap1\n      pop\n        /* \"contracts/fraud-detector/libs/rlp/RLPReader.sol\":7607:7739  while (currPtr < endPtr) {... */\n    tag_278:\n        /* \"contracts/fraud-detector/libs/rlp/RLPReader.sol\":7624:7630  endPtr */\n      dup1\n        /* \"contracts/fraud-detector/libs/rlp/RLPReader.sol\":7614:7621  currPtr */\n      dup3\n        /* \"contracts/fraud-detector/libs/rlp/RLPReader.sol\":7614:7630  currPtr < endPtr */\n      lt\n        /* \"contracts/fraud-detector/libs/rlp/RLPReader.sol\":7607:7739  while (currPtr < endPtr) {... */\n      iszero\n      tag_279\n      jumpi\n        /* \"contracts/fraud-detector/libs/rlp/RLPReader.sol\":7666:7686  _itemLength(currPtr) */\n      tag_280\n        /* \"contracts/fraud-detector/libs/rlp/RLPReader.sol\":7678:7685  currPtr */\n      dup3\n        /* \"contracts/fraud-detector/libs/rlp/RLPReader.sol\":7666:7677  _itemLength */\n      tag_252\n        /* \"contracts/fraud-detector/libs/rlp/RLPReader.sol\":7666:7686  _itemLength(currPtr) */\n      jump\t// in\n    tag_280:\n        /* \"contracts/fraud-detector/libs/rlp/RLPReader.sol\":7656:7686  currPtr + _itemLength(currPtr) */\n      tag_281\n      swap1\n        /* \"contracts/fraud-detector/libs/rlp/RLPReader.sol\":7656:7663  currPtr */\n      dup4\n        /* \"contracts/fraud-detector/libs/rlp/RLPReader.sol\":7656:7686  currPtr + _itemLength(currPtr) */\n      tag_247\n      jump\t// in\n    tag_281:\n        /* \"contracts/fraud-detector/libs/rlp/RLPReader.sol\":7646:7686  currPtr = currPtr + _itemLength(currPtr) */\n      swap2\n      pop\n        /* \"contracts/fraud-detector/libs/rlp/RLPReader.sol\":7721:7728  count++ */\n      dup3\n      tag_282\n      dup2\n      tag_283\n      jump\t// in\n    tag_282:\n      swap4\n      pop\n      pop\n        /* \"contracts/fraud-detector/libs/rlp/RLPReader.sol\":7607:7739  while (currPtr < endPtr) {... */\n      jump(tag_278)\n    tag_279:\n      pop\n        /* \"contracts/fraud-detector/libs/rlp/RLPReader.sol\":7756:7761  count */\n      swap1\n      swap4\n        /* \"contracts/fraud-detector/libs/rlp/RLPReader.sol\":7344:7768  function numItems(RLPItem memory item) private pure returns (uint256) {... */\n      swap3\n      pop\n      pop\n      pop\n      jump\t// out\n        /* \"contracts/fraud-detector/libs/rlp/RLPReader.sol\":9132:9713  function _payloadOffset(uint256 memPtr) private pure returns (uint256) {... */\n    tag_245:\n        /* \"contracts/fraud-detector/libs/rlp/RLPReader.sol\":9276:9289  mload(memPtr) */\n      dup1\n      mload\n        /* \"contracts/fraud-detector/libs/rlp/RLPReader.sol\":9194:9201  uint256 */\n      0x00\n      swap1\n        /* \"contracts/fraud-detector/libs/rlp/RLPReader.sol\":9268:9290  byte(0, mload(memPtr)) */\n      dup2\n      byte\n        /* \"contracts/fraud-detector/libs/rlp/RLPReader.sol\":239:243  0x80 */\n      0x80\n        /* \"contracts/fraud-detector/libs/rlp/RLPReader.sol\":9314:9340  byte0 < STRING_SHORT_START */\n      dup2\n      lt\n        /* \"contracts/fraud-detector/libs/rlp/RLPReader.sol\":9310:9707  if (byte0 < STRING_SHORT_START) {... */\n      iszero\n      tag_285\n      jumpi\n      pop\n        /* \"contracts/fraud-detector/libs/rlp/RLPReader.sol\":9363:9364  0 */\n      0x00\n      swap3\n        /* \"contracts/fraud-detector/libs/rlp/RLPReader.sol\":9132:9713  function _payloadOffset(uint256 memPtr) private pure returns (uint256) {... */\n      swap2\n      pop\n      pop\n      jump\t// out\n        /* \"contracts/fraud-detector/libs/rlp/RLPReader.sol\":9310:9707  if (byte0 < STRING_SHORT_START) {... */\n    tag_285:\n        /* \"contracts/fraud-detector/libs/rlp/RLPReader.sol\":284:288  0xb8 */\n      0xb8\n        /* \"contracts/fraud-detector/libs/rlp/RLPReader.sol\":9385:9410  byte0 < STRING_LONG_START */\n      dup2\n      lt\n      dup1\n        /* \"contracts/fraud-detector/libs/rlp/RLPReader.sol\":9385:9468  byte0 < STRING_LONG_START || (byte0 >= LIST_SHORT_START && byte0 < LIST_LONG_START) */\n      tag_288\n      jumpi\n      pop\n        /* \"contracts/fraud-detector/libs/rlp/RLPReader.sol\":328:332  0xc0 */\n      0xc0\n        /* \"contracts/fraud-detector/libs/rlp/RLPReader.sol\":9415:9440  byte0 >= LIST_SHORT_START */\n      dup2\n      lt\n      dup1\n      iszero\n      swap1\n        /* \"contracts/fraud-detector/libs/rlp/RLPReader.sol\":9415:9467  byte0 >= LIST_SHORT_START && byte0 < LIST_LONG_START */\n      tag_288\n      jumpi\n      pop\n        /* \"contracts/fraud-detector/libs/rlp/RLPReader.sol\":371:375  0xf8 */\n      0xf8\n        /* \"contracts/fraud-detector/libs/rlp/RLPReader.sol\":9444:9467  byte0 < LIST_LONG_START */\n      dup2\n      lt\n        /* \"contracts/fraud-detector/libs/rlp/RLPReader.sol\":9415:9467  byte0 >= LIST_SHORT_START && byte0 < LIST_LONG_START */\n    tag_288:\n        /* \"contracts/fraud-detector/libs/rlp/RLPReader.sol\":9381:9707  if (byte0 < STRING_LONG_START || (byte0 >= LIST_SHORT_START && byte0 < LIST_LONG_START)) {... */\n      iszero\n      tag_289\n      jumpi\n      pop\n        /* \"contracts/fraud-detector/libs/rlp/RLPReader.sol\":9491:9492  1 */\n      0x01\n      swap3\n        /* \"contracts/fraud-detector/libs/rlp/RLPReader.sol\":9132:9713  function _payloadOffset(uint256 memPtr) private pure returns (uint256) {... */\n      swap2\n      pop\n      pop\n      jump\t// out\n        /* \"contracts/fraud-detector/libs/rlp/RLPReader.sol\":9381:9707  if (byte0 < STRING_LONG_START || (byte0 >= LIST_SHORT_START && byte0 < LIST_LONG_START)) {... */\n    tag_289:\n        /* \"contracts/fraud-detector/libs/rlp/RLPReader.sol\":328:332  0xc0 */\n      0xc0\n        /* \"contracts/fraud-detector/libs/rlp/RLPReader.sol\":9513:9537  byte0 < LIST_SHORT_START */\n      dup2\n      lt\n        /* \"contracts/fraud-detector/libs/rlp/RLPReader.sol\":9509:9707  if (byte0 < LIST_SHORT_START) {... */\n      iszero\n      tag_291\n      jumpi\n        /* \"contracts/fraud-detector/libs/rlp/RLPReader.sol\":9599:9620  STRING_LONG_START - 1 */\n      tag_292\n        /* \"contracts/fraud-detector/libs/rlp/RLPReader.sol\":9619:9620  1 */\n      0x01\n        /* \"contracts/fraud-detector/libs/rlp/RLPReader.sol\":284:288  0xb8 */\n      0xb8\n        /* \"contracts/fraud-detector/libs/rlp/RLPReader.sol\":9599:9620  STRING_LONG_START - 1 */\n      tag_293\n      jump\t// in\n    tag_292:\n        /* \"contracts/fraud-detector/libs/rlp/RLPReader.sol\":9590:9621  byte0 - (STRING_LONG_START - 1) */\n      tag_294\n      swap1\n      0xff\n      and\n        /* \"contracts/fraud-detector/libs/rlp/RLPReader.sol\":9590:9595  byte0 */\n      dup3\n        /* \"contracts/fraud-detector/libs/rlp/RLPReader.sol\":9590:9621  byte0 - (STRING_LONG_START - 1) */\n      tag_295\n      jump\t// in\n    tag_294:\n        /* \"contracts/fraud-detector/libs/rlp/RLPReader.sol\":9590:9625  byte0 - (STRING_LONG_START - 1) + 1 */\n      tag_296\n      swap1\n        /* \"contracts/fraud-detector/libs/rlp/RLPReader.sol\":9624:9625  1 */\n      0x01\n        /* \"contracts/fraud-detector/libs/rlp/RLPReader.sol\":9590:9625  byte0 - (STRING_LONG_START - 1) + 1 */\n      tag_247\n      jump\t// in\n    tag_296:\n        /* \"contracts/fraud-detector/libs/rlp/RLPReader.sol\":9583:9625  return byte0 - (STRING_LONG_START - 1) + 1 */\n      swap4\n        /* \"contracts/fraud-detector/libs/rlp/RLPReader.sol\":9132:9713  function _payloadOffset(uint256 memPtr) private pure returns (uint256) {... */\n      swap3\n      pop\n      pop\n      pop\n      jump\t// out\n        /* \"contracts/fraud-detector/libs/rlp/RLPReader.sol\":9509:9707  if (byte0 < LIST_SHORT_START) {... */\n    tag_291:\n        /* \"contracts/fraud-detector/libs/rlp/RLPReader.sol\":9672:9691  LIST_LONG_START - 1 */\n      tag_292\n        /* \"contracts/fraud-detector/libs/rlp/RLPReader.sol\":9690:9691  1 */\n      0x01\n        /* \"contracts/fraud-detector/libs/rlp/RLPReader.sol\":371:375  0xf8 */\n      0xf8\n        /* \"contracts/fraud-detector/libs/rlp/RLPReader.sol\":9672:9691  LIST_LONG_START - 1 */\n      tag_293\n      jump\t// in\n        /* \"contracts/fraud-detector/libs/rlp/RLPReader.sol\":9509:9707  if (byte0 < LIST_SHORT_START) {... */\n    tag_297:\n        /* \"contracts/fraud-detector/libs/rlp/RLPReader.sol\":9203:9713  {... */\n      pop\n        /* \"contracts/fraud-detector/libs/rlp/RLPReader.sol\":9132:9713  function _payloadOffset(uint256 memPtr) private pure returns (uint256) {... */\n      swap2\n      swap1\n      pop\n      jump\t// out\n        /* \"contracts/fraud-detector/libs/rlp/RLPReader.sol\":7817:9080  function _itemLength(uint256 memPtr) private pure returns (uint256) {... */\n    tag_252:\n        /* \"contracts/fraud-detector/libs/rlp/RLPReader.sol\":7983:7996  mload(memPtr) */\n      dup1\n      mload\n        /* \"contracts/fraud-detector/libs/rlp/RLPReader.sol\":7876:7883  uint256 */\n      0x00\n      swap1\n      dup2\n      swap1\n        /* \"contracts/fraud-detector/libs/rlp/RLPReader.sol\":7975:7997  byte(0, mload(memPtr)) */\n      dup2\n      byte\n        /* \"contracts/fraud-detector/libs/rlp/RLPReader.sol\":239:243  0x80 */\n      0x80\n        /* \"contracts/fraud-detector/libs/rlp/RLPReader.sol\":8021:8047  byte0 < STRING_SHORT_START */\n      dup2\n      lt\n        /* \"contracts/fraud-detector/libs/rlp/RLPReader.sol\":8017:9049  if (byte0 < STRING_SHORT_START) {... */\n      iszero\n      tag_302\n      jumpi\n        /* \"contracts/fraud-detector/libs/rlp/RLPReader.sol\":8073:8074  1 */\n      0x01\n        /* \"contracts/fraud-detector/libs/rlp/RLPReader.sol\":8063:8074  itemLen = 1 */\n      swap2\n      pop\n        /* \"contracts/fraud-detector/libs/rlp/RLPReader.sol\":8017:9049  if (byte0 < STRING_SHORT_START) {... */\n      jump(tag_313)\n    tag_302:\n        /* \"contracts/fraud-detector/libs/rlp/RLPReader.sol\":284:288  0xb8 */\n      0xb8\n        /* \"contracts/fraud-detector/libs/rlp/RLPReader.sol\":8095:8120  byte0 < STRING_LONG_START */\n      dup2\n      lt\n        /* \"contracts/fraud-detector/libs/rlp/RLPReader.sol\":8091:9049  if (byte0 < STRING_LONG_START) {... */\n      iszero\n      tag_304\n      jumpi\n        /* \"contracts/fraud-detector/libs/rlp/RLPReader.sol\":8146:8172  byte0 - STRING_SHORT_START */\n      tag_305\n        /* \"contracts/fraud-detector/libs/rlp/RLPReader.sol\":239:243  0x80 */\n      0x80\n        /* \"contracts/fraud-detector/libs/rlp/RLPReader.sol\":8146:8151  byte0 */\n      dup3\n        /* \"contracts/fraud-detector/libs/rlp/RLPReader.sol\":8146:8172  byte0 - STRING_SHORT_START */\n      tag_295\n      jump\t// in\n    tag_305:\n        /* \"contracts/fraud-detector/libs/rlp/RLPReader.sol\":8146:8176  byte0 - STRING_SHORT_START + 1 */\n      tag_306\n      swap1\n        /* \"contracts/fraud-detector/libs/rlp/RLPReader.sol\":8175:8176  1 */\n      0x01\n        /* \"contracts/fraud-detector/libs/rlp/RLPReader.sol\":8146:8176  byte0 - STRING_SHORT_START + 1 */\n      tag_247\n      jump\t// in\n    tag_306:\n        /* \"contracts/fraud-detector/libs/rlp/RLPReader.sol\":8136:8176  itemLen = byte0 - STRING_SHORT_START + 1 */\n      swap2\n      pop\n        /* \"contracts/fraud-detector/libs/rlp/RLPReader.sol\":8091:9049  if (byte0 < STRING_LONG_START) {... */\n      jump(tag_313)\n    tag_304:\n        /* \"contracts/fraud-detector/libs/rlp/RLPReader.sol\":328:332  0xc0 */\n      0xc0\n        /* \"contracts/fraud-detector/libs/rlp/RLPReader.sol\":8197:8221  byte0 < LIST_SHORT_START */\n      dup2\n      lt\n        /* \"contracts/fraud-detector/libs/rlp/RLPReader.sol\":8193:9049  if (byte0 < LIST_SHORT_START) {... */\n      iszero\n      tag_308\n      jumpi\n        /* \"contracts/fraud-detector/libs/rlp/RLPReader.sol\":8290:8294  0xb7 */\n      0xb7\n        /* \"contracts/fraud-detector/libs/rlp/RLPReader.sol\":8283:8288  byte0 */\n      dup2\n        /* \"contracts/fraud-detector/libs/rlp/RLPReader.sol\":8279:8295  sub(byte0, 0xb7) */\n      sub\n        /* \"contracts/fraud-detector/libs/rlp/RLPReader.sol\":8369:8370  1 */\n      0x01\n        /* \"contracts/fraud-detector/libs/rlp/RLPReader.sol\":8361:8367  memPtr */\n      dup6\n        /* \"contracts/fraud-detector/libs/rlp/RLPReader.sol\":8357:8371  add(memPtr, 1) */\n      add\n        /* \"contracts/fraud-detector/libs/rlp/RLPReader.sol\":8347:8371  memPtr := add(memPtr, 1) */\n      swap5\n      pop\n        /* \"contracts/fraud-detector/libs/rlp/RLPReader.sol\":8508:8515  byteLen */\n      dup1\n        /* \"contracts/fraud-detector/libs/rlp/RLPReader.sol\":8504:8506  32 */\n      0x20\n        /* \"contracts/fraud-detector/libs/rlp/RLPReader.sol\":8500:8516  sub(32, byteLen) */\n      sub\n        /* \"contracts/fraud-detector/libs/rlp/RLPReader.sol\":8495:8498  256 */\n      0x0100\n        /* \"contracts/fraud-detector/libs/rlp/RLPReader.sol\":8491:8517  exp(256, sub(32, byteLen)) */\n      exp\n        /* \"contracts/fraud-detector/libs/rlp/RLPReader.sol\":8482:8488  memPtr */\n      dup6\n        /* \"contracts/fraud-detector/libs/rlp/RLPReader.sol\":8476:8489  mload(memPtr) */\n      mload\n        /* \"contracts/fraud-detector/libs/rlp/RLPReader.sol\":8472:8518  div(mload(memPtr), exp(256, sub(32, byteLen))) */\n      div\n        /* \"contracts/fraud-detector/libs/rlp/RLPReader.sol\":8605:8606  1 */\n      0x01\n        /* \"contracts/fraud-detector/libs/rlp/RLPReader.sol\":8596:8603  byteLen */\n      dup3\n        /* \"contracts/fraud-detector/libs/rlp/RLPReader.sol\":8592:8607  add(byteLen, 1) */\n      add\n        /* \"contracts/fraud-detector/libs/rlp/RLPReader.sol\":8583:8590  dataLen */\n      dup2\n        /* \"contracts/fraud-detector/libs/rlp/RLPReader.sol\":8579:8608  add(dataLen, add(byteLen, 1)) */\n      add\n        /* \"contracts/fraud-detector/libs/rlp/RLPReader.sol\":8568:8608  itemLen := add(dataLen, add(byteLen, 1)) */\n      swap4\n      pop\n      pop\n      pop\n        /* \"contracts/fraud-detector/libs/rlp/RLPReader.sol\":8193:9049  if (byte0 < LIST_SHORT_START) {... */\n      jump(tag_313)\n    tag_308:\n        /* \"contracts/fraud-detector/libs/rlp/RLPReader.sol\":371:375  0xf8 */\n      0xf8\n        /* \"contracts/fraud-detector/libs/rlp/RLPReader.sol\":8642:8665  byte0 < LIST_LONG_START */\n      dup2\n      lt\n        /* \"contracts/fraud-detector/libs/rlp/RLPReader.sol\":8638:9049  if (byte0 < LIST_LONG_START) {... */\n      iszero\n      tag_310\n      jumpi\n        /* \"contracts/fraud-detector/libs/rlp/RLPReader.sol\":8691:8715  byte0 - LIST_SHORT_START */\n      tag_305\n        /* \"contracts/fraud-detector/libs/rlp/RLPReader.sol\":328:332  0xc0 */\n      0xc0\n        /* \"contracts/fraud-detector/libs/rlp/RLPReader.sol\":8691:8696  byte0 */\n      dup3\n        /* \"contracts/fraud-detector/libs/rlp/RLPReader.sol\":8691:8715  byte0 - LIST_SHORT_START */\n      tag_295\n      jump\t// in\n        /* \"contracts/fraud-detector/libs/rlp/RLPReader.sol\":8638:9049  if (byte0 < LIST_LONG_START) {... */\n    tag_310:\n        /* \"contracts/fraud-detector/libs/rlp/RLPReader.sol\":8803:8807  0xf7 */\n      0xf7\n        /* \"contracts/fraud-detector/libs/rlp/RLPReader.sol\":8796:8801  byte0 */\n      dup2\n        /* \"contracts/fraud-detector/libs/rlp/RLPReader.sol\":8792:8808  sub(byte0, 0xf7) */\n      sub\n        /* \"contracts/fraud-detector/libs/rlp/RLPReader.sol\":8847:8848  1 */\n      0x01\n        /* \"contracts/fraud-detector/libs/rlp/RLPReader.sol\":8839:8845  memPtr */\n      dup6\n        /* \"contracts/fraud-detector/libs/rlp/RLPReader.sol\":8835:8849  add(memPtr, 1) */\n      add\n        /* \"contracts/fraud-detector/libs/rlp/RLPReader.sol\":8825:8849  memPtr := add(memPtr, 1) */\n      swap5\n      pop\n        /* \"contracts/fraud-detector/libs/rlp/RLPReader.sol\":8918:8925  byteLen */\n      dup1\n        /* \"contracts/fraud-detector/libs/rlp/RLPReader.sol\":8914:8916  32 */\n      0x20\n        /* \"contracts/fraud-detector/libs/rlp/RLPReader.sol\":8910:8926  sub(32, byteLen) */\n      sub\n        /* \"contracts/fraud-detector/libs/rlp/RLPReader.sol\":8905:8908  256 */\n      0x0100\n        /* \"contracts/fraud-detector/libs/rlp/RLPReader.sol\":8901:8927  exp(256, sub(32, byteLen)) */\n      exp\n        /* \"contracts/fraud-detector/libs/rlp/RLPReader.sol\":8892:8898  memPtr */\n      dup6\n        /* \"contracts/fraud-detector/libs/rlp/RLPReader.sol\":8886:8899  mload(memPtr) */\n      mload\n        /* \"contracts/fraud-detector/libs/rlp/RLPReader.sol\":8882:8928  div(mload(memPtr), exp(256, sub(32, byteLen))) */\n      div\n        /* \"contracts/fraud-detector/libs/rlp/RLPReader.sol\":9022:9023  1 */\n      0x01\n        /* \"contracts/fraud-detector/libs/rlp/RLPReader.sol\":9013:9020  byteLen */\n      dup3\n        /* \"contracts/fraud-detector/libs/rlp/RLPReader.sol\":9009:9024  add(byteLen, 1) */\n      add\n        /* \"contracts/fraud-detector/libs/rlp/RLPReader.sol\":9000:9007  dataLen */\n      dup2\n        /* \"contracts/fraud-detector/libs/rlp/RLPReader.sol\":8996:9025  add(dataLen, add(byteLen, 1)) */\n      add\n        /* \"contracts/fraud-detector/libs/rlp/RLPReader.sol\":8985:9025  itemLen := add(dataLen, add(byteLen, 1)) */\n      swap4\n      pop\n      pop\n      pop\n        /* \"contracts/fraud-detector/libs/rlp/RLPReader.sol\":8638:9049  if (byte0 < LIST_LONG_START) {... */\n    tag_313:\n      pop\n        /* \"contracts/fraud-detector/libs/rlp/RLPReader.sol\":9066:9073  itemLen */\n      swap3\n        /* \"contracts/fraud-detector/libs/rlp/RLPReader.sol\":7817:9080  function _itemLength(uint256 memPtr) private pure returns (uint256) {... */\n      swap2\n      pop\n      pop\n      jump\t// out\n        /* \"contracts/fraud-detector/libs/rlp/RLPReader.sol\":2390:2671  function payloadLocation(RLPItem memory item) internal pure returns (uint256, uint256) {... */\n    tag_259:\n        /* \"contracts/fraud-detector/libs/rlp/RLPReader.sol\":2459:2466  uint256 */\n      0x00\n        /* \"contracts/fraud-detector/libs/rlp/RLPReader.sol\":2468:2475  uint256 */\n      dup1\n        /* \"contracts/fraud-detector/libs/rlp/RLPReader.sol\":2487:2501  uint256 offset */\n      0x00\n        /* \"contracts/fraud-detector/libs/rlp/RLPReader.sol\":2504:2531  _payloadOffset(item.memPtr) */\n      tag_315\n        /* \"contracts/fraud-detector/libs/rlp/RLPReader.sol\":2519:2523  item */\n      dup5\n        /* \"contracts/fraud-detector/libs/rlp/RLPReader.sol\":2519:2530  item.memPtr */\n      0x20\n      add\n      mload\n        /* \"contracts/fraud-detector/libs/rlp/RLPReader.sol\":2504:2518  _payloadOffset */\n      tag_245\n        /* \"contracts/fraud-detector/libs/rlp/RLPReader.sol\":2504:2531  _payloadOffset(item.memPtr) */\n      jump\t// in\n    tag_315:\n        /* \"contracts/fraud-detector/libs/rlp/RLPReader.sol\":2487:2531  uint256 offset = _payloadOffset(item.memPtr) */\n      swap1\n      pop\n        /* \"contracts/fraud-detector/libs/rlp/RLPReader.sol\":2541:2555  uint256 memPtr */\n      0x00\n        /* \"contracts/fraud-detector/libs/rlp/RLPReader.sol\":2572:2578  offset */\n      dup2\n        /* \"contracts/fraud-detector/libs/rlp/RLPReader.sol\":2558:2562  item */\n      dup6\n        /* \"contracts/fraud-detector/libs/rlp/RLPReader.sol\":2558:2569  item.memPtr */\n      0x20\n      add\n      mload\n        /* \"contracts/fraud-detector/libs/rlp/RLPReader.sol\":2558:2578  item.memPtr + offset */\n      tag_316\n      swap2\n      swap1\n      tag_247\n      jump\t// in\n    tag_316:\n        /* \"contracts/fraud-detector/libs/rlp/RLPReader.sol\":2541:2578  uint256 memPtr = item.memPtr + offset */\n      swap1\n      pop\n        /* \"contracts/fraud-detector/libs/rlp/RLPReader.sol\":2588:2599  uint256 len */\n      0x00\n        /* \"contracts/fraud-detector/libs/rlp/RLPReader.sol\":2613:2619  offset */\n      dup3\n        /* \"contracts/fraud-detector/libs/rlp/RLPReader.sol\":2602:2606  item */\n      dup7\n        /* \"contracts/fraud-detector/libs/rlp/RLPReader.sol\":2602:2610  item.len */\n      0x00\n      add\n      mload\n        /* \"contracts/fraud-detector/libs/rlp/RLPReader.sol\":2602:2619  item.len - offset */\n      tag_317\n      swap2\n      swap1\n      tag_295\n      jump\t// in\n    tag_317:\n        /* \"contracts/fraud-detector/libs/rlp/RLPReader.sol\":2652:2658  memPtr */\n      swap2\n      swap7\n        /* \"contracts/fraud-detector/libs/rlp/RLPReader.sol\":2588:2619  uint256 len = item.len - offset */\n      swap2\n      swap6\n      pop\n        /* \"contracts/fraud-detector/libs/rlp/RLPReader.sol\":2390:2671  function payloadLocation(RLPItem memory item) internal pure returns (uint256, uint256) {... */\n      swap1\n      swap4\n      pop\n      pop\n      pop\n      pop\n      jump\t// out\n        /* \"contracts/fraud-detector/libs/rlp/RLPReader.sol\":9871:10639  function copy(uint256 src, uint256 dest, uint256 len) private pure {... */\n    tag_264:\n        /* \"contracts/fraud-detector/libs/rlp/RLPReader.sol\":9952:9955  len */\n      dup1\n        /* \"contracts/fraud-detector/libs/rlp/RLPReader.sol\":9959:9960  0 */\n      0x00\n        /* \"contracts/fraud-detector/libs/rlp/RLPReader.sol\":9952:9960  len == 0 */\n      sub\n        /* \"contracts/fraud-detector/libs/rlp/RLPReader.sol\":9948:9969  if (len == 0) return; */\n      tag_319\n      jumpi\n        /* \"contracts/fraud-detector/libs/rlp/RLPReader.sol\":9871:10639  function copy(uint256 src, uint256 dest, uint256 len) private pure {... */\n      pop\n      pop\n      pop\n      jump\t// out\n        /* \"contracts/fraud-detector/libs/rlp/RLPReader.sol\":9948:9969  if (len == 0) return; */\n    tag_319:\n        /* \"contracts/fraud-detector/libs/rlp/RLPReader.sol\":408:410  32 */\n      0x20\n        /* \"contracts/fraud-detector/libs/rlp/RLPReader.sol\":10033:10049  len >= WORD_SIZE */\n      dup2\n      lt\n        /* \"contracts/fraud-detector/libs/rlp/RLPReader.sol\":10026:10220  for (; len >= WORD_SIZE; len -= WORD_SIZE) {... */\n      tag_321\n      jumpi\n        /* \"contracts/fraud-detector/libs/rlp/RLPReader.sol\":10123:10133  mload(src) */\n      dup3\n      mload\n        /* \"contracts/fraud-detector/libs/rlp/RLPReader.sol\":10110:10134  mstore(dest, mload(src)) */\n      dup3\n      mstore\n        /* \"contracts/fraud-detector/libs/rlp/RLPReader.sol\":10162:10178  src += WORD_SIZE */\n      tag_323\n        /* \"contracts/fraud-detector/libs/rlp/RLPReader.sol\":408:410  32 */\n      0x20\n        /* \"contracts/fraud-detector/libs/rlp/RLPReader.sol\":10129:10132  src */\n      dup5\n        /* \"contracts/fraud-detector/libs/rlp/RLPReader.sol\":10162:10178  src += WORD_SIZE */\n      tag_247\n      jump\t// in\n    tag_323:\n      swap3\n      pop\n        /* \"contracts/fraud-detector/libs/rlp/RLPReader.sol\":10192:10209  dest += WORD_SIZE */\n      tag_324\n        /* \"contracts/fraud-detector/libs/rlp/RLPReader.sol\":408:410  32 */\n      0x20\n        /* \"contracts/fraud-detector/libs/rlp/RLPReader.sol\":10192:10209  dest += WORD_SIZE */\n      dup4\n      tag_247\n      jump\t// in\n    tag_324:\n      swap2\n      pop\n        /* \"contracts/fraud-detector/libs/rlp/RLPReader.sol\":10051:10067  len -= WORD_SIZE */\n      tag_325\n        /* \"contracts/fraud-detector/libs/rlp/RLPReader.sol\":408:410  32 */\n      0x20\n        /* \"contracts/fraud-detector/libs/rlp/RLPReader.sol\":10051:10067  len -= WORD_SIZE */\n      dup3\n      tag_295\n      jump\t// in\n    tag_325:\n      swap1\n      pop\n        /* \"contracts/fraud-detector/libs/rlp/RLPReader.sol\":10026:10220  for (; len >= WORD_SIZE; len -= WORD_SIZE) {... */\n      jump(tag_319)\n    tag_321:\n        /* \"contracts/fraud-detector/libs/rlp/RLPReader.sol\":10234:10241  len > 0 */\n      dup1\n      iszero\n        /* \"contracts/fraud-detector/libs/rlp/RLPReader.sol\":10230:10633  if (len > 0) {... */\n      tag_326\n      jumpi\n        /* \"contracts/fraud-detector/libs/rlp/RLPReader.sol\":10341:10353  uint256 mask */\n      0x00\n        /* \"contracts/fraud-detector/libs/rlp/RLPReader.sol\":10381:10382  1 */\n      0x01\n        /* \"contracts/fraud-detector/libs/rlp/RLPReader.sol\":10362:10377  WORD_SIZE - len */\n      tag_327\n        /* \"contracts/fraud-detector/libs/rlp/RLPReader.sol\":10374:10377  len */\n      dup4\n        /* \"contracts/fraud-detector/libs/rlp/RLPReader.sol\":408:410  32 */\n      0x20\n        /* \"contracts/fraud-detector/libs/rlp/RLPReader.sol\":10362:10377  WORD_SIZE - len */\n      tag_295\n      jump\t// in\n    tag_327:\n        /* \"contracts/fraud-detector/libs/rlp/RLPReader.sol\":10356:10378  256**(WORD_SIZE - len) */\n      tag_328\n      swap1\n        /* \"contracts/fraud-detector/libs/rlp/RLPReader.sol\":10356:10359  256 */\n      0x0100\n        /* \"contracts/fraud-detector/libs/rlp/RLPReader.sol\":10356:10378  256**(WORD_SIZE - len) */\n      tag_329\n      jump\t// in\n    tag_328:\n        /* \"contracts/fraud-detector/libs/rlp/RLPReader.sol\":10356:10382  256**(WORD_SIZE - len) - 1 */\n      tag_330\n      swap2\n      swap1\n      tag_295\n      jump\t// in\n    tag_330:\n        /* \"contracts/fraud-detector/libs/rlp/RLPReader.sol\":10442:10452  mload(src) */\n      dup5\n      mload\n        /* \"contracts/fraud-detector/libs/rlp/RLPReader.sol\":10517:10528  mload(dest) */\n      dup5\n      mload\n        /* \"contracts/fraud-detector/libs/rlp/RLPReader.sol\":10513:10535  and(mload(dest), mask) */\n      dup3\n      and\n        /* \"contracts/fraud-detector/libs/rlp/RLPReader.sol\":10454:10463  not(mask) */\n      swap2\n      not\n        /* \"contracts/fraud-detector/libs/rlp/RLPReader.sol\":10438:10464  and(mload(src), not(mask)) */\n      and\n        /* \"contracts/fraud-detector/libs/rlp/RLPReader.sol\":10587:10608  or(destpart, srcpart) */\n      or\n        /* \"contracts/fraud-detector/libs/rlp/RLPReader.sol\":10574:10609  mstore(dest, or(destpart, srcpart)) */\n      dup4\n      mstore\n      pop\n        /* \"contracts/fraud-detector/libs/rlp/RLPReader.sol\":10230:10633  if (len > 0) {... */\n    tag_326:\n        /* \"contracts/fraud-detector/libs/rlp/RLPReader.sol\":9871:10639  function copy(uint256 src, uint256 dest, uint256 len) private pure {... */\n      pop\n      pop\n      pop\n      jump\t// out\n    tag_59:\n      0x40\n      dup1\n      mload\n      0x0180\n      dup2\n      add\n      dup3\n      mstore\n      0x60\n      dup1\n      dup3\n      mstore\n      0x00\n      0x20\n      dup4\n      add\n      dup2\n      swap1\n      mstore\n      swap3\n      dup3\n      add\n      dup4\n      swap1\n      mstore\n      dup1\n      dup3\n      add\n      dup4\n      swap1\n      mstore\n      0x80\n      dup3\n      add\n      dup2\n      swap1\n      mstore\n      0xa0\n      dup3\n      add\n      dup4\n      swap1\n      mstore\n      0xc0\n      dup3\n      add\n      dup2\n      swap1\n      mstore\n      0xe0\n      dup3\n      add\n      dup2\n      swap1\n      mstore\n      0x0100\n      dup3\n      add\n      dup4\n      swap1\n      mstore\n      0x0120\n      dup3\n      add\n      dup2\n      swap1\n      mstore\n      0x0140\n      dup3\n      add\n      mstore\n      0x0160\n      dup2\n      add\n      swap2\n      swap1\n      swap2\n      mstore\n      swap1\n      jump\t// out\n    tag_142:\n      mload(0x40)\n      dup1\n      0x0160\n      add\n      0x40\n      mstore\n      dup1\n      0x60\n      dup2\n      mstore\n      0x20\n      add\n      0x00\n      dup1\n      not\n      and\n      dup2\n      mstore\n      0x20\n      add\n      0x00\n      dup2\n      mstore\n      0x20\n      add\n      0x00\n      dup1\n      not\n      and\n      dup2\n      mstore\n      0x20\n      add\n      0x60\n      dup2\n      mstore\n      0x20\n      add\n      0x00\n      dup2\n      mstore\n      0x20\n      add\n      0x60\n      dup2\n      mstore\n      0x20\n      add\n      0x60\n      dup2\n      mstore\n      0x20\n      add\n      0x60\n      dup2\n      mstore\n      0x20\n      add\n      0x60\n      dup2\n      mstore\n      0x20\n      add\n      0x00\n      dup1\n      not\n      and\n      dup2\n      mstore\n      pop\n      swap1\n      jump\t// out\n        /* \"#utility.yul\":14:141   */\n    tag_100:\n        /* \"#utility.yul\":75:85   */\n      0x4e487b71\n        /* \"#utility.yul\":70:73   */\n      0xe0\n        /* \"#utility.yul\":66:86   */\n      shl\n        /* \"#utility.yul\":63:64   */\n      0x00\n        /* \"#utility.yul\":56:87   */\n      mstore\n        /* \"#utility.yul\":106:110   */\n      0x41\n        /* \"#utility.yul\":103:104   */\n      0x04\n        /* \"#utility.yul\":96:111   */\n      mstore\n        /* \"#utility.yul\":130:134   */\n      0x24\n        /* \"#utility.yul\":127:128   */\n      0x00\n        /* \"#utility.yul\":120:135   */\n      revert\n        /* \"#utility.yul\":146:421   */\n    tag_331:\n        /* \"#utility.yul\":217:219   */\n      0x40\n        /* \"#utility.yul\":211:220   */\n      mload\n        /* \"#utility.yul\":282:284   */\n      0x1f\n        /* \"#utility.yul\":263:276   */\n      dup3\n      add\n      not(0x1f)\n        /* \"#utility.yul\":259:286   */\n      and\n        /* \"#utility.yul\":247:287   */\n      dup2\n      add\n      sub(shl(0x40, 0x01), 0x01)\n        /* \"#utility.yul\":302:336   */\n      dup2\n      gt\n        /* \"#utility.yul\":338:360   */\n      dup3\n      dup3\n      lt\n        /* \"#utility.yul\":299:361   */\n      or\n        /* \"#utility.yul\":296:384   */\n      iszero\n      tag_344\n      jumpi\n        /* \"#utility.yul\":364:382   */\n      tag_344\n      tag_100\n      jump\t// in\n    tag_344:\n        /* \"#utility.yul\":400:402   */\n      0x40\n        /* \"#utility.yul\":393:415   */\n      mstore\n        /* \"#utility.yul\":146:421   */\n      swap2\n      swap1\n      pop\n      jump\t// out\n        /* \"#utility.yul\":426:984   */\n    tag_332:\n        /* \"#utility.yul\":468:473   */\n      0x00\n        /* \"#utility.yul\":521:524   */\n      dup3\n        /* \"#utility.yul\":514:518   */\n      0x1f\n        /* \"#utility.yul\":506:512   */\n      dup4\n        /* \"#utility.yul\":502:519   */\n      add\n        /* \"#utility.yul\":498:525   */\n      slt\n        /* \"#utility.yul\":488:543   */\n      tag_346\n      jumpi\n        /* \"#utility.yul\":539:540   */\n      0x00\n        /* \"#utility.yul\":536:537   */\n      dup1\n        /* \"#utility.yul\":529:541   */\n      revert\n        /* \"#utility.yul\":488:543   */\n    tag_346:\n        /* \"#utility.yul\":579:585   */\n      dup2\n        /* \"#utility.yul\":566:586   */\n      calldataload\n      sub(shl(0x40, 0x01), 0x01)\n        /* \"#utility.yul\":601:607   */\n      dup2\n        /* \"#utility.yul\":598:628   */\n      gt\n        /* \"#utility.yul\":595:651   */\n      iszero\n      tag_348\n      jumpi\n        /* \"#utility.yul\":631:649   */\n      tag_348\n      tag_100\n      jump\t// in\n    tag_348:\n        /* \"#utility.yul\":675:734   */\n      tag_349\n        /* \"#utility.yul\":722:724   */\n      0x1f\n        /* \"#utility.yul\":699:716   */\n      dup3\n      add\n      not(0x1f)\n        /* \"#utility.yul\":695:726   */\n      and\n        /* \"#utility.yul\":728:732   */\n      0x20\n        /* \"#utility.yul\":691:733   */\n      add\n        /* \"#utility.yul\":675:734   */\n      tag_331\n      jump\t// in\n    tag_349:\n        /* \"#utility.yul\":759:765   */\n      dup2\n        /* \"#utility.yul\":750:757   */\n      dup2\n        /* \"#utility.yul\":743:766   */\n      mstore\n        /* \"#utility.yul\":813:816   */\n      dup5\n        /* \"#utility.yul\":806:810   */\n      0x20\n        /* \"#utility.yul\":797:803   */\n      dup4\n        /* \"#utility.yul\":789:795   */\n      dup7\n        /* \"#utility.yul\":785:804   */\n      add\n        /* \"#utility.yul\":781:811   */\n      add\n        /* \"#utility.yul\":778:817   */\n      gt\n        /* \"#utility.yul\":775:834   */\n      iszero\n      tag_350\n      jumpi\n        /* \"#utility.yul\":830:831   */\n      0x00\n        /* \"#utility.yul\":827:828   */\n      dup1\n        /* \"#utility.yul\":820:832   */\n      revert\n        /* \"#utility.yul\":775:834   */\n    tag_350:\n        /* \"#utility.yul\":895:901   */\n      dup2\n        /* \"#utility.yul\":888:892   */\n      0x20\n        /* \"#utility.yul\":880:886   */\n      dup6\n        /* \"#utility.yul\":876:893   */\n      add\n        /* \"#utility.yul\":869:873   */\n      0x20\n        /* \"#utility.yul\":860:867   */\n      dup4\n        /* \"#utility.yul\":856:874   */\n      add\n        /* \"#utility.yul\":843:902   */\n      calldatacopy\n        /* \"#utility.yul\":951:952   */\n      0x00\n        /* \"#utility.yul\":922:942   */\n      swap2\n      dup2\n      add\n        /* \"#utility.yul\":944:948   */\n      0x20\n        /* \"#utility.yul\":918:949   */\n      add\n        /* \"#utility.yul\":911:953   */\n      swap2\n      swap1\n      swap2\n      mstore\n        /* \"#utility.yul\":926:933   */\n      swap4\n        /* \"#utility.yul\":426:984   */\n      swap3\n      pop\n      pop\n      pop\n      jump\t// out\n        /* \"#utility.yul\":989:1664   */\n    tag_10:\n        /* \"#utility.yul\":1084:1090   */\n      0x00\n        /* \"#utility.yul\":1092:1098   */\n      dup1\n        /* \"#utility.yul\":1100:1106   */\n      0x00\n        /* \"#utility.yul\":1108:1114   */\n      dup1\n        /* \"#utility.yul\":1161:1164   */\n      0x80\n        /* \"#utility.yul\":1149:1158   */\n      dup6\n        /* \"#utility.yul\":1140:1147   */\n      dup8\n        /* \"#utility.yul\":1136:1159   */\n      sub\n        /* \"#utility.yul\":1132:1165   */\n      slt\n        /* \"#utility.yul\":1129:1182   */\n      iszero\n      tag_352\n      jumpi\n        /* \"#utility.yul\":1178:1179   */\n      0x00\n        /* \"#utility.yul\":1175:1176   */\n      dup1\n        /* \"#utility.yul\":1168:1180   */\n      revert\n        /* \"#utility.yul\":1129:1182   */\n    tag_352:\n        /* \"#utility.yul\":1223:1246   */\n      dup5\n      calldataload\n      swap4\n      pop\n        /* \"#utility.yul\":1343:1345   */\n      0x20\n        /* \"#utility.yul\":1328:1346   */\n      dup6\n      add\n        /* \"#utility.yul\":1315:1347   */\n      calldataload\n      swap3\n      pop\n        /* \"#utility.yul\":1446:1448   */\n      0x40\n        /* \"#utility.yul\":1431:1449   */\n      dup6\n      add\n        /* \"#utility.yul\":1418:1450   */\n      calldataload\n      swap2\n      pop\n        /* \"#utility.yul\":1527:1529   */\n      0x60\n        /* \"#utility.yul\":1512:1530   */\n      dup6\n      add\n        /* \"#utility.yul\":1499:1531   */\n      calldataload\n      sub(shl(0x40, 0x01), 0x01)\n        /* \"#utility.yul\":1543:1573   */\n      dup2\n      gt\n        /* \"#utility.yul\":1540:1590   */\n      iszero\n      tag_353\n      jumpi\n        /* \"#utility.yul\":1586:1587   */\n      0x00\n        /* \"#utility.yul\":1583:1584   */\n      dup1\n        /* \"#utility.yul\":1576:1588   */\n      revert\n        /* \"#utility.yul\":1540:1590   */\n    tag_353:\n        /* \"#utility.yul\":1609:1658   */\n      tag_354\n        /* \"#utility.yul\":1650:1657   */\n      dup8\n        /* \"#utility.yul\":1641:1647   */\n      dup3\n        /* \"#utility.yul\":1630:1639   */\n      dup9\n        /* \"#utility.yul\":1626:1648   */\n      add\n        /* \"#utility.yul\":1609:1658   */\n      tag_332\n      jump\t// in\n    tag_354:\n        /* \"#utility.yul\":1599:1658   */\n      swap2\n      pop\n      pop\n        /* \"#utility.yul\":989:1664   */\n      swap3\n      swap6\n      swap2\n      swap5\n      pop\n      swap3\n      pop\n      jump\t// out\n        /* \"#utility.yul\":1859:2736   */\n    tag_333:\n        /* \"#utility.yul\":1911:1916   */\n      0x00\n        /* \"#utility.yul\":1964:1967   */\n      dup3\n        /* \"#utility.yul\":1957:1961   */\n      0x1f\n        /* \"#utility.yul\":1949:1955   */\n      dup4\n        /* \"#utility.yul\":1945:1962   */\n      add\n        /* \"#utility.yul\":1941:1968   */\n      slt\n        /* \"#utility.yul\":1931:1986   */\n      tag_357\n      jumpi\n        /* \"#utility.yul\":1982:1983   */\n      0x00\n        /* \"#utility.yul\":1979:1980   */\n      dup1\n        /* \"#utility.yul\":1972:1984   */\n      revert\n        /* \"#utility.yul\":1931:1986   */\n    tag_357:\n        /* \"#utility.yul\":2022:2028   */\n      dup2\n        /* \"#utility.yul\":2009:2029   */\n      calldataload\n      sub(shl(0x40, 0x01), 0x01)\n        /* \"#utility.yul\":2044:2050   */\n      dup2\n        /* \"#utility.yul\":2041:2071   */\n      gt\n        /* \"#utility.yul\":2038:2094   */\n      iszero\n      tag_359\n      jumpi\n        /* \"#utility.yul\":2074:2092   */\n      tag_359\n      tag_100\n      jump\t// in\n    tag_359:\n        /* \"#utility.yul\":2120:2126   */\n      dup1\n        /* \"#utility.yul\":2117:2118   */\n      0x05\n        /* \"#utility.yul\":2113:2127   */\n      shl\n        /* \"#utility.yul\":2147:2177   */\n      tag_360\n        /* \"#utility.yul\":2171:2175   */\n      0x20\n        /* \"#utility.yul\":2167:2169   */\n      dup3\n        /* \"#utility.yul\":2163:2176   */\n      add\n        /* \"#utility.yul\":2147:2177   */\n      tag_331\n      jump\t// in\n    tag_360:\n        /* \"#utility.yul\":2213:2232   */\n      swap2\n      dup3\n      mstore\n        /* \"#utility.yul\":2257:2261   */\n      0x20\n        /* \"#utility.yul\":2289:2304   */\n      dup2\n      dup6\n      add\n        /* \"#utility.yul\":2285:2311   */\n      dup2\n      add\n      swap3\n        /* \"#utility.yul\":2248:2262   */\n      swap1\n      dup2\n      add\n      swap1\n        /* \"#utility.yul\":2323:2338   */\n      dup7\n      dup5\n      gt\n        /* \"#utility.yul\":2320:2355   */\n      iszero\n      tag_361\n      jumpi\n        /* \"#utility.yul\":2351:2352   */\n      0x00\n        /* \"#utility.yul\":2348:2349   */\n      dup1\n        /* \"#utility.yul\":2341:2353   */\n      revert\n        /* \"#utility.yul\":2320:2355   */\n    tag_361:\n        /* \"#utility.yul\":2387:2391   */\n      0x20\n        /* \"#utility.yul\":2379:2385   */\n      dup7\n        /* \"#utility.yul\":2375:2392   */\n      add\n        /* \"#utility.yul\":2364:2392   */\n      swap3\n      pop\n        /* \"#utility.yul\":2401:2705   */\n    tag_362:\n        /* \"#utility.yul\":2417:2423   */\n      dup4\n        /* \"#utility.yul\":2412:2415   */\n      dup4\n        /* \"#utility.yul\":2409:2424   */\n      lt\n        /* \"#utility.yul\":2401:2705   */\n      iszero\n      tag_364\n      jumpi\n        /* \"#utility.yul\":2505:2508   */\n      dup3\n        /* \"#utility.yul\":2492:2509   */\n      calldataload\n      sub(shl(0x40, 0x01), 0x01)\n        /* \"#utility.yul\":2528:2539   */\n      dup2\n        /* \"#utility.yul\":2525:2560   */\n      gt\n        /* \"#utility.yul\":2522:2577   */\n      iszero\n      tag_365\n      jumpi\n        /* \"#utility.yul\":2573:2574   */\n      0x00\n        /* \"#utility.yul\":2570:2571   */\n      dup1\n        /* \"#utility.yul\":2563:2575   */\n      revert\n        /* \"#utility.yul\":2522:2577   */\n    tag_365:\n        /* \"#utility.yul\":2602:2660   */\n      tag_366\n        /* \"#utility.yul\":2656:2659   */\n      dup9\n        /* \"#utility.yul\":2649:2653   */\n      0x20\n        /* \"#utility.yul\":2635:2646   */\n      dup4\n        /* \"#utility.yul\":2627:2633   */\n      dup11\n        /* \"#utility.yul\":2623:2647   */\n      add\n        /* \"#utility.yul\":2619:2654   */\n      add\n        /* \"#utility.yul\":2602:2660   */\n      tag_332\n      jump\t// in\n    tag_366:\n        /* \"#utility.yul\":2590:2661   */\n      dup4\n      mstore\n      pop\n        /* \"#utility.yul\":2690:2694   */\n      0x20\n        /* \"#utility.yul\":2434:2448   */\n      swap3\n      dup4\n      add\n      swap3\n        /* \"#utility.yul\":2681:2695   */\n      swap1\n      swap2\n      add\n      swap1\n        /* \"#utility.yul\":2401:2705   */\n      jump(tag_362)\n    tag_364:\n        /* \"#utility.yul\":2723:2730   */\n      swap7\n        /* \"#utility.yul\":1859:2736   */\n      swap6\n      pop\n      pop\n      pop\n      pop\n      pop\n      pop\n      jump\t// out\n        /* \"#utility.yul\":2741:3760   */\n    tag_16:\n        /* \"#utility.yul\":2888:2894   */\n      0x00\n        /* \"#utility.yul\":2896:2902   */\n      dup1\n        /* \"#utility.yul\":2904:2910   */\n      0x00\n        /* \"#utility.yul\":2912:2918   */\n      dup1\n        /* \"#utility.yul\":2920:2926   */\n      0x00\n        /* \"#utility.yul\":2973:2976   */\n      0xa0\n        /* \"#utility.yul\":2961:2970   */\n      dup7\n        /* \"#utility.yul\":2952:2959   */\n      dup9\n        /* \"#utility.yul\":2948:2971   */\n      sub\n        /* \"#utility.yul\":2944:2977   */\n      slt\n        /* \"#utility.yul\":2941:2994   */\n      iszero\n      tag_368\n      jumpi\n        /* \"#utility.yul\":2990:2991   */\n      0x00\n        /* \"#utility.yul\":2987:2988   */\n      dup1\n        /* \"#utility.yul\":2980:2992   */\n      revert\n        /* \"#utility.yul\":2941:2994   */\n    tag_368:\n        /* \"#utility.yul\":3035:3058   */\n      dup6\n      calldataload\n      swap5\n      pop\n        /* \"#utility.yul\":3133:3135   */\n      0x20\n        /* \"#utility.yul\":3118:3136   */\n      dup7\n      add\n        /* \"#utility.yul\":3105:3137   */\n      calldataload\n      sub(shl(0x40, 0x01), 0x01)\n        /* \"#utility.yul\":3149:3179   */\n      dup2\n      gt\n        /* \"#utility.yul\":3146:3196   */\n      iszero\n      tag_369\n      jumpi\n        /* \"#utility.yul\":3192:3193   */\n      0x00\n        /* \"#utility.yul\":3189:3190   */\n      dup1\n        /* \"#utility.yul\":3182:3194   */\n      revert\n        /* \"#utility.yul\":3146:3196   */\n    tag_369:\n        /* \"#utility.yul\":3215:3274   */\n      tag_370\n        /* \"#utility.yul\":3266:3273   */\n      dup9\n        /* \"#utility.yul\":3257:3263   */\n      dup3\n        /* \"#utility.yul\":3246:3255   */\n      dup10\n        /* \"#utility.yul\":3242:3264   */\n      add\n        /* \"#utility.yul\":3215:3274   */\n      tag_333\n      jump\t// in\n    tag_370:\n        /* \"#utility.yul\":3205:3274   */\n      swap5\n      pop\n      pop\n        /* \"#utility.yul\":3327:3329   */\n      0x40\n        /* \"#utility.yul\":3316:3325   */\n      dup7\n        /* \"#utility.yul\":3312:3330   */\n      add\n        /* \"#utility.yul\":3299:3331   */\n      calldataload\n      sub(shl(0x40, 0x01), 0x01)\n        /* \"#utility.yul\":3346:3354   */\n      dup2\n        /* \"#utility.yul\":3343:3375   */\n      gt\n        /* \"#utility.yul\":3340:3392   */\n      iszero\n      tag_371\n      jumpi\n        /* \"#utility.yul\":3388:3389   */\n      0x00\n        /* \"#utility.yul\":3385:3386   */\n      dup1\n        /* \"#utility.yul\":3378:3390   */\n      revert\n        /* \"#utility.yul\":3340:3392   */\n    tag_371:\n        /* \"#utility.yul\":3411:3462   */\n      tag_372\n        /* \"#utility.yul\":3454:3461   */\n      dup9\n        /* \"#utility.yul\":3443:3451   */\n      dup3\n        /* \"#utility.yul\":3432:3441   */\n      dup10\n        /* \"#utility.yul\":3428:3452   */\n      add\n        /* \"#utility.yul\":3411:3462   */\n      tag_332\n      jump\t// in\n    tag_372:\n        /* \"#utility.yul\":3401:3462   */\n      swap4\n      pop\n      pop\n        /* \"#utility.yul\":3515:3517   */\n      0x60\n        /* \"#utility.yul\":3504:3513   */\n      dup7\n        /* \"#utility.yul\":3500:3518   */\n      add\n        /* \"#utility.yul\":3487:3519   */\n      calldataload\n      sub(shl(0x40, 0x01), 0x01)\n        /* \"#utility.yul\":3534:3542   */\n      dup2\n        /* \"#utility.yul\":3531:3563   */\n      gt\n        /* \"#utility.yul\":3528:3580   */\n      iszero\n      tag_373\n      jumpi\n        /* \"#utility.yul\":3576:3577   */\n      0x00\n        /* \"#utility.yul\":3573:3574   */\n      dup1\n        /* \"#utility.yul\":3566:3578   */\n      revert\n        /* \"#utility.yul\":3528:3580   */\n    tag_373:\n        /* \"#utility.yul\":3599:3650   */\n      tag_374\n        /* \"#utility.yul\":3642:3649   */\n      dup9\n        /* \"#utility.yul\":3631:3639   */\n      dup3\n        /* \"#utility.yul\":3620:3629   */\n      dup10\n        /* \"#utility.yul\":3616:3640   */\n      add\n        /* \"#utility.yul\":3599:3650   */\n      tag_332\n      jump\t// in\n    tag_374:\n        /* \"#utility.yul\":2741:3760   */\n      swap6\n      swap9\n      swap5\n      swap8\n      pop\n      swap3\n      swap6\n        /* \"#utility.yul\":3723:3726   */\n      0x80\n        /* \"#utility.yul\":3708:3727   */\n      add\n        /* \"#utility.yul\":3695:3728   */\n      calldataload\n      swap4\n        /* \"#utility.yul\":2741:3760   */\n      swap3\n      pop\n      pop\n      pop\n      jump\t// out\n        /* \"#utility.yul\":3765:4085   */\n    tag_22:\n        /* \"#utility.yul\":3833:3839   */\n      0x00\n        /* \"#utility.yul\":3886:3888   */\n      0x20\n        /* \"#utility.yul\":3874:3883   */\n      dup3\n        /* \"#utility.yul\":3865:3872   */\n      dup5\n        /* \"#utility.yul\":3861:3884   */\n      sub\n        /* \"#utility.yul\":3857:3889   */\n      slt\n        /* \"#utility.yul\":3854:3906   */\n      iszero\n      tag_376\n      jumpi\n        /* \"#utility.yul\":3902:3903   */\n      0x00\n        /* \"#utility.yul\":3899:3900   */\n      dup1\n        /* \"#utility.yul\":3892:3904   */\n      revert\n        /* \"#utility.yul\":3854:3906   */\n    tag_376:\n        /* \"#utility.yul\":3942:3951   */\n      dup2\n        /* \"#utility.yul\":3929:3952   */\n      calldataload\n      sub(shl(0x40, 0x01), 0x01)\n        /* \"#utility.yul\":3967:3973   */\n      dup2\n        /* \"#utility.yul\":3964:3994   */\n      gt\n        /* \"#utility.yul\":3961:4011   */\n      iszero\n      tag_377\n      jumpi\n        /* \"#utility.yul\":4007:4008   */\n      0x00\n        /* \"#utility.yul\":4004:4005   */\n      dup1\n        /* \"#utility.yul\":3997:4009   */\n      revert\n        /* \"#utility.yul\":3961:4011   */\n    tag_377:\n        /* \"#utility.yul\":4030:4079   */\n      tag_269\n        /* \"#utility.yul\":4071:4078   */\n      dup5\n        /* \"#utility.yul\":4062:4068   */\n      dup3\n        /* \"#utility.yul\":4051:4060   */\n      dup6\n        /* \"#utility.yul\":4047:4069   */\n      add\n        /* \"#utility.yul\":4030:4079   */\n      tag_332\n      jump\t// in\n        /* \"#utility.yul\":4090:4379   */\n    tag_334:\n        /* \"#utility.yul\":4132:4135   */\n      0x00\n        /* \"#utility.yul\":4170:4175   */\n      dup2\n        /* \"#utility.yul\":4164:4176   */\n      mload\n        /* \"#utility.yul\":4197:4203   */\n      dup1\n        /* \"#utility.yul\":4192:4195   */\n      dup5\n        /* \"#utility.yul\":4185:4204   */\n      mstore\n        /* \"#utility.yul\":4253:4259   */\n      dup1\n        /* \"#utility.yul\":4246:4250   */\n      0x20\n        /* \"#utility.yul\":4239:4244   */\n      dup5\n        /* \"#utility.yul\":4235:4251   */\n      add\n        /* \"#utility.yul\":4228:4232   */\n      0x20\n        /* \"#utility.yul\":4223:4226   */\n      dup7\n        /* \"#utility.yul\":4219:4233   */\n      add\n        /* \"#utility.yul\":4213:4260   */\n      mcopy\n        /* \"#utility.yul\":4305:4306   */\n      0x00\n        /* \"#utility.yul\":4298:4302   */\n      0x20\n        /* \"#utility.yul\":4289:4295   */\n      dup3\n        /* \"#utility.yul\":4284:4287   */\n      dup7\n        /* \"#utility.yul\":4280:4296   */\n      add\n        /* \"#utility.yul\":4276:4303   */\n      add\n        /* \"#utility.yul\":4269:4307   */\n      mstore\n        /* \"#utility.yul\":4368:4372   */\n      0x20\n        /* \"#utility.yul\":4361:4363   */\n      0x1f\n        /* \"#utility.yul\":4357:4364   */\n      not\n        /* \"#utility.yul\":4352:4354   */\n      0x1f\n        /* \"#utility.yul\":4344:4350   */\n      dup4\n        /* \"#utility.yul\":4340:4355   */\n      add\n        /* \"#utility.yul\":4336:4365   */\n      and\n        /* \"#utility.yul\":4331:4334   */\n      dup6\n        /* \"#utility.yul\":4327:4366   */\n      add\n        /* \"#utility.yul\":4323:4373   */\n      add\n        /* \"#utility.yul\":4316:4373   */\n      swap2\n      pop\n      pop\n        /* \"#utility.yul\":4090:4379   */\n      swap3\n      swap2\n      pop\n      pop\n      jump\t// out\n        /* \"#utility.yul\":4384:4962   */\n    tag_335:\n        /* \"#utility.yul\":4435:4438   */\n      0x00\n        /* \"#utility.yul\":4466:4469   */\n      dup3\n        /* \"#utility.yul\":4498:4503   */\n      dup3\n        /* \"#utility.yul\":4492:4504   */\n      mload\n        /* \"#utility.yul\":4525:4531   */\n      dup1\n        /* \"#utility.yul\":4520:4523   */\n      dup6\n        /* \"#utility.yul\":4513:4532   */\n      mstore\n        /* \"#utility.yul\":4557:4561   */\n      0x20\n        /* \"#utility.yul\":4552:4555   */\n      dup6\n        /* \"#utility.yul\":4548:4562   */\n      add\n        /* \"#utility.yul\":4541:4562   */\n      swap5\n      pop\n        /* \"#utility.yul\":4615:4619   */\n      0x20\n        /* \"#utility.yul\":4605:4611   */\n      dup2\n        /* \"#utility.yul\":4602:4603   */\n      0x05\n        /* \"#utility.yul\":4598:4612   */\n      shl\n        /* \"#utility.yul\":4591:4596   */\n      dup4\n        /* \"#utility.yul\":4587:4613   */\n      add\n        /* \"#utility.yul\":4583:4620   */\n      add\n        /* \"#utility.yul\":4654:4658   */\n      0x20\n        /* \"#utility.yul\":4647:4652   */\n      dup6\n        /* \"#utility.yul\":4643:4659   */\n      add\n        /* \"#utility.yul\":4677:4678   */\n      0x00\n        /* \"#utility.yul\":4687:4936   */\n    tag_381:\n        /* \"#utility.yul\":4701:4707   */\n      dup4\n        /* \"#utility.yul\":4698:4699   */\n      dup2\n        /* \"#utility.yul\":4695:4708   */\n      lt\n        /* \"#utility.yul\":4687:4936   */\n      iszero\n      tag_383\n      jumpi\n        /* \"#utility.yul\":4788:4790   */\n      0x1f\n        /* \"#utility.yul\":4784:4791   */\n      not\n        /* \"#utility.yul\":4776:4781   */\n      dup6\n        /* \"#utility.yul\":4770:4774   */\n      dup5\n        /* \"#utility.yul\":4766:4782   */\n      sub\n        /* \"#utility.yul\":4762:4792   */\n      add\n        /* \"#utility.yul\":4757:4760   */\n      dup9\n        /* \"#utility.yul\":4750:4793   */\n      mstore\n        /* \"#utility.yul\":4814:4852   */\n      tag_384\n        /* \"#utility.yul\":4847:4851   */\n      dup4\n        /* \"#utility.yul\":4838:4844   */\n      dup4\n        /* \"#utility.yul\":4832:4845   */\n      mload\n        /* \"#utility.yul\":4814:4852   */\n      tag_334\n      jump\t// in\n    tag_384:\n        /* \"#utility.yul\":4887:4891   */\n      0x20\n        /* \"#utility.yul\":4912:4926   */\n      swap9\n      dup10\n      add\n      swap9\n        /* \"#utility.yul\":4806:4852   */\n      swap1\n      swap4\n      pop\n        /* \"#utility.yul\":4875:4892   */\n      swap2\n      swap1\n      swap2\n      add\n      swap1\n        /* \"#utility.yul\":4723:4724   */\n      0x01\n        /* \"#utility.yul\":4716:4725   */\n      add\n        /* \"#utility.yul\":4687:4936   */\n      jump(tag_381)\n    tag_383:\n      pop\n        /* \"#utility.yul\":4952:4956   */\n      swap1\n      swap7\n        /* \"#utility.yul\":4384:4962   */\n      swap6\n      pop\n      pop\n      pop\n      pop\n      pop\n      pop\n      jump\t// out\n        /* \"#utility.yul\":4967:6763   */\n    tag_25:\n        /* \"#utility.yul\":5190:5192   */\n      0x40\n        /* \"#utility.yul\":5179:5188   */\n      dup2\n        /* \"#utility.yul\":5172:5193   */\n      mstore\n        /* \"#utility.yul\":5153:5157   */\n      0x00\n        /* \"#utility.yul\":5228:5234   */\n      dup4\n        /* \"#utility.yul\":5222:5235   */\n      mload\n        /* \"#utility.yul\":5271:5277   */\n      0x0180\n        /* \"#utility.yul\":5266:5268   */\n      0x40\n        /* \"#utility.yul\":5255:5264   */\n      dup5\n        /* \"#utility.yul\":5251:5269   */\n      add\n        /* \"#utility.yul\":5244:5278   */\n      mstore\n        /* \"#utility.yul\":5301:5353   */\n      tag_386\n        /* \"#utility.yul\":5348:5351   */\n      0x01c0\n        /* \"#utility.yul\":5337:5346   */\n      dup5\n        /* \"#utility.yul\":5333:5352   */\n      add\n        /* \"#utility.yul\":5319:5331   */\n      dup3\n        /* \"#utility.yul\":5301:5353   */\n      tag_334\n      jump\t// in\n    tag_386:\n        /* \"#utility.yul\":5287:5353   */\n      swap1\n      pop\n        /* \"#utility.yul\":5407:5411   */\n      0x20\n        /* \"#utility.yul\":5399:5405   */\n      dup6\n        /* \"#utility.yul\":5395:5412   */\n      add\n        /* \"#utility.yul\":5389:5413   */\n      mload\n        /* \"#utility.yul\":5384:5386   */\n      0x60\n        /* \"#utility.yul\":5373:5382   */\n      dup5\n        /* \"#utility.yul\":5369:5387   */\n      add\n        /* \"#utility.yul\":5362:5414   */\n      mstore\n        /* \"#utility.yul\":5469:5471   */\n      0x40\n        /* \"#utility.yul\":5461:5467   */\n      dup6\n        /* \"#utility.yul\":5457:5472   */\n      add\n        /* \"#utility.yul\":5451:5473   */\n      mload\n        /* \"#utility.yul\":5445:5448   */\n      0x80\n        /* \"#utility.yul\":5434:5443   */\n      dup5\n        /* \"#utility.yul\":5430:5449   */\n      add\n        /* \"#utility.yul\":5423:5474   */\n      mstore\n        /* \"#utility.yul\":5529:5531   */\n      0x60\n        /* \"#utility.yul\":5521:5527   */\n      dup6\n        /* \"#utility.yul\":5517:5532   */\n      add\n        /* \"#utility.yul\":5511:5533   */\n      mload\n        /* \"#utility.yul\":5505:5508   */\n      0xa0\n        /* \"#utility.yul\":5494:5503   */\n      dup5\n        /* \"#utility.yul\":5490:5509   */\n      add\n        /* \"#utility.yul\":5483:5534   */\n      mstore\n        /* \"#utility.yul\":5583:5586   */\n      0x80\n        /* \"#utility.yul\":5575:5581   */\n      dup6\n        /* \"#utility.yul\":5571:5587   */\n      add\n        /* \"#utility.yul\":5565:5588   */\n      mload\n        /* \"#utility.yul\":5657:5659   */\n      0x3f\n        /* \"#utility.yul\":5653:5660   */\n      not\n        /* \"#utility.yul\":5641:5650   */\n      dup5\n        /* \"#utility.yul\":5633:5639   */\n      dup4\n        /* \"#utility.yul\":5629:5651   */\n      sub\n        /* \"#utility.yul\":5625:5661   */\n      add\n        /* \"#utility.yul\":5619:5622   */\n      0xc0\n        /* \"#utility.yul\":5608:5617   */\n      dup6\n        /* \"#utility.yul\":5604:5623   */\n      add\n        /* \"#utility.yul\":5597:5662   */\n      mstore\n        /* \"#utility.yul\":5685:5726   */\n      tag_387\n        /* \"#utility.yul\":5719:5725   */\n      dup3\n        /* \"#utility.yul\":5703:5717   */\n      dup3\n        /* \"#utility.yul\":5685:5726   */\n      tag_334\n      jump\t// in\n    tag_387:\n        /* \"#utility.yul\":5671:5726   */\n      swap2\n      pop\n      pop\n        /* \"#utility.yul\":5781:5784   */\n      0xa0\n        /* \"#utility.yul\":5773:5779   */\n      dup6\n        /* \"#utility.yul\":5769:5785   */\n      add\n        /* \"#utility.yul\":5763:5786   */\n      mload\n        /* \"#utility.yul\":5757:5760   */\n      0xe0\n        /* \"#utility.yul\":5746:5755   */\n      dup5\n        /* \"#utility.yul\":5742:5761   */\n      add\n        /* \"#utility.yul\":5735:5787   */\n      mstore\n        /* \"#utility.yul\":5836:5839   */\n      0xc0\n        /* \"#utility.yul\":5828:5834   */\n      dup6\n        /* \"#utility.yul\":5824:5840   */\n      add\n        /* \"#utility.yul\":5818:5841   */\n      mload\n        /* \"#utility.yul\":5910:5912   */\n      0x3f\n        /* \"#utility.yul\":5906:5913   */\n      not\n        /* \"#utility.yul\":5894:5903   */\n      dup5\n        /* \"#utility.yul\":5886:5892   */\n      dup4\n        /* \"#utility.yul\":5882:5904   */\n      sub\n        /* \"#utility.yul\":5878:5914   */\n      add\n        /* \"#utility.yul\":5872:5875   */\n      0x0100\n        /* \"#utility.yul\":5861:5870   */\n      dup6\n        /* \"#utility.yul\":5857:5876   */\n      add\n        /* \"#utility.yul\":5850:5915   */\n      mstore\n        /* \"#utility.yul\":5938:5979   */\n      tag_388\n        /* \"#utility.yul\":5972:5978   */\n      dup3\n        /* \"#utility.yul\":5956:5970   */\n      dup3\n        /* \"#utility.yul\":5938:5979   */\n      tag_334\n      jump\t// in\n    tag_388:\n        /* \"#utility.yul\":5924:5979   */\n      swap2\n      pop\n      pop\n        /* \"#utility.yul\":6028:6031   */\n      0xe0\n        /* \"#utility.yul\":6020:6026   */\n      dup6\n        /* \"#utility.yul\":6016:6032   */\n      add\n        /* \"#utility.yul\":6010:6033   */\n      mload\n        /* \"#utility.yul\":6102:6104   */\n      0x3f\n        /* \"#utility.yul\":6098:6105   */\n      not\n        /* \"#utility.yul\":6086:6095   */\n      dup5\n        /* \"#utility.yul\":6078:6084   */\n      dup4\n        /* \"#utility.yul\":6074:6096   */\n      sub\n        /* \"#utility.yul\":6070:6106   */\n      add\n        /* \"#utility.yul\":6064:6067   */\n      0x0120\n        /* \"#utility.yul\":6053:6062   */\n      dup6\n        /* \"#utility.yul\":6049:6068   */\n      add\n        /* \"#utility.yul\":6042:6107   */\n      mstore\n        /* \"#utility.yul\":6130:6180   */\n      tag_389\n        /* \"#utility.yul\":6173:6179   */\n      dup3\n        /* \"#utility.yul\":6157:6171   */\n      dup3\n        /* \"#utility.yul\":6130:6180   */\n      tag_335\n      jump\t// in\n    tag_389:\n        /* \"#utility.yul\":6116:6180   */\n      swap2\n      pop\n      pop\n        /* \"#utility.yul\":6235:6238   */\n      0x0100\n        /* \"#utility.yul\":6227:6233   */\n      dup6\n        /* \"#utility.yul\":6223:6239   */\n      add\n        /* \"#utility.yul\":6217:6240   */\n      mload\n        /* \"#utility.yul\":6211:6214   */\n      0x0140\n        /* \"#utility.yul\":6200:6209   */\n      dup5\n        /* \"#utility.yul\":6196:6215   */\n      add\n        /* \"#utility.yul\":6189:6241   */\n      mstore\n        /* \"#utility.yul\":6290:6293   */\n      0x0120\n        /* \"#utility.yul\":6282:6288   */\n      dup6\n        /* \"#utility.yul\":6278:6294   */\n      add\n        /* \"#utility.yul\":6272:6295   */\n      mload\n        /* \"#utility.yul\":6364:6366   */\n      0x3f\n        /* \"#utility.yul\":6360:6367   */\n      not\n        /* \"#utility.yul\":6348:6357   */\n      dup5\n        /* \"#utility.yul\":6340:6346   */\n      dup4\n        /* \"#utility.yul\":6336:6358   */\n      sub\n        /* \"#utility.yul\":6332:6368   */\n      add\n        /* \"#utility.yul\":6326:6329   */\n      0x0160\n        /* \"#utility.yul\":6315:6324   */\n      dup6\n        /* \"#utility.yul\":6311:6330   */\n      add\n        /* \"#utility.yul\":6304:6369   */\n      mstore\n        /* \"#utility.yul\":6392:6433   */\n      tag_390\n        /* \"#utility.yul\":6426:6432   */\n      dup3\n        /* \"#utility.yul\":6410:6424   */\n      dup3\n        /* \"#utility.yul\":6392:6433   */\n      tag_334\n      jump\t// in\n    tag_390:\n        /* \"#utility.yul\":6378:6433   */\n      swap2\n      pop\n      pop\n        /* \"#utility.yul\":6482:6485   */\n      0x0140\n        /* \"#utility.yul\":6474:6480   */\n      dup6\n        /* \"#utility.yul\":6470:6486   */\n      add\n        /* \"#utility.yul\":6464:6487   */\n      mload\n        /* \"#utility.yul\":6559:6561   */\n      0x3f\n        /* \"#utility.yul\":6555:6562   */\n      not\n        /* \"#utility.yul\":6543:6552   */\n      dup5\n        /* \"#utility.yul\":6535:6541   */\n      dup4\n        /* \"#utility.yul\":6531:6553   */\n      sub\n        /* \"#utility.yul\":6527:6563   */\n      add\n        /* \"#utility.yul\":6518:6524   */\n      0x0180\n        /* \"#utility.yul\":6507:6516   */\n      dup6\n        /* \"#utility.yul\":6503:6525   */\n      add\n        /* \"#utility.yul\":6496:6564   */\n      mstore\n        /* \"#utility.yul\":6587:6628   */\n      tag_391\n        /* \"#utility.yul\":6621:6627   */\n      dup3\n        /* \"#utility.yul\":6605:6619   */\n      dup3\n        /* \"#utility.yul\":6587:6628   */\n      tag_334\n      jump\t// in\n    tag_391:\n        /* \"#utility.yul\":6683:6686   */\n      0x0160\n        /* \"#utility.yul\":6671:6687   */\n      swap7\n      swap1\n      swap7\n      add\n        /* \"#utility.yul\":6665:6688   */\n      mload\n        /* \"#utility.yul\":6659:6662   */\n      0x01a0\n        /* \"#utility.yul\":6644:6663   */\n      dup6\n      add\n        /* \"#utility.yul\":6637:6689   */\n      mstore\n      pop\n      pop\n      pop\n        /* \"#utility.yul\":6743:6747   */\n      0x20\n        /* \"#utility.yul\":6728:6748   */\n      add\n        /* \"#utility.yul\":6721:6757   */\n      mstore\n        /* \"#utility.yul\":6573:6628   */\n      swap1\n        /* \"#utility.yul\":4967:6763   */\n      jump\t// out\n        /* \"#utility.yul\":6768:7787   */\n    tag_29:\n        /* \"#utility.yul\":6915:6921   */\n      0x00\n        /* \"#utility.yul\":6923:6929   */\n      dup1\n        /* \"#utility.yul\":6931:6937   */\n      0x00\n        /* \"#utility.yul\":6939:6945   */\n      dup1\n        /* \"#utility.yul\":6947:6953   */\n      0x00\n        /* \"#utility.yul\":7000:7003   */\n      0xa0\n        /* \"#utility.yul\":6988:6997   */\n      dup7\n        /* \"#utility.yul\":6979:6986   */\n      dup9\n        /* \"#utility.yul\":6975:6998   */\n      sub\n        /* \"#utility.yul\":6971:7004   */\n      slt\n        /* \"#utility.yul\":6968:7021   */\n      iszero\n      tag_393\n      jumpi\n        /* \"#utility.yul\":7017:7018   */\n      0x00\n        /* \"#utility.yul\":7014:7015   */\n      dup1\n        /* \"#utility.yul\":7007:7019   */\n      revert\n        /* \"#utility.yul\":6968:7021   */\n    tag_393:\n        /* \"#utility.yul\":7062:7085   */\n      dup6\n      calldataload\n      swap5\n      pop\n        /* \"#utility.yul\":7160:7162   */\n      0x20\n        /* \"#utility.yul\":7145:7163   */\n      dup7\n      add\n        /* \"#utility.yul\":7132:7164   */\n      calldataload\n      sub(shl(0x40, 0x01), 0x01)\n        /* \"#utility.yul\":7176:7206   */\n      dup2\n      gt\n        /* \"#utility.yul\":7173:7223   */\n      iszero\n      tag_394\n      jumpi\n        /* \"#utility.yul\":7219:7220   */\n      0x00\n        /* \"#utility.yul\":7216:7217   */\n      dup1\n        /* \"#utility.yul\":7209:7221   */\n      revert\n        /* \"#utility.yul\":7173:7223   */\n    tag_394:\n        /* \"#utility.yul\":7242:7301   */\n      tag_395\n        /* \"#utility.yul\":7293:7300   */\n      dup9\n        /* \"#utility.yul\":7284:7290   */\n      dup3\n        /* \"#utility.yul\":7273:7282   */\n      dup10\n        /* \"#utility.yul\":7269:7291   */\n      add\n        /* \"#utility.yul\":7242:7301   */\n      tag_333\n      jump\t// in\n    tag_395:\n        /* \"#utility.yul\":7232:7301   */\n      swap5\n      pop\n      pop\n        /* \"#utility.yul\":7374:7376   */\n      0x40\n        /* \"#utility.yul\":7359:7377   */\n      dup7\n      add\n        /* \"#utility.yul\":7346:7378   */\n      calldataload\n      swap3\n      pop\n        /* \"#utility.yul\":7457:7459   */\n      0x60\n        /* \"#utility.yul\":7442:7460   */\n      dup7\n      add\n        /* \"#utility.yul\":7429:7461   */\n      calldataload\n      sub(shl(0x40, 0x01), 0x01)\n        /* \"#utility.yul\":7473:7505   */\n      dup2\n      gt\n        /* \"#utility.yul\":7470:7522   */\n      iszero\n      tag_396\n      jumpi\n        /* \"#utility.yul\":7518:7519   */\n      0x00\n        /* \"#utility.yul\":7515:7516   */\n      dup1\n        /* \"#utility.yul\":7508:7520   */\n      revert\n        /* \"#utility.yul\":7470:7522   */\n    tag_396:\n        /* \"#utility.yul\":7541:7592   */\n      tag_397\n        /* \"#utility.yul\":7584:7591   */\n      dup9\n        /* \"#utility.yul\":7573:7581   */\n      dup3\n        /* \"#utility.yul\":7562:7571   */\n      dup10\n        /* \"#utility.yul\":7558:7582   */\n      add\n        /* \"#utility.yul\":7541:7592   */\n      tag_332\n      jump\t// in\n    tag_397:\n        /* \"#utility.yul\":7531:7592   */\n      swap3\n      pop\n      pop\n        /* \"#utility.yul\":7645:7648   */\n      0x80\n        /* \"#utility.yul\":7634:7643   */\n      dup7\n        /* \"#utility.yul\":7630:7649   */\n      add\n        /* \"#utility.yul\":7617:7650   */\n      calldataload\n      sub(shl(0x40, 0x01), 0x01)\n        /* \"#utility.yul\":7665:7673   */\n      dup2\n        /* \"#utility.yul\":7662:7694   */\n      gt\n        /* \"#utility.yul\":7659:7711   */\n      iszero\n      tag_398\n      jumpi\n        /* \"#utility.yul\":7707:7708   */\n      0x00\n        /* \"#utility.yul\":7704:7705   */\n      dup1\n        /* \"#utility.yul\":7697:7709   */\n      revert\n        /* \"#utility.yul\":7659:7711   */\n    tag_398:\n        /* \"#utility.yul\":7730:7781   */\n      tag_399\n        /* \"#utility.yul\":7773:7780   */\n      dup9\n        /* \"#utility.yul\":7762:7770   */\n      dup3\n        /* \"#utility.yul\":7751:7760   */\n      dup10\n        /* \"#utility.yul\":7747:7771   */\n      add\n        /* \"#utility.yul\":7730:7781   */\n      tag_332\n      jump\t// in\n    tag_399:\n        /* \"#utility.yul\":7720:7781   */\n      swap2\n      pop\n      pop\n        /* \"#utility.yul\":6768:7787   */\n      swap3\n      swap6\n      pop\n      swap3\n      swap6\n      swap1\n      swap4\n      pop\n      jump\t// out\n        /* \"#utility.yul\":7792:9531   */\n    tag_37:\n        /* \"#utility.yul\":8019:8021   */\n      0x40\n        /* \"#utility.yul\":8008:8017   */\n      dup2\n        /* \"#utility.yul\":8001:8022   */\n      mstore\n        /* \"#utility.yul\":7982:7986   */\n      0x00\n        /* \"#utility.yul\":8057:8063   */\n      dup4\n        /* \"#utility.yul\":8051:8064   */\n      mload\n        /* \"#utility.yul\":8100:8106   */\n      0x0160\n        /* \"#utility.yul\":8095:8097   */\n      0x40\n        /* \"#utility.yul\":8084:8093   */\n      dup5\n        /* \"#utility.yul\":8080:8098   */\n      add\n        /* \"#utility.yul\":8073:8107   */\n      mstore\n        /* \"#utility.yul\":8130:8182   */\n      tag_401\n        /* \"#utility.yul\":8177:8180   */\n      0x01a0\n        /* \"#utility.yul\":8166:8175   */\n      dup5\n        /* \"#utility.yul\":8162:8181   */\n      add\n        /* \"#utility.yul\":8148:8160   */\n      dup3\n        /* \"#utility.yul\":8130:8182   */\n      tag_334\n      jump\t// in\n    tag_401:\n        /* \"#utility.yul\":8116:8182   */\n      swap1\n      pop\n        /* \"#utility.yul\":8236:8240   */\n      0x20\n        /* \"#utility.yul\":8228:8234   */\n      dup6\n        /* \"#utility.yul\":8224:8241   */\n      add\n        /* \"#utility.yul\":8218:8242   */\n      mload\n        /* \"#utility.yul\":8213:8215   */\n      0x60\n        /* \"#utility.yul\":8202:8211   */\n      dup5\n        /* \"#utility.yul\":8198:8216   */\n      add\n        /* \"#utility.yul\":8191:8243   */\n      mstore\n        /* \"#utility.yul\":8298:8300   */\n      0x40\n        /* \"#utility.yul\":8290:8296   */\n      dup6\n        /* \"#utility.yul\":8286:8301   */\n      add\n        /* \"#utility.yul\":8280:8302   */\n      mload\n        /* \"#utility.yul\":8274:8277   */\n      0x80\n        /* \"#utility.yul\":8263:8272   */\n      dup5\n        /* \"#utility.yul\":8259:8278   */\n      add\n        /* \"#utility.yul\":8252:8303   */\n      mstore\n        /* \"#utility.yul\":8358:8360   */\n      0x60\n        /* \"#utility.yul\":8350:8356   */\n      dup6\n        /* \"#utility.yul\":8346:8361   */\n      add\n        /* \"#utility.yul\":8340:8362   */\n      mload\n        /* \"#utility.yul\":8334:8337   */\n      0xa0\n        /* \"#utility.yul\":8323:8332   */\n      dup5\n        /* \"#utility.yul\":8319:8338   */\n      add\n        /* \"#utility.yul\":8312:8363   */\n      mstore\n        /* \"#utility.yul\":8412:8415   */\n      0x80\n        /* \"#utility.yul\":8404:8410   */\n      dup6\n        /* \"#utility.yul\":8400:8416   */\n      add\n        /* \"#utility.yul\":8394:8417   */\n      mload\n        /* \"#utility.yul\":8486:8488   */\n      0x3f\n        /* \"#utility.yul\":8482:8489   */\n      not\n        /* \"#utility.yul\":8470:8479   */\n      dup5\n        /* \"#utility.yul\":8462:8468   */\n      dup4\n        /* \"#utility.yul\":8458:8480   */\n      sub\n        /* \"#utility.yul\":8454:8490   */\n      add\n        /* \"#utility.yul\":8448:8451   */\n      0xc0\n        /* \"#utility.yul\":8437:8446   */\n      dup6\n        /* \"#utility.yul\":8433:8452   */\n      add\n        /* \"#utility.yul\":8426:8491   */\n      mstore\n        /* \"#utility.yul\":8514:8555   */\n      tag_402\n        /* \"#utility.yul\":8548:8554   */\n      dup3\n        /* \"#utility.yul\":8532:8546   */\n      dup3\n        /* \"#utility.yul\":8514:8555   */\n      tag_334\n      jump\t// in\n    tag_402:\n        /* \"#utility.yul\":8500:8555   */\n      swap2\n      pop\n      pop\n        /* \"#utility.yul\":8610:8613   */\n      0xa0\n        /* \"#utility.yul\":8602:8608   */\n      dup6\n        /* \"#utility.yul\":8598:8614   */\n      add\n        /* \"#utility.yul\":8592:8615   */\n      mload\n        /* \"#utility.yul\":8586:8589   */\n      0xe0\n        /* \"#utility.yul\":8575:8584   */\n      dup5\n        /* \"#utility.yul\":8571:8590   */\n      add\n        /* \"#utility.yul\":8564:8616   */\n      mstore\n        /* \"#utility.yul\":8665:8668   */\n      0xc0\n        /* \"#utility.yul\":8657:8663   */\n      dup6\n        /* \"#utility.yul\":8653:8669   */\n      add\n        /* \"#utility.yul\":8647:8670   */\n      mload\n        /* \"#utility.yul\":8739:8741   */\n      0x3f\n        /* \"#utility.yul\":8735:8742   */\n      not\n        /* \"#utility.yul\":8723:8732   */\n      dup5\n        /* \"#utility.yul\":8715:8721   */\n      dup4\n        /* \"#utility.yul\":8711:8733   */\n      sub\n        /* \"#utility.yul\":8707:8743   */\n      add\n        /* \"#utility.yul\":8701:8704   */\n      0x0100\n        /* \"#utility.yul\":8690:8699   */\n      dup6\n        /* \"#utility.yul\":8686:8705   */\n      add\n        /* \"#utility.yul\":8679:8744   */\n      mstore\n        /* \"#utility.yul\":8767:8808   */\n      tag_403\n        /* \"#utility.yul\":8801:8807   */\n      dup3\n        /* \"#utility.yul\":8785:8799   */\n      dup3\n        /* \"#utility.yul\":8767:8808   */\n      tag_334\n      jump\t// in\n    tag_403:\n        /* \"#utility.yul\":8753:8808   */\n      swap2\n      pop\n      pop\n        /* \"#utility.yul\":8857:8860   */\n      0xe0\n        /* \"#utility.yul\":8849:8855   */\n      dup6\n        /* \"#utility.yul\":8845:8861   */\n      add\n        /* \"#utility.yul\":8839:8862   */\n      mload\n        /* \"#utility.yul\":8931:8933   */\n      0x3f\n        /* \"#utility.yul\":8927:8934   */\n      not\n        /* \"#utility.yul\":8915:8924   */\n      dup5\n        /* \"#utility.yul\":8907:8913   */\n      dup4\n        /* \"#utility.yul\":8903:8925   */\n      sub\n        /* \"#utility.yul\":8899:8935   */\n      add\n        /* \"#utility.yul\":8893:8896   */\n      0x0120\n        /* \"#utility.yul\":8882:8891   */\n      dup6\n        /* \"#utility.yul\":8878:8897   */\n      add\n        /* \"#utility.yul\":8871:8936   */\n      mstore\n        /* \"#utility.yul\":8959:9009   */\n      tag_404\n        /* \"#utility.yul\":9002:9008   */\n      dup3\n        /* \"#utility.yul\":8986:9000   */\n      dup3\n        /* \"#utility.yul\":8959:9009   */\n      tag_335\n      jump\t// in\n    tag_404:\n        /* \"#utility.yul\":8945:9009   */\n      swap2\n      pop\n      pop\n        /* \"#utility.yul\":9058:9061   */\n      0x0100\n        /* \"#utility.yul\":9050:9056   */\n      dup6\n        /* \"#utility.yul\":9046:9062   */\n      add\n        /* \"#utility.yul\":9040:9063   */\n      mload\n        /* \"#utility.yul\":9132:9134   */\n      0x3f\n        /* \"#utility.yul\":9128:9135   */\n      not\n        /* \"#utility.yul\":9116:9125   */\n      dup5\n        /* \"#utility.yul\":9108:9114   */\n      dup4\n        /* \"#utility.yul\":9104:9126   */\n      sub\n        /* \"#utility.yul\":9100:9136   */\n      add\n        /* \"#utility.yul\":9094:9097   */\n      0x0140\n        /* \"#utility.yul\":9083:9092   */\n      dup6\n        /* \"#utility.yul\":9079:9098   */\n      add\n        /* \"#utility.yul\":9072:9137   */\n      mstore\n        /* \"#utility.yul\":9160:9201   */\n      tag_405\n        /* \"#utility.yul\":9194:9200   */\n      dup3\n        /* \"#utility.yul\":9178:9192   */\n      dup3\n        /* \"#utility.yul\":9160:9201   */\n      tag_334\n      jump\t// in\n    tag_405:\n        /* \"#utility.yul\":9146:9201   */\n      swap2\n      pop\n      pop\n        /* \"#utility.yul\":9250:9253   */\n      0x0120\n        /* \"#utility.yul\":9242:9248   */\n      dup6\n        /* \"#utility.yul\":9238:9254   */\n      add\n        /* \"#utility.yul\":9232:9255   */\n      mload\n        /* \"#utility.yul\":9327:9329   */\n      0x3f\n        /* \"#utility.yul\":9323:9330   */\n      not\n        /* \"#utility.yul\":9311:9320   */\n      dup5\n        /* \"#utility.yul\":9303:9309   */\n      dup4\n        /* \"#utility.yul\":9299:9321   */\n      sub\n        /* \"#utility.yul\":9295:9331   */\n      add\n        /* \"#utility.yul\":9286:9292   */\n      0x0160\n        /* \"#utility.yul\":9275:9284   */\n      dup6\n        /* \"#utility.yul\":9271:9293   */\n      add\n        /* \"#utility.yul\":9264:9332   */\n      mstore\n        /* \"#utility.yul\":9355:9396   */\n      tag_406\n        /* \"#utility.yul\":9389:9395   */\n      dup3\n        /* \"#utility.yul\":9373:9387   */\n      dup3\n        /* \"#utility.yul\":9355:9396   */\n      tag_334\n      jump\t// in\n    tag_406:\n        /* \"#utility.yul\":9451:9454   */\n      0x0140\n        /* \"#utility.yul\":9439:9455   */\n      swap7\n      swap1\n      swap7\n      add\n        /* \"#utility.yul\":9433:9456   */\n      mload\n        /* \"#utility.yul\":9427:9430   */\n      0x0180\n        /* \"#utility.yul\":9412:9431   */\n      dup6\n      add\n        /* \"#utility.yul\":9405:9457   */\n      mstore\n      pop\n      pop\n      pop\n        /* \"#utility.yul\":9511:9515   */\n      0x20\n        /* \"#utility.yul\":9496:9516   */\n      add\n        /* \"#utility.yul\":9489:9525   */\n      mstore\n        /* \"#utility.yul\":9341:9396   */\n      swap1\n        /* \"#utility.yul\":7792:9531   */\n      jump\t// out\n        /* \"#utility.yul\":9536:10147   */\n    tag_43:\n        /* \"#utility.yul\":9759:9761   */\n      0x40\n        /* \"#utility.yul\":9748:9757   */\n      dup2\n        /* \"#utility.yul\":9741:9762   */\n      mstore\n        /* \"#utility.yul\":9804:9810   */\n      dup3\n        /* \"#utility.yul\":9798:9811   */\n      mload\n        /* \"#utility.yul\":9793:9795   */\n      0x40\n        /* \"#utility.yul\":9782:9791   */\n      dup3\n        /* \"#utility.yul\":9778:9796   */\n      add\n        /* \"#utility.yul\":9771:9812   */\n      mstore\n        /* \"#utility.yul\":9866:9870   */\n      0x20\n        /* \"#utility.yul\":9858:9864   */\n      dup4\n        /* \"#utility.yul\":9854:9871   */\n      add\n        /* \"#utility.yul\":9848:9872   */\n      mload\n        /* \"#utility.yul\":9843:9845   */\n      0x60\n        /* \"#utility.yul\":9832:9841   */\n      dup3\n        /* \"#utility.yul\":9828:9846   */\n      add\n        /* \"#utility.yul\":9821:9873   */\n      mstore\n        /* \"#utility.yul\":9929:9931   */\n      0x40\n        /* \"#utility.yul\":9921:9927   */\n      dup4\n        /* \"#utility.yul\":9917:9932   */\n      add\n        /* \"#utility.yul\":9911:9933   */\n      mload\n        /* \"#utility.yul\":9904:9908   */\n      0x80\n        /* \"#utility.yul\":9893:9902   */\n      dup3\n        /* \"#utility.yul\":9889:9909   */\n      add\n        /* \"#utility.yul\":9882:9934   */\n      mstore\n        /* \"#utility.yul\":9722:9726   */\n      0x00\n        /* \"#utility.yul\":9981:9983   */\n      0x60\n        /* \"#utility.yul\":9973:9979   */\n      dup5\n        /* \"#utility.yul\":9969:9984   */\n      add\n        /* \"#utility.yul\":9963:9985   */\n      mload\n        /* \"#utility.yul\":10022:10026   */\n      0x80\n        /* \"#utility.yul\":10016:10019   */\n      0xa0\n        /* \"#utility.yul\":10005:10014   */\n      dup5\n        /* \"#utility.yul\":10001:10020   */\n      add\n        /* \"#utility.yul\":9994:10027   */\n      mstore\n        /* \"#utility.yul\":10044:10096   */\n      tag_408\n        /* \"#utility.yul\":10091:10094   */\n      0xc0\n        /* \"#utility.yul\":10080:10089   */\n      dup5\n        /* \"#utility.yul\":10076:10095   */\n      add\n        /* \"#utility.yul\":10062:10074   */\n      dup3\n        /* \"#utility.yul\":10044:10096   */\n      tag_334\n      jump\t// in\n    tag_408:\n        /* \"#utility.yul\":10036:10096   */\n      swap2\n      pop\n      pop\n        /* \"#utility.yul\":10134:10140   */\n      dup3\n        /* \"#utility.yul\":10127:10131   */\n      0x20\n        /* \"#utility.yul\":10116:10125   */\n      dup4\n        /* \"#utility.yul\":10112:10132   */\n      add\n        /* \"#utility.yul\":10105:10141   */\n      mstore\n        /* \"#utility.yul\":9536:10147   */\n      swap4\n      swap3\n      pop\n      pop\n      pop\n      jump\t// out\n        /* \"#utility.yul\":10152:10363   */\n    tag_336:\n        /* \"#utility.yul\":10193:10196   */\n      0x00\n        /* \"#utility.yul\":10231:10236   */\n      dup2\n        /* \"#utility.yul\":10225:10237   */\n      mload\n        /* \"#utility.yul\":10275:10281   */\n      dup1\n        /* \"#utility.yul\":10268:10272   */\n      0x20\n        /* \"#utility.yul\":10261:10266   */\n      dup5\n        /* \"#utility.yul\":10257:10273   */\n      add\n        /* \"#utility.yul\":10252:10255   */\n      dup6\n        /* \"#utility.yul\":10246:10282   */\n      mcopy\n        /* \"#utility.yul\":10337:10338   */\n      0x00\n        /* \"#utility.yul\":10301:10317   */\n      swap4\n      add\n        /* \"#utility.yul\":10326:10339   */\n      swap3\n      dup4\n      mstore\n      pop\n        /* \"#utility.yul\":10301:10317   */\n      swap1\n      swap2\n        /* \"#utility.yul\":10152:10363   */\n      swap1\n      pop\n      jump\t// out\n        /* \"#utility.yul\":10368:10752   */\n    tag_46:\n        /* \"#utility.yul\":10611:10617   */\n      dup5\n        /* \"#utility.yul\":10606:10609   */\n      dup2\n        /* \"#utility.yul\":10599:10618   */\n      mstore\n        /* \"#utility.yul\":10648:10654   */\n      dup4\n        /* \"#utility.yul\":10643:10645   */\n      0x20\n        /* \"#utility.yul\":10638:10641   */\n      dup3\n        /* \"#utility.yul\":10634:10646   */\n      add\n        /* \"#utility.yul\":10627:10655   */\n      mstore\n        /* \"#utility.yul\":10685:10691   */\n      dup3\n        /* \"#utility.yul\":10680:10682   */\n      0x40\n        /* \"#utility.yul\":10675:10678   */\n      dup3\n        /* \"#utility.yul\":10671:10683   */\n      add\n        /* \"#utility.yul\":10664:10692   */\n      mstore\n        /* \"#utility.yul\":10581:10584   */\n      0x00\n        /* \"#utility.yul\":10708:10746   */\n      tag_364\n        /* \"#utility.yul\":10742:10744   */\n      0x60\n        /* \"#utility.yul\":10737:10740   */\n      dup4\n        /* \"#utility.yul\":10733:10745   */\n      add\n        /* \"#utility.yul\":10725:10731   */\n      dup5\n        /* \"#utility.yul\":10708:10746   */\n      tag_336\n      jump\t// in\n        /* \"#utility.yul\":10757:10884   */\n    tag_53:\n        /* \"#utility.yul\":10818:10828   */\n      0x4e487b71\n        /* \"#utility.yul\":10813:10816   */\n      0xe0\n        /* \"#utility.yul\":10809:10829   */\n      shl\n        /* \"#utility.yul\":10806:10807   */\n      0x00\n        /* \"#utility.yul\":10799:10830   */\n      mstore\n        /* \"#utility.yul\":10849:10853   */\n      0x32\n        /* \"#utility.yul\":10846:10847   */\n      0x04\n        /* \"#utility.yul\":10839:10854   */\n      mstore\n        /* \"#utility.yul\":10873:10877   */\n      0x24\n        /* \"#utility.yul\":10870:10871   */\n      0x00\n        /* \"#utility.yul\":10863:10878   */\n      revert\n        /* \"#utility.yul\":10889:11150   */\n    tag_55:\n        /* \"#utility.yul\":11064:11067   */\n      0x00\n        /* \"#utility.yul\":11089:11144   */\n      tag_269\n        /* \"#utility.yul\":11114:11143   */\n      tag_415\n        /* \"#utility.yul\":11139:11142   */\n      dup4\n        /* \"#utility.yul\":11131:11137   */\n      dup7\n        /* \"#utility.yul\":11114:11143   */\n      tag_336\n      jump\t// in\n    tag_415:\n        /* \"#utility.yul\":11106:11112   */\n      dup5\n        /* \"#utility.yul\":11089:11144   */\n      tag_336\n      jump\t// in\n        /* \"#utility.yul\":11155:11481   */\n    tag_57:\n        /* \"#utility.yul\":11388:11394   */\n      dup4\n        /* \"#utility.yul\":11383:11386   */\n      dup2\n        /* \"#utility.yul\":11376:11395   */\n      mstore\n        /* \"#utility.yul\":11358:11361   */\n      0x00\n        /* \"#utility.yul\":11411:11475   */\n      tag_417\n        /* \"#utility.yul\":11436:11474   */\n      tag_415\n        /* \"#utility.yul\":11470:11472   */\n      0x20\n        /* \"#utility.yul\":11465:11468   */\n      dup5\n        /* \"#utility.yul\":11461:11473   */\n      add\n        /* \"#utility.yul\":11453:11459   */\n      dup7\n        /* \"#utility.yul\":11436:11474   */\n      tag_336\n      jump\t// in\n        /* \"#utility.yul\":11411:11475   */\n    tag_417:\n        /* \"#utility.yul\":11404:11475   */\n      swap6\n        /* \"#utility.yul\":11155:11481   */\n      swap5\n      pop\n      pop\n      pop\n      pop\n      pop\n      jump\t// out\n        /* \"#utility.yul\":11486:11896   */\n    tag_67:\n        /* \"#utility.yul\":11688:11690   */\n      0x20\n        /* \"#utility.yul\":11670:11691   */\n      dup1\n      dup3\n      mstore\n        /* \"#utility.yul\":11727:11729   */\n      0x2e\n        /* \"#utility.yul\":11707:11725   */\n      swap1\n      dup3\n      add\n        /* \"#utility.yul\":11700:11730   */\n      mstore\n        /* \"#utility.yul\":11766:11800   */\n      0x496e636f7272656374206e756d626572206f66206669656c647320696e20524c\n        /* \"#utility.yul\":11761:11763   */\n      0x40\n        /* \"#utility.yul\":11746:11764   */\n      dup3\n      add\n        /* \"#utility.yul\":11739:11801   */\n      mstore\n      shl(0x90, 0x5020656e636f6465642064617461)\n        /* \"#utility.yul\":11832:11834   */\n      0x60\n        /* \"#utility.yul\":11817:11835   */\n      dup3\n      add\n        /* \"#utility.yul\":11810:11854   */\n      mstore\n        /* \"#utility.yul\":11886:11889   */\n      0x80\n        /* \"#utility.yul\":11871:11890   */\n      add\n      swap1\n        /* \"#utility.yul\":11486:11896   */\n      jump\t// out\n        /* \"#utility.yul\":11901:12198   */\n    tag_77:\n        /* \"#utility.yul\":12019:12031   */\n      dup1\n      mload\n        /* \"#utility.yul\":12066:12070   */\n      0x20\n        /* \"#utility.yul\":12055:12071   */\n      dup1\n      dup4\n      add\n        /* \"#utility.yul\":12049:12072   */\n      mload\n      swap2\n        /* \"#utility.yul\":12019:12031   */\n      swap1\n        /* \"#utility.yul\":12084:12100   */\n      dup2\n      lt\n        /* \"#utility.yul\":12081:12192   */\n      iszero\n      tag_297\n      jumpi\n      not(0x00)\n        /* \"#utility.yul\":12158:12162   */\n      0x20\n        /* \"#utility.yul\":12154:12171   */\n      swap2\n      swap1\n      swap2\n      sub\n        /* \"#utility.yul\":12151:12152   */\n      0x03\n        /* \"#utility.yul\":12147:12172   */\n      shl\n        /* \"#utility.yul\":12143:12181   */\n      shl\n        /* \"#utility.yul\":12132:12182   */\n      and\n      swap2\n        /* \"#utility.yul\":11901:12198   */\n      swap1\n      pop\n      jump\t// out\n        /* \"#utility.yul\":12203:13653   */\n    tag_126:\n        /* \"#utility.yul\":12773:12776   */\n      0x0160\n        /* \"#utility.yul\":12762:12771   */\n      dup2\n        /* \"#utility.yul\":12755:12777   */\n      mstore\n        /* \"#utility.yul\":12736:12740   */\n      0x00\n        /* \"#utility.yul\":12800:12846   */\n      tag_423\n        /* \"#utility.yul\":12841:12844   */\n      0x0160\n        /* \"#utility.yul\":12830:12839   */\n      dup4\n        /* \"#utility.yul\":12826:12845   */\n      add\n        /* \"#utility.yul\":12818:12824   */\n      dup15\n        /* \"#utility.yul\":12800:12846   */\n      tag_334\n      jump\t// in\n    tag_423:\n        /* \"#utility.yul\":12882:12888   */\n      dup13\n        /* \"#utility.yul\":12877:12879   */\n      0x20\n        /* \"#utility.yul\":12866:12875   */\n      dup5\n        /* \"#utility.yul\":12862:12880   */\n      add\n        /* \"#utility.yul\":12855:12889   */\n      mstore\n        /* \"#utility.yul\":12925:12931   */\n      dup12\n        /* \"#utility.yul\":12920:12922   */\n      0x40\n        /* \"#utility.yul\":12909:12918   */\n      dup5\n        /* \"#utility.yul\":12905:12923   */\n      add\n        /* \"#utility.yul\":12898:12932   */\n      mstore\n        /* \"#utility.yul\":12968:12974   */\n      dup11\n        /* \"#utility.yul\":12963:12965   */\n      0x60\n        /* \"#utility.yul\":12952:12961   */\n      dup5\n        /* \"#utility.yul\":12948:12966   */\n      add\n        /* \"#utility.yul\":12941:12975   */\n      mstore\n        /* \"#utility.yul\":13024:13033   */\n      dup3\n        /* \"#utility.yul\":13016:13022   */\n      dup2\n        /* \"#utility.yul\":13012:13034   */\n      sub\n        /* \"#utility.yul\":13006:13009   */\n      0x80\n        /* \"#utility.yul\":12995:13004   */\n      dup5\n        /* \"#utility.yul\":12991:13010   */\n      add\n        /* \"#utility.yul\":12984:13035   */\n      mstore\n        /* \"#utility.yul\":13058:13091   */\n      tag_424\n        /* \"#utility.yul\":13084:13090   */\n      dup2\n        /* \"#utility.yul\":13076:13082   */\n      dup12\n        /* \"#utility.yul\":13058:13091   */\n      tag_334\n      jump\t// in\n    tag_424:\n        /* \"#utility.yul\":13044:13091   */\n      swap1\n      pop\n        /* \"#utility.yul\":13128:13134   */\n      dup9\n        /* \"#utility.yul\":13122:13125   */\n      0xa0\n        /* \"#utility.yul\":13111:13120   */\n      dup5\n        /* \"#utility.yul\":13107:13126   */\n      add\n        /* \"#utility.yul\":13100:13135   */\n      mstore\n        /* \"#utility.yul\":13184:13193   */\n      dup3\n        /* \"#utility.yul\":13176:13182   */\n      dup2\n        /* \"#utility.yul\":13172:13194   */\n      sub\n        /* \"#utility.yul\":13166:13169   */\n      0xc0\n        /* \"#utility.yul\":13155:13164   */\n      dup5\n        /* \"#utility.yul\":13151:13170   */\n      add\n        /* \"#utility.yul\":13144:13195   */\n      mstore\n        /* \"#utility.yul\":13218:13251   */\n      tag_425\n        /* \"#utility.yul\":13244:13250   */\n      dup2\n        /* \"#utility.yul\":13236:13242   */\n      dup10\n        /* \"#utility.yul\":13218:13251   */\n      tag_334\n      jump\t// in\n    tag_425:\n        /* \"#utility.yul\":13204:13251   */\n      swap1\n      pop\n        /* \"#utility.yul\":13300:13309   */\n      dup3\n        /* \"#utility.yul\":13292:13298   */\n      dup2\n        /* \"#utility.yul\":13288:13310   */\n      sub\n        /* \"#utility.yul\":13282:13285   */\n      0xe0\n        /* \"#utility.yul\":13271:13280   */\n      dup5\n        /* \"#utility.yul\":13267:13286   */\n      add\n        /* \"#utility.yul\":13260:13311   */\n      mstore\n        /* \"#utility.yul\":13334:13376   */\n      tag_426\n        /* \"#utility.yul\":13369:13375   */\n      dup2\n        /* \"#utility.yul\":13361:13367   */\n      dup9\n        /* \"#utility.yul\":13334:13376   */\n      tag_335\n      jump\t// in\n    tag_426:\n        /* \"#utility.yul\":13320:13376   */\n      swap1\n      pop\n        /* \"#utility.yul\":13413:13419   */\n      dup6\n        /* \"#utility.yul\":13407:13410   */\n      0x0100\n        /* \"#utility.yul\":13396:13405   */\n      dup5\n        /* \"#utility.yul\":13392:13411   */\n      add\n        /* \"#utility.yul\":13385:13420   */\n      mstore\n        /* \"#utility.yul\":13469:13478   */\n      dup3\n        /* \"#utility.yul\":13461:13467   */\n      dup2\n        /* \"#utility.yul\":13457:13479   */\n      sub\n        /* \"#utility.yul\":13451:13454   */\n      0x0120\n        /* \"#utility.yul\":13440:13449   */\n      dup5\n        /* \"#utility.yul\":13436:13455   */\n      add\n        /* \"#utility.yul\":13429:13480   */\n      mstore\n        /* \"#utility.yul\":13503:13536   */\n      tag_427\n        /* \"#utility.yul\":13529:13535   */\n      dup2\n        /* \"#utility.yul\":13521:13527   */\n      dup7\n        /* \"#utility.yul\":13503:13536   */\n      tag_334\n      jump\t// in\n    tag_427:\n        /* \"#utility.yul\":13489:13536   */\n      swap1\n      pop\n        /* \"#utility.yul\":13585:13594   */\n      dup3\n        /* \"#utility.yul\":13577:13583   */\n      dup2\n        /* \"#utility.yul\":13573:13595   */\n      sub\n        /* \"#utility.yul\":13567:13570   */\n      0x0140\n        /* \"#utility.yul\":13556:13565   */\n      dup5\n        /* \"#utility.yul\":13552:13571   */\n      add\n        /* \"#utility.yul\":13545:13596   */\n      mstore\n        /* \"#utility.yul\":13613:13647   */\n      tag_428\n        /* \"#utility.yul\":13640:13646   */\n      dup2\n        /* \"#utility.yul\":13631:13638   */\n      dup6\n        /* \"#utility.yul\":13613:13647   */\n      tag_334\n      jump\t// in\n    tag_428:\n        /* \"#utility.yul\":13605:13647   */\n      swap15\n        /* \"#utility.yul\":12203:13653   */\n      swap14\n      pop\n      pop\n      pop\n      pop\n      pop\n      pop\n      pop\n      pop\n      pop\n      pop\n      pop\n      pop\n      pop\n      pop\n      jump\t// out\n        /* \"#utility.yul\":13840:14058   */\n    tag_132:\n        /* \"#utility.yul\":13987:13989   */\n      0x20\n        /* \"#utility.yul\":13976:13985   */\n      dup2\n        /* \"#utility.yul\":13969:13990   */\n      mstore\n        /* \"#utility.yul\":13950:13954   */\n      0x00\n        /* \"#utility.yul\":14007:14052   */\n      tag_296\n        /* \"#utility.yul\":14048:14050   */\n      0x20\n        /* \"#utility.yul\":14037:14046   */\n      dup4\n        /* \"#utility.yul\":14033:14051   */\n      add\n        /* \"#utility.yul\":14025:14031   */\n      dup5\n        /* \"#utility.yul\":14007:14052   */\n      tag_334\n      jump\t// in\n        /* \"#utility.yul\":14063:14555   */\n    tag_140:\n        /* \"#utility.yul\":14370:14376   */\n      dup6\n        /* \"#utility.yul\":14365:14368   */\n      dup2\n        /* \"#utility.yul\":14358:14377   */\n      mstore\n        /* \"#utility.yul\":14340:14343   */\n      0x00\n        /* \"#utility.yul\":14399:14463   */\n      tag_433\n        /* \"#utility.yul\":14424:14462   */\n      tag_434\n        /* \"#utility.yul\":14458:14460   */\n      0x20\n        /* \"#utility.yul\":14453:14456   */\n      dup5\n        /* \"#utility.yul\":14449:14461   */\n      add\n        /* \"#utility.yul\":14441:14447   */\n      dup9\n        /* \"#utility.yul\":14424:14462   */\n      tag_336\n      jump\t// in\n    tag_434:\n        /* \"#utility.yul\":14416:14422   */\n      dup7\n        /* \"#utility.yul\":14399:14463   */\n      tag_336\n      jump\t// in\n    tag_433:\n        /* \"#utility.yul\":14486:14492   */\n      dup5\n        /* \"#utility.yul\":14479:14484   */\n      dup2\n        /* \"#utility.yul\":14472:14493   */\n      mstore\n        /* \"#utility.yul\":14509:14549   */\n      tag_435\n        /* \"#utility.yul\":14545:14547   */\n      0x20\n        /* \"#utility.yul\":14538:14543   */\n      dup3\n        /* \"#utility.yul\":14534:14548   */\n      add\n        /* \"#utility.yul\":14526:14532   */\n      dup6\n        /* \"#utility.yul\":14509:14549   */\n      tag_336\n      jump\t// in\n    tag_435:\n        /* \"#utility.yul\":14502:14549   */\n      swap9\n        /* \"#utility.yul\":14063:14555   */\n      swap8\n      pop\n      pop\n      pop\n      pop\n      pop\n      pop\n      pop\n      pop\n      jump\t// out\n        /* \"#utility.yul\":14560:15936   */\n    tag_198:\n        /* \"#utility.yul\":15101:15104   */\n      0x0140\n        /* \"#utility.yul\":15090:15099   */\n      dup2\n        /* \"#utility.yul\":15083:15105   */\n      mstore\n        /* \"#utility.yul\":15064:15068   */\n      0x00\n        /* \"#utility.yul\":15128:15174   */\n      tag_437\n        /* \"#utility.yul\":15169:15172   */\n      0x0140\n        /* \"#utility.yul\":15158:15167   */\n      dup4\n        /* \"#utility.yul\":15154:15173   */\n      add\n        /* \"#utility.yul\":15146:15152   */\n      dup14\n        /* \"#utility.yul\":15128:15174   */\n      tag_334\n      jump\t// in\n    tag_437:\n        /* \"#utility.yul\":15210:15216   */\n      dup12\n        /* \"#utility.yul\":15205:15207   */\n      0x20\n        /* \"#utility.yul\":15194:15203   */\n      dup5\n        /* \"#utility.yul\":15190:15208   */\n      add\n        /* \"#utility.yul\":15183:15217   */\n      mstore\n        /* \"#utility.yul\":15253:15259   */\n      dup11\n        /* \"#utility.yul\":15248:15250   */\n      0x40\n        /* \"#utility.yul\":15237:15246   */\n      dup5\n        /* \"#utility.yul\":15233:15251   */\n      add\n        /* \"#utility.yul\":15226:15260   */\n      mstore\n        /* \"#utility.yul\":15296:15302   */\n      dup10\n        /* \"#utility.yul\":15291:15293   */\n      0x60\n        /* \"#utility.yul\":15280:15289   */\n      dup5\n        /* \"#utility.yul\":15276:15294   */\n      add\n        /* \"#utility.yul\":15269:15303   */\n      mstore\n        /* \"#utility.yul\":15352:15361   */\n      dup3\n        /* \"#utility.yul\":15344:15350   */\n      dup2\n        /* \"#utility.yul\":15340:15362   */\n      sub\n        /* \"#utility.yul\":15334:15337   */\n      0x80\n        /* \"#utility.yul\":15323:15332   */\n      dup5\n        /* \"#utility.yul\":15319:15338   */\n      add\n        /* \"#utility.yul\":15312:15363   */\n      mstore\n        /* \"#utility.yul\":15386:15419   */\n      tag_438\n        /* \"#utility.yul\":15412:15418   */\n      dup2\n        /* \"#utility.yul\":15404:15410   */\n      dup11\n        /* \"#utility.yul\":15386:15419   */\n      tag_334\n      jump\t// in\n    tag_438:\n        /* \"#utility.yul\":15372:15419   */\n      swap1\n      pop\n        /* \"#utility.yul\":15456:15462   */\n      dup8\n        /* \"#utility.yul\":15450:15453   */\n      0xa0\n        /* \"#utility.yul\":15439:15448   */\n      dup5\n        /* \"#utility.yul\":15435:15454   */\n      add\n        /* \"#utility.yul\":15428:15463   */\n      mstore\n        /* \"#utility.yul\":15512:15521   */\n      dup3\n        /* \"#utility.yul\":15504:15510   */\n      dup2\n        /* \"#utility.yul\":15500:15522   */\n      sub\n        /* \"#utility.yul\":15494:15497   */\n      0xc0\n        /* \"#utility.yul\":15483:15492   */\n      dup5\n        /* \"#utility.yul\":15479:15498   */\n      add\n        /* \"#utility.yul\":15472:15523   */\n      mstore\n        /* \"#utility.yul\":15546:15579   */\n      tag_439\n        /* \"#utility.yul\":15572:15578   */\n      dup2\n        /* \"#utility.yul\":15564:15570   */\n      dup9\n        /* \"#utility.yul\":15546:15579   */\n      tag_334\n      jump\t// in\n    tag_439:\n        /* \"#utility.yul\":15532:15579   */\n      swap1\n      pop\n        /* \"#utility.yul\":15628:15637   */\n      dup3\n        /* \"#utility.yul\":15620:15626   */\n      dup2\n        /* \"#utility.yul\":15616:15638   */\n      sub\n        /* \"#utility.yul\":15610:15613   */\n      0xe0\n        /* \"#utility.yul\":15599:15608   */\n      dup5\n        /* \"#utility.yul\":15595:15614   */\n      add\n        /* \"#utility.yul\":15588:15639   */\n      mstore\n        /* \"#utility.yul\":15662:15704   */\n      tag_440\n        /* \"#utility.yul\":15697:15703   */\n      dup2\n        /* \"#utility.yul\":15689:15695   */\n      dup8\n        /* \"#utility.yul\":15662:15704   */\n      tag_335\n      jump\t// in\n    tag_440:\n        /* \"#utility.yul\":15648:15704   */\n      swap1\n      pop\n        /* \"#utility.yul\":15753:15762   */\n      dup3\n        /* \"#utility.yul\":15745:15751   */\n      dup2\n        /* \"#utility.yul\":15741:15763   */\n      sub\n        /* \"#utility.yul\":15735:15738   */\n      0x0100\n        /* \"#utility.yul\":15724:15733   */\n      dup5\n        /* \"#utility.yul\":15720:15739   */\n      add\n        /* \"#utility.yul\":15713:15764   */\n      mstore\n        /* \"#utility.yul\":15787:15820   */\n      tag_441\n        /* \"#utility.yul\":15813:15819   */\n      dup2\n        /* \"#utility.yul\":15805:15811   */\n      dup7\n        /* \"#utility.yul\":15787:15820   */\n      tag_334\n      jump\t// in\n    tag_441:\n        /* \"#utility.yul\":15773:15820   */\n      swap1\n      pop\n        /* \"#utility.yul\":15869:15878   */\n      dup3\n        /* \"#utility.yul\":15861:15867   */\n      dup2\n        /* \"#utility.yul\":15857:15879   */\n      sub\n        /* \"#utility.yul\":15851:15854   */\n      0x0120\n        /* \"#utility.yul\":15840:15849   */\n      dup5\n        /* \"#utility.yul\":15836:15855   */\n      add\n        /* \"#utility.yul\":15829:15880   */\n      mstore\n        /* \"#utility.yul\":15897:15930   */\n      tag_442\n        /* \"#utility.yul\":15923:15929   */\n      dup2\n        /* \"#utility.yul\":15915:15921   */\n      dup6\n        /* \"#utility.yul\":15897:15930   */\n      tag_334\n      jump\t// in\n    tag_442:\n        /* \"#utility.yul\":15889:15930   */\n      swap14\n        /* \"#utility.yul\":14560:15936   */\n      swap13\n      pop\n      pop\n      pop\n      pop\n      pop\n      pop\n      pop\n      pop\n      pop\n      pop\n      pop\n      pop\n      pop\n      jump\t// out\n        /* \"#utility.yul\":16123:16628   */\n    tag_227:\n        /* \"#utility.yul\":16382:16388   */\n      dup6\n        /* \"#utility.yul\":16371:16380   */\n      dup2\n        /* \"#utility.yul\":16364:16389   */\n      mstore\n        /* \"#utility.yul\":16425:16431   */\n      dup5\n        /* \"#utility.yul\":16420:16422   */\n      0x20\n        /* \"#utility.yul\":16409:16418   */\n      dup3\n        /* \"#utility.yul\":16405:16423   */\n      add\n        /* \"#utility.yul\":16398:16432   */\n      mstore\n        /* \"#utility.yul\":16468:16474   */\n      dup4\n        /* \"#utility.yul\":16463:16465   */\n      0x40\n        /* \"#utility.yul\":16452:16461   */\n      dup3\n        /* \"#utility.yul\":16448:16466   */\n      add\n        /* \"#utility.yul\":16441:16475   */\n      mstore\n        /* \"#utility.yul\":16511:16514   */\n      0xa0\n        /* \"#utility.yul\":16506:16508   */\n      0x60\n        /* \"#utility.yul\":16495:16504   */\n      dup3\n        /* \"#utility.yul\":16491:16509   */\n      add\n        /* \"#utility.yul\":16484:16515   */\n      mstore\n        /* \"#utility.yul\":16345:16349   */\n      0x00\n        /* \"#utility.yul\":16532:16578   */\n      tag_445\n        /* \"#utility.yul\":16573:16576   */\n      0xa0\n        /* \"#utility.yul\":16562:16571   */\n      dup4\n        /* \"#utility.yul\":16558:16577   */\n      add\n        /* \"#utility.yul\":16550:16556   */\n      dup6\n        /* \"#utility.yul\":16532:16578   */\n      tag_334\n      jump\t// in\n    tag_445:\n        /* \"#utility.yul\":16524:16578   */\n      swap1\n      pop\n        /* \"#utility.yul\":16615:16621   */\n      dup3\n        /* \"#utility.yul\":16609:16612   */\n      0x80\n        /* \"#utility.yul\":16598:16607   */\n      dup4\n        /* \"#utility.yul\":16594:16613   */\n      add\n        /* \"#utility.yul\":16587:16622   */\n      mstore\n        /* \"#utility.yul\":16123:16628   */\n      swap7\n      swap6\n      pop\n      pop\n      pop\n      pop\n      pop\n      pop\n      jump\t// out\n        /* \"#utility.yul\":16633:16760   */\n    tag_337:\n        /* \"#utility.yul\":16694:16704   */\n      0x4e487b71\n        /* \"#utility.yul\":16689:16692   */\n      0xe0\n        /* \"#utility.yul\":16685:16705   */\n      shl\n        /* \"#utility.yul\":16682:16683   */\n      0x00\n        /* \"#utility.yul\":16675:16706   */\n      mstore\n        /* \"#utility.yul\":16725:16729   */\n      0x11\n        /* \"#utility.yul\":16722:16723   */\n      0x04\n        /* \"#utility.yul\":16715:16730   */\n      mstore\n        /* \"#utility.yul\":16749:16753   */\n      0x24\n        /* \"#utility.yul\":16746:16747   */\n      0x00\n        /* \"#utility.yul\":16739:16754   */\n      revert\n        /* \"#utility.yul\":16765:16890   */\n    tag_247:\n        /* \"#utility.yul\":16830:16839   */\n      dup1\n      dup3\n      add\n        /* \"#utility.yul\":16851:16861   */\n      dup1\n      dup3\n      gt\n        /* \"#utility.yul\":16848:16884   */\n      iszero\n      tag_449\n      jumpi\n        /* \"#utility.yul\":16864:16882   */\n      tag_449\n      tag_337\n      jump\t// in\n    tag_449:\n        /* \"#utility.yul\":16765:16890   */\n      swap3\n      swap2\n      pop\n      pop\n      jump\t// out\n        /* \"#utility.yul\":16895:17030   */\n    tag_283:\n        /* \"#utility.yul\":16934:16937   */\n      0x00\n        /* \"#utility.yul\":16955:16972   */\n      0x01\n      dup3\n      add\n        /* \"#utility.yul\":16952:16995   */\n      tag_452\n      jumpi\n        /* \"#utility.yul\":16975:16993   */\n      tag_452\n      tag_337\n      jump\t// in\n    tag_452:\n      pop\n        /* \"#utility.yul\":17022:17023   */\n      0x01\n        /* \"#utility.yul\":17011:17024   */\n      add\n      swap1\n        /* \"#utility.yul\":16895:17030   */\n      jump\t// out\n        /* \"#utility.yul\":17035:17186   */\n    tag_293:\n        /* \"#utility.yul\":17125:17129   */\n      0xff\n        /* \"#utility.yul\":17118:17130   */\n      dup3\n      dup2\n      and\n        /* \"#utility.yul\":17104:17116   */\n      dup3\n      dup3\n      and\n        /* \"#utility.yul\":17100:17131   */\n      sub\n      swap1\n        /* \"#utility.yul\":17143:17157   */\n      dup2\n      gt\n        /* \"#utility.yul\":17140:17180   */\n      iszero\n      tag_449\n      jumpi\n        /* \"#utility.yul\":17160:17178   */\n      tag_449\n      tag_337\n      jump\t// in\n        /* \"#utility.yul\":17191:17319   */\n    tag_295:\n        /* \"#utility.yul\":17258:17267   */\n      dup2\n      dup2\n      sub\n        /* \"#utility.yul\":17279:17290   */\n      dup2\n      dup2\n      gt\n        /* \"#utility.yul\":17276:17313   */\n      iszero\n      tag_449\n      jumpi\n        /* \"#utility.yul\":17293:17311   */\n      tag_449\n      tag_337\n      jump\t// in\n        /* \"#utility.yul\":17324:17699   */\n    tag_338:\n        /* \"#utility.yul\":17412:17413   */\n      0x01\n        /* \"#utility.yul\":17430:17435   */\n      dup2\n        /* \"#utility.yul\":17444:17693   */\n    tag_460:\n        /* \"#utility.yul\":17465:17466   */\n      0x01\n        /* \"#utility.yul\":17455:17463   */\n      dup5\n        /* \"#utility.yul\":17452:17467   */\n      gt\n        /* \"#utility.yul\":17444:17693   */\n      iszero\n      tag_462\n      jumpi\n        /* \"#utility.yul\":17515:17519   */\n      dup1\n        /* \"#utility.yul\":17510:17513   */\n      dup6\n        /* \"#utility.yul\":17506:17520   */\n      div\n        /* \"#utility.yul\":17500:17504   */\n      dup2\n        /* \"#utility.yul\":17497:17521   */\n      gt\n        /* \"#utility.yul\":17494:17544   */\n      iszero\n      tag_464\n      jumpi\n        /* \"#utility.yul\":17524:17542   */\n      tag_464\n      tag_337\n      jump\t// in\n    tag_464:\n        /* \"#utility.yul\":17574:17575   */\n      0x01\n        /* \"#utility.yul\":17564:17572   */\n      dup5\n        /* \"#utility.yul\":17560:17576   */\n      and\n        /* \"#utility.yul\":17557:17606   */\n      iszero\n      tag_465\n      jumpi\n        /* \"#utility.yul\":17588:17604   */\n      swap1\n      dup2\n      mul\n      swap1\n        /* \"#utility.yul\":17557:17606   */\n    tag_465:\n        /* \"#utility.yul\":17671:17672   */\n      0x01\n        /* \"#utility.yul\":17667:17683   */\n      swap4\n      swap1\n      swap4\n      shr\n      swap3\n        /* \"#utility.yul\":17627:17642   */\n      dup1\n      mul\n        /* \"#utility.yul\":17444:17693   */\n      jump(tag_460)\n    tag_462:\n        /* \"#utility.yul\":17324:17699   */\n      swap4\n      pop\n      swap4\n      swap2\n      pop\n      pop\n      jump\t// out\n        /* \"#utility.yul\":17704:18606   */\n    tag_339:\n        /* \"#utility.yul\":17753:17758   */\n      0x00\n        /* \"#utility.yul\":17783:17791   */\n      dup3\n        /* \"#utility.yul\":17773:17853   */\n      tag_467\n      jumpi\n      pop\n        /* \"#utility.yul\":17824:17825   */\n      0x01\n        /* \"#utility.yul\":17838:17843   */\n      jump(tag_449)\n        /* \"#utility.yul\":17773:17853   */\n    tag_467:\n        /* \"#utility.yul\":17872:17876   */\n      dup2\n        /* \"#utility.yul\":17862:17938   */\n      tag_468\n      jumpi\n      pop\n        /* \"#utility.yul\":17909:17910   */\n      0x00\n        /* \"#utility.yul\":17923:17928   */\n      jump(tag_449)\n        /* \"#utility.yul\":17862:17938   */\n    tag_468:\n        /* \"#utility.yul\":17954:17958   */\n      dup2\n        /* \"#utility.yul\":17972:17973   */\n      0x01\n        /* \"#utility.yul\":17967:18026   */\n      dup2\n      eq\n      tag_470\n      jumpi\n        /* \"#utility.yul\":18040:18041   */\n      0x02\n        /* \"#utility.yul\":18035:18209   */\n      dup2\n      eq\n      tag_471\n      jumpi\n        /* \"#utility.yul\":17947:18209   */\n      jump(tag_469)\n        /* \"#utility.yul\":17967:18026   */\n    tag_470:\n        /* \"#utility.yul\":17997:17998   */\n      0x01\n        /* \"#utility.yul\":17988:17998   */\n      swap2\n      pop\n        /* \"#utility.yul\":18011:18016   */\n      pop\n      jump(tag_449)\n        /* \"#utility.yul\":18035:18209   */\n    tag_471:\n        /* \"#utility.yul\":18072:18075   */\n      0xff\n        /* \"#utility.yul\":18062:18070   */\n      dup5\n        /* \"#utility.yul\":18059:18076   */\n      gt\n        /* \"#utility.yul\":18056:18099   */\n      iszero\n      tag_473\n      jumpi\n        /* \"#utility.yul\":18079:18097   */\n      tag_473\n      tag_337\n      jump\t// in\n    tag_473:\n      pop\n      pop\n        /* \"#utility.yul\":18135:18136   */\n      0x01\n        /* \"#utility.yul\":18121:18137   */\n      dup3\n      shl\n        /* \"#utility.yul\":18194:18199   */\n      jump(tag_449)\n        /* \"#utility.yul\":17947:18209   */\n    tag_469:\n      pop\n        /* \"#utility.yul\":18293:18295   */\n      0x20\n        /* \"#utility.yul\":18283:18291   */\n      dup4\n        /* \"#utility.yul\":18280:18296   */\n      lt\n        /* \"#utility.yul\":18274:18277   */\n      0x0133\n        /* \"#utility.yul\":18268:18272   */\n      dup4\n        /* \"#utility.yul\":18265:18278   */\n      lt\n        /* \"#utility.yul\":18261:18297   */\n      and\n        /* \"#utility.yul\":18255:18257   */\n      0x4e\n        /* \"#utility.yul\":18245:18253   */\n      dup5\n        /* \"#utility.yul\":18242:18258   */\n      lt\n        /* \"#utility.yul\":18237:18239   */\n      0x0b\n        /* \"#utility.yul\":18231:18235   */\n      dup5\n        /* \"#utility.yul\":18228:18240   */\n      lt\n        /* \"#utility.yul\":18224:18259   */\n      and\n        /* \"#utility.yul\":18221:18298   */\n      or\n        /* \"#utility.yul\":18218:18421   */\n      iszero\n      tag_474\n      jumpi\n      pop\n        /* \"#utility.yul\":18330:18349   */\n      dup2\n      dup2\n      exp\n        /* \"#utility.yul\":18406:18411   */\n      jump(tag_449)\n        /* \"#utility.yul\":18218:18421   */\n    tag_474:\n        /* \"#utility.yul\":18453:18495   */\n      tag_475\n      not(0x00)\n        /* \"#utility.yul\":18478:18486   */\n      dup5\n        /* \"#utility.yul\":18472:18476   */\n      dup5\n        /* \"#utility.yul\":18453:18495   */\n      tag_338\n      jump\t// in\n    tag_475:\n        /* \"#utility.yul\":18531:18537   */\n      dup1\n        /* \"#utility.yul\":18527:18528   */\n      0x00\n        /* \"#utility.yul\":18523:18529   */\n      not\n        /* \"#utility.yul\":18519:18538   */\n      div\n        /* \"#utility.yul\":18510:18517   */\n      dup3\n        /* \"#utility.yul\":18507:18539   */\n      gt\n        /* \"#utility.yul\":18504:18562   */\n      iszero\n      tag_477\n      jumpi\n        /* \"#utility.yul\":18542:18560   */\n      tag_477\n      tag_337\n      jump\t// in\n    tag_477:\n        /* \"#utility.yul\":18580:18600   */\n      mul\n      swap4\n        /* \"#utility.yul\":17704:18606   */\n      swap3\n      pop\n      pop\n      pop\n      jump\t// out\n        /* \"#utility.yul\":18611:18742   */\n    tag_329:\n        /* \"#utility.yul\":18671:18676   */\n      0x00\n        /* \"#utility.yul\":18700:18736   */\n      tag_296\n        /* \"#utility.yul\":18727:18735   */\n      dup4\n        /* \"#utility.yul\":18721:18725   */\n      dup4\n        /* \"#utility.yul\":18700:18736   */\n      tag_339\n      jump\t// in\n\n    auxdata: 0xa26469706673582212207fa6453f4a3c30371dbc488865bd249f5c9e3bf5516caca017a8bfbe21cb245d64736f6c634300081a0033\n}\n",
				"bytecode": {
					"linkReferences": {},
					"object": "611acc610034600b8282823980515f1a607314602857634e487b7160e01b5f525f60045260245ffd5b305f52607381538281f3fe730000000000000000000000000000000000000000301460806040526004361061006b575f3560e01c8063155152461461006f5780632c66f61a1461009557806388ede4a2146100a8578063c7d60a06146100d5578063e09bc827146100f4578063fe0103f714610121575b5f80fd5b61008261007d366004611156565b61014e565b6040519081526020015b60405180910390f35b6100826100a336600461124d565b610186565b8180156100b3575f80fd5b506100c76100c23660046112e9565b610212565b60405161008c9291906113a2565b8180156100e0575f80fd5b506100826100ef3660046114a6565b6105b4565b8180156100ff575f80fd5b5061011361010e3660046112e9565b610659565b60405161008c929190611544565b81801561012c575f80fd5b5061014061013b3660046112e9565b61094e565b60405161008c92919061163c565b5f84848484604051602001610166949392919061169c565b604051602081830303815290604052805190602001209050949350505050565b5f60605f5b86518110156101da57818782815181106101a7576101a76116b9565b60200260200101516040516020016101c09291906116cd565b60408051601f19818403018152919052915060010161018b565b508685826040516020016101f0939291906116e1565b6040516020818303038152906040528051906020012091505095945050505050565b61021a610fe7565b5f8061025461024f856040805180820182525f8082526020918201528151808301909252825182529182019181019190915290565b610b75565b90508051600c146102805760405162461bcd60e51b8152600401610277906116fe565b60405180910390fd5b610288610fe7565b6102aa825f8151811061029d5761029d6116b9565b6020026020010151610c7a565b815281516102c5908390600190811061029d5761029d6116b9565b6102ce9061174c565b602082015281516102f990839060029081106102ec576102ec6116b9565b6020026020010151610cf4565b60408201528151610317908390600390811061029d5761029d6116b9565b6103209061174c565b6060820152815161033e908390600490811061029d5761029d6116b9565b816080018190525061035c826005815181106102ec576102ec6116b9565b60a0820152815161037a908390600690811061029d5761029d6116b9565b8160c001819052505f6103a683600781518110610399576103996116b9565b6020026020010151610b75565b905080516001600160401b038111156103c1576103c16110a7565b6040519080825280602002602001820160405280156103f457816020015b60608152602001906001900390816103df5790505b5060e08301525f5b81518110156104435761041a82828151811061029d5761029d6116b9565b8360e001518281518110610430576104306116b9565b60209081029190910101526001016103fc565b5061045a8360088151811061029d5761029d6116b9565b6104639061174c565b6101008301528251610482908490600990811061029d5761029d6116b9565b8261012001819052506104a183600a8151811061029d5761029d6116b9565b8261014001819052506104c083600b8151811061029d5761029d6116b9565b6104c99061174c565b610160830152815160208301516040808501516060860151608087015160a088015160c089015160e08a01516101008b01516101208c01516101408d015198517f90eee31558acfcfed6439516fb8d12f248b9aef0fa51dd84936c1256090643f09b6105409b909a9099989796959493929161176f565b60405180910390a15f61056c83602001518460e0015185610100015186610120015187608001516105b4565b90507ff9a7ea37911815f4a89b25e48dc4ee38541a0e1128907411984b0a228788c8798160405161059f91815260200190565b60405180910390a19196919550909350505050565b5f7f5dcadceca961b7159cec0e118986188b438287559ed58b29a762182b22a52cad826040516105e49190611818565b60405180910390a160605f5b865181101561063f578187828151811061060c5761060c6116b9565b60200260200101516040516020016106259291906116cd565b60408051601f1981840301815291905291506001016105f0565b5086838287876040516020016101f095949392919061182a565b610661611049565b5f8061069661024f856040805180820182525f8082526020918201528151808301909252825182529182019181019190915290565b90508051600b146106b95760405162461bcd60e51b8152600401610277906116fe565b6106c1611049565b6106d6825f8151811061029d5761029d6116b9565b815281516106f1908390600190811061029d5761029d6116b9565b6106fa9061174c565b6020820152815161071890839060029081106102ec576102ec6116b9565b60408201528151610736908390600390811061029d5761029d6116b9565b61073f9061174c565b6060820152815161075d908390600490811061029d5761029d6116b9565b816080018190525061077b826005815181106102ec576102ec6116b9565b60a08201528151610799908390600690811061029d5761029d6116b9565b8160c001819052505f6107b883600781518110610399576103996116b9565b905080516001600160401b038111156107d3576107d36110a7565b60405190808252806020026020018201604052801561080657816020015b60608152602001906001900390816107f15790505b5060e08301525f5b81518110156108555761082c82828151811061029d5761029d6116b9565b8360e001518281518110610842576108426116b9565b602090810291909101015260010161080e565b5061086c8360088151811061029d5761029d6116b9565b82610100018190525061088b8360098151811061029d5761029d6116b9565b8261012001819052506108aa83600a8151811061029d5761029d6116b9565b6108b39061174c565b610140830152815160208301516040808501516060860151608087015160a088015160c089015160e08a01516101008b01516101208c015197517fe5fda43f81ac665889dc77778f276a13836ee131965d49e6cdd827ea35343f159a6109239a9099909897969594939291611860565b60405180910390a15f61056c83602001518460e0015185608001518661010001518760a00151610186565b604080516080810182525f8082526020808301829052828401829052606080840152835180850185528281528101829052835180850190945284518452848101908401529091819061099f90610b75565b905080516004146109c25760405162461bcd60e51b8152600401610277906116fe565b604080516080810182525f80825260208201819052918101919091526060808201526109f9825f8151811061029d5761029d6116b9565b610a029061174c565b81528151610a1d90839060019081106102ec576102ec6116b9565b60208281018290526040519182527f245716014a178144670148ec993e73f5f2cbc96529afa0b8fbe731b4a74566bc910160405180910390a1610a6c8260028151811061029d5761029d6116b9565b610a759061174c565b6040828101829052519081527fb7cfa42c424e0e7e35ff08e6ea1cf2789fec94621f570d48f844b82582a4b8ec9060200160405180910390a1610ac48260038151811061029d5761029d6116b9565b6060820181905281516020830151604080850151865191517fa690c9f86196602d7fd3dd6934f38b29ee9bd564d1a89bb5d3372ae964f0d53795610b0b9594939091611901565b60405180910390a15f610b2f825f015183602001518460400151856060015161014e565b90507ff9a7ea37911815f4a89b25e48dc4ee38541a0e1128907411984b0a228788c87981604051610b6291815260200190565b60405180910390a1909590945092505050565b6060610b8082610d3f565b610b88575f80fd5b5f610b9283610d76565b90505f816001600160401b03811115610bad57610bad6110a7565b604051908082528060200260200182016040528015610bf157816020015b604080518082019091525f8082526020820152815260200190600190039081610bcb5790505b5090505f610c028560200151610df6565b8560200151610c11919061194b565b90505f805b84811015610c6f57610c2783610e7c565b9150604051806040016040528083815260200184815250848281518110610c5057610c506116b9565b6020908102919091010152610c65828461194b565b9250600101610c16565b509195945050505050565b8051606090610c87575f80fd5b5f80610c9284610f24565b915091505f816001600160401b03811115610caf57610caf6110a7565b6040519080825280601f01601f191660200182016040528015610cd9576020820181803683370190505b50905060208101610ceb848285610f66565b50949350505050565b80515f9015801590610d0857508151602110155b610d10575f80fd5b5f80610d1b84610f24565b815191935091506020821015610d375760208290036101000a90045b949350505050565b80515f908103610d5057505f919050565b602082015180515f1a9060c0821015610d6c57505f9392505050565b5060019392505050565b80515f908103610d8757505f919050565b5f80610d968460200151610df6565b8460200151610da5919061194b565b90505f845f01518560200151610dbb919061194b565b90505b80821015610ded57610dcf82610e7c565b610dd9908361194b565b915082610de581611964565b935050610dbe565b50909392505050565b80515f90811a6080811015610e0d57505f92915050565b60b8811080610e28575060c08110801590610e28575060f881105b15610e365750600192915050565b60c0811015610e6a57610e4b600160b861197c565b610e589060ff1682611995565b610e6390600161194b565b9392505050565b610e4b600160f861197c565b50919050565b80515f908190811a6080811015610e965760019150610f1d565b60b8811015610ebc57610eaa608082611995565b610eb590600161194b565b9150610f1d565b60c0811015610ee95760b78103600185019450806020036101000a85510460018201810193505050610f1d565b60f8811015610efd57610eaa60c082611995565b60f78103600185019450806020036101000a855104600182018101935050505b5092915050565b5f805f610f348460200151610df6565b90505f818560200151610f47919061194b565b90505f82865f0151610f599190611995565b9196919550909350505050565b805f03610f7257505050565b60208110610faa5782518252610f8960208461194b565b9250610f9660208361194b565b9150610fa3602082611995565b9050610f72565b8015610fe2575f6001610fbe836020611995565b610fca90610100611a8b565b610fd49190611995565b845184518216911916178352505b505050565b604080516101808101825260608082525f602083018190529282018390528082018390526080820181905260a0820183905260c0820181905260e082018190526101008201839052610120820181905261014082015261016081019190915290565b604051806101600160405280606081526020015f80191681526020015f81526020015f8019168152602001606081526020015f8152602001606081526020016060815260200160608152602001606081526020015f80191681525090565b634e487b7160e01b5f52604160045260245ffd5b604051601f8201601f191681016001600160401b03811182821017156110e3576110e36110a7565b604052919050565b5f82601f8301126110fa575f80fd5b81356001600160401b03811115611113576111136110a7565b611126601f8201601f19166020016110bb565b81815284602083860101111561113a575f80fd5b816020850160208301375f918101602001919091529392505050565b5f805f8060808587031215611169575f80fd5b84359350602085013592506040850135915060608501356001600160401b03811115611193575f80fd5b61119f878288016110eb565b91505092959194509250565b5f82601f8301126111ba575f80fd5b81356001600160401b038111156111d3576111d36110a7565b8060051b6111e3602082016110bb565b918252602081850181019290810190868411156111fe575f80fd5b6020860192505b838310156112435782356001600160401b03811115611222575f80fd5b611231886020838a01016110eb565b83525060209283019290910190611205565b9695505050505050565b5f805f805f60a08688031215611261575f80fd5b8535945060208601356001600160401b0381111561127d575f80fd5b611289888289016111ab565b94505060408601356001600160401b038111156112a4575f80fd5b6112b0888289016110eb565b93505060608601356001600160401b038111156112cb575f80fd5b6112d7888289016110eb565b95989497509295608001359392505050565b5f602082840312156112f9575f80fd5b81356001600160401b0381111561130e575f80fd5b610d37848285016110eb565b5f81518084528060208401602086015e5f602082860101526020601f19601f83011685010191505092915050565b5f82825180855260208501945060208160051b830101602085015f5b8381101561139657601f1985840301885261138083835161131a565b6020988901989093509190910190600101611364565b50909695505050505050565b604081525f835161018060408401526113bf6101c084018261131a565b90506020850151606084015260408501516080840152606085015160a08401526080850151603f198483030160c08501526113fa828261131a565b91505060a085015160e084015260c0850151603f1984830301610100850152611423828261131a565b91505060e0850151603f19848303016101208501526114428282611348565b915050610100850151610140840152610120850151603f198483030161016085015261146e828261131a565b915050610140850151603f198483030161018085015261148e828261131a565b61016096909601516101a08501525050506020015290565b5f805f805f60a086880312156114ba575f80fd5b8535945060208601356001600160401b038111156114d6575f80fd5b6114e2888289016111ab565b9450506040860135925060608601356001600160401b03811115611504575f80fd5b611510888289016110eb565b92505060808601356001600160401b0381111561152b575f80fd5b611537888289016110eb565b9150509295509295909350565b604081525f835161016060408401526115616101a084018261131a565b90506020850151606084015260408501516080840152606085015160a08401526080850151603f198483030160c085015261159c828261131a565b91505060a085015160e084015260c0850151603f19848303016101008501526115c5828261131a565b91505060e0850151603f19848303016101208501526115e48282611348565b915050610100850151603f1984830301610140850152611604828261131a565b915050610120850151603f1984830301610160850152611624828261131a565b61014096909601516101808501525050506020015290565b604081528251604082015260208301516060820152604083015160808201525f6060840151608060a084015261167560c084018261131a565b9150508260208301529392505050565b5f81518060208401855e5f93019283525090919050565b8481528360208201528260408201525f6112436060830184611685565b634e487b7160e01b5f52603260045260245ffd5b5f610d376116db8386611685565b84611685565b8381525f6116f56116db6020840186611685565b95945050505050565b6020808252602e908201527f496e636f7272656374206e756d626572206f66206669656c647320696e20524c60408201526d5020656e636f646564206461746160901b606082015260800190565b80516020808301519190811015610e76575f1960209190910360031b1b16919050565b61016081525f61178361016083018e61131a565b8c60208401528b60408401528a606084015282810360808401526117a7818b61131a565b90508860a084015282810360c08401526117c1818961131a565b905082810360e08401526117d58188611348565b9050856101008401528281036101208401526117f1818661131a565b9050828103610140840152611806818561131a565b9e9d5050505050505050505050505050565b602081525f610e63602083018461131a565b8581525f61184461183e6020840188611685565b86611685565b8481526118546020820185611685565b98975050505050505050565b61014081525f61187461014083018d61131a565b8b60208401528a60408401528960608401528281036080840152611898818a61131a565b90508760a084015282810360c08401526118b2818861131a565b905082810360e08401526118c68187611348565b90508281036101008401526118db818661131a565b90508281036101208401526118f0818561131a565b9d9c50505050505050505050505050565b85815284602082015283604082015260a060608201525f61192560a083018561131a565b90508260808301529695505050505050565b634e487b7160e01b5f52601160045260245ffd5b8082018082111561195e5761195e611937565b92915050565b5f6001820161197557611975611937565b5060010190565b60ff828116828216039081111561195e5761195e611937565b8181038181111561195e5761195e611937565b6001815b60018411156119e3578085048111156119c7576119c7611937565b60018416156119d557908102905b60019390931c9280026119ac565b935093915050565b5f826119f95750600161195e565b81611a0557505f61195e565b8160018114611a1b5760028114611a2557611a41565b600191505061195e565b60ff841115611a3657611a36611937565b50506001821b61195e565b5060208310610133831016604e8410600b8410161715611a64575081810a61195e565b611a705f1984846119a8565b805f1904821115611a8357611a83611937565b029392505050565b5f610e6383836119eb56fea26469706673582212207fa6453f4a3c30371dbc488865bd249f5c9e3bf5516caca017a8bfbe21cb245d64736f6c634300081a0033",
					"opcodes": "PUSH2 0x1ACC PUSH2 0x34 PUSH1 0xB DUP3 DUP3 DUP3 CODECOPY DUP1 MLOAD PUSH0 BYTE PUSH1 0x73 EQ PUSH1 0x28 JUMPI PUSH4 0x4E487B71 PUSH1 0xE0 SHL PUSH0 MSTORE PUSH0 PUSH1 0x4 MSTORE PUSH1 0x24 PUSH0 REVERT JUMPDEST ADDRESS PUSH0 MSTORE PUSH1 0x73 DUP2 MSTORE8 DUP3 DUP2 RETURN INVALID PUSH20 0x0 ADDRESS EQ PUSH1 0x80 PUSH1 0x40 MSTORE PUSH1 0x4 CALLDATASIZE LT PUSH2 0x6B JUMPI PUSH0 CALLDATALOAD PUSH1 0xE0 SHR DUP1 PUSH4 0x15515246 EQ PUSH2 0x6F JUMPI DUP1 PUSH4 0x2C66F61A EQ PUSH2 0x95 JUMPI DUP1 PUSH4 0x88EDE4A2 EQ PUSH2 0xA8 JUMPI DUP1 PUSH4 0xC7D60A06 EQ PUSH2 0xD5 JUMPI DUP1 PUSH4 0xE09BC827 EQ PUSH2 0xF4 JUMPI DUP1 PUSH4 0xFE0103F7 EQ PUSH2 0x121 JUMPI JUMPDEST PUSH0 DUP1 REVERT JUMPDEST PUSH2 0x82 PUSH2 0x7D CALLDATASIZE PUSH1 0x4 PUSH2 0x1156 JUMP JUMPDEST PUSH2 0x14E JUMP JUMPDEST PUSH1 0x40 MLOAD SWAP1 DUP2 MSTORE PUSH1 0x20 ADD JUMPDEST PUSH1 0x40 MLOAD DUP1 SWAP2 SUB SWAP1 RETURN JUMPDEST PUSH2 0x82 PUSH2 0xA3 CALLDATASIZE PUSH1 0x4 PUSH2 0x124D JUMP JUMPDEST PUSH2 0x186 JUMP JUMPDEST DUP2 DUP1 ISZERO PUSH2 0xB3 JUMPI PUSH0 DUP1 REVERT JUMPDEST POP PUSH2 0xC7 PUSH2 0xC2 CALLDATASIZE PUSH1 0x4 PUSH2 0x12E9 JUMP JUMPDEST PUSH2 0x212 JUMP JUMPDEST PUSH1 0x40 MLOAD PUSH2 0x8C SWAP3 SWAP2 SWAP1 PUSH2 0x13A2 JUMP JUMPDEST DUP2 DUP1 ISZERO PUSH2 0xE0 JUMPI PUSH0 DUP1 REVERT JUMPDEST POP PUSH2 0x82 PUSH2 0xEF CALLDATASIZE PUSH1 0x4 PUSH2 0x14A6 JUMP JUMPDEST PUSH2 0x5B4 JUMP JUMPDEST DUP2 DUP1 ISZERO PUSH2 0xFF JUMPI PUSH0 DUP1 REVERT JUMPDEST POP PUSH2 0x113 PUSH2 0x10E CALLDATASIZE PUSH1 0x4 PUSH2 0x12E9 JUMP JUMPDEST PUSH2 0x659 JUMP JUMPDEST PUSH1 0x40 MLOAD PUSH2 0x8C SWAP3 SWAP2 SWAP1 PUSH2 0x1544 JUMP JUMPDEST DUP2 DUP1 ISZERO PUSH2 0x12C JUMPI PUSH0 DUP1 REVERT JUMPDEST POP PUSH2 0x140 PUSH2 0x13B CALLDATASIZE PUSH1 0x4 PUSH2 0x12E9 JUMP JUMPDEST PUSH2 0x94E JUMP JUMPDEST PUSH1 0x40 MLOAD PUSH2 0x8C SWAP3 SWAP2 SWAP1 PUSH2 0x163C JUMP JUMPDEST PUSH0 DUP5 DUP5 DUP5 DUP5 PUSH1 0x40 MLOAD PUSH1 0x20 ADD PUSH2 0x166 SWAP5 SWAP4 SWAP3 SWAP2 SWAP1 PUSH2 0x169C JUMP JUMPDEST PUSH1 0x40 MLOAD PUSH1 0x20 DUP2 DUP4 SUB SUB DUP2 MSTORE SWAP1 PUSH1 0x40 MSTORE DUP1 MLOAD SWAP1 PUSH1 0x20 ADD KECCAK256 SWAP1 POP SWAP5 SWAP4 POP POP POP POP JUMP JUMPDEST PUSH0 PUSH1 0x60 PUSH0 JUMPDEST DUP7 MLOAD DUP2 LT ISZERO PUSH2 0x1DA JUMPI DUP2 DUP8 DUP3 DUP2 MLOAD DUP2 LT PUSH2 0x1A7 JUMPI PUSH2 0x1A7 PUSH2 0x16B9 JUMP JUMPDEST PUSH1 0x20 MUL PUSH1 0x20 ADD ADD MLOAD PUSH1 0x40 MLOAD PUSH1 0x20 ADD PUSH2 0x1C0 SWAP3 SWAP2 SWAP1 PUSH2 0x16CD JUMP JUMPDEST PUSH1 0x40 DUP1 MLOAD PUSH1 0x1F NOT DUP2 DUP5 SUB ADD DUP2 MSTORE SWAP2 SWAP1 MSTORE SWAP2 POP PUSH1 0x1 ADD PUSH2 0x18B JUMP JUMPDEST POP DUP7 DUP6 DUP3 PUSH1 0x40 MLOAD PUSH1 0x20 ADD PUSH2 0x1F0 SWAP4 SWAP3 SWAP2 SWAP1 PUSH2 0x16E1 JUMP JUMPDEST PUSH1 0x40 MLOAD PUSH1 0x20 DUP2 DUP4 SUB SUB DUP2 MSTORE SWAP1 PUSH1 0x40 MSTORE DUP1 MLOAD SWAP1 PUSH1 0x20 ADD KECCAK256 SWAP2 POP POP SWAP6 SWAP5 POP POP POP POP POP JUMP JUMPDEST PUSH2 0x21A PUSH2 0xFE7 JUMP JUMPDEST PUSH0 DUP1 PUSH2 0x254 PUSH2 0x24F DUP6 PUSH1 0x40 DUP1 MLOAD DUP1 DUP3 ADD DUP3 MSTORE PUSH0 DUP1 DUP3 MSTORE PUSH1 0x20 SWAP2 DUP3 ADD MSTORE DUP2 MLOAD DUP1 DUP4 ADD SWAP1 SWAP3 MSTORE DUP3 MLOAD DUP3 MSTORE SWAP2 DUP3 ADD SWAP2 DUP2 ADD SWAP2 SWAP1 SWAP2 MSTORE SWAP1 JUMP JUMPDEST PUSH2 0xB75 JUMP JUMPDEST SWAP1 POP DUP1 MLOAD PUSH1 0xC EQ PUSH2 0x280 JUMPI PUSH1 0x40 MLOAD PUSH3 0x461BCD PUSH1 0xE5 SHL DUP2 MSTORE PUSH1 0x4 ADD PUSH2 0x277 SWAP1 PUSH2 0x16FE JUMP JUMPDEST PUSH1 0x40 MLOAD DUP1 SWAP2 SUB SWAP1 REVERT JUMPDEST PUSH2 0x288 PUSH2 0xFE7 JUMP JUMPDEST PUSH2 0x2AA DUP3 PUSH0 DUP2 MLOAD DUP2 LT PUSH2 0x29D JUMPI PUSH2 0x29D PUSH2 0x16B9 JUMP JUMPDEST PUSH1 0x20 MUL PUSH1 0x20 ADD ADD MLOAD PUSH2 0xC7A JUMP JUMPDEST DUP2 MSTORE DUP2 MLOAD PUSH2 0x2C5 SWAP1 DUP4 SWAP1 PUSH1 0x1 SWAP1 DUP2 LT PUSH2 0x29D JUMPI PUSH2 0x29D PUSH2 0x16B9 JUMP JUMPDEST PUSH2 0x2CE SWAP1 PUSH2 0x174C JUMP JUMPDEST PUSH1 0x20 DUP3 ADD MSTORE DUP2 MLOAD PUSH2 0x2F9 SWAP1 DUP4 SWAP1 PUSH1 0x2 SWAP1 DUP2 LT PUSH2 0x2EC JUMPI PUSH2 0x2EC PUSH2 0x16B9 JUMP JUMPDEST PUSH1 0x20 MUL PUSH1 0x20 ADD ADD MLOAD PUSH2 0xCF4 JUMP JUMPDEST PUSH1 0x40 DUP3 ADD MSTORE DUP2 MLOAD PUSH2 0x317 SWAP1 DUP4 SWAP1 PUSH1 0x3 SWAP1 DUP2 LT PUSH2 0x29D JUMPI PUSH2 0x29D PUSH2 0x16B9 JUMP JUMPDEST PUSH2 0x320 SWAP1 PUSH2 0x174C JUMP JUMPDEST PUSH1 0x60 DUP3 ADD MSTORE DUP2 MLOAD PUSH2 0x33E SWAP1 DUP4 SWAP1 PUSH1 0x4 SWAP1 DUP2 LT PUSH2 0x29D JUMPI PUSH2 0x29D PUSH2 0x16B9 JUMP JUMPDEST DUP2 PUSH1 0x80 ADD DUP2 SWAP1 MSTORE POP PUSH2 0x35C DUP3 PUSH1 0x5 DUP2 MLOAD DUP2 LT PUSH2 0x2EC JUMPI PUSH2 0x2EC PUSH2 0x16B9 JUMP JUMPDEST PUSH1 0xA0 DUP3 ADD MSTORE DUP2 MLOAD PUSH2 0x37A SWAP1 DUP4 SWAP1 PUSH1 0x6 SWAP1 DUP2 LT PUSH2 0x29D JUMPI PUSH2 0x29D PUSH2 0x16B9 JUMP JUMPDEST DUP2 PUSH1 0xC0 ADD DUP2 SWAP1 MSTORE POP PUSH0 PUSH2 0x3A6 DUP4 PUSH1 0x7 DUP2 MLOAD DUP2 LT PUSH2 0x399 JUMPI PUSH2 0x399 PUSH2 0x16B9 JUMP JUMPDEST PUSH1 0x20 MUL PUSH1 0x20 ADD ADD MLOAD PUSH2 0xB75 JUMP JUMPDEST SWAP1 POP DUP1 MLOAD PUSH1 0x1 PUSH1 0x1 PUSH1 0x40 SHL SUB DUP2 GT ISZERO PUSH2 0x3C1 JUMPI PUSH2 0x3C1 PUSH2 0x10A7 JUMP JUMPDEST PUSH1 0x40 MLOAD SWAP1 DUP1 DUP3 MSTORE DUP1 PUSH1 0x20 MUL PUSH1 0x20 ADD DUP3 ADD PUSH1 0x40 MSTORE DUP1 ISZERO PUSH2 0x3F4 JUMPI DUP2 PUSH1 0x20 ADD JUMPDEST PUSH1 0x60 DUP2 MSTORE PUSH1 0x20 ADD SWAP1 PUSH1 0x1 SWAP1 SUB SWAP1 DUP2 PUSH2 0x3DF JUMPI SWAP1 POP JUMPDEST POP PUSH1 0xE0 DUP4 ADD MSTORE PUSH0 JUMPDEST DUP2 MLOAD DUP2 LT ISZERO PUSH2 0x443 JUMPI PUSH2 0x41A DUP3 DUP3 DUP2 MLOAD DUP2 LT PUSH2 0x29D JUMPI PUSH2 0x29D PUSH2 0x16B9 JUMP JUMPDEST DUP4 PUSH1 0xE0 ADD MLOAD DUP3 DUP2 MLOAD DUP2 LT PUSH2 0x430 JUMPI PUSH2 0x430 PUSH2 0x16B9 JUMP JUMPDEST PUSH1 0x20 SWAP1 DUP2 MUL SWAP2 SWAP1 SWAP2 ADD ADD MSTORE PUSH1 0x1 ADD PUSH2 0x3FC JUMP JUMPDEST POP PUSH2 0x45A DUP4 PUSH1 0x8 DUP2 MLOAD DUP2 LT PUSH2 0x29D JUMPI PUSH2 0x29D PUSH2 0x16B9 JUMP JUMPDEST PUSH2 0x463 SWAP1 PUSH2 0x174C JUMP JUMPDEST PUSH2 0x100 DUP4 ADD MSTORE DUP3 MLOAD PUSH2 0x482 SWAP1 DUP5 SWAP1 PUSH1 0x9 SWAP1 DUP2 LT PUSH2 0x29D JUMPI PUSH2 0x29D PUSH2 0x16B9 JUMP JUMPDEST DUP3 PUSH2 0x120 ADD DUP2 SWAP1 MSTORE POP PUSH2 0x4A1 DUP4 PUSH1 0xA DUP2 MLOAD DUP2 LT PUSH2 0x29D JUMPI PUSH2 0x29D PUSH2 0x16B9 JUMP JUMPDEST DUP3 PUSH2 0x140 ADD DUP2 SWAP1 MSTORE POP PUSH2 0x4C0 DUP4 PUSH1 0xB DUP2 MLOAD DUP2 LT PUSH2 0x29D JUMPI PUSH2 0x29D PUSH2 0x16B9 JUMP JUMPDEST PUSH2 0x4C9 SWAP1 PUSH2 0x174C JUMP JUMPDEST PUSH2 0x160 DUP4 ADD MSTORE DUP2 MLOAD PUSH1 0x20 DUP4 ADD MLOAD PUSH1 0x40 DUP1 DUP6 ADD MLOAD PUSH1 0x60 DUP7 ADD MLOAD PUSH1 0x80 DUP8 ADD MLOAD PUSH1 0xA0 DUP9 ADD MLOAD PUSH1 0xC0 DUP10 ADD MLOAD PUSH1 0xE0 DUP11 ADD MLOAD PUSH2 0x100 DUP12 ADD MLOAD PUSH2 0x120 DUP13 ADD MLOAD PUSH2 0x140 DUP14 ADD MLOAD SWAP9 MLOAD PUSH32 0x90EEE31558ACFCFED6439516FB8D12F248B9AEF0FA51DD84936C1256090643F0 SWAP12 PUSH2 0x540 SWAP12 SWAP1 SWAP11 SWAP1 SWAP10 SWAP9 SWAP8 SWAP7 SWAP6 SWAP5 SWAP4 SWAP3 SWAP2 PUSH2 0x176F JUMP JUMPDEST PUSH1 0x40 MLOAD DUP1 SWAP2 SUB SWAP1 LOG1 PUSH0 PUSH2 0x56C DUP4 PUSH1 0x20 ADD MLOAD DUP5 PUSH1 0xE0 ADD MLOAD DUP6 PUSH2 0x100 ADD MLOAD DUP7 PUSH2 0x120 ADD MLOAD DUP8 PUSH1 0x80 ADD MLOAD PUSH2 0x5B4 JUMP JUMPDEST SWAP1 POP PUSH32 0xF9A7EA37911815F4A89B25E48DC4EE38541A0E1128907411984B0A228788C879 DUP2 PUSH1 0x40 MLOAD PUSH2 0x59F SWAP2 DUP2 MSTORE PUSH1 0x20 ADD SWAP1 JUMP JUMPDEST PUSH1 0x40 MLOAD DUP1 SWAP2 SUB SWAP1 LOG1 SWAP2 SWAP7 SWAP2 SWAP6 POP SWAP1 SWAP4 POP POP POP POP JUMP JUMPDEST PUSH0 PUSH32 0x5DCADCECA961B7159CEC0E118986188B438287559ED58B29A762182B22A52CAD DUP3 PUSH1 0x40 MLOAD PUSH2 0x5E4 SWAP2 SWAP1 PUSH2 0x1818 JUMP JUMPDEST PUSH1 0x40 MLOAD DUP1 SWAP2 SUB SWAP1 LOG1 PUSH1 0x60 PUSH0 JUMPDEST DUP7 MLOAD DUP2 LT ISZERO PUSH2 0x63F JUMPI DUP2 DUP8 DUP3 DUP2 MLOAD DUP2 LT PUSH2 0x60C JUMPI PUSH2 0x60C PUSH2 0x16B9 JUMP JUMPDEST PUSH1 0x20 MUL PUSH1 0x20 ADD ADD MLOAD PUSH1 0x40 MLOAD PUSH1 0x20 ADD PUSH2 0x625 SWAP3 SWAP2 SWAP1 PUSH2 0x16CD JUMP JUMPDEST PUSH1 0x40 DUP1 MLOAD PUSH1 0x1F NOT DUP2 DUP5 SUB ADD DUP2 MSTORE SWAP2 SWAP1 MSTORE SWAP2 POP PUSH1 0x1 ADD PUSH2 0x5F0 JUMP JUMPDEST POP DUP7 DUP4 DUP3 DUP8 DUP8 PUSH1 0x40 MLOAD PUSH1 0x20 ADD PUSH2 0x1F0 SWAP6 SWAP5 SWAP4 SWAP3 SWAP2 SWAP1 PUSH2 0x182A JUMP JUMPDEST PUSH2 0x661 PUSH2 0x1049 JUMP JUMPDEST PUSH0 DUP1 PUSH2 0x696 PUSH2 0x24F DUP6 PUSH1 0x40 DUP1 MLOAD DUP1 DUP3 ADD DUP3 MSTORE PUSH0 DUP1 DUP3 MSTORE PUSH1 0x20 SWAP2 DUP3 ADD MSTORE DUP2 MLOAD DUP1 DUP4 ADD SWAP1 SWAP3 MSTORE DUP3 MLOAD DUP3 MSTORE SWAP2 DUP3 ADD SWAP2 DUP2 ADD SWAP2 SWAP1 SWAP2 MSTORE SWAP1 JUMP JUMPDEST SWAP1 POP DUP1 MLOAD PUSH1 0xB EQ PUSH2 0x6B9 JUMPI PUSH1 0x40 MLOAD PUSH3 0x461BCD PUSH1 0xE5 SHL DUP2 MSTORE PUSH1 0x4 ADD PUSH2 0x277 SWAP1 PUSH2 0x16FE JUMP JUMPDEST PUSH2 0x6C1 PUSH2 0x1049 JUMP JUMPDEST PUSH2 0x6D6 DUP3 PUSH0 DUP2 MLOAD DUP2 LT PUSH2 0x29D JUMPI PUSH2 0x29D PUSH2 0x16B9 JUMP JUMPDEST DUP2 MSTORE DUP2 MLOAD PUSH2 0x6F1 SWAP1 DUP4 SWAP1 PUSH1 0x1 SWAP1 DUP2 LT PUSH2 0x29D JUMPI PUSH2 0x29D PUSH2 0x16B9 JUMP JUMPDEST PUSH2 0x6FA SWAP1 PUSH2 0x174C JUMP JUMPDEST PUSH1 0x20 DUP3 ADD MSTORE DUP2 MLOAD PUSH2 0x718 SWAP1 DUP4 SWAP1 PUSH1 0x2 SWAP1 DUP2 LT PUSH2 0x2EC JUMPI PUSH2 0x2EC PUSH2 0x16B9 JUMP JUMPDEST PUSH1 0x40 DUP3 ADD MSTORE DUP2 MLOAD PUSH2 0x736 SWAP1 DUP4 SWAP1 PUSH1 0x3 SWAP1 DUP2 LT PUSH2 0x29D JUMPI PUSH2 0x29D PUSH2 0x16B9 JUMP JUMPDEST PUSH2 0x73F SWAP1 PUSH2 0x174C JUMP JUMPDEST PUSH1 0x60 DUP3 ADD MSTORE DUP2 MLOAD PUSH2 0x75D SWAP1 DUP4 SWAP1 PUSH1 0x4 SWAP1 DUP2 LT PUSH2 0x29D JUMPI PUSH2 0x29D PUSH2 0x16B9 JUMP JUMPDEST DUP2 PUSH1 0x80 ADD DUP2 SWAP1 MSTORE POP PUSH2 0x77B DUP3 PUSH1 0x5 DUP2 MLOAD DUP2 LT PUSH2 0x2EC JUMPI PUSH2 0x2EC PUSH2 0x16B9 JUMP JUMPDEST PUSH1 0xA0 DUP3 ADD MSTORE DUP2 MLOAD PUSH2 0x799 SWAP1 DUP4 SWAP1 PUSH1 0x6 SWAP1 DUP2 LT PUSH2 0x29D JUMPI PUSH2 0x29D PUSH2 0x16B9 JUMP JUMPDEST DUP2 PUSH1 0xC0 ADD DUP2 SWAP1 MSTORE POP PUSH0 PUSH2 0x7B8 DUP4 PUSH1 0x7 DUP2 MLOAD DUP2 LT PUSH2 0x399 JUMPI PUSH2 0x399 PUSH2 0x16B9 JUMP JUMPDEST SWAP1 POP DUP1 MLOAD PUSH1 0x1 PUSH1 0x1 PUSH1 0x40 SHL SUB DUP2 GT ISZERO PUSH2 0x7D3 JUMPI PUSH2 0x7D3 PUSH2 0x10A7 JUMP JUMPDEST PUSH1 0x40 MLOAD SWAP1 DUP1 DUP3 MSTORE DUP1 PUSH1 0x20 MUL PUSH1 0x20 ADD DUP3 ADD PUSH1 0x40 MSTORE DUP1 ISZERO PUSH2 0x806 JUMPI DUP2 PUSH1 0x20 ADD JUMPDEST PUSH1 0x60 DUP2 MSTORE PUSH1 0x20 ADD SWAP1 PUSH1 0x1 SWAP1 SUB SWAP1 DUP2 PUSH2 0x7F1 JUMPI SWAP1 POP JUMPDEST POP PUSH1 0xE0 DUP4 ADD MSTORE PUSH0 JUMPDEST DUP2 MLOAD DUP2 LT ISZERO PUSH2 0x855 JUMPI PUSH2 0x82C DUP3 DUP3 DUP2 MLOAD DUP2 LT PUSH2 0x29D JUMPI PUSH2 0x29D PUSH2 0x16B9 JUMP JUMPDEST DUP4 PUSH1 0xE0 ADD MLOAD DUP3 DUP2 MLOAD DUP2 LT PUSH2 0x842 JUMPI PUSH2 0x842 PUSH2 0x16B9 JUMP JUMPDEST PUSH1 0x20 SWAP1 DUP2 MUL SWAP2 SWAP1 SWAP2 ADD ADD MSTORE PUSH1 0x1 ADD PUSH2 0x80E JUMP JUMPDEST POP PUSH2 0x86C DUP4 PUSH1 0x8 DUP2 MLOAD DUP2 LT PUSH2 0x29D JUMPI PUSH2 0x29D PUSH2 0x16B9 JUMP JUMPDEST DUP3 PUSH2 0x100 ADD DUP2 SWAP1 MSTORE POP PUSH2 0x88B DUP4 PUSH1 0x9 DUP2 MLOAD DUP2 LT PUSH2 0x29D JUMPI PUSH2 0x29D PUSH2 0x16B9 JUMP JUMPDEST DUP3 PUSH2 0x120 ADD DUP2 SWAP1 MSTORE POP PUSH2 0x8AA DUP4 PUSH1 0xA DUP2 MLOAD DUP2 LT PUSH2 0x29D JUMPI PUSH2 0x29D PUSH2 0x16B9 JUMP JUMPDEST PUSH2 0x8B3 SWAP1 PUSH2 0x174C JUMP JUMPDEST PUSH2 0x140 DUP4 ADD MSTORE DUP2 MLOAD PUSH1 0x20 DUP4 ADD MLOAD PUSH1 0x40 DUP1 DUP6 ADD MLOAD PUSH1 0x60 DUP7 ADD MLOAD PUSH1 0x80 DUP8 ADD MLOAD PUSH1 0xA0 DUP9 ADD MLOAD PUSH1 0xC0 DUP10 ADD MLOAD PUSH1 0xE0 DUP11 ADD MLOAD PUSH2 0x100 DUP12 ADD MLOAD PUSH2 0x120 DUP13 ADD MLOAD SWAP8 MLOAD PUSH32 0xE5FDA43F81AC665889DC77778F276A13836EE131965D49E6CDD827EA35343F15 SWAP11 PUSH2 0x923 SWAP11 SWAP1 SWAP10 SWAP1 SWAP9 SWAP8 SWAP7 SWAP6 SWAP5 SWAP4 SWAP3 SWAP2 PUSH2 0x1860 JUMP JUMPDEST PUSH1 0x40 MLOAD DUP1 SWAP2 SUB SWAP1 LOG1 PUSH0 PUSH2 0x56C DUP4 PUSH1 0x20 ADD MLOAD DUP5 PUSH1 0xE0 ADD MLOAD DUP6 PUSH1 0x80 ADD MLOAD DUP7 PUSH2 0x100 ADD MLOAD DUP8 PUSH1 0xA0 ADD MLOAD PUSH2 0x186 JUMP JUMPDEST PUSH1 0x40 DUP1 MLOAD PUSH1 0x80 DUP2 ADD DUP3 MSTORE PUSH0 DUP1 DUP3 MSTORE PUSH1 0x20 DUP1 DUP4 ADD DUP3 SWAP1 MSTORE DUP3 DUP5 ADD DUP3 SWAP1 MSTORE PUSH1 0x60 DUP1 DUP5 ADD MSTORE DUP4 MLOAD DUP1 DUP6 ADD DUP6 MSTORE DUP3 DUP2 MSTORE DUP2 ADD DUP3 SWAP1 MSTORE DUP4 MLOAD DUP1 DUP6 ADD SWAP1 SWAP5 MSTORE DUP5 MLOAD DUP5 MSTORE DUP5 DUP2 ADD SWAP1 DUP5 ADD MSTORE SWAP1 SWAP2 DUP2 SWAP1 PUSH2 0x99F SWAP1 PUSH2 0xB75 JUMP JUMPDEST SWAP1 POP DUP1 MLOAD PUSH1 0x4 EQ PUSH2 0x9C2 JUMPI PUSH1 0x40 MLOAD PUSH3 0x461BCD PUSH1 0xE5 SHL DUP2 MSTORE PUSH1 0x4 ADD PUSH2 0x277 SWAP1 PUSH2 0x16FE JUMP JUMPDEST PUSH1 0x40 DUP1 MLOAD PUSH1 0x80 DUP2 ADD DUP3 MSTORE PUSH0 DUP1 DUP3 MSTORE PUSH1 0x20 DUP3 ADD DUP2 SWAP1 MSTORE SWAP2 DUP2 ADD SWAP2 SWAP1 SWAP2 MSTORE PUSH1 0x60 DUP1 DUP3 ADD MSTORE PUSH2 0x9F9 DUP3 PUSH0 DUP2 MLOAD DUP2 LT PUSH2 0x29D JUMPI PUSH2 0x29D PUSH2 0x16B9 JUMP JUMPDEST PUSH2 0xA02 SWAP1 PUSH2 0x174C JUMP JUMPDEST DUP2 MSTORE DUP2 MLOAD PUSH2 0xA1D SWAP1 DUP4 SWAP1 PUSH1 0x1 SWAP1 DUP2 LT PUSH2 0x2EC JUMPI PUSH2 0x2EC PUSH2 0x16B9 JUMP JUMPDEST PUSH1 0x20 DUP3 DUP2 ADD DUP3 SWAP1 MSTORE PUSH1 0x40 MLOAD SWAP2 DUP3 MSTORE PUSH32 0x245716014A178144670148EC993E73F5F2CBC96529AFA0B8FBE731B4A74566BC SWAP2 ADD PUSH1 0x40 MLOAD DUP1 SWAP2 SUB SWAP1 LOG1 PUSH2 0xA6C DUP3 PUSH1 0x2 DUP2 MLOAD DUP2 LT PUSH2 0x29D JUMPI PUSH2 0x29D PUSH2 0x16B9 JUMP JUMPDEST PUSH2 0xA75 SWAP1 PUSH2 0x174C JUMP JUMPDEST PUSH1 0x40 DUP3 DUP2 ADD DUP3 SWAP1 MSTORE MLOAD SWAP1 DUP2 MSTORE PUSH32 0xB7CFA42C424E0E7E35FF08E6EA1CF2789FEC94621F570D48F844B82582A4B8EC SWAP1 PUSH1 0x20 ADD PUSH1 0x40 MLOAD DUP1 SWAP2 SUB SWAP1 LOG1 PUSH2 0xAC4 DUP3 PUSH1 0x3 DUP2 MLOAD DUP2 LT PUSH2 0x29D JUMPI PUSH2 0x29D PUSH2 0x16B9 JUMP JUMPDEST PUSH1 0x60 DUP3 ADD DUP2 SWAP1 MSTORE DUP2 MLOAD PUSH1 0x20 DUP4 ADD MLOAD PUSH1 0x40 DUP1 DUP6 ADD MLOAD DUP7 MLOAD SWAP2 MLOAD PUSH32 0xA690C9F86196602D7FD3DD6934F38B29EE9BD564D1A89BB5D3372AE964F0D537 SWAP6 PUSH2 0xB0B SWAP6 SWAP5 SWAP4 SWAP1 SWAP2 PUSH2 0x1901 JUMP JUMPDEST PUSH1 0x40 MLOAD DUP1 SWAP2 SUB SWAP1 LOG1 PUSH0 PUSH2 0xB2F DUP3 PUSH0 ADD MLOAD DUP4 PUSH1 0x20 ADD MLOAD DUP5 PUSH1 0x40 ADD MLOAD DUP6 PUSH1 0x60 ADD MLOAD PUSH2 0x14E JUMP JUMPDEST SWAP1 POP PUSH32 0xF9A7EA37911815F4A89B25E48DC4EE38541A0E1128907411984B0A228788C879 DUP2 PUSH1 0x40 MLOAD PUSH2 0xB62 SWAP2 DUP2 MSTORE PUSH1 0x20 ADD SWAP1 JUMP JUMPDEST PUSH1 0x40 MLOAD DUP1 SWAP2 SUB SWAP1 LOG1 SWAP1 SWAP6 SWAP1 SWAP5 POP SWAP3 POP POP POP JUMP JUMPDEST PUSH1 0x60 PUSH2 0xB80 DUP3 PUSH2 0xD3F JUMP JUMPDEST PUSH2 0xB88 JUMPI PUSH0 DUP1 REVERT JUMPDEST PUSH0 PUSH2 0xB92 DUP4 PUSH2 0xD76 JUMP JUMPDEST SWAP1 POP PUSH0 DUP2 PUSH1 0x1 PUSH1 0x1 PUSH1 0x40 SHL SUB DUP2 GT ISZERO PUSH2 0xBAD JUMPI PUSH2 0xBAD PUSH2 0x10A7 JUMP JUMPDEST PUSH1 0x40 MLOAD SWAP1 DUP1 DUP3 MSTORE DUP1 PUSH1 0x20 MUL PUSH1 0x20 ADD DUP3 ADD PUSH1 0x40 MSTORE DUP1 ISZERO PUSH2 0xBF1 JUMPI DUP2 PUSH1 0x20 ADD JUMPDEST PUSH1 0x40 DUP1 MLOAD DUP1 DUP3 ADD SWAP1 SWAP2 MSTORE PUSH0 DUP1 DUP3 MSTORE PUSH1 0x20 DUP3 ADD MSTORE DUP2 MSTORE PUSH1 0x20 ADD SWAP1 PUSH1 0x1 SWAP1 SUB SWAP1 DUP2 PUSH2 0xBCB JUMPI SWAP1 POP JUMPDEST POP SWAP1 POP PUSH0 PUSH2 0xC02 DUP6 PUSH1 0x20 ADD MLOAD PUSH2 0xDF6 JUMP JUMPDEST DUP6 PUSH1 0x20 ADD MLOAD PUSH2 0xC11 SWAP2 SWAP1 PUSH2 0x194B JUMP JUMPDEST SWAP1 POP PUSH0 DUP1 JUMPDEST DUP5 DUP2 LT ISZERO PUSH2 0xC6F JUMPI PUSH2 0xC27 DUP4 PUSH2 0xE7C JUMP JUMPDEST SWAP2 POP PUSH1 0x40 MLOAD DUP1 PUSH1 0x40 ADD PUSH1 0x40 MSTORE DUP1 DUP4 DUP2 MSTORE PUSH1 0x20 ADD DUP5 DUP2 MSTORE POP DUP5 DUP3 DUP2 MLOAD DUP2 LT PUSH2 0xC50 JUMPI PUSH2 0xC50 PUSH2 0x16B9 JUMP JUMPDEST PUSH1 0x20 SWAP1 DUP2 MUL SWAP2 SWAP1 SWAP2 ADD ADD MSTORE PUSH2 0xC65 DUP3 DUP5 PUSH2 0x194B JUMP JUMPDEST SWAP3 POP PUSH1 0x1 ADD PUSH2 0xC16 JUMP JUMPDEST POP SWAP2 SWAP6 SWAP5 POP POP POP POP POP JUMP JUMPDEST DUP1 MLOAD PUSH1 0x60 SWAP1 PUSH2 0xC87 JUMPI PUSH0 DUP1 REVERT JUMPDEST PUSH0 DUP1 PUSH2 0xC92 DUP5 PUSH2 0xF24 JUMP JUMPDEST SWAP2 POP SWAP2 POP PUSH0 DUP2 PUSH1 0x1 PUSH1 0x1 PUSH1 0x40 SHL SUB DUP2 GT ISZERO PUSH2 0xCAF JUMPI PUSH2 0xCAF PUSH2 0x10A7 JUMP JUMPDEST PUSH1 0x40 MLOAD SWAP1 DUP1 DUP3 MSTORE DUP1 PUSH1 0x1F ADD PUSH1 0x1F NOT AND PUSH1 0x20 ADD DUP3 ADD PUSH1 0x40 MSTORE DUP1 ISZERO PUSH2 0xCD9 JUMPI PUSH1 0x20 DUP3 ADD DUP2 DUP1 CALLDATASIZE DUP4 CALLDATACOPY ADD SWAP1 POP JUMPDEST POP SWAP1 POP PUSH1 0x20 DUP2 ADD PUSH2 0xCEB DUP5 DUP3 DUP6 PUSH2 0xF66 JUMP JUMPDEST POP SWAP5 SWAP4 POP POP POP POP JUMP JUMPDEST DUP1 MLOAD PUSH0 SWAP1 ISZERO DUP1 ISZERO SWAP1 PUSH2 0xD08 JUMPI POP DUP2 MLOAD PUSH1 0x21 LT ISZERO JUMPDEST PUSH2 0xD10 JUMPI PUSH0 DUP1 REVERT JUMPDEST PUSH0 DUP1 PUSH2 0xD1B DUP5 PUSH2 0xF24 JUMP JUMPDEST DUP2 MLOAD SWAP2 SWAP4 POP SWAP2 POP PUSH1 0x20 DUP3 LT ISZERO PUSH2 0xD37 JUMPI PUSH1 0x20 DUP3 SWAP1 SUB PUSH2 0x100 EXP SWAP1 DIV JUMPDEST SWAP5 SWAP4 POP POP POP POP JUMP JUMPDEST DUP1 MLOAD PUSH0 SWAP1 DUP2 SUB PUSH2 0xD50 JUMPI POP PUSH0 SWAP2 SWAP1 POP JUMP JUMPDEST PUSH1 0x20 DUP3 ADD MLOAD DUP1 MLOAD PUSH0 BYTE SWAP1 PUSH1 0xC0 DUP3 LT ISZERO PUSH2 0xD6C JUMPI POP PUSH0 SWAP4 SWAP3 POP POP POP JUMP JUMPDEST POP PUSH1 0x1 SWAP4 SWAP3 POP POP POP JUMP JUMPDEST DUP1 MLOAD PUSH0 SWAP1 DUP2 SUB PUSH2 0xD87 JUMPI POP PUSH0 SWAP2 SWAP1 POP JUMP JUMPDEST PUSH0 DUP1 PUSH2 0xD96 DUP5 PUSH1 0x20 ADD MLOAD PUSH2 0xDF6 JUMP JUMPDEST DUP5 PUSH1 0x20 ADD MLOAD PUSH2 0xDA5 SWAP2 SWAP1 PUSH2 0x194B JUMP JUMPDEST SWAP1 POP PUSH0 DUP5 PUSH0 ADD MLOAD DUP6 PUSH1 0x20 ADD MLOAD PUSH2 0xDBB SWAP2 SWAP1 PUSH2 0x194B JUMP JUMPDEST SWAP1 POP JUMPDEST DUP1 DUP3 LT ISZERO PUSH2 0xDED JUMPI PUSH2 0xDCF DUP3 PUSH2 0xE7C JUMP JUMPDEST PUSH2 0xDD9 SWAP1 DUP4 PUSH2 0x194B JUMP JUMPDEST SWAP2 POP DUP3 PUSH2 0xDE5 DUP2 PUSH2 0x1964 JUMP JUMPDEST SWAP4 POP POP PUSH2 0xDBE JUMP JUMPDEST POP SWAP1 SWAP4 SWAP3 POP POP POP JUMP JUMPDEST DUP1 MLOAD PUSH0 SWAP1 DUP2 BYTE PUSH1 0x80 DUP2 LT ISZERO PUSH2 0xE0D JUMPI POP PUSH0 SWAP3 SWAP2 POP POP JUMP JUMPDEST PUSH1 0xB8 DUP2 LT DUP1 PUSH2 0xE28 JUMPI POP PUSH1 0xC0 DUP2 LT DUP1 ISZERO SWAP1 PUSH2 0xE28 JUMPI POP PUSH1 0xF8 DUP2 LT JUMPDEST ISZERO PUSH2 0xE36 JUMPI POP PUSH1 0x1 SWAP3 SWAP2 POP POP JUMP JUMPDEST PUSH1 0xC0 DUP2 LT ISZERO PUSH2 0xE6A JUMPI PUSH2 0xE4B PUSH1 0x1 PUSH1 0xB8 PUSH2 0x197C JUMP JUMPDEST PUSH2 0xE58 SWAP1 PUSH1 0xFF AND DUP3 PUSH2 0x1995 JUMP JUMPDEST PUSH2 0xE63 SWAP1 PUSH1 0x1 PUSH2 0x194B JUMP JUMPDEST SWAP4 SWAP3 POP POP POP JUMP JUMPDEST PUSH2 0xE4B PUSH1 0x1 PUSH1 0xF8 PUSH2 0x197C JUMP JUMPDEST POP SWAP2 SWAP1 POP JUMP JUMPDEST DUP1 MLOAD PUSH0 SWAP1 DUP2 SWAP1 DUP2 BYTE PUSH1 0x80 DUP2 LT ISZERO PUSH2 0xE96 JUMPI PUSH1 0x1 SWAP2 POP PUSH2 0xF1D JUMP JUMPDEST PUSH1 0xB8 DUP2 LT ISZERO PUSH2 0xEBC JUMPI PUSH2 0xEAA PUSH1 0x80 DUP3 PUSH2 0x1995 JUMP JUMPDEST PUSH2 0xEB5 SWAP1 PUSH1 0x1 PUSH2 0x194B JUMP JUMPDEST SWAP2 POP PUSH2 0xF1D JUMP JUMPDEST PUSH1 0xC0 DUP2 LT ISZERO PUSH2 0xEE9 JUMPI PUSH1 0xB7 DUP2 SUB PUSH1 0x1 DUP6 ADD SWAP5 POP DUP1 PUSH1 0x20 SUB PUSH2 0x100 EXP DUP6 MLOAD DIV PUSH1 0x1 DUP3 ADD DUP2 ADD SWAP4 POP POP POP PUSH2 0xF1D JUMP JUMPDEST PUSH1 0xF8 DUP2 LT ISZERO PUSH2 0xEFD JUMPI PUSH2 0xEAA PUSH1 0xC0 DUP3 PUSH2 0x1995 JUMP JUMPDEST PUSH1 0xF7 DUP2 SUB PUSH1 0x1 DUP6 ADD SWAP5 POP DUP1 PUSH1 0x20 SUB PUSH2 0x100 EXP DUP6 MLOAD DIV PUSH1 0x1 DUP3 ADD DUP2 ADD SWAP4 POP POP POP JUMPDEST POP SWAP3 SWAP2 POP POP JUMP JUMPDEST PUSH0 DUP1 PUSH0 PUSH2 0xF34 DUP5 PUSH1 0x20 ADD MLOAD PUSH2 0xDF6 JUMP JUMPDEST SWAP1 POP PUSH0 DUP2 DUP6 PUSH1 0x20 ADD MLOAD PUSH2 0xF47 SWAP2 SWAP1 PUSH2 0x194B JUMP JUMPDEST SWAP1 POP PUSH0 DUP3 DUP7 PUSH0 ADD MLOAD PUSH2 0xF59 SWAP2 SWAP1 PUSH2 0x1995 JUMP JUMPDEST SWAP2 SWAP7 SWAP2 SWAP6 POP SWAP1 SWAP4 POP POP POP POP JUMP JUMPDEST DUP1 PUSH0 SUB PUSH2 0xF72 JUMPI POP POP POP JUMP JUMPDEST PUSH1 0x20 DUP2 LT PUSH2 0xFAA JUMPI DUP3 MLOAD DUP3 MSTORE PUSH2 0xF89 PUSH1 0x20 DUP5 PUSH2 0x194B JUMP JUMPDEST SWAP3 POP PUSH2 0xF96 PUSH1 0x20 DUP4 PUSH2 0x194B JUMP JUMPDEST SWAP2 POP PUSH2 0xFA3 PUSH1 0x20 DUP3 PUSH2 0x1995 JUMP JUMPDEST SWAP1 POP PUSH2 0xF72 JUMP JUMPDEST DUP1 ISZERO PUSH2 0xFE2 JUMPI PUSH0 PUSH1 0x1 PUSH2 0xFBE DUP4 PUSH1 0x20 PUSH2 0x1995 JUMP JUMPDEST PUSH2 0xFCA SWAP1 PUSH2 0x100 PUSH2 0x1A8B JUMP JUMPDEST PUSH2 0xFD4 SWAP2 SWAP1 PUSH2 0x1995 JUMP JUMPDEST DUP5 MLOAD DUP5 MLOAD DUP3 AND SWAP2 NOT AND OR DUP4 MSTORE POP JUMPDEST POP POP POP JUMP JUMPDEST PUSH1 0x40 DUP1 MLOAD PUSH2 0x180 DUP2 ADD DUP3 MSTORE PUSH1 0x60 DUP1 DUP3 MSTORE PUSH0 PUSH1 0x20 DUP4 ADD DUP2 SWAP1 MSTORE SWAP3 DUP3 ADD DUP4 SWAP1 MSTORE DUP1 DUP3 ADD DUP4 SWAP1 MSTORE PUSH1 0x80 DUP3 ADD DUP2 SWAP1 MSTORE PUSH1 0xA0 DUP3 ADD DUP4 SWAP1 MSTORE PUSH1 0xC0 DUP3 ADD DUP2 SWAP1 MSTORE PUSH1 0xE0 DUP3 ADD DUP2 SWAP1 MSTORE PUSH2 0x100 DUP3 ADD DUP4 SWAP1 MSTORE PUSH2 0x120 DUP3 ADD DUP2 SWAP1 MSTORE PUSH2 0x140 DUP3 ADD MSTORE PUSH2 0x160 DUP2 ADD SWAP2 SWAP1 SWAP2 MSTORE SWAP1 JUMP JUMPDEST PUSH1 0x40 MLOAD DUP1 PUSH2 0x160 ADD PUSH1 0x40 MSTORE DUP1 PUSH1 0x60 DUP2 MSTORE PUSH1 0x20 ADD PUSH0 DUP1 NOT AND DUP2 MSTORE PUSH1 0x20 ADD PUSH0 DUP2 MSTORE PUSH1 0x20 ADD PUSH0 DUP1 NOT AND DUP2 MSTORE PUSH1 0x20 ADD PUSH1 0x60 DUP2 MSTORE PUSH1 0x20 ADD PUSH0 DUP2 MSTORE PUSH1 0x20 ADD PUSH1 0x60 DUP2 MSTORE PUSH1 0x20 ADD PUSH1 0x60 DUP2 MSTORE PUSH1 0x20 ADD PUSH1 0x60 DUP2 MSTORE PUSH1 0x20 ADD PUSH1 0x60 DUP2 MSTORE PUSH1 0x20 ADD PUSH0 DUP1 NOT AND DUP2 MSTORE POP SWAP1 JUMP JUMPDEST PUSH4 0x4E487B71 PUSH1 0xE0 SHL PUSH0 MSTORE PUSH1 0x41 PUSH1 0x4 MSTORE PUSH1 0x24 PUSH0 REVERT JUMPDEST PUSH1 0x40 MLOAD PUSH1 0x1F DUP3 ADD PUSH1 0x1F NOT AND DUP2 ADD PUSH1 0x1 PUSH1 0x1 PUSH1 0x40 SHL SUB DUP2 GT DUP3 DUP3 LT OR ISZERO PUSH2 0x10E3 JUMPI PUSH2 0x10E3 PUSH2 0x10A7 JUMP JUMPDEST PUSH1 0x40 MSTORE SWAP2 SWAP1 POP JUMP JUMPDEST PUSH0 DUP3 PUSH1 0x1F DUP4 ADD SLT PUSH2 0x10FA JUMPI PUSH0 DUP1 REVERT JUMPDEST DUP2 CALLDATALOAD PUSH1 0x1 PUSH1 0x1 PUSH1 0x40 SHL SUB DUP2 GT ISZERO PUSH2 0x1113 JUMPI PUSH2 0x1113 PUSH2 0x10A7 JUMP JUMPDEST PUSH2 0x1126 PUSH1 0x1F DUP3 ADD PUSH1 0x1F NOT AND PUSH1 0x20 ADD PUSH2 0x10BB JUMP JUMPDEST DUP2 DUP2 MSTORE DUP5 PUSH1 0x20 DUP4 DUP7 ADD ADD GT ISZERO PUSH2 0x113A JUMPI PUSH0 DUP1 REVERT JUMPDEST DUP2 PUSH1 0x20 DUP6 ADD PUSH1 0x20 DUP4 ADD CALLDATACOPY PUSH0 SWAP2 DUP2 ADD PUSH1 0x20 ADD SWAP2 SWAP1 SWAP2 MSTORE SWAP4 SWAP3 POP POP POP JUMP JUMPDEST PUSH0 DUP1 PUSH0 DUP1 PUSH1 0x80 DUP6 DUP8 SUB SLT ISZERO PUSH2 0x1169 JUMPI PUSH0 DUP1 REVERT JUMPDEST DUP5 CALLDATALOAD SWAP4 POP PUSH1 0x20 DUP6 ADD CALLDATALOAD SWAP3 POP PUSH1 0x40 DUP6 ADD CALLDATALOAD SWAP2 POP PUSH1 0x60 DUP6 ADD CALLDATALOAD PUSH1 0x1 PUSH1 0x1 PUSH1 0x40 SHL SUB DUP2 GT ISZERO PUSH2 0x1193 JUMPI PUSH0 DUP1 REVERT JUMPDEST PUSH2 0x119F DUP8 DUP3 DUP9 ADD PUSH2 0x10EB JUMP JUMPDEST SWAP2 POP POP SWAP3 SWAP6 SWAP2 SWAP5 POP SWAP3 POP JUMP JUMPDEST PUSH0 DUP3 PUSH1 0x1F DUP4 ADD SLT PUSH2 0x11BA JUMPI PUSH0 DUP1 REVERT JUMPDEST DUP2 CALLDATALOAD PUSH1 0x1 PUSH1 0x1 PUSH1 0x40 SHL SUB DUP2 GT ISZERO PUSH2 0x11D3 JUMPI PUSH2 0x11D3 PUSH2 0x10A7 JUMP JUMPDEST DUP1 PUSH1 0x5 SHL PUSH2 0x11E3 PUSH1 0x20 DUP3 ADD PUSH2 0x10BB JUMP JUMPDEST SWAP2 DUP3 MSTORE PUSH1 0x20 DUP2 DUP6 ADD DUP2 ADD SWAP3 SWAP1 DUP2 ADD SWAP1 DUP7 DUP5 GT ISZERO PUSH2 0x11FE JUMPI PUSH0 DUP1 REVERT JUMPDEST PUSH1 0x20 DUP7 ADD SWAP3 POP JUMPDEST DUP4 DUP4 LT ISZERO PUSH2 0x1243 JUMPI DUP3 CALLDATALOAD PUSH1 0x1 PUSH1 0x1 PUSH1 0x40 SHL SUB DUP2 GT ISZERO PUSH2 0x1222 JUMPI PUSH0 DUP1 REVERT JUMPDEST PUSH2 0x1231 DUP9 PUSH1 0x20 DUP4 DUP11 ADD ADD PUSH2 0x10EB JUMP JUMPDEST DUP4 MSTORE POP PUSH1 0x20 SWAP3 DUP4 ADD SWAP3 SWAP1 SWAP2 ADD SWAP1 PUSH2 0x1205 JUMP JUMPDEST SWAP7 SWAP6 POP POP POP POP POP POP JUMP JUMPDEST PUSH0 DUP1 PUSH0 DUP1 PUSH0 PUSH1 0xA0 DUP7 DUP9 SUB SLT ISZERO PUSH2 0x1261 JUMPI PUSH0 DUP1 REVERT JUMPDEST DUP6 CALLDATALOAD SWAP5 POP PUSH1 0x20 DUP7 ADD CALLDATALOAD PUSH1 0x1 PUSH1 0x1 PUSH1 0x40 SHL SUB DUP2 GT ISZERO PUSH2 0x127D JUMPI PUSH0 DUP1 REVERT JUMPDEST PUSH2 0x1289 DUP9 DUP3 DUP10 ADD PUSH2 0x11AB JUMP JUMPDEST SWAP5 POP POP PUSH1 0x40 DUP7 ADD CALLDATALOAD PUSH1 0x1 PUSH1 0x1 PUSH1 0x40 SHL SUB DUP2 GT ISZERO PUSH2 0x12A4 JUMPI PUSH0 DUP1 REVERT JUMPDEST PUSH2 0x12B0 DUP9 DUP3 DUP10 ADD PUSH2 0x10EB JUMP JUMPDEST SWAP4 POP POP PUSH1 0x60 DUP7 ADD CALLDATALOAD PUSH1 0x1 PUSH1 0x1 PUSH1 0x40 SHL SUB DUP2 GT ISZERO PUSH2 0x12CB JUMPI PUSH0 DUP1 REVERT JUMPDEST PUSH2 0x12D7 DUP9 DUP3 DUP10 ADD PUSH2 0x10EB JUMP JUMPDEST SWAP6 SWAP9 SWAP5 SWAP8 POP SWAP3 SWAP6 PUSH1 0x80 ADD CALLDATALOAD SWAP4 SWAP3 POP POP POP JUMP JUMPDEST PUSH0 PUSH1 0x20 DUP3 DUP5 SUB SLT ISZERO PUSH2 0x12F9 JUMPI PUSH0 DUP1 REVERT JUMPDEST DUP2 CALLDATALOAD PUSH1 0x1 PUSH1 0x1 PUSH1 0x40 SHL SUB DUP2 GT ISZERO PUSH2 0x130E JUMPI PUSH0 DUP1 REVERT JUMPDEST PUSH2 0xD37 DUP5 DUP3 DUP6 ADD PUSH2 0x10EB JUMP JUMPDEST PUSH0 DUP2 MLOAD DUP1 DUP5 MSTORE DUP1 PUSH1 0x20 DUP5 ADD PUSH1 0x20 DUP7 ADD MCOPY PUSH0 PUSH1 0x20 DUP3 DUP7 ADD ADD MSTORE PUSH1 0x20 PUSH1 0x1F NOT PUSH1 0x1F DUP4 ADD AND DUP6 ADD ADD SWAP2 POP POP SWAP3 SWAP2 POP POP JUMP JUMPDEST PUSH0 DUP3 DUP3 MLOAD DUP1 DUP6 MSTORE PUSH1 0x20 DUP6 ADD SWAP5 POP PUSH1 0x20 DUP2 PUSH1 0x5 SHL DUP4 ADD ADD PUSH1 0x20 DUP6 ADD PUSH0 JUMPDEST DUP4 DUP2 LT ISZERO PUSH2 0x1396 JUMPI PUSH1 0x1F NOT DUP6 DUP5 SUB ADD DUP9 MSTORE PUSH2 0x1380 DUP4 DUP4 MLOAD PUSH2 0x131A JUMP JUMPDEST PUSH1 0x20 SWAP9 DUP10 ADD SWAP9 SWAP1 SWAP4 POP SWAP2 SWAP1 SWAP2 ADD SWAP1 PUSH1 0x1 ADD PUSH2 0x1364 JUMP JUMPDEST POP SWAP1 SWAP7 SWAP6 POP POP POP POP POP POP JUMP JUMPDEST PUSH1 0x40 DUP2 MSTORE PUSH0 DUP4 MLOAD PUSH2 0x180 PUSH1 0x40 DUP5 ADD MSTORE PUSH2 0x13BF PUSH2 0x1C0 DUP5 ADD DUP3 PUSH2 0x131A JUMP JUMPDEST SWAP1 POP PUSH1 0x20 DUP6 ADD MLOAD PUSH1 0x60 DUP5 ADD MSTORE PUSH1 0x40 DUP6 ADD MLOAD PUSH1 0x80 DUP5 ADD MSTORE PUSH1 0x60 DUP6 ADD MLOAD PUSH1 0xA0 DUP5 ADD MSTORE PUSH1 0x80 DUP6 ADD MLOAD PUSH1 0x3F NOT DUP5 DUP4 SUB ADD PUSH1 0xC0 DUP6 ADD MSTORE PUSH2 0x13FA DUP3 DUP3 PUSH2 0x131A JUMP JUMPDEST SWAP2 POP POP PUSH1 0xA0 DUP6 ADD MLOAD PUSH1 0xE0 DUP5 ADD MSTORE PUSH1 0xC0 DUP6 ADD MLOAD PUSH1 0x3F NOT DUP5 DUP4 SUB ADD PUSH2 0x100 DUP6 ADD MSTORE PUSH2 0x1423 DUP3 DUP3 PUSH2 0x131A JUMP JUMPDEST SWAP2 POP POP PUSH1 0xE0 DUP6 ADD MLOAD PUSH1 0x3F NOT DUP5 DUP4 SUB ADD PUSH2 0x120 DUP6 ADD MSTORE PUSH2 0x1442 DUP3 DUP3 PUSH2 0x1348 JUMP JUMPDEST SWAP2 POP POP PUSH2 0x100 DUP6 ADD MLOAD PUSH2 0x140 DUP5 ADD MSTORE PUSH2 0x120 DUP6 ADD MLOAD PUSH1 0x3F NOT DUP5 DUP4 SUB ADD PUSH2 0x160 DUP6 ADD MSTORE PUSH2 0x146E DUP3 DUP3 PUSH2 0x131A JUMP JUMPDEST SWAP2 POP POP PUSH2 0x140 DUP6 ADD MLOAD PUSH1 0x3F NOT DUP5 DUP4 SUB ADD PUSH2 0x180 DUP6 ADD MSTORE PUSH2 0x148E DUP3 DUP3 PUSH2 0x131A JUMP JUMPDEST PUSH2 0x160 SWAP7 SWAP1 SWAP7 ADD MLOAD PUSH2 0x1A0 DUP6 ADD MSTORE POP POP POP PUSH1 0x20 ADD MSTORE SWAP1 JUMP JUMPDEST PUSH0 DUP1 PUSH0 DUP1 PUSH0 PUSH1 0xA0 DUP7 DUP9 SUB SLT ISZERO PUSH2 0x14BA JUMPI PUSH0 DUP1 REVERT JUMPDEST DUP6 CALLDATALOAD SWAP5 POP PUSH1 0x20 DUP7 ADD CALLDATALOAD PUSH1 0x1 PUSH1 0x1 PUSH1 0x40 SHL SUB DUP2 GT ISZERO PUSH2 0x14D6 JUMPI PUSH0 DUP1 REVERT JUMPDEST PUSH2 0x14E2 DUP9 DUP3 DUP10 ADD PUSH2 0x11AB JUMP JUMPDEST SWAP5 POP POP PUSH1 0x40 DUP7 ADD CALLDATALOAD SWAP3 POP PUSH1 0x60 DUP7 ADD CALLDATALOAD PUSH1 0x1 PUSH1 0x1 PUSH1 0x40 SHL SUB DUP2 GT ISZERO PUSH2 0x1504 JUMPI PUSH0 DUP1 REVERT JUMPDEST PUSH2 0x1510 DUP9 DUP3 DUP10 ADD PUSH2 0x10EB JUMP JUMPDEST SWAP3 POP POP PUSH1 0x80 DUP7 ADD CALLDATALOAD PUSH1 0x1 PUSH1 0x1 PUSH1 0x40 SHL SUB DUP2 GT ISZERO PUSH2 0x152B JUMPI PUSH0 DUP1 REVERT JUMPDEST PUSH2 0x1537 DUP9 DUP3 DUP10 ADD PUSH2 0x10EB JUMP JUMPDEST SWAP2 POP POP SWAP3 SWAP6 POP SWAP3 SWAP6 SWAP1 SWAP4 POP JUMP JUMPDEST PUSH1 0x40 DUP2 MSTORE PUSH0 DUP4 MLOAD PUSH2 0x160 PUSH1 0x40 DUP5 ADD MSTORE PUSH2 0x1561 PUSH2 0x1A0 DUP5 ADD DUP3 PUSH2 0x131A JUMP JUMPDEST SWAP1 POP PUSH1 0x20 DUP6 ADD MLOAD PUSH1 0x60 DUP5 ADD MSTORE PUSH1 0x40 DUP6 ADD MLOAD PUSH1 0x80 DUP5 ADD MSTORE PUSH1 0x60 DUP6 ADD MLOAD PUSH1 0xA0 DUP5 ADD MSTORE PUSH1 0x80 DUP6 ADD MLOAD PUSH1 0x3F NOT DUP5 DUP4 SUB ADD PUSH1 0xC0 DUP6 ADD MSTORE PUSH2 0x159C DUP3 DUP3 PUSH2 0x131A JUMP JUMPDEST SWAP2 POP POP PUSH1 0xA0 DUP6 ADD MLOAD PUSH1 0xE0 DUP5 ADD MSTORE PUSH1 0xC0 DUP6 ADD MLOAD PUSH1 0x3F NOT DUP5 DUP4 SUB ADD PUSH2 0x100 DUP6 ADD MSTORE PUSH2 0x15C5 DUP3 DUP3 PUSH2 0x131A JUMP JUMPDEST SWAP2 POP POP PUSH1 0xE0 DUP6 ADD MLOAD PUSH1 0x3F NOT DUP5 DUP4 SUB ADD PUSH2 0x120 DUP6 ADD MSTORE PUSH2 0x15E4 DUP3 DUP3 PUSH2 0x1348 JUMP JUMPDEST SWAP2 POP POP PUSH2 0x100 DUP6 ADD MLOAD PUSH1 0x3F NOT DUP5 DUP4 SUB ADD PUSH2 0x140 DUP6 ADD MSTORE PUSH2 0x1604 DUP3 DUP3 PUSH2 0x131A JUMP JUMPDEST SWAP2 POP POP PUSH2 0x120 DUP6 ADD MLOAD PUSH1 0x3F NOT DUP5 DUP4 SUB ADD PUSH2 0x160 DUP6 ADD MSTORE PUSH2 0x1624 DUP3 DUP3 PUSH2 0x131A JUMP JUMPDEST PUSH2 0x140 SWAP7 SWAP1 SWAP7 ADD MLOAD PUSH2 0x180 DUP6 ADD MSTORE POP POP POP PUSH1 0x20 ADD MSTORE SWAP1 JUMP JUMPDEST PUSH1 0x40 DUP2 MSTORE DUP3 MLOAD PUSH1 0x40 DUP3 ADD MSTORE PUSH1 0x20 DUP4 ADD MLOAD PUSH1 0x60 DUP3 ADD MSTORE PUSH1 0x40 DUP4 ADD MLOAD PUSH1 0x80 DUP3 ADD MSTORE PUSH0 PUSH1 0x60 DUP5 ADD MLOAD PUSH1 0x80 PUSH1 0xA0 DUP5 ADD MSTORE PUSH2 0x1675 PUSH1 0xC0 DUP5 ADD DUP3 PUSH2 0x131A JUMP JUMPDEST SWAP2 POP POP DUP3 PUSH1 0x20 DUP4 ADD MSTORE SWAP4 SWAP3 POP POP POP JUMP JUMPDEST PUSH0 DUP2 MLOAD DUP1 PUSH1 0x20 DUP5 ADD DUP6 MCOPY PUSH0 SWAP4 ADD SWAP3 DUP4 MSTORE POP SWAP1 SWAP2 SWAP1 POP JUMP JUMPDEST DUP5 DUP2 MSTORE DUP4 PUSH1 0x20 DUP3 ADD MSTORE DUP3 PUSH1 0x40 DUP3 ADD MSTORE PUSH0 PUSH2 0x1243 PUSH1 0x60 DUP4 ADD DUP5 PUSH2 0x1685 JUMP JUMPDEST PUSH4 0x4E487B71 PUSH1 0xE0 SHL PUSH0 MSTORE PUSH1 0x32 PUSH1 0x4 MSTORE PUSH1 0x24 PUSH0 REVERT JUMPDEST PUSH0 PUSH2 0xD37 PUSH2 0x16DB DUP4 DUP7 PUSH2 0x1685 JUMP JUMPDEST DUP5 PUSH2 0x1685 JUMP JUMPDEST DUP4 DUP2 MSTORE PUSH0 PUSH2 0x16F5 PUSH2 0x16DB PUSH1 0x20 DUP5 ADD DUP7 PUSH2 0x1685 JUMP JUMPDEST SWAP6 SWAP5 POP POP POP POP POP JUMP JUMPDEST PUSH1 0x20 DUP1 DUP3 MSTORE PUSH1 0x2E SWAP1 DUP3 ADD MSTORE PUSH32 0x496E636F7272656374206E756D626572206F66206669656C647320696E20524C PUSH1 0x40 DUP3 ADD MSTORE PUSH14 0x5020656E636F6465642064617461 PUSH1 0x90 SHL PUSH1 0x60 DUP3 ADD MSTORE PUSH1 0x80 ADD SWAP1 JUMP JUMPDEST DUP1 MLOAD PUSH1 0x20 DUP1 DUP4 ADD MLOAD SWAP2 SWAP1 DUP2 LT ISZERO PUSH2 0xE76 JUMPI PUSH0 NOT PUSH1 0x20 SWAP2 SWAP1 SWAP2 SUB PUSH1 0x3 SHL SHL AND SWAP2 SWAP1 POP JUMP JUMPDEST PUSH2 0x160 DUP2 MSTORE PUSH0 PUSH2 0x1783 PUSH2 0x160 DUP4 ADD DUP15 PUSH2 0x131A JUMP JUMPDEST DUP13 PUSH1 0x20 DUP5 ADD MSTORE DUP12 PUSH1 0x40 DUP5 ADD MSTORE DUP11 PUSH1 0x60 DUP5 ADD MSTORE DUP3 DUP2 SUB PUSH1 0x80 DUP5 ADD MSTORE PUSH2 0x17A7 DUP2 DUP12 PUSH2 0x131A JUMP JUMPDEST SWAP1 POP DUP9 PUSH1 0xA0 DUP5 ADD MSTORE DUP3 DUP2 SUB PUSH1 0xC0 DUP5 ADD MSTORE PUSH2 0x17C1 DUP2 DUP10 PUSH2 0x131A JUMP JUMPDEST SWAP1 POP DUP3 DUP2 SUB PUSH1 0xE0 DUP5 ADD MSTORE PUSH2 0x17D5 DUP2 DUP9 PUSH2 0x1348 JUMP JUMPDEST SWAP1 POP DUP6 PUSH2 0x100 DUP5 ADD MSTORE DUP3 DUP2 SUB PUSH2 0x120 DUP5 ADD MSTORE PUSH2 0x17F1 DUP2 DUP7 PUSH2 0x131A JUMP JUMPDEST SWAP1 POP DUP3 DUP2 SUB PUSH2 0x140 DUP5 ADD MSTORE PUSH2 0x1806 DUP2 DUP6 PUSH2 0x131A JUMP JUMPDEST SWAP15 SWAP14 POP POP POP POP POP POP POP POP POP POP POP POP POP POP JUMP JUMPDEST PUSH1 0x20 DUP2 MSTORE PUSH0 PUSH2 0xE63 PUSH1 0x20 DUP4 ADD DUP5 PUSH2 0x131A JUMP JUMPDEST DUP6 DUP2 MSTORE PUSH0 PUSH2 0x1844 PUSH2 0x183E PUSH1 0x20 DUP5 ADD DUP9 PUSH2 0x1685 JUMP JUMPDEST DUP7 PUSH2 0x1685 JUMP JUMPDEST DUP5 DUP2 MSTORE PUSH2 0x1854 PUSH1 0x20 DUP3 ADD DUP6 PUSH2 0x1685 JUMP JUMPDEST SWAP9 SWAP8 POP POP POP POP POP POP POP POP JUMP JUMPDEST PUSH2 0x140 DUP2 MSTORE PUSH0 PUSH2 0x1874 PUSH2 0x140 DUP4 ADD DUP14 PUSH2 0x131A JUMP JUMPDEST DUP12 PUSH1 0x20 DUP5 ADD MSTORE DUP11 PUSH1 0x40 DUP5 ADD MSTORE DUP10 PUSH1 0x60 DUP5 ADD MSTORE DUP3 DUP2 SUB PUSH1 0x80 DUP5 ADD MSTORE PUSH2 0x1898 DUP2 DUP11 PUSH2 0x131A JUMP JUMPDEST SWAP1 POP DUP8 PUSH1 0xA0 DUP5 ADD MSTORE DUP3 DUP2 SUB PUSH1 0xC0 DUP5 ADD MSTORE PUSH2 0x18B2 DUP2 DUP9 PUSH2 0x131A JUMP JUMPDEST SWAP1 POP DUP3 DUP2 SUB PUSH1 0xE0 DUP5 ADD MSTORE PUSH2 0x18C6 DUP2 DUP8 PUSH2 0x1348 JUMP JUMPDEST SWAP1 POP DUP3 DUP2 SUB PUSH2 0x100 DUP5 ADD MSTORE PUSH2 0x18DB DUP2 DUP7 PUSH2 0x131A JUMP JUMPDEST SWAP1 POP DUP3 DUP2 SUB PUSH2 0x120 DUP5 ADD MSTORE PUSH2 0x18F0 DUP2 DUP6 PUSH2 0x131A JUMP JUMPDEST SWAP14 SWAP13 POP POP POP POP POP POP POP POP POP POP POP POP POP JUMP JUMPDEST DUP6 DUP2 MSTORE DUP5 PUSH1 0x20 DUP3 ADD MSTORE DUP4 PUSH1 0x40 DUP3 ADD MSTORE PUSH1 0xA0 PUSH1 0x60 DUP3 ADD MSTORE PUSH0 PUSH2 0x1925 PUSH1 0xA0 DUP4 ADD DUP6 PUSH2 0x131A JUMP JUMPDEST SWAP1 POP DUP3 PUSH1 0x80 DUP4 ADD MSTORE SWAP7 SWAP6 POP POP POP POP POP POP JUMP JUMPDEST PUSH4 0x4E487B71 PUSH1 0xE0 SHL PUSH0 MSTORE PUSH1 0x11 PUSH1 0x4 MSTORE PUSH1 0x24 PUSH0 REVERT JUMPDEST DUP1 DUP3 ADD DUP1 DUP3 GT ISZERO PUSH2 0x195E JUMPI PUSH2 0x195E PUSH2 0x1937 JUMP JUMPDEST SWAP3 SWAP2 POP POP JUMP JUMPDEST PUSH0 PUSH1 0x1 DUP3 ADD PUSH2 0x1975 JUMPI PUSH2 0x1975 PUSH2 0x1937 JUMP JUMPDEST POP PUSH1 0x1 ADD SWAP1 JUMP JUMPDEST PUSH1 0xFF DUP3 DUP2 AND DUP3 DUP3 AND SUB SWAP1 DUP2 GT ISZERO PUSH2 0x195E JUMPI PUSH2 0x195E PUSH2 0x1937 JUMP JUMPDEST DUP2 DUP2 SUB DUP2 DUP2 GT ISZERO PUSH2 0x195E JUMPI PUSH2 0x195E PUSH2 0x1937 JUMP JUMPDEST PUSH1 0x1 DUP2 JUMPDEST PUSH1 0x1 DUP5 GT ISZERO PUSH2 0x19E3 JUMPI DUP1 DUP6 DIV DUP2 GT ISZERO PUSH2 0x19C7 JUMPI PUSH2 0x19C7 PUSH2 0x1937 JUMP JUMPDEST PUSH1 0x1 DUP5 AND ISZERO PUSH2 0x19D5 JUMPI SWAP1 DUP2 MUL SWAP1 JUMPDEST PUSH1 0x1 SWAP4 SWAP1 SWAP4 SHR SWAP3 DUP1 MUL PUSH2 0x19AC JUMP JUMPDEST SWAP4 POP SWAP4 SWAP2 POP POP JUMP JUMPDEST PUSH0 DUP3 PUSH2 0x19F9 JUMPI POP PUSH1 0x1 PUSH2 0x195E JUMP JUMPDEST DUP2 PUSH2 0x1A05 JUMPI POP PUSH0 PUSH2 0x195E JUMP JUMPDEST DUP2 PUSH1 0x1 DUP2 EQ PUSH2 0x1A1B JUMPI PUSH1 0x2 DUP2 EQ PUSH2 0x1A25 JUMPI PUSH2 0x1A41 JUMP JUMPDEST PUSH1 0x1 SWAP2 POP POP PUSH2 0x195E JUMP JUMPDEST PUSH1 0xFF DUP5 GT ISZERO PUSH2 0x1A36 JUMPI PUSH2 0x1A36 PUSH2 0x1937 JUMP JUMPDEST POP POP PUSH1 0x1 DUP3 SHL PUSH2 0x195E JUMP JUMPDEST POP PUSH1 0x20 DUP4 LT PUSH2 0x133 DUP4 LT AND PUSH1 0x4E DUP5 LT PUSH1 0xB DUP5 LT AND OR ISZERO PUSH2 0x1A64 JUMPI POP DUP2 DUP2 EXP PUSH2 0x195E JUMP JUMPDEST PUSH2 0x1A70 PUSH0 NOT DUP5 DUP5 PUSH2 0x19A8 JUMP JUMPDEST DUP1 PUSH0 NOT DIV DUP3 GT ISZERO PUSH2 0x1A83 JUMPI PUSH2 0x1A83 PUSH2 0x1937 JUMP JUMPDEST MUL SWAP4 SWAP3 POP POP POP JUMP JUMPDEST PUSH0 PUSH2 0xE63 DUP4 DUP4 PUSH2 0x19EB JUMP INVALID LOG2 PUSH5 0x6970667358 0x22 SLT KECCAK256 PUSH32 0xA6453F4A3C30371DBC488865BD249F5C9E3BF5516CACA017A8BFBE21CB245D64 PUSH20 0x6F6C634300081A00330000000000000000000000 "
				},
				"gasEstimates": {
					"creation": {
						"codeDepositCost": "1372000",
						"executionCost": "1458",
						"totalCost": "1373458"
					},
					"external": {
						"decodeRequest(bytes)": "infinite",
						"decodeResponse(bytes)": "infinite",
						"decodeResponseSP(bytes)": "infinite",
						"getMessageHash(bytes32,bytes[],bytes32,bytes,bytes)": "infinite",
						"getMessageHashSP(bytes32,bytes[],bytes,bytes,uint256)": "infinite",
						"getReqMessageHash(bytes32,uint256,bytes32,bytes)": "infinite"
					}
				},
				"methodIdentifiers": {
					"decodeRequest(bytes)": "fe0103f7",
					"decodeResponse(bytes)": "88ede4a2",
					"decodeResponseSP(bytes)": "e09bc827",
					"getMessageHash(bytes32,bytes[],bytes32,bytes,bytes)": "c7d60a06",
					"getMessageHashSP(bytes32,bytes[],bytes,bytes,uint256)": "2c66f61a",
					"getReqMessageHash(bytes32,uint256,bytes32,bytes)": "15515246"
				}
			},
			"storageLayout": {
				"storage": [],
				"types": null
			},
			"userdoc": {
				"kind": "user",
				"methods": {},
				"version": 1
			}
		}
	}
}