{
	"contracts/fraud-detector/libs/rlp/Helper.sol": {
		"Helper": {
			"abi": [
				{
					"inputs": [
						{
							"internalType": "bytes",
							"name": "item",
							"type": "bytes"
						}
					],
					"name": "bytesToString",
					"outputs": [
						{
							"internalType": "string",
							"name": "",
							"type": "string"
						}
					],
					"stateMutability": "pure",
					"type": "function"
				},
				{
					"inputs": [
						{
							"internalType": "bytes",
							"name": "item",
							"type": "bytes"
						}
					],
					"name": "customDestructure",
					"outputs": [
						{
							"internalType": "address",
							"name": "",
							"type": "address"
						},
						{
							"internalType": "bool",
							"name": "",
							"type": "bool"
						},
						{
							"internalType": "uint256",
							"name": "",
							"type": "uint256"
						}
					],
					"stateMutability": "pure",
					"type": "function"
				},
				{
					"inputs": [
						{
							"internalType": "bytes",
							"name": "item",
							"type": "bytes"
						}
					],
					"name": "customNestedDestructure",
					"outputs": [
						{
							"internalType": "address",
							"name": "",
							"type": "address"
						},
						{
							"internalType": "uint256",
							"name": "",
							"type": "uint256"
						}
					],
					"stateMutability": "pure",
					"type": "function"
				},
				{
					"inputs": [
						{
							"internalType": "bytes",
							"name": "item",
							"type": "bytes"
						}
					],
					"name": "customNestedDestructureKeccak",
					"outputs": [
						{
							"internalType": "bytes32",
							"name": "",
							"type": "bytes32"
						},
						{
							"internalType": "bytes32",
							"name": "",
							"type": "bytes32"
						}
					],
					"stateMutability": "pure",
					"type": "function"
				},
				{
					"inputs": [
						{
							"internalType": "bytes",
							"name": "item",
							"type": "bytes"
						}
					],
					"name": "customNestedToRlpBytes",
					"outputs": [
						{
							"internalType": "bytes",
							"name": "",
							"type": "bytes"
						}
					],
					"stateMutability": "pure",
					"type": "function"
				},
				{
					"inputs": [
						{
							"internalType": "bytes",
							"name": "item",
							"type": "bytes"
						}
					],
					"name": "isList",
					"outputs": [
						{
							"internalType": "bool",
							"name": "",
							"type": "bool"
						}
					],
					"stateMutability": "pure",
					"type": "function"
				},
				{
					"inputs": [
						{
							"internalType": "bytes",
							"name": "item",
							"type": "bytes"
						}
					],
					"name": "itemLength",
					"outputs": [
						{
							"internalType": "uint256",
							"name": "",
							"type": "uint256"
						}
					],
					"stateMutability": "pure",
					"type": "function"
				},
				{
					"inputs": [
						{
							"internalType": "bytes",
							"name": "item",
							"type": "bytes"
						}
					],
					"name": "nestedIteration",
					"outputs": [
						{
							"internalType": "string",
							"name": "",
							"type": "string"
						}
					],
					"stateMutability": "pure",
					"type": "function"
				},
				{
					"inputs": [
						{
							"internalType": "bytes",
							"name": "item",
							"type": "bytes"
						}
					],
					"name": "numItems",
					"outputs": [
						{
							"internalType": "uint256",
							"name": "",
							"type": "uint256"
						}
					],
					"stateMutability": "pure",
					"type": "function"
				},
				{
					"inputs": [
						{
							"internalType": "bytes",
							"name": "item",
							"type": "bytes"
						}
					],
					"name": "payloadKeccak256",
					"outputs": [
						{
							"internalType": "bytes32",
							"name": "",
							"type": "bytes32"
						}
					],
					"stateMutability": "pure",
					"type": "function"
				},
				{
					"inputs": [
						{
							"internalType": "bytes",
							"name": "item",
							"type": "bytes"
						}
					],
					"name": "payloadLocation",
					"outputs": [
						{
							"internalType": "uint256",
							"name": "payloadMemPtr",
							"type": "uint256"
						},
						{
							"internalType": "uint256",
							"name": "payloadLen",
							"type": "uint256"
						},
						{
							"internalType": "uint256",
							"name": "itemMemPtr",
							"type": "uint256"
						}
					],
					"stateMutability": "pure",
					"type": "function"
				},
				{
					"inputs": [
						{
							"internalType": "bytes",
							"name": "item",
							"type": "bytes"
						}
					],
					"name": "rlpBytesKeccak256",
					"outputs": [
						{
							"internalType": "bytes32",
							"name": "",
							"type": "bytes32"
						}
					],
					"stateMutability": "pure",
					"type": "function"
				},
				{
					"inputs": [
						{
							"internalType": "bytes",
							"name": "item",
							"type": "bytes"
						}
					],
					"name": "rlpLen",
					"outputs": [
						{
							"internalType": "uint256",
							"name": "",
							"type": "uint256"
						}
					],
					"stateMutability": "pure",
					"type": "function"
				},
				{
					"inputs": [
						{
							"internalType": "bytes",
							"name": "item",
							"type": "bytes"
						}
					],
					"name": "toAddress",
					"outputs": [
						{
							"internalType": "address",
							"name": "",
							"type": "address"
						}
					],
					"stateMutability": "pure",
					"type": "function"
				},
				{
					"inputs": [
						{
							"internalType": "bytes",
							"name": "rlpHeader",
							"type": "bytes"
						}
					],
					"name": "toBlockHeader",
					"outputs": [
						{
							"internalType": "bytes32",
							"name": "parentHash",
							"type": "bytes32"
						},
						{
							"internalType": "bytes32",
							"name": "sha3Uncles",
							"type": "bytes32"
						},
						{
							"internalType": "bytes32",
							"name": "stateRoot",
							"type": "bytes32"
						},
						{
							"internalType": "bytes32",
							"name": "transactionsRoot",
							"type": "bytes32"
						},
						{
							"internalType": "bytes32",
							"name": "receiptsRoot",
							"type": "bytes32"
						},
						{
							"internalType": "uint256",
							"name": "difficulty",
							"type": "uint256"
						},
						{
							"internalType": "uint256",
							"name": "number",
							"type": "uint256"
						},
						{
							"internalType": "uint256",
							"name": "gasLimit",
							"type": "uint256"
						},
						{
							"internalType": "uint256",
							"name": "gasUsed",
							"type": "uint256"
						},
						{
							"internalType": "uint256",
							"name": "timestamp",
							"type": "uint256"
						},
						{
							"internalType": "uint256",
							"name": "nonce",
							"type": "uint256"
						}
					],
					"stateMutability": "pure",
					"type": "function"
				},
				{
					"inputs": [
						{
							"internalType": "bytes",
							"name": "item",
							"type": "bytes"
						}
					],
					"name": "toBoolean",
					"outputs": [
						{
							"internalType": "bool",
							"name": "",
							"type": "bool"
						}
					],
					"stateMutability": "pure",
					"type": "function"
				},
				{
					"inputs": [
						{
							"internalType": "bytes",
							"name": "item",
							"type": "bytes"
						}
					],
					"name": "toBytes",
					"outputs": [
						{
							"internalType": "bytes",
							"name": "",
							"type": "bytes"
						}
					],
					"stateMutability": "pure",
					"type": "function"
				},
				{
					"inputs": [
						{
							"internalType": "bytes",
							"name": "item",
							"type": "bytes"
						}
					],
					"name": "toIterator",
					"outputs": [],
					"stateMutability": "pure",
					"type": "function"
				},
				{
					"inputs": [
						{
							"internalType": "bytes",
							"name": "item",
							"type": "bytes"
						}
					],
					"name": "toRlpBytes",
					"outputs": [
						{
							"internalType": "bytes",
							"name": "",
							"type": "bytes"
						}
					],
					"stateMutability": "pure",
					"type": "function"
				},
				{
					"inputs": [
						{
							"internalType": "bytes",
							"name": "item",
							"type": "bytes"
						}
					],
					"name": "toUint",
					"outputs": [
						{
							"internalType": "uint256",
							"name": "",
							"type": "uint256"
						}
					],
					"stateMutability": "pure",
					"type": "function"
				},
				{
					"inputs": [
						{
							"internalType": "bytes",
							"name": "item",
							"type": "bytes"
						}
					],
					"name": "toUintStrict",
					"outputs": [
						{
							"internalType": "uint256",
							"name": "",
							"type": "uint256"
						}
					],
					"stateMutability": "pure",
					"type": "function"
				}
			],
			"devdoc": {
				"kind": "dev",
				"methods": {},
				"version": 1
			},
			"evm": {
				"assembly": "    /* \"contracts/fraud-detector/libs/rlp/Helper.sol\":167:7562  contract Helper {... */\n  mstore(0x40, 0x80)\n  callvalue\n  dup1\n  iszero\n  tag_1\n  jumpi\n  0x00\n  dup1\n  revert\ntag_1:\n  pop\n  dataSize(sub_0)\n  dup1\n  dataOffset(sub_0)\n  0x00\n  codecopy\n  0x00\n  return\nstop\n\nsub_0: assembly {\n        /* \"contracts/fraud-detector/libs/rlp/Helper.sol\":167:7562  contract Helper {... */\n      mstore(0x40, 0x80)\n      callvalue\n      dup1\n      iszero\n      tag_1\n      jumpi\n      0x00\n      dup1\n      revert\n    tag_1:\n      pop\n      jumpi(tag_2, lt(calldatasize, 0x04))\n      shr(0xe0, calldataload(0x00))\n      dup1\n      0x74c4c494\n      gt\n      tag_24\n      jumpi\n      dup1\n      0xd03ca5a3\n      gt\n      tag_25\n      jumpi\n      dup1\n      0xd03ca5a3\n      eq\n      tag_18\n      jumpi\n      dup1\n      0xdd208ea1\n      eq\n      tag_19\n      jumpi\n      dup1\n      0xe7617bf8\n      eq\n      tag_20\n      jumpi\n      dup1\n      0xe79fbcec\n      eq\n      tag_21\n      jumpi\n      dup1\n      0xeb4eb372\n      eq\n      tag_22\n      jumpi\n      dup1\n      0xf29cddc0\n      eq\n      tag_23\n      jumpi\n      jump(tag_2)\n    tag_25:\n      dup1\n      0x74c4c494\n      eq\n      tag_13\n      jumpi\n      dup1\n      0x76193f8c\n      eq\n      tag_14\n      jumpi\n      dup1\n      0x8109672f\n      eq\n      tag_15\n      jumpi\n      dup1\n      0x8529d576\n      eq\n      tag_16\n      jumpi\n      dup1\n      0xaac19545\n      eq\n      tag_17\n      jumpi\n      jump(tag_2)\n    tag_24:\n      dup1\n      0x2d888869\n      gt\n      tag_26\n      jumpi\n      dup1\n      0x2d888869\n      eq\n      tag_8\n      jumpi\n      dup1\n      0x33c82d18\n      eq\n      tag_9\n      jumpi\n      dup1\n      0x39614e4f\n      eq\n      tag_10\n      jumpi\n      dup1\n      0x45fce4f9\n      eq\n      tag_11\n      jumpi\n      dup1\n      0x64ea1929\n      eq\n      tag_12\n      jumpi\n      jump(tag_2)\n    tag_26:\n      dup1\n      0x04ba3427\n      eq\n      tag_3\n      jumpi\n      dup1\n      0x059a97fb\n      eq\n      tag_4\n      jumpi\n      dup1\n      0x15943cb6\n      eq\n      tag_5\n      jumpi\n      dup1\n      0x19921bd0\n      eq\n      tag_6\n      jumpi\n      dup1\n      0x20f91849\n      eq\n      tag_7\n      jumpi\n    tag_2:\n      0x00\n      dup1\n      revert\n        /* \"contracts/fraud-detector/libs/rlp/Helper.sol\":2668:2837  function toBoolean(bytes memory item) public pure returns (bool) {... */\n    tag_3:\n      tag_27\n      0x04\n      dup1\n      calldatasize\n      sub\n      dup2\n      add\n      swap1\n      tag_28\n      swap2\n      swap1\n      tag_29\n      jump\t// in\n    tag_28:\n      tag_30\n      jump\t// in\n    tag_27:\n      mload(0x40)\n      tag_31\n      swap2\n      swap1\n      tag_32\n      jump\t// in\n    tag_31:\n      mload(0x40)\n      dup1\n      swap2\n      sub\n      swap1\n      return\n        /* \"contracts/fraud-detector/libs/rlp/Helper.sol\":4953:5280  function customDestructure(bytes memory item) public pure returns (address, bool, uint) {... */\n    tag_4:\n      tag_33\n      0x04\n      dup1\n      calldatasize\n      sub\n      dup2\n      add\n      swap1\n      tag_34\n      swap2\n      swap1\n      tag_29\n      jump\t// in\n    tag_34:\n      tag_35\n      jump\t// in\n    tag_33:\n      mload(0x40)\n      tag_36\n      swap4\n      swap3\n      swap2\n      swap1\n      tag_37\n      jump\t// in\n    tag_36:\n      mload(0x40)\n      dup1\n      swap2\n      sub\n      swap1\n      return\n        /* \"contracts/fraud-detector/libs/rlp/Helper.sol\":5286:5544  function customNestedDestructure(bytes memory item) public pure returns (address, uint) {... */\n    tag_5:\n      tag_38\n      0x04\n      dup1\n      calldatasize\n      sub\n      dup2\n      add\n      swap1\n      tag_39\n      swap2\n      swap1\n      tag_29\n      jump\t// in\n    tag_39:\n      tag_40\n      jump\t// in\n    tag_38:\n      mload(0x40)\n      tag_41\n      swap3\n      swap2\n      swap1\n      tag_42\n      jump\t// in\n    tag_41:\n      mload(0x40)\n      dup1\n      swap2\n      sub\n      swap1\n      return\n        /* \"contracts/fraud-detector/libs/rlp/Helper.sol\":338:501  function isList(bytes memory item) public pure returns (bool) {... */\n    tag_6:\n      tag_43\n      0x04\n      dup1\n      calldatasize\n      sub\n      dup2\n      add\n      swap1\n      tag_44\n      swap2\n      swap1\n      tag_29\n      jump\t// in\n    tag_44:\n      tag_45\n      jump\t// in\n    tag_43:\n      mload(0x40)\n      tag_46\n      swap2\n      swap1\n      tag_32\n      jump\t// in\n    tag_46:\n      mload(0x40)\n      dup1\n      swap2\n      sub\n      swap1\n      return\n        /* \"contracts/fraud-detector/libs/rlp/Helper.sol\":2309:2484  function toUintStrict(bytes memory item) public pure returns (uint) {... */\n    tag_7:\n      tag_47\n      0x04\n      dup1\n      calldatasize\n      sub\n      dup2\n      add\n      swap1\n      tag_48\n      swap2\n      swap1\n      tag_29\n      jump\t// in\n    tag_48:\n      tag_49\n      jump\t// in\n    tag_47:\n      mload(0x40)\n      tag_50\n      swap2\n      swap1\n      tag_51\n      jump\t// in\n    tag_50:\n      mload(0x40)\n      dup1\n      swap2\n      sub\n      swap1\n      return\n        /* \"contracts/fraud-detector/libs/rlp/Helper.sol\":2490:2662  function toAddress(bytes memory item) public pure returns (address) {... */\n    tag_8:\n      tag_52\n      0x04\n      dup1\n      calldatasize\n      sub\n      dup2\n      add\n      swap1\n      tag_53\n      swap2\n      swap1\n      tag_29\n      jump\t// in\n    tag_53:\n      tag_54\n      jump\t// in\n    tag_52:\n      mload(0x40)\n      tag_55\n      swap2\n      swap1\n      tag_56\n      jump\t// in\n    tag_55:\n      mload(0x40)\n      dup1\n      swap2\n      sub\n      swap1\n      return\n        /* \"contracts/fraud-detector/libs/rlp/Helper.sol\":1776:1955  function toRlpBytes(bytes memory item) public pure returns (bytes memory) {... */\n    tag_9:\n      tag_57\n      0x04\n      dup1\n      calldatasize\n      sub\n      dup2\n      add\n      swap1\n      tag_58\n      swap2\n      swap1\n      tag_29\n      jump\t// in\n    tag_58:\n      tag_59\n      jump\t// in\n    tag_57:\n      mload(0x40)\n      tag_60\n      swap2\n      swap1\n      tag_61\n      jump\t// in\n    tag_60:\n      mload(0x40)\n      dup1\n      swap2\n      sub\n      swap1\n      return\n        /* \"contracts/fraud-detector/libs/rlp/Helper.sol\":2843:3031  function bytesToString(bytes memory item) public pure returns (string memory) {... */\n    tag_10:\n      tag_62\n      0x04\n      dup1\n      calldatasize\n      sub\n      dup2\n      add\n      swap1\n      tag_63\n      swap2\n      swap1\n      tag_29\n      jump\t// in\n    tag_63:\n      tag_64\n      jump\t// in\n    tag_62:\n      mload(0x40)\n      tag_65\n      swap2\n      swap1\n      tag_66\n      jump\t// in\n    tag_65:\n      mload(0x40)\n      dup1\n      swap2\n      sub\n      swap1\n      return\n        /* \"contracts/fraud-detector/libs/rlp/Helper.sol\":880:1204  function payloadLocation(bytes memory item) public pure returns (... */\n    tag_11:\n      tag_67\n      0x04\n      dup1\n      calldatasize\n      sub\n      dup2\n      add\n      swap1\n      tag_68\n      swap2\n      swap1\n      tag_29\n      jump\t// in\n    tag_68:\n      tag_69\n      jump\t// in\n    tag_67:\n      mload(0x40)\n      tag_70\n      swap4\n      swap3\n      swap2\n      swap1\n      tag_71\n      jump\t// in\n    tag_70:\n      mload(0x40)\n      dup1\n      swap2\n      sub\n      swap1\n      return\n        /* \"contracts/fraud-detector/libs/rlp/Helper.sol\":5582:5866  function customNestedDestructureKeccak(bytes memory item) public pure returns (bytes32, bytes32) {... */\n    tag_12:\n      tag_72\n      0x04\n      dup1\n      calldatasize\n      sub\n      dup2\n      add\n      swap1\n      tag_73\n      swap2\n      swap1\n      tag_29\n      jump\t// in\n    tag_73:\n      tag_74\n      jump\t// in\n    tag_72:\n      mload(0x40)\n      tag_75\n      swap3\n      swap2\n      swap1\n      tag_76\n      jump\t// in\n    tag_75:\n      mload(0x40)\n      dup1\n      swap2\n      sub\n      swap1\n      return\n        /* \"contracts/fraud-detector/libs/rlp/Helper.sol\":5872:6073  function customNestedToRlpBytes(bytes memory item) public pure returns (bytes memory) {... */\n    tag_13:\n      tag_77\n      0x04\n      dup1\n      calldatasize\n      sub\n      dup2\n      add\n      swap1\n      tag_78\n      swap2\n      swap1\n      tag_29\n      jump\t// in\n    tag_78:\n      tag_79\n      jump\t// in\n    tag_77:\n      mload(0x40)\n      tag_80\n      swap2\n      swap1\n      tag_61\n      jump\t// in\n    tag_80:\n      mload(0x40)\n      dup1\n      swap2\n      sub\n      swap1\n      return\n        /* \"contracts/fraud-detector/libs/rlp/Helper.sol\":3220:3606  function nestedIteration(bytes memory item) public pure returns (string memory) {... */\n    tag_14:\n      tag_81\n      0x04\n      dup1\n      calldatasize\n      sub\n      dup2\n      add\n      swap1\n      tag_82\n      swap2\n      swap1\n      tag_29\n      jump\t// in\n    tag_82:\n      tag_83\n      jump\t// in\n    tag_81:\n      mload(0x40)\n      tag_84\n      swap2\n      swap1\n      tag_66\n      jump\t// in\n    tag_84:\n      mload(0x40)\n      dup1\n      swap2\n      sub\n      swap1\n      return\n        /* \"contracts/fraud-detector/libs/rlp/Helper.sol\":507:705  function itemLength(bytes memory item) public pure returns (uint) {... */\n    tag_15:\n      tag_85\n      0x04\n      dup1\n      calldatasize\n      sub\n      dup2\n      add\n      swap1\n      tag_86\n      swap2\n      swap1\n      tag_29\n      jump\t// in\n    tag_86:\n      tag_87\n      jump\t// in\n    tag_85:\n      mload(0x40)\n      tag_88\n      swap2\n      swap1\n      tag_51\n      jump\t// in\n    tag_88:\n      mload(0x40)\n      dup1\n      swap2\n      sub\n      swap1\n      return\n        /* \"contracts/fraud-detector/libs/rlp/Helper.sol\":2140:2303  function toUint(bytes memory item) public pure returns (uint) {... */\n    tag_16:\n      tag_89\n      0x04\n      dup1\n      calldatasize\n      sub\n      dup2\n      add\n      swap1\n      tag_90\n      swap2\n      swap1\n      tag_29\n      jump\t// in\n    tag_90:\n      tag_91\n      jump\t// in\n    tag_89:\n      mload(0x40)\n      tag_92\n      swap2\n      swap1\n      tag_51\n      jump\t// in\n    tag_92:\n      mload(0x40)\n      dup1\n      swap2\n      sub\n      swap1\n      return\n        /* \"contracts/fraud-detector/libs/rlp/Helper.sol\":711:874  function rlpLen(bytes memory item) public pure returns (uint) {... */\n    tag_17:\n      tag_93\n      0x04\n      dup1\n      calldatasize\n      sub\n      dup2\n      add\n      swap1\n      tag_94\n      swap2\n      swap1\n      tag_29\n      jump\t// in\n    tag_94:\n      tag_95\n      jump\t// in\n    tag_93:\n      mload(0x40)\n      tag_96\n      swap2\n      swap1\n      tag_51\n      jump\t// in\n    tag_96:\n      mload(0x40)\n      dup1\n      swap2\n      sub\n      swap1\n      return\n        /* \"contracts/fraud-detector/libs/rlp/Helper.sol\":3037:3182  function toIterator(bytes memory item) public pure {... */\n    tag_18:\n      tag_97\n      0x04\n      dup1\n      calldatasize\n      sub\n      dup2\n      add\n      swap1\n      tag_98\n      swap2\n      swap1\n      tag_29\n      jump\t// in\n    tag_98:\n      tag_99\n      jump\t// in\n    tag_97:\n      stop\n        /* \"contracts/fraud-detector/libs/rlp/Helper.sol\":1210:1384  function numItems(bytes memory item) public pure returns (uint) {... */\n    tag_19:\n      tag_100\n      0x04\n      dup1\n      calldatasize\n      sub\n      dup2\n      add\n      swap1\n      tag_101\n      swap2\n      swap1\n      tag_29\n      jump\t// in\n    tag_101:\n      tag_102\n      jump\t// in\n    tag_100:\n      mload(0x40)\n      tag_103\n      swap2\n      swap1\n      tag_51\n      jump\t// in\n    tag_103:\n      mload(0x40)\n      dup1\n      swap2\n      sub\n      swap1\n      return\n        /* \"contracts/fraud-detector/libs/rlp/Helper.sol\":3612:4915  function toBlockHeader(bytes memory rlpHeader) public pure returns (... */\n    tag_20:\n      tag_104\n      0x04\n      dup1\n      calldatasize\n      sub\n      dup2\n      add\n      swap1\n      tag_105\n      swap2\n      swap1\n      tag_29\n      jump\t// in\n    tag_105:\n      tag_106\n      jump\t// in\n    tag_104:\n      mload(0x40)\n      tag_107\n      swap12\n      swap11\n      swap10\n      swap9\n      swap8\n      swap7\n      swap6\n      swap5\n      swap4\n      swap3\n      swap2\n      swap1\n      tag_108\n      jump\t// in\n    tag_107:\n      mload(0x40)\n      dup1\n      swap2\n      sub\n      swap1\n      return\n        /* \"contracts/fraud-detector/libs/rlp/Helper.sol\":1961:2134  function toBytes(bytes memory item) public pure returns (bytes memory) {... */\n    tag_21:\n      tag_109\n      0x04\n      dup1\n      calldatasize\n      sub\n      dup2\n      add\n      swap1\n      tag_110\n      swap2\n      swap1\n      tag_29\n      jump\t// in\n    tag_110:\n      tag_111\n      jump\t// in\n    tag_109:\n      mload(0x40)\n      tag_112\n      swap2\n      swap1\n      tag_61\n      jump\t// in\n    tag_112:\n      mload(0x40)\n      dup1\n      swap2\n      sub\n      swap1\n      return\n        /* \"contracts/fraud-detector/libs/rlp/Helper.sol\":1584:1770  function payloadKeccak256(bytes memory item) public pure returns (bytes32) {... */\n    tag_22:\n      tag_113\n      0x04\n      dup1\n      calldatasize\n      sub\n      dup2\n      add\n      swap1\n      tag_114\n      swap2\n      swap1\n      tag_29\n      jump\t// in\n    tag_114:\n      tag_115\n      jump\t// in\n    tag_113:\n      mload(0x40)\n      tag_116\n      swap2\n      swap1\n      tag_117\n      jump\t// in\n    tag_116:\n      mload(0x40)\n      dup1\n      swap2\n      sub\n      swap1\n      return\n        /* \"contracts/fraud-detector/libs/rlp/Helper.sol\":1390:1578  function rlpBytesKeccak256(bytes memory item) public pure returns (bytes32) {... */\n    tag_23:\n      tag_118\n      0x04\n      dup1\n      calldatasize\n      sub\n      dup2\n      add\n      swap1\n      tag_119\n      swap2\n      swap1\n      tag_29\n      jump\t// in\n    tag_119:\n      tag_120\n      jump\t// in\n    tag_118:\n      mload(0x40)\n      tag_121\n      swap2\n      swap1\n      tag_117\n      jump\t// in\n    tag_121:\n      mload(0x40)\n      dup1\n      swap2\n      sub\n      swap1\n      return\n        /* \"contracts/fraud-detector/libs/rlp/Helper.sol\":2668:2837  function toBoolean(bytes memory item) public pure returns (bool) {... */\n    tag_30:\n        /* \"contracts/fraud-detector/libs/rlp/Helper.sol\":2727:2731  bool */\n      0x00\n        /* \"contracts/fraud-detector/libs/rlp/Helper.sol\":2743:2775  RLPReader.RLPItem memory rlpItem */\n      dup1\n        /* \"contracts/fraud-detector/libs/rlp/Helper.sol\":2778:2794  item.toRlpItem() */\n      tag_123\n        /* \"contracts/fraud-detector/libs/rlp/Helper.sol\":2778:2782  item */\n      dup4\n        /* \"contracts/fraud-detector/libs/rlp/Helper.sol\":2778:2792  item.toRlpItem */\n      tag_124\n        /* \"contracts/fraud-detector/libs/rlp/Helper.sol\":2778:2794  item.toRlpItem() */\n      jump\t// in\n    tag_123:\n        /* \"contracts/fraud-detector/libs/rlp/Helper.sol\":2743:2794  RLPReader.RLPItem memory rlpItem = item.toRlpItem() */\n      swap1\n      pop\n        /* \"contracts/fraud-detector/libs/rlp/Helper.sol\":2811:2830  rlpItem.toBoolean() */\n      tag_125\n        /* \"contracts/fraud-detector/libs/rlp/Helper.sol\":2811:2818  rlpItem */\n      dup2\n        /* \"contracts/fraud-detector/libs/rlp/Helper.sol\":2811:2828  rlpItem.toBoolean */\n      tag_126\n        /* \"contracts/fraud-detector/libs/rlp/Helper.sol\":2811:2830  rlpItem.toBoolean() */\n      jump\t// in\n    tag_125:\n        /* \"contracts/fraud-detector/libs/rlp/Helper.sol\":2804:2830  return rlpItem.toBoolean() */\n      swap2\n      pop\n      pop\n        /* \"contracts/fraud-detector/libs/rlp/Helper.sol\":2668:2837  function toBoolean(bytes memory item) public pure returns (bool) {... */\n      swap2\n      swap1\n      pop\n      jump\t// out\n        /* \"contracts/fraud-detector/libs/rlp/Helper.sol\":4953:5280  function customDestructure(bytes memory item) public pure returns (address, bool, uint) {... */\n    tag_35:\n        /* \"contracts/fraud-detector/libs/rlp/Helper.sol\":5020:5027  address */\n      0x00\n        /* \"contracts/fraud-detector/libs/rlp/Helper.sol\":5029:5033  bool */\n      dup1\n        /* \"contracts/fraud-detector/libs/rlp/Helper.sol\":5035:5039  uint */\n      0x00\n        /* \"contracts/fraud-detector/libs/rlp/Helper.sol\":5133:5165  RLPReader.RLPItem[] memory items */\n      dup1\n        /* \"contracts/fraud-detector/libs/rlp/Helper.sol\":5168:5193  item.toRlpItem().toList() */\n      tag_128\n        /* \"contracts/fraud-detector/libs/rlp/Helper.sol\":5168:5184  item.toRlpItem() */\n      tag_129\n        /* \"contracts/fraud-detector/libs/rlp/Helper.sol\":5168:5172  item */\n      dup7\n        /* \"contracts/fraud-detector/libs/rlp/Helper.sol\":5168:5182  item.toRlpItem */\n      tag_124\n        /* \"contracts/fraud-detector/libs/rlp/Helper.sol\":5168:5184  item.toRlpItem() */\n      jump\t// in\n    tag_129:\n        /* \"contracts/fraud-detector/libs/rlp/Helper.sol\":5168:5191  item.toRlpItem().toList */\n      tag_130\n        /* \"contracts/fraud-detector/libs/rlp/Helper.sol\":5168:5193  item.toRlpItem().toList() */\n      jump\t// in\n    tag_128:\n        /* \"contracts/fraud-detector/libs/rlp/Helper.sol\":5133:5193  RLPReader.RLPItem[] memory items = item.toRlpItem().toList() */\n      swap1\n      pop\n        /* \"contracts/fraud-detector/libs/rlp/Helper.sol\":5211:5231  items[0].toAddress() */\n      tag_131\n        /* \"contracts/fraud-detector/libs/rlp/Helper.sol\":5211:5216  items */\n      dup2\n        /* \"contracts/fraud-detector/libs/rlp/Helper.sol\":5217:5218  0 */\n      0x00\n        /* \"contracts/fraud-detector/libs/rlp/Helper.sol\":5211:5219  items[0] */\n      dup2\n      mload\n      dup2\n      lt\n      tag_132\n      jumpi\n      tag_133\n      tag_134\n      jump\t// in\n    tag_133:\n    tag_132:\n      0x20\n      mul\n      0x20\n      add\n      add\n      mload\n        /* \"contracts/fraud-detector/libs/rlp/Helper.sol\":5211:5229  items[0].toAddress */\n      tag_135\n        /* \"contracts/fraud-detector/libs/rlp/Helper.sol\":5211:5231  items[0].toAddress() */\n      jump\t// in\n    tag_131:\n        /* \"contracts/fraud-detector/libs/rlp/Helper.sol\":5233:5253  items[1].toBoolean() */\n      tag_136\n        /* \"contracts/fraud-detector/libs/rlp/Helper.sol\":5233:5238  items */\n      dup3\n        /* \"contracts/fraud-detector/libs/rlp/Helper.sol\":5239:5240  1 */\n      0x01\n        /* \"contracts/fraud-detector/libs/rlp/Helper.sol\":5233:5241  items[1] */\n      dup2\n      mload\n      dup2\n      lt\n      tag_137\n      jumpi\n      tag_138\n      tag_134\n      jump\t// in\n    tag_138:\n    tag_137:\n      0x20\n      mul\n      0x20\n      add\n      add\n      mload\n        /* \"contracts/fraud-detector/libs/rlp/Helper.sol\":5233:5251  items[1].toBoolean */\n      tag_126\n        /* \"contracts/fraud-detector/libs/rlp/Helper.sol\":5233:5253  items[1].toBoolean() */\n      jump\t// in\n    tag_136:\n        /* \"contracts/fraud-detector/libs/rlp/Helper.sol\":5255:5272  items[2].toUint() */\n      tag_139\n        /* \"contracts/fraud-detector/libs/rlp/Helper.sol\":5255:5260  items */\n      dup4\n        /* \"contracts/fraud-detector/libs/rlp/Helper.sol\":5261:5262  2 */\n      0x02\n        /* \"contracts/fraud-detector/libs/rlp/Helper.sol\":5255:5263  items[2] */\n      dup2\n      mload\n      dup2\n      lt\n      tag_140\n      jumpi\n      tag_141\n      tag_134\n      jump\t// in\n    tag_141:\n    tag_140:\n      0x20\n      mul\n      0x20\n      add\n      add\n      mload\n        /* \"contracts/fraud-detector/libs/rlp/Helper.sol\":5255:5270  items[2].toUint */\n      tag_142\n        /* \"contracts/fraud-detector/libs/rlp/Helper.sol\":5255:5272  items[2].toUint() */\n      jump\t// in\n    tag_139:\n        /* \"contracts/fraud-detector/libs/rlp/Helper.sol\":5203:5273  return (items[0].toAddress(), items[1].toBoolean(), items[2].toUint()) */\n      swap4\n      pop\n      swap4\n      pop\n      swap4\n      pop\n      pop\n        /* \"contracts/fraud-detector/libs/rlp/Helper.sol\":4953:5280  function customDestructure(bytes memory item) public pure returns (address, bool, uint) {... */\n      swap2\n      swap4\n      swap1\n      swap3\n      pop\n      jump\t// out\n        /* \"contracts/fraud-detector/libs/rlp/Helper.sol\":5286:5544  function customNestedDestructure(bytes memory item) public pure returns (address, uint) {... */\n    tag_40:\n        /* \"contracts/fraud-detector/libs/rlp/Helper.sol\":5359:5366  address */\n      0x00\n        /* \"contracts/fraud-detector/libs/rlp/Helper.sol\":5368:5372  uint */\n      dup1\n        /* \"contracts/fraud-detector/libs/rlp/Helper.sol\":5384:5416  RLPReader.RLPItem[] memory items */\n      0x00\n        /* \"contracts/fraud-detector/libs/rlp/Helper.sol\":5419:5444  item.toRlpItem().toList() */\n      tag_144\n        /* \"contracts/fraud-detector/libs/rlp/Helper.sol\":5419:5435  item.toRlpItem() */\n      tag_145\n        /* \"contracts/fraud-detector/libs/rlp/Helper.sol\":5419:5423  item */\n      dup6\n        /* \"contracts/fraud-detector/libs/rlp/Helper.sol\":5419:5433  item.toRlpItem */\n      tag_124\n        /* \"contracts/fraud-detector/libs/rlp/Helper.sol\":5419:5435  item.toRlpItem() */\n      jump\t// in\n    tag_145:\n        /* \"contracts/fraud-detector/libs/rlp/Helper.sol\":5419:5442  item.toRlpItem().toList */\n      tag_130\n        /* \"contracts/fraud-detector/libs/rlp/Helper.sol\":5419:5444  item.toRlpItem().toList() */\n      jump\t// in\n    tag_144:\n        /* \"contracts/fraud-detector/libs/rlp/Helper.sol\":5384:5444  RLPReader.RLPItem[] memory items = item.toRlpItem().toList() */\n      swap1\n      pop\n        /* \"contracts/fraud-detector/libs/rlp/Helper.sol\":5462:5479  items[0].toList() */\n      tag_146\n        /* \"contracts/fraud-detector/libs/rlp/Helper.sol\":5462:5467  items */\n      dup2\n        /* \"contracts/fraud-detector/libs/rlp/Helper.sol\":5468:5469  0 */\n      0x00\n        /* \"contracts/fraud-detector/libs/rlp/Helper.sol\":5462:5470  items[0] */\n      dup2\n      mload\n      dup2\n      lt\n      tag_147\n      jumpi\n      tag_148\n      tag_134\n      jump\t// in\n    tag_148:\n    tag_147:\n      0x20\n      mul\n      0x20\n      add\n      add\n      mload\n        /* \"contracts/fraud-detector/libs/rlp/Helper.sol\":5462:5477  items[0].toList */\n      tag_130\n        /* \"contracts/fraud-detector/libs/rlp/Helper.sol\":5462:5479  items[0].toList() */\n      jump\t// in\n    tag_146:\n        /* \"contracts/fraud-detector/libs/rlp/Helper.sol\":5454:5479  items = items[0].toList() */\n      swap1\n      pop\n        /* \"contracts/fraud-detector/libs/rlp/Helper.sol\":5497:5517  items[0].toAddress() */\n      tag_149\n        /* \"contracts/fraud-detector/libs/rlp/Helper.sol\":5497:5502  items */\n      dup2\n        /* \"contracts/fraud-detector/libs/rlp/Helper.sol\":5503:5504  0 */\n      0x00\n        /* \"contracts/fraud-detector/libs/rlp/Helper.sol\":5497:5505  items[0] */\n      dup2\n      mload\n      dup2\n      lt\n      tag_150\n      jumpi\n      tag_151\n      tag_134\n      jump\t// in\n    tag_151:\n    tag_150:\n      0x20\n      mul\n      0x20\n      add\n      add\n      mload\n        /* \"contracts/fraud-detector/libs/rlp/Helper.sol\":5497:5515  items[0].toAddress */\n      tag_135\n        /* \"contracts/fraud-detector/libs/rlp/Helper.sol\":5497:5517  items[0].toAddress() */\n      jump\t// in\n    tag_149:\n        /* \"contracts/fraud-detector/libs/rlp/Helper.sol\":5519:5536  items[1].toUint() */\n      tag_152\n        /* \"contracts/fraud-detector/libs/rlp/Helper.sol\":5519:5524  items */\n      dup3\n        /* \"contracts/fraud-detector/libs/rlp/Helper.sol\":5525:5526  1 */\n      0x01\n        /* \"contracts/fraud-detector/libs/rlp/Helper.sol\":5519:5527  items[1] */\n      dup2\n      mload\n      dup2\n      lt\n      tag_153\n      jumpi\n      tag_154\n      tag_134\n      jump\t// in\n    tag_154:\n    tag_153:\n      0x20\n      mul\n      0x20\n      add\n      add\n      mload\n        /* \"contracts/fraud-detector/libs/rlp/Helper.sol\":5519:5534  items[1].toUint */\n      tag_142\n        /* \"contracts/fraud-detector/libs/rlp/Helper.sol\":5519:5536  items[1].toUint() */\n      jump\t// in\n    tag_152:\n        /* \"contracts/fraud-detector/libs/rlp/Helper.sol\":5489:5537  return (items[0].toAddress(), items[1].toUint()) */\n      swap3\n      pop\n      swap3\n      pop\n      pop\n        /* \"contracts/fraud-detector/libs/rlp/Helper.sol\":5286:5544  function customNestedDestructure(bytes memory item) public pure returns (address, uint) {... */\n      swap2\n      pop\n      swap2\n      jump\t// out\n        /* \"contracts/fraud-detector/libs/rlp/Helper.sol\":338:501  function isList(bytes memory item) public pure returns (bool) {... */\n    tag_45:\n        /* \"contracts/fraud-detector/libs/rlp/Helper.sol\":394:398  bool */\n      0x00\n        /* \"contracts/fraud-detector/libs/rlp/Helper.sol\":410:442  RLPReader.RLPItem memory rlpItem */\n      dup1\n        /* \"contracts/fraud-detector/libs/rlp/Helper.sol\":445:461  item.toRlpItem() */\n      tag_156\n        /* \"contracts/fraud-detector/libs/rlp/Helper.sol\":445:449  item */\n      dup4\n        /* \"contracts/fraud-detector/libs/rlp/Helper.sol\":445:459  item.toRlpItem */\n      tag_124\n        /* \"contracts/fraud-detector/libs/rlp/Helper.sol\":445:461  item.toRlpItem() */\n      jump\t// in\n    tag_156:\n        /* \"contracts/fraud-detector/libs/rlp/Helper.sol\":410:461  RLPReader.RLPItem memory rlpItem = item.toRlpItem() */\n      swap1\n      pop\n        /* \"contracts/fraud-detector/libs/rlp/Helper.sol\":478:494  rlpItem.isList() */\n      tag_157\n        /* \"contracts/fraud-detector/libs/rlp/Helper.sol\":478:485  rlpItem */\n      dup2\n        /* \"contracts/fraud-detector/libs/rlp/Helper.sol\":478:492  rlpItem.isList */\n      tag_158\n        /* \"contracts/fraud-detector/libs/rlp/Helper.sol\":478:494  rlpItem.isList() */\n      jump\t// in\n    tag_157:\n        /* \"contracts/fraud-detector/libs/rlp/Helper.sol\":471:494  return rlpItem.isList() */\n      swap2\n      pop\n      pop\n        /* \"contracts/fraud-detector/libs/rlp/Helper.sol\":338:501  function isList(bytes memory item) public pure returns (bool) {... */\n      swap2\n      swap1\n      pop\n      jump\t// out\n        /* \"contracts/fraud-detector/libs/rlp/Helper.sol\":2309:2484  function toUintStrict(bytes memory item) public pure returns (uint) {... */\n    tag_49:\n        /* \"contracts/fraud-detector/libs/rlp/Helper.sol\":2371:2375  uint */\n      0x00\n        /* \"contracts/fraud-detector/libs/rlp/Helper.sol\":2387:2419  RLPReader.RLPItem memory rlpItem */\n      dup1\n        /* \"contracts/fraud-detector/libs/rlp/Helper.sol\":2422:2438  item.toRlpItem() */\n      tag_160\n        /* \"contracts/fraud-detector/libs/rlp/Helper.sol\":2422:2426  item */\n      dup4\n        /* \"contracts/fraud-detector/libs/rlp/Helper.sol\":2422:2436  item.toRlpItem */\n      tag_124\n        /* \"contracts/fraud-detector/libs/rlp/Helper.sol\":2422:2438  item.toRlpItem() */\n      jump\t// in\n    tag_160:\n        /* \"contracts/fraud-detector/libs/rlp/Helper.sol\":2387:2438  RLPReader.RLPItem memory rlpItem = item.toRlpItem() */\n      swap1\n      pop\n        /* \"contracts/fraud-detector/libs/rlp/Helper.sol\":2455:2477  rlpItem.toUintStrict() */\n      tag_161\n        /* \"contracts/fraud-detector/libs/rlp/Helper.sol\":2455:2462  rlpItem */\n      dup2\n        /* \"contracts/fraud-detector/libs/rlp/Helper.sol\":2455:2475  rlpItem.toUintStrict */\n      tag_162\n        /* \"contracts/fraud-detector/libs/rlp/Helper.sol\":2455:2477  rlpItem.toUintStrict() */\n      jump\t// in\n    tag_161:\n        /* \"contracts/fraud-detector/libs/rlp/Helper.sol\":2448:2477  return rlpItem.toUintStrict() */\n      swap2\n      pop\n      pop\n        /* \"contracts/fraud-detector/libs/rlp/Helper.sol\":2309:2484  function toUintStrict(bytes memory item) public pure returns (uint) {... */\n      swap2\n      swap1\n      pop\n      jump\t// out\n        /* \"contracts/fraud-detector/libs/rlp/Helper.sol\":2490:2662  function toAddress(bytes memory item) public pure returns (address) {... */\n    tag_54:\n        /* \"contracts/fraud-detector/libs/rlp/Helper.sol\":2549:2556  address */\n      0x00\n        /* \"contracts/fraud-detector/libs/rlp/Helper.sol\":2568:2600  RLPReader.RLPItem memory rlpItem */\n      dup1\n        /* \"contracts/fraud-detector/libs/rlp/Helper.sol\":2603:2619  item.toRlpItem() */\n      tag_164\n        /* \"contracts/fraud-detector/libs/rlp/Helper.sol\":2603:2607  item */\n      dup4\n        /* \"contracts/fraud-detector/libs/rlp/Helper.sol\":2603:2617  item.toRlpItem */\n      tag_124\n        /* \"contracts/fraud-detector/libs/rlp/Helper.sol\":2603:2619  item.toRlpItem() */\n      jump\t// in\n    tag_164:\n        /* \"contracts/fraud-detector/libs/rlp/Helper.sol\":2568:2619  RLPReader.RLPItem memory rlpItem = item.toRlpItem() */\n      swap1\n      pop\n        /* \"contracts/fraud-detector/libs/rlp/Helper.sol\":2636:2655  rlpItem.toAddress() */\n      tag_165\n        /* \"contracts/fraud-detector/libs/rlp/Helper.sol\":2636:2643  rlpItem */\n      dup2\n        /* \"contracts/fraud-detector/libs/rlp/Helper.sol\":2636:2653  rlpItem.toAddress */\n      tag_135\n        /* \"contracts/fraud-detector/libs/rlp/Helper.sol\":2636:2655  rlpItem.toAddress() */\n      jump\t// in\n    tag_165:\n        /* \"contracts/fraud-detector/libs/rlp/Helper.sol\":2629:2655  return rlpItem.toAddress() */\n      swap2\n      pop\n      pop\n        /* \"contracts/fraud-detector/libs/rlp/Helper.sol\":2490:2662  function toAddress(bytes memory item) public pure returns (address) {... */\n      swap2\n      swap1\n      pop\n      jump\t// out\n        /* \"contracts/fraud-detector/libs/rlp/Helper.sol\":1776:1955  function toRlpBytes(bytes memory item) public pure returns (bytes memory) {... */\n    tag_59:\n        /* \"contracts/fraud-detector/libs/rlp/Helper.sol\":1836:1848  bytes memory */\n      0x60\n        /* \"contracts/fraud-detector/libs/rlp/Helper.sol\":1860:1892  RLPReader.RLPItem memory rlpItem */\n      0x00\n        /* \"contracts/fraud-detector/libs/rlp/Helper.sol\":1895:1911  item.toRlpItem() */\n      tag_167\n        /* \"contracts/fraud-detector/libs/rlp/Helper.sol\":1895:1899  item */\n      dup4\n        /* \"contracts/fraud-detector/libs/rlp/Helper.sol\":1895:1909  item.toRlpItem */\n      tag_124\n        /* \"contracts/fraud-detector/libs/rlp/Helper.sol\":1895:1911  item.toRlpItem() */\n      jump\t// in\n    tag_167:\n        /* \"contracts/fraud-detector/libs/rlp/Helper.sol\":1860:1911  RLPReader.RLPItem memory rlpItem = item.toRlpItem() */\n      swap1\n      pop\n        /* \"contracts/fraud-detector/libs/rlp/Helper.sol\":1928:1948  rlpItem.toRlpBytes() */\n      tag_168\n        /* \"contracts/fraud-detector/libs/rlp/Helper.sol\":1928:1935  rlpItem */\n      dup2\n        /* \"contracts/fraud-detector/libs/rlp/Helper.sol\":1928:1946  rlpItem.toRlpBytes */\n      tag_169\n        /* \"contracts/fraud-detector/libs/rlp/Helper.sol\":1928:1948  rlpItem.toRlpBytes() */\n      jump\t// in\n    tag_168:\n        /* \"contracts/fraud-detector/libs/rlp/Helper.sol\":1921:1948  return rlpItem.toRlpBytes() */\n      swap2\n      pop\n      pop\n        /* \"contracts/fraud-detector/libs/rlp/Helper.sol\":1776:1955  function toRlpBytes(bytes memory item) public pure returns (bytes memory) {... */\n      swap2\n      swap1\n      pop\n      jump\t// out\n        /* \"contracts/fraud-detector/libs/rlp/Helper.sol\":2843:3031  function bytesToString(bytes memory item) public pure returns (string memory) {... */\n    tag_64:\n        /* \"contracts/fraud-detector/libs/rlp/Helper.sol\":2906:2919  string memory */\n      0x60\n        /* \"contracts/fraud-detector/libs/rlp/Helper.sol\":2931:2963  RLPReader.RLPItem memory rlpItem */\n      0x00\n        /* \"contracts/fraud-detector/libs/rlp/Helper.sol\":2966:2982  item.toRlpItem() */\n      tag_171\n        /* \"contracts/fraud-detector/libs/rlp/Helper.sol\":2966:2970  item */\n      dup4\n        /* \"contracts/fraud-detector/libs/rlp/Helper.sol\":2966:2980  item.toRlpItem */\n      tag_124\n        /* \"contracts/fraud-detector/libs/rlp/Helper.sol\":2966:2982  item.toRlpItem() */\n      jump\t// in\n    tag_171:\n        /* \"contracts/fraud-detector/libs/rlp/Helper.sol\":2931:2982  RLPReader.RLPItem memory rlpItem = item.toRlpItem() */\n      swap1\n      pop\n        /* \"contracts/fraud-detector/libs/rlp/Helper.sol\":3006:3023  rlpItem.toBytes() */\n      tag_172\n        /* \"contracts/fraud-detector/libs/rlp/Helper.sol\":3006:3013  rlpItem */\n      dup2\n        /* \"contracts/fraud-detector/libs/rlp/Helper.sol\":3006:3021  rlpItem.toBytes */\n      tag_173\n        /* \"contracts/fraud-detector/libs/rlp/Helper.sol\":3006:3023  rlpItem.toBytes() */\n      jump\t// in\n    tag_172:\n        /* \"contracts/fraud-detector/libs/rlp/Helper.sol\":2992:3024  return string(rlpItem.toBytes()) */\n      swap2\n      pop\n      pop\n        /* \"contracts/fraud-detector/libs/rlp/Helper.sol\":2843:3031  function bytesToString(bytes memory item) public pure returns (string memory) {... */\n      swap2\n      swap1\n      pop\n      jump\t// out\n        /* \"contracts/fraud-detector/libs/rlp/Helper.sol\":880:1204  function payloadLocation(bytes memory item) public pure returns (... */\n    tag_69:\n        /* \"contracts/fraud-detector/libs/rlp/Helper.sol\":954:972  uint payloadMemPtr */\n      0x00\n        /* \"contracts/fraud-detector/libs/rlp/Helper.sol\":982:997  uint payloadLen */\n      dup1\n        /* \"contracts/fraud-detector/libs/rlp/Helper.sol\":1007:1022  uint itemMemPtr */\n      0x00\n        /* \"contracts/fraud-detector/libs/rlp/Helper.sol\":1039:1071  RLPReader.RLPItem memory rlpItem */\n      dup1\n        /* \"contracts/fraud-detector/libs/rlp/Helper.sol\":1074:1090  item.toRlpItem() */\n      tag_175\n        /* \"contracts/fraud-detector/libs/rlp/Helper.sol\":1074:1078  item */\n      dup6\n        /* \"contracts/fraud-detector/libs/rlp/Helper.sol\":1074:1088  item.toRlpItem */\n      tag_124\n        /* \"contracts/fraud-detector/libs/rlp/Helper.sol\":1074:1090  item.toRlpItem() */\n      jump\t// in\n    tag_175:\n        /* \"contracts/fraud-detector/libs/rlp/Helper.sol\":1039:1090  RLPReader.RLPItem memory rlpItem = item.toRlpItem() */\n      swap1\n      pop\n        /* \"contracts/fraud-detector/libs/rlp/Helper.sol\":1101:1112  uint memPtr */\n      0x00\n        /* \"contracts/fraud-detector/libs/rlp/Helper.sol\":1114:1122  uint len */\n      dup1\n        /* \"contracts/fraud-detector/libs/rlp/Helper.sol\":1126:1151  rlpItem.payloadLocation() */\n      tag_176\n        /* \"contracts/fraud-detector/libs/rlp/Helper.sol\":1126:1133  rlpItem */\n      dup4\n        /* \"contracts/fraud-detector/libs/rlp/Helper.sol\":1126:1149  rlpItem.payloadLocation */\n      tag_177\n        /* \"contracts/fraud-detector/libs/rlp/Helper.sol\":1126:1151  rlpItem.payloadLocation() */\n      jump\t// in\n    tag_176:\n        /* \"contracts/fraud-detector/libs/rlp/Helper.sol\":1100:1151  (uint memPtr, uint len) = rlpItem.payloadLocation() */\n      swap2\n      pop\n      swap2\n      pop\n        /* \"contracts/fraud-detector/libs/rlp/Helper.sol\":1169:1175  memPtr */\n      dup2\n        /* \"contracts/fraud-detector/libs/rlp/Helper.sol\":1177:1180  len */\n      dup2\n        /* \"contracts/fraud-detector/libs/rlp/Helper.sol\":1182:1189  rlpItem */\n      dup5\n        /* \"contracts/fraud-detector/libs/rlp/Helper.sol\":1182:1196  rlpItem.memPtr */\n      0x20\n      add\n      mload\n        /* \"contracts/fraud-detector/libs/rlp/Helper.sol\":1161:1197  return (memPtr, len, rlpItem.memPtr) */\n      swap6\n      pop\n      swap6\n      pop\n      swap6\n      pop\n      pop\n      pop\n      pop\n        /* \"contracts/fraud-detector/libs/rlp/Helper.sol\":880:1204  function payloadLocation(bytes memory item) public pure returns (... */\n      swap2\n      swap4\n      swap1\n      swap3\n      pop\n      jump\t// out\n        /* \"contracts/fraud-detector/libs/rlp/Helper.sol\":5582:5866  function customNestedDestructureKeccak(bytes memory item) public pure returns (bytes32, bytes32) {... */\n    tag_74:\n        /* \"contracts/fraud-detector/libs/rlp/Helper.sol\":5661:5668  bytes32 */\n      0x00\n        /* \"contracts/fraud-detector/libs/rlp/Helper.sol\":5670:5677  bytes32 */\n      dup1\n        /* \"contracts/fraud-detector/libs/rlp/Helper.sol\":5689:5721  RLPReader.RLPItem[] memory items */\n      0x00\n        /* \"contracts/fraud-detector/libs/rlp/Helper.sol\":5724:5749  item.toRlpItem().toList() */\n      tag_179\n        /* \"contracts/fraud-detector/libs/rlp/Helper.sol\":5724:5740  item.toRlpItem() */\n      tag_180\n        /* \"contracts/fraud-detector/libs/rlp/Helper.sol\":5724:5728  item */\n      dup6\n        /* \"contracts/fraud-detector/libs/rlp/Helper.sol\":5724:5738  item.toRlpItem */\n      tag_124\n        /* \"contracts/fraud-detector/libs/rlp/Helper.sol\":5724:5740  item.toRlpItem() */\n      jump\t// in\n    tag_180:\n        /* \"contracts/fraud-detector/libs/rlp/Helper.sol\":5724:5747  item.toRlpItem().toList */\n      tag_130\n        /* \"contracts/fraud-detector/libs/rlp/Helper.sol\":5724:5749  item.toRlpItem().toList() */\n      jump\t// in\n    tag_179:\n        /* \"contracts/fraud-detector/libs/rlp/Helper.sol\":5689:5749  RLPReader.RLPItem[] memory items = item.toRlpItem().toList() */\n      swap1\n      pop\n        /* \"contracts/fraud-detector/libs/rlp/Helper.sol\":5767:5784  items[0].toList() */\n      tag_181\n        /* \"contracts/fraud-detector/libs/rlp/Helper.sol\":5767:5772  items */\n      dup2\n        /* \"contracts/fraud-detector/libs/rlp/Helper.sol\":5773:5774  0 */\n      0x00\n        /* \"contracts/fraud-detector/libs/rlp/Helper.sol\":5767:5775  items[0] */\n      dup2\n      mload\n      dup2\n      lt\n      tag_182\n      jumpi\n      tag_183\n      tag_134\n      jump\t// in\n    tag_183:\n    tag_182:\n      0x20\n      mul\n      0x20\n      add\n      add\n      mload\n        /* \"contracts/fraud-detector/libs/rlp/Helper.sol\":5767:5782  items[0].toList */\n      tag_130\n        /* \"contracts/fraud-detector/libs/rlp/Helper.sol\":5767:5784  items[0].toList() */\n      jump\t// in\n    tag_181:\n        /* \"contracts/fraud-detector/libs/rlp/Helper.sol\":5759:5784  items = items[0].toList() */\n      swap1\n      pop\n        /* \"contracts/fraud-detector/libs/rlp/Helper.sol\":5802:5829  items[0].payloadKeccak256() */\n      tag_184\n        /* \"contracts/fraud-detector/libs/rlp/Helper.sol\":5802:5807  items */\n      dup2\n        /* \"contracts/fraud-detector/libs/rlp/Helper.sol\":5808:5809  0 */\n      0x00\n        /* \"contracts/fraud-detector/libs/rlp/Helper.sol\":5802:5810  items[0] */\n      dup2\n      mload\n      dup2\n      lt\n      tag_185\n      jumpi\n      tag_186\n      tag_134\n      jump\t// in\n    tag_186:\n    tag_185:\n      0x20\n      mul\n      0x20\n      add\n      add\n      mload\n        /* \"contracts/fraud-detector/libs/rlp/Helper.sol\":5802:5827  items[0].payloadKeccak256 */\n      tag_187\n        /* \"contracts/fraud-detector/libs/rlp/Helper.sol\":5802:5829  items[0].payloadKeccak256() */\n      jump\t// in\n    tag_184:\n        /* \"contracts/fraud-detector/libs/rlp/Helper.sol\":5831:5858  items[1].payloadKeccak256() */\n      tag_188\n        /* \"contracts/fraud-detector/libs/rlp/Helper.sol\":5831:5836  items */\n      dup3\n        /* \"contracts/fraud-detector/libs/rlp/Helper.sol\":5837:5838  1 */\n      0x01\n        /* \"contracts/fraud-detector/libs/rlp/Helper.sol\":5831:5839  items[1] */\n      dup2\n      mload\n      dup2\n      lt\n      tag_189\n      jumpi\n      tag_190\n      tag_134\n      jump\t// in\n    tag_190:\n    tag_189:\n      0x20\n      mul\n      0x20\n      add\n      add\n      mload\n        /* \"contracts/fraud-detector/libs/rlp/Helper.sol\":5831:5856  items[1].payloadKeccak256 */\n      tag_187\n        /* \"contracts/fraud-detector/libs/rlp/Helper.sol\":5831:5858  items[1].payloadKeccak256() */\n      jump\t// in\n    tag_188:\n        /* \"contracts/fraud-detector/libs/rlp/Helper.sol\":5794:5859  return (items[0].payloadKeccak256(), items[1].payloadKeccak256()) */\n      swap3\n      pop\n      swap3\n      pop\n      pop\n        /* \"contracts/fraud-detector/libs/rlp/Helper.sol\":5582:5866  function customNestedDestructureKeccak(bytes memory item) public pure returns (bytes32, bytes32) {... */\n      swap2\n      pop\n      swap2\n      jump\t// out\n        /* \"contracts/fraud-detector/libs/rlp/Helper.sol\":5872:6073  function customNestedToRlpBytes(bytes memory item) public pure returns (bytes memory) {... */\n    tag_79:\n        /* \"contracts/fraud-detector/libs/rlp/Helper.sol\":5944:5956  bytes memory */\n      0x60\n        /* \"contracts/fraud-detector/libs/rlp/Helper.sol\":5968:6000  RLPReader.RLPItem[] memory items */\n      0x00\n        /* \"contracts/fraud-detector/libs/rlp/Helper.sol\":6003:6028  item.toRlpItem().toList() */\n      tag_192\n        /* \"contracts/fraud-detector/libs/rlp/Helper.sol\":6003:6019  item.toRlpItem() */\n      tag_193\n        /* \"contracts/fraud-detector/libs/rlp/Helper.sol\":6003:6007  item */\n      dup5\n        /* \"contracts/fraud-detector/libs/rlp/Helper.sol\":6003:6017  item.toRlpItem */\n      tag_124\n        /* \"contracts/fraud-detector/libs/rlp/Helper.sol\":6003:6019  item.toRlpItem() */\n      jump\t// in\n    tag_193:\n        /* \"contracts/fraud-detector/libs/rlp/Helper.sol\":6003:6026  item.toRlpItem().toList */\n      tag_130\n        /* \"contracts/fraud-detector/libs/rlp/Helper.sol\":6003:6028  item.toRlpItem().toList() */\n      jump\t// in\n    tag_192:\n        /* \"contracts/fraud-detector/libs/rlp/Helper.sol\":5968:6028  RLPReader.RLPItem[] memory items = item.toRlpItem().toList() */\n      swap1\n      pop\n        /* \"contracts/fraud-detector/libs/rlp/Helper.sol\":6045:6066  items[0].toRlpBytes() */\n      tag_194\n        /* \"contracts/fraud-detector/libs/rlp/Helper.sol\":6045:6050  items */\n      dup2\n        /* \"contracts/fraud-detector/libs/rlp/Helper.sol\":6051:6052  0 */\n      0x00\n        /* \"contracts/fraud-detector/libs/rlp/Helper.sol\":6045:6053  items[0] */\n      dup2\n      mload\n      dup2\n      lt\n      tag_195\n      jumpi\n      tag_196\n      tag_134\n      jump\t// in\n    tag_196:\n    tag_195:\n      0x20\n      mul\n      0x20\n      add\n      add\n      mload\n        /* \"contracts/fraud-detector/libs/rlp/Helper.sol\":6045:6064  items[0].toRlpBytes */\n      tag_169\n        /* \"contracts/fraud-detector/libs/rlp/Helper.sol\":6045:6066  items[0].toRlpBytes() */\n      jump\t// in\n    tag_194:\n        /* \"contracts/fraud-detector/libs/rlp/Helper.sol\":6038:6066  return items[0].toRlpBytes() */\n      swap2\n      pop\n      pop\n        /* \"contracts/fraud-detector/libs/rlp/Helper.sol\":5872:6073  function customNestedToRlpBytes(bytes memory item) public pure returns (bytes memory) {... */\n      swap2\n      swap1\n      pop\n      jump\t// out\n        /* \"contracts/fraud-detector/libs/rlp/Helper.sol\":3220:3606  function nestedIteration(bytes memory item) public pure returns (string memory) {... */\n    tag_83:\n        /* \"contracts/fraud-detector/libs/rlp/Helper.sol\":3285:3298  string memory */\n      0x60\n        /* \"contracts/fraud-detector/libs/rlp/Helper.sol\":3310:3340  RLPReader.Iterator memory iter */\n      0x00\n        /* \"contracts/fraud-detector/libs/rlp/Helper.sol\":3343:3370  item.toRlpItem().iterator() */\n      tag_198\n        /* \"contracts/fraud-detector/libs/rlp/Helper.sol\":3343:3359  item.toRlpItem() */\n      tag_199\n        /* \"contracts/fraud-detector/libs/rlp/Helper.sol\":3343:3347  item */\n      dup5\n        /* \"contracts/fraud-detector/libs/rlp/Helper.sol\":3343:3357  item.toRlpItem */\n      tag_124\n        /* \"contracts/fraud-detector/libs/rlp/Helper.sol\":3343:3359  item.toRlpItem() */\n      jump\t// in\n    tag_199:\n        /* \"contracts/fraud-detector/libs/rlp/Helper.sol\":3343:3368  item.toRlpItem().iterator */\n      tag_200\n        /* \"contracts/fraud-detector/libs/rlp/Helper.sol\":3343:3370  item.toRlpItem().iterator() */\n      jump\t// in\n    tag_198:\n        /* \"contracts/fraud-detector/libs/rlp/Helper.sol\":3310:3370  RLPReader.Iterator memory iter = item.toRlpItem().iterator() */\n      swap1\n      pop\n        /* \"contracts/fraud-detector/libs/rlp/Helper.sol\":3380:3413  RLPReader.Iterator memory subIter */\n      0x00\n        /* \"contracts/fraud-detector/libs/rlp/Helper.sol\":3416:3438  iter.next().iterator() */\n      tag_201\n        /* \"contracts/fraud-detector/libs/rlp/Helper.sol\":3416:3427  iter.next() */\n      tag_202\n        /* \"contracts/fraud-detector/libs/rlp/Helper.sol\":3416:3420  iter */\n      dup4\n        /* \"contracts/fraud-detector/libs/rlp/Helper.sol\":3416:3425  iter.next */\n      tag_203\n        /* \"contracts/fraud-detector/libs/rlp/Helper.sol\":3416:3427  iter.next() */\n      jump\t// in\n    tag_202:\n        /* \"contracts/fraud-detector/libs/rlp/Helper.sol\":3416:3436  iter.next().iterator */\n      tag_200\n        /* \"contracts/fraud-detector/libs/rlp/Helper.sol\":3416:3438  iter.next().iterator() */\n      jump\t// in\n    tag_201:\n        /* \"contracts/fraud-detector/libs/rlp/Helper.sol\":3380:3438  RLPReader.Iterator memory subIter = iter.next().iterator() */\n      swap1\n      pop\n        /* \"contracts/fraud-detector/libs/rlp/Helper.sol\":3448:3468  string memory result */\n      0x00\n        /* \"contracts/fraud-detector/libs/rlp/Helper.sol\":3478:3502  subIter.next().toBytes() */\n      tag_204\n        /* \"contracts/fraud-detector/libs/rlp/Helper.sol\":3478:3492  subIter.next() */\n      tag_205\n        /* \"contracts/fraud-detector/libs/rlp/Helper.sol\":3478:3485  subIter */\n      dup4\n        /* \"contracts/fraud-detector/libs/rlp/Helper.sol\":3478:3490  subIter.next */\n      tag_203\n        /* \"contracts/fraud-detector/libs/rlp/Helper.sol\":3478:3492  subIter.next() */\n      jump\t// in\n    tag_205:\n        /* \"contracts/fraud-detector/libs/rlp/Helper.sol\":3478:3500  subIter.next().toBytes */\n      tag_173\n        /* \"contracts/fraud-detector/libs/rlp/Helper.sol\":3478:3502  subIter.next().toBytes() */\n      jump\t// in\n    tag_204:\n        /* \"contracts/fraud-detector/libs/rlp/Helper.sol\":3448:3503  string memory result = string(subIter.next().toBytes()) */\n      swap1\n      pop\n        /* \"contracts/fraud-detector/libs/rlp/Helper.sol\":3523:3537  iter.hasNext() */\n      tag_206\n        /* \"contracts/fraud-detector/libs/rlp/Helper.sol\":3523:3527  iter */\n      dup4\n        /* \"contracts/fraud-detector/libs/rlp/Helper.sol\":3523:3535  iter.hasNext */\n      tag_207\n        /* \"contracts/fraud-detector/libs/rlp/Helper.sol\":3523:3537  iter.hasNext() */\n      jump\t// in\n    tag_206:\n        /* \"contracts/fraud-detector/libs/rlp/Helper.sol\":3522:3537  !iter.hasNext() */\n      iszero\n        /* \"contracts/fraud-detector/libs/rlp/Helper.sol\":3514:3538  require(!iter.hasNext()) */\n      tag_208\n      jumpi\n      0x00\n      dup1\n      revert\n    tag_208:\n        /* \"contracts/fraud-detector/libs/rlp/Helper.sol\":3557:3574  subIter.hasNext() */\n      tag_209\n        /* \"contracts/fraud-detector/libs/rlp/Helper.sol\":3557:3564  subIter */\n      dup3\n        /* \"contracts/fraud-detector/libs/rlp/Helper.sol\":3557:3572  subIter.hasNext */\n      tag_207\n        /* \"contracts/fraud-detector/libs/rlp/Helper.sol\":3557:3574  subIter.hasNext() */\n      jump\t// in\n    tag_209:\n        /* \"contracts/fraud-detector/libs/rlp/Helper.sol\":3556:3574  !subIter.hasNext() */\n      iszero\n        /* \"contracts/fraud-detector/libs/rlp/Helper.sol\":3548:3575  require(!subIter.hasNext()) */\n      tag_210\n      jumpi\n      0x00\n      dup1\n      revert\n    tag_210:\n        /* \"contracts/fraud-detector/libs/rlp/Helper.sol\":3593:3599  result */\n      dup1\n        /* \"contracts/fraud-detector/libs/rlp/Helper.sol\":3586:3599  return result */\n      swap4\n      pop\n      pop\n      pop\n      pop\n        /* \"contracts/fraud-detector/libs/rlp/Helper.sol\":3220:3606  function nestedIteration(bytes memory item) public pure returns (string memory) {... */\n      swap2\n      swap1\n      pop\n      jump\t// out\n        /* \"contracts/fraud-detector/libs/rlp/Helper.sol\":507:705  function itemLength(bytes memory item) public pure returns (uint) {... */\n    tag_87:\n        /* \"contracts/fraud-detector/libs/rlp/Helper.sol\":567:571  uint */\n      0x00\n        /* \"contracts/fraud-detector/libs/rlp/Helper.sol\":583:594  uint memPtr */\n      dup1\n        /* \"contracts/fraud-detector/libs/rlp/Helper.sol\":647:651  0x20 */\n      0x20\n        /* \"contracts/fraud-detector/libs/rlp/Helper.sol\":641:645  item */\n      dup4\n        /* \"contracts/fraud-detector/libs/rlp/Helper.sol\":637:652  add(item, 0x20) */\n      add\n        /* \"contracts/fraud-detector/libs/rlp/Helper.sol\":627:652  memPtr := add(item, 0x20) */\n      swap1\n      pop\n        /* \"contracts/fraud-detector/libs/rlp/Helper.sol\":679:698  _itemLength(memPtr) */\n      tag_212\n        /* \"contracts/fraud-detector/libs/rlp/Helper.sol\":691:697  memPtr */\n      dup2\n        /* \"contracts/fraud-detector/libs/rlp/Helper.sol\":679:690  _itemLength */\n      tag_213\n        /* \"contracts/fraud-detector/libs/rlp/Helper.sol\":679:698  _itemLength(memPtr) */\n      jump\t// in\n    tag_212:\n        /* \"contracts/fraud-detector/libs/rlp/Helper.sol\":672:698  return _itemLength(memPtr) */\n      swap2\n      pop\n      pop\n        /* \"contracts/fraud-detector/libs/rlp/Helper.sol\":507:705  function itemLength(bytes memory item) public pure returns (uint) {... */\n      swap2\n      swap1\n      pop\n      jump\t// out\n        /* \"contracts/fraud-detector/libs/rlp/Helper.sol\":2140:2303  function toUint(bytes memory item) public pure returns (uint) {... */\n    tag_91:\n        /* \"contracts/fraud-detector/libs/rlp/Helper.sol\":2196:2200  uint */\n      0x00\n        /* \"contracts/fraud-detector/libs/rlp/Helper.sol\":2212:2244  RLPReader.RLPItem memory rlpItem */\n      dup1\n        /* \"contracts/fraud-detector/libs/rlp/Helper.sol\":2247:2263  item.toRlpItem() */\n      tag_215\n        /* \"contracts/fraud-detector/libs/rlp/Helper.sol\":2247:2251  item */\n      dup4\n        /* \"contracts/fraud-detector/libs/rlp/Helper.sol\":2247:2261  item.toRlpItem */\n      tag_124\n        /* \"contracts/fraud-detector/libs/rlp/Helper.sol\":2247:2263  item.toRlpItem() */\n      jump\t// in\n    tag_215:\n        /* \"contracts/fraud-detector/libs/rlp/Helper.sol\":2212:2263  RLPReader.RLPItem memory rlpItem = item.toRlpItem() */\n      swap1\n      pop\n        /* \"contracts/fraud-detector/libs/rlp/Helper.sol\":2280:2296  rlpItem.toUint() */\n      tag_216\n        /* \"contracts/fraud-detector/libs/rlp/Helper.sol\":2280:2287  rlpItem */\n      dup2\n        /* \"contracts/fraud-detector/libs/rlp/Helper.sol\":2280:2294  rlpItem.toUint */\n      tag_142\n        /* \"contracts/fraud-detector/libs/rlp/Helper.sol\":2280:2296  rlpItem.toUint() */\n      jump\t// in\n    tag_216:\n        /* \"contracts/fraud-detector/libs/rlp/Helper.sol\":2273:2296  return rlpItem.toUint() */\n      swap2\n      pop\n      pop\n        /* \"contracts/fraud-detector/libs/rlp/Helper.sol\":2140:2303  function toUint(bytes memory item) public pure returns (uint) {... */\n      swap2\n      swap1\n      pop\n      jump\t// out\n        /* \"contracts/fraud-detector/libs/rlp/Helper.sol\":711:874  function rlpLen(bytes memory item) public pure returns (uint) {... */\n    tag_95:\n        /* \"contracts/fraud-detector/libs/rlp/Helper.sol\":767:771  uint */\n      0x00\n        /* \"contracts/fraud-detector/libs/rlp/Helper.sol\":783:815  RLPReader.RLPItem memory rlpItem */\n      dup1\n        /* \"contracts/fraud-detector/libs/rlp/Helper.sol\":818:834  item.toRlpItem() */\n      tag_218\n        /* \"contracts/fraud-detector/libs/rlp/Helper.sol\":818:822  item */\n      dup4\n        /* \"contracts/fraud-detector/libs/rlp/Helper.sol\":818:832  item.toRlpItem */\n      tag_124\n        /* \"contracts/fraud-detector/libs/rlp/Helper.sol\":818:834  item.toRlpItem() */\n      jump\t// in\n    tag_218:\n        /* \"contracts/fraud-detector/libs/rlp/Helper.sol\":783:834  RLPReader.RLPItem memory rlpItem = item.toRlpItem() */\n      swap1\n      pop\n        /* \"contracts/fraud-detector/libs/rlp/Helper.sol\":851:867  rlpItem.rlpLen() */\n      tag_219\n        /* \"contracts/fraud-detector/libs/rlp/Helper.sol\":851:858  rlpItem */\n      dup2\n        /* \"contracts/fraud-detector/libs/rlp/Helper.sol\":851:865  rlpItem.rlpLen */\n      tag_220\n        /* \"contracts/fraud-detector/libs/rlp/Helper.sol\":851:867  rlpItem.rlpLen() */\n      jump\t// in\n    tag_219:\n        /* \"contracts/fraud-detector/libs/rlp/Helper.sol\":844:867  return rlpItem.rlpLen() */\n      swap2\n      pop\n      pop\n        /* \"contracts/fraud-detector/libs/rlp/Helper.sol\":711:874  function rlpLen(bytes memory item) public pure returns (uint) {... */\n      swap2\n      swap1\n      pop\n      jump\t// out\n        /* \"contracts/fraud-detector/libs/rlp/Helper.sol\":3037:3182  function toIterator(bytes memory item) public pure {... */\n    tag_99:\n        /* \"contracts/fraud-detector/libs/rlp/Helper.sol\":3148:3175  item.toRlpItem().iterator() */\n      tag_222\n        /* \"contracts/fraud-detector/libs/rlp/Helper.sol\":3148:3164  item.toRlpItem() */\n      tag_223\n        /* \"contracts/fraud-detector/libs/rlp/Helper.sol\":3148:3152  item */\n      dup3\n        /* \"contracts/fraud-detector/libs/rlp/Helper.sol\":3148:3162  item.toRlpItem */\n      tag_124\n        /* \"contracts/fraud-detector/libs/rlp/Helper.sol\":3148:3164  item.toRlpItem() */\n      jump\t// in\n    tag_223:\n        /* \"contracts/fraud-detector/libs/rlp/Helper.sol\":3148:3173  item.toRlpItem().iterator */\n      tag_200\n        /* \"contracts/fraud-detector/libs/rlp/Helper.sol\":3148:3175  item.toRlpItem().iterator() */\n      jump\t// in\n    tag_222:\n      pop\n        /* \"contracts/fraud-detector/libs/rlp/Helper.sol\":3037:3182  function toIterator(bytes memory item) public pure {... */\n      pop\n      jump\t// out\n        /* \"contracts/fraud-detector/libs/rlp/Helper.sol\":1210:1384  function numItems(bytes memory item) public pure returns (uint) {... */\n    tag_102:\n        /* \"contracts/fraud-detector/libs/rlp/Helper.sol\":1268:1272  uint */\n      0x00\n        /* \"contracts/fraud-detector/libs/rlp/Helper.sol\":1284:1318  RLPReader.RLPItem[] memory rlpItem */\n      dup1\n        /* \"contracts/fraud-detector/libs/rlp/Helper.sol\":1321:1346  item.toRlpItem().toList() */\n      tag_225\n        /* \"contracts/fraud-detector/libs/rlp/Helper.sol\":1321:1337  item.toRlpItem() */\n      tag_226\n        /* \"contracts/fraud-detector/libs/rlp/Helper.sol\":1321:1325  item */\n      dup5\n        /* \"contracts/fraud-detector/libs/rlp/Helper.sol\":1321:1335  item.toRlpItem */\n      tag_124\n        /* \"contracts/fraud-detector/libs/rlp/Helper.sol\":1321:1337  item.toRlpItem() */\n      jump\t// in\n    tag_226:\n        /* \"contracts/fraud-detector/libs/rlp/Helper.sol\":1321:1344  item.toRlpItem().toList */\n      tag_130\n        /* \"contracts/fraud-detector/libs/rlp/Helper.sol\":1321:1346  item.toRlpItem().toList() */\n      jump\t// in\n    tag_225:\n        /* \"contracts/fraud-detector/libs/rlp/Helper.sol\":1284:1346  RLPReader.RLPItem[] memory rlpItem = item.toRlpItem().toList() */\n      swap1\n      pop\n        /* \"contracts/fraud-detector/libs/rlp/Helper.sol\":1363:1370  rlpItem */\n      dup1\n        /* \"contracts/fraud-detector/libs/rlp/Helper.sol\":1363:1377  rlpItem.length */\n      mload\n        /* \"contracts/fraud-detector/libs/rlp/Helper.sol\":1356:1377  return rlpItem.length */\n      swap2\n      pop\n      pop\n        /* \"contracts/fraud-detector/libs/rlp/Helper.sol\":1210:1384  function numItems(bytes memory item) public pure returns (uint) {... */\n      swap2\n      swap1\n      pop\n      jump\t// out\n        /* \"contracts/fraud-detector/libs/rlp/Helper.sol\":3612:4915  function toBlockHeader(bytes memory rlpHeader) public pure returns (... */\n    tag_106:\n        /* \"contracts/fraud-detector/libs/rlp/Helper.sol\":3689:3707  bytes32 parentHash */\n      0x00\n        /* \"contracts/fraud-detector/libs/rlp/Helper.sol\":3709:3727  bytes32 sha3Uncles */\n      dup1\n        /* \"contracts/fraud-detector/libs/rlp/Helper.sol\":3729:3746  bytes32 stateRoot */\n      0x00\n        /* \"contracts/fraud-detector/libs/rlp/Helper.sol\":3748:3772  bytes32 transactionsRoot */\n      dup1\n        /* \"contracts/fraud-detector/libs/rlp/Helper.sol\":3774:3794  bytes32 receiptsRoot */\n      0x00\n        /* \"contracts/fraud-detector/libs/rlp/Helper.sol\":3804:3819  uint difficulty */\n      dup1\n        /* \"contracts/fraud-detector/libs/rlp/Helper.sol\":3821:3832  uint number */\n      0x00\n        /* \"contracts/fraud-detector/libs/rlp/Helper.sol\":3834:3847  uint gasLimit */\n      dup1\n        /* \"contracts/fraud-detector/libs/rlp/Helper.sol\":3849:3861  uint gasUsed */\n      0x00\n        /* \"contracts/fraud-detector/libs/rlp/Helper.sol\":3863:3877  uint timestamp */\n      dup1\n        /* \"contracts/fraud-detector/libs/rlp/Helper.sol\":3879:3889  uint nonce */\n      0x00\n        /* \"contracts/fraud-detector/libs/rlp/Helper.sol\":3902:3930  RLPReader.Iterator memory it */\n      dup1\n        /* \"contracts/fraud-detector/libs/rlp/Helper.sol\":3933:3965  rlpHeader.toRlpItem().iterator() */\n      tag_228\n        /* \"contracts/fraud-detector/libs/rlp/Helper.sol\":3933:3954  rlpHeader.toRlpItem() */\n      tag_229\n        /* \"contracts/fraud-detector/libs/rlp/Helper.sol\":3933:3942  rlpHeader */\n      dup15\n        /* \"contracts/fraud-detector/libs/rlp/Helper.sol\":3933:3952  rlpHeader.toRlpItem */\n      tag_124\n        /* \"contracts/fraud-detector/libs/rlp/Helper.sol\":3933:3954  rlpHeader.toRlpItem() */\n      jump\t// in\n    tag_229:\n        /* \"contracts/fraud-detector/libs/rlp/Helper.sol\":3933:3963  rlpHeader.toRlpItem().iterator */\n      tag_200\n        /* \"contracts/fraud-detector/libs/rlp/Helper.sol\":3933:3965  rlpHeader.toRlpItem().iterator() */\n      jump\t// in\n    tag_228:\n        /* \"contracts/fraud-detector/libs/rlp/Helper.sol\":3902:3965  RLPReader.Iterator memory it = rlpHeader.toRlpItem().iterator() */\n      swap1\n      pop\n        /* \"contracts/fraud-detector/libs/rlp/Helper.sol\":3975:3983  uint idx */\n      0x00\n        /* \"contracts/fraud-detector/libs/rlp/Helper.sol\":3993:4909  while(it.hasNext()) {... */\n    tag_230:\n        /* \"contracts/fraud-detector/libs/rlp/Helper.sol\":3999:4011  it.hasNext() */\n      tag_232\n        /* \"contracts/fraud-detector/libs/rlp/Helper.sol\":3999:4001  it */\n      dup3\n        /* \"contracts/fraud-detector/libs/rlp/Helper.sol\":3999:4009  it.hasNext */\n      tag_207\n        /* \"contracts/fraud-detector/libs/rlp/Helper.sol\":3999:4011  it.hasNext() */\n      jump\t// in\n    tag_232:\n        /* \"contracts/fraud-detector/libs/rlp/Helper.sol\":3993:4909  while(it.hasNext()) {... */\n      iszero\n      tag_231\n      jumpi\n        /* \"contracts/fraud-detector/libs/rlp/Helper.sol\":4039:4040  0 */\n      0x00\n        /* \"contracts/fraud-detector/libs/rlp/Helper.sol\":4032:4035  idx */\n      dup2\n        /* \"contracts/fraud-detector/libs/rlp/Helper.sol\":4032:4040  idx == 0 */\n      sub\n        /* \"contracts/fraud-detector/libs/rlp/Helper.sol\":4027:4878  if ( idx == 0 )      parentHash       = bytes32(it.next().toUint());... */\n      tag_233\n      jumpi\n        /* \"contracts/fraud-detector/libs/rlp/Helper.sol\":4075:4093  it.next().toUint() */\n      tag_234\n        /* \"contracts/fraud-detector/libs/rlp/Helper.sol\":4075:4084  it.next() */\n      tag_235\n        /* \"contracts/fraud-detector/libs/rlp/Helper.sol\":4075:4077  it */\n      dup4\n        /* \"contracts/fraud-detector/libs/rlp/Helper.sol\":4075:4082  it.next */\n      tag_203\n        /* \"contracts/fraud-detector/libs/rlp/Helper.sol\":4075:4084  it.next() */\n      jump\t// in\n    tag_235:\n        /* \"contracts/fraud-detector/libs/rlp/Helper.sol\":4075:4091  it.next().toUint */\n      tag_142\n        /* \"contracts/fraud-detector/libs/rlp/Helper.sol\":4075:4093  it.next().toUint() */\n      jump\t// in\n    tag_234:\n        /* \"contracts/fraud-detector/libs/rlp/Helper.sol\":4067:4094  bytes32(it.next().toUint()) */\n      0x00\n      shl\n        /* \"contracts/fraud-detector/libs/rlp/Helper.sol\":4048:4094  parentHash       = bytes32(it.next().toUint()) */\n      swap13\n      pop\n        /* \"contracts/fraud-detector/libs/rlp/Helper.sol\":4027:4878  if ( idx == 0 )      parentHash       = bytes32(it.next().toUint());... */\n      jump(tag_236)\n    tag_233:\n        /* \"contracts/fraud-detector/libs/rlp/Helper.sol\":4125:4126  1 */\n      0x01\n        /* \"contracts/fraud-detector/libs/rlp/Helper.sol\":4118:4121  idx */\n      dup2\n        /* \"contracts/fraud-detector/libs/rlp/Helper.sol\":4118:4126  idx == 1 */\n      sub\n        /* \"contracts/fraud-detector/libs/rlp/Helper.sol\":4113:4878  if ( idx == 1 ) sha3Uncles       = bytes32(it.next().toUint());... */\n      tag_237\n      jumpi\n        /* \"contracts/fraud-detector/libs/rlp/Helper.sol\":4156:4174  it.next().toUint() */\n      tag_238\n        /* \"contracts/fraud-detector/libs/rlp/Helper.sol\":4156:4165  it.next() */\n      tag_239\n        /* \"contracts/fraud-detector/libs/rlp/Helper.sol\":4156:4158  it */\n      dup4\n        /* \"contracts/fraud-detector/libs/rlp/Helper.sol\":4156:4163  it.next */\n      tag_203\n        /* \"contracts/fraud-detector/libs/rlp/Helper.sol\":4156:4165  it.next() */\n      jump\t// in\n    tag_239:\n        /* \"contracts/fraud-detector/libs/rlp/Helper.sol\":4156:4172  it.next().toUint */\n      tag_142\n        /* \"contracts/fraud-detector/libs/rlp/Helper.sol\":4156:4174  it.next().toUint() */\n      jump\t// in\n    tag_238:\n        /* \"contracts/fraud-detector/libs/rlp/Helper.sol\":4148:4175  bytes32(it.next().toUint()) */\n      0x00\n      shl\n        /* \"contracts/fraud-detector/libs/rlp/Helper.sol\":4129:4175  sha3Uncles       = bytes32(it.next().toUint()) */\n      swap12\n      pop\n        /* \"contracts/fraud-detector/libs/rlp/Helper.sol\":4113:4878  if ( idx == 1 ) sha3Uncles       = bytes32(it.next().toUint());... */\n      jump(tag_240)\n    tag_237:\n        /* \"contracts/fraud-detector/libs/rlp/Helper.sol\":4206:4207  3 */\n      0x03\n        /* \"contracts/fraud-detector/libs/rlp/Helper.sol\":4199:4202  idx */\n      dup2\n        /* \"contracts/fraud-detector/libs/rlp/Helper.sol\":4199:4207  idx == 3 */\n      sub\n        /* \"contracts/fraud-detector/libs/rlp/Helper.sol\":4194:4878  if ( idx == 3 ) stateRoot        = bytes32(it.next().toUint());... */\n      tag_241\n      jumpi\n        /* \"contracts/fraud-detector/libs/rlp/Helper.sol\":4237:4255  it.next().toUint() */\n      tag_242\n        /* \"contracts/fraud-detector/libs/rlp/Helper.sol\":4237:4246  it.next() */\n      tag_243\n        /* \"contracts/fraud-detector/libs/rlp/Helper.sol\":4237:4239  it */\n      dup4\n        /* \"contracts/fraud-detector/libs/rlp/Helper.sol\":4237:4244  it.next */\n      tag_203\n        /* \"contracts/fraud-detector/libs/rlp/Helper.sol\":4237:4246  it.next() */\n      jump\t// in\n    tag_243:\n        /* \"contracts/fraud-detector/libs/rlp/Helper.sol\":4237:4253  it.next().toUint */\n      tag_142\n        /* \"contracts/fraud-detector/libs/rlp/Helper.sol\":4237:4255  it.next().toUint() */\n      jump\t// in\n    tag_242:\n        /* \"contracts/fraud-detector/libs/rlp/Helper.sol\":4229:4256  bytes32(it.next().toUint()) */\n      0x00\n      shl\n        /* \"contracts/fraud-detector/libs/rlp/Helper.sol\":4210:4256  stateRoot        = bytes32(it.next().toUint()) */\n      swap11\n      pop\n        /* \"contracts/fraud-detector/libs/rlp/Helper.sol\":4194:4878  if ( idx == 3 ) stateRoot        = bytes32(it.next().toUint());... */\n      jump(tag_244)\n    tag_241:\n        /* \"contracts/fraud-detector/libs/rlp/Helper.sol\":4287:4288  4 */\n      0x04\n        /* \"contracts/fraud-detector/libs/rlp/Helper.sol\":4280:4283  idx */\n      dup2\n        /* \"contracts/fraud-detector/libs/rlp/Helper.sol\":4280:4288  idx == 4 */\n      sub\n        /* \"contracts/fraud-detector/libs/rlp/Helper.sol\":4275:4878  if ( idx == 4 ) transactionsRoot = bytes32(it.next().toUint());... */\n      tag_245\n      jumpi\n        /* \"contracts/fraud-detector/libs/rlp/Helper.sol\":4318:4336  it.next().toUint() */\n      tag_246\n        /* \"contracts/fraud-detector/libs/rlp/Helper.sol\":4318:4327  it.next() */\n      tag_247\n        /* \"contracts/fraud-detector/libs/rlp/Helper.sol\":4318:4320  it */\n      dup4\n        /* \"contracts/fraud-detector/libs/rlp/Helper.sol\":4318:4325  it.next */\n      tag_203\n        /* \"contracts/fraud-detector/libs/rlp/Helper.sol\":4318:4327  it.next() */\n      jump\t// in\n    tag_247:\n        /* \"contracts/fraud-detector/libs/rlp/Helper.sol\":4318:4334  it.next().toUint */\n      tag_142\n        /* \"contracts/fraud-detector/libs/rlp/Helper.sol\":4318:4336  it.next().toUint() */\n      jump\t// in\n    tag_246:\n        /* \"contracts/fraud-detector/libs/rlp/Helper.sol\":4310:4337  bytes32(it.next().toUint()) */\n      0x00\n      shl\n        /* \"contracts/fraud-detector/libs/rlp/Helper.sol\":4291:4337  transactionsRoot = bytes32(it.next().toUint()) */\n      swap10\n      pop\n        /* \"contracts/fraud-detector/libs/rlp/Helper.sol\":4275:4878  if ( idx == 4 ) transactionsRoot = bytes32(it.next().toUint());... */\n      jump(tag_248)\n    tag_245:\n        /* \"contracts/fraud-detector/libs/rlp/Helper.sol\":4368:4369  5 */\n      0x05\n        /* \"contracts/fraud-detector/libs/rlp/Helper.sol\":4361:4364  idx */\n      dup2\n        /* \"contracts/fraud-detector/libs/rlp/Helper.sol\":4361:4369  idx == 5 */\n      sub\n        /* \"contracts/fraud-detector/libs/rlp/Helper.sol\":4356:4878  if ( idx == 5 ) receiptsRoot     = bytes32(it.next().toUint());... */\n      tag_249\n      jumpi\n        /* \"contracts/fraud-detector/libs/rlp/Helper.sol\":4399:4417  it.next().toUint() */\n      tag_250\n        /* \"contracts/fraud-detector/libs/rlp/Helper.sol\":4399:4408  it.next() */\n      tag_251\n        /* \"contracts/fraud-detector/libs/rlp/Helper.sol\":4399:4401  it */\n      dup4\n        /* \"contracts/fraud-detector/libs/rlp/Helper.sol\":4399:4406  it.next */\n      tag_203\n        /* \"contracts/fraud-detector/libs/rlp/Helper.sol\":4399:4408  it.next() */\n      jump\t// in\n    tag_251:\n        /* \"contracts/fraud-detector/libs/rlp/Helper.sol\":4399:4415  it.next().toUint */\n      tag_142\n        /* \"contracts/fraud-detector/libs/rlp/Helper.sol\":4399:4417  it.next().toUint() */\n      jump\t// in\n    tag_250:\n        /* \"contracts/fraud-detector/libs/rlp/Helper.sol\":4391:4418  bytes32(it.next().toUint()) */\n      0x00\n      shl\n        /* \"contracts/fraud-detector/libs/rlp/Helper.sol\":4372:4418  receiptsRoot     = bytes32(it.next().toUint()) */\n      swap9\n      pop\n        /* \"contracts/fraud-detector/libs/rlp/Helper.sol\":4356:4878  if ( idx == 5 ) receiptsRoot     = bytes32(it.next().toUint());... */\n      jump(tag_252)\n    tag_249:\n        /* \"contracts/fraud-detector/libs/rlp/Helper.sol\":4449:4450  7 */\n      0x07\n        /* \"contracts/fraud-detector/libs/rlp/Helper.sol\":4442:4445  idx */\n      dup2\n        /* \"contracts/fraud-detector/libs/rlp/Helper.sol\":4442:4450  idx == 7 */\n      sub\n        /* \"contracts/fraud-detector/libs/rlp/Helper.sol\":4437:4878  if ( idx == 7 ) difficulty       = it.next().toUint();... */\n      tag_253\n      jumpi\n        /* \"contracts/fraud-detector/libs/rlp/Helper.sol\":4472:4490  it.next().toUint() */\n      tag_254\n        /* \"contracts/fraud-detector/libs/rlp/Helper.sol\":4472:4481  it.next() */\n      tag_255\n        /* \"contracts/fraud-detector/libs/rlp/Helper.sol\":4472:4474  it */\n      dup4\n        /* \"contracts/fraud-detector/libs/rlp/Helper.sol\":4472:4479  it.next */\n      tag_203\n        /* \"contracts/fraud-detector/libs/rlp/Helper.sol\":4472:4481  it.next() */\n      jump\t// in\n    tag_255:\n        /* \"contracts/fraud-detector/libs/rlp/Helper.sol\":4472:4488  it.next().toUint */\n      tag_142\n        /* \"contracts/fraud-detector/libs/rlp/Helper.sol\":4472:4490  it.next().toUint() */\n      jump\t// in\n    tag_254:\n        /* \"contracts/fraud-detector/libs/rlp/Helper.sol\":4453:4490  difficulty       = it.next().toUint() */\n      swap8\n      pop\n        /* \"contracts/fraud-detector/libs/rlp/Helper.sol\":4437:4878  if ( idx == 7 ) difficulty       = it.next().toUint();... */\n      jump(tag_256)\n    tag_253:\n        /* \"contracts/fraud-detector/libs/rlp/Helper.sol\":4521:4522  8 */\n      0x08\n        /* \"contracts/fraud-detector/libs/rlp/Helper.sol\":4514:4517  idx */\n      dup2\n        /* \"contracts/fraud-detector/libs/rlp/Helper.sol\":4514:4522  idx == 8 */\n      sub\n        /* \"contracts/fraud-detector/libs/rlp/Helper.sol\":4509:4878  if ( idx == 8 ) number           = it.next().toUint();... */\n      tag_257\n      jumpi\n        /* \"contracts/fraud-detector/libs/rlp/Helper.sol\":4544:4562  it.next().toUint() */\n      tag_258\n        /* \"contracts/fraud-detector/libs/rlp/Helper.sol\":4544:4553  it.next() */\n      tag_259\n        /* \"contracts/fraud-detector/libs/rlp/Helper.sol\":4544:4546  it */\n      dup4\n        /* \"contracts/fraud-detector/libs/rlp/Helper.sol\":4544:4551  it.next */\n      tag_203\n        /* \"contracts/fraud-detector/libs/rlp/Helper.sol\":4544:4553  it.next() */\n      jump\t// in\n    tag_259:\n        /* \"contracts/fraud-detector/libs/rlp/Helper.sol\":4544:4560  it.next().toUint */\n      tag_142\n        /* \"contracts/fraud-detector/libs/rlp/Helper.sol\":4544:4562  it.next().toUint() */\n      jump\t// in\n    tag_258:\n        /* \"contracts/fraud-detector/libs/rlp/Helper.sol\":4525:4562  number           = it.next().toUint() */\n      swap7\n      pop\n        /* \"contracts/fraud-detector/libs/rlp/Helper.sol\":4509:4878  if ( idx == 8 ) number           = it.next().toUint();... */\n      jump(tag_260)\n    tag_257:\n        /* \"contracts/fraud-detector/libs/rlp/Helper.sol\":4593:4594  9 */\n      0x09\n        /* \"contracts/fraud-detector/libs/rlp/Helper.sol\":4586:4589  idx */\n      dup2\n        /* \"contracts/fraud-detector/libs/rlp/Helper.sol\":4586:4594  idx == 9 */\n      sub\n        /* \"contracts/fraud-detector/libs/rlp/Helper.sol\":4581:4878  if ( idx == 9 ) gasLimit         = it.next().toUint();... */\n      tag_261\n      jumpi\n        /* \"contracts/fraud-detector/libs/rlp/Helper.sol\":4616:4634  it.next().toUint() */\n      tag_262\n        /* \"contracts/fraud-detector/libs/rlp/Helper.sol\":4616:4625  it.next() */\n      tag_263\n        /* \"contracts/fraud-detector/libs/rlp/Helper.sol\":4616:4618  it */\n      dup4\n        /* \"contracts/fraud-detector/libs/rlp/Helper.sol\":4616:4623  it.next */\n      tag_203\n        /* \"contracts/fraud-detector/libs/rlp/Helper.sol\":4616:4625  it.next() */\n      jump\t// in\n    tag_263:\n        /* \"contracts/fraud-detector/libs/rlp/Helper.sol\":4616:4632  it.next().toUint */\n      tag_142\n        /* \"contracts/fraud-detector/libs/rlp/Helper.sol\":4616:4634  it.next().toUint() */\n      jump\t// in\n    tag_262:\n        /* \"contracts/fraud-detector/libs/rlp/Helper.sol\":4597:4634  gasLimit         = it.next().toUint() */\n      swap6\n      pop\n        /* \"contracts/fraud-detector/libs/rlp/Helper.sol\":4581:4878  if ( idx == 9 ) gasLimit         = it.next().toUint();... */\n      jump(tag_264)\n    tag_261:\n        /* \"contracts/fraud-detector/libs/rlp/Helper.sol\":4665:4667  10 */\n      0x0a\n        /* \"contracts/fraud-detector/libs/rlp/Helper.sol\":4658:4661  idx */\n      dup2\n        /* \"contracts/fraud-detector/libs/rlp/Helper.sol\":4658:4667  idx == 10 */\n      sub\n        /* \"contracts/fraud-detector/libs/rlp/Helper.sol\":4653:4878  if ( idx == 10 ) gasUsed         = it.next().toUint();... */\n      tag_265\n      jumpi\n        /* \"contracts/fraud-detector/libs/rlp/Helper.sol\":4688:4706  it.next().toUint() */\n      tag_266\n        /* \"contracts/fraud-detector/libs/rlp/Helper.sol\":4688:4697  it.next() */\n      tag_267\n        /* \"contracts/fraud-detector/libs/rlp/Helper.sol\":4688:4690  it */\n      dup4\n        /* \"contracts/fraud-detector/libs/rlp/Helper.sol\":4688:4695  it.next */\n      tag_203\n        /* \"contracts/fraud-detector/libs/rlp/Helper.sol\":4688:4697  it.next() */\n      jump\t// in\n    tag_267:\n        /* \"contracts/fraud-detector/libs/rlp/Helper.sol\":4688:4704  it.next().toUint */\n      tag_142\n        /* \"contracts/fraud-detector/libs/rlp/Helper.sol\":4688:4706  it.next().toUint() */\n      jump\t// in\n    tag_266:\n        /* \"contracts/fraud-detector/libs/rlp/Helper.sol\":4670:4706  gasUsed         = it.next().toUint() */\n      swap5\n      pop\n        /* \"contracts/fraud-detector/libs/rlp/Helper.sol\":4653:4878  if ( idx == 10 ) gasUsed         = it.next().toUint();... */\n      jump(tag_268)\n    tag_265:\n        /* \"contracts/fraud-detector/libs/rlp/Helper.sol\":4737:4739  11 */\n      0x0b\n        /* \"contracts/fraud-detector/libs/rlp/Helper.sol\":4730:4733  idx */\n      dup2\n        /* \"contracts/fraud-detector/libs/rlp/Helper.sol\":4730:4739  idx == 11 */\n      sub\n        /* \"contracts/fraud-detector/libs/rlp/Helper.sol\":4725:4878  if ( idx == 11 ) timestamp       = it.next().toUint();... */\n      tag_269\n      jumpi\n        /* \"contracts/fraud-detector/libs/rlp/Helper.sol\":4760:4778  it.next().toUint() */\n      tag_270\n        /* \"contracts/fraud-detector/libs/rlp/Helper.sol\":4760:4769  it.next() */\n      tag_271\n        /* \"contracts/fraud-detector/libs/rlp/Helper.sol\":4760:4762  it */\n      dup4\n        /* \"contracts/fraud-detector/libs/rlp/Helper.sol\":4760:4767  it.next */\n      tag_203\n        /* \"contracts/fraud-detector/libs/rlp/Helper.sol\":4760:4769  it.next() */\n      jump\t// in\n    tag_271:\n        /* \"contracts/fraud-detector/libs/rlp/Helper.sol\":4760:4776  it.next().toUint */\n      tag_142\n        /* \"contracts/fraud-detector/libs/rlp/Helper.sol\":4760:4778  it.next().toUint() */\n      jump\t// in\n    tag_270:\n        /* \"contracts/fraud-detector/libs/rlp/Helper.sol\":4742:4778  timestamp       = it.next().toUint() */\n      swap4\n      pop\n        /* \"contracts/fraud-detector/libs/rlp/Helper.sol\":4725:4878  if ( idx == 11 ) timestamp       = it.next().toUint();... */\n      jump(tag_272)\n    tag_269:\n        /* \"contracts/fraud-detector/libs/rlp/Helper.sol\":4809:4811  14 */\n      0x0e\n        /* \"contracts/fraud-detector/libs/rlp/Helper.sol\":4802:4805  idx */\n      dup2\n        /* \"contracts/fraud-detector/libs/rlp/Helper.sol\":4802:4811  idx == 14 */\n      sub\n        /* \"contracts/fraud-detector/libs/rlp/Helper.sol\":4797:4878  if ( idx == 14 ) nonce           = it.next().toUint();... */\n      tag_273\n      jumpi\n        /* \"contracts/fraud-detector/libs/rlp/Helper.sol\":4832:4850  it.next().toUint() */\n      tag_274\n        /* \"contracts/fraud-detector/libs/rlp/Helper.sol\":4832:4841  it.next() */\n      tag_275\n        /* \"contracts/fraud-detector/libs/rlp/Helper.sol\":4832:4834  it */\n      dup4\n        /* \"contracts/fraud-detector/libs/rlp/Helper.sol\":4832:4839  it.next */\n      tag_203\n        /* \"contracts/fraud-detector/libs/rlp/Helper.sol\":4832:4841  it.next() */\n      jump\t// in\n    tag_275:\n        /* \"contracts/fraud-detector/libs/rlp/Helper.sol\":4832:4848  it.next().toUint */\n      tag_142\n        /* \"contracts/fraud-detector/libs/rlp/Helper.sol\":4832:4850  it.next().toUint() */\n      jump\t// in\n    tag_274:\n        /* \"contracts/fraud-detector/libs/rlp/Helper.sol\":4814:4850  nonce           = it.next().toUint() */\n      swap3\n      pop\n        /* \"contracts/fraud-detector/libs/rlp/Helper.sol\":4797:4878  if ( idx == 14 ) nonce           = it.next().toUint();... */\n      jump(tag_276)\n    tag_273:\n        /* \"contracts/fraud-detector/libs/rlp/Helper.sol\":4869:4878  it.next() */\n      tag_277\n        /* \"contracts/fraud-detector/libs/rlp/Helper.sol\":4869:4871  it */\n      dup3\n        /* \"contracts/fraud-detector/libs/rlp/Helper.sol\":4869:4876  it.next */\n      tag_203\n        /* \"contracts/fraud-detector/libs/rlp/Helper.sol\":4869:4878  it.next() */\n      jump\t// in\n    tag_277:\n      pop\n        /* \"contracts/fraud-detector/libs/rlp/Helper.sol\":4797:4878  if ( idx == 14 ) nonce           = it.next().toUint();... */\n    tag_276:\n        /* \"contracts/fraud-detector/libs/rlp/Helper.sol\":4725:4878  if ( idx == 11 ) timestamp       = it.next().toUint();... */\n    tag_272:\n        /* \"contracts/fraud-detector/libs/rlp/Helper.sol\":4653:4878  if ( idx == 10 ) gasUsed         = it.next().toUint();... */\n    tag_268:\n        /* \"contracts/fraud-detector/libs/rlp/Helper.sol\":4581:4878  if ( idx == 9 ) gasLimit         = it.next().toUint();... */\n    tag_264:\n        /* \"contracts/fraud-detector/libs/rlp/Helper.sol\":4509:4878  if ( idx == 8 ) number           = it.next().toUint();... */\n    tag_260:\n        /* \"contracts/fraud-detector/libs/rlp/Helper.sol\":4437:4878  if ( idx == 7 ) difficulty       = it.next().toUint();... */\n    tag_256:\n        /* \"contracts/fraud-detector/libs/rlp/Helper.sol\":4356:4878  if ( idx == 5 ) receiptsRoot     = bytes32(it.next().toUint());... */\n    tag_252:\n        /* \"contracts/fraud-detector/libs/rlp/Helper.sol\":4275:4878  if ( idx == 4 ) transactionsRoot = bytes32(it.next().toUint());... */\n    tag_248:\n        /* \"contracts/fraud-detector/libs/rlp/Helper.sol\":4194:4878  if ( idx == 3 ) stateRoot        = bytes32(it.next().toUint());... */\n    tag_244:\n        /* \"contracts/fraud-detector/libs/rlp/Helper.sol\":4113:4878  if ( idx == 1 ) sha3Uncles       = bytes32(it.next().toUint());... */\n    tag_240:\n        /* \"contracts/fraud-detector/libs/rlp/Helper.sol\":4027:4878  if ( idx == 0 )      parentHash       = bytes32(it.next().toUint());... */\n    tag_236:\n        /* \"contracts/fraud-detector/libs/rlp/Helper.sol\":4893:4898  idx++ */\n      dup1\n      dup1\n      tag_278\n      swap1\n      tag_279\n      jump\t// in\n    tag_278:\n      swap2\n      pop\n      pop\n        /* \"contracts/fraud-detector/libs/rlp/Helper.sol\":3993:4909  while(it.hasNext()) {... */\n      jump(tag_230)\n    tag_231:\n        /* \"contracts/fraud-detector/libs/rlp/Helper.sol\":3891:4915  {... */\n      pop\n      pop\n        /* \"contracts/fraud-detector/libs/rlp/Helper.sol\":3612:4915  function toBlockHeader(bytes memory rlpHeader) public pure returns (... */\n      swap2\n      swap4\n      swap6\n      swap8\n      swap10\n      swap12\n      swap1\n      swap3\n      swap5\n      swap7\n      swap9\n      swap11\n      pop\n      jump\t// out\n        /* \"contracts/fraud-detector/libs/rlp/Helper.sol\":1961:2134  function toBytes(bytes memory item) public pure returns (bytes memory) {... */\n    tag_111:\n        /* \"contracts/fraud-detector/libs/rlp/Helper.sol\":2018:2030  bytes memory */\n      0x60\n        /* \"contracts/fraud-detector/libs/rlp/Helper.sol\":2042:2074  RLPReader.RLPItem memory rlpItem */\n      0x00\n        /* \"contracts/fraud-detector/libs/rlp/Helper.sol\":2077:2093  item.toRlpItem() */\n      tag_281\n        /* \"contracts/fraud-detector/libs/rlp/Helper.sol\":2077:2081  item */\n      dup4\n        /* \"contracts/fraud-detector/libs/rlp/Helper.sol\":2077:2091  item.toRlpItem */\n      tag_124\n        /* \"contracts/fraud-detector/libs/rlp/Helper.sol\":2077:2093  item.toRlpItem() */\n      jump\t// in\n    tag_281:\n        /* \"contracts/fraud-detector/libs/rlp/Helper.sol\":2042:2093  RLPReader.RLPItem memory rlpItem = item.toRlpItem() */\n      swap1\n      pop\n        /* \"contracts/fraud-detector/libs/rlp/Helper.sol\":2110:2127  rlpItem.toBytes() */\n      tag_282\n        /* \"contracts/fraud-detector/libs/rlp/Helper.sol\":2110:2117  rlpItem */\n      dup2\n        /* \"contracts/fraud-detector/libs/rlp/Helper.sol\":2110:2125  rlpItem.toBytes */\n      tag_173\n        /* \"contracts/fraud-detector/libs/rlp/Helper.sol\":2110:2127  rlpItem.toBytes() */\n      jump\t// in\n    tag_282:\n        /* \"contracts/fraud-detector/libs/rlp/Helper.sol\":2103:2127  return rlpItem.toBytes() */\n      swap2\n      pop\n      pop\n        /* \"contracts/fraud-detector/libs/rlp/Helper.sol\":1961:2134  function toBytes(bytes memory item) public pure returns (bytes memory) {... */\n      swap2\n      swap1\n      pop\n      jump\t// out\n        /* \"contracts/fraud-detector/libs/rlp/Helper.sol\":1584:1770  function payloadKeccak256(bytes memory item) public pure returns (bytes32) {... */\n    tag_115:\n        /* \"contracts/fraud-detector/libs/rlp/Helper.sol\":1650:1657  bytes32 */\n      0x00\n        /* \"contracts/fraud-detector/libs/rlp/Helper.sol\":1669:1701  RLPReader.RLPItem memory rlpItem */\n      dup1\n        /* \"contracts/fraud-detector/libs/rlp/Helper.sol\":1704:1720  item.toRlpItem() */\n      tag_284\n        /* \"contracts/fraud-detector/libs/rlp/Helper.sol\":1704:1708  item */\n      dup4\n        /* \"contracts/fraud-detector/libs/rlp/Helper.sol\":1704:1718  item.toRlpItem */\n      tag_124\n        /* \"contracts/fraud-detector/libs/rlp/Helper.sol\":1704:1720  item.toRlpItem() */\n      jump\t// in\n    tag_284:\n        /* \"contracts/fraud-detector/libs/rlp/Helper.sol\":1669:1720  RLPReader.RLPItem memory rlpItem = item.toRlpItem() */\n      swap1\n      pop\n        /* \"contracts/fraud-detector/libs/rlp/Helper.sol\":1737:1763  rlpItem.payloadKeccak256() */\n      tag_285\n        /* \"contracts/fraud-detector/libs/rlp/Helper.sol\":1737:1744  rlpItem */\n      dup2\n        /* \"contracts/fraud-detector/libs/rlp/Helper.sol\":1737:1761  rlpItem.payloadKeccak256 */\n      tag_187\n        /* \"contracts/fraud-detector/libs/rlp/Helper.sol\":1737:1763  rlpItem.payloadKeccak256() */\n      jump\t// in\n    tag_285:\n        /* \"contracts/fraud-detector/libs/rlp/Helper.sol\":1730:1763  return rlpItem.payloadKeccak256() */\n      swap2\n      pop\n      pop\n        /* \"contracts/fraud-detector/libs/rlp/Helper.sol\":1584:1770  function payloadKeccak256(bytes memory item) public pure returns (bytes32) {... */\n      swap2\n      swap1\n      pop\n      jump\t// out\n        /* \"contracts/fraud-detector/libs/rlp/Helper.sol\":1390:1578  function rlpBytesKeccak256(bytes memory item) public pure returns (bytes32) {... */\n    tag_120:\n        /* \"contracts/fraud-detector/libs/rlp/Helper.sol\":1457:1464  bytes32 */\n      0x00\n        /* \"contracts/fraud-detector/libs/rlp/Helper.sol\":1476:1508  RLPReader.RLPItem memory rlpItem */\n      dup1\n        /* \"contracts/fraud-detector/libs/rlp/Helper.sol\":1511:1527  item.toRlpItem() */\n      tag_287\n        /* \"contracts/fraud-detector/libs/rlp/Helper.sol\":1511:1515  item */\n      dup4\n        /* \"contracts/fraud-detector/libs/rlp/Helper.sol\":1511:1525  item.toRlpItem */\n      tag_124\n        /* \"contracts/fraud-detector/libs/rlp/Helper.sol\":1511:1527  item.toRlpItem() */\n      jump\t// in\n    tag_287:\n        /* \"contracts/fraud-detector/libs/rlp/Helper.sol\":1476:1527  RLPReader.RLPItem memory rlpItem = item.toRlpItem() */\n      swap1\n      pop\n        /* \"contracts/fraud-detector/libs/rlp/Helper.sol\":1544:1571  rlpItem.rlpBytesKeccak256() */\n      tag_288\n        /* \"contracts/fraud-detector/libs/rlp/Helper.sol\":1544:1551  rlpItem */\n      dup2\n        /* \"contracts/fraud-detector/libs/rlp/Helper.sol\":1544:1569  rlpItem.rlpBytesKeccak256 */\n      tag_289\n        /* \"contracts/fraud-detector/libs/rlp/Helper.sol\":1544:1571  rlpItem.rlpBytesKeccak256() */\n      jump\t// in\n    tag_288:\n        /* \"contracts/fraud-detector/libs/rlp/Helper.sol\":1537:1571  return rlpItem.rlpBytesKeccak256() */\n      swap2\n      pop\n      pop\n        /* \"contracts/fraud-detector/libs/rlp/Helper.sol\":1390:1578  function rlpBytesKeccak256(bytes memory item) public pure returns (bytes32) {... */\n      swap2\n      swap1\n      pop\n      jump\t// out\n        /* \"contracts/fraud-detector/libs/rlp/RLPReader.sol\":1513:1734  function toRlpItem(bytes memory item) internal pure returns (RLPItem memory) {... */\n    tag_124:\n        /* \"contracts/fraud-detector/libs/rlp/RLPReader.sol\":1574:1588  RLPItem memory */\n      tag_290\n      tag_291\n      jump\t// in\n    tag_290:\n        /* \"contracts/fraud-detector/libs/rlp/RLPReader.sol\":1600:1614  uint256 memPtr */\n      0x00\n        /* \"contracts/fraud-detector/libs/rlp/RLPReader.sol\":1667:1671  0x20 */\n      0x20\n        /* \"contracts/fraud-detector/libs/rlp/RLPReader.sol\":1661:1665  item */\n      dup4\n        /* \"contracts/fraud-detector/libs/rlp/RLPReader.sol\":1657:1672  add(item, 0x20) */\n      add\n        /* \"contracts/fraud-detector/libs/rlp/RLPReader.sol\":1647:1672  memPtr := add(item, 0x20) */\n      swap1\n      pop\n        /* \"contracts/fraud-detector/libs/rlp/RLPReader.sol\":1699:1727  RLPItem(item.length, memPtr) */\n      mload(0x40)\n      dup1\n      0x40\n      add\n      0x40\n      mstore\n      dup1\n        /* \"contracts/fraud-detector/libs/rlp/RLPReader.sol\":1707:1711  item */\n      dup5\n        /* \"contracts/fraud-detector/libs/rlp/RLPReader.sol\":1707:1718  item.length */\n      mload\n        /* \"contracts/fraud-detector/libs/rlp/RLPReader.sol\":1699:1727  RLPItem(item.length, memPtr) */\n      dup2\n      mstore\n      0x20\n      add\n        /* \"contracts/fraud-detector/libs/rlp/RLPReader.sol\":1720:1726  memPtr */\n      dup3\n        /* \"contracts/fraud-detector/libs/rlp/RLPReader.sol\":1699:1727  RLPItem(item.length, memPtr) */\n      dup2\n      mstore\n      pop\n        /* \"contracts/fraud-detector/libs/rlp/RLPReader.sol\":1692:1727  return RLPItem(item.length, memPtr) */\n      swap2\n      pop\n      pop\n        /* \"contracts/fraud-detector/libs/rlp/RLPReader.sol\":1513:1734  function toRlpItem(bytes memory item) internal pure returns (RLPItem memory) {... */\n      swap2\n      swap1\n      pop\n      jump\t// out\n        /* \"contracts/fraud-detector/libs/rlp/RLPReader.sol\":5250:5837  function toBoolean(RLPItem memory item) internal pure returns (bool) {... */\n    tag_126:\n        /* \"contracts/fraud-detector/libs/rlp/RLPReader.sol\":5313:5317  bool */\n      0x00\n        /* \"contracts/fraud-detector/libs/rlp/RLPReader.sol\":5349:5350  1 */\n      0x01\n        /* \"contracts/fraud-detector/libs/rlp/RLPReader.sol\":5337:5341  item */\n      dup3\n        /* \"contracts/fraud-detector/libs/rlp/RLPReader.sol\":5337:5345  item.len */\n      0x00\n      add\n      mload\n        /* \"contracts/fraud-detector/libs/rlp/RLPReader.sol\":5337:5350  item.len == 1 */\n      eq\n        /* \"contracts/fraud-detector/libs/rlp/RLPReader.sol\":5329:5351  require(item.len == 1) */\n      tag_294\n      jumpi\n      0x00\n      dup1\n      revert\n    tag_294:\n        /* \"contracts/fraud-detector/libs/rlp/RLPReader.sol\":5361:5375  uint256 result */\n      0x00\n        /* \"contracts/fraud-detector/libs/rlp/RLPReader.sol\":5385:5399  uint256 memPtr */\n      dup1\n        /* \"contracts/fraud-detector/libs/rlp/RLPReader.sol\":5402:5406  item */\n      dup4\n        /* \"contracts/fraud-detector/libs/rlp/RLPReader.sol\":5402:5413  item.memPtr */\n      0x20\n      add\n      mload\n        /* \"contracts/fraud-detector/libs/rlp/RLPReader.sol\":5385:5413  uint256 memPtr = item.memPtr */\n      swap1\n      pop\n        /* \"contracts/fraud-detector/libs/rlp/RLPReader.sol\":5470:5476  memPtr */\n      dup1\n        /* \"contracts/fraud-detector/libs/rlp/RLPReader.sol\":5464:5477  mload(memPtr) */\n      mload\n        /* \"contracts/fraud-detector/libs/rlp/RLPReader.sol\":5461:5462  0 */\n      0x00\n        /* \"contracts/fraud-detector/libs/rlp/RLPReader.sol\":5456:5478  byte(0, mload(memPtr)) */\n      byte\n        /* \"contracts/fraud-detector/libs/rlp/RLPReader.sol\":5446:5478  result := byte(0, mload(memPtr)) */\n      swap2\n      pop\n        /* \"contracts/fraud-detector/libs/rlp/RLPReader.sol\":5717:5718  0 */\n      0x00\n        /* \"contracts/fraud-detector/libs/rlp/RLPReader.sol\":5707:5713  result */\n      dup3\n        /* \"contracts/fraud-detector/libs/rlp/RLPReader.sol\":5707:5718  result == 0 */\n      eq\n        /* \"contracts/fraud-detector/libs/rlp/RLPReader.sol\":5707:5750  result == 0 || result == STRING_SHORT_START */\n      dup1\n      tag_295\n      jumpi\n      pop\n        /* \"contracts/fraud-detector/libs/rlp/RLPReader.sol\":239:243  0x80 */\n      0x80\n        /* \"contracts/fraud-detector/libs/rlp/RLPReader.sol\":5722:5750  result == STRING_SHORT_START */\n      0xff\n      and\n        /* \"contracts/fraud-detector/libs/rlp/RLPReader.sol\":5722:5728  result */\n      dup3\n        /* \"contracts/fraud-detector/libs/rlp/RLPReader.sol\":5722:5750  result == STRING_SHORT_START */\n      eq\n        /* \"contracts/fraud-detector/libs/rlp/RLPReader.sol\":5707:5750  result == 0 || result == STRING_SHORT_START */\n    tag_295:\n        /* \"contracts/fraud-detector/libs/rlp/RLPReader.sol\":5703:5831  if (result == 0 || result == STRING_SHORT_START) {... */\n      iszero\n      tag_296\n      jumpi\n        /* \"contracts/fraud-detector/libs/rlp/RLPReader.sol\":5773:5778  false */\n      0x00\n        /* \"contracts/fraud-detector/libs/rlp/RLPReader.sol\":5766:5778  return false */\n      swap3\n      pop\n      pop\n      pop\n      jump(tag_293)\n        /* \"contracts/fraud-detector/libs/rlp/RLPReader.sol\":5703:5831  if (result == 0 || result == STRING_SHORT_START) {... */\n    tag_296:\n        /* \"contracts/fraud-detector/libs/rlp/RLPReader.sol\":5816:5820  true */\n      0x01\n        /* \"contracts/fraud-detector/libs/rlp/RLPReader.sol\":5809:5820  return true */\n      swap3\n      pop\n      pop\n      pop\n        /* \"contracts/fraud-detector/libs/rlp/RLPReader.sol\":5250:5837  function toBoolean(RLPItem memory item) internal pure returns (bool) {... */\n    tag_293:\n      swap2\n      swap1\n      pop\n      jump\t// out\n        /* \"contracts/fraud-detector/libs/rlp/RLPReader.sol\":2946:3465  function toList(RLPItem memory item) internal pure returns (RLPItem[] memory) {... */\n    tag_130:\n        /* \"contracts/fraud-detector/libs/rlp/RLPReader.sol\":3006:3022  RLPItem[] memory */\n      0x60\n        /* \"contracts/fraud-detector/libs/rlp/RLPReader.sol\":3042:3054  isList(item) */\n      tag_299\n        /* \"contracts/fraud-detector/libs/rlp/RLPReader.sol\":3049:3053  item */\n      dup3\n        /* \"contracts/fraud-detector/libs/rlp/RLPReader.sol\":3042:3048  isList */\n      tag_158\n        /* \"contracts/fraud-detector/libs/rlp/RLPReader.sol\":3042:3054  isList(item) */\n      jump\t// in\n    tag_299:\n        /* \"contracts/fraud-detector/libs/rlp/RLPReader.sol\":3034:3055  require(isList(item)) */\n      tag_300\n      jumpi\n      0x00\n      dup1\n      revert\n    tag_300:\n        /* \"contracts/fraud-detector/libs/rlp/RLPReader.sol\":3066:3079  uint256 items */\n      0x00\n        /* \"contracts/fraud-detector/libs/rlp/RLPReader.sol\":3082:3096  numItems(item) */\n      tag_301\n        /* \"contracts/fraud-detector/libs/rlp/RLPReader.sol\":3091:3095  item */\n      dup4\n        /* \"contracts/fraud-detector/libs/rlp/RLPReader.sol\":3082:3090  numItems */\n      tag_302\n        /* \"contracts/fraud-detector/libs/rlp/RLPReader.sol\":3082:3096  numItems(item) */\n      jump\t// in\n    tag_301:\n        /* \"contracts/fraud-detector/libs/rlp/RLPReader.sol\":3066:3096  uint256 items = numItems(item) */\n      swap1\n      pop\n        /* \"contracts/fraud-detector/libs/rlp/RLPReader.sol\":3106:3129  RLPItem[] memory result */\n      0x00\n        /* \"contracts/fraud-detector/libs/rlp/RLPReader.sol\":3146:3151  items */\n      dup2\n        /* \"contracts/fraud-detector/libs/rlp/RLPReader.sol\":3132:3152  new RLPItem[](items) */\n      0xffffffffffffffff\n      dup2\n      gt\n      iszero\n      tag_303\n      jumpi\n      tag_304\n      tag_305\n      jump\t// in\n    tag_304:\n    tag_303:\n      mload(0x40)\n      swap1\n      dup1\n      dup3\n      mstore\n      dup1\n      0x20\n      mul\n      0x20\n      add\n      dup3\n      add\n      0x40\n      mstore\n      dup1\n      iszero\n      tag_306\n      jumpi\n      dup2\n      0x20\n      add\n    tag_307:\n      tag_308\n      tag_291\n      jump\t// in\n    tag_308:\n      dup2\n      mstore\n      0x20\n      add\n      swap1\n      0x01\n      swap1\n      sub\n      swap1\n      dup2\n      tag_307\n      jumpi\n      swap1\n      pop\n    tag_306:\n      pop\n        /* \"contracts/fraud-detector/libs/rlp/RLPReader.sol\":3106:3152  RLPItem[] memory result = new RLPItem[](items) */\n      swap1\n      pop\n        /* \"contracts/fraud-detector/libs/rlp/RLPReader.sol\":3163:3177  uint256 memPtr */\n      0x00\n        /* \"contracts/fraud-detector/libs/rlp/RLPReader.sol\":3194:3221  _payloadOffset(item.memPtr) */\n      tag_309\n        /* \"contracts/fraud-detector/libs/rlp/RLPReader.sol\":3209:3213  item */\n      dup6\n        /* \"contracts/fraud-detector/libs/rlp/RLPReader.sol\":3209:3220  item.memPtr */\n      0x20\n      add\n      mload\n        /* \"contracts/fraud-detector/libs/rlp/RLPReader.sol\":3194:3208  _payloadOffset */\n      tag_310\n        /* \"contracts/fraud-detector/libs/rlp/RLPReader.sol\":3194:3221  _payloadOffset(item.memPtr) */\n      jump\t// in\n    tag_309:\n        /* \"contracts/fraud-detector/libs/rlp/RLPReader.sol\":3180:3184  item */\n      dup6\n        /* \"contracts/fraud-detector/libs/rlp/RLPReader.sol\":3180:3191  item.memPtr */\n      0x20\n      add\n      mload\n        /* \"contracts/fraud-detector/libs/rlp/RLPReader.sol\":3180:3221  item.memPtr + _payloadOffset(item.memPtr) */\n      tag_311\n      swap2\n      swap1\n      tag_312\n      jump\t// in\n    tag_311:\n        /* \"contracts/fraud-detector/libs/rlp/RLPReader.sol\":3163:3221  uint256 memPtr = item.memPtr + _payloadOffset(item.memPtr) */\n      swap1\n      pop\n        /* \"contracts/fraud-detector/libs/rlp/RLPReader.sol\":3231:3246  uint256 dataLen */\n      0x00\n        /* \"contracts/fraud-detector/libs/rlp/RLPReader.sol\":3261:3270  uint256 i */\n      dup1\n        /* \"contracts/fraud-detector/libs/rlp/RLPReader.sol\":3273:3274  0 */\n      0x00\n        /* \"contracts/fraud-detector/libs/rlp/RLPReader.sol\":3261:3274  uint256 i = 0 */\n      swap1\n      pop\n        /* \"contracts/fraud-detector/libs/rlp/RLPReader.sol\":3256:3435  for (uint256 i = 0; i < items; i++) {... */\n    tag_313:\n        /* \"contracts/fraud-detector/libs/rlp/RLPReader.sol\":3280:3285  items */\n      dup5\n        /* \"contracts/fraud-detector/libs/rlp/RLPReader.sol\":3276:3277  i */\n      dup2\n        /* \"contracts/fraud-detector/libs/rlp/RLPReader.sol\":3276:3285  i < items */\n      lt\n        /* \"contracts/fraud-detector/libs/rlp/RLPReader.sol\":3256:3435  for (uint256 i = 0; i < items; i++) {... */\n      iszero\n      tag_314\n      jumpi\n        /* \"contracts/fraud-detector/libs/rlp/RLPReader.sol\":3316:3335  _itemLength(memPtr) */\n      tag_316\n        /* \"contracts/fraud-detector/libs/rlp/RLPReader.sol\":3328:3334  memPtr */\n      dup4\n        /* \"contracts/fraud-detector/libs/rlp/RLPReader.sol\":3316:3327  _itemLength */\n      tag_317\n        /* \"contracts/fraud-detector/libs/rlp/RLPReader.sol\":3316:3335  _itemLength(memPtr) */\n      jump\t// in\n    tag_316:\n        /* \"contracts/fraud-detector/libs/rlp/RLPReader.sol\":3306:3335  dataLen = _itemLength(memPtr) */\n      swap2\n      pop\n        /* \"contracts/fraud-detector/libs/rlp/RLPReader.sol\":3361:3385  RLPItem(dataLen, memPtr) */\n      mload(0x40)\n      dup1\n      0x40\n      add\n      0x40\n      mstore\n      dup1\n        /* \"contracts/fraud-detector/libs/rlp/RLPReader.sol\":3369:3376  dataLen */\n      dup4\n        /* \"contracts/fraud-detector/libs/rlp/RLPReader.sol\":3361:3385  RLPItem(dataLen, memPtr) */\n      dup2\n      mstore\n      0x20\n      add\n        /* \"contracts/fraud-detector/libs/rlp/RLPReader.sol\":3378:3384  memPtr */\n      dup5\n        /* \"contracts/fraud-detector/libs/rlp/RLPReader.sol\":3361:3385  RLPItem(dataLen, memPtr) */\n      dup2\n      mstore\n      pop\n        /* \"contracts/fraud-detector/libs/rlp/RLPReader.sol\":3349:3355  result */\n      dup5\n        /* \"contracts/fraud-detector/libs/rlp/RLPReader.sol\":3356:3357  i */\n      dup3\n        /* \"contracts/fraud-detector/libs/rlp/RLPReader.sol\":3349:3358  result[i] */\n      dup2\n      mload\n      dup2\n      lt\n      tag_318\n      jumpi\n      tag_319\n      tag_134\n      jump\t// in\n    tag_319:\n    tag_318:\n      0x20\n      mul\n      0x20\n      add\n      add\n        /* \"contracts/fraud-detector/libs/rlp/RLPReader.sol\":3349:3385  result[i] = RLPItem(dataLen, memPtr) */\n      dup2\n      swap1\n      mstore\n      pop\n        /* \"contracts/fraud-detector/libs/rlp/RLPReader.sol\":3417:3424  dataLen */\n      dup2\n        /* \"contracts/fraud-detector/libs/rlp/RLPReader.sol\":3408:3414  memPtr */\n      dup4\n        /* \"contracts/fraud-detector/libs/rlp/RLPReader.sol\":3408:3424  memPtr + dataLen */\n      tag_320\n      swap2\n      swap1\n      tag_312\n      jump\t// in\n    tag_320:\n        /* \"contracts/fraud-detector/libs/rlp/RLPReader.sol\":3399:3424  memPtr = memPtr + dataLen */\n      swap3\n      pop\n        /* \"contracts/fraud-detector/libs/rlp/RLPReader.sol\":3287:3290  i++ */\n      dup1\n      dup1\n      0x01\n      add\n      swap2\n      pop\n      pop\n        /* \"contracts/fraud-detector/libs/rlp/RLPReader.sol\":3256:3435  for (uint256 i = 0; i < items; i++) {... */\n      jump(tag_313)\n    tag_314:\n      pop\n        /* \"contracts/fraud-detector/libs/rlp/RLPReader.sol\":3452:3458  result */\n      dup3\n        /* \"contracts/fraud-detector/libs/rlp/RLPReader.sol\":3445:3458  return result */\n      swap5\n      pop\n      pop\n      pop\n      pop\n      pop\n        /* \"contracts/fraud-detector/libs/rlp/RLPReader.sol\":2946:3465  function toList(RLPItem memory item) internal pure returns (RLPItem[] memory) {... */\n      swap2\n      swap1\n      pop\n      jump\t// out\n        /* \"contracts/fraud-detector/libs/rlp/RLPReader.sol\":5843:6043  function toAddress(RLPItem memory item) internal pure returns (address) {... */\n    tag_135:\n        /* \"contracts/fraud-detector/libs/rlp/RLPReader.sol\":5906:5913  address */\n      0x00\n        /* \"contracts/fraud-detector/libs/rlp/RLPReader.sol\":5985:5987  21 */\n      0x15\n        /* \"contracts/fraud-detector/libs/rlp/RLPReader.sol\":5973:5977  item */\n      dup3\n        /* \"contracts/fraud-detector/libs/rlp/RLPReader.sol\":5973:5981  item.len */\n      0x00\n      add\n      mload\n        /* \"contracts/fraud-detector/libs/rlp/RLPReader.sol\":5973:5987  item.len == 21 */\n      eq\n        /* \"contracts/fraud-detector/libs/rlp/RLPReader.sol\":5965:5988  require(item.len == 21) */\n      tag_322\n      jumpi\n      0x00\n      dup1\n      revert\n    tag_322:\n        /* \"contracts/fraud-detector/libs/rlp/RLPReader.sol\":6022:6034  toUint(item) */\n      tag_323\n        /* \"contracts/fraud-detector/libs/rlp/RLPReader.sol\":6029:6033  item */\n      dup3\n        /* \"contracts/fraud-detector/libs/rlp/RLPReader.sol\":6022:6028  toUint */\n      tag_142\n        /* \"contracts/fraud-detector/libs/rlp/RLPReader.sol\":6022:6034  toUint(item) */\n      jump\t// in\n    tag_323:\n        /* \"contracts/fraud-detector/libs/rlp/RLPReader.sol\":5999:6036  return address(uint160(toUint(item))) */\n      swap1\n      pop\n        /* \"contracts/fraud-detector/libs/rlp/RLPReader.sol\":5843:6043  function toAddress(RLPItem memory item) internal pure returns (address) {... */\n      swap2\n      swap1\n      pop\n      jump\t// out\n        /* \"contracts/fraud-detector/libs/rlp/RLPReader.sol\":6049:6516  function toUint(RLPItem memory item) internal pure returns (uint256) {... */\n    tag_142:\n        /* \"contracts/fraud-detector/libs/rlp/RLPReader.sol\":6109:6116  uint256 */\n      0x00\n        /* \"contracts/fraud-detector/libs/rlp/RLPReader.sol\":6147:6148  0 */\n      dup1\n        /* \"contracts/fraud-detector/libs/rlp/RLPReader.sol\":6136:6140  item */\n      dup3\n        /* \"contracts/fraud-detector/libs/rlp/RLPReader.sol\":6136:6144  item.len */\n      0x00\n      add\n      mload\n        /* \"contracts/fraud-detector/libs/rlp/RLPReader.sol\":6136:6148  item.len > 0 */\n      gt\n        /* \"contracts/fraud-detector/libs/rlp/RLPReader.sol\":6136:6166  item.len > 0 && item.len <= 33 */\n      dup1\n      iszero\n      tag_325\n      jumpi\n      pop\n        /* \"contracts/fraud-detector/libs/rlp/RLPReader.sol\":6164:6166  33 */\n      0x21\n        /* \"contracts/fraud-detector/libs/rlp/RLPReader.sol\":6152:6156  item */\n      dup3\n        /* \"contracts/fraud-detector/libs/rlp/RLPReader.sol\":6152:6160  item.len */\n      0x00\n      add\n      mload\n        /* \"contracts/fraud-detector/libs/rlp/RLPReader.sol\":6152:6166  item.len <= 33 */\n      gt\n      iszero\n        /* \"contracts/fraud-detector/libs/rlp/RLPReader.sol\":6136:6166  item.len > 0 && item.len <= 33 */\n    tag_325:\n        /* \"contracts/fraud-detector/libs/rlp/RLPReader.sol\":6128:6167  require(item.len > 0 && item.len <= 33) */\n      tag_326\n      jumpi\n      0x00\n      dup1\n      revert\n    tag_326:\n        /* \"contracts/fraud-detector/libs/rlp/RLPReader.sol\":6179:6193  uint256 memPtr */\n      0x00\n        /* \"contracts/fraud-detector/libs/rlp/RLPReader.sol\":6195:6206  uint256 len */\n      dup1\n        /* \"contracts/fraud-detector/libs/rlp/RLPReader.sol\":6210:6231  payloadLocation(item) */\n      tag_327\n        /* \"contracts/fraud-detector/libs/rlp/RLPReader.sol\":6226:6230  item */\n      dup5\n        /* \"contracts/fraud-detector/libs/rlp/RLPReader.sol\":6210:6225  payloadLocation */\n      tag_177\n        /* \"contracts/fraud-detector/libs/rlp/RLPReader.sol\":6210:6231  payloadLocation(item) */\n      jump\t// in\n    tag_327:\n        /* \"contracts/fraud-detector/libs/rlp/RLPReader.sol\":6178:6231  (uint256 memPtr, uint256 len) = payloadLocation(item) */\n      swap2\n      pop\n      swap2\n      pop\n        /* \"contracts/fraud-detector/libs/rlp/RLPReader.sol\":6242:6256  uint256 result */\n      0x00\n        /* \"contracts/fraud-detector/libs/rlp/RLPReader.sol\":6305:6311  memPtr */\n      dup3\n        /* \"contracts/fraud-detector/libs/rlp/RLPReader.sol\":6299:6312  mload(memPtr) */\n      mload\n        /* \"contracts/fraud-detector/libs/rlp/RLPReader.sol\":6289:6312  result := mload(memPtr) */\n      swap1\n      pop\n        /* \"contracts/fraud-detector/libs/rlp/RLPReader.sol\":6395:6397  32 */\n      0x20\n        /* \"contracts/fraud-detector/libs/rlp/RLPReader.sol\":6390:6393  len */\n      dup3\n        /* \"contracts/fraud-detector/libs/rlp/RLPReader.sol\":6387:6398  lt(len, 32) */\n      lt\n        /* \"contracts/fraud-detector/libs/rlp/RLPReader.sol\":6384:6476  if lt(len, 32) {... */\n      iszero\n      tag_328\n      jumpi\n        /* \"contracts/fraud-detector/libs/rlp/RLPReader.sol\":6456:6459  len */\n      dup2\n        /* \"contracts/fraud-detector/libs/rlp/RLPReader.sol\":6452:6454  32 */\n      0x20\n        /* \"contracts/fraud-detector/libs/rlp/RLPReader.sol\":6448:6460  sub(32, len) */\n      sub\n        /* \"contracts/fraud-detector/libs/rlp/RLPReader.sol\":6443:6446  256 */\n      0x0100\n        /* \"contracts/fraud-detector/libs/rlp/RLPReader.sol\":6439:6461  exp(256, sub(32, len)) */\n      exp\n        /* \"contracts/fraud-detector/libs/rlp/RLPReader.sol\":6431:6437  result */\n      dup2\n        /* \"contracts/fraud-detector/libs/rlp/RLPReader.sol\":6427:6462  div(result, exp(256, sub(32, len))) */\n      div\n        /* \"contracts/fraud-detector/libs/rlp/RLPReader.sol\":6417:6462  result := div(result, exp(256, sub(32, len))) */\n      swap1\n      pop\n        /* \"contracts/fraud-detector/libs/rlp/RLPReader.sol\":6384:6476  if lt(len, 32) {... */\n    tag_328:\n        /* \"contracts/fraud-detector/libs/rlp/RLPReader.sol\":6503:6509  result */\n      dup1\n        /* \"contracts/fraud-detector/libs/rlp/RLPReader.sol\":6496:6509  return result */\n      swap4\n      pop\n      pop\n      pop\n      pop\n        /* \"contracts/fraud-detector/libs/rlp/RLPReader.sol\":6049:6516  function toUint(RLPItem memory item) internal pure returns (uint256) {... */\n      swap2\n      swap1\n      pop\n      jump\t// out\n        /* \"contracts/fraud-detector/libs/rlp/RLPReader.sol\":3569:3890  function isList(RLPItem memory item) internal pure returns (bool) {... */\n    tag_158:\n        /* \"contracts/fraud-detector/libs/rlp/RLPReader.sol\":3629:3633  bool */\n      0x00\n        /* \"contracts/fraud-detector/libs/rlp/RLPReader.sol\":3661:3662  0 */\n      dup1\n        /* \"contracts/fraud-detector/libs/rlp/RLPReader.sol\":3649:3653  item */\n      dup3\n        /* \"contracts/fraud-detector/libs/rlp/RLPReader.sol\":3649:3657  item.len */\n      0x00\n      add\n      mload\n        /* \"contracts/fraud-detector/libs/rlp/RLPReader.sol\":3649:3662  item.len == 0 */\n      sub\n        /* \"contracts/fraud-detector/libs/rlp/RLPReader.sol\":3645:3676  if (item.len == 0) return false */\n      tag_330\n      jumpi\n        /* \"contracts/fraud-detector/libs/rlp/RLPReader.sol\":3671:3676  false */\n      0x00\n        /* \"contracts/fraud-detector/libs/rlp/RLPReader.sol\":3664:3676  return false */\n      swap1\n      pop\n      jump(tag_329)\n        /* \"contracts/fraud-detector/libs/rlp/RLPReader.sol\":3645:3676  if (item.len == 0) return false */\n    tag_330:\n        /* \"contracts/fraud-detector/libs/rlp/RLPReader.sol\":3687:3698  uint8 byte0 */\n      0x00\n        /* \"contracts/fraud-detector/libs/rlp/RLPReader.sol\":3708:3722  uint256 memPtr */\n      dup1\n        /* \"contracts/fraud-detector/libs/rlp/RLPReader.sol\":3725:3729  item */\n      dup4\n        /* \"contracts/fraud-detector/libs/rlp/RLPReader.sol\":3725:3736  item.memPtr */\n      0x20\n      add\n      mload\n        /* \"contracts/fraud-detector/libs/rlp/RLPReader.sol\":3708:3736  uint256 memPtr = item.memPtr */\n      swap1\n      pop\n        /* \"contracts/fraud-detector/libs/rlp/RLPReader.sol\":3792:3798  memPtr */\n      dup1\n        /* \"contracts/fraud-detector/libs/rlp/RLPReader.sol\":3786:3799  mload(memPtr) */\n      mload\n        /* \"contracts/fraud-detector/libs/rlp/RLPReader.sol\":3783:3784  0 */\n      0x00\n        /* \"contracts/fraud-detector/libs/rlp/RLPReader.sol\":3778:3800  byte(0, mload(memPtr)) */\n      byte\n        /* \"contracts/fraud-detector/libs/rlp/RLPReader.sol\":3769:3800  byte0 := byte(0, mload(memPtr)) */\n      swap2\n      pop\n        /* \"contracts/fraud-detector/libs/rlp/RLPReader.sol\":328:332  0xc0 */\n      0xc0\n        /* \"contracts/fraud-detector/libs/rlp/RLPReader.sol\":3824:3848  byte0 < LIST_SHORT_START */\n      0xff\n      and\n        /* \"contracts/fraud-detector/libs/rlp/RLPReader.sol\":3824:3829  byte0 */\n      dup3\n        /* \"contracts/fraud-detector/libs/rlp/RLPReader.sol\":3824:3848  byte0 < LIST_SHORT_START */\n      0xff\n      and\n      lt\n        /* \"contracts/fraud-detector/libs/rlp/RLPReader.sol\":3820:3862  if (byte0 < LIST_SHORT_START) return false */\n      iszero\n      tag_331\n      jumpi\n        /* \"contracts/fraud-detector/libs/rlp/RLPReader.sol\":3857:3862  false */\n      0x00\n        /* \"contracts/fraud-detector/libs/rlp/RLPReader.sol\":3850:3862  return false */\n      swap3\n      pop\n      pop\n      pop\n      jump(tag_329)\n        /* \"contracts/fraud-detector/libs/rlp/RLPReader.sol\":3820:3862  if (byte0 < LIST_SHORT_START) return false */\n    tag_331:\n        /* \"contracts/fraud-detector/libs/rlp/RLPReader.sol\":3879:3883  true */\n      0x01\n        /* \"contracts/fraud-detector/libs/rlp/RLPReader.sol\":3872:3883  return true */\n      swap3\n      pop\n      pop\n      pop\n        /* \"contracts/fraud-detector/libs/rlp/RLPReader.sol\":3569:3890  function isList(RLPItem memory item) internal pure returns (bool) {... */\n    tag_329:\n      swap2\n      swap1\n      pop\n      jump\t// out\n        /* \"contracts/fraud-detector/libs/rlp/RLPReader.sol\":6553:6851  function toUintStrict(RLPItem memory item) internal pure returns (uint256) {... */\n    tag_162:\n        /* \"contracts/fraud-detector/libs/rlp/RLPReader.sol\":6619:6626  uint256 */\n      0x00\n        /* \"contracts/fraud-detector/libs/rlp/RLPReader.sol\":6685:6687  33 */\n      0x21\n        /* \"contracts/fraud-detector/libs/rlp/RLPReader.sol\":6673:6677  item */\n      dup3\n        /* \"contracts/fraud-detector/libs/rlp/RLPReader.sol\":6673:6681  item.len */\n      0x00\n      add\n      mload\n        /* \"contracts/fraud-detector/libs/rlp/RLPReader.sol\":6673:6687  item.len == 33 */\n      eq\n        /* \"contracts/fraud-detector/libs/rlp/RLPReader.sol\":6665:6688  require(item.len == 33) */\n      tag_333\n      jumpi\n      0x00\n      dup1\n      revert\n    tag_333:\n        /* \"contracts/fraud-detector/libs/rlp/RLPReader.sol\":6699:6713  uint256 result */\n      0x00\n        /* \"contracts/fraud-detector/libs/rlp/RLPReader.sol\":6723:6737  uint256 memPtr */\n      dup1\n        /* \"contracts/fraud-detector/libs/rlp/RLPReader.sol\":6754:6755  1 */\n      0x01\n        /* \"contracts/fraud-detector/libs/rlp/RLPReader.sol\":6740:6744  item */\n      dup5\n        /* \"contracts/fraud-detector/libs/rlp/RLPReader.sol\":6740:6751  item.memPtr */\n      0x20\n      add\n      mload\n        /* \"contracts/fraud-detector/libs/rlp/RLPReader.sol\":6740:6755  item.memPtr + 1 */\n      tag_334\n      swap2\n      swap1\n      tag_312\n      jump\t// in\n    tag_334:\n        /* \"contracts/fraud-detector/libs/rlp/RLPReader.sol\":6723:6755  uint256 memPtr = item.memPtr + 1 */\n      swap1\n      pop\n        /* \"contracts/fraud-detector/libs/rlp/RLPReader.sol\":6804:6810  memPtr */\n      dup1\n        /* \"contracts/fraud-detector/libs/rlp/RLPReader.sol\":6798:6811  mload(memPtr) */\n      mload\n        /* \"contracts/fraud-detector/libs/rlp/RLPReader.sol\":6788:6811  result := mload(memPtr) */\n      swap2\n      pop\n        /* \"contracts/fraud-detector/libs/rlp/RLPReader.sol\":6838:6844  result */\n      dup2\n        /* \"contracts/fraud-detector/libs/rlp/RLPReader.sol\":6831:6844  return result */\n      swap3\n      pop\n      pop\n      pop\n        /* \"contracts/fraud-detector/libs/rlp/RLPReader.sol\":6553:6851  function toUintStrict(RLPItem memory item) internal pure returns (uint256) {... */\n      swap2\n      swap1\n      pop\n      jump\t// out\n        /* \"contracts/fraud-detector/libs/rlp/RLPReader.sol\":4849:5186  function toRlpBytes(RLPItem memory item) internal pure returns (bytes memory) {... */\n    tag_169:\n        /* \"contracts/fraud-detector/libs/rlp/RLPReader.sol\":4913:4925  bytes memory */\n      0x60\n        /* \"contracts/fraud-detector/libs/rlp/RLPReader.sol\":4937:4956  bytes memory result */\n      0x00\n        /* \"contracts/fraud-detector/libs/rlp/RLPReader.sol\":4969:4973  item */\n      dup3\n        /* \"contracts/fraud-detector/libs/rlp/RLPReader.sol\":4969:4977  item.len */\n      0x00\n      add\n      mload\n        /* \"contracts/fraud-detector/libs/rlp/RLPReader.sol\":4959:4978  new bytes(item.len) */\n      0xffffffffffffffff\n      dup2\n      gt\n      iszero\n      tag_336\n      jumpi\n      tag_337\n      tag_305\n      jump\t// in\n    tag_337:\n    tag_336:\n      mload(0x40)\n      swap1\n      dup1\n      dup3\n      mstore\n      dup1\n      0x1f\n      add\n      not(0x1f)\n      and\n      0x20\n      add\n      dup3\n      add\n      0x40\n      mstore\n      dup1\n      iszero\n      tag_338\n      jumpi\n      dup2\n      0x20\n      add\n      0x01\n      dup3\n      mul\n      dup1\n      calldatasize\n      dup4\n      calldatacopy\n      dup1\n      dup3\n      add\n      swap2\n      pop\n      pop\n      swap1\n      pop\n    tag_338:\n      pop\n        /* \"contracts/fraud-detector/libs/rlp/RLPReader.sol\":4937:4978  bytes memory result = new bytes(item.len) */\n      swap1\n      pop\n        /* \"contracts/fraud-detector/libs/rlp/RLPReader.sol\":5009:5010  0 */\n      0x00\n        /* \"contracts/fraud-detector/libs/rlp/RLPReader.sol\":4992:4998  result */\n      dup2\n        /* \"contracts/fraud-detector/libs/rlp/RLPReader.sol\":4992:5005  result.length */\n      mload\n        /* \"contracts/fraud-detector/libs/rlp/RLPReader.sol\":4992:5010  result.length == 0 */\n      sub\n        /* \"contracts/fraud-detector/libs/rlp/RLPReader.sol\":4988:5025  if (result.length == 0) return result */\n      tag_339\n      jumpi\n        /* \"contracts/fraud-detector/libs/rlp/RLPReader.sol\":5019:5025  result */\n      dup1\n        /* \"contracts/fraud-detector/libs/rlp/RLPReader.sol\":5012:5025  return result */\n      swap2\n      pop\n      pop\n      jump(tag_335)\n        /* \"contracts/fraud-detector/libs/rlp/RLPReader.sol\":4988:5025  if (result.length == 0) return result */\n    tag_339:\n        /* \"contracts/fraud-detector/libs/rlp/RLPReader.sol\":5036:5047  uint256 ptr */\n      0x00\n        /* \"contracts/fraud-detector/libs/rlp/RLPReader.sol\":5097:5103  result */\n      dup2\n        /* \"contracts/fraud-detector/libs/rlp/RLPReader.sol\":5091:5095  0x20 */\n      0x20\n        /* \"contracts/fraud-detector/libs/rlp/RLPReader.sol\":5087:5104  add(0x20, result) */\n      add\n        /* \"contracts/fraud-detector/libs/rlp/RLPReader.sol\":5080:5104  ptr := add(0x20, result) */\n      swap1\n      pop\n        /* \"contracts/fraud-detector/libs/rlp/RLPReader.sol\":5124:5156  copy(item.memPtr, ptr, item.len) */\n      tag_340\n        /* \"contracts/fraud-detector/libs/rlp/RLPReader.sol\":5129:5133  item */\n      dup5\n        /* \"contracts/fraud-detector/libs/rlp/RLPReader.sol\":5129:5140  item.memPtr */\n      0x20\n      add\n      mload\n        /* \"contracts/fraud-detector/libs/rlp/RLPReader.sol\":5142:5145  ptr */\n      dup3\n        /* \"contracts/fraud-detector/libs/rlp/RLPReader.sol\":5147:5151  item */\n      dup7\n        /* \"contracts/fraud-detector/libs/rlp/RLPReader.sol\":5147:5155  item.len */\n      0x00\n      add\n      mload\n        /* \"contracts/fraud-detector/libs/rlp/RLPReader.sol\":5124:5128  copy */\n      tag_341\n        /* \"contracts/fraud-detector/libs/rlp/RLPReader.sol\":5124:5156  copy(item.memPtr, ptr, item.len) */\n      jump\t// in\n    tag_340:\n        /* \"contracts/fraud-detector/libs/rlp/RLPReader.sol\":5173:5179  result */\n      dup2\n        /* \"contracts/fraud-detector/libs/rlp/RLPReader.sol\":5166:5179  return result */\n      swap3\n      pop\n      pop\n      pop\n        /* \"contracts/fraud-detector/libs/rlp/RLPReader.sol\":4849:5186  function toRlpBytes(RLPItem memory item) internal pure returns (bytes memory) {... */\n    tag_335:\n      swap2\n      swap1\n      pop\n      jump\t// out\n        /* \"contracts/fraud-detector/libs/rlp/RLPReader.sol\":6857:7236  function toBytes(RLPItem memory item) internal pure returns (bytes memory) {... */\n    tag_173:\n        /* \"contracts/fraud-detector/libs/rlp/RLPReader.sol\":6918:6930  bytes memory */\n      0x60\n        /* \"contracts/fraud-detector/libs/rlp/RLPReader.sol\":6961:6962  0 */\n      0x00\n        /* \"contracts/fraud-detector/libs/rlp/RLPReader.sol\":6950:6954  item */\n      dup3\n        /* \"contracts/fraud-detector/libs/rlp/RLPReader.sol\":6950:6958  item.len */\n      0x00\n      add\n      mload\n        /* \"contracts/fraud-detector/libs/rlp/RLPReader.sol\":6950:6962  item.len > 0 */\n      gt\n        /* \"contracts/fraud-detector/libs/rlp/RLPReader.sol\":6942:6963  require(item.len > 0) */\n      tag_343\n      jumpi\n      0x00\n      dup1\n      revert\n    tag_343:\n        /* \"contracts/fraud-detector/libs/rlp/RLPReader.sol\":6975:6989  uint256 memPtr */\n      0x00\n        /* \"contracts/fraud-detector/libs/rlp/RLPReader.sol\":6991:7002  uint256 len */\n      dup1\n        /* \"contracts/fraud-detector/libs/rlp/RLPReader.sol\":7006:7027  payloadLocation(item) */\n      tag_344\n        /* \"contracts/fraud-detector/libs/rlp/RLPReader.sol\":7022:7026  item */\n      dup5\n        /* \"contracts/fraud-detector/libs/rlp/RLPReader.sol\":7006:7021  payloadLocation */\n      tag_177\n        /* \"contracts/fraud-detector/libs/rlp/RLPReader.sol\":7006:7027  payloadLocation(item) */\n      jump\t// in\n    tag_344:\n        /* \"contracts/fraud-detector/libs/rlp/RLPReader.sol\":6974:7027  (uint256 memPtr, uint256 len) = payloadLocation(item) */\n      swap2\n      pop\n      swap2\n      pop\n        /* \"contracts/fraud-detector/libs/rlp/RLPReader.sol\":7037:7056  bytes memory result */\n      0x00\n        /* \"contracts/fraud-detector/libs/rlp/RLPReader.sol\":7069:7072  len */\n      dup2\n        /* \"contracts/fraud-detector/libs/rlp/RLPReader.sol\":7059:7073  new bytes(len) */\n      0xffffffffffffffff\n      dup2\n      gt\n      iszero\n      tag_345\n      jumpi\n      tag_346\n      tag_305\n      jump\t// in\n    tag_346:\n    tag_345:\n      mload(0x40)\n      swap1\n      dup1\n      dup3\n      mstore\n      dup1\n      0x1f\n      add\n      not(0x1f)\n      and\n      0x20\n      add\n      dup3\n      add\n      0x40\n      mstore\n      dup1\n      iszero\n      tag_347\n      jumpi\n      dup2\n      0x20\n      add\n      0x01\n      dup3\n      mul\n      dup1\n      calldatasize\n      dup4\n      calldatacopy\n      dup1\n      dup3\n      add\n      swap2\n      pop\n      pop\n      swap1\n      pop\n    tag_347:\n      pop\n        /* \"contracts/fraud-detector/libs/rlp/RLPReader.sol\":7037:7073  bytes memory result = new bytes(len) */\n      swap1\n      pop\n        /* \"contracts/fraud-detector/libs/rlp/RLPReader.sol\":7084:7099  uint256 destPtr */\n      0x00\n        /* \"contracts/fraud-detector/libs/rlp/RLPReader.sol\":7153:7159  result */\n      dup2\n        /* \"contracts/fraud-detector/libs/rlp/RLPReader.sol\":7147:7151  0x20 */\n      0x20\n        /* \"contracts/fraud-detector/libs/rlp/RLPReader.sol\":7143:7160  add(0x20, result) */\n      add\n        /* \"contracts/fraud-detector/libs/rlp/RLPReader.sol\":7132:7160  destPtr := add(0x20, result) */\n      swap1\n      pop\n        /* \"contracts/fraud-detector/libs/rlp/RLPReader.sol\":7180:7206  copy(memPtr, destPtr, len) */\n      tag_348\n        /* \"contracts/fraud-detector/libs/rlp/RLPReader.sol\":7185:7191  memPtr */\n      dup5\n        /* \"contracts/fraud-detector/libs/rlp/RLPReader.sol\":7193:7200  destPtr */\n      dup3\n        /* \"contracts/fraud-detector/libs/rlp/RLPReader.sol\":7202:7205  len */\n      dup6\n        /* \"contracts/fraud-detector/libs/rlp/RLPReader.sol\":7180:7184  copy */\n      tag_341\n        /* \"contracts/fraud-detector/libs/rlp/RLPReader.sol\":7180:7206  copy(memPtr, destPtr, len) */\n      jump\t// in\n    tag_348:\n        /* \"contracts/fraud-detector/libs/rlp/RLPReader.sol\":7223:7229  result */\n      dup2\n        /* \"contracts/fraud-detector/libs/rlp/RLPReader.sol\":7216:7229  return result */\n      swap5\n      pop\n      pop\n      pop\n      pop\n      pop\n        /* \"contracts/fraud-detector/libs/rlp/RLPReader.sol\":6857:7236  function toBytes(RLPItem memory item) internal pure returns (bytes memory) {... */\n      swap2\n      swap1\n      pop\n      jump\t// out\n        /* \"contracts/fraud-detector/libs/rlp/RLPReader.sol\":2390:2671  function payloadLocation(RLPItem memory item) internal pure returns (uint256, uint256) {... */\n    tag_177:\n        /* \"contracts/fraud-detector/libs/rlp/RLPReader.sol\":2459:2466  uint256 */\n      0x00\n        /* \"contracts/fraud-detector/libs/rlp/RLPReader.sol\":2468:2475  uint256 */\n      dup1\n        /* \"contracts/fraud-detector/libs/rlp/RLPReader.sol\":2487:2501  uint256 offset */\n      0x00\n        /* \"contracts/fraud-detector/libs/rlp/RLPReader.sol\":2504:2531  _payloadOffset(item.memPtr) */\n      tag_350\n        /* \"contracts/fraud-detector/libs/rlp/RLPReader.sol\":2519:2523  item */\n      dup5\n        /* \"contracts/fraud-detector/libs/rlp/RLPReader.sol\":2519:2530  item.memPtr */\n      0x20\n      add\n      mload\n        /* \"contracts/fraud-detector/libs/rlp/RLPReader.sol\":2504:2518  _payloadOffset */\n      tag_310\n        /* \"contracts/fraud-detector/libs/rlp/RLPReader.sol\":2504:2531  _payloadOffset(item.memPtr) */\n      jump\t// in\n    tag_350:\n        /* \"contracts/fraud-detector/libs/rlp/RLPReader.sol\":2487:2531  uint256 offset = _payloadOffset(item.memPtr) */\n      swap1\n      pop\n        /* \"contracts/fraud-detector/libs/rlp/RLPReader.sol\":2541:2555  uint256 memPtr */\n      0x00\n        /* \"contracts/fraud-detector/libs/rlp/RLPReader.sol\":2572:2578  offset */\n      dup2\n        /* \"contracts/fraud-detector/libs/rlp/RLPReader.sol\":2558:2562  item */\n      dup6\n        /* \"contracts/fraud-detector/libs/rlp/RLPReader.sol\":2558:2569  item.memPtr */\n      0x20\n      add\n      mload\n        /* \"contracts/fraud-detector/libs/rlp/RLPReader.sol\":2558:2578  item.memPtr + offset */\n      tag_351\n      swap2\n      swap1\n      tag_312\n      jump\t// in\n    tag_351:\n        /* \"contracts/fraud-detector/libs/rlp/RLPReader.sol\":2541:2578  uint256 memPtr = item.memPtr + offset */\n      swap1\n      pop\n        /* \"contracts/fraud-detector/libs/rlp/RLPReader.sol\":2588:2599  uint256 len */\n      0x00\n        /* \"contracts/fraud-detector/libs/rlp/RLPReader.sol\":2613:2619  offset */\n      dup3\n        /* \"contracts/fraud-detector/libs/rlp/RLPReader.sol\":2602:2606  item */\n      dup7\n        /* \"contracts/fraud-detector/libs/rlp/RLPReader.sol\":2602:2610  item.len */\n      0x00\n      add\n      mload\n        /* \"contracts/fraud-detector/libs/rlp/RLPReader.sol\":2602:2619  item.len - offset */\n      tag_352\n      swap2\n      swap1\n      tag_353\n      jump\t// in\n    tag_352:\n        /* \"contracts/fraud-detector/libs/rlp/RLPReader.sol\":2588:2619  uint256 len = item.len - offset */\n      swap1\n      pop\n        /* \"contracts/fraud-detector/libs/rlp/RLPReader.sol\":2652:2658  memPtr */\n      dup2\n        /* \"contracts/fraud-detector/libs/rlp/RLPReader.sol\":2660:2663  len */\n      dup2\n        /* \"contracts/fraud-detector/libs/rlp/RLPReader.sol\":2644:2664  return (memPtr, len) */\n      swap5\n      pop\n      swap5\n      pop\n      pop\n      pop\n      pop\n        /* \"contracts/fraud-detector/libs/rlp/RLPReader.sol\":2390:2671  function payloadLocation(RLPItem memory item) internal pure returns (uint256, uint256) {... */\n      swap2\n      pop\n      swap2\n      jump\t// out\n        /* \"contracts/fraud-detector/libs/rlp/RLPReader.sol\":4482:4752  function payloadKeccak256(RLPItem memory item) internal pure returns (bytes32) {... */\n    tag_187:\n        /* \"contracts/fraud-detector/libs/rlp/RLPReader.sol\":4552:4559  bytes32 */\n      0x00\n        /* \"contracts/fraud-detector/libs/rlp/RLPReader.sol\":4572:4586  uint256 memPtr */\n      dup1\n        /* \"contracts/fraud-detector/libs/rlp/RLPReader.sol\":4588:4599  uint256 len */\n      0x00\n        /* \"contracts/fraud-detector/libs/rlp/RLPReader.sol\":4603:4624  payloadLocation(item) */\n      tag_355\n        /* \"contracts/fraud-detector/libs/rlp/RLPReader.sol\":4619:4623  item */\n      dup5\n        /* \"contracts/fraud-detector/libs/rlp/RLPReader.sol\":4603:4618  payloadLocation */\n      tag_177\n        /* \"contracts/fraud-detector/libs/rlp/RLPReader.sol\":4603:4624  payloadLocation(item) */\n      jump\t// in\n    tag_355:\n        /* \"contracts/fraud-detector/libs/rlp/RLPReader.sol\":4571:4624  (uint256 memPtr, uint256 len) = payloadLocation(item) */\n      swap2\n      pop\n      swap2\n      pop\n        /* \"contracts/fraud-detector/libs/rlp/RLPReader.sol\":4634:4648  bytes32 result */\n      0x00\n        /* \"contracts/fraud-detector/libs/rlp/RLPReader.sol\":4709:4712  len */\n      dup2\n        /* \"contracts/fraud-detector/libs/rlp/RLPReader.sol\":4701:4707  memPtr */\n      dup4\n        /* \"contracts/fraud-detector/libs/rlp/RLPReader.sol\":4691:4713  keccak256(memPtr, len) */\n      keccak256\n        /* \"contracts/fraud-detector/libs/rlp/RLPReader.sol\":4681:4713  result := keccak256(memPtr, len) */\n      swap1\n      pop\n        /* \"contracts/fraud-detector/libs/rlp/RLPReader.sol\":4739:4745  result */\n      dup1\n        /* \"contracts/fraud-detector/libs/rlp/RLPReader.sol\":4732:4745  return result */\n      swap4\n      pop\n      pop\n      pop\n      pop\n        /* \"contracts/fraud-detector/libs/rlp/RLPReader.sol\":4482:4752  function payloadKeccak256(RLPItem memory item) internal pure returns (bytes32) {... */\n      swap2\n      swap1\n      pop\n      jump\t// out\n        /* \"contracts/fraud-detector/libs/rlp/RLPReader.sol\":1895:2114  function iterator(RLPItem memory self) internal pure returns (Iterator memory) {... */\n    tag_200:\n        /* \"contracts/fraud-detector/libs/rlp/RLPReader.sol\":1957:1972  Iterator memory */\n      tag_356\n      tag_357\n      jump\t// in\n    tag_356:\n        /* \"contracts/fraud-detector/libs/rlp/RLPReader.sol\":1992:2004  isList(self) */\n      tag_359\n        /* \"contracts/fraud-detector/libs/rlp/RLPReader.sol\":1999:2003  self */\n      dup3\n        /* \"contracts/fraud-detector/libs/rlp/RLPReader.sol\":1992:1998  isList */\n      tag_158\n        /* \"contracts/fraud-detector/libs/rlp/RLPReader.sol\":1992:2004  isList(self) */\n      jump\t// in\n    tag_359:\n        /* \"contracts/fraud-detector/libs/rlp/RLPReader.sol\":1984:2005  require(isList(self)) */\n      tag_360\n      jumpi\n      0x00\n      dup1\n      revert\n    tag_360:\n        /* \"contracts/fraud-detector/libs/rlp/RLPReader.sol\":2016:2027  uint256 ptr */\n      0x00\n        /* \"contracts/fraud-detector/libs/rlp/RLPReader.sol\":2044:2071  _payloadOffset(self.memPtr) */\n      tag_361\n        /* \"contracts/fraud-detector/libs/rlp/RLPReader.sol\":2059:2063  self */\n      dup4\n        /* \"contracts/fraud-detector/libs/rlp/RLPReader.sol\":2059:2070  self.memPtr */\n      0x20\n      add\n      mload\n        /* \"contracts/fraud-detector/libs/rlp/RLPReader.sol\":2044:2058  _payloadOffset */\n      tag_310\n        /* \"contracts/fraud-detector/libs/rlp/RLPReader.sol\":2044:2071  _payloadOffset(self.memPtr) */\n      jump\t// in\n    tag_361:\n        /* \"contracts/fraud-detector/libs/rlp/RLPReader.sol\":2030:2034  self */\n      dup4\n        /* \"contracts/fraud-detector/libs/rlp/RLPReader.sol\":2030:2041  self.memPtr */\n      0x20\n      add\n      mload\n        /* \"contracts/fraud-detector/libs/rlp/RLPReader.sol\":2030:2071  self.memPtr + _payloadOffset(self.memPtr) */\n      tag_362\n      swap2\n      swap1\n      tag_312\n      jump\t// in\n    tag_362:\n        /* \"contracts/fraud-detector/libs/rlp/RLPReader.sol\":2016:2071  uint256 ptr = self.memPtr + _payloadOffset(self.memPtr) */\n      swap1\n      pop\n        /* \"contracts/fraud-detector/libs/rlp/RLPReader.sol\":2088:2107  Iterator(self, ptr) */\n      mload(0x40)\n      dup1\n      0x40\n      add\n      0x40\n      mstore\n      dup1\n        /* \"contracts/fraud-detector/libs/rlp/RLPReader.sol\":2097:2101  self */\n      dup5\n        /* \"contracts/fraud-detector/libs/rlp/RLPReader.sol\":2088:2107  Iterator(self, ptr) */\n      dup2\n      mstore\n      0x20\n      add\n        /* \"contracts/fraud-detector/libs/rlp/RLPReader.sol\":2103:2106  ptr */\n      dup3\n        /* \"contracts/fraud-detector/libs/rlp/RLPReader.sol\":2088:2107  Iterator(self, ptr) */\n      dup2\n      mstore\n      pop\n        /* \"contracts/fraud-detector/libs/rlp/RLPReader.sol\":2081:2107  return Iterator(self, ptr) */\n      swap2\n      pop\n      pop\n        /* \"contracts/fraud-detector/libs/rlp/RLPReader.sol\":1895:2114  function iterator(RLPItem memory self) internal pure returns (Iterator memory) {... */\n      swap2\n      swap1\n      pop\n      jump\t// out\n        /* \"contracts/fraud-detector/libs/rlp/RLPReader.sol\":833:1114  function next(Iterator memory self) internal pure returns (RLPItem memory) {... */\n    tag_203:\n        /* \"contracts/fraud-detector/libs/rlp/RLPReader.sol\":892:906  RLPItem memory */\n      tag_363\n      tag_291\n      jump\t// in\n    tag_363:\n        /* \"contracts/fraud-detector/libs/rlp/RLPReader.sol\":926:939  hasNext(self) */\n      tag_365\n        /* \"contracts/fraud-detector/libs/rlp/RLPReader.sol\":934:938  self */\n      dup3\n        /* \"contracts/fraud-detector/libs/rlp/RLPReader.sol\":926:933  hasNext */\n      tag_207\n        /* \"contracts/fraud-detector/libs/rlp/RLPReader.sol\":926:939  hasNext(self) */\n      jump\t// in\n    tag_365:\n        /* \"contracts/fraud-detector/libs/rlp/RLPReader.sol\":918:940  require(hasNext(self)) */\n      tag_366\n      jumpi\n      0x00\n      dup1\n      revert\n    tag_366:\n        /* \"contracts/fraud-detector/libs/rlp/RLPReader.sol\":951:962  uint256 ptr */\n      0x00\n        /* \"contracts/fraud-detector/libs/rlp/RLPReader.sol\":965:969  self */\n      dup3\n        /* \"contracts/fraud-detector/libs/rlp/RLPReader.sol\":965:977  self.nextPtr */\n      0x20\n      add\n      mload\n        /* \"contracts/fraud-detector/libs/rlp/RLPReader.sol\":951:977  uint256 ptr = self.nextPtr */\n      swap1\n      pop\n        /* \"contracts/fraud-detector/libs/rlp/RLPReader.sol\":987:1005  uint256 itemLength */\n      0x00\n        /* \"contracts/fraud-detector/libs/rlp/RLPReader.sol\":1008:1024  _itemLength(ptr) */\n      tag_367\n        /* \"contracts/fraud-detector/libs/rlp/RLPReader.sol\":1020:1023  ptr */\n      dup3\n        /* \"contracts/fraud-detector/libs/rlp/RLPReader.sol\":1008:1019  _itemLength */\n      tag_317\n        /* \"contracts/fraud-detector/libs/rlp/RLPReader.sol\":1008:1024  _itemLength(ptr) */\n      jump\t// in\n    tag_367:\n        /* \"contracts/fraud-detector/libs/rlp/RLPReader.sol\":987:1024  uint256 itemLength = _itemLength(ptr) */\n      swap1\n      pop\n        /* \"contracts/fraud-detector/libs/rlp/RLPReader.sol\":1055:1065  itemLength */\n      dup1\n        /* \"contracts/fraud-detector/libs/rlp/RLPReader.sol\":1049:1052  ptr */\n      dup3\n        /* \"contracts/fraud-detector/libs/rlp/RLPReader.sol\":1049:1065  ptr + itemLength */\n      tag_368\n      swap2\n      swap1\n      tag_312\n      jump\t// in\n    tag_368:\n        /* \"contracts/fraud-detector/libs/rlp/RLPReader.sol\":1034:1038  self */\n      dup5\n        /* \"contracts/fraud-detector/libs/rlp/RLPReader.sol\":1034:1046  self.nextPtr */\n      0x20\n      add\n        /* \"contracts/fraud-detector/libs/rlp/RLPReader.sol\":1034:1065  self.nextPtr = ptr + itemLength */\n      dup2\n      dup2\n      mstore\n      pop\n      pop\n        /* \"contracts/fraud-detector/libs/rlp/RLPReader.sol\":1083:1107  RLPItem(itemLength, ptr) */\n      mload(0x40)\n      dup1\n      0x40\n      add\n      0x40\n      mstore\n      dup1\n        /* \"contracts/fraud-detector/libs/rlp/RLPReader.sol\":1091:1101  itemLength */\n      dup3\n        /* \"contracts/fraud-detector/libs/rlp/RLPReader.sol\":1083:1107  RLPItem(itemLength, ptr) */\n      dup2\n      mstore\n      0x20\n      add\n        /* \"contracts/fraud-detector/libs/rlp/RLPReader.sol\":1103:1106  ptr */\n      dup4\n        /* \"contracts/fraud-detector/libs/rlp/RLPReader.sol\":1083:1107  RLPItem(itemLength, ptr) */\n      dup2\n      mstore\n      pop\n        /* \"contracts/fraud-detector/libs/rlp/RLPReader.sol\":1076:1107  return RLPItem(itemLength, ptr) */\n      swap3\n      pop\n      pop\n      pop\n        /* \"contracts/fraud-detector/libs/rlp/RLPReader.sol\":833:1114  function next(Iterator memory self) internal pure returns (RLPItem memory) {... */\n      swap2\n      swap1\n      pop\n      jump\t// out\n        /* \"contracts/fraud-detector/libs/rlp/RLPReader.sol\":1285:1455  function hasNext(Iterator memory self) internal pure returns (bool) {... */\n    tag_207:\n        /* \"contracts/fraud-detector/libs/rlp/RLPReader.sol\":1347:1351  bool */\n      0x00\n        /* \"contracts/fraud-detector/libs/rlp/RLPReader.sol\":1363:1382  RLPItem memory item */\n      dup1\n        /* \"contracts/fraud-detector/libs/rlp/RLPReader.sol\":1385:1389  self */\n      dup3\n        /* \"contracts/fraud-detector/libs/rlp/RLPReader.sol\":1385:1394  self.item */\n      0x00\n      add\n      mload\n        /* \"contracts/fraud-detector/libs/rlp/RLPReader.sol\":1363:1394  RLPItem memory item = self.item */\n      swap1\n      pop\n        /* \"contracts/fraud-detector/libs/rlp/RLPReader.sol\":1440:1444  item */\n      dup1\n        /* \"contracts/fraud-detector/libs/rlp/RLPReader.sol\":1440:1448  item.len */\n      0x00\n      add\n      mload\n        /* \"contracts/fraud-detector/libs/rlp/RLPReader.sol\":1426:1430  item */\n      dup2\n        /* \"contracts/fraud-detector/libs/rlp/RLPReader.sol\":1426:1437  item.memPtr */\n      0x20\n      add\n      mload\n        /* \"contracts/fraud-detector/libs/rlp/RLPReader.sol\":1426:1448  item.memPtr + item.len */\n      tag_370\n      swap2\n      swap1\n      tag_312\n      jump\t// in\n    tag_370:\n        /* \"contracts/fraud-detector/libs/rlp/RLPReader.sol\":1411:1415  self */\n      dup4\n        /* \"contracts/fraud-detector/libs/rlp/RLPReader.sol\":1411:1423  self.nextPtr */\n      0x20\n      add\n      mload\n        /* \"contracts/fraud-detector/libs/rlp/RLPReader.sol\":1411:1448  self.nextPtr < item.memPtr + item.len */\n      lt\n        /* \"contracts/fraud-detector/libs/rlp/RLPReader.sol\":1404:1448  return self.nextPtr < item.memPtr + item.len */\n      swap2\n      pop\n      pop\n        /* \"contracts/fraud-detector/libs/rlp/RLPReader.sol\":1285:1455  function hasNext(Iterator memory self) internal pure returns (bool) {... */\n      swap2\n      swap1\n      pop\n      jump\t// out\n        /* \"contracts/fraud-detector/libs/rlp/Helper.sol\":6327:7560  function _itemLength(uint memPtr) private pure returns (uint) {... */\n    tag_213:\n        /* \"contracts/fraud-detector/libs/rlp/Helper.sol\":6383:6387  uint */\n      0x00\n        /* \"contracts/fraud-detector/libs/rlp/Helper.sol\":6398:6410  uint itemLen */\n      dup1\n        /* \"contracts/fraud-detector/libs/rlp/Helper.sol\":6419:6429  uint byte0 */\n      0x00\n        /* \"contracts/fraud-detector/libs/rlp/Helper.sol\":6483:6489  memPtr */\n      dup4\n        /* \"contracts/fraud-detector/libs/rlp/Helper.sol\":6477:6490  mload(memPtr) */\n      mload\n        /* \"contracts/fraud-detector/libs/rlp/Helper.sol\":6474:6475  0 */\n      0x00\n        /* \"contracts/fraud-detector/libs/rlp/Helper.sol\":6469:6491  byte(0, mload(memPtr)) */\n      byte\n        /* \"contracts/fraud-detector/libs/rlp/Helper.sol\":6460:6491  byte0 := byte(0, mload(memPtr)) */\n      swap1\n      pop\n        /* \"contracts/fraud-detector/libs/rlp/Helper.sol\":6179:6183  0x80 */\n      0x80\n        /* \"contracts/fraud-detector/libs/rlp/Helper.sol\":6513:6539  byte0 < STRING_SHORT_START */\n      0xff\n      and\n        /* \"contracts/fraud-detector/libs/rlp/Helper.sol\":6513:6518  byte0 */\n      dup2\n        /* \"contracts/fraud-detector/libs/rlp/Helper.sol\":6513:6539  byte0 < STRING_SHORT_START */\n      lt\n        /* \"contracts/fraud-detector/libs/rlp/Helper.sol\":6509:7530  if (byte0 < STRING_SHORT_START)... */\n      iszero\n      tag_372\n      jumpi\n        /* \"contracts/fraud-detector/libs/rlp/Helper.sol\":6562:6563  1 */\n      0x01\n        /* \"contracts/fraud-detector/libs/rlp/Helper.sol\":6552:6563  itemLen = 1 */\n      swap2\n      pop\n        /* \"contracts/fraud-detector/libs/rlp/Helper.sol\":6509:7530  if (byte0 < STRING_SHORT_START)... */\n      jump(tag_373)\n    tag_372:\n        /* \"contracts/fraud-detector/libs/rlp/Helper.sol\":6225:6229  0xb8 */\n      0xb8\n        /* \"contracts/fraud-detector/libs/rlp/Helper.sol\":6582:6607  byte0 < STRING_LONG_START */\n      0xff\n      and\n        /* \"contracts/fraud-detector/libs/rlp/Helper.sol\":6582:6587  byte0 */\n      dup2\n        /* \"contracts/fraud-detector/libs/rlp/Helper.sol\":6582:6607  byte0 < STRING_LONG_START */\n      lt\n        /* \"contracts/fraud-detector/libs/rlp/Helper.sol\":6578:7530  if (byte0 < STRING_LONG_START)... */\n      iszero\n      tag_374\n      jumpi\n        /* \"contracts/fraud-detector/libs/rlp/Helper.sol\":6659:6660  1 */\n      0x01\n        /* \"contracts/fraud-detector/libs/rlp/Helper.sol\":6179:6183  0x80 */\n      0x80\n        /* \"contracts/fraud-detector/libs/rlp/Helper.sol\":6630:6656  byte0 - STRING_SHORT_START */\n      0xff\n      and\n        /* \"contracts/fraud-detector/libs/rlp/Helper.sol\":6630:6635  byte0 */\n      dup3\n        /* \"contracts/fraud-detector/libs/rlp/Helper.sol\":6630:6656  byte0 - STRING_SHORT_START */\n      tag_375\n      swap2\n      swap1\n      tag_353\n      jump\t// in\n    tag_375:\n        /* \"contracts/fraud-detector/libs/rlp/Helper.sol\":6630:6660  byte0 - STRING_SHORT_START + 1 */\n      tag_376\n      swap2\n      swap1\n      tag_312\n      jump\t// in\n    tag_376:\n        /* \"contracts/fraud-detector/libs/rlp/Helper.sol\":6620:6660  itemLen = byte0 - STRING_SHORT_START + 1 */\n      swap2\n      pop\n        /* \"contracts/fraud-detector/libs/rlp/Helper.sol\":6578:7530  if (byte0 < STRING_LONG_START)... */\n      jump(tag_377)\n    tag_374:\n        /* \"contracts/fraud-detector/libs/rlp/Helper.sol\":6271:6275  0xc0 */\n      0xc0\n        /* \"contracts/fraud-detector/libs/rlp/Helper.sol\":6679:6703  byte0 < LIST_SHORT_START */\n      0xff\n      and\n        /* \"contracts/fraud-detector/libs/rlp/Helper.sol\":6679:6684  byte0 */\n      dup2\n        /* \"contracts/fraud-detector/libs/rlp/Helper.sol\":6679:6703  byte0 < LIST_SHORT_START */\n      lt\n        /* \"contracts/fraud-detector/libs/rlp/Helper.sol\":6675:7530  if (byte0 < LIST_SHORT_START) {... */\n      iszero\n      tag_378\n      jumpi\n        /* \"contracts/fraud-detector/libs/rlp/Helper.sol\":6770:6774  0xb7 */\n      0xb7\n        /* \"contracts/fraud-detector/libs/rlp/Helper.sol\":6763:6768  byte0 */\n      dup2\n        /* \"contracts/fraud-detector/libs/rlp/Helper.sol\":6759:6775  sub(byte0, 0xb7) */\n      sub\n        /* \"contracts/fraud-detector/libs/rlp/Helper.sol\":6848:6849  1 */\n      0x01\n        /* \"contracts/fraud-detector/libs/rlp/Helper.sol\":6840:6846  memPtr */\n      dup6\n        /* \"contracts/fraud-detector/libs/rlp/Helper.sol\":6836:6850  add(memPtr, 1) */\n      add\n        /* \"contracts/fraud-detector/libs/rlp/Helper.sol\":6826:6850  memPtr := add(memPtr, 1) */\n      swap5\n      pop\n        /* \"contracts/fraud-detector/libs/rlp/Helper.sol\":6985:6992  byteLen */\n      dup1\n        /* \"contracts/fraud-detector/libs/rlp/Helper.sol\":6981:6983  32 */\n      0x20\n        /* \"contracts/fraud-detector/libs/rlp/Helper.sol\":6977:6993  sub(32, byteLen) */\n      sub\n        /* \"contracts/fraud-detector/libs/rlp/Helper.sol\":6972:6975  256 */\n      0x0100\n        /* \"contracts/fraud-detector/libs/rlp/Helper.sol\":6968:6994  exp(256, sub(32, byteLen)) */\n      exp\n        /* \"contracts/fraud-detector/libs/rlp/Helper.sol\":6959:6965  memPtr */\n      dup6\n        /* \"contracts/fraud-detector/libs/rlp/Helper.sol\":6953:6966  mload(memPtr) */\n      mload\n        /* \"contracts/fraud-detector/libs/rlp/Helper.sol\":6949:6995  div(mload(memPtr), exp(256, sub(32, byteLen))) */\n      div\n        /* \"contracts/fraud-detector/libs/rlp/Helper.sol\":7081:7082  1 */\n      0x01\n        /* \"contracts/fraud-detector/libs/rlp/Helper.sol\":7072:7079  byteLen */\n      dup3\n        /* \"contracts/fraud-detector/libs/rlp/Helper.sol\":7068:7083  add(byteLen, 1) */\n      add\n        /* \"contracts/fraud-detector/libs/rlp/Helper.sol\":7059:7066  dataLen */\n      dup2\n        /* \"contracts/fraud-detector/libs/rlp/Helper.sol\":7055:7084  add(dataLen, add(byteLen, 1)) */\n      add\n        /* \"contracts/fraud-detector/libs/rlp/Helper.sol\":7044:7084  itemLen := add(dataLen, add(byteLen, 1)) */\n      swap4\n      pop\n        /* \"contracts/fraud-detector/libs/rlp/Helper.sol\":6727:7097  {... */\n      pop\n      pop\n        /* \"contracts/fraud-detector/libs/rlp/Helper.sol\":6675:7530  if (byte0 < LIST_SHORT_START) {... */\n      jump(tag_379)\n    tag_378:\n        /* \"contracts/fraud-detector/libs/rlp/Helper.sol\":6317:6321  0xf8 */\n      0xf8\n        /* \"contracts/fraud-detector/libs/rlp/Helper.sol\":7124:7147  byte0 < LIST_LONG_START */\n      0xff\n      and\n        /* \"contracts/fraud-detector/libs/rlp/Helper.sol\":7124:7129  byte0 */\n      dup2\n        /* \"contracts/fraud-detector/libs/rlp/Helper.sol\":7124:7147  byte0 < LIST_LONG_START */\n      lt\n        /* \"contracts/fraud-detector/libs/rlp/Helper.sol\":7120:7530  if (byte0 < LIST_LONG_START) {... */\n      iszero\n      tag_380\n      jumpi\n        /* \"contracts/fraud-detector/libs/rlp/Helper.sol\":7199:7200  1 */\n      0x01\n        /* \"contracts/fraud-detector/libs/rlp/Helper.sol\":6271:6275  0xc0 */\n      0xc0\n        /* \"contracts/fraud-detector/libs/rlp/Helper.sol\":7172:7196  byte0 - LIST_SHORT_START */\n      0xff\n      and\n        /* \"contracts/fraud-detector/libs/rlp/Helper.sol\":7172:7177  byte0 */\n      dup3\n        /* \"contracts/fraud-detector/libs/rlp/Helper.sol\":7172:7196  byte0 - LIST_SHORT_START */\n      tag_381\n      swap2\n      swap1\n      tag_353\n      jump\t// in\n    tag_381:\n        /* \"contracts/fraud-detector/libs/rlp/Helper.sol\":7172:7200  byte0 - LIST_SHORT_START + 1 */\n      tag_382\n      swap2\n      swap1\n      tag_312\n      jump\t// in\n    tag_382:\n        /* \"contracts/fraud-detector/libs/rlp/Helper.sol\":7162:7200  itemLen = byte0 - LIST_SHORT_START + 1 */\n      swap2\n      pop\n        /* \"contracts/fraud-detector/libs/rlp/Helper.sol\":7120:7530  if (byte0 < LIST_LONG_START) {... */\n      jump(tag_383)\n    tag_380:\n        /* \"contracts/fraud-detector/libs/rlp/Helper.sol\":7289:7293  0xf7 */\n      0xf7\n        /* \"contracts/fraud-detector/libs/rlp/Helper.sol\":7282:7287  byte0 */\n      dup2\n        /* \"contracts/fraud-detector/libs/rlp/Helper.sol\":7278:7294  sub(byte0, 0xf7) */\n      sub\n        /* \"contracts/fraud-detector/libs/rlp/Helper.sol\":7332:7333  1 */\n      0x01\n        /* \"contracts/fraud-detector/libs/rlp/Helper.sol\":7324:7330  memPtr */\n      dup6\n        /* \"contracts/fraud-detector/libs/rlp/Helper.sol\":7320:7334  add(memPtr, 1) */\n      add\n        /* \"contracts/fraud-detector/libs/rlp/Helper.sol\":7310:7334  memPtr := add(memPtr, 1) */\n      swap5\n      pop\n        /* \"contracts/fraud-detector/libs/rlp/Helper.sol\":7402:7409  byteLen */\n      dup1\n        /* \"contracts/fraud-detector/libs/rlp/Helper.sol\":7398:7400  32 */\n      0x20\n        /* \"contracts/fraud-detector/libs/rlp/Helper.sol\":7394:7410  sub(32, byteLen) */\n      sub\n        /* \"contracts/fraud-detector/libs/rlp/Helper.sol\":7389:7392  256 */\n      0x0100\n        /* \"contracts/fraud-detector/libs/rlp/Helper.sol\":7385:7411  exp(256, sub(32, byteLen)) */\n      exp\n        /* \"contracts/fraud-detector/libs/rlp/Helper.sol\":7376:7382  memPtr */\n      dup6\n        /* \"contracts/fraud-detector/libs/rlp/Helper.sol\":7370:7383  mload(memPtr) */\n      mload\n        /* \"contracts/fraud-detector/libs/rlp/Helper.sol\":7366:7412  div(mload(memPtr), exp(256, sub(32, byteLen))) */\n      div\n        /* \"contracts/fraud-detector/libs/rlp/Helper.sol\":7505:7506  1 */\n      0x01\n        /* \"contracts/fraud-detector/libs/rlp/Helper.sol\":7496:7503  byteLen */\n      dup3\n        /* \"contracts/fraud-detector/libs/rlp/Helper.sol\":7492:7507  add(byteLen, 1) */\n      add\n        /* \"contracts/fraud-detector/libs/rlp/Helper.sol\":7483:7490  dataLen */\n      dup2\n        /* \"contracts/fraud-detector/libs/rlp/Helper.sol\":7479:7508  add(dataLen, add(byteLen, 1)) */\n      add\n        /* \"contracts/fraud-detector/libs/rlp/Helper.sol\":7468:7508  itemLen := add(dataLen, add(byteLen, 1)) */\n      swap4\n      pop\n        /* \"contracts/fraud-detector/libs/rlp/Helper.sol\":7246:7521  {... */\n      pop\n      pop\n        /* \"contracts/fraud-detector/libs/rlp/Helper.sol\":7120:7530  if (byte0 < LIST_LONG_START) {... */\n    tag_383:\n        /* \"contracts/fraud-detector/libs/rlp/Helper.sol\":6675:7530  if (byte0 < LIST_SHORT_START) {... */\n    tag_379:\n        /* \"contracts/fraud-detector/libs/rlp/Helper.sol\":6578:7530  if (byte0 < STRING_LONG_START)... */\n    tag_377:\n        /* \"contracts/fraud-detector/libs/rlp/Helper.sol\":6509:7530  if (byte0 < STRING_SHORT_START)... */\n    tag_373:\n        /* \"contracts/fraud-detector/libs/rlp/Helper.sol\":7546:7553  itemLen */\n      dup2\n        /* \"contracts/fraud-detector/libs/rlp/Helper.sol\":7539:7553  return itemLen */\n      swap3\n      pop\n      pop\n      pop\n        /* \"contracts/fraud-detector/libs/rlp/Helper.sol\":6327:7560  function _itemLength(uint memPtr) private pure returns (uint) {... */\n      swap2\n      swap1\n      pop\n      jump\t// out\n        /* \"contracts/fraud-detector/libs/rlp/RLPReader.sol\":2163:2264  function rlpLen(RLPItem memory item) internal pure returns (uint256) {... */\n    tag_220:\n        /* \"contracts/fraud-detector/libs/rlp/RLPReader.sol\":2223:2230  uint256 */\n      0x00\n        /* \"contracts/fraud-detector/libs/rlp/RLPReader.sol\":2249:2253  item */\n      dup2\n        /* \"contracts/fraud-detector/libs/rlp/RLPReader.sol\":2249:2257  item.len */\n      0x00\n      add\n      mload\n        /* \"contracts/fraud-detector/libs/rlp/RLPReader.sol\":2242:2257  return item.len */\n      swap1\n      pop\n        /* \"contracts/fraud-detector/libs/rlp/RLPReader.sol\":2163:2264  function rlpLen(RLPItem memory item) internal pure returns (uint256) {... */\n      swap2\n      swap1\n      pop\n      jump\t// out\n        /* \"contracts/fraud-detector/libs/rlp/RLPReader.sol\":4052:4324  function rlpBytesKeccak256(RLPItem memory item) internal pure returns (bytes32) {... */\n    tag_289:\n        /* \"contracts/fraud-detector/libs/rlp/RLPReader.sol\":4123:4130  bytes32 */\n      0x00\n        /* \"contracts/fraud-detector/libs/rlp/RLPReader.sol\":4142:4153  uint256 ptr */\n      dup1\n        /* \"contracts/fraud-detector/libs/rlp/RLPReader.sol\":4156:4160  item */\n      dup3\n        /* \"contracts/fraud-detector/libs/rlp/RLPReader.sol\":4156:4167  item.memPtr */\n      0x20\n      add\n      mload\n        /* \"contracts/fraud-detector/libs/rlp/RLPReader.sol\":4142:4167  uint256 ptr = item.memPtr */\n      swap1\n      pop\n        /* \"contracts/fraud-detector/libs/rlp/RLPReader.sol\":4177:4188  uint256 len */\n      0x00\n        /* \"contracts/fraud-detector/libs/rlp/RLPReader.sol\":4191:4195  item */\n      dup4\n        /* \"contracts/fraud-detector/libs/rlp/RLPReader.sol\":4191:4199  item.len */\n      0x00\n      add\n      mload\n        /* \"contracts/fraud-detector/libs/rlp/RLPReader.sol\":4177:4199  uint256 len = item.len */\n      swap1\n      pop\n        /* \"contracts/fraud-detector/libs/rlp/RLPReader.sol\":4209:4223  bytes32 result */\n      0x00\n        /* \"contracts/fraud-detector/libs/rlp/RLPReader.sol\":4281:4284  len */\n      dup2\n        /* \"contracts/fraud-detector/libs/rlp/RLPReader.sol\":4276:4279  ptr */\n      dup4\n        /* \"contracts/fraud-detector/libs/rlp/RLPReader.sol\":4266:4285  keccak256(ptr, len) */\n      keccak256\n        /* \"contracts/fraud-detector/libs/rlp/RLPReader.sol\":4256:4285  result := keccak256(ptr, len) */\n      swap1\n      pop\n        /* \"contracts/fraud-detector/libs/rlp/RLPReader.sol\":4311:4317  result */\n      dup1\n        /* \"contracts/fraud-detector/libs/rlp/RLPReader.sol\":4304:4317  return result */\n      swap4\n      pop\n      pop\n      pop\n      pop\n        /* \"contracts/fraud-detector/libs/rlp/RLPReader.sol\":4052:4324  function rlpBytesKeccak256(RLPItem memory item) internal pure returns (bytes32) {... */\n      swap2\n      swap1\n      pop\n      jump\t// out\n        /* \"contracts/fraud-detector/libs/rlp/RLPReader.sol\":7344:7768  function numItems(RLPItem memory item) private pure returns (uint256) {... */\n    tag_302:\n        /* \"contracts/fraud-detector/libs/rlp/RLPReader.sol\":7405:7412  uint256 */\n      0x00\n        /* \"contracts/fraud-detector/libs/rlp/RLPReader.sol\":7440:7441  0 */\n      dup1\n        /* \"contracts/fraud-detector/libs/rlp/RLPReader.sol\":7428:7432  item */\n      dup3\n        /* \"contracts/fraud-detector/libs/rlp/RLPReader.sol\":7428:7436  item.len */\n      0x00\n      add\n      mload\n        /* \"contracts/fraud-detector/libs/rlp/RLPReader.sol\":7428:7441  item.len == 0 */\n      sub\n        /* \"contracts/fraud-detector/libs/rlp/RLPReader.sol\":7424:7451  if (item.len == 0) return 0 */\n      tag_387\n      jumpi\n        /* \"contracts/fraud-detector/libs/rlp/RLPReader.sol\":7450:7451  0 */\n      0x00\n        /* \"contracts/fraud-detector/libs/rlp/RLPReader.sol\":7443:7451  return 0 */\n      swap1\n      pop\n      jump(tag_386)\n        /* \"contracts/fraud-detector/libs/rlp/RLPReader.sol\":7424:7451  if (item.len == 0) return 0 */\n    tag_387:\n        /* \"contracts/fraud-detector/libs/rlp/RLPReader.sol\":7462:7475  uint256 count */\n      0x00\n        /* \"contracts/fraud-detector/libs/rlp/RLPReader.sol\":7489:7504  uint256 currPtr */\n      dup1\n        /* \"contracts/fraud-detector/libs/rlp/RLPReader.sol\":7521:7548  _payloadOffset(item.memPtr) */\n      tag_388\n        /* \"contracts/fraud-detector/libs/rlp/RLPReader.sol\":7536:7540  item */\n      dup5\n        /* \"contracts/fraud-detector/libs/rlp/RLPReader.sol\":7536:7547  item.memPtr */\n      0x20\n      add\n      mload\n        /* \"contracts/fraud-detector/libs/rlp/RLPReader.sol\":7521:7535  _payloadOffset */\n      tag_310\n        /* \"contracts/fraud-detector/libs/rlp/RLPReader.sol\":7521:7548  _payloadOffset(item.memPtr) */\n      jump\t// in\n    tag_388:\n        /* \"contracts/fraud-detector/libs/rlp/RLPReader.sol\":7507:7511  item */\n      dup5\n        /* \"contracts/fraud-detector/libs/rlp/RLPReader.sol\":7507:7518  item.memPtr */\n      0x20\n      add\n      mload\n        /* \"contracts/fraud-detector/libs/rlp/RLPReader.sol\":7507:7548  item.memPtr + _payloadOffset(item.memPtr) */\n      tag_389\n      swap2\n      swap1\n      tag_312\n      jump\t// in\n    tag_389:\n        /* \"contracts/fraud-detector/libs/rlp/RLPReader.sol\":7489:7548  uint256 currPtr = item.memPtr + _payloadOffset(item.memPtr) */\n      swap1\n      pop\n        /* \"contracts/fraud-detector/libs/rlp/RLPReader.sol\":7558:7572  uint256 endPtr */\n      0x00\n        /* \"contracts/fraud-detector/libs/rlp/RLPReader.sol\":7589:7593  item */\n      dup5\n        /* \"contracts/fraud-detector/libs/rlp/RLPReader.sol\":7589:7597  item.len */\n      0x00\n      add\n      mload\n        /* \"contracts/fraud-detector/libs/rlp/RLPReader.sol\":7575:7579  item */\n      dup6\n        /* \"contracts/fraud-detector/libs/rlp/RLPReader.sol\":7575:7586  item.memPtr */\n      0x20\n      add\n      mload\n        /* \"contracts/fraud-detector/libs/rlp/RLPReader.sol\":7575:7597  item.memPtr + item.len */\n      tag_390\n      swap2\n      swap1\n      tag_312\n      jump\t// in\n    tag_390:\n        /* \"contracts/fraud-detector/libs/rlp/RLPReader.sol\":7558:7597  uint256 endPtr = item.memPtr + item.len */\n      swap1\n      pop\n        /* \"contracts/fraud-detector/libs/rlp/RLPReader.sol\":7607:7739  while (currPtr < endPtr) {... */\n    tag_391:\n        /* \"contracts/fraud-detector/libs/rlp/RLPReader.sol\":7624:7630  endPtr */\n      dup1\n        /* \"contracts/fraud-detector/libs/rlp/RLPReader.sol\":7614:7621  currPtr */\n      dup3\n        /* \"contracts/fraud-detector/libs/rlp/RLPReader.sol\":7614:7630  currPtr < endPtr */\n      lt\n        /* \"contracts/fraud-detector/libs/rlp/RLPReader.sol\":7607:7739  while (currPtr < endPtr) {... */\n      iszero\n      tag_392\n      jumpi\n        /* \"contracts/fraud-detector/libs/rlp/RLPReader.sol\":7666:7686  _itemLength(currPtr) */\n      tag_393\n        /* \"contracts/fraud-detector/libs/rlp/RLPReader.sol\":7678:7685  currPtr */\n      dup3\n        /* \"contracts/fraud-detector/libs/rlp/RLPReader.sol\":7666:7677  _itemLength */\n      tag_317\n        /* \"contracts/fraud-detector/libs/rlp/RLPReader.sol\":7666:7686  _itemLength(currPtr) */\n      jump\t// in\n    tag_393:\n        /* \"contracts/fraud-detector/libs/rlp/RLPReader.sol\":7656:7663  currPtr */\n      dup3\n        /* \"contracts/fraud-detector/libs/rlp/RLPReader.sol\":7656:7686  currPtr + _itemLength(currPtr) */\n      tag_394\n      swap2\n      swap1\n      tag_312\n      jump\t// in\n    tag_394:\n        /* \"contracts/fraud-detector/libs/rlp/RLPReader.sol\":7646:7686  currPtr = currPtr + _itemLength(currPtr) */\n      swap2\n      pop\n        /* \"contracts/fraud-detector/libs/rlp/RLPReader.sol\":7721:7728  count++ */\n      dup3\n      dup1\n      tag_395\n      swap1\n      tag_279\n      jump\t// in\n    tag_395:\n      swap4\n      pop\n      pop\n        /* \"contracts/fraud-detector/libs/rlp/RLPReader.sol\":7607:7739  while (currPtr < endPtr) {... */\n      jump(tag_391)\n    tag_392:\n        /* \"contracts/fraud-detector/libs/rlp/RLPReader.sol\":7756:7761  count */\n      dup3\n        /* \"contracts/fraud-detector/libs/rlp/RLPReader.sol\":7749:7761  return count */\n      swap4\n      pop\n      pop\n      pop\n      pop\n        /* \"contracts/fraud-detector/libs/rlp/RLPReader.sol\":7344:7768  function numItems(RLPItem memory item) private pure returns (uint256) {... */\n    tag_386:\n      swap2\n      swap1\n      pop\n      jump\t// out\n        /* \"contracts/fraud-detector/libs/rlp/RLPReader.sol\":9132:9713  function _payloadOffset(uint256 memPtr) private pure returns (uint256) {... */\n    tag_310:\n        /* \"contracts/fraud-detector/libs/rlp/RLPReader.sol\":9194:9201  uint256 */\n      0x00\n        /* \"contracts/fraud-detector/libs/rlp/RLPReader.sol\":9213:9226  uint256 byte0 */\n      dup1\n        /* \"contracts/fraud-detector/libs/rlp/RLPReader.sol\":9282:9288  memPtr */\n      dup3\n        /* \"contracts/fraud-detector/libs/rlp/RLPReader.sol\":9276:9289  mload(memPtr) */\n      mload\n        /* \"contracts/fraud-detector/libs/rlp/RLPReader.sol\":9273:9274  0 */\n      0x00\n        /* \"contracts/fraud-detector/libs/rlp/RLPReader.sol\":9268:9290  byte(0, mload(memPtr)) */\n      byte\n        /* \"contracts/fraud-detector/libs/rlp/RLPReader.sol\":9259:9290  byte0 := byte(0, mload(memPtr)) */\n      swap1\n      pop\n        /* \"contracts/fraud-detector/libs/rlp/RLPReader.sol\":239:243  0x80 */\n      0x80\n        /* \"contracts/fraud-detector/libs/rlp/RLPReader.sol\":9314:9340  byte0 < STRING_SHORT_START */\n      0xff\n      and\n        /* \"contracts/fraud-detector/libs/rlp/RLPReader.sol\":9314:9319  byte0 */\n      dup2\n        /* \"contracts/fraud-detector/libs/rlp/RLPReader.sol\":9314:9340  byte0 < STRING_SHORT_START */\n      lt\n        /* \"contracts/fraud-detector/libs/rlp/RLPReader.sol\":9310:9707  if (byte0 < STRING_SHORT_START) {... */\n      iszero\n      tag_397\n      jumpi\n        /* \"contracts/fraud-detector/libs/rlp/RLPReader.sol\":9363:9364  0 */\n      0x00\n        /* \"contracts/fraud-detector/libs/rlp/RLPReader.sol\":9356:9364  return 0 */\n      swap2\n      pop\n      pop\n      jump(tag_396)\n        /* \"contracts/fraud-detector/libs/rlp/RLPReader.sol\":9310:9707  if (byte0 < STRING_SHORT_START) {... */\n    tag_397:\n        /* \"contracts/fraud-detector/libs/rlp/RLPReader.sol\":284:288  0xb8 */\n      0xb8\n        /* \"contracts/fraud-detector/libs/rlp/RLPReader.sol\":9385:9410  byte0 < STRING_LONG_START */\n      0xff\n      and\n        /* \"contracts/fraud-detector/libs/rlp/RLPReader.sol\":9385:9390  byte0 */\n      dup2\n        /* \"contracts/fraud-detector/libs/rlp/RLPReader.sol\":9385:9410  byte0 < STRING_LONG_START */\n      lt\n        /* \"contracts/fraud-detector/libs/rlp/RLPReader.sol\":9385:9468  byte0 < STRING_LONG_START || (byte0 >= LIST_SHORT_START && byte0 < LIST_LONG_START) */\n      dup1\n      tag_399\n      jumpi\n      pop\n        /* \"contracts/fraud-detector/libs/rlp/RLPReader.sol\":328:332  0xc0 */\n      0xc0\n        /* \"contracts/fraud-detector/libs/rlp/RLPReader.sol\":9415:9440  byte0 >= LIST_SHORT_START */\n      0xff\n      and\n        /* \"contracts/fraud-detector/libs/rlp/RLPReader.sol\":9415:9420  byte0 */\n      dup2\n        /* \"contracts/fraud-detector/libs/rlp/RLPReader.sol\":9415:9440  byte0 >= LIST_SHORT_START */\n      lt\n      iszero\n        /* \"contracts/fraud-detector/libs/rlp/RLPReader.sol\":9415:9467  byte0 >= LIST_SHORT_START && byte0 < LIST_LONG_START */\n      dup1\n      iszero\n      tag_400\n      jumpi\n      pop\n        /* \"contracts/fraud-detector/libs/rlp/RLPReader.sol\":371:375  0xf8 */\n      0xf8\n        /* \"contracts/fraud-detector/libs/rlp/RLPReader.sol\":9444:9467  byte0 < LIST_LONG_START */\n      0xff\n      and\n        /* \"contracts/fraud-detector/libs/rlp/RLPReader.sol\":9444:9449  byte0 */\n      dup2\n        /* \"contracts/fraud-detector/libs/rlp/RLPReader.sol\":9444:9467  byte0 < LIST_LONG_START */\n      lt\n        /* \"contracts/fraud-detector/libs/rlp/RLPReader.sol\":9415:9467  byte0 >= LIST_SHORT_START && byte0 < LIST_LONG_START */\n    tag_400:\n        /* \"contracts/fraud-detector/libs/rlp/RLPReader.sol\":9385:9468  byte0 < STRING_LONG_START || (byte0 >= LIST_SHORT_START && byte0 < LIST_LONG_START) */\n    tag_399:\n        /* \"contracts/fraud-detector/libs/rlp/RLPReader.sol\":9381:9707  if (byte0 < STRING_LONG_START || (byte0 >= LIST_SHORT_START && byte0 < LIST_LONG_START)) {... */\n      iszero\n      tag_401\n      jumpi\n        /* \"contracts/fraud-detector/libs/rlp/RLPReader.sol\":9491:9492  1 */\n      0x01\n        /* \"contracts/fraud-detector/libs/rlp/RLPReader.sol\":9484:9492  return 1 */\n      swap2\n      pop\n      pop\n      jump(tag_396)\n        /* \"contracts/fraud-detector/libs/rlp/RLPReader.sol\":9381:9707  if (byte0 < STRING_LONG_START || (byte0 >= LIST_SHORT_START && byte0 < LIST_LONG_START)) {... */\n    tag_401:\n        /* \"contracts/fraud-detector/libs/rlp/RLPReader.sol\":328:332  0xc0 */\n      0xc0\n        /* \"contracts/fraud-detector/libs/rlp/RLPReader.sol\":9513:9537  byte0 < LIST_SHORT_START */\n      0xff\n      and\n        /* \"contracts/fraud-detector/libs/rlp/RLPReader.sol\":9513:9518  byte0 */\n      dup2\n        /* \"contracts/fraud-detector/libs/rlp/RLPReader.sol\":9513:9537  byte0 < LIST_SHORT_START */\n      lt\n        /* \"contracts/fraud-detector/libs/rlp/RLPReader.sol\":9509:9707  if (byte0 < LIST_SHORT_START) {... */\n      iszero\n      tag_403\n      jumpi\n        /* \"contracts/fraud-detector/libs/rlp/RLPReader.sol\":9624:9625  1 */\n      0x01\n        /* \"contracts/fraud-detector/libs/rlp/RLPReader.sol\":9619:9620  1 */\n      dup1\n        /* \"contracts/fraud-detector/libs/rlp/RLPReader.sol\":284:288  0xb8 */\n      0xb8\n        /* \"contracts/fraud-detector/libs/rlp/RLPReader.sol\":9599:9620  STRING_LONG_START - 1 */\n      tag_404\n      swap2\n      swap1\n      tag_405\n      jump\t// in\n    tag_404:\n        /* \"contracts/fraud-detector/libs/rlp/RLPReader.sol\":9590:9621  byte0 - (STRING_LONG_START - 1) */\n      0xff\n      and\n        /* \"contracts/fraud-detector/libs/rlp/RLPReader.sol\":9590:9595  byte0 */\n      dup3\n        /* \"contracts/fraud-detector/libs/rlp/RLPReader.sol\":9590:9621  byte0 - (STRING_LONG_START - 1) */\n      tag_406\n      swap2\n      swap1\n      tag_353\n      jump\t// in\n    tag_406:\n        /* \"contracts/fraud-detector/libs/rlp/RLPReader.sol\":9590:9625  byte0 - (STRING_LONG_START - 1) + 1 */\n      tag_407\n      swap2\n      swap1\n      tag_312\n      jump\t// in\n    tag_407:\n        /* \"contracts/fraud-detector/libs/rlp/RLPReader.sol\":9583:9625  return byte0 - (STRING_LONG_START - 1) + 1 */\n      swap2\n      pop\n      pop\n      jump(tag_396)\n        /* \"contracts/fraud-detector/libs/rlp/RLPReader.sol\":9509:9707  if (byte0 < LIST_SHORT_START) {... */\n    tag_403:\n        /* \"contracts/fraud-detector/libs/rlp/RLPReader.sol\":9695:9696  1 */\n      0x01\n        /* \"contracts/fraud-detector/libs/rlp/RLPReader.sol\":9690:9691  1 */\n      dup1\n        /* \"contracts/fraud-detector/libs/rlp/RLPReader.sol\":371:375  0xf8 */\n      0xf8\n        /* \"contracts/fraud-detector/libs/rlp/RLPReader.sol\":9672:9691  LIST_LONG_START - 1 */\n      tag_409\n      swap2\n      swap1\n      tag_405\n      jump\t// in\n    tag_409:\n        /* \"contracts/fraud-detector/libs/rlp/RLPReader.sol\":9663:9692  byte0 - (LIST_LONG_START - 1) */\n      0xff\n      and\n        /* \"contracts/fraud-detector/libs/rlp/RLPReader.sol\":9663:9668  byte0 */\n      dup3\n        /* \"contracts/fraud-detector/libs/rlp/RLPReader.sol\":9663:9692  byte0 - (LIST_LONG_START - 1) */\n      tag_410\n      swap2\n      swap1\n      tag_353\n      jump\t// in\n    tag_410:\n        /* \"contracts/fraud-detector/libs/rlp/RLPReader.sol\":9663:9696  byte0 - (LIST_LONG_START - 1) + 1 */\n      tag_411\n      swap2\n      swap1\n      tag_312\n      jump\t// in\n    tag_411:\n        /* \"contracts/fraud-detector/libs/rlp/RLPReader.sol\":9656:9696  return byte0 - (LIST_LONG_START - 1) + 1 */\n      swap2\n      pop\n      pop\n        /* \"contracts/fraud-detector/libs/rlp/RLPReader.sol\":9132:9713  function _payloadOffset(uint256 memPtr) private pure returns (uint256) {... */\n    tag_396:\n      swap2\n      swap1\n      pop\n      jump\t// out\n        /* \"contracts/fraud-detector/libs/rlp/RLPReader.sol\":7817:9080  function _itemLength(uint256 memPtr) private pure returns (uint256) {... */\n    tag_317:\n        /* \"contracts/fraud-detector/libs/rlp/RLPReader.sol\":7876:7883  uint256 */\n      0x00\n        /* \"contracts/fraud-detector/libs/rlp/RLPReader.sol\":7895:7910  uint256 itemLen */\n      dup1\n        /* \"contracts/fraud-detector/libs/rlp/RLPReader.sol\":7920:7933  uint256 byte0 */\n      0x00\n        /* \"contracts/fraud-detector/libs/rlp/RLPReader.sol\":7989:7995  memPtr */\n      dup4\n        /* \"contracts/fraud-detector/libs/rlp/RLPReader.sol\":7983:7996  mload(memPtr) */\n      mload\n        /* \"contracts/fraud-detector/libs/rlp/RLPReader.sol\":7980:7981  0 */\n      0x00\n        /* \"contracts/fraud-detector/libs/rlp/RLPReader.sol\":7975:7997  byte(0, mload(memPtr)) */\n      byte\n        /* \"contracts/fraud-detector/libs/rlp/RLPReader.sol\":7966:7997  byte0 := byte(0, mload(memPtr)) */\n      swap1\n      pop\n        /* \"contracts/fraud-detector/libs/rlp/RLPReader.sol\":239:243  0x80 */\n      0x80\n        /* \"contracts/fraud-detector/libs/rlp/RLPReader.sol\":8021:8047  byte0 < STRING_SHORT_START */\n      0xff\n      and\n        /* \"contracts/fraud-detector/libs/rlp/RLPReader.sol\":8021:8026  byte0 */\n      dup2\n        /* \"contracts/fraud-detector/libs/rlp/RLPReader.sol\":8021:8047  byte0 < STRING_SHORT_START */\n      lt\n        /* \"contracts/fraud-detector/libs/rlp/RLPReader.sol\":8017:9049  if (byte0 < STRING_SHORT_START) {... */\n      iszero\n      tag_413\n      jumpi\n        /* \"contracts/fraud-detector/libs/rlp/RLPReader.sol\":8073:8074  1 */\n      0x01\n        /* \"contracts/fraud-detector/libs/rlp/RLPReader.sol\":8063:8074  itemLen = 1 */\n      swap2\n      pop\n        /* \"contracts/fraud-detector/libs/rlp/RLPReader.sol\":8017:9049  if (byte0 < STRING_SHORT_START) {... */\n      jump(tag_414)\n    tag_413:\n        /* \"contracts/fraud-detector/libs/rlp/RLPReader.sol\":284:288  0xb8 */\n      0xb8\n        /* \"contracts/fraud-detector/libs/rlp/RLPReader.sol\":8095:8120  byte0 < STRING_LONG_START */\n      0xff\n      and\n        /* \"contracts/fraud-detector/libs/rlp/RLPReader.sol\":8095:8100  byte0 */\n      dup2\n        /* \"contracts/fraud-detector/libs/rlp/RLPReader.sol\":8095:8120  byte0 < STRING_LONG_START */\n      lt\n        /* \"contracts/fraud-detector/libs/rlp/RLPReader.sol\":8091:9049  if (byte0 < STRING_LONG_START) {... */\n      iszero\n      tag_415\n      jumpi\n        /* \"contracts/fraud-detector/libs/rlp/RLPReader.sol\":8175:8176  1 */\n      0x01\n        /* \"contracts/fraud-detector/libs/rlp/RLPReader.sol\":239:243  0x80 */\n      0x80\n        /* \"contracts/fraud-detector/libs/rlp/RLPReader.sol\":8146:8172  byte0 - STRING_SHORT_START */\n      0xff\n      and\n        /* \"contracts/fraud-detector/libs/rlp/RLPReader.sol\":8146:8151  byte0 */\n      dup3\n        /* \"contracts/fraud-detector/libs/rlp/RLPReader.sol\":8146:8172  byte0 - STRING_SHORT_START */\n      tag_416\n      swap2\n      swap1\n      tag_353\n      jump\t// in\n    tag_416:\n        /* \"contracts/fraud-detector/libs/rlp/RLPReader.sol\":8146:8176  byte0 - STRING_SHORT_START + 1 */\n      tag_417\n      swap2\n      swap1\n      tag_312\n      jump\t// in\n    tag_417:\n        /* \"contracts/fraud-detector/libs/rlp/RLPReader.sol\":8136:8176  itemLen = byte0 - STRING_SHORT_START + 1 */\n      swap2\n      pop\n        /* \"contracts/fraud-detector/libs/rlp/RLPReader.sol\":8091:9049  if (byte0 < STRING_LONG_START) {... */\n      jump(tag_418)\n    tag_415:\n        /* \"contracts/fraud-detector/libs/rlp/RLPReader.sol\":328:332  0xc0 */\n      0xc0\n        /* \"contracts/fraud-detector/libs/rlp/RLPReader.sol\":8197:8221  byte0 < LIST_SHORT_START */\n      0xff\n      and\n        /* \"contracts/fraud-detector/libs/rlp/RLPReader.sol\":8197:8202  byte0 */\n      dup2\n        /* \"contracts/fraud-detector/libs/rlp/RLPReader.sol\":8197:8221  byte0 < LIST_SHORT_START */\n      lt\n        /* \"contracts/fraud-detector/libs/rlp/RLPReader.sol\":8193:9049  if (byte0 < LIST_SHORT_START) {... */\n      iszero\n      tag_419\n      jumpi\n        /* \"contracts/fraud-detector/libs/rlp/RLPReader.sol\":8290:8294  0xb7 */\n      0xb7\n        /* \"contracts/fraud-detector/libs/rlp/RLPReader.sol\":8283:8288  byte0 */\n      dup2\n        /* \"contracts/fraud-detector/libs/rlp/RLPReader.sol\":8279:8295  sub(byte0, 0xb7) */\n      sub\n        /* \"contracts/fraud-detector/libs/rlp/RLPReader.sol\":8369:8370  1 */\n      0x01\n        /* \"contracts/fraud-detector/libs/rlp/RLPReader.sol\":8361:8367  memPtr */\n      dup6\n        /* \"contracts/fraud-detector/libs/rlp/RLPReader.sol\":8357:8371  add(memPtr, 1) */\n      add\n        /* \"contracts/fraud-detector/libs/rlp/RLPReader.sol\":8347:8371  memPtr := add(memPtr, 1) */\n      swap5\n      pop\n        /* \"contracts/fraud-detector/libs/rlp/RLPReader.sol\":8508:8515  byteLen */\n      dup1\n        /* \"contracts/fraud-detector/libs/rlp/RLPReader.sol\":8504:8506  32 */\n      0x20\n        /* \"contracts/fraud-detector/libs/rlp/RLPReader.sol\":8500:8516  sub(32, byteLen) */\n      sub\n        /* \"contracts/fraud-detector/libs/rlp/RLPReader.sol\":8495:8498  256 */\n      0x0100\n        /* \"contracts/fraud-detector/libs/rlp/RLPReader.sol\":8491:8517  exp(256, sub(32, byteLen)) */\n      exp\n        /* \"contracts/fraud-detector/libs/rlp/RLPReader.sol\":8482:8488  memPtr */\n      dup6\n        /* \"contracts/fraud-detector/libs/rlp/RLPReader.sol\":8476:8489  mload(memPtr) */\n      mload\n        /* \"contracts/fraud-detector/libs/rlp/RLPReader.sol\":8472:8518  div(mload(memPtr), exp(256, sub(32, byteLen))) */\n      div\n        /* \"contracts/fraud-detector/libs/rlp/RLPReader.sol\":8605:8606  1 */\n      0x01\n        /* \"contracts/fraud-detector/libs/rlp/RLPReader.sol\":8596:8603  byteLen */\n      dup3\n        /* \"contracts/fraud-detector/libs/rlp/RLPReader.sol\":8592:8607  add(byteLen, 1) */\n      add\n        /* \"contracts/fraud-detector/libs/rlp/RLPReader.sol\":8583:8590  dataLen */\n      dup2\n        /* \"contracts/fraud-detector/libs/rlp/RLPReader.sol\":8579:8608  add(dataLen, add(byteLen, 1)) */\n      add\n        /* \"contracts/fraud-detector/libs/rlp/RLPReader.sol\":8568:8608  itemLen := add(dataLen, add(byteLen, 1)) */\n      swap4\n      pop\n        /* \"contracts/fraud-detector/libs/rlp/RLPReader.sol\":8246:8622  {... */\n      pop\n      pop\n        /* \"contracts/fraud-detector/libs/rlp/RLPReader.sol\":8193:9049  if (byte0 < LIST_SHORT_START) {... */\n      jump(tag_420)\n    tag_419:\n        /* \"contracts/fraud-detector/libs/rlp/RLPReader.sol\":371:375  0xf8 */\n      0xf8\n        /* \"contracts/fraud-detector/libs/rlp/RLPReader.sol\":8642:8665  byte0 < LIST_LONG_START */\n      0xff\n      and\n        /* \"contracts/fraud-detector/libs/rlp/RLPReader.sol\":8642:8647  byte0 */\n      dup2\n        /* \"contracts/fraud-detector/libs/rlp/RLPReader.sol\":8642:8665  byte0 < LIST_LONG_START */\n      lt\n        /* \"contracts/fraud-detector/libs/rlp/RLPReader.sol\":8638:9049  if (byte0 < LIST_LONG_START) {... */\n      iszero\n      tag_421\n      jumpi\n        /* \"contracts/fraud-detector/libs/rlp/RLPReader.sol\":8718:8719  1 */\n      0x01\n        /* \"contracts/fraud-detector/libs/rlp/RLPReader.sol\":328:332  0xc0 */\n      0xc0\n        /* \"contracts/fraud-detector/libs/rlp/RLPReader.sol\":8691:8715  byte0 - LIST_SHORT_START */\n      0xff\n      and\n        /* \"contracts/fraud-detector/libs/rlp/RLPReader.sol\":8691:8696  byte0 */\n      dup3\n        /* \"contracts/fraud-detector/libs/rlp/RLPReader.sol\":8691:8715  byte0 - LIST_SHORT_START */\n      tag_422\n      swap2\n      swap1\n      tag_353\n      jump\t// in\n    tag_422:\n        /* \"contracts/fraud-detector/libs/rlp/RLPReader.sol\":8691:8719  byte0 - LIST_SHORT_START + 1 */\n      tag_423\n      swap2\n      swap1\n      tag_312\n      jump\t// in\n    tag_423:\n        /* \"contracts/fraud-detector/libs/rlp/RLPReader.sol\":8681:8719  itemLen = byte0 - LIST_SHORT_START + 1 */\n      swap2\n      pop\n        /* \"contracts/fraud-detector/libs/rlp/RLPReader.sol\":8638:9049  if (byte0 < LIST_LONG_START) {... */\n      jump(tag_424)\n    tag_421:\n        /* \"contracts/fraud-detector/libs/rlp/RLPReader.sol\":8803:8807  0xf7 */\n      0xf7\n        /* \"contracts/fraud-detector/libs/rlp/RLPReader.sol\":8796:8801  byte0 */\n      dup2\n        /* \"contracts/fraud-detector/libs/rlp/RLPReader.sol\":8792:8808  sub(byte0, 0xf7) */\n      sub\n        /* \"contracts/fraud-detector/libs/rlp/RLPReader.sol\":8847:8848  1 */\n      0x01\n        /* \"contracts/fraud-detector/libs/rlp/RLPReader.sol\":8839:8845  memPtr */\n      dup6\n        /* \"contracts/fraud-detector/libs/rlp/RLPReader.sol\":8835:8849  add(memPtr, 1) */\n      add\n        /* \"contracts/fraud-detector/libs/rlp/RLPReader.sol\":8825:8849  memPtr := add(memPtr, 1) */\n      swap5\n      pop\n        /* \"contracts/fraud-detector/libs/rlp/RLPReader.sol\":8918:8925  byteLen */\n      dup1\n        /* \"contracts/fraud-detector/libs/rlp/RLPReader.sol\":8914:8916  32 */\n      0x20\n        /* \"contracts/fraud-detector/libs/rlp/RLPReader.sol\":8910:8926  sub(32, byteLen) */\n      sub\n        /* \"contracts/fraud-detector/libs/rlp/RLPReader.sol\":8905:8908  256 */\n      0x0100\n        /* \"contracts/fraud-detector/libs/rlp/RLPReader.sol\":8901:8927  exp(256, sub(32, byteLen)) */\n      exp\n        /* \"contracts/fraud-detector/libs/rlp/RLPReader.sol\":8892:8898  memPtr */\n      dup6\n        /* \"contracts/fraud-detector/libs/rlp/RLPReader.sol\":8886:8899  mload(memPtr) */\n      mload\n        /* \"contracts/fraud-detector/libs/rlp/RLPReader.sol\":8882:8928  div(mload(memPtr), exp(256, sub(32, byteLen))) */\n      div\n        /* \"contracts/fraud-detector/libs/rlp/RLPReader.sol\":9022:9023  1 */\n      0x01\n        /* \"contracts/fraud-detector/libs/rlp/RLPReader.sol\":9013:9020  byteLen */\n      dup3\n        /* \"contracts/fraud-detector/libs/rlp/RLPReader.sol\":9009:9024  add(byteLen, 1) */\n      add\n        /* \"contracts/fraud-detector/libs/rlp/RLPReader.sol\":9000:9007  dataLen */\n      dup2\n        /* \"contracts/fraud-detector/libs/rlp/RLPReader.sol\":8996:9025  add(dataLen, add(byteLen, 1)) */\n      add\n        /* \"contracts/fraud-detector/libs/rlp/RLPReader.sol\":8985:9025  itemLen := add(dataLen, add(byteLen, 1)) */\n      swap4\n      pop\n        /* \"contracts/fraud-detector/libs/rlp/RLPReader.sol\":8759:9039  {... */\n      pop\n      pop\n        /* \"contracts/fraud-detector/libs/rlp/RLPReader.sol\":8638:9049  if (byte0 < LIST_LONG_START) {... */\n    tag_424:\n        /* \"contracts/fraud-detector/libs/rlp/RLPReader.sol\":8193:9049  if (byte0 < LIST_SHORT_START) {... */\n    tag_420:\n        /* \"contracts/fraud-detector/libs/rlp/RLPReader.sol\":8091:9049  if (byte0 < STRING_LONG_START) {... */\n    tag_418:\n        /* \"contracts/fraud-detector/libs/rlp/RLPReader.sol\":8017:9049  if (byte0 < STRING_SHORT_START) {... */\n    tag_414:\n        /* \"contracts/fraud-detector/libs/rlp/RLPReader.sol\":9066:9073  itemLen */\n      dup2\n        /* \"contracts/fraud-detector/libs/rlp/RLPReader.sol\":9059:9073  return itemLen */\n      swap3\n      pop\n      pop\n      pop\n        /* \"contracts/fraud-detector/libs/rlp/RLPReader.sol\":7817:9080  function _itemLength(uint256 memPtr) private pure returns (uint256) {... */\n      swap2\n      swap1\n      pop\n      jump\t// out\n        /* \"contracts/fraud-detector/libs/rlp/RLPReader.sol\":9871:10639  function copy(uint256 src, uint256 dest, uint256 len) private pure {... */\n    tag_341:\n        /* \"contracts/fraud-detector/libs/rlp/RLPReader.sol\":9959:9960  0 */\n      0x00\n        /* \"contracts/fraud-detector/libs/rlp/RLPReader.sol\":9952:9955  len */\n      dup2\n        /* \"contracts/fraud-detector/libs/rlp/RLPReader.sol\":9952:9960  len == 0 */\n      sub\n        /* \"contracts/fraud-detector/libs/rlp/RLPReader.sol\":9948:9969  if (len == 0) return; */\n      iszero\n        /* \"contracts/fraud-detector/libs/rlp/RLPReader.sol\":9962:9969  return; */\n      tag_425\n        /* \"contracts/fraud-detector/libs/rlp/RLPReader.sol\":9948:9969  if (len == 0) return; */\n      jumpi\n        /* \"contracts/fraud-detector/libs/rlp/RLPReader.sol\":10026:10220  for (; len >= WORD_SIZE; len -= WORD_SIZE) {... */\n    tag_427:\n        /* \"contracts/fraud-detector/libs/rlp/RLPReader.sol\":408:410  32 */\n      0x20\n        /* \"contracts/fraud-detector/libs/rlp/RLPReader.sol\":10033:10049  len >= WORD_SIZE */\n      0xff\n      and\n        /* \"contracts/fraud-detector/libs/rlp/RLPReader.sol\":10033:10036  len */\n      dup2\n        /* \"contracts/fraud-detector/libs/rlp/RLPReader.sol\":10033:10049  len >= WORD_SIZE */\n      lt\n        /* \"contracts/fraud-detector/libs/rlp/RLPReader.sol\":10026:10220  for (; len >= WORD_SIZE; len -= WORD_SIZE) {... */\n      tag_428\n      jumpi\n        /* \"contracts/fraud-detector/libs/rlp/RLPReader.sol\":10129:10132  src */\n      dup3\n        /* \"contracts/fraud-detector/libs/rlp/RLPReader.sol\":10123:10133  mload(src) */\n      mload\n        /* \"contracts/fraud-detector/libs/rlp/RLPReader.sol\":10117:10121  dest */\n      dup3\n        /* \"contracts/fraud-detector/libs/rlp/RLPReader.sol\":10110:10134  mstore(dest, mload(src)) */\n      mstore\n        /* \"contracts/fraud-detector/libs/rlp/RLPReader.sol\":408:410  32 */\n      0x20\n        /* \"contracts/fraud-detector/libs/rlp/RLPReader.sol\":10162:10178  src += WORD_SIZE */\n      0xff\n      and\n      dup4\n      tag_430\n      swap2\n      swap1\n      tag_312\n      jump\t// in\n    tag_430:\n      swap3\n      pop\n        /* \"contracts/fraud-detector/libs/rlp/RLPReader.sol\":408:410  32 */\n      0x20\n        /* \"contracts/fraud-detector/libs/rlp/RLPReader.sol\":10192:10209  dest += WORD_SIZE */\n      0xff\n      and\n      dup3\n      tag_431\n      swap2\n      swap1\n      tag_312\n      jump\t// in\n    tag_431:\n      swap2\n      pop\n        /* \"contracts/fraud-detector/libs/rlp/RLPReader.sol\":408:410  32 */\n      0x20\n        /* \"contracts/fraud-detector/libs/rlp/RLPReader.sol\":10051:10067  len -= WORD_SIZE */\n      0xff\n      and\n      dup2\n      tag_432\n      swap2\n      swap1\n      tag_353\n      jump\t// in\n    tag_432:\n      swap1\n      pop\n        /* \"contracts/fraud-detector/libs/rlp/RLPReader.sol\":10026:10220  for (; len >= WORD_SIZE; len -= WORD_SIZE) {... */\n      jump(tag_427)\n    tag_428:\n        /* \"contracts/fraud-detector/libs/rlp/RLPReader.sol\":10240:10241  0 */\n      0x00\n        /* \"contracts/fraud-detector/libs/rlp/RLPReader.sol\":10234:10237  len */\n      dup2\n        /* \"contracts/fraud-detector/libs/rlp/RLPReader.sol\":10234:10241  len > 0 */\n      gt\n        /* \"contracts/fraud-detector/libs/rlp/RLPReader.sol\":10230:10633  if (len > 0) {... */\n      iszero\n      tag_433\n      jumpi\n        /* \"contracts/fraud-detector/libs/rlp/RLPReader.sol\":10341:10353  uint256 mask */\n      0x00\n        /* \"contracts/fraud-detector/libs/rlp/RLPReader.sol\":10381:10382  1 */\n      0x01\n        /* \"contracts/fraud-detector/libs/rlp/RLPReader.sol\":10374:10377  len */\n      dup3\n        /* \"contracts/fraud-detector/libs/rlp/RLPReader.sol\":408:410  32 */\n      0x20\n        /* \"contracts/fraud-detector/libs/rlp/RLPReader.sol\":10362:10377  WORD_SIZE - len */\n      0xff\n      and\n      tag_434\n      swap2\n      swap1\n      tag_353\n      jump\t// in\n    tag_434:\n        /* \"contracts/fraud-detector/libs/rlp/RLPReader.sol\":10356:10359  256 */\n      0x0100\n        /* \"contracts/fraud-detector/libs/rlp/RLPReader.sol\":10356:10378  256**(WORD_SIZE - len) */\n      tag_435\n      swap2\n      swap1\n      tag_436\n      jump\t// in\n    tag_435:\n        /* \"contracts/fraud-detector/libs/rlp/RLPReader.sol\":10356:10382  256**(WORD_SIZE - len) - 1 */\n      tag_437\n      swap2\n      swap1\n      tag_353\n      jump\t// in\n    tag_437:\n        /* \"contracts/fraud-detector/libs/rlp/RLPReader.sol\":10341:10382  uint256 mask = 256**(WORD_SIZE - len) - 1 */\n      swap1\n      pop\n        /* \"contracts/fraud-detector/libs/rlp/RLPReader.sol\":10458:10462  mask */\n      dup1\n        /* \"contracts/fraud-detector/libs/rlp/RLPReader.sol\":10454:10463  not(mask) */\n      not\n        /* \"contracts/fraud-detector/libs/rlp/RLPReader.sol\":10448:10451  src */\n      dup5\n        /* \"contracts/fraud-detector/libs/rlp/RLPReader.sol\":10442:10452  mload(src) */\n      mload\n        /* \"contracts/fraud-detector/libs/rlp/RLPReader.sol\":10438:10464  and(mload(src), not(mask)) */\n      and\n        /* \"contracts/fraud-detector/libs/rlp/RLPReader.sol\":10530:10534  mask */\n      dup2\n        /* \"contracts/fraud-detector/libs/rlp/RLPReader.sol\":10523:10527  dest */\n      dup5\n        /* \"contracts/fraud-detector/libs/rlp/RLPReader.sol\":10517:10528  mload(dest) */\n      mload\n        /* \"contracts/fraud-detector/libs/rlp/RLPReader.sol\":10513:10535  and(mload(dest), mask) */\n      and\n        /* \"contracts/fraud-detector/libs/rlp/RLPReader.sol\":10600:10607  srcpart */\n      dup2\n        /* \"contracts/fraud-detector/libs/rlp/RLPReader.sol\":10590:10598  destpart */\n      dup2\n        /* \"contracts/fraud-detector/libs/rlp/RLPReader.sol\":10587:10608  or(destpart, srcpart) */\n      or\n        /* \"contracts/fraud-detector/libs/rlp/RLPReader.sol\":10581:10585  dest */\n      dup6\n        /* \"contracts/fraud-detector/libs/rlp/RLPReader.sol\":10574:10609  mstore(dest, or(destpart, srcpart)) */\n      mstore\n        /* \"contracts/fraud-detector/libs/rlp/RLPReader.sol\":10405:10623  {... */\n      pop\n      pop\n      pop\n        /* \"contracts/fraud-detector/libs/rlp/RLPReader.sol\":10230:10633  if (len > 0) {... */\n    tag_433:\n        /* \"contracts/fraud-detector/libs/rlp/RLPReader.sol\":9871:10639  function copy(uint256 src, uint256 dest, uint256 len) private pure {... */\n    tag_425:\n      pop\n      pop\n      pop\n      jump\t// out\n    tag_291:\n      mload(0x40)\n      dup1\n      0x40\n      add\n      0x40\n      mstore\n      dup1\n      0x00\n      dup2\n      mstore\n      0x20\n      add\n      0x00\n      dup2\n      mstore\n      pop\n      swap1\n      jump\t// out\n    tag_357:\n      mload(0x40)\n      dup1\n      0x40\n      add\n      0x40\n      mstore\n      dup1\n      tag_438\n      tag_291\n      jump\t// in\n    tag_438:\n      dup2\n      mstore\n      0x20\n      add\n      0x00\n      dup2\n      mstore\n      pop\n      swap1\n      jump\t// out\n        /* \"#utility.yul\":7:82   */\n    tag_439:\n        /* \"#utility.yul\":40:46   */\n      0x00\n        /* \"#utility.yul\":73:75   */\n      0x40\n        /* \"#utility.yul\":67:76   */\n      mload\n        /* \"#utility.yul\":57:76   */\n      swap1\n      pop\n        /* \"#utility.yul\":7:82   */\n      swap1\n      jump\t// out\n        /* \"#utility.yul\":88:205   */\n    tag_440:\n        /* \"#utility.yul\":197:198   */\n      0x00\n        /* \"#utility.yul\":194:195   */\n      dup1\n        /* \"#utility.yul\":187:199   */\n      revert\n        /* \"#utility.yul\":211:328   */\n    tag_441:\n        /* \"#utility.yul\":320:321   */\n      0x00\n        /* \"#utility.yul\":317:318   */\n      dup1\n        /* \"#utility.yul\":310:322   */\n      revert\n        /* \"#utility.yul\":334:451   */\n    tag_442:\n        /* \"#utility.yul\":443:444   */\n      0x00\n        /* \"#utility.yul\":440:441   */\n      dup1\n        /* \"#utility.yul\":433:445   */\n      revert\n        /* \"#utility.yul\":457:574   */\n    tag_443:\n        /* \"#utility.yul\":566:567   */\n      0x00\n        /* \"#utility.yul\":563:564   */\n      dup1\n        /* \"#utility.yul\":556:568   */\n      revert\n        /* \"#utility.yul\":580:682   */\n    tag_444:\n        /* \"#utility.yul\":621:627   */\n      0x00\n        /* \"#utility.yul\":672:674   */\n      0x1f\n        /* \"#utility.yul\":668:675   */\n      not\n        /* \"#utility.yul\":663:665   */\n      0x1f\n        /* \"#utility.yul\":656:661   */\n      dup4\n        /* \"#utility.yul\":652:666   */\n      add\n        /* \"#utility.yul\":648:676   */\n      and\n        /* \"#utility.yul\":638:676   */\n      swap1\n      pop\n        /* \"#utility.yul\":580:682   */\n      swap2\n      swap1\n      pop\n      jump\t// out\n        /* \"#utility.yul\":688:868   */\n    tag_305:\n        /* \"#utility.yul\":736:813   */\n      0x4e487b7100000000000000000000000000000000000000000000000000000000\n        /* \"#utility.yul\":733:734   */\n      0x00\n        /* \"#utility.yul\":726:814   */\n      mstore\n        /* \"#utility.yul\":833:837   */\n      0x41\n        /* \"#utility.yul\":830:831   */\n      0x04\n        /* \"#utility.yul\":823:838   */\n      mstore\n        /* \"#utility.yul\":857:861   */\n      0x24\n        /* \"#utility.yul\":854:855   */\n      0x00\n        /* \"#utility.yul\":847:862   */\n      revert\n        /* \"#utility.yul\":874:1155   */\n    tag_445:\n        /* \"#utility.yul\":957:984   */\n      tag_481\n        /* \"#utility.yul\":979:983   */\n      dup3\n        /* \"#utility.yul\":957:984   */\n      tag_444\n      jump\t// in\n    tag_481:\n        /* \"#utility.yul\":949:955   */\n      dup2\n        /* \"#utility.yul\":945:985   */\n      add\n        /* \"#utility.yul\":1087:1093   */\n      dup2\n        /* \"#utility.yul\":1075:1085   */\n      dup2\n        /* \"#utility.yul\":1072:1094   */\n      lt\n        /* \"#utility.yul\":1051:1069   */\n      0xffffffffffffffff\n        /* \"#utility.yul\":1039:1049   */\n      dup3\n        /* \"#utility.yul\":1036:1070   */\n      gt\n        /* \"#utility.yul\":1033:1095   */\n      or\n        /* \"#utility.yul\":1030:1118   */\n      iszero\n      tag_482\n      jumpi\n        /* \"#utility.yul\":1098:1116   */\n      tag_483\n      tag_305\n      jump\t// in\n    tag_483:\n        /* \"#utility.yul\":1030:1118   */\n    tag_482:\n        /* \"#utility.yul\":1138:1148   */\n      dup1\n        /* \"#utility.yul\":1134:1136   */\n      0x40\n        /* \"#utility.yul\":1127:1149   */\n      mstore\n        /* \"#utility.yul\":917:1155   */\n      pop\n        /* \"#utility.yul\":874:1155   */\n      pop\n      pop\n      jump\t// out\n        /* \"#utility.yul\":1161:1290   */\n    tag_446:\n        /* \"#utility.yul\":1195:1201   */\n      0x00\n        /* \"#utility.yul\":1222:1242   */\n      tag_485\n      tag_439\n      jump\t// in\n    tag_485:\n        /* \"#utility.yul\":1212:1242   */\n      swap1\n      pop\n        /* \"#utility.yul\":1251:1284   */\n      tag_486\n        /* \"#utility.yul\":1279:1283   */\n      dup3\n        /* \"#utility.yul\":1271:1277   */\n      dup3\n        /* \"#utility.yul\":1251:1284   */\n      tag_445\n      jump\t// in\n    tag_486:\n        /* \"#utility.yul\":1161:1290   */\n      swap2\n      swap1\n      pop\n      jump\t// out\n        /* \"#utility.yul\":1296:1603   */\n    tag_447:\n        /* \"#utility.yul\":1357:1361   */\n      0x00\n        /* \"#utility.yul\":1447:1465   */\n      0xffffffffffffffff\n        /* \"#utility.yul\":1439:1445   */\n      dup3\n        /* \"#utility.yul\":1436:1466   */\n      gt\n        /* \"#utility.yul\":1433:1489   */\n      iszero\n      tag_488\n      jumpi\n        /* \"#utility.yul\":1469:1487   */\n      tag_489\n      tag_305\n      jump\t// in\n    tag_489:\n        /* \"#utility.yul\":1433:1489   */\n    tag_488:\n        /* \"#utility.yul\":1507:1536   */\n      tag_490\n        /* \"#utility.yul\":1529:1535   */\n      dup3\n        /* \"#utility.yul\":1507:1536   */\n      tag_444\n      jump\t// in\n    tag_490:\n        /* \"#utility.yul\":1499:1536   */\n      swap1\n      pop\n        /* \"#utility.yul\":1591:1595   */\n      0x20\n        /* \"#utility.yul\":1585:1589   */\n      dup2\n        /* \"#utility.yul\":1581:1596   */\n      add\n        /* \"#utility.yul\":1573:1596   */\n      swap1\n      pop\n        /* \"#utility.yul\":1296:1603   */\n      swap2\n      swap1\n      pop\n      jump\t// out\n        /* \"#utility.yul\":1609:1755   */\n    tag_448:\n        /* \"#utility.yul\":1706:1712   */\n      dup3\n        /* \"#utility.yul\":1701:1704   */\n      dup2\n        /* \"#utility.yul\":1696:1699   */\n      dup4\n        /* \"#utility.yul\":1683:1713   */\n      calldatacopy\n        /* \"#utility.yul\":1747:1748   */\n      0x00\n        /* \"#utility.yul\":1738:1744   */\n      dup4\n        /* \"#utility.yul\":1733:1736   */\n      dup4\n        /* \"#utility.yul\":1729:1745   */\n      add\n        /* \"#utility.yul\":1722:1749   */\n      mstore\n        /* \"#utility.yul\":1609:1755   */\n      pop\n      pop\n      pop\n      jump\t// out\n        /* \"#utility.yul\":1761:2184   */\n    tag_449:\n        /* \"#utility.yul\":1838:1843   */\n      0x00\n        /* \"#utility.yul\":1863:1928   */\n      tag_493\n        /* \"#utility.yul\":1879:1927   */\n      tag_494\n        /* \"#utility.yul\":1920:1926   */\n      dup5\n        /* \"#utility.yul\":1879:1927   */\n      tag_447\n      jump\t// in\n    tag_494:\n        /* \"#utility.yul\":1863:1928   */\n      tag_446\n      jump\t// in\n    tag_493:\n        /* \"#utility.yul\":1854:1928   */\n      swap1\n      pop\n        /* \"#utility.yul\":1951:1957   */\n      dup3\n        /* \"#utility.yul\":1944:1949   */\n      dup2\n        /* \"#utility.yul\":1937:1958   */\n      mstore\n        /* \"#utility.yul\":1989:1993   */\n      0x20\n        /* \"#utility.yul\":1982:1987   */\n      dup2\n        /* \"#utility.yul\":1978:1994   */\n      add\n        /* \"#utility.yul\":2027:2030   */\n      dup5\n        /* \"#utility.yul\":2018:2024   */\n      dup5\n        /* \"#utility.yul\":2013:2016   */\n      dup5\n        /* \"#utility.yul\":2009:2025   */\n      add\n        /* \"#utility.yul\":2006:2031   */\n      gt\n        /* \"#utility.yul\":2003:2115   */\n      iszero\n      tag_495\n      jumpi\n        /* \"#utility.yul\":2034:2113   */\n      tag_496\n      tag_443\n      jump\t// in\n    tag_496:\n        /* \"#utility.yul\":2003:2115   */\n    tag_495:\n        /* \"#utility.yul\":2124:2178   */\n      tag_497\n        /* \"#utility.yul\":2171:2177   */\n      dup5\n        /* \"#utility.yul\":2166:2169   */\n      dup3\n        /* \"#utility.yul\":2161:2164   */\n      dup6\n        /* \"#utility.yul\":2124:2178   */\n      tag_448\n      jump\t// in\n    tag_497:\n        /* \"#utility.yul\":1844:2184   */\n      pop\n        /* \"#utility.yul\":1761:2184   */\n      swap4\n      swap3\n      pop\n      pop\n      pop\n      jump\t// out\n        /* \"#utility.yul\":2203:2541   */\n    tag_450:\n        /* \"#utility.yul\":2258:2263   */\n      0x00\n        /* \"#utility.yul\":2307:2310   */\n      dup3\n        /* \"#utility.yul\":2300:2304   */\n      0x1f\n        /* \"#utility.yul\":2292:2298   */\n      dup4\n        /* \"#utility.yul\":2288:2305   */\n      add\n        /* \"#utility.yul\":2284:2311   */\n      slt\n        /* \"#utility.yul\":2274:2396   */\n      tag_499\n      jumpi\n        /* \"#utility.yul\":2315:2394   */\n      tag_500\n      tag_442\n      jump\t// in\n    tag_500:\n        /* \"#utility.yul\":2274:2396   */\n    tag_499:\n        /* \"#utility.yul\":2432:2438   */\n      dup2\n        /* \"#utility.yul\":2419:2439   */\n      calldataload\n        /* \"#utility.yul\":2457:2535   */\n      tag_501\n        /* \"#utility.yul\":2531:2534   */\n      dup5\n        /* \"#utility.yul\":2523:2529   */\n      dup3\n        /* \"#utility.yul\":2516:2520   */\n      0x20\n        /* \"#utility.yul\":2508:2514   */\n      dup7\n        /* \"#utility.yul\":2504:2521   */\n      add\n        /* \"#utility.yul\":2457:2535   */\n      tag_449\n      jump\t// in\n    tag_501:\n        /* \"#utility.yul\":2448:2535   */\n      swap2\n      pop\n        /* \"#utility.yul\":2264:2541   */\n      pop\n        /* \"#utility.yul\":2203:2541   */\n      swap3\n      swap2\n      pop\n      pop\n      jump\t// out\n        /* \"#utility.yul\":2547:3054   */\n    tag_29:\n        /* \"#utility.yul\":2615:2621   */\n      0x00\n        /* \"#utility.yul\":2664:2666   */\n      0x20\n        /* \"#utility.yul\":2652:2661   */\n      dup3\n        /* \"#utility.yul\":2643:2650   */\n      dup5\n        /* \"#utility.yul\":2639:2662   */\n      sub\n        /* \"#utility.yul\":2635:2667   */\n      slt\n        /* \"#utility.yul\":2632:2751   */\n      iszero\n      tag_503\n      jumpi\n        /* \"#utility.yul\":2670:2749   */\n      tag_504\n      tag_440\n      jump\t// in\n    tag_504:\n        /* \"#utility.yul\":2632:2751   */\n    tag_503:\n        /* \"#utility.yul\":2818:2819   */\n      0x00\n        /* \"#utility.yul\":2807:2816   */\n      dup3\n        /* \"#utility.yul\":2803:2820   */\n      add\n        /* \"#utility.yul\":2790:2821   */\n      calldataload\n        /* \"#utility.yul\":2848:2866   */\n      0xffffffffffffffff\n        /* \"#utility.yul\":2840:2846   */\n      dup2\n        /* \"#utility.yul\":2837:2867   */\n      gt\n        /* \"#utility.yul\":2834:2951   */\n      iszero\n      tag_505\n      jumpi\n        /* \"#utility.yul\":2870:2949   */\n      tag_506\n      tag_441\n      jump\t// in\n    tag_506:\n        /* \"#utility.yul\":2834:2951   */\n    tag_505:\n        /* \"#utility.yul\":2975:3037   */\n      tag_507\n        /* \"#utility.yul\":3029:3036   */\n      dup5\n        /* \"#utility.yul\":3020:3026   */\n      dup3\n        /* \"#utility.yul\":3009:3018   */\n      dup6\n        /* \"#utility.yul\":3005:3027   */\n      add\n        /* \"#utility.yul\":2975:3037   */\n      tag_450\n      jump\t// in\n    tag_507:\n        /* \"#utility.yul\":2965:3037   */\n      swap2\n      pop\n        /* \"#utility.yul\":2761:3047   */\n      pop\n        /* \"#utility.yul\":2547:3054   */\n      swap3\n      swap2\n      pop\n      pop\n      jump\t// out\n        /* \"#utility.yul\":3060:3150   */\n    tag_451:\n        /* \"#utility.yul\":3094:3101   */\n      0x00\n        /* \"#utility.yul\":3137:3142   */\n      dup2\n        /* \"#utility.yul\":3130:3143   */\n      iszero\n        /* \"#utility.yul\":3123:3144   */\n      iszero\n        /* \"#utility.yul\":3112:3144   */\n      swap1\n      pop\n        /* \"#utility.yul\":3060:3150   */\n      swap2\n      swap1\n      pop\n      jump\t// out\n        /* \"#utility.yul\":3156:3265   */\n    tag_452:\n        /* \"#utility.yul\":3237:3258   */\n      tag_510\n        /* \"#utility.yul\":3252:3257   */\n      dup2\n        /* \"#utility.yul\":3237:3258   */\n      tag_451\n      jump\t// in\n    tag_510:\n        /* \"#utility.yul\":3232:3235   */\n      dup3\n        /* \"#utility.yul\":3225:3259   */\n      mstore\n        /* \"#utility.yul\":3156:3265   */\n      pop\n      pop\n      jump\t// out\n        /* \"#utility.yul\":3271:3481   */\n    tag_32:\n        /* \"#utility.yul\":3358:3362   */\n      0x00\n        /* \"#utility.yul\":3396:3398   */\n      0x20\n        /* \"#utility.yul\":3385:3394   */\n      dup3\n        /* \"#utility.yul\":3381:3399   */\n      add\n        /* \"#utility.yul\":3373:3399   */\n      swap1\n      pop\n        /* \"#utility.yul\":3409:3474   */\n      tag_512\n        /* \"#utility.yul\":3471:3472   */\n      0x00\n        /* \"#utility.yul\":3460:3469   */\n      dup4\n        /* \"#utility.yul\":3456:3473   */\n      add\n        /* \"#utility.yul\":3447:3453   */\n      dup5\n        /* \"#utility.yul\":3409:3474   */\n      tag_452\n      jump\t// in\n    tag_512:\n        /* \"#utility.yul\":3271:3481   */\n      swap3\n      swap2\n      pop\n      pop\n      jump\t// out\n        /* \"#utility.yul\":3487:3613   */\n    tag_453:\n        /* \"#utility.yul\":3524:3531   */\n      0x00\n        /* \"#utility.yul\":3564:3606   */\n      0xffffffffffffffffffffffffffffffffffffffff\n        /* \"#utility.yul\":3557:3562   */\n      dup3\n        /* \"#utility.yul\":3553:3607   */\n      and\n        /* \"#utility.yul\":3542:3607   */\n      swap1\n      pop\n        /* \"#utility.yul\":3487:3613   */\n      swap2\n      swap1\n      pop\n      jump\t// out\n        /* \"#utility.yul\":3619:3715   */\n    tag_454:\n        /* \"#utility.yul\":3656:3663   */\n      0x00\n        /* \"#utility.yul\":3685:3709   */\n      tag_515\n        /* \"#utility.yul\":3703:3708   */\n      dup3\n        /* \"#utility.yul\":3685:3709   */\n      tag_453\n      jump\t// in\n    tag_515:\n        /* \"#utility.yul\":3674:3709   */\n      swap1\n      pop\n        /* \"#utility.yul\":3619:3715   */\n      swap2\n      swap1\n      pop\n      jump\t// out\n        /* \"#utility.yul\":3721:3839   */\n    tag_455:\n        /* \"#utility.yul\":3808:3832   */\n      tag_517\n        /* \"#utility.yul\":3826:3831   */\n      dup2\n        /* \"#utility.yul\":3808:3832   */\n      tag_454\n      jump\t// in\n    tag_517:\n        /* \"#utility.yul\":3803:3806   */\n      dup3\n        /* \"#utility.yul\":3796:3833   */\n      mstore\n        /* \"#utility.yul\":3721:3839   */\n      pop\n      pop\n      jump\t// out\n        /* \"#utility.yul\":3845:3922   */\n    tag_456:\n        /* \"#utility.yul\":3882:3889   */\n      0x00\n        /* \"#utility.yul\":3911:3916   */\n      dup2\n        /* \"#utility.yul\":3900:3916   */\n      swap1\n      pop\n        /* \"#utility.yul\":3845:3922   */\n      swap2\n      swap1\n      pop\n      jump\t// out\n        /* \"#utility.yul\":3928:4046   */\n    tag_457:\n        /* \"#utility.yul\":4015:4039   */\n      tag_520\n        /* \"#utility.yul\":4033:4038   */\n      dup2\n        /* \"#utility.yul\":4015:4039   */\n      tag_456\n      jump\t// in\n    tag_520:\n        /* \"#utility.yul\":4010:4013   */\n      dup3\n        /* \"#utility.yul\":4003:4040   */\n      mstore\n        /* \"#utility.yul\":3928:4046   */\n      pop\n      pop\n      jump\t// out\n        /* \"#utility.yul\":4052:4482   */\n    tag_37:\n        /* \"#utility.yul\":4195:4199   */\n      0x00\n        /* \"#utility.yul\":4233:4235   */\n      0x60\n        /* \"#utility.yul\":4222:4231   */\n      dup3\n        /* \"#utility.yul\":4218:4236   */\n      add\n        /* \"#utility.yul\":4210:4236   */\n      swap1\n      pop\n        /* \"#utility.yul\":4246:4317   */\n      tag_522\n        /* \"#utility.yul\":4314:4315   */\n      0x00\n        /* \"#utility.yul\":4303:4312   */\n      dup4\n        /* \"#utility.yul\":4299:4316   */\n      add\n        /* \"#utility.yul\":4290:4296   */\n      dup7\n        /* \"#utility.yul\":4246:4317   */\n      tag_455\n      jump\t// in\n    tag_522:\n        /* \"#utility.yul\":4327:4393   */\n      tag_523\n        /* \"#utility.yul\":4389:4391   */\n      0x20\n        /* \"#utility.yul\":4378:4387   */\n      dup4\n        /* \"#utility.yul\":4374:4392   */\n      add\n        /* \"#utility.yul\":4365:4371   */\n      dup6\n        /* \"#utility.yul\":4327:4393   */\n      tag_452\n      jump\t// in\n    tag_523:\n        /* \"#utility.yul\":4403:4475   */\n      tag_524\n        /* \"#utility.yul\":4471:4473   */\n      0x40\n        /* \"#utility.yul\":4460:4469   */\n      dup4\n        /* \"#utility.yul\":4456:4474   */\n      add\n        /* \"#utility.yul\":4447:4453   */\n      dup5\n        /* \"#utility.yul\":4403:4475   */\n      tag_457\n      jump\t// in\n    tag_524:\n        /* \"#utility.yul\":4052:4482   */\n      swap5\n      swap4\n      pop\n      pop\n      pop\n      pop\n      jump\t// out\n        /* \"#utility.yul\":4488:4820   */\n    tag_42:\n        /* \"#utility.yul\":4609:4613   */\n      0x00\n        /* \"#utility.yul\":4647:4649   */\n      0x40\n        /* \"#utility.yul\":4636:4645   */\n      dup3\n        /* \"#utility.yul\":4632:4650   */\n      add\n        /* \"#utility.yul\":4624:4650   */\n      swap1\n      pop\n        /* \"#utility.yul\":4660:4731   */\n      tag_526\n        /* \"#utility.yul\":4728:4729   */\n      0x00\n        /* \"#utility.yul\":4717:4726   */\n      dup4\n        /* \"#utility.yul\":4713:4730   */\n      add\n        /* \"#utility.yul\":4704:4710   */\n      dup6\n        /* \"#utility.yul\":4660:4731   */\n      tag_455\n      jump\t// in\n    tag_526:\n        /* \"#utility.yul\":4741:4813   */\n      tag_527\n        /* \"#utility.yul\":4809:4811   */\n      0x20\n        /* \"#utility.yul\":4798:4807   */\n      dup4\n        /* \"#utility.yul\":4794:4812   */\n      add\n        /* \"#utility.yul\":4785:4791   */\n      dup5\n        /* \"#utility.yul\":4741:4813   */\n      tag_457\n      jump\t// in\n    tag_527:\n        /* \"#utility.yul\":4488:4820   */\n      swap4\n      swap3\n      pop\n      pop\n      pop\n      jump\t// out\n        /* \"#utility.yul\":4826:5048   */\n    tag_51:\n        /* \"#utility.yul\":4919:4923   */\n      0x00\n        /* \"#utility.yul\":4957:4959   */\n      0x20\n        /* \"#utility.yul\":4946:4955   */\n      dup3\n        /* \"#utility.yul\":4942:4960   */\n      add\n        /* \"#utility.yul\":4934:4960   */\n      swap1\n      pop\n        /* \"#utility.yul\":4970:5041   */\n      tag_529\n        /* \"#utility.yul\":5038:5039   */\n      0x00\n        /* \"#utility.yul\":5027:5036   */\n      dup4\n        /* \"#utility.yul\":5023:5040   */\n      add\n        /* \"#utility.yul\":5014:5020   */\n      dup5\n        /* \"#utility.yul\":4970:5041   */\n      tag_457\n      jump\t// in\n    tag_529:\n        /* \"#utility.yul\":4826:5048   */\n      swap3\n      swap2\n      pop\n      pop\n      jump\t// out\n        /* \"#utility.yul\":5054:5276   */\n    tag_56:\n        /* \"#utility.yul\":5147:5151   */\n      0x00\n        /* \"#utility.yul\":5185:5187   */\n      0x20\n        /* \"#utility.yul\":5174:5183   */\n      dup3\n        /* \"#utility.yul\":5170:5188   */\n      add\n        /* \"#utility.yul\":5162:5188   */\n      swap1\n      pop\n        /* \"#utility.yul\":5198:5269   */\n      tag_531\n        /* \"#utility.yul\":5266:5267   */\n      0x00\n        /* \"#utility.yul\":5255:5264   */\n      dup4\n        /* \"#utility.yul\":5251:5268   */\n      add\n        /* \"#utility.yul\":5242:5248   */\n      dup5\n        /* \"#utility.yul\":5198:5269   */\n      tag_455\n      jump\t// in\n    tag_531:\n        /* \"#utility.yul\":5054:5276   */\n      swap3\n      swap2\n      pop\n      pop\n      jump\t// out\n        /* \"#utility.yul\":5282:5380   */\n    tag_458:\n        /* \"#utility.yul\":5333:5339   */\n      0x00\n        /* \"#utility.yul\":5367:5372   */\n      dup2\n        /* \"#utility.yul\":5361:5373   */\n      mload\n        /* \"#utility.yul\":5351:5373   */\n      swap1\n      pop\n        /* \"#utility.yul\":5282:5380   */\n      swap2\n      swap1\n      pop\n      jump\t// out\n        /* \"#utility.yul\":5386:5554   */\n    tag_459:\n        /* \"#utility.yul\":5469:5480   */\n      0x00\n        /* \"#utility.yul\":5503:5509   */\n      dup3\n        /* \"#utility.yul\":5498:5501   */\n      dup3\n        /* \"#utility.yul\":5491:5510   */\n      mstore\n        /* \"#utility.yul\":5543:5547   */\n      0x20\n        /* \"#utility.yul\":5538:5541   */\n      dup3\n        /* \"#utility.yul\":5534:5548   */\n      add\n        /* \"#utility.yul\":5519:5548   */\n      swap1\n      pop\n        /* \"#utility.yul\":5386:5554   */\n      swap3\n      swap2\n      pop\n      pop\n      jump\t// out\n        /* \"#utility.yul\":5560:5806   */\n    tag_460:\n        /* \"#utility.yul\":5641:5642   */\n      0x00\n        /* \"#utility.yul\":5651:5764   */\n    tag_535:\n        /* \"#utility.yul\":5665:5671   */\n      dup4\n        /* \"#utility.yul\":5662:5663   */\n      dup2\n        /* \"#utility.yul\":5659:5672   */\n      lt\n        /* \"#utility.yul\":5651:5764   */\n      iszero\n      tag_537\n      jumpi\n        /* \"#utility.yul\":5750:5751   */\n      dup1\n        /* \"#utility.yul\":5745:5748   */\n      dup3\n        /* \"#utility.yul\":5741:5752   */\n      add\n        /* \"#utility.yul\":5735:5753   */\n      mload\n        /* \"#utility.yul\":5731:5732   */\n      dup2\n        /* \"#utility.yul\":5726:5729   */\n      dup5\n        /* \"#utility.yul\":5722:5733   */\n      add\n        /* \"#utility.yul\":5715:5754   */\n      mstore\n        /* \"#utility.yul\":5687:5689   */\n      0x20\n        /* \"#utility.yul\":5684:5685   */\n      dup2\n        /* \"#utility.yul\":5680:5690   */\n      add\n        /* \"#utility.yul\":5675:5690   */\n      swap1\n      pop\n        /* \"#utility.yul\":5651:5764   */\n      jump(tag_535)\n    tag_537:\n        /* \"#utility.yul\":5798:5799   */\n      0x00\n        /* \"#utility.yul\":5789:5795   */\n      dup5\n        /* \"#utility.yul\":5784:5787   */\n      dup5\n        /* \"#utility.yul\":5780:5796   */\n      add\n        /* \"#utility.yul\":5773:5800   */\n      mstore\n        /* \"#utility.yul\":5622:5806   */\n      pop\n        /* \"#utility.yul\":5560:5806   */\n      pop\n      pop\n      pop\n      jump\t// out\n        /* \"#utility.yul\":5812:6185   */\n    tag_461:\n        /* \"#utility.yul\":5898:5901   */\n      0x00\n        /* \"#utility.yul\":5926:5964   */\n      tag_539\n        /* \"#utility.yul\":5958:5963   */\n      dup3\n        /* \"#utility.yul\":5926:5964   */\n      tag_458\n      jump\t// in\n    tag_539:\n        /* \"#utility.yul\":5980:6050   */\n      tag_540\n        /* \"#utility.yul\":6043:6049   */\n      dup2\n        /* \"#utility.yul\":6038:6041   */\n      dup6\n        /* \"#utility.yul\":5980:6050   */\n      tag_459\n      jump\t// in\n    tag_540:\n        /* \"#utility.yul\":5973:6050   */\n      swap4\n      pop\n        /* \"#utility.yul\":6059:6124   */\n      tag_541\n        /* \"#utility.yul\":6117:6123   */\n      dup2\n        /* \"#utility.yul\":6112:6115   */\n      dup6\n        /* \"#utility.yul\":6105:6109   */\n      0x20\n        /* \"#utility.yul\":6098:6103   */\n      dup7\n        /* \"#utility.yul\":6094:6110   */\n      add\n        /* \"#utility.yul\":6059:6124   */\n      tag_460\n      jump\t// in\n    tag_541:\n        /* \"#utility.yul\":6149:6178   */\n      tag_542\n        /* \"#utility.yul\":6171:6177   */\n      dup2\n        /* \"#utility.yul\":6149:6178   */\n      tag_444\n      jump\t// in\n    tag_542:\n        /* \"#utility.yul\":6144:6147   */\n      dup5\n        /* \"#utility.yul\":6140:6179   */\n      add\n        /* \"#utility.yul\":6133:6179   */\n      swap2\n      pop\n        /* \"#utility.yul\":5902:6185   */\n      pop\n        /* \"#utility.yul\":5812:6185   */\n      swap3\n      swap2\n      pop\n      pop\n      jump\t// out\n        /* \"#utility.yul\":6191:6500   */\n    tag_61:\n        /* \"#utility.yul\":6302:6306   */\n      0x00\n        /* \"#utility.yul\":6340:6342   */\n      0x20\n        /* \"#utility.yul\":6329:6338   */\n      dup3\n        /* \"#utility.yul\":6325:6343   */\n      add\n        /* \"#utility.yul\":6317:6343   */\n      swap1\n      pop\n        /* \"#utility.yul\":6389:6398   */\n      dup2\n        /* \"#utility.yul\":6383:6387   */\n      dup2\n        /* \"#utility.yul\":6379:6399   */\n      sub\n        /* \"#utility.yul\":6375:6376   */\n      0x00\n        /* \"#utility.yul\":6364:6373   */\n      dup4\n        /* \"#utility.yul\":6360:6377   */\n      add\n        /* \"#utility.yul\":6353:6400   */\n      mstore\n        /* \"#utility.yul\":6417:6493   */\n      tag_544\n        /* \"#utility.yul\":6488:6492   */\n      dup2\n        /* \"#utility.yul\":6479:6485   */\n      dup5\n        /* \"#utility.yul\":6417:6493   */\n      tag_461\n      jump\t// in\n    tag_544:\n        /* \"#utility.yul\":6409:6493   */\n      swap1\n      pop\n        /* \"#utility.yul\":6191:6500   */\n      swap3\n      swap2\n      pop\n      pop\n      jump\t// out\n        /* \"#utility.yul\":6506:6605   */\n    tag_462:\n        /* \"#utility.yul\":6558:6564   */\n      0x00\n        /* \"#utility.yul\":6592:6597   */\n      dup2\n        /* \"#utility.yul\":6586:6598   */\n      mload\n        /* \"#utility.yul\":6576:6598   */\n      swap1\n      pop\n        /* \"#utility.yul\":6506:6605   */\n      swap2\n      swap1\n      pop\n      jump\t// out\n        /* \"#utility.yul\":6611:6780   */\n    tag_463:\n        /* \"#utility.yul\":6695:6706   */\n      0x00\n        /* \"#utility.yul\":6729:6735   */\n      dup3\n        /* \"#utility.yul\":6724:6727   */\n      dup3\n        /* \"#utility.yul\":6717:6736   */\n      mstore\n        /* \"#utility.yul\":6769:6773   */\n      0x20\n        /* \"#utility.yul\":6764:6767   */\n      dup3\n        /* \"#utility.yul\":6760:6774   */\n      add\n        /* \"#utility.yul\":6745:6774   */\n      swap1\n      pop\n        /* \"#utility.yul\":6611:6780   */\n      swap3\n      swap2\n      pop\n      pop\n      jump\t// out\n        /* \"#utility.yul\":6786:7163   */\n    tag_464:\n        /* \"#utility.yul\":6874:6877   */\n      0x00\n        /* \"#utility.yul\":6902:6941   */\n      tag_548\n        /* \"#utility.yul\":6935:6940   */\n      dup3\n        /* \"#utility.yul\":6902:6941   */\n      tag_462\n      jump\t// in\n    tag_548:\n        /* \"#utility.yul\":6957:7028   */\n      tag_549\n        /* \"#utility.yul\":7021:7027   */\n      dup2\n        /* \"#utility.yul\":7016:7019   */\n      dup6\n        /* \"#utility.yul\":6957:7028   */\n      tag_463\n      jump\t// in\n    tag_549:\n        /* \"#utility.yul\":6950:7028   */\n      swap4\n      pop\n        /* \"#utility.yul\":7037:7102   */\n      tag_550\n        /* \"#utility.yul\":7095:7101   */\n      dup2\n        /* \"#utility.yul\":7090:7093   */\n      dup6\n        /* \"#utility.yul\":7083:7087   */\n      0x20\n        /* \"#utility.yul\":7076:7081   */\n      dup7\n        /* \"#utility.yul\":7072:7088   */\n      add\n        /* \"#utility.yul\":7037:7102   */\n      tag_460\n      jump\t// in\n    tag_550:\n        /* \"#utility.yul\":7127:7156   */\n      tag_551\n        /* \"#utility.yul\":7149:7155   */\n      dup2\n        /* \"#utility.yul\":7127:7156   */\n      tag_444\n      jump\t// in\n    tag_551:\n        /* \"#utility.yul\":7122:7125   */\n      dup5\n        /* \"#utility.yul\":7118:7157   */\n      add\n        /* \"#utility.yul\":7111:7157   */\n      swap2\n      pop\n        /* \"#utility.yul\":6878:7163   */\n      pop\n        /* \"#utility.yul\":6786:7163   */\n      swap3\n      swap2\n      pop\n      pop\n      jump\t// out\n        /* \"#utility.yul\":7169:7482   */\n    tag_66:\n        /* \"#utility.yul\":7282:7286   */\n      0x00\n        /* \"#utility.yul\":7320:7322   */\n      0x20\n        /* \"#utility.yul\":7309:7318   */\n      dup3\n        /* \"#utility.yul\":7305:7323   */\n      add\n        /* \"#utility.yul\":7297:7323   */\n      swap1\n      pop\n        /* \"#utility.yul\":7369:7378   */\n      dup2\n        /* \"#utility.yul\":7363:7367   */\n      dup2\n        /* \"#utility.yul\":7359:7379   */\n      sub\n        /* \"#utility.yul\":7355:7356   */\n      0x00\n        /* \"#utility.yul\":7344:7353   */\n      dup4\n        /* \"#utility.yul\":7340:7357   */\n      add\n        /* \"#utility.yul\":7333:7380   */\n      mstore\n        /* \"#utility.yul\":7397:7475   */\n      tag_553\n        /* \"#utility.yul\":7470:7474   */\n      dup2\n        /* \"#utility.yul\":7461:7467   */\n      dup5\n        /* \"#utility.yul\":7397:7475   */\n      tag_464\n      jump\t// in\n    tag_553:\n        /* \"#utility.yul\":7389:7475   */\n      swap1\n      pop\n        /* \"#utility.yul\":7169:7482   */\n      swap3\n      swap2\n      pop\n      pop\n      jump\t// out\n        /* \"#utility.yul\":7488:7930   */\n    tag_71:\n        /* \"#utility.yul\":7637:7641   */\n      0x00\n        /* \"#utility.yul\":7675:7677   */\n      0x60\n        /* \"#utility.yul\":7664:7673   */\n      dup3\n        /* \"#utility.yul\":7660:7678   */\n      add\n        /* \"#utility.yul\":7652:7678   */\n      swap1\n      pop\n        /* \"#utility.yul\":7688:7759   */\n      tag_555\n        /* \"#utility.yul\":7756:7757   */\n      0x00\n        /* \"#utility.yul\":7745:7754   */\n      dup4\n        /* \"#utility.yul\":7741:7758   */\n      add\n        /* \"#utility.yul\":7732:7738   */\n      dup7\n        /* \"#utility.yul\":7688:7759   */\n      tag_457\n      jump\t// in\n    tag_555:\n        /* \"#utility.yul\":7769:7841   */\n      tag_556\n        /* \"#utility.yul\":7837:7839   */\n      0x20\n        /* \"#utility.yul\":7826:7835   */\n      dup4\n        /* \"#utility.yul\":7822:7840   */\n      add\n        /* \"#utility.yul\":7813:7819   */\n      dup6\n        /* \"#utility.yul\":7769:7841   */\n      tag_457\n      jump\t// in\n    tag_556:\n        /* \"#utility.yul\":7851:7923   */\n      tag_557\n        /* \"#utility.yul\":7919:7921   */\n      0x40\n        /* \"#utility.yul\":7908:7917   */\n      dup4\n        /* \"#utility.yul\":7904:7922   */\n      add\n        /* \"#utility.yul\":7895:7901   */\n      dup5\n        /* \"#utility.yul\":7851:7923   */\n      tag_457\n      jump\t// in\n    tag_557:\n        /* \"#utility.yul\":7488:7930   */\n      swap5\n      swap4\n      pop\n      pop\n      pop\n      pop\n      jump\t// out\n        /* \"#utility.yul\":7936:8013   */\n    tag_465:\n        /* \"#utility.yul\":7973:7980   */\n      0x00\n        /* \"#utility.yul\":8002:8007   */\n      dup2\n        /* \"#utility.yul\":7991:8007   */\n      swap1\n      pop\n        /* \"#utility.yul\":7936:8013   */\n      swap2\n      swap1\n      pop\n      jump\t// out\n        /* \"#utility.yul\":8019:8137   */\n    tag_466:\n        /* \"#utility.yul\":8106:8130   */\n      tag_560\n        /* \"#utility.yul\":8124:8129   */\n      dup2\n        /* \"#utility.yul\":8106:8130   */\n      tag_465\n      jump\t// in\n    tag_560:\n        /* \"#utility.yul\":8101:8104   */\n      dup3\n        /* \"#utility.yul\":8094:8131   */\n      mstore\n        /* \"#utility.yul\":8019:8137   */\n      pop\n      pop\n      jump\t// out\n        /* \"#utility.yul\":8143:8475   */\n    tag_76:\n        /* \"#utility.yul\":8264:8268   */\n      0x00\n        /* \"#utility.yul\":8302:8304   */\n      0x40\n        /* \"#utility.yul\":8291:8300   */\n      dup3\n        /* \"#utility.yul\":8287:8305   */\n      add\n        /* \"#utility.yul\":8279:8305   */\n      swap1\n      pop\n        /* \"#utility.yul\":8315:8386   */\n      tag_562\n        /* \"#utility.yul\":8383:8384   */\n      0x00\n        /* \"#utility.yul\":8372:8381   */\n      dup4\n        /* \"#utility.yul\":8368:8385   */\n      add\n        /* \"#utility.yul\":8359:8365   */\n      dup6\n        /* \"#utility.yul\":8315:8386   */\n      tag_466\n      jump\t// in\n    tag_562:\n        /* \"#utility.yul\":8396:8468   */\n      tag_563\n        /* \"#utility.yul\":8464:8466   */\n      0x20\n        /* \"#utility.yul\":8453:8462   */\n      dup4\n        /* \"#utility.yul\":8449:8467   */\n      add\n        /* \"#utility.yul\":8440:8446   */\n      dup5\n        /* \"#utility.yul\":8396:8468   */\n      tag_466\n      jump\t// in\n    tag_563:\n        /* \"#utility.yul\":8143:8475   */\n      swap4\n      swap3\n      pop\n      pop\n      pop\n      jump\t// out\n        /* \"#utility.yul\":8481:9813   */\n    tag_108:\n        /* \"#utility.yul\":8855:8859   */\n      0x00\n        /* \"#utility.yul\":8893:8896   */\n      0x0160\n        /* \"#utility.yul\":8882:8891   */\n      dup3\n        /* \"#utility.yul\":8878:8897   */\n      add\n        /* \"#utility.yul\":8870:8897   */\n      swap1\n      pop\n        /* \"#utility.yul\":8907:8978   */\n      tag_565\n        /* \"#utility.yul\":8975:8976   */\n      0x00\n        /* \"#utility.yul\":8964:8973   */\n      dup4\n        /* \"#utility.yul\":8960:8977   */\n      add\n        /* \"#utility.yul\":8951:8957   */\n      dup15\n        /* \"#utility.yul\":8907:8978   */\n      tag_466\n      jump\t// in\n    tag_565:\n        /* \"#utility.yul\":8988:9060   */\n      tag_566\n        /* \"#utility.yul\":9056:9058   */\n      0x20\n        /* \"#utility.yul\":9045:9054   */\n      dup4\n        /* \"#utility.yul\":9041:9059   */\n      add\n        /* \"#utility.yul\":9032:9038   */\n      dup14\n        /* \"#utility.yul\":8988:9060   */\n      tag_466\n      jump\t// in\n    tag_566:\n        /* \"#utility.yul\":9070:9142   */\n      tag_567\n        /* \"#utility.yul\":9138:9140   */\n      0x40\n        /* \"#utility.yul\":9127:9136   */\n      dup4\n        /* \"#utility.yul\":9123:9141   */\n      add\n        /* \"#utility.yul\":9114:9120   */\n      dup13\n        /* \"#utility.yul\":9070:9142   */\n      tag_466\n      jump\t// in\n    tag_567:\n        /* \"#utility.yul\":9152:9224   */\n      tag_568\n        /* \"#utility.yul\":9220:9222   */\n      0x60\n        /* \"#utility.yul\":9209:9218   */\n      dup4\n        /* \"#utility.yul\":9205:9223   */\n      add\n        /* \"#utility.yul\":9196:9202   */\n      dup12\n        /* \"#utility.yul\":9152:9224   */\n      tag_466\n      jump\t// in\n    tag_568:\n        /* \"#utility.yul\":9234:9307   */\n      tag_569\n        /* \"#utility.yul\":9302:9305   */\n      0x80\n        /* \"#utility.yul\":9291:9300   */\n      dup4\n        /* \"#utility.yul\":9287:9306   */\n      add\n        /* \"#utility.yul\":9278:9284   */\n      dup11\n        /* \"#utility.yul\":9234:9307   */\n      tag_466\n      jump\t// in\n    tag_569:\n        /* \"#utility.yul\":9317:9390   */\n      tag_570\n        /* \"#utility.yul\":9385:9388   */\n      0xa0\n        /* \"#utility.yul\":9374:9383   */\n      dup4\n        /* \"#utility.yul\":9370:9389   */\n      add\n        /* \"#utility.yul\":9361:9367   */\n      dup10\n        /* \"#utility.yul\":9317:9390   */\n      tag_457\n      jump\t// in\n    tag_570:\n        /* \"#utility.yul\":9400:9473   */\n      tag_571\n        /* \"#utility.yul\":9468:9471   */\n      0xc0\n        /* \"#utility.yul\":9457:9466   */\n      dup4\n        /* \"#utility.yul\":9453:9472   */\n      add\n        /* \"#utility.yul\":9444:9450   */\n      dup9\n        /* \"#utility.yul\":9400:9473   */\n      tag_457\n      jump\t// in\n    tag_571:\n        /* \"#utility.yul\":9483:9556   */\n      tag_572\n        /* \"#utility.yul\":9551:9554   */\n      0xe0\n        /* \"#utility.yul\":9540:9549   */\n      dup4\n        /* \"#utility.yul\":9536:9555   */\n      add\n        /* \"#utility.yul\":9527:9533   */\n      dup8\n        /* \"#utility.yul\":9483:9556   */\n      tag_457\n      jump\t// in\n    tag_572:\n        /* \"#utility.yul\":9566:9639   */\n      tag_573\n        /* \"#utility.yul\":9634:9637   */\n      0x0100\n        /* \"#utility.yul\":9623:9632   */\n      dup4\n        /* \"#utility.yul\":9619:9638   */\n      add\n        /* \"#utility.yul\":9610:9616   */\n      dup7\n        /* \"#utility.yul\":9566:9639   */\n      tag_457\n      jump\t// in\n    tag_573:\n        /* \"#utility.yul\":9649:9722   */\n      tag_574\n        /* \"#utility.yul\":9717:9720   */\n      0x0120\n        /* \"#utility.yul\":9706:9715   */\n      dup4\n        /* \"#utility.yul\":9702:9721   */\n      add\n        /* \"#utility.yul\":9693:9699   */\n      dup6\n        /* \"#utility.yul\":9649:9722   */\n      tag_457\n      jump\t// in\n    tag_574:\n        /* \"#utility.yul\":9732:9806   */\n      tag_575\n        /* \"#utility.yul\":9801:9804   */\n      0x0140\n        /* \"#utility.yul\":9790:9799   */\n      dup4\n        /* \"#utility.yul\":9786:9805   */\n      add\n        /* \"#utility.yul\":9776:9783   */\n      dup5\n        /* \"#utility.yul\":9732:9806   */\n      tag_457\n      jump\t// in\n    tag_575:\n        /* \"#utility.yul\":8481:9813   */\n      swap13\n      swap12\n      pop\n      pop\n      pop\n      pop\n      pop\n      pop\n      pop\n      pop\n      pop\n      pop\n      pop\n      pop\n      jump\t// out\n        /* \"#utility.yul\":9819:10041   */\n    tag_117:\n        /* \"#utility.yul\":9912:9916   */\n      0x00\n        /* \"#utility.yul\":9950:9952   */\n      0x20\n        /* \"#utility.yul\":9939:9948   */\n      dup3\n        /* \"#utility.yul\":9935:9953   */\n      add\n        /* \"#utility.yul\":9927:9953   */\n      swap1\n      pop\n        /* \"#utility.yul\":9963:10034   */\n      tag_577\n        /* \"#utility.yul\":10031:10032   */\n      0x00\n        /* \"#utility.yul\":10020:10029   */\n      dup4\n        /* \"#utility.yul\":10016:10033   */\n      add\n        /* \"#utility.yul\":10007:10013   */\n      dup5\n        /* \"#utility.yul\":9963:10034   */\n      tag_466\n      jump\t// in\n    tag_577:\n        /* \"#utility.yul\":9819:10041   */\n      swap3\n      swap2\n      pop\n      pop\n      jump\t// out\n        /* \"#utility.yul\":10047:10227   */\n    tag_134:\n        /* \"#utility.yul\":10095:10172   */\n      0x4e487b7100000000000000000000000000000000000000000000000000000000\n        /* \"#utility.yul\":10092:10093   */\n      0x00\n        /* \"#utility.yul\":10085:10173   */\n      mstore\n        /* \"#utility.yul\":10192:10196   */\n      0x32\n        /* \"#utility.yul\":10189:10190   */\n      0x04\n        /* \"#utility.yul\":10182:10197   */\n      mstore\n        /* \"#utility.yul\":10216:10220   */\n      0x24\n        /* \"#utility.yul\":10213:10214   */\n      0x00\n        /* \"#utility.yul\":10206:10221   */\n      revert\n        /* \"#utility.yul\":10233:10413   */\n    tag_467:\n        /* \"#utility.yul\":10281:10358   */\n      0x4e487b7100000000000000000000000000000000000000000000000000000000\n        /* \"#utility.yul\":10278:10279   */\n      0x00\n        /* \"#utility.yul\":10271:10359   */\n      mstore\n        /* \"#utility.yul\":10378:10382   */\n      0x11\n        /* \"#utility.yul\":10375:10376   */\n      0x04\n        /* \"#utility.yul\":10368:10383   */\n      mstore\n        /* \"#utility.yul\":10402:10406   */\n      0x24\n        /* \"#utility.yul\":10399:10400   */\n      0x00\n        /* \"#utility.yul\":10392:10407   */\n      revert\n        /* \"#utility.yul\":10419:10652   */\n    tag_279:\n        /* \"#utility.yul\":10458:10461   */\n      0x00\n        /* \"#utility.yul\":10481:10505   */\n      tag_581\n        /* \"#utility.yul\":10499:10504   */\n      dup3\n        /* \"#utility.yul\":10481:10505   */\n      tag_456\n      jump\t// in\n    tag_581:\n        /* \"#utility.yul\":10472:10505   */\n      swap2\n      pop\n        /* \"#utility.yul\":10527:10593   */\n      0xffffffffffffffffffffffffffffffffffffffffffffffffffffffffffffffff\n        /* \"#utility.yul\":10520:10525   */\n      dup3\n        /* \"#utility.yul\":10517:10594   */\n      sub\n        /* \"#utility.yul\":10514:10617   */\n      tag_582\n      jumpi\n        /* \"#utility.yul\":10597:10615   */\n      tag_583\n      tag_467\n      jump\t// in\n    tag_583:\n        /* \"#utility.yul\":10514:10617   */\n    tag_582:\n        /* \"#utility.yul\":10644:10645   */\n      0x01\n        /* \"#utility.yul\":10637:10642   */\n      dup3\n        /* \"#utility.yul\":10633:10646   */\n      add\n        /* \"#utility.yul\":10626:10646   */\n      swap1\n      pop\n        /* \"#utility.yul\":10419:10652   */\n      swap2\n      swap1\n      pop\n      jump\t// out\n        /* \"#utility.yul\":10658:10849   */\n    tag_312:\n        /* \"#utility.yul\":10698:10701   */\n      0x00\n        /* \"#utility.yul\":10717:10737   */\n      tag_585\n        /* \"#utility.yul\":10735:10736   */\n      dup3\n        /* \"#utility.yul\":10717:10737   */\n      tag_456\n      jump\t// in\n    tag_585:\n        /* \"#utility.yul\":10712:10737   */\n      swap2\n      pop\n        /* \"#utility.yul\":10751:10771   */\n      tag_586\n        /* \"#utility.yul\":10769:10770   */\n      dup4\n        /* \"#utility.yul\":10751:10771   */\n      tag_456\n      jump\t// in\n    tag_586:\n        /* \"#utility.yul\":10746:10771   */\n      swap3\n      pop\n        /* \"#utility.yul\":10794:10795   */\n      dup3\n        /* \"#utility.yul\":10791:10792   */\n      dup3\n        /* \"#utility.yul\":10787:10796   */\n      add\n        /* \"#utility.yul\":10780:10796   */\n      swap1\n      pop\n        /* \"#utility.yul\":10815:10818   */\n      dup1\n        /* \"#utility.yul\":10812:10813   */\n      dup3\n        /* \"#utility.yul\":10809:10819   */\n      gt\n        /* \"#utility.yul\":10806:10842   */\n      iszero\n      tag_587\n      jumpi\n        /* \"#utility.yul\":10822:10840   */\n      tag_588\n      tag_467\n      jump\t// in\n    tag_588:\n        /* \"#utility.yul\":10806:10842   */\n    tag_587:\n        /* \"#utility.yul\":10658:10849   */\n      swap3\n      swap2\n      pop\n      pop\n      jump\t// out\n        /* \"#utility.yul\":10855:11049   */\n    tag_353:\n        /* \"#utility.yul\":10895:10899   */\n      0x00\n        /* \"#utility.yul\":10915:10935   */\n      tag_590\n        /* \"#utility.yul\":10933:10934   */\n      dup3\n        /* \"#utility.yul\":10915:10935   */\n      tag_456\n      jump\t// in\n    tag_590:\n        /* \"#utility.yul\":10910:10935   */\n      swap2\n      pop\n        /* \"#utility.yul\":10949:10969   */\n      tag_591\n        /* \"#utility.yul\":10967:10968   */\n      dup4\n        /* \"#utility.yul\":10949:10969   */\n      tag_456\n      jump\t// in\n    tag_591:\n        /* \"#utility.yul\":10944:10969   */\n      swap3\n      pop\n        /* \"#utility.yul\":10993:10994   */\n      dup3\n        /* \"#utility.yul\":10990:10991   */\n      dup3\n        /* \"#utility.yul\":10986:10995   */\n      sub\n        /* \"#utility.yul\":10978:10995   */\n      swap1\n      pop\n        /* \"#utility.yul\":11017:11018   */\n      dup2\n        /* \"#utility.yul\":11011:11015   */\n      dup2\n        /* \"#utility.yul\":11008:11019   */\n      gt\n        /* \"#utility.yul\":11005:11042   */\n      iszero\n      tag_592\n      jumpi\n        /* \"#utility.yul\":11022:11040   */\n      tag_593\n      tag_467\n      jump\t// in\n    tag_593:\n        /* \"#utility.yul\":11005:11042   */\n    tag_592:\n        /* \"#utility.yul\":10855:11049   */\n      swap3\n      swap2\n      pop\n      pop\n      jump\t// out\n        /* \"#utility.yul\":11055:11141   */\n    tag_468:\n        /* \"#utility.yul\":11090:11097   */\n      0x00\n        /* \"#utility.yul\":11130:11134   */\n      0xff\n        /* \"#utility.yul\":11123:11128   */\n      dup3\n        /* \"#utility.yul\":11119:11135   */\n      and\n        /* \"#utility.yul\":11108:11135   */\n      swap1\n      pop\n        /* \"#utility.yul\":11055:11141   */\n      swap2\n      swap1\n      pop\n      jump\t// out\n        /* \"#utility.yul\":11147:11338   */\n    tag_405:\n        /* \"#utility.yul\":11185:11189   */\n      0x00\n        /* \"#utility.yul\":11205:11223   */\n      tag_596\n        /* \"#utility.yul\":11221:11222   */\n      dup3\n        /* \"#utility.yul\":11205:11223   */\n      tag_468\n      jump\t// in\n    tag_596:\n        /* \"#utility.yul\":11200:11223   */\n      swap2\n      pop\n        /* \"#utility.yul\":11237:11255   */\n      tag_597\n        /* \"#utility.yul\":11253:11254   */\n      dup4\n        /* \"#utility.yul\":11237:11255   */\n      tag_468\n      jump\t// in\n    tag_597:\n        /* \"#utility.yul\":11232:11255   */\n      swap3\n      pop\n        /* \"#utility.yul\":11279:11280   */\n      dup3\n        /* \"#utility.yul\":11276:11277   */\n      dup3\n        /* \"#utility.yul\":11272:11281   */\n      sub\n        /* \"#utility.yul\":11264:11281   */\n      swap1\n      pop\n        /* \"#utility.yul\":11303:11307   */\n      0xff\n        /* \"#utility.yul\":11297:11301   */\n      dup2\n        /* \"#utility.yul\":11294:11308   */\n      gt\n        /* \"#utility.yul\":11291:11331   */\n      iszero\n      tag_598\n      jumpi\n        /* \"#utility.yul\":11311:11329   */\n      tag_599\n      tag_467\n      jump\t// in\n    tag_599:\n        /* \"#utility.yul\":11291:11331   */\n    tag_598:\n        /* \"#utility.yul\":11147:11338   */\n      swap3\n      swap2\n      pop\n      pop\n      jump\t// out\n        /* \"#utility.yul\":11344:11446   */\n    tag_469:\n        /* \"#utility.yul\":11386:11394   */\n      0x00\n        /* \"#utility.yul\":11433:11438   */\n      dup2\n        /* \"#utility.yul\":11430:11431   */\n      0x01\n        /* \"#utility.yul\":11426:11439   */\n      shr\n        /* \"#utility.yul\":11405:11439   */\n      swap1\n      pop\n        /* \"#utility.yul\":11344:11446   */\n      swap2\n      swap1\n      pop\n      jump\t// out\n        /* \"#utility.yul\":11452:12300   */\n    tag_470:\n        /* \"#utility.yul\":11513:11518   */\n      0x00\n        /* \"#utility.yul\":11520:11524   */\n      dup1\n        /* \"#utility.yul\":11544:11550   */\n      dup3\n        /* \"#utility.yul\":11535:11550   */\n      swap2\n      pop\n        /* \"#utility.yul\":11568:11573   */\n      dup4\n        /* \"#utility.yul\":11559:11573   */\n      swap1\n      pop\n        /* \"#utility.yul\":11582:12294   */\n    tag_602:\n        /* \"#utility.yul\":11603:11604   */\n      0x01\n        /* \"#utility.yul\":11593:11601   */\n      dup6\n        /* \"#utility.yul\":11590:11605   */\n      gt\n        /* \"#utility.yul\":11582:12294   */\n      iszero\n      tag_604\n      jumpi\n        /* \"#utility.yul\":11698:11702   */\n      dup1\n        /* \"#utility.yul\":11693:11696   */\n      dup7\n        /* \"#utility.yul\":11689:11703   */\n      div\n        /* \"#utility.yul\":11683:11687   */\n      dup2\n        /* \"#utility.yul\":11680:11704   */\n      gt\n        /* \"#utility.yul\":11677:11727   */\n      iszero\n      tag_605\n      jumpi\n        /* \"#utility.yul\":11707:11725   */\n      tag_606\n      tag_467\n      jump\t// in\n    tag_606:\n        /* \"#utility.yul\":11677:11727   */\n    tag_605:\n        /* \"#utility.yul\":11757:11758   */\n      0x01\n        /* \"#utility.yul\":11747:11755   */\n      dup6\n        /* \"#utility.yul\":11743:11759   */\n      and\n        /* \"#utility.yul\":11740:12191   */\n      iszero\n      tag_607\n      jumpi\n        /* \"#utility.yul\":12172:12176   */\n      dup1\n        /* \"#utility.yul\":12165:12170   */\n      dup3\n        /* \"#utility.yul\":12161:12177   */\n      mul\n        /* \"#utility.yul\":12152:12177   */\n      swap2\n      pop\n        /* \"#utility.yul\":11740:12191   */\n    tag_607:\n        /* \"#utility.yul\":12222:12226   */\n      dup1\n        /* \"#utility.yul\":12216:12220   */\n      dup2\n        /* \"#utility.yul\":12212:12227   */\n      mul\n        /* \"#utility.yul\":12204:12227   */\n      swap1\n      pop\n        /* \"#utility.yul\":12252:12284   */\n      tag_608\n        /* \"#utility.yul\":12275:12283   */\n      dup6\n        /* \"#utility.yul\":12252:12284   */\n      tag_469\n      jump\t// in\n    tag_608:\n        /* \"#utility.yul\":12240:12284   */\n      swap5\n      pop\n        /* \"#utility.yul\":11582:12294   */\n      jump(tag_602)\n    tag_604:\n        /* \"#utility.yul\":11452:12300   */\n      swap5\n      pop\n      swap5\n      swap3\n      pop\n      pop\n      pop\n      jump\t// out\n        /* \"#utility.yul\":12306:13379   */\n    tag_471:\n        /* \"#utility.yul\":12360:12365   */\n      0x00\n        /* \"#utility.yul\":12551:12559   */\n      dup3\n        /* \"#utility.yul\":12541:12581   */\n      tag_610\n      jumpi\n        /* \"#utility.yul\":12572:12573   */\n      0x01\n        /* \"#utility.yul\":12563:12573   */\n      swap1\n      pop\n        /* \"#utility.yul\":12574:12579   */\n      jump(tag_609)\n        /* \"#utility.yul\":12541:12581   */\n    tag_610:\n        /* \"#utility.yul\":12600:12604   */\n      dup2\n        /* \"#utility.yul\":12590:12626   */\n      tag_611\n      jumpi\n        /* \"#utility.yul\":12617:12618   */\n      0x00\n        /* \"#utility.yul\":12608:12618   */\n      swap1\n      pop\n        /* \"#utility.yul\":12619:12624   */\n      jump(tag_609)\n        /* \"#utility.yul\":12590:12626   */\n    tag_611:\n        /* \"#utility.yul\":12686:12690   */\n      dup2\n        /* \"#utility.yul\":12734:12735   */\n      0x01\n        /* \"#utility.yul\":12729:12756   */\n      dup2\n      eq\n      tag_613\n      jumpi\n        /* \"#utility.yul\":12770:12771   */\n      0x02\n        /* \"#utility.yul\":12765:12956   */\n      dup2\n      eq\n      tag_614\n      jumpi\n        /* \"#utility.yul\":12679:12956   */\n      jump(tag_612)\n        /* \"#utility.yul\":12729:12756   */\n    tag_613:\n        /* \"#utility.yul\":12747:12748   */\n      0x01\n        /* \"#utility.yul\":12738:12748   */\n      swap2\n      pop\n        /* \"#utility.yul\":12749:12754   */\n      pop\n      jump(tag_609)\n        /* \"#utility.yul\":12765:12956   */\n    tag_614:\n        /* \"#utility.yul\":12810:12813   */\n      0xff\n        /* \"#utility.yul\":12800:12808   */\n      dup5\n        /* \"#utility.yul\":12797:12814   */\n      gt\n        /* \"#utility.yul\":12794:12837   */\n      iszero\n      tag_615\n      jumpi\n        /* \"#utility.yul\":12817:12835   */\n      tag_616\n      tag_467\n      jump\t// in\n    tag_616:\n        /* \"#utility.yul\":12794:12837   */\n    tag_615:\n        /* \"#utility.yul\":12866:12874   */\n      dup4\n        /* \"#utility.yul\":12863:12864   */\n      0x02\n        /* \"#utility.yul\":12859:12875   */\n      exp\n        /* \"#utility.yul\":12850:12875   */\n      swap2\n      pop\n        /* \"#utility.yul\":12901:12904   */\n      dup5\n        /* \"#utility.yul\":12894:12899   */\n      dup3\n        /* \"#utility.yul\":12891:12905   */\n      gt\n        /* \"#utility.yul\":12888:12928   */\n      iszero\n      tag_617\n      jumpi\n        /* \"#utility.yul\":12908:12926   */\n      tag_618\n      tag_467\n      jump\t// in\n    tag_618:\n        /* \"#utility.yul\":12888:12928   */\n    tag_617:\n        /* \"#utility.yul\":12941:12946   */\n      pop\n      jump(tag_609)\n        /* \"#utility.yul\":12679:12956   */\n    tag_612:\n      pop\n        /* \"#utility.yul\":13065:13067   */\n      0x20\n        /* \"#utility.yul\":13055:13063   */\n      dup4\n        /* \"#utility.yul\":13052:13068   */\n      lt\n        /* \"#utility.yul\":13046:13049   */\n      0x0133\n        /* \"#utility.yul\":13040:13044   */\n      dup4\n        /* \"#utility.yul\":13037:13050   */\n      lt\n        /* \"#utility.yul\":13033:13069   */\n      and\n        /* \"#utility.yul\":13015:13017   */\n      0x4e\n        /* \"#utility.yul\":13005:13013   */\n      dup5\n        /* \"#utility.yul\":13002:13018   */\n      lt\n        /* \"#utility.yul\":12997:12999   */\n      0x0b\n        /* \"#utility.yul\":12991:12995   */\n      dup5\n        /* \"#utility.yul\":12988:13000   */\n      lt\n        /* \"#utility.yul\":12984:13019   */\n      and\n        /* \"#utility.yul\":12968:13079   */\n      or\n        /* \"#utility.yul\":12965:13211   */\n      iszero\n      tag_619\n      jumpi\n        /* \"#utility.yul\":13121:13129   */\n      dup3\n        /* \"#utility.yul\":13115:13119   */\n      dup3\n        /* \"#utility.yul\":13111:13130   */\n      exp\n        /* \"#utility.yul\":13102:13130   */\n      swap1\n      pop\n        /* \"#utility.yul\":13156:13159   */\n      dup4\n        /* \"#utility.yul\":13149:13154   */\n      dup2\n        /* \"#utility.yul\":13146:13160   */\n      gt\n        /* \"#utility.yul\":13143:13183   */\n      iszero\n      tag_620\n      jumpi\n        /* \"#utility.yul\":13163:13181   */\n      tag_621\n      tag_467\n      jump\t// in\n    tag_621:\n        /* \"#utility.yul\":13143:13183   */\n    tag_620:\n        /* \"#utility.yul\":13196:13201   */\n      jump(tag_609)\n        /* \"#utility.yul\":12965:13211   */\n    tag_619:\n        /* \"#utility.yul\":13236:13278   */\n      tag_622\n        /* \"#utility.yul\":13274:13277   */\n      dup5\n        /* \"#utility.yul\":13264:13272   */\n      dup5\n        /* \"#utility.yul\":13258:13262   */\n      dup5\n        /* \"#utility.yul\":13255:13256   */\n      0x01\n        /* \"#utility.yul\":13236:13278   */\n      tag_470\n      jump\t// in\n    tag_622:\n        /* \"#utility.yul\":13221:13278   */\n      swap3\n      pop\n      swap1\n      pop\n        /* \"#utility.yul\":13310:13314   */\n      dup2\n        /* \"#utility.yul\":13305:13308   */\n      dup5\n        /* \"#utility.yul\":13301:13315   */\n      div\n        /* \"#utility.yul\":13294:13299   */\n      dup2\n        /* \"#utility.yul\":13291:13316   */\n      gt\n        /* \"#utility.yul\":13288:13339   */\n      iszero\n      tag_623\n      jumpi\n        /* \"#utility.yul\":13319:13337   */\n      tag_624\n      tag_467\n      jump\t// in\n    tag_624:\n        /* \"#utility.yul\":13288:13339   */\n    tag_623:\n        /* \"#utility.yul\":13368:13372   */\n      dup2\n        /* \"#utility.yul\":13361:13366   */\n      dup2\n        /* \"#utility.yul\":13357:13373   */\n      mul\n        /* \"#utility.yul\":13348:13373   */\n      swap1\n      pop\n        /* \"#utility.yul\":12306:13379   */\n    tag_609:\n      swap4\n      swap3\n      pop\n      pop\n      pop\n      jump\t// out\n        /* \"#utility.yul\":13385:13670   */\n    tag_436:\n        /* \"#utility.yul\":13445:13450   */\n      0x00\n        /* \"#utility.yul\":13469:13492   */\n      tag_626\n        /* \"#utility.yul\":13487:13491   */\n      dup3\n        /* \"#utility.yul\":13469:13492   */\n      tag_456\n      jump\t// in\n    tag_626:\n        /* \"#utility.yul\":13461:13492   */\n      swap2\n      pop\n        /* \"#utility.yul\":13513:13540   */\n      tag_627\n        /* \"#utility.yul\":13531:13539   */\n      dup4\n        /* \"#utility.yul\":13513:13540   */\n      tag_456\n      jump\t// in\n    tag_627:\n        /* \"#utility.yul\":13501:13540   */\n      swap3\n      pop\n        /* \"#utility.yul\":13559:13663   */\n      tag_628\n        /* \"#utility.yul\":13596:13662   */\n      0xffffffffffffffffffffffffffffffffffffffffffffffffffffffffffffffff\n        /* \"#utility.yul\":13586:13594   */\n      dup5\n        /* \"#utility.yul\":13580:13584   */\n      dup5\n        /* \"#utility.yul\":13559:13663   */\n      tag_471\n      jump\t// in\n    tag_628:\n        /* \"#utility.yul\":13550:13663   */\n      swap1\n      pop\n        /* \"#utility.yul\":13385:13670   */\n      swap3\n      swap2\n      pop\n      pop\n      jump\t// out\n\n    auxdata: 0xa2646970667358221220dbaab8c3f3ad474eb0ee07787f48da58b018b963146b464477a42d8a8910cc0164736f6c63430008180033\n}\n",
				"bytecode": {
					"linkReferences": {},
					"object": "608060405234801561000f575f80fd5b50611bc18061001d5f395ff3fe608060405234801561000f575f80fd5b5060043610610135575f3560e01c806374c4c494116100b6578063d03ca5a31161007a578063d03ca5a31461040f578063dd208ea11461042b578063e7617bf81461045b578063e79fbcec14610495578063eb4eb372146104c5578063f29cddc0146104f557610135565b806374c4c4941461031f57806376193f8c1461034f5780638109672f1461037f5780638529d576146103af578063aac19545146103df57610135565b80632d888869116100fd5780632d8888691461022c57806333c82d181461025c57806339614e4f1461028c57806345fce4f9146102bc57806364ea1929146102ee57610135565b806304ba342714610139578063059a97fb1461016957806315943cb61461019b57806319921bd0146101cc57806320f91849146101fc575b5f80fd5b610153600480360381019061014e919061152a565b610525565b604051610160919061158b565b60405180910390f35b610183600480360381019061017e919061152a565b610543565b604051610192939291906115fb565b60405180910390f35b6101b560048036038101906101b0919061152a565b6105d3565b6040516101c3929190611630565b60405180910390f35b6101e660048036038101906101e1919061152a565b61065f565b6040516101f3919061158b565b60405180910390f35b6102166004803603810190610211919061152a565b61067d565b6040516102239190611657565b60405180910390f35b6102466004803603810190610241919061152a565b61069b565b6040516102539190611670565b60405180910390f35b6102766004803603810190610271919061152a565b6106b9565b6040516102839190611703565b60405180910390f35b6102a660048036038101906102a1919061152a565b6106d8565b6040516102b39190611775565b60405180910390f35b6102d660048036038101906102d1919061152a565b6106f7565b6040516102e593929190611795565b60405180910390f35b6103086004803603810190610303919061152a565b61072c565b6040516103169291906117e2565b60405180910390f35b6103396004803603810190610334919061152a565b6107b8565b6040516103469190611703565b60405180910390f35b6103696004803603810190610364919061152a565b6107f9565b6040516103769190611775565b60405180910390f35b6103996004803603810190610394919061152a565b610866565b6040516103a69190611657565b60405180910390f35b6103c960048036038101906103c4919061152a565b61087f565b6040516103d69190611657565b60405180910390f35b6103f960048036038101906103f4919061152a565b61089d565b6040516104069190611657565b60405180910390f35b6104296004803603810190610424919061152a565b6108bb565b005b6104456004803603810190610440919061152a565b6108d0565b6040516104529190611657565b60405180910390f35b6104756004803603810190610470919061152a565b6108ef565b60405161048c9b9a99989796959493929190611809565b60405180910390f35b6104af60048036038101906104aa919061152a565b610ac0565b6040516104bc9190611703565b60405180910390f35b6104df60048036038101906104da919061152a565b610adf565b6040516104ec91906118b2565b60405180910390f35b61050f600480360381019061050a919061152a565b610afd565b60405161051c91906118b2565b60405180910390f35b5f8061053083610b1b565b905061053b81610b48565b915050919050565b5f805f8061055861055386610b1b565b610b93565b905061057d815f815181106105705761056f6118cb565b5b6020026020010151610c9c565b6105a182600181518110610594576105936118cb565b5b6020026020010151610b48565b6105c5836002815181106105b8576105b76118cb565b5b6020026020010151610cbc565b935093509350509193909250565b5f805f6105e76105e285610b1b565b610b93565b905061060c815f815181106105ff576105fe6118cb565b5b6020026020010151610b93565b9050610631815f81518110610624576106236118cb565b5b6020026020010151610c9c565b61065582600181518110610648576106476118cb565b5b6020026020010151610cbc565b9250925050915091565b5f8061066a83610b1b565b905061067581610d10565b915050919050565b5f8061068883610b1b565b905061069381610d57565b915050919050565b5f806106a683610b1b565b90506106b181610c9c565b915050919050565b60605f6106c583610b1b565b90506106d081610d8a565b915050919050565b60605f6106e483610b1b565b90506106ef81610e14565b915050919050565b5f805f8061070485610b1b565b90505f8061071183610ea1565b91509150818184602001519550955095505050509193909250565b5f805f61074061073b85610b1b565b610b93565b9050610765815f81518110610758576107576118cb565b5b6020026020010151610b93565b905061078a815f8151811061077d5761077c6118cb565b5b6020026020010151610ee6565b6107ae826001815181106107a1576107a06118cb565b5b6020026020010151610ee6565b9250925050915091565b60605f6107cc6107c784610b1b565b610b93565b90506107f1815f815181106107e4576107e36118cb565b5b6020026020010151610d8a565b915050919050565b60605f61080d61080884610b1b565b610f07565b90505f61082161081c83610f5c565b610f07565b90505f61083561083083610f5c565b610e14565b905061084083610fbc565b15610849575f80fd5b61085282610fbc565b1561085b575f80fd5b809350505050919050565b5f8060208301905061087781610fe5565b915050919050565b5f8061088a83610b1b565b905061089581610cbc565b915050919050565b5f806108a883610b1b565b90506108b3816110be565b915050919050565b6108cc6108c782610b1b565b610f07565b5050565b5f806108e36108de84610b1b565b610b93565b90508051915050919050565b5f805f805f805f805f805f8061090c6109078e610b1b565b610f07565b90505f5b61091982610fbc565b15610aaf575f810361093f5761093661093183610f5c565b610cbc565b5f1b9c50610a9c565b600181036109615761095861095383610f5c565b610cbc565b5f1b9b50610a9b565b600381036109835761097a61097583610f5c565b610cbc565b5f1b9a50610a9a565b600481036109a55761099c61099783610f5c565b610cbc565b5f1b9950610a99565b600581036109c7576109be6109b983610f5c565b610cbc565b5f1b9850610a98565b600781036109e7576109e06109db83610f5c565b610cbc565b9750610a97565b60088103610a0757610a006109fb83610f5c565b610cbc565b9650610a96565b60098103610a2757610a20610a1b83610f5c565b610cbc565b9550610a95565b600a8103610a4757610a40610a3b83610f5c565b610cbc565b9450610a94565b600b8103610a6757610a60610a5b83610f5c565b610cbc565b9350610a93565b600e8103610a8757610a80610a7b83610f5c565b610cbc565b9250610a92565b610a9082610f5c565b505b5b5b5b5b5b5b5b5b5b5b8080610aa790611925565b915050610910565b505091939597999b90929496989a50565b60605f610acc83610b1b565b9050610ad781610e14565b915050919050565b5f80610aea83610b1b565b9050610af581610ee6565b915050919050565b5f80610b0883610b1b565b9050610b13816110ca565b915050919050565b610b236113a6565b5f60208301905060405180604001604052808451815260200182815250915050919050565b5f6001825f015114610b58575f80fd5b5f808360200151905080515f1a91505f821480610b785750608060ff1682145b15610b87575f92505050610b8e565b6001925050505b919050565b6060610b9e82610d10565b610ba6575f80fd5b5f610bb0836110eb565b90505f8167ffffffffffffffff811115610bcd57610bcc611406565b5b604051908082528060200260200182016040528015610c0657816020015b610bf36113a6565b815260200190600190039081610beb5790505b5090505f610c178560200151611172565b8560200151610c26919061196c565b90505f805f90505b84811015610c8f57610c3f8361122e565b9150604051806040016040528083815260200184815250848281518110610c6957610c686118cb565b5b60200260200101819052508183610c80919061196c565b92508080600101915050610c2e565b5082945050505050919050565b5f6015825f015114610cac575f80fd5b610cb582610cbc565b9050919050565b5f80825f0151118015610cd357506021825f015111155b610cdb575f80fd5b5f80610ce684610ea1565b915091505f825190506020821015610d0557816020036101000a810490505b809350505050919050565b5f80825f015103610d23575f9050610d52565b5f808360200151905080515f1a915060c060ff168260ff161015610d4b575f92505050610d52565b6001925050505b919050565b5f6021825f015114610d67575f80fd5b5f8060018460200151610d7a919061196c565b9050805191508192505050919050565b60605f825f015167ffffffffffffffff811115610daa57610da9611406565b5b6040519080825280601f01601f191660200182016040528015610ddc5781602001600182028036833780820191505090505b5090505f815103610df05780915050610e0f565b5f816020019050610e09846020015182865f0151611307565b81925050505b919050565b60605f825f015111610e24575f80fd5b5f80610e2f84610ea1565b915091505f8167ffffffffffffffff811115610e4e57610e4d611406565b5b6040519080825280601f01601f191660200182016040528015610e805781602001600182028036833780820191505090505b5090505f816020019050610e95848285611307565b81945050505050919050565b5f805f610eb18460200151611172565b90505f818560200151610ec4919061196c565b90505f82865f0151610ed6919061199f565b9050818194509450505050915091565b5f805f610ef284610ea1565b915091505f8183209050809350505050919050565b610f0f6113be565b610f1882610d10565b610f20575f80fd5b5f610f2e8360200151611172565b8360200151610f3d919061196c565b9050604051806040016040528084815260200182815250915050919050565b610f646113a6565b610f6d82610fbc565b610f75575f80fd5b5f826020015190505f610f878261122e565b90508082610f95919061196c565b84602001818152505060405180604001604052808281526020018381525092505050919050565b5f80825f01519050805f01518160200151610fd7919061196c565b836020015110915050919050565b5f805f83515f1a9050608060ff1681101561100357600191506110b4565b60b860ff16811015611032576001608060ff1682611021919061199f565b61102b919061196c565b91506110b3565b60c060ff168110156110625760b78103600185019450806020036101000a855104600182018101935050506110b2565b60f860ff1681101561109157600160c060ff1682611080919061199f565b61108a919061196c565b91506110b1565b60f78103600185019450806020036101000a855104600182018101935050505b5b5b5b8192505050919050565b5f815f01519050919050565b5f80826020015190505f835f015190505f8183209050809350505050919050565b5f80825f0151036110fe575f905061116d565b5f8061110d8460200151611172565b846020015161111c919061196c565b90505f845f01518560200151611132919061196c565b90505b80821015611166576111468261122e565b82611151919061196c565b9150828061115e90611925565b935050611135565b8293505050505b919050565b5f8082515f1a9050608060ff1681101561118f575f915050611229565b60b860ff168110806111b4575060c060ff1681101580156111b3575060f860ff1681105b5b156111c3576001915050611229565b60c060ff168110156111fe5760018060b86111de91906119de565b60ff16826111ec919061199f565b6111f6919061196c565b915050611229565b60018060f861120d91906119de565b60ff168261121b919061199f565b611225919061196c565b9150505b919050565b5f805f83515f1a9050608060ff1681101561124c57600191506112fd565b60b860ff1681101561127b576001608060ff168261126a919061199f565b611274919061196c565b91506112fc565b60c060ff168110156112ab5760b78103600185019450806020036101000a855104600182018101935050506112fb565b60f860ff168110156112da57600160c060ff16826112c9919061199f565b6112d3919061196c565b91506112fa565b60f78103600185019450806020036101000a855104600182018101935050505b5b5b5b8192505050919050565b5f8103156113a1575b602060ff16811061135a5782518252602060ff168361132f919061196c565b9250602060ff1682611341919061196c565b9150602060ff1681611353919061199f565b9050611310565b5f8111156113a0575f600182602060ff16611375919061199f565b6101006113829190611b41565b61138c919061199f565b905080198451168184511681811785525050505b5b505050565b60405180604001604052805f81526020015f81525090565b60405180604001604052806113d16113a6565b81526020015f81525090565b5f604051905090565b5f80fd5b5f80fd5b5f80fd5b5f80fd5b5f601f19601f8301169050919050565b7f4e487b71000000000000000000000000000000000000000000000000000000005f52604160045260245ffd5b61143c826113f6565b810181811067ffffffffffffffff8211171561145b5761145a611406565b5b80604052505050565b5f61146d6113dd565b90506114798282611433565b919050565b5f67ffffffffffffffff82111561149857611497611406565b5b6114a1826113f6565b9050602081019050919050565b828183375f83830152505050565b5f6114ce6114c98461147e565b611464565b9050828152602081018484840111156114ea576114e96113f2565b5b6114f58482856114ae565b509392505050565b5f82601f830112611511576115106113ee565b5b81356115218482602086016114bc565b91505092915050565b5f6020828403121561153f5761153e6113e6565b5b5f82013567ffffffffffffffff81111561155c5761155b6113ea565b5b611568848285016114fd565b91505092915050565b5f8115159050919050565b61158581611571565b82525050565b5f60208201905061159e5f83018461157c565b92915050565b5f73ffffffffffffffffffffffffffffffffffffffff82169050919050565b5f6115cd826115a4565b9050919050565b6115dd816115c3565b82525050565b5f819050919050565b6115f5816115e3565b82525050565b5f60608201905061160e5f8301866115d4565b61161b602083018561157c565b61162860408301846115ec565b949350505050565b5f6040820190506116435f8301856115d4565b61165060208301846115ec565b9392505050565b5f60208201905061166a5f8301846115ec565b92915050565b5f6020820190506116835f8301846115d4565b92915050565b5f81519050919050565b5f82825260208201905092915050565b5f5b838110156116c05780820151818401526020810190506116a5565b5f8484015250505050565b5f6116d582611689565b6116df8185611693565b93506116ef8185602086016116a3565b6116f8816113f6565b840191505092915050565b5f6020820190508181035f83015261171b81846116cb565b905092915050565b5f81519050919050565b5f82825260208201905092915050565b5f61174782611723565b611751818561172d565b93506117618185602086016116a3565b61176a816113f6565b840191505092915050565b5f6020820190508181035f83015261178d818461173d565b905092915050565b5f6060820190506117a85f8301866115ec565b6117b560208301856115ec565b6117c260408301846115ec565b949350505050565b5f819050919050565b6117dc816117ca565b82525050565b5f6040820190506117f55f8301856117d3565b61180260208301846117d3565b9392505050565b5f6101608201905061181d5f83018e6117d3565b61182a602083018d6117d3565b611837604083018c6117d3565b611844606083018b6117d3565b611851608083018a6117d3565b61185e60a08301896115ec565b61186b60c08301886115ec565b61187860e08301876115ec565b6118866101008301866115ec565b6118946101208301856115ec565b6118a26101408301846115ec565b9c9b505050505050505050505050565b5f6020820190506118c55f8301846117d3565b92915050565b7f4e487b71000000000000000000000000000000000000000000000000000000005f52603260045260245ffd5b7f4e487b71000000000000000000000000000000000000000000000000000000005f52601160045260245ffd5b5f61192f826115e3565b91507fffffffffffffffffffffffffffffffffffffffffffffffffffffffffffffffff8203611961576119606118f8565b5b600182019050919050565b5f611976826115e3565b9150611981836115e3565b9250828201905080821115611999576119986118f8565b5b92915050565b5f6119a9826115e3565b91506119b4836115e3565b92508282039050818111156119cc576119cb6118f8565b5b92915050565b5f60ff82169050919050565b5f6119e8826119d2565b91506119f3836119d2565b9250828203905060ff811115611a0c57611a0b6118f8565b5b92915050565b5f8160011c9050919050565b5f808291508390505b6001851115611a6757808604811115611a4357611a426118f8565b5b6001851615611a525780820291505b8081029050611a6085611a12565b9450611a27565b94509492505050565b5f82611a7f5760019050611b3a565b81611a8c575f9050611b3a565b8160018114611aa25760028114611aac57611adb565b6001915050611b3a565b60ff841115611abe57611abd6118f8565b5b8360020a915084821115611ad557611ad46118f8565b5b50611b3a565b5060208310610133831016604e8410600b8410161715611b105782820a905083811115611b0b57611b0a6118f8565b5b611b3a565b611b1d8484846001611a1e565b92509050818404811115611b3457611b336118f8565b5b81810290505b9392505050565b5f611b4b826115e3565b9150611b56836115e3565b9250611b837fffffffffffffffffffffffffffffffffffffffffffffffffffffffffffffffff8484611a70565b90509291505056fea2646970667358221220dbaab8c3f3ad474eb0ee07787f48da58b018b963146b464477a42d8a8910cc0164736f6c63430008180033",
					"opcodes": "PUSH1 0x80 PUSH1 0x40 MSTORE CALLVALUE DUP1 ISZERO PUSH2 0xF JUMPI PUSH0 DUP1 REVERT JUMPDEST POP PUSH2 0x1BC1 DUP1 PUSH2 0x1D PUSH0 CODECOPY PUSH0 RETURN INVALID PUSH1 0x80 PUSH1 0x40 MSTORE CALLVALUE DUP1 ISZERO PUSH2 0xF JUMPI PUSH0 DUP1 REVERT JUMPDEST POP PUSH1 0x4 CALLDATASIZE LT PUSH2 0x135 JUMPI PUSH0 CALLDATALOAD PUSH1 0xE0 SHR DUP1 PUSH4 0x74C4C494 GT PUSH2 0xB6 JUMPI DUP1 PUSH4 0xD03CA5A3 GT PUSH2 0x7A JUMPI DUP1 PUSH4 0xD03CA5A3 EQ PUSH2 0x40F JUMPI DUP1 PUSH4 0xDD208EA1 EQ PUSH2 0x42B JUMPI DUP1 PUSH4 0xE7617BF8 EQ PUSH2 0x45B JUMPI DUP1 PUSH4 0xE79FBCEC EQ PUSH2 0x495 JUMPI DUP1 PUSH4 0xEB4EB372 EQ PUSH2 0x4C5 JUMPI DUP1 PUSH4 0xF29CDDC0 EQ PUSH2 0x4F5 JUMPI PUSH2 0x135 JUMP JUMPDEST DUP1 PUSH4 0x74C4C494 EQ PUSH2 0x31F JUMPI DUP1 PUSH4 0x76193F8C EQ PUSH2 0x34F JUMPI DUP1 PUSH4 0x8109672F EQ PUSH2 0x37F JUMPI DUP1 PUSH4 0x8529D576 EQ PUSH2 0x3AF JUMPI DUP1 PUSH4 0xAAC19545 EQ PUSH2 0x3DF JUMPI PUSH2 0x135 JUMP JUMPDEST DUP1 PUSH4 0x2D888869 GT PUSH2 0xFD JUMPI DUP1 PUSH4 0x2D888869 EQ PUSH2 0x22C JUMPI DUP1 PUSH4 0x33C82D18 EQ PUSH2 0x25C JUMPI DUP1 PUSH4 0x39614E4F EQ PUSH2 0x28C JUMPI DUP1 PUSH4 0x45FCE4F9 EQ PUSH2 0x2BC JUMPI DUP1 PUSH4 0x64EA1929 EQ PUSH2 0x2EE JUMPI PUSH2 0x135 JUMP JUMPDEST DUP1 PUSH4 0x4BA3427 EQ PUSH2 0x139 JUMPI DUP1 PUSH4 0x59A97FB EQ PUSH2 0x169 JUMPI DUP1 PUSH4 0x15943CB6 EQ PUSH2 0x19B JUMPI DUP1 PUSH4 0x19921BD0 EQ PUSH2 0x1CC JUMPI DUP1 PUSH4 0x20F91849 EQ PUSH2 0x1FC JUMPI JUMPDEST PUSH0 DUP1 REVERT JUMPDEST PUSH2 0x153 PUSH1 0x4 DUP1 CALLDATASIZE SUB DUP2 ADD SWAP1 PUSH2 0x14E SWAP2 SWAP1 PUSH2 0x152A JUMP JUMPDEST PUSH2 0x525 JUMP JUMPDEST PUSH1 0x40 MLOAD PUSH2 0x160 SWAP2 SWAP1 PUSH2 0x158B JUMP JUMPDEST PUSH1 0x40 MLOAD DUP1 SWAP2 SUB SWAP1 RETURN JUMPDEST PUSH2 0x183 PUSH1 0x4 DUP1 CALLDATASIZE SUB DUP2 ADD SWAP1 PUSH2 0x17E SWAP2 SWAP1 PUSH2 0x152A JUMP JUMPDEST PUSH2 0x543 JUMP JUMPDEST PUSH1 0x40 MLOAD PUSH2 0x192 SWAP4 SWAP3 SWAP2 SWAP1 PUSH2 0x15FB JUMP JUMPDEST PUSH1 0x40 MLOAD DUP1 SWAP2 SUB SWAP1 RETURN JUMPDEST PUSH2 0x1B5 PUSH1 0x4 DUP1 CALLDATASIZE SUB DUP2 ADD SWAP1 PUSH2 0x1B0 SWAP2 SWAP1 PUSH2 0x152A JUMP JUMPDEST PUSH2 0x5D3 JUMP JUMPDEST PUSH1 0x40 MLOAD PUSH2 0x1C3 SWAP3 SWAP2 SWAP1 PUSH2 0x1630 JUMP JUMPDEST PUSH1 0x40 MLOAD DUP1 SWAP2 SUB SWAP1 RETURN JUMPDEST PUSH2 0x1E6 PUSH1 0x4 DUP1 CALLDATASIZE SUB DUP2 ADD SWAP1 PUSH2 0x1E1 SWAP2 SWAP1 PUSH2 0x152A JUMP JUMPDEST PUSH2 0x65F JUMP JUMPDEST PUSH1 0x40 MLOAD PUSH2 0x1F3 SWAP2 SWAP1 PUSH2 0x158B JUMP JUMPDEST PUSH1 0x40 MLOAD DUP1 SWAP2 SUB SWAP1 RETURN JUMPDEST PUSH2 0x216 PUSH1 0x4 DUP1 CALLDATASIZE SUB DUP2 ADD SWAP1 PUSH2 0x211 SWAP2 SWAP1 PUSH2 0x152A JUMP JUMPDEST PUSH2 0x67D JUMP JUMPDEST PUSH1 0x40 MLOAD PUSH2 0x223 SWAP2 SWAP1 PUSH2 0x1657 JUMP JUMPDEST PUSH1 0x40 MLOAD DUP1 SWAP2 SUB SWAP1 RETURN JUMPDEST PUSH2 0x246 PUSH1 0x4 DUP1 CALLDATASIZE SUB DUP2 ADD SWAP1 PUSH2 0x241 SWAP2 SWAP1 PUSH2 0x152A JUMP JUMPDEST PUSH2 0x69B JUMP JUMPDEST PUSH1 0x40 MLOAD PUSH2 0x253 SWAP2 SWAP1 PUSH2 0x1670 JUMP JUMPDEST PUSH1 0x40 MLOAD DUP1 SWAP2 SUB SWAP1 RETURN JUMPDEST PUSH2 0x276 PUSH1 0x4 DUP1 CALLDATASIZE SUB DUP2 ADD SWAP1 PUSH2 0x271 SWAP2 SWAP1 PUSH2 0x152A JUMP JUMPDEST PUSH2 0x6B9 JUMP JUMPDEST PUSH1 0x40 MLOAD PUSH2 0x283 SWAP2 SWAP1 PUSH2 0x1703 JUMP JUMPDEST PUSH1 0x40 MLOAD DUP1 SWAP2 SUB SWAP1 RETURN JUMPDEST PUSH2 0x2A6 PUSH1 0x4 DUP1 CALLDATASIZE SUB DUP2 ADD SWAP1 PUSH2 0x2A1 SWAP2 SWAP1 PUSH2 0x152A JUMP JUMPDEST PUSH2 0x6D8 JUMP JUMPDEST PUSH1 0x40 MLOAD PUSH2 0x2B3 SWAP2 SWAP1 PUSH2 0x1775 JUMP JUMPDEST PUSH1 0x40 MLOAD DUP1 SWAP2 SUB SWAP1 RETURN JUMPDEST PUSH2 0x2D6 PUSH1 0x4 DUP1 CALLDATASIZE SUB DUP2 ADD SWAP1 PUSH2 0x2D1 SWAP2 SWAP1 PUSH2 0x152A JUMP JUMPDEST PUSH2 0x6F7 JUMP JUMPDEST PUSH1 0x40 MLOAD PUSH2 0x2E5 SWAP4 SWAP3 SWAP2 SWAP1 PUSH2 0x1795 JUMP JUMPDEST PUSH1 0x40 MLOAD DUP1 SWAP2 SUB SWAP1 RETURN JUMPDEST PUSH2 0x308 PUSH1 0x4 DUP1 CALLDATASIZE SUB DUP2 ADD SWAP1 PUSH2 0x303 SWAP2 SWAP1 PUSH2 0x152A JUMP JUMPDEST PUSH2 0x72C JUMP JUMPDEST PUSH1 0x40 MLOAD PUSH2 0x316 SWAP3 SWAP2 SWAP1 PUSH2 0x17E2 JUMP JUMPDEST PUSH1 0x40 MLOAD DUP1 SWAP2 SUB SWAP1 RETURN JUMPDEST PUSH2 0x339 PUSH1 0x4 DUP1 CALLDATASIZE SUB DUP2 ADD SWAP1 PUSH2 0x334 SWAP2 SWAP1 PUSH2 0x152A JUMP JUMPDEST PUSH2 0x7B8 JUMP JUMPDEST PUSH1 0x40 MLOAD PUSH2 0x346 SWAP2 SWAP1 PUSH2 0x1703 JUMP JUMPDEST PUSH1 0x40 MLOAD DUP1 SWAP2 SUB SWAP1 RETURN JUMPDEST PUSH2 0x369 PUSH1 0x4 DUP1 CALLDATASIZE SUB DUP2 ADD SWAP1 PUSH2 0x364 SWAP2 SWAP1 PUSH2 0x152A JUMP JUMPDEST PUSH2 0x7F9 JUMP JUMPDEST PUSH1 0x40 MLOAD PUSH2 0x376 SWAP2 SWAP1 PUSH2 0x1775 JUMP JUMPDEST PUSH1 0x40 MLOAD DUP1 SWAP2 SUB SWAP1 RETURN JUMPDEST PUSH2 0x399 PUSH1 0x4 DUP1 CALLDATASIZE SUB DUP2 ADD SWAP1 PUSH2 0x394 SWAP2 SWAP1 PUSH2 0x152A JUMP JUMPDEST PUSH2 0x866 JUMP JUMPDEST PUSH1 0x40 MLOAD PUSH2 0x3A6 SWAP2 SWAP1 PUSH2 0x1657 JUMP JUMPDEST PUSH1 0x40 MLOAD DUP1 SWAP2 SUB SWAP1 RETURN JUMPDEST PUSH2 0x3C9 PUSH1 0x4 DUP1 CALLDATASIZE SUB DUP2 ADD SWAP1 PUSH2 0x3C4 SWAP2 SWAP1 PUSH2 0x152A JUMP JUMPDEST PUSH2 0x87F JUMP JUMPDEST PUSH1 0x40 MLOAD PUSH2 0x3D6 SWAP2 SWAP1 PUSH2 0x1657 JUMP JUMPDEST PUSH1 0x40 MLOAD DUP1 SWAP2 SUB SWAP1 RETURN JUMPDEST PUSH2 0x3F9 PUSH1 0x4 DUP1 CALLDATASIZE SUB DUP2 ADD SWAP1 PUSH2 0x3F4 SWAP2 SWAP1 PUSH2 0x152A JUMP JUMPDEST PUSH2 0x89D JUMP JUMPDEST PUSH1 0x40 MLOAD PUSH2 0x406 SWAP2 SWAP1 PUSH2 0x1657 JUMP JUMPDEST PUSH1 0x40 MLOAD DUP1 SWAP2 SUB SWAP1 RETURN JUMPDEST PUSH2 0x429 PUSH1 0x4 DUP1 CALLDATASIZE SUB DUP2 ADD SWAP1 PUSH2 0x424 SWAP2 SWAP1 PUSH2 0x152A JUMP JUMPDEST PUSH2 0x8BB JUMP JUMPDEST STOP JUMPDEST PUSH2 0x445 PUSH1 0x4 DUP1 CALLDATASIZE SUB DUP2 ADD SWAP1 PUSH2 0x440 SWAP2 SWAP1 PUSH2 0x152A JUMP JUMPDEST PUSH2 0x8D0 JUMP JUMPDEST PUSH1 0x40 MLOAD PUSH2 0x452 SWAP2 SWAP1 PUSH2 0x1657 JUMP JUMPDEST PUSH1 0x40 MLOAD DUP1 SWAP2 SUB SWAP1 RETURN JUMPDEST PUSH2 0x475 PUSH1 0x4 DUP1 CALLDATASIZE SUB DUP2 ADD SWAP1 PUSH2 0x470 SWAP2 SWAP1 PUSH2 0x152A JUMP JUMPDEST PUSH2 0x8EF JUMP JUMPDEST PUSH1 0x40 MLOAD PUSH2 0x48C SWAP12 SWAP11 SWAP10 SWAP9 SWAP8 SWAP7 SWAP6 SWAP5 SWAP4 SWAP3 SWAP2 SWAP1 PUSH2 0x1809 JUMP JUMPDEST PUSH1 0x40 MLOAD DUP1 SWAP2 SUB SWAP1 RETURN JUMPDEST PUSH2 0x4AF PUSH1 0x4 DUP1 CALLDATASIZE SUB DUP2 ADD SWAP1 PUSH2 0x4AA SWAP2 SWAP1 PUSH2 0x152A JUMP JUMPDEST PUSH2 0xAC0 JUMP JUMPDEST PUSH1 0x40 MLOAD PUSH2 0x4BC SWAP2 SWAP1 PUSH2 0x1703 JUMP JUMPDEST PUSH1 0x40 MLOAD DUP1 SWAP2 SUB SWAP1 RETURN JUMPDEST PUSH2 0x4DF PUSH1 0x4 DUP1 CALLDATASIZE SUB DUP2 ADD SWAP1 PUSH2 0x4DA SWAP2 SWAP1 PUSH2 0x152A JUMP JUMPDEST PUSH2 0xADF JUMP JUMPDEST PUSH1 0x40 MLOAD PUSH2 0x4EC SWAP2 SWAP1 PUSH2 0x18B2 JUMP JUMPDEST PUSH1 0x40 MLOAD DUP1 SWAP2 SUB SWAP1 RETURN JUMPDEST PUSH2 0x50F PUSH1 0x4 DUP1 CALLDATASIZE SUB DUP2 ADD SWAP1 PUSH2 0x50A SWAP2 SWAP1 PUSH2 0x152A JUMP JUMPDEST PUSH2 0xAFD JUMP JUMPDEST PUSH1 0x40 MLOAD PUSH2 0x51C SWAP2 SWAP1 PUSH2 0x18B2 JUMP JUMPDEST PUSH1 0x40 MLOAD DUP1 SWAP2 SUB SWAP1 RETURN JUMPDEST PUSH0 DUP1 PUSH2 0x530 DUP4 PUSH2 0xB1B JUMP JUMPDEST SWAP1 POP PUSH2 0x53B DUP2 PUSH2 0xB48 JUMP JUMPDEST SWAP2 POP POP SWAP2 SWAP1 POP JUMP JUMPDEST PUSH0 DUP1 PUSH0 DUP1 PUSH2 0x558 PUSH2 0x553 DUP7 PUSH2 0xB1B JUMP JUMPDEST PUSH2 0xB93 JUMP JUMPDEST SWAP1 POP PUSH2 0x57D DUP2 PUSH0 DUP2 MLOAD DUP2 LT PUSH2 0x570 JUMPI PUSH2 0x56F PUSH2 0x18CB JUMP JUMPDEST JUMPDEST PUSH1 0x20 MUL PUSH1 0x20 ADD ADD MLOAD PUSH2 0xC9C JUMP JUMPDEST PUSH2 0x5A1 DUP3 PUSH1 0x1 DUP2 MLOAD DUP2 LT PUSH2 0x594 JUMPI PUSH2 0x593 PUSH2 0x18CB JUMP JUMPDEST JUMPDEST PUSH1 0x20 MUL PUSH1 0x20 ADD ADD MLOAD PUSH2 0xB48 JUMP JUMPDEST PUSH2 0x5C5 DUP4 PUSH1 0x2 DUP2 MLOAD DUP2 LT PUSH2 0x5B8 JUMPI PUSH2 0x5B7 PUSH2 0x18CB JUMP JUMPDEST JUMPDEST PUSH1 0x20 MUL PUSH1 0x20 ADD ADD MLOAD PUSH2 0xCBC JUMP JUMPDEST SWAP4 POP SWAP4 POP SWAP4 POP POP SWAP2 SWAP4 SWAP1 SWAP3 POP JUMP JUMPDEST PUSH0 DUP1 PUSH0 PUSH2 0x5E7 PUSH2 0x5E2 DUP6 PUSH2 0xB1B JUMP JUMPDEST PUSH2 0xB93 JUMP JUMPDEST SWAP1 POP PUSH2 0x60C DUP2 PUSH0 DUP2 MLOAD DUP2 LT PUSH2 0x5FF JUMPI PUSH2 0x5FE PUSH2 0x18CB JUMP JUMPDEST JUMPDEST PUSH1 0x20 MUL PUSH1 0x20 ADD ADD MLOAD PUSH2 0xB93 JUMP JUMPDEST SWAP1 POP PUSH2 0x631 DUP2 PUSH0 DUP2 MLOAD DUP2 LT PUSH2 0x624 JUMPI PUSH2 0x623 PUSH2 0x18CB JUMP JUMPDEST JUMPDEST PUSH1 0x20 MUL PUSH1 0x20 ADD ADD MLOAD PUSH2 0xC9C JUMP JUMPDEST PUSH2 0x655 DUP3 PUSH1 0x1 DUP2 MLOAD DUP2 LT PUSH2 0x648 JUMPI PUSH2 0x647 PUSH2 0x18CB JUMP JUMPDEST JUMPDEST PUSH1 0x20 MUL PUSH1 0x20 ADD ADD MLOAD PUSH2 0xCBC JUMP JUMPDEST SWAP3 POP SWAP3 POP POP SWAP2 POP SWAP2 JUMP JUMPDEST PUSH0 DUP1 PUSH2 0x66A DUP4 PUSH2 0xB1B JUMP JUMPDEST SWAP1 POP PUSH2 0x675 DUP2 PUSH2 0xD10 JUMP JUMPDEST SWAP2 POP POP SWAP2 SWAP1 POP JUMP JUMPDEST PUSH0 DUP1 PUSH2 0x688 DUP4 PUSH2 0xB1B JUMP JUMPDEST SWAP1 POP PUSH2 0x693 DUP2 PUSH2 0xD57 JUMP JUMPDEST SWAP2 POP POP SWAP2 SWAP1 POP JUMP JUMPDEST PUSH0 DUP1 PUSH2 0x6A6 DUP4 PUSH2 0xB1B JUMP JUMPDEST SWAP1 POP PUSH2 0x6B1 DUP2 PUSH2 0xC9C JUMP JUMPDEST SWAP2 POP POP SWAP2 SWAP1 POP JUMP JUMPDEST PUSH1 0x60 PUSH0 PUSH2 0x6C5 DUP4 PUSH2 0xB1B JUMP JUMPDEST SWAP1 POP PUSH2 0x6D0 DUP2 PUSH2 0xD8A JUMP JUMPDEST SWAP2 POP POP SWAP2 SWAP1 POP JUMP JUMPDEST PUSH1 0x60 PUSH0 PUSH2 0x6E4 DUP4 PUSH2 0xB1B JUMP JUMPDEST SWAP1 POP PUSH2 0x6EF DUP2 PUSH2 0xE14 JUMP JUMPDEST SWAP2 POP POP SWAP2 SWAP1 POP JUMP JUMPDEST PUSH0 DUP1 PUSH0 DUP1 PUSH2 0x704 DUP6 PUSH2 0xB1B JUMP JUMPDEST SWAP1 POP PUSH0 DUP1 PUSH2 0x711 DUP4 PUSH2 0xEA1 JUMP JUMPDEST SWAP2 POP SWAP2 POP DUP2 DUP2 DUP5 PUSH1 0x20 ADD MLOAD SWAP6 POP SWAP6 POP SWAP6 POP POP POP POP SWAP2 SWAP4 SWAP1 SWAP3 POP JUMP JUMPDEST PUSH0 DUP1 PUSH0 PUSH2 0x740 PUSH2 0x73B DUP6 PUSH2 0xB1B JUMP JUMPDEST PUSH2 0xB93 JUMP JUMPDEST SWAP1 POP PUSH2 0x765 DUP2 PUSH0 DUP2 MLOAD DUP2 LT PUSH2 0x758 JUMPI PUSH2 0x757 PUSH2 0x18CB JUMP JUMPDEST JUMPDEST PUSH1 0x20 MUL PUSH1 0x20 ADD ADD MLOAD PUSH2 0xB93 JUMP JUMPDEST SWAP1 POP PUSH2 0x78A DUP2 PUSH0 DUP2 MLOAD DUP2 LT PUSH2 0x77D JUMPI PUSH2 0x77C PUSH2 0x18CB JUMP JUMPDEST JUMPDEST PUSH1 0x20 MUL PUSH1 0x20 ADD ADD MLOAD PUSH2 0xEE6 JUMP JUMPDEST PUSH2 0x7AE DUP3 PUSH1 0x1 DUP2 MLOAD DUP2 LT PUSH2 0x7A1 JUMPI PUSH2 0x7A0 PUSH2 0x18CB JUMP JUMPDEST JUMPDEST PUSH1 0x20 MUL PUSH1 0x20 ADD ADD MLOAD PUSH2 0xEE6 JUMP JUMPDEST SWAP3 POP SWAP3 POP POP SWAP2 POP SWAP2 JUMP JUMPDEST PUSH1 0x60 PUSH0 PUSH2 0x7CC PUSH2 0x7C7 DUP5 PUSH2 0xB1B JUMP JUMPDEST PUSH2 0xB93 JUMP JUMPDEST SWAP1 POP PUSH2 0x7F1 DUP2 PUSH0 DUP2 MLOAD DUP2 LT PUSH2 0x7E4 JUMPI PUSH2 0x7E3 PUSH2 0x18CB JUMP JUMPDEST JUMPDEST PUSH1 0x20 MUL PUSH1 0x20 ADD ADD MLOAD PUSH2 0xD8A JUMP JUMPDEST SWAP2 POP POP SWAP2 SWAP1 POP JUMP JUMPDEST PUSH1 0x60 PUSH0 PUSH2 0x80D PUSH2 0x808 DUP5 PUSH2 0xB1B JUMP JUMPDEST PUSH2 0xF07 JUMP JUMPDEST SWAP1 POP PUSH0 PUSH2 0x821 PUSH2 0x81C DUP4 PUSH2 0xF5C JUMP JUMPDEST PUSH2 0xF07 JUMP JUMPDEST SWAP1 POP PUSH0 PUSH2 0x835 PUSH2 0x830 DUP4 PUSH2 0xF5C JUMP JUMPDEST PUSH2 0xE14 JUMP JUMPDEST SWAP1 POP PUSH2 0x840 DUP4 PUSH2 0xFBC JUMP JUMPDEST ISZERO PUSH2 0x849 JUMPI PUSH0 DUP1 REVERT JUMPDEST PUSH2 0x852 DUP3 PUSH2 0xFBC JUMP JUMPDEST ISZERO PUSH2 0x85B JUMPI PUSH0 DUP1 REVERT JUMPDEST DUP1 SWAP4 POP POP POP POP SWAP2 SWAP1 POP JUMP JUMPDEST PUSH0 DUP1 PUSH1 0x20 DUP4 ADD SWAP1 POP PUSH2 0x877 DUP2 PUSH2 0xFE5 JUMP JUMPDEST SWAP2 POP POP SWAP2 SWAP1 POP JUMP JUMPDEST PUSH0 DUP1 PUSH2 0x88A DUP4 PUSH2 0xB1B JUMP JUMPDEST SWAP1 POP PUSH2 0x895 DUP2 PUSH2 0xCBC JUMP JUMPDEST SWAP2 POP POP SWAP2 SWAP1 POP JUMP JUMPDEST PUSH0 DUP1 PUSH2 0x8A8 DUP4 PUSH2 0xB1B JUMP JUMPDEST SWAP1 POP PUSH2 0x8B3 DUP2 PUSH2 0x10BE JUMP JUMPDEST SWAP2 POP POP SWAP2 SWAP1 POP JUMP JUMPDEST PUSH2 0x8CC PUSH2 0x8C7 DUP3 PUSH2 0xB1B JUMP JUMPDEST PUSH2 0xF07 JUMP JUMPDEST POP POP JUMP JUMPDEST PUSH0 DUP1 PUSH2 0x8E3 PUSH2 0x8DE DUP5 PUSH2 0xB1B JUMP JUMPDEST PUSH2 0xB93 JUMP JUMPDEST SWAP1 POP DUP1 MLOAD SWAP2 POP POP SWAP2 SWAP1 POP JUMP JUMPDEST PUSH0 DUP1 PUSH0 DUP1 PUSH0 DUP1 PUSH0 DUP1 PUSH0 DUP1 PUSH0 DUP1 PUSH2 0x90C PUSH2 0x907 DUP15 PUSH2 0xB1B JUMP JUMPDEST PUSH2 0xF07 JUMP JUMPDEST SWAP1 POP PUSH0 JUMPDEST PUSH2 0x919 DUP3 PUSH2 0xFBC JUMP JUMPDEST ISZERO PUSH2 0xAAF JUMPI PUSH0 DUP2 SUB PUSH2 0x93F JUMPI PUSH2 0x936 PUSH2 0x931 DUP4 PUSH2 0xF5C JUMP JUMPDEST PUSH2 0xCBC JUMP JUMPDEST PUSH0 SHL SWAP13 POP PUSH2 0xA9C JUMP JUMPDEST PUSH1 0x1 DUP2 SUB PUSH2 0x961 JUMPI PUSH2 0x958 PUSH2 0x953 DUP4 PUSH2 0xF5C JUMP JUMPDEST PUSH2 0xCBC JUMP JUMPDEST PUSH0 SHL SWAP12 POP PUSH2 0xA9B JUMP JUMPDEST PUSH1 0x3 DUP2 SUB PUSH2 0x983 JUMPI PUSH2 0x97A PUSH2 0x975 DUP4 PUSH2 0xF5C JUMP JUMPDEST PUSH2 0xCBC JUMP JUMPDEST PUSH0 SHL SWAP11 POP PUSH2 0xA9A JUMP JUMPDEST PUSH1 0x4 DUP2 SUB PUSH2 0x9A5 JUMPI PUSH2 0x99C PUSH2 0x997 DUP4 PUSH2 0xF5C JUMP JUMPDEST PUSH2 0xCBC JUMP JUMPDEST PUSH0 SHL SWAP10 POP PUSH2 0xA99 JUMP JUMPDEST PUSH1 0x5 DUP2 SUB PUSH2 0x9C7 JUMPI PUSH2 0x9BE PUSH2 0x9B9 DUP4 PUSH2 0xF5C JUMP JUMPDEST PUSH2 0xCBC JUMP JUMPDEST PUSH0 SHL SWAP9 POP PUSH2 0xA98 JUMP JUMPDEST PUSH1 0x7 DUP2 SUB PUSH2 0x9E7 JUMPI PUSH2 0x9E0 PUSH2 0x9DB DUP4 PUSH2 0xF5C JUMP JUMPDEST PUSH2 0xCBC JUMP JUMPDEST SWAP8 POP PUSH2 0xA97 JUMP JUMPDEST PUSH1 0x8 DUP2 SUB PUSH2 0xA07 JUMPI PUSH2 0xA00 PUSH2 0x9FB DUP4 PUSH2 0xF5C JUMP JUMPDEST PUSH2 0xCBC JUMP JUMPDEST SWAP7 POP PUSH2 0xA96 JUMP JUMPDEST PUSH1 0x9 DUP2 SUB PUSH2 0xA27 JUMPI PUSH2 0xA20 PUSH2 0xA1B DUP4 PUSH2 0xF5C JUMP JUMPDEST PUSH2 0xCBC JUMP JUMPDEST SWAP6 POP PUSH2 0xA95 JUMP JUMPDEST PUSH1 0xA DUP2 SUB PUSH2 0xA47 JUMPI PUSH2 0xA40 PUSH2 0xA3B DUP4 PUSH2 0xF5C JUMP JUMPDEST PUSH2 0xCBC JUMP JUMPDEST SWAP5 POP PUSH2 0xA94 JUMP JUMPDEST PUSH1 0xB DUP2 SUB PUSH2 0xA67 JUMPI PUSH2 0xA60 PUSH2 0xA5B DUP4 PUSH2 0xF5C JUMP JUMPDEST PUSH2 0xCBC JUMP JUMPDEST SWAP4 POP PUSH2 0xA93 JUMP JUMPDEST PUSH1 0xE DUP2 SUB PUSH2 0xA87 JUMPI PUSH2 0xA80 PUSH2 0xA7B DUP4 PUSH2 0xF5C JUMP JUMPDEST PUSH2 0xCBC JUMP JUMPDEST SWAP3 POP PUSH2 0xA92 JUMP JUMPDEST PUSH2 0xA90 DUP3 PUSH2 0xF5C JUMP JUMPDEST POP JUMPDEST JUMPDEST JUMPDEST JUMPDEST JUMPDEST JUMPDEST JUMPDEST JUMPDEST JUMPDEST JUMPDEST JUMPDEST DUP1 DUP1 PUSH2 0xAA7 SWAP1 PUSH2 0x1925 JUMP JUMPDEST SWAP2 POP POP PUSH2 0x910 JUMP JUMPDEST POP POP SWAP2 SWAP4 SWAP6 SWAP8 SWAP10 SWAP12 SWAP1 SWAP3 SWAP5 SWAP7 SWAP9 SWAP11 POP JUMP JUMPDEST PUSH1 0x60 PUSH0 PUSH2 0xACC DUP4 PUSH2 0xB1B JUMP JUMPDEST SWAP1 POP PUSH2 0xAD7 DUP2 PUSH2 0xE14 JUMP JUMPDEST SWAP2 POP POP SWAP2 SWAP1 POP JUMP JUMPDEST PUSH0 DUP1 PUSH2 0xAEA DUP4 PUSH2 0xB1B JUMP JUMPDEST SWAP1 POP PUSH2 0xAF5 DUP2 PUSH2 0xEE6 JUMP JUMPDEST SWAP2 POP POP SWAP2 SWAP1 POP JUMP JUMPDEST PUSH0 DUP1 PUSH2 0xB08 DUP4 PUSH2 0xB1B JUMP JUMPDEST SWAP1 POP PUSH2 0xB13 DUP2 PUSH2 0x10CA JUMP JUMPDEST SWAP2 POP POP SWAP2 SWAP1 POP JUMP JUMPDEST PUSH2 0xB23 PUSH2 0x13A6 JUMP JUMPDEST PUSH0 PUSH1 0x20 DUP4 ADD SWAP1 POP PUSH1 0x40 MLOAD DUP1 PUSH1 0x40 ADD PUSH1 0x40 MSTORE DUP1 DUP5 MLOAD DUP2 MSTORE PUSH1 0x20 ADD DUP3 DUP2 MSTORE POP SWAP2 POP POP SWAP2 SWAP1 POP JUMP JUMPDEST PUSH0 PUSH1 0x1 DUP3 PUSH0 ADD MLOAD EQ PUSH2 0xB58 JUMPI PUSH0 DUP1 REVERT JUMPDEST PUSH0 DUP1 DUP4 PUSH1 0x20 ADD MLOAD SWAP1 POP DUP1 MLOAD PUSH0 BYTE SWAP2 POP PUSH0 DUP3 EQ DUP1 PUSH2 0xB78 JUMPI POP PUSH1 0x80 PUSH1 0xFF AND DUP3 EQ JUMPDEST ISZERO PUSH2 0xB87 JUMPI PUSH0 SWAP3 POP POP POP PUSH2 0xB8E JUMP JUMPDEST PUSH1 0x1 SWAP3 POP POP POP JUMPDEST SWAP2 SWAP1 POP JUMP JUMPDEST PUSH1 0x60 PUSH2 0xB9E DUP3 PUSH2 0xD10 JUMP JUMPDEST PUSH2 0xBA6 JUMPI PUSH0 DUP1 REVERT JUMPDEST PUSH0 PUSH2 0xBB0 DUP4 PUSH2 0x10EB JUMP JUMPDEST SWAP1 POP PUSH0 DUP2 PUSH8 0xFFFFFFFFFFFFFFFF DUP2 GT ISZERO PUSH2 0xBCD JUMPI PUSH2 0xBCC PUSH2 0x1406 JUMP JUMPDEST JUMPDEST PUSH1 0x40 MLOAD SWAP1 DUP1 DUP3 MSTORE DUP1 PUSH1 0x20 MUL PUSH1 0x20 ADD DUP3 ADD PUSH1 0x40 MSTORE DUP1 ISZERO PUSH2 0xC06 JUMPI DUP2 PUSH1 0x20 ADD JUMPDEST PUSH2 0xBF3 PUSH2 0x13A6 JUMP JUMPDEST DUP2 MSTORE PUSH1 0x20 ADD SWAP1 PUSH1 0x1 SWAP1 SUB SWAP1 DUP2 PUSH2 0xBEB JUMPI SWAP1 POP JUMPDEST POP SWAP1 POP PUSH0 PUSH2 0xC17 DUP6 PUSH1 0x20 ADD MLOAD PUSH2 0x1172 JUMP JUMPDEST DUP6 PUSH1 0x20 ADD MLOAD PUSH2 0xC26 SWAP2 SWAP1 PUSH2 0x196C JUMP JUMPDEST SWAP1 POP PUSH0 DUP1 PUSH0 SWAP1 POP JUMPDEST DUP5 DUP2 LT ISZERO PUSH2 0xC8F JUMPI PUSH2 0xC3F DUP4 PUSH2 0x122E JUMP JUMPDEST SWAP2 POP PUSH1 0x40 MLOAD DUP1 PUSH1 0x40 ADD PUSH1 0x40 MSTORE DUP1 DUP4 DUP2 MSTORE PUSH1 0x20 ADD DUP5 DUP2 MSTORE POP DUP5 DUP3 DUP2 MLOAD DUP2 LT PUSH2 0xC69 JUMPI PUSH2 0xC68 PUSH2 0x18CB JUMP JUMPDEST JUMPDEST PUSH1 0x20 MUL PUSH1 0x20 ADD ADD DUP2 SWAP1 MSTORE POP DUP2 DUP4 PUSH2 0xC80 SWAP2 SWAP1 PUSH2 0x196C JUMP JUMPDEST SWAP3 POP DUP1 DUP1 PUSH1 0x1 ADD SWAP2 POP POP PUSH2 0xC2E JUMP JUMPDEST POP DUP3 SWAP5 POP POP POP POP POP SWAP2 SWAP1 POP JUMP JUMPDEST PUSH0 PUSH1 0x15 DUP3 PUSH0 ADD MLOAD EQ PUSH2 0xCAC JUMPI PUSH0 DUP1 REVERT JUMPDEST PUSH2 0xCB5 DUP3 PUSH2 0xCBC JUMP JUMPDEST SWAP1 POP SWAP2 SWAP1 POP JUMP JUMPDEST PUSH0 DUP1 DUP3 PUSH0 ADD MLOAD GT DUP1 ISZERO PUSH2 0xCD3 JUMPI POP PUSH1 0x21 DUP3 PUSH0 ADD MLOAD GT ISZERO JUMPDEST PUSH2 0xCDB JUMPI PUSH0 DUP1 REVERT JUMPDEST PUSH0 DUP1 PUSH2 0xCE6 DUP5 PUSH2 0xEA1 JUMP JUMPDEST SWAP2 POP SWAP2 POP PUSH0 DUP3 MLOAD SWAP1 POP PUSH1 0x20 DUP3 LT ISZERO PUSH2 0xD05 JUMPI DUP2 PUSH1 0x20 SUB PUSH2 0x100 EXP DUP2 DIV SWAP1 POP JUMPDEST DUP1 SWAP4 POP POP POP POP SWAP2 SWAP1 POP JUMP JUMPDEST PUSH0 DUP1 DUP3 PUSH0 ADD MLOAD SUB PUSH2 0xD23 JUMPI PUSH0 SWAP1 POP PUSH2 0xD52 JUMP JUMPDEST PUSH0 DUP1 DUP4 PUSH1 0x20 ADD MLOAD SWAP1 POP DUP1 MLOAD PUSH0 BYTE SWAP2 POP PUSH1 0xC0 PUSH1 0xFF AND DUP3 PUSH1 0xFF AND LT ISZERO PUSH2 0xD4B JUMPI PUSH0 SWAP3 POP POP POP PUSH2 0xD52 JUMP JUMPDEST PUSH1 0x1 SWAP3 POP POP POP JUMPDEST SWAP2 SWAP1 POP JUMP JUMPDEST PUSH0 PUSH1 0x21 DUP3 PUSH0 ADD MLOAD EQ PUSH2 0xD67 JUMPI PUSH0 DUP1 REVERT JUMPDEST PUSH0 DUP1 PUSH1 0x1 DUP5 PUSH1 0x20 ADD MLOAD PUSH2 0xD7A SWAP2 SWAP1 PUSH2 0x196C JUMP JUMPDEST SWAP1 POP DUP1 MLOAD SWAP2 POP DUP2 SWAP3 POP POP POP SWAP2 SWAP1 POP JUMP JUMPDEST PUSH1 0x60 PUSH0 DUP3 PUSH0 ADD MLOAD PUSH8 0xFFFFFFFFFFFFFFFF DUP2 GT ISZERO PUSH2 0xDAA JUMPI PUSH2 0xDA9 PUSH2 0x1406 JUMP JUMPDEST JUMPDEST PUSH1 0x40 MLOAD SWAP1 DUP1 DUP3 MSTORE DUP1 PUSH1 0x1F ADD PUSH1 0x1F NOT AND PUSH1 0x20 ADD DUP3 ADD PUSH1 0x40 MSTORE DUP1 ISZERO PUSH2 0xDDC JUMPI DUP2 PUSH1 0x20 ADD PUSH1 0x1 DUP3 MUL DUP1 CALLDATASIZE DUP4 CALLDATACOPY DUP1 DUP3 ADD SWAP2 POP POP SWAP1 POP JUMPDEST POP SWAP1 POP PUSH0 DUP2 MLOAD SUB PUSH2 0xDF0 JUMPI DUP1 SWAP2 POP POP PUSH2 0xE0F JUMP JUMPDEST PUSH0 DUP2 PUSH1 0x20 ADD SWAP1 POP PUSH2 0xE09 DUP5 PUSH1 0x20 ADD MLOAD DUP3 DUP7 PUSH0 ADD MLOAD PUSH2 0x1307 JUMP JUMPDEST DUP2 SWAP3 POP POP POP JUMPDEST SWAP2 SWAP1 POP JUMP JUMPDEST PUSH1 0x60 PUSH0 DUP3 PUSH0 ADD MLOAD GT PUSH2 0xE24 JUMPI PUSH0 DUP1 REVERT JUMPDEST PUSH0 DUP1 PUSH2 0xE2F DUP5 PUSH2 0xEA1 JUMP JUMPDEST SWAP2 POP SWAP2 POP PUSH0 DUP2 PUSH8 0xFFFFFFFFFFFFFFFF DUP2 GT ISZERO PUSH2 0xE4E JUMPI PUSH2 0xE4D PUSH2 0x1406 JUMP JUMPDEST JUMPDEST PUSH1 0x40 MLOAD SWAP1 DUP1 DUP3 MSTORE DUP1 PUSH1 0x1F ADD PUSH1 0x1F NOT AND PUSH1 0x20 ADD DUP3 ADD PUSH1 0x40 MSTORE DUP1 ISZERO PUSH2 0xE80 JUMPI DUP2 PUSH1 0x20 ADD PUSH1 0x1 DUP3 MUL DUP1 CALLDATASIZE DUP4 CALLDATACOPY DUP1 DUP3 ADD SWAP2 POP POP SWAP1 POP JUMPDEST POP SWAP1 POP PUSH0 DUP2 PUSH1 0x20 ADD SWAP1 POP PUSH2 0xE95 DUP5 DUP3 DUP6 PUSH2 0x1307 JUMP JUMPDEST DUP2 SWAP5 POP POP POP POP POP SWAP2 SWAP1 POP JUMP JUMPDEST PUSH0 DUP1 PUSH0 PUSH2 0xEB1 DUP5 PUSH1 0x20 ADD MLOAD PUSH2 0x1172 JUMP JUMPDEST SWAP1 POP PUSH0 DUP2 DUP6 PUSH1 0x20 ADD MLOAD PUSH2 0xEC4 SWAP2 SWAP1 PUSH2 0x196C JUMP JUMPDEST SWAP1 POP PUSH0 DUP3 DUP7 PUSH0 ADD MLOAD PUSH2 0xED6 SWAP2 SWAP1 PUSH2 0x199F JUMP JUMPDEST SWAP1 POP DUP2 DUP2 SWAP5 POP SWAP5 POP POP POP POP SWAP2 POP SWAP2 JUMP JUMPDEST PUSH0 DUP1 PUSH0 PUSH2 0xEF2 DUP5 PUSH2 0xEA1 JUMP JUMPDEST SWAP2 POP SWAP2 POP PUSH0 DUP2 DUP4 KECCAK256 SWAP1 POP DUP1 SWAP4 POP POP POP POP SWAP2 SWAP1 POP JUMP JUMPDEST PUSH2 0xF0F PUSH2 0x13BE JUMP JUMPDEST PUSH2 0xF18 DUP3 PUSH2 0xD10 JUMP JUMPDEST PUSH2 0xF20 JUMPI PUSH0 DUP1 REVERT JUMPDEST PUSH0 PUSH2 0xF2E DUP4 PUSH1 0x20 ADD MLOAD PUSH2 0x1172 JUMP JUMPDEST DUP4 PUSH1 0x20 ADD MLOAD PUSH2 0xF3D SWAP2 SWAP1 PUSH2 0x196C JUMP JUMPDEST SWAP1 POP PUSH1 0x40 MLOAD DUP1 PUSH1 0x40 ADD PUSH1 0x40 MSTORE DUP1 DUP5 DUP2 MSTORE PUSH1 0x20 ADD DUP3 DUP2 MSTORE POP SWAP2 POP POP SWAP2 SWAP1 POP JUMP JUMPDEST PUSH2 0xF64 PUSH2 0x13A6 JUMP JUMPDEST PUSH2 0xF6D DUP3 PUSH2 0xFBC JUMP JUMPDEST PUSH2 0xF75 JUMPI PUSH0 DUP1 REVERT JUMPDEST PUSH0 DUP3 PUSH1 0x20 ADD MLOAD SWAP1 POP PUSH0 PUSH2 0xF87 DUP3 PUSH2 0x122E JUMP JUMPDEST SWAP1 POP DUP1 DUP3 PUSH2 0xF95 SWAP2 SWAP1 PUSH2 0x196C JUMP JUMPDEST DUP5 PUSH1 0x20 ADD DUP2 DUP2 MSTORE POP POP PUSH1 0x40 MLOAD DUP1 PUSH1 0x40 ADD PUSH1 0x40 MSTORE DUP1 DUP3 DUP2 MSTORE PUSH1 0x20 ADD DUP4 DUP2 MSTORE POP SWAP3 POP POP POP SWAP2 SWAP1 POP JUMP JUMPDEST PUSH0 DUP1 DUP3 PUSH0 ADD MLOAD SWAP1 POP DUP1 PUSH0 ADD MLOAD DUP2 PUSH1 0x20 ADD MLOAD PUSH2 0xFD7 SWAP2 SWAP1 PUSH2 0x196C JUMP JUMPDEST DUP4 PUSH1 0x20 ADD MLOAD LT SWAP2 POP POP SWAP2 SWAP1 POP JUMP JUMPDEST PUSH0 DUP1 PUSH0 DUP4 MLOAD PUSH0 BYTE SWAP1 POP PUSH1 0x80 PUSH1 0xFF AND DUP2 LT ISZERO PUSH2 0x1003 JUMPI PUSH1 0x1 SWAP2 POP PUSH2 0x10B4 JUMP JUMPDEST PUSH1 0xB8 PUSH1 0xFF AND DUP2 LT ISZERO PUSH2 0x1032 JUMPI PUSH1 0x1 PUSH1 0x80 PUSH1 0xFF AND DUP3 PUSH2 0x1021 SWAP2 SWAP1 PUSH2 0x199F JUMP JUMPDEST PUSH2 0x102B SWAP2 SWAP1 PUSH2 0x196C JUMP JUMPDEST SWAP2 POP PUSH2 0x10B3 JUMP JUMPDEST PUSH1 0xC0 PUSH1 0xFF AND DUP2 LT ISZERO PUSH2 0x1062 JUMPI PUSH1 0xB7 DUP2 SUB PUSH1 0x1 DUP6 ADD SWAP5 POP DUP1 PUSH1 0x20 SUB PUSH2 0x100 EXP DUP6 MLOAD DIV PUSH1 0x1 DUP3 ADD DUP2 ADD SWAP4 POP POP POP PUSH2 0x10B2 JUMP JUMPDEST PUSH1 0xF8 PUSH1 0xFF AND DUP2 LT ISZERO PUSH2 0x1091 JUMPI PUSH1 0x1 PUSH1 0xC0 PUSH1 0xFF AND DUP3 PUSH2 0x1080 SWAP2 SWAP1 PUSH2 0x199F JUMP JUMPDEST PUSH2 0x108A SWAP2 SWAP1 PUSH2 0x196C JUMP JUMPDEST SWAP2 POP PUSH2 0x10B1 JUMP JUMPDEST PUSH1 0xF7 DUP2 SUB PUSH1 0x1 DUP6 ADD SWAP5 POP DUP1 PUSH1 0x20 SUB PUSH2 0x100 EXP DUP6 MLOAD DIV PUSH1 0x1 DUP3 ADD DUP2 ADD SWAP4 POP POP POP JUMPDEST JUMPDEST JUMPDEST JUMPDEST DUP2 SWAP3 POP POP POP SWAP2 SWAP1 POP JUMP JUMPDEST PUSH0 DUP2 PUSH0 ADD MLOAD SWAP1 POP SWAP2 SWAP1 POP JUMP JUMPDEST PUSH0 DUP1 DUP3 PUSH1 0x20 ADD MLOAD SWAP1 POP PUSH0 DUP4 PUSH0 ADD MLOAD SWAP1 POP PUSH0 DUP2 DUP4 KECCAK256 SWAP1 POP DUP1 SWAP4 POP POP POP POP SWAP2 SWAP1 POP JUMP JUMPDEST PUSH0 DUP1 DUP3 PUSH0 ADD MLOAD SUB PUSH2 0x10FE JUMPI PUSH0 SWAP1 POP PUSH2 0x116D JUMP JUMPDEST PUSH0 DUP1 PUSH2 0x110D DUP5 PUSH1 0x20 ADD MLOAD PUSH2 0x1172 JUMP JUMPDEST DUP5 PUSH1 0x20 ADD MLOAD PUSH2 0x111C SWAP2 SWAP1 PUSH2 0x196C JUMP JUMPDEST SWAP1 POP PUSH0 DUP5 PUSH0 ADD MLOAD DUP6 PUSH1 0x20 ADD MLOAD PUSH2 0x1132 SWAP2 SWAP1 PUSH2 0x196C JUMP JUMPDEST SWAP1 POP JUMPDEST DUP1 DUP3 LT ISZERO PUSH2 0x1166 JUMPI PUSH2 0x1146 DUP3 PUSH2 0x122E JUMP JUMPDEST DUP3 PUSH2 0x1151 SWAP2 SWAP1 PUSH2 0x196C JUMP JUMPDEST SWAP2 POP DUP3 DUP1 PUSH2 0x115E SWAP1 PUSH2 0x1925 JUMP JUMPDEST SWAP4 POP POP PUSH2 0x1135 JUMP JUMPDEST DUP3 SWAP4 POP POP POP POP JUMPDEST SWAP2 SWAP1 POP JUMP JUMPDEST PUSH0 DUP1 DUP3 MLOAD PUSH0 BYTE SWAP1 POP PUSH1 0x80 PUSH1 0xFF AND DUP2 LT ISZERO PUSH2 0x118F JUMPI PUSH0 SWAP2 POP POP PUSH2 0x1229 JUMP JUMPDEST PUSH1 0xB8 PUSH1 0xFF AND DUP2 LT DUP1 PUSH2 0x11B4 JUMPI POP PUSH1 0xC0 PUSH1 0xFF AND DUP2 LT ISZERO DUP1 ISZERO PUSH2 0x11B3 JUMPI POP PUSH1 0xF8 PUSH1 0xFF AND DUP2 LT JUMPDEST JUMPDEST ISZERO PUSH2 0x11C3 JUMPI PUSH1 0x1 SWAP2 POP POP PUSH2 0x1229 JUMP JUMPDEST PUSH1 0xC0 PUSH1 0xFF AND DUP2 LT ISZERO PUSH2 0x11FE JUMPI PUSH1 0x1 DUP1 PUSH1 0xB8 PUSH2 0x11DE SWAP2 SWAP1 PUSH2 0x19DE JUMP JUMPDEST PUSH1 0xFF AND DUP3 PUSH2 0x11EC SWAP2 SWAP1 PUSH2 0x199F JUMP JUMPDEST PUSH2 0x11F6 SWAP2 SWAP1 PUSH2 0x196C JUMP JUMPDEST SWAP2 POP POP PUSH2 0x1229 JUMP JUMPDEST PUSH1 0x1 DUP1 PUSH1 0xF8 PUSH2 0x120D SWAP2 SWAP1 PUSH2 0x19DE JUMP JUMPDEST PUSH1 0xFF AND DUP3 PUSH2 0x121B SWAP2 SWAP1 PUSH2 0x199F JUMP JUMPDEST PUSH2 0x1225 SWAP2 SWAP1 PUSH2 0x196C JUMP JUMPDEST SWAP2 POP POP JUMPDEST SWAP2 SWAP1 POP JUMP JUMPDEST PUSH0 DUP1 PUSH0 DUP4 MLOAD PUSH0 BYTE SWAP1 POP PUSH1 0x80 PUSH1 0xFF AND DUP2 LT ISZERO PUSH2 0x124C JUMPI PUSH1 0x1 SWAP2 POP PUSH2 0x12FD JUMP JUMPDEST PUSH1 0xB8 PUSH1 0xFF AND DUP2 LT ISZERO PUSH2 0x127B JUMPI PUSH1 0x1 PUSH1 0x80 PUSH1 0xFF AND DUP3 PUSH2 0x126A SWAP2 SWAP1 PUSH2 0x199F JUMP JUMPDEST PUSH2 0x1274 SWAP2 SWAP1 PUSH2 0x196C JUMP JUMPDEST SWAP2 POP PUSH2 0x12FC JUMP JUMPDEST PUSH1 0xC0 PUSH1 0xFF AND DUP2 LT ISZERO PUSH2 0x12AB JUMPI PUSH1 0xB7 DUP2 SUB PUSH1 0x1 DUP6 ADD SWAP5 POP DUP1 PUSH1 0x20 SUB PUSH2 0x100 EXP DUP6 MLOAD DIV PUSH1 0x1 DUP3 ADD DUP2 ADD SWAP4 POP POP POP PUSH2 0x12FB JUMP JUMPDEST PUSH1 0xF8 PUSH1 0xFF AND DUP2 LT ISZERO PUSH2 0x12DA JUMPI PUSH1 0x1 PUSH1 0xC0 PUSH1 0xFF AND DUP3 PUSH2 0x12C9 SWAP2 SWAP1 PUSH2 0x199F JUMP JUMPDEST PUSH2 0x12D3 SWAP2 SWAP1 PUSH2 0x196C JUMP JUMPDEST SWAP2 POP PUSH2 0x12FA JUMP JUMPDEST PUSH1 0xF7 DUP2 SUB PUSH1 0x1 DUP6 ADD SWAP5 POP DUP1 PUSH1 0x20 SUB PUSH2 0x100 EXP DUP6 MLOAD DIV PUSH1 0x1 DUP3 ADD DUP2 ADD SWAP4 POP POP POP JUMPDEST JUMPDEST JUMPDEST JUMPDEST DUP2 SWAP3 POP POP POP SWAP2 SWAP1 POP JUMP JUMPDEST PUSH0 DUP2 SUB ISZERO PUSH2 0x13A1 JUMPI JUMPDEST PUSH1 0x20 PUSH1 0xFF AND DUP2 LT PUSH2 0x135A JUMPI DUP3 MLOAD DUP3 MSTORE PUSH1 0x20 PUSH1 0xFF AND DUP4 PUSH2 0x132F SWAP2 SWAP1 PUSH2 0x196C JUMP JUMPDEST SWAP3 POP PUSH1 0x20 PUSH1 0xFF AND DUP3 PUSH2 0x1341 SWAP2 SWAP1 PUSH2 0x196C JUMP JUMPDEST SWAP2 POP PUSH1 0x20 PUSH1 0xFF AND DUP2 PUSH2 0x1353 SWAP2 SWAP1 PUSH2 0x199F JUMP JUMPDEST SWAP1 POP PUSH2 0x1310 JUMP JUMPDEST PUSH0 DUP2 GT ISZERO PUSH2 0x13A0 JUMPI PUSH0 PUSH1 0x1 DUP3 PUSH1 0x20 PUSH1 0xFF AND PUSH2 0x1375 SWAP2 SWAP1 PUSH2 0x199F JUMP JUMPDEST PUSH2 0x100 PUSH2 0x1382 SWAP2 SWAP1 PUSH2 0x1B41 JUMP JUMPDEST PUSH2 0x138C SWAP2 SWAP1 PUSH2 0x199F JUMP JUMPDEST SWAP1 POP DUP1 NOT DUP5 MLOAD AND DUP2 DUP5 MLOAD AND DUP2 DUP2 OR DUP6 MSTORE POP POP POP JUMPDEST JUMPDEST POP POP POP JUMP JUMPDEST PUSH1 0x40 MLOAD DUP1 PUSH1 0x40 ADD PUSH1 0x40 MSTORE DUP1 PUSH0 DUP2 MSTORE PUSH1 0x20 ADD PUSH0 DUP2 MSTORE POP SWAP1 JUMP JUMPDEST PUSH1 0x40 MLOAD DUP1 PUSH1 0x40 ADD PUSH1 0x40 MSTORE DUP1 PUSH2 0x13D1 PUSH2 0x13A6 JUMP JUMPDEST DUP2 MSTORE PUSH1 0x20 ADD PUSH0 DUP2 MSTORE POP SWAP1 JUMP JUMPDEST PUSH0 PUSH1 0x40 MLOAD SWAP1 POP SWAP1 JUMP JUMPDEST PUSH0 DUP1 REVERT JUMPDEST PUSH0 DUP1 REVERT JUMPDEST PUSH0 DUP1 REVERT JUMPDEST PUSH0 DUP1 REVERT JUMPDEST PUSH0 PUSH1 0x1F NOT PUSH1 0x1F DUP4 ADD AND SWAP1 POP SWAP2 SWAP1 POP JUMP JUMPDEST PUSH32 0x4E487B7100000000000000000000000000000000000000000000000000000000 PUSH0 MSTORE PUSH1 0x41 PUSH1 0x4 MSTORE PUSH1 0x24 PUSH0 REVERT JUMPDEST PUSH2 0x143C DUP3 PUSH2 0x13F6 JUMP JUMPDEST DUP2 ADD DUP2 DUP2 LT PUSH8 0xFFFFFFFFFFFFFFFF DUP3 GT OR ISZERO PUSH2 0x145B JUMPI PUSH2 0x145A PUSH2 0x1406 JUMP JUMPDEST JUMPDEST DUP1 PUSH1 0x40 MSTORE POP POP POP JUMP JUMPDEST PUSH0 PUSH2 0x146D PUSH2 0x13DD JUMP JUMPDEST SWAP1 POP PUSH2 0x1479 DUP3 DUP3 PUSH2 0x1433 JUMP JUMPDEST SWAP2 SWAP1 POP JUMP JUMPDEST PUSH0 PUSH8 0xFFFFFFFFFFFFFFFF DUP3 GT ISZERO PUSH2 0x1498 JUMPI PUSH2 0x1497 PUSH2 0x1406 JUMP JUMPDEST JUMPDEST PUSH2 0x14A1 DUP3 PUSH2 0x13F6 JUMP JUMPDEST SWAP1 POP PUSH1 0x20 DUP2 ADD SWAP1 POP SWAP2 SWAP1 POP JUMP JUMPDEST DUP3 DUP2 DUP4 CALLDATACOPY PUSH0 DUP4 DUP4 ADD MSTORE POP POP POP JUMP JUMPDEST PUSH0 PUSH2 0x14CE PUSH2 0x14C9 DUP5 PUSH2 0x147E JUMP JUMPDEST PUSH2 0x1464 JUMP JUMPDEST SWAP1 POP DUP3 DUP2 MSTORE PUSH1 0x20 DUP2 ADD DUP5 DUP5 DUP5 ADD GT ISZERO PUSH2 0x14EA JUMPI PUSH2 0x14E9 PUSH2 0x13F2 JUMP JUMPDEST JUMPDEST PUSH2 0x14F5 DUP5 DUP3 DUP6 PUSH2 0x14AE JUMP JUMPDEST POP SWAP4 SWAP3 POP POP POP JUMP JUMPDEST PUSH0 DUP3 PUSH1 0x1F DUP4 ADD SLT PUSH2 0x1511 JUMPI PUSH2 0x1510 PUSH2 0x13EE JUMP JUMPDEST JUMPDEST DUP2 CALLDATALOAD PUSH2 0x1521 DUP5 DUP3 PUSH1 0x20 DUP7 ADD PUSH2 0x14BC JUMP JUMPDEST SWAP2 POP POP SWAP3 SWAP2 POP POP JUMP JUMPDEST PUSH0 PUSH1 0x20 DUP3 DUP5 SUB SLT ISZERO PUSH2 0x153F JUMPI PUSH2 0x153E PUSH2 0x13E6 JUMP JUMPDEST JUMPDEST PUSH0 DUP3 ADD CALLDATALOAD PUSH8 0xFFFFFFFFFFFFFFFF DUP2 GT ISZERO PUSH2 0x155C JUMPI PUSH2 0x155B PUSH2 0x13EA JUMP JUMPDEST JUMPDEST PUSH2 0x1568 DUP5 DUP3 DUP6 ADD PUSH2 0x14FD JUMP JUMPDEST SWAP2 POP POP SWAP3 SWAP2 POP POP JUMP JUMPDEST PUSH0 DUP2 ISZERO ISZERO SWAP1 POP SWAP2 SWAP1 POP JUMP JUMPDEST PUSH2 0x1585 DUP2 PUSH2 0x1571 JUMP JUMPDEST DUP3 MSTORE POP POP JUMP JUMPDEST PUSH0 PUSH1 0x20 DUP3 ADD SWAP1 POP PUSH2 0x159E PUSH0 DUP4 ADD DUP5 PUSH2 0x157C JUMP JUMPDEST SWAP3 SWAP2 POP POP JUMP JUMPDEST PUSH0 PUSH20 0xFFFFFFFFFFFFFFFFFFFFFFFFFFFFFFFFFFFFFFFF DUP3 AND SWAP1 POP SWAP2 SWAP1 POP JUMP JUMPDEST PUSH0 PUSH2 0x15CD DUP3 PUSH2 0x15A4 JUMP JUMPDEST SWAP1 POP SWAP2 SWAP1 POP JUMP JUMPDEST PUSH2 0x15DD DUP2 PUSH2 0x15C3 JUMP JUMPDEST DUP3 MSTORE POP POP JUMP JUMPDEST PUSH0 DUP2 SWAP1 POP SWAP2 SWAP1 POP JUMP JUMPDEST PUSH2 0x15F5 DUP2 PUSH2 0x15E3 JUMP JUMPDEST DUP3 MSTORE POP POP JUMP JUMPDEST PUSH0 PUSH1 0x60 DUP3 ADD SWAP1 POP PUSH2 0x160E PUSH0 DUP4 ADD DUP7 PUSH2 0x15D4 JUMP JUMPDEST PUSH2 0x161B PUSH1 0x20 DUP4 ADD DUP6 PUSH2 0x157C JUMP JUMPDEST PUSH2 0x1628 PUSH1 0x40 DUP4 ADD DUP5 PUSH2 0x15EC JUMP JUMPDEST SWAP5 SWAP4 POP POP POP POP JUMP JUMPDEST PUSH0 PUSH1 0x40 DUP3 ADD SWAP1 POP PUSH2 0x1643 PUSH0 DUP4 ADD DUP6 PUSH2 0x15D4 JUMP JUMPDEST PUSH2 0x1650 PUSH1 0x20 DUP4 ADD DUP5 PUSH2 0x15EC JUMP JUMPDEST SWAP4 SWAP3 POP POP POP JUMP JUMPDEST PUSH0 PUSH1 0x20 DUP3 ADD SWAP1 POP PUSH2 0x166A PUSH0 DUP4 ADD DUP5 PUSH2 0x15EC JUMP JUMPDEST SWAP3 SWAP2 POP POP JUMP JUMPDEST PUSH0 PUSH1 0x20 DUP3 ADD SWAP1 POP PUSH2 0x1683 PUSH0 DUP4 ADD DUP5 PUSH2 0x15D4 JUMP JUMPDEST SWAP3 SWAP2 POP POP JUMP JUMPDEST PUSH0 DUP2 MLOAD SWAP1 POP SWAP2 SWAP1 POP JUMP JUMPDEST PUSH0 DUP3 DUP3 MSTORE PUSH1 0x20 DUP3 ADD SWAP1 POP SWAP3 SWAP2 POP POP JUMP JUMPDEST PUSH0 JUMPDEST DUP4 DUP2 LT ISZERO PUSH2 0x16C0 JUMPI DUP1 DUP3 ADD MLOAD DUP2 DUP5 ADD MSTORE PUSH1 0x20 DUP2 ADD SWAP1 POP PUSH2 0x16A5 JUMP JUMPDEST PUSH0 DUP5 DUP5 ADD MSTORE POP POP POP POP JUMP JUMPDEST PUSH0 PUSH2 0x16D5 DUP3 PUSH2 0x1689 JUMP JUMPDEST PUSH2 0x16DF DUP2 DUP6 PUSH2 0x1693 JUMP JUMPDEST SWAP4 POP PUSH2 0x16EF DUP2 DUP6 PUSH1 0x20 DUP7 ADD PUSH2 0x16A3 JUMP JUMPDEST PUSH2 0x16F8 DUP2 PUSH2 0x13F6 JUMP JUMPDEST DUP5 ADD SWAP2 POP POP SWAP3 SWAP2 POP POP JUMP JUMPDEST PUSH0 PUSH1 0x20 DUP3 ADD SWAP1 POP DUP2 DUP2 SUB PUSH0 DUP4 ADD MSTORE PUSH2 0x171B DUP2 DUP5 PUSH2 0x16CB JUMP JUMPDEST SWAP1 POP SWAP3 SWAP2 POP POP JUMP JUMPDEST PUSH0 DUP2 MLOAD SWAP1 POP SWAP2 SWAP1 POP JUMP JUMPDEST PUSH0 DUP3 DUP3 MSTORE PUSH1 0x20 DUP3 ADD SWAP1 POP SWAP3 SWAP2 POP POP JUMP JUMPDEST PUSH0 PUSH2 0x1747 DUP3 PUSH2 0x1723 JUMP JUMPDEST PUSH2 0x1751 DUP2 DUP6 PUSH2 0x172D JUMP JUMPDEST SWAP4 POP PUSH2 0x1761 DUP2 DUP6 PUSH1 0x20 DUP7 ADD PUSH2 0x16A3 JUMP JUMPDEST PUSH2 0x176A DUP2 PUSH2 0x13F6 JUMP JUMPDEST DUP5 ADD SWAP2 POP POP SWAP3 SWAP2 POP POP JUMP JUMPDEST PUSH0 PUSH1 0x20 DUP3 ADD SWAP1 POP DUP2 DUP2 SUB PUSH0 DUP4 ADD MSTORE PUSH2 0x178D DUP2 DUP5 PUSH2 0x173D JUMP JUMPDEST SWAP1 POP SWAP3 SWAP2 POP POP JUMP JUMPDEST PUSH0 PUSH1 0x60 DUP3 ADD SWAP1 POP PUSH2 0x17A8 PUSH0 DUP4 ADD DUP7 PUSH2 0x15EC JUMP JUMPDEST PUSH2 0x17B5 PUSH1 0x20 DUP4 ADD DUP6 PUSH2 0x15EC JUMP JUMPDEST PUSH2 0x17C2 PUSH1 0x40 DUP4 ADD DUP5 PUSH2 0x15EC JUMP JUMPDEST SWAP5 SWAP4 POP POP POP POP JUMP JUMPDEST PUSH0 DUP2 SWAP1 POP SWAP2 SWAP1 POP JUMP JUMPDEST PUSH2 0x17DC DUP2 PUSH2 0x17CA JUMP JUMPDEST DUP3 MSTORE POP POP JUMP JUMPDEST PUSH0 PUSH1 0x40 DUP3 ADD SWAP1 POP PUSH2 0x17F5 PUSH0 DUP4 ADD DUP6 PUSH2 0x17D3 JUMP JUMPDEST PUSH2 0x1802 PUSH1 0x20 DUP4 ADD DUP5 PUSH2 0x17D3 JUMP JUMPDEST SWAP4 SWAP3 POP POP POP JUMP JUMPDEST PUSH0 PUSH2 0x160 DUP3 ADD SWAP1 POP PUSH2 0x181D PUSH0 DUP4 ADD DUP15 PUSH2 0x17D3 JUMP JUMPDEST PUSH2 0x182A PUSH1 0x20 DUP4 ADD DUP14 PUSH2 0x17D3 JUMP JUMPDEST PUSH2 0x1837 PUSH1 0x40 DUP4 ADD DUP13 PUSH2 0x17D3 JUMP JUMPDEST PUSH2 0x1844 PUSH1 0x60 DUP4 ADD DUP12 PUSH2 0x17D3 JUMP JUMPDEST PUSH2 0x1851 PUSH1 0x80 DUP4 ADD DUP11 PUSH2 0x17D3 JUMP JUMPDEST PUSH2 0x185E PUSH1 0xA0 DUP4 ADD DUP10 PUSH2 0x15EC JUMP JUMPDEST PUSH2 0x186B PUSH1 0xC0 DUP4 ADD DUP9 PUSH2 0x15EC JUMP JUMPDEST PUSH2 0x1878 PUSH1 0xE0 DUP4 ADD DUP8 PUSH2 0x15EC JUMP JUMPDEST PUSH2 0x1886 PUSH2 0x100 DUP4 ADD DUP7 PUSH2 0x15EC JUMP JUMPDEST PUSH2 0x1894 PUSH2 0x120 DUP4 ADD DUP6 PUSH2 0x15EC JUMP JUMPDEST PUSH2 0x18A2 PUSH2 0x140 DUP4 ADD DUP5 PUSH2 0x15EC JUMP JUMPDEST SWAP13 SWAP12 POP POP POP POP POP POP POP POP POP POP POP POP JUMP JUMPDEST PUSH0 PUSH1 0x20 DUP3 ADD SWAP1 POP PUSH2 0x18C5 PUSH0 DUP4 ADD DUP5 PUSH2 0x17D3 JUMP JUMPDEST SWAP3 SWAP2 POP POP JUMP JUMPDEST PUSH32 0x4E487B7100000000000000000000000000000000000000000000000000000000 PUSH0 MSTORE PUSH1 0x32 PUSH1 0x4 MSTORE PUSH1 0x24 PUSH0 REVERT JUMPDEST PUSH32 0x4E487B7100000000000000000000000000000000000000000000000000000000 PUSH0 MSTORE PUSH1 0x11 PUSH1 0x4 MSTORE PUSH1 0x24 PUSH0 REVERT JUMPDEST PUSH0 PUSH2 0x192F DUP3 PUSH2 0x15E3 JUMP JUMPDEST SWAP2 POP PUSH32 0xFFFFFFFFFFFFFFFFFFFFFFFFFFFFFFFFFFFFFFFFFFFFFFFFFFFFFFFFFFFFFFFF DUP3 SUB PUSH2 0x1961 JUMPI PUSH2 0x1960 PUSH2 0x18F8 JUMP JUMPDEST JUMPDEST PUSH1 0x1 DUP3 ADD SWAP1 POP SWAP2 SWAP1 POP JUMP JUMPDEST PUSH0 PUSH2 0x1976 DUP3 PUSH2 0x15E3 JUMP JUMPDEST SWAP2 POP PUSH2 0x1981 DUP4 PUSH2 0x15E3 JUMP JUMPDEST SWAP3 POP DUP3 DUP3 ADD SWAP1 POP DUP1 DUP3 GT ISZERO PUSH2 0x1999 JUMPI PUSH2 0x1998 PUSH2 0x18F8 JUMP JUMPDEST JUMPDEST SWAP3 SWAP2 POP POP JUMP JUMPDEST PUSH0 PUSH2 0x19A9 DUP3 PUSH2 0x15E3 JUMP JUMPDEST SWAP2 POP PUSH2 0x19B4 DUP4 PUSH2 0x15E3 JUMP JUMPDEST SWAP3 POP DUP3 DUP3 SUB SWAP1 POP DUP2 DUP2 GT ISZERO PUSH2 0x19CC JUMPI PUSH2 0x19CB PUSH2 0x18F8 JUMP JUMPDEST JUMPDEST SWAP3 SWAP2 POP POP JUMP JUMPDEST PUSH0 PUSH1 0xFF DUP3 AND SWAP1 POP SWAP2 SWAP1 POP JUMP JUMPDEST PUSH0 PUSH2 0x19E8 DUP3 PUSH2 0x19D2 JUMP JUMPDEST SWAP2 POP PUSH2 0x19F3 DUP4 PUSH2 0x19D2 JUMP JUMPDEST SWAP3 POP DUP3 DUP3 SUB SWAP1 POP PUSH1 0xFF DUP2 GT ISZERO PUSH2 0x1A0C JUMPI PUSH2 0x1A0B PUSH2 0x18F8 JUMP JUMPDEST JUMPDEST SWAP3 SWAP2 POP POP JUMP JUMPDEST PUSH0 DUP2 PUSH1 0x1 SHR SWAP1 POP SWAP2 SWAP1 POP JUMP JUMPDEST PUSH0 DUP1 DUP3 SWAP2 POP DUP4 SWAP1 POP JUMPDEST PUSH1 0x1 DUP6 GT ISZERO PUSH2 0x1A67 JUMPI DUP1 DUP7 DIV DUP2 GT ISZERO PUSH2 0x1A43 JUMPI PUSH2 0x1A42 PUSH2 0x18F8 JUMP JUMPDEST JUMPDEST PUSH1 0x1 DUP6 AND ISZERO PUSH2 0x1A52 JUMPI DUP1 DUP3 MUL SWAP2 POP JUMPDEST DUP1 DUP2 MUL SWAP1 POP PUSH2 0x1A60 DUP6 PUSH2 0x1A12 JUMP JUMPDEST SWAP5 POP PUSH2 0x1A27 JUMP JUMPDEST SWAP5 POP SWAP5 SWAP3 POP POP POP JUMP JUMPDEST PUSH0 DUP3 PUSH2 0x1A7F JUMPI PUSH1 0x1 SWAP1 POP PUSH2 0x1B3A JUMP JUMPDEST DUP2 PUSH2 0x1A8C JUMPI PUSH0 SWAP1 POP PUSH2 0x1B3A JUMP JUMPDEST DUP2 PUSH1 0x1 DUP2 EQ PUSH2 0x1AA2 JUMPI PUSH1 0x2 DUP2 EQ PUSH2 0x1AAC JUMPI PUSH2 0x1ADB JUMP JUMPDEST PUSH1 0x1 SWAP2 POP POP PUSH2 0x1B3A JUMP JUMPDEST PUSH1 0xFF DUP5 GT ISZERO PUSH2 0x1ABE JUMPI PUSH2 0x1ABD PUSH2 0x18F8 JUMP JUMPDEST JUMPDEST DUP4 PUSH1 0x2 EXP SWAP2 POP DUP5 DUP3 GT ISZERO PUSH2 0x1AD5 JUMPI PUSH2 0x1AD4 PUSH2 0x18F8 JUMP JUMPDEST JUMPDEST POP PUSH2 0x1B3A JUMP JUMPDEST POP PUSH1 0x20 DUP4 LT PUSH2 0x133 DUP4 LT AND PUSH1 0x4E DUP5 LT PUSH1 0xB DUP5 LT AND OR ISZERO PUSH2 0x1B10 JUMPI DUP3 DUP3 EXP SWAP1 POP DUP4 DUP2 GT ISZERO PUSH2 0x1B0B JUMPI PUSH2 0x1B0A PUSH2 0x18F8 JUMP JUMPDEST JUMPDEST PUSH2 0x1B3A JUMP JUMPDEST PUSH2 0x1B1D DUP5 DUP5 DUP5 PUSH1 0x1 PUSH2 0x1A1E JUMP JUMPDEST SWAP3 POP SWAP1 POP DUP2 DUP5 DIV DUP2 GT ISZERO PUSH2 0x1B34 JUMPI PUSH2 0x1B33 PUSH2 0x18F8 JUMP JUMPDEST JUMPDEST DUP2 DUP2 MUL SWAP1 POP JUMPDEST SWAP4 SWAP3 POP POP POP JUMP JUMPDEST PUSH0 PUSH2 0x1B4B DUP3 PUSH2 0x15E3 JUMP JUMPDEST SWAP2 POP PUSH2 0x1B56 DUP4 PUSH2 0x15E3 JUMP JUMPDEST SWAP3 POP PUSH2 0x1B83 PUSH32 0xFFFFFFFFFFFFFFFFFFFFFFFFFFFFFFFFFFFFFFFFFFFFFFFFFFFFFFFFFFFFFFFF DUP5 DUP5 PUSH2 0x1A70 JUMP JUMPDEST SWAP1 POP SWAP3 SWAP2 POP POP JUMP INVALID LOG2 PUSH5 0x6970667358 0x22 SLT KECCAK256 0xDB 0xAA 0xB8 0xC3 RETURN 0xAD SELFBALANCE 0x4E 0xB0 0xEE SMOD PUSH25 0x7F48DA58B018B963146B464477A42D8A8910CC0164736F6C63 NUMBER STOP ADDMOD XOR STOP CALLER "
				},
				"gasEstimates": {
					"creation": {
						"codeDepositCost": "1421000",
						"executionCost": "1484",
						"totalCost": "1422484"
					},
					"external": {
						"bytesToString(bytes)": "infinite",
						"customDestructure(bytes)": "infinite",
						"customNestedDestructure(bytes)": "infinite",
						"customNestedDestructureKeccak(bytes)": "infinite",
						"customNestedToRlpBytes(bytes)": "infinite",
						"isList(bytes)": "infinite",
						"itemLength(bytes)": "infinite",
						"nestedIteration(bytes)": "infinite",
						"numItems(bytes)": "infinite",
						"payloadKeccak256(bytes)": "infinite",
						"payloadLocation(bytes)": "infinite",
						"rlpBytesKeccak256(bytes)": "infinite",
						"rlpLen(bytes)": "infinite",
						"toAddress(bytes)": "infinite",
						"toBlockHeader(bytes)": "infinite",
						"toBoolean(bytes)": "infinite",
						"toBytes(bytes)": "infinite",
						"toIterator(bytes)": "infinite",
						"toRlpBytes(bytes)": "infinite",
						"toUint(bytes)": "infinite",
						"toUintStrict(bytes)": "infinite"
					},
					"internal": {
						"_itemLength(uint256)": "infinite"
					}
				},
				"methodIdentifiers": {
					"bytesToString(bytes)": "39614e4f",
					"customDestructure(bytes)": "059a97fb",
					"customNestedDestructure(bytes)": "15943cb6",
					"customNestedDestructureKeccak(bytes)": "64ea1929",
					"customNestedToRlpBytes(bytes)": "74c4c494",
					"isList(bytes)": "19921bd0",
					"itemLength(bytes)": "8109672f",
					"nestedIteration(bytes)": "76193f8c",
					"numItems(bytes)": "dd208ea1",
					"payloadKeccak256(bytes)": "eb4eb372",
					"payloadLocation(bytes)": "45fce4f9",
					"rlpBytesKeccak256(bytes)": "f29cddc0",
					"rlpLen(bytes)": "aac19545",
					"toAddress(bytes)": "2d888869",
					"toBlockHeader(bytes)": "e7617bf8",
					"toBoolean(bytes)": "04ba3427",
					"toBytes(bytes)": "e79fbcec",
					"toIterator(bytes)": "d03ca5a3",
					"toRlpBytes(bytes)": "33c82d18",
					"toUint(bytes)": "8529d576",
					"toUintStrict(bytes)": "20f91849"
				}
			},
			"storageLayout": {
				"storage": [],
				"types": null
			},
			"userdoc": {
				"kind": "user",
				"methods": {},
				"version": 1
			}
		}
	}
}