{
	"contracts/fraud-detector/libs/trie/EthereumTrieDB.sol": {
		"EthereumTrieDB": {
			"abi": [
				{
					"inputs": [
						{
							"components": [
								{
									"internalType": "bool",
									"name": "isEmpty",
									"type": "bool"
								},
								{
									"internalType": "bool",
									"name": "isLeaf",
									"type": "bool"
								},
								{
									"internalType": "bool",
									"name": "isHashedLeaf",
									"type": "bool"
								},
								{
									"internalType": "bool",
									"name": "isNibbledValueBranch",
									"type": "bool"
								},
								{
									"internalType": "bool",
									"name": "isNibbledHashedValueBranch",
									"type": "bool"
								},
								{
									"internalType": "bool",
									"name": "isNibbledBranch",
									"type": "bool"
								},
								{
									"internalType": "bool",
									"name": "isExtension",
									"type": "bool"
								},
								{
									"internalType": "bool",
									"name": "isBranch",
									"type": "bool"
								},
								{
									"internalType": "uint256",
									"name": "nibbleSize",
									"type": "uint256"
								},
								{
									"components": [
										{
											"internalType": "bytes",
											"name": "data",
											"type": "bytes"
										},
										{
											"internalType": "uint256",
											"name": "offset",
											"type": "uint256"
										}
									],
									"internalType": "struct ByteSlice",
									"name": "data",
									"type": "tuple"
								}
							],
							"internalType": "struct NodeKind",
							"name": "node",
							"type": "tuple"
						}
					],
					"name": "decodeBranch",
					"outputs": [
						{
							"components": [
								{
									"components": [
										{
											"internalType": "bool",
											"name": "isSome",
											"type": "bool"
										},
										{
											"components": [
												{
													"internalType": "bool",
													"name": "isHash",
													"type": "bool"
												},
												{
													"internalType": "bytes32",
													"name": "hash",
													"type": "bytes32"
												},
												{
													"internalType": "bool",
													"name": "isInline",
													"type": "bool"
												},
												{
													"internalType": "bytes",
													"name": "inLine",
													"type": "bytes"
												}
											],
											"internalType": "struct NodeHandle",
											"name": "value",
											"type": "tuple"
										}
									],
									"internalType": "struct NodeHandleOption",
									"name": "value",
									"type": "tuple"
								},
								{
									"components": [
										{
											"internalType": "bool",
											"name": "isSome",
											"type": "bool"
										},
										{
											"components": [
												{
													"internalType": "bool",
													"name": "isHash",
													"type": "bool"
												},
												{
													"internalType": "bytes32",
													"name": "hash",
													"type": "bytes32"
												},
												{
													"internalType": "bool",
													"name": "isInline",
													"type": "bool"
												},
												{
													"internalType": "bytes",
													"name": "inLine",
													"type": "bytes"
												}
											],
											"internalType": "struct NodeHandle",
											"name": "value",
											"type": "tuple"
										}
									],
									"internalType": "struct NodeHandleOption[16]",
									"name": "children",
									"type": "tuple[16]"
								}
							],
							"internalType": "struct Branch",
							"name": "",
							"type": "tuple"
						}
					],
					"stateMutability": "pure",
					"type": "function"
				},
				{
					"inputs": [
						{
							"components": [
								{
									"internalType": "bool",
									"name": "isEmpty",
									"type": "bool"
								},
								{
									"internalType": "bool",
									"name": "isLeaf",
									"type": "bool"
								},
								{
									"internalType": "bool",
									"name": "isHashedLeaf",
									"type": "bool"
								},
								{
									"internalType": "bool",
									"name": "isNibbledValueBranch",
									"type": "bool"
								},
								{
									"internalType": "bool",
									"name": "isNibbledHashedValueBranch",
									"type": "bool"
								},
								{
									"internalType": "bool",
									"name": "isNibbledBranch",
									"type": "bool"
								},
								{
									"internalType": "bool",
									"name": "isExtension",
									"type": "bool"
								},
								{
									"internalType": "bool",
									"name": "isBranch",
									"type": "bool"
								},
								{
									"internalType": "uint256",
									"name": "nibbleSize",
									"type": "uint256"
								},
								{
									"components": [
										{
											"internalType": "bytes",
											"name": "data",
											"type": "bytes"
										},
										{
											"internalType": "uint256",
											"name": "offset",
											"type": "uint256"
										}
									],
									"internalType": "struct ByteSlice",
									"name": "data",
									"type": "tuple"
								}
							],
							"internalType": "struct NodeKind",
							"name": "node",
							"type": "tuple"
						}
					],
					"name": "decodeExtension",
					"outputs": [
						{
							"components": [
								{
									"components": [
										{
											"internalType": "bytes",
											"name": "data",
											"type": "bytes"
										},
										{
											"internalType": "uint256",
											"name": "offset",
											"type": "uint256"
										}
									],
									"internalType": "struct NibbleSlice",
									"name": "key",
									"type": "tuple"
								},
								{
									"components": [
										{
											"internalType": "bool",
											"name": "isHash",
											"type": "bool"
										},
										{
											"internalType": "bytes32",
											"name": "hash",
											"type": "bytes32"
										},
										{
											"internalType": "bool",
											"name": "isInline",
											"type": "bool"
										},
										{
											"internalType": "bytes",
											"name": "inLine",
											"type": "bytes"
										}
									],
									"internalType": "struct NodeHandle",
									"name": "node",
									"type": "tuple"
								}
							],
							"internalType": "struct Extension",
							"name": "",
							"type": "tuple"
						}
					],
					"stateMutability": "pure",
					"type": "function"
				},
				{
					"inputs": [
						{
							"components": [
								{
									"internalType": "bool",
									"name": "isEmpty",
									"type": "bool"
								},
								{
									"internalType": "bool",
									"name": "isLeaf",
									"type": "bool"
								},
								{
									"internalType": "bool",
									"name": "isHashedLeaf",
									"type": "bool"
								},
								{
									"internalType": "bool",
									"name": "isNibbledValueBranch",
									"type": "bool"
								},
								{
									"internalType": "bool",
									"name": "isNibbledHashedValueBranch",
									"type": "bool"
								},
								{
									"internalType": "bool",
									"name": "isNibbledBranch",
									"type": "bool"
								},
								{
									"internalType": "bool",
									"name": "isExtension",
									"type": "bool"
								},
								{
									"internalType": "bool",
									"name": "isBranch",
									"type": "bool"
								},
								{
									"internalType": "uint256",
									"name": "nibbleSize",
									"type": "uint256"
								},
								{
									"components": [
										{
											"internalType": "bytes",
											"name": "data",
											"type": "bytes"
										},
										{
											"internalType": "uint256",
											"name": "offset",
											"type": "uint256"
										}
									],
									"internalType": "struct ByteSlice",
									"name": "data",
									"type": "tuple"
								}
							],
							"internalType": "struct NodeKind",
							"name": "node",
							"type": "tuple"
						}
					],
					"name": "decodeLeaf",
					"outputs": [
						{
							"components": [
								{
									"components": [
										{
											"internalType": "bytes",
											"name": "data",
											"type": "bytes"
										},
										{
											"internalType": "uint256",
											"name": "offset",
											"type": "uint256"
										}
									],
									"internalType": "struct NibbleSlice",
									"name": "key",
									"type": "tuple"
								},
								{
									"components": [
										{
											"internalType": "bool",
											"name": "isHash",
											"type": "bool"
										},
										{
											"internalType": "bytes32",
											"name": "hash",
											"type": "bytes32"
										},
										{
											"internalType": "bool",
											"name": "isInline",
											"type": "bool"
										},
										{
											"internalType": "bytes",
											"name": "inLine",
											"type": "bytes"
										}
									],
									"internalType": "struct NodeHandle",
									"name": "value",
									"type": "tuple"
								}
							],
							"internalType": "struct Leaf",
							"name": "",
							"type": "tuple"
						}
					],
					"stateMutability": "pure",
					"type": "function"
				},
				{
					"inputs": [
						{
							"internalType": "bytes",
							"name": "encoded",
							"type": "bytes"
						}
					],
					"name": "decodeNodeKind",
					"outputs": [
						{
							"components": [
								{
									"internalType": "bool",
									"name": "isEmpty",
									"type": "bool"
								},
								{
									"internalType": "bool",
									"name": "isLeaf",
									"type": "bool"
								},
								{
									"internalType": "bool",
									"name": "isHashedLeaf",
									"type": "bool"
								},
								{
									"internalType": "bool",
									"name": "isNibbledValueBranch",
									"type": "bool"
								},
								{
									"internalType": "bool",
									"name": "isNibbledHashedValueBranch",
									"type": "bool"
								},
								{
									"internalType": "bool",
									"name": "isNibbledBranch",
									"type": "bool"
								},
								{
									"internalType": "bool",
									"name": "isExtension",
									"type": "bool"
								},
								{
									"internalType": "bool",
									"name": "isBranch",
									"type": "bool"
								},
								{
									"internalType": "uint256",
									"name": "nibbleSize",
									"type": "uint256"
								},
								{
									"components": [
										{
											"internalType": "bytes",
											"name": "data",
											"type": "bytes"
										},
										{
											"internalType": "uint256",
											"name": "offset",
											"type": "uint256"
										}
									],
									"internalType": "struct ByteSlice",
									"name": "data",
									"type": "tuple"
								}
							],
							"internalType": "struct NodeKind",
							"name": "",
							"type": "tuple"
						}
					],
					"stateMutability": "pure",
					"type": "function"
				}
			],
			"devdoc": {
				"kind": "dev",
				"methods": {},
				"version": 1
			},
			"evm": {
				"assembly": "    /* \"contracts/fraud-detector/libs/trie/EthereumTrieDB.sol\":183:4469  library EthereumTrieDB {... */\n  0x80\n  dup1\n  0x40\n  mstore\n  jumpi(tag_1, callvalue)\n  dataSize(sub_0)\n  swap1\n  dup2\n  dataOffset(sub_0)\n  dup3\n  codecopy\n  address\n  dup2\n  assignImmutable(\"0xcd5a02d485074f67d63783a7acdae578618045c23ccf47fa4e3f1a01c11714ad\")\n  return\ntag_1:\n  0x00\n  dup1\n  revert\nstop\n\nsub_0: assembly {\n        /* \"contracts/fraud-detector/libs/trie/EthereumTrieDB.sol\":183:4469  library EthereumTrieDB {... */\n      mstore(0x40, 0x80)\n      jumpi(tag_71, iszero(lt(calldatasize, 0x04)))\n      0x00\n      dup1\n      revert\n    tag_71:\n      shr(0xe0, calldataload(0x00))\n      dup1\n      0x91648ac5\n      eq\n      tag_73\n      jumpi\n      dup1\n      0xa948b670\n      eq\n      tag_75\n      jumpi\n      dup1\n      0xba1daf93\n      eq\n      tag_77\n      jumpi\n      0xcbef80f1\n      eq\n      tag_79\n      jumpi\n      0x00\n      dup1\n      revert\n    tag_79:\n      tag_20\n      jump\t// in\n    tag_77:\n      tag_17\n      jump\t// in\n    tag_75:\n      tag_16\n      jump\t// in\n    tag_73:\n      jumpi(tag_83, slt(add(not(0x03), calldatasize), 0x20))\n      calldataload(0x04)\n      0xffffffffffffffff\n      dup2\n      gt\n      tag_83\n      jumpi\n      tag_85\n      tag_86\n      tag_87\n      swap3\n      calldatasize\n      swap1\n      0x04\n      add\n      tag_7\n      jump\t// in\n    tag_86:\n      tag_31\n      jump\t// in\n    tag_85:\n      mload(0x40)\n      swap2\n      dup3\n      swap2\n      0x20\n      dup4\n      mstore\n      tag_88\n      0x20\n      dup5\n      add\n      dup3\n      mload\n      iszero\n      iszero\n      swap1\n      mstore\n      jump\n    tag_88:\n      0x20\n      dup2\n      add\n      mload\n      iszero\n      iszero\n      0x40\n      dup5\n      add\n      mstore\n      0x40\n      dup2\n      add\n      mload\n      iszero\n      iszero\n      0x60\n      dup5\n      add\n      mstore\n      0x60\n      dup2\n      add\n      mload\n      iszero\n      iszero\n      0x80\n      dup5\n      add\n      mstore\n      0x80\n      dup2\n      add\n      mload\n      iszero\n      iszero\n      0xa0\n      dup5\n      add\n      mstore\n      0xa0\n      dup2\n      add\n      mload\n      iszero\n      iszero\n      0xc0\n      dup5\n      add\n      mstore\n      0xc0\n      dup2\n      add\n      mload\n      iszero\n      iszero\n      0xe0\n      dup5\n      add\n      mstore\n      0xe0\n      dup2\n      add\n      mload\n      tag_95\n      0x0100\n      swap2\n      dup3\n      dup7\n      add\n      swap1\n      iszero\n      iszero\n      swap1\n      mstore\n      jump\n    tag_95:\n      dup2\n      add\n      mload\n      swap1\n      0x0120\n      swap2\n      dup3\n      dup6\n      add\n      mstore\n      add\n      mload\n      0x0140\n      dup1\n      dup5\n      add\n      mstore\n      0x0160\n      dup4\n      add\n      swap1\n      tag_10\n      jump\t// in\n    tag_87:\n      sub\n      swap1\n      return\n    tag_83:\n      0x00\n      dup1\n      revert\n    tag_1:\n      mstore(0x00, shl(0xe0, 0x4e487b71))\n      mstore(0x04, 0x41)\n      revert(0x00, 0x24)\n    tag_2:\n      mload(0x40)\n      swap1\n      0x40\n      dup3\n      add\n      dup3\n      dup2\n      lt\n      0xffffffffffffffff\n      dup3\n      gt\n      or\n      tag_96\n      jumpi\n      0x40\n      mstore\n      jump\t// out\n    tag_96:\n      tag_1\n      jump\t// in\n    tag_3:\n      mload(0x40)\n      swap1\n      0x0140\n      dup3\n      add\n      dup3\n      dup2\n      lt\n      0xffffffffffffffff\n      dup3\n      gt\n      or\n      tag_96\n      jumpi\n      0x40\n      mstore\n      jump\t// out\n    tag_4:\n      mload(0x40)\n      swap1\n      0x80\n      dup3\n      add\n      dup3\n      dup2\n      lt\n      0xffffffffffffffff\n      dup3\n      gt\n      or\n      tag_96\n      jumpi\n      0x40\n      mstore\n      jump\t// out\n    tag_5:\n      mload(0x40)\n      swap2\n      swap1\n      0x1f\n      add\n      not(0x1f)\n      and\n      dup3\n      add\n      0xffffffffffffffff\n      dup2\n      gt\n      dup4\n      dup3\n      lt\n      or\n      tag_96\n      jumpi\n      0x40\n      mstore\n      jump\t// out\n    tag_6:\n      0xffffffffffffffff\n      dup2\n      gt\n      tag_96\n      jumpi\n      0x1f\n      add\n      not(0x1f)\n      and\n      0x20\n      add\n      swap1\n      jump\t// out\n    tag_7:\n      dup2\n      0x1f\n      dup3\n      add\n      slt\n      iszero\n      tag_83\n      jumpi\n      dup1\n      calldataload\n      swap1\n      tag_108\n      tag_109\n      dup4\n      tag_6\n      jump\t// in\n    tag_109:\n      tag_5\n      jump\t// in\n    tag_108:\n      swap3\n      dup3\n      dup5\n      mstore\n      0x20\n      dup4\n      dup4\n      add\n      add\n      gt\n      tag_83\n      jumpi\n      dup2\n      0x00\n      swap3\n      0x20\n      dup1\n      swap4\n      add\n      dup4\n      dup7\n      add\n      calldatacopy\n      dup4\n      add\n      add\n      mstore\n      swap1\n      jump\t// out\n    tag_9:\n      swap2\n      swap1\n      dup3\n      mload\n      swap3\n      dup4\n      dup3\n      mstore\n      0x00\n    tag_112:\n      dup5\n      dup2\n      lt\n      tag_113\n      jumpi\n      pop\n      pop\n      dup3\n      0x00\n      0x20\n      dup1\n      swap5\n      swap6\n      dup5\n      add\n      add\n      mstore\n      0x1f\n      dup1\n      not\n      swap2\n      add\n      and\n      add\n      add\n      swap1\n      jump\t// out\n    tag_113:\n      0x20\n      dup2\n      dup4\n      add\n      dup2\n      add\n      mload\n      dup5\n      dup4\n      add\n      dup3\n      add\n      mstore\n      add\n      jump(tag_112)\n    tag_10:\n      swap1\n      0x20\n      dup1\n      tag_115\n      dup5\n      mload\n      0x40\n      dup6\n      mstore\n      0x40\n      dup6\n      add\n      swap1\n      tag_9\n      jump\t// in\n    tag_115:\n      swap4\n      add\n      mload\n      swap2\n      add\n      mstore\n      swap1\n      jump\t// out\n    tag_11:\n      calldataload\n      swap1\n      dup2\n      iszero\n      iszero\n      dup3\n      sub\n      tag_83\n      jumpi\n      jump\t// out\n    tag_12:\n      swap2\n      swap1\n      0x40\n      dup4\n      dup3\n      sub\n      slt\n      tag_83\n      jumpi\n      tag_120\n      tag_2\n      jump\t// in\n    tag_120:\n      swap3\n      dup1\n      calldataload\n      0xffffffffffffffff\n      dup2\n      gt\n      tag_83\n      jumpi\n      0x20\n      swap3\n      tag_123\n      swap2\n      dup4\n      add\n      tag_7\n      jump\t// in\n    tag_123:\n      dup5\n      mstore\n      add\n      calldataload\n      0x20\n      dup4\n      add\n      mstore\n      jump\t// out\n    tag_13:\n      not(0x03)\n      0x20\n      dup3\n      dup3\n      add\n      slt\n      tag_83\n      jumpi\n      calldataload(0x04)\n      swap2\n      0xffffffffffffffff\n      swap2\n      dup3\n      dup5\n      gt\n      tag_83\n      jumpi\n      0x0140\n      swap1\n      dup5\n      dup4\n      sub\n      add\n      slt\n      tag_83\n      jumpi\n      tag_130\n      tag_3\n      jump\t// in\n    tag_130:\n      swap3\n      tag_131\n      dup2\n      0x04\n      add\n      tag_11\n      jump\t// in\n    tag_131:\n      dup5\n      mstore\n      tag_132\n      0x24\n      dup3\n      add\n      tag_11\n      jump\t// in\n    tag_132:\n      0x20\n      dup6\n      add\n      mstore\n      tag_133\n      0x44\n      dup3\n      add\n      tag_11\n      jump\t// in\n    tag_133:\n      0x40\n      dup6\n      add\n      mstore\n      tag_134\n      0x64\n      dup3\n      add\n      tag_11\n      jump\t// in\n    tag_134:\n      0x60\n      dup6\n      add\n      mstore\n      tag_135\n      0x84\n      dup3\n      add\n      tag_11\n      jump\t// in\n    tag_135:\n      0x80\n      dup6\n      add\n      mstore\n      tag_136\n      0xa4\n      dup3\n      add\n      tag_11\n      jump\t// in\n    tag_136:\n      0xa0\n      dup6\n      add\n      mstore\n      tag_137\n      0xc4\n      dup3\n      add\n      tag_11\n      jump\t// in\n    tag_137:\n      0xc0\n      dup6\n      add\n      mstore\n      tag_138\n      0xe4\n      dup3\n      add\n      tag_11\n      jump\t// in\n    tag_138:\n      0xe0\n      dup6\n      add\n      mstore\n      0x0104\n      dup2\n      add\n      calldataload\n      0x0100\n      dup6\n      add\n      mstore\n      0x0124\n      dup2\n      add\n      calldataload\n      swap3\n      dup4\n      gt\n      tag_83\n      jumpi\n      tag_141\n      swap3\n      add\n      0x04\n      add\n      tag_12\n      jump\t// in\n    tag_141:\n      0x0120\n      dup3\n      add\n      mstore\n      swap1\n      jump\t// out\n    tag_14:\n      swap1\n      0x80\n      0x60\n      tag_142\n      swap4\n      dup1\n      mload\n      iszero\n      iszero\n      dup5\n      mstore\n      0x20\n      dup2\n      add\n      mload\n      0x20\n      dup6\n      add\n      mstore\n      0x40\n      dup2\n      add\n      mload\n      iszero\n      iszero\n      0x40\n      dup6\n      add\n      mstore\n      add\n      mload\n      swap2\n      dup2\n      0x60\n      dup3\n      add\n      mstore\n      add\n      swap1\n      tag_9\n      jump\t// in\n    tag_142:\n      swap1\n      jump\t// out\n    tag_15:\n      swap1\n      tag_142\n      swap2\n      0x20\n      dup2\n      mstore\n      0x20\n      tag_144\n      dup4\n      mload\n      0x40\n      dup4\n      dup6\n      add\n      mstore\n      0x60\n      dup5\n      add\n      swap1\n      tag_10\n      jump\t// in\n    tag_144:\n      swap3\n      add\n      mload\n      swap1\n      0x40\n      not(0x1f)\n      dup3\n      dup6\n      sub\n      add\n      swap2\n      add\n      mstore\n      tag_14\n      jump\t// in\n    tag_16:\n      tag_87\n      tag_146\n      calldatasize\n      tag_13\n      jump\t// in\n    tag_146:\n      tag_147\n      tag_33\n      jump\t// in\n    tag_147:\n      pop\n        /* \"contracts/fraud-detector/libs/trie/EthereumTrieDB.sol\":2867:2888  Bytes.toBytes32(data) */\n      tag_148\n        /* \"contracts/fraud-detector/libs/trie/EthereumTrieDB.sol\":2370:2457  node... */\n      tag_149\n        /* \"contracts/fraud-detector/libs/trie/EthereumTrieDB.sol\":2370:2435  node... */\n      tag_150\n        /* \"contracts/fraud-detector/libs/trie/EthereumTrieDB.sol\":2370:2392  node... */\n      0x0120\n        /* \"contracts/fraud-detector/libs/trie/EthereumTrieDB.sol\":183:4469  library EthereumTrieDB {... */\n      tag_151\n      tag_33\n      jump\t// in\n    tag_151:\n        /* \"contracts/fraud-detector/libs/trie/EthereumTrieDB.sol\":2370:2392  node... */\n      swap5\n      add\n      mload\n        /* \"contracts/fraud-detector/libs/trie/EthereumTrieDB.sol\":2370:2410  node... */\n      mload\n        /* \"contracts/fraud-detector/libs/trie/EthereumTrieDB.sol\":2370:2435  node... */\n      tag_49\n      jump\t// in\n    tag_150:\n        /* \"contracts/fraud-detector/libs/trie/EthereumTrieDB.sol\":2370:2457  node... */\n      tag_53\n      jump\t// in\n    tag_149:\n        /* \"contracts/fraud-detector/libs/trie/EthereumTrieDB.sol\":2487:2507  decoded[1].toBytes() */\n      tag_152\n        /* \"contracts/fraud-detector/libs/trie/EthereumTrieDB.sol\":2487:2497  decoded[1] */\n      tag_153\n      dup3\n      tag_27\n      jump\t// in\n    tag_153:\n      mload\n        /* \"contracts/fraud-detector/libs/trie/EthereumTrieDB.sol\":2487:2507  decoded[1].toBytes() */\n      tag_54\n      jump\t// in\n    tag_152:\n        /* \"contracts/fraud-detector/libs/trie/EthereumTrieDB.sol\":2537:2547  decoded[0] */\n      swap1\n        /* \"contracts/fraud-detector/libs/trie/EthereumTrieDB.sol\":2718:2769  Bytes.substr(decoded[0].toBytes(), (isOdd + 1) % 2) */\n      tag_154\n        /* \"contracts/fraud-detector/libs/trie/EthereumTrieDB.sol\":2731:2751  decoded[0].toBytes() */\n      tag_155\n        /* \"contracts/fraud-detector/libs/trie/EthereumTrieDB.sol\":2731:2741  decoded[0] */\n      tag_153\n        /* \"contracts/fraud-detector/libs/trie/EthereumTrieDB.sol\":2495:2496  1 */\n      0x01\n        /* \"contracts/fraud-detector/libs/trie/EthereumTrieDB.sol\":2531:2566  uint8(decoded[0].toBytes()[0] >> 4) */\n      tag_157\n        /* \"contracts/fraud-detector/libs/trie/EthereumTrieDB.sol\":2537:2565  decoded[0].toBytes()[0] >> 4 */\n      tag_158\n        /* \"contracts/fraud-detector/libs/trie/EthereumTrieDB.sol\":2537:2560  decoded[0].toBytes()[0] */\n      tag_159\n      tag_160\n        /* \"contracts/fraud-detector/libs/trie/EthereumTrieDB.sol\":2537:2557  decoded[0].toBytes() */\n      tag_161\n        /* \"contracts/fraud-detector/libs/trie/EthereumTrieDB.sol\":2537:2547  decoded[0] */\n      tag_153\n      dup11\n      tag_28\n      jump\t// in\n        /* \"contracts/fraud-detector/libs/trie/EthereumTrieDB.sol\":2537:2557  decoded[0].toBytes() */\n    tag_161:\n        /* \"contracts/fraud-detector/libs/trie/EthereumTrieDB.sol\":2537:2560  decoded[0].toBytes()[0] */\n      tag_28\n      jump\t// in\n    tag_160:\n        /* \"contracts/fraud-detector/libs/trie/EthereumTrieDB.sol\":183:4469  library EthereumTrieDB {... */\n      mload\n      not(sub(shl(0xf8, 0x01), 0x01))\n      and\n      swap1\n      jump\n        /* \"contracts/fraud-detector/libs/trie/EthereumTrieDB.sol\":2537:2560  decoded[0].toBytes()[0] */\n    tag_159:\n        /* \"contracts/fraud-detector/libs/trie/EthereumTrieDB.sol\":183:4469  library EthereumTrieDB {... */\n      0x04\n      shr\n      shl(0xf8, 0x0f)\n      and\n      swap1\n      jump\n        /* \"contracts/fraud-detector/libs/trie/EthereumTrieDB.sol\":2537:2565  decoded[0].toBytes()[0] >> 4 */\n    tag_158:\n        /* \"contracts/fraud-detector/libs/trie/EthereumTrieDB.sol\":183:4469  library EthereumTrieDB {... */\n      0xf8\n      shr\n      swap1\n      jump\n        /* \"contracts/fraud-detector/libs/trie/EthereumTrieDB.sol\":2531:2566  uint8(decoded[0].toBytes()[0] >> 4) */\n    tag_157:\n        /* \"contracts/fraud-detector/libs/trie/EthereumTrieDB.sol\":2531:2573  uint8(decoded[0].toBytes()[0] >> 4) & 0x01 */\n      and\n        /* \"contracts/fraud-detector/libs/trie/EthereumTrieDB.sol\":2731:2741  decoded[0] */\n      swap4\n      tag_28\n      jump\t// in\n        /* \"contracts/fraud-detector/libs/trie/EthereumTrieDB.sol\":2731:2751  decoded[0].toBytes() */\n    tag_155:\n        /* \"contracts/fraud-detector/libs/trie/EthereumTrieDB.sol\":2718:2769  Bytes.substr(decoded[0].toBytes(), (isOdd + 1) % 2) */\n      tag_163\n        /* \"contracts/fraud-detector/libs/trie/EthereumTrieDB.sol\":2753:2768  (isOdd + 1) % 2 */\n      tag_164\n        /* \"contracts/fraud-detector/libs/trie/EthereumTrieDB.sol\":2754:2763  isOdd + 1 */\n      tag_165\n      dup6\n      tag_38\n      jump\t// in\n    tag_165:\n        /* \"contracts/fraud-detector/libs/trie/EthereumTrieDB.sol\":183:4469  library EthereumTrieDB {... */\n      0x01\n      and\n      swap1\n      jump\n        /* \"contracts/fraud-detector/libs/trie/EthereumTrieDB.sol\":2753:2768  (isOdd + 1) % 2 */\n    tag_164:\n        /* \"contracts/fraud-detector/libs/trie/EthereumTrieDB.sol\":183:4469  library EthereumTrieDB {... */\n      0xff\n      and\n      swap1\n      jump\n        /* \"contracts/fraud-detector/libs/trie/EthereumTrieDB.sol\":2718:2769  Bytes.substr(decoded[0].toBytes(), (isOdd + 1) % 2) */\n    tag_163:\n      swap1\n      tag_62\n      jump\t// in\n    tag_154:\n        /* \"contracts/fraud-detector/libs/trie/EthereumTrieDB.sol\":183:4469  library EthereumTrieDB {... */\n      swap1\n      tag_166\n      tag_2\n      jump\t// in\n    tag_166:\n      swap2\n      dup3\n      mstore\n        /* \"contracts/fraud-detector/libs/trie/EthereumTrieDB.sol\":2693:2798  NibbleSlice(... */\n      0x20\n      dup3\n      add\n        /* \"contracts/fraud-detector/libs/trie/EthereumTrieDB.sol\":183:4469  library EthereumTrieDB {... */\n      mstore\n        /* \"contracts/fraud-detector/libs/trie/EthereumTrieDB.sol\":2677:2798  extension.key = NibbleSlice(... */\n      dup4\n      mstore\n        /* \"contracts/fraud-detector/libs/trie/EthereumTrieDB.sol\":2867:2888  Bytes.toBytes32(data) */\n      tag_63\n      jump\t// in\n    tag_148:\n        /* \"contracts/fraud-detector/libs/trie/EthereumTrieDB.sol\":2921:2933  new bytes(0) */\n      tag_167\n      tag_41\n      jump\t// in\n    tag_167:\n        /* \"contracts/fraud-detector/libs/trie/EthereumTrieDB.sol\":183:4469  library EthereumTrieDB {... */\n      tag_168\n      tag_4\n      jump\t// in\n    tag_168:\n        /* \"contracts/fraud-detector/libs/trie/EthereumTrieDB.sol\":2495:2496  1 */\n      0x01\n        /* \"contracts/fraud-detector/libs/trie/EthereumTrieDB.sol\":373:442  hex\"56e81f171bcc55a6ff8345e692c0f86e5b48e01b996cadc001622fb5e363b421\" */\n      dup2\n      mstore\n        /* \"contracts/fraud-detector/libs/trie/EthereumTrieDB.sol\":2825:2943  NodeHandle(... */\n      swap2\n        /* \"contracts/fraud-detector/libs/trie/EthereumTrieDB.sol\":2693:2798  NibbleSlice(... */\n      0x20\n        /* \"contracts/fraud-detector/libs/trie/EthereumTrieDB.sol\":2825:2943  NodeHandle(... */\n      dup4\n      add\n        /* \"contracts/fraud-detector/libs/trie/EthereumTrieDB.sol\":183:4469  library EthereumTrieDB {... */\n      mstore\n      0x00\n      0x40\n        /* \"contracts/fraud-detector/libs/trie/EthereumTrieDB.sol\":2825:2943  NodeHandle(... */\n      dup4\n      add\n        /* \"contracts/fraud-detector/libs/trie/EthereumTrieDB.sol\":373:442  hex\"56e81f171bcc55a6ff8345e692c0f86e5b48e01b996cadc001622fb5e363b421\" */\n      mstore\n        /* \"contracts/fraud-detector/libs/trie/EthereumTrieDB.sol\":2825:2943  NodeHandle(... */\n      0x60\n      dup3\n      add\n        /* \"contracts/fraud-detector/libs/trie/EthereumTrieDB.sol\":183:4469  library EthereumTrieDB {... */\n      mstore\n        /* \"contracts/fraud-detector/libs/trie/EthereumTrieDB.sol\":2693:2798  NibbleSlice(... */\n      0x20\n        /* \"contracts/fraud-detector/libs/trie/EthereumTrieDB.sol\":2808:2822  extension.node */\n      dup3\n      add\n        /* \"contracts/fraud-detector/libs/trie/EthereumTrieDB.sol\":2808:2943  extension.node = NodeHandle(... */\n      mstore\n        /* \"contracts/fraud-detector/libs/trie/EthereumTrieDB.sol\":183:4469  library EthereumTrieDB {... */\n      mload(0x40)\n      swap2\n      dup3\n      swap2\n      dup3\n      tag_15\n      jump\t// in\n    tag_17:\n      tag_170\n      calldatasize\n      tag_13\n      jump\t// in\n    tag_170:\n      tag_171\n      tag_33\n      jump\t// in\n    tag_171:\n      pop\n        /* \"contracts/fraud-detector/libs/trie/EthereumTrieDB.sol\":1781:1868  node... */\n      tag_172\n        /* \"contracts/fraud-detector/libs/trie/EthereumTrieDB.sol\":1781:1846  node... */\n      tag_150\n        /* \"contracts/fraud-detector/libs/trie/EthereumTrieDB.sol\":1781:1803  node... */\n      0x0120\n        /* \"contracts/fraud-detector/libs/trie/EthereumTrieDB.sol\":183:4469  library EthereumTrieDB {... */\n      tag_174\n      tag_33\n      jump\t// in\n    tag_174:\n        /* \"contracts/fraud-detector/libs/trie/EthereumTrieDB.sol\":1781:1803  node... */\n      swap4\n      add\n      mload\n        /* \"contracts/fraud-detector/libs/trie/EthereumTrieDB.sol\":1781:1821  node... */\n      mload\n        /* \"contracts/fraud-detector/libs/trie/EthereumTrieDB.sol\":1781:1846  node... */\n      tag_49\n      jump\t// in\n        /* \"contracts/fraud-detector/libs/trie/EthereumTrieDB.sol\":1781:1868  node... */\n    tag_172:\n        /* \"contracts/fraud-detector/libs/trie/EthereumTrieDB.sol\":183:4469  library EthereumTrieDB {... */\n      swap1\n      dup2\n      mload\n        /* \"contracts/fraud-detector/libs/trie/EthereumTrieDB.sol\":1906:1907  1 */\n      0x01\n        /* \"contracts/fraud-detector/libs/trie/EthereumTrieDB.sol\":373:442  hex\"56e81f171bcc55a6ff8345e692c0f86e5b48e01b996cadc001622fb5e363b421\" */\n      lt\n      iszero\n      tag_175\n      jumpi\n      dup2\n        /* \"contracts/fraud-detector/libs/trie/EthereumTrieDB.sol\":2045:2082  Bytes.substr(decoded[0].toBytes(), 1) */\n      tag_177\n        /* \"contracts/fraud-detector/libs/trie/EthereumTrieDB.sol\":2058:2078  decoded[0].toBytes() */\n      tag_178\n        /* \"contracts/fraud-detector/libs/trie/EthereumTrieDB.sol\":2058:2068  decoded[0] */\n      tag_153\n        /* \"contracts/fraud-detector/libs/trie/EthereumTrieDB.sol\":1898:1918  decoded[1].toBytes() */\n      tag_180\n        /* \"contracts/fraud-detector/libs/trie/EthereumTrieDB.sol\":373:442  hex\"56e81f171bcc55a6ff8345e692c0f86e5b48e01b996cadc001622fb5e363b421\" */\n      0x40\n        /* \"contracts/fraud-detector/libs/trie/EthereumTrieDB.sol\":183:4469  library EthereumTrieDB {... */\n      tag_87\n        /* \"contracts/fraud-detector/libs/trie/EthereumTrieDB.sol\":373:442  hex\"56e81f171bcc55a6ff8345e692c0f86e5b48e01b996cadc001622fb5e363b421\" */\n      swap8\n      add\n        /* \"contracts/fraud-detector/libs/trie/EthereumTrieDB.sol\":1898:1908  decoded[1] */\n      mload\n        /* \"contracts/fraud-detector/libs/trie/EthereumTrieDB.sol\":1898:1918  decoded[1].toBytes() */\n      tag_54\n      jump\t// in\n    tag_180:\n        /* \"contracts/fraud-detector/libs/trie/EthereumTrieDB.sol\":2058:2068  decoded[0] */\n      swap4\n      tag_28\n      jump\t// in\n        /* \"contracts/fraud-detector/libs/trie/EthereumTrieDB.sol\":2058:2078  decoded[0].toBytes() */\n    tag_178:\n        /* \"contracts/fraud-detector/libs/trie/EthereumTrieDB.sol\":2045:2082  Bytes.substr(decoded[0].toBytes(), 1) */\n      tag_61\n      jump\t// in\n    tag_177:\n        /* \"contracts/fraud-detector/libs/trie/EthereumTrieDB.sol\":183:4469  library EthereumTrieDB {... */\n      tag_182\n      tag_2\n      jump\t// in\n    tag_182:\n      swap1\n      dup2\n      mstore\n      0x00\n        /* \"contracts/fraud-detector/libs/trie/EthereumTrieDB.sol\":373:442  hex\"56e81f171bcc55a6ff8345e692c0f86e5b48e01b996cadc001622fb5e363b421\" */\n      0x20\n        /* \"contracts/fraud-detector/libs/trie/EthereumTrieDB.sol\":2033:2086  NibbleSlice(Bytes.substr(decoded[0].toBytes(), 1), 0) */\n      dup3\n      add\n        /* \"contracts/fraud-detector/libs/trie/EthereumTrieDB.sol\":183:4469  library EthereumTrieDB {... */\n      mstore\n        /* \"contracts/fraud-detector/libs/trie/EthereumTrieDB.sol\":2022:2086  leaf.key = NibbleSlice(Bytes.substr(decoded[0].toBytes(), 1), 0) */\n      dup3\n      mstore\n        /* \"contracts/fraud-detector/libs/trie/EthereumTrieDB.sol\":183:4469  library EthereumTrieDB {... */\n      tag_183\n      tag_4\n      jump\t// in\n    tag_183:\n      0x00\n        /* \"contracts/fraud-detector/libs/trie/EthereumTrieDB.sol\":373:442  hex\"56e81f171bcc55a6ff8345e692c0f86e5b48e01b996cadc001622fb5e363b421\" */\n      dup1\n      dup3\n      mstore\n      0x20\n        /* \"contracts/fraud-detector/libs/trie/EthereumTrieDB.sol\":2109:2150  NodeHandle(false, bytes32(0), true, data) */\n      dup3\n      add\n        /* \"contracts/fraud-detector/libs/trie/EthereumTrieDB.sol\":183:4469  library EthereumTrieDB {... */\n      mstore\n        /* \"contracts/fraud-detector/libs/trie/EthereumTrieDB.sol\":2495:2496  1 */\n      0x01\n        /* \"contracts/fraud-detector/libs/trie/EthereumTrieDB.sol\":373:442  hex\"56e81f171bcc55a6ff8345e692c0f86e5b48e01b996cadc001622fb5e363b421\" */\n      0x40\n        /* \"contracts/fraud-detector/libs/trie/EthereumTrieDB.sol\":2109:2150  NodeHandle(false, bytes32(0), true, data) */\n      dup3\n      add\n        /* \"contracts/fraud-detector/libs/trie/EthereumTrieDB.sol\":373:442  hex\"56e81f171bcc55a6ff8345e692c0f86e5b48e01b996cadc001622fb5e363b421\" */\n      mstore\n      swap1\n        /* \"contracts/fraud-detector/libs/trie/EthereumTrieDB.sol\":2109:2150  NodeHandle(false, bytes32(0), true, data) */\n      0x60\n      dup3\n      add\n        /* \"contracts/fraud-detector/libs/trie/EthereumTrieDB.sol\":183:4469  library EthereumTrieDB {... */\n      mstore\n        /* \"contracts/fraud-detector/libs/trie/EthereumTrieDB.sol\":373:442  hex\"56e81f171bcc55a6ff8345e692c0f86e5b48e01b996cadc001622fb5e363b421\" */\n      0x20\n        /* \"contracts/fraud-detector/libs/trie/EthereumTrieDB.sol\":2096:2106  leaf.value */\n      dup3\n      add\n        /* \"contracts/fraud-detector/libs/trie/EthereumTrieDB.sol\":2096:2150  leaf.value = NodeHandle(false, bytes32(0), true, data) */\n      mstore\n        /* \"contracts/fraud-detector/libs/trie/EthereumTrieDB.sol\":373:442  hex\"56e81f171bcc55a6ff8345e692c0f86e5b48e01b996cadc001622fb5e363b421\" */\n      0x40\n        /* \"contracts/fraud-detector/libs/trie/EthereumTrieDB.sol\":183:4469  library EthereumTrieDB {... */\n      mload\n      swap2\n      dup3\n      swap2\n      dup3\n      tag_15\n      jump\t// in\n        /* \"contracts/fraud-detector/libs/trie/EthereumTrieDB.sol\":373:442  hex\"56e81f171bcc55a6ff8345e692c0f86e5b48e01b996cadc001622fb5e363b421\" */\n    tag_175:\n      tag_26\n      jump\t// in\n        /* \"contracts/fraud-detector/libs/trie/EthereumTrieDB.sol\":183:4469  library EthereumTrieDB {... */\n    tag_18:\n      swap1\n      0x40\n      0x20\n      tag_142\n      swap4\n      dup1\n      mload\n      iszero\n      iszero\n      dup5\n      mstore\n      add\n      mload\n      swap2\n      dup2\n      0x20\n      dup3\n      add\n      mstore\n      add\n      swap1\n      tag_14\n      jump\t// in\n    tag_19:\n      swap1\n      0x20\n      swap1\n      0x20\n      dup4\n      mstore\n      0x20\n      tag_186\n      dup3\n      mload\n      0x40\n      dup4\n      dup8\n      add\n      mstore\n      0x60\n      dup7\n      add\n      swap1\n      tag_18\n      jump\t// in\n    tag_186:\n      swap2\n      add\n      mload\n      swap3\n      0x40\n      not(0x1f)\n      dup3\n      dup5\n      sub\n      add\n      swap2\n      add\n      mstore\n      dup1\n      swap2\n      0x0200\n      dup3\n      add\n      swap4\n      swap3\n      0x00\n      swap1\n    tag_187:\n      0x10\n      dup3\n      lt\n      tag_188\n      jumpi\n      pop\n      pop\n      pop\n      pop\n      pop\n      swap1\n      jump\t// out\n    tag_188:\n      swap1\n      swap2\n      swap3\n      swap4\n      swap5\n      dup4\n      dup1\n      tag_190\n      dup4\n      dup9\n      0x01\n      swap6\n      sub\n      dup7\n      mstore\n      dup10\n      mload\n      tag_18\n      jump\t// in\n    tag_190:\n      swap8\n      add\n      swap3\n      add\n      swap3\n      add\n      swap1\n      swap4\n      swap3\n      swap2\n      jump(tag_187)\n    tag_20:\n      tag_191\n      calldatasize\n      tag_13\n      jump\t// in\n    tag_191:\n      tag_192\n      tag_45\n      jump\t// in\n    tag_192:\n      pop\n        /* \"contracts/fraud-detector/libs/trie/EthereumTrieDB.sol\":3155:3242  node... */\n      tag_193\n        /* \"contracts/fraud-detector/libs/trie/EthereumTrieDB.sol\":3155:3220  node... */\n      tag_150\n        /* \"contracts/fraud-detector/libs/trie/EthereumTrieDB.sol\":3155:3177  node... */\n      0x0120\n        /* \"contracts/fraud-detector/libs/trie/EthereumTrieDB.sol\":183:4469  library EthereumTrieDB {... */\n      tag_174\n      tag_45\n      jump\t// in\n        /* \"contracts/fraud-detector/libs/trie/EthereumTrieDB.sol\":3155:3242  node... */\n    tag_193:\n        /* \"contracts/fraud-detector/libs/trie/EthereumTrieDB.sol\":183:4469  library EthereumTrieDB {... */\n      swap1\n      tag_196\n      tag_44\n      jump\t// in\n    tag_196:\n      0x00\n        /* \"contracts/fraud-detector/libs/trie/EthereumTrieDB.sol\":3321:3327  i < 16 */\n    tag_197:\n        /* \"contracts/fraud-detector/libs/trie/EthereumTrieDB.sol\":183:4469  library EthereumTrieDB {... */\n      0x10\n        /* \"contracts/fraud-detector/libs/trie/EthereumTrieDB.sol\":3321:3327  i < 16 */\n      dup2\n      lt\n      tag_198\n      jumpi\n        /* \"contracts/fraud-detector/libs/trie/EthereumTrieDB.sol\":3891:3902  decoded[16] */\n      pop\n      dup3\n        /* \"contracts/fraud-detector/libs/trie/EthereumTrieDB.sol\":3883:3913  isEmpty(decoded[16].toBytes()) */\n      tag_200\n        /* \"contracts/fraud-detector/libs/trie/EthereumTrieDB.sol\":3891:3912  decoded[16].toBytes() */\n      tag_201\n        /* \"contracts/fraud-detector/libs/trie/EthereumTrieDB.sol\":3891:3902  decoded[16] */\n      tag_153\n        /* \"contracts/fraud-detector/libs/trie/EthereumTrieDB.sol\":183:4469  library EthereumTrieDB {... */\n      tag_87\n        /* \"contracts/fraud-detector/libs/trie/EthereumTrieDB.sol\":3891:3902  decoded[16] */\n      swap7\n      tag_29\n      jump\t// in\n        /* \"contracts/fraud-detector/libs/trie/EthereumTrieDB.sol\":3891:3912  decoded[16].toBytes() */\n    tag_201:\n        /* \"contracts/fraud-detector/libs/trie/EthereumTrieDB.sol\":3883:3913  isEmpty(decoded[16].toBytes()) */\n      tag_64\n      jump\t// in\n    tag_200:\n        /* \"contracts/fraud-detector/libs/trie/EthereumTrieDB.sol\":3891:3902  decoded[16] */\n      iszero\n      tag_204\n      jumpi\n        /* \"contracts/fraud-detector/libs/trie/EthereumTrieDB.sol\":4038:4050  new bytes(0) */\n      pop\n      tag_206\n      tag_41\n      jump\t// in\n    tag_206:\n        /* \"contracts/fraud-detector/libs/trie/EthereumTrieDB.sol\":183:4469  library EthereumTrieDB {... */\n      tag_207\n      tag_4\n      jump\t// in\n    tag_207:\n        /* \"contracts/fraud-detector/libs/trie/EthereumTrieDB.sol\":373:442  hex\"56e81f171bcc55a6ff8345e692c0f86e5b48e01b996cadc001622fb5e363b421\" */\n      swap1\n      0x00\n      dup3\n      mstore\n      0x00\n        /* \"contracts/fraud-detector/libs/trie/EthereumTrieDB.sol\":3435:3437  32 */\n      0x20\n        /* \"contracts/fraud-detector/libs/trie/EthereumTrieDB.sol\":4001:4051  NodeHandle(false, bytes32(0), false, new bytes(0)) */\n      dup4\n      add\n        /* \"contracts/fraud-detector/libs/trie/EthereumTrieDB.sol\":183:4469  library EthereumTrieDB {... */\n      mstore\n      0x00\n        /* \"contracts/fraud-detector/libs/trie/EthereumTrieDB.sol\":4001:4051  NodeHandle(false, bytes32(0), false, new bytes(0)) */\n      0x40\n      dup4\n      add\n        /* \"contracts/fraud-detector/libs/trie/EthereumTrieDB.sol\":373:442  hex\"56e81f171bcc55a6ff8345e692c0f86e5b48e01b996cadc001622fb5e363b421\" */\n      mstore\n        /* \"contracts/fraud-detector/libs/trie/EthereumTrieDB.sol\":4001:4051  NodeHandle(false, bytes32(0), false, new bytes(0)) */\n      0x60\n      dup3\n      add\n        /* \"contracts/fraud-detector/libs/trie/EthereumTrieDB.sol\":183:4469  library EthereumTrieDB {... */\n      mstore\n      tag_208\n      tag_2\n      jump\t// in\n    tag_208:\n        /* \"contracts/fraud-detector/libs/trie/EthereumTrieDB.sol\":373:442  hex\"56e81f171bcc55a6ff8345e692c0f86e5b48e01b996cadc001622fb5e363b421\" */\n      swap1\n      0x00\n      dup3\n      mstore\n        /* \"contracts/fraud-detector/libs/trie/EthereumTrieDB.sol\":3435:3437  32 */\n      0x20\n        /* \"contracts/fraud-detector/libs/trie/EthereumTrieDB.sol\":3944:4065  NodeHandleOption(... */\n      dup3\n      add\n        /* \"contracts/fraud-detector/libs/trie/EthereumTrieDB.sol\":183:4469  library EthereumTrieDB {... */\n      mstore\n        /* \"contracts/fraud-detector/libs/trie/EthereumTrieDB.sol\":3929:4065  branch.value = NodeHandleOption(... */\n      dup3\n      mstore\n        /* \"contracts/fraud-detector/libs/trie/EthereumTrieDB.sol\":3879:4250  if (isEmpty(decoded[16].toBytes())) {... */\n    tag_209:\n        /* \"contracts/fraud-detector/libs/trie/EthereumTrieDB.sol\":3435:3437  32 */\n      0x20\n        /* \"contracts/fraud-detector/libs/trie/EthereumTrieDB.sol\":4259:4274  branch.children */\n      dup3\n      add\n        /* \"contracts/fraud-detector/libs/trie/EthereumTrieDB.sol\":4259:4286  branch.children = childrens */\n      mstore\n        /* \"contracts/fraud-detector/libs/trie/EthereumTrieDB.sol\":183:4469  library EthereumTrieDB {... */\n      mload(0x40)\n      swap2\n      dup3\n      swap2\n      dup3\n      tag_19\n      jump\t// in\n        /* \"contracts/fraud-detector/libs/trie/EthereumTrieDB.sol\":3879:4250  if (isEmpty(decoded[16].toBytes())) {... */\n    tag_204:\n        /* \"contracts/fraud-detector/libs/trie/EthereumTrieDB.sol\":4203:4214  decoded[16] */\n      tag_153\n        /* \"contracts/fraud-detector/libs/trie/EthereumTrieDB.sol\":4203:4224  decoded[16].toBytes() */\n      tag_211\n        /* \"contracts/fraud-detector/libs/trie/EthereumTrieDB.sol\":4203:4214  decoded[16] */\n      swap2\n      tag_29\n      jump\t// in\n        /* \"contracts/fraud-detector/libs/trie/EthereumTrieDB.sol\":4203:4224  decoded[16].toBytes() */\n    tag_211:\n        /* \"contracts/fraud-detector/libs/trie/EthereumTrieDB.sol\":183:4469  library EthereumTrieDB {... */\n      tag_212\n      tag_4\n      jump\t// in\n    tag_212:\n      0x00\n        /* \"contracts/fraud-detector/libs/trie/EthereumTrieDB.sol\":373:442  hex\"56e81f171bcc55a6ff8345e692c0f86e5b48e01b996cadc001622fb5e363b421\" */\n      dup1\n      dup3\n      mstore\n        /* \"contracts/fraud-detector/libs/trie/EthereumTrieDB.sol\":3435:3437  32 */\n      0x20\n        /* \"contracts/fraud-detector/libs/trie/EthereumTrieDB.sol\":4167:4225  NodeHandle(false, bytes32(0), true, decoded[16].toBytes()) */\n      dup3\n      add\n        /* \"contracts/fraud-detector/libs/trie/EthereumTrieDB.sol\":183:4469  library EthereumTrieDB {... */\n      mstore\n        /* \"contracts/fraud-detector/libs/trie/EthereumTrieDB.sol\":2495:2496  1 */\n      0x01\n        /* \"contracts/fraud-detector/libs/trie/EthereumTrieDB.sol\":4167:4225  NodeHandle(false, bytes32(0), true, decoded[16].toBytes()) */\n      0x40\n      dup3\n      add\n        /* \"contracts/fraud-detector/libs/trie/EthereumTrieDB.sol\":373:442  hex\"56e81f171bcc55a6ff8345e692c0f86e5b48e01b996cadc001622fb5e363b421\" */\n      mstore\n      swap1\n        /* \"contracts/fraud-detector/libs/trie/EthereumTrieDB.sol\":4167:4225  NodeHandle(false, bytes32(0), true, decoded[16].toBytes()) */\n      0x60\n      dup3\n      add\n        /* \"contracts/fraud-detector/libs/trie/EthereumTrieDB.sol\":183:4469  library EthereumTrieDB {... */\n      mstore\n      tag_214\n      tag_2\n      jump\t// in\n    tag_214:\n        /* \"contracts/fraud-detector/libs/trie/EthereumTrieDB.sol\":2495:2496  1 */\n      0x01\n        /* \"contracts/fraud-detector/libs/trie/EthereumTrieDB.sol\":373:442  hex\"56e81f171bcc55a6ff8345e692c0f86e5b48e01b996cadc001622fb5e363b421\" */\n      dup2\n      mstore\n        /* \"contracts/fraud-detector/libs/trie/EthereumTrieDB.sol\":4111:4239  NodeHandleOption(... */\n      swap1\n        /* \"contracts/fraud-detector/libs/trie/EthereumTrieDB.sol\":3435:3437  32 */\n      0x20\n        /* \"contracts/fraud-detector/libs/trie/EthereumTrieDB.sol\":4111:4239  NodeHandleOption(... */\n      dup3\n      add\n        /* \"contracts/fraud-detector/libs/trie/EthereumTrieDB.sol\":183:4469  library EthereumTrieDB {... */\n      mstore\n        /* \"contracts/fraud-detector/libs/trie/EthereumTrieDB.sol\":4096:4239  branch.value = NodeHandleOption(... */\n      dup3\n      mstore\n        /* \"contracts/fraud-detector/libs/trie/EthereumTrieDB.sol\":3879:4250  if (isEmpty(decoded[16].toBytes())) {... */\n      jump(tag_209)\n        /* \"contracts/fraud-detector/libs/trie/EthereumTrieDB.sol\":3329:3332  i++ */\n    tag_198:\n        /* \"contracts/fraud-detector/libs/trie/EthereumTrieDB.sol\":3375:3385  decoded[i] */\n      dup1\n        /* \"contracts/fraud-detector/libs/trie/EthereumTrieDB.sol\":3375:3395  decoded[i].toBytes() */\n      tag_216\n        /* \"contracts/fraud-detector/libs/trie/EthereumTrieDB.sol\":3375:3385  decoded[i] */\n      tag_153\n        /* \"contracts/fraud-detector/libs/trie/EthereumTrieDB.sol\":183:4469  library EthereumTrieDB {... */\n      0x01\n        /* \"contracts/fraud-detector/libs/trie/EthereumTrieDB.sol\":3375:3385  decoded[i] */\n      swap4\n      dup8\n      tag_30\n      jump\t// in\n        /* \"contracts/fraud-detector/libs/trie/EthereumTrieDB.sol\":3375:3395  decoded[i].toBytes() */\n    tag_216:\n        /* \"contracts/fraud-detector/libs/trie/EthereumTrieDB.sol\":183:4469  library EthereumTrieDB {... */\n      dup1\n      mload\n        /* \"contracts/fraud-detector/libs/trie/EthereumTrieDB.sol\":3435:3437  32 */\n      0x20\n      swap2\n        /* \"contracts/fraud-detector/libs/trie/EthereumTrieDB.sol\":183:4469  library EthereumTrieDB {... */\n      swap1\n        /* \"contracts/fraud-detector/libs/trie/EthereumTrieDB.sol\":3413:3437  dataAsBytes.length != 32 */\n      dup3\n      eq\n        /* \"contracts/fraud-detector/libs/trie/EthereumTrieDB.sol\":3435:3437  32 */\n      tag_218\n      jumpi\n        /* \"contracts/fraud-detector/libs/trie/EthereumTrieDB.sol\":3574:3586  new bytes(0) */\n      pop\n      tag_220\n      tag_41\n      jump\t// in\n    tag_220:\n        /* \"contracts/fraud-detector/libs/trie/EthereumTrieDB.sol\":183:4469  library EthereumTrieDB {... */\n      tag_221\n      tag_4\n      jump\t// in\n    tag_221:\n        /* \"contracts/fraud-detector/libs/trie/EthereumTrieDB.sol\":373:442  hex\"56e81f171bcc55a6ff8345e692c0f86e5b48e01b996cadc001622fb5e363b421\" */\n      swap1\n      0x00\n      dup3\n      mstore\n      0x00\n        /* \"contracts/fraud-detector/libs/trie/EthereumTrieDB.sol\":3537:3587  NodeHandle(false, bytes32(0), false, new bytes(0)) */\n      dup4\n      dup4\n      add\n        /* \"contracts/fraud-detector/libs/trie/EthereumTrieDB.sol\":183:4469  library EthereumTrieDB {... */\n      mstore\n      0x00\n        /* \"contracts/fraud-detector/libs/trie/EthereumTrieDB.sol\":3537:3587  NodeHandle(false, bytes32(0), false, new bytes(0)) */\n      0x40\n      dup4\n      add\n        /* \"contracts/fraud-detector/libs/trie/EthereumTrieDB.sol\":373:442  hex\"56e81f171bcc55a6ff8345e692c0f86e5b48e01b996cadc001622fb5e363b421\" */\n      mstore\n        /* \"contracts/fraud-detector/libs/trie/EthereumTrieDB.sol\":3537:3587  NodeHandle(false, bytes32(0), false, new bytes(0)) */\n      0x60\n      dup3\n      add\n        /* \"contracts/fraud-detector/libs/trie/EthereumTrieDB.sol\":183:4469  library EthereumTrieDB {... */\n      mstore\n      tag_222\n      tag_2\n      jump\t// in\n    tag_222:\n        /* \"contracts/fraud-detector/libs/trie/EthereumTrieDB.sol\":373:442  hex\"56e81f171bcc55a6ff8345e692c0f86e5b48e01b996cadc001622fb5e363b421\" */\n      swap2\n      0x00\n      dup4\n      mstore\n        /* \"contracts/fraud-detector/libs/trie/EthereumTrieDB.sol\":3472:3605  NodeHandleOption(... */\n      dup3\n      add\n        /* \"contracts/fraud-detector/libs/trie/EthereumTrieDB.sol\":183:4469  library EthereumTrieDB {... */\n      mstore\n        /* \"contracts/fraud-detector/libs/trie/EthereumTrieDB.sol\":3457:3605  childrens[i] = NodeHandleOption(... */\n      tag_223\n      dup3\n      dup6\n      tag_46\n      jump\t// in\n    tag_223:\n      mstore\n      tag_224\n      dup2\n      dup5\n      tag_46\n      jump\t// in\n    tag_224:\n      pop\n        /* \"contracts/fraud-detector/libs/trie/EthereumTrieDB.sol\":3409:3860  if (dataAsBytes.length != 32) {... */\n    tag_225:\n        /* \"contracts/fraud-detector/libs/trie/EthereumTrieDB.sol\":183:4469  library EthereumTrieDB {... */\n      add\n        /* \"contracts/fraud-detector/libs/trie/EthereumTrieDB.sol\":3306:3319  uint256 i = 0 */\n      jump(tag_197)\n        /* \"contracts/fraud-detector/libs/trie/EthereumTrieDB.sol\":3409:3860  if (dataAsBytes.length != 32) {... */\n    tag_218:\n        /* \"contracts/fraud-detector/libs/trie/EthereumTrieDB.sol\":3659:3687  Bytes.toBytes32(dataAsBytes) */\n      tag_226\n      swap1\n      tag_63\n      jump\t// in\n    tag_226:\n        /* \"contracts/fraud-detector/libs/trie/EthereumTrieDB.sol\":3814:3826  new bytes(0) */\n      tag_227\n      tag_41\n      jump\t// in\n    tag_227:\n        /* \"contracts/fraud-detector/libs/trie/EthereumTrieDB.sol\":183:4469  library EthereumTrieDB {... */\n      tag_228\n      tag_4\n      jump\t// in\n    tag_228:\n        /* \"contracts/fraud-detector/libs/trie/EthereumTrieDB.sol\":2495:2496  1 */\n      0x01\n        /* \"contracts/fraud-detector/libs/trie/EthereumTrieDB.sol\":373:442  hex\"56e81f171bcc55a6ff8345e692c0f86e5b48e01b996cadc001622fb5e363b421\" */\n      dup2\n      mstore\n        /* \"contracts/fraud-detector/libs/trie/EthereumTrieDB.sol\":3784:3827  NodeHandle(true, data, false, new bytes(0)) */\n      swap2\n      dup4\n      dup4\n      add\n        /* \"contracts/fraud-detector/libs/trie/EthereumTrieDB.sol\":183:4469  library EthereumTrieDB {... */\n      mstore\n      0x00\n        /* \"contracts/fraud-detector/libs/trie/EthereumTrieDB.sol\":3784:3827  NodeHandle(true, data, false, new bytes(0)) */\n      0x40\n      dup4\n      add\n        /* \"contracts/fraud-detector/libs/trie/EthereumTrieDB.sol\":373:442  hex\"56e81f171bcc55a6ff8345e692c0f86e5b48e01b996cadc001622fb5e363b421\" */\n      mstore\n        /* \"contracts/fraud-detector/libs/trie/EthereumTrieDB.sol\":3784:3827  NodeHandle(true, data, false, new bytes(0)) */\n      0x60\n      dup3\n      add\n        /* \"contracts/fraud-detector/libs/trie/EthereumTrieDB.sol\":183:4469  library EthereumTrieDB {... */\n      mstore\n      tag_230\n      tag_2\n      jump\t// in\n    tag_230:\n        /* \"contracts/fraud-detector/libs/trie/EthereumTrieDB.sol\":2495:2496  1 */\n      0x01\n        /* \"contracts/fraud-detector/libs/trie/EthereumTrieDB.sol\":373:442  hex\"56e81f171bcc55a6ff8345e692c0f86e5b48e01b996cadc001622fb5e363b421\" */\n      dup2\n      mstore\n        /* \"contracts/fraud-detector/libs/trie/EthereumTrieDB.sol\":3720:3845  NodeHandleOption(... */\n      swap2\n      dup3\n      add\n        /* \"contracts/fraud-detector/libs/trie/EthereumTrieDB.sol\":183:4469  library EthereumTrieDB {... */\n      mstore\n        /* \"contracts/fraud-detector/libs/trie/EthereumTrieDB.sol\":3705:3845  childrens[i] = NodeHandleOption(... */\n      tag_232\n      dup3\n      dup6\n      tag_46\n      jump\t// in\n    tag_232:\n      mstore\n      tag_233\n      dup2\n      dup5\n      tag_46\n      jump\t// in\n    tag_233:\n      pop\n        /* \"contracts/fraud-detector/libs/trie/EthereumTrieDB.sol\":3409:3860  if (dataAsBytes.length != 32) {... */\n      jump(tag_225)\n        /* \"contracts/fraud-detector/libs/trie/EthereumTrieDB.sol\":183:4469  library EthereumTrieDB {... */\n    tag_21:\n      tag_234\n      tag_2\n      jump\t// in\n    tag_234:\n      swap1\n      0x60\n      dup3\n      mstore\n      0x00\n      0x20\n      dup4\n      add\n      mstore\n      jump\t// out\n    tag_22:\n      tag_235\n      tag_3\n      jump\t// in\n    tag_235:\n      swap1\n      0x00\n      dup3\n      mstore\n      0x00\n      0x20\n      dup4\n      add\n      mstore\n      0x00\n      0x40\n      dup4\n      add\n      mstore\n      0x00\n      0x60\n      dup4\n      add\n      mstore\n      0x00\n      0x80\n      dup4\n      add\n      mstore\n      0x00\n      0xa0\n      dup4\n      add\n      mstore\n      0x00\n      0xc0\n      dup4\n      add\n      mstore\n      0x00\n      0xe0\n      dup4\n      add\n      mstore\n      0x00\n      0x0100\n      dup4\n      add\n      mstore\n      tag_236\n      tag_21\n      jump\t// in\n    tag_236:\n      0x0120\n      dup4\n      add\n      mstore\n      jump\t// out\n    tag_23:\n      tag_237\n      tag_2\n      jump\t// in\n    tag_237:\n      swap1\n      0x20\n      dup3\n      mstore\n      0x56e81f171bcc55a6ff8345e692c0f86e5b48e01b996cadc001622fb5e363b421\n      0x20\n      dup4\n      add\n      mstore\n      jump\t// out\n        /* \"contracts/fraud-detector/libs/trie/EthereumTrieDB.sol\":373:442  hex\"56e81f171bcc55a6ff8345e692c0f86e5b48e01b996cadc001622fb5e363b421\" */\n    tag_26:\n        /* \"contracts/fraud-detector/libs/trie/EthereumTrieDB.sol\":183:4469  library EthereumTrieDB {... */\n      shl(0xe0, 0x4e487b71)\n        /* \"contracts/fraud-detector/libs/trie/EthereumTrieDB.sol\":373:442  hex\"56e81f171bcc55a6ff8345e692c0f86e5b48e01b996cadc001622fb5e363b421\" */\n      0x00\n      mstore\n      mstore(0x04, 0x32)\n      revert(0x00, 0x24)\n    tag_27:\n        /* \"contracts/fraud-detector/libs/trie/EthereumTrieDB.sol\":183:4469  library EthereumTrieDB {... */\n      dup1\n      mload\n        /* \"contracts/fraud-detector/libs/trie/EthereumTrieDB.sol\":2495:2496  1 */\n      0x01\n        /* \"contracts/fraud-detector/libs/trie/EthereumTrieDB.sol\":373:442  hex\"56e81f171bcc55a6ff8345e692c0f86e5b48e01b996cadc001622fb5e363b421\" */\n      lt\n      iszero\n      tag_175\n      jumpi\n      0x40\n      add\n      swap1\n      jump\t// out\n    tag_28:\n        /* \"contracts/fraud-detector/libs/trie/EthereumTrieDB.sol\":183:4469  library EthereumTrieDB {... */\n      dup1\n      mload\n        /* \"contracts/fraud-detector/libs/trie/EthereumTrieDB.sol\":373:442  hex\"56e81f171bcc55a6ff8345e692c0f86e5b48e01b996cadc001622fb5e363b421\" */\n      iszero\n      tag_175\n      jumpi\n      0x20\n      add\n      swap1\n      jump\t// out\n    tag_29:\n        /* \"contracts/fraud-detector/libs/trie/EthereumTrieDB.sol\":183:4469  library EthereumTrieDB {... */\n      dup1\n      mload\n      0x10\n        /* \"contracts/fraud-detector/libs/trie/EthereumTrieDB.sol\":373:442  hex\"56e81f171bcc55a6ff8345e692c0f86e5b48e01b996cadc001622fb5e363b421\" */\n      lt\n      iszero\n      tag_175\n      jumpi\n      0x0220\n      add\n      swap1\n      jump\t// out\n    tag_30:\n        /* \"contracts/fraud-detector/libs/trie/EthereumTrieDB.sol\":183:4469  library EthereumTrieDB {... */\n      dup1\n      mload\n        /* \"contracts/fraud-detector/libs/trie/EthereumTrieDB.sol\":373:442  hex\"56e81f171bcc55a6ff8345e692c0f86e5b48e01b996cadc001622fb5e363b421\" */\n      dup3\n      lt\n      iszero\n      tag_175\n      jumpi\n      0x20\n      swap2\n      0x05\n      shl\n      add\n      add\n      swap1\n      jump\t// out\n        /* \"contracts/fraud-detector/libs/trie/EthereumTrieDB.sol\":449:1610  function decodeNodeKind(... */\n    tag_31:\n        /* \"contracts/fraud-detector/libs/trie/EthereumTrieDB.sol\":183:4469  library EthereumTrieDB {... */\n      tag_246\n      tag_22\n      jump\t// in\n    tag_246:\n      pop\n      tag_247\n      tag_22\n      jump\t// in\n    tag_247:\n      swap1\n      tag_248\n      tag_2\n      jump\t// in\n    tag_248:\n      swap1\n      dup1\n      dup3\n      mstore\n      0x00\n        /* \"contracts/fraud-detector/libs/trie/EthereumTrieDB.sol\":614:635  ByteSlice(encoded, 0) */\n      0x20\n      dup4\n      add\n        /* \"contracts/fraud-detector/libs/trie/EthereumTrieDB.sol\":183:4469  library EthereumTrieDB {... */\n      mstore\n        /* \"contracts/fraud-detector/libs/trie/EthereumTrieDB.sol\":649:688  Bytes.equals(encoded, HASHED_NULL_NODE) */\n      tag_249\n        /* \"contracts/fraud-detector/libs/trie/EthereumTrieDB.sol\":183:4469  library EthereumTrieDB {... */\n      tag_250\n      tag_23\n      jump\t// in\n    tag_250:\n        /* \"contracts/fraud-detector/libs/trie/EthereumTrieDB.sol\":649:688  Bytes.equals(encoded, HASHED_NULL_NODE) */\n      dup3\n      tag_47\n      jump\t// in\n    tag_249:\n        /* \"contracts/fraud-detector/libs/trie/EthereumTrieDB.sol\":645:759  if (Bytes.equals(encoded, HASHED_NULL_NODE)) {... */\n      tag_251\n      jumpi\n        /* \"contracts/fraud-detector/libs/trie/EthereumTrieDB.sol\":806:825  encoded.toRlpItem() */\n      tag_150\n        /* \"contracts/fraud-detector/libs/trie/EthereumTrieDB.sol\":806:834  encoded.toRlpItem().toList() */\n      tag_254\n        /* \"contracts/fraud-detector/libs/trie/EthereumTrieDB.sol\":806:825  encoded.toRlpItem() */\n      swap2\n      tag_49\n      jump\t// in\n        /* \"contracts/fraud-detector/libs/trie/EthereumTrieDB.sol\":806:834  encoded.toRlpItem().toList() */\n    tag_254:\n        /* \"contracts/fraud-detector/libs/trie/EthereumTrieDB.sol\":183:4469  library EthereumTrieDB {... */\n      dup1\n      mload\n        /* \"contracts/fraud-detector/libs/trie/EthereumTrieDB.sol\":892:905  numItems == 0 */\n      dup1\n      tag_255\n      jumpi\n      pop\n      pop\n        /* \"contracts/fraud-detector/libs/trie/EthereumTrieDB.sol\":2495:2496  1 */\n      0x01\n        /* \"contracts/fraud-detector/libs/trie/EthereumTrieDB.sol\":373:442  hex\"56e81f171bcc55a6ff8345e692c0f86e5b48e01b996cadc001622fb5e363b421\" */\n      dup3\n      mstore\n      pop\n        /* \"contracts/fraud-detector/libs/trie/EthereumTrieDB.sol\":183:4469  library EthereumTrieDB {... */\n      swap1\n      jump\t// out\n        /* \"contracts/fraud-detector/libs/trie/EthereumTrieDB.sol\":888:1556  if (numItems == 0) {... */\n    tag_255:\n        /* \"contracts/fraud-detector/libs/trie/EthereumTrieDB.sol\":998:999  2 */\n      0x02\n        /* \"contracts/fraud-detector/libs/trie/EthereumTrieDB.sol\":986:999  numItems == 2 */\n      dup2\n      sub\n        /* \"contracts/fraud-detector/libs/trie/EthereumTrieDB.sol\":998:999  2 */\n      tag_258\n      jumpi\n        /* \"contracts/fraud-detector/libs/trie/EthereumTrieDB.sol\":1078:1089  itemList[0] */\n      pop\n        /* \"contracts/fraud-detector/libs/trie/EthereumTrieDB.sol\":1078:1099  itemList[0].toBytes() */\n      tag_260\n        /* \"contracts/fraud-detector/libs/trie/EthereumTrieDB.sol\":1078:1089  itemList[0] */\n      tag_153\n        /* \"contracts/fraud-detector/libs/trie/EthereumTrieDB.sol\":614:635  ByteSlice(encoded, 0) */\n      0x20\n        /* \"contracts/fraud-detector/libs/trie/EthereumTrieDB.sol\":1078:1089  itemList[0] */\n      swap3\n      tag_28\n      jump\t// in\n        /* \"contracts/fraud-detector/libs/trie/EthereumTrieDB.sol\":1078:1099  itemList[0].toBytes() */\n    tag_260:\n        /* \"contracts/fraud-detector/libs/trie/EthereumTrieDB.sol\":1141:1264  assembly {... */\n      add\n      mload\n      0xfc\n      shr\n        /* \"contracts/fraud-detector/libs/trie/EthereumTrieDB.sol\":998:999  2 */\n      0x02\n        /* \"contracts/fraud-detector/libs/trie/EthereumTrieDB.sol\":1281:1292  prefix == 2 */\n      dup2\n      eq\n        /* \"contracts/fraud-detector/libs/trie/EthereumTrieDB.sol\":1281:1307  prefix == 2 || prefix == 3 */\n      swap1\n      dup2\n      iszero\n      tag_262\n      jumpi\n        /* \"contracts/fraud-detector/libs/trie/EthereumTrieDB.sol\":982:1556  if (numItems == 2) {... */\n    tag_263:\n      pop\n        /* \"contracts/fraud-detector/libs/trie/EthereumTrieDB.sol\":1277:1422  if (prefix == 2 || prefix == 3) {... */\n      iszero\n      tag_264\n      jumpi\n        /* \"contracts/fraud-detector/libs/trie/EthereumTrieDB.sol\":2495:2496  1 */\n      0x01\n        /* \"contracts/fraud-detector/libs/trie/EthereumTrieDB.sol\":614:635  ByteSlice(encoded, 0) */\n      0x20\n        /* \"contracts/fraud-detector/libs/trie/EthereumTrieDB.sol\":1327:1338  node.isLeaf */\n      dup4\n      add\n        /* \"contracts/fraud-detector/libs/trie/EthereumTrieDB.sol\":373:442  hex\"56e81f171bcc55a6ff8345e692c0f86e5b48e01b996cadc001622fb5e363b421\" */\n      mstore\n        /* \"contracts/fraud-detector/libs/trie/EthereumTrieDB.sol\":1327:1345  node.isLeaf = true */\n      tag_141\n        /* \"contracts/fraud-detector/libs/trie/EthereumTrieDB.sol\":373:442  hex\"56e81f171bcc55a6ff8345e692c0f86e5b48e01b996cadc001622fb5e363b421\" */\n      jump\n        /* \"contracts/fraud-detector/libs/trie/EthereumTrieDB.sol\":1277:1422  if (prefix == 2 || prefix == 3) {... */\n    tag_264:\n        /* \"contracts/fraud-detector/libs/trie/EthereumTrieDB.sol\":2495:2496  1 */\n      0x01\n        /* \"contracts/fraud-detector/libs/trie/EthereumTrieDB.sol\":1384:1400  node.isExtension */\n      0xc0\n      dup4\n      add\n        /* \"contracts/fraud-detector/libs/trie/EthereumTrieDB.sol\":373:442  hex\"56e81f171bcc55a6ff8345e692c0f86e5b48e01b996cadc001622fb5e363b421\" */\n      mstore\n        /* \"contracts/fraud-detector/libs/trie/EthereumTrieDB.sol\":1277:1422  if (prefix == 2 || prefix == 3) {... */\n      jump(tag_141)\n        /* \"contracts/fraud-detector/libs/trie/EthereumTrieDB.sol\":1281:1307  prefix == 2 || prefix == 3 */\n    tag_262:\n        /* \"contracts/fraud-detector/libs/trie/EthereumTrieDB.sol\":1306:1307  3 */\n      0x03\n        /* \"contracts/fraud-detector/libs/trie/EthereumTrieDB.sol\":1296:1307  prefix == 3 */\n      swap2\n      pop\n      eq\n        /* \"contracts/fraud-detector/libs/trie/EthereumTrieDB.sol\":1281:1307  prefix == 2 || prefix == 3 */\n      0x00\n      jump(tag_263)\n        /* \"contracts/fraud-detector/libs/trie/EthereumTrieDB.sol\":982:1556  if (numItems == 2) {... */\n    tag_258:\n        /* \"contracts/fraud-detector/libs/trie/EthereumTrieDB.sol\":1454:1456  17 */\n      0x11\n        /* \"contracts/fraud-detector/libs/trie/EthereumTrieDB.sol\":1442:1456  numItems == 17 */\n      eq\n        /* \"contracts/fraud-detector/libs/trie/EthereumTrieDB.sol\":1454:1456  17 */\n      iszero\n      swap1\n      pop\n      tag_270\n      jumpi\n        /* \"contracts/fraud-detector/libs/trie/EthereumTrieDB.sol\":2495:2496  1 */\n      0x01\n        /* \"contracts/fraud-detector/libs/trie/EthereumTrieDB.sol\":1472:1485  node.isBranch */\n      0xe0\n      dup4\n      add\n        /* \"contracts/fraud-detector/libs/trie/EthereumTrieDB.sol\":373:442  hex\"56e81f171bcc55a6ff8345e692c0f86e5b48e01b996cadc001622fb5e363b421\" */\n      mstore\n        /* \"contracts/fraud-detector/libs/trie/EthereumTrieDB.sol\":1277:1422  if (prefix == 2 || prefix == 3) {... */\n      jump(tag_141)\n        /* \"contracts/fraud-detector/libs/trie/EthereumTrieDB.sol\":1438:1556  if (numItems == 17) {... */\n    tag_270:\n        /* \"contracts/fraud-detector/libs/trie/EthereumTrieDB.sol\":183:4469  library EthereumTrieDB {... */\n      mload(0x40)\n      shl(0xe5, 0x461bcd)\n        /* \"contracts/fraud-detector/libs/trie/EthereumTrieDB.sol\":1523:1545  revert(\"Invalid data\") */\n      dup2\n      mstore\n        /* \"contracts/fraud-detector/libs/trie/EthereumTrieDB.sol\":373:442  hex\"56e81f171bcc55a6ff8345e692c0f86e5b48e01b996cadc001622fb5e363b421\" */\n      0x20\n        /* \"contracts/fraud-detector/libs/trie/EthereumTrieDB.sol\":1523:1545  revert(\"Invalid data\") */\n      0x04\n      dup3\n      add\n        /* \"contracts/fraud-detector/libs/trie/EthereumTrieDB.sol\":373:442  hex\"56e81f171bcc55a6ff8345e692c0f86e5b48e01b996cadc001622fb5e363b421\" */\n      mstore\n      0x0c\n      0x24\n      dup3\n      add\n        /* \"contracts/fraud-detector/libs/trie/EthereumTrieDB.sol\":183:4469  library EthereumTrieDB {... */\n      mstore\n      shl(0xa0, 0x496e76616c69642064617461)\n      0x44\n      dup3\n      add\n        /* \"contracts/fraud-detector/libs/trie/EthereumTrieDB.sol\":373:442  hex\"56e81f171bcc55a6ff8345e692c0f86e5b48e01b996cadc001622fb5e363b421\" */\n      mstore\n      0x64\n      swap1\n        /* \"contracts/fraud-detector/libs/trie/EthereumTrieDB.sol\":1523:1545  revert(\"Invalid data\") */\n      revert\n        /* \"contracts/fraud-detector/libs/trie/EthereumTrieDB.sol\":645:759  if (Bytes.equals(encoded, HASHED_NULL_NODE)) {... */\n    tag_251:\n      pop\n      pop\n        /* \"contracts/fraud-detector/libs/trie/EthereumTrieDB.sol\":2495:2496  1 */\n      0x01\n        /* \"contracts/fraud-detector/libs/trie/EthereumTrieDB.sol\":373:442  hex\"56e81f171bcc55a6ff8345e692c0f86e5b48e01b996cadc001622fb5e363b421\" */\n      dup2\n      mstore\n        /* \"contracts/fraud-detector/libs/trie/EthereumTrieDB.sol\":183:4469  library EthereumTrieDB {... */\n      swap1\n      jump\t// out\n    tag_32:\n      tag_275\n      tag_4\n      jump\t// in\n    tag_275:\n      swap1\n      0x00\n      dup3\n      mstore\n      0x00\n      0x20\n      dup4\n      add\n      mstore\n      0x00\n      0x40\n      dup4\n      add\n      mstore\n      0x60\n      dup1\n      dup4\n      add\n      mstore\n      jump\t// out\n    tag_33:\n      tag_276\n      tag_2\n      jump\t// in\n    tag_276:\n      swap1\n      tag_277\n      tag_21\n      jump\t// in\n    tag_277:\n      dup3\n      mstore\n      tag_278\n      tag_32\n      jump\t// in\n    tag_278:\n      0x20\n      dup4\n      add\n      mstore\n      jump\t// out\n    tag_37:\n      mstore(0x00, shl(0xe0, 0x4e487b71))\n      mstore(0x04, 0x11)\n      revert(0x00, 0x24)\n    tag_38:\n      0xff\n      0x01\n      swap2\n      and\n      add\n      swap1\n      0xff\n      dup3\n      gt\n      tag_279\n      jumpi\n      jump\t// out\n    tag_279:\n      tag_37\n      jump\t// in\n    tag_41:\n      mload(0x40)\n      0x20\n      dup2\n      add\n      dup2\n      dup2\n      lt\n      0xffffffffffffffff\n      dup3\n      gt\n      or\n      tag_96\n      jumpi\n      0x40\n      mstore\n      0x00\n      dup2\n      mstore\n      swap1\n      0x00\n      calldatasize\n      dup2\n      calldatacopy\n      jump\t// out\n    tag_42:\n      swap1\n      tag_283\n      tag_109\n      dup4\n      tag_6\n      jump\t// in\n    tag_283:\n      dup3\n      dup2\n      mstore\n      dup1\n      swap3\n      tag_285\n      not(0x1f)\n      swap2\n      tag_6\n      jump\t// in\n    tag_285:\n      add\n      swap1\n      0x20\n      calldatasize\n      swap2\n      add\n      calldatacopy\n      jump\t// out\n    tag_43:\n      tag_286\n      tag_2\n      jump\t// in\n    tag_286:\n      swap1\n      0x00\n      dup3\n      mstore\n      tag_278\n      tag_32\n      jump\t// in\n    tag_44:\n      mload(0x40)\n      swap1\n      0x0200\n      dup1\n      dup4\n      add\n      dup4\n      dup2\n      lt\n      0xffffffffffffffff\n      dup3\n      gt\n      or\n      tag_96\n      jumpi\n      0x40\n      mstore\n      dup3\n      0x00\n    tag_290:\n      dup3\n      dup2\n      lt\n      tag_291\n      jumpi\n      pop\n      pop\n      pop\n      jump\t// out\n    tag_291:\n      0x20\n      swap1\n      tag_293\n      tag_43\n      jump\t// in\n    tag_293:\n      dup2\n      dup5\n      add\n      mstore\n      add\n      jump(tag_290)\n    tag_45:\n      tag_294\n      tag_2\n      jump\t// in\n    tag_294:\n      swap1\n      tag_295\n      tag_43\n      jump\t// in\n    tag_295:\n      dup3\n      mstore\n      tag_278\n      tag_44\n      jump\t// in\n    tag_46:\n      swap1\n      0x10\n      dup2\n      lt\n      iszero\n      tag_175\n      jumpi\n      0x05\n      shl\n      add\n      swap1\n      jump\t// out\n        /* \"contracts/fraud-detector/libs/trie/Bytes.sol\":529:972  function equals(... */\n    tag_47:\n      swap1\n        /* \"contracts/fraud-detector/libs/trie/EthereumTrieDB.sol\":183:4469  library EthereumTrieDB {... */\n      dup2\n      mload\n      swap1\n      dup1\n      mload\n        /* \"contracts/fraud-detector/libs/trie/Bytes.sol\":655:682  self.length != other.length */\n      dup3\n      sub\n        /* \"contracts/fraud-detector/libs/trie/Bytes.sol\":651:721  if (self.length != other.length) {... */\n      tag_299\n      jumpi\n        /* \"contracts/fraud-detector/libs/trie/Bytes.sol\":775:909  assembly {... */\n      dup2\n      0x20\n      dup1\n      swap3\n      add\n        /* \"contracts/fraud-detector/libs/trie/Memory.sol\":450:539  assembly {... */\n      keccak256\n        /* \"contracts/fraud-detector/libs/trie/Bytes.sol\":775:909  assembly {... */\n      swap3\n      add\n        /* \"contracts/fraud-detector/libs/trie/Memory.sol\":450:539  assembly {... */\n      keccak256\n      eq\n        /* \"contracts/fraud-detector/libs/trie/Bytes.sol\":529:972  function equals(... */\n      swap1\n      jump\t// out\n        /* \"contracts/fraud-detector/libs/trie/Bytes.sol\":651:721  if (self.length != other.length) {... */\n    tag_299:\n        /* \"contracts/fraud-detector/libs/trie/Bytes.sol\":698:710  return false */\n      pop\n      pop\n      pop\n      0x00\n      swap1\n      jump\t// out\n        /* \"contracts/fraud-detector/libs/trie/EthereumTrieDB.sol\":183:4469  library EthereumTrieDB {... */\n    tag_48:\n      tag_301\n      tag_2\n      jump\t// in\n    tag_301:\n      swap1\n      0x00\n      dup3\n      mstore\n      0x00\n      0x20\n      dup4\n      add\n      mstore\n      jump\t// out\n        /* \"contracts/fraud-detector/libs/trie/RLPReader.sol\":1513:1734  function toRlpItem(bytes memory item) internal pure returns (RLPItem memory) {... */\n    tag_49:\n      0x00\n        /* \"contracts/fraud-detector/libs/trie/EthereumTrieDB.sol\":183:4469  library EthereumTrieDB {... */\n      0x20\n      tag_302\n      tag_2\n      jump\t// in\n    tag_302:\n      dup3\n      dup2\n      mstore\n      add\n      mstore\n      0x20\n      dup2\n      mload\n      swap2\n      tag_303\n      tag_2\n      jump\t// in\n    tag_303:\n      swap3\n      dup4\n      mstore\n        /* \"contracts/fraud-detector/libs/trie/RLPReader.sol\":1624:1682  assembly {... */\n      add\n        /* \"contracts/fraud-detector/libs/trie/EthereumTrieDB.sol\":183:4469  library EthereumTrieDB {... */\n      0x20\n        /* \"contracts/fraud-detector/libs/trie/RLPReader.sol\":1699:1727  RLPItem(item.length, memPtr) */\n      dup3\n      add\n        /* \"contracts/fraud-detector/libs/trie/EthereumTrieDB.sol\":183:4469  library EthereumTrieDB {... */\n      mstore\n        /* \"contracts/fraud-detector/libs/trie/RLPReader.sol\":1513:1734  function toRlpItem(bytes memory item) internal pure returns (RLPItem memory) {... */\n      swap1\n      jump\t// out\n        /* \"contracts/fraud-detector/libs/trie/EthereumTrieDB.sol\":183:4469  library EthereumTrieDB {... */\n    tag_50:\n      0xffffffffffffffff\n      dup2\n      gt\n      tag_96\n      jumpi\n      0x05\n      shl\n      0x20\n      add\n      swap1\n      jump\t// out\n    tag_51:\n      swap1\n        /* \"contracts/fraud-detector/libs/trie/RLPReader.sol\":9675:9676  1 */\n      0x01\n        /* \"contracts/fraud-detector/libs/trie/EthereumTrieDB.sol\":183:4469  library EthereumTrieDB {... */\n      dup3\n      add\n      dup1\n      swap3\n      gt\n      tag_279\n      jumpi\n      jump\t// out\n    tag_52:\n      swap2\n      swap1\n      dup3\n      add\n      dup1\n      swap3\n      gt\n      tag_279\n      jumpi\n      jump\t// out\n        /* \"contracts/fraud-detector/libs/trie/RLPReader.sol\":2946:3465  function toList(RLPItem memory item) internal pure returns (RLPItem[] memory) {... */\n    tag_53:\n        /* \"contracts/fraud-detector/libs/trie/RLPReader.sol\":3042:3054  isList(item) */\n      tag_310\n      dup2\n      tag_65\n      jump\t// in\n    tag_310:\n        /* \"contracts/fraud-detector/libs/trie/EthereumTrieDB.sol\":183:4469  library EthereumTrieDB {... */\n      iszero\n      tag_83\n      jumpi\n        /* \"contracts/fraud-detector/libs/trie/RLPReader.sol\":3082:3096  numItems(item) */\n      tag_313\n      dup2\n      tag_66\n      jump\t// in\n    tag_313:\n        /* \"contracts/fraud-detector/libs/trie/EthereumTrieDB.sol\":183:4469  library EthereumTrieDB {... */\n      tag_314\n      tag_109\n      dup3\n      tag_50\n      jump\t// in\n    tag_314:\n      dup2\n      dup2\n      mstore\n      swap2\n      not(0x1f)\n      tag_316\n      dup4\n      tag_50\n      jump\t// in\n    tag_316:\n      add\n      0x00\n    tag_317:\n      dup2\n      dup2\n      lt\n      tag_318\n      jumpi\n      pop\n      pop\n        /* \"contracts/fraud-detector/libs/trie/RLPReader.sol\":3180:3221  item.memPtr + _payloadOffset(item.memPtr) */\n      tag_320\n        /* \"contracts/fraud-detector/libs/trie/EthereumTrieDB.sol\":183:4469  library EthereumTrieDB {... */\n      0x20\n      dup1\n        /* \"contracts/fraud-detector/libs/trie/RLPReader.sol\":3180:3191  item.memPtr */\n      swap3\n      add\n        /* \"contracts/fraud-detector/libs/trie/EthereumTrieDB.sol\":183:4469  library EthereumTrieDB {... */\n      mload\n        /* \"contracts/fraud-detector/libs/trie/RLPReader.sol\":3194:3221  _payloadOffset(item.memPtr) */\n      tag_321\n      dup2\n      tag_67\n      jump\t// in\n    tag_321:\n        /* \"contracts/fraud-detector/libs/trie/RLPReader.sol\":3180:3221  item.memPtr + _payloadOffset(item.memPtr) */\n      swap1\n      tag_52\n      jump\t// in\n    tag_320:\n      0x00\n        /* \"contracts/fraud-detector/libs/trie/RLPReader.sol\":3256:3435  for (uint256 i = 0; i < items; i++) {... */\n      swap1\n        /* \"contracts/fraud-detector/libs/trie/RLPReader.sol\":3276:3285  i < items */\n    tag_322:\n      dup4\n      dup3\n      lt\n      tag_323\n      jumpi\n        /* \"contracts/fraud-detector/libs/trie/RLPReader.sol\":3445:3458  return result */\n      pop\n      pop\n      pop\n      pop\n        /* \"contracts/fraud-detector/libs/trie/RLPReader.sol\":2946:3465  function toList(RLPItem memory item) internal pure returns (RLPItem[] memory) {... */\n      swap1\n      jump\t// out\n        /* \"contracts/fraud-detector/libs/trie/RLPReader.sol\":3287:3290  i++ */\n    tag_323:\n        /* \"contracts/fraud-detector/libs/trie/RLPReader.sol\":3408:3424  memPtr + dataLen */\n      tag_325\n        /* \"contracts/fraud-detector/libs/trie/RLPReader.sol\":3316:3335  _itemLength(memPtr) */\n      dup2\n      tag_326\n        /* \"contracts/fraud-detector/libs/trie/EthereumTrieDB.sol\":183:4469  library EthereumTrieDB {... */\n      0x01\n        /* \"contracts/fraud-detector/libs/trie/RLPReader.sol\":3316:3335  _itemLength(memPtr) */\n      swap4\n      tag_68\n      jump\t// in\n    tag_326:\n        /* \"contracts/fraud-detector/libs/trie/EthereumTrieDB.sol\":183:4469  library EthereumTrieDB {... */\n      swap1\n      tag_327\n      tag_2\n      jump\t// in\n    tag_327:\n      dup3\n      dup2\n      mstore\n        /* \"contracts/fraud-detector/libs/trie/RLPReader.sol\":3361:3385  RLPItem(dataLen, memPtr) */\n      dup2\n      dup8\n      dup3\n      add\n        /* \"contracts/fraud-detector/libs/trie/EthereumTrieDB.sol\":183:4469  library EthereumTrieDB {... */\n      mstore\n        /* \"contracts/fraud-detector/libs/trie/RLPReader.sol\":3349:3385  result[i] = RLPItem(dataLen, memPtr) */\n      tag_328\n      dup7\n      dup11\n      tag_30\n      jump\t// in\n    tag_328:\n      mstore\n      tag_329\n      dup6\n      dup10\n      tag_30\n      jump\t// in\n    tag_329:\n      pop\n        /* \"contracts/fraud-detector/libs/trie/RLPReader.sol\":3408:3424  memPtr + dataLen */\n      tag_52\n      jump\t// in\n    tag_325:\n        /* \"contracts/fraud-detector/libs/trie/RLPReader.sol\":3287:3290  i++ */\n      swap2\n        /* \"contracts/fraud-detector/libs/trie/EthereumTrieDB.sol\":183:4469  library EthereumTrieDB {... */\n      add\n        /* \"contracts/fraud-detector/libs/trie/RLPReader.sol\":3261:3274  uint256 i = 0 */\n      swap1\n      jump(tag_322)\n        /* \"contracts/fraud-detector/libs/trie/EthereumTrieDB.sol\":183:4469  library EthereumTrieDB {... */\n    tag_318:\n      0x20\n      swap1\n      tag_330\n      tag_48\n      jump\t// in\n    tag_330:\n      dup3\n      dup3\n      dup9\n      add\n      add\n      mstore\n      add\n      jump(tag_317)\n        /* \"contracts/fraud-detector/libs/trie/RLPReader.sol\":6842:7221  function toBytes(RLPItem memory item) internal pure returns (bytes memory) {... */\n    tag_54:\n        /* \"contracts/fraud-detector/libs/trie/EthereumTrieDB.sol\":183:4469  library EthereumTrieDB {... */\n      dup1\n      mload\n        /* \"contracts/fraud-detector/libs/trie/RLPReader.sol\":6935:6947  item.len > 0 */\n      iszero\n        /* \"contracts/fraud-detector/libs/trie/EthereumTrieDB.sol\":183:4469  library EthereumTrieDB {... */\n      tag_83\n      jumpi\n        /* \"contracts/fraud-detector/libs/trie/RLPReader.sol\":2519:2530  item.memPtr */\n      0x20\n      dup2\n      add\n        /* \"contracts/fraud-detector/libs/trie/RLPReader.sol\":2504:2531  _payloadOffset(item.memPtr) */\n      tag_333\n        /* \"contracts/fraud-detector/libs/trie/EthereumTrieDB.sol\":183:4469  library EthereumTrieDB {... */\n      dup2\n      mload\n        /* \"contracts/fraud-detector/libs/trie/RLPReader.sol\":2504:2531  _payloadOffset(item.memPtr) */\n      tag_67\n      jump\t// in\n    tag_333:\n        /* \"contracts/fraud-detector/libs/trie/EthereumTrieDB.sol\":183:4469  library EthereumTrieDB {... */\n      swap1\n      mload\n      swap2\n      dup2\n      dup4\n      add\n      dup1\n      swap4\n      gt\n      tag_279\n      jumpi\n      mload\n      swap1\n      dup2\n      sub\n      swap1\n      dup2\n      gt\n      tag_279\n      jumpi\n        /* \"contracts/fraud-detector/libs/trie/RLPReader.sol\":7044:7058  new bytes(len) */\n      dup1\n      tag_338\n        /* \"contracts/fraud-detector/libs/trie/RLPReader.sol\":7187:7190  len */\n      tag_142\n        /* \"contracts/fraud-detector/libs/trie/RLPReader.sol\":7044:7058  new bytes(len) */\n      swap3\n      tag_42\n      jump\t// in\n    tag_338:\n        /* \"contracts/fraud-detector/libs/trie/RLPReader.sol\":7094:7155  assembly {... */\n      swap3\n      dup4\n        /* \"contracts/fraud-detector/libs/trie/RLPReader.sol\":2519:2530  item.memPtr */\n      0x20\n        /* \"contracts/fraud-detector/libs/trie/RLPReader.sol\":7094:7155  assembly {... */\n      add\n        /* \"contracts/fraud-detector/libs/trie/RLPReader.sol\":7187:7190  len */\n      swap1\n      tag_70\n      jump\t// in\n        /* \"contracts/fraud-detector/libs/trie/EthereumTrieDB.sol\":183:4469  library EthereumTrieDB {... */\n    tag_55:\n        /* \"contracts/fraud-detector/libs/trie/Memory.sol\":1317:1392  assembly {... */\n      0x20\n        /* \"contracts/fraud-detector/libs/trie/EthereumTrieDB.sol\":183:4469  library EthereumTrieDB {... */\n      sub\n      swap1\n        /* \"contracts/fraud-detector/libs/trie/Memory.sol\":1317:1392  assembly {... */\n      0x20\n        /* \"contracts/fraud-detector/libs/trie/EthereumTrieDB.sol\":183:4469  library EthereumTrieDB {... */\n      dup3\n      gt\n      tag_279\n      jumpi\n      jump\t// out\n    tag_56:\n      not(0x00)\n      dup2\n      add\n      swap2\n      swap1\n      dup3\n      gt\n      tag_279\n      jumpi\n      jump\t// out\n    tag_57:\n      not(0xbf)\n      dup2\n      add\n      swap2\n      swap1\n      dup3\n      gt\n      tag_279\n      jumpi\n      jump\t// out\n    tag_58:\n      not(0x7f)\n      dup2\n      add\n      swap2\n      swap1\n      dup3\n      gt\n      tag_279\n      jumpi\n      jump\t// out\n    tag_59:\n      not(0xf6)\n      dup2\n      add\n      swap2\n      swap1\n      dup3\n      gt\n      tag_279\n      jumpi\n      jump\t// out\n    tag_60:\n      not(0xb6)\n      dup2\n      add\n      swap2\n      swap1\n      dup3\n      gt\n      tag_279\n      jumpi\n      jump\t// out\n        /* \"contracts/fraud-detector/libs/trie/Bytes.sol\":2128:2441  function substr(... */\n    tag_61:\n        /* \"contracts/fraud-detector/libs/trie/EthereumTrieDB.sol\":183:4469  library EthereumTrieDB {... */\n      dup1\n      mload\n        /* \"contracts/fraud-detector/libs/trie/Bytes.sol\":2260:2285  startIndex <= self.length */\n      swap1\n      dup2\n        /* \"contracts/fraud-detector/libs/trie/EthereumTrieDB.sol\":1906:1907  1 */\n      0x01\n        /* \"contracts/fraud-detector/libs/trie/Bytes.sol\":2260:2285  startIndex <= self.length */\n      gt\n        /* \"contracts/fraud-detector/libs/trie/EthereumTrieDB.sol\":183:4469  library EthereumTrieDB {... */\n      tag_83\n      jumpi\n      not(0x00)\n      swap1\n      dup2\n      dup4\n      add\n      swap3\n      dup4\n      gt\n      tag_279\n      jumpi\n      0x21\n      dup2\n      add\n      swap2\n        /* \"contracts/fraud-detector/libs/trie/Memory.sol\":1317:1392  assembly {... */\n      0x20\n      swap2\n      dup3\n      add\n        /* \"contracts/fraud-detector/libs/trie/EthereumTrieDB.sol\":183:4469  library EthereumTrieDB {... */\n      dup4\n      lt\n      tag_279\n      jumpi\n        /* \"contracts/fraud-detector/libs/trie/Memory.sol\":1771:1785  new bytes(len) */\n      tag_358\n      dup5\n      tag_42\n      jump\t// in\n    tag_358:\n        /* \"contracts/fraud-detector/libs/trie/Memory.sol\":1924:1927  len */\n      swap4\n        /* \"contracts/fraud-detector/libs/trie/Memory.sol\":1317:1392  assembly {... */\n      0x20\n        /* \"contracts/fraud-detector/libs/trie/Memory.sol\":1819:1896  assembly {... */\n      dup6\n      add\n        /* \"contracts/fraud-detector/libs/trie/Memory.sol\":1924:1927  len */\n      swap4\n        /* \"contracts/fraud-detector/libs/trie/Memory.sol\":2578:2771  for (; len >= WORD_SIZE; len -= WORD_SIZE) {... */\n      swap3\n        /* \"contracts/fraud-detector/libs/trie/Memory.sol\":2585:2601  len >= WORD_SIZE */\n    tag_359:\n      dup1\n      dup3\n      lt\n      iszero\n      tag_360\n      jumpi\n      pop\n        /* \"contracts/fraud-detector/libs/trie/Memory.sol\":2828:2836  len == 0 */\n      dup1\n      tag_362\n      jumpi\n        /* \"contracts/fraud-detector/libs/trie/Memory.sol\":2828:2960  len == 0... */\n      pop\n      swap1\n    tag_364:\n        /* \"contracts/fraud-detector/libs/trie/Memory.sol\":2970:3143  assembly {... */\n      mload\n      dup3\n      mload\n      dup3\n      and\n      swap2\n      not\n      and\n      or\n      swap1\n      mstore\n        /* \"contracts/fraud-detector/libs/trie/Bytes.sol\":2128:2441  function substr(... */\n      swap1\n      jump\t// out\n        /* \"contracts/fraud-detector/libs/trie/Memory.sol\":2828:2960  len == 0... */\n    tag_362:\n        /* \"contracts/fraud-detector/libs/trie/Memory.sol\":2932:2960  256 ** (WORD_SIZE - len) - 1 */\n      tag_365\n        /* \"contracts/fraud-detector/libs/trie/Memory.sol\":2940:2955  WORD_SIZE - len */\n      swap2\n      pop\n      tag_366\n        /* \"contracts/fraud-detector/libs/trie/Memory.sol\":2932:2956  256 ** (WORD_SIZE - len) */\n      tag_367\n        /* \"contracts/fraud-detector/libs/trie/Memory.sol\":2940:2955  WORD_SIZE - len */\n      swap2\n      tag_55\n      jump\t// in\n    tag_366:\n        /* \"contracts/fraud-detector/libs/trie/Memory.sol\":2932:2956  256 ** (WORD_SIZE - len) */\n      tag_69\n      jump\t// in\n    tag_367:\n        /* \"contracts/fraud-detector/libs/trie/Memory.sol\":2932:2960  256 ** (WORD_SIZE - len) - 1 */\n      tag_56\n      jump\t// in\n    tag_365:\n        /* \"contracts/fraud-detector/libs/trie/Memory.sol\":2828:2960  len == 0... */\n      swap1\n      jump(tag_364)\n        /* \"contracts/fraud-detector/libs/trie/Memory.sol\":2603:2619  len -= WORD_SIZE */\n    tag_360:\n        /* \"contracts/fraud-detector/libs/trie/Memory.sol\":2635:2700  assembly {... */\n      swap1\n      swap3\n      swap4\n      dup5\n      mload\n      dup2\n      mstore\n        /* \"contracts/fraud-detector/libs/trie/EthereumTrieDB.sol\":183:4469  library EthereumTrieDB {... */\n      dup2\n      dup2\n      add\n      dup1\n      swap2\n      gt\n      tag_279\n      jumpi\n      swap4\n      dup2\n      dup2\n      add\n      dup1\n      swap2\n      gt\n      tag_279\n      jumpi\n        /* \"contracts/fraud-detector/libs/trie/Memory.sol\":2603:2619  len -= WORD_SIZE */\n      swap3\n      not(0x1f)\n        /* \"contracts/fraud-detector/libs/trie/EthereumTrieDB.sol\":183:4469  library EthereumTrieDB {... */\n      dup2\n      add\n      swap1\n      dup2\n      gt\n      tag_279\n      jumpi\n        /* \"contracts/fraud-detector/libs/trie/Memory.sol\":2578:2771  for (; len >= WORD_SIZE; len -= WORD_SIZE) {... */\n      swap1\n      jump(tag_359)\n        /* \"contracts/fraud-detector/libs/trie/Bytes.sol\":2128:2441  function substr(... */\n    tag_62:\n        /* \"contracts/fraud-detector/libs/trie/EthereumTrieDB.sol\":183:4469  library EthereumTrieDB {... */\n      dup1\n      mload\n        /* \"contracts/fraud-detector/libs/trie/Bytes.sol\":2260:2285  startIndex <= self.length */\n      swap2\n      dup3\n      dup2\n      gt\n        /* \"contracts/fraud-detector/libs/trie/EthereumTrieDB.sol\":183:4469  library EthereumTrieDB {... */\n      tag_83\n      jumpi\n      dup1\n      dup4\n      sub\n      swap3\n      dup4\n      gt\n      tag_279\n      jumpi\n      dup2\n      add\n        /* \"contracts/fraud-detector/libs/trie/Memory.sol\":1317:1392  assembly {... */\n      0x20\n        /* \"contracts/fraud-detector/libs/trie/EthereumTrieDB.sol\":183:4469  library EthereumTrieDB {... */\n      swap1\n      dup2\n      add\n      swap2\n        /* \"contracts/fraud-detector/libs/trie/Memory.sol\":1317:1392  assembly {... */\n      dup2\n      add\n        /* \"contracts/fraud-detector/libs/trie/EthereumTrieDB.sol\":183:4469  library EthereumTrieDB {... */\n      dup3\n      lt\n      tag_279\n      jumpi\n        /* \"contracts/fraud-detector/libs/trie/Memory.sol\":1771:1785  new bytes(len) */\n      tag_380\n      dup4\n      tag_42\n      jump\t// in\n    tag_380:\n        /* \"contracts/fraud-detector/libs/trie/Memory.sol\":1924:1927  len */\n      swap3\n        /* \"contracts/fraud-detector/libs/trie/Memory.sol\":1819:1896  assembly {... */\n      dup2\n      dup5\n      add\n        /* \"contracts/fraud-detector/libs/trie/Memory.sol\":1924:1927  len */\n      swap3\n        /* \"contracts/fraud-detector/libs/trie/Memory.sol\":2578:2771  for (; len >= WORD_SIZE; len -= WORD_SIZE) {... */\n      swap2\n        /* \"contracts/fraud-detector/libs/trie/Memory.sol\":2585:2601  len >= WORD_SIZE */\n    tag_381:\n      dup1\n      dup3\n      lt\n      iszero\n      tag_382\n      jumpi\n      pop\n        /* \"contracts/fraud-detector/libs/trie/Memory.sol\":2828:2836  len == 0 */\n      dup1\n      tag_384\n      jumpi\n      pop\n        /* \"contracts/fraud-detector/libs/trie/Bytes.sol\":2128:2441  function substr(... */\n      swap2\n      swap3\n      swap2\n      pop\n      pop\n      jump\t// out\n        /* \"contracts/fraud-detector/libs/trie/Memory.sol\":2828:2960  len == 0... */\n    tag_384:\n        /* \"contracts/fraud-detector/libs/trie/Memory.sol\":2932:2956  256 ** (WORD_SIZE - len) */\n      tag_367\n        /* \"contracts/fraud-detector/libs/trie/Memory.sol\":2940:2955  WORD_SIZE - len */\n      tag_366\n        /* \"contracts/fraud-detector/libs/trie/Memory.sol\":2932:2960  256 ** (WORD_SIZE - len) - 1 */\n      tag_365\n        /* \"contracts/fraud-detector/libs/trie/Memory.sol\":2940:2955  WORD_SIZE - len */\n      swap3\n      tag_55\n      jump\t// in\n        /* \"contracts/fraud-detector/libs/trie/Memory.sol\":2603:2619  len -= WORD_SIZE */\n    tag_382:\n        /* \"contracts/fraud-detector/libs/trie/Memory.sol\":2635:2700  assembly {... */\n      swap1\n      swap2\n      swap3\n      dup4\n      mload\n      dup2\n      mstore\n        /* \"contracts/fraud-detector/libs/trie/EthereumTrieDB.sol\":183:4469  library EthereumTrieDB {... */\n      dup2\n      dup2\n      add\n      dup1\n      swap2\n      gt\n      tag_279\n      jumpi\n      swap3\n      dup2\n      dup2\n      add\n      dup1\n      swap2\n      gt\n      tag_279\n      jumpi\n        /* \"contracts/fraud-detector/libs/trie/Memory.sol\":2603:2619  len -= WORD_SIZE */\n      swap2\n      not(0x1f)\n        /* \"contracts/fraud-detector/libs/trie/EthereumTrieDB.sol\":183:4469  library EthereumTrieDB {... */\n      dup2\n      add\n      swap1\n      dup2\n      gt\n      tag_279\n      jumpi\n        /* \"contracts/fraud-detector/libs/trie/Memory.sol\":2578:2771  for (; len >= WORD_SIZE; len -= WORD_SIZE) {... */\n      swap1\n      jump(tag_381)\n        /* \"contracts/fraud-detector/libs/trie/Bytes.sol\":3897:4123  function toBytes32(bytes memory self) internal pure returns (bytes32 out) {... */\n    tag_63:\n        /* \"contracts/fraud-detector/libs/trie/Bytes.sol\":4004:4006  32 */\n      0x20\n        /* \"contracts/fraud-detector/libs/trie/EthereumTrieDB.sol\":183:4469  library EthereumTrieDB {... */\n      dup2\n      mload\n        /* \"contracts/fraud-detector/libs/trie/Bytes.sol\":3989:4006  self.length >= 32 */\n      lt\n        /* \"contracts/fraud-detector/libs/trie/EthereumTrieDB.sol\":183:4469  library EthereumTrieDB {... */\n      tag_396\n      jumpi\n        /* \"contracts/fraud-detector/libs/trie/Bytes.sol\":4004:4006  32 */\n      0x20\n        /* \"contracts/fraud-detector/libs/trie/Bytes.sol\":4057:4117  assembly {... */\n      add\n      mload\n        /* \"contracts/fraud-detector/libs/trie/Bytes.sol\":3897:4123  function toBytes32(bytes memory self) internal pure returns (bytes32 out) {... */\n      swap1\n      jump\t// out\n        /* \"contracts/fraud-detector/libs/trie/EthereumTrieDB.sol\":183:4469  library EthereumTrieDB {... */\n    tag_396:\n      mload(0x40)\n      shl(0xe5, 0x461bcd)\n      dup2\n      mstore\n        /* \"contracts/fraud-detector/libs/trie/Bytes.sol\":4004:4006  32 */\n      0x20\n        /* \"contracts/fraud-detector/libs/trie/EthereumTrieDB.sol\":183:4469  library EthereumTrieDB {... */\n      0x04\n      dup3\n      add\n      mstore\n      0x24\n      dup1\n      dup3\n      add\n      mstore\n      0x42797465733a3a20746f427974657333323a206461746120697320746f207368\n      0x44\n      dup3\n      add\n      mstore\n      shl(0xe1, 0x37b93a17)\n      0x64\n      dup3\n      add\n      mstore\n      0x84\n      swap1\n      revert\n        /* \"contracts/fraud-detector/libs/trie/EthereumTrieDB.sol\":4323:4467  function isEmpty(bytes memory item) internal pure returns (bool) {... */\n    tag_64:\n        /* \"contracts/fraud-detector/libs/trie/EthereumTrieDB.sol\":183:4469  library EthereumTrieDB {... */\n      dup1\n      mload\n        /* \"contracts/fraud-detector/libs/trie/EthereumTrieDB.sol\":4405:4420  item.length > 0 */\n      iszero\n      swap1\n      dup2\n      iszero\n        /* \"contracts/fraud-detector/libs/trie/EthereumTrieDB.sol\":4405:4460  item.length > 0 && (item[0] == 0xc0 || item[0] == 0x80) */\n      swap2\n      dup3\n      tag_398\n      jumpi\n        /* \"contracts/fraud-detector/libs/trie/EthereumTrieDB.sol\":4398:4460  return item.length > 0 && (item[0] == 0xc0 || item[0] == 0x80) */\n      pop\n      pop\n        /* \"contracts/fraud-detector/libs/trie/EthereumTrieDB.sol\":4323:4467  function isEmpty(bytes memory item) internal pure returns (bool) {... */\n      swap1\n      jump\t// out\n        /* \"contracts/fraud-detector/libs/trie/EthereumTrieDB.sol\":4405:4460  item.length > 0 && (item[0] == 0xc0 || item[0] == 0x80) */\n    tag_398:\n        /* \"contracts/fraud-detector/libs/trie/EthereumTrieDB.sol\":183:4469  library EthereumTrieDB {... */\n      swap1\n      swap2\n      pop\n      tag_175\n      jumpi\n      0x20\n      dup2\n      add\n      dup1\n      mload\n      not(sub(shl(0xf8, 0x01), 0x01))\n      swap1\n      dup2\n      and\n      shl(0xfe, 0x03)\n        /* \"contracts/fraud-detector/libs/trie/EthereumTrieDB.sol\":4425:4440  item[0] == 0xc0 */\n      eq\n      swap3\n        /* \"contracts/fraud-detector/libs/trie/EthereumTrieDB.sol\":4425:4459  item[0] == 0xc0 || item[0] == 0x80 */\n      dup4\n      iszero\n      tag_402\n      jumpi\n        /* \"contracts/fraud-detector/libs/trie/EthereumTrieDB.sol\":4405:4460  item.length > 0 && (item[0] == 0xc0 || item[0] == 0x80) */\n    tag_403:\n      pop\n      pop\n      pop\n        /* \"contracts/fraud-detector/libs/trie/EthereumTrieDB.sol\":4323:4467  function isEmpty(bytes memory item) internal pure returns (bool) {... */\n      swap1\n      jump\t// out\n        /* \"contracts/fraud-detector/libs/trie/EthereumTrieDB.sol\":4425:4459  item[0] == 0xc0 || item[0] == 0x80 */\n    tag_402:\n        /* \"contracts/fraud-detector/libs/trie/EthereumTrieDB.sol\":183:4469  library EthereumTrieDB {... */\n      swap1\n      swap2\n      swap3\n      pop\n      mload\n      iszero\n      tag_175\n      jumpi\n      swap1\n      mload\n      and\n      shl(0xff, 0x01)\n        /* \"contracts/fraud-detector/libs/trie/EthereumTrieDB.sol\":4444:4459  item[0] == 0x80 */\n      eq\n        /* \"contracts/fraud-detector/libs/trie/EthereumTrieDB.sol\":4425:4459  item[0] == 0xc0 || item[0] == 0x80 */\n      0x00\n      dup1\n      dup1\n      jump(tag_403)\n        /* \"contracts/fraud-detector/libs/trie/RLPReader.sol\":3569:3890  function isList(RLPItem memory item) internal pure returns (bool) {... */\n    tag_65:\n        /* \"contracts/fraud-detector/libs/trie/EthereumTrieDB.sol\":183:4469  library EthereumTrieDB {... */\n      dup1\n      mload\n        /* \"contracts/fraud-detector/libs/trie/RLPReader.sol\":3649:3662  item.len == 0 */\n      iszero\n        /* \"contracts/fraud-detector/libs/trie/RLPReader.sol\":3645:3676  if (item.len == 0) return false */\n      tag_406\n      jumpi\n        /* \"contracts/fraud-detector/libs/trie/RLPReader.sol\":3725:3736  item.memPtr */\n      0x20\n        /* \"contracts/fraud-detector/libs/trie/RLPReader.sol\":328:332  0xc0 */\n      0xc0\n        /* \"contracts/fraud-detector/libs/trie/RLPReader.sol\":3725:3736  item.memPtr */\n      swap2\n      add\n        /* \"contracts/fraud-detector/libs/trie/EthereumTrieDB.sol\":183:4469  library EthereumTrieDB {... */\n      mload\n        /* \"contracts/fraud-detector/libs/trie/RLPReader.sol\":3746:3810  assembly {... */\n      mload\n      0x00\n      byte\n        /* \"contracts/fraud-detector/libs/trie/RLPReader.sol\":3824:3848  byte0 < LIST_SHORT_START */\n      lt\n        /* \"contracts/fraud-detector/libs/trie/RLPReader.sol\":3820:3862  if (byte0 < LIST_SHORT_START) return false */\n      tag_408\n      jumpi\n        /* \"contracts/fraud-detector/libs/trie/RLPReader.sol\":3879:3883  true */\n      0x01\n        /* \"contracts/fraud-detector/libs/trie/RLPReader.sol\":3569:3890  function isList(RLPItem memory item) internal pure returns (bool) {... */\n      swap1\n      jump\t// out\n        /* \"contracts/fraud-detector/libs/trie/RLPReader.sol\":3820:3862  if (byte0 < LIST_SHORT_START) return false */\n    tag_408:\n      0x00\n        /* \"contracts/fraud-detector/libs/trie/RLPReader.sol\":3850:3862  return false */\n      swap1\n      jump\t// out\n        /* \"contracts/fraud-detector/libs/trie/RLPReader.sol\":3645:3676  if (item.len == 0) return false */\n    tag_406:\n        /* \"contracts/fraud-detector/libs/trie/RLPReader.sol\":3664:3676  return false */\n      pop\n      0x00\n      swap1\n      jump\t// out\n        /* \"contracts/fraud-detector/libs/trie/RLPReader.sol\":7329:7753  function numItems(RLPItem memory item) private pure returns (uint256) {... */\n    tag_66:\n        /* \"contracts/fraud-detector/libs/trie/EthereumTrieDB.sol\":183:4469  library EthereumTrieDB {... */\n      dup1\n      mload\n        /* \"contracts/fraud-detector/libs/trie/RLPReader.sol\":7413:7426  item.len == 0 */\n      iszero\n        /* \"contracts/fraud-detector/libs/trie/RLPReader.sol\":7409:7436  if (item.len == 0) return 0 */\n      tag_406\n      jumpi\n      0x00\n        /* \"contracts/fraud-detector/libs/trie/RLPReader.sol\":7492:7503  item.memPtr */\n      swap1\n      0x20\n      dup2\n      add\n        /* \"contracts/fraud-detector/libs/trie/EthereumTrieDB.sol\":183:4469  library EthereumTrieDB {... */\n      swap1\n      dup2\n      mload\n        /* \"contracts/fraud-detector/libs/trie/RLPReader.sol\":7506:7533  _payloadOffset(item.memPtr) */\n      tag_412\n      dup2\n      tag_67\n      jump\t// in\n    tag_412:\n        /* \"contracts/fraud-detector/libs/trie/EthereumTrieDB.sol\":183:4469  library EthereumTrieDB {... */\n      dup2\n      add\n      dup1\n      swap2\n      gt\n      tag_279\n      jumpi\n      swap2\n      mload\n      swap1\n      mload\n      dup2\n      add\n      dup1\n      swap2\n      gt\n      tag_279\n      jumpi\n        /* \"contracts/fraud-detector/libs/trie/RLPReader.sol\":7592:7724  while (currPtr < endPtr) {... */\n      swap2\n      swap1\n        /* \"contracts/fraud-detector/libs/trie/RLPReader.sol\":7599:7615  currPtr < endPtr */\n    tag_417:\n      dup3\n      dup2\n      lt\n      tag_418\n      jumpi\n        /* \"contracts/fraud-detector/libs/trie/RLPReader.sol\":7734:7746  return count */\n      pop\n      swap1\n      pop\n        /* \"contracts/fraud-detector/libs/trie/RLPReader.sol\":7329:7753  function numItems(RLPItem memory item) private pure returns (uint256) {... */\n      swap1\n      jump\t// out\n        /* \"contracts/fraud-detector/libs/trie/RLPReader.sol\":7592:7724  while (currPtr < endPtr) {... */\n    tag_418:\n        /* \"contracts/fraud-detector/libs/trie/RLPReader.sol\":7651:7671  _itemLength(currPtr) */\n      tag_420\n      dup2\n      tag_68\n      jump\t// in\n    tag_420:\n        /* \"contracts/fraud-detector/libs/trie/EthereumTrieDB.sol\":183:4469  library EthereumTrieDB {... */\n      dup2\n      add\n      dup1\n      swap2\n      gt\n      tag_279\n      jumpi\n      swap1\n      not(0x00)\n      dup2\n      eq\n      tag_279\n      jumpi\n      0x01\n      add\n        /* \"contracts/fraud-detector/libs/trie/RLPReader.sol\":7592:7724  while (currPtr < endPtr) {... */\n      swap1\n      jump(tag_417)\n        /* \"contracts/fraud-detector/libs/trie/RLPReader.sol\":9117:9698  function _payloadOffset(uint256 memPtr) private pure returns (uint256) {... */\n    tag_67:\n        /* \"contracts/fraud-detector/libs/trie/RLPReader.sol\":9221:9285  assembly {... */\n      mload\n      0x00\n      byte\n        /* \"contracts/fraud-detector/libs/trie/RLPReader.sol\":239:243  0x80 */\n      0x80\n        /* \"contracts/fraud-detector/libs/trie/RLPReader.sol\":9299:9325  byte0 < STRING_SHORT_START */\n      dup2\n      lt\n        /* \"contracts/fraud-detector/libs/trie/RLPReader.sol\":239:243  0x80 */\n      iszero\n      tag_425\n      jumpi\n        /* \"contracts/fraud-detector/libs/trie/RLPReader.sol\":9341:9349  return 0 */\n      pop\n      0x00\n      swap1\n      jump\t// out\n        /* \"contracts/fraud-detector/libs/trie/RLPReader.sol\":9295:9692  if (byte0 < STRING_SHORT_START) {... */\n    tag_425:\n        /* \"contracts/fraud-detector/libs/trie/RLPReader.sol\":284:288  0xb8 */\n      0xb8\n        /* \"contracts/fraud-detector/libs/trie/RLPReader.sol\":9370:9395  byte0 < STRING_LONG_START */\n      dup2\n      lt\n        /* \"contracts/fraud-detector/libs/trie/RLPReader.sol\":9370:9453  byte0 < STRING_LONG_START || (byte0 >= LIST_SHORT_START && byte0 < LIST_LONG_START) */\n      dup1\n      iszero\n      tag_427\n      jumpi\n        /* \"contracts/fraud-detector/libs/trie/RLPReader.sol\":9295:9692  if (byte0 < STRING_SHORT_START) {... */\n    tag_428:\n        /* \"contracts/fraud-detector/libs/trie/RLPReader.sol\":9366:9692  if (byte0 < STRING_LONG_START || (byte0 >= LIST_SHORT_START && byte0 < LIST_LONG_START)) {... */\n      iszero\n      tag_429\n      jumpi\n        /* \"contracts/fraud-detector/libs/trie/RLPReader.sol\":9469:9477  return 1 */\n      pop\n        /* \"contracts/fraud-detector/libs/trie/RLPReader.sol\":9476:9477  1 */\n      0x01\n        /* \"contracts/fraud-detector/libs/trie/RLPReader.sol\":9469:9477  return 1 */\n      swap1\n      jump\t// out\n        /* \"contracts/fraud-detector/libs/trie/RLPReader.sol\":9366:9692  if (byte0 < STRING_LONG_START || (byte0 >= LIST_SHORT_START && byte0 < LIST_LONG_START)) {... */\n    tag_429:\n        /* \"contracts/fraud-detector/libs/trie/RLPReader.sol\":328:332  0xc0 */\n      0xc0\n        /* \"contracts/fraud-detector/libs/trie/RLPReader.sol\":9498:9522  byte0 < LIST_SHORT_START */\n      dup2\n      lt\n        /* \"contracts/fraud-detector/libs/trie/RLPReader.sol\":328:332  0xc0 */\n      iszero\n      tag_431\n      jumpi\n        /* \"contracts/fraud-detector/libs/trie/RLPReader.sol\":9575:9606  byte0 - (STRING_LONG_START - 1) */\n      tag_433\n        /* \"contracts/fraud-detector/libs/trie/RLPReader.sol\":9575:9610  byte0 - (STRING_LONG_START - 1) + 1 */\n      tag_142\n        /* \"contracts/fraud-detector/libs/trie/RLPReader.sol\":9575:9606  byte0 - (STRING_LONG_START - 1) */\n      swap2\n      tag_60\n      jump\t// in\n    tag_433:\n        /* \"contracts/fraud-detector/libs/trie/RLPReader.sol\":9575:9610  byte0 - (STRING_LONG_START - 1) + 1 */\n      tag_51\n      jump\t// in\n        /* \"contracts/fraud-detector/libs/trie/RLPReader.sol\":9494:9692  if (byte0 < LIST_SHORT_START) {... */\n    tag_431:\n        /* \"contracts/fraud-detector/libs/trie/RLPReader.sol\":9648:9677  byte0 - (LIST_LONG_START - 1) */\n      tag_433\n        /* \"contracts/fraud-detector/libs/trie/RLPReader.sol\":9648:9681  byte0 - (LIST_LONG_START - 1) + 1 */\n      tag_142\n        /* \"contracts/fraud-detector/libs/trie/RLPReader.sol\":9648:9677  byte0 - (LIST_LONG_START - 1) */\n      swap2\n      tag_59\n      jump\t// in\n        /* \"contracts/fraud-detector/libs/trie/RLPReader.sol\":9370:9453  byte0 < STRING_LONG_START || (byte0 >= LIST_SHORT_START && byte0 < LIST_LONG_START) */\n    tag_427:\n        /* \"contracts/fraud-detector/libs/trie/RLPReader.sol\":9400:9425  byte0 >= LIST_SHORT_START */\n      pop\n        /* \"contracts/fraud-detector/libs/trie/RLPReader.sol\":328:332  0xc0 */\n      0xc0\n        /* \"contracts/fraud-detector/libs/trie/RLPReader.sol\":9400:9425  byte0 >= LIST_SHORT_START */\n      dup2\n      lt\n      iszero\n        /* \"contracts/fraud-detector/libs/trie/RLPReader.sol\":9400:9452  byte0 >= LIST_SHORT_START && byte0 < LIST_LONG_START */\n      dup1\n      iszero\n        /* \"contracts/fraud-detector/libs/trie/RLPReader.sol\":9370:9453  byte0 < STRING_LONG_START || (byte0 >= LIST_SHORT_START && byte0 < LIST_LONG_START) */\n      tag_428\n        /* \"contracts/fraud-detector/libs/trie/RLPReader.sol\":9400:9452  byte0 >= LIST_SHORT_START && byte0 < LIST_LONG_START */\n      jumpi\n        /* \"contracts/fraud-detector/libs/trie/RLPReader.sol\":9429:9452  byte0 < LIST_LONG_START */\n      pop\n        /* \"contracts/fraud-detector/libs/trie/RLPReader.sol\":371:375  0xf8 */\n      0xf8\n        /* \"contracts/fraud-detector/libs/trie/RLPReader.sol\":9429:9452  byte0 < LIST_LONG_START */\n      dup2\n      lt\n        /* \"contracts/fraud-detector/libs/trie/RLPReader.sol\":9370:9453  byte0 < STRING_LONG_START || (byte0 >= LIST_SHORT_START && byte0 < LIST_LONG_START) */\n      jump(tag_428)\n        /* \"contracts/fraud-detector/libs/trie/RLPReader.sol\":7802:9065  function _itemLength(uint256 memPtr) private pure returns (uint256) {... */\n    tag_68:\n        /* \"contracts/fraud-detector/libs/trie/RLPReader.sol\":7928:7992  assembly {... */\n      dup1\n      mload\n      0x00\n      byte\n      swap1\n        /* \"contracts/fraud-detector/libs/trie/RLPReader.sol\":239:243  0x80 */\n      0x80\n        /* \"contracts/fraud-detector/libs/trie/RLPReader.sol\":8006:8032  byte0 < STRING_SHORT_START */\n      dup3\n      lt\n        /* \"contracts/fraud-detector/libs/trie/RLPReader.sol\":239:243  0x80 */\n      iszero\n      tag_439\n      jumpi\n        /* \"contracts/fraud-detector/libs/trie/RLPReader.sol\":8048:8059  itemLen = 1 */\n      pop\n      pop\n        /* \"contracts/fraud-detector/libs/trie/RLPReader.sol\":8058:8059  1 */\n      0x01\n        /* \"contracts/fraud-detector/libs/trie/RLPReader.sol\":7802:9065  function _itemLength(uint256 memPtr) private pure returns (uint256) {... */\n      swap1\n      jump\t// out\n        /* \"contracts/fraud-detector/libs/trie/RLPReader.sol\":8002:9034  if (byte0 < STRING_SHORT_START) {... */\n    tag_439:\n        /* \"contracts/fraud-detector/libs/trie/RLPReader.sol\":284:288  0xb8 */\n      0xb8\n        /* \"contracts/fraud-detector/libs/trie/RLPReader.sol\":8080:8105  byte0 < STRING_LONG_START */\n      dup3\n      lt\n        /* \"contracts/fraud-detector/libs/trie/RLPReader.sol\":284:288  0xb8 */\n      iszero\n      tag_442\n      jumpi\n        /* \"contracts/fraud-detector/libs/trie/RLPReader.sol\":8131:8157  byte0 - STRING_SHORT_START */\n      pop\n      tag_433\n        /* \"contracts/fraud-detector/libs/trie/RLPReader.sol\":8131:8161  byte0 - STRING_SHORT_START + 1 */\n      tag_142\n        /* \"contracts/fraud-detector/libs/trie/RLPReader.sol\":8131:8157  byte0 - STRING_SHORT_START */\n      swap2\n      tag_58\n      jump\t// in\n        /* \"contracts/fraud-detector/libs/trie/RLPReader.sol\":8076:9034  if (byte0 < STRING_LONG_START) {... */\n    tag_442:\n        /* \"contracts/fraud-detector/libs/trie/RLPReader.sol\":8182:8206  byte0 < LIST_SHORT_START */\n      swap1\n        /* \"contracts/fraud-detector/libs/trie/RLPReader.sol\":328:332  0xc0 */\n      0xc0\n        /* \"contracts/fraud-detector/libs/trie/RLPReader.sol\":8182:8206  byte0 < LIST_SHORT_START */\n      dup2\n      lt\n        /* \"contracts/fraud-detector/libs/trie/RLPReader.sol\":328:332  0xc0 */\n      iszero\n      tag_447\n      jumpi\n        /* \"contracts/fraud-detector/libs/trie/RLPReader.sol\":8222:8607  assembly {... */\n      not(0xb5)\n      swap2\n      0x01\n      0xb7\n      dup4\n      0x20\n      sub\n      add\n      0x0100\n      exp\n      swap2\n      add\n      mload\n      div\n      add\n      add\n        /* \"contracts/fraud-detector/libs/trie/EthereumTrieDB.sol\":183:4469  library EthereumTrieDB {... */\n      swap1\n      jump\t// out\n        /* \"contracts/fraud-detector/libs/trie/RLPReader.sol\":8178:9034  if (byte0 < LIST_SHORT_START) {... */\n    tag_447:\n        /* \"contracts/fraud-detector/libs/trie/RLPReader.sol\":8627:8650  byte0 < LIST_LONG_START */\n      swap1\n        /* \"contracts/fraud-detector/libs/trie/RLPReader.sol\":371:375  0xf8 */\n      0xf8\n        /* \"contracts/fraud-detector/libs/trie/RLPReader.sol\":8627:8650  byte0 < LIST_LONG_START */\n      dup3\n      lt\n        /* \"contracts/fraud-detector/libs/trie/RLPReader.sol\":371:375  0xf8 */\n      iszero\n      tag_450\n      jumpi\n        /* \"contracts/fraud-detector/libs/trie/RLPReader.sol\":8676:8700  byte0 - LIST_SHORT_START */\n      pop\n      tag_433\n        /* \"contracts/fraud-detector/libs/trie/RLPReader.sol\":8676:8704  byte0 - LIST_SHORT_START + 1 */\n      tag_142\n        /* \"contracts/fraud-detector/libs/trie/RLPReader.sol\":8676:8700  byte0 - LIST_SHORT_START */\n      swap2\n      tag_57\n      jump\t// in\n        /* \"contracts/fraud-detector/libs/trie/RLPReader.sol\":8623:9034  if (byte0 < LIST_LONG_START) {... */\n    tag_450:\n        /* \"contracts/fraud-detector/libs/trie/RLPReader.sol\":8735:9024  assembly {... */\n      0x01\n      add\n      mload\n      0x20\n      dup3\n      swap1\n      sub\n      0xf7\n      add\n      0x0100\n      exp\n      swap1\n      div\n      add\n      not(0xf5)\n      add\n        /* \"contracts/fraud-detector/libs/trie/EthereumTrieDB.sol\":183:4469  library EthereumTrieDB {... */\n      swap1\n      jump\t// out\n        /* \"contracts/fraud-detector/libs/trie/RLPReader.sol\":408:410  32 */\n    tag_69:\n      0x1f\n      dup2\n      gt\n      tag_279\n      jumpi\n      0x0100\n      exp\n      swap1\n      jump\t// out\n        /* \"contracts/fraud-detector/libs/trie/RLPReader.sol\":9856:10626  function copy(uint256 src, uint256 dest, uint256 len) private pure {... */\n    tag_70:\n      swap3\n      swap1\n      swap2\n      swap3\n        /* \"contracts/fraud-detector/libs/trie/RLPReader.sol\":9937:9945  len == 0 */\n      dup4\n      iszero\n        /* \"contracts/fraud-detector/libs/trie/RLPReader.sol\":9933:9954  if (len == 0) return; */\n      tag_457\n      jumpi\n        /* \"contracts/fraud-detector/libs/trie/RLPReader.sol\":10011:10205  for (; len >= WORD_SIZE; len -= WORD_SIZE) {... */\n      swap3\n      swap2\n        /* \"contracts/fraud-detector/libs/trie/RLPReader.sol\":10036:10052  len -= WORD_SIZE */\n    tag_459:\n        /* \"contracts/fraud-detector/libs/trie/RLPReader.sol\":408:410  32 */\n      0x20\n        /* \"contracts/fraud-detector/libs/trie/RLPReader.sol\":10018:10034  len >= WORD_SIZE */\n      swap4\n      dup5\n      dup5\n      lt\n      tag_460\n      jumpi\n        /* \"contracts/fraud-detector/libs/trie/RLPReader.sol\":10068:10133  assembly {... */\n      dup1\n      mload\n      dup3\n      mstore\n        /* \"contracts/fraud-detector/libs/trie/EthereumTrieDB.sol\":183:4469  library EthereumTrieDB {... */\n      dup5\n      dup2\n      add\n      dup1\n      swap2\n      gt\n      tag_279\n      jumpi\n      swap4\n      dup2\n      add\n      dup1\n      swap2\n      gt\n      tag_279\n      jumpi\n        /* \"contracts/fraud-detector/libs/trie/RLPReader.sol\":10036:10052  len -= WORD_SIZE */\n      swap2\n      not(0x1f)\n        /* \"contracts/fraud-detector/libs/trie/EthereumTrieDB.sol\":183:4469  library EthereumTrieDB {... */\n      dup2\n      add\n      swap1\n      dup2\n      gt\n      tag_279\n      jumpi\n        /* \"contracts/fraud-detector/libs/trie/RLPReader.sol\":10011:10205  for (; len >= WORD_SIZE; len -= WORD_SIZE) {... */\n      swap2\n      jump(tag_459)\n        /* \"contracts/fraud-detector/libs/trie/RLPReader.sol\":10018:10034  len >= WORD_SIZE */\n    tag_460:\n      swap2\n      swap4\n      pop\n      swap2\n        /* \"contracts/fraud-detector/libs/trie/RLPReader.sol\":10219:10226  len > 0 */\n      dup1\n        /* \"contracts/fraud-detector/libs/trie/RLPReader.sol\":10215:10620  if (len > 0) {... */\n      tag_468\n      jumpi\n        /* \"contracts/fraud-detector/libs/trie/RLPReader.sol\":9856:10626  function copy(uint256 src, uint256 dest, uint256 len) private pure {... */\n      pop\n      pop\n      pop\n      jump\t// out\n        /* \"contracts/fraud-detector/libs/trie/RLPReader.sol\":10215:10620  if (len > 0) {... */\n    tag_468:\n        /* \"contracts/fraud-detector/libs/trie/RLPReader.sol\":10341:10365  256 ** (WORD_SIZE - len) */\n      tag_367\n        /* \"contracts/fraud-detector/libs/trie/RLPReader.sol\":10349:10364  WORD_SIZE - len */\n      tag_366\n        /* \"contracts/fraud-detector/libs/trie/RLPReader.sol\":10341:10369  256 ** (WORD_SIZE - len) - 1 */\n      tag_472\n        /* \"contracts/fraud-detector/libs/trie/RLPReader.sol\":10349:10364  WORD_SIZE - len */\n      swap3\n      tag_55\n      jump\t// in\n        /* \"contracts/fraud-detector/libs/trie/RLPReader.sol\":10341:10369  256 ** (WORD_SIZE - len) - 1 */\n    tag_472:\n        /* \"contracts/fraud-detector/libs/trie/RLPReader.sol\":10383:10610  assembly {... */\n      swap1\n      mload\n      dup3\n      mload\n      dup3\n      and\n      swap2\n      not\n      and\n      or\n      swap1\n      mstore\n        /* \"contracts/fraud-detector/libs/trie/RLPReader.sol\":9856:10626  function copy(uint256 src, uint256 dest, uint256 len) private pure {... */\n      jump\t// out\n        /* \"contracts/fraud-detector/libs/trie/RLPReader.sol\":9933:9954  if (len == 0) return; */\n    tag_457:\n        /* \"contracts/fraud-detector/libs/trie/RLPReader.sol\":9947:9954  return; */\n      pop\n      swap2\n      pop\n      pop\n      jump\t// out\n\n    auxdata: 0xa26469706673582212204034dc5810bab5f3882d30e9fa5e8a8ed60d3c4ec53837dd725ce4f7b91f545f64736f6c63430008180033\n}\n",
				"bytecode": {
					"linkReferences": {},
					"object": "6080806040523461001a57611131908161001f823930815050f35b5f80fdfe60806040526004361015610011575f80fd5b5f3560e01c806391648ac514610054578063a948b6701461004f578063ba1daf931461004a5763cbef80f114610045575f80fd5b610667565b610532565b61042a565b60203660031901126101265760043567ffffffffffffffff81116101265761008b6100866101229236906004016101e6565b6108fb565b604051918291602083526100a460208401825115159052565b6020810151151560408401526040810151151560608401526060810151151560808401526080810151151560a084015260a0810151151560c084015260c0810151151560e084015260e0810151610102610100918286019015159052565b810151906101209182850152015161014080840152610160830190610265565b0390f35b5f80fd5b634e487b7160e01b5f52604160045260245ffd5b604051906040820182811067ffffffffffffffff82111761015e57604052565b61012a565b60405190610140820182811067ffffffffffffffff82111761015e57604052565b604051906080820182811067ffffffffffffffff82111761015e57604052565b6040519190601f01601f1916820167ffffffffffffffff81118382101761015e57604052565b67ffffffffffffffff811161015e57601f01601f191660200190565b81601f8201121561012657803590610205610200836101ca565b6101a4565b928284526020838301011161012657815f926020809301838601378301015290565b91908251928382525f5b848110610251575050825f602080949584010152601f8019910116010190565b602081830181015184830182015201610231565b9060208061027c8451604085526040850190610227565b93015191015290565b3590811515820361012657565b9190604083820312610126576102a661013e565b92803567ffffffffffffffff8111610126576020926102c69183016101e6565b845201356020830152565b600319602082820112610126576004359167ffffffffffffffff918284116101265761014090848303011261012657610308610163565b9261031581600401610285565b845261032360248201610285565b602085015261033460448201610285565b604085015261034560648201610285565b606085015261035660848201610285565b608085015261036760a48201610285565b60a085015261037860c48201610285565b60c085015261038960e48201610285565b60e0850152610104810135610100850152610124810135928311610126576103b49201600401610292565b61012082015290565b90608060606103f293805115158452602081015160208501526040810151151560408501520151918160608201520190610227565b90565b906103f29160208152602061041583516040838501526060840190610265565b920151906040601f19828503019101526103bd565b610122610436366102d1565b61043e610a15565b506104fc61046161045c610120610453610a15565b94015151610b6a565b610bc6565b61047361046d826108b9565b51610c88565b906104e46104c361046d60016104bc6104b66104aa61049c61049761046d8a6108c9565b6108c9565b516001600160f81b03191690565b60041c600f60f81b1690565b60f81c90565b16936108c9565b6104de6104d86104d285610a4b565b60011690565b60ff1690565b90610dcd565b906104ed61013e565b91825260208201528352610e55565b610504610a62565b61050c610184565b600181529160208301525f604083015260608201526020820152604051918291826103f5565b61053b366102d1565b610543610a15565b5061055e61045c610120610555610a15565b93015151610b6a565b908151600110156105d0578161058e61058961046d6105836040610122970151610c88565b936108c9565b610d25565b61059661013e565b9081525f602082015282526105a9610184565b5f8082526020820152600160408201529060608201526020820152604051918291826103f5565b6108a5565b90604060206103f29380511515845201519181602082015201906103bd565b90602090602083526020610613825160408387015260608601906105d5565b910151926040601f19828403019101528091610200820193925f905b6010821061063f57505050505090565b90919293948380610658838860019503865289516105d5565b9701920192019093929161062f565b610670366102d1565b610678610b09565b5061068a61045c610120610555610b09565b90610693610ac5565b5f5b601081106107495750826106b66106b161046d610122966108d6565b610eb6565b1561070657506106c4610a62565b6106cc610184565b905f82525f60208301525f604083015260608201526106e961013e565b905f8252602082015282525b6020820152604051918291826105f4565b61046d610712916108d6565b61071a610184565b5f80825260208201526001604082015290606082015261073861013e565b6001815290602082015282526106f5565b8061075961046d600193876108e7565b80516020919082146107b6575061076e610a62565b610776610184565b905f82525f838301525f6040830152606082015261079261013e565b915f83528201526107a38285610b24565b526107ae8184610b24565b505b01610695565b6107bf90610e55565b6107c7610a62565b6107cf610184565b6001815291838301525f604083015260608201526107eb61013e565b60018152918201526107fd8285610b24565b526108088184610b24565b506107b0565b61081661013e565b90606082525f6020830152565b61082b610163565b905f82525f60208301525f60408301525f60608301525f60808301525f60a08301525f60c08301525f60e08301525f61010083015261086861080e565b610120830152565b61087861013e565b90602082527f56e81f171bcc55a6ff8345e692c0f86e5b48e01b996cadc001622fb5e363b4216020830152565b634e487b7160e01b5f52603260045260245ffd5b8051600110156105d05760400190565b8051156105d05760200190565b8051601010156105d0576102200190565b80518210156105d05760209160051b010190565b610903610823565b5061090c610823565b9061091561013e565b908082525f602083015261093061092a610870565b82610b35565b6109ec5761045c61094091610b6a565b805180610951575050600182525090565b600281036109a2575061096861046d6020926108c9565b015160fc1c60028114908115610997575b501561098b57600160208301526103b4565b600160c08301526103b4565b60039150145f610979565b6011141590506109b857600160e08301526103b4565b60405162461bcd60e51b815260206004820152600c60248201526b496e76616c6964206461746160a01b6044820152606490fd5b50506001815290565b6109fd610184565b905f82525f60208301525f6040830152606080830152565b610a1d61013e565b90610a2661080e565b8252610a306109f5565b6020830152565b634e487b7160e01b5f52601160045260245ffd5b60ff60019116019060ff8211610a5d57565b610a37565b6040516020810181811067ffffffffffffffff82111761015e576040525f8152905f368137565b90610a96610200836101ca565b8281528092610aa7601f19916101ca565b0190602036910137565b610ab961013e565b905f8252610a306109f5565b6040519061020080830183811067ffffffffffffffff82111761015e57604052825f5b828110610af457505050565b602090610aff610ab1565b8184015201610ae8565b610b1161013e565b90610b1a610ab1565b8252610a30610ac5565b9060108110156105d05760051b0190565b9081519080518203610b4f57816020809201209201201490565b5050505f90565b610b5e61013e565b905f82525f6020830152565b5f6020610b7561013e565b82815201526020815191610b8761013e565b92835201602082015290565b67ffffffffffffffff811161015e5760051b60200190565b9060018201809211610a5d57565b91908201809211610a5d57565b610bcf81610f0f565b1561012657610bdd81610f33565b610be961020082610b93565b81815291601f19610bf983610b93565b015f5b818110610c71575050610c1d602080920151610c1781610f96565b90610bb9565b5f905b838210610c2e575050505090565b610c6981610c3d600193610ff9565b90610c4661013e565b8281528187820152610c58868a6108e7565b52610c6385896108e7565b50610bb9565b910190610c20565b602090610c7c610b56565b82828801015201610bfc565b8051156101265760208101610c9d8151610f96565b905191818301809311610a5d5751908103908111610a5d5780610cc26103f292610a89565b928360200190611088565b6020039060208211610a5d57565b5f19810191908211610a5d57565b60bf19810191908211610a5d57565b607f19810191908211610a5d57565b60f619810191908211610a5d57565b60b619810191908211610a5d57565b80519081600111610126575f1990818301928311610a5d57602181019160209182018310610a5d57610d5684610a89565b936020850193925b80821015610d9e575080610d7d5750905b518251821691191617905290565b610d989150610d8e610d9391610ccd565b611079565b610cdb565b90610d6f565b90929384518152818101809111610a5d5793818101809111610a5d5792601f198101908111610a5d5790610d5e565b80519182811161012657808303928311610a5d57810160209081019181018210610a5d57610dfa83610a89565b9281840192915b80821015610e26575080610e1757509192915050565b610d93610d8e610d9892610ccd565b90919283518152818101809111610a5d5792818101809111610a5d5791601f198101908111610a5d5790610e01565b6020815110610e65576020015190565b60405162461bcd60e51b8152602060048201526024808201527f42797465733a3a20746f427974657333323a206461746120697320746f20736860448201526337b93a1760e11b6064820152608490fd5b8051159081159182610ec757505090565b9091506105d0576020810180516001600160f81b0319908116600360fe1b14928315610ef4575b50505090565b9091925051156105d057905116600160ff1b145f8080610eee565b805115610f2e57602060c0910151515f1a10610f2a57600190565b5f90565b505f90565b805115610f2e575f9060208101908151610f4c81610f96565b8101809111610a5d57915190518101809111610a5d5791905b828110610f725750905090565b610f7b81610ff9565b8101809111610a5d57905f198114610a5d5760010190610f65565b515f1a6080811015610fa757505f90565b60b881108015610fe3575b15610fbd5750600190565b60c0811015610fd757610fd26103f291610d16565b610bab565b610fd26103f291610d07565b5060c08110158015610fb2575060f88110610fb2565b80515f1a90608082101561100e575050600190565b60b88210156110245750610fd26103f291610cf8565b9060c08110156110485760b51991600160b783602003016101000a91015104010190565b9060f882101561105f5750610fd26103f291610ce9565b60010151602082900360f7016101000a90040160f5190190565b601f8111610a5d576101000a90565b9290919283156110f55792915b6020938484106110ca5780518252848101809111610a5d57938101809111610a5d5791601f198101908111610a5d5791611095565b91935091806110d857505050565b610d93610d8e6110e792610ccd565b905182518216911916179052565b5091505056fea26469706673582212204034dc5810bab5f3882d30e9fa5e8a8ed60d3c4ec53837dd725ce4f7b91f545f64736f6c63430008180033",
					"opcodes": "PUSH1 0x80 DUP1 PUSH1 0x40 MSTORE CALLVALUE PUSH2 0x1A JUMPI PUSH2 0x1131 SWAP1 DUP2 PUSH2 0x1F DUP3 CODECOPY ADDRESS DUP2 POP POP RETURN JUMPDEST PUSH0 DUP1 REVERT INVALID PUSH1 0x80 PUSH1 0x40 MSTORE PUSH1 0x4 CALLDATASIZE LT ISZERO PUSH2 0x11 JUMPI PUSH0 DUP1 REVERT JUMPDEST PUSH0 CALLDATALOAD PUSH1 0xE0 SHR DUP1 PUSH4 0x91648AC5 EQ PUSH2 0x54 JUMPI DUP1 PUSH4 0xA948B670 EQ PUSH2 0x4F JUMPI DUP1 PUSH4 0xBA1DAF93 EQ PUSH2 0x4A JUMPI PUSH4 0xCBEF80F1 EQ PUSH2 0x45 JUMPI PUSH0 DUP1 REVERT JUMPDEST PUSH2 0x667 JUMP JUMPDEST PUSH2 0x532 JUMP JUMPDEST PUSH2 0x42A JUMP JUMPDEST PUSH1 0x20 CALLDATASIZE PUSH1 0x3 NOT ADD SLT PUSH2 0x126 JUMPI PUSH1 0x4 CALLDATALOAD PUSH8 0xFFFFFFFFFFFFFFFF DUP2 GT PUSH2 0x126 JUMPI PUSH2 0x8B PUSH2 0x86 PUSH2 0x122 SWAP3 CALLDATASIZE SWAP1 PUSH1 0x4 ADD PUSH2 0x1E6 JUMP JUMPDEST PUSH2 0x8FB JUMP JUMPDEST PUSH1 0x40 MLOAD SWAP2 DUP3 SWAP2 PUSH1 0x20 DUP4 MSTORE PUSH2 0xA4 PUSH1 0x20 DUP5 ADD DUP3 MLOAD ISZERO ISZERO SWAP1 MSTORE JUMP JUMPDEST PUSH1 0x20 DUP2 ADD MLOAD ISZERO ISZERO PUSH1 0x40 DUP5 ADD MSTORE PUSH1 0x40 DUP2 ADD MLOAD ISZERO ISZERO PUSH1 0x60 DUP5 ADD MSTORE PUSH1 0x60 DUP2 ADD MLOAD ISZERO ISZERO PUSH1 0x80 DUP5 ADD MSTORE PUSH1 0x80 DUP2 ADD MLOAD ISZERO ISZERO PUSH1 0xA0 DUP5 ADD MSTORE PUSH1 0xA0 DUP2 ADD MLOAD ISZERO ISZERO PUSH1 0xC0 DUP5 ADD MSTORE PUSH1 0xC0 DUP2 ADD MLOAD ISZERO ISZERO PUSH1 0xE0 DUP5 ADD MSTORE PUSH1 0xE0 DUP2 ADD MLOAD PUSH2 0x102 PUSH2 0x100 SWAP2 DUP3 DUP7 ADD SWAP1 ISZERO ISZERO SWAP1 MSTORE JUMP JUMPDEST DUP2 ADD MLOAD SWAP1 PUSH2 0x120 SWAP2 DUP3 DUP6 ADD MSTORE ADD MLOAD PUSH2 0x140 DUP1 DUP5 ADD MSTORE PUSH2 0x160 DUP4 ADD SWAP1 PUSH2 0x265 JUMP JUMPDEST SUB SWAP1 RETURN JUMPDEST PUSH0 DUP1 REVERT JUMPDEST PUSH4 0x4E487B71 PUSH1 0xE0 SHL PUSH0 MSTORE PUSH1 0x41 PUSH1 0x4 MSTORE PUSH1 0x24 PUSH0 REVERT JUMPDEST PUSH1 0x40 MLOAD SWAP1 PUSH1 0x40 DUP3 ADD DUP3 DUP2 LT PUSH8 0xFFFFFFFFFFFFFFFF DUP3 GT OR PUSH2 0x15E JUMPI PUSH1 0x40 MSTORE JUMP JUMPDEST PUSH2 0x12A JUMP JUMPDEST PUSH1 0x40 MLOAD SWAP1 PUSH2 0x140 DUP3 ADD DUP3 DUP2 LT PUSH8 0xFFFFFFFFFFFFFFFF DUP3 GT OR PUSH2 0x15E JUMPI PUSH1 0x40 MSTORE JUMP JUMPDEST PUSH1 0x40 MLOAD SWAP1 PUSH1 0x80 DUP3 ADD DUP3 DUP2 LT PUSH8 0xFFFFFFFFFFFFFFFF DUP3 GT OR PUSH2 0x15E JUMPI PUSH1 0x40 MSTORE JUMP JUMPDEST PUSH1 0x40 MLOAD SWAP2 SWAP1 PUSH1 0x1F ADD PUSH1 0x1F NOT AND DUP3 ADD PUSH8 0xFFFFFFFFFFFFFFFF DUP2 GT DUP4 DUP3 LT OR PUSH2 0x15E JUMPI PUSH1 0x40 MSTORE JUMP JUMPDEST PUSH8 0xFFFFFFFFFFFFFFFF DUP2 GT PUSH2 0x15E JUMPI PUSH1 0x1F ADD PUSH1 0x1F NOT AND PUSH1 0x20 ADD SWAP1 JUMP JUMPDEST DUP2 PUSH1 0x1F DUP3 ADD SLT ISZERO PUSH2 0x126 JUMPI DUP1 CALLDATALOAD SWAP1 PUSH2 0x205 PUSH2 0x200 DUP4 PUSH2 0x1CA JUMP JUMPDEST PUSH2 0x1A4 JUMP JUMPDEST SWAP3 DUP3 DUP5 MSTORE PUSH1 0x20 DUP4 DUP4 ADD ADD GT PUSH2 0x126 JUMPI DUP2 PUSH0 SWAP3 PUSH1 0x20 DUP1 SWAP4 ADD DUP4 DUP7 ADD CALLDATACOPY DUP4 ADD ADD MSTORE SWAP1 JUMP JUMPDEST SWAP2 SWAP1 DUP3 MLOAD SWAP3 DUP4 DUP3 MSTORE PUSH0 JUMPDEST DUP5 DUP2 LT PUSH2 0x251 JUMPI POP POP DUP3 PUSH0 PUSH1 0x20 DUP1 SWAP5 SWAP6 DUP5 ADD ADD MSTORE PUSH1 0x1F DUP1 NOT SWAP2 ADD AND ADD ADD SWAP1 JUMP JUMPDEST PUSH1 0x20 DUP2 DUP4 ADD DUP2 ADD MLOAD DUP5 DUP4 ADD DUP3 ADD MSTORE ADD PUSH2 0x231 JUMP JUMPDEST SWAP1 PUSH1 0x20 DUP1 PUSH2 0x27C DUP5 MLOAD PUSH1 0x40 DUP6 MSTORE PUSH1 0x40 DUP6 ADD SWAP1 PUSH2 0x227 JUMP JUMPDEST SWAP4 ADD MLOAD SWAP2 ADD MSTORE SWAP1 JUMP JUMPDEST CALLDATALOAD SWAP1 DUP2 ISZERO ISZERO DUP3 SUB PUSH2 0x126 JUMPI JUMP JUMPDEST SWAP2 SWAP1 PUSH1 0x40 DUP4 DUP3 SUB SLT PUSH2 0x126 JUMPI PUSH2 0x2A6 PUSH2 0x13E JUMP JUMPDEST SWAP3 DUP1 CALLDATALOAD PUSH8 0xFFFFFFFFFFFFFFFF DUP2 GT PUSH2 0x126 JUMPI PUSH1 0x20 SWAP3 PUSH2 0x2C6 SWAP2 DUP4 ADD PUSH2 0x1E6 JUMP JUMPDEST DUP5 MSTORE ADD CALLDATALOAD PUSH1 0x20 DUP4 ADD MSTORE JUMP JUMPDEST PUSH1 0x3 NOT PUSH1 0x20 DUP3 DUP3 ADD SLT PUSH2 0x126 JUMPI PUSH1 0x4 CALLDATALOAD SWAP2 PUSH8 0xFFFFFFFFFFFFFFFF SWAP2 DUP3 DUP5 GT PUSH2 0x126 JUMPI PUSH2 0x140 SWAP1 DUP5 DUP4 SUB ADD SLT PUSH2 0x126 JUMPI PUSH2 0x308 PUSH2 0x163 JUMP JUMPDEST SWAP3 PUSH2 0x315 DUP2 PUSH1 0x4 ADD PUSH2 0x285 JUMP JUMPDEST DUP5 MSTORE PUSH2 0x323 PUSH1 0x24 DUP3 ADD PUSH2 0x285 JUMP JUMPDEST PUSH1 0x20 DUP6 ADD MSTORE PUSH2 0x334 PUSH1 0x44 DUP3 ADD PUSH2 0x285 JUMP JUMPDEST PUSH1 0x40 DUP6 ADD MSTORE PUSH2 0x345 PUSH1 0x64 DUP3 ADD PUSH2 0x285 JUMP JUMPDEST PUSH1 0x60 DUP6 ADD MSTORE PUSH2 0x356 PUSH1 0x84 DUP3 ADD PUSH2 0x285 JUMP JUMPDEST PUSH1 0x80 DUP6 ADD MSTORE PUSH2 0x367 PUSH1 0xA4 DUP3 ADD PUSH2 0x285 JUMP JUMPDEST PUSH1 0xA0 DUP6 ADD MSTORE PUSH2 0x378 PUSH1 0xC4 DUP3 ADD PUSH2 0x285 JUMP JUMPDEST PUSH1 0xC0 DUP6 ADD MSTORE PUSH2 0x389 PUSH1 0xE4 DUP3 ADD PUSH2 0x285 JUMP JUMPDEST PUSH1 0xE0 DUP6 ADD MSTORE PUSH2 0x104 DUP2 ADD CALLDATALOAD PUSH2 0x100 DUP6 ADD MSTORE PUSH2 0x124 DUP2 ADD CALLDATALOAD SWAP3 DUP4 GT PUSH2 0x126 JUMPI PUSH2 0x3B4 SWAP3 ADD PUSH1 0x4 ADD PUSH2 0x292 JUMP JUMPDEST PUSH2 0x120 DUP3 ADD MSTORE SWAP1 JUMP JUMPDEST SWAP1 PUSH1 0x80 PUSH1 0x60 PUSH2 0x3F2 SWAP4 DUP1 MLOAD ISZERO ISZERO DUP5 MSTORE PUSH1 0x20 DUP2 ADD MLOAD PUSH1 0x20 DUP6 ADD MSTORE PUSH1 0x40 DUP2 ADD MLOAD ISZERO ISZERO PUSH1 0x40 DUP6 ADD MSTORE ADD MLOAD SWAP2 DUP2 PUSH1 0x60 DUP3 ADD MSTORE ADD SWAP1 PUSH2 0x227 JUMP JUMPDEST SWAP1 JUMP JUMPDEST SWAP1 PUSH2 0x3F2 SWAP2 PUSH1 0x20 DUP2 MSTORE PUSH1 0x20 PUSH2 0x415 DUP4 MLOAD PUSH1 0x40 DUP4 DUP6 ADD MSTORE PUSH1 0x60 DUP5 ADD SWAP1 PUSH2 0x265 JUMP JUMPDEST SWAP3 ADD MLOAD SWAP1 PUSH1 0x40 PUSH1 0x1F NOT DUP3 DUP6 SUB ADD SWAP2 ADD MSTORE PUSH2 0x3BD JUMP JUMPDEST PUSH2 0x122 PUSH2 0x436 CALLDATASIZE PUSH2 0x2D1 JUMP JUMPDEST PUSH2 0x43E PUSH2 0xA15 JUMP JUMPDEST POP PUSH2 0x4FC PUSH2 0x461 PUSH2 0x45C PUSH2 0x120 PUSH2 0x453 PUSH2 0xA15 JUMP JUMPDEST SWAP5 ADD MLOAD MLOAD PUSH2 0xB6A JUMP JUMPDEST PUSH2 0xBC6 JUMP JUMPDEST PUSH2 0x473 PUSH2 0x46D DUP3 PUSH2 0x8B9 JUMP JUMPDEST MLOAD PUSH2 0xC88 JUMP JUMPDEST SWAP1 PUSH2 0x4E4 PUSH2 0x4C3 PUSH2 0x46D PUSH1 0x1 PUSH2 0x4BC PUSH2 0x4B6 PUSH2 0x4AA PUSH2 0x49C PUSH2 0x497 PUSH2 0x46D DUP11 PUSH2 0x8C9 JUMP JUMPDEST PUSH2 0x8C9 JUMP JUMPDEST MLOAD PUSH1 0x1 PUSH1 0x1 PUSH1 0xF8 SHL SUB NOT AND SWAP1 JUMP JUMPDEST PUSH1 0x4 SHR PUSH1 0xF PUSH1 0xF8 SHL AND SWAP1 JUMP JUMPDEST PUSH1 0xF8 SHR SWAP1 JUMP JUMPDEST AND SWAP4 PUSH2 0x8C9 JUMP JUMPDEST PUSH2 0x4DE PUSH2 0x4D8 PUSH2 0x4D2 DUP6 PUSH2 0xA4B JUMP JUMPDEST PUSH1 0x1 AND SWAP1 JUMP JUMPDEST PUSH1 0xFF AND SWAP1 JUMP JUMPDEST SWAP1 PUSH2 0xDCD JUMP JUMPDEST SWAP1 PUSH2 0x4ED PUSH2 0x13E JUMP JUMPDEST SWAP2 DUP3 MSTORE PUSH1 0x20 DUP3 ADD MSTORE DUP4 MSTORE PUSH2 0xE55 JUMP JUMPDEST PUSH2 0x504 PUSH2 0xA62 JUMP JUMPDEST PUSH2 0x50C PUSH2 0x184 JUMP JUMPDEST PUSH1 0x1 DUP2 MSTORE SWAP2 PUSH1 0x20 DUP4 ADD MSTORE PUSH0 PUSH1 0x40 DUP4 ADD MSTORE PUSH1 0x60 DUP3 ADD MSTORE PUSH1 0x20 DUP3 ADD MSTORE PUSH1 0x40 MLOAD SWAP2 DUP3 SWAP2 DUP3 PUSH2 0x3F5 JUMP JUMPDEST PUSH2 0x53B CALLDATASIZE PUSH2 0x2D1 JUMP JUMPDEST PUSH2 0x543 PUSH2 0xA15 JUMP JUMPDEST POP PUSH2 0x55E PUSH2 0x45C PUSH2 0x120 PUSH2 0x555 PUSH2 0xA15 JUMP JUMPDEST SWAP4 ADD MLOAD MLOAD PUSH2 0xB6A JUMP JUMPDEST SWAP1 DUP2 MLOAD PUSH1 0x1 LT ISZERO PUSH2 0x5D0 JUMPI DUP2 PUSH2 0x58E PUSH2 0x589 PUSH2 0x46D PUSH2 0x583 PUSH1 0x40 PUSH2 0x122 SWAP8 ADD MLOAD PUSH2 0xC88 JUMP JUMPDEST SWAP4 PUSH2 0x8C9 JUMP JUMPDEST PUSH2 0xD25 JUMP JUMPDEST PUSH2 0x596 PUSH2 0x13E JUMP JUMPDEST SWAP1 DUP2 MSTORE PUSH0 PUSH1 0x20 DUP3 ADD MSTORE DUP3 MSTORE PUSH2 0x5A9 PUSH2 0x184 JUMP JUMPDEST PUSH0 DUP1 DUP3 MSTORE PUSH1 0x20 DUP3 ADD MSTORE PUSH1 0x1 PUSH1 0x40 DUP3 ADD MSTORE SWAP1 PUSH1 0x60 DUP3 ADD MSTORE PUSH1 0x20 DUP3 ADD MSTORE PUSH1 0x40 MLOAD SWAP2 DUP3 SWAP2 DUP3 PUSH2 0x3F5 JUMP JUMPDEST PUSH2 0x8A5 JUMP JUMPDEST SWAP1 PUSH1 0x40 PUSH1 0x20 PUSH2 0x3F2 SWAP4 DUP1 MLOAD ISZERO ISZERO DUP5 MSTORE ADD MLOAD SWAP2 DUP2 PUSH1 0x20 DUP3 ADD MSTORE ADD SWAP1 PUSH2 0x3BD JUMP JUMPDEST SWAP1 PUSH1 0x20 SWAP1 PUSH1 0x20 DUP4 MSTORE PUSH1 0x20 PUSH2 0x613 DUP3 MLOAD PUSH1 0x40 DUP4 DUP8 ADD MSTORE PUSH1 0x60 DUP7 ADD SWAP1 PUSH2 0x5D5 JUMP JUMPDEST SWAP2 ADD MLOAD SWAP3 PUSH1 0x40 PUSH1 0x1F NOT DUP3 DUP5 SUB ADD SWAP2 ADD MSTORE DUP1 SWAP2 PUSH2 0x200 DUP3 ADD SWAP4 SWAP3 PUSH0 SWAP1 JUMPDEST PUSH1 0x10 DUP3 LT PUSH2 0x63F JUMPI POP POP POP POP POP SWAP1 JUMP JUMPDEST SWAP1 SWAP2 SWAP3 SWAP4 SWAP5 DUP4 DUP1 PUSH2 0x658 DUP4 DUP9 PUSH1 0x1 SWAP6 SUB DUP7 MSTORE DUP10 MLOAD PUSH2 0x5D5 JUMP JUMPDEST SWAP8 ADD SWAP3 ADD SWAP3 ADD SWAP1 SWAP4 SWAP3 SWAP2 PUSH2 0x62F JUMP JUMPDEST PUSH2 0x670 CALLDATASIZE PUSH2 0x2D1 JUMP JUMPDEST PUSH2 0x678 PUSH2 0xB09 JUMP JUMPDEST POP PUSH2 0x68A PUSH2 0x45C PUSH2 0x120 PUSH2 0x555 PUSH2 0xB09 JUMP JUMPDEST SWAP1 PUSH2 0x693 PUSH2 0xAC5 JUMP JUMPDEST PUSH0 JUMPDEST PUSH1 0x10 DUP2 LT PUSH2 0x749 JUMPI POP DUP3 PUSH2 0x6B6 PUSH2 0x6B1 PUSH2 0x46D PUSH2 0x122 SWAP7 PUSH2 0x8D6 JUMP JUMPDEST PUSH2 0xEB6 JUMP JUMPDEST ISZERO PUSH2 0x706 JUMPI POP PUSH2 0x6C4 PUSH2 0xA62 JUMP JUMPDEST PUSH2 0x6CC PUSH2 0x184 JUMP JUMPDEST SWAP1 PUSH0 DUP3 MSTORE PUSH0 PUSH1 0x20 DUP4 ADD MSTORE PUSH0 PUSH1 0x40 DUP4 ADD MSTORE PUSH1 0x60 DUP3 ADD MSTORE PUSH2 0x6E9 PUSH2 0x13E JUMP JUMPDEST SWAP1 PUSH0 DUP3 MSTORE PUSH1 0x20 DUP3 ADD MSTORE DUP3 MSTORE JUMPDEST PUSH1 0x20 DUP3 ADD MSTORE PUSH1 0x40 MLOAD SWAP2 DUP3 SWAP2 DUP3 PUSH2 0x5F4 JUMP JUMPDEST PUSH2 0x46D PUSH2 0x712 SWAP2 PUSH2 0x8D6 JUMP JUMPDEST PUSH2 0x71A PUSH2 0x184 JUMP JUMPDEST PUSH0 DUP1 DUP3 MSTORE PUSH1 0x20 DUP3 ADD MSTORE PUSH1 0x1 PUSH1 0x40 DUP3 ADD MSTORE SWAP1 PUSH1 0x60 DUP3 ADD MSTORE PUSH2 0x738 PUSH2 0x13E JUMP JUMPDEST PUSH1 0x1 DUP2 MSTORE SWAP1 PUSH1 0x20 DUP3 ADD MSTORE DUP3 MSTORE PUSH2 0x6F5 JUMP JUMPDEST DUP1 PUSH2 0x759 PUSH2 0x46D PUSH1 0x1 SWAP4 DUP8 PUSH2 0x8E7 JUMP JUMPDEST DUP1 MLOAD PUSH1 0x20 SWAP2 SWAP1 DUP3 EQ PUSH2 0x7B6 JUMPI POP PUSH2 0x76E PUSH2 0xA62 JUMP JUMPDEST PUSH2 0x776 PUSH2 0x184 JUMP JUMPDEST SWAP1 PUSH0 DUP3 MSTORE PUSH0 DUP4 DUP4 ADD MSTORE PUSH0 PUSH1 0x40 DUP4 ADD MSTORE PUSH1 0x60 DUP3 ADD MSTORE PUSH2 0x792 PUSH2 0x13E JUMP JUMPDEST SWAP2 PUSH0 DUP4 MSTORE DUP3 ADD MSTORE PUSH2 0x7A3 DUP3 DUP6 PUSH2 0xB24 JUMP JUMPDEST MSTORE PUSH2 0x7AE DUP2 DUP5 PUSH2 0xB24 JUMP JUMPDEST POP JUMPDEST ADD PUSH2 0x695 JUMP JUMPDEST PUSH2 0x7BF SWAP1 PUSH2 0xE55 JUMP JUMPDEST PUSH2 0x7C7 PUSH2 0xA62 JUMP JUMPDEST PUSH2 0x7CF PUSH2 0x184 JUMP JUMPDEST PUSH1 0x1 DUP2 MSTORE SWAP2 DUP4 DUP4 ADD MSTORE PUSH0 PUSH1 0x40 DUP4 ADD MSTORE PUSH1 0x60 DUP3 ADD MSTORE PUSH2 0x7EB PUSH2 0x13E JUMP JUMPDEST PUSH1 0x1 DUP2 MSTORE SWAP2 DUP3 ADD MSTORE PUSH2 0x7FD DUP3 DUP6 PUSH2 0xB24 JUMP JUMPDEST MSTORE PUSH2 0x808 DUP2 DUP5 PUSH2 0xB24 JUMP JUMPDEST POP PUSH2 0x7B0 JUMP JUMPDEST PUSH2 0x816 PUSH2 0x13E JUMP JUMPDEST SWAP1 PUSH1 0x60 DUP3 MSTORE PUSH0 PUSH1 0x20 DUP4 ADD MSTORE JUMP JUMPDEST PUSH2 0x82B PUSH2 0x163 JUMP JUMPDEST SWAP1 PUSH0 DUP3 MSTORE PUSH0 PUSH1 0x20 DUP4 ADD MSTORE PUSH0 PUSH1 0x40 DUP4 ADD MSTORE PUSH0 PUSH1 0x60 DUP4 ADD MSTORE PUSH0 PUSH1 0x80 DUP4 ADD MSTORE PUSH0 PUSH1 0xA0 DUP4 ADD MSTORE PUSH0 PUSH1 0xC0 DUP4 ADD MSTORE PUSH0 PUSH1 0xE0 DUP4 ADD MSTORE PUSH0 PUSH2 0x100 DUP4 ADD MSTORE PUSH2 0x868 PUSH2 0x80E JUMP JUMPDEST PUSH2 0x120 DUP4 ADD MSTORE JUMP JUMPDEST PUSH2 0x878 PUSH2 0x13E JUMP JUMPDEST SWAP1 PUSH1 0x20 DUP3 MSTORE PUSH32 0x56E81F171BCC55A6FF8345E692C0F86E5B48E01B996CADC001622FB5E363B421 PUSH1 0x20 DUP4 ADD MSTORE JUMP JUMPDEST PUSH4 0x4E487B71 PUSH1 0xE0 SHL PUSH0 MSTORE PUSH1 0x32 PUSH1 0x4 MSTORE PUSH1 0x24 PUSH0 REVERT JUMPDEST DUP1 MLOAD PUSH1 0x1 LT ISZERO PUSH2 0x5D0 JUMPI PUSH1 0x40 ADD SWAP1 JUMP JUMPDEST DUP1 MLOAD ISZERO PUSH2 0x5D0 JUMPI PUSH1 0x20 ADD SWAP1 JUMP JUMPDEST DUP1 MLOAD PUSH1 0x10 LT ISZERO PUSH2 0x5D0 JUMPI PUSH2 0x220 ADD SWAP1 JUMP JUMPDEST DUP1 MLOAD DUP3 LT ISZERO PUSH2 0x5D0 JUMPI PUSH1 0x20 SWAP2 PUSH1 0x5 SHL ADD ADD SWAP1 JUMP JUMPDEST PUSH2 0x903 PUSH2 0x823 JUMP JUMPDEST POP PUSH2 0x90C PUSH2 0x823 JUMP JUMPDEST SWAP1 PUSH2 0x915 PUSH2 0x13E JUMP JUMPDEST SWAP1 DUP1 DUP3 MSTORE PUSH0 PUSH1 0x20 DUP4 ADD MSTORE PUSH2 0x930 PUSH2 0x92A PUSH2 0x870 JUMP JUMPDEST DUP3 PUSH2 0xB35 JUMP JUMPDEST PUSH2 0x9EC JUMPI PUSH2 0x45C PUSH2 0x940 SWAP2 PUSH2 0xB6A JUMP JUMPDEST DUP1 MLOAD DUP1 PUSH2 0x951 JUMPI POP POP PUSH1 0x1 DUP3 MSTORE POP SWAP1 JUMP JUMPDEST PUSH1 0x2 DUP2 SUB PUSH2 0x9A2 JUMPI POP PUSH2 0x968 PUSH2 0x46D PUSH1 0x20 SWAP3 PUSH2 0x8C9 JUMP JUMPDEST ADD MLOAD PUSH1 0xFC SHR PUSH1 0x2 DUP2 EQ SWAP1 DUP2 ISZERO PUSH2 0x997 JUMPI JUMPDEST POP ISZERO PUSH2 0x98B JUMPI PUSH1 0x1 PUSH1 0x20 DUP4 ADD MSTORE PUSH2 0x3B4 JUMP JUMPDEST PUSH1 0x1 PUSH1 0xC0 DUP4 ADD MSTORE PUSH2 0x3B4 JUMP JUMPDEST PUSH1 0x3 SWAP2 POP EQ PUSH0 PUSH2 0x979 JUMP JUMPDEST PUSH1 0x11 EQ ISZERO SWAP1 POP PUSH2 0x9B8 JUMPI PUSH1 0x1 PUSH1 0xE0 DUP4 ADD MSTORE PUSH2 0x3B4 JUMP JUMPDEST PUSH1 0x40 MLOAD PUSH3 0x461BCD PUSH1 0xE5 SHL DUP2 MSTORE PUSH1 0x20 PUSH1 0x4 DUP3 ADD MSTORE PUSH1 0xC PUSH1 0x24 DUP3 ADD MSTORE PUSH12 0x496E76616C69642064617461 PUSH1 0xA0 SHL PUSH1 0x44 DUP3 ADD MSTORE PUSH1 0x64 SWAP1 REVERT JUMPDEST POP POP PUSH1 0x1 DUP2 MSTORE SWAP1 JUMP JUMPDEST PUSH2 0x9FD PUSH2 0x184 JUMP JUMPDEST SWAP1 PUSH0 DUP3 MSTORE PUSH0 PUSH1 0x20 DUP4 ADD MSTORE PUSH0 PUSH1 0x40 DUP4 ADD MSTORE PUSH1 0x60 DUP1 DUP4 ADD MSTORE JUMP JUMPDEST PUSH2 0xA1D PUSH2 0x13E JUMP JUMPDEST SWAP1 PUSH2 0xA26 PUSH2 0x80E JUMP JUMPDEST DUP3 MSTORE PUSH2 0xA30 PUSH2 0x9F5 JUMP JUMPDEST PUSH1 0x20 DUP4 ADD MSTORE JUMP JUMPDEST PUSH4 0x4E487B71 PUSH1 0xE0 SHL PUSH0 MSTORE PUSH1 0x11 PUSH1 0x4 MSTORE PUSH1 0x24 PUSH0 REVERT JUMPDEST PUSH1 0xFF PUSH1 0x1 SWAP2 AND ADD SWAP1 PUSH1 0xFF DUP3 GT PUSH2 0xA5D JUMPI JUMP JUMPDEST PUSH2 0xA37 JUMP JUMPDEST PUSH1 0x40 MLOAD PUSH1 0x20 DUP2 ADD DUP2 DUP2 LT PUSH8 0xFFFFFFFFFFFFFFFF DUP3 GT OR PUSH2 0x15E JUMPI PUSH1 0x40 MSTORE PUSH0 DUP2 MSTORE SWAP1 PUSH0 CALLDATASIZE DUP2 CALLDATACOPY JUMP JUMPDEST SWAP1 PUSH2 0xA96 PUSH2 0x200 DUP4 PUSH2 0x1CA JUMP JUMPDEST DUP3 DUP2 MSTORE DUP1 SWAP3 PUSH2 0xAA7 PUSH1 0x1F NOT SWAP2 PUSH2 0x1CA JUMP JUMPDEST ADD SWAP1 PUSH1 0x20 CALLDATASIZE SWAP2 ADD CALLDATACOPY JUMP JUMPDEST PUSH2 0xAB9 PUSH2 0x13E JUMP JUMPDEST SWAP1 PUSH0 DUP3 MSTORE PUSH2 0xA30 PUSH2 0x9F5 JUMP JUMPDEST PUSH1 0x40 MLOAD SWAP1 PUSH2 0x200 DUP1 DUP4 ADD DUP4 DUP2 LT PUSH8 0xFFFFFFFFFFFFFFFF DUP3 GT OR PUSH2 0x15E JUMPI PUSH1 0x40 MSTORE DUP3 PUSH0 JUMPDEST DUP3 DUP2 LT PUSH2 0xAF4 JUMPI POP POP POP JUMP JUMPDEST PUSH1 0x20 SWAP1 PUSH2 0xAFF PUSH2 0xAB1 JUMP JUMPDEST DUP2 DUP5 ADD MSTORE ADD PUSH2 0xAE8 JUMP JUMPDEST PUSH2 0xB11 PUSH2 0x13E JUMP JUMPDEST SWAP1 PUSH2 0xB1A PUSH2 0xAB1 JUMP JUMPDEST DUP3 MSTORE PUSH2 0xA30 PUSH2 0xAC5 JUMP JUMPDEST SWAP1 PUSH1 0x10 DUP2 LT ISZERO PUSH2 0x5D0 JUMPI PUSH1 0x5 SHL ADD SWAP1 JUMP JUMPDEST SWAP1 DUP2 MLOAD SWAP1 DUP1 MLOAD DUP3 SUB PUSH2 0xB4F JUMPI DUP2 PUSH1 0x20 DUP1 SWAP3 ADD KECCAK256 SWAP3 ADD KECCAK256 EQ SWAP1 JUMP JUMPDEST POP POP POP PUSH0 SWAP1 JUMP JUMPDEST PUSH2 0xB5E PUSH2 0x13E JUMP JUMPDEST SWAP1 PUSH0 DUP3 MSTORE PUSH0 PUSH1 0x20 DUP4 ADD MSTORE JUMP JUMPDEST PUSH0 PUSH1 0x20 PUSH2 0xB75 PUSH2 0x13E JUMP JUMPDEST DUP3 DUP2 MSTORE ADD MSTORE PUSH1 0x20 DUP2 MLOAD SWAP2 PUSH2 0xB87 PUSH2 0x13E JUMP JUMPDEST SWAP3 DUP4 MSTORE ADD PUSH1 0x20 DUP3 ADD MSTORE SWAP1 JUMP JUMPDEST PUSH8 0xFFFFFFFFFFFFFFFF DUP2 GT PUSH2 0x15E JUMPI PUSH1 0x5 SHL PUSH1 0x20 ADD SWAP1 JUMP JUMPDEST SWAP1 PUSH1 0x1 DUP3 ADD DUP1 SWAP3 GT PUSH2 0xA5D JUMPI JUMP JUMPDEST SWAP2 SWAP1 DUP3 ADD DUP1 SWAP3 GT PUSH2 0xA5D JUMPI JUMP JUMPDEST PUSH2 0xBCF DUP2 PUSH2 0xF0F JUMP JUMPDEST ISZERO PUSH2 0x126 JUMPI PUSH2 0xBDD DUP2 PUSH2 0xF33 JUMP JUMPDEST PUSH2 0xBE9 PUSH2 0x200 DUP3 PUSH2 0xB93 JUMP JUMPDEST DUP2 DUP2 MSTORE SWAP2 PUSH1 0x1F NOT PUSH2 0xBF9 DUP4 PUSH2 0xB93 JUMP JUMPDEST ADD PUSH0 JUMPDEST DUP2 DUP2 LT PUSH2 0xC71 JUMPI POP POP PUSH2 0xC1D PUSH1 0x20 DUP1 SWAP3 ADD MLOAD PUSH2 0xC17 DUP2 PUSH2 0xF96 JUMP JUMPDEST SWAP1 PUSH2 0xBB9 JUMP JUMPDEST PUSH0 SWAP1 JUMPDEST DUP4 DUP3 LT PUSH2 0xC2E JUMPI POP POP POP POP SWAP1 JUMP JUMPDEST PUSH2 0xC69 DUP2 PUSH2 0xC3D PUSH1 0x1 SWAP4 PUSH2 0xFF9 JUMP JUMPDEST SWAP1 PUSH2 0xC46 PUSH2 0x13E JUMP JUMPDEST DUP3 DUP2 MSTORE DUP2 DUP8 DUP3 ADD MSTORE PUSH2 0xC58 DUP7 DUP11 PUSH2 0x8E7 JUMP JUMPDEST MSTORE PUSH2 0xC63 DUP6 DUP10 PUSH2 0x8E7 JUMP JUMPDEST POP PUSH2 0xBB9 JUMP JUMPDEST SWAP2 ADD SWAP1 PUSH2 0xC20 JUMP JUMPDEST PUSH1 0x20 SWAP1 PUSH2 0xC7C PUSH2 0xB56 JUMP JUMPDEST DUP3 DUP3 DUP9 ADD ADD MSTORE ADD PUSH2 0xBFC JUMP JUMPDEST DUP1 MLOAD ISZERO PUSH2 0x126 JUMPI PUSH1 0x20 DUP2 ADD PUSH2 0xC9D DUP2 MLOAD PUSH2 0xF96 JUMP JUMPDEST SWAP1 MLOAD SWAP2 DUP2 DUP4 ADD DUP1 SWAP4 GT PUSH2 0xA5D JUMPI MLOAD SWAP1 DUP2 SUB SWAP1 DUP2 GT PUSH2 0xA5D JUMPI DUP1 PUSH2 0xCC2 PUSH2 0x3F2 SWAP3 PUSH2 0xA89 JUMP JUMPDEST SWAP3 DUP4 PUSH1 0x20 ADD SWAP1 PUSH2 0x1088 JUMP JUMPDEST PUSH1 0x20 SUB SWAP1 PUSH1 0x20 DUP3 GT PUSH2 0xA5D JUMPI JUMP JUMPDEST PUSH0 NOT DUP2 ADD SWAP2 SWAP1 DUP3 GT PUSH2 0xA5D JUMPI JUMP JUMPDEST PUSH1 0xBF NOT DUP2 ADD SWAP2 SWAP1 DUP3 GT PUSH2 0xA5D JUMPI JUMP JUMPDEST PUSH1 0x7F NOT DUP2 ADD SWAP2 SWAP1 DUP3 GT PUSH2 0xA5D JUMPI JUMP JUMPDEST PUSH1 0xF6 NOT DUP2 ADD SWAP2 SWAP1 DUP3 GT PUSH2 0xA5D JUMPI JUMP JUMPDEST PUSH1 0xB6 NOT DUP2 ADD SWAP2 SWAP1 DUP3 GT PUSH2 0xA5D JUMPI JUMP JUMPDEST DUP1 MLOAD SWAP1 DUP2 PUSH1 0x1 GT PUSH2 0x126 JUMPI PUSH0 NOT SWAP1 DUP2 DUP4 ADD SWAP3 DUP4 GT PUSH2 0xA5D JUMPI PUSH1 0x21 DUP2 ADD SWAP2 PUSH1 0x20 SWAP2 DUP3 ADD DUP4 LT PUSH2 0xA5D JUMPI PUSH2 0xD56 DUP5 PUSH2 0xA89 JUMP JUMPDEST SWAP4 PUSH1 0x20 DUP6 ADD SWAP4 SWAP3 JUMPDEST DUP1 DUP3 LT ISZERO PUSH2 0xD9E JUMPI POP DUP1 PUSH2 0xD7D JUMPI POP SWAP1 JUMPDEST MLOAD DUP3 MLOAD DUP3 AND SWAP2 NOT AND OR SWAP1 MSTORE SWAP1 JUMP JUMPDEST PUSH2 0xD98 SWAP2 POP PUSH2 0xD8E PUSH2 0xD93 SWAP2 PUSH2 0xCCD JUMP JUMPDEST PUSH2 0x1079 JUMP JUMPDEST PUSH2 0xCDB JUMP JUMPDEST SWAP1 PUSH2 0xD6F JUMP JUMPDEST SWAP1 SWAP3 SWAP4 DUP5 MLOAD DUP2 MSTORE DUP2 DUP2 ADD DUP1 SWAP2 GT PUSH2 0xA5D JUMPI SWAP4 DUP2 DUP2 ADD DUP1 SWAP2 GT PUSH2 0xA5D JUMPI SWAP3 PUSH1 0x1F NOT DUP2 ADD SWAP1 DUP2 GT PUSH2 0xA5D JUMPI SWAP1 PUSH2 0xD5E JUMP JUMPDEST DUP1 MLOAD SWAP2 DUP3 DUP2 GT PUSH2 0x126 JUMPI DUP1 DUP4 SUB SWAP3 DUP4 GT PUSH2 0xA5D JUMPI DUP2 ADD PUSH1 0x20 SWAP1 DUP2 ADD SWAP2 DUP2 ADD DUP3 LT PUSH2 0xA5D JUMPI PUSH2 0xDFA DUP4 PUSH2 0xA89 JUMP JUMPDEST SWAP3 DUP2 DUP5 ADD SWAP3 SWAP2 JUMPDEST DUP1 DUP3 LT ISZERO PUSH2 0xE26 JUMPI POP DUP1 PUSH2 0xE17 JUMPI POP SWAP2 SWAP3 SWAP2 POP POP JUMP JUMPDEST PUSH2 0xD93 PUSH2 0xD8E PUSH2 0xD98 SWAP3 PUSH2 0xCCD JUMP JUMPDEST SWAP1 SWAP2 SWAP3 DUP4 MLOAD DUP2 MSTORE DUP2 DUP2 ADD DUP1 SWAP2 GT PUSH2 0xA5D JUMPI SWAP3 DUP2 DUP2 ADD DUP1 SWAP2 GT PUSH2 0xA5D JUMPI SWAP2 PUSH1 0x1F NOT DUP2 ADD SWAP1 DUP2 GT PUSH2 0xA5D JUMPI SWAP1 PUSH2 0xE01 JUMP JUMPDEST PUSH1 0x20 DUP2 MLOAD LT PUSH2 0xE65 JUMPI PUSH1 0x20 ADD MLOAD SWAP1 JUMP JUMPDEST PUSH1 0x40 MLOAD PUSH3 0x461BCD PUSH1 0xE5 SHL DUP2 MSTORE PUSH1 0x20 PUSH1 0x4 DUP3 ADD MSTORE PUSH1 0x24 DUP1 DUP3 ADD MSTORE PUSH32 0x42797465733A3A20746F427974657333323A206461746120697320746F207368 PUSH1 0x44 DUP3 ADD MSTORE PUSH4 0x37B93A17 PUSH1 0xE1 SHL PUSH1 0x64 DUP3 ADD MSTORE PUSH1 0x84 SWAP1 REVERT JUMPDEST DUP1 MLOAD ISZERO SWAP1 DUP2 ISZERO SWAP2 DUP3 PUSH2 0xEC7 JUMPI POP POP SWAP1 JUMP JUMPDEST SWAP1 SWAP2 POP PUSH2 0x5D0 JUMPI PUSH1 0x20 DUP2 ADD DUP1 MLOAD PUSH1 0x1 PUSH1 0x1 PUSH1 0xF8 SHL SUB NOT SWAP1 DUP2 AND PUSH1 0x3 PUSH1 0xFE SHL EQ SWAP3 DUP4 ISZERO PUSH2 0xEF4 JUMPI JUMPDEST POP POP POP SWAP1 JUMP JUMPDEST SWAP1 SWAP2 SWAP3 POP MLOAD ISZERO PUSH2 0x5D0 JUMPI SWAP1 MLOAD AND PUSH1 0x1 PUSH1 0xFF SHL EQ PUSH0 DUP1 DUP1 PUSH2 0xEEE JUMP JUMPDEST DUP1 MLOAD ISZERO PUSH2 0xF2E JUMPI PUSH1 0x20 PUSH1 0xC0 SWAP2 ADD MLOAD MLOAD PUSH0 BYTE LT PUSH2 0xF2A JUMPI PUSH1 0x1 SWAP1 JUMP JUMPDEST PUSH0 SWAP1 JUMP JUMPDEST POP PUSH0 SWAP1 JUMP JUMPDEST DUP1 MLOAD ISZERO PUSH2 0xF2E JUMPI PUSH0 SWAP1 PUSH1 0x20 DUP2 ADD SWAP1 DUP2 MLOAD PUSH2 0xF4C DUP2 PUSH2 0xF96 JUMP JUMPDEST DUP2 ADD DUP1 SWAP2 GT PUSH2 0xA5D JUMPI SWAP2 MLOAD SWAP1 MLOAD DUP2 ADD DUP1 SWAP2 GT PUSH2 0xA5D JUMPI SWAP2 SWAP1 JUMPDEST DUP3 DUP2 LT PUSH2 0xF72 JUMPI POP SWAP1 POP SWAP1 JUMP JUMPDEST PUSH2 0xF7B DUP2 PUSH2 0xFF9 JUMP JUMPDEST DUP2 ADD DUP1 SWAP2 GT PUSH2 0xA5D JUMPI SWAP1 PUSH0 NOT DUP2 EQ PUSH2 0xA5D JUMPI PUSH1 0x1 ADD SWAP1 PUSH2 0xF65 JUMP JUMPDEST MLOAD PUSH0 BYTE PUSH1 0x80 DUP2 LT ISZERO PUSH2 0xFA7 JUMPI POP PUSH0 SWAP1 JUMP JUMPDEST PUSH1 0xB8 DUP2 LT DUP1 ISZERO PUSH2 0xFE3 JUMPI JUMPDEST ISZERO PUSH2 0xFBD JUMPI POP PUSH1 0x1 SWAP1 JUMP JUMPDEST PUSH1 0xC0 DUP2 LT ISZERO PUSH2 0xFD7 JUMPI PUSH2 0xFD2 PUSH2 0x3F2 SWAP2 PUSH2 0xD16 JUMP JUMPDEST PUSH2 0xBAB JUMP JUMPDEST PUSH2 0xFD2 PUSH2 0x3F2 SWAP2 PUSH2 0xD07 JUMP JUMPDEST POP PUSH1 0xC0 DUP2 LT ISZERO DUP1 ISZERO PUSH2 0xFB2 JUMPI POP PUSH1 0xF8 DUP2 LT PUSH2 0xFB2 JUMP JUMPDEST DUP1 MLOAD PUSH0 BYTE SWAP1 PUSH1 0x80 DUP3 LT ISZERO PUSH2 0x100E JUMPI POP POP PUSH1 0x1 SWAP1 JUMP JUMPDEST PUSH1 0xB8 DUP3 LT ISZERO PUSH2 0x1024 JUMPI POP PUSH2 0xFD2 PUSH2 0x3F2 SWAP2 PUSH2 0xCF8 JUMP JUMPDEST SWAP1 PUSH1 0xC0 DUP2 LT ISZERO PUSH2 0x1048 JUMPI PUSH1 0xB5 NOT SWAP2 PUSH1 0x1 PUSH1 0xB7 DUP4 PUSH1 0x20 SUB ADD PUSH2 0x100 EXP SWAP2 ADD MLOAD DIV ADD ADD SWAP1 JUMP JUMPDEST SWAP1 PUSH1 0xF8 DUP3 LT ISZERO PUSH2 0x105F JUMPI POP PUSH2 0xFD2 PUSH2 0x3F2 SWAP2 PUSH2 0xCE9 JUMP JUMPDEST PUSH1 0x1 ADD MLOAD PUSH1 0x20 DUP3 SWAP1 SUB PUSH1 0xF7 ADD PUSH2 0x100 EXP SWAP1 DIV ADD PUSH1 0xF5 NOT ADD SWAP1 JUMP JUMPDEST PUSH1 0x1F DUP2 GT PUSH2 0xA5D JUMPI PUSH2 0x100 EXP SWAP1 JUMP JUMPDEST SWAP3 SWAP1 SWAP2 SWAP3 DUP4 ISZERO PUSH2 0x10F5 JUMPI SWAP3 SWAP2 JUMPDEST PUSH1 0x20 SWAP4 DUP5 DUP5 LT PUSH2 0x10CA JUMPI DUP1 MLOAD DUP3 MSTORE DUP5 DUP2 ADD DUP1 SWAP2 GT PUSH2 0xA5D JUMPI SWAP4 DUP2 ADD DUP1 SWAP2 GT PUSH2 0xA5D JUMPI SWAP2 PUSH1 0x1F NOT DUP2 ADD SWAP1 DUP2 GT PUSH2 0xA5D JUMPI SWAP2 PUSH2 0x1095 JUMP JUMPDEST SWAP2 SWAP4 POP SWAP2 DUP1 PUSH2 0x10D8 JUMPI POP POP POP JUMP JUMPDEST PUSH2 0xD93 PUSH2 0xD8E PUSH2 0x10E7 SWAP3 PUSH2 0xCCD JUMP JUMPDEST SWAP1 MLOAD DUP3 MLOAD DUP3 AND SWAP2 NOT AND OR SWAP1 MSTORE JUMP JUMPDEST POP SWAP2 POP POP JUMP INVALID LOG2 PUSH5 0x6970667358 0x22 SLT KECCAK256 BLOCKHASH CALLVALUE 0xDC PC LT 0xBA 0xB5 RETURN DUP9 0x2D ADDRESS 0xE9 STATICCALL MCOPY DUP11 DUP15 0xD6 0xD EXTCODECOPY 0x4E 0xC5 CODESIZE CALLDATACOPY 0xDD PUSH19 0x5CE4F7B91F545F64736F6C6343000818003300 "
				},
				"gasEstimates": {
					"creation": {
						"codeDepositCost": "880200",
						"executionCost": "infinite",
						"totalCost": "infinite"
					},
					"external": {
						"decodeBranch(NodeKind)": "infinite",
						"decodeExtension(NodeKind)": "infinite",
						"decodeLeaf(NodeKind)": "infinite",
						"decodeNodeKind(bytes)": "infinite"
					},
					"internal": {
						"isEmpty(bytes memory)": "infinite"
					}
				},
				"methodIdentifiers": {
					"decodeBranch(NodeKind)": "cbef80f1",
					"decodeExtension(NodeKind)": "a948b670",
					"decodeLeaf(NodeKind)": "ba1daf93",
					"decodeNodeKind(bytes)": "91648ac5"
				}
			},
			"storageLayout": {
				"storage": [],
				"types": null
			},
			"userdoc": {
				"kind": "user",
				"methods": {},
				"version": 1
			}
		}
	}
}