{
	"contracts/1_Storage.sol": {
		"paychan": {
			"abi": [
				{
					"anonymous": false,
					"inputs": [
						{
							"indexed": true,
							"internalType": "bytes32",
							"name": "channelId",
							"type": "bytes32"
						}
					],
					"name": "ChannelOpened",
					"type": "event"
				},
				{
					"inputs": [
						{
							"internalType": "address",
							"name": "addr",
							"type": "address"
						}
					],
					"name": "balance",
					"outputs": [
						{
							"internalType": "uint256",
							"name": "bal",
							"type": "uint256"
						}
					],
					"stateMutability": "view",
					"type": "function"
				},
				{
					"inputs": [
						{
							"internalType": "bytes32",
							"name": "channelId",
							"type": "bytes32"
						},
						{
							"internalType": "uint256",
							"name": "value",
							"type": "uint256"
						}
					],
					"name": "closeChan",
					"outputs": [],
					"stateMutability": "nonpayable",
					"type": "function"
				},
				{
					"inputs": [
						{
							"internalType": "bytes32",
							"name": "channelId",
							"type": "bytes32"
						},
						{
							"internalType": "uint256",
							"name": "value",
							"type": "uint256"
						}
					],
					"name": "confirmClosure",
					"outputs": [],
					"stateMutability": "payable",
					"type": "function"
				},
				{
					"inputs": [
						{
							"internalType": "address",
							"name": "from",
							"type": "address"
						}
					],
					"name": "greeting",
					"outputs": [
						{
							"internalType": "string",
							"name": "",
							"type": "string"
						}
					],
					"stateMutability": "pure",
					"type": "function"
				},
				{
					"inputs": [
						{
							"internalType": "address",
							"name": "to",
							"type": "address"
						},
						{
							"internalType": "uint256",
							"name": "senderDeposit",
							"type": "uint256"
						}
					],
					"name": "openChan",
					"outputs": [
						{
							"internalType": "bytes32",
							"name": "channelId",
							"type": "bytes32"
						}
					],
					"stateMutability": "payable",
					"type": "function"
				},
				{
					"inputs": [
						{
							"internalType": "bytes32",
							"name": "channelId",
							"type": "bytes32"
						}
					],
					"name": "paychanCheck",
					"outputs": [
						{
							"components": [
								{
									"internalType": "bytes32",
									"name": "id",
									"type": "bytes32"
								},
								{
									"internalType": "address payable",
									"name": "sender",
									"type": "address"
								},
								{
									"internalType": "address payable",
									"name": "recipient",
									"type": "address"
								},
								{
									"internalType": "uint256",
									"name": "senderDeposit",
									"type": "uint256"
								},
								{
									"internalType": "uint256",
									"name": "startTime",
									"type": "uint256"
								},
								{
									"internalType": "uint256",
									"name": "status",
									"type": "uint256"
								},
								{
									"internalType": "uint256",
									"name": "fee",
									"type": "uint256"
								},
								{
									"internalType": "uint256",
									"name": "disputeStartTime",
									"type": "uint256"
								},
								{
									"internalType": "uint256",
									"name": "disputeDuration",
									"type": "uint256"
								},
								{
									"internalType": "bool",
									"name": "senderConfirm",
									"type": "bool"
								},
								{
									"internalType": "bool",
									"name": "recipientConfirm",
									"type": "bool"
								}
							],
							"internalType": "struct paychan.PayChan",
							"name": "",
							"type": "tuple"
						}
					],
					"stateMutability": "view",
					"type": "function"
				},
				{
					"inputs": [
						{
							"internalType": "bytes32",
							"name": "channelId",
							"type": "bytes32"
						}
					],
					"name": "paychanSelectedArguments",
					"outputs": [
						{
							"internalType": "address",
							"name": "sender",
							"type": "address"
						},
						{
							"internalType": "address",
							"name": "rec",
							"type": "address"
						},
						{
							"internalType": "uint256",
							"name": "status",
							"type": "uint256"
						},
						{
							"internalType": "uint256",
							"name": "senderB",
							"type": "uint256"
						},
						{
							"internalType": "uint256",
							"name": "fee",
							"type": "uint256"
						}
					],
					"stateMutability": "view",
					"type": "function"
				}
			],
			"devdoc": {
				"kind": "dev",
				"methods": {},
				"version": 1
			},
			"evm": {
				"assembly": "    /* \"contracts/1_Storage.sol\":70:8513  contract paychan {... */\n  mstore(0x40, 0x80)\n  callvalue\n  dup1\n  iszero\n  tag_1\n  jumpi\n  0x00\n  dup1\n  revert\ntag_1:\n  pop\n  dataSize(sub_0)\n  dup1\n  dataOffset(sub_0)\n  0x00\n  codecopy\n  0x00\n  return\nstop\n\nsub_0: assembly {\n        /* \"contracts/1_Storage.sol\":70:8513  contract paychan {... */\n      mstore(0x40, 0x80)\n      jumpi(tag_1, lt(calldatasize, 0x04))\n      shr(0xe0, calldataload(0x00))\n      dup1\n      0x91bc9212\n      gt\n      tag_9\n      jumpi\n      dup1\n      0x91bc9212\n      eq\n      tag_5\n      jumpi\n      dup1\n      0xa21d05d9\n      eq\n      tag_6\n      jumpi\n      dup1\n      0xcfd5aabd\n      eq\n      tag_7\n      jumpi\n      dup1\n      0xe3d670d7\n      eq\n      tag_8\n      jumpi\n      jump(tag_1)\n    tag_9:\n      dup1\n      0x298c88d2\n      eq\n      tag_2\n      jumpi\n      dup1\n      0x2aefff5e\n      eq\n      tag_3\n      jumpi\n      dup1\n      0x63bbe7a3\n      eq\n      tag_4\n      jumpi\n    tag_1:\n      0x00\n      dup1\n      revert\n        /* \"contracts/1_Storage.sol\":4956:6657  function confirmClosure(bytes32 channelId, uint value) public payable onlyParticipants(channelId) {... */\n    tag_2:\n      tag_10\n      0x04\n      dup1\n      calldatasize\n      sub\n      dup2\n      add\n      swap1\n      tag_11\n      swap2\n      swap1\n      tag_12\n      jump\t// in\n    tag_11:\n      tag_13\n      jump\t// in\n    tag_10:\n      stop\n        /* \"contracts/1_Storage.sol\":7902:8317  function paychanSelectedArguments(bytes32 channelId) public view returns (address sender, address rec, uint status, uint senderB, uint fee) {... */\n    tag_3:\n      callvalue\n      dup1\n      iszero\n      tag_14\n      jumpi\n      0x00\n      dup1\n      revert\n    tag_14:\n      pop\n      tag_15\n      0x04\n      dup1\n      calldatasize\n      sub\n      dup2\n      add\n      swap1\n      tag_16\n      swap2\n      swap1\n      tag_17\n      jump\t// in\n    tag_16:\n      tag_18\n      jump\t// in\n    tag_15:\n      mload(0x40)\n      tag_19\n      swap6\n      swap5\n      swap4\n      swap3\n      swap2\n      swap1\n      tag_20\n      jump\t// in\n    tag_19:\n      mload(0x40)\n      dup1\n      swap2\n      sub\n      swap1\n      return\n        /* \"contracts/1_Storage.sol\":1526:2767  function openChan(address to, uint senderDeposit) public payable returns(bytes32 channelId) {... */\n    tag_4:\n      tag_21\n      0x04\n      dup1\n      calldatasize\n      sub\n      dup2\n      add\n      swap1\n      tag_22\n      swap2\n      swap1\n      tag_23\n      jump\t// in\n    tag_22:\n      tag_24\n      jump\t// in\n    tag_21:\n      mload(0x40)\n      tag_25\n      swap2\n      swap1\n      tag_26\n      jump\t// in\n    tag_25:\n      mload(0x40)\n      dup1\n      swap2\n      sub\n      swap1\n      return\n        /* \"contracts/1_Storage.sol\":3699:4855  function closeChan(bytes32 channelId, uint value) public onlyWhenChannelOpen(channelId) {... */\n    tag_5:\n      callvalue\n      dup1\n      iszero\n      tag_27\n      jumpi\n      0x00\n      dup1\n      revert\n    tag_27:\n      pop\n      tag_28\n      0x04\n      dup1\n      calldatasize\n      sub\n      dup2\n      add\n      swap1\n      tag_29\n      swap2\n      swap1\n      tag_12\n      jump\t// in\n    tag_29:\n      tag_30\n      jump\t// in\n    tag_28:\n      stop\n        /* \"contracts/1_Storage.sol\":8375:8511  function greeting(address from) public pure returns (string memory) {... */\n    tag_6:\n      callvalue\n      dup1\n      iszero\n      tag_31\n      jumpi\n      0x00\n      dup1\n      revert\n    tag_31:\n      pop\n      tag_32\n      0x04\n      dup1\n      calldatasize\n      sub\n      dup2\n      add\n      swap1\n      tag_33\n      swap2\n      swap1\n      tag_34\n      jump\t// in\n    tag_33:\n      tag_35\n      jump\t// in\n    tag_32:\n      mload(0x40)\n      tag_36\n      swap2\n      swap1\n      tag_37\n      jump\t// in\n    tag_36:\n      mload(0x40)\n      dup1\n      swap2\n      sub\n      swap1\n      return\n        /* \"contracts/1_Storage.sol\":7776:7896  function paychanCheck(bytes32 channelId) public view returns(PayChan memory) {... */\n    tag_7:\n      callvalue\n      dup1\n      iszero\n      tag_38\n      jumpi\n      0x00\n      dup1\n      revert\n    tag_38:\n      pop\n      tag_39\n      0x04\n      dup1\n      calldatasize\n      sub\n      dup2\n      add\n      swap1\n      tag_40\n      swap2\n      swap1\n      tag_17\n      jump\t// in\n    tag_40:\n      tag_41\n      jump\t// in\n    tag_39:\n      mload(0x40)\n      tag_42\n      swap2\n      swap1\n      tag_43\n      jump\t// in\n    tag_42:\n      mload(0x40)\n      dup1\n      swap2\n      sub\n      swap1\n      return\n        /* \"contracts/1_Storage.sol\":7671:7770  function balance(address addr) public view returns (uint bal) {... */\n    tag_8:\n      callvalue\n      dup1\n      iszero\n      tag_44\n      jumpi\n      0x00\n      dup1\n      revert\n    tag_44:\n      pop\n      tag_45\n      0x04\n      dup1\n      calldatasize\n      sub\n      dup2\n      add\n      swap1\n      tag_46\n      swap2\n      swap1\n      tag_34\n      jump\t// in\n    tag_46:\n      tag_47\n      jump\t// in\n    tag_45:\n      mload(0x40)\n      tag_48\n      swap2\n      swap1\n      tag_49\n      jump\t// in\n    tag_48:\n      mload(0x40)\n      dup1\n      swap2\n      sub\n      swap1\n      return\n        /* \"contracts/1_Storage.sol\":4956:6657  function confirmClosure(bytes32 channelId, uint value) public payable onlyParticipants(channelId) {... */\n    tag_13:\n        /* \"contracts/1_Storage.sol\":5043:5052  channelId */\n      dup2\n        /* \"contracts/1_Storage.sol\":973:981  paychans */\n      0x00\n        /* \"contracts/1_Storage.sol\":973:992  paychans[channelId] */\n      dup1\n        /* \"contracts/1_Storage.sol\":982:991  channelId */\n      dup3\n        /* \"contracts/1_Storage.sol\":973:992  paychans[channelId] */\n      dup2\n      mstore\n      0x20\n      add\n      swap1\n      dup2\n      mstore\n      0x20\n      add\n      0x00\n      keccak256\n        /* \"contracts/1_Storage.sol\":973:999  paychans[channelId].sender */\n      0x01\n      add\n      0x00\n      swap1\n      sload\n      swap1\n      0x0100\n      exp\n      swap1\n      div\n      0xffffffffffffffffffffffffffffffffffffffff\n      and\n        /* \"contracts/1_Storage.sol\":959:999  msg.sender == paychans[channelId].sender */\n      0xffffffffffffffffffffffffffffffffffffffff\n      and\n        /* \"contracts/1_Storage.sol\":959:969  msg.sender */\n      caller\n        /* \"contracts/1_Storage.sol\":959:999  msg.sender == paychans[channelId].sender */\n      0xffffffffffffffffffffffffffffffffffffffff\n      and\n      eq\n        /* \"contracts/1_Storage.sol\":959:1046  msg.sender == paychans[channelId].sender || msg.sender == paychans[channelId].recipient */\n      dup1\n      tag_51\n      jumpi\n      pop\n        /* \"contracts/1_Storage.sol\":1017:1025  paychans */\n      0x00\n        /* \"contracts/1_Storage.sol\":1017:1036  paychans[channelId] */\n      dup1\n        /* \"contracts/1_Storage.sol\":1026:1035  channelId */\n      dup3\n        /* \"contracts/1_Storage.sol\":1017:1036  paychans[channelId] */\n      dup2\n      mstore\n      0x20\n      add\n      swap1\n      dup2\n      mstore\n      0x20\n      add\n      0x00\n      keccak256\n        /* \"contracts/1_Storage.sol\":1017:1046  paychans[channelId].recipient */\n      0x02\n      add\n      0x00\n      swap1\n      sload\n      swap1\n      0x0100\n      exp\n      swap1\n      div\n      0xffffffffffffffffffffffffffffffffffffffff\n      and\n        /* \"contracts/1_Storage.sol\":1003:1046  msg.sender == paychans[channelId].recipient */\n      0xffffffffffffffffffffffffffffffffffffffff\n      and\n        /* \"contracts/1_Storage.sol\":1003:1013  msg.sender */\n      caller\n        /* \"contracts/1_Storage.sol\":1003:1046  msg.sender == paychans[channelId].recipient */\n      0xffffffffffffffffffffffffffffffffffffffff\n      and\n      eq\n        /* \"contracts/1_Storage.sol\":959:1046  msg.sender == paychans[channelId].sender || msg.sender == paychans[channelId].recipient */\n    tag_51:\n        /* \"contracts/1_Storage.sol\":951:1068  require(msg.sender == paychans[channelId].sender || msg.sender == paychans[channelId].recipient, \"Only participants\") */\n      tag_52\n      jumpi\n      mload(0x40)\n      0x08c379a000000000000000000000000000000000000000000000000000000000\n      dup2\n      mstore\n      0x04\n      add\n      tag_53\n      swap1\n      tag_54\n      jump\t// in\n    tag_53:\n      mload(0x40)\n      dup1\n      swap2\n      sub\n      swap1\n      revert\n    tag_52:\n        /* \"contracts/1_Storage.sol\":5135:5136  2 */\n      0x02\n        /* \"contracts/1_Storage.sol\":5105:5113  paychans */\n      0x00\n        /* \"contracts/1_Storage.sol\":5105:5124  paychans[channelId] */\n      dup1\n        /* \"contracts/1_Storage.sol\":5114:5123  channelId */\n      dup6\n        /* \"contracts/1_Storage.sol\":5105:5124  paychans[channelId] */\n      dup2\n      mstore\n      0x20\n      add\n      swap1\n      dup2\n      mstore\n      0x20\n      add\n      0x00\n      keccak256\n        /* \"contracts/1_Storage.sol\":5105:5131  paychans[channelId].status */\n      0x05\n      add\n      sload\n        /* \"contracts/1_Storage.sol\":5105:5136  paychans[channelId].status == 2 */\n      eq\n        /* \"contracts/1_Storage.sol\":5097:5190  require(paychans[channelId].status == 2, \"This channel is not under waiting-closure period.\") */\n      tag_56\n      jumpi\n      mload(0x40)\n      0x08c379a000000000000000000000000000000000000000000000000000000000\n      dup2\n      mstore\n      0x04\n      add\n      tag_57\n      swap1\n      tag_58\n      jump\t// in\n    tag_57:\n      mload(0x40)\n      dup1\n      swap2\n      sub\n      swap1\n      revert\n    tag_56:\n        /* \"contracts/1_Storage.sol\":5265:5273  paychans */\n      0x00\n        /* \"contracts/1_Storage.sol\":5265:5284  paychans[channelId] */\n      dup1\n        /* \"contracts/1_Storage.sol\":5274:5283  channelId */\n      dup5\n        /* \"contracts/1_Storage.sol\":5265:5284  paychans[channelId] */\n      dup2\n      mstore\n      0x20\n      add\n      swap1\n      dup2\n      mstore\n      0x20\n      add\n      0x00\n      keccak256\n        /* \"contracts/1_Storage.sol\":5265:5300  paychans[channelId].disputeDuration */\n      0x08\n      add\n      sload\n        /* \"contracts/1_Storage.sol\":5226:5234  paychans */\n      0x00\n        /* \"contracts/1_Storage.sol\":5226:5245  paychans[channelId] */\n      dup1\n        /* \"contracts/1_Storage.sol\":5235:5244  channelId */\n      dup6\n        /* \"contracts/1_Storage.sol\":5226:5245  paychans[channelId] */\n      dup2\n      mstore\n      0x20\n      add\n      swap1\n      dup2\n      mstore\n      0x20\n      add\n      0x00\n      keccak256\n        /* \"contracts/1_Storage.sol\":5226:5262  paychans[channelId].disputeStartTime */\n      0x07\n      add\n      sload\n        /* \"contracts/1_Storage.sol\":5226:5300  paychans[channelId].disputeStartTime + paychans[channelId].disputeDuration */\n      tag_59\n      swap2\n      swap1\n      tag_60\n      jump\t// in\n    tag_59:\n        /* \"contracts/1_Storage.sol\":5208:5223  block.timestamp */\n      timestamp\n        /* \"contracts/1_Storage.sol\":5208:5300  block.timestamp < paychans[channelId].disputeStartTime + paychans[channelId].disputeDuration */\n      lt\n        /* \"contracts/1_Storage.sol\":5200:5332  require(block.timestamp < paychans[channelId].disputeStartTime + paychans[channelId].disputeDuration, \"Dispute period has expired.\") */\n      tag_61\n      jumpi\n      mload(0x40)\n      0x08c379a000000000000000000000000000000000000000000000000000000000\n      dup2\n      mstore\n      0x04\n      add\n      tag_62\n      swap1\n      tag_63\n      jump\t// in\n    tag_62:\n      mload(0x40)\n      dup1\n      swap2\n      sub\n      swap1\n      revert\n    tag_61:\n        /* \"contracts/1_Storage.sol\":5359:5367  paychans */\n      0x00\n        /* \"contracts/1_Storage.sol\":5359:5378  paychans[channelId] */\n      dup1\n        /* \"contracts/1_Storage.sol\":5368:5377  channelId */\n      dup5\n        /* \"contracts/1_Storage.sol\":5359:5378  paychans[channelId] */\n      dup2\n      mstore\n      0x20\n      add\n      swap1\n      dup2\n      mstore\n      0x20\n      add\n      0x00\n      keccak256\n        /* \"contracts/1_Storage.sol\":5359:5382  paychans[channelId].fee */\n      0x06\n      add\n      sload\n        /* \"contracts/1_Storage.sol\":5350:5355  value */\n      dup3\n        /* \"contracts/1_Storage.sol\":5350:5382  value == paychans[channelId].fee */\n      eq\n        /* \"contracts/1_Storage.sol\":5342:5450  require(value == paychans[channelId].fee, \"It seems there is a dispute over the final state, go report it.\") */\n      tag_64\n      jumpi\n      mload(0x40)\n      0x08c379a000000000000000000000000000000000000000000000000000000000\n      dup2\n      mstore\n      0x04\n      add\n      tag_65\n      swap1\n      tag_66\n      jump\t// in\n    tag_65:\n      mload(0x40)\n      dup1\n      swap2\n      sub\n      swap1\n      revert\n    tag_64:\n        /* \"contracts/1_Storage.sol\":5469:5491  PayChan memory channel */\n      0x00\n        /* \"contracts/1_Storage.sol\":5494:5502  paychans */\n      dup1\n        /* \"contracts/1_Storage.sol\":5494:5513  paychans[channelId] */\n      0x00\n        /* \"contracts/1_Storage.sol\":5503:5512  channelId */\n      dup6\n        /* \"contracts/1_Storage.sol\":5494:5513  paychans[channelId] */\n      dup2\n      mstore\n      0x20\n      add\n      swap1\n      dup2\n      mstore\n      0x20\n      add\n      0x00\n      keccak256\n        /* \"contracts/1_Storage.sol\":5469:5513  PayChan memory channel = paychans[channelId] */\n      mload(0x40)\n      dup1\n      0x0160\n      add\n      0x40\n      mstore\n      swap1\n      dup2\n      0x00\n      dup3\n      add\n      sload\n      dup2\n      mstore\n      0x20\n      add\n      0x01\n      dup3\n      add\n      0x00\n      swap1\n      sload\n      swap1\n      0x0100\n      exp\n      swap1\n      div\n      0xffffffffffffffffffffffffffffffffffffffff\n      and\n      0xffffffffffffffffffffffffffffffffffffffff\n      and\n      0xffffffffffffffffffffffffffffffffffffffff\n      and\n      dup2\n      mstore\n      0x20\n      add\n      0x02\n      dup3\n      add\n      0x00\n      swap1\n      sload\n      swap1\n      0x0100\n      exp\n      swap1\n      div\n      0xffffffffffffffffffffffffffffffffffffffff\n      and\n      0xffffffffffffffffffffffffffffffffffffffff\n      and\n      0xffffffffffffffffffffffffffffffffffffffff\n      and\n      dup2\n      mstore\n      0x20\n      add\n      0x03\n      dup3\n      add\n      sload\n      dup2\n      mstore\n      0x20\n      add\n      0x04\n      dup3\n      add\n      sload\n      dup2\n      mstore\n      0x20\n      add\n      0x05\n      dup3\n      add\n      sload\n      dup2\n      mstore\n      0x20\n      add\n      0x06\n      dup3\n      add\n      sload\n      dup2\n      mstore\n      0x20\n      add\n      0x07\n      dup3\n      add\n      sload\n      dup2\n      mstore\n      0x20\n      add\n      0x08\n      dup3\n      add\n      sload\n      dup2\n      mstore\n      0x20\n      add\n      0x09\n      dup3\n      add\n      0x00\n      swap1\n      sload\n      swap1\n      0x0100\n      exp\n      swap1\n      div\n      0xff\n      and\n      iszero\n      iszero\n      iszero\n      iszero\n      dup2\n      mstore\n      0x20\n      add\n      0x09\n      dup3\n      add\n      0x01\n      swap1\n      sload\n      swap1\n      0x0100\n      exp\n      swap1\n      div\n      0xff\n      and\n      iszero\n      iszero\n      iszero\n      iszero\n      dup2\n      mstore\n      pop\n      pop\n      swap1\n      pop\n        /* \"contracts/1_Storage.sol\":5523:5545  address payable sender */\n      0x00\n        /* \"contracts/1_Storage.sol\":5548:5555  channel */\n      dup2\n        /* \"contracts/1_Storage.sol\":5548:5562  channel.sender */\n      0x20\n      add\n      mload\n        /* \"contracts/1_Storage.sol\":5523:5562  address payable sender = channel.sender */\n      swap1\n      pop\n        /* \"contracts/1_Storage.sol\":5572:5597  address payable recipient */\n      0x00\n        /* \"contracts/1_Storage.sol\":5600:5607  channel */\n      dup3\n        /* \"contracts/1_Storage.sol\":5600:5617  channel.recipient */\n      0x40\n      add\n      mload\n        /* \"contracts/1_Storage.sol\":5572:5617  address payable recipient = channel.recipient */\n      swap1\n      pop\n        /* \"contracts/1_Storage.sol\":5627:5641  address signer */\n      0x00\n        /* \"contracts/1_Storage.sol\":5798:5808  msg.sender */\n      caller\n        /* \"contracts/1_Storage.sol\":5789:5808  signer = msg.sender */\n      swap1\n      pop\n        /* \"contracts/1_Storage.sol\":5823:5830  channel */\n      dup4\n        /* \"contracts/1_Storage.sol\":5823:5844  channel.senderConfirm */\n      0x0120\n      add\n      mload\n        /* \"contracts/1_Storage.sol\":5819:6038  if (channel.senderConfirm) {... */\n      iszero\n      tag_67\n      jumpi\n        /* \"contracts/1_Storage.sol\":5878:5887  recipient */\n      dup2\n        /* \"contracts/1_Storage.sol\":5868:5887  signer == recipient */\n      0xffffffffffffffffffffffffffffffffffffffff\n      and\n        /* \"contracts/1_Storage.sol\":5868:5874  signer */\n      dup2\n        /* \"contracts/1_Storage.sol\":5868:5887  signer == recipient */\n      0xffffffffffffffffffffffffffffffffffffffff\n      and\n      eq\n        /* \"contracts/1_Storage.sol\":5860:5931  require(signer == recipient, \"Only recipient can confirm closure now.\") */\n      tag_68\n      jumpi\n      mload(0x40)\n      0x08c379a000000000000000000000000000000000000000000000000000000000\n      dup2\n      mstore\n      0x04\n      add\n      tag_69\n      swap1\n      tag_70\n      jump\t// in\n    tag_69:\n      mload(0x40)\n      dup1\n      swap2\n      sub\n      swap1\n      revert\n    tag_68:\n        /* \"contracts/1_Storage.sol\":5819:6038  if (channel.senderConfirm) {... */\n      jump(tag_71)\n    tag_67:\n        /* \"contracts/1_Storage.sol\":5980:5986  sender */\n      dup3\n        /* \"contracts/1_Storage.sol\":5970:5986  signer == sender */\n      0xffffffffffffffffffffffffffffffffffffffff\n      and\n        /* \"contracts/1_Storage.sol\":5970:5976  signer */\n      dup2\n        /* \"contracts/1_Storage.sol\":5970:5986  signer == sender */\n      0xffffffffffffffffffffffffffffffffffffffff\n      and\n      eq\n        /* \"contracts/1_Storage.sol\":5962:6027  require(signer == sender, \"Only sender can confirm closure now.\") */\n      tag_72\n      jumpi\n      mload(0x40)\n      0x08c379a000000000000000000000000000000000000000000000000000000000\n      dup2\n      mstore\n      0x04\n      add\n      tag_73\n      swap1\n      tag_74\n      jump\t// in\n    tag_73:\n      mload(0x40)\n      dup1\n      swap2\n      sub\n      swap1\n      revert\n    tag_72:\n        /* \"contracts/1_Storage.sol\":5819:6038  if (channel.senderConfirm) {... */\n    tag_71:\n        /* \"contracts/1_Storage.sol\":6423:6429  sender */\n      dup3\n        /* \"contracts/1_Storage.sol\":6423:6438  sender.transfer */\n      0xffffffffffffffffffffffffffffffffffffffff\n      and\n        /* \"contracts/1_Storage.sol\":6423:6487  sender.transfer(channel.senderDeposit - paychans[channelId].fee) */\n      0x08fc\n        /* \"contracts/1_Storage.sol\":6463:6471  paychans */\n      0x00\n        /* \"contracts/1_Storage.sol\":6463:6482  paychans[channelId] */\n      dup1\n        /* \"contracts/1_Storage.sol\":6472:6481  channelId */\n      dup11\n        /* \"contracts/1_Storage.sol\":6463:6482  paychans[channelId] */\n      dup2\n      mstore\n      0x20\n      add\n      swap1\n      dup2\n      mstore\n      0x20\n      add\n      0x00\n      keccak256\n        /* \"contracts/1_Storage.sol\":6463:6486  paychans[channelId].fee */\n      0x06\n      add\n      sload\n        /* \"contracts/1_Storage.sol\":6439:6446  channel */\n      dup7\n        /* \"contracts/1_Storage.sol\":6439:6460  channel.senderDeposit */\n      0x60\n      add\n      mload\n        /* \"contracts/1_Storage.sol\":6439:6486  channel.senderDeposit - paychans[channelId].fee */\n      tag_75\n      swap2\n      swap1\n      tag_76\n      jump\t// in\n    tag_75:\n        /* \"contracts/1_Storage.sol\":6423:6487  sender.transfer(channel.senderDeposit - paychans[channelId].fee) */\n      swap1\n      dup2\n      iszero\n      mul\n      swap1\n      mload(0x40)\n      0x00\n      mload(0x40)\n      dup1\n      dup4\n      sub\n      dup2\n      dup6\n      dup9\n      dup9\n      call\n      swap4\n      pop\n      pop\n      pop\n      pop\n      iszero\n      dup1\n      iszero\n      tag_78\n      jumpi\n      returndatasize\n      0x00\n      dup1\n      returndatacopy\n      revert(0x00, returndatasize)\n    tag_78:\n      pop\n        /* \"contracts/1_Storage.sol\":6497:6506  recipient */\n      dup2\n        /* \"contracts/1_Storage.sol\":6497:6515  recipient.transfer */\n      0xffffffffffffffffffffffffffffffffffffffff\n      and\n        /* \"contracts/1_Storage.sol\":6497:6540  recipient.transfer(paychans[channelId].fee) */\n      0x08fc\n        /* \"contracts/1_Storage.sol\":6516:6524  paychans */\n      0x00\n        /* \"contracts/1_Storage.sol\":6516:6535  paychans[channelId] */\n      dup1\n        /* \"contracts/1_Storage.sol\":6525:6534  channelId */\n      dup11\n        /* \"contracts/1_Storage.sol\":6516:6535  paychans[channelId] */\n      dup2\n      mstore\n      0x20\n      add\n      swap1\n      dup2\n      mstore\n      0x20\n      add\n      0x00\n      keccak256\n        /* \"contracts/1_Storage.sol\":6516:6539  paychans[channelId].fee */\n      0x06\n      add\n      sload\n        /* \"contracts/1_Storage.sol\":6497:6540  recipient.transfer(paychans[channelId].fee) */\n      swap1\n      dup2\n      iszero\n      mul\n      swap1\n      mload(0x40)\n      0x00\n      mload(0x40)\n      dup1\n      dup4\n      sub\n      dup2\n      dup6\n      dup9\n      dup9\n      call\n      swap4\n      pop\n      pop\n      pop\n      pop\n      iszero\n      dup1\n      iszero\n      tag_80\n      jumpi\n      returndatasize\n      0x00\n      dup1\n      returndatacopy\n      revert(0x00, returndatasize)\n    tag_80:\n      pop\n        /* \"contracts/1_Storage.sol\":6624:6625  0 */\n      0x00\n        /* \"contracts/1_Storage.sol\":6595:6603  paychans */\n      dup1\n        /* \"contracts/1_Storage.sol\":6595:6614  paychans[channelId] */\n      0x00\n        /* \"contracts/1_Storage.sol\":6604:6613  channelId */\n      dup10\n        /* \"contracts/1_Storage.sol\":6595:6614  paychans[channelId] */\n      dup2\n      mstore\n      0x20\n      add\n      swap1\n      dup2\n      mstore\n      0x20\n      add\n      0x00\n      keccak256\n        /* \"contracts/1_Storage.sol\":6595:6621  paychans[channelId].status */\n      0x05\n      add\n        /* \"contracts/1_Storage.sol\":6595:6625  paychans[channelId].status = 0 */\n      dup2\n      swap1\n      sstore\n      pop\n        /* \"contracts/1_Storage.sol\":5054:6657  {... */\n      pop\n      pop\n      pop\n      pop\n        /* \"contracts/1_Storage.sol\":4956:6657  function confirmClosure(bytes32 channelId, uint value) public payable onlyParticipants(channelId) {... */\n      pop\n      pop\n      pop\n      jump\t// out\n        /* \"contracts/1_Storage.sol\":7902:8317  function paychanSelectedArguments(bytes32 channelId) public view returns (address sender, address rec, uint status, uint senderB, uint fee) {... */\n    tag_18:\n        /* \"contracts/1_Storage.sol\":7976:7990  address sender */\n      0x00\n        /* \"contracts/1_Storage.sol\":7992:8003  address rec */\n      dup1\n        /* \"contracts/1_Storage.sol\":8005:8016  uint status */\n      0x00\n        /* \"contracts/1_Storage.sol\":8018:8030  uint senderB */\n      dup1\n        /* \"contracts/1_Storage.sol\":8032:8040  uint fee */\n      0x00\n        /* \"contracts/1_Storage.sol\":8052:8074  PayChan memory channel */\n      dup1\n        /* \"contracts/1_Storage.sol\":8077:8085  paychans */\n      0x00\n        /* \"contracts/1_Storage.sol\":8077:8096  paychans[channelId] */\n      dup1\n        /* \"contracts/1_Storage.sol\":8086:8095  channelId */\n      dup9\n        /* \"contracts/1_Storage.sol\":8077:8096  paychans[channelId] */\n      dup2\n      mstore\n      0x20\n      add\n      swap1\n      dup2\n      mstore\n      0x20\n      add\n      0x00\n      keccak256\n        /* \"contracts/1_Storage.sol\":8052:8096  PayChan memory channel = paychans[channelId] */\n      mload(0x40)\n      dup1\n      0x0160\n      add\n      0x40\n      mstore\n      swap1\n      dup2\n      0x00\n      dup3\n      add\n      sload\n      dup2\n      mstore\n      0x20\n      add\n      0x01\n      dup3\n      add\n      0x00\n      swap1\n      sload\n      swap1\n      0x0100\n      exp\n      swap1\n      div\n      0xffffffffffffffffffffffffffffffffffffffff\n      and\n      0xffffffffffffffffffffffffffffffffffffffff\n      and\n      0xffffffffffffffffffffffffffffffffffffffff\n      and\n      dup2\n      mstore\n      0x20\n      add\n      0x02\n      dup3\n      add\n      0x00\n      swap1\n      sload\n      swap1\n      0x0100\n      exp\n      swap1\n      div\n      0xffffffffffffffffffffffffffffffffffffffff\n      and\n      0xffffffffffffffffffffffffffffffffffffffff\n      and\n      0xffffffffffffffffffffffffffffffffffffffff\n      and\n      dup2\n      mstore\n      0x20\n      add\n      0x03\n      dup3\n      add\n      sload\n      dup2\n      mstore\n      0x20\n      add\n      0x04\n      dup3\n      add\n      sload\n      dup2\n      mstore\n      0x20\n      add\n      0x05\n      dup3\n      add\n      sload\n      dup2\n      mstore\n      0x20\n      add\n      0x06\n      dup3\n      add\n      sload\n      dup2\n      mstore\n      0x20\n      add\n      0x07\n      dup3\n      add\n      sload\n      dup2\n      mstore\n      0x20\n      add\n      0x08\n      dup3\n      add\n      sload\n      dup2\n      mstore\n      0x20\n      add\n      0x09\n      dup3\n      add\n      0x00\n      swap1\n      sload\n      swap1\n      0x0100\n      exp\n      swap1\n      div\n      0xff\n      and\n      iszero\n      iszero\n      iszero\n      iszero\n      dup2\n      mstore\n      0x20\n      add\n      0x09\n      dup3\n      add\n      0x01\n      swap1\n      sload\n      swap1\n      0x0100\n      exp\n      swap1\n      div\n      0xff\n      and\n      iszero\n      iszero\n      iszero\n      iszero\n      dup2\n      mstore\n      pop\n      pop\n      swap1\n      pop\n        /* \"contracts/1_Storage.sol\":8145:8152  channel */\n      dup1\n        /* \"contracts/1_Storage.sol\":8145:8159  channel.sender */\n      0x20\n      add\n      mload\n        /* \"contracts/1_Storage.sol\":8177:8184  channel */\n      dup2\n        /* \"contracts/1_Storage.sol\":8177:8194  channel.recipient */\n      0x40\n      add\n      mload\n        /* \"contracts/1_Storage.sol\":8212:8219  channel */\n      dup3\n        /* \"contracts/1_Storage.sol\":8212:8226  channel.status */\n      0xa0\n      add\n      mload\n        /* \"contracts/1_Storage.sol\":8245:8252  channel */\n      dup4\n        /* \"contracts/1_Storage.sol\":8245:8266  channel.senderDeposit */\n      0x60\n      add\n      mload\n        /* \"contracts/1_Storage.sol\":8284:8291  channel */\n      dup5\n        /* \"contracts/1_Storage.sol\":8284:8295  channel.fee */\n      0xc0\n      add\n      mload\n        /* \"contracts/1_Storage.sol\":8107:8309  return ... */\n      swap6\n      pop\n      swap6\n      pop\n      swap6\n      pop\n      swap6\n      pop\n      swap6\n      pop\n      pop\n        /* \"contracts/1_Storage.sol\":7902:8317  function paychanSelectedArguments(bytes32 channelId) public view returns (address sender, address rec, uint status, uint senderB, uint fee) {... */\n      swap2\n      swap4\n      swap6\n      swap1\n      swap3\n      swap5\n      pop\n      jump\t// out\n        /* \"contracts/1_Storage.sol\":1526:2767  function openChan(address to, uint senderDeposit) public payable returns(bytes32 channelId) {... */\n    tag_24:\n        /* \"contracts/1_Storage.sol\":1599:1616  bytes32 channelId */\n      0x00\n        /* \"contracts/1_Storage.sol\":1744:1746  to */\n      dup3\n        /* \"contracts/1_Storage.sol\":1730:1746  msg.sender != to */\n      0xffffffffffffffffffffffffffffffffffffffff\n      and\n        /* \"contracts/1_Storage.sol\":1730:1740  msg.sender */\n      caller\n        /* \"contracts/1_Storage.sol\":1730:1746  msg.sender != to */\n      0xffffffffffffffffffffffffffffffffffffffff\n      and\n      sub\n        /* \"contracts/1_Storage.sol\":1722:1777  require(msg.sender != to, \"Sender cannot be recipient\") */\n      tag_83\n      jumpi\n      mload(0x40)\n      0x08c379a000000000000000000000000000000000000000000000000000000000\n      dup2\n      mstore\n      0x04\n      add\n      tag_84\n      swap1\n      tag_85\n      jump\t// in\n    tag_84:\n      mload(0x40)\n      dup1\n      swap2\n      sub\n      swap1\n      revert\n    tag_83:\n        /* \"contracts/1_Storage.sol\":1796:1806  bytes32 id */\n      0x00\n        /* \"contracts/1_Storage.sol\":1836:1846  msg.sender */\n      caller\n        /* \"contracts/1_Storage.sol\":1848:1850  to */\n      dup5\n        /* \"contracts/1_Storage.sol\":1819:1851  abi.encodePacked(msg.sender, to) */\n      add(0x20, mload(0x40))\n      tag_86\n      swap3\n      swap2\n      swap1\n      tag_87\n      jump\t// in\n    tag_86:\n      mload(0x40)\n      0x20\n      dup2\n      dup4\n      sub\n      sub\n      dup2\n      mstore\n      swap1\n      0x40\n      mstore\n        /* \"contracts/1_Storage.sol\":1809:1852  keccak256(abi.encodePacked(msg.sender, to)) */\n      dup1\n      mload\n      swap1\n      0x20\n      add\n      keccak256\n        /* \"contracts/1_Storage.sol\":1796:1852  bytes32 id = keccak256(abi.encodePacked(msg.sender, to)) */\n      swap1\n      pop\n        /* \"contracts/1_Storage.sol\":1922:1923  0 */\n      0x00\n        /* \"contracts/1_Storage.sol\":1899:1907  paychans */\n      dup1\n        /* \"contracts/1_Storage.sol\":1899:1911  paychans[id] */\n      0x00\n        /* \"contracts/1_Storage.sol\":1908:1910  id */\n      dup4\n        /* \"contracts/1_Storage.sol\":1899:1911  paychans[id] */\n      dup2\n      mstore\n      0x20\n      add\n      swap1\n      dup2\n      mstore\n      0x20\n      add\n      0x00\n      keccak256\n        /* \"contracts/1_Storage.sol\":1899:1918  paychans[id].status */\n      0x05\n      add\n      sload\n        /* \"contracts/1_Storage.sol\":1899:1923  paychans[id].status >= 0 */\n      lt\n      iszero\n        /* \"contracts/1_Storage.sol\":1891:1950  require(paychans[id].status >= 0, \"Channel already exists\") */\n      tag_88\n      jumpi\n      mload(0x40)\n      0x08c379a000000000000000000000000000000000000000000000000000000000\n      dup2\n      mstore\n      0x04\n      add\n      tag_89\n      swap1\n      tag_90\n      jump\t// in\n    tag_89:\n      mload(0x40)\n      dup1\n      swap2\n      sub\n      swap1\n      revert\n    tag_88:\n        /* \"contracts/1_Storage.sol\":1982:1995  senderDeposit */\n      dup3\n        /* \"contracts/1_Storage.sol\":1969:1978  msg.value */\n      callvalue\n        /* \"contracts/1_Storage.sol\":1969:1995  msg.value == senderDeposit */\n      eq\n        /* \"contracts/1_Storage.sol\":1961:2031  require(msg.value == senderDeposit, \"Incorrect sender deposit amount\") */\n      tag_91\n      jumpi\n      mload(0x40)\n      0x08c379a000000000000000000000000000000000000000000000000000000000\n      dup2\n      mstore\n      0x04\n      add\n      tag_92\n      swap1\n      tag_93\n      jump\t// in\n    tag_92:\n      mload(0x40)\n      dup1\n      swap2\n      sub\n      swap1\n      revert\n    tag_91:\n        /* \"contracts/1_Storage.sol\":2057:2709  PayChan({... */\n      mload(0x40)\n      dup1\n      0x0160\n      add\n      0x40\n      mstore\n      dup1\n        /* \"contracts/1_Storage.sol\":2083:2085  id */\n      dup3\n        /* \"contracts/1_Storage.sol\":2057:2709  PayChan({... */\n      dup2\n      mstore\n      0x20\n      add\n        /* \"contracts/1_Storage.sol\":2115:2125  msg.sender */\n      caller\n        /* \"contracts/1_Storage.sol\":2057:2709  PayChan({... */\n      0xffffffffffffffffffffffffffffffffffffffff\n      and\n      dup2\n      mstore\n      0x20\n      add\n        /* \"contracts/1_Storage.sol\":2159:2161  to */\n      dup6\n        /* \"contracts/1_Storage.sol\":2057:2709  PayChan({... */\n      0xffffffffffffffffffffffffffffffffffffffff\n      and\n      dup2\n      mstore\n      0x20\n      add\n        /* \"contracts/1_Storage.sol\":2192:2205  senderDeposit */\n      dup5\n        /* \"contracts/1_Storage.sol\":2057:2709  PayChan({... */\n      dup2\n      mstore\n      0x20\n      add\n        /* \"contracts/1_Storage.sol\":2278:2293  block.timestamp */\n      timestamp\n        /* \"contracts/1_Storage.sol\":2057:2709  PayChan({... */\n      dup2\n      mstore\n      0x20\n      add\n        /* \"contracts/1_Storage.sol\":2403:2404  1 */\n      0x01\n        /* \"contracts/1_Storage.sol\":2057:2709  PayChan({... */\n      dup2\n      mstore\n      0x20\n      add\n        /* \"contracts/1_Storage.sol\":2500:2501  0 */\n      0x00\n        /* \"contracts/1_Storage.sol\":2057:2709  PayChan({... */\n      dup2\n      mstore\n      0x20\n      add\n        /* \"contracts/1_Storage.sol\":2534:2535  0 */\n      0x00\n        /* \"contracts/1_Storage.sol\":2057:2709  PayChan({... */\n      dup2\n      mstore\n      0x20\n      add\n        /* \"contracts/1_Storage.sol\":2603:2607  1000 */\n      0x03e8\n        /* \"contracts/1_Storage.sol\":2057:2709  PayChan({... */\n      dup2\n      mstore\n      0x20\n      add\n        /* \"contracts/1_Storage.sol\":2656:2661  false */\n      0x00\n        /* \"contracts/1_Storage.sol\":2057:2709  PayChan({... */\n      iszero\n      iszero\n      dup2\n      mstore\n      0x20\n      add\n        /* \"contracts/1_Storage.sol\":2693:2698  false */\n      0x00\n        /* \"contracts/1_Storage.sol\":2057:2709  PayChan({... */\n      iszero\n      iszero\n      dup2\n      mstore\n      pop\n        /* \"contracts/1_Storage.sol\":2042:2050  paychans */\n      0x00\n        /* \"contracts/1_Storage.sol\":2042:2054  paychans[id] */\n      dup1\n        /* \"contracts/1_Storage.sol\":2051:2053  id */\n      dup4\n        /* \"contracts/1_Storage.sol\":2042:2054  paychans[id] */\n      dup2\n      mstore\n      0x20\n      add\n      swap1\n      dup2\n      mstore\n      0x20\n      add\n      0x00\n      keccak256\n        /* \"contracts/1_Storage.sol\":2042:2709  paychans[id] = PayChan({... */\n      0x00\n      dup3\n      add\n      mload\n      dup2\n      0x00\n      add\n      sstore\n      0x20\n      dup3\n      add\n      mload\n      dup2\n      0x01\n      add\n      exp(0x0100, 0x00)\n      dup2\n      sload\n      dup2\n      0xffffffffffffffffffffffffffffffffffffffff\n      mul\n      not\n      and\n      swap1\n      dup4\n      0xffffffffffffffffffffffffffffffffffffffff\n      and\n      mul\n      or\n      swap1\n      sstore\n      pop\n      0x40\n      dup3\n      add\n      mload\n      dup2\n      0x02\n      add\n      exp(0x0100, 0x00)\n      dup2\n      sload\n      dup2\n      0xffffffffffffffffffffffffffffffffffffffff\n      mul\n      not\n      and\n      swap1\n      dup4\n      0xffffffffffffffffffffffffffffffffffffffff\n      and\n      mul\n      or\n      swap1\n      sstore\n      pop\n      0x60\n      dup3\n      add\n      mload\n      dup2\n      0x03\n      add\n      sstore\n      0x80\n      dup3\n      add\n      mload\n      dup2\n      0x04\n      add\n      sstore\n      0xa0\n      dup3\n      add\n      mload\n      dup2\n      0x05\n      add\n      sstore\n      0xc0\n      dup3\n      add\n      mload\n      dup2\n      0x06\n      add\n      sstore\n      0xe0\n      dup3\n      add\n      mload\n      dup2\n      0x07\n      add\n      sstore\n      0x0100\n      dup3\n      add\n      mload\n      dup2\n      0x08\n      add\n      sstore\n      0x0120\n      dup3\n      add\n      mload\n      dup2\n      0x09\n      add\n      exp(0x0100, 0x00)\n      dup2\n      sload\n      dup2\n      0xff\n      mul\n      not\n      and\n      swap1\n      dup4\n      iszero\n      iszero\n      mul\n      or\n      swap1\n      sstore\n      pop\n      0x0140\n      dup3\n      add\n      mload\n      dup2\n      0x09\n      add\n      exp(0x0100, 0x01)\n      dup2\n      sload\n      dup2\n      0xff\n      mul\n      not\n      and\n      swap1\n      dup4\n      iszero\n      iszero\n      mul\n      or\n      swap1\n      sstore\n      pop\n      swap1\n      pop\n      pop\n        /* \"contracts/1_Storage.sol\":2738:2740  id */\n      dup1\n        /* \"contracts/1_Storage.sol\":2724:2741  ChannelOpened(id) */\n      0x7ffc675d721b8768e035a323722842743bb523487b535906abc97e6b3e2095d0\n      mload(0x40)\n      mload(0x40)\n      dup1\n      swap2\n      sub\n      swap1\n      log2\n        /* \"contracts/1_Storage.sol\":2758:2760  id */\n      dup1\n        /* \"contracts/1_Storage.sol\":2751:2760  return id */\n      swap2\n      pop\n      pop\n        /* \"contracts/1_Storage.sol\":1526:2767  function openChan(address to, uint senderDeposit) public payable returns(bytes32 channelId) {... */\n      swap3\n      swap2\n      pop\n      pop\n      jump\t// out\n        /* \"contracts/1_Storage.sol\":3699:4855  function closeChan(bytes32 channelId, uint value) public onlyWhenChannelOpen(channelId) {... */\n    tag_30:\n        /* \"contracts/1_Storage.sol\":3776:3785  channelId */\n      dup2\n        /* \"contracts/1_Storage.sol\":1471:1472  1 */\n      0x01\n        /* \"contracts/1_Storage.sol\":1441:1449  paychans */\n      0x00\n        /* \"contracts/1_Storage.sol\":1441:1460  paychans[channelId] */\n      dup1\n        /* \"contracts/1_Storage.sol\":1450:1459  channelId */\n      dup4\n        /* \"contracts/1_Storage.sol\":1441:1460  paychans[channelId] */\n      dup2\n      mstore\n      0x20\n      add\n      swap1\n      dup2\n      mstore\n      0x20\n      add\n      0x00\n      keccak256\n        /* \"contracts/1_Storage.sol\":1441:1467  paychans[channelId].status */\n      0x05\n      add\n      sload\n        /* \"contracts/1_Storage.sol\":1441:1472  paychans[channelId].status == 1 */\n      eq\n        /* \"contracts/1_Storage.sol\":1433:1502  require(paychans[channelId].status == 1, \"Only when channel is open\") */\n      tag_95\n      jumpi\n      mload(0x40)\n      0x08c379a000000000000000000000000000000000000000000000000000000000\n      dup2\n      mstore\n      0x04\n      add\n      tag_96\n      swap1\n      tag_97\n      jump\t// in\n    tag_96:\n      mload(0x40)\n      dup1\n      swap2\n      sub\n      swap1\n      revert\n    tag_95:\n        /* \"contracts/1_Storage.sol\":3832:3837  value */\n      dup2\n        /* \"contracts/1_Storage.sol\":3805:3813  paychans */\n      0x00\n        /* \"contracts/1_Storage.sol\":3805:3824  paychans[channelId] */\n      dup1\n        /* \"contracts/1_Storage.sol\":3814:3823  channelId */\n      dup6\n        /* \"contracts/1_Storage.sol\":3805:3824  paychans[channelId] */\n      dup2\n      mstore\n      0x20\n      add\n      swap1\n      dup2\n      mstore\n      0x20\n      add\n      0x00\n      keccak256\n        /* \"contracts/1_Storage.sol\":3805:3828  paychans[channelId].fee */\n      0x06\n      add\n      sload\n        /* \"contracts/1_Storage.sol\":3805:3837  paychans[channelId].fee <= value */\n      gt\n      iszero\n        /* \"contracts/1_Storage.sol\":3797:3889  require(paychans[channelId].fee <= value, \"Invalid value, smaller than the previous record\") */\n      tag_99\n      jumpi\n      mload(0x40)\n      0x08c379a000000000000000000000000000000000000000000000000000000000\n      dup2\n      mstore\n      0x04\n      add\n      tag_100\n      swap1\n      tag_101\n      jump\t// in\n    tag_100:\n      mload(0x40)\n      dup1\n      swap2\n      sub\n      swap1\n      revert\n    tag_99:\n        /* \"contracts/1_Storage.sol\":3954:3968  address signer */\n      0x00\n        /* \"contracts/1_Storage.sol\":3978:3991  bytes32 proof */\n      dup1\n        /* \"contracts/1_Storage.sol\":4053:4063  msg.sender */\n      caller\n        /* \"contracts/1_Storage.sol\":4044:4063  signer = msg.sender */\n      swap2\n      pop\n        /* \"contracts/1_Storage.sol\":4124:4132  paychans */\n      0x00\n        /* \"contracts/1_Storage.sol\":4124:4143  paychans[channelId] */\n      dup1\n        /* \"contracts/1_Storage.sol\":4133:4142  channelId */\n      dup7\n        /* \"contracts/1_Storage.sol\":4124:4143  paychans[channelId] */\n      dup2\n      mstore\n      0x20\n      add\n      swap1\n      dup2\n      mstore\n      0x20\n      add\n      0x00\n      keccak256\n        /* \"contracts/1_Storage.sol\":4124:4150  paychans[channelId].sender */\n      0x01\n      add\n      0x00\n      swap1\n      sload\n      swap1\n      0x0100\n      exp\n      swap1\n      div\n      0xffffffffffffffffffffffffffffffffffffffff\n      and\n        /* \"contracts/1_Storage.sol\":4114:4150  signer == paychans[channelId].sender */\n      0xffffffffffffffffffffffffffffffffffffffff\n      and\n        /* \"contracts/1_Storage.sol\":4114:4120  signer */\n      dup3\n        /* \"contracts/1_Storage.sol\":4114:4150  signer == paychans[channelId].sender */\n      0xffffffffffffffffffffffffffffffffffffffff\n      and\n      eq\n        /* \"contracts/1_Storage.sol\":4113:4196  (signer == paychans[channelId].sender) || (signer == paychans[channelId].recipient) */\n      dup1\n      tag_102\n      jumpi\n      pop\n        /* \"contracts/1_Storage.sol\":4166:4174  paychans */\n      0x00\n        /* \"contracts/1_Storage.sol\":4166:4185  paychans[channelId] */\n      dup1\n        /* \"contracts/1_Storage.sol\":4175:4184  channelId */\n      dup7\n        /* \"contracts/1_Storage.sol\":4166:4185  paychans[channelId] */\n      dup2\n      mstore\n      0x20\n      add\n      swap1\n      dup2\n      mstore\n      0x20\n      add\n      0x00\n      keccak256\n        /* \"contracts/1_Storage.sol\":4166:4195  paychans[channelId].recipient */\n      0x02\n      add\n      0x00\n      swap1\n      sload\n      swap1\n      0x0100\n      exp\n      swap1\n      div\n      0xffffffffffffffffffffffffffffffffffffffff\n      and\n        /* \"contracts/1_Storage.sol\":4156:4195  signer == paychans[channelId].recipient */\n      0xffffffffffffffffffffffffffffffffffffffff\n      and\n        /* \"contracts/1_Storage.sol\":4156:4162  signer */\n      dup3\n        /* \"contracts/1_Storage.sol\":4156:4195  signer == paychans[channelId].recipient */\n      0xffffffffffffffffffffffffffffffffffffffff\n      and\n      eq\n        /* \"contracts/1_Storage.sol\":4113:4196  (signer == paychans[channelId].sender) || (signer == paychans[channelId].recipient) */\n    tag_102:\n        /* \"contracts/1_Storage.sol\":4105:4222  require((signer == paychans[channelId].sender) || (signer == paychans[channelId].recipient), \"Not authorized signer\") */\n      tag_103\n      jumpi\n      mload(0x40)\n      0x08c379a000000000000000000000000000000000000000000000000000000000\n      dup2\n      mstore\n      0x04\n      add\n      tag_104\n      swap1\n      tag_105\n      jump\t// in\n    tag_104:\n      mload(0x40)\n      dup1\n      swap2\n      sub\n      swap1\n      revert\n    tag_103:\n        /* \"contracts/1_Storage.sol\":4276:4281  value */\n      dup4\n        /* \"contracts/1_Storage.sol\":4259:4282  abi.encodePacked(value) */\n      add(0x20, mload(0x40))\n      tag_106\n      swap2\n      swap1\n      tag_107\n      jump\t// in\n    tag_106:\n      mload(0x40)\n      0x20\n      dup2\n      dup4\n      sub\n      sub\n      dup2\n      mstore\n      swap1\n      0x40\n      mstore\n        /* \"contracts/1_Storage.sol\":4249:4283  keccak256(abi.encodePacked(value)) */\n      dup1\n      mload\n      swap1\n      0x20\n      add\n      keccak256\n        /* \"contracts/1_Storage.sol\":4241:4283  proof = keccak256(abi.encodePacked(value)) */\n      swap1\n      pop\n        /* \"contracts/1_Storage.sol\":4362:4370  paychans */\n      0x00\n        /* \"contracts/1_Storage.sol\":4362:4381  paychans[channelId] */\n      dup1\n        /* \"contracts/1_Storage.sol\":4371:4380  channelId */\n      dup7\n        /* \"contracts/1_Storage.sol\":4362:4381  paychans[channelId] */\n      dup2\n      mstore\n      0x20\n      add\n      swap1\n      dup2\n      mstore\n      0x20\n      add\n      0x00\n      keccak256\n        /* \"contracts/1_Storage.sol\":4362:4388  paychans[channelId].sender */\n      0x01\n      add\n      0x00\n      swap1\n      sload\n      swap1\n      0x0100\n      exp\n      swap1\n      div\n      0xffffffffffffffffffffffffffffffffffffffff\n      and\n        /* \"contracts/1_Storage.sol\":4352:4388  signer == paychans[channelId].sender */\n      0xffffffffffffffffffffffffffffffffffffffff\n      and\n        /* \"contracts/1_Storage.sol\":4352:4358  signer */\n      dup3\n        /* \"contracts/1_Storage.sol\":4352:4388  signer == paychans[channelId].sender */\n      0xffffffffffffffffffffffffffffffffffffffff\n      and\n      sub\n        /* \"contracts/1_Storage.sol\":4348:4529  if (signer == paychans[channelId].sender) {... */\n      tag_108\n      jumpi\n        /* \"contracts/1_Storage.sol\":4440:4444  true */\n      0x01\n        /* \"contracts/1_Storage.sol\":4404:4412  paychans */\n      0x00\n        /* \"contracts/1_Storage.sol\":4404:4423  paychans[channelId] */\n      dup1\n        /* \"contracts/1_Storage.sol\":4413:4422  channelId */\n      dup8\n        /* \"contracts/1_Storage.sol\":4404:4423  paychans[channelId] */\n      dup2\n      mstore\n      0x20\n      add\n      swap1\n      dup2\n      mstore\n      0x20\n      add\n      0x00\n      keccak256\n        /* \"contracts/1_Storage.sol\":4404:4437  paychans[channelId].senderConfirm */\n      0x09\n      add\n      0x00\n        /* \"contracts/1_Storage.sol\":4404:4444  paychans[channelId].senderConfirm = true */\n      0x0100\n      exp\n      dup2\n      sload\n      dup2\n      0xff\n      mul\n      not\n      and\n      swap1\n      dup4\n      iszero\n      iszero\n      mul\n      or\n      swap1\n      sstore\n      pop\n        /* \"contracts/1_Storage.sol\":4348:4529  if (signer == paychans[channelId].sender) {... */\n      jump(tag_109)\n    tag_108:\n        /* \"contracts/1_Storage.sol\":4514:4518  true */\n      0x01\n        /* \"contracts/1_Storage.sol\":4475:4483  paychans */\n      0x00\n        /* \"contracts/1_Storage.sol\":4475:4494  paychans[channelId] */\n      dup1\n        /* \"contracts/1_Storage.sol\":4484:4493  channelId */\n      dup8\n        /* \"contracts/1_Storage.sol\":4475:4494  paychans[channelId] */\n      dup2\n      mstore\n      0x20\n      add\n      swap1\n      dup2\n      mstore\n      0x20\n      add\n      0x00\n      keccak256\n        /* \"contracts/1_Storage.sol\":4475:4511  paychans[channelId].recipientConfirm */\n      0x09\n      add\n      0x01\n        /* \"contracts/1_Storage.sol\":4475:4518  paychans[channelId].recipientConfirm = true */\n      0x0100\n      exp\n      dup2\n      sload\n      dup2\n      0xff\n      mul\n      not\n      and\n      swap1\n      dup4\n      iszero\n      iszero\n      mul\n      or\n      swap1\n      sstore\n      pop\n        /* \"contracts/1_Storage.sol\":4348:4529  if (signer == paychans[channelId].sender) {... */\n    tag_109:\n        /* \"contracts/1_Storage.sol\":4614:4619  value */\n      dup4\n        /* \"contracts/1_Storage.sol\":4588:4596  paychans */\n      0x00\n        /* \"contracts/1_Storage.sol\":4588:4607  paychans[channelId] */\n      dup1\n        /* \"contracts/1_Storage.sol\":4597:4606  channelId */\n      dup8\n        /* \"contracts/1_Storage.sol\":4588:4607  paychans[channelId] */\n      dup2\n      mstore\n      0x20\n      add\n      swap1\n      dup2\n      mstore\n      0x20\n      add\n      0x00\n      keccak256\n        /* \"contracts/1_Storage.sol\":4588:4611  paychans[channelId].fee */\n      0x06\n      add\n        /* \"contracts/1_Storage.sol\":4588:4619  paychans[channelId].fee = value */\n      dup2\n      swap1\n      sstore\n      pop\n        /* \"contracts/1_Storage.sol\":4699:4700  2 */\n      0x02\n        /* \"contracts/1_Storage.sol\":4670:4678  paychans */\n      0x00\n        /* \"contracts/1_Storage.sol\":4670:4689  paychans[channelId] */\n      dup1\n        /* \"contracts/1_Storage.sol\":4679:4688  channelId */\n      dup8\n        /* \"contracts/1_Storage.sol\":4670:4689  paychans[channelId] */\n      dup2\n      mstore\n      0x20\n      add\n      swap1\n      dup2\n      mstore\n      0x20\n      add\n      0x00\n      keccak256\n        /* \"contracts/1_Storage.sol\":4670:4696  paychans[channelId].status */\n      0x05\n      add\n        /* \"contracts/1_Storage.sol\":4670:4700  paychans[channelId].status = 2 */\n      dup2\n      swap1\n      sstore\n      pop\n        /* \"contracts/1_Storage.sol\":4793:4808  block.timestamp */\n      timestamp\n        /* \"contracts/1_Storage.sol\":4754:4762  paychans */\n      0x00\n        /* \"contracts/1_Storage.sol\":4754:4773  paychans[channelId] */\n      dup1\n        /* \"contracts/1_Storage.sol\":4763:4772  channelId */\n      dup8\n        /* \"contracts/1_Storage.sol\":4754:4773  paychans[channelId] */\n      dup2\n      mstore\n      0x20\n      add\n      swap1\n      dup2\n      mstore\n      0x20\n      add\n      0x00\n      keccak256\n        /* \"contracts/1_Storage.sol\":4754:4790  paychans[channelId].disputeStartTime */\n      0x07\n      add\n        /* \"contracts/1_Storage.sol\":4754:4808  paychans[channelId].disputeStartTime = block.timestamp */\n      dup2\n      swap1\n      sstore\n      pop\n        /* \"contracts/1_Storage.sol\":3787:4855  {... */\n      pop\n      pop\n        /* \"contracts/1_Storage.sol\":3699:4855  function closeChan(bytes32 channelId, uint value) public onlyWhenChannelOpen(channelId) {... */\n      pop\n      pop\n      pop\n      jump\t// out\n        /* \"contracts/1_Storage.sol\":8375:8511  function greeting(address from) public pure returns (string memory) {... */\n    tag_35:\n        /* \"contracts/1_Storage.sol\":8428:8441  string memory */\n      0x60\n        /* \"contracts/1_Storage.sol\":8453:8472  address fromAddress */\n      0x00\n        /* \"contracts/1_Storage.sol\":8475:8479  from */\n      dup3\n        /* \"contracts/1_Storage.sol\":8453:8479  address fromAddress = from */\n      swap1\n      pop\n        /* \"contracts/1_Storage.sol\":8490:8504  return \"hello\" */\n      mload(0x40)\n      dup1\n      0x40\n      add\n      0x40\n      mstore\n      dup1\n      0x05\n      dup2\n      mstore\n      0x20\n      add\n      0x68656c6c6f000000000000000000000000000000000000000000000000000000\n      dup2\n      mstore\n      pop\n      swap2\n      pop\n      pop\n        /* \"contracts/1_Storage.sol\":8375:8511  function greeting(address from) public pure returns (string memory) {... */\n      swap2\n      swap1\n      pop\n      jump\t// out\n        /* \"contracts/1_Storage.sol\":7776:7896  function paychanCheck(bytes32 channelId) public view returns(PayChan memory) {... */\n    tag_41:\n        /* \"contracts/1_Storage.sol\":7837:7851  PayChan memory */\n      tag_111\n      tag_112\n      jump\t// in\n    tag_111:\n        /* \"contracts/1_Storage.sol\":7870:7878  paychans */\n      0x00\n        /* \"contracts/1_Storage.sol\":7870:7889  paychans[channelId] */\n      dup1\n        /* \"contracts/1_Storage.sol\":7879:7888  channelId */\n      dup4\n        /* \"contracts/1_Storage.sol\":7870:7889  paychans[channelId] */\n      dup2\n      mstore\n      0x20\n      add\n      swap1\n      dup2\n      mstore\n      0x20\n      add\n      0x00\n      keccak256\n        /* \"contracts/1_Storage.sol\":7863:7889  return paychans[channelId] */\n      mload(0x40)\n      dup1\n      0x0160\n      add\n      0x40\n      mstore\n      swap1\n      dup2\n      0x00\n      dup3\n      add\n      sload\n      dup2\n      mstore\n      0x20\n      add\n      0x01\n      dup3\n      add\n      0x00\n      swap1\n      sload\n      swap1\n      0x0100\n      exp\n      swap1\n      div\n      0xffffffffffffffffffffffffffffffffffffffff\n      and\n      0xffffffffffffffffffffffffffffffffffffffff\n      and\n      0xffffffffffffffffffffffffffffffffffffffff\n      and\n      dup2\n      mstore\n      0x20\n      add\n      0x02\n      dup3\n      add\n      0x00\n      swap1\n      sload\n      swap1\n      0x0100\n      exp\n      swap1\n      div\n      0xffffffffffffffffffffffffffffffffffffffff\n      and\n      0xffffffffffffffffffffffffffffffffffffffff\n      and\n      0xffffffffffffffffffffffffffffffffffffffff\n      and\n      dup2\n      mstore\n      0x20\n      add\n      0x03\n      dup3\n      add\n      sload\n      dup2\n      mstore\n      0x20\n      add\n      0x04\n      dup3\n      add\n      sload\n      dup2\n      mstore\n      0x20\n      add\n      0x05\n      dup3\n      add\n      sload\n      dup2\n      mstore\n      0x20\n      add\n      0x06\n      dup3\n      add\n      sload\n      dup2\n      mstore\n      0x20\n      add\n      0x07\n      dup3\n      add\n      sload\n      dup2\n      mstore\n      0x20\n      add\n      0x08\n      dup3\n      add\n      sload\n      dup2\n      mstore\n      0x20\n      add\n      0x09\n      dup3\n      add\n      0x00\n      swap1\n      sload\n      swap1\n      0x0100\n      exp\n      swap1\n      div\n      0xff\n      and\n      iszero\n      iszero\n      iszero\n      iszero\n      dup2\n      mstore\n      0x20\n      add\n      0x09\n      dup3\n      add\n      0x01\n      swap1\n      sload\n      swap1\n      0x0100\n      exp\n      swap1\n      div\n      0xff\n      and\n      iszero\n      iszero\n      iszero\n      iszero\n      dup2\n      mstore\n      pop\n      pop\n      swap1\n      pop\n        /* \"contracts/1_Storage.sol\":7776:7896  function paychanCheck(bytes32 channelId) public view returns(PayChan memory) {... */\n      swap2\n      swap1\n      pop\n      jump\t// out\n        /* \"contracts/1_Storage.sol\":7671:7770  function balance(address addr) public view returns (uint bal) {... */\n    tag_47:\n        /* \"contracts/1_Storage.sol\":7723:7731  uint bal */\n      0x00\n        /* \"contracts/1_Storage.sol\":7750:7763  balance(addr) */\n      tag_115\n        /* \"contracts/1_Storage.sol\":7758:7762  addr */\n      dup3\n        /* \"contracts/1_Storage.sol\":7750:7757  balance */\n      tag_47\n        /* \"contracts/1_Storage.sol\":7750:7763  balance(addr) */\n      jump\t// in\n    tag_115:\n        /* \"contracts/1_Storage.sol\":7743:7763  return balance(addr) */\n      swap1\n      pop\n        /* \"contracts/1_Storage.sol\":7671:7770  function balance(address addr) public view returns (uint bal) {... */\n      swap2\n      swap1\n      pop\n      jump\t// out\n    tag_112:\n      mload(0x40)\n      dup1\n      0x0160\n      add\n      0x40\n      mstore\n      dup1\n      0x00\n      dup1\n      not\n      and\n      dup2\n      mstore\n      0x20\n      add\n      and(0xffffffffffffffffffffffffffffffffffffffff, 0x00)\n      dup2\n      mstore\n      0x20\n      add\n      and(0xffffffffffffffffffffffffffffffffffffffff, 0x00)\n      dup2\n      mstore\n      0x20\n      add\n      0x00\n      dup2\n      mstore\n      0x20\n      add\n      0x00\n      dup2\n      mstore\n      0x20\n      add\n      0x00\n      dup2\n      mstore\n      0x20\n      add\n      0x00\n      dup2\n      mstore\n      0x20\n      add\n      0x00\n      dup2\n      mstore\n      0x20\n      add\n      0x00\n      dup2\n      mstore\n      0x20\n      add\n      iszero(iszero(0x00))\n      dup2\n      mstore\n      0x20\n      add\n      iszero(iszero(0x00))\n      dup2\n      mstore\n      pop\n      swap1\n      jump\t// out\n        /* \"#utility.yul\":88:205   */\n    tag_117:\n        /* \"#utility.yul\":197:198   */\n      0x00\n        /* \"#utility.yul\":194:195   */\n      dup1\n        /* \"#utility.yul\":187:199   */\n      revert\n        /* \"#utility.yul\":334:411   */\n    tag_119:\n        /* \"#utility.yul\":371:378   */\n      0x00\n        /* \"#utility.yul\":400:405   */\n      dup2\n        /* \"#utility.yul\":389:405   */\n      swap1\n      pop\n        /* \"#utility.yul\":334:411   */\n      swap2\n      swap1\n      pop\n      jump\t// out\n        /* \"#utility.yul\":417:539   */\n    tag_120:\n        /* \"#utility.yul\":490:514   */\n      tag_181\n        /* \"#utility.yul\":508:513   */\n      dup2\n        /* \"#utility.yul\":490:514   */\n      tag_119\n      jump\t// in\n    tag_181:\n        /* \"#utility.yul\":483:488   */\n      dup2\n        /* \"#utility.yul\":480:515   */\n      eq\n        /* \"#utility.yul\":470:533   */\n      tag_182\n      jumpi\n        /* \"#utility.yul\":529:530   */\n      0x00\n        /* \"#utility.yul\":526:527   */\n      dup1\n        /* \"#utility.yul\":519:531   */\n      revert\n        /* \"#utility.yul\":470:533   */\n    tag_182:\n        /* \"#utility.yul\":417:539   */\n      pop\n      jump\t// out\n        /* \"#utility.yul\":545:684   */\n    tag_121:\n        /* \"#utility.yul\":591:596   */\n      0x00\n        /* \"#utility.yul\":629:635   */\n      dup2\n        /* \"#utility.yul\":616:636   */\n      calldataload\n        /* \"#utility.yul\":607:636   */\n      swap1\n      pop\n        /* \"#utility.yul\":645:678   */\n      tag_184\n        /* \"#utility.yul\":672:677   */\n      dup2\n        /* \"#utility.yul\":645:678   */\n      tag_120\n      jump\t// in\n    tag_184:\n        /* \"#utility.yul\":545:684   */\n      swap3\n      swap2\n      pop\n      pop\n      jump\t// out\n        /* \"#utility.yul\":690:767   */\n    tag_122:\n        /* \"#utility.yul\":727:734   */\n      0x00\n        /* \"#utility.yul\":756:761   */\n      dup2\n        /* \"#utility.yul\":745:761   */\n      swap1\n      pop\n        /* \"#utility.yul\":690:767   */\n      swap2\n      swap1\n      pop\n      jump\t// out\n        /* \"#utility.yul\":773:895   */\n    tag_123:\n        /* \"#utility.yul\":846:870   */\n      tag_187\n        /* \"#utility.yul\":864:869   */\n      dup2\n        /* \"#utility.yul\":846:870   */\n      tag_122\n      jump\t// in\n    tag_187:\n        /* \"#utility.yul\":839:844   */\n      dup2\n        /* \"#utility.yul\":836:871   */\n      eq\n        /* \"#utility.yul\":826:889   */\n      tag_188\n      jumpi\n        /* \"#utility.yul\":885:886   */\n      0x00\n        /* \"#utility.yul\":882:883   */\n      dup1\n        /* \"#utility.yul\":875:887   */\n      revert\n        /* \"#utility.yul\":826:889   */\n    tag_188:\n        /* \"#utility.yul\":773:895   */\n      pop\n      jump\t// out\n        /* \"#utility.yul\":901:1040   */\n    tag_124:\n        /* \"#utility.yul\":947:952   */\n      0x00\n        /* \"#utility.yul\":985:991   */\n      dup2\n        /* \"#utility.yul\":972:992   */\n      calldataload\n        /* \"#utility.yul\":963:992   */\n      swap1\n      pop\n        /* \"#utility.yul\":1001:1034   */\n      tag_190\n        /* \"#utility.yul\":1028:1033   */\n      dup2\n        /* \"#utility.yul\":1001:1034   */\n      tag_123\n      jump\t// in\n    tag_190:\n        /* \"#utility.yul\":901:1040   */\n      swap3\n      swap2\n      pop\n      pop\n      jump\t// out\n        /* \"#utility.yul\":1046:1520   */\n    tag_12:\n        /* \"#utility.yul\":1114:1120   */\n      0x00\n        /* \"#utility.yul\":1122:1128   */\n      dup1\n        /* \"#utility.yul\":1171:1173   */\n      0x40\n        /* \"#utility.yul\":1159:1168   */\n      dup4\n        /* \"#utility.yul\":1150:1157   */\n      dup6\n        /* \"#utility.yul\":1146:1169   */\n      sub\n        /* \"#utility.yul\":1142:1174   */\n      slt\n        /* \"#utility.yul\":1139:1258   */\n      iszero\n      tag_192\n      jumpi\n        /* \"#utility.yul\":1177:1256   */\n      tag_193\n      tag_117\n      jump\t// in\n    tag_193:\n        /* \"#utility.yul\":1139:1258   */\n    tag_192:\n        /* \"#utility.yul\":1297:1298   */\n      0x00\n        /* \"#utility.yul\":1322:1375   */\n      tag_194\n        /* \"#utility.yul\":1367:1374   */\n      dup6\n        /* \"#utility.yul\":1358:1364   */\n      dup3\n        /* \"#utility.yul\":1347:1356   */\n      dup7\n        /* \"#utility.yul\":1343:1365   */\n      add\n        /* \"#utility.yul\":1322:1375   */\n      tag_121\n      jump\t// in\n    tag_194:\n        /* \"#utility.yul\":1312:1375   */\n      swap3\n      pop\n        /* \"#utility.yul\":1268:1385   */\n      pop\n        /* \"#utility.yul\":1424:1426   */\n      0x20\n        /* \"#utility.yul\":1450:1503   */\n      tag_195\n        /* \"#utility.yul\":1495:1502   */\n      dup6\n        /* \"#utility.yul\":1486:1492   */\n      dup3\n        /* \"#utility.yul\":1475:1484   */\n      dup7\n        /* \"#utility.yul\":1471:1493   */\n      add\n        /* \"#utility.yul\":1450:1503   */\n      tag_124\n      jump\t// in\n    tag_195:\n        /* \"#utility.yul\":1440:1503   */\n      swap2\n      pop\n        /* \"#utility.yul\":1395:1513   */\n      pop\n        /* \"#utility.yul\":1046:1520   */\n      swap3\n      pop\n      swap3\n      swap1\n      pop\n      jump\t// out\n        /* \"#utility.yul\":1526:1855   */\n    tag_17:\n        /* \"#utility.yul\":1585:1591   */\n      0x00\n        /* \"#utility.yul\":1634:1636   */\n      0x20\n        /* \"#utility.yul\":1622:1631   */\n      dup3\n        /* \"#utility.yul\":1613:1620   */\n      dup5\n        /* \"#utility.yul\":1609:1632   */\n      sub\n        /* \"#utility.yul\":1605:1637   */\n      slt\n        /* \"#utility.yul\":1602:1721   */\n      iszero\n      tag_197\n      jumpi\n        /* \"#utility.yul\":1640:1719   */\n      tag_198\n      tag_117\n      jump\t// in\n    tag_198:\n        /* \"#utility.yul\":1602:1721   */\n    tag_197:\n        /* \"#utility.yul\":1760:1761   */\n      0x00\n        /* \"#utility.yul\":1785:1838   */\n      tag_199\n        /* \"#utility.yul\":1830:1837   */\n      dup5\n        /* \"#utility.yul\":1821:1827   */\n      dup3\n        /* \"#utility.yul\":1810:1819   */\n      dup6\n        /* \"#utility.yul\":1806:1828   */\n      add\n        /* \"#utility.yul\":1785:1838   */\n      tag_121\n      jump\t// in\n    tag_199:\n        /* \"#utility.yul\":1775:1838   */\n      swap2\n      pop\n        /* \"#utility.yul\":1731:1848   */\n      pop\n        /* \"#utility.yul\":1526:1855   */\n      swap3\n      swap2\n      pop\n      pop\n      jump\t// out\n        /* \"#utility.yul\":1861:1987   */\n    tag_125:\n        /* \"#utility.yul\":1898:1905   */\n      0x00\n        /* \"#utility.yul\":1938:1980   */\n      0xffffffffffffffffffffffffffffffffffffffff\n        /* \"#utility.yul\":1931:1936   */\n      dup3\n        /* \"#utility.yul\":1927:1981   */\n      and\n        /* \"#utility.yul\":1916:1981   */\n      swap1\n      pop\n        /* \"#utility.yul\":1861:1987   */\n      swap2\n      swap1\n      pop\n      jump\t// out\n        /* \"#utility.yul\":1993:2089   */\n    tag_126:\n        /* \"#utility.yul\":2030:2037   */\n      0x00\n        /* \"#utility.yul\":2059:2083   */\n      tag_202\n        /* \"#utility.yul\":2077:2082   */\n      dup3\n        /* \"#utility.yul\":2059:2083   */\n      tag_125\n      jump\t// in\n    tag_202:\n        /* \"#utility.yul\":2048:2083   */\n      swap1\n      pop\n        /* \"#utility.yul\":1993:2089   */\n      swap2\n      swap1\n      pop\n      jump\t// out\n        /* \"#utility.yul\":2095:2213   */\n    tag_127:\n        /* \"#utility.yul\":2182:2206   */\n      tag_204\n        /* \"#utility.yul\":2200:2205   */\n      dup2\n        /* \"#utility.yul\":2182:2206   */\n      tag_126\n      jump\t// in\n    tag_204:\n        /* \"#utility.yul\":2177:2180   */\n      dup3\n        /* \"#utility.yul\":2170:2207   */\n      mstore\n        /* \"#utility.yul\":2095:2213   */\n      pop\n      pop\n      jump\t// out\n        /* \"#utility.yul\":2219:2337   */\n    tag_128:\n        /* \"#utility.yul\":2306:2330   */\n      tag_206\n        /* \"#utility.yul\":2324:2329   */\n      dup2\n        /* \"#utility.yul\":2306:2330   */\n      tag_122\n      jump\t// in\n    tag_206:\n        /* \"#utility.yul\":2301:2304   */\n      dup3\n        /* \"#utility.yul\":2294:2331   */\n      mstore\n        /* \"#utility.yul\":2219:2337   */\n      pop\n      pop\n      jump\t// out\n        /* \"#utility.yul\":2343:3007   */\n    tag_20:\n        /* \"#utility.yul\":2548:2552   */\n      0x00\n        /* \"#utility.yul\":2586:2589   */\n      0xa0\n        /* \"#utility.yul\":2575:2584   */\n      dup3\n        /* \"#utility.yul\":2571:2590   */\n      add\n        /* \"#utility.yul\":2563:2590   */\n      swap1\n      pop\n        /* \"#utility.yul\":2600:2671   */\n      tag_208\n        /* \"#utility.yul\":2668:2669   */\n      0x00\n        /* \"#utility.yul\":2657:2666   */\n      dup4\n        /* \"#utility.yul\":2653:2670   */\n      add\n        /* \"#utility.yul\":2644:2650   */\n      dup9\n        /* \"#utility.yul\":2600:2671   */\n      tag_127\n      jump\t// in\n    tag_208:\n        /* \"#utility.yul\":2681:2753   */\n      tag_209\n        /* \"#utility.yul\":2749:2751   */\n      0x20\n        /* \"#utility.yul\":2738:2747   */\n      dup4\n        /* \"#utility.yul\":2734:2752   */\n      add\n        /* \"#utility.yul\":2725:2731   */\n      dup8\n        /* \"#utility.yul\":2681:2753   */\n      tag_127\n      jump\t// in\n    tag_209:\n        /* \"#utility.yul\":2763:2835   */\n      tag_210\n        /* \"#utility.yul\":2831:2833   */\n      0x40\n        /* \"#utility.yul\":2820:2829   */\n      dup4\n        /* \"#utility.yul\":2816:2834   */\n      add\n        /* \"#utility.yul\":2807:2813   */\n      dup7\n        /* \"#utility.yul\":2763:2835   */\n      tag_128\n      jump\t// in\n    tag_210:\n        /* \"#utility.yul\":2845:2917   */\n      tag_211\n        /* \"#utility.yul\":2913:2915   */\n      0x60\n        /* \"#utility.yul\":2902:2911   */\n      dup4\n        /* \"#utility.yul\":2898:2916   */\n      add\n        /* \"#utility.yul\":2889:2895   */\n      dup6\n        /* \"#utility.yul\":2845:2917   */\n      tag_128\n      jump\t// in\n    tag_211:\n        /* \"#utility.yul\":2927:3000   */\n      tag_212\n        /* \"#utility.yul\":2995:2998   */\n      0x80\n        /* \"#utility.yul\":2984:2993   */\n      dup4\n        /* \"#utility.yul\":2980:2999   */\n      add\n        /* \"#utility.yul\":2971:2977   */\n      dup5\n        /* \"#utility.yul\":2927:3000   */\n      tag_128\n      jump\t// in\n    tag_212:\n        /* \"#utility.yul\":2343:3007   */\n      swap7\n      swap6\n      pop\n      pop\n      pop\n      pop\n      pop\n      pop\n      jump\t// out\n        /* \"#utility.yul\":3013:3135   */\n    tag_129:\n        /* \"#utility.yul\":3086:3110   */\n      tag_214\n        /* \"#utility.yul\":3104:3109   */\n      dup2\n        /* \"#utility.yul\":3086:3110   */\n      tag_126\n      jump\t// in\n    tag_214:\n        /* \"#utility.yul\":3079:3084   */\n      dup2\n        /* \"#utility.yul\":3076:3111   */\n      eq\n        /* \"#utility.yul\":3066:3129   */\n      tag_215\n      jumpi\n        /* \"#utility.yul\":3125:3126   */\n      0x00\n        /* \"#utility.yul\":3122:3123   */\n      dup1\n        /* \"#utility.yul\":3115:3127   */\n      revert\n        /* \"#utility.yul\":3066:3129   */\n    tag_215:\n        /* \"#utility.yul\":3013:3135   */\n      pop\n      jump\t// out\n        /* \"#utility.yul\":3141:3280   */\n    tag_130:\n        /* \"#utility.yul\":3187:3192   */\n      0x00\n        /* \"#utility.yul\":3225:3231   */\n      dup2\n        /* \"#utility.yul\":3212:3232   */\n      calldataload\n        /* \"#utility.yul\":3203:3232   */\n      swap1\n      pop\n        /* \"#utility.yul\":3241:3274   */\n      tag_217\n        /* \"#utility.yul\":3268:3273   */\n      dup2\n        /* \"#utility.yul\":3241:3274   */\n      tag_129\n      jump\t// in\n    tag_217:\n        /* \"#utility.yul\":3141:3280   */\n      swap3\n      swap2\n      pop\n      pop\n      jump\t// out\n        /* \"#utility.yul\":3286:3760   */\n    tag_23:\n        /* \"#utility.yul\":3354:3360   */\n      0x00\n        /* \"#utility.yul\":3362:3368   */\n      dup1\n        /* \"#utility.yul\":3411:3413   */\n      0x40\n        /* \"#utility.yul\":3399:3408   */\n      dup4\n        /* \"#utility.yul\":3390:3397   */\n      dup6\n        /* \"#utility.yul\":3386:3409   */\n      sub\n        /* \"#utility.yul\":3382:3414   */\n      slt\n        /* \"#utility.yul\":3379:3498   */\n      iszero\n      tag_219\n      jumpi\n        /* \"#utility.yul\":3417:3496   */\n      tag_220\n      tag_117\n      jump\t// in\n    tag_220:\n        /* \"#utility.yul\":3379:3498   */\n    tag_219:\n        /* \"#utility.yul\":3537:3538   */\n      0x00\n        /* \"#utility.yul\":3562:3615   */\n      tag_221\n        /* \"#utility.yul\":3607:3614   */\n      dup6\n        /* \"#utility.yul\":3598:3604   */\n      dup3\n        /* \"#utility.yul\":3587:3596   */\n      dup7\n        /* \"#utility.yul\":3583:3605   */\n      add\n        /* \"#utility.yul\":3562:3615   */\n      tag_130\n      jump\t// in\n    tag_221:\n        /* \"#utility.yul\":3552:3615   */\n      swap3\n      pop\n        /* \"#utility.yul\":3508:3625   */\n      pop\n        /* \"#utility.yul\":3664:3666   */\n      0x20\n        /* \"#utility.yul\":3690:3743   */\n      tag_222\n        /* \"#utility.yul\":3735:3742   */\n      dup6\n        /* \"#utility.yul\":3726:3732   */\n      dup3\n        /* \"#utility.yul\":3715:3724   */\n      dup7\n        /* \"#utility.yul\":3711:3733   */\n      add\n        /* \"#utility.yul\":3690:3743   */\n      tag_124\n      jump\t// in\n    tag_222:\n        /* \"#utility.yul\":3680:3743   */\n      swap2\n      pop\n        /* \"#utility.yul\":3635:3753   */\n      pop\n        /* \"#utility.yul\":3286:3760   */\n      swap3\n      pop\n      swap3\n      swap1\n      pop\n      jump\t// out\n        /* \"#utility.yul\":3766:3884   */\n    tag_131:\n        /* \"#utility.yul\":3853:3877   */\n      tag_224\n        /* \"#utility.yul\":3871:3876   */\n      dup2\n        /* \"#utility.yul\":3853:3877   */\n      tag_119\n      jump\t// in\n    tag_224:\n        /* \"#utility.yul\":3848:3851   */\n      dup3\n        /* \"#utility.yul\":3841:3878   */\n      mstore\n        /* \"#utility.yul\":3766:3884   */\n      pop\n      pop\n      jump\t// out\n        /* \"#utility.yul\":3890:4112   */\n    tag_26:\n        /* \"#utility.yul\":3983:3987   */\n      0x00\n        /* \"#utility.yul\":4021:4023   */\n      0x20\n        /* \"#utility.yul\":4010:4019   */\n      dup3\n        /* \"#utility.yul\":4006:4024   */\n      add\n        /* \"#utility.yul\":3998:4024   */\n      swap1\n      pop\n        /* \"#utility.yul\":4034:4105   */\n      tag_226\n        /* \"#utility.yul\":4102:4103   */\n      0x00\n        /* \"#utility.yul\":4091:4100   */\n      dup4\n        /* \"#utility.yul\":4087:4104   */\n      add\n        /* \"#utility.yul\":4078:4084   */\n      dup5\n        /* \"#utility.yul\":4034:4105   */\n      tag_131\n      jump\t// in\n    tag_226:\n        /* \"#utility.yul\":3890:4112   */\n      swap3\n      swap2\n      pop\n      pop\n      jump\t// out\n        /* \"#utility.yul\":4118:4447   */\n    tag_34:\n        /* \"#utility.yul\":4177:4183   */\n      0x00\n        /* \"#utility.yul\":4226:4228   */\n      0x20\n        /* \"#utility.yul\":4214:4223   */\n      dup3\n        /* \"#utility.yul\":4205:4212   */\n      dup5\n        /* \"#utility.yul\":4201:4224   */\n      sub\n        /* \"#utility.yul\":4197:4229   */\n      slt\n        /* \"#utility.yul\":4194:4313   */\n      iszero\n      tag_228\n      jumpi\n        /* \"#utility.yul\":4232:4311   */\n      tag_229\n      tag_117\n      jump\t// in\n    tag_229:\n        /* \"#utility.yul\":4194:4313   */\n    tag_228:\n        /* \"#utility.yul\":4352:4353   */\n      0x00\n        /* \"#utility.yul\":4377:4430   */\n      tag_230\n        /* \"#utility.yul\":4422:4429   */\n      dup5\n        /* \"#utility.yul\":4413:4419   */\n      dup3\n        /* \"#utility.yul\":4402:4411   */\n      dup6\n        /* \"#utility.yul\":4398:4420   */\n      add\n        /* \"#utility.yul\":4377:4430   */\n      tag_130\n      jump\t// in\n    tag_230:\n        /* \"#utility.yul\":4367:4430   */\n      swap2\n      pop\n        /* \"#utility.yul\":4323:4440   */\n      pop\n        /* \"#utility.yul\":4118:4447   */\n      swap3\n      swap2\n      pop\n      pop\n      jump\t// out\n        /* \"#utility.yul\":4453:4552   */\n    tag_132:\n        /* \"#utility.yul\":4505:4511   */\n      0x00\n        /* \"#utility.yul\":4539:4544   */\n      dup2\n        /* \"#utility.yul\":4533:4545   */\n      mload\n        /* \"#utility.yul\":4523:4545   */\n      swap1\n      pop\n        /* \"#utility.yul\":4453:4552   */\n      swap2\n      swap1\n      pop\n      jump\t// out\n        /* \"#utility.yul\":4558:4727   */\n    tag_133:\n        /* \"#utility.yul\":4642:4653   */\n      0x00\n        /* \"#utility.yul\":4676:4682   */\n      dup3\n        /* \"#utility.yul\":4671:4674   */\n      dup3\n        /* \"#utility.yul\":4664:4683   */\n      mstore\n        /* \"#utility.yul\":4716:4720   */\n      0x20\n        /* \"#utility.yul\":4711:4714   */\n      dup3\n        /* \"#utility.yul\":4707:4721   */\n      add\n        /* \"#utility.yul\":4692:4721   */\n      swap1\n      pop\n        /* \"#utility.yul\":4558:4727   */\n      swap3\n      swap2\n      pop\n      pop\n      jump\t// out\n        /* \"#utility.yul\":4733:4872   */\n    tag_134:\n        /* \"#utility.yul\":4822:4828   */\n      dup3\n        /* \"#utility.yul\":4817:4820   */\n      dup2\n        /* \"#utility.yul\":4812:4815   */\n      dup4\n        /* \"#utility.yul\":4806:4829   */\n      mcopy\n        /* \"#utility.yul\":4863:4864   */\n      0x00\n        /* \"#utility.yul\":4854:4860   */\n      dup4\n        /* \"#utility.yul\":4849:4852   */\n      dup4\n        /* \"#utility.yul\":4845:4861   */\n      add\n        /* \"#utility.yul\":4838:4865   */\n      mstore\n        /* \"#utility.yul\":4733:4872   */\n      pop\n      pop\n      pop\n      jump\t// out\n        /* \"#utility.yul\":4878:4980   */\n    tag_135:\n        /* \"#utility.yul\":4919:4925   */\n      0x00\n        /* \"#utility.yul\":4970:4972   */\n      0x1f\n        /* \"#utility.yul\":4966:4973   */\n      not\n        /* \"#utility.yul\":4961:4963   */\n      0x1f\n        /* \"#utility.yul\":4954:4959   */\n      dup4\n        /* \"#utility.yul\":4950:4964   */\n      add\n        /* \"#utility.yul\":4946:4974   */\n      and\n        /* \"#utility.yul\":4936:4974   */\n      swap1\n      pop\n        /* \"#utility.yul\":4878:4980   */\n      swap2\n      swap1\n      pop\n      jump\t// out\n        /* \"#utility.yul\":4986:5363   */\n    tag_136:\n        /* \"#utility.yul\":5074:5077   */\n      0x00\n        /* \"#utility.yul\":5102:5141   */\n      tag_236\n        /* \"#utility.yul\":5135:5140   */\n      dup3\n        /* \"#utility.yul\":5102:5141   */\n      tag_132\n      jump\t// in\n    tag_236:\n        /* \"#utility.yul\":5157:5228   */\n      tag_237\n        /* \"#utility.yul\":5221:5227   */\n      dup2\n        /* \"#utility.yul\":5216:5219   */\n      dup6\n        /* \"#utility.yul\":5157:5228   */\n      tag_133\n      jump\t// in\n    tag_237:\n        /* \"#utility.yul\":5150:5228   */\n      swap4\n      pop\n        /* \"#utility.yul\":5237:5302   */\n      tag_238\n        /* \"#utility.yul\":5295:5301   */\n      dup2\n        /* \"#utility.yul\":5290:5293   */\n      dup6\n        /* \"#utility.yul\":5283:5287   */\n      0x20\n        /* \"#utility.yul\":5276:5281   */\n      dup7\n        /* \"#utility.yul\":5272:5288   */\n      add\n        /* \"#utility.yul\":5237:5302   */\n      tag_134\n      jump\t// in\n    tag_238:\n        /* \"#utility.yul\":5327:5356   */\n      tag_239\n        /* \"#utility.yul\":5349:5355   */\n      dup2\n        /* \"#utility.yul\":5327:5356   */\n      tag_135\n      jump\t// in\n    tag_239:\n        /* \"#utility.yul\":5322:5325   */\n      dup5\n        /* \"#utility.yul\":5318:5357   */\n      add\n        /* \"#utility.yul\":5311:5357   */\n      swap2\n      pop\n        /* \"#utility.yul\":5078:5363   */\n      pop\n        /* \"#utility.yul\":4986:5363   */\n      swap3\n      swap2\n      pop\n      pop\n      jump\t// out\n        /* \"#utility.yul\":5369:5682   */\n    tag_37:\n        /* \"#utility.yul\":5482:5486   */\n      0x00\n        /* \"#utility.yul\":5520:5522   */\n      0x20\n        /* \"#utility.yul\":5509:5518   */\n      dup3\n        /* \"#utility.yul\":5505:5523   */\n      add\n        /* \"#utility.yul\":5497:5523   */\n      swap1\n      pop\n        /* \"#utility.yul\":5569:5578   */\n      dup2\n        /* \"#utility.yul\":5563:5567   */\n      dup2\n        /* \"#utility.yul\":5559:5579   */\n      sub\n        /* \"#utility.yul\":5555:5556   */\n      0x00\n        /* \"#utility.yul\":5544:5553   */\n      dup4\n        /* \"#utility.yul\":5540:5557   */\n      add\n        /* \"#utility.yul\":5533:5580   */\n      mstore\n        /* \"#utility.yul\":5597:5675   */\n      tag_241\n        /* \"#utility.yul\":5670:5674   */\n      dup2\n        /* \"#utility.yul\":5661:5667   */\n      dup5\n        /* \"#utility.yul\":5597:5675   */\n      tag_136\n      jump\t// in\n    tag_241:\n        /* \"#utility.yul\":5589:5675   */\n      swap1\n      pop\n        /* \"#utility.yul\":5369:5682   */\n      swap3\n      swap2\n      pop\n      pop\n      jump\t// out\n        /* \"#utility.yul\":5688:5796   */\n    tag_137:\n        /* \"#utility.yul\":5765:5789   */\n      tag_243\n        /* \"#utility.yul\":5783:5788   */\n      dup2\n        /* \"#utility.yul\":5765:5789   */\n      tag_119\n      jump\t// in\n    tag_243:\n        /* \"#utility.yul\":5760:5763   */\n      dup3\n        /* \"#utility.yul\":5753:5790   */\n      mstore\n        /* \"#utility.yul\":5688:5796   */\n      pop\n      pop\n      jump\t// out\n        /* \"#utility.yul\":5802:5906   */\n    tag_138:\n        /* \"#utility.yul\":5847:5854   */\n      0x00\n        /* \"#utility.yul\":5876:5900   */\n      tag_245\n        /* \"#utility.yul\":5894:5899   */\n      dup3\n        /* \"#utility.yul\":5876:5900   */\n      tag_125\n      jump\t// in\n    tag_245:\n        /* \"#utility.yul\":5865:5900   */\n      swap1\n      pop\n        /* \"#utility.yul\":5802:5906   */\n      swap2\n      swap1\n      pop\n      jump\t// out\n        /* \"#utility.yul\":5912:6044   */\n    tag_139:\n        /* \"#utility.yul\":6005:6037   */\n      tag_247\n        /* \"#utility.yul\":6031:6036   */\n      dup2\n        /* \"#utility.yul\":6005:6037   */\n      tag_138\n      jump\t// in\n    tag_247:\n        /* \"#utility.yul\":6000:6003   */\n      dup3\n        /* \"#utility.yul\":5993:6038   */\n      mstore\n        /* \"#utility.yul\":5912:6044   */\n      pop\n      pop\n      jump\t// out\n        /* \"#utility.yul\":6050:6158   */\n    tag_140:\n        /* \"#utility.yul\":6127:6151   */\n      tag_249\n        /* \"#utility.yul\":6145:6150   */\n      dup2\n        /* \"#utility.yul\":6127:6151   */\n      tag_122\n      jump\t// in\n    tag_249:\n        /* \"#utility.yul\":6122:6125   */\n      dup3\n        /* \"#utility.yul\":6115:6152   */\n      mstore\n        /* \"#utility.yul\":6050:6158   */\n      pop\n      pop\n      jump\t// out\n        /* \"#utility.yul\":6164:6254   */\n    tag_141:\n        /* \"#utility.yul\":6198:6205   */\n      0x00\n        /* \"#utility.yul\":6241:6246   */\n      dup2\n        /* \"#utility.yul\":6234:6247   */\n      iszero\n        /* \"#utility.yul\":6227:6248   */\n      iszero\n        /* \"#utility.yul\":6216:6248   */\n      swap1\n      pop\n        /* \"#utility.yul\":6164:6254   */\n      swap2\n      swap1\n      pop\n      jump\t// out\n        /* \"#utility.yul\":6260:6359   */\n    tag_142:\n        /* \"#utility.yul\":6331:6352   */\n      tag_252\n        /* \"#utility.yul\":6346:6351   */\n      dup2\n        /* \"#utility.yul\":6331:6352   */\n      tag_141\n      jump\t// in\n    tag_252:\n        /* \"#utility.yul\":6326:6329   */\n      dup3\n        /* \"#utility.yul\":6319:6353   */\n      mstore\n        /* \"#utility.yul\":6260:6359   */\n      pop\n      pop\n      jump\t// out\n        /* \"#utility.yul\":6421:8588   */\n    tag_143:\n        /* \"#utility.yul\":6564:6570   */\n      0x0160\n        /* \"#utility.yul\":6559:6562   */\n      dup3\n        /* \"#utility.yul\":6555:6571   */\n      add\n        /* \"#utility.yul\":6651:6655   */\n      0x00\n        /* \"#utility.yul\":6644:6649   */\n      dup3\n        /* \"#utility.yul\":6640:6656   */\n      add\n        /* \"#utility.yul\":6634:6657   */\n      mload\n        /* \"#utility.yul\":6670:6733   */\n      tag_254\n        /* \"#utility.yul\":6727:6731   */\n      0x00\n        /* \"#utility.yul\":6722:6725   */\n      dup6\n        /* \"#utility.yul\":6718:6732   */\n      add\n        /* \"#utility.yul\":6704:6716   */\n      dup3\n        /* \"#utility.yul\":6670:6733   */\n      tag_137\n      jump\t// in\n    tag_254:\n        /* \"#utility.yul\":6581:6743   */\n      pop\n        /* \"#utility.yul\":6827:6831   */\n      0x20\n        /* \"#utility.yul\":6820:6825   */\n      dup3\n        /* \"#utility.yul\":6816:6832   */\n      add\n        /* \"#utility.yul\":6810:6833   */\n      mload\n        /* \"#utility.yul\":6846:6925   */\n      tag_255\n        /* \"#utility.yul\":6919:6923   */\n      0x20\n        /* \"#utility.yul\":6914:6917   */\n      dup6\n        /* \"#utility.yul\":6910:6924   */\n      add\n        /* \"#utility.yul\":6896:6908   */\n      dup3\n        /* \"#utility.yul\":6846:6925   */\n      tag_139\n      jump\t// in\n    tag_255:\n        /* \"#utility.yul\":6753:6935   */\n      pop\n        /* \"#utility.yul\":7022:7026   */\n      0x40\n        /* \"#utility.yul\":7015:7020   */\n      dup3\n        /* \"#utility.yul\":7011:7027   */\n      add\n        /* \"#utility.yul\":7005:7028   */\n      mload\n        /* \"#utility.yul\":7041:7120   */\n      tag_256\n        /* \"#utility.yul\":7114:7118   */\n      0x40\n        /* \"#utility.yul\":7109:7112   */\n      dup6\n        /* \"#utility.yul\":7105:7119   */\n      add\n        /* \"#utility.yul\":7091:7103   */\n      dup3\n        /* \"#utility.yul\":7041:7120   */\n      tag_139\n      jump\t// in\n    tag_256:\n        /* \"#utility.yul\":6945:7130   */\n      pop\n        /* \"#utility.yul\":7221:7225   */\n      0x60\n        /* \"#utility.yul\":7214:7219   */\n      dup3\n        /* \"#utility.yul\":7210:7226   */\n      add\n        /* \"#utility.yul\":7204:7227   */\n      mload\n        /* \"#utility.yul\":7240:7303   */\n      tag_257\n        /* \"#utility.yul\":7297:7301   */\n      0x60\n        /* \"#utility.yul\":7292:7295   */\n      dup6\n        /* \"#utility.yul\":7288:7302   */\n      add\n        /* \"#utility.yul\":7274:7286   */\n      dup3\n        /* \"#utility.yul\":7240:7303   */\n      tag_140\n      jump\t// in\n    tag_257:\n        /* \"#utility.yul\":7140:7313   */\n      pop\n        /* \"#utility.yul\":7400:7404   */\n      0x80\n        /* \"#utility.yul\":7393:7398   */\n      dup3\n        /* \"#utility.yul\":7389:7405   */\n      add\n        /* \"#utility.yul\":7383:7406   */\n      mload\n        /* \"#utility.yul\":7419:7482   */\n      tag_258\n        /* \"#utility.yul\":7476:7480   */\n      0x80\n        /* \"#utility.yul\":7471:7474   */\n      dup6\n        /* \"#utility.yul\":7467:7481   */\n      add\n        /* \"#utility.yul\":7453:7465   */\n      dup3\n        /* \"#utility.yul\":7419:7482   */\n      tag_140\n      jump\t// in\n    tag_258:\n        /* \"#utility.yul\":7323:7492   */\n      pop\n        /* \"#utility.yul\":7576:7580   */\n      0xa0\n        /* \"#utility.yul\":7569:7574   */\n      dup3\n        /* \"#utility.yul\":7565:7581   */\n      add\n        /* \"#utility.yul\":7559:7582   */\n      mload\n        /* \"#utility.yul\":7595:7658   */\n      tag_259\n        /* \"#utility.yul\":7652:7656   */\n      0xa0\n        /* \"#utility.yul\":7647:7650   */\n      dup6\n        /* \"#utility.yul\":7643:7657   */\n      add\n        /* \"#utility.yul\":7629:7641   */\n      dup3\n        /* \"#utility.yul\":7595:7658   */\n      tag_140\n      jump\t// in\n    tag_259:\n        /* \"#utility.yul\":7502:7668   */\n      pop\n        /* \"#utility.yul\":7749:7753   */\n      0xc0\n        /* \"#utility.yul\":7742:7747   */\n      dup3\n        /* \"#utility.yul\":7738:7754   */\n      add\n        /* \"#utility.yul\":7732:7755   */\n      mload\n        /* \"#utility.yul\":7768:7831   */\n      tag_260\n        /* \"#utility.yul\":7825:7829   */\n      0xc0\n        /* \"#utility.yul\":7820:7823   */\n      dup6\n        /* \"#utility.yul\":7816:7830   */\n      add\n        /* \"#utility.yul\":7802:7814   */\n      dup3\n        /* \"#utility.yul\":7768:7831   */\n      tag_140\n      jump\t// in\n    tag_260:\n        /* \"#utility.yul\":7678:7841   */\n      pop\n        /* \"#utility.yul\":7935:7939   */\n      0xe0\n        /* \"#utility.yul\":7928:7933   */\n      dup3\n        /* \"#utility.yul\":7924:7940   */\n      add\n        /* \"#utility.yul\":7918:7941   */\n      mload\n        /* \"#utility.yul\":7954:8017   */\n      tag_261\n        /* \"#utility.yul\":8011:8015   */\n      0xe0\n        /* \"#utility.yul\":8006:8009   */\n      dup6\n        /* \"#utility.yul\":8002:8016   */\n      add\n        /* \"#utility.yul\":7988:8000   */\n      dup3\n        /* \"#utility.yul\":7954:8017   */\n      tag_140\n      jump\t// in\n    tag_261:\n        /* \"#utility.yul\":7851:8027   */\n      pop\n        /* \"#utility.yul\":8120:8126   */\n      0x0100\n        /* \"#utility.yul\":8113:8118   */\n      dup3\n        /* \"#utility.yul\":8109:8127   */\n      add\n        /* \"#utility.yul\":8103:8128   */\n      mload\n        /* \"#utility.yul\":8141:8206   */\n      tag_262\n        /* \"#utility.yul\":8198:8204   */\n      0x0100\n        /* \"#utility.yul\":8193:8196   */\n      dup6\n        /* \"#utility.yul\":8189:8205   */\n      add\n        /* \"#utility.yul\":8175:8187   */\n      dup3\n        /* \"#utility.yul\":8141:8206   */\n      tag_140\n      jump\t// in\n    tag_262:\n        /* \"#utility.yul\":8037:8216   */\n      pop\n        /* \"#utility.yul\":8307:8313   */\n      0x0120\n        /* \"#utility.yul\":8300:8305   */\n      dup3\n        /* \"#utility.yul\":8296:8314   */\n      add\n        /* \"#utility.yul\":8290:8315   */\n      mload\n        /* \"#utility.yul\":8328:8387   */\n      tag_263\n        /* \"#utility.yul\":8379:8385   */\n      0x0120\n        /* \"#utility.yul\":8374:8377   */\n      dup6\n        /* \"#utility.yul\":8370:8386   */\n      add\n        /* \"#utility.yul\":8356:8368   */\n      dup3\n        /* \"#utility.yul\":8328:8387   */\n      tag_142\n      jump\t// in\n    tag_263:\n        /* \"#utility.yul\":8226:8397   */\n      pop\n        /* \"#utility.yul\":8491:8497   */\n      0x0140\n        /* \"#utility.yul\":8484:8489   */\n      dup3\n        /* \"#utility.yul\":8480:8498   */\n      add\n        /* \"#utility.yul\":8474:8499   */\n      mload\n        /* \"#utility.yul\":8512:8571   */\n      tag_264\n        /* \"#utility.yul\":8563:8569   */\n      0x0140\n        /* \"#utility.yul\":8558:8561   */\n      dup6\n        /* \"#utility.yul\":8554:8570   */\n      add\n        /* \"#utility.yul\":8540:8552   */\n      dup3\n        /* \"#utility.yul\":8512:8571   */\n      tag_142\n      jump\t// in\n    tag_264:\n        /* \"#utility.yul\":8407:8581   */\n      pop\n        /* \"#utility.yul\":6533:8588   */\n      pop\n        /* \"#utility.yul\":6421:8588   */\n      pop\n      pop\n      jump\t// out\n        /* \"#utility.yul\":8594:8909   */\n    tag_43:\n        /* \"#utility.yul\":8733:8737   */\n      0x00\n        /* \"#utility.yul\":8771:8774   */\n      0x0160\n        /* \"#utility.yul\":8760:8769   */\n      dup3\n        /* \"#utility.yul\":8756:8775   */\n      add\n        /* \"#utility.yul\":8748:8775   */\n      swap1\n      pop\n        /* \"#utility.yul\":8785:8902   */\n      tag_266\n        /* \"#utility.yul\":8899:8900   */\n      0x00\n        /* \"#utility.yul\":8888:8897   */\n      dup4\n        /* \"#utility.yul\":8884:8901   */\n      add\n        /* \"#utility.yul\":8875:8881   */\n      dup5\n        /* \"#utility.yul\":8785:8902   */\n      tag_143\n      jump\t// in\n    tag_266:\n        /* \"#utility.yul\":8594:8909   */\n      swap3\n      swap2\n      pop\n      pop\n      jump\t// out\n        /* \"#utility.yul\":8915:9137   */\n    tag_49:\n        /* \"#utility.yul\":9008:9012   */\n      0x00\n        /* \"#utility.yul\":9046:9048   */\n      0x20\n        /* \"#utility.yul\":9035:9044   */\n      dup3\n        /* \"#utility.yul\":9031:9049   */\n      add\n        /* \"#utility.yul\":9023:9049   */\n      swap1\n      pop\n        /* \"#utility.yul\":9059:9130   */\n      tag_268\n        /* \"#utility.yul\":9127:9128   */\n      0x00\n        /* \"#utility.yul\":9116:9125   */\n      dup4\n        /* \"#utility.yul\":9112:9129   */\n      add\n        /* \"#utility.yul\":9103:9109   */\n      dup5\n        /* \"#utility.yul\":9059:9130   */\n      tag_128\n      jump\t// in\n    tag_268:\n        /* \"#utility.yul\":8915:9137   */\n      swap3\n      swap2\n      pop\n      pop\n      jump\t// out\n        /* \"#utility.yul\":9143:9310   */\n    tag_144:\n        /* \"#utility.yul\":9283:9302   */\n      0x4f6e6c79207061727469636970616e7473000000000000000000000000000000\n        /* \"#utility.yul\":9279:9280   */\n      0x00\n        /* \"#utility.yul\":9271:9277   */\n      dup3\n        /* \"#utility.yul\":9267:9281   */\n      add\n        /* \"#utility.yul\":9260:9303   */\n      mstore\n        /* \"#utility.yul\":9143:9310   */\n      pop\n      jump\t// out\n        /* \"#utility.yul\":9316:9682   */\n    tag_145:\n        /* \"#utility.yul\":9458:9461   */\n      0x00\n        /* \"#utility.yul\":9479:9546   */\n      tag_271\n        /* \"#utility.yul\":9543:9545   */\n      0x11\n        /* \"#utility.yul\":9538:9541   */\n      dup4\n        /* \"#utility.yul\":9479:9546   */\n      tag_133\n      jump\t// in\n    tag_271:\n        /* \"#utility.yul\":9472:9546   */\n      swap2\n      pop\n        /* \"#utility.yul\":9555:9648   */\n      tag_272\n        /* \"#utility.yul\":9644:9647   */\n      dup3\n        /* \"#utility.yul\":9555:9648   */\n      tag_144\n      jump\t// in\n    tag_272:\n        /* \"#utility.yul\":9673:9675   */\n      0x20\n        /* \"#utility.yul\":9668:9671   */\n      dup3\n        /* \"#utility.yul\":9664:9676   */\n      add\n        /* \"#utility.yul\":9657:9676   */\n      swap1\n      pop\n        /* \"#utility.yul\":9316:9682   */\n      swap2\n      swap1\n      pop\n      jump\t// out\n        /* \"#utility.yul\":9688:10107   */\n    tag_54:\n        /* \"#utility.yul\":9854:9858   */\n      0x00\n        /* \"#utility.yul\":9892:9894   */\n      0x20\n        /* \"#utility.yul\":9881:9890   */\n      dup3\n        /* \"#utility.yul\":9877:9895   */\n      add\n        /* \"#utility.yul\":9869:9895   */\n      swap1\n      pop\n        /* \"#utility.yul\":9941:9950   */\n      dup2\n        /* \"#utility.yul\":9935:9939   */\n      dup2\n        /* \"#utility.yul\":9931:9951   */\n      sub\n        /* \"#utility.yul\":9927:9928   */\n      0x00\n        /* \"#utility.yul\":9916:9925   */\n      dup4\n        /* \"#utility.yul\":9912:9929   */\n      add\n        /* \"#utility.yul\":9905:9952   */\n      mstore\n        /* \"#utility.yul\":9969:10100   */\n      tag_274\n        /* \"#utility.yul\":10095:10099   */\n      dup2\n        /* \"#utility.yul\":9969:10100   */\n      tag_145\n      jump\t// in\n    tag_274:\n        /* \"#utility.yul\":9961:10100   */\n      swap1\n      pop\n        /* \"#utility.yul\":9688:10107   */\n      swap2\n      swap1\n      pop\n      jump\t// out\n        /* \"#utility.yul\":10113:10349   */\n    tag_146:\n        /* \"#utility.yul\":10253:10287   */\n      0x54686973206368616e6e656c206973206e6f7420756e6465722077616974696e\n        /* \"#utility.yul\":10249:10250   */\n      0x00\n        /* \"#utility.yul\":10241:10247   */\n      dup3\n        /* \"#utility.yul\":10237:10251   */\n      add\n        /* \"#utility.yul\":10230:10288   */\n      mstore\n        /* \"#utility.yul\":10322:10341   */\n      0x672d636c6f7375726520706572696f642e000000000000000000000000000000\n        /* \"#utility.yul\":10317:10319   */\n      0x20\n        /* \"#utility.yul\":10309:10315   */\n      dup3\n        /* \"#utility.yul\":10305:10320   */\n      add\n        /* \"#utility.yul\":10298:10342   */\n      mstore\n        /* \"#utility.yul\":10113:10349   */\n      pop\n      jump\t// out\n        /* \"#utility.yul\":10355:10721   */\n    tag_147:\n        /* \"#utility.yul\":10497:10500   */\n      0x00\n        /* \"#utility.yul\":10518:10585   */\n      tag_277\n        /* \"#utility.yul\":10582:10584   */\n      0x31\n        /* \"#utility.yul\":10577:10580   */\n      dup4\n        /* \"#utility.yul\":10518:10585   */\n      tag_133\n      jump\t// in\n    tag_277:\n        /* \"#utility.yul\":10511:10585   */\n      swap2\n      pop\n        /* \"#utility.yul\":10594:10687   */\n      tag_278\n        /* \"#utility.yul\":10683:10686   */\n      dup3\n        /* \"#utility.yul\":10594:10687   */\n      tag_146\n      jump\t// in\n    tag_278:\n        /* \"#utility.yul\":10712:10714   */\n      0x40\n        /* \"#utility.yul\":10707:10710   */\n      dup3\n        /* \"#utility.yul\":10703:10715   */\n      add\n        /* \"#utility.yul\":10696:10715   */\n      swap1\n      pop\n        /* \"#utility.yul\":10355:10721   */\n      swap2\n      swap1\n      pop\n      jump\t// out\n        /* \"#utility.yul\":10727:11146   */\n    tag_58:\n        /* \"#utility.yul\":10893:10897   */\n      0x00\n        /* \"#utility.yul\":10931:10933   */\n      0x20\n        /* \"#utility.yul\":10920:10929   */\n      dup3\n        /* \"#utility.yul\":10916:10934   */\n      add\n        /* \"#utility.yul\":10908:10934   */\n      swap1\n      pop\n        /* \"#utility.yul\":10980:10989   */\n      dup2\n        /* \"#utility.yul\":10974:10978   */\n      dup2\n        /* \"#utility.yul\":10970:10990   */\n      sub\n        /* \"#utility.yul\":10966:10967   */\n      0x00\n        /* \"#utility.yul\":10955:10964   */\n      dup4\n        /* \"#utility.yul\":10951:10968   */\n      add\n        /* \"#utility.yul\":10944:10991   */\n      mstore\n        /* \"#utility.yul\":11008:11139   */\n      tag_280\n        /* \"#utility.yul\":11134:11138   */\n      dup2\n        /* \"#utility.yul\":11008:11139   */\n      tag_147\n      jump\t// in\n    tag_280:\n        /* \"#utility.yul\":11000:11139   */\n      swap1\n      pop\n        /* \"#utility.yul\":10727:11146   */\n      swap2\n      swap1\n      pop\n      jump\t// out\n        /* \"#utility.yul\":11152:11332   */\n    tag_148:\n        /* \"#utility.yul\":11200:11277   */\n      0x4e487b7100000000000000000000000000000000000000000000000000000000\n        /* \"#utility.yul\":11197:11198   */\n      0x00\n        /* \"#utility.yul\":11190:11278   */\n      mstore\n        /* \"#utility.yul\":11297:11301   */\n      0x11\n        /* \"#utility.yul\":11294:11295   */\n      0x04\n        /* \"#utility.yul\":11287:11302   */\n      mstore\n        /* \"#utility.yul\":11321:11325   */\n      0x24\n        /* \"#utility.yul\":11318:11319   */\n      0x00\n        /* \"#utility.yul\":11311:11326   */\n      revert\n        /* \"#utility.yul\":11338:11529   */\n    tag_60:\n        /* \"#utility.yul\":11378:11381   */\n      0x00\n        /* \"#utility.yul\":11397:11417   */\n      tag_283\n        /* \"#utility.yul\":11415:11416   */\n      dup3\n        /* \"#utility.yul\":11397:11417   */\n      tag_122\n      jump\t// in\n    tag_283:\n        /* \"#utility.yul\":11392:11417   */\n      swap2\n      pop\n        /* \"#utility.yul\":11431:11451   */\n      tag_284\n        /* \"#utility.yul\":11449:11450   */\n      dup4\n        /* \"#utility.yul\":11431:11451   */\n      tag_122\n      jump\t// in\n    tag_284:\n        /* \"#utility.yul\":11426:11451   */\n      swap3\n      pop\n        /* \"#utility.yul\":11474:11475   */\n      dup3\n        /* \"#utility.yul\":11471:11472   */\n      dup3\n        /* \"#utility.yul\":11467:11476   */\n      add\n        /* \"#utility.yul\":11460:11476   */\n      swap1\n      pop\n        /* \"#utility.yul\":11495:11498   */\n      dup1\n        /* \"#utility.yul\":11492:11493   */\n      dup3\n        /* \"#utility.yul\":11489:11499   */\n      gt\n        /* \"#utility.yul\":11486:11522   */\n      iszero\n      tag_285\n      jumpi\n        /* \"#utility.yul\":11502:11520   */\n      tag_286\n      tag_148\n      jump\t// in\n    tag_286:\n        /* \"#utility.yul\":11486:11522   */\n    tag_285:\n        /* \"#utility.yul\":11338:11529   */\n      swap3\n      swap2\n      pop\n      pop\n      jump\t// out\n        /* \"#utility.yul\":11535:11712   */\n    tag_149:\n        /* \"#utility.yul\":11675:11704   */\n      0x4469737075746520706572696f642068617320657870697265642e0000000000\n        /* \"#utility.yul\":11671:11672   */\n      0x00\n        /* \"#utility.yul\":11663:11669   */\n      dup3\n        /* \"#utility.yul\":11659:11673   */\n      add\n        /* \"#utility.yul\":11652:11705   */\n      mstore\n        /* \"#utility.yul\":11535:11712   */\n      pop\n      jump\t// out\n        /* \"#utility.yul\":11718:12084   */\n    tag_150:\n        /* \"#utility.yul\":11860:11863   */\n      0x00\n        /* \"#utility.yul\":11881:11948   */\n      tag_289\n        /* \"#utility.yul\":11945:11947   */\n      0x1b\n        /* \"#utility.yul\":11940:11943   */\n      dup4\n        /* \"#utility.yul\":11881:11948   */\n      tag_133\n      jump\t// in\n    tag_289:\n        /* \"#utility.yul\":11874:11948   */\n      swap2\n      pop\n        /* \"#utility.yul\":11957:12050   */\n      tag_290\n        /* \"#utility.yul\":12046:12049   */\n      dup3\n        /* \"#utility.yul\":11957:12050   */\n      tag_149\n      jump\t// in\n    tag_290:\n        /* \"#utility.yul\":12075:12077   */\n      0x20\n        /* \"#utility.yul\":12070:12073   */\n      dup3\n        /* \"#utility.yul\":12066:12078   */\n      add\n        /* \"#utility.yul\":12059:12078   */\n      swap1\n      pop\n        /* \"#utility.yul\":11718:12084   */\n      swap2\n      swap1\n      pop\n      jump\t// out\n        /* \"#utility.yul\":12090:12509   */\n    tag_63:\n        /* \"#utility.yul\":12256:12260   */\n      0x00\n        /* \"#utility.yul\":12294:12296   */\n      0x20\n        /* \"#utility.yul\":12283:12292   */\n      dup3\n        /* \"#utility.yul\":12279:12297   */\n      add\n        /* \"#utility.yul\":12271:12297   */\n      swap1\n      pop\n        /* \"#utility.yul\":12343:12352   */\n      dup2\n        /* \"#utility.yul\":12337:12341   */\n      dup2\n        /* \"#utility.yul\":12333:12353   */\n      sub\n        /* \"#utility.yul\":12329:12330   */\n      0x00\n        /* \"#utility.yul\":12318:12327   */\n      dup4\n        /* \"#utility.yul\":12314:12331   */\n      add\n        /* \"#utility.yul\":12307:12354   */\n      mstore\n        /* \"#utility.yul\":12371:12502   */\n      tag_292\n        /* \"#utility.yul\":12497:12501   */\n      dup2\n        /* \"#utility.yul\":12371:12502   */\n      tag_150\n      jump\t// in\n    tag_292:\n        /* \"#utility.yul\":12363:12502   */\n      swap1\n      pop\n        /* \"#utility.yul\":12090:12509   */\n      swap2\n      swap1\n      pop\n      jump\t// out\n        /* \"#utility.yul\":12515:12765   */\n    tag_151:\n        /* \"#utility.yul\":12655:12689   */\n      0x4974207365656d7320746865726520697320612064697370757465206f766572\n        /* \"#utility.yul\":12651:12652   */\n      0x00\n        /* \"#utility.yul\":12643:12649   */\n      dup3\n        /* \"#utility.yul\":12639:12653   */\n      add\n        /* \"#utility.yul\":12632:12690   */\n      mstore\n        /* \"#utility.yul\":12724:12757   */\n      0x207468652066696e616c2073746174652c20676f207265706f72742069742e00\n        /* \"#utility.yul\":12719:12721   */\n      0x20\n        /* \"#utility.yul\":12711:12717   */\n      dup3\n        /* \"#utility.yul\":12707:12722   */\n      add\n        /* \"#utility.yul\":12700:12758   */\n      mstore\n        /* \"#utility.yul\":12515:12765   */\n      pop\n      jump\t// out\n        /* \"#utility.yul\":12771:13137   */\n    tag_152:\n        /* \"#utility.yul\":12913:12916   */\n      0x00\n        /* \"#utility.yul\":12934:13001   */\n      tag_295\n        /* \"#utility.yul\":12998:13000   */\n      0x3f\n        /* \"#utility.yul\":12993:12996   */\n      dup4\n        /* \"#utility.yul\":12934:13001   */\n      tag_133\n      jump\t// in\n    tag_295:\n        /* \"#utility.yul\":12927:13001   */\n      swap2\n      pop\n        /* \"#utility.yul\":13010:13103   */\n      tag_296\n        /* \"#utility.yul\":13099:13102   */\n      dup3\n        /* \"#utility.yul\":13010:13103   */\n      tag_151\n      jump\t// in\n    tag_296:\n        /* \"#utility.yul\":13128:13130   */\n      0x40\n        /* \"#utility.yul\":13123:13126   */\n      dup3\n        /* \"#utility.yul\":13119:13131   */\n      add\n        /* \"#utility.yul\":13112:13131   */\n      swap1\n      pop\n        /* \"#utility.yul\":12771:13137   */\n      swap2\n      swap1\n      pop\n      jump\t// out\n        /* \"#utility.yul\":13143:13562   */\n    tag_66:\n        /* \"#utility.yul\":13309:13313   */\n      0x00\n        /* \"#utility.yul\":13347:13349   */\n      0x20\n        /* \"#utility.yul\":13336:13345   */\n      dup3\n        /* \"#utility.yul\":13332:13350   */\n      add\n        /* \"#utility.yul\":13324:13350   */\n      swap1\n      pop\n        /* \"#utility.yul\":13396:13405   */\n      dup2\n        /* \"#utility.yul\":13390:13394   */\n      dup2\n        /* \"#utility.yul\":13386:13406   */\n      sub\n        /* \"#utility.yul\":13382:13383   */\n      0x00\n        /* \"#utility.yul\":13371:13380   */\n      dup4\n        /* \"#utility.yul\":13367:13384   */\n      add\n        /* \"#utility.yul\":13360:13407   */\n      mstore\n        /* \"#utility.yul\":13424:13555   */\n      tag_298\n        /* \"#utility.yul\":13550:13554   */\n      dup2\n        /* \"#utility.yul\":13424:13555   */\n      tag_152\n      jump\t// in\n    tag_298:\n        /* \"#utility.yul\":13416:13555   */\n      swap1\n      pop\n        /* \"#utility.yul\":13143:13562   */\n      swap2\n      swap1\n      pop\n      jump\t// out\n        /* \"#utility.yul\":13568:13794   */\n    tag_153:\n        /* \"#utility.yul\":13708:13742   */\n      0x4f6e6c7920726563697069656e742063616e20636f6e6669726d20636c6f7375\n        /* \"#utility.yul\":13704:13705   */\n      0x00\n        /* \"#utility.yul\":13696:13702   */\n      dup3\n        /* \"#utility.yul\":13692:13706   */\n      add\n        /* \"#utility.yul\":13685:13743   */\n      mstore\n        /* \"#utility.yul\":13777:13786   */\n      0x7265206e6f772e00000000000000000000000000000000000000000000000000\n        /* \"#utility.yul\":13772:13774   */\n      0x20\n        /* \"#utility.yul\":13764:13770   */\n      dup3\n        /* \"#utility.yul\":13760:13775   */\n      add\n        /* \"#utility.yul\":13753:13787   */\n      mstore\n        /* \"#utility.yul\":13568:13794   */\n      pop\n      jump\t// out\n        /* \"#utility.yul\":13800:14166   */\n    tag_154:\n        /* \"#utility.yul\":13942:13945   */\n      0x00\n        /* \"#utility.yul\":13963:14030   */\n      tag_301\n        /* \"#utility.yul\":14027:14029   */\n      0x27\n        /* \"#utility.yul\":14022:14025   */\n      dup4\n        /* \"#utility.yul\":13963:14030   */\n      tag_133\n      jump\t// in\n    tag_301:\n        /* \"#utility.yul\":13956:14030   */\n      swap2\n      pop\n        /* \"#utility.yul\":14039:14132   */\n      tag_302\n        /* \"#utility.yul\":14128:14131   */\n      dup3\n        /* \"#utility.yul\":14039:14132   */\n      tag_153\n      jump\t// in\n    tag_302:\n        /* \"#utility.yul\":14157:14159   */\n      0x40\n        /* \"#utility.yul\":14152:14155   */\n      dup3\n        /* \"#utility.yul\":14148:14160   */\n      add\n        /* \"#utility.yul\":14141:14160   */\n      swap1\n      pop\n        /* \"#utility.yul\":13800:14166   */\n      swap2\n      swap1\n      pop\n      jump\t// out\n        /* \"#utility.yul\":14172:14591   */\n    tag_70:\n        /* \"#utility.yul\":14338:14342   */\n      0x00\n        /* \"#utility.yul\":14376:14378   */\n      0x20\n        /* \"#utility.yul\":14365:14374   */\n      dup3\n        /* \"#utility.yul\":14361:14379   */\n      add\n        /* \"#utility.yul\":14353:14379   */\n      swap1\n      pop\n        /* \"#utility.yul\":14425:14434   */\n      dup2\n        /* \"#utility.yul\":14419:14423   */\n      dup2\n        /* \"#utility.yul\":14415:14435   */\n      sub\n        /* \"#utility.yul\":14411:14412   */\n      0x00\n        /* \"#utility.yul\":14400:14409   */\n      dup4\n        /* \"#utility.yul\":14396:14413   */\n      add\n        /* \"#utility.yul\":14389:14436   */\n      mstore\n        /* \"#utility.yul\":14453:14584   */\n      tag_304\n        /* \"#utility.yul\":14579:14583   */\n      dup2\n        /* \"#utility.yul\":14453:14584   */\n      tag_154\n      jump\t// in\n    tag_304:\n        /* \"#utility.yul\":14445:14584   */\n      swap1\n      pop\n        /* \"#utility.yul\":14172:14591   */\n      swap2\n      swap1\n      pop\n      jump\t// out\n        /* \"#utility.yul\":14597:14820   */\n    tag_155:\n        /* \"#utility.yul\":14737:14771   */\n      0x4f6e6c792073656e6465722063616e20636f6e6669726d20636c6f7375726520\n        /* \"#utility.yul\":14733:14734   */\n      0x00\n        /* \"#utility.yul\":14725:14731   */\n      dup3\n        /* \"#utility.yul\":14721:14735   */\n      add\n        /* \"#utility.yul\":14714:14772   */\n      mstore\n        /* \"#utility.yul\":14806:14812   */\n      0x6e6f772e00000000000000000000000000000000000000000000000000000000\n        /* \"#utility.yul\":14801:14803   */\n      0x20\n        /* \"#utility.yul\":14793:14799   */\n      dup3\n        /* \"#utility.yul\":14789:14804   */\n      add\n        /* \"#utility.yul\":14782:14813   */\n      mstore\n        /* \"#utility.yul\":14597:14820   */\n      pop\n      jump\t// out\n        /* \"#utility.yul\":14826:15192   */\n    tag_156:\n        /* \"#utility.yul\":14968:14971   */\n      0x00\n        /* \"#utility.yul\":14989:15056   */\n      tag_307\n        /* \"#utility.yul\":15053:15055   */\n      0x24\n        /* \"#utility.yul\":15048:15051   */\n      dup4\n        /* \"#utility.yul\":14989:15056   */\n      tag_133\n      jump\t// in\n    tag_307:\n        /* \"#utility.yul\":14982:15056   */\n      swap2\n      pop\n        /* \"#utility.yul\":15065:15158   */\n      tag_308\n        /* \"#utility.yul\":15154:15157   */\n      dup3\n        /* \"#utility.yul\":15065:15158   */\n      tag_155\n      jump\t// in\n    tag_308:\n        /* \"#utility.yul\":15183:15185   */\n      0x40\n        /* \"#utility.yul\":15178:15181   */\n      dup3\n        /* \"#utility.yul\":15174:15186   */\n      add\n        /* \"#utility.yul\":15167:15186   */\n      swap1\n      pop\n        /* \"#utility.yul\":14826:15192   */\n      swap2\n      swap1\n      pop\n      jump\t// out\n        /* \"#utility.yul\":15198:15617   */\n    tag_74:\n        /* \"#utility.yul\":15364:15368   */\n      0x00\n        /* \"#utility.yul\":15402:15404   */\n      0x20\n        /* \"#utility.yul\":15391:15400   */\n      dup3\n        /* \"#utility.yul\":15387:15405   */\n      add\n        /* \"#utility.yul\":15379:15405   */\n      swap1\n      pop\n        /* \"#utility.yul\":15451:15460   */\n      dup2\n        /* \"#utility.yul\":15445:15449   */\n      dup2\n        /* \"#utility.yul\":15441:15461   */\n      sub\n        /* \"#utility.yul\":15437:15438   */\n      0x00\n        /* \"#utility.yul\":15426:15435   */\n      dup4\n        /* \"#utility.yul\":15422:15439   */\n      add\n        /* \"#utility.yul\":15415:15462   */\n      mstore\n        /* \"#utility.yul\":15479:15610   */\n      tag_310\n        /* \"#utility.yul\":15605:15609   */\n      dup2\n        /* \"#utility.yul\":15479:15610   */\n      tag_156\n      jump\t// in\n    tag_310:\n        /* \"#utility.yul\":15471:15610   */\n      swap1\n      pop\n        /* \"#utility.yul\":15198:15617   */\n      swap2\n      swap1\n      pop\n      jump\t// out\n        /* \"#utility.yul\":15623:15817   */\n    tag_76:\n        /* \"#utility.yul\":15663:15667   */\n      0x00\n        /* \"#utility.yul\":15683:15703   */\n      tag_312\n        /* \"#utility.yul\":15701:15702   */\n      dup3\n        /* \"#utility.yul\":15683:15703   */\n      tag_122\n      jump\t// in\n    tag_312:\n        /* \"#utility.yul\":15678:15703   */\n      swap2\n      pop\n        /* \"#utility.yul\":15717:15737   */\n      tag_313\n        /* \"#utility.yul\":15735:15736   */\n      dup4\n        /* \"#utility.yul\":15717:15737   */\n      tag_122\n      jump\t// in\n    tag_313:\n        /* \"#utility.yul\":15712:15737   */\n      swap3\n      pop\n        /* \"#utility.yul\":15761:15762   */\n      dup3\n        /* \"#utility.yul\":15758:15759   */\n      dup3\n        /* \"#utility.yul\":15754:15763   */\n      sub\n        /* \"#utility.yul\":15746:15763   */\n      swap1\n      pop\n        /* \"#utility.yul\":15785:15786   */\n      dup2\n        /* \"#utility.yul\":15779:15783   */\n      dup2\n        /* \"#utility.yul\":15776:15787   */\n      gt\n        /* \"#utility.yul\":15773:15810   */\n      iszero\n      tag_314\n      jumpi\n        /* \"#utility.yul\":15790:15808   */\n      tag_315\n      tag_148\n      jump\t// in\n    tag_315:\n        /* \"#utility.yul\":15773:15810   */\n    tag_314:\n        /* \"#utility.yul\":15623:15817   */\n      swap3\n      swap2\n      pop\n      pop\n      jump\t// out\n        /* \"#utility.yul\":15823:15999   */\n    tag_157:\n        /* \"#utility.yul\":15963:15991   */\n      0x53656e6465722063616e6e6f7420626520726563697069656e74000000000000\n        /* \"#utility.yul\":15959:15960   */\n      0x00\n        /* \"#utility.yul\":15951:15957   */\n      dup3\n        /* \"#utility.yul\":15947:15961   */\n      add\n        /* \"#utility.yul\":15940:15992   */\n      mstore\n        /* \"#utility.yul\":15823:15999   */\n      pop\n      jump\t// out\n        /* \"#utility.yul\":16005:16371   */\n    tag_158:\n        /* \"#utility.yul\":16147:16150   */\n      0x00\n        /* \"#utility.yul\":16168:16235   */\n      tag_318\n        /* \"#utility.yul\":16232:16234   */\n      0x1a\n        /* \"#utility.yul\":16227:16230   */\n      dup4\n        /* \"#utility.yul\":16168:16235   */\n      tag_133\n      jump\t// in\n    tag_318:\n        /* \"#utility.yul\":16161:16235   */\n      swap2\n      pop\n        /* \"#utility.yul\":16244:16337   */\n      tag_319\n        /* \"#utility.yul\":16333:16336   */\n      dup3\n        /* \"#utility.yul\":16244:16337   */\n      tag_157\n      jump\t// in\n    tag_319:\n        /* \"#utility.yul\":16362:16364   */\n      0x20\n        /* \"#utility.yul\":16357:16360   */\n      dup3\n        /* \"#utility.yul\":16353:16365   */\n      add\n        /* \"#utility.yul\":16346:16365   */\n      swap1\n      pop\n        /* \"#utility.yul\":16005:16371   */\n      swap2\n      swap1\n      pop\n      jump\t// out\n        /* \"#utility.yul\":16377:16796   */\n    tag_85:\n        /* \"#utility.yul\":16543:16547   */\n      0x00\n        /* \"#utility.yul\":16581:16583   */\n      0x20\n        /* \"#utility.yul\":16570:16579   */\n      dup3\n        /* \"#utility.yul\":16566:16584   */\n      add\n        /* \"#utility.yul\":16558:16584   */\n      swap1\n      pop\n        /* \"#utility.yul\":16630:16639   */\n      dup2\n        /* \"#utility.yul\":16624:16628   */\n      dup2\n        /* \"#utility.yul\":16620:16640   */\n      sub\n        /* \"#utility.yul\":16616:16617   */\n      0x00\n        /* \"#utility.yul\":16605:16614   */\n      dup4\n        /* \"#utility.yul\":16601:16618   */\n      add\n        /* \"#utility.yul\":16594:16641   */\n      mstore\n        /* \"#utility.yul\":16658:16789   */\n      tag_321\n        /* \"#utility.yul\":16784:16788   */\n      dup2\n        /* \"#utility.yul\":16658:16789   */\n      tag_158\n      jump\t// in\n    tag_321:\n        /* \"#utility.yul\":16650:16789   */\n      swap1\n      pop\n        /* \"#utility.yul\":16377:16796   */\n      swap2\n      swap1\n      pop\n      jump\t// out\n        /* \"#utility.yul\":16802:16896   */\n    tag_159:\n        /* \"#utility.yul\":16835:16843   */\n      0x00\n        /* \"#utility.yul\":16883:16888   */\n      dup2\n        /* \"#utility.yul\":16879:16881   */\n      0x60\n        /* \"#utility.yul\":16875:16889   */\n      shl\n        /* \"#utility.yul\":16854:16889   */\n      swap1\n      pop\n        /* \"#utility.yul\":16802:16896   */\n      swap2\n      swap1\n      pop\n      jump\t// out\n        /* \"#utility.yul\":16902:16996   */\n    tag_160:\n        /* \"#utility.yul\":16941:16948   */\n      0x00\n        /* \"#utility.yul\":16970:16990   */\n      tag_324\n        /* \"#utility.yul\":16984:16989   */\n      dup3\n        /* \"#utility.yul\":16970:16990   */\n      tag_159\n      jump\t// in\n    tag_324:\n        /* \"#utility.yul\":16959:16990   */\n      swap1\n      pop\n        /* \"#utility.yul\":16902:16996   */\n      swap2\n      swap1\n      pop\n      jump\t// out\n        /* \"#utility.yul\":17002:17102   */\n    tag_161:\n        /* \"#utility.yul\":17041:17048   */\n      0x00\n        /* \"#utility.yul\":17070:17096   */\n      tag_326\n        /* \"#utility.yul\":17090:17095   */\n      dup3\n        /* \"#utility.yul\":17070:17096   */\n      tag_160\n      jump\t// in\n    tag_326:\n        /* \"#utility.yul\":17059:17096   */\n      swap1\n      pop\n        /* \"#utility.yul\":17002:17102   */\n      swap2\n      swap1\n      pop\n      jump\t// out\n        /* \"#utility.yul\":17108:17265   */\n    tag_162:\n        /* \"#utility.yul\":17213:17258   */\n      tag_328\n        /* \"#utility.yul\":17233:17257   */\n      tag_329\n        /* \"#utility.yul\":17251:17256   */\n      dup3\n        /* \"#utility.yul\":17233:17257   */\n      tag_126\n      jump\t// in\n    tag_329:\n        /* \"#utility.yul\":17213:17258   */\n      tag_161\n      jump\t// in\n    tag_328:\n        /* \"#utility.yul\":17208:17211   */\n      dup3\n        /* \"#utility.yul\":17201:17259   */\n      mstore\n        /* \"#utility.yul\":17108:17265   */\n      pop\n      pop\n      jump\t// out\n        /* \"#utility.yul\":17271:17668   */\n    tag_87:\n        /* \"#utility.yul\":17411:17414   */\n      0x00\n        /* \"#utility.yul\":17426:17501   */\n      tag_331\n        /* \"#utility.yul\":17497:17500   */\n      dup3\n        /* \"#utility.yul\":17488:17494   */\n      dup6\n        /* \"#utility.yul\":17426:17501   */\n      tag_162\n      jump\t// in\n    tag_331:\n        /* \"#utility.yul\":17526:17528   */\n      0x14\n        /* \"#utility.yul\":17521:17524   */\n      dup3\n        /* \"#utility.yul\":17517:17529   */\n      add\n        /* \"#utility.yul\":17510:17529   */\n      swap2\n      pop\n        /* \"#utility.yul\":17539:17614   */\n      tag_332\n        /* \"#utility.yul\":17610:17613   */\n      dup3\n        /* \"#utility.yul\":17601:17607   */\n      dup5\n        /* \"#utility.yul\":17539:17614   */\n      tag_162\n      jump\t// in\n    tag_332:\n        /* \"#utility.yul\":17639:17641   */\n      0x14\n        /* \"#utility.yul\":17634:17637   */\n      dup3\n        /* \"#utility.yul\":17630:17642   */\n      add\n        /* \"#utility.yul\":17623:17642   */\n      swap2\n      pop\n        /* \"#utility.yul\":17659:17662   */\n      dup2\n        /* \"#utility.yul\":17652:17662   */\n      swap1\n      pop\n        /* \"#utility.yul\":17271:17668   */\n      swap4\n      swap3\n      pop\n      pop\n      pop\n      jump\t// out\n        /* \"#utility.yul\":17674:17846   */\n    tag_163:\n        /* \"#utility.yul\":17814:17838   */\n      0x4368616e6e656c20616c72656164792065786973747300000000000000000000\n        /* \"#utility.yul\":17810:17811   */\n      0x00\n        /* \"#utility.yul\":17802:17808   */\n      dup3\n        /* \"#utility.yul\":17798:17812   */\n      add\n        /* \"#utility.yul\":17791:17839   */\n      mstore\n        /* \"#utility.yul\":17674:17846   */\n      pop\n      jump\t// out\n        /* \"#utility.yul\":17852:18218   */\n    tag_164:\n        /* \"#utility.yul\":17994:17997   */\n      0x00\n        /* \"#utility.yul\":18015:18082   */\n      tag_335\n        /* \"#utility.yul\":18079:18081   */\n      0x16\n        /* \"#utility.yul\":18074:18077   */\n      dup4\n        /* \"#utility.yul\":18015:18082   */\n      tag_133\n      jump\t// in\n    tag_335:\n        /* \"#utility.yul\":18008:18082   */\n      swap2\n      pop\n        /* \"#utility.yul\":18091:18184   */\n      tag_336\n        /* \"#utility.yul\":18180:18183   */\n      dup3\n        /* \"#utility.yul\":18091:18184   */\n      tag_163\n      jump\t// in\n    tag_336:\n        /* \"#utility.yul\":18209:18211   */\n      0x20\n        /* \"#utility.yul\":18204:18207   */\n      dup3\n        /* \"#utility.yul\":18200:18212   */\n      add\n        /* \"#utility.yul\":18193:18212   */\n      swap1\n      pop\n        /* \"#utility.yul\":17852:18218   */\n      swap2\n      swap1\n      pop\n      jump\t// out\n        /* \"#utility.yul\":18224:18643   */\n    tag_90:\n        /* \"#utility.yul\":18390:18394   */\n      0x00\n        /* \"#utility.yul\":18428:18430   */\n      0x20\n        /* \"#utility.yul\":18417:18426   */\n      dup3\n        /* \"#utility.yul\":18413:18431   */\n      add\n        /* \"#utility.yul\":18405:18431   */\n      swap1\n      pop\n        /* \"#utility.yul\":18477:18486   */\n      dup2\n        /* \"#utility.yul\":18471:18475   */\n      dup2\n        /* \"#utility.yul\":18467:18487   */\n      sub\n        /* \"#utility.yul\":18463:18464   */\n      0x00\n        /* \"#utility.yul\":18452:18461   */\n      dup4\n        /* \"#utility.yul\":18448:18465   */\n      add\n        /* \"#utility.yul\":18441:18488   */\n      mstore\n        /* \"#utility.yul\":18505:18636   */\n      tag_338\n        /* \"#utility.yul\":18631:18635   */\n      dup2\n        /* \"#utility.yul\":18505:18636   */\n      tag_164\n      jump\t// in\n    tag_338:\n        /* \"#utility.yul\":18497:18636   */\n      swap1\n      pop\n        /* \"#utility.yul\":18224:18643   */\n      swap2\n      swap1\n      pop\n      jump\t// out\n        /* \"#utility.yul\":18649:18830   */\n    tag_165:\n        /* \"#utility.yul\":18789:18822   */\n      0x496e636f72726563742073656e646572206465706f73697420616d6f756e7400\n        /* \"#utility.yul\":18785:18786   */\n      0x00\n        /* \"#utility.yul\":18777:18783   */\n      dup3\n        /* \"#utility.yul\":18773:18787   */\n      add\n        /* \"#utility.yul\":18766:18823   */\n      mstore\n        /* \"#utility.yul\":18649:18830   */\n      pop\n      jump\t// out\n        /* \"#utility.yul\":18836:19202   */\n    tag_166:\n        /* \"#utility.yul\":18978:18981   */\n      0x00\n        /* \"#utility.yul\":18999:19066   */\n      tag_341\n        /* \"#utility.yul\":19063:19065   */\n      0x1f\n        /* \"#utility.yul\":19058:19061   */\n      dup4\n        /* \"#utility.yul\":18999:19066   */\n      tag_133\n      jump\t// in\n    tag_341:\n        /* \"#utility.yul\":18992:19066   */\n      swap2\n      pop\n        /* \"#utility.yul\":19075:19168   */\n      tag_342\n        /* \"#utility.yul\":19164:19167   */\n      dup3\n        /* \"#utility.yul\":19075:19168   */\n      tag_165\n      jump\t// in\n    tag_342:\n        /* \"#utility.yul\":19193:19195   */\n      0x20\n        /* \"#utility.yul\":19188:19191   */\n      dup3\n        /* \"#utility.yul\":19184:19196   */\n      add\n        /* \"#utility.yul\":19177:19196   */\n      swap1\n      pop\n        /* \"#utility.yul\":18836:19202   */\n      swap2\n      swap1\n      pop\n      jump\t// out\n        /* \"#utility.yul\":19208:19627   */\n    tag_93:\n        /* \"#utility.yul\":19374:19378   */\n      0x00\n        /* \"#utility.yul\":19412:19414   */\n      0x20\n        /* \"#utility.yul\":19401:19410   */\n      dup3\n        /* \"#utility.yul\":19397:19415   */\n      add\n        /* \"#utility.yul\":19389:19415   */\n      swap1\n      pop\n        /* \"#utility.yul\":19461:19470   */\n      dup2\n        /* \"#utility.yul\":19455:19459   */\n      dup2\n        /* \"#utility.yul\":19451:19471   */\n      sub\n        /* \"#utility.yul\":19447:19448   */\n      0x00\n        /* \"#utility.yul\":19436:19445   */\n      dup4\n        /* \"#utility.yul\":19432:19449   */\n      add\n        /* \"#utility.yul\":19425:19472   */\n      mstore\n        /* \"#utility.yul\":19489:19620   */\n      tag_344\n        /* \"#utility.yul\":19615:19619   */\n      dup2\n        /* \"#utility.yul\":19489:19620   */\n      tag_166\n      jump\t// in\n    tag_344:\n        /* \"#utility.yul\":19481:19620   */\n      swap1\n      pop\n        /* \"#utility.yul\":19208:19627   */\n      swap2\n      swap1\n      pop\n      jump\t// out\n        /* \"#utility.yul\":19633:19808   */\n    tag_167:\n        /* \"#utility.yul\":19773:19800   */\n      0x4f6e6c79207768656e206368616e6e656c206973206f70656e00000000000000\n        /* \"#utility.yul\":19769:19770   */\n      0x00\n        /* \"#utility.yul\":19761:19767   */\n      dup3\n        /* \"#utility.yul\":19757:19771   */\n      add\n        /* \"#utility.yul\":19750:19801   */\n      mstore\n        /* \"#utility.yul\":19633:19808   */\n      pop\n      jump\t// out\n        /* \"#utility.yul\":19814:20180   */\n    tag_168:\n        /* \"#utility.yul\":19956:19959   */\n      0x00\n        /* \"#utility.yul\":19977:20044   */\n      tag_347\n        /* \"#utility.yul\":20041:20043   */\n      0x19\n        /* \"#utility.yul\":20036:20039   */\n      dup4\n        /* \"#utility.yul\":19977:20044   */\n      tag_133\n      jump\t// in\n    tag_347:\n        /* \"#utility.yul\":19970:20044   */\n      swap2\n      pop\n        /* \"#utility.yul\":20053:20146   */\n      tag_348\n        /* \"#utility.yul\":20142:20145   */\n      dup3\n        /* \"#utility.yul\":20053:20146   */\n      tag_167\n      jump\t// in\n    tag_348:\n        /* \"#utility.yul\":20171:20173   */\n      0x20\n        /* \"#utility.yul\":20166:20169   */\n      dup3\n        /* \"#utility.yul\":20162:20174   */\n      add\n        /* \"#utility.yul\":20155:20174   */\n      swap1\n      pop\n        /* \"#utility.yul\":19814:20180   */\n      swap2\n      swap1\n      pop\n      jump\t// out\n        /* \"#utility.yul\":20186:20605   */\n    tag_97:\n        /* \"#utility.yul\":20352:20356   */\n      0x00\n        /* \"#utility.yul\":20390:20392   */\n      0x20\n        /* \"#utility.yul\":20379:20388   */\n      dup3\n        /* \"#utility.yul\":20375:20393   */\n      add\n        /* \"#utility.yul\":20367:20393   */\n      swap1\n      pop\n        /* \"#utility.yul\":20439:20448   */\n      dup2\n        /* \"#utility.yul\":20433:20437   */\n      dup2\n        /* \"#utility.yul\":20429:20449   */\n      sub\n        /* \"#utility.yul\":20425:20426   */\n      0x00\n        /* \"#utility.yul\":20414:20423   */\n      dup4\n        /* \"#utility.yul\":20410:20427   */\n      add\n        /* \"#utility.yul\":20403:20450   */\n      mstore\n        /* \"#utility.yul\":20467:20598   */\n      tag_350\n        /* \"#utility.yul\":20593:20597   */\n      dup2\n        /* \"#utility.yul\":20467:20598   */\n      tag_168\n      jump\t// in\n    tag_350:\n        /* \"#utility.yul\":20459:20598   */\n      swap1\n      pop\n        /* \"#utility.yul\":20186:20605   */\n      swap2\n      swap1\n      pop\n      jump\t// out\n        /* \"#utility.yul\":20611:20845   */\n    tag_169:\n        /* \"#utility.yul\":20751:20785   */\n      0x496e76616c69642076616c75652c20736d616c6c6572207468616e2074686520\n        /* \"#utility.yul\":20747:20748   */\n      0x00\n        /* \"#utility.yul\":20739:20745   */\n      dup3\n        /* \"#utility.yul\":20735:20749   */\n      add\n        /* \"#utility.yul\":20728:20786   */\n      mstore\n        /* \"#utility.yul\":20820:20837   */\n      0x70726576696f7573207265636f72640000000000000000000000000000000000\n        /* \"#utility.yul\":20815:20817   */\n      0x20\n        /* \"#utility.yul\":20807:20813   */\n      dup3\n        /* \"#utility.yul\":20803:20818   */\n      add\n        /* \"#utility.yul\":20796:20838   */\n      mstore\n        /* \"#utility.yul\":20611:20845   */\n      pop\n      jump\t// out\n        /* \"#utility.yul\":20851:21217   */\n    tag_170:\n        /* \"#utility.yul\":20993:20996   */\n      0x00\n        /* \"#utility.yul\":21014:21081   */\n      tag_353\n        /* \"#utility.yul\":21078:21080   */\n      0x2f\n        /* \"#utility.yul\":21073:21076   */\n      dup4\n        /* \"#utility.yul\":21014:21081   */\n      tag_133\n      jump\t// in\n    tag_353:\n        /* \"#utility.yul\":21007:21081   */\n      swap2\n      pop\n        /* \"#utility.yul\":21090:21183   */\n      tag_354\n        /* \"#utility.yul\":21179:21182   */\n      dup3\n        /* \"#utility.yul\":21090:21183   */\n      tag_169\n      jump\t// in\n    tag_354:\n        /* \"#utility.yul\":21208:21210   */\n      0x40\n        /* \"#utility.yul\":21203:21206   */\n      dup3\n        /* \"#utility.yul\":21199:21211   */\n      add\n        /* \"#utility.yul\":21192:21211   */\n      swap1\n      pop\n        /* \"#utility.yul\":20851:21217   */\n      swap2\n      swap1\n      pop\n      jump\t// out\n        /* \"#utility.yul\":21223:21642   */\n    tag_101:\n        /* \"#utility.yul\":21389:21393   */\n      0x00\n        /* \"#utility.yul\":21427:21429   */\n      0x20\n        /* \"#utility.yul\":21416:21425   */\n      dup3\n        /* \"#utility.yul\":21412:21430   */\n      add\n        /* \"#utility.yul\":21404:21430   */\n      swap1\n      pop\n        /* \"#utility.yul\":21476:21485   */\n      dup2\n        /* \"#utility.yul\":21470:21474   */\n      dup2\n        /* \"#utility.yul\":21466:21486   */\n      sub\n        /* \"#utility.yul\":21462:21463   */\n      0x00\n        /* \"#utility.yul\":21451:21460   */\n      dup4\n        /* \"#utility.yul\":21447:21464   */\n      add\n        /* \"#utility.yul\":21440:21487   */\n      mstore\n        /* \"#utility.yul\":21504:21635   */\n      tag_356\n        /* \"#utility.yul\":21630:21634   */\n      dup2\n        /* \"#utility.yul\":21504:21635   */\n      tag_170\n      jump\t// in\n    tag_356:\n        /* \"#utility.yul\":21496:21635   */\n      swap1\n      pop\n        /* \"#utility.yul\":21223:21642   */\n      swap2\n      swap1\n      pop\n      jump\t// out\n        /* \"#utility.yul\":21648:21819   */\n    tag_171:\n        /* \"#utility.yul\":21788:21811   */\n      0x4e6f7420617574686f72697a6564207369676e65720000000000000000000000\n        /* \"#utility.yul\":21784:21785   */\n      0x00\n        /* \"#utility.yul\":21776:21782   */\n      dup3\n        /* \"#utility.yul\":21772:21786   */\n      add\n        /* \"#utility.yul\":21765:21812   */\n      mstore\n        /* \"#utility.yul\":21648:21819   */\n      pop\n      jump\t// out\n        /* \"#utility.yul\":21825:22191   */\n    tag_172:\n        /* \"#utility.yul\":21967:21970   */\n      0x00\n        /* \"#utility.yul\":21988:22055   */\n      tag_359\n        /* \"#utility.yul\":22052:22054   */\n      0x15\n        /* \"#utility.yul\":22047:22050   */\n      dup4\n        /* \"#utility.yul\":21988:22055   */\n      tag_133\n      jump\t// in\n    tag_359:\n        /* \"#utility.yul\":21981:22055   */\n      swap2\n      pop\n        /* \"#utility.yul\":22064:22157   */\n      tag_360\n        /* \"#utility.yul\":22153:22156   */\n      dup3\n        /* \"#utility.yul\":22064:22157   */\n      tag_171\n      jump\t// in\n    tag_360:\n        /* \"#utility.yul\":22182:22184   */\n      0x20\n        /* \"#utility.yul\":22177:22180   */\n      dup3\n        /* \"#utility.yul\":22173:22185   */\n      add\n        /* \"#utility.yul\":22166:22185   */\n      swap1\n      pop\n        /* \"#utility.yul\":21825:22191   */\n      swap2\n      swap1\n      pop\n      jump\t// out\n        /* \"#utility.yul\":22197:22616   */\n    tag_105:\n        /* \"#utility.yul\":22363:22367   */\n      0x00\n        /* \"#utility.yul\":22401:22403   */\n      0x20\n        /* \"#utility.yul\":22390:22399   */\n      dup3\n        /* \"#utility.yul\":22386:22404   */\n      add\n        /* \"#utility.yul\":22378:22404   */\n      swap1\n      pop\n        /* \"#utility.yul\":22450:22459   */\n      dup2\n        /* \"#utility.yul\":22444:22448   */\n      dup2\n        /* \"#utility.yul\":22440:22460   */\n      sub\n        /* \"#utility.yul\":22436:22437   */\n      0x00\n        /* \"#utility.yul\":22425:22434   */\n      dup4\n        /* \"#utility.yul\":22421:22438   */\n      add\n        /* \"#utility.yul\":22414:22461   */\n      mstore\n        /* \"#utility.yul\":22478:22609   */\n      tag_362\n        /* \"#utility.yul\":22604:22608   */\n      dup2\n        /* \"#utility.yul\":22478:22609   */\n      tag_172\n      jump\t// in\n    tag_362:\n        /* \"#utility.yul\":22470:22609   */\n      swap1\n      pop\n        /* \"#utility.yul\":22197:22616   */\n      swap2\n      swap1\n      pop\n      jump\t// out\n        /* \"#utility.yul\":22622:22701   */\n    tag_173:\n        /* \"#utility.yul\":22661:22668   */\n      0x00\n        /* \"#utility.yul\":22690:22695   */\n      dup2\n        /* \"#utility.yul\":22679:22695   */\n      swap1\n      pop\n        /* \"#utility.yul\":22622:22701   */\n      swap2\n      swap1\n      pop\n      jump\t// out\n        /* \"#utility.yul\":22707:22864   */\n    tag_174:\n        /* \"#utility.yul\":22812:22857   */\n      tag_365\n        /* \"#utility.yul\":22832:22856   */\n      tag_366\n        /* \"#utility.yul\":22850:22855   */\n      dup3\n        /* \"#utility.yul\":22832:22856   */\n      tag_122\n      jump\t// in\n    tag_366:\n        /* \"#utility.yul\":22812:22857   */\n      tag_173\n      jump\t// in\n    tag_365:\n        /* \"#utility.yul\":22807:22810   */\n      dup3\n        /* \"#utility.yul\":22800:22858   */\n      mstore\n        /* \"#utility.yul\":22707:22864   */\n      pop\n      pop\n      jump\t// out\n        /* \"#utility.yul\":22870:23126   */\n    tag_107:\n        /* \"#utility.yul\":22982:22985   */\n      0x00\n        /* \"#utility.yul\":22997:23072   */\n      tag_368\n        /* \"#utility.yul\":23068:23071   */\n      dup3\n        /* \"#utility.yul\":23059:23065   */\n      dup5\n        /* \"#utility.yul\":22997:23072   */\n      tag_174\n      jump\t// in\n    tag_368:\n        /* \"#utility.yul\":23097:23099   */\n      0x20\n        /* \"#utility.yul\":23092:23095   */\n      dup3\n        /* \"#utility.yul\":23088:23100   */\n      add\n        /* \"#utility.yul\":23081:23100   */\n      swap2\n      pop\n        /* \"#utility.yul\":23117:23120   */\n      dup2\n        /* \"#utility.yul\":23110:23120   */\n      swap1\n      pop\n        /* \"#utility.yul\":22870:23126   */\n      swap3\n      swap2\n      pop\n      pop\n      jump\t// out\n\n    auxdata: 0xa264697066735822122000be18373ae5110fdb542734c74c30add570b5b821915fb6af05c0f29bc8426f64736f6c63430008190033\n}\n",
				"bytecode": {
					"linkReferences": {},
					"object": "6080604052348015600e575f80fd5b50611bfa8061001c5f395ff3fe60806040526004361061006f575f3560e01c806391bc92121161004d57806391bc9212146100ff578063a21d05d914610127578063cfd5aabd14610163578063e3d670d71461019f5761006f565b8063298c88d2146100735780632aefff5e1461008f57806363bbe7a3146100cf575b5f80fd5b61008d6004803603810190610088919061112c565b6101db565b005b34801561009a575f80fd5b506100b560048036038101906100b0919061116a565b610724565b6040516100c69594939291906111e3565b60405180910390f35b6100e960048036038101906100e4919061125e565b610899565b6040516100f691906112ab565b60405180910390f35b34801561010a575f80fd5b506101256004803603810190610120919061112c565b610ba7565b005b348015610132575f80fd5b5061014d600480360381019061014891906112c4565b610e9c565b60405161015a919061135f565b60405180910390f35b34801561016e575f80fd5b506101896004803603810190610184919061116a565b610ee0565b60405161019691906114b6565b60405180910390f35b3480156101aa575f80fd5b506101c560048036038101906101c091906112c4565b61102f565b6040516101d291906114d0565b60405180910390f35b815f808281526020019081526020015f206001015f9054906101000a900473ffffffffffffffffffffffffffffffffffffffff1673ffffffffffffffffffffffffffffffffffffffff163373ffffffffffffffffffffffffffffffffffffffff1614806102a557505f808281526020019081526020015f206002015f9054906101000a900473ffffffffffffffffffffffffffffffffffffffff1673ffffffffffffffffffffffffffffffffffffffff163373ffffffffffffffffffffffffffffffffffffffff16145b6102e4576040517f08c379a00000000000000000000000000000000000000000000000000000000081526004016102db90611533565b60405180910390fd5b60025f808581526020019081526020015f20600501541461033a576040517f08c379a0000000000000000000000000000000000000000000000000000000008152600401610331906115c1565b60405180910390fd5b5f808481526020019081526020015f20600801545f808581526020019081526020015f206007015461036c919061160c565b42106103ad576040517f08c379a00000000000000000000000000000000000000000000000000000000081526004016103a490611689565b60405180910390fd5b5f808481526020019081526020015f20600601548214610402576040517f08c379a00000000000000000000000000000000000000000000000000000000081526004016103f990611717565b60405180910390fd5b5f805f8581526020019081526020015f20604051806101600160405290815f8201548152602001600182015f9054906101000a900473ffffffffffffffffffffffffffffffffffffffff1673ffffffffffffffffffffffffffffffffffffffff1673ffffffffffffffffffffffffffffffffffffffff168152602001600282015f9054906101000a900473ffffffffffffffffffffffffffffffffffffffff1673ffffffffffffffffffffffffffffffffffffffff1673ffffffffffffffffffffffffffffffffffffffff168152602001600382015481526020016004820154815260200160058201548152602001600682015481526020016007820154815260200160088201548152602001600982015f9054906101000a900460ff161515151581526020016009820160019054906101000a900460ff16151515158152505090505f816020015190505f826040015190505f339050836101200151156105d7578173ffffffffffffffffffffffffffffffffffffffff168173ffffffffffffffffffffffffffffffffffffffff16146105d2576040517f08c379a00000000000000000000000000000000000000000000000000000000081526004016105c9906117a5565b60405180910390fd5b610646565b8273ffffffffffffffffffffffffffffffffffffffff168173ffffffffffffffffffffffffffffffffffffffff1614610645576040517f08c379a000000000000000000000000000000000000000000000000000000000815260040161063c90611833565b60405180910390fd5b5b8273ffffffffffffffffffffffffffffffffffffffff166108fc5f808a81526020019081526020015f206006015486606001516106839190611851565b90811502906040515f60405180830381858888f193505050501580156106ab573d5f803e3d5ffd5b508173ffffffffffffffffffffffffffffffffffffffff166108fc5f808a81526020019081526020015f206006015490811502906040515f60405180830381858888f19350505050158015610702573d5f803e3d5ffd5b505f805f8981526020019081526020015f206005018190555050505050505050565b5f805f805f805f808881526020019081526020015f20604051806101600160405290815f8201548152602001600182015f9054906101000a900473ffffffffffffffffffffffffffffffffffffffff1673ffffffffffffffffffffffffffffffffffffffff1673ffffffffffffffffffffffffffffffffffffffff168152602001600282015f9054906101000a900473ffffffffffffffffffffffffffffffffffffffff1673ffffffffffffffffffffffffffffffffffffffff1673ffffffffffffffffffffffffffffffffffffffff168152602001600382015481526020016004820154815260200160058201548152602001600682015481526020016007820154815260200160088201548152602001600982015f9054906101000a900460ff161515151581526020016009820160019054906101000a900460ff1615151515815250509050806020015181604001518260a0015183606001518460c00151955095509550955095505091939590929450565b5f8273ffffffffffffffffffffffffffffffffffffffff163373ffffffffffffffffffffffffffffffffffffffff1603610908576040517f08c379a00000000000000000000000000000000000000000000000000000000081526004016108ff906118ce565b60405180910390fd5b5f338460405160200161091c929190611931565b6040516020818303038152906040528051906020012090505f805f8381526020019081526020015f2060050154101561098a576040517f08c379a0000000000000000000000000000000000000000000000000000000008152600401610981906119a6565b60405180910390fd5b8234146109cc576040517f08c379a00000000000000000000000000000000000000000000000000000000081526004016109c390611a0e565b60405180910390fd5b6040518061016001604052808281526020013373ffffffffffffffffffffffffffffffffffffffff1681526020018573ffffffffffffffffffffffffffffffffffffffff168152602001848152602001428152602001600181526020015f81526020015f81526020016103e881526020015f151581526020015f15158152505f808381526020019081526020015f205f820151815f01556020820151816001015f6101000a81548173ffffffffffffffffffffffffffffffffffffffff021916908373ffffffffffffffffffffffffffffffffffffffff1602179055506040820151816002015f6101000a81548173ffffffffffffffffffffffffffffffffffffffff021916908373ffffffffffffffffffffffffffffffffffffffff160217905550606082015181600301556080820151816004015560a0820151816005015560c0820151816006015560e082015181600701556101008201518160080155610120820151816009015f6101000a81548160ff0219169083151502179055506101408201518160090160016101000a81548160ff021916908315150217905550905050807f7ffc675d721b8768e035a323722842743bb523487b535906abc97e6b3e2095d060405160405180910390a28091505092915050565b8160015f808381526020019081526020015f206005015414610bfe576040517f08c379a0000000000000000000000000000000000000000000000000000000008152600401610bf590611a76565b60405180910390fd5b815f808581526020019081526020015f20600601541115610c54576040517f08c379a0000000000000000000000000000000000000000000000000000000008152600401610c4b90611b04565b60405180910390fd5b5f803391505f808681526020019081526020015f206001015f9054906101000a900473ffffffffffffffffffffffffffffffffffffffff1673ffffffffffffffffffffffffffffffffffffffff168273ffffffffffffffffffffffffffffffffffffffff161480610d2257505f808681526020019081526020015f206002015f9054906101000a900473ffffffffffffffffffffffffffffffffffffffff1673ffffffffffffffffffffffffffffffffffffffff168273ffffffffffffffffffffffffffffffffffffffff16145b610d61576040517f08c379a0000000000000000000000000000000000000000000000000000000008152600401610d5890611b6c565b60405180910390fd5b83604051602001610d729190611baa565b6040516020818303038152906040528051906020012090505f808681526020019081526020015f206001015f9054906101000a900473ffffffffffffffffffffffffffffffffffffffff1673ffffffffffffffffffffffffffffffffffffffff168273ffffffffffffffffffffffffffffffffffffffff1603610e1f5760015f808781526020019081526020015f206009015f6101000a81548160ff021916908315150217905550610e4c565b60015f808781526020019081526020015f2060090160016101000a81548160ff0219169083151502179055505b835f808781526020019081526020015f206006018190555060025f808781526020019081526020015f2060050181905550425f808781526020019081526020015f20600701819055505050505050565b60605f8290506040518060400160405280600581526020017f68656c6c6f000000000000000000000000000000000000000000000000000000815250915050919050565b610ee8611040565b5f808381526020019081526020015f20604051806101600160405290815f8201548152602001600182015f9054906101000a900473ffffffffffffffffffffffffffffffffffffffff1673ffffffffffffffffffffffffffffffffffffffff1673ffffffffffffffffffffffffffffffffffffffff168152602001600282015f9054906101000a900473ffffffffffffffffffffffffffffffffffffffff1673ffffffffffffffffffffffffffffffffffffffff1673ffffffffffffffffffffffffffffffffffffffff168152602001600382015481526020016004820154815260200160058201548152602001600682015481526020016007820154815260200160088201548152602001600982015f9054906101000a900460ff161515151581526020016009820160019054906101000a900460ff1615151515815250509050919050565b5f6110398261102f565b9050919050565b6040518061016001604052805f80191681526020015f73ffffffffffffffffffffffffffffffffffffffff1681526020015f73ffffffffffffffffffffffffffffffffffffffff1681526020015f81526020015f81526020015f81526020015f81526020015f81526020015f81526020015f151581526020015f151581525090565b5f80fd5b5f819050919050565b6110d8816110c6565b81146110e2575f80fd5b50565b5f813590506110f3816110cf565b92915050565b5f819050919050565b61110b816110f9565b8114611115575f80fd5b50565b5f8135905061112681611102565b92915050565b5f8060408385031215611142576111416110c2565b5b5f61114f858286016110e5565b925050602061116085828601611118565b9150509250929050565b5f6020828403121561117f5761117e6110c2565b5b5f61118c848285016110e5565b91505092915050565b5f73ffffffffffffffffffffffffffffffffffffffff82169050919050565b5f6111be82611195565b9050919050565b6111ce816111b4565b82525050565b6111dd816110f9565b82525050565b5f60a0820190506111f65f8301886111c5565b61120360208301876111c5565b61121060408301866111d4565b61121d60608301856111d4565b61122a60808301846111d4565b9695505050505050565b61123d816111b4565b8114611247575f80fd5b50565b5f8135905061125881611234565b92915050565b5f8060408385031215611274576112736110c2565b5b5f6112818582860161124a565b925050602061129285828601611118565b9150509250929050565b6112a5816110c6565b82525050565b5f6020820190506112be5f83018461129c565b92915050565b5f602082840312156112d9576112d86110c2565b5b5f6112e68482850161124a565b91505092915050565b5f81519050919050565b5f82825260208201905092915050565b8281835e5f83830152505050565b5f601f19601f8301169050919050565b5f611331826112ef565b61133b81856112f9565b935061134b818560208601611309565b61135481611317565b840191505092915050565b5f6020820190508181035f8301526113778184611327565b905092915050565b611388816110c6565b82525050565b5f61139882611195565b9050919050565b6113a88161138e565b82525050565b6113b7816110f9565b82525050565b5f8115159050919050565b6113d1816113bd565b82525050565b61016082015f8201516113ec5f85018261137f565b5060208201516113ff602085018261139f565b506040820151611412604085018261139f565b50606082015161142560608501826113ae565b50608082015161143860808501826113ae565b5060a082015161144b60a08501826113ae565b5060c082015161145e60c08501826113ae565b5060e082015161147160e08501826113ae565b506101008201516114866101008501826113ae565b5061012082015161149b6101208501826113c8565b506101408201516114b06101408501826113c8565b50505050565b5f610160820190506114ca5f8301846113d7565b92915050565b5f6020820190506114e35f8301846111d4565b92915050565b7f4f6e6c79207061727469636970616e74730000000000000000000000000000005f82015250565b5f61151d6011836112f9565b9150611528826114e9565b602082019050919050565b5f6020820190508181035f83015261154a81611511565b9050919050565b7f54686973206368616e6e656c206973206e6f7420756e6465722077616974696e5f8201527f672d636c6f7375726520706572696f642e000000000000000000000000000000602082015250565b5f6115ab6031836112f9565b91506115b682611551565b604082019050919050565b5f6020820190508181035f8301526115d88161159f565b9050919050565b7f4e487b71000000000000000000000000000000000000000000000000000000005f52601160045260245ffd5b5f611616826110f9565b9150611621836110f9565b9250828201905080821115611639576116386115df565b5b92915050565b7f4469737075746520706572696f642068617320657870697265642e00000000005f82015250565b5f611673601b836112f9565b915061167e8261163f565b602082019050919050565b5f6020820190508181035f8301526116a081611667565b9050919050565b7f4974207365656d7320746865726520697320612064697370757465206f7665725f8201527f207468652066696e616c2073746174652c20676f207265706f72742069742e00602082015250565b5f611701603f836112f9565b915061170c826116a7565b604082019050919050565b5f6020820190508181035f83015261172e816116f5565b9050919050565b7f4f6e6c7920726563697069656e742063616e20636f6e6669726d20636c6f73755f8201527f7265206e6f772e00000000000000000000000000000000000000000000000000602082015250565b5f61178f6027836112f9565b915061179a82611735565b604082019050919050565b5f6020820190508181035f8301526117bc81611783565b9050919050565b7f4f6e6c792073656e6465722063616e20636f6e6669726d20636c6f73757265205f8201527f6e6f772e00000000000000000000000000000000000000000000000000000000602082015250565b5f61181d6024836112f9565b9150611828826117c3565b604082019050919050565b5f6020820190508181035f83015261184a81611811565b9050919050565b5f61185b826110f9565b9150611866836110f9565b925082820390508181111561187e5761187d6115df565b5b92915050565b7f53656e6465722063616e6e6f7420626520726563697069656e740000000000005f82015250565b5f6118b8601a836112f9565b91506118c382611884565b602082019050919050565b5f6020820190508181035f8301526118e5816118ac565b9050919050565b5f8160601b9050919050565b5f611902826118ec565b9050919050565b5f611913826118f8565b9050919050565b61192b611926826111b4565b611909565b82525050565b5f61193c828561191a565b60148201915061194c828461191a565b6014820191508190509392505050565b7f4368616e6e656c20616c726561647920657869737473000000000000000000005f82015250565b5f6119906016836112f9565b915061199b8261195c565b602082019050919050565b5f6020820190508181035f8301526119bd81611984565b9050919050565b7f496e636f72726563742073656e646572206465706f73697420616d6f756e74005f82015250565b5f6119f8601f836112f9565b9150611a03826119c4565b602082019050919050565b5f6020820190508181035f830152611a25816119ec565b9050919050565b7f4f6e6c79207768656e206368616e6e656c206973206f70656e000000000000005f82015250565b5f611a606019836112f9565b9150611a6b82611a2c565b602082019050919050565b5f6020820190508181035f830152611a8d81611a54565b9050919050565b7f496e76616c69642076616c75652c20736d616c6c6572207468616e20746865205f8201527f70726576696f7573207265636f72640000000000000000000000000000000000602082015250565b5f611aee602f836112f9565b9150611af982611a94565b604082019050919050565b5f6020820190508181035f830152611b1b81611ae2565b9050919050565b7f4e6f7420617574686f72697a6564207369676e657200000000000000000000005f82015250565b5f611b566015836112f9565b9150611b6182611b22565b602082019050919050565b5f6020820190508181035f830152611b8381611b4a565b9050919050565b5f819050919050565b611ba4611b9f826110f9565b611b8a565b82525050565b5f611bb58284611b93565b6020820191508190509291505056fea264697066735822122000be18373ae5110fdb542734c74c30add570b5b821915fb6af05c0f29bc8426f64736f6c63430008190033",
					"opcodes": "PUSH1 0x80 PUSH1 0x40 MSTORE CALLVALUE DUP1 ISZERO PUSH1 0xE JUMPI PUSH0 DUP1 REVERT JUMPDEST POP PUSH2 0x1BFA DUP1 PUSH2 0x1C PUSH0 CODECOPY PUSH0 RETURN INVALID PUSH1 0x80 PUSH1 0x40 MSTORE PUSH1 0x4 CALLDATASIZE LT PUSH2 0x6F JUMPI PUSH0 CALLDATALOAD PUSH1 0xE0 SHR DUP1 PUSH4 0x91BC9212 GT PUSH2 0x4D JUMPI DUP1 PUSH4 0x91BC9212 EQ PUSH2 0xFF JUMPI DUP1 PUSH4 0xA21D05D9 EQ PUSH2 0x127 JUMPI DUP1 PUSH4 0xCFD5AABD EQ PUSH2 0x163 JUMPI DUP1 PUSH4 0xE3D670D7 EQ PUSH2 0x19F JUMPI PUSH2 0x6F JUMP JUMPDEST DUP1 PUSH4 0x298C88D2 EQ PUSH2 0x73 JUMPI DUP1 PUSH4 0x2AEFFF5E EQ PUSH2 0x8F JUMPI DUP1 PUSH4 0x63BBE7A3 EQ PUSH2 0xCF JUMPI JUMPDEST PUSH0 DUP1 REVERT JUMPDEST PUSH2 0x8D PUSH1 0x4 DUP1 CALLDATASIZE SUB DUP2 ADD SWAP1 PUSH2 0x88 SWAP2 SWAP1 PUSH2 0x112C JUMP JUMPDEST PUSH2 0x1DB JUMP JUMPDEST STOP JUMPDEST CALLVALUE DUP1 ISZERO PUSH2 0x9A JUMPI PUSH0 DUP1 REVERT JUMPDEST POP PUSH2 0xB5 PUSH1 0x4 DUP1 CALLDATASIZE SUB DUP2 ADD SWAP1 PUSH2 0xB0 SWAP2 SWAP1 PUSH2 0x116A JUMP JUMPDEST PUSH2 0x724 JUMP JUMPDEST PUSH1 0x40 MLOAD PUSH2 0xC6 SWAP6 SWAP5 SWAP4 SWAP3 SWAP2 SWAP1 PUSH2 0x11E3 JUMP JUMPDEST PUSH1 0x40 MLOAD DUP1 SWAP2 SUB SWAP1 RETURN JUMPDEST PUSH2 0xE9 PUSH1 0x4 DUP1 CALLDATASIZE SUB DUP2 ADD SWAP1 PUSH2 0xE4 SWAP2 SWAP1 PUSH2 0x125E JUMP JUMPDEST PUSH2 0x899 JUMP JUMPDEST PUSH1 0x40 MLOAD PUSH2 0xF6 SWAP2 SWAP1 PUSH2 0x12AB JUMP JUMPDEST PUSH1 0x40 MLOAD DUP1 SWAP2 SUB SWAP1 RETURN JUMPDEST CALLVALUE DUP1 ISZERO PUSH2 0x10A JUMPI PUSH0 DUP1 REVERT JUMPDEST POP PUSH2 0x125 PUSH1 0x4 DUP1 CALLDATASIZE SUB DUP2 ADD SWAP1 PUSH2 0x120 SWAP2 SWAP1 PUSH2 0x112C JUMP JUMPDEST PUSH2 0xBA7 JUMP JUMPDEST STOP JUMPDEST CALLVALUE DUP1 ISZERO PUSH2 0x132 JUMPI PUSH0 DUP1 REVERT JUMPDEST POP PUSH2 0x14D PUSH1 0x4 DUP1 CALLDATASIZE SUB DUP2 ADD SWAP1 PUSH2 0x148 SWAP2 SWAP1 PUSH2 0x12C4 JUMP JUMPDEST PUSH2 0xE9C JUMP JUMPDEST PUSH1 0x40 MLOAD PUSH2 0x15A SWAP2 SWAP1 PUSH2 0x135F JUMP JUMPDEST PUSH1 0x40 MLOAD DUP1 SWAP2 SUB SWAP1 RETURN JUMPDEST CALLVALUE DUP1 ISZERO PUSH2 0x16E JUMPI PUSH0 DUP1 REVERT JUMPDEST POP PUSH2 0x189 PUSH1 0x4 DUP1 CALLDATASIZE SUB DUP2 ADD SWAP1 PUSH2 0x184 SWAP2 SWAP1 PUSH2 0x116A JUMP JUMPDEST PUSH2 0xEE0 JUMP JUMPDEST PUSH1 0x40 MLOAD PUSH2 0x196 SWAP2 SWAP1 PUSH2 0x14B6 JUMP JUMPDEST PUSH1 0x40 MLOAD DUP1 SWAP2 SUB SWAP1 RETURN JUMPDEST CALLVALUE DUP1 ISZERO PUSH2 0x1AA JUMPI PUSH0 DUP1 REVERT JUMPDEST POP PUSH2 0x1C5 PUSH1 0x4 DUP1 CALLDATASIZE SUB DUP2 ADD SWAP1 PUSH2 0x1C0 SWAP2 SWAP1 PUSH2 0x12C4 JUMP JUMPDEST PUSH2 0x102F JUMP JUMPDEST PUSH1 0x40 MLOAD PUSH2 0x1D2 SWAP2 SWAP1 PUSH2 0x14D0 JUMP JUMPDEST PUSH1 0x40 MLOAD DUP1 SWAP2 SUB SWAP1 RETURN JUMPDEST DUP2 PUSH0 DUP1 DUP3 DUP2 MSTORE PUSH1 0x20 ADD SWAP1 DUP2 MSTORE PUSH1 0x20 ADD PUSH0 KECCAK256 PUSH1 0x1 ADD PUSH0 SWAP1 SLOAD SWAP1 PUSH2 0x100 EXP SWAP1 DIV PUSH20 0xFFFFFFFFFFFFFFFFFFFFFFFFFFFFFFFFFFFFFFFF AND PUSH20 0xFFFFFFFFFFFFFFFFFFFFFFFFFFFFFFFFFFFFFFFF AND CALLER PUSH20 0xFFFFFFFFFFFFFFFFFFFFFFFFFFFFFFFFFFFFFFFF AND EQ DUP1 PUSH2 0x2A5 JUMPI POP PUSH0 DUP1 DUP3 DUP2 MSTORE PUSH1 0x20 ADD SWAP1 DUP2 MSTORE PUSH1 0x20 ADD PUSH0 KECCAK256 PUSH1 0x2 ADD PUSH0 SWAP1 SLOAD SWAP1 PUSH2 0x100 EXP SWAP1 DIV PUSH20 0xFFFFFFFFFFFFFFFFFFFFFFFFFFFFFFFFFFFFFFFF AND PUSH20 0xFFFFFFFFFFFFFFFFFFFFFFFFFFFFFFFFFFFFFFFF AND CALLER PUSH20 0xFFFFFFFFFFFFFFFFFFFFFFFFFFFFFFFFFFFFFFFF AND EQ JUMPDEST PUSH2 0x2E4 JUMPI PUSH1 0x40 MLOAD PUSH32 0x8C379A000000000000000000000000000000000000000000000000000000000 DUP2 MSTORE PUSH1 0x4 ADD PUSH2 0x2DB SWAP1 PUSH2 0x1533 JUMP JUMPDEST PUSH1 0x40 MLOAD DUP1 SWAP2 SUB SWAP1 REVERT JUMPDEST PUSH1 0x2 PUSH0 DUP1 DUP6 DUP2 MSTORE PUSH1 0x20 ADD SWAP1 DUP2 MSTORE PUSH1 0x20 ADD PUSH0 KECCAK256 PUSH1 0x5 ADD SLOAD EQ PUSH2 0x33A JUMPI PUSH1 0x40 MLOAD PUSH32 0x8C379A000000000000000000000000000000000000000000000000000000000 DUP2 MSTORE PUSH1 0x4 ADD PUSH2 0x331 SWAP1 PUSH2 0x15C1 JUMP JUMPDEST PUSH1 0x40 MLOAD DUP1 SWAP2 SUB SWAP1 REVERT JUMPDEST PUSH0 DUP1 DUP5 DUP2 MSTORE PUSH1 0x20 ADD SWAP1 DUP2 MSTORE PUSH1 0x20 ADD PUSH0 KECCAK256 PUSH1 0x8 ADD SLOAD PUSH0 DUP1 DUP6 DUP2 MSTORE PUSH1 0x20 ADD SWAP1 DUP2 MSTORE PUSH1 0x20 ADD PUSH0 KECCAK256 PUSH1 0x7 ADD SLOAD PUSH2 0x36C SWAP2 SWAP1 PUSH2 0x160C JUMP JUMPDEST TIMESTAMP LT PUSH2 0x3AD JUMPI PUSH1 0x40 MLOAD PUSH32 0x8C379A000000000000000000000000000000000000000000000000000000000 DUP2 MSTORE PUSH1 0x4 ADD PUSH2 0x3A4 SWAP1 PUSH2 0x1689 JUMP JUMPDEST PUSH1 0x40 MLOAD DUP1 SWAP2 SUB SWAP1 REVERT JUMPDEST PUSH0 DUP1 DUP5 DUP2 MSTORE PUSH1 0x20 ADD SWAP1 DUP2 MSTORE PUSH1 0x20 ADD PUSH0 KECCAK256 PUSH1 0x6 ADD SLOAD DUP3 EQ PUSH2 0x402 JUMPI PUSH1 0x40 MLOAD PUSH32 0x8C379A000000000000000000000000000000000000000000000000000000000 DUP2 MSTORE PUSH1 0x4 ADD PUSH2 0x3F9 SWAP1 PUSH2 0x1717 JUMP JUMPDEST PUSH1 0x40 MLOAD DUP1 SWAP2 SUB SWAP1 REVERT JUMPDEST PUSH0 DUP1 PUSH0 DUP6 DUP2 MSTORE PUSH1 0x20 ADD SWAP1 DUP2 MSTORE PUSH1 0x20 ADD PUSH0 KECCAK256 PUSH1 0x40 MLOAD DUP1 PUSH2 0x160 ADD PUSH1 0x40 MSTORE SWAP1 DUP2 PUSH0 DUP3 ADD SLOAD DUP2 MSTORE PUSH1 0x20 ADD PUSH1 0x1 DUP3 ADD PUSH0 SWAP1 SLOAD SWAP1 PUSH2 0x100 EXP SWAP1 DIV PUSH20 0xFFFFFFFFFFFFFFFFFFFFFFFFFFFFFFFFFFFFFFFF AND PUSH20 0xFFFFFFFFFFFFFFFFFFFFFFFFFFFFFFFFFFFFFFFF AND PUSH20 0xFFFFFFFFFFFFFFFFFFFFFFFFFFFFFFFFFFFFFFFF AND DUP2 MSTORE PUSH1 0x20 ADD PUSH1 0x2 DUP3 ADD PUSH0 SWAP1 SLOAD SWAP1 PUSH2 0x100 EXP SWAP1 DIV PUSH20 0xFFFFFFFFFFFFFFFFFFFFFFFFFFFFFFFFFFFFFFFF AND PUSH20 0xFFFFFFFFFFFFFFFFFFFFFFFFFFFFFFFFFFFFFFFF AND PUSH20 0xFFFFFFFFFFFFFFFFFFFFFFFFFFFFFFFFFFFFFFFF AND DUP2 MSTORE PUSH1 0x20 ADD PUSH1 0x3 DUP3 ADD SLOAD DUP2 MSTORE PUSH1 0x20 ADD PUSH1 0x4 DUP3 ADD SLOAD DUP2 MSTORE PUSH1 0x20 ADD PUSH1 0x5 DUP3 ADD SLOAD DUP2 MSTORE PUSH1 0x20 ADD PUSH1 0x6 DUP3 ADD SLOAD DUP2 MSTORE PUSH1 0x20 ADD PUSH1 0x7 DUP3 ADD SLOAD DUP2 MSTORE PUSH1 0x20 ADD PUSH1 0x8 DUP3 ADD SLOAD DUP2 MSTORE PUSH1 0x20 ADD PUSH1 0x9 DUP3 ADD PUSH0 SWAP1 SLOAD SWAP1 PUSH2 0x100 EXP SWAP1 DIV PUSH1 0xFF AND ISZERO ISZERO ISZERO ISZERO DUP2 MSTORE PUSH1 0x20 ADD PUSH1 0x9 DUP3 ADD PUSH1 0x1 SWAP1 SLOAD SWAP1 PUSH2 0x100 EXP SWAP1 DIV PUSH1 0xFF AND ISZERO ISZERO ISZERO ISZERO DUP2 MSTORE POP POP SWAP1 POP PUSH0 DUP2 PUSH1 0x20 ADD MLOAD SWAP1 POP PUSH0 DUP3 PUSH1 0x40 ADD MLOAD SWAP1 POP PUSH0 CALLER SWAP1 POP DUP4 PUSH2 0x120 ADD MLOAD ISZERO PUSH2 0x5D7 JUMPI DUP2 PUSH20 0xFFFFFFFFFFFFFFFFFFFFFFFFFFFFFFFFFFFFFFFF AND DUP2 PUSH20 0xFFFFFFFFFFFFFFFFFFFFFFFFFFFFFFFFFFFFFFFF AND EQ PUSH2 0x5D2 JUMPI PUSH1 0x40 MLOAD PUSH32 0x8C379A000000000000000000000000000000000000000000000000000000000 DUP2 MSTORE PUSH1 0x4 ADD PUSH2 0x5C9 SWAP1 PUSH2 0x17A5 JUMP JUMPDEST PUSH1 0x40 MLOAD DUP1 SWAP2 SUB SWAP1 REVERT JUMPDEST PUSH2 0x646 JUMP JUMPDEST DUP3 PUSH20 0xFFFFFFFFFFFFFFFFFFFFFFFFFFFFFFFFFFFFFFFF AND DUP2 PUSH20 0xFFFFFFFFFFFFFFFFFFFFFFFFFFFFFFFFFFFFFFFF AND EQ PUSH2 0x645 JUMPI PUSH1 0x40 MLOAD PUSH32 0x8C379A000000000000000000000000000000000000000000000000000000000 DUP2 MSTORE PUSH1 0x4 ADD PUSH2 0x63C SWAP1 PUSH2 0x1833 JUMP JUMPDEST PUSH1 0x40 MLOAD DUP1 SWAP2 SUB SWAP1 REVERT JUMPDEST JUMPDEST DUP3 PUSH20 0xFFFFFFFFFFFFFFFFFFFFFFFFFFFFFFFFFFFFFFFF AND PUSH2 0x8FC PUSH0 DUP1 DUP11 DUP2 MSTORE PUSH1 0x20 ADD SWAP1 DUP2 MSTORE PUSH1 0x20 ADD PUSH0 KECCAK256 PUSH1 0x6 ADD SLOAD DUP7 PUSH1 0x60 ADD MLOAD PUSH2 0x683 SWAP2 SWAP1 PUSH2 0x1851 JUMP JUMPDEST SWAP1 DUP2 ISZERO MUL SWAP1 PUSH1 0x40 MLOAD PUSH0 PUSH1 0x40 MLOAD DUP1 DUP4 SUB DUP2 DUP6 DUP9 DUP9 CALL SWAP4 POP POP POP POP ISZERO DUP1 ISZERO PUSH2 0x6AB JUMPI RETURNDATASIZE PUSH0 DUP1 RETURNDATACOPY RETURNDATASIZE PUSH0 REVERT JUMPDEST POP DUP2 PUSH20 0xFFFFFFFFFFFFFFFFFFFFFFFFFFFFFFFFFFFFFFFF AND PUSH2 0x8FC PUSH0 DUP1 DUP11 DUP2 MSTORE PUSH1 0x20 ADD SWAP1 DUP2 MSTORE PUSH1 0x20 ADD PUSH0 KECCAK256 PUSH1 0x6 ADD SLOAD SWAP1 DUP2 ISZERO MUL SWAP1 PUSH1 0x40 MLOAD PUSH0 PUSH1 0x40 MLOAD DUP1 DUP4 SUB DUP2 DUP6 DUP9 DUP9 CALL SWAP4 POP POP POP POP ISZERO DUP1 ISZERO PUSH2 0x702 JUMPI RETURNDATASIZE PUSH0 DUP1 RETURNDATACOPY RETURNDATASIZE PUSH0 REVERT JUMPDEST POP PUSH0 DUP1 PUSH0 DUP10 DUP2 MSTORE PUSH1 0x20 ADD SWAP1 DUP2 MSTORE PUSH1 0x20 ADD PUSH0 KECCAK256 PUSH1 0x5 ADD DUP2 SWAP1 SSTORE POP POP POP POP POP POP POP POP JUMP JUMPDEST PUSH0 DUP1 PUSH0 DUP1 PUSH0 DUP1 PUSH0 DUP1 DUP9 DUP2 MSTORE PUSH1 0x20 ADD SWAP1 DUP2 MSTORE PUSH1 0x20 ADD PUSH0 KECCAK256 PUSH1 0x40 MLOAD DUP1 PUSH2 0x160 ADD PUSH1 0x40 MSTORE SWAP1 DUP2 PUSH0 DUP3 ADD SLOAD DUP2 MSTORE PUSH1 0x20 ADD PUSH1 0x1 DUP3 ADD PUSH0 SWAP1 SLOAD SWAP1 PUSH2 0x100 EXP SWAP1 DIV PUSH20 0xFFFFFFFFFFFFFFFFFFFFFFFFFFFFFFFFFFFFFFFF AND PUSH20 0xFFFFFFFFFFFFFFFFFFFFFFFFFFFFFFFFFFFFFFFF AND PUSH20 0xFFFFFFFFFFFFFFFFFFFFFFFFFFFFFFFFFFFFFFFF AND DUP2 MSTORE PUSH1 0x20 ADD PUSH1 0x2 DUP3 ADD PUSH0 SWAP1 SLOAD SWAP1 PUSH2 0x100 EXP SWAP1 DIV PUSH20 0xFFFFFFFFFFFFFFFFFFFFFFFFFFFFFFFFFFFFFFFF AND PUSH20 0xFFFFFFFFFFFFFFFFFFFFFFFFFFFFFFFFFFFFFFFF AND PUSH20 0xFFFFFFFFFFFFFFFFFFFFFFFFFFFFFFFFFFFFFFFF AND DUP2 MSTORE PUSH1 0x20 ADD PUSH1 0x3 DUP3 ADD SLOAD DUP2 MSTORE PUSH1 0x20 ADD PUSH1 0x4 DUP3 ADD SLOAD DUP2 MSTORE PUSH1 0x20 ADD PUSH1 0x5 DUP3 ADD SLOAD DUP2 MSTORE PUSH1 0x20 ADD PUSH1 0x6 DUP3 ADD SLOAD DUP2 MSTORE PUSH1 0x20 ADD PUSH1 0x7 DUP3 ADD SLOAD DUP2 MSTORE PUSH1 0x20 ADD PUSH1 0x8 DUP3 ADD SLOAD DUP2 MSTORE PUSH1 0x20 ADD PUSH1 0x9 DUP3 ADD PUSH0 SWAP1 SLOAD SWAP1 PUSH2 0x100 EXP SWAP1 DIV PUSH1 0xFF AND ISZERO ISZERO ISZERO ISZERO DUP2 MSTORE PUSH1 0x20 ADD PUSH1 0x9 DUP3 ADD PUSH1 0x1 SWAP1 SLOAD SWAP1 PUSH2 0x100 EXP SWAP1 DIV PUSH1 0xFF AND ISZERO ISZERO ISZERO ISZERO DUP2 MSTORE POP POP SWAP1 POP DUP1 PUSH1 0x20 ADD MLOAD DUP2 PUSH1 0x40 ADD MLOAD DUP3 PUSH1 0xA0 ADD MLOAD DUP4 PUSH1 0x60 ADD MLOAD DUP5 PUSH1 0xC0 ADD MLOAD SWAP6 POP SWAP6 POP SWAP6 POP SWAP6 POP SWAP6 POP POP SWAP2 SWAP4 SWAP6 SWAP1 SWAP3 SWAP5 POP JUMP JUMPDEST PUSH0 DUP3 PUSH20 0xFFFFFFFFFFFFFFFFFFFFFFFFFFFFFFFFFFFFFFFF AND CALLER PUSH20 0xFFFFFFFFFFFFFFFFFFFFFFFFFFFFFFFFFFFFFFFF AND SUB PUSH2 0x908 JUMPI PUSH1 0x40 MLOAD PUSH32 0x8C379A000000000000000000000000000000000000000000000000000000000 DUP2 MSTORE PUSH1 0x4 ADD PUSH2 0x8FF SWAP1 PUSH2 0x18CE JUMP JUMPDEST PUSH1 0x40 MLOAD DUP1 SWAP2 SUB SWAP1 REVERT JUMPDEST PUSH0 CALLER DUP5 PUSH1 0x40 MLOAD PUSH1 0x20 ADD PUSH2 0x91C SWAP3 SWAP2 SWAP1 PUSH2 0x1931 JUMP JUMPDEST PUSH1 0x40 MLOAD PUSH1 0x20 DUP2 DUP4 SUB SUB DUP2 MSTORE SWAP1 PUSH1 0x40 MSTORE DUP1 MLOAD SWAP1 PUSH1 0x20 ADD KECCAK256 SWAP1 POP PUSH0 DUP1 PUSH0 DUP4 DUP2 MSTORE PUSH1 0x20 ADD SWAP1 DUP2 MSTORE PUSH1 0x20 ADD PUSH0 KECCAK256 PUSH1 0x5 ADD SLOAD LT ISZERO PUSH2 0x98A JUMPI PUSH1 0x40 MLOAD PUSH32 0x8C379A000000000000000000000000000000000000000000000000000000000 DUP2 MSTORE PUSH1 0x4 ADD PUSH2 0x981 SWAP1 PUSH2 0x19A6 JUMP JUMPDEST PUSH1 0x40 MLOAD DUP1 SWAP2 SUB SWAP1 REVERT JUMPDEST DUP3 CALLVALUE EQ PUSH2 0x9CC JUMPI PUSH1 0x40 MLOAD PUSH32 0x8C379A000000000000000000000000000000000000000000000000000000000 DUP2 MSTORE PUSH1 0x4 ADD PUSH2 0x9C3 SWAP1 PUSH2 0x1A0E JUMP JUMPDEST PUSH1 0x40 MLOAD DUP1 SWAP2 SUB SWAP1 REVERT JUMPDEST PUSH1 0x40 MLOAD DUP1 PUSH2 0x160 ADD PUSH1 0x40 MSTORE DUP1 DUP3 DUP2 MSTORE PUSH1 0x20 ADD CALLER PUSH20 0xFFFFFFFFFFFFFFFFFFFFFFFFFFFFFFFFFFFFFFFF AND DUP2 MSTORE PUSH1 0x20 ADD DUP6 PUSH20 0xFFFFFFFFFFFFFFFFFFFFFFFFFFFFFFFFFFFFFFFF AND DUP2 MSTORE PUSH1 0x20 ADD DUP5 DUP2 MSTORE PUSH1 0x20 ADD TIMESTAMP DUP2 MSTORE PUSH1 0x20 ADD PUSH1 0x1 DUP2 MSTORE PUSH1 0x20 ADD PUSH0 DUP2 MSTORE PUSH1 0x20 ADD PUSH0 DUP2 MSTORE PUSH1 0x20 ADD PUSH2 0x3E8 DUP2 MSTORE PUSH1 0x20 ADD PUSH0 ISZERO ISZERO DUP2 MSTORE PUSH1 0x20 ADD PUSH0 ISZERO ISZERO DUP2 MSTORE POP PUSH0 DUP1 DUP4 DUP2 MSTORE PUSH1 0x20 ADD SWAP1 DUP2 MSTORE PUSH1 0x20 ADD PUSH0 KECCAK256 PUSH0 DUP3 ADD MLOAD DUP2 PUSH0 ADD SSTORE PUSH1 0x20 DUP3 ADD MLOAD DUP2 PUSH1 0x1 ADD PUSH0 PUSH2 0x100 EXP DUP2 SLOAD DUP2 PUSH20 0xFFFFFFFFFFFFFFFFFFFFFFFFFFFFFFFFFFFFFFFF MUL NOT AND SWAP1 DUP4 PUSH20 0xFFFFFFFFFFFFFFFFFFFFFFFFFFFFFFFFFFFFFFFF AND MUL OR SWAP1 SSTORE POP PUSH1 0x40 DUP3 ADD MLOAD DUP2 PUSH1 0x2 ADD PUSH0 PUSH2 0x100 EXP DUP2 SLOAD DUP2 PUSH20 0xFFFFFFFFFFFFFFFFFFFFFFFFFFFFFFFFFFFFFFFF MUL NOT AND SWAP1 DUP4 PUSH20 0xFFFFFFFFFFFFFFFFFFFFFFFFFFFFFFFFFFFFFFFF AND MUL OR SWAP1 SSTORE POP PUSH1 0x60 DUP3 ADD MLOAD DUP2 PUSH1 0x3 ADD SSTORE PUSH1 0x80 DUP3 ADD MLOAD DUP2 PUSH1 0x4 ADD SSTORE PUSH1 0xA0 DUP3 ADD MLOAD DUP2 PUSH1 0x5 ADD SSTORE PUSH1 0xC0 DUP3 ADD MLOAD DUP2 PUSH1 0x6 ADD SSTORE PUSH1 0xE0 DUP3 ADD MLOAD DUP2 PUSH1 0x7 ADD SSTORE PUSH2 0x100 DUP3 ADD MLOAD DUP2 PUSH1 0x8 ADD SSTORE PUSH2 0x120 DUP3 ADD MLOAD DUP2 PUSH1 0x9 ADD PUSH0 PUSH2 0x100 EXP DUP2 SLOAD DUP2 PUSH1 0xFF MUL NOT AND SWAP1 DUP4 ISZERO ISZERO MUL OR SWAP1 SSTORE POP PUSH2 0x140 DUP3 ADD MLOAD DUP2 PUSH1 0x9 ADD PUSH1 0x1 PUSH2 0x100 EXP DUP2 SLOAD DUP2 PUSH1 0xFF MUL NOT AND SWAP1 DUP4 ISZERO ISZERO MUL OR SWAP1 SSTORE POP SWAP1 POP POP DUP1 PUSH32 0x7FFC675D721B8768E035A323722842743BB523487B535906ABC97E6B3E2095D0 PUSH1 0x40 MLOAD PUSH1 0x40 MLOAD DUP1 SWAP2 SUB SWAP1 LOG2 DUP1 SWAP2 POP POP SWAP3 SWAP2 POP POP JUMP JUMPDEST DUP2 PUSH1 0x1 PUSH0 DUP1 DUP4 DUP2 MSTORE PUSH1 0x20 ADD SWAP1 DUP2 MSTORE PUSH1 0x20 ADD PUSH0 KECCAK256 PUSH1 0x5 ADD SLOAD EQ PUSH2 0xBFE JUMPI PUSH1 0x40 MLOAD PUSH32 0x8C379A000000000000000000000000000000000000000000000000000000000 DUP2 MSTORE PUSH1 0x4 ADD PUSH2 0xBF5 SWAP1 PUSH2 0x1A76 JUMP JUMPDEST PUSH1 0x40 MLOAD DUP1 SWAP2 SUB SWAP1 REVERT JUMPDEST DUP2 PUSH0 DUP1 DUP6 DUP2 MSTORE PUSH1 0x20 ADD SWAP1 DUP2 MSTORE PUSH1 0x20 ADD PUSH0 KECCAK256 PUSH1 0x6 ADD SLOAD GT ISZERO PUSH2 0xC54 JUMPI PUSH1 0x40 MLOAD PUSH32 0x8C379A000000000000000000000000000000000000000000000000000000000 DUP2 MSTORE PUSH1 0x4 ADD PUSH2 0xC4B SWAP1 PUSH2 0x1B04 JUMP JUMPDEST PUSH1 0x40 MLOAD DUP1 SWAP2 SUB SWAP1 REVERT JUMPDEST PUSH0 DUP1 CALLER SWAP2 POP PUSH0 DUP1 DUP7 DUP2 MSTORE PUSH1 0x20 ADD SWAP1 DUP2 MSTORE PUSH1 0x20 ADD PUSH0 KECCAK256 PUSH1 0x1 ADD PUSH0 SWAP1 SLOAD SWAP1 PUSH2 0x100 EXP SWAP1 DIV PUSH20 0xFFFFFFFFFFFFFFFFFFFFFFFFFFFFFFFFFFFFFFFF AND PUSH20 0xFFFFFFFFFFFFFFFFFFFFFFFFFFFFFFFFFFFFFFFF AND DUP3 PUSH20 0xFFFFFFFFFFFFFFFFFFFFFFFFFFFFFFFFFFFFFFFF AND EQ DUP1 PUSH2 0xD22 JUMPI POP PUSH0 DUP1 DUP7 DUP2 MSTORE PUSH1 0x20 ADD SWAP1 DUP2 MSTORE PUSH1 0x20 ADD PUSH0 KECCAK256 PUSH1 0x2 ADD PUSH0 SWAP1 SLOAD SWAP1 PUSH2 0x100 EXP SWAP1 DIV PUSH20 0xFFFFFFFFFFFFFFFFFFFFFFFFFFFFFFFFFFFFFFFF AND PUSH20 0xFFFFFFFFFFFFFFFFFFFFFFFFFFFFFFFFFFFFFFFF AND DUP3 PUSH20 0xFFFFFFFFFFFFFFFFFFFFFFFFFFFFFFFFFFFFFFFF AND EQ JUMPDEST PUSH2 0xD61 JUMPI PUSH1 0x40 MLOAD PUSH32 0x8C379A000000000000000000000000000000000000000000000000000000000 DUP2 MSTORE PUSH1 0x4 ADD PUSH2 0xD58 SWAP1 PUSH2 0x1B6C JUMP JUMPDEST PUSH1 0x40 MLOAD DUP1 SWAP2 SUB SWAP1 REVERT JUMPDEST DUP4 PUSH1 0x40 MLOAD PUSH1 0x20 ADD PUSH2 0xD72 SWAP2 SWAP1 PUSH2 0x1BAA JUMP JUMPDEST PUSH1 0x40 MLOAD PUSH1 0x20 DUP2 DUP4 SUB SUB DUP2 MSTORE SWAP1 PUSH1 0x40 MSTORE DUP1 MLOAD SWAP1 PUSH1 0x20 ADD KECCAK256 SWAP1 POP PUSH0 DUP1 DUP7 DUP2 MSTORE PUSH1 0x20 ADD SWAP1 DUP2 MSTORE PUSH1 0x20 ADD PUSH0 KECCAK256 PUSH1 0x1 ADD PUSH0 SWAP1 SLOAD SWAP1 PUSH2 0x100 EXP SWAP1 DIV PUSH20 0xFFFFFFFFFFFFFFFFFFFFFFFFFFFFFFFFFFFFFFFF AND PUSH20 0xFFFFFFFFFFFFFFFFFFFFFFFFFFFFFFFFFFFFFFFF AND DUP3 PUSH20 0xFFFFFFFFFFFFFFFFFFFFFFFFFFFFFFFFFFFFFFFF AND SUB PUSH2 0xE1F JUMPI PUSH1 0x1 PUSH0 DUP1 DUP8 DUP2 MSTORE PUSH1 0x20 ADD SWAP1 DUP2 MSTORE PUSH1 0x20 ADD PUSH0 KECCAK256 PUSH1 0x9 ADD PUSH0 PUSH2 0x100 EXP DUP2 SLOAD DUP2 PUSH1 0xFF MUL NOT AND SWAP1 DUP4 ISZERO ISZERO MUL OR SWAP1 SSTORE POP PUSH2 0xE4C JUMP JUMPDEST PUSH1 0x1 PUSH0 DUP1 DUP8 DUP2 MSTORE PUSH1 0x20 ADD SWAP1 DUP2 MSTORE PUSH1 0x20 ADD PUSH0 KECCAK256 PUSH1 0x9 ADD PUSH1 0x1 PUSH2 0x100 EXP DUP2 SLOAD DUP2 PUSH1 0xFF MUL NOT AND SWAP1 DUP4 ISZERO ISZERO MUL OR SWAP1 SSTORE POP JUMPDEST DUP4 PUSH0 DUP1 DUP8 DUP2 MSTORE PUSH1 0x20 ADD SWAP1 DUP2 MSTORE PUSH1 0x20 ADD PUSH0 KECCAK256 PUSH1 0x6 ADD DUP2 SWAP1 SSTORE POP PUSH1 0x2 PUSH0 DUP1 DUP8 DUP2 MSTORE PUSH1 0x20 ADD SWAP1 DUP2 MSTORE PUSH1 0x20 ADD PUSH0 KECCAK256 PUSH1 0x5 ADD DUP2 SWAP1 SSTORE POP TIMESTAMP PUSH0 DUP1 DUP8 DUP2 MSTORE PUSH1 0x20 ADD SWAP1 DUP2 MSTORE PUSH1 0x20 ADD PUSH0 KECCAK256 PUSH1 0x7 ADD DUP2 SWAP1 SSTORE POP POP POP POP POP POP JUMP JUMPDEST PUSH1 0x60 PUSH0 DUP3 SWAP1 POP PUSH1 0x40 MLOAD DUP1 PUSH1 0x40 ADD PUSH1 0x40 MSTORE DUP1 PUSH1 0x5 DUP2 MSTORE PUSH1 0x20 ADD PUSH32 0x68656C6C6F000000000000000000000000000000000000000000000000000000 DUP2 MSTORE POP SWAP2 POP POP SWAP2 SWAP1 POP JUMP JUMPDEST PUSH2 0xEE8 PUSH2 0x1040 JUMP JUMPDEST PUSH0 DUP1 DUP4 DUP2 MSTORE PUSH1 0x20 ADD SWAP1 DUP2 MSTORE PUSH1 0x20 ADD PUSH0 KECCAK256 PUSH1 0x40 MLOAD DUP1 PUSH2 0x160 ADD PUSH1 0x40 MSTORE SWAP1 DUP2 PUSH0 DUP3 ADD SLOAD DUP2 MSTORE PUSH1 0x20 ADD PUSH1 0x1 DUP3 ADD PUSH0 SWAP1 SLOAD SWAP1 PUSH2 0x100 EXP SWAP1 DIV PUSH20 0xFFFFFFFFFFFFFFFFFFFFFFFFFFFFFFFFFFFFFFFF AND PUSH20 0xFFFFFFFFFFFFFFFFFFFFFFFFFFFFFFFFFFFFFFFF AND PUSH20 0xFFFFFFFFFFFFFFFFFFFFFFFFFFFFFFFFFFFFFFFF AND DUP2 MSTORE PUSH1 0x20 ADD PUSH1 0x2 DUP3 ADD PUSH0 SWAP1 SLOAD SWAP1 PUSH2 0x100 EXP SWAP1 DIV PUSH20 0xFFFFFFFFFFFFFFFFFFFFFFFFFFFFFFFFFFFFFFFF AND PUSH20 0xFFFFFFFFFFFFFFFFFFFFFFFFFFFFFFFFFFFFFFFF AND PUSH20 0xFFFFFFFFFFFFFFFFFFFFFFFFFFFFFFFFFFFFFFFF AND DUP2 MSTORE PUSH1 0x20 ADD PUSH1 0x3 DUP3 ADD SLOAD DUP2 MSTORE PUSH1 0x20 ADD PUSH1 0x4 DUP3 ADD SLOAD DUP2 MSTORE PUSH1 0x20 ADD PUSH1 0x5 DUP3 ADD SLOAD DUP2 MSTORE PUSH1 0x20 ADD PUSH1 0x6 DUP3 ADD SLOAD DUP2 MSTORE PUSH1 0x20 ADD PUSH1 0x7 DUP3 ADD SLOAD DUP2 MSTORE PUSH1 0x20 ADD PUSH1 0x8 DUP3 ADD SLOAD DUP2 MSTORE PUSH1 0x20 ADD PUSH1 0x9 DUP3 ADD PUSH0 SWAP1 SLOAD SWAP1 PUSH2 0x100 EXP SWAP1 DIV PUSH1 0xFF AND ISZERO ISZERO ISZERO ISZERO DUP2 MSTORE PUSH1 0x20 ADD PUSH1 0x9 DUP3 ADD PUSH1 0x1 SWAP1 SLOAD SWAP1 PUSH2 0x100 EXP SWAP1 DIV PUSH1 0xFF AND ISZERO ISZERO ISZERO ISZERO DUP2 MSTORE POP POP SWAP1 POP SWAP2 SWAP1 POP JUMP JUMPDEST PUSH0 PUSH2 0x1039 DUP3 PUSH2 0x102F JUMP JUMPDEST SWAP1 POP SWAP2 SWAP1 POP JUMP JUMPDEST PUSH1 0x40 MLOAD DUP1 PUSH2 0x160 ADD PUSH1 0x40 MSTORE DUP1 PUSH0 DUP1 NOT AND DUP2 MSTORE PUSH1 0x20 ADD PUSH0 PUSH20 0xFFFFFFFFFFFFFFFFFFFFFFFFFFFFFFFFFFFFFFFF AND DUP2 MSTORE PUSH1 0x20 ADD PUSH0 PUSH20 0xFFFFFFFFFFFFFFFFFFFFFFFFFFFFFFFFFFFFFFFF AND DUP2 MSTORE PUSH1 0x20 ADD PUSH0 DUP2 MSTORE PUSH1 0x20 ADD PUSH0 DUP2 MSTORE PUSH1 0x20 ADD PUSH0 DUP2 MSTORE PUSH1 0x20 ADD PUSH0 DUP2 MSTORE PUSH1 0x20 ADD PUSH0 DUP2 MSTORE PUSH1 0x20 ADD PUSH0 DUP2 MSTORE PUSH1 0x20 ADD PUSH0 ISZERO ISZERO DUP2 MSTORE PUSH1 0x20 ADD PUSH0 ISZERO ISZERO DUP2 MSTORE POP SWAP1 JUMP JUMPDEST PUSH0 DUP1 REVERT JUMPDEST PUSH0 DUP2 SWAP1 POP SWAP2 SWAP1 POP JUMP JUMPDEST PUSH2 0x10D8 DUP2 PUSH2 0x10C6 JUMP JUMPDEST DUP2 EQ PUSH2 0x10E2 JUMPI PUSH0 DUP1 REVERT JUMPDEST POP JUMP JUMPDEST PUSH0 DUP2 CALLDATALOAD SWAP1 POP PUSH2 0x10F3 DUP2 PUSH2 0x10CF JUMP JUMPDEST SWAP3 SWAP2 POP POP JUMP JUMPDEST PUSH0 DUP2 SWAP1 POP SWAP2 SWAP1 POP JUMP JUMPDEST PUSH2 0x110B DUP2 PUSH2 0x10F9 JUMP JUMPDEST DUP2 EQ PUSH2 0x1115 JUMPI PUSH0 DUP1 REVERT JUMPDEST POP JUMP JUMPDEST PUSH0 DUP2 CALLDATALOAD SWAP1 POP PUSH2 0x1126 DUP2 PUSH2 0x1102 JUMP JUMPDEST SWAP3 SWAP2 POP POP JUMP JUMPDEST PUSH0 DUP1 PUSH1 0x40 DUP4 DUP6 SUB SLT ISZERO PUSH2 0x1142 JUMPI PUSH2 0x1141 PUSH2 0x10C2 JUMP JUMPDEST JUMPDEST PUSH0 PUSH2 0x114F DUP6 DUP3 DUP7 ADD PUSH2 0x10E5 JUMP JUMPDEST SWAP3 POP POP PUSH1 0x20 PUSH2 0x1160 DUP6 DUP3 DUP7 ADD PUSH2 0x1118 JUMP JUMPDEST SWAP2 POP POP SWAP3 POP SWAP3 SWAP1 POP JUMP JUMPDEST PUSH0 PUSH1 0x20 DUP3 DUP5 SUB SLT ISZERO PUSH2 0x117F JUMPI PUSH2 0x117E PUSH2 0x10C2 JUMP JUMPDEST JUMPDEST PUSH0 PUSH2 0x118C DUP5 DUP3 DUP6 ADD PUSH2 0x10E5 JUMP JUMPDEST SWAP2 POP POP SWAP3 SWAP2 POP POP JUMP JUMPDEST PUSH0 PUSH20 0xFFFFFFFFFFFFFFFFFFFFFFFFFFFFFFFFFFFFFFFF DUP3 AND SWAP1 POP SWAP2 SWAP1 POP JUMP JUMPDEST PUSH0 PUSH2 0x11BE DUP3 PUSH2 0x1195 JUMP JUMPDEST SWAP1 POP SWAP2 SWAP1 POP JUMP JUMPDEST PUSH2 0x11CE DUP2 PUSH2 0x11B4 JUMP JUMPDEST DUP3 MSTORE POP POP JUMP JUMPDEST PUSH2 0x11DD DUP2 PUSH2 0x10F9 JUMP JUMPDEST DUP3 MSTORE POP POP JUMP JUMPDEST PUSH0 PUSH1 0xA0 DUP3 ADD SWAP1 POP PUSH2 0x11F6 PUSH0 DUP4 ADD DUP9 PUSH2 0x11C5 JUMP JUMPDEST PUSH2 0x1203 PUSH1 0x20 DUP4 ADD DUP8 PUSH2 0x11C5 JUMP JUMPDEST PUSH2 0x1210 PUSH1 0x40 DUP4 ADD DUP7 PUSH2 0x11D4 JUMP JUMPDEST PUSH2 0x121D PUSH1 0x60 DUP4 ADD DUP6 PUSH2 0x11D4 JUMP JUMPDEST PUSH2 0x122A PUSH1 0x80 DUP4 ADD DUP5 PUSH2 0x11D4 JUMP JUMPDEST SWAP7 SWAP6 POP POP POP POP POP POP JUMP JUMPDEST PUSH2 0x123D DUP2 PUSH2 0x11B4 JUMP JUMPDEST DUP2 EQ PUSH2 0x1247 JUMPI PUSH0 DUP1 REVERT JUMPDEST POP JUMP JUMPDEST PUSH0 DUP2 CALLDATALOAD SWAP1 POP PUSH2 0x1258 DUP2 PUSH2 0x1234 JUMP JUMPDEST SWAP3 SWAP2 POP POP JUMP JUMPDEST PUSH0 DUP1 PUSH1 0x40 DUP4 DUP6 SUB SLT ISZERO PUSH2 0x1274 JUMPI PUSH2 0x1273 PUSH2 0x10C2 JUMP JUMPDEST JUMPDEST PUSH0 PUSH2 0x1281 DUP6 DUP3 DUP7 ADD PUSH2 0x124A JUMP JUMPDEST SWAP3 POP POP PUSH1 0x20 PUSH2 0x1292 DUP6 DUP3 DUP7 ADD PUSH2 0x1118 JUMP JUMPDEST SWAP2 POP POP SWAP3 POP SWAP3 SWAP1 POP JUMP JUMPDEST PUSH2 0x12A5 DUP2 PUSH2 0x10C6 JUMP JUMPDEST DUP3 MSTORE POP POP JUMP JUMPDEST PUSH0 PUSH1 0x20 DUP3 ADD SWAP1 POP PUSH2 0x12BE PUSH0 DUP4 ADD DUP5 PUSH2 0x129C JUMP JUMPDEST SWAP3 SWAP2 POP POP JUMP JUMPDEST PUSH0 PUSH1 0x20 DUP3 DUP5 SUB SLT ISZERO PUSH2 0x12D9 JUMPI PUSH2 0x12D8 PUSH2 0x10C2 JUMP JUMPDEST JUMPDEST PUSH0 PUSH2 0x12E6 DUP5 DUP3 DUP6 ADD PUSH2 0x124A JUMP JUMPDEST SWAP2 POP POP SWAP3 SWAP2 POP POP JUMP JUMPDEST PUSH0 DUP2 MLOAD SWAP1 POP SWAP2 SWAP1 POP JUMP JUMPDEST PUSH0 DUP3 DUP3 MSTORE PUSH1 0x20 DUP3 ADD SWAP1 POP SWAP3 SWAP2 POP POP JUMP JUMPDEST DUP3 DUP2 DUP4 MCOPY PUSH0 DUP4 DUP4 ADD MSTORE POP POP POP JUMP JUMPDEST PUSH0 PUSH1 0x1F NOT PUSH1 0x1F DUP4 ADD AND SWAP1 POP SWAP2 SWAP1 POP JUMP JUMPDEST PUSH0 PUSH2 0x1331 DUP3 PUSH2 0x12EF JUMP JUMPDEST PUSH2 0x133B DUP2 DUP6 PUSH2 0x12F9 JUMP JUMPDEST SWAP4 POP PUSH2 0x134B DUP2 DUP6 PUSH1 0x20 DUP7 ADD PUSH2 0x1309 JUMP JUMPDEST PUSH2 0x1354 DUP2 PUSH2 0x1317 JUMP JUMPDEST DUP5 ADD SWAP2 POP POP SWAP3 SWAP2 POP POP JUMP JUMPDEST PUSH0 PUSH1 0x20 DUP3 ADD SWAP1 POP DUP2 DUP2 SUB PUSH0 DUP4 ADD MSTORE PUSH2 0x1377 DUP2 DUP5 PUSH2 0x1327 JUMP JUMPDEST SWAP1 POP SWAP3 SWAP2 POP POP JUMP JUMPDEST PUSH2 0x1388 DUP2 PUSH2 0x10C6 JUMP JUMPDEST DUP3 MSTORE POP POP JUMP JUMPDEST PUSH0 PUSH2 0x1398 DUP3 PUSH2 0x1195 JUMP JUMPDEST SWAP1 POP SWAP2 SWAP1 POP JUMP JUMPDEST PUSH2 0x13A8 DUP2 PUSH2 0x138E JUMP JUMPDEST DUP3 MSTORE POP POP JUMP JUMPDEST PUSH2 0x13B7 DUP2 PUSH2 0x10F9 JUMP JUMPDEST DUP3 MSTORE POP POP JUMP JUMPDEST PUSH0 DUP2 ISZERO ISZERO SWAP1 POP SWAP2 SWAP1 POP JUMP JUMPDEST PUSH2 0x13D1 DUP2 PUSH2 0x13BD JUMP JUMPDEST DUP3 MSTORE POP POP JUMP JUMPDEST PUSH2 0x160 DUP3 ADD PUSH0 DUP3 ADD MLOAD PUSH2 0x13EC PUSH0 DUP6 ADD DUP3 PUSH2 0x137F JUMP JUMPDEST POP PUSH1 0x20 DUP3 ADD MLOAD PUSH2 0x13FF PUSH1 0x20 DUP6 ADD DUP3 PUSH2 0x139F JUMP JUMPDEST POP PUSH1 0x40 DUP3 ADD MLOAD PUSH2 0x1412 PUSH1 0x40 DUP6 ADD DUP3 PUSH2 0x139F JUMP JUMPDEST POP PUSH1 0x60 DUP3 ADD MLOAD PUSH2 0x1425 PUSH1 0x60 DUP6 ADD DUP3 PUSH2 0x13AE JUMP JUMPDEST POP PUSH1 0x80 DUP3 ADD MLOAD PUSH2 0x1438 PUSH1 0x80 DUP6 ADD DUP3 PUSH2 0x13AE JUMP JUMPDEST POP PUSH1 0xA0 DUP3 ADD MLOAD PUSH2 0x144B PUSH1 0xA0 DUP6 ADD DUP3 PUSH2 0x13AE JUMP JUMPDEST POP PUSH1 0xC0 DUP3 ADD MLOAD PUSH2 0x145E PUSH1 0xC0 DUP6 ADD DUP3 PUSH2 0x13AE JUMP JUMPDEST POP PUSH1 0xE0 DUP3 ADD MLOAD PUSH2 0x1471 PUSH1 0xE0 DUP6 ADD DUP3 PUSH2 0x13AE JUMP JUMPDEST POP PUSH2 0x100 DUP3 ADD MLOAD PUSH2 0x1486 PUSH2 0x100 DUP6 ADD DUP3 PUSH2 0x13AE JUMP JUMPDEST POP PUSH2 0x120 DUP3 ADD MLOAD PUSH2 0x149B PUSH2 0x120 DUP6 ADD DUP3 PUSH2 0x13C8 JUMP JUMPDEST POP PUSH2 0x140 DUP3 ADD MLOAD PUSH2 0x14B0 PUSH2 0x140 DUP6 ADD DUP3 PUSH2 0x13C8 JUMP JUMPDEST POP POP POP POP JUMP JUMPDEST PUSH0 PUSH2 0x160 DUP3 ADD SWAP1 POP PUSH2 0x14CA PUSH0 DUP4 ADD DUP5 PUSH2 0x13D7 JUMP JUMPDEST SWAP3 SWAP2 POP POP JUMP JUMPDEST PUSH0 PUSH1 0x20 DUP3 ADD SWAP1 POP PUSH2 0x14E3 PUSH0 DUP4 ADD DUP5 PUSH2 0x11D4 JUMP JUMPDEST SWAP3 SWAP2 POP POP JUMP JUMPDEST PUSH32 0x4F6E6C79207061727469636970616E7473000000000000000000000000000000 PUSH0 DUP3 ADD MSTORE POP JUMP JUMPDEST PUSH0 PUSH2 0x151D PUSH1 0x11 DUP4 PUSH2 0x12F9 JUMP JUMPDEST SWAP2 POP PUSH2 0x1528 DUP3 PUSH2 0x14E9 JUMP JUMPDEST PUSH1 0x20 DUP3 ADD SWAP1 POP SWAP2 SWAP1 POP JUMP JUMPDEST PUSH0 PUSH1 0x20 DUP3 ADD SWAP1 POP DUP2 DUP2 SUB PUSH0 DUP4 ADD MSTORE PUSH2 0x154A DUP2 PUSH2 0x1511 JUMP JUMPDEST SWAP1 POP SWAP2 SWAP1 POP JUMP JUMPDEST PUSH32 0x54686973206368616E6E656C206973206E6F7420756E6465722077616974696E PUSH0 DUP3 ADD MSTORE PUSH32 0x672D636C6F7375726520706572696F642E000000000000000000000000000000 PUSH1 0x20 DUP3 ADD MSTORE POP JUMP JUMPDEST PUSH0 PUSH2 0x15AB PUSH1 0x31 DUP4 PUSH2 0x12F9 JUMP JUMPDEST SWAP2 POP PUSH2 0x15B6 DUP3 PUSH2 0x1551 JUMP JUMPDEST PUSH1 0x40 DUP3 ADD SWAP1 POP SWAP2 SWAP1 POP JUMP JUMPDEST PUSH0 PUSH1 0x20 DUP3 ADD SWAP1 POP DUP2 DUP2 SUB PUSH0 DUP4 ADD MSTORE PUSH2 0x15D8 DUP2 PUSH2 0x159F JUMP JUMPDEST SWAP1 POP SWAP2 SWAP1 POP JUMP JUMPDEST PUSH32 0x4E487B7100000000000000000000000000000000000000000000000000000000 PUSH0 MSTORE PUSH1 0x11 PUSH1 0x4 MSTORE PUSH1 0x24 PUSH0 REVERT JUMPDEST PUSH0 PUSH2 0x1616 DUP3 PUSH2 0x10F9 JUMP JUMPDEST SWAP2 POP PUSH2 0x1621 DUP4 PUSH2 0x10F9 JUMP JUMPDEST SWAP3 POP DUP3 DUP3 ADD SWAP1 POP DUP1 DUP3 GT ISZERO PUSH2 0x1639 JUMPI PUSH2 0x1638 PUSH2 0x15DF JUMP JUMPDEST JUMPDEST SWAP3 SWAP2 POP POP JUMP JUMPDEST PUSH32 0x4469737075746520706572696F642068617320657870697265642E0000000000 PUSH0 DUP3 ADD MSTORE POP JUMP JUMPDEST PUSH0 PUSH2 0x1673 PUSH1 0x1B DUP4 PUSH2 0x12F9 JUMP JUMPDEST SWAP2 POP PUSH2 0x167E DUP3 PUSH2 0x163F JUMP JUMPDEST PUSH1 0x20 DUP3 ADD SWAP1 POP SWAP2 SWAP1 POP JUMP JUMPDEST PUSH0 PUSH1 0x20 DUP3 ADD SWAP1 POP DUP2 DUP2 SUB PUSH0 DUP4 ADD MSTORE PUSH2 0x16A0 DUP2 PUSH2 0x1667 JUMP JUMPDEST SWAP1 POP SWAP2 SWAP1 POP JUMP JUMPDEST PUSH32 0x4974207365656D7320746865726520697320612064697370757465206F766572 PUSH0 DUP3 ADD MSTORE PUSH32 0x207468652066696E616C2073746174652C20676F207265706F72742069742E00 PUSH1 0x20 DUP3 ADD MSTORE POP JUMP JUMPDEST PUSH0 PUSH2 0x1701 PUSH1 0x3F DUP4 PUSH2 0x12F9 JUMP JUMPDEST SWAP2 POP PUSH2 0x170C DUP3 PUSH2 0x16A7 JUMP JUMPDEST PUSH1 0x40 DUP3 ADD SWAP1 POP SWAP2 SWAP1 POP JUMP JUMPDEST PUSH0 PUSH1 0x20 DUP3 ADD SWAP1 POP DUP2 DUP2 SUB PUSH0 DUP4 ADD MSTORE PUSH2 0x172E DUP2 PUSH2 0x16F5 JUMP JUMPDEST SWAP1 POP SWAP2 SWAP1 POP JUMP JUMPDEST PUSH32 0x4F6E6C7920726563697069656E742063616E20636F6E6669726D20636C6F7375 PUSH0 DUP3 ADD MSTORE PUSH32 0x7265206E6F772E00000000000000000000000000000000000000000000000000 PUSH1 0x20 DUP3 ADD MSTORE POP JUMP JUMPDEST PUSH0 PUSH2 0x178F PUSH1 0x27 DUP4 PUSH2 0x12F9 JUMP JUMPDEST SWAP2 POP PUSH2 0x179A DUP3 PUSH2 0x1735 JUMP JUMPDEST PUSH1 0x40 DUP3 ADD SWAP1 POP SWAP2 SWAP1 POP JUMP JUMPDEST PUSH0 PUSH1 0x20 DUP3 ADD SWAP1 POP DUP2 DUP2 SUB PUSH0 DUP4 ADD MSTORE PUSH2 0x17BC DUP2 PUSH2 0x1783 JUMP JUMPDEST SWAP1 POP SWAP2 SWAP1 POP JUMP JUMPDEST PUSH32 0x4F6E6C792073656E6465722063616E20636F6E6669726D20636C6F7375726520 PUSH0 DUP3 ADD MSTORE PUSH32 0x6E6F772E00000000000000000000000000000000000000000000000000000000 PUSH1 0x20 DUP3 ADD MSTORE POP JUMP JUMPDEST PUSH0 PUSH2 0x181D PUSH1 0x24 DUP4 PUSH2 0x12F9 JUMP JUMPDEST SWAP2 POP PUSH2 0x1828 DUP3 PUSH2 0x17C3 JUMP JUMPDEST PUSH1 0x40 DUP3 ADD SWAP1 POP SWAP2 SWAP1 POP JUMP JUMPDEST PUSH0 PUSH1 0x20 DUP3 ADD SWAP1 POP DUP2 DUP2 SUB PUSH0 DUP4 ADD MSTORE PUSH2 0x184A DUP2 PUSH2 0x1811 JUMP JUMPDEST SWAP1 POP SWAP2 SWAP1 POP JUMP JUMPDEST PUSH0 PUSH2 0x185B DUP3 PUSH2 0x10F9 JUMP JUMPDEST SWAP2 POP PUSH2 0x1866 DUP4 PUSH2 0x10F9 JUMP JUMPDEST SWAP3 POP DUP3 DUP3 SUB SWAP1 POP DUP2 DUP2 GT ISZERO PUSH2 0x187E JUMPI PUSH2 0x187D PUSH2 0x15DF JUMP JUMPDEST JUMPDEST SWAP3 SWAP2 POP POP JUMP JUMPDEST PUSH32 0x53656E6465722063616E6E6F7420626520726563697069656E74000000000000 PUSH0 DUP3 ADD MSTORE POP JUMP JUMPDEST PUSH0 PUSH2 0x18B8 PUSH1 0x1A DUP4 PUSH2 0x12F9 JUMP JUMPDEST SWAP2 POP PUSH2 0x18C3 DUP3 PUSH2 0x1884 JUMP JUMPDEST PUSH1 0x20 DUP3 ADD SWAP1 POP SWAP2 SWAP1 POP JUMP JUMPDEST PUSH0 PUSH1 0x20 DUP3 ADD SWAP1 POP DUP2 DUP2 SUB PUSH0 DUP4 ADD MSTORE PUSH2 0x18E5 DUP2 PUSH2 0x18AC JUMP JUMPDEST SWAP1 POP SWAP2 SWAP1 POP JUMP JUMPDEST PUSH0 DUP2 PUSH1 0x60 SHL SWAP1 POP SWAP2 SWAP1 POP JUMP JUMPDEST PUSH0 PUSH2 0x1902 DUP3 PUSH2 0x18EC JUMP JUMPDEST SWAP1 POP SWAP2 SWAP1 POP JUMP JUMPDEST PUSH0 PUSH2 0x1913 DUP3 PUSH2 0x18F8 JUMP JUMPDEST SWAP1 POP SWAP2 SWAP1 POP JUMP JUMPDEST PUSH2 0x192B PUSH2 0x1926 DUP3 PUSH2 0x11B4 JUMP JUMPDEST PUSH2 0x1909 JUMP JUMPDEST DUP3 MSTORE POP POP JUMP JUMPDEST PUSH0 PUSH2 0x193C DUP3 DUP6 PUSH2 0x191A JUMP JUMPDEST PUSH1 0x14 DUP3 ADD SWAP2 POP PUSH2 0x194C DUP3 DUP5 PUSH2 0x191A JUMP JUMPDEST PUSH1 0x14 DUP3 ADD SWAP2 POP DUP2 SWAP1 POP SWAP4 SWAP3 POP POP POP JUMP JUMPDEST PUSH32 0x4368616E6E656C20616C72656164792065786973747300000000000000000000 PUSH0 DUP3 ADD MSTORE POP JUMP JUMPDEST PUSH0 PUSH2 0x1990 PUSH1 0x16 DUP4 PUSH2 0x12F9 JUMP JUMPDEST SWAP2 POP PUSH2 0x199B DUP3 PUSH2 0x195C JUMP JUMPDEST PUSH1 0x20 DUP3 ADD SWAP1 POP SWAP2 SWAP1 POP JUMP JUMPDEST PUSH0 PUSH1 0x20 DUP3 ADD SWAP1 POP DUP2 DUP2 SUB PUSH0 DUP4 ADD MSTORE PUSH2 0x19BD DUP2 PUSH2 0x1984 JUMP JUMPDEST SWAP1 POP SWAP2 SWAP1 POP JUMP JUMPDEST PUSH32 0x496E636F72726563742073656E646572206465706F73697420616D6F756E7400 PUSH0 DUP3 ADD MSTORE POP JUMP JUMPDEST PUSH0 PUSH2 0x19F8 PUSH1 0x1F DUP4 PUSH2 0x12F9 JUMP JUMPDEST SWAP2 POP PUSH2 0x1A03 DUP3 PUSH2 0x19C4 JUMP JUMPDEST PUSH1 0x20 DUP3 ADD SWAP1 POP SWAP2 SWAP1 POP JUMP JUMPDEST PUSH0 PUSH1 0x20 DUP3 ADD SWAP1 POP DUP2 DUP2 SUB PUSH0 DUP4 ADD MSTORE PUSH2 0x1A25 DUP2 PUSH2 0x19EC JUMP JUMPDEST SWAP1 POP SWAP2 SWAP1 POP JUMP JUMPDEST PUSH32 0x4F6E6C79207768656E206368616E6E656C206973206F70656E00000000000000 PUSH0 DUP3 ADD MSTORE POP JUMP JUMPDEST PUSH0 PUSH2 0x1A60 PUSH1 0x19 DUP4 PUSH2 0x12F9 JUMP JUMPDEST SWAP2 POP PUSH2 0x1A6B DUP3 PUSH2 0x1A2C JUMP JUMPDEST PUSH1 0x20 DUP3 ADD SWAP1 POP SWAP2 SWAP1 POP JUMP JUMPDEST PUSH0 PUSH1 0x20 DUP3 ADD SWAP1 POP DUP2 DUP2 SUB PUSH0 DUP4 ADD MSTORE PUSH2 0x1A8D DUP2 PUSH2 0x1A54 JUMP JUMPDEST SWAP1 POP SWAP2 SWAP1 POP JUMP JUMPDEST PUSH32 0x496E76616C69642076616C75652C20736D616C6C6572207468616E2074686520 PUSH0 DUP3 ADD MSTORE PUSH32 0x70726576696F7573207265636F72640000000000000000000000000000000000 PUSH1 0x20 DUP3 ADD MSTORE POP JUMP JUMPDEST PUSH0 PUSH2 0x1AEE PUSH1 0x2F DUP4 PUSH2 0x12F9 JUMP JUMPDEST SWAP2 POP PUSH2 0x1AF9 DUP3 PUSH2 0x1A94 JUMP JUMPDEST PUSH1 0x40 DUP3 ADD SWAP1 POP SWAP2 SWAP1 POP JUMP JUMPDEST PUSH0 PUSH1 0x20 DUP3 ADD SWAP1 POP DUP2 DUP2 SUB PUSH0 DUP4 ADD MSTORE PUSH2 0x1B1B DUP2 PUSH2 0x1AE2 JUMP JUMPDEST SWAP1 POP SWAP2 SWAP1 POP JUMP JUMPDEST PUSH32 0x4E6F7420617574686F72697A6564207369676E65720000000000000000000000 PUSH0 DUP3 ADD MSTORE POP JUMP JUMPDEST PUSH0 PUSH2 0x1B56 PUSH1 0x15 DUP4 PUSH2 0x12F9 JUMP JUMPDEST SWAP2 POP PUSH2 0x1B61 DUP3 PUSH2 0x1B22 JUMP JUMPDEST PUSH1 0x20 DUP3 ADD SWAP1 POP SWAP2 SWAP1 POP JUMP JUMPDEST PUSH0 PUSH1 0x20 DUP3 ADD SWAP1 POP DUP2 DUP2 SUB PUSH0 DUP4 ADD MSTORE PUSH2 0x1B83 DUP2 PUSH2 0x1B4A JUMP JUMPDEST SWAP1 POP SWAP2 SWAP1 POP JUMP JUMPDEST PUSH0 DUP2 SWAP1 POP SWAP2 SWAP1 POP JUMP JUMPDEST PUSH2 0x1BA4 PUSH2 0x1B9F DUP3 PUSH2 0x10F9 JUMP JUMPDEST PUSH2 0x1B8A JUMP JUMPDEST DUP3 MSTORE POP POP JUMP JUMPDEST PUSH0 PUSH2 0x1BB5 DUP3 DUP5 PUSH2 0x1B93 JUMP JUMPDEST PUSH1 0x20 DUP3 ADD SWAP2 POP DUP2 SWAP1 POP SWAP3 SWAP2 POP POP JUMP INVALID LOG2 PUSH5 0x6970667358 0x22 SLT KECCAK256 STOP 0xBE XOR CALLDATACOPY GASPRICE 0xE5 GT 0xF 0xDB SLOAD 0x27 CALLVALUE 0xC7 0x4C ADDRESS 0xAD 0xD5 PUSH17 0xB5B821915FB6AF05C0F29BC8426F64736F PUSH13 0x63430008190033000000000000 "
				},
				"gasEstimates": {
					"creation": {
						"codeDepositCost": "1432400",
						"executionCost": "1491",
						"totalCost": "1433891"
					},
					"external": {
						"balance(address)": "infinite",
						"closeChan(bytes32,uint256)": "infinite",
						"confirmClosure(bytes32,uint256)": "infinite",
						"greeting(address)": "infinite",
						"openChan(address,uint256)": "infinite",
						"paychanCheck(bytes32)": "infinite",
						"paychanSelectedArguments(bytes32)": "infinite"
					}
				},
				"methodIdentifiers": {
					"balance(address)": "e3d670d7",
					"closeChan(bytes32,uint256)": "91bc9212",
					"confirmClosure(bytes32,uint256)": "298c88d2",
					"greeting(address)": "a21d05d9",
					"openChan(address,uint256)": "63bbe7a3",
					"paychanCheck(bytes32)": "cfd5aabd",
					"paychanSelectedArguments(bytes32)": "2aefff5e"
				}
			},
			"storageLayout": {
				"storage": [
					{
						"astId": 33,
						"contract": "contracts/1_Storage.sol:paychan",
						"label": "paychans",
						"offset": 0,
						"slot": "0",
						"type": "t_mapping(t_bytes32,t_struct(PayChan)28_storage)"
					}
				],
				"types": {
					"t_address_payable": {
						"encoding": "inplace",
						"label": "address payable",
						"numberOfBytes": "20"
					},
					"t_bool": {
						"encoding": "inplace",
						"label": "bool",
						"numberOfBytes": "1"
					},
					"t_bytes32": {
						"encoding": "inplace",
						"label": "bytes32",
						"numberOfBytes": "32"
					},
					"t_mapping(t_bytes32,t_struct(PayChan)28_storage)": {
						"encoding": "mapping",
						"key": "t_bytes32",
						"label": "mapping(bytes32 => struct paychan.PayChan)",
						"numberOfBytes": "32",
						"value": "t_struct(PayChan)28_storage"
					},
					"t_struct(PayChan)28_storage": {
						"encoding": "inplace",
						"label": "struct paychan.PayChan",
						"members": [
							{
								"astId": 7,
								"contract": "contracts/1_Storage.sol:paychan",
								"label": "id",
								"offset": 0,
								"slot": "0",
								"type": "t_bytes32"
							},
							{
								"astId": 9,
								"contract": "contracts/1_Storage.sol:paychan",
								"label": "sender",
								"offset": 0,
								"slot": "1",
								"type": "t_address_payable"
							},
							{
								"astId": 11,
								"contract": "contracts/1_Storage.sol:paychan",
								"label": "recipient",
								"offset": 0,
								"slot": "2",
								"type": "t_address_payable"
							},
							{
								"astId": 13,
								"contract": "contracts/1_Storage.sol:paychan",
								"label": "senderDeposit",
								"offset": 0,
								"slot": "3",
								"type": "t_uint256"
							},
							{
								"astId": 15,
								"contract": "contracts/1_Storage.sol:paychan",
								"label": "startTime",
								"offset": 0,
								"slot": "4",
								"type": "t_uint256"
							},
							{
								"astId": 17,
								"contract": "contracts/1_Storage.sol:paychan",
								"label": "status",
								"offset": 0,
								"slot": "5",
								"type": "t_uint256"
							},
							{
								"astId": 19,
								"contract": "contracts/1_Storage.sol:paychan",
								"label": "fee",
								"offset": 0,
								"slot": "6",
								"type": "t_uint256"
							},
							{
								"astId": 21,
								"contract": "contracts/1_Storage.sol:paychan",
								"label": "disputeStartTime",
								"offset": 0,
								"slot": "7",
								"type": "t_uint256"
							},
							{
								"astId": 23,
								"contract": "contracts/1_Storage.sol:paychan",
								"label": "disputeDuration",
								"offset": 0,
								"slot": "8",
								"type": "t_uint256"
							},
							{
								"astId": 25,
								"contract": "contracts/1_Storage.sol:paychan",
								"label": "senderConfirm",
								"offset": 0,
								"slot": "9",
								"type": "t_bool"
							},
							{
								"astId": 27,
								"contract": "contracts/1_Storage.sol:paychan",
								"label": "recipientConfirm",
								"offset": 1,
								"slot": "9",
								"type": "t_bool"
							}
						],
						"numberOfBytes": "320"
					},
					"t_uint256": {
						"encoding": "inplace",
						"label": "uint256",
						"numberOfBytes": "32"
					}
				}
			},
			"userdoc": {
				"kind": "user",
				"methods": {},
				"version": 1
			}
		}
	}
}