{
	"contracts/fraud-detector/header.sol": {
		"HeaderDecoder": {
			"abi": [
				{
					"anonymous": false,
					"inputs": [
						{
							"indexed": false,
							"internalType": "bytes32",
							"name": "parentHash",
							"type": "bytes32"
						},
						{
							"indexed": false,
							"internalType": "bytes32",
							"name": "uncleHash",
							"type": "bytes32"
						},
						{
							"indexed": false,
							"internalType": "address",
							"name": "coinbase",
							"type": "address"
						},
						{
							"indexed": false,
							"internalType": "bytes32",
							"name": "stateRoot",
							"type": "bytes32"
						},
						{
							"indexed": false,
							"internalType": "bytes32",
							"name": "txHash",
							"type": "bytes32"
						},
						{
							"indexed": false,
							"internalType": "bytes32",
							"name": "receiptHash",
							"type": "bytes32"
						}
					],
					"name": "BasicHeaderDecoded",
					"type": "event"
				},
				{
					"anonymous": false,
					"inputs": [
						{
							"indexed": false,
							"internalType": "bytes32",
							"name": "headerHash",
							"type": "bytes32"
						}
					],
					"name": "DecodedHeader",
					"type": "event"
				},
				{
					"anonymous": false,
					"inputs": [
						{
							"indexed": false,
							"internalType": "bytes",
							"name": "logsBloom",
							"type": "bytes"
						},
						{
							"indexed": false,
							"internalType": "uint256",
							"name": "difficulty",
							"type": "uint256"
						},
						{
							"indexed": false,
							"internalType": "uint256",
							"name": "number",
							"type": "uint256"
						},
						{
							"indexed": false,
							"internalType": "uint256",
							"name": "gasLimit",
							"type": "uint256"
						},
						{
							"indexed": false,
							"internalType": "uint256",
							"name": "gasUsed",
							"type": "uint256"
						},
						{
							"indexed": false,
							"internalType": "uint256",
							"name": "timestamp",
							"type": "uint256"
						},
						{
							"indexed": false,
							"internalType": "bytes",
							"name": "extraData",
							"type": "bytes"
						},
						{
							"indexed": false,
							"internalType": "bytes32",
							"name": "mixDigest",
							"type": "bytes32"
						},
						{
							"indexed": false,
							"internalType": "uint64",
							"name": "nonce",
							"type": "uint64"
						},
						{
							"indexed": false,
							"internalType": "uint256",
							"name": "baseFee",
							"type": "uint256"
						}
					],
					"name": "ExtendedHeaderDecoded",
					"type": "event"
				},
				{
					"inputs": [
						{
							"internalType": "bytes",
							"name": "rlpEncodedHeader",
							"type": "bytes"
						}
					],
					"name": "decodeHeader",
					"outputs": [],
					"stateMutability": "nonpayable",
					"type": "function"
				}
			],
			"devdoc": {
				"kind": "dev",
				"methods": {},
				"version": 1
			},
			"evm": {
				"assembly": "    /* \"contracts/fraud-detector/header.sol\":94:4546  contract HeaderDecoder {... */\n  0x80\n  dup1\n  0x40\n  mstore\n  jumpi(tag_1, callvalue)\n  dataSize(sub_0)\n  swap1\n  dup2\n  dataOffset(sub_0)\n  dup3\n  codecopy\n  return\ntag_1:\n  0x00\n  dup1\n  revert\nstop\n\nsub_0: assembly {\n        /* \"contracts/fraud-detector/header.sol\":94:4546  contract HeaderDecoder {... */\n      mstore(0x40, 0x80)\n      jumpi(tag_66, iszero(lt(calldatasize, 0x04)))\n      0x00\n      dup1\n      revert\n    tag_66:\n      jumpi(tag_68, eq(0x64daf9d6, shr(0xe0, calldataload(0x00))))\n      0x00\n      dup1\n      revert\n    tag_68:\n      jumpi(tag_80, callvalue)\n      jumpi(tag_80, slt(add(not(0x03), calldatasize), 0x20))\n      calldataload(0x04)\n      0xffffffffffffffff\n      dup2\n      gt\n      tag_80\n      jumpi\n      calldatasize\n      0x23\n      dup3\n      add\n      slt\n      iszero\n      tag_80\n      jumpi\n      dup1\n      0x04\n      add\n      calldataload\n      tag_78\n      dup2\n      tag_5\n      jump\t// in\n    tag_78:\n      swap1\n      tag_79\n      mload(0x40)\n      swap3\n      dup4\n      tag_3\n      jump\t// in\n    tag_79:\n      dup1\n      dup3\n      mstore\n      calldatasize\n      0x24\n      dup3\n      dup6\n      add\n      add\n      gt\n      tag_80\n      jumpi\n      0x20\n      dup2\n      0x00\n      swap3\n      0x24\n      tag_82\n      swap7\n      add\n      dup4\n      dup7\n      add\n      calldatacopy\n      dup4\n      add\n      add\n      mstore\n      tag_7\n      jump\t// in\n    tag_82:\n      stop\n    tag_80:\n      0x00\n      dup1\n      revert\n    tag_1:\n      mstore(0x00, shl(0xe0, 0x4e487b71))\n      mstore(0x04, 0x41)\n      revert(0x00, 0x24)\n    tag_2:\n      0x40\n      dup2\n      add\n      swap1\n      dup2\n      lt\n      0xffffffffffffffff\n      dup3\n      gt\n      or\n      tag_83\n      jumpi\n      0x40\n      mstore\n      jump\t// out\n    tag_83:\n      tag_1\n      jump\t// in\n    tag_3:\n      swap1\n      0x1f\n      dup1\n      not\n      swap2\n      add\n      and\n      dup2\n      add\n      swap1\n      dup2\n      lt\n      0xffffffffffffffff\n      dup3\n      gt\n      or\n      tag_83\n      jumpi\n      0x40\n      mstore\n      jump\t// out\n    tag_4:\n      mload(0x40)\n      swap1\n      tag_87\n      dup3\n      tag_2\n      jump\t// in\n    tag_87:\n      jump\t// out\n    tag_5:\n      0xffffffffffffffff\n      dup2\n      gt\n      tag_83\n      jumpi\n      0x1f\n      add\n      not(0x1f)\n      and\n      0x20\n      add\n      swap1\n      jump\t// out\n        /* \"contracts/fraud-detector/header.sol\":1231:1684  function decodeHeader(bytes memory rlpEncodedHeader) public {... */\n    tag_7:\n        /* \"contracts/fraud-detector/header.sol\":1652:1677  DecodedHeader(headerHash) */\n      tag_90\n        /* \"contracts/fraud-detector/header.sol\":1600:1637  _calculateHeaderHash(basic, extended) */\n      tag_91\n        /* \"contracts/fraud-detector/header.sol\":1652:1677  DecodedHeader(headerHash) */\n      0x02ffa1a605bcf5c5c5087ccdceb693bf7b2707f27539e4a39ee472dd39b994fc\n        /* \"contracts/fraud-detector/header.sol\":1231:1684  function decodeHeader(bytes memory rlpEncodedHeader) public {... */\n      swap3\n        /* \"contracts/fraud-detector/header.sol\":1483:1522  _decodeExtendedHeader(rlpEncodedHeader) */\n      tag_92\n        /* \"contracts/fraud-detector/header.sol\":94:4546  contract HeaderDecoder {... */\n      tag_93\n      tag_8\n      jump\t// in\n    tag_93:\n        /* \"contracts/fraud-detector/header.sol\":1873:1901  rlpEncodedHeader.toRlpItem() */\n      swap2\n        /* \"contracts/fraud-detector/header.sol\":2313:2514  BasicHeaderDecoded(... */\n      0x6b77492f2b47f1136c4011ec23324d3623d4fb0471224d43c00b9537d67ad296\n        /* \"contracts/fraud-detector/header.sol\":1873:1910  rlpEncodedHeader.toRlpItem().toList() */\n      tag_94\n        /* \"contracts/fraud-detector/header.sol\":1873:1901  rlpEncodedHeader.toRlpItem() */\n      tag_95\n      dup4\n      tag_44\n      jump\t// in\n    tag_95:\n        /* \"contracts/fraud-detector/header.sol\":1873:1910  rlpEncodedHeader.toRlpItem().toList() */\n      tag_49\n      jump\t// in\n    tag_94:\n        /* \"contracts/fraud-detector/header.sol\":1940:1967  bytes32(items[0].toBytes()) */\n      tag_96\n        /* \"contracts/fraud-detector/header.sol\":1948:1966  items[0].toBytes() */\n      tag_97\n        /* \"contracts/fraud-detector/header.sol\":1948:1956  items[0] */\n      tag_98\n      dup4\n      tag_9\n      jump\t// in\n    tag_98:\n      mload\n        /* \"contracts/fraud-detector/header.sol\":1948:1966  items[0].toBytes() */\n      tag_50\n      jump\t// in\n    tag_97:\n        /* \"contracts/fraud-detector/header.sol\":1940:1967  bytes32(items[0].toBytes()) */\n      tag_26\n      jump\t// in\n    tag_96:\n        /* \"contracts/fraud-detector/header.sol\":94:4546  contract HeaderDecoder {... */\n      dup6\n      mstore\n        /* \"contracts/fraud-detector/header.sol\":1995:2022  bytes32(items[1].toBytes()) */\n      tag_99\n        /* \"contracts/fraud-detector/header.sol\":2003:2021  items[1].toBytes() */\n      tag_97\n        /* \"contracts/fraud-detector/header.sol\":2003:2011  items[1] */\n      tag_98\n      dup4\n      tag_10\n      jump\t// in\n        /* \"contracts/fraud-detector/header.sol\":1995:2022  bytes32(items[1].toBytes()) */\n    tag_99:\n        /* \"contracts/fraud-detector/header.sol\":1977:1992  basic.uncleHash */\n      0x20\n      dup7\n      add\n        /* \"contracts/fraud-detector/header.sol\":94:4546  contract HeaderDecoder {... */\n      swap1\n      dup2\n      mstore\n        /* \"contracts/fraud-detector/header.sol\":2313:2514  BasicHeaderDecoded(... */\n      tag_102\n        /* \"contracts/fraud-detector/header.sol\":2049:2087  address(bytes20(items[2].toAddress())) */\n      tag_103\n        /* \"contracts/fraud-detector/header.sol\":2057:2086  bytes20(items[2].toAddress()) */\n      tag_104\n        /* \"contracts/fraud-detector/header.sol\":2065:2085  items[2].toAddress() */\n      tag_105\n        /* \"contracts/fraud-detector/header.sol\":2065:2073  items[2] */\n      tag_106\n      dup7\n      tag_11\n      jump\t// in\n    tag_106:\n      mload\n        /* \"contracts/fraud-detector/header.sol\":2065:2085  items[2].toAddress() */\n      tag_51\n      jump\t// in\n    tag_105:\n        /* \"contracts/fraud-detector/header.sol\":94:4546  contract HeaderDecoder {... */\n      0x60\n      shl\n      not(0xffffffffffffffffffffffff)\n      and\n      swap1\n      jump\n        /* \"contracts/fraud-detector/header.sol\":2057:2086  bytes20(items[2].toAddress()) */\n    tag_104:\n        /* \"contracts/fraud-detector/header.sol\":94:4546  contract HeaderDecoder {... */\n      0x60\n      shr\n      swap1\n      jump\n        /* \"contracts/fraud-detector/header.sol\":2049:2087  address(bytes20(items[2].toAddress())) */\n    tag_103:\n      sub(shl(0xa0, 0x01), 0x01)\n        /* \"contracts/fraud-detector/header.sol\":94:4546  contract HeaderDecoder {... */\n      and\n        /* \"contracts/fraud-detector/header.sol\":2032:2046  basic.coinbase */\n      0x40\n      dup9\n      add\n        /* \"contracts/fraud-detector/header.sol\":94:4546  contract HeaderDecoder {... */\n      swap1\n      dup2\n      mstore\n        /* \"contracts/fraud-detector/header.sol\":2032:2046  basic.coinbase */\n      swap3\n        /* \"contracts/fraud-detector/header.sol\":2115:2142  bytes32(items[3].toBytes()) */\n      tag_108\n        /* \"contracts/fraud-detector/header.sol\":2123:2141  items[3].toBytes() */\n      tag_97\n        /* \"contracts/fraud-detector/header.sol\":2123:2131  items[3] */\n      tag_98\n      dup4\n      tag_12\n      jump\t// in\n        /* \"contracts/fraud-detector/header.sol\":2115:2142  bytes32(items[3].toBytes()) */\n    tag_108:\n        /* \"contracts/fraud-detector/header.sol\":2097:2112  basic.stateRoot */\n      0x60\n      dup10\n      add\n        /* \"contracts/fraud-detector/header.sol\":94:4546  contract HeaderDecoder {... */\n      swap1\n      dup2\n      mstore\n        /* \"contracts/fraud-detector/header.sol\":2224:2251  bytes32(items[5].toBytes()) */\n      tag_111\n        /* \"contracts/fraud-detector/header.sol\":2232:2250  items[5].toBytes() */\n      tag_97\n        /* \"contracts/fraud-detector/header.sol\":2232:2240  items[5] */\n      tag_98\n        /* \"contracts/fraud-detector/header.sol\":2167:2194  bytes32(items[4].toBytes()) */\n      tag_114\n        /* \"contracts/fraud-detector/header.sol\":2175:2193  items[4].toBytes() */\n      tag_97\n        /* \"contracts/fraud-detector/header.sol\":2175:2183  items[4] */\n      tag_98\n      dup8\n      tag_13\n      jump\t// in\n        /* \"contracts/fraud-detector/header.sol\":2167:2194  bytes32(items[4].toBytes()) */\n    tag_114:\n        /* \"contracts/fraud-detector/header.sol\":2152:2164  basic.txHash */\n      swap5\n      0x80\n      dup14\n      add\n        /* \"contracts/fraud-detector/header.sol\":94:4546  contract HeaderDecoder {... */\n      swap6\n      dup7\n      mstore\n        /* \"contracts/fraud-detector/header.sol\":2232:2240  items[5] */\n      tag_14\n      jump\t// in\n        /* \"contracts/fraud-detector/header.sol\":2224:2251  bytes32(items[5].toBytes()) */\n    tag_111:\n        /* \"contracts/fraud-detector/header.sol\":2204:2221  basic.receiptHash */\n      0xa0\n      dup11\n      add\n        /* \"contracts/fraud-detector/header.sol\":94:4546  contract HeaderDecoder {... */\n      dup2\n      swap1\n      mstore\n      dup10\n      mload\n      swap5\n      mload\n      swap6\n      mload\n        /* \"contracts/fraud-detector/header.sol\":2204:2221  basic.receiptHash */\n      swap1\n      swap3\n      swap1\n      sub(shl(0xa0, 0x01), 0x01)\n        /* \"contracts/fraud-detector/header.sol\":94:4546  contract HeaderDecoder {... */\n      and\n      swap2\n      mload\n      swap1\n      mload\n      swap2\n        /* \"contracts/fraud-detector/header.sol\":2032:2046  basic.coinbase */\n      0x40\n        /* \"contracts/fraud-detector/header.sol\":94:4546  contract HeaderDecoder {... */\n      mload\n        /* \"contracts/fraud-detector/header.sol\":2313:2514  BasicHeaderDecoded(... */\n      swap7\n      dup8\n      swap7\n      dup8\n        /* \"contracts/fraud-detector/header.sol\":94:4546  contract HeaderDecoder {... */\n      swap3\n      0xa0\n      swap5\n      swap2\n      swap8\n      swap7\n      swap6\n      swap3\n      0xc0\n      dup6\n      add\n      swap9\n      dup6\n      mstore\n      0x20\n      dup6\n      add\n      mstore\n      0x01\n      dup1\n      dup7\n      shl\n      sub\n      and\n      0x40\n      dup5\n      add\n      mstore\n      0x60\n      dup4\n      add\n      mstore\n      0x80\n      dup3\n      add\n      mstore\n      add\n      mstore\n      jump\n        /* \"contracts/fraud-detector/header.sol\":2313:2514  BasicHeaderDecoded(... */\n    tag_102:\n      sub\n      swap1\n      log1\n        /* \"contracts/fraud-detector/header.sol\":1483:1522  _decodeExtendedHeader(rlpEncodedHeader) */\n      tag_38\n      jump\t// in\n    tag_92:\n        /* \"contracts/fraud-detector/header.sol\":1600:1637  _calculateHeaderHash(basic, extended) */\n      swap1\n      tag_42\n      jump\t// in\n    tag_91:\n        /* \"contracts/fraud-detector/header.sol\":2032:2046  basic.coinbase */\n      0x40\n        /* \"contracts/fraud-detector/header.sol\":94:4546  contract HeaderDecoder {... */\n      mload\n      swap1\n      dup2\n      mstore\n      swap1\n      dup2\n      swap1\n      0x20\n      dup3\n      add\n      swap1\n      jump\n        /* \"contracts/fraud-detector/header.sol\":1652:1677  DecodedHeader(headerHash) */\n    tag_90:\n      sub\n      swap1\n      log1\n        /* \"contracts/fraud-detector/header.sol\":1231:1684  function decodeHeader(bytes memory rlpEncodedHeader) public {... */\n      jump\t// out\n        /* \"contracts/fraud-detector/header.sol\":94:4546  contract HeaderDecoder {... */\n    tag_8:\n      mload(0x40)\n      swap1\n      0xc0\n      dup3\n      add\n      dup3\n      dup2\n      lt\n      0xffffffffffffffff\n      dup3\n      gt\n      or\n      tag_83\n      jumpi\n      0x40\n      mstore\n      0x00\n      0xa0\n      dup4\n      dup3\n      dup2\n      mstore\n      dup3\n      0x20\n      dup3\n      add\n      mstore\n      dup3\n      0x40\n      dup3\n      add\n      mstore\n      dup3\n      0x60\n      dup3\n      add\n      mstore\n      dup3\n      0x80\n      dup3\n      add\n      mstore\n      add\n      mstore\n      jump\t// out\n    tag_9:\n      dup1\n      mload\n      iszero\n      tag_120\n      jumpi\n      0x20\n      add\n      swap1\n      jump\t// out\n    tag_120:\n      shl(0xe0, 0x4e487b71)\n        /* \"contracts/fraud-detector/header.sol\":1954:1955  0 */\n      0x00\n        /* \"contracts/fraud-detector/header.sol\":94:4546  contract HeaderDecoder {... */\n      mstore\n      mstore(0x04, 0x32)\n      0x24\n        /* \"contracts/fraud-detector/header.sol\":1954:1955  0 */\n      0x00\n        /* \"contracts/fraud-detector/header.sol\":94:4546  contract HeaderDecoder {... */\n      revert\n    tag_10:\n      dup1\n      mload\n        /* \"contracts/fraud-detector/header.sol\":2009:2010  1 */\n      0x01\n        /* \"contracts/fraud-detector/header.sol\":94:4546  contract HeaderDecoder {... */\n      lt\n      iszero\n      tag_120\n      jumpi\n      0x40\n      add\n      swap1\n      jump\t// out\n    tag_11:\n      dup1\n      mload\n        /* \"contracts/fraud-detector/header.sol\":2071:2072  2 */\n      0x02\n        /* \"contracts/fraud-detector/header.sol\":94:4546  contract HeaderDecoder {... */\n      lt\n      iszero\n      tag_120\n      jumpi\n      0x60\n      add\n      swap1\n      jump\t// out\n    tag_12:\n      dup1\n      mload\n        /* \"contracts/fraud-detector/header.sol\":2129:2130  3 */\n      0x03\n        /* \"contracts/fraud-detector/header.sol\":94:4546  contract HeaderDecoder {... */\n      lt\n      iszero\n      tag_120\n      jumpi\n      0x80\n      add\n      swap1\n      jump\t// out\n    tag_13:\n      dup1\n      mload\n        /* \"contracts/fraud-detector/header.sol\":2181:2182  4 */\n      0x04\n        /* \"contracts/fraud-detector/header.sol\":94:4546  contract HeaderDecoder {... */\n      lt\n      iszero\n      tag_120\n      jumpi\n      0xa0\n      add\n      swap1\n      jump\t// out\n    tag_14:\n      dup1\n      mload\n        /* \"contracts/fraud-detector/header.sol\":2238:2239  5 */\n      0x05\n        /* \"contracts/fraud-detector/header.sol\":94:4546  contract HeaderDecoder {... */\n      lt\n      iszero\n      tag_120\n      jumpi\n      0xc0\n      add\n      swap1\n      jump\t// out\n    tag_15:\n      dup1\n      mload\n        /* \"contracts/fraud-detector/header.sol\":2797:2798  6 */\n      0x06\n        /* \"contracts/fraud-detector/header.sol\":94:4546  contract HeaderDecoder {... */\n      lt\n      iszero\n      tag_120\n      jumpi\n      0xe0\n      add\n      swap1\n      jump\t// out\n    tag_16:\n      dup1\n      mload\n        /* \"contracts/fraud-detector/header.sol\":2847:2848  7 */\n      0x07\n        /* \"contracts/fraud-detector/header.sol\":94:4546  contract HeaderDecoder {... */\n      lt\n      iszero\n      tag_120\n      jumpi\n      0x0100\n      add\n      swap1\n      jump\t// out\n    tag_17:\n      dup1\n      mload\n        /* \"contracts/fraud-detector/header.sol\":2892:2893  8 */\n      0x08\n        /* \"contracts/fraud-detector/header.sol\":94:4546  contract HeaderDecoder {... */\n      lt\n      iszero\n      tag_120\n      jumpi\n      0x0120\n      add\n      swap1\n      jump\t// out\n    tag_18:\n      dup1\n      mload\n        /* \"contracts/fraud-detector/header.sol\":2939:2940  9 */\n      0x09\n        /* \"contracts/fraud-detector/header.sol\":94:4546  contract HeaderDecoder {... */\n      lt\n      iszero\n      tag_120\n      jumpi\n      0x0140\n      add\n      swap1\n      jump\t// out\n    tag_19:\n      dup1\n      mload\n        /* \"contracts/fraud-detector/header.sol\":2985:2987  10 */\n      0x0a\n        /* \"contracts/fraud-detector/header.sol\":94:4546  contract HeaderDecoder {... */\n      lt\n      iszero\n      tag_120\n      jumpi\n      0x0160\n      add\n      swap1\n      jump\t// out\n    tag_20:\n      dup1\n      mload\n        /* \"contracts/fraud-detector/header.sol\":3034:3036  11 */\n      0x0b\n        /* \"contracts/fraud-detector/header.sol\":94:4546  contract HeaderDecoder {... */\n      lt\n      iszero\n      tag_120\n      jumpi\n      0x0180\n      add\n      swap1\n      jump\t// out\n    tag_21:\n      dup1\n      mload\n        /* \"contracts/fraud-detector/header.sol\":3083:3085  12 */\n      0x0c\n        /* \"contracts/fraud-detector/header.sol\":94:4546  contract HeaderDecoder {... */\n      lt\n      iszero\n      tag_120\n      jumpi\n      0x01a0\n      add\n      swap1\n      jump\t// out\n    tag_22:\n      dup1\n      mload\n        /* \"contracts/fraud-detector/header.sol\":3141:3143  13 */\n      0x0d\n        /* \"contracts/fraud-detector/header.sol\":94:4546  contract HeaderDecoder {... */\n      lt\n      iszero\n      tag_120\n      jumpi\n      0x01c0\n      add\n      swap1\n      jump\t// out\n    tag_23:\n      dup1\n      mload\n        /* \"contracts/fraud-detector/header.sol\":3195:3197  14 */\n      0x0e\n        /* \"contracts/fraud-detector/header.sol\":94:4546  contract HeaderDecoder {... */\n      lt\n      iszero\n      tag_120\n      jumpi\n      0x01e0\n      add\n      swap1\n      jump\t// out\n    tag_24:\n      dup1\n      mload\n        /* \"contracts/fraud-detector/header.sol\":3238:3240  15 */\n      0x0f\n        /* \"contracts/fraud-detector/header.sol\":94:4546  contract HeaderDecoder {... */\n      lt\n      iszero\n      tag_120\n      jumpi\n      0x0200\n      add\n      swap1\n      jump\t// out\n    tag_25:\n      dup1\n      mload\n      dup3\n      lt\n      iszero\n      tag_120\n      jumpi\n      0x20\n      swap2\n      0x05\n      shl\n      add\n      add\n      swap1\n      jump\t// out\n    tag_26:\n      0x20\n      dup2\n      mload\n      swap2\n      add\n      mload\n      swap1\n      0x20\n      dup2\n      lt\n      tag_154\n      jumpi\n      pop\n      swap1\n      jump\t// out\n    tag_154:\n      not(0x00)\n      swap1\n      0x20\n      sub\n      0x03\n      shl\n      shl\n      and\n      swap1\n      jump\t// out\n    tag_32:\n      mload(0x40)\n      swap1\n      0x0140\n      dup3\n      add\n      dup3\n      dup2\n      lt\n      0xffffffffffffffff\n      dup3\n      gt\n      or\n      tag_83\n      jumpi\n      0x40\n      mstore\n      0x00\n      0x0120\n      dup4\n      0x60\n      dup2\n      mstore\n      dup3\n      0x20\n      dup3\n      add\n      mstore\n      dup3\n      0x40\n      dup3\n      add\n      mstore\n      dup3\n      0x60\n      dup3\n      add\n      mstore\n      dup3\n      0x80\n      dup3\n      add\n      mstore\n      dup3\n      0xa0\n      dup3\n      add\n      mstore\n      0x60\n      0xc0\n      dup3\n      add\n      mstore\n      dup3\n      0xe0\n      dup3\n      add\n      mstore\n      dup3\n      0x0100\n      dup3\n      add\n      mstore\n      add\n      mstore\n      jump\t// out\n    tag_35:\n      0x00\n    tag_158:\n      dup4\n      dup2\n      lt\n      tag_159\n      jumpi\n      pop\n      pop\n      0x00\n      swap2\n      add\n      mstore\n      jump\t// out\n    tag_159:\n      dup2\n      dup2\n      add\n      mload\n      dup4\n      dup3\n      add\n      mstore\n      0x20\n      add\n      jump(tag_158)\n    tag_36:\n      swap1\n      0x20\n      swap2\n      tag_161\n      dup2\n      mload\n      dup1\n      swap3\n      dup2\n      dup6\n      mstore\n      dup6\n      dup1\n      dup7\n      add\n      swap2\n      add\n      tag_35\n      jump\t// in\n    tag_161:\n      0x1f\n      add\n      not(0x1f)\n      and\n      add\n      add\n      swap1\n      jump\t// out\n    tag_37:\n      swap7\n      swap2\n      swap3\n      swap5\n      tag_162\n      swap5\n      0x0120\n      swap10\n      swap13\n      swap12\n      swap11\n      swap7\n      tag_163\n      0xffffffffffffffff\n      swap10\n      swap5\n      0x0140\n      dup1\n      dup14\n      mstore\n      dup13\n      add\n      swap1\n      tag_36\n      jump\t// in\n    tag_163:\n      swap6\n      0x20\n      dup12\n      add\n      mstore\n      0x40\n      dup11\n      add\n      mstore\n      0x60\n      dup10\n      add\n      mstore\n      0x80\n      dup9\n      add\n      mstore\n      0xa0\n      dup8\n      add\n      mstore\n      dup6\n      dup3\n      sub\n      0xc0\n      dup8\n      add\n      mstore\n      tag_36\n      jump\t// in\n    tag_162:\n      swap7\n      0xe0\n      dup5\n      add\n      mstore\n      and\n      0x0100\n      dup3\n      add\n      mstore\n      add\n      mstore\n      jump\t// out\n        /* \"contracts/fraud-detector/header.sol\":2527:3709  function _decodeExtendedHeader(bytes memory rlpEncodedHeader) internal returns (ExtendedHeader memory extended) {... */\n    tag_38:\n      swap1\n        /* \"contracts/fraud-detector/header.sol\":3362:3702  ExtendedHeaderDecoded(... */\n      0x99c372e0d8a1ad4607194c517cabf7f6940fbfc63dda71f0c00f5b020d42b3c7\n        /* \"contracts/fraud-detector/header.sol\":2722:2759  rlpEncodedHeader.toRlpItem().toList() */\n      tag_164\n        /* \"contracts/fraud-detector/header.sol\":2722:2750  rlpEncodedHeader.toRlpItem() */\n      tag_95\n        /* \"contracts/fraud-detector/header.sol\":94:4546  contract HeaderDecoder {... */\n      tag_166\n      tag_32\n      jump\t// in\n    tag_166:\n        /* \"contracts/fraud-detector/header.sol\":2722:2750  rlpEncodedHeader.toRlpItem() */\n      swap5\n      tag_44\n      jump\t// in\n        /* \"contracts/fraud-detector/header.sol\":2722:2759  rlpEncodedHeader.toRlpItem().toList() */\n    tag_164:\n        /* \"contracts/fraud-detector/header.sol\":2791:2809  items[6].toBytes() */\n      tag_167\n        /* \"contracts/fraud-detector/header.sol\":2791:2799  items[6] */\n      tag_98\n      dup3\n      tag_15\n      jump\t// in\n        /* \"contracts/fraud-detector/header.sol\":2791:2809  items[6].toBytes() */\n    tag_167:\n        /* \"contracts/fraud-detector/header.sol\":2770:2809  extended.logsBloom = items[6].toBytes() */\n      dup5\n      mstore\n        /* \"contracts/fraud-detector/header.sol\":2841:2858  items[7].toUint() */\n      tag_169\n        /* \"contracts/fraud-detector/header.sol\":2841:2849  items[7] */\n      tag_170\n      dup3\n      tag_16\n      jump\t// in\n    tag_170:\n      mload\n        /* \"contracts/fraud-detector/header.sol\":2841:2858  items[7].toUint() */\n      tag_52\n      jump\t// in\n    tag_169:\n        /* \"contracts/fraud-detector/header.sol\":2819:2838  extended.difficulty */\n      0x20\n      dup6\n      add\n        /* \"contracts/fraud-detector/header.sol\":94:4546  contract HeaderDecoder {... */\n      swap1\n      dup2\n      mstore\n        /* \"contracts/fraud-detector/header.sol\":3362:3702  ExtendedHeaderDecoded(... */\n      tag_90\n        /* \"contracts/fraud-detector/header.sol\":2886:2903  items[8].toUint() */\n      tag_172\n        /* \"contracts/fraud-detector/header.sol\":2886:2894  items[8] */\n      tag_170\n      dup5\n      tag_17\n      jump\t// in\n        /* \"contracts/fraud-detector/header.sol\":2886:2903  items[8].toUint() */\n    tag_172:\n        /* \"contracts/fraud-detector/header.sol\":2868:2883  extended.number */\n      swap3\n      0x40\n      dup8\n      add\n        /* \"contracts/fraud-detector/header.sol\":94:4546  contract HeaderDecoder {... */\n      swap4\n      dup5\n      mstore\n        /* \"contracts/fraud-detector/header.sol\":2933:2950  items[9].toUint() */\n      tag_174\n        /* \"contracts/fraud-detector/header.sol\":2933:2941  items[9] */\n      tag_170\n      dup3\n      tag_18\n      jump\t// in\n        /* \"contracts/fraud-detector/header.sol\":2933:2950  items[9].toUint() */\n    tag_174:\n        /* \"contracts/fraud-detector/header.sol\":2913:2930  extended.gasLimit */\n      swap1\n      0x60\n      dup9\n      add\n        /* \"contracts/fraud-detector/header.sol\":94:4546  contract HeaderDecoder {... */\n      swap2\n      dup3\n      mstore\n        /* \"contracts/fraud-detector/header.sol\":2979:2988  items[10] */\n      dup8\n        /* \"contracts/fraud-detector/header.sol\":2979:2997  items[10].toUint() */\n      tag_176\n        /* \"contracts/fraud-detector/header.sol\":2979:2988  items[10] */\n      tag_170\n      dup4\n      tag_19\n      jump\t// in\n        /* \"contracts/fraud-detector/header.sol\":2979:2997  items[10].toUint() */\n    tag_176:\n        /* \"contracts/fraud-detector/header.sol\":2960:2976  extended.gasUsed */\n      swap2\n      0x80\n      dup3\n      add\n        /* \"contracts/fraud-detector/header.sol\":94:4546  contract HeaderDecoder {... */\n      swap3\n      dup4\n      mstore\n        /* \"contracts/fraud-detector/header.sol\":3028:3046  items[11].toUint() */\n      tag_178\n        /* \"contracts/fraud-detector/header.sol\":3028:3037  items[11] */\n      tag_170\n      dup3\n      tag_20\n      jump\t// in\n        /* \"contracts/fraud-detector/header.sol\":3028:3046  items[11].toUint() */\n    tag_178:\n        /* \"contracts/fraud-detector/header.sol\":3007:3025  extended.timestamp */\n      0xa0\n      dup4\n      add\n        /* \"contracts/fraud-detector/header.sol\":94:4546  contract HeaderDecoder {... */\n      swap1\n      dup2\n      mstore\n        /* \"contracts/fraud-detector/header.sol\":3077:3096  items[12].toBytes() */\n      tag_180\n        /* \"contracts/fraud-detector/header.sol\":3077:3086  items[12] */\n      tag_98\n      dup4\n      tag_21\n      jump\t// in\n        /* \"contracts/fraud-detector/header.sol\":3077:3096  items[12].toBytes() */\n    tag_180:\n        /* \"contracts/fraud-detector/header.sol\":3056:3074  extended.extraData */\n      swap1\n      0xc0\n      dup5\n      add\n        /* \"contracts/fraud-detector/header.sol\":3056:3096  extended.extraData = items[12].toBytes() */\n      swap2\n      dup3\n      mstore\n        /* \"contracts/fraud-detector/header.sol\":3127:3155  bytes32(items[13].toBytes()) */\n      tag_182\n        /* \"contracts/fraud-detector/header.sol\":3135:3154  items[13].toBytes() */\n      tag_97\n        /* \"contracts/fraud-detector/header.sol\":3135:3144  items[13] */\n      tag_98\n      dup6\n      tag_22\n      jump\t// in\n        /* \"contracts/fraud-detector/header.sol\":3127:3155  bytes32(items[13].toBytes()) */\n    tag_182:\n        /* \"contracts/fraud-detector/header.sol\":3106:3124  extended.mixDigest */\n      swap3\n      0xe0\n      dup6\n      add\n        /* \"contracts/fraud-detector/header.sol\":94:4546  contract HeaderDecoder {... */\n      swap4\n      dup5\n      mstore\n        /* \"contracts/fraud-detector/header.sol\":3165:3208  extended.nonce = uint64(items[14].toUint()) */\n      tag_185\n        /* \"contracts/fraud-detector/header.sol\":3165:3179  extended.nonce */\n      0x0100\n        /* \"contracts/fraud-detector/header.sol\":3182:3208  uint64(items[14].toUint()) */\n      tag_186\n        /* \"contracts/fraud-detector/header.sol\":3189:3207  items[14].toUint() */\n      tag_187\n        /* \"contracts/fraud-detector/header.sol\":3189:3198  items[14] */\n      tag_170\n      dup6\n      tag_23\n      jump\t// in\n        /* \"contracts/fraud-detector/header.sol\":3189:3207  items[14].toUint() */\n    tag_187:\n        /* \"contracts/fraud-detector/header.sol\":94:4546  contract HeaderDecoder {... */\n      0xffffffffffffffff\n      and\n      swap1\n      jump\n        /* \"contracts/fraud-detector/header.sol\":3182:3208  uint64(items[14].toUint()) */\n    tag_186:\n        /* \"contracts/fraud-detector/header.sol\":94:4546  contract HeaderDecoder {... */\n      0xffffffffffffffff\n      and\n        /* \"contracts/fraud-detector/header.sol\":3165:3179  extended.nonce */\n      swap7\n      add\n        /* \"contracts/fraud-detector/header.sol\":94:4546  contract HeaderDecoder {... */\n      swap6\n      dup7\n      mstore\n      jump\n        /* \"contracts/fraud-detector/header.sol\":3165:3208  extended.nonce = uint64(items[14].toUint()) */\n    tag_185:\n        /* \"contracts/fraud-detector/header.sol\":3238:3240  15 */\n      0x0f\n        /* \"contracts/fraud-detector/header.sol\":94:4546  contract HeaderDecoder {... */\n      dup2\n      mload\n        /* \"contracts/fraud-detector/header.sol\":3223:3240  items.length > 15 */\n      gt\n        /* \"contracts/fraud-detector/header.sol\":3219:3304  if (items.length > 15) {... */\n      tag_189\n      jumpi\n        /* \"contracts/fraud-detector/header.sol\":2527:3709  function _decodeExtendedHeader(bytes memory rlpEncodedHeader) internal returns (ExtendedHeader memory extended) {... */\n    tag_190:\n      pop\n        /* \"contracts/fraud-detector/header.sol\":3397:3415  extended.logsBloom */\n      dup12\n      mload\n        /* \"contracts/fraud-detector/header.sol\":94:4546  contract HeaderDecoder {... */\n      swap8\n      mload\n      swap9\n      mload\n      swap6\n      mload\n      swap5\n      mload\n      swap1\n      mload\n        /* \"contracts/fraud-detector/header.sol\":3584:3602  extended.extraData */\n      swap2\n      mload\n        /* \"contracts/fraud-detector/header.sol\":94:4546  contract HeaderDecoder {... */\n      swap3\n      mload\n      swap4\n      mload\n      0xffffffffffffffff\n      and\n        /* \"contracts/fraud-detector/header.sol\":3676:3692  extended.baseFee */\n      swap5\n      0x0120\n      dup14\n      add\n        /* \"contracts/fraud-detector/header.sol\":94:4546  contract HeaderDecoder {... */\n      mload\n      swap7\n        /* \"contracts/fraud-detector/header.sol\":2868:2883  extended.number */\n      0x40\n        /* \"contracts/fraud-detector/header.sol\":94:4546  contract HeaderDecoder {... */\n      mload\n        /* \"contracts/fraud-detector/header.sol\":3362:3702  ExtendedHeaderDecoded(... */\n      swap11\n      dup12\n      swap11\n      dup12\n      tag_37\n      jump\t// in\n        /* \"contracts/fraud-detector/header.sol\":3219:3304  if (items.length > 15) {... */\n    tag_189:\n        /* \"contracts/fraud-detector/header.sol\":3275:3284  items[15] */\n      tag_170\n        /* \"contracts/fraud-detector/header.sol\":3275:3293  items[15].toUint() */\n      tag_193\n        /* \"contracts/fraud-detector/header.sol\":3275:3284  items[15] */\n      swap2\n      tag_24\n      jump\t// in\n        /* \"contracts/fraud-detector/header.sol\":3275:3293  items[15].toUint() */\n    tag_193:\n        /* \"contracts/fraud-detector/header.sol\":3256:3272  extended.baseFee */\n      0x0120\n      dup14\n      add\n        /* \"contracts/fraud-detector/header.sol\":94:4546  contract HeaderDecoder {... */\n      mstore\n        /* \"contracts/fraud-detector/header.sol\":3219:3304  if (items.length > 15) {... */\n      0x00\n      jump(tag_190)\n        /* \"contracts/fraud-detector/header.sol\":94:4546  contract HeaderDecoder {... */\n    tag_39:\n      swap1\n      tag_194\n      0x20\n      swap3\n      dup3\n      dup2\n      mload\n      swap5\n      dup6\n      swap3\n      add\n      tag_35\n      jump\t// in\n    tag_194:\n      add\n      swap1\n      jump\t// out\n    tag_41:\n      swap2\n      swap5\n      0x28\n      swap16\n      swap13\n      swap8\n      swap4\n      swap5\n      0x0154\n      swap11\n      swap6\n      tag_194\n      swap16\n      swap13\n      swap8\n      tag_196\n      swap15\n      swap10\n      swap5\n      dup7\n      mstore\n      0x20\n      dup7\n      add\n      mstore\n      not(0xffffffffffffffffffffffff)\n      swap1\n      0x60\n      shl\n      and\n      0x40\n      dup6\n      add\n      mstore\n      0x54\n      dup5\n      add\n      mstore\n      0x74\n      dup4\n      add\n      mstore\n      0x94\n      dup3\n      add\n      mstore\n      tag_197\n      dup3\n      mload\n      dup1\n      swap4\n      0x20\n      0xb4\n      dup6\n      add\n      swap2\n      add\n      tag_35\n      jump\t// in\n    tag_197:\n      add\n      swap5\n      0xb4\n      dup7\n      add\n      mstore\n      0xd4\n      dup6\n      add\n      mstore\n      0xf4\n      dup5\n      add\n      mstore\n      0x0114\n      dup4\n      add\n      mstore\n      0x0134\n      dup3\n      add\n      mstore\n      add\n      swap1\n      tag_39\n      jump\t// in\n    tag_196:\n      swap3\n      dup4\n      mstore\n      0xc0\n      shl\n      not(sub(shl(0xc0, 0x01), 0x01))\n      and\n      0x20\n      dup4\n      add\n      mstore\n      jump\n        /* \"contracts/fraud-detector/header.sol\":3715:4544  function _calculateHeaderHash(BasicHeader memory basic, ExtendedHeader memory extended) internal pure returns (bytes32) {... */\n    tag_42:\n        /* \"contracts/fraud-detector/header.sol\":94:4546  contract HeaderDecoder {... */\n      dup1\n      mload\n        /* \"contracts/fraud-detector/header.sol\":3979:3994  basic.uncleHash */\n      0x20\n      dup3\n      add\n        /* \"contracts/fraud-detector/header.sol\":94:4546  contract HeaderDecoder {... */\n      mload\n        /* \"contracts/fraud-detector/header.sol\":4012:4026  basic.coinbase */\n      0x40\n      dup4\n      add\n        /* \"contracts/fraud-detector/header.sol\":94:4546  contract HeaderDecoder {... */\n      mload\n      swap1\n      swap3\n      swap1\n      sub(shl(0xa0, 0x01), 0x01)\n      and\n        /* \"contracts/fraud-detector/header.sol\":4044:4059  basic.stateRoot */\n      swap4\n      0x60\n      dup3\n      add\n        /* \"contracts/fraud-detector/header.sol\":94:4546  contract HeaderDecoder {... */\n      mload\n        /* \"contracts/fraud-detector/header.sol\":4077:4089  basic.txHash */\n      swap2\n      0x80\n      dup2\n      add\n        /* \"contracts/fraud-detector/header.sol\":94:4546  contract HeaderDecoder {... */\n      mload\n        /* \"contracts/fraud-detector/header.sol\":4107:4124  basic.receiptHash */\n      swap1\n      0xa0\n      add\n        /* \"contracts/fraud-detector/header.sol\":94:4546  contract HeaderDecoder {... */\n      mload\n        /* \"contracts/fraud-detector/header.sol\":4142:4160  extended.logsBloom */\n      dup3\n      mload\n        /* \"contracts/fraud-detector/header.sol\":3979:3994  basic.uncleHash */\n      0x20\n        /* \"contracts/fraud-detector/header.sol\":4178:4197  extended.difficulty */\n      dup5\n      add\n        /* \"contracts/fraud-detector/header.sol\":94:4546  contract HeaderDecoder {... */\n      mload\n        /* \"contracts/fraud-detector/header.sol\":4012:4026  basic.coinbase */\n      0x40\n        /* \"contracts/fraud-detector/header.sol\":4215:4230  extended.number */\n      dup6\n      add\n        /* \"contracts/fraud-detector/header.sol\":94:4546  contract HeaderDecoder {... */\n      mload\n        /* \"contracts/fraud-detector/header.sol\":4044:4059  basic.stateRoot */\n      0x60\n        /* \"contracts/fraud-detector/header.sol\":4248:4265  extended.gasLimit */\n      dup7\n      add\n        /* \"contracts/fraud-detector/header.sol\":94:4546  contract HeaderDecoder {... */\n      mload\n        /* \"contracts/fraud-detector/header.sol\":4283:4299  extended.gasUsed */\n      swap2\n        /* \"contracts/fraud-detector/header.sol\":4077:4089  basic.txHash */\n      0x80\n        /* \"contracts/fraud-detector/header.sol\":4283:4299  extended.gasUsed */\n      dup8\n      add\n        /* \"contracts/fraud-detector/header.sol\":94:4546  contract HeaderDecoder {... */\n      mload\n        /* \"contracts/fraud-detector/header.sol\":4317:4335  extended.timestamp */\n      swap4\n        /* \"contracts/fraud-detector/header.sol\":4107:4124  basic.receiptHash */\n      0xa0\n        /* \"contracts/fraud-detector/header.sol\":4317:4335  extended.timestamp */\n      dup9\n      add\n        /* \"contracts/fraud-detector/header.sol\":94:4546  contract HeaderDecoder {... */\n      mload\n        /* \"contracts/fraud-detector/header.sol\":4353:4371  extended.extraData */\n      swap6\n      0xc0\n      dup10\n      add\n      mload\n        /* \"contracts/fraud-detector/header.sol\":4389:4407  extended.mixDigest */\n      swap8\n      0xe0\n      dup11\n      add\n        /* \"contracts/fraud-detector/header.sol\":94:4546  contract HeaderDecoder {... */\n      mload\n        /* \"contracts/fraud-detector/header.sol\":4425:4439  extended.nonce */\n      swap10\n      0x0100\n      add\n        /* \"contracts/fraud-detector/header.sol\":94:4546  contract HeaderDecoder {... */\n      mload\n      tag_199\n      swap1\n      0xffffffffffffffff\n      and\n      swap1\n      jump\n    tag_199:\n      swap11\n        /* \"contracts/fraud-detector/header.sol\":4012:4026  basic.coinbase */\n      0x40\n        /* \"contracts/fraud-detector/header.sol\":94:4546  contract HeaderDecoder {... */\n      mload\n        /* \"contracts/fraud-detector/header.sol\":3911:4527  abi.encodePacked(... */\n      swap15\n      dup16\n      swap15\n      dup16\n        /* \"contracts/fraud-detector/header.sol\":3979:3994  basic.uncleHash */\n      0x20\n        /* \"contracts/fraud-detector/header.sol\":3911:4527  abi.encodePacked(... */\n      add\n      swap15\n      tag_200\n      swap16\n      tag_41\n      jump\t// in\n    tag_200:\n      sub\n        /* \"contracts/fraud-detector/header.sol\":94:4546  contract HeaderDecoder {... */\n      not(0x1f)\n        /* \"contracts/fraud-detector/header.sol\":3911:4527  abi.encodePacked(... */\n      dup2\n      add\n      dup3\n      mstore\n      tag_201\n      swap1\n      dup3\n      tag_3\n      jump\t// in\n    tag_201:\n        /* \"contracts/fraud-detector/header.sol\":94:4546  contract HeaderDecoder {... */\n      dup1\n      mload\n        /* \"contracts/fraud-detector/header.sol\":3911:4527  abi.encodePacked(... */\n      swap1\n        /* \"contracts/fraud-detector/header.sol\":3979:3994  basic.uncleHash */\n      0x20\n        /* \"contracts/fraud-detector/header.sol\":3911:4527  abi.encodePacked(... */\n      add\n        /* \"contracts/fraud-detector/header.sol\":3888:4537  keccak256(... */\n      keccak256\n        /* \"contracts/fraud-detector/header.sol\":3715:4544  function _calculateHeaderHash(BasicHeader memory basic, ExtendedHeader memory extended) internal pure returns (bytes32) {... */\n      swap1\n      jump\t// out\n        /* \"contracts/fraud-detector/header.sol\":94:4546  contract HeaderDecoder {... */\n    tag_43:\n      mload(0x40)\n      swap1\n      tag_202\n      dup3\n      tag_2\n      jump\t// in\n    tag_202:\n      0x00\n      0x20\n      dup4\n      dup3\n      dup2\n      mstore\n      add\n      mstore\n      jump\t// out\n        /* \"contracts/fraud-detector/libs/rlp/RLPReader.sol\":1513:1734  function toRlpItem(bytes memory item) internal pure returns (RLPItem memory) {... */\n    tag_44:\n        /* \"contracts/fraud-detector/header.sol\":94:4546  contract HeaderDecoder {... */\n      tag_203\n      tag_43\n      jump\t// in\n    tag_203:\n      pop\n        /* \"contracts/fraud-detector/libs/rlp/RLPReader.sol\":1624:1682  assembly {... */\n      0x20\n        /* \"contracts/fraud-detector/header.sol\":94:4546  contract HeaderDecoder {... */\n      dup2\n      mload\n      swap2\n      mload(0x40)\n      swap3\n      tag_204\n      dup5\n      tag_2\n      jump\t// in\n    tag_204:\n      dup4\n      mstore\n        /* \"contracts/fraud-detector/libs/rlp/RLPReader.sol\":1624:1682  assembly {... */\n      add\n      0x20\n        /* \"contracts/fraud-detector/libs/rlp/RLPReader.sol\":1699:1727  RLPItem(item.length, memPtr) */\n      dup3\n      add\n        /* \"contracts/fraud-detector/header.sol\":94:4546  contract HeaderDecoder {... */\n      mstore\n        /* \"contracts/fraud-detector/libs/rlp/RLPReader.sol\":1513:1734  function toRlpItem(bytes memory item) internal pure returns (RLPItem memory) {... */\n      swap1\n      jump\t// out\n        /* \"contracts/fraud-detector/header.sol\":94:4546  contract HeaderDecoder {... */\n    tag_45:\n      0xffffffffffffffff\n      dup2\n      gt\n      tag_83\n      jumpi\n      0x05\n      shl\n      0x20\n      add\n      swap1\n      jump\t// out\n    tag_46:\n      mstore(0x00, shl(0xe0, 0x4e487b71))\n      mstore(0x04, 0x11)\n      revert(0x00, 0x24)\n    tag_47:\n      swap1\n        /* \"contracts/fraud-detector/libs/rlp/RLPReader.sol\":9690:9691  1 */\n      0x01\n        /* \"contracts/fraud-detector/header.sol\":94:4546  contract HeaderDecoder {... */\n      dup3\n      add\n      dup1\n      swap3\n      gt\n      tag_207\n      jumpi\n      jump\t// out\n    tag_207:\n      tag_46\n      jump\t// in\n    tag_48:\n      swap2\n      swap1\n      dup3\n      add\n      dup1\n      swap3\n      gt\n      tag_207\n      jumpi\n      jump\t// out\n        /* \"contracts/fraud-detector/libs/rlp/RLPReader.sol\":2946:3465  function toList(RLPItem memory item) internal pure returns (RLPItem[] memory) {... */\n    tag_49:\n        /* \"contracts/fraud-detector/libs/rlp/RLPReader.sol\":3042:3054  isList(item) */\n      tag_211\n      dup2\n      tag_53\n      jump\t// in\n    tag_211:\n        /* \"contracts/fraud-detector/header.sol\":94:4546  contract HeaderDecoder {... */\n      iszero\n      tag_80\n      jumpi\n        /* \"contracts/fraud-detector/libs/rlp/RLPReader.sol\":3082:3096  numItems(item) */\n      tag_214\n      dup2\n      tag_54\n      jump\t// in\n    tag_214:\n        /* \"contracts/fraud-detector/header.sol\":94:4546  contract HeaderDecoder {... */\n      tag_215\n      dup2\n      tag_45\n      jump\t// in\n    tag_215:\n      swap2\n      tag_216\n      mload(0x40)\n      swap4\n      dup5\n      tag_3\n      jump\t// in\n    tag_216:\n      dup2\n      dup4\n      mstore\n      not(0x1f)\n      tag_217\n      dup4\n      tag_45\n      jump\t// in\n    tag_217:\n      add\n      0x00\n    tag_218:\n      dup2\n      dup2\n      lt\n      tag_219\n      jumpi\n      pop\n      pop\n        /* \"contracts/fraud-detector/libs/rlp/RLPReader.sol\":3180:3221  item.memPtr + _payloadOffset(item.memPtr) */\n      tag_221\n        /* \"contracts/fraud-detector/header.sol\":94:4546  contract HeaderDecoder {... */\n      0x20\n      dup1\n        /* \"contracts/fraud-detector/libs/rlp/RLPReader.sol\":3180:3191  item.memPtr */\n      swap3\n      add\n        /* \"contracts/fraud-detector/header.sol\":94:4546  contract HeaderDecoder {... */\n      mload\n        /* \"contracts/fraud-detector/libs/rlp/RLPReader.sol\":3194:3221  _payloadOffset(item.memPtr) */\n      tag_222\n      dup2\n      tag_61\n      jump\t// in\n    tag_222:\n        /* \"contracts/fraud-detector/libs/rlp/RLPReader.sol\":3180:3221  item.memPtr + _payloadOffset(item.memPtr) */\n      swap1\n      tag_48\n      jump\t// in\n    tag_221:\n      0x00\n        /* \"contracts/fraud-detector/libs/rlp/RLPReader.sol\":3256:3435  for (uint256 i = 0; i < items; i++) {... */\n      swap1\n        /* \"contracts/fraud-detector/libs/rlp/RLPReader.sol\":3276:3285  i < items */\n    tag_223:\n      dup4\n      dup3\n      lt\n      tag_224\n      jumpi\n        /* \"contracts/fraud-detector/libs/rlp/RLPReader.sol\":3445:3458  return result */\n      pop\n      pop\n      pop\n      pop\n        /* \"contracts/fraud-detector/libs/rlp/RLPReader.sol\":2946:3465  function toList(RLPItem memory item) internal pure returns (RLPItem[] memory) {... */\n      swap1\n      jump\t// out\n        /* \"contracts/fraud-detector/libs/rlp/RLPReader.sol\":3287:3290  i++ */\n    tag_224:\n        /* \"contracts/fraud-detector/libs/rlp/RLPReader.sol\":3408:3424  memPtr + dataLen */\n      tag_226\n        /* \"contracts/fraud-detector/libs/rlp/RLPReader.sol\":3316:3335  _itemLength(memPtr) */\n      dup2\n      tag_227\n        /* \"contracts/fraud-detector/header.sol\":94:4546  contract HeaderDecoder {... */\n      0x01\n        /* \"contracts/fraud-detector/libs/rlp/RLPReader.sol\":3316:3335  _itemLength(memPtr) */\n      swap4\n      tag_62\n      jump\t// in\n    tag_227:\n        /* \"contracts/fraud-detector/header.sol\":94:4546  contract HeaderDecoder {... */\n      swap1\n      tag_228\n      tag_4\n      jump\t// in\n    tag_228:\n      dup3\n      dup2\n      mstore\n        /* \"contracts/fraud-detector/libs/rlp/RLPReader.sol\":3361:3385  RLPItem(dataLen, memPtr) */\n      dup2\n      dup8\n      dup3\n      add\n        /* \"contracts/fraud-detector/header.sol\":94:4546  contract HeaderDecoder {... */\n      mstore\n        /* \"contracts/fraud-detector/libs/rlp/RLPReader.sol\":3349:3385  result[i] = RLPItem(dataLen, memPtr) */\n      tag_229\n      dup7\n      dup11\n      tag_25\n      jump\t// in\n    tag_229:\n      mstore\n      tag_230\n      dup6\n      dup10\n      tag_25\n      jump\t// in\n    tag_230:\n      pop\n        /* \"contracts/fraud-detector/libs/rlp/RLPReader.sol\":3408:3424  memPtr + dataLen */\n      tag_48\n      jump\t// in\n    tag_226:\n        /* \"contracts/fraud-detector/libs/rlp/RLPReader.sol\":3287:3290  i++ */\n      swap2\n        /* \"contracts/fraud-detector/header.sol\":94:4546  contract HeaderDecoder {... */\n      add\n        /* \"contracts/fraud-detector/libs/rlp/RLPReader.sol\":3261:3274  uint256 i = 0 */\n      swap1\n      jump(tag_223)\n        /* \"contracts/fraud-detector/header.sol\":94:4546  contract HeaderDecoder {... */\n    tag_219:\n      0x20\n      swap1\n      tag_231\n      tag_43\n      jump\t// in\n    tag_231:\n      dup3\n      dup3\n      dup9\n      add\n      add\n      mstore\n      add\n      jump(tag_218)\n        /* \"contracts/fraud-detector/libs/rlp/RLPReader.sol\":6857:7236  function toBytes(RLPItem memory item) internal pure returns (bytes memory) {... */\n    tag_50:\n        /* \"contracts/fraud-detector/header.sol\":94:4546  contract HeaderDecoder {... */\n      dup1\n      mload\n        /* \"contracts/fraud-detector/libs/rlp/RLPReader.sol\":6950:6962  item.len > 0 */\n      iszero\n        /* \"contracts/fraud-detector/header.sol\":94:4546  contract HeaderDecoder {... */\n      tag_80\n      jumpi\n        /* \"contracts/fraud-detector/libs/rlp/RLPReader.sol\":7006:7027  payloadLocation(item) */\n      tag_234\n        /* \"contracts/fraud-detector/libs/rlp/RLPReader.sol\":7202:7205  len */\n      tag_235\n        /* \"contracts/fraud-detector/libs/rlp/RLPReader.sol\":7006:7027  payloadLocation(item) */\n      swap2\n      tag_63\n      jump\t// in\n    tag_234:\n        /* \"contracts/fraud-detector/header.sol\":94:4546  contract HeaderDecoder {... */\n      tag_236\n      dup2\n      swap4\n      swap3\n      swap4\n      tag_5\n      jump\t// in\n    tag_236:\n      swap3\n      tag_237\n      mload(0x40)\n      swap5\n      dup6\n      tag_3\n      jump\t// in\n    tag_237:\n      dup2\n      dup5\n      mstore\n      not(0x1f)\n      tag_238\n      dup4\n      tag_5\n      jump\t// in\n    tag_238:\n      add\n      calldatasize\n      0x20\n      dup7\n      add\n      calldatacopy\n        /* \"contracts/fraud-detector/libs/rlp/RLPReader.sol\":7109:7170  assembly {... */\n      dup4\n        /* \"contracts/fraud-detector/header.sol\":94:4546  contract HeaderDecoder {... */\n      0x20\n        /* \"contracts/fraud-detector/libs/rlp/RLPReader.sol\":7109:7170  assembly {... */\n      add\n        /* \"contracts/fraud-detector/libs/rlp/RLPReader.sol\":7202:7205  len */\n      swap1\n      tag_65\n      jump\t// in\n    tag_235:\n        /* \"contracts/fraud-detector/libs/rlp/RLPReader.sol\":6857:7236  function toBytes(RLPItem memory item) internal pure returns (bytes memory) {... */\n      swap1\n      jump\t// out\n        /* \"contracts/fraud-detector/libs/rlp/RLPReader.sol\":5843:6043  function toAddress(RLPItem memory item) internal pure returns (address) {... */\n    tag_51:\n        /* \"contracts/fraud-detector/libs/rlp/RLPReader.sol\":5985:5987  21 */\n      0x15\n        /* \"contracts/fraud-detector/header.sol\":94:4546  contract HeaderDecoder {... */\n      dup2\n      mload\n        /* \"contracts/fraud-detector/libs/rlp/RLPReader.sol\":5973:5987  item.len == 21 */\n      sub\n        /* \"contracts/fraud-detector/header.sol\":94:4546  contract HeaderDecoder {... */\n      tag_80\n      jumpi\n      sub(shl(0xa0, 0x01), 0x01)\n      swap1\n        /* \"contracts/fraud-detector/libs/rlp/RLPReader.sol\":6022:6034  toUint(item) */\n      tag_241\n      swap1\n      tag_52\n      jump\t// in\n    tag_241:\n        /* \"contracts/fraud-detector/header.sol\":94:4546  contract HeaderDecoder {... */\n      and\n        /* \"contracts/fraud-detector/libs/rlp/RLPReader.sol\":5843:6043  function toAddress(RLPItem memory item) internal pure returns (address) {... */\n      swap1\n      jump\t// out\n        /* \"contracts/fraud-detector/libs/rlp/RLPReader.sol\":6049:6516  function toUint(RLPItem memory item) internal pure returns (uint256) {... */\n    tag_52:\n        /* \"contracts/fraud-detector/header.sol\":94:4546  contract HeaderDecoder {... */\n      dup1\n      mload\n        /* \"contracts/fraud-detector/libs/rlp/RLPReader.sol\":6136:6148  item.len > 0 */\n      dup1\n      iszero\n      iszero\n        /* \"contracts/fraud-detector/libs/rlp/RLPReader.sol\":6136:6166  item.len > 0 && item.len <= 33 */\n      swap1\n      dup2\n      tag_242\n      jumpi\n        /* \"contracts/fraud-detector/libs/rlp/RLPReader.sol\":6049:6516  function toUint(RLPItem memory item) internal pure returns (uint256) {... */\n    tag_243:\n        /* \"contracts/fraud-detector/header.sol\":94:4546  contract HeaderDecoder {... */\n      pop\n      iszero\n      tag_80\n      jumpi\n        /* \"contracts/fraud-detector/libs/rlp/RLPReader.sol\":6210:6231  payloadLocation(item) */\n      tag_246\n      swap1\n      tag_63\n      jump\t// in\n    tag_246:\n        /* \"contracts/fraud-detector/libs/rlp/RLPReader.sol\":6242:6256  uint256 result */\n      swap1\n        /* \"contracts/fraud-detector/libs/rlp/RLPReader.sol\":6266:6486  assembly {... */\n      mload\n      swap1\n      0x20\n      dup2\n      lt\n      tag_247\n      jumpi\n        /* \"contracts/fraud-detector/libs/rlp/RLPReader.sol\":6496:6509  return result */\n      pop\n        /* \"contracts/fraud-detector/libs/rlp/RLPReader.sol\":6049:6516  function toUint(RLPItem memory item) internal pure returns (uint256) {... */\n      swap1\n      jump\t// out\n        /* \"contracts/fraud-detector/libs/rlp/RLPReader.sol\":6266:6486  assembly {... */\n    tag_247:\n      0x20\n      sub\n      0x0100\n      exp\n      swap1\n      div\n        /* \"contracts/fraud-detector/libs/rlp/RLPReader.sol\":6049:6516  function toUint(RLPItem memory item) internal pure returns (uint256) {... */\n      swap1\n      jump\t// out\n        /* \"contracts/fraud-detector/libs/rlp/RLPReader.sol\":6136:6166  item.len > 0 && item.len <= 33 */\n    tag_242:\n        /* \"contracts/fraud-detector/libs/rlp/RLPReader.sol\":6164:6166  33 */\n      0x21\n        /* \"contracts/fraud-detector/libs/rlp/RLPReader.sol\":6152:6166  item.len <= 33 */\n      swap2\n      pop\n      gt\n      iszero\n        /* \"contracts/fraud-detector/libs/rlp/RLPReader.sol\":6136:6166  item.len > 0 && item.len <= 33 */\n      0x00\n      jump(tag_243)\n        /* \"contracts/fraud-detector/libs/rlp/RLPReader.sol\":3569:3890  function isList(RLPItem memory item) internal pure returns (bool) {... */\n    tag_53:\n        /* \"contracts/fraud-detector/header.sol\":94:4546  contract HeaderDecoder {... */\n      dup1\n      mload\n        /* \"contracts/fraud-detector/libs/rlp/RLPReader.sol\":3649:3662  item.len == 0 */\n      iszero\n        /* \"contracts/fraud-detector/libs/rlp/RLPReader.sol\":3645:3676  if (item.len == 0) return false */\n      tag_249\n      jumpi\n        /* \"contracts/fraud-detector/libs/rlp/RLPReader.sol\":3725:3736  item.memPtr */\n      0x20\n        /* \"contracts/fraud-detector/libs/rlp/RLPReader.sol\":328:332  0xc0 */\n      0xc0\n        /* \"contracts/fraud-detector/libs/rlp/RLPReader.sol\":3725:3736  item.memPtr */\n      swap2\n      add\n        /* \"contracts/fraud-detector/header.sol\":94:4546  contract HeaderDecoder {... */\n      mload\n        /* \"contracts/fraud-detector/libs/rlp/RLPReader.sol\":3746:3810  assembly {... */\n      mload\n      0x00\n      byte\n        /* \"contracts/fraud-detector/libs/rlp/RLPReader.sol\":3824:3848  byte0 < LIST_SHORT_START */\n      lt\n        /* \"contracts/fraud-detector/libs/rlp/RLPReader.sol\":3820:3862  if (byte0 < LIST_SHORT_START) return false */\n      tag_251\n      jumpi\n        /* \"contracts/fraud-detector/libs/rlp/RLPReader.sol\":3879:3883  true */\n      0x01\n        /* \"contracts/fraud-detector/libs/rlp/RLPReader.sol\":3569:3890  function isList(RLPItem memory item) internal pure returns (bool) {... */\n      swap1\n      jump\t// out\n        /* \"contracts/fraud-detector/libs/rlp/RLPReader.sol\":3820:3862  if (byte0 < LIST_SHORT_START) return false */\n    tag_251:\n      0x00\n        /* \"contracts/fraud-detector/libs/rlp/RLPReader.sol\":3850:3862  return false */\n      swap1\n      jump\t// out\n        /* \"contracts/fraud-detector/libs/rlp/RLPReader.sol\":3645:3676  if (item.len == 0) return false */\n    tag_249:\n        /* \"contracts/fraud-detector/libs/rlp/RLPReader.sol\":3664:3676  return false */\n      pop\n      0x00\n      swap1\n      jump\t// out\n        /* \"contracts/fraud-detector/libs/rlp/RLPReader.sol\":7344:7768  function numItems(RLPItem memory item) private pure returns (uint256) {... */\n    tag_54:\n        /* \"contracts/fraud-detector/header.sol\":94:4546  contract HeaderDecoder {... */\n      dup1\n      mload\n        /* \"contracts/fraud-detector/libs/rlp/RLPReader.sol\":7428:7441  item.len == 0 */\n      iszero\n        /* \"contracts/fraud-detector/libs/rlp/RLPReader.sol\":7424:7451  if (item.len == 0) return 0 */\n      tag_249\n      jumpi\n      0x00\n        /* \"contracts/fraud-detector/libs/rlp/RLPReader.sol\":7507:7518  item.memPtr */\n      swap1\n      0x20\n      dup2\n      add\n        /* \"contracts/fraud-detector/header.sol\":94:4546  contract HeaderDecoder {... */\n      swap1\n      dup2\n      mload\n        /* \"contracts/fraud-detector/libs/rlp/RLPReader.sol\":7521:7548  _payloadOffset(item.memPtr) */\n      tag_255\n      dup2\n      tag_61\n      jump\t// in\n    tag_255:\n        /* \"contracts/fraud-detector/header.sol\":94:4546  contract HeaderDecoder {... */\n      dup2\n      add\n      dup1\n      swap2\n      gt\n      tag_207\n      jumpi\n      swap2\n      mload\n      swap1\n      mload\n      dup2\n      add\n      dup1\n      swap2\n      gt\n      tag_207\n      jumpi\n        /* \"contracts/fraud-detector/libs/rlp/RLPReader.sol\":7607:7739  while (currPtr < endPtr) {... */\n      swap2\n      swap1\n        /* \"contracts/fraud-detector/libs/rlp/RLPReader.sol\":7614:7630  currPtr < endPtr */\n    tag_260:\n      dup3\n      dup2\n      lt\n      tag_261\n      jumpi\n        /* \"contracts/fraud-detector/libs/rlp/RLPReader.sol\":7749:7761  return count */\n      pop\n      swap1\n      pop\n        /* \"contracts/fraud-detector/libs/rlp/RLPReader.sol\":7344:7768  function numItems(RLPItem memory item) private pure returns (uint256) {... */\n      swap1\n      jump\t// out\n        /* \"contracts/fraud-detector/libs/rlp/RLPReader.sol\":7607:7739  while (currPtr < endPtr) {... */\n    tag_261:\n        /* \"contracts/fraud-detector/libs/rlp/RLPReader.sol\":7666:7686  _itemLength(currPtr) */\n      tag_263\n      dup2\n      tag_62\n      jump\t// in\n    tag_263:\n        /* \"contracts/fraud-detector/header.sol\":94:4546  contract HeaderDecoder {... */\n      dup2\n      add\n      dup1\n      swap2\n      gt\n      tag_207\n      jumpi\n      swap1\n      not(0x00)\n      dup2\n      eq\n      tag_207\n      jumpi\n      0x01\n      add\n        /* \"contracts/fraud-detector/libs/rlp/RLPReader.sol\":7607:7739  while (currPtr < endPtr) {... */\n      swap1\n      jump(tag_260)\n        /* \"contracts/fraud-detector/libs/rlp/RLPReader.sol\":371:375  0xf8 */\n    tag_55:\n      not(0xbf)\n      dup2\n      add\n      swap2\n      swap1\n      dup3\n      gt\n      tag_207\n      jumpi\n      jump\t// out\n    tag_56:\n      not(0x7f)\n      dup2\n      add\n      swap2\n      swap1\n      dup3\n      gt\n      tag_207\n      jumpi\n      jump\t// out\n    tag_57:\n        /* \"contracts/fraud-detector/header.sol\":94:4546  contract HeaderDecoder {... */\n      0x20\n        /* \"contracts/fraud-detector/libs/rlp/RLPReader.sol\":371:375  0xf8 */\n      sub\n      swap1\n        /* \"contracts/fraud-detector/header.sol\":94:4546  contract HeaderDecoder {... */\n      0x20\n        /* \"contracts/fraud-detector/libs/rlp/RLPReader.sol\":371:375  0xf8 */\n      dup3\n      gt\n      tag_207\n      jumpi\n      jump\t// out\n    tag_58:\n      not(0x00)\n      dup2\n      add\n      swap2\n      swap1\n      dup3\n      gt\n      tag_207\n      jumpi\n      jump\t// out\n    tag_59:\n      not(0xf6)\n      dup2\n      add\n      swap2\n      swap1\n      dup3\n      gt\n      tag_207\n      jumpi\n      jump\t// out\n    tag_60:\n      not(0xb6)\n      dup2\n      add\n      swap2\n      swap1\n      dup3\n      gt\n      tag_207\n      jumpi\n      jump\t// out\n        /* \"contracts/fraud-detector/libs/rlp/RLPReader.sol\":9132:9713  function _payloadOffset(uint256 memPtr) private pure returns (uint256) {... */\n    tag_61:\n        /* \"contracts/fraud-detector/libs/rlp/RLPReader.sol\":9236:9300  assembly {... */\n      mload\n      0x00\n      byte\n        /* \"contracts/fraud-detector/libs/rlp/RLPReader.sol\":239:243  0x80 */\n      0x80\n        /* \"contracts/fraud-detector/libs/rlp/RLPReader.sol\":9314:9340  byte0 < STRING_SHORT_START */\n      dup2\n      lt\n        /* \"contracts/fraud-detector/libs/rlp/RLPReader.sol\":239:243  0x80 */\n      iszero\n      tag_280\n      jumpi\n        /* \"contracts/fraud-detector/libs/rlp/RLPReader.sol\":9356:9364  return 0 */\n      pop\n      0x00\n      swap1\n      jump\t// out\n        /* \"contracts/fraud-detector/libs/rlp/RLPReader.sol\":9310:9707  if (byte0 < STRING_SHORT_START) {... */\n    tag_280:\n        /* \"contracts/fraud-detector/libs/rlp/RLPReader.sol\":284:288  0xb8 */\n      0xb8\n        /* \"contracts/fraud-detector/libs/rlp/RLPReader.sol\":9385:9410  byte0 < STRING_LONG_START */\n      dup2\n      lt\n        /* \"contracts/fraud-detector/libs/rlp/RLPReader.sol\":9385:9468  byte0 < STRING_LONG_START || (byte0 >= LIST_SHORT_START && byte0 < LIST_LONG_START) */\n      dup1\n      iszero\n      tag_282\n      jumpi\n        /* \"contracts/fraud-detector/libs/rlp/RLPReader.sol\":9310:9707  if (byte0 < STRING_SHORT_START) {... */\n    tag_283:\n        /* \"contracts/fraud-detector/libs/rlp/RLPReader.sol\":9381:9707  if (byte0 < STRING_LONG_START || (byte0 >= LIST_SHORT_START && byte0 < LIST_LONG_START)) {... */\n      iszero\n      tag_284\n      jumpi\n        /* \"contracts/fraud-detector/libs/rlp/RLPReader.sol\":9484:9492  return 1 */\n      pop\n        /* \"contracts/fraud-detector/libs/rlp/RLPReader.sol\":9491:9492  1 */\n      0x01\n        /* \"contracts/fraud-detector/libs/rlp/RLPReader.sol\":9484:9492  return 1 */\n      swap1\n      jump\t// out\n        /* \"contracts/fraud-detector/libs/rlp/RLPReader.sol\":9381:9707  if (byte0 < STRING_LONG_START || (byte0 >= LIST_SHORT_START && byte0 < LIST_LONG_START)) {... */\n    tag_284:\n        /* \"contracts/fraud-detector/libs/rlp/RLPReader.sol\":328:332  0xc0 */\n      0xc0\n        /* \"contracts/fraud-detector/libs/rlp/RLPReader.sol\":9513:9537  byte0 < LIST_SHORT_START */\n      dup2\n      lt\n        /* \"contracts/fraud-detector/libs/rlp/RLPReader.sol\":328:332  0xc0 */\n      iszero\n      tag_286\n      jumpi\n        /* \"contracts/fraud-detector/libs/rlp/RLPReader.sol\":9590:9621  byte0 - (STRING_LONG_START - 1) */\n      tag_288\n        /* \"contracts/fraud-detector/libs/rlp/RLPReader.sol\":9590:9625  byte0 - (STRING_LONG_START - 1) + 1 */\n      tag_235\n        /* \"contracts/fraud-detector/libs/rlp/RLPReader.sol\":9590:9621  byte0 - (STRING_LONG_START - 1) */\n      swap2\n      tag_60\n      jump\t// in\n    tag_288:\n        /* \"contracts/fraud-detector/libs/rlp/RLPReader.sol\":9590:9625  byte0 - (STRING_LONG_START - 1) + 1 */\n      tag_47\n      jump\t// in\n        /* \"contracts/fraud-detector/libs/rlp/RLPReader.sol\":9509:9707  if (byte0 < LIST_SHORT_START) {... */\n    tag_286:\n        /* \"contracts/fraud-detector/libs/rlp/RLPReader.sol\":9663:9692  byte0 - (LIST_LONG_START - 1) */\n      tag_288\n        /* \"contracts/fraud-detector/libs/rlp/RLPReader.sol\":9663:9696  byte0 - (LIST_LONG_START - 1) + 1 */\n      tag_235\n        /* \"contracts/fraud-detector/libs/rlp/RLPReader.sol\":9663:9692  byte0 - (LIST_LONG_START - 1) */\n      swap2\n      tag_59\n      jump\t// in\n        /* \"contracts/fraud-detector/libs/rlp/RLPReader.sol\":9385:9468  byte0 < STRING_LONG_START || (byte0 >= LIST_SHORT_START && byte0 < LIST_LONG_START) */\n    tag_282:\n        /* \"contracts/fraud-detector/libs/rlp/RLPReader.sol\":9415:9440  byte0 >= LIST_SHORT_START */\n      pop\n        /* \"contracts/fraud-detector/libs/rlp/RLPReader.sol\":328:332  0xc0 */\n      0xc0\n        /* \"contracts/fraud-detector/libs/rlp/RLPReader.sol\":9415:9440  byte0 >= LIST_SHORT_START */\n      dup2\n      lt\n      iszero\n        /* \"contracts/fraud-detector/libs/rlp/RLPReader.sol\":9415:9467  byte0 >= LIST_SHORT_START && byte0 < LIST_LONG_START */\n      dup1\n      iszero\n        /* \"contracts/fraud-detector/libs/rlp/RLPReader.sol\":9385:9468  byte0 < STRING_LONG_START || (byte0 >= LIST_SHORT_START && byte0 < LIST_LONG_START) */\n      tag_283\n        /* \"contracts/fraud-detector/libs/rlp/RLPReader.sol\":9415:9467  byte0 >= LIST_SHORT_START && byte0 < LIST_LONG_START */\n      jumpi\n        /* \"contracts/fraud-detector/libs/rlp/RLPReader.sol\":9444:9467  byte0 < LIST_LONG_START */\n      pop\n        /* \"contracts/fraud-detector/libs/rlp/RLPReader.sol\":371:375  0xf8 */\n      0xf8\n        /* \"contracts/fraud-detector/libs/rlp/RLPReader.sol\":9444:9467  byte0 < LIST_LONG_START */\n      dup2\n      lt\n        /* \"contracts/fraud-detector/libs/rlp/RLPReader.sol\":9385:9468  byte0 < STRING_LONG_START || (byte0 >= LIST_SHORT_START && byte0 < LIST_LONG_START) */\n      jump(tag_283)\n        /* \"contracts/fraud-detector/libs/rlp/RLPReader.sol\":7817:9080  function _itemLength(uint256 memPtr) private pure returns (uint256) {... */\n    tag_62:\n        /* \"contracts/fraud-detector/libs/rlp/RLPReader.sol\":7943:8007  assembly {... */\n      dup1\n      mload\n      0x00\n      byte\n      swap1\n        /* \"contracts/fraud-detector/libs/rlp/RLPReader.sol\":239:243  0x80 */\n      0x80\n        /* \"contracts/fraud-detector/libs/rlp/RLPReader.sol\":8021:8047  byte0 < STRING_SHORT_START */\n      dup3\n      lt\n        /* \"contracts/fraud-detector/libs/rlp/RLPReader.sol\":239:243  0x80 */\n      iszero\n      tag_294\n      jumpi\n        /* \"contracts/fraud-detector/libs/rlp/RLPReader.sol\":8063:8074  itemLen = 1 */\n      pop\n      pop\n        /* \"contracts/fraud-detector/libs/rlp/RLPReader.sol\":8073:8074  1 */\n      0x01\n        /* \"contracts/fraud-detector/libs/rlp/RLPReader.sol\":7817:9080  function _itemLength(uint256 memPtr) private pure returns (uint256) {... */\n      swap1\n      jump\t// out\n        /* \"contracts/fraud-detector/libs/rlp/RLPReader.sol\":8017:9049  if (byte0 < STRING_SHORT_START) {... */\n    tag_294:\n        /* \"contracts/fraud-detector/libs/rlp/RLPReader.sol\":284:288  0xb8 */\n      0xb8\n        /* \"contracts/fraud-detector/libs/rlp/RLPReader.sol\":8095:8120  byte0 < STRING_LONG_START */\n      dup3\n      lt\n        /* \"contracts/fraud-detector/libs/rlp/RLPReader.sol\":284:288  0xb8 */\n      iszero\n      tag_297\n      jumpi\n        /* \"contracts/fraud-detector/libs/rlp/RLPReader.sol\":8146:8172  byte0 - STRING_SHORT_START */\n      pop\n      tag_288\n        /* \"contracts/fraud-detector/libs/rlp/RLPReader.sol\":8146:8176  byte0 - STRING_SHORT_START + 1 */\n      tag_235\n        /* \"contracts/fraud-detector/libs/rlp/RLPReader.sol\":8146:8172  byte0 - STRING_SHORT_START */\n      swap2\n      tag_56\n      jump\t// in\n        /* \"contracts/fraud-detector/libs/rlp/RLPReader.sol\":8091:9049  if (byte0 < STRING_LONG_START) {... */\n    tag_297:\n        /* \"contracts/fraud-detector/libs/rlp/RLPReader.sol\":8197:8221  byte0 < LIST_SHORT_START */\n      swap1\n        /* \"contracts/fraud-detector/libs/rlp/RLPReader.sol\":328:332  0xc0 */\n      0xc0\n        /* \"contracts/fraud-detector/libs/rlp/RLPReader.sol\":8197:8221  byte0 < LIST_SHORT_START */\n      dup2\n      lt\n        /* \"contracts/fraud-detector/libs/rlp/RLPReader.sol\":328:332  0xc0 */\n      iszero\n      tag_302\n      jumpi\n        /* \"contracts/fraud-detector/libs/rlp/RLPReader.sol\":8237:8622  assembly {... */\n      not(0xb5)\n      swap2\n      0x01\n      0xb7\n      dup4\n      0x20\n      sub\n      add\n      0x0100\n      exp\n      swap2\n      add\n      mload\n      div\n      add\n      add\n        /* \"contracts/fraud-detector/libs/rlp/RLPReader.sol\":6857:7236  function toBytes(RLPItem memory item) internal pure returns (bytes memory) {... */\n      swap1\n      jump\t// out\n        /* \"contracts/fraud-detector/libs/rlp/RLPReader.sol\":8193:9049  if (byte0 < LIST_SHORT_START) {... */\n    tag_302:\n        /* \"contracts/fraud-detector/libs/rlp/RLPReader.sol\":8642:8665  byte0 < LIST_LONG_START */\n      swap1\n        /* \"contracts/fraud-detector/libs/rlp/RLPReader.sol\":371:375  0xf8 */\n      0xf8\n        /* \"contracts/fraud-detector/libs/rlp/RLPReader.sol\":8642:8665  byte0 < LIST_LONG_START */\n      dup3\n      lt\n        /* \"contracts/fraud-detector/libs/rlp/RLPReader.sol\":371:375  0xf8 */\n      iszero\n      tag_305\n      jumpi\n        /* \"contracts/fraud-detector/libs/rlp/RLPReader.sol\":8691:8715  byte0 - LIST_SHORT_START */\n      pop\n      tag_288\n        /* \"contracts/fraud-detector/libs/rlp/RLPReader.sol\":8691:8719  byte0 - LIST_SHORT_START + 1 */\n      tag_235\n        /* \"contracts/fraud-detector/libs/rlp/RLPReader.sol\":8691:8715  byte0 - LIST_SHORT_START */\n      swap2\n      tag_55\n      jump\t// in\n        /* \"contracts/fraud-detector/libs/rlp/RLPReader.sol\":8638:9049  if (byte0 < LIST_LONG_START) {... */\n    tag_305:\n        /* \"contracts/fraud-detector/libs/rlp/RLPReader.sol\":8750:9039  assembly {... */\n      0x01\n      add\n      mload\n      0x20\n      dup3\n      swap1\n      sub\n      0xf7\n      add\n      0x0100\n      exp\n      swap1\n      div\n      add\n      not(0xf5)\n      add\n        /* \"contracts/fraud-detector/libs/rlp/RLPReader.sol\":6857:7236  function toBytes(RLPItem memory item) internal pure returns (bytes memory) {... */\n      swap1\n      jump\t// out\n        /* \"contracts/fraud-detector/libs/rlp/RLPReader.sol\":2390:2671  function payloadLocation(RLPItem memory item) internal pure returns (uint256, uint256) {... */\n    tag_63:\n      swap1\n        /* \"contracts/fraud-detector/libs/rlp/RLPReader.sol\":2519:2530  item.memPtr */\n      0x20\n      dup3\n      add\n        /* \"contracts/fraud-detector/header.sol\":94:4546  contract HeaderDecoder {... */\n      swap2\n        /* \"contracts/fraud-detector/libs/rlp/RLPReader.sol\":2504:2531  _payloadOffset(item.memPtr) */\n      tag_310\n        /* \"contracts/fraud-detector/header.sol\":94:4546  contract HeaderDecoder {... */\n      dup4\n      mload\n        /* \"contracts/fraud-detector/libs/rlp/RLPReader.sol\":2504:2531  _payloadOffset(item.memPtr) */\n      tag_61\n      jump\t// in\n    tag_310:\n        /* \"contracts/fraud-detector/header.sol\":94:4546  contract HeaderDecoder {... */\n      swap3\n      mload\n      swap1\n      dup4\n      dup3\n      add\n      dup1\n      swap3\n      gt\n      tag_207\n      jumpi\n      mload\n        /* \"contracts/fraud-detector/libs/rlp/RLPReader.sol\":371:375  0xf8 */\n      swap3\n      dup4\n      sub\n      swap3\n      dup4\n      gt\n      tag_207\n      jumpi\n        /* \"contracts/fraud-detector/libs/rlp/RLPReader.sol\":2644:2664  return (memPtr, len) */\n      swap2\n        /* \"contracts/fraud-detector/libs/rlp/RLPReader.sol\":2390:2671  function payloadLocation(RLPItem memory item) internal pure returns (uint256, uint256) {... */\n      swap1\n      jump\t// out\n        /* \"contracts/fraud-detector/libs/rlp/RLPReader.sol\":408:410  32 */\n    tag_64:\n      0x1f\n      dup2\n      gt\n      tag_207\n      jumpi\n      0x0100\n      exp\n      swap1\n      jump\t// out\n        /* \"contracts/fraud-detector/libs/rlp/RLPReader.sol\":9871:10639  function copy(uint256 src, uint256 dest, uint256 len) private pure {... */\n    tag_65:\n      swap3\n      swap1\n      swap2\n      swap3\n        /* \"contracts/fraud-detector/libs/rlp/RLPReader.sol\":9952:9960  len == 0 */\n      dup4\n      iszero\n        /* \"contracts/fraud-detector/libs/rlp/RLPReader.sol\":9948:9969  if (len == 0) return; */\n      tag_317\n      jumpi\n        /* \"contracts/fraud-detector/libs/rlp/RLPReader.sol\":10026:10220  for (; len >= WORD_SIZE; len -= WORD_SIZE) {... */\n      swap3\n      swap2\n        /* \"contracts/fraud-detector/libs/rlp/RLPReader.sol\":10051:10067  len -= WORD_SIZE */\n    tag_319:\n        /* \"contracts/fraud-detector/libs/rlp/RLPReader.sol\":408:410  32 */\n      0x20\n        /* \"contracts/fraud-detector/libs/rlp/RLPReader.sol\":10033:10049  len >= WORD_SIZE */\n      swap4\n      dup5\n      dup5\n      lt\n      tag_320\n      jumpi\n        /* \"contracts/fraud-detector/libs/rlp/RLPReader.sol\":10083:10148  assembly {... */\n      dup1\n      mload\n      dup3\n      mstore\n        /* \"contracts/fraud-detector/header.sol\":94:4546  contract HeaderDecoder {... */\n      dup5\n      dup2\n      add\n      dup1\n      swap2\n      gt\n      tag_207\n      jumpi\n      swap4\n      dup2\n      add\n      dup1\n      swap2\n      gt\n      tag_207\n      jumpi\n        /* \"contracts/fraud-detector/libs/rlp/RLPReader.sol\":10051:10067  len -= WORD_SIZE */\n      swap2\n      not(0x1f)\n        /* \"contracts/fraud-detector/libs/rlp/RLPReader.sol\":371:375  0xf8 */\n      dup2\n      add\n      swap1\n      dup2\n      gt\n      tag_207\n      jumpi\n        /* \"contracts/fraud-detector/libs/rlp/RLPReader.sol\":10026:10220  for (; len >= WORD_SIZE; len -= WORD_SIZE) {... */\n      swap2\n      jump(tag_319)\n        /* \"contracts/fraud-detector/libs/rlp/RLPReader.sol\":10033:10049  len >= WORD_SIZE */\n    tag_320:\n      swap2\n      swap4\n      pop\n      swap2\n        /* \"contracts/fraud-detector/libs/rlp/RLPReader.sol\":10234:10241  len > 0 */\n      dup1\n        /* \"contracts/fraud-detector/libs/rlp/RLPReader.sol\":10230:10633  if (len > 0) {... */\n      tag_328\n      jumpi\n        /* \"contracts/fraud-detector/libs/rlp/RLPReader.sol\":9871:10639  function copy(uint256 src, uint256 dest, uint256 len) private pure {... */\n      pop\n      pop\n      pop\n      jump\t// out\n        /* \"contracts/fraud-detector/libs/rlp/RLPReader.sol\":10230:10633  if (len > 0) {... */\n    tag_328:\n        /* \"contracts/fraud-detector/libs/rlp/RLPReader.sol\":10356:10378  256**(WORD_SIZE - len) */\n      tag_330\n        /* \"contracts/fraud-detector/libs/rlp/RLPReader.sol\":10362:10377  WORD_SIZE - len */\n      tag_331\n        /* \"contracts/fraud-detector/libs/rlp/RLPReader.sol\":10356:10382  256**(WORD_SIZE - len) - 1 */\n      tag_332\n        /* \"contracts/fraud-detector/libs/rlp/RLPReader.sol\":10362:10377  WORD_SIZE - len */\n      swap3\n      tag_57\n      jump\t// in\n    tag_331:\n        /* \"contracts/fraud-detector/libs/rlp/RLPReader.sol\":10356:10378  256**(WORD_SIZE - len) */\n      tag_64\n      jump\t// in\n    tag_330:\n        /* \"contracts/fraud-detector/libs/rlp/RLPReader.sol\":10356:10382  256**(WORD_SIZE - len) - 1 */\n      tag_58\n      jump\t// in\n    tag_332:\n        /* \"contracts/fraud-detector/libs/rlp/RLPReader.sol\":10396:10623  assembly {... */\n      swap1\n      mload\n      dup3\n      mload\n      dup3\n      and\n      swap2\n      not\n      and\n      or\n      swap1\n      mstore\n        /* \"contracts/fraud-detector/libs/rlp/RLPReader.sol\":9871:10639  function copy(uint256 src, uint256 dest, uint256 len) private pure {... */\n      jump\t// out\n        /* \"contracts/fraud-detector/libs/rlp/RLPReader.sol\":9948:9969  if (len == 0) return; */\n    tag_317:\n        /* \"contracts/fraud-detector/libs/rlp/RLPReader.sol\":9962:9969  return; */\n      pop\n      swap2\n      pop\n      pop\n      jump\t// out\n\n    auxdata: 0xa2646970667358221220781f1230467578203eb083aceaa9d23d3379dd504cf3910340206f5e7b77391f64736f6c63430008180033\n}\n",
				"bytecode": {
					"linkReferences": {},
					"object": "6080806040523461001657610ca8908161001b8239f35b5f80fdfe60806040526004361015610011575f80fd5b5f3560e01c6364daf9d614610024575f80fd5b346100985760203660031901126100985760043567ffffffffffffffff8111610098573660238201121561009857806004013561006081610102565b9061006e60405192836100d1565b8082523660248285010111610098576020815f9260246100969601838601378301015261011e565b005b5f80fd5b634e487b7160e01b5f52604160045260245ffd5b6040810190811067ffffffffffffffff8211176100cc57604052565b61009c565b90601f8019910116810190811067ffffffffffffffff8211176100cc57604052565b60405190610100826100b0565b565b67ffffffffffffffff81116100cc57601f01601f191660200190565b6102aa61029a7f02ffa1a605bcf5c5c5087ccdceb693bf7b2707f27539e4a39ee472dd39b994fc926102946101516102af565b917f6b77492f2b47f1136c4011ec23324d3623d4fb0471224d43c00b9537d67ad29661018461017f83610809565b61087b565b61019e610199610193836102f0565b51610947565b61041e565b85526101af61019961019383610311565b6020860190815261028c6101ec6101e66101d16101cb86610321565b51610997565b60601b6bffffffffffffffffffffffff191690565b60601c90565b6001600160a01b0316604088019081529261020c61019961019383610331565b6060890190815261023861019961019361022b61019961019387610341565b9460808d01958652610351565b60a08a018190528951945195519092906001600160a01b03169151905191604051968796879260a094919796959260c085019885526020850152600180861b03166040840152606083015260808201520152565b0390a1610548565b90610757565b6040519081529081906020820190565b0390a1565b6040519060c0820182811067ffffffffffffffff8211176100cc576040525f60a0838281528260208201528260408201528260608201528260808201520152565b8051156102fd5760200190565b634e487b7160e01b5f52603260045260245ffd5b8051600110156102fd5760400190565b8051600210156102fd5760600190565b8051600310156102fd5760800190565b8051600410156102fd5760a00190565b8051600510156102fd5760c00190565b8051600610156102fd5760e00190565b8051600710156102fd576101000190565b8051600810156102fd576101200190565b8051600910156102fd576101400190565b8051600a10156102fd576101600190565b8051600b10156102fd576101800190565b8051600c10156102fd576101a00190565b8051600d10156102fd576101c00190565b8051600e10156102fd576101e00190565b8051600f10156102fd576102000190565b80518210156102fd5760209160051b010190565b602081519101519060208110610432575090565b5f199060200360031b1b1690565b60405190610140820182811067ffffffffffffffff8211176100cc576040525f61012083606081528260208201528260408201528260608201528260808201528260a0820152606060c08201528260e0820152826101008201520152565b5f5b8381106104af5750505f910152565b81810151838201526020016104a0565b906020916104d88151809281855285808601910161049e565b601f01601f1916010190565b9691929461053794610120999c9b9a9661051067ffffffffffffffff9994610140808d528c01906104bf565b9560208b015260408a01526060890152608088015260a087015285820360c08701526104bf565b9660e0840152166101008201520152565b907f99c372e0d8a1ad4607194c517cabf7f6940fbfc63dda71f0c00f5b020d42b3c761057e61017f610578610440565b94610809565b61058a61019382610361565b845261059e61059882610371565b516109b6565b602085019081526102aa6105b461059884610382565b92604087019384526105c861059882610393565b9060608801918252876105dd610598836103a4565b91608082019283526105f1610598826103b5565b60a08301908152610604610193836103c6565b9060c0840191825261061b610199610193856103d7565b9260e08501938452610656610100610645610638610598856103e8565b67ffffffffffffffff1690565b67ffffffffffffffff169601958652565b600f815111610691575b508b519751985195519451905191519251935167ffffffffffffffff16946101208d0151966040519a8b9a8b6104e4565b61059861069d916103f9565b6101208d01525f610660565b906106bc6020928281519485920161049e565b0190565b919460289f9c9793946101549a956106bc9f9c976107409e9994865260208601526bffffffffffffffffffffffff199060601b16604085015260548401526074830152609482015261071c82518093602060b48501910161049e565b019460b486015260d485015260f484015261011483015261013482015201906106a9565b92835260c01b6001600160c01b0319166020830152565b8051602082015160408301519092906001600160a01b03169360608201519160808101519060a0015182516020840151604085015160608601519160808701519360a08801519560c08901519760e08a01519961010001516107c09067ffffffffffffffff1690565b9a6040519e8f9e8f6020019e6107d59f6106c0565b03601f19810182526107e790826100d1565b8051906020012090565b604051906107fe826100b0565b5f6020838281520152565b6108116107f1565b50602081519160405192610824846100b0565b835201602082015290565b67ffffffffffffffff81116100cc5760051b60200190565b634e487b7160e01b5f52601160045260245ffd5b906001820180921161086957565b610847565b9190820180921161086957565b610884816109f8565b156100985761089281610a1c565b61089b8161082f565b916108a960405193846100d1565b818352601f196108b88361082f565b015f5b8181106109305750506108dc6020809201516108d681610ad7565b9061086e565b5f905b8382106108ed575050505090565b610928816108fc600193610b3a565b906109056100f3565b8281528187820152610917868a61040a565b52610922858961040a565b5061086e565b9101906108df565b60209061093b6107f1565b828288010152016108bb565b8051156100985761095a61099491610bba565b61096681939293610102565b9261097460405194856100d1565b818452601f1961098383610102565b013660208601378360200190610bf5565b90565b6015815103610098576001600160a01b03906109b2906109b6565b1690565b805180151590816109ec575b5015610098576109d190610bba565b905190602081106109e0575090565b6020036101000a900490565b6021915011155f6109c2565b805115610a1757602060c0910151515f1a10610a1357600190565b5f90565b505f90565b805115610a17575f9060208101908151610a3581610ad7565b8101809111610869579151905181018091116108695791905b828110610a5b5750905090565b610a6481610b3a565b810180911161086957905f1981146108695760010190610a4e565b60bf1981019190821161086957565b607f1981019190821161086957565b602003906020821161086957565b5f1981019190821161086957565b60f61981019190821161086957565b60b61981019190821161086957565b515f1a6080811015610ae857505f90565b60b881108015610b24575b15610afe5750600190565b60c0811015610b1857610b1361099491610ac8565b61085b565b610b1361099491610ab9565b5060c08110158015610af3575060f88110610af3565b80515f1a906080821015610b4f575050600190565b60b8821015610b655750610b1361099491610a8e565b9060c0811015610b895760b51991600160b783602003016101000a91015104010190565b9060f8821015610ba05750610b1361099491610a7f565b60010151602082900360f7016101000a90040160f5190190565b906020820191610bca8351610ad7565b9251908382018092116108695751928303928311610869579190565b601f8111610869576101000a90565b929091928315610c6c5792915b602093848410610c375780518252848101809111610869579381018091116108695791601f1981019081116108695791610c02565b9193509180610c4557505050565b610c59610c54610c5e92610a9d565b610be6565b610aab565b905182518216911916179052565b5091505056fea2646970667358221220781f1230467578203eb083aceaa9d23d3379dd504cf3910340206f5e7b77391f64736f6c63430008180033",
					"opcodes": "PUSH1 0x80 DUP1 PUSH1 0x40 MSTORE CALLVALUE PUSH2 0x16 JUMPI PUSH2 0xCA8 SWAP1 DUP2 PUSH2 0x1B DUP3 CODECOPY RETURN JUMPDEST PUSH0 DUP1 REVERT INVALID PUSH1 0x80 PUSH1 0x40 MSTORE PUSH1 0x4 CALLDATASIZE LT ISZERO PUSH2 0x11 JUMPI PUSH0 DUP1 REVERT JUMPDEST PUSH0 CALLDATALOAD PUSH1 0xE0 SHR PUSH4 0x64DAF9D6 EQ PUSH2 0x24 JUMPI PUSH0 DUP1 REVERT JUMPDEST CALLVALUE PUSH2 0x98 JUMPI PUSH1 0x20 CALLDATASIZE PUSH1 0x3 NOT ADD SLT PUSH2 0x98 JUMPI PUSH1 0x4 CALLDATALOAD PUSH8 0xFFFFFFFFFFFFFFFF DUP2 GT PUSH2 0x98 JUMPI CALLDATASIZE PUSH1 0x23 DUP3 ADD SLT ISZERO PUSH2 0x98 JUMPI DUP1 PUSH1 0x4 ADD CALLDATALOAD PUSH2 0x60 DUP2 PUSH2 0x102 JUMP JUMPDEST SWAP1 PUSH2 0x6E PUSH1 0x40 MLOAD SWAP3 DUP4 PUSH2 0xD1 JUMP JUMPDEST DUP1 DUP3 MSTORE CALLDATASIZE PUSH1 0x24 DUP3 DUP6 ADD ADD GT PUSH2 0x98 JUMPI PUSH1 0x20 DUP2 PUSH0 SWAP3 PUSH1 0x24 PUSH2 0x96 SWAP7 ADD DUP4 DUP7 ADD CALLDATACOPY DUP4 ADD ADD MSTORE PUSH2 0x11E JUMP JUMPDEST STOP JUMPDEST PUSH0 DUP1 REVERT JUMPDEST PUSH4 0x4E487B71 PUSH1 0xE0 SHL PUSH0 MSTORE PUSH1 0x41 PUSH1 0x4 MSTORE PUSH1 0x24 PUSH0 REVERT JUMPDEST PUSH1 0x40 DUP2 ADD SWAP1 DUP2 LT PUSH8 0xFFFFFFFFFFFFFFFF DUP3 GT OR PUSH2 0xCC JUMPI PUSH1 0x40 MSTORE JUMP JUMPDEST PUSH2 0x9C JUMP JUMPDEST SWAP1 PUSH1 0x1F DUP1 NOT SWAP2 ADD AND DUP2 ADD SWAP1 DUP2 LT PUSH8 0xFFFFFFFFFFFFFFFF DUP3 GT OR PUSH2 0xCC JUMPI PUSH1 0x40 MSTORE JUMP JUMPDEST PUSH1 0x40 MLOAD SWAP1 PUSH2 0x100 DUP3 PUSH2 0xB0 JUMP JUMPDEST JUMP JUMPDEST PUSH8 0xFFFFFFFFFFFFFFFF DUP2 GT PUSH2 0xCC JUMPI PUSH1 0x1F ADD PUSH1 0x1F NOT AND PUSH1 0x20 ADD SWAP1 JUMP JUMPDEST PUSH2 0x2AA PUSH2 0x29A PUSH32 0x2FFA1A605BCF5C5C5087CCDCEB693BF7B2707F27539E4A39EE472DD39B994FC SWAP3 PUSH2 0x294 PUSH2 0x151 PUSH2 0x2AF JUMP JUMPDEST SWAP2 PUSH32 0x6B77492F2B47F1136C4011EC23324D3623D4FB0471224D43C00B9537D67AD296 PUSH2 0x184 PUSH2 0x17F DUP4 PUSH2 0x809 JUMP JUMPDEST PUSH2 0x87B JUMP JUMPDEST PUSH2 0x19E PUSH2 0x199 PUSH2 0x193 DUP4 PUSH2 0x2F0 JUMP JUMPDEST MLOAD PUSH2 0x947 JUMP JUMPDEST PUSH2 0x41E JUMP JUMPDEST DUP6 MSTORE PUSH2 0x1AF PUSH2 0x199 PUSH2 0x193 DUP4 PUSH2 0x311 JUMP JUMPDEST PUSH1 0x20 DUP7 ADD SWAP1 DUP2 MSTORE PUSH2 0x28C PUSH2 0x1EC PUSH2 0x1E6 PUSH2 0x1D1 PUSH2 0x1CB DUP7 PUSH2 0x321 JUMP JUMPDEST MLOAD PUSH2 0x997 JUMP JUMPDEST PUSH1 0x60 SHL PUSH12 0xFFFFFFFFFFFFFFFFFFFFFFFF NOT AND SWAP1 JUMP JUMPDEST PUSH1 0x60 SHR SWAP1 JUMP JUMPDEST PUSH1 0x1 PUSH1 0x1 PUSH1 0xA0 SHL SUB AND PUSH1 0x40 DUP9 ADD SWAP1 DUP2 MSTORE SWAP3 PUSH2 0x20C PUSH2 0x199 PUSH2 0x193 DUP4 PUSH2 0x331 JUMP JUMPDEST PUSH1 0x60 DUP10 ADD SWAP1 DUP2 MSTORE PUSH2 0x238 PUSH2 0x199 PUSH2 0x193 PUSH2 0x22B PUSH2 0x199 PUSH2 0x193 DUP8 PUSH2 0x341 JUMP JUMPDEST SWAP5 PUSH1 0x80 DUP14 ADD SWAP6 DUP7 MSTORE PUSH2 0x351 JUMP JUMPDEST PUSH1 0xA0 DUP11 ADD DUP2 SWAP1 MSTORE DUP10 MLOAD SWAP5 MLOAD SWAP6 MLOAD SWAP1 SWAP3 SWAP1 PUSH1 0x1 PUSH1 0x1 PUSH1 0xA0 SHL SUB AND SWAP2 MLOAD SWAP1 MLOAD SWAP2 PUSH1 0x40 MLOAD SWAP7 DUP8 SWAP7 DUP8 SWAP3 PUSH1 0xA0 SWAP5 SWAP2 SWAP8 SWAP7 SWAP6 SWAP3 PUSH1 0xC0 DUP6 ADD SWAP9 DUP6 MSTORE PUSH1 0x20 DUP6 ADD MSTORE PUSH1 0x1 DUP1 DUP7 SHL SUB AND PUSH1 0x40 DUP5 ADD MSTORE PUSH1 0x60 DUP4 ADD MSTORE PUSH1 0x80 DUP3 ADD MSTORE ADD MSTORE JUMP JUMPDEST SUB SWAP1 LOG1 PUSH2 0x548 JUMP JUMPDEST SWAP1 PUSH2 0x757 JUMP JUMPDEST PUSH1 0x40 MLOAD SWAP1 DUP2 MSTORE SWAP1 DUP2 SWAP1 PUSH1 0x20 DUP3 ADD SWAP1 JUMP JUMPDEST SUB SWAP1 LOG1 JUMP JUMPDEST PUSH1 0x40 MLOAD SWAP1 PUSH1 0xC0 DUP3 ADD DUP3 DUP2 LT PUSH8 0xFFFFFFFFFFFFFFFF DUP3 GT OR PUSH2 0xCC JUMPI PUSH1 0x40 MSTORE PUSH0 PUSH1 0xA0 DUP4 DUP3 DUP2 MSTORE DUP3 PUSH1 0x20 DUP3 ADD MSTORE DUP3 PUSH1 0x40 DUP3 ADD MSTORE DUP3 PUSH1 0x60 DUP3 ADD MSTORE DUP3 PUSH1 0x80 DUP3 ADD MSTORE ADD MSTORE JUMP JUMPDEST DUP1 MLOAD ISZERO PUSH2 0x2FD JUMPI PUSH1 0x20 ADD SWAP1 JUMP JUMPDEST PUSH4 0x4E487B71 PUSH1 0xE0 SHL PUSH0 MSTORE PUSH1 0x32 PUSH1 0x4 MSTORE PUSH1 0x24 PUSH0 REVERT JUMPDEST DUP1 MLOAD PUSH1 0x1 LT ISZERO PUSH2 0x2FD JUMPI PUSH1 0x40 ADD SWAP1 JUMP JUMPDEST DUP1 MLOAD PUSH1 0x2 LT ISZERO PUSH2 0x2FD JUMPI PUSH1 0x60 ADD SWAP1 JUMP JUMPDEST DUP1 MLOAD PUSH1 0x3 LT ISZERO PUSH2 0x2FD JUMPI PUSH1 0x80 ADD SWAP1 JUMP JUMPDEST DUP1 MLOAD PUSH1 0x4 LT ISZERO PUSH2 0x2FD JUMPI PUSH1 0xA0 ADD SWAP1 JUMP JUMPDEST DUP1 MLOAD PUSH1 0x5 LT ISZERO PUSH2 0x2FD JUMPI PUSH1 0xC0 ADD SWAP1 JUMP JUMPDEST DUP1 MLOAD PUSH1 0x6 LT ISZERO PUSH2 0x2FD JUMPI PUSH1 0xE0 ADD SWAP1 JUMP JUMPDEST DUP1 MLOAD PUSH1 0x7 LT ISZERO PUSH2 0x2FD JUMPI PUSH2 0x100 ADD SWAP1 JUMP JUMPDEST DUP1 MLOAD PUSH1 0x8 LT ISZERO PUSH2 0x2FD JUMPI PUSH2 0x120 ADD SWAP1 JUMP JUMPDEST DUP1 MLOAD PUSH1 0x9 LT ISZERO PUSH2 0x2FD JUMPI PUSH2 0x140 ADD SWAP1 JUMP JUMPDEST DUP1 MLOAD PUSH1 0xA LT ISZERO PUSH2 0x2FD JUMPI PUSH2 0x160 ADD SWAP1 JUMP JUMPDEST DUP1 MLOAD PUSH1 0xB LT ISZERO PUSH2 0x2FD JUMPI PUSH2 0x180 ADD SWAP1 JUMP JUMPDEST DUP1 MLOAD PUSH1 0xC LT ISZERO PUSH2 0x2FD JUMPI PUSH2 0x1A0 ADD SWAP1 JUMP JUMPDEST DUP1 MLOAD PUSH1 0xD LT ISZERO PUSH2 0x2FD JUMPI PUSH2 0x1C0 ADD SWAP1 JUMP JUMPDEST DUP1 MLOAD PUSH1 0xE LT ISZERO PUSH2 0x2FD JUMPI PUSH2 0x1E0 ADD SWAP1 JUMP JUMPDEST DUP1 MLOAD PUSH1 0xF LT ISZERO PUSH2 0x2FD JUMPI PUSH2 0x200 ADD SWAP1 JUMP JUMPDEST DUP1 MLOAD DUP3 LT ISZERO PUSH2 0x2FD JUMPI PUSH1 0x20 SWAP2 PUSH1 0x5 SHL ADD ADD SWAP1 JUMP JUMPDEST PUSH1 0x20 DUP2 MLOAD SWAP2 ADD MLOAD SWAP1 PUSH1 0x20 DUP2 LT PUSH2 0x432 JUMPI POP SWAP1 JUMP JUMPDEST PUSH0 NOT SWAP1 PUSH1 0x20 SUB PUSH1 0x3 SHL SHL AND SWAP1 JUMP JUMPDEST PUSH1 0x40 MLOAD SWAP1 PUSH2 0x140 DUP3 ADD DUP3 DUP2 LT PUSH8 0xFFFFFFFFFFFFFFFF DUP3 GT OR PUSH2 0xCC JUMPI PUSH1 0x40 MSTORE PUSH0 PUSH2 0x120 DUP4 PUSH1 0x60 DUP2 MSTORE DUP3 PUSH1 0x20 DUP3 ADD MSTORE DUP3 PUSH1 0x40 DUP3 ADD MSTORE DUP3 PUSH1 0x60 DUP3 ADD MSTORE DUP3 PUSH1 0x80 DUP3 ADD MSTORE DUP3 PUSH1 0xA0 DUP3 ADD MSTORE PUSH1 0x60 PUSH1 0xC0 DUP3 ADD MSTORE DUP3 PUSH1 0xE0 DUP3 ADD MSTORE DUP3 PUSH2 0x100 DUP3 ADD MSTORE ADD MSTORE JUMP JUMPDEST PUSH0 JUMPDEST DUP4 DUP2 LT PUSH2 0x4AF JUMPI POP POP PUSH0 SWAP2 ADD MSTORE JUMP JUMPDEST DUP2 DUP2 ADD MLOAD DUP4 DUP3 ADD MSTORE PUSH1 0x20 ADD PUSH2 0x4A0 JUMP JUMPDEST SWAP1 PUSH1 0x20 SWAP2 PUSH2 0x4D8 DUP2 MLOAD DUP1 SWAP3 DUP2 DUP6 MSTORE DUP6 DUP1 DUP7 ADD SWAP2 ADD PUSH2 0x49E JUMP JUMPDEST PUSH1 0x1F ADD PUSH1 0x1F NOT AND ADD ADD SWAP1 JUMP JUMPDEST SWAP7 SWAP2 SWAP3 SWAP5 PUSH2 0x537 SWAP5 PUSH2 0x120 SWAP10 SWAP13 SWAP12 SWAP11 SWAP7 PUSH2 0x510 PUSH8 0xFFFFFFFFFFFFFFFF SWAP10 SWAP5 PUSH2 0x140 DUP1 DUP14 MSTORE DUP13 ADD SWAP1 PUSH2 0x4BF JUMP JUMPDEST SWAP6 PUSH1 0x20 DUP12 ADD MSTORE PUSH1 0x40 DUP11 ADD MSTORE PUSH1 0x60 DUP10 ADD MSTORE PUSH1 0x80 DUP9 ADD MSTORE PUSH1 0xA0 DUP8 ADD MSTORE DUP6 DUP3 SUB PUSH1 0xC0 DUP8 ADD MSTORE PUSH2 0x4BF JUMP JUMPDEST SWAP7 PUSH1 0xE0 DUP5 ADD MSTORE AND PUSH2 0x100 DUP3 ADD MSTORE ADD MSTORE JUMP JUMPDEST SWAP1 PUSH32 0x99C372E0D8A1AD4607194C517CABF7F6940FBFC63DDA71F0C00F5B020D42B3C7 PUSH2 0x57E PUSH2 0x17F PUSH2 0x578 PUSH2 0x440 JUMP JUMPDEST SWAP5 PUSH2 0x809 JUMP JUMPDEST PUSH2 0x58A PUSH2 0x193 DUP3 PUSH2 0x361 JUMP JUMPDEST DUP5 MSTORE PUSH2 0x59E PUSH2 0x598 DUP3 PUSH2 0x371 JUMP JUMPDEST MLOAD PUSH2 0x9B6 JUMP JUMPDEST PUSH1 0x20 DUP6 ADD SWAP1 DUP2 MSTORE PUSH2 0x2AA PUSH2 0x5B4 PUSH2 0x598 DUP5 PUSH2 0x382 JUMP JUMPDEST SWAP3 PUSH1 0x40 DUP8 ADD SWAP4 DUP5 MSTORE PUSH2 0x5C8 PUSH2 0x598 DUP3 PUSH2 0x393 JUMP JUMPDEST SWAP1 PUSH1 0x60 DUP9 ADD SWAP2 DUP3 MSTORE DUP8 PUSH2 0x5DD PUSH2 0x598 DUP4 PUSH2 0x3A4 JUMP JUMPDEST SWAP2 PUSH1 0x80 DUP3 ADD SWAP3 DUP4 MSTORE PUSH2 0x5F1 PUSH2 0x598 DUP3 PUSH2 0x3B5 JUMP JUMPDEST PUSH1 0xA0 DUP4 ADD SWAP1 DUP2 MSTORE PUSH2 0x604 PUSH2 0x193 DUP4 PUSH2 0x3C6 JUMP JUMPDEST SWAP1 PUSH1 0xC0 DUP5 ADD SWAP2 DUP3 MSTORE PUSH2 0x61B PUSH2 0x199 PUSH2 0x193 DUP6 PUSH2 0x3D7 JUMP JUMPDEST SWAP3 PUSH1 0xE0 DUP6 ADD SWAP4 DUP5 MSTORE PUSH2 0x656 PUSH2 0x100 PUSH2 0x645 PUSH2 0x638 PUSH2 0x598 DUP6 PUSH2 0x3E8 JUMP JUMPDEST PUSH8 0xFFFFFFFFFFFFFFFF AND SWAP1 JUMP JUMPDEST PUSH8 0xFFFFFFFFFFFFFFFF AND SWAP7 ADD SWAP6 DUP7 MSTORE JUMP JUMPDEST PUSH1 0xF DUP2 MLOAD GT PUSH2 0x691 JUMPI JUMPDEST POP DUP12 MLOAD SWAP8 MLOAD SWAP9 MLOAD SWAP6 MLOAD SWAP5 MLOAD SWAP1 MLOAD SWAP2 MLOAD SWAP3 MLOAD SWAP4 MLOAD PUSH8 0xFFFFFFFFFFFFFFFF AND SWAP5 PUSH2 0x120 DUP14 ADD MLOAD SWAP7 PUSH1 0x40 MLOAD SWAP11 DUP12 SWAP11 DUP12 PUSH2 0x4E4 JUMP JUMPDEST PUSH2 0x598 PUSH2 0x69D SWAP2 PUSH2 0x3F9 JUMP JUMPDEST PUSH2 0x120 DUP14 ADD MSTORE PUSH0 PUSH2 0x660 JUMP JUMPDEST SWAP1 PUSH2 0x6BC PUSH1 0x20 SWAP3 DUP3 DUP2 MLOAD SWAP5 DUP6 SWAP3 ADD PUSH2 0x49E JUMP JUMPDEST ADD SWAP1 JUMP JUMPDEST SWAP2 SWAP5 PUSH1 0x28 SWAP16 SWAP13 SWAP8 SWAP4 SWAP5 PUSH2 0x154 SWAP11 SWAP6 PUSH2 0x6BC SWAP16 SWAP13 SWAP8 PUSH2 0x740 SWAP15 SWAP10 SWAP5 DUP7 MSTORE PUSH1 0x20 DUP7 ADD MSTORE PUSH12 0xFFFFFFFFFFFFFFFFFFFFFFFF NOT SWAP1 PUSH1 0x60 SHL AND PUSH1 0x40 DUP6 ADD MSTORE PUSH1 0x54 DUP5 ADD MSTORE PUSH1 0x74 DUP4 ADD MSTORE PUSH1 0x94 DUP3 ADD MSTORE PUSH2 0x71C DUP3 MLOAD DUP1 SWAP4 PUSH1 0x20 PUSH1 0xB4 DUP6 ADD SWAP2 ADD PUSH2 0x49E JUMP JUMPDEST ADD SWAP5 PUSH1 0xB4 DUP7 ADD MSTORE PUSH1 0xD4 DUP6 ADD MSTORE PUSH1 0xF4 DUP5 ADD MSTORE PUSH2 0x114 DUP4 ADD MSTORE PUSH2 0x134 DUP3 ADD MSTORE ADD SWAP1 PUSH2 0x6A9 JUMP JUMPDEST SWAP3 DUP4 MSTORE PUSH1 0xC0 SHL PUSH1 0x1 PUSH1 0x1 PUSH1 0xC0 SHL SUB NOT AND PUSH1 0x20 DUP4 ADD MSTORE JUMP JUMPDEST DUP1 MLOAD PUSH1 0x20 DUP3 ADD MLOAD PUSH1 0x40 DUP4 ADD MLOAD SWAP1 SWAP3 SWAP1 PUSH1 0x1 PUSH1 0x1 PUSH1 0xA0 SHL SUB AND SWAP4 PUSH1 0x60 DUP3 ADD MLOAD SWAP2 PUSH1 0x80 DUP2 ADD MLOAD SWAP1 PUSH1 0xA0 ADD MLOAD DUP3 MLOAD PUSH1 0x20 DUP5 ADD MLOAD PUSH1 0x40 DUP6 ADD MLOAD PUSH1 0x60 DUP7 ADD MLOAD SWAP2 PUSH1 0x80 DUP8 ADD MLOAD SWAP4 PUSH1 0xA0 DUP9 ADD MLOAD SWAP6 PUSH1 0xC0 DUP10 ADD MLOAD SWAP8 PUSH1 0xE0 DUP11 ADD MLOAD SWAP10 PUSH2 0x100 ADD MLOAD PUSH2 0x7C0 SWAP1 PUSH8 0xFFFFFFFFFFFFFFFF AND SWAP1 JUMP JUMPDEST SWAP11 PUSH1 0x40 MLOAD SWAP15 DUP16 SWAP15 DUP16 PUSH1 0x20 ADD SWAP15 PUSH2 0x7D5 SWAP16 PUSH2 0x6C0 JUMP JUMPDEST SUB PUSH1 0x1F NOT DUP2 ADD DUP3 MSTORE PUSH2 0x7E7 SWAP1 DUP3 PUSH2 0xD1 JUMP JUMPDEST DUP1 MLOAD SWAP1 PUSH1 0x20 ADD KECCAK256 SWAP1 JUMP JUMPDEST PUSH1 0x40 MLOAD SWAP1 PUSH2 0x7FE DUP3 PUSH2 0xB0 JUMP JUMPDEST PUSH0 PUSH1 0x20 DUP4 DUP3 DUP2 MSTORE ADD MSTORE JUMP JUMPDEST PUSH2 0x811 PUSH2 0x7F1 JUMP JUMPDEST POP PUSH1 0x20 DUP2 MLOAD SWAP2 PUSH1 0x40 MLOAD SWAP3 PUSH2 0x824 DUP5 PUSH2 0xB0 JUMP JUMPDEST DUP4 MSTORE ADD PUSH1 0x20 DUP3 ADD MSTORE SWAP1 JUMP JUMPDEST PUSH8 0xFFFFFFFFFFFFFFFF DUP2 GT PUSH2 0xCC JUMPI PUSH1 0x5 SHL PUSH1 0x20 ADD SWAP1 JUMP JUMPDEST PUSH4 0x4E487B71 PUSH1 0xE0 SHL PUSH0 MSTORE PUSH1 0x11 PUSH1 0x4 MSTORE PUSH1 0x24 PUSH0 REVERT JUMPDEST SWAP1 PUSH1 0x1 DUP3 ADD DUP1 SWAP3 GT PUSH2 0x869 JUMPI JUMP JUMPDEST PUSH2 0x847 JUMP JUMPDEST SWAP2 SWAP1 DUP3 ADD DUP1 SWAP3 GT PUSH2 0x869 JUMPI JUMP JUMPDEST PUSH2 0x884 DUP2 PUSH2 0x9F8 JUMP JUMPDEST ISZERO PUSH2 0x98 JUMPI PUSH2 0x892 DUP2 PUSH2 0xA1C JUMP JUMPDEST PUSH2 0x89B DUP2 PUSH2 0x82F JUMP JUMPDEST SWAP2 PUSH2 0x8A9 PUSH1 0x40 MLOAD SWAP4 DUP5 PUSH2 0xD1 JUMP JUMPDEST DUP2 DUP4 MSTORE PUSH1 0x1F NOT PUSH2 0x8B8 DUP4 PUSH2 0x82F JUMP JUMPDEST ADD PUSH0 JUMPDEST DUP2 DUP2 LT PUSH2 0x930 JUMPI POP POP PUSH2 0x8DC PUSH1 0x20 DUP1 SWAP3 ADD MLOAD PUSH2 0x8D6 DUP2 PUSH2 0xAD7 JUMP JUMPDEST SWAP1 PUSH2 0x86E JUMP JUMPDEST PUSH0 SWAP1 JUMPDEST DUP4 DUP3 LT PUSH2 0x8ED JUMPI POP POP POP POP SWAP1 JUMP JUMPDEST PUSH2 0x928 DUP2 PUSH2 0x8FC PUSH1 0x1 SWAP4 PUSH2 0xB3A JUMP JUMPDEST SWAP1 PUSH2 0x905 PUSH2 0xF3 JUMP JUMPDEST DUP3 DUP2 MSTORE DUP2 DUP8 DUP3 ADD MSTORE PUSH2 0x917 DUP7 DUP11 PUSH2 0x40A JUMP JUMPDEST MSTORE PUSH2 0x922 DUP6 DUP10 PUSH2 0x40A JUMP JUMPDEST POP PUSH2 0x86E JUMP JUMPDEST SWAP2 ADD SWAP1 PUSH2 0x8DF JUMP JUMPDEST PUSH1 0x20 SWAP1 PUSH2 0x93B PUSH2 0x7F1 JUMP JUMPDEST DUP3 DUP3 DUP9 ADD ADD MSTORE ADD PUSH2 0x8BB JUMP JUMPDEST DUP1 MLOAD ISZERO PUSH2 0x98 JUMPI PUSH2 0x95A PUSH2 0x994 SWAP2 PUSH2 0xBBA JUMP JUMPDEST PUSH2 0x966 DUP2 SWAP4 SWAP3 SWAP4 PUSH2 0x102 JUMP JUMPDEST SWAP3 PUSH2 0x974 PUSH1 0x40 MLOAD SWAP5 DUP6 PUSH2 0xD1 JUMP JUMPDEST DUP2 DUP5 MSTORE PUSH1 0x1F NOT PUSH2 0x983 DUP4 PUSH2 0x102 JUMP JUMPDEST ADD CALLDATASIZE PUSH1 0x20 DUP7 ADD CALLDATACOPY DUP4 PUSH1 0x20 ADD SWAP1 PUSH2 0xBF5 JUMP JUMPDEST SWAP1 JUMP JUMPDEST PUSH1 0x15 DUP2 MLOAD SUB PUSH2 0x98 JUMPI PUSH1 0x1 PUSH1 0x1 PUSH1 0xA0 SHL SUB SWAP1 PUSH2 0x9B2 SWAP1 PUSH2 0x9B6 JUMP JUMPDEST AND SWAP1 JUMP JUMPDEST DUP1 MLOAD DUP1 ISZERO ISZERO SWAP1 DUP2 PUSH2 0x9EC JUMPI JUMPDEST POP ISZERO PUSH2 0x98 JUMPI PUSH2 0x9D1 SWAP1 PUSH2 0xBBA JUMP JUMPDEST SWAP1 MLOAD SWAP1 PUSH1 0x20 DUP2 LT PUSH2 0x9E0 JUMPI POP SWAP1 JUMP JUMPDEST PUSH1 0x20 SUB PUSH2 0x100 EXP SWAP1 DIV SWAP1 JUMP JUMPDEST PUSH1 0x21 SWAP2 POP GT ISZERO PUSH0 PUSH2 0x9C2 JUMP JUMPDEST DUP1 MLOAD ISZERO PUSH2 0xA17 JUMPI PUSH1 0x20 PUSH1 0xC0 SWAP2 ADD MLOAD MLOAD PUSH0 BYTE LT PUSH2 0xA13 JUMPI PUSH1 0x1 SWAP1 JUMP JUMPDEST PUSH0 SWAP1 JUMP JUMPDEST POP PUSH0 SWAP1 JUMP JUMPDEST DUP1 MLOAD ISZERO PUSH2 0xA17 JUMPI PUSH0 SWAP1 PUSH1 0x20 DUP2 ADD SWAP1 DUP2 MLOAD PUSH2 0xA35 DUP2 PUSH2 0xAD7 JUMP JUMPDEST DUP2 ADD DUP1 SWAP2 GT PUSH2 0x869 JUMPI SWAP2 MLOAD SWAP1 MLOAD DUP2 ADD DUP1 SWAP2 GT PUSH2 0x869 JUMPI SWAP2 SWAP1 JUMPDEST DUP3 DUP2 LT PUSH2 0xA5B JUMPI POP SWAP1 POP SWAP1 JUMP JUMPDEST PUSH2 0xA64 DUP2 PUSH2 0xB3A JUMP JUMPDEST DUP2 ADD DUP1 SWAP2 GT PUSH2 0x869 JUMPI SWAP1 PUSH0 NOT DUP2 EQ PUSH2 0x869 JUMPI PUSH1 0x1 ADD SWAP1 PUSH2 0xA4E JUMP JUMPDEST PUSH1 0xBF NOT DUP2 ADD SWAP2 SWAP1 DUP3 GT PUSH2 0x869 JUMPI JUMP JUMPDEST PUSH1 0x7F NOT DUP2 ADD SWAP2 SWAP1 DUP3 GT PUSH2 0x869 JUMPI JUMP JUMPDEST PUSH1 0x20 SUB SWAP1 PUSH1 0x20 DUP3 GT PUSH2 0x869 JUMPI JUMP JUMPDEST PUSH0 NOT DUP2 ADD SWAP2 SWAP1 DUP3 GT PUSH2 0x869 JUMPI JUMP JUMPDEST PUSH1 0xF6 NOT DUP2 ADD SWAP2 SWAP1 DUP3 GT PUSH2 0x869 JUMPI JUMP JUMPDEST PUSH1 0xB6 NOT DUP2 ADD SWAP2 SWAP1 DUP3 GT PUSH2 0x869 JUMPI JUMP JUMPDEST MLOAD PUSH0 BYTE PUSH1 0x80 DUP2 LT ISZERO PUSH2 0xAE8 JUMPI POP PUSH0 SWAP1 JUMP JUMPDEST PUSH1 0xB8 DUP2 LT DUP1 ISZERO PUSH2 0xB24 JUMPI JUMPDEST ISZERO PUSH2 0xAFE JUMPI POP PUSH1 0x1 SWAP1 JUMP JUMPDEST PUSH1 0xC0 DUP2 LT ISZERO PUSH2 0xB18 JUMPI PUSH2 0xB13 PUSH2 0x994 SWAP2 PUSH2 0xAC8 JUMP JUMPDEST PUSH2 0x85B JUMP JUMPDEST PUSH2 0xB13 PUSH2 0x994 SWAP2 PUSH2 0xAB9 JUMP JUMPDEST POP PUSH1 0xC0 DUP2 LT ISZERO DUP1 ISZERO PUSH2 0xAF3 JUMPI POP PUSH1 0xF8 DUP2 LT PUSH2 0xAF3 JUMP JUMPDEST DUP1 MLOAD PUSH0 BYTE SWAP1 PUSH1 0x80 DUP3 LT ISZERO PUSH2 0xB4F JUMPI POP POP PUSH1 0x1 SWAP1 JUMP JUMPDEST PUSH1 0xB8 DUP3 LT ISZERO PUSH2 0xB65 JUMPI POP PUSH2 0xB13 PUSH2 0x994 SWAP2 PUSH2 0xA8E JUMP JUMPDEST SWAP1 PUSH1 0xC0 DUP2 LT ISZERO PUSH2 0xB89 JUMPI PUSH1 0xB5 NOT SWAP2 PUSH1 0x1 PUSH1 0xB7 DUP4 PUSH1 0x20 SUB ADD PUSH2 0x100 EXP SWAP2 ADD MLOAD DIV ADD ADD SWAP1 JUMP JUMPDEST SWAP1 PUSH1 0xF8 DUP3 LT ISZERO PUSH2 0xBA0 JUMPI POP PUSH2 0xB13 PUSH2 0x994 SWAP2 PUSH2 0xA7F JUMP JUMPDEST PUSH1 0x1 ADD MLOAD PUSH1 0x20 DUP3 SWAP1 SUB PUSH1 0xF7 ADD PUSH2 0x100 EXP SWAP1 DIV ADD PUSH1 0xF5 NOT ADD SWAP1 JUMP JUMPDEST SWAP1 PUSH1 0x20 DUP3 ADD SWAP2 PUSH2 0xBCA DUP4 MLOAD PUSH2 0xAD7 JUMP JUMPDEST SWAP3 MLOAD SWAP1 DUP4 DUP3 ADD DUP1 SWAP3 GT PUSH2 0x869 JUMPI MLOAD SWAP3 DUP4 SUB SWAP3 DUP4 GT PUSH2 0x869 JUMPI SWAP2 SWAP1 JUMP JUMPDEST PUSH1 0x1F DUP2 GT PUSH2 0x869 JUMPI PUSH2 0x100 EXP SWAP1 JUMP JUMPDEST SWAP3 SWAP1 SWAP2 SWAP3 DUP4 ISZERO PUSH2 0xC6C JUMPI SWAP3 SWAP2 JUMPDEST PUSH1 0x20 SWAP4 DUP5 DUP5 LT PUSH2 0xC37 JUMPI DUP1 MLOAD DUP3 MSTORE DUP5 DUP2 ADD DUP1 SWAP2 GT PUSH2 0x869 JUMPI SWAP4 DUP2 ADD DUP1 SWAP2 GT PUSH2 0x869 JUMPI SWAP2 PUSH1 0x1F NOT DUP2 ADD SWAP1 DUP2 GT PUSH2 0x869 JUMPI SWAP2 PUSH2 0xC02 JUMP JUMPDEST SWAP2 SWAP4 POP SWAP2 DUP1 PUSH2 0xC45 JUMPI POP POP POP JUMP JUMPDEST PUSH2 0xC59 PUSH2 0xC54 PUSH2 0xC5E SWAP3 PUSH2 0xA9D JUMP JUMPDEST PUSH2 0xBE6 JUMP JUMPDEST PUSH2 0xAAB JUMP JUMPDEST SWAP1 MLOAD DUP3 MLOAD DUP3 AND SWAP2 NOT AND OR SWAP1 MSTORE JUMP JUMPDEST POP SWAP2 POP POP JUMP INVALID LOG2 PUSH5 0x6970667358 0x22 SLT KECCAK256 PUSH25 0x1F1230467578203EB083ACEAA9D23D3379DD504CF391034020 PUSH16 0x5E7B77391F64736F6C63430008180033 "
				},
				"gasEstimates": {
					"creation": {
						"codeDepositCost": "648000",
						"executionCost": "690",
						"totalCost": "648690"
					},
					"external": {
						"decodeHeader(bytes)": "infinite"
					},
					"internal": {
						"_calculateHeaderHash(struct HeaderDecoder.BasicHeader memory,struct HeaderDecoder.ExtendedHeader memory)": "infinite",
						"_decodeBasicHeader(bytes memory)": "infinite",
						"_decodeExtendedHeader(bytes memory)": "infinite"
					}
				},
				"methodIdentifiers": {
					"decodeHeader(bytes)": "64daf9d6"
				}
			},
			"storageLayout": {
				"storage": [],
				"types": null
			},
			"userdoc": {
				"kind": "user",
				"methods": {},
				"version": 1
			}
		}
	}
}