{
	"data": {
		"bytecode": {
			"linkReferences": {},
			"object": "6080806040523461001c5761168990816100218239308160070152f35b5f80fdfe6080604052307f0000000000000000000000000000000000000000000000000000000000000000146004361015610034575f80fd5b5f3560e01c806315515246146100ab5780632c66f61a146100a657806388ede4a21461009c578063c7d60a0614610092578063e09bc827146100885763fe0103f71461007e575f80fd5b15610a20575b5f80fd5b50156107fc575f80fd5b50156106bd575f80fd5b501561047f575f80fd5b610257565b610178565b634e487b7160e01b5f52604160045260245ffd5b6040810190811067ffffffffffffffff8211176100e057604052565b6100b0565b90601f8019910116810190811067ffffffffffffffff8211176100e057604052565b60405190610114826100c4565b565b67ffffffffffffffff81116100e057601f01601f191660200190565b81601f820112156100845780359061014982610116565b9261015760405194856100e5565b8284526020838301011161008457815f926020809301838601378301015290565b60803660031901126100845760643567ffffffffffffffff8111610084576101b76101a96020923690600401610132565b604435602435600435610baa565b604051908152f35b67ffffffffffffffff81116100e05760051b60200190565b81601f82011215610084578035916020916101f1846101bf565b936101ff60405195866100e5565b808552838086019160051b8301019280841161008457848301915b84831061022a5750505050505090565b823567ffffffffffffffff811161008457869161024c84848094890101610132565b81520192019161021a565b60a03660031901126100845767ffffffffffffffff602435818111610084576102849036906004016101d7565b906044358181116100845761029d903690600401610132565b606435918211610084576020926102bb6101b7933690600401610132565b50600435610ce1565b6020600319820112610084576004359067ffffffffffffffff8211610084576102ef91600401610132565b90565b5f5b8381106103035750505f910152565b81810151838201526020016102f4565b9060209161032c815180928185528580860191016102f2565b601f01601f1916010190565b90808251908181526020809101926020808460051b8301019501935f915b8483106103665750505050505090565b9091929394958480610384600193601f198682030187528a51610313565b9801930193019194939290610356565b9291906020906040855280516104716103bb610180928360408a01526101c0890190610313565b9184840151606089015260408401516080890152606084015160a08901526103f5608085015193603f1994858b83030160c08c0152610313565b9260a085015160e08a015261041b60c08601519461010095838c830301878d0152610313565b9161045f61043b60e088015194610120958d878782850301910152610338565b958701519361014094858d015287015195610160968c888682850301910152610313565b92860151918a840301908a0152610313565b9101516101a0860152930152565b6104a161049c61048e366102c4565b610496610d94565b50611224565b61127e565b6104ae600c825114610dfe565b6104b6610d94565b906104c96104c382610c06565b5161134a565b82526104df6104da6104c383610c18565b610e61565b602083019081526104f86104f283610c28565b51611397565b906040840191825261050f6104da6104c385610c38565b91606085019283526105236104c385610c48565b90608086019182526105376104f286610c58565b9260a0870193845261054b6104c387610c68565b9160c0880192835261056561055f88610c78565b5161127e565b946105708651610e83565b9660e08a019788525f5b8a88518210156105b35750806105ac816105996104c36001958d610ccd565b8c51906105a68383610ccd565b52610ccd565b500161057a565b96975050906106607f90eee31558acfcfed6439516fb8d12f248b9aef0fa51dd84936c1256090643f093926106729a6105f16104da6104c383610c89565b976101008a019889528a8c6106086104c385610c9a565b926101208d019c8d9485526106366104da6104c36106286104c38a610cab565b986101408501998a52610cbc565b61016082015251978b51995196519351905191519251938d5195519651976040519b8c9b8c610f28565b0390a151935190519151925193611008565b907ff9a7ea37911815f4a89b25e48dc4ee38541a0e1128907411984b0a228788c879604051806106a785829190602083019252565b0390a16106b960405192839283610394565b0390f35b60a03660031901126100845767ffffffffffffffff602435818111610084576106ea9036906004016101d7565b9060643581811161008457610703903690600401610132565b91608435918211610084576020926107226101b7933690600401610132565b9160443590600435611008565b9291906020906040855280516107ee610756610160928360408a01526101a0890190610313565b9184840151606089015260408401516080890152606084015160a0890152610790608085015193603f1994858b83030160c08c0152610313565b9260a085015160e08a01526107b660c08601519461010095838c830301878d0152610313565b9161045f6107d660e088015194610120958d878782850301910152610338565b9587015195610140968c888682850301910152610313565b910151610180860152930152565b61081361049c61080b366102c4565b6104966110c4565b610820600b825114610dfe565b6108286110c4565b6108346104c383610c06565b81526108456104da6104c384610c18565b91602082019283526108596104f282610c28565b91604081019283526108706104da6104c384610c38565b93606082019485526108846104c384610c48565b90608083019182526108986104f285610c58565b9460a084019586526108ac6104c386610c68565b60c085019081526108bf61055f87610c78565b976108ca8951610e83565b9660e087019788525f5b8a518110156108f957806108f2816105996104c38f95600196610ccd565b50016108d4565b507fe5fda43f81ac665889dc77778f276a13836ee131965d49e6cdd827ea35343f1593929161098b9161099999989a6109346104c383610c89565b906101008d019182528c6101406109646104da6104c36109566104c389610c9a565b976101208601988952610cab565b9101528c5195895197519451918b5190519151928d5194519551966040519a8b9a8b611127565b0390a1519151905191610ce1565b907ff9a7ea37911815f4a89b25e48dc4ee38541a0e1128907411984b0a228788c879604051806109ce85829190602083019252565b0390a16106b96040519283928361072f565b929190610a1b606060209260408752805160408801528381015182880152604081015160808801520151608060a087015260c0860190610313565b930152565b610a3761049c610a2f366102c4565b6104966111ae565b610a446004825114610dfe565b610a4c6111ae565b610a5b6104da6104c384610c06565b81526106b9610b52610a6f6104f285610c18565b9360208401908582527f245716014a178144670148ec993e73f5f2cbc96529afa0b8fbe731b4a74566bc610aaf6040978851918291829190602083019252565b0390a1610ac16104da6104c383610c28565b8686018181528751918252907fb7cfa42c424e0e7e35ff08e6ea1cf2789fec94621f570d48f844b82582a4b8ec90602090a17fa690c9f86196602d7fd3dd6934f38b29ee9bd564d1a89bb5d3372ae964f0d537610b206104c384610c38565b6060880193818552610b4189519187519386519151918d51958695866111e3565b0390a1855192519051915192610baa565b927ff9a7ea37911815f4a89b25e48dc4ee38541a0e1128907411984b0a228788c879815180610b8687829190602083019252565b0390a151928392836109e0565b90610ba6602092828151948592016102f2565b0190565b92610bec916080916040519485926020840197885260408401526060830152610bdc81518092602086860191016102f2565b81010360608101845201826100e5565b51902090565b634e487b7160e01b5f52603260045260245ffd5b805115610c135760200190565b610bf2565b805160011015610c135760400190565b805160021015610c135760600190565b805160031015610c135760800190565b805160041015610c135760a00190565b805160051015610c135760c00190565b805160061015610c135760e00190565b805160071015610c13576101000190565b805160081015610c13576101200190565b805160091015610c13576101400190565b8051600a1015610c13576101600190565b8051600b1015610c13576101800190565b8051821015610c135760209160051b010190565b90925f9160605b8551841015610d4557600190610d3d610d018689610ccd565b51916040518093602092610d1d815180928680870191016102f2565b8201610d31825180938680850191016102f2565b010380845201826100e5565b930192610ce8565b925092610bec919450604090815193849160208301968752610d7081518092602087870191016102f2565b8201610d8582518093602087850191016102f2565b010360208101845201826100e5565b60405190610180820182811067ffffffffffffffff8211176100e0576040525f61016083606080825283602083015283604083015283818301528060808301528360a08301528060c08301528060e083015283610100830152806101208301526101408201520152565b15610e0557565b60405162461bcd60e51b815260206004820152602e60248201527f496e636f7272656374206e756d626572206f66206669656c647320696e20524c60448201526d5020656e636f646564206461746160901b6064820152608490fd5b602081519101519060208110610e75575090565b5f199060200360031b1b1690565b90610e8d826101bf565b610e9a60405191826100e5565b8281528092610eab601f19916101bf565b01905f5b828110610ebb57505050565b806060602080938501015201610eaf565b90808251908181526020809101926020808460051b8301019501935f915b848310610efa5750505050505090565b9091929394958480610f18600193601f198682030187528a51610313565b9801930193019194939290610eea565b999591610f7490610f9596610faa9a9660606102ef9f9d9b958f9098610f59610f879a610160808552840190610313565b956020830152604082015201528c6080818403910152610313565b9160a08b015289820360c08b0152610313565b9087820360e0890152610ecc565b91610100860152848203610120860152610313565b91610140818403910152610313565b90926110039260409695948352602092610fdb825180938680850191016102f2565b01610fee825180938580850191016102f2565b019281840152835193849186850191016102f2565b010190565b91939294604092604051947f5dcadceca961b7159cec0e118986188b438287559ed58b29a762182b22a52cad6020968781528061104789820185610313565b0390a15f9760605b85518a10156110a3578761109b60019261108d61106c8e8b610ccd565b518b51948361108487955180928480890191016102f2565b84010190610b93565b03601f1981018352826100e5565b99019861104f565b9092979196945061108d939850610bec955060405196879586019889610fb9565b60405190610160820182811067ffffffffffffffff8211176100e0576040525f61014083606080825283602083015283604083015283818301528060808301528360a08301528060c08301528060e0830152806101008301526101208201520152565b98959161116f90611190966102ef9c9a966111829660408e61115561119f9e98610140808452830190610313565b956020820152015260608d01528b820360808d0152610313565b9160a08a015288820360c08a0152610313565b9086820360e0880152610ecc565b90848203610100860152610313565b91610120818403910152610313565b604051906080820182811067ffffffffffffffff8211176100e057604052606080835f81525f60208201525f60408201520152565b9594939092610a1b9260809488526020880152604087015260a0606087015260a0860190610313565b60405190611219826100c4565b5f6020838281520152565b61122c61120c565b5060208151916040519261123f846100c4565b835201602082015290565b634e487b7160e01b5f52601160045260245ffd5b906001820180921161126c57565b61124a565b9190820180921161126c57565b611287816113d9565b1561008457611295816113fd565b61129e816101bf565b916112ac60405193846100e5565b818352601f196112bb836101bf565b015f5b8181106113335750506112df6020809201516112d9816114b8565b90611271565b5f905b8382106112f0575050505090565b61132b816112ff60019361151b565b90611308610107565b828152818782015261131a868a610ccd565b526113258589610ccd565b50611271565b9101906112e2565b60209061133e61120c565b828288010152016112be565b8051156100845761135d6102ef9161159b565b61136981939293610116565b9261137760405194856100e5565b818452601f1961138683610116565b0136602086013783602001906115d6565b805180151590816113cd575b5015610084576113b29061159b565b905190602081106113c1575090565b6020036101000a900490565b6021915011155f6113a3565b8051156113f857602060c0910151515f1a106113f457600190565b5f90565b505f90565b8051156113f8575f9060208101908151611416816114b8565b810180911161126c5791519051810180911161126c5791905b82811061143c5750905090565b6114458161151b565b810180911161126c57905f19811461126c576001019061142f565b60bf1981019190821161126c57565b607f1981019190821161126c57565b602003906020821161126c57565b5f1981019190821161126c57565b60f61981019190821161126c57565b60b61981019190821161126c57565b515f1a60808110156114c957505f90565b60b881108015611505575b156114df5750600190565b60c08110156114f9576114f46102ef916114a9565b61125e565b6114f46102ef9161149a565b5060c081101580156114d4575060f881106114d4565b80515f1a906080821015611530575050600190565b60b882101561154657506114f46102ef9161146f565b9060c081101561156a5760b51991600160b783602003016101000a91015104010190565b9060f882101561158157506114f46102ef91611460565b60010151602082900360f7016101000a90040160f5190190565b9060208201916115ab83516114b8565b92519083820180921161126c575192830392831161126c579190565b601f811161126c576101000a90565b92909192831561164d5792915b602093848410611618578051825284810180911161126c5793810180911161126c5791601f19810190811161126c57916115e3565b919350918061162657505050565b61163a61163561163f9261147e565b6115c7565b61148c565b905182518216911916179052565b5091505056fea2646970667358221220904a731aaf0bcc0cde52d1981bc8e194279040fff3366a93cbc0173199cae29a64736f6c63430008180033",
			"opcodes": "PUSH1 0x80 DUP1 PUSH1 0x40 MSTORE CALLVALUE PUSH2 0x1C JUMPI PUSH2 0x1689 SWAP1 DUP2 PUSH2 0x21 DUP3 CODECOPY ADDRESS DUP2 PUSH1 0x7 ADD MSTORE RETURN JUMPDEST PUSH0 DUP1 REVERT INVALID PUSH1 0x80 PUSH1 0x40 MSTORE ADDRESS PUSH32 0x0 EQ PUSH1 0x4 CALLDATASIZE LT ISZERO PUSH2 0x34 JUMPI PUSH0 DUP1 REVERT JUMPDEST PUSH0 CALLDATALOAD PUSH1 0xE0 SHR DUP1 PUSH4 0x15515246 EQ PUSH2 0xAB JUMPI DUP1 PUSH4 0x2C66F61A EQ PUSH2 0xA6 JUMPI DUP1 PUSH4 0x88EDE4A2 EQ PUSH2 0x9C JUMPI DUP1 PUSH4 0xC7D60A06 EQ PUSH2 0x92 JUMPI DUP1 PUSH4 0xE09BC827 EQ PUSH2 0x88 JUMPI PUSH4 0xFE0103F7 EQ PUSH2 0x7E JUMPI PUSH0 DUP1 REVERT JUMPDEST ISZERO PUSH2 0xA20 JUMPI JUMPDEST PUSH0 DUP1 REVERT JUMPDEST POP ISZERO PUSH2 0x7FC JUMPI PUSH0 DUP1 REVERT JUMPDEST POP ISZERO PUSH2 0x6BD JUMPI PUSH0 DUP1 REVERT JUMPDEST POP ISZERO PUSH2 0x47F JUMPI PUSH0 DUP1 REVERT JUMPDEST PUSH2 0x257 JUMP JUMPDEST PUSH2 0x178 JUMP JUMPDEST PUSH4 0x4E487B71 PUSH1 0xE0 SHL PUSH0 MSTORE PUSH1 0x41 PUSH1 0x4 MSTORE PUSH1 0x24 PUSH0 REVERT JUMPDEST PUSH1 0x40 DUP2 ADD SWAP1 DUP2 LT PUSH8 0xFFFFFFFFFFFFFFFF DUP3 GT OR PUSH2 0xE0 JUMPI PUSH1 0x40 MSTORE JUMP JUMPDEST PUSH2 0xB0 JUMP JUMPDEST SWAP1 PUSH1 0x1F DUP1 NOT SWAP2 ADD AND DUP2 ADD SWAP1 DUP2 LT PUSH8 0xFFFFFFFFFFFFFFFF DUP3 GT OR PUSH2 0xE0 JUMPI PUSH1 0x40 MSTORE JUMP JUMPDEST PUSH1 0x40 MLOAD SWAP1 PUSH2 0x114 DUP3 PUSH2 0xC4 JUMP JUMPDEST JUMP JUMPDEST PUSH8 0xFFFFFFFFFFFFFFFF DUP2 GT PUSH2 0xE0 JUMPI PUSH1 0x1F ADD PUSH1 0x1F NOT AND PUSH1 0x20 ADD SWAP1 JUMP JUMPDEST DUP2 PUSH1 0x1F DUP3 ADD SLT ISZERO PUSH2 0x84 JUMPI DUP1 CALLDATALOAD SWAP1 PUSH2 0x149 DUP3 PUSH2 0x116 JUMP JUMPDEST SWAP3 PUSH2 0x157 PUSH1 0x40 MLOAD SWAP5 DUP6 PUSH2 0xE5 JUMP JUMPDEST DUP3 DUP5 MSTORE PUSH1 0x20 DUP4 DUP4 ADD ADD GT PUSH2 0x84 JUMPI DUP2 PUSH0 SWAP3 PUSH1 0x20 DUP1 SWAP4 ADD DUP4 DUP7 ADD CALLDATACOPY DUP4 ADD ADD MSTORE SWAP1 JUMP JUMPDEST PUSH1 0x80 CALLDATASIZE PUSH1 0x3 NOT ADD SLT PUSH2 0x84 JUMPI PUSH1 0x64 CALLDATALOAD PUSH8 0xFFFFFFFFFFFFFFFF DUP2 GT PUSH2 0x84 JUMPI PUSH2 0x1B7 PUSH2 0x1A9 PUSH1 0x20 SWAP3 CALLDATASIZE SWAP1 PUSH1 0x4 ADD PUSH2 0x132 JUMP JUMPDEST PUSH1 0x44 CALLDATALOAD PUSH1 0x24 CALLDATALOAD PUSH1 0x4 CALLDATALOAD PUSH2 0xBAA JUMP JUMPDEST PUSH1 0x40 MLOAD SWAP1 DUP2 MSTORE RETURN JUMPDEST PUSH8 0xFFFFFFFFFFFFFFFF DUP2 GT PUSH2 0xE0 JUMPI PUSH1 0x5 SHL PUSH1 0x20 ADD SWAP1 JUMP JUMPDEST DUP2 PUSH1 0x1F DUP3 ADD SLT ISZERO PUSH2 0x84 JUMPI DUP1 CALLDATALOAD SWAP2 PUSH1 0x20 SWAP2 PUSH2 0x1F1 DUP5 PUSH2 0x1BF JUMP JUMPDEST SWAP4 PUSH2 0x1FF PUSH1 0x40 MLOAD SWAP6 DUP7 PUSH2 0xE5 JUMP JUMPDEST DUP1 DUP6 MSTORE DUP4 DUP1 DUP7 ADD SWAP2 PUSH1 0x5 SHL DUP4 ADD ADD SWAP3 DUP1 DUP5 GT PUSH2 0x84 JUMPI DUP5 DUP4 ADD SWAP2 JUMPDEST DUP5 DUP4 LT PUSH2 0x22A JUMPI POP POP POP POP POP POP SWAP1 JUMP JUMPDEST DUP3 CALLDATALOAD PUSH8 0xFFFFFFFFFFFFFFFF DUP2 GT PUSH2 0x84 JUMPI DUP7 SWAP2 PUSH2 0x24C DUP5 DUP5 DUP1 SWAP5 DUP10 ADD ADD PUSH2 0x132 JUMP JUMPDEST DUP2 MSTORE ADD SWAP3 ADD SWAP2 PUSH2 0x21A JUMP JUMPDEST PUSH1 0xA0 CALLDATASIZE PUSH1 0x3 NOT ADD SLT PUSH2 0x84 JUMPI PUSH8 0xFFFFFFFFFFFFFFFF PUSH1 0x24 CALLDATALOAD DUP2 DUP2 GT PUSH2 0x84 JUMPI PUSH2 0x284 SWAP1 CALLDATASIZE SWAP1 PUSH1 0x4 ADD PUSH2 0x1D7 JUMP JUMPDEST SWAP1 PUSH1 0x44 CALLDATALOAD DUP2 DUP2 GT PUSH2 0x84 JUMPI PUSH2 0x29D SWAP1 CALLDATASIZE SWAP1 PUSH1 0x4 ADD PUSH2 0x132 JUMP JUMPDEST PUSH1 0x64 CALLDATALOAD SWAP2 DUP3 GT PUSH2 0x84 JUMPI PUSH1 0x20 SWAP3 PUSH2 0x2BB PUSH2 0x1B7 SWAP4 CALLDATASIZE SWAP1 PUSH1 0x4 ADD PUSH2 0x132 JUMP JUMPDEST POP PUSH1 0x4 CALLDATALOAD PUSH2 0xCE1 JUMP JUMPDEST PUSH1 0x20 PUSH1 0x3 NOT DUP3 ADD SLT PUSH2 0x84 JUMPI PUSH1 0x4 CALLDATALOAD SWAP1 PUSH8 0xFFFFFFFFFFFFFFFF DUP3 GT PUSH2 0x84 JUMPI PUSH2 0x2EF SWAP2 PUSH1 0x4 ADD PUSH2 0x132 JUMP JUMPDEST SWAP1 JUMP JUMPDEST PUSH0 JUMPDEST DUP4 DUP2 LT PUSH2 0x303 JUMPI POP POP PUSH0 SWAP2 ADD MSTORE JUMP JUMPDEST DUP2 DUP2 ADD MLOAD DUP4 DUP3 ADD MSTORE PUSH1 0x20 ADD PUSH2 0x2F4 JUMP JUMPDEST SWAP1 PUSH1 0x20 SWAP2 PUSH2 0x32C DUP2 MLOAD DUP1 SWAP3 DUP2 DUP6 MSTORE DUP6 DUP1 DUP7 ADD SWAP2 ADD PUSH2 0x2F2 JUMP JUMPDEST PUSH1 0x1F ADD PUSH1 0x1F NOT AND ADD ADD SWAP1 JUMP JUMPDEST SWAP1 DUP1 DUP3 MLOAD SWAP1 DUP2 DUP2 MSTORE PUSH1 0x20 DUP1 SWAP2 ADD SWAP3 PUSH1 0x20 DUP1 DUP5 PUSH1 0x5 SHL DUP4 ADD ADD SWAP6 ADD SWAP4 PUSH0 SWAP2 JUMPDEST DUP5 DUP4 LT PUSH2 0x366 JUMPI POP POP POP POP POP POP SWAP1 JUMP JUMPDEST SWAP1 SWAP2 SWAP3 SWAP4 SWAP5 SWAP6 DUP5 DUP1 PUSH2 0x384 PUSH1 0x1 SWAP4 PUSH1 0x1F NOT DUP7 DUP3 SUB ADD DUP8 MSTORE DUP11 MLOAD PUSH2 0x313 JUMP JUMPDEST SWAP9 ADD SWAP4 ADD SWAP4 ADD SWAP2 SWAP5 SWAP4 SWAP3 SWAP1 PUSH2 0x356 JUMP JUMPDEST SWAP3 SWAP2 SWAP1 PUSH1 0x20 SWAP1 PUSH1 0x40 DUP6 MSTORE DUP1 MLOAD PUSH2 0x471 PUSH2 0x3BB PUSH2 0x180 SWAP3 DUP4 PUSH1 0x40 DUP11 ADD MSTORE PUSH2 0x1C0 DUP10 ADD SWAP1 PUSH2 0x313 JUMP JUMPDEST SWAP2 DUP5 DUP5 ADD MLOAD PUSH1 0x60 DUP10 ADD MSTORE PUSH1 0x40 DUP5 ADD MLOAD PUSH1 0x80 DUP10 ADD MSTORE PUSH1 0x60 DUP5 ADD MLOAD PUSH1 0xA0 DUP10 ADD MSTORE PUSH2 0x3F5 PUSH1 0x80 DUP6 ADD MLOAD SWAP4 PUSH1 0x3F NOT SWAP5 DUP6 DUP12 DUP4 SUB ADD PUSH1 0xC0 DUP13 ADD MSTORE PUSH2 0x313 JUMP JUMPDEST SWAP3 PUSH1 0xA0 DUP6 ADD MLOAD PUSH1 0xE0 DUP11 ADD MSTORE PUSH2 0x41B PUSH1 0xC0 DUP7 ADD MLOAD SWAP5 PUSH2 0x100 SWAP6 DUP4 DUP13 DUP4 SUB ADD DUP8 DUP14 ADD MSTORE PUSH2 0x313 JUMP JUMPDEST SWAP2 PUSH2 0x45F PUSH2 0x43B PUSH1 0xE0 DUP9 ADD MLOAD SWAP5 PUSH2 0x120 SWAP6 DUP14 DUP8 DUP8 DUP3 DUP6 SUB ADD SWAP2 ADD MSTORE PUSH2 0x338 JUMP JUMPDEST SWAP6 DUP8 ADD MLOAD SWAP4 PUSH2 0x140 SWAP5 DUP6 DUP14 ADD MSTORE DUP8 ADD MLOAD SWAP6 PUSH2 0x160 SWAP7 DUP13 DUP9 DUP7 DUP3 DUP6 SUB ADD SWAP2 ADD MSTORE PUSH2 0x313 JUMP JUMPDEST SWAP3 DUP7 ADD MLOAD SWAP2 DUP11 DUP5 SUB ADD SWAP1 DUP11 ADD MSTORE PUSH2 0x313 JUMP JUMPDEST SWAP2 ADD MLOAD PUSH2 0x1A0 DUP7 ADD MSTORE SWAP4 ADD MSTORE JUMP JUMPDEST PUSH2 0x4A1 PUSH2 0x49C PUSH2 0x48E CALLDATASIZE PUSH2 0x2C4 JUMP JUMPDEST PUSH2 0x496 PUSH2 0xD94 JUMP JUMPDEST POP PUSH2 0x1224 JUMP JUMPDEST PUSH2 0x127E JUMP JUMPDEST PUSH2 0x4AE PUSH1 0xC DUP3 MLOAD EQ PUSH2 0xDFE JUMP JUMPDEST PUSH2 0x4B6 PUSH2 0xD94 JUMP JUMPDEST SWAP1 PUSH2 0x4C9 PUSH2 0x4C3 DUP3 PUSH2 0xC06 JUMP JUMPDEST MLOAD PUSH2 0x134A JUMP JUMPDEST DUP3 MSTORE PUSH2 0x4DF PUSH2 0x4DA PUSH2 0x4C3 DUP4 PUSH2 0xC18 JUMP JUMPDEST PUSH2 0xE61 JUMP JUMPDEST PUSH1 0x20 DUP4 ADD SWAP1 DUP2 MSTORE PUSH2 0x4F8 PUSH2 0x4F2 DUP4 PUSH2 0xC28 JUMP JUMPDEST MLOAD PUSH2 0x1397 JUMP JUMPDEST SWAP1 PUSH1 0x40 DUP5 ADD SWAP2 DUP3 MSTORE PUSH2 0x50F PUSH2 0x4DA PUSH2 0x4C3 DUP6 PUSH2 0xC38 JUMP JUMPDEST SWAP2 PUSH1 0x60 DUP6 ADD SWAP3 DUP4 MSTORE PUSH2 0x523 PUSH2 0x4C3 DUP6 PUSH2 0xC48 JUMP JUMPDEST SWAP1 PUSH1 0x80 DUP7 ADD SWAP2 DUP3 MSTORE PUSH2 0x537 PUSH2 0x4F2 DUP7 PUSH2 0xC58 JUMP JUMPDEST SWAP3 PUSH1 0xA0 DUP8 ADD SWAP4 DUP5 MSTORE PUSH2 0x54B PUSH2 0x4C3 DUP8 PUSH2 0xC68 JUMP JUMPDEST SWAP2 PUSH1 0xC0 DUP9 ADD SWAP3 DUP4 MSTORE PUSH2 0x565 PUSH2 0x55F DUP9 PUSH2 0xC78 JUMP JUMPDEST MLOAD PUSH2 0x127E JUMP JUMPDEST SWAP5 PUSH2 0x570 DUP7 MLOAD PUSH2 0xE83 JUMP JUMPDEST SWAP7 PUSH1 0xE0 DUP11 ADD SWAP8 DUP9 MSTORE PUSH0 JUMPDEST DUP11 DUP9 MLOAD DUP3 LT ISZERO PUSH2 0x5B3 JUMPI POP DUP1 PUSH2 0x5AC DUP2 PUSH2 0x599 PUSH2 0x4C3 PUSH1 0x1 SWAP6 DUP14 PUSH2 0xCCD JUMP JUMPDEST DUP13 MLOAD SWAP1 PUSH2 0x5A6 DUP4 DUP4 PUSH2 0xCCD JUMP JUMPDEST MSTORE PUSH2 0xCCD JUMP JUMPDEST POP ADD PUSH2 0x57A JUMP JUMPDEST SWAP7 SWAP8 POP POP SWAP1 PUSH2 0x660 PUSH32 0x90EEE31558ACFCFED6439516FB8D12F248B9AEF0FA51DD84936C1256090643F0 SWAP4 SWAP3 PUSH2 0x672 SWAP11 PUSH2 0x5F1 PUSH2 0x4DA PUSH2 0x4C3 DUP4 PUSH2 0xC89 JUMP JUMPDEST SWAP8 PUSH2 0x100 DUP11 ADD SWAP9 DUP10 MSTORE DUP11 DUP13 PUSH2 0x608 PUSH2 0x4C3 DUP6 PUSH2 0xC9A JUMP JUMPDEST SWAP3 PUSH2 0x120 DUP14 ADD SWAP13 DUP14 SWAP5 DUP6 MSTORE PUSH2 0x636 PUSH2 0x4DA PUSH2 0x4C3 PUSH2 0x628 PUSH2 0x4C3 DUP11 PUSH2 0xCAB JUMP JUMPDEST SWAP9 PUSH2 0x140 DUP6 ADD SWAP10 DUP11 MSTORE PUSH2 0xCBC JUMP JUMPDEST PUSH2 0x160 DUP3 ADD MSTORE MLOAD SWAP8 DUP12 MLOAD SWAP10 MLOAD SWAP7 MLOAD SWAP4 MLOAD SWAP1 MLOAD SWAP2 MLOAD SWAP3 MLOAD SWAP4 DUP14 MLOAD SWAP6 MLOAD SWAP7 MLOAD SWAP8 PUSH1 0x40 MLOAD SWAP12 DUP13 SWAP12 DUP13 PUSH2 0xF28 JUMP JUMPDEST SUB SWAP1 LOG1 MLOAD SWAP4 MLOAD SWAP1 MLOAD SWAP2 MLOAD SWAP3 MLOAD SWAP4 PUSH2 0x1008 JUMP JUMPDEST SWAP1 PUSH32 0xF9A7EA37911815F4A89B25E48DC4EE38541A0E1128907411984B0A228788C879 PUSH1 0x40 MLOAD DUP1 PUSH2 0x6A7 DUP6 DUP3 SWAP2 SWAP1 PUSH1 0x20 DUP4 ADD SWAP3 MSTORE JUMP JUMPDEST SUB SWAP1 LOG1 PUSH2 0x6B9 PUSH1 0x40 MLOAD SWAP3 DUP4 SWAP3 DUP4 PUSH2 0x394 JUMP JUMPDEST SUB SWAP1 RETURN JUMPDEST PUSH1 0xA0 CALLDATASIZE PUSH1 0x3 NOT ADD SLT PUSH2 0x84 JUMPI PUSH8 0xFFFFFFFFFFFFFFFF PUSH1 0x24 CALLDATALOAD DUP2 DUP2 GT PUSH2 0x84 JUMPI PUSH2 0x6EA SWAP1 CALLDATASIZE SWAP1 PUSH1 0x4 ADD PUSH2 0x1D7 JUMP JUMPDEST SWAP1 PUSH1 0x64 CALLDATALOAD DUP2 DUP2 GT PUSH2 0x84 JUMPI PUSH2 0x703 SWAP1 CALLDATASIZE SWAP1 PUSH1 0x4 ADD PUSH2 0x132 JUMP JUMPDEST SWAP2 PUSH1 0x84 CALLDATALOAD SWAP2 DUP3 GT PUSH2 0x84 JUMPI PUSH1 0x20 SWAP3 PUSH2 0x722 PUSH2 0x1B7 SWAP4 CALLDATASIZE SWAP1 PUSH1 0x4 ADD PUSH2 0x132 JUMP JUMPDEST SWAP2 PUSH1 0x44 CALLDATALOAD SWAP1 PUSH1 0x4 CALLDATALOAD PUSH2 0x1008 JUMP JUMPDEST SWAP3 SWAP2 SWAP1 PUSH1 0x20 SWAP1 PUSH1 0x40 DUP6 MSTORE DUP1 MLOAD PUSH2 0x7EE PUSH2 0x756 PUSH2 0x160 SWAP3 DUP4 PUSH1 0x40 DUP11 ADD MSTORE PUSH2 0x1A0 DUP10 ADD SWAP1 PUSH2 0x313 JUMP JUMPDEST SWAP2 DUP5 DUP5 ADD MLOAD PUSH1 0x60 DUP10 ADD MSTORE PUSH1 0x40 DUP5 ADD MLOAD PUSH1 0x80 DUP10 ADD MSTORE PUSH1 0x60 DUP5 ADD MLOAD PUSH1 0xA0 DUP10 ADD MSTORE PUSH2 0x790 PUSH1 0x80 DUP6 ADD MLOAD SWAP4 PUSH1 0x3F NOT SWAP5 DUP6 DUP12 DUP4 SUB ADD PUSH1 0xC0 DUP13 ADD MSTORE PUSH2 0x313 JUMP JUMPDEST SWAP3 PUSH1 0xA0 DUP6 ADD MLOAD PUSH1 0xE0 DUP11 ADD MSTORE PUSH2 0x7B6 PUSH1 0xC0 DUP7 ADD MLOAD SWAP5 PUSH2 0x100 SWAP6 DUP4 DUP13 DUP4 SUB ADD DUP8 DUP14 ADD MSTORE PUSH2 0x313 JUMP JUMPDEST SWAP2 PUSH2 0x45F PUSH2 0x7D6 PUSH1 0xE0 DUP9 ADD MLOAD SWAP5 PUSH2 0x120 SWAP6 DUP14 DUP8 DUP8 DUP3 DUP6 SUB ADD SWAP2 ADD MSTORE PUSH2 0x338 JUMP JUMPDEST SWAP6 DUP8 ADD MLOAD SWAP6 PUSH2 0x140 SWAP7 DUP13 DUP9 DUP7 DUP3 DUP6 SUB ADD SWAP2 ADD MSTORE PUSH2 0x313 JUMP JUMPDEST SWAP2 ADD MLOAD PUSH2 0x180 DUP7 ADD MSTORE SWAP4 ADD MSTORE JUMP JUMPDEST PUSH2 0x813 PUSH2 0x49C PUSH2 0x80B CALLDATASIZE PUSH2 0x2C4 JUMP JUMPDEST PUSH2 0x496 PUSH2 0x10C4 JUMP JUMPDEST PUSH2 0x820 PUSH1 0xB DUP3 MLOAD EQ PUSH2 0xDFE JUMP JUMPDEST PUSH2 0x828 PUSH2 0x10C4 JUMP JUMPDEST PUSH2 0x834 PUSH2 0x4C3 DUP4 PUSH2 0xC06 JUMP JUMPDEST DUP2 MSTORE PUSH2 0x845 PUSH2 0x4DA PUSH2 0x4C3 DUP5 PUSH2 0xC18 JUMP JUMPDEST SWAP2 PUSH1 0x20 DUP3 ADD SWAP3 DUP4 MSTORE PUSH2 0x859 PUSH2 0x4F2 DUP3 PUSH2 0xC28 JUMP JUMPDEST SWAP2 PUSH1 0x40 DUP2 ADD SWAP3 DUP4 MSTORE PUSH2 0x870 PUSH2 0x4DA PUSH2 0x4C3 DUP5 PUSH2 0xC38 JUMP JUMPDEST SWAP4 PUSH1 0x60 DUP3 ADD SWAP5 DUP6 MSTORE PUSH2 0x884 PUSH2 0x4C3 DUP5 PUSH2 0xC48 JUMP JUMPDEST SWAP1 PUSH1 0x80 DUP4 ADD SWAP2 DUP3 MSTORE PUSH2 0x898 PUSH2 0x4F2 DUP6 PUSH2 0xC58 JUMP JUMPDEST SWAP5 PUSH1 0xA0 DUP5 ADD SWAP6 DUP7 MSTORE PUSH2 0x8AC PUSH2 0x4C3 DUP7 PUSH2 0xC68 JUMP JUMPDEST PUSH1 0xC0 DUP6 ADD SWAP1 DUP2 MSTORE PUSH2 0x8BF PUSH2 0x55F DUP8 PUSH2 0xC78 JUMP JUMPDEST SWAP8 PUSH2 0x8CA DUP10 MLOAD PUSH2 0xE83 JUMP JUMPDEST SWAP7 PUSH1 0xE0 DUP8 ADD SWAP8 DUP9 MSTORE PUSH0 JUMPDEST DUP11 MLOAD DUP2 LT ISZERO PUSH2 0x8F9 JUMPI DUP1 PUSH2 0x8F2 DUP2 PUSH2 0x599 PUSH2 0x4C3 DUP16 SWAP6 PUSH1 0x1 SWAP7 PUSH2 0xCCD JUMP JUMPDEST POP ADD PUSH2 0x8D4 JUMP JUMPDEST POP PUSH32 0xE5FDA43F81AC665889DC77778F276A13836EE131965D49E6CDD827EA35343F15 SWAP4 SWAP3 SWAP2 PUSH2 0x98B SWAP2 PUSH2 0x999 SWAP10 SWAP9 SWAP11 PUSH2 0x934 PUSH2 0x4C3 DUP4 PUSH2 0xC89 JUMP JUMPDEST SWAP1 PUSH2 0x100 DUP14 ADD SWAP2 DUP3 MSTORE DUP13 PUSH2 0x140 PUSH2 0x964 PUSH2 0x4DA PUSH2 0x4C3 PUSH2 0x956 PUSH2 0x4C3 DUP10 PUSH2 0xC9A JUMP JUMPDEST SWAP8 PUSH2 0x120 DUP7 ADD SWAP9 DUP10 MSTORE PUSH2 0xCAB JUMP JUMPDEST SWAP2 ADD MSTORE DUP13 MLOAD SWAP6 DUP10 MLOAD SWAP8 MLOAD SWAP5 MLOAD SWAP2 DUP12 MLOAD SWAP1 MLOAD SWAP2 MLOAD SWAP3 DUP14 MLOAD SWAP5 MLOAD SWAP6 MLOAD SWAP7 PUSH1 0x40 MLOAD SWAP11 DUP12 SWAP11 DUP12 PUSH2 0x1127 JUMP JUMPDEST SUB SWAP1 LOG1 MLOAD SWAP2 MLOAD SWAP1 MLOAD SWAP2 PUSH2 0xCE1 JUMP JUMPDEST SWAP1 PUSH32 0xF9A7EA37911815F4A89B25E48DC4EE38541A0E1128907411984B0A228788C879 PUSH1 0x40 MLOAD DUP1 PUSH2 0x9CE DUP6 DUP3 SWAP2 SWAP1 PUSH1 0x20 DUP4 ADD SWAP3 MSTORE JUMP JUMPDEST SUB SWAP1 LOG1 PUSH2 0x6B9 PUSH1 0x40 MLOAD SWAP3 DUP4 SWAP3 DUP4 PUSH2 0x72F JUMP JUMPDEST SWAP3 SWAP2 SWAP1 PUSH2 0xA1B PUSH1 0x60 PUSH1 0x20 SWAP3 PUSH1 0x40 DUP8 MSTORE DUP1 MLOAD PUSH1 0x40 DUP9 ADD MSTORE DUP4 DUP2 ADD MLOAD DUP3 DUP9 ADD MSTORE PUSH1 0x40 DUP2 ADD MLOAD PUSH1 0x80 DUP9 ADD MSTORE ADD MLOAD PUSH1 0x80 PUSH1 0xA0 DUP8 ADD MSTORE PUSH1 0xC0 DUP7 ADD SWAP1 PUSH2 0x313 JUMP JUMPDEST SWAP4 ADD MSTORE JUMP JUMPDEST PUSH2 0xA37 PUSH2 0x49C PUSH2 0xA2F CALLDATASIZE PUSH2 0x2C4 JUMP JUMPDEST PUSH2 0x496 PUSH2 0x11AE JUMP JUMPDEST PUSH2 0xA44 PUSH1 0x4 DUP3 MLOAD EQ PUSH2 0xDFE JUMP JUMPDEST PUSH2 0xA4C PUSH2 0x11AE JUMP JUMPDEST PUSH2 0xA5B PUSH2 0x4DA PUSH2 0x4C3 DUP5 PUSH2 0xC06 JUMP JUMPDEST DUP2 MSTORE PUSH2 0x6B9 PUSH2 0xB52 PUSH2 0xA6F PUSH2 0x4F2 DUP6 PUSH2 0xC18 JUMP JUMPDEST SWAP4 PUSH1 0x20 DUP5 ADD SWAP1 DUP6 DUP3 MSTORE PUSH32 0x245716014A178144670148EC993E73F5F2CBC96529AFA0B8FBE731B4A74566BC PUSH2 0xAAF PUSH1 0x40 SWAP8 DUP9 MLOAD SWAP2 DUP3 SWAP2 DUP3 SWAP2 SWAP1 PUSH1 0x20 DUP4 ADD SWAP3 MSTORE JUMP JUMPDEST SUB SWAP1 LOG1 PUSH2 0xAC1 PUSH2 0x4DA PUSH2 0x4C3 DUP4 PUSH2 0xC28 JUMP JUMPDEST DUP7 DUP7 ADD DUP2 DUP2 MSTORE DUP8 MLOAD SWAP2 DUP3 MSTORE SWAP1 PUSH32 0xB7CFA42C424E0E7E35FF08E6EA1CF2789FEC94621F570D48F844B82582A4B8EC SWAP1 PUSH1 0x20 SWAP1 LOG1 PUSH32 0xA690C9F86196602D7FD3DD6934F38B29EE9BD564D1A89BB5D3372AE964F0D537 PUSH2 0xB20 PUSH2 0x4C3 DUP5 PUSH2 0xC38 JUMP JUMPDEST PUSH1 0x60 DUP9 ADD SWAP4 DUP2 DUP6 MSTORE PUSH2 0xB41 DUP10 MLOAD SWAP2 DUP8 MLOAD SWAP4 DUP7 MLOAD SWAP2 MLOAD SWAP2 DUP14 MLOAD SWAP6 DUP7 SWAP6 DUP7 PUSH2 0x11E3 JUMP JUMPDEST SUB SWAP1 LOG1 DUP6 MLOAD SWAP3 MLOAD SWAP1 MLOAD SWAP2 MLOAD SWAP3 PUSH2 0xBAA JUMP JUMPDEST SWAP3 PUSH32 0xF9A7EA37911815F4A89B25E48DC4EE38541A0E1128907411984B0A228788C879 DUP2 MLOAD DUP1 PUSH2 0xB86 DUP8 DUP3 SWAP2 SWAP1 PUSH1 0x20 DUP4 ADD SWAP3 MSTORE JUMP JUMPDEST SUB SWAP1 LOG1 MLOAD SWAP3 DUP4 SWAP3 DUP4 PUSH2 0x9E0 JUMP JUMPDEST SWAP1 PUSH2 0xBA6 PUSH1 0x20 SWAP3 DUP3 DUP2 MLOAD SWAP5 DUP6 SWAP3 ADD PUSH2 0x2F2 JUMP JUMPDEST ADD SWAP1 JUMP JUMPDEST SWAP3 PUSH2 0xBEC SWAP2 PUSH1 0x80 SWAP2 PUSH1 0x40 MLOAD SWAP5 DUP6 SWAP3 PUSH1 0x20 DUP5 ADD SWAP8 DUP9 MSTORE PUSH1 0x40 DUP5 ADD MSTORE PUSH1 0x60 DUP4 ADD MSTORE PUSH2 0xBDC DUP2 MLOAD DUP1 SWAP3 PUSH1 0x20 DUP7 DUP7 ADD SWAP2 ADD PUSH2 0x2F2 JUMP JUMPDEST DUP2 ADD SUB PUSH1 0x60 DUP2 ADD DUP5 MSTORE ADD DUP3 PUSH2 0xE5 JUMP JUMPDEST MLOAD SWAP1 KECCAK256 SWAP1 JUMP JUMPDEST PUSH4 0x4E487B71 PUSH1 0xE0 SHL PUSH0 MSTORE PUSH1 0x32 PUSH1 0x4 MSTORE PUSH1 0x24 PUSH0 REVERT JUMPDEST DUP1 MLOAD ISZERO PUSH2 0xC13 JUMPI PUSH1 0x20 ADD SWAP1 JUMP JUMPDEST PUSH2 0xBF2 JUMP JUMPDEST DUP1 MLOAD PUSH1 0x1 LT ISZERO PUSH2 0xC13 JUMPI PUSH1 0x40 ADD SWAP1 JUMP JUMPDEST DUP1 MLOAD PUSH1 0x2 LT ISZERO PUSH2 0xC13 JUMPI PUSH1 0x60 ADD SWAP1 JUMP JUMPDEST DUP1 MLOAD PUSH1 0x3 LT ISZERO PUSH2 0xC13 JUMPI PUSH1 0x80 ADD SWAP1 JUMP JUMPDEST DUP1 MLOAD PUSH1 0x4 LT ISZERO PUSH2 0xC13 JUMPI PUSH1 0xA0 ADD SWAP1 JUMP JUMPDEST DUP1 MLOAD PUSH1 0x5 LT ISZERO PUSH2 0xC13 JUMPI PUSH1 0xC0 ADD SWAP1 JUMP JUMPDEST DUP1 MLOAD PUSH1 0x6 LT ISZERO PUSH2 0xC13 JUMPI PUSH1 0xE0 ADD SWAP1 JUMP JUMPDEST DUP1 MLOAD PUSH1 0x7 LT ISZERO PUSH2 0xC13 JUMPI PUSH2 0x100 ADD SWAP1 JUMP JUMPDEST DUP1 MLOAD PUSH1 0x8 LT ISZERO PUSH2 0xC13 JUMPI PUSH2 0x120 ADD SWAP1 JUMP JUMPDEST DUP1 MLOAD PUSH1 0x9 LT ISZERO PUSH2 0xC13 JUMPI PUSH2 0x140 ADD SWAP1 JUMP JUMPDEST DUP1 MLOAD PUSH1 0xA LT ISZERO PUSH2 0xC13 JUMPI PUSH2 0x160 ADD SWAP1 JUMP JUMPDEST DUP1 MLOAD PUSH1 0xB LT ISZERO PUSH2 0xC13 JUMPI PUSH2 0x180 ADD SWAP1 JUMP JUMPDEST DUP1 MLOAD DUP3 LT ISZERO PUSH2 0xC13 JUMPI PUSH1 0x20 SWAP2 PUSH1 0x5 SHL ADD ADD SWAP1 JUMP JUMPDEST SWAP1 SWAP3 PUSH0 SWAP2 PUSH1 0x60 JUMPDEST DUP6 MLOAD DUP5 LT ISZERO PUSH2 0xD45 JUMPI PUSH1 0x1 SWAP1 PUSH2 0xD3D PUSH2 0xD01 DUP7 DUP10 PUSH2 0xCCD JUMP JUMPDEST MLOAD SWAP2 PUSH1 0x40 MLOAD DUP1 SWAP4 PUSH1 0x20 SWAP3 PUSH2 0xD1D DUP2 MLOAD DUP1 SWAP3 DUP7 DUP1 DUP8 ADD SWAP2 ADD PUSH2 0x2F2 JUMP JUMPDEST DUP3 ADD PUSH2 0xD31 DUP3 MLOAD DUP1 SWAP4 DUP7 DUP1 DUP6 ADD SWAP2 ADD PUSH2 0x2F2 JUMP JUMPDEST ADD SUB DUP1 DUP5 MSTORE ADD DUP3 PUSH2 0xE5 JUMP JUMPDEST SWAP4 ADD SWAP3 PUSH2 0xCE8 JUMP JUMPDEST SWAP3 POP SWAP3 PUSH2 0xBEC SWAP2 SWAP5 POP PUSH1 0x40 SWAP1 DUP2 MLOAD SWAP4 DUP5 SWAP2 PUSH1 0x20 DUP4 ADD SWAP7 DUP8 MSTORE PUSH2 0xD70 DUP2 MLOAD DUP1 SWAP3 PUSH1 0x20 DUP8 DUP8 ADD SWAP2 ADD PUSH2 0x2F2 JUMP JUMPDEST DUP3 ADD PUSH2 0xD85 DUP3 MLOAD DUP1 SWAP4 PUSH1 0x20 DUP8 DUP6 ADD SWAP2 ADD PUSH2 0x2F2 JUMP JUMPDEST ADD SUB PUSH1 0x20 DUP2 ADD DUP5 MSTORE ADD DUP3 PUSH2 0xE5 JUMP JUMPDEST PUSH1 0x40 MLOAD SWAP1 PUSH2 0x180 DUP3 ADD DUP3 DUP2 LT PUSH8 0xFFFFFFFFFFFFFFFF DUP3 GT OR PUSH2 0xE0 JUMPI PUSH1 0x40 MSTORE PUSH0 PUSH2 0x160 DUP4 PUSH1 0x60 DUP1 DUP3 MSTORE DUP4 PUSH1 0x20 DUP4 ADD MSTORE DUP4 PUSH1 0x40 DUP4 ADD MSTORE DUP4 DUP2 DUP4 ADD MSTORE DUP1 PUSH1 0x80 DUP4 ADD MSTORE DUP4 PUSH1 0xA0 DUP4 ADD MSTORE DUP1 PUSH1 0xC0 DUP4 ADD MSTORE DUP1 PUSH1 0xE0 DUP4 ADD MSTORE DUP4 PUSH2 0x100 DUP4 ADD MSTORE DUP1 PUSH2 0x120 DUP4 ADD MSTORE PUSH2 0x140 DUP3 ADD MSTORE ADD MSTORE JUMP JUMPDEST ISZERO PUSH2 0xE05 JUMPI JUMP JUMPDEST PUSH1 0x40 MLOAD PUSH3 0x461BCD PUSH1 0xE5 SHL DUP2 MSTORE PUSH1 0x20 PUSH1 0x4 DUP3 ADD MSTORE PUSH1 0x2E PUSH1 0x24 DUP3 ADD MSTORE PUSH32 0x496E636F7272656374206E756D626572206F66206669656C647320696E20524C PUSH1 0x44 DUP3 ADD MSTORE PUSH14 0x5020656E636F6465642064617461 PUSH1 0x90 SHL PUSH1 0x64 DUP3 ADD MSTORE PUSH1 0x84 SWAP1 REVERT JUMPDEST PUSH1 0x20 DUP2 MLOAD SWAP2 ADD MLOAD SWAP1 PUSH1 0x20 DUP2 LT PUSH2 0xE75 JUMPI POP SWAP1 JUMP JUMPDEST PUSH0 NOT SWAP1 PUSH1 0x20 SUB PUSH1 0x3 SHL SHL AND SWAP1 JUMP JUMPDEST SWAP1 PUSH2 0xE8D DUP3 PUSH2 0x1BF JUMP JUMPDEST PUSH2 0xE9A PUSH1 0x40 MLOAD SWAP2 DUP3 PUSH2 0xE5 JUMP JUMPDEST DUP3 DUP2 MSTORE DUP1 SWAP3 PUSH2 0xEAB PUSH1 0x1F NOT SWAP2 PUSH2 0x1BF JUMP JUMPDEST ADD SWAP1 PUSH0 JUMPDEST DUP3 DUP2 LT PUSH2 0xEBB JUMPI POP POP POP JUMP JUMPDEST DUP1 PUSH1 0x60 PUSH1 0x20 DUP1 SWAP4 DUP6 ADD ADD MSTORE ADD PUSH2 0xEAF JUMP JUMPDEST SWAP1 DUP1 DUP3 MLOAD SWAP1 DUP2 DUP2 MSTORE PUSH1 0x20 DUP1 SWAP2 ADD SWAP3 PUSH1 0x20 DUP1 DUP5 PUSH1 0x5 SHL DUP4 ADD ADD SWAP6 ADD SWAP4 PUSH0 SWAP2 JUMPDEST DUP5 DUP4 LT PUSH2 0xEFA JUMPI POP POP POP POP POP POP SWAP1 JUMP JUMPDEST SWAP1 SWAP2 SWAP3 SWAP4 SWAP5 SWAP6 DUP5 DUP1 PUSH2 0xF18 PUSH1 0x1 SWAP4 PUSH1 0x1F NOT DUP7 DUP3 SUB ADD DUP8 MSTORE DUP11 MLOAD PUSH2 0x313 JUMP JUMPDEST SWAP9 ADD SWAP4 ADD SWAP4 ADD SWAP2 SWAP5 SWAP4 SWAP3 SWAP1 PUSH2 0xEEA JUMP JUMPDEST SWAP10 SWAP6 SWAP2 PUSH2 0xF74 SWAP1 PUSH2 0xF95 SWAP7 PUSH2 0xFAA SWAP11 SWAP7 PUSH1 0x60 PUSH2 0x2EF SWAP16 SWAP14 SWAP12 SWAP6 DUP16 SWAP1 SWAP9 PUSH2 0xF59 PUSH2 0xF87 SWAP11 PUSH2 0x160 DUP1 DUP6 MSTORE DUP5 ADD SWAP1 PUSH2 0x313 JUMP JUMPDEST SWAP6 PUSH1 0x20 DUP4 ADD MSTORE PUSH1 0x40 DUP3 ADD MSTORE ADD MSTORE DUP13 PUSH1 0x80 DUP2 DUP5 SUB SWAP2 ADD MSTORE PUSH2 0x313 JUMP JUMPDEST SWAP2 PUSH1 0xA0 DUP12 ADD MSTORE DUP10 DUP3 SUB PUSH1 0xC0 DUP12 ADD MSTORE PUSH2 0x313 JUMP JUMPDEST SWAP1 DUP8 DUP3 SUB PUSH1 0xE0 DUP10 ADD MSTORE PUSH2 0xECC JUMP JUMPDEST SWAP2 PUSH2 0x100 DUP7 ADD MSTORE DUP5 DUP3 SUB PUSH2 0x120 DUP7 ADD MSTORE PUSH2 0x313 JUMP JUMPDEST SWAP2 PUSH2 0x140 DUP2 DUP5 SUB SWAP2 ADD MSTORE PUSH2 0x313 JUMP JUMPDEST SWAP1 SWAP3 PUSH2 0x1003 SWAP3 PUSH1 0x40 SWAP7 SWAP6 SWAP5 DUP4 MSTORE PUSH1 0x20 SWAP3 PUSH2 0xFDB DUP3 MLOAD DUP1 SWAP4 DUP7 DUP1 DUP6 ADD SWAP2 ADD PUSH2 0x2F2 JUMP JUMPDEST ADD PUSH2 0xFEE DUP3 MLOAD DUP1 SWAP4 DUP6 DUP1 DUP6 ADD SWAP2 ADD PUSH2 0x2F2 JUMP JUMPDEST ADD SWAP3 DUP2 DUP5 ADD MSTORE DUP4 MLOAD SWAP4 DUP5 SWAP2 DUP7 DUP6 ADD SWAP2 ADD PUSH2 0x2F2 JUMP JUMPDEST ADD ADD SWAP1 JUMP JUMPDEST SWAP2 SWAP4 SWAP3 SWAP5 PUSH1 0x40 SWAP3 PUSH1 0x40 MLOAD SWAP5 PUSH32 0x5DCADCECA961B7159CEC0E118986188B438287559ED58B29A762182B22A52CAD PUSH1 0x20 SWAP7 DUP8 DUP2 MSTORE DUP1 PUSH2 0x1047 DUP10 DUP3 ADD DUP6 PUSH2 0x313 JUMP JUMPDEST SUB SWAP1 LOG1 PUSH0 SWAP8 PUSH1 0x60 JUMPDEST DUP6 MLOAD DUP11 LT ISZERO PUSH2 0x10A3 JUMPI DUP8 PUSH2 0x109B PUSH1 0x1 SWAP3 PUSH2 0x108D PUSH2 0x106C DUP15 DUP12 PUSH2 0xCCD JUMP JUMPDEST MLOAD DUP12 MLOAD SWAP5 DUP4 PUSH2 0x1084 DUP8 SWAP6 MLOAD DUP1 SWAP3 DUP5 DUP1 DUP10 ADD SWAP2 ADD PUSH2 0x2F2 JUMP JUMPDEST DUP5 ADD ADD SWAP1 PUSH2 0xB93 JUMP JUMPDEST SUB PUSH1 0x1F NOT DUP2 ADD DUP4 MSTORE DUP3 PUSH2 0xE5 JUMP JUMPDEST SWAP10 ADD SWAP9 PUSH2 0x104F JUMP JUMPDEST SWAP1 SWAP3 SWAP8 SWAP2 SWAP7 SWAP5 POP PUSH2 0x108D SWAP4 SWAP9 POP PUSH2 0xBEC SWAP6 POP PUSH1 0x40 MLOAD SWAP7 DUP8 SWAP6 DUP7 ADD SWAP9 DUP10 PUSH2 0xFB9 JUMP JUMPDEST PUSH1 0x40 MLOAD SWAP1 PUSH2 0x160 DUP3 ADD DUP3 DUP2 LT PUSH8 0xFFFFFFFFFFFFFFFF DUP3 GT OR PUSH2 0xE0 JUMPI PUSH1 0x40 MSTORE PUSH0 PUSH2 0x140 DUP4 PUSH1 0x60 DUP1 DUP3 MSTORE DUP4 PUSH1 0x20 DUP4 ADD MSTORE DUP4 PUSH1 0x40 DUP4 ADD MSTORE DUP4 DUP2 DUP4 ADD MSTORE DUP1 PUSH1 0x80 DUP4 ADD MSTORE DUP4 PUSH1 0xA0 DUP4 ADD MSTORE DUP1 PUSH1 0xC0 DUP4 ADD MSTORE DUP1 PUSH1 0xE0 DUP4 ADD MSTORE DUP1 PUSH2 0x100 DUP4 ADD MSTORE PUSH2 0x120 DUP3 ADD MSTORE ADD MSTORE JUMP JUMPDEST SWAP9 SWAP6 SWAP2 PUSH2 0x116F SWAP1 PUSH2 0x1190 SWAP7 PUSH2 0x2EF SWAP13 SWAP11 SWAP7 PUSH2 0x1182 SWAP7 PUSH1 0x40 DUP15 PUSH2 0x1155 PUSH2 0x119F SWAP15 SWAP9 PUSH2 0x140 DUP1 DUP5 MSTORE DUP4 ADD SWAP1 PUSH2 0x313 JUMP JUMPDEST SWAP6 PUSH1 0x20 DUP3 ADD MSTORE ADD MSTORE PUSH1 0x60 DUP14 ADD MSTORE DUP12 DUP3 SUB PUSH1 0x80 DUP14 ADD MSTORE PUSH2 0x313 JUMP JUMPDEST SWAP2 PUSH1 0xA0 DUP11 ADD MSTORE DUP9 DUP3 SUB PUSH1 0xC0 DUP11 ADD MSTORE PUSH2 0x313 JUMP JUMPDEST SWAP1 DUP7 DUP3 SUB PUSH1 0xE0 DUP9 ADD MSTORE PUSH2 0xECC JUMP JUMPDEST SWAP1 DUP5 DUP3 SUB PUSH2 0x100 DUP7 ADD MSTORE PUSH2 0x313 JUMP JUMPDEST SWAP2 PUSH2 0x120 DUP2 DUP5 SUB SWAP2 ADD MSTORE PUSH2 0x313 JUMP JUMPDEST PUSH1 0x40 MLOAD SWAP1 PUSH1 0x80 DUP3 ADD DUP3 DUP2 LT PUSH8 0xFFFFFFFFFFFFFFFF DUP3 GT OR PUSH2 0xE0 JUMPI PUSH1 0x40 MSTORE PUSH1 0x60 DUP1 DUP4 PUSH0 DUP2 MSTORE PUSH0 PUSH1 0x20 DUP3 ADD MSTORE PUSH0 PUSH1 0x40 DUP3 ADD MSTORE ADD MSTORE JUMP JUMPDEST SWAP6 SWAP5 SWAP4 SWAP1 SWAP3 PUSH2 0xA1B SWAP3 PUSH1 0x80 SWAP5 DUP9 MSTORE PUSH1 0x20 DUP9 ADD MSTORE PUSH1 0x40 DUP8 ADD MSTORE PUSH1 0xA0 PUSH1 0x60 DUP8 ADD MSTORE PUSH1 0xA0 DUP7 ADD SWAP1 PUSH2 0x313 JUMP JUMPDEST PUSH1 0x40 MLOAD SWAP1 PUSH2 0x1219 DUP3 PUSH2 0xC4 JUMP JUMPDEST PUSH0 PUSH1 0x20 DUP4 DUP3 DUP2 MSTORE ADD MSTORE JUMP JUMPDEST PUSH2 0x122C PUSH2 0x120C JUMP JUMPDEST POP PUSH1 0x20 DUP2 MLOAD SWAP2 PUSH1 0x40 MLOAD SWAP3 PUSH2 0x123F DUP5 PUSH2 0xC4 JUMP JUMPDEST DUP4 MSTORE ADD PUSH1 0x20 DUP3 ADD MSTORE SWAP1 JUMP JUMPDEST PUSH4 0x4E487B71 PUSH1 0xE0 SHL PUSH0 MSTORE PUSH1 0x11 PUSH1 0x4 MSTORE PUSH1 0x24 PUSH0 REVERT JUMPDEST SWAP1 PUSH1 0x1 DUP3 ADD DUP1 SWAP3 GT PUSH2 0x126C JUMPI JUMP JUMPDEST PUSH2 0x124A JUMP JUMPDEST SWAP2 SWAP1 DUP3 ADD DUP1 SWAP3 GT PUSH2 0x126C JUMPI JUMP JUMPDEST PUSH2 0x1287 DUP2 PUSH2 0x13D9 JUMP JUMPDEST ISZERO PUSH2 0x84 JUMPI PUSH2 0x1295 DUP2 PUSH2 0x13FD JUMP JUMPDEST PUSH2 0x129E DUP2 PUSH2 0x1BF JUMP JUMPDEST SWAP2 PUSH2 0x12AC PUSH1 0x40 MLOAD SWAP4 DUP5 PUSH2 0xE5 JUMP JUMPDEST DUP2 DUP4 MSTORE PUSH1 0x1F NOT PUSH2 0x12BB DUP4 PUSH2 0x1BF JUMP JUMPDEST ADD PUSH0 JUMPDEST DUP2 DUP2 LT PUSH2 0x1333 JUMPI POP POP PUSH2 0x12DF PUSH1 0x20 DUP1 SWAP3 ADD MLOAD PUSH2 0x12D9 DUP2 PUSH2 0x14B8 JUMP JUMPDEST SWAP1 PUSH2 0x1271 JUMP JUMPDEST PUSH0 SWAP1 JUMPDEST DUP4 DUP3 LT PUSH2 0x12F0 JUMPI POP POP POP POP SWAP1 JUMP JUMPDEST PUSH2 0x132B DUP2 PUSH2 0x12FF PUSH1 0x1 SWAP4 PUSH2 0x151B JUMP JUMPDEST SWAP1 PUSH2 0x1308 PUSH2 0x107 JUMP JUMPDEST DUP3 DUP2 MSTORE DUP2 DUP8 DUP3 ADD MSTORE PUSH2 0x131A DUP7 DUP11 PUSH2 0xCCD JUMP JUMPDEST MSTORE PUSH2 0x1325 DUP6 DUP10 PUSH2 0xCCD JUMP JUMPDEST POP PUSH2 0x1271 JUMP JUMPDEST SWAP2 ADD SWAP1 PUSH2 0x12E2 JUMP JUMPDEST PUSH1 0x20 SWAP1 PUSH2 0x133E PUSH2 0x120C JUMP JUMPDEST DUP3 DUP3 DUP9 ADD ADD MSTORE ADD PUSH2 0x12BE JUMP JUMPDEST DUP1 MLOAD ISZERO PUSH2 0x84 JUMPI PUSH2 0x135D PUSH2 0x2EF SWAP2 PUSH2 0x159B JUMP JUMPDEST PUSH2 0x1369 DUP2 SWAP4 SWAP3 SWAP4 PUSH2 0x116 JUMP JUMPDEST SWAP3 PUSH2 0x1377 PUSH1 0x40 MLOAD SWAP5 DUP6 PUSH2 0xE5 JUMP JUMPDEST DUP2 DUP5 MSTORE PUSH1 0x1F NOT PUSH2 0x1386 DUP4 PUSH2 0x116 JUMP JUMPDEST ADD CALLDATASIZE PUSH1 0x20 DUP7 ADD CALLDATACOPY DUP4 PUSH1 0x20 ADD SWAP1 PUSH2 0x15D6 JUMP JUMPDEST DUP1 MLOAD DUP1 ISZERO ISZERO SWAP1 DUP2 PUSH2 0x13CD JUMPI JUMPDEST POP ISZERO PUSH2 0x84 JUMPI PUSH2 0x13B2 SWAP1 PUSH2 0x159B JUMP JUMPDEST SWAP1 MLOAD SWAP1 PUSH1 0x20 DUP2 LT PUSH2 0x13C1 JUMPI POP SWAP1 JUMP JUMPDEST PUSH1 0x20 SUB PUSH2 0x100 EXP SWAP1 DIV SWAP1 JUMP JUMPDEST PUSH1 0x21 SWAP2 POP GT ISZERO PUSH0 PUSH2 0x13A3 JUMP JUMPDEST DUP1 MLOAD ISZERO PUSH2 0x13F8 JUMPI PUSH1 0x20 PUSH1 0xC0 SWAP2 ADD MLOAD MLOAD PUSH0 BYTE LT PUSH2 0x13F4 JUMPI PUSH1 0x1 SWAP1 JUMP JUMPDEST PUSH0 SWAP1 JUMP JUMPDEST POP PUSH0 SWAP1 JUMP JUMPDEST DUP1 MLOAD ISZERO PUSH2 0x13F8 JUMPI PUSH0 SWAP1 PUSH1 0x20 DUP2 ADD SWAP1 DUP2 MLOAD PUSH2 0x1416 DUP2 PUSH2 0x14B8 JUMP JUMPDEST DUP2 ADD DUP1 SWAP2 GT PUSH2 0x126C JUMPI SWAP2 MLOAD SWAP1 MLOAD DUP2 ADD DUP1 SWAP2 GT PUSH2 0x126C JUMPI SWAP2 SWAP1 JUMPDEST DUP3 DUP2 LT PUSH2 0x143C JUMPI POP SWAP1 POP SWAP1 JUMP JUMPDEST PUSH2 0x1445 DUP2 PUSH2 0x151B JUMP JUMPDEST DUP2 ADD DUP1 SWAP2 GT PUSH2 0x126C JUMPI SWAP1 PUSH0 NOT DUP2 EQ PUSH2 0x126C JUMPI PUSH1 0x1 ADD SWAP1 PUSH2 0x142F JUMP JUMPDEST PUSH1 0xBF NOT DUP2 ADD SWAP2 SWAP1 DUP3 GT PUSH2 0x126C JUMPI JUMP JUMPDEST PUSH1 0x7F NOT DUP2 ADD SWAP2 SWAP1 DUP3 GT PUSH2 0x126C JUMPI JUMP JUMPDEST PUSH1 0x20 SUB SWAP1 PUSH1 0x20 DUP3 GT PUSH2 0x126C JUMPI JUMP JUMPDEST PUSH0 NOT DUP2 ADD SWAP2 SWAP1 DUP3 GT PUSH2 0x126C JUMPI JUMP JUMPDEST PUSH1 0xF6 NOT DUP2 ADD SWAP2 SWAP1 DUP3 GT PUSH2 0x126C JUMPI JUMP JUMPDEST PUSH1 0xB6 NOT DUP2 ADD SWAP2 SWAP1 DUP3 GT PUSH2 0x126C JUMPI JUMP JUMPDEST MLOAD PUSH0 BYTE PUSH1 0x80 DUP2 LT ISZERO PUSH2 0x14C9 JUMPI POP PUSH0 SWAP1 JUMP JUMPDEST PUSH1 0xB8 DUP2 LT DUP1 ISZERO PUSH2 0x1505 JUMPI JUMPDEST ISZERO PUSH2 0x14DF JUMPI POP PUSH1 0x1 SWAP1 JUMP JUMPDEST PUSH1 0xC0 DUP2 LT ISZERO PUSH2 0x14F9 JUMPI PUSH2 0x14F4 PUSH2 0x2EF SWAP2 PUSH2 0x14A9 JUMP JUMPDEST PUSH2 0x125E JUMP JUMPDEST PUSH2 0x14F4 PUSH2 0x2EF SWAP2 PUSH2 0x149A JUMP JUMPDEST POP PUSH1 0xC0 DUP2 LT ISZERO DUP1 ISZERO PUSH2 0x14D4 JUMPI POP PUSH1 0xF8 DUP2 LT PUSH2 0x14D4 JUMP JUMPDEST DUP1 MLOAD PUSH0 BYTE SWAP1 PUSH1 0x80 DUP3 LT ISZERO PUSH2 0x1530 JUMPI POP POP PUSH1 0x1 SWAP1 JUMP JUMPDEST PUSH1 0xB8 DUP3 LT ISZERO PUSH2 0x1546 JUMPI POP PUSH2 0x14F4 PUSH2 0x2EF SWAP2 PUSH2 0x146F JUMP JUMPDEST SWAP1 PUSH1 0xC0 DUP2 LT ISZERO PUSH2 0x156A JUMPI PUSH1 0xB5 NOT SWAP2 PUSH1 0x1 PUSH1 0xB7 DUP4 PUSH1 0x20 SUB ADD PUSH2 0x100 EXP SWAP2 ADD MLOAD DIV ADD ADD SWAP1 JUMP JUMPDEST SWAP1 PUSH1 0xF8 DUP3 LT ISZERO PUSH2 0x1581 JUMPI POP PUSH2 0x14F4 PUSH2 0x2EF SWAP2 PUSH2 0x1460 JUMP JUMPDEST PUSH1 0x1 ADD MLOAD PUSH1 0x20 DUP3 SWAP1 SUB PUSH1 0xF7 ADD PUSH2 0x100 EXP SWAP1 DIV ADD PUSH1 0xF5 NOT ADD SWAP1 JUMP JUMPDEST SWAP1 PUSH1 0x20 DUP3 ADD SWAP2 PUSH2 0x15AB DUP4 MLOAD PUSH2 0x14B8 JUMP JUMPDEST SWAP3 MLOAD SWAP1 DUP4 DUP3 ADD DUP1 SWAP3 GT PUSH2 0x126C JUMPI MLOAD SWAP3 DUP4 SUB SWAP3 DUP4 GT PUSH2 0x126C JUMPI SWAP2 SWAP1 JUMP JUMPDEST PUSH1 0x1F DUP2 GT PUSH2 0x126C JUMPI PUSH2 0x100 EXP SWAP1 JUMP JUMPDEST SWAP3 SWAP1 SWAP2 SWAP3 DUP4 ISZERO PUSH2 0x164D JUMPI SWAP3 SWAP2 JUMPDEST PUSH1 0x20 SWAP4 DUP5 DUP5 LT PUSH2 0x1618 JUMPI DUP1 MLOAD DUP3 MSTORE DUP5 DUP2 ADD DUP1 SWAP2 GT PUSH2 0x126C JUMPI SWAP4 DUP2 ADD DUP1 SWAP2 GT PUSH2 0x126C JUMPI SWAP2 PUSH1 0x1F NOT DUP2 ADD SWAP1 DUP2 GT PUSH2 0x126C JUMPI SWAP2 PUSH2 0x15E3 JUMP JUMPDEST SWAP2 SWAP4 POP SWAP2 DUP1 PUSH2 0x1626 JUMPI POP POP POP JUMP JUMPDEST PUSH2 0x163A PUSH2 0x1635 PUSH2 0x163F SWAP3 PUSH2 0x147E JUMP JUMPDEST PUSH2 0x15C7 JUMP JUMPDEST PUSH2 0x148C JUMP JUMPDEST SWAP1 MLOAD DUP3 MLOAD DUP3 AND SWAP2 NOT AND OR SWAP1 MSTORE JUMP JUMPDEST POP SWAP2 POP POP JUMP INVALID LOG2 PUSH5 0x6970667358 0x22 SLT KECCAK256 SWAP1 BLOBBASEFEE PUSH20 0x1AAF0BCC0CDE52D1981BC8E194279040FFF3366A SWAP4 0xCB 0xC0 OR BALANCE SWAP10 0xCA 0xE2 SWAP11 PUSH5 0x736F6C6343 STOP ADDMOD XOR STOP CALLER "
		},
		"gasEstimates": {
			"creation": {
				"codeDepositCost": "1153800",
				"executionCost": "infinite",
				"totalCost": "infinite"
			},
			"external": {
				"decodeRequest(bytes)": "infinite",
				"decodeResponse(bytes)": "infinite",
				"decodeResponseSP(bytes)": "infinite",
				"getMessageHash(bytes32,bytes[],bytes32,bytes,bytes)": "infinite",
				"getMessageHashSP(bytes32,bytes[],bytes,bytes,uint256)": "infinite",
				"getReqMessageHash(bytes32,uint256,bytes32,bytes)": "infinite"
			}
		},
		"methodIdentifiers": {
			"decodeRequest(bytes)": "fe0103f7",
			"decodeResponse(bytes)": "88ede4a2",
			"decodeResponseSP(bytes)": "e09bc827",
			"getMessageHash(bytes32,bytes[],bytes32,bytes,bytes)": "c7d60a06",
			"getMessageHashSP(bytes32,bytes[],bytes,bytes,uint256)": "2c66f61a",
			"getReqMessageHash(bytes32,uint256,bytes32,bytes)": "15515246"
		}
	},
	"abi": [
		{
			"anonymous": false,
			"inputs": [
				{
					"indexed": false,
					"internalType": "bytes32",
					"name": "channelId",
					"type": "bytes32"
				},
				{
					"indexed": false,
					"internalType": "uint256",
					"name": "Amount",
					"type": "uint256"
				},
				{
					"indexed": false,
					"internalType": "bytes32",
					"name": "LocalBlockHash",
					"type": "bytes32"
				},
				{
					"indexed": false,
					"internalType": "bytes",
					"name": "ReqBytes",
					"type": "bytes"
				},
				{
					"indexed": false,
					"internalType": "uint256",
					"name": "length",
					"type": "uint256"
				}
			],
			"name": "DecodeRequest",
			"type": "event"
		},
		{
			"anonymous": false,
			"inputs": [
				{
					"indexed": false,
					"internalType": "string",
					"name": "Type",
					"type": "string"
				},
				{
					"indexed": false,
					"internalType": "bytes32",
					"name": "ChannelId",
					"type": "bytes32"
				},
				{
					"indexed": false,
					"internalType": "uint256",
					"name": "Amount",
					"type": "uint256"
				},
				{
					"indexed": false,
					"internalType": "bytes32",
					"name": "ReqBodyHash",
					"type": "bytes32"
				},
				{
					"indexed": false,
					"internalType": "bytes",
					"name": "SignedReqBody",
					"type": "bytes"
				},
				{
					"indexed": false,
					"internalType": "uint256",
					"name": "CurrentBlockHeight",
					"type": "uint256"
				},
				{
					"indexed": false,
					"internalType": "bytes",
					"name": "ReturnValue",
					"type": "bytes"
				},
				{
					"indexed": false,
					"internalType": "bytes[]",
					"name": "Proof",
					"type": "bytes[]"
				},
				{
					"indexed": false,
					"internalType": "bytes32",
					"name": "TxHash",
					"type": "bytes32"
				},
				{
					"indexed": false,
					"internalType": "bytes",
					"name": "TxIdx",
					"type": "bytes"
				},
				{
					"indexed": false,
					"internalType": "bytes",
					"name": "Signature",
					"type": "bytes"
				}
			],
			"name": "DecodedResponse",
			"type": "event"
		},
		{
			"anonymous": false,
			"inputs": [
				{
					"indexed": false,
					"internalType": "string",
					"name": "Type",
					"type": "string"
				},
				{
					"indexed": false,
					"internalType": "bytes32",
					"name": "ChannelId",
					"type": "bytes32"
				},
				{
					"indexed": false,
					"internalType": "uint256",
					"name": "Amount",
					"type": "uint256"
				},
				{
					"indexed": false,
					"internalType": "bytes32",
					"name": "ReqBodyHash",
					"type": "bytes32"
				},
				{
					"indexed": false,
					"internalType": "bytes",
					"name": "SignedReqBody",
					"type": "bytes"
				},
				{
					"indexed": false,
					"internalType": "uint256",
					"name": "CurrentBlockHeight",
					"type": "uint256"
				},
				{
					"indexed": false,
					"internalType": "bytes",
					"name": "ReturnValue",
					"type": "bytes"
				},
				{
					"indexed": false,
					"internalType": "bytes[]",
					"name": "Proof",
					"type": "bytes[]"
				},
				{
					"indexed": false,
					"internalType": "bytes",
					"name": "Address",
					"type": "bytes"
				},
				{
					"indexed": false,
					"internalType": "bytes",
					"name": "Signature",
					"type": "bytes"
				}
			],
			"name": "DecodedResponseSP",
			"type": "event"
		},
		{
			"anonymous": false,
			"inputs": [
				{
					"indexed": false,
					"internalType": "uint256",
					"name": "amount",
					"type": "uint256"
				}
			],
			"name": "emitAmount",
			"type": "event"
		},
		{
			"anonymous": false,
			"inputs": [
				{
					"indexed": false,
					"internalType": "bytes32",
					"name": "LocalBlockHash",
					"type": "bytes32"
				}
			],
			"name": "emitLocalBlockHash",
			"type": "event"
		},
		{
			"anonymous": false,
			"inputs": [
				{
					"indexed": false,
					"internalType": "bytes32",
					"name": "msgHash",
					"type": "bytes32"
				}
			],
			"name": "msgHash",
			"type": "event"
		},
		{
			"anonymous": false,
			"inputs": [
				{
					"indexed": false,
					"internalType": "bytes",
					"name": "SignedReqBody",
					"type": "bytes"
				}
			],
			"name": "reqByte",
			"type": "event"
		},
		{
			"inputs": [
				{
					"internalType": "bytes32",
					"name": "ChannelId",
					"type": "bytes32"
				},
				{
					"internalType": "bytes[]",
					"name": "proof",
					"type": "bytes[]"
				},
				{
					"internalType": "bytes",
					"name": "SignedReqBody",
					"type": "bytes"
				},
				{
					"internalType": "bytes",
					"name": "Address",
					"type": "bytes"
				},
				{
					"internalType": "uint256",
					"name": "blockNr",
					"type": "uint256"
				}
			],
			"name": "getMessageHashSP",
			"outputs": [
				{
					"internalType": "bytes32",
					"name": "",
					"type": "bytes32"
				}
			],
			"stateMutability": "pure",
			"type": "function"
		},
		{
			"inputs": [
				{
					"internalType": "bytes32",
					"name": "ChannelId",
					"type": "bytes32"
				},
				{
					"internalType": "uint256",
					"name": "Amount",
					"type": "uint256"
				},
				{
					"internalType": "bytes32",
					"name": "LocalBlockHash",
					"type": "bytes32"
				},
				{
					"internalType": "bytes",
					"name": "ReqBytes",
					"type": "bytes"
				}
			],
			"name": "getReqMessageHash",
			"outputs": [
				{
					"internalType": "bytes32",
					"name": "",
					"type": "bytes32"
				}
			],
			"stateMutability": "pure",
			"type": "function"
		}
	]
}