{
	"data": {
		"bytecode": {
			"linkReferences": {},
			"object": "611acc610034600b8282823980515f1a607314602857634e487b7160e01b5f525f60045260245ffd5b305f52607381538281f3fe730000000000000000000000000000000000000000301460806040526004361061006b575f3560e01c8063155152461461006f5780632c66f61a1461009557806388ede4a2146100a8578063c7d60a06146100d5578063e09bc827146100f4578063fe0103f714610121575b5f80fd5b61008261007d366004611156565b61014e565b6040519081526020015b60405180910390f35b6100826100a336600461124d565b610186565b8180156100b3575f80fd5b506100c76100c23660046112e9565b610212565b60405161008c9291906113a2565b8180156100e0575f80fd5b506100826100ef3660046114a6565b6105b4565b8180156100ff575f80fd5b5061011361010e3660046112e9565b610659565b60405161008c929190611544565b81801561012c575f80fd5b5061014061013b3660046112e9565b61094e565b60405161008c92919061163c565b5f84848484604051602001610166949392919061169c565b604051602081830303815290604052805190602001209050949350505050565b5f60605f5b86518110156101da57818782815181106101a7576101a76116b9565b60200260200101516040516020016101c09291906116cd565b60408051601f19818403018152919052915060010161018b565b508685826040516020016101f0939291906116e1565b6040516020818303038152906040528051906020012091505095945050505050565b61021a610fe7565b5f8061025461024f856040805180820182525f8082526020918201528151808301909252825182529182019181019190915290565b610b75565b90508051600c146102805760405162461bcd60e51b8152600401610277906116fe565b60405180910390fd5b610288610fe7565b6102aa825f8151811061029d5761029d6116b9565b6020026020010151610c7a565b815281516102c5908390600190811061029d5761029d6116b9565b6102ce9061174c565b602082015281516102f990839060029081106102ec576102ec6116b9565b6020026020010151610cf4565b60408201528151610317908390600390811061029d5761029d6116b9565b6103209061174c565b6060820152815161033e908390600490811061029d5761029d6116b9565b816080018190525061035c826005815181106102ec576102ec6116b9565b60a0820152815161037a908390600690811061029d5761029d6116b9565b8160c001819052505f6103a683600781518110610399576103996116b9565b6020026020010151610b75565b905080516001600160401b038111156103c1576103c16110a7565b6040519080825280602002602001820160405280156103f457816020015b60608152602001906001900390816103df5790505b5060e08301525f5b81518110156104435761041a82828151811061029d5761029d6116b9565b8360e001518281518110610430576104306116b9565b60209081029190910101526001016103fc565b5061045a8360088151811061029d5761029d6116b9565b6104639061174c565b6101008301528251610482908490600990811061029d5761029d6116b9565b8261012001819052506104a183600a8151811061029d5761029d6116b9565b8261014001819052506104c083600b8151811061029d5761029d6116b9565b6104c99061174c565b610160830152815160208301516040808501516060860151608087015160a088015160c089015160e08a01516101008b01516101208c01516101408d015198517f90eee31558acfcfed6439516fb8d12f248b9aef0fa51dd84936c1256090643f09b6105409b909a9099989796959493929161176f565b60405180910390a15f61056c83602001518460e0015185610100015186610120015187608001516105b4565b90507ff9a7ea37911815f4a89b25e48dc4ee38541a0e1128907411984b0a228788c8798160405161059f91815260200190565b60405180910390a19196919550909350505050565b5f7f5dcadceca961b7159cec0e118986188b438287559ed58b29a762182b22a52cad826040516105e49190611818565b60405180910390a160605f5b865181101561063f578187828151811061060c5761060c6116b9565b60200260200101516040516020016106259291906116cd565b60408051601f1981840301815291905291506001016105f0565b5086838287876040516020016101f095949392919061182a565b610661611049565b5f8061069661024f856040805180820182525f8082526020918201528151808301909252825182529182019181019190915290565b90508051600b146106b95760405162461bcd60e51b8152600401610277906116fe565b6106c1611049565b6106d6825f8151811061029d5761029d6116b9565b815281516106f1908390600190811061029d5761029d6116b9565b6106fa9061174c565b6020820152815161071890839060029081106102ec576102ec6116b9565b60408201528151610736908390600390811061029d5761029d6116b9565b61073f9061174c565b6060820152815161075d908390600490811061029d5761029d6116b9565b816080018190525061077b826005815181106102ec576102ec6116b9565b60a08201528151610799908390600690811061029d5761029d6116b9565b8160c001819052505f6107b883600781518110610399576103996116b9565b905080516001600160401b038111156107d3576107d36110a7565b60405190808252806020026020018201604052801561080657816020015b60608152602001906001900390816107f15790505b5060e08301525f5b81518110156108555761082c82828151811061029d5761029d6116b9565b8360e001518281518110610842576108426116b9565b602090810291909101015260010161080e565b5061086c8360088151811061029d5761029d6116b9565b82610100018190525061088b8360098151811061029d5761029d6116b9565b8261012001819052506108aa83600a8151811061029d5761029d6116b9565b6108b39061174c565b610140830152815160208301516040808501516060860151608087015160a088015160c089015160e08a01516101008b01516101208c015197517fe5fda43f81ac665889dc77778f276a13836ee131965d49e6cdd827ea35343f159a6109239a9099909897969594939291611860565b60405180910390a15f61056c83602001518460e0015185608001518661010001518760a00151610186565b604080516080810182525f8082526020808301829052828401829052606080840152835180850185528281528101829052835180850190945284518452848101908401529091819061099f90610b75565b905080516004146109c25760405162461bcd60e51b8152600401610277906116fe565b604080516080810182525f80825260208201819052918101919091526060808201526109f9825f8151811061029d5761029d6116b9565b610a029061174c565b81528151610a1d90839060019081106102ec576102ec6116b9565b60208281018290526040519182527f245716014a178144670148ec993e73f5f2cbc96529afa0b8fbe731b4a74566bc910160405180910390a1610a6c8260028151811061029d5761029d6116b9565b610a759061174c565b6040828101829052519081527fb7cfa42c424e0e7e35ff08e6ea1cf2789fec94621f570d48f844b82582a4b8ec9060200160405180910390a1610ac48260038151811061029d5761029d6116b9565b6060820181905281516020830151604080850151865191517fa690c9f86196602d7fd3dd6934f38b29ee9bd564d1a89bb5d3372ae964f0d53795610b0b9594939091611901565b60405180910390a15f610b2f825f015183602001518460400151856060015161014e565b90507ff9a7ea37911815f4a89b25e48dc4ee38541a0e1128907411984b0a228788c87981604051610b6291815260200190565b60405180910390a1909590945092505050565b6060610b8082610d3f565b610b88575f80fd5b5f610b9283610d76565b90505f816001600160401b03811115610bad57610bad6110a7565b604051908082528060200260200182016040528015610bf157816020015b604080518082019091525f8082526020820152815260200190600190039081610bcb5790505b5090505f610c028560200151610df6565b8560200151610c11919061194b565b90505f805b84811015610c6f57610c2783610e7c565b9150604051806040016040528083815260200184815250848281518110610c5057610c506116b9565b6020908102919091010152610c65828461194b565b9250600101610c16565b509195945050505050565b8051606090610c87575f80fd5b5f80610c9284610f24565b915091505f816001600160401b03811115610caf57610caf6110a7565b6040519080825280601f01601f191660200182016040528015610cd9576020820181803683370190505b50905060208101610ceb848285610f66565b50949350505050565b80515f9015801590610d0857508151602110155b610d10575f80fd5b5f80610d1b84610f24565b815191935091506020821015610d375760208290036101000a90045b949350505050565b80515f908103610d5057505f919050565b602082015180515f1a9060c0821015610d6c57505f9392505050565b5060019392505050565b80515f908103610d8757505f919050565b5f80610d968460200151610df6565b8460200151610da5919061194b565b90505f845f01518560200151610dbb919061194b565b90505b80821015610ded57610dcf82610e7c565b610dd9908361194b565b915082610de581611964565b935050610dbe565b50909392505050565b80515f90811a6080811015610e0d57505f92915050565b60b8811080610e28575060c08110801590610e28575060f881105b15610e365750600192915050565b60c0811015610e6a57610e4b600160b861197c565b610e589060ff1682611995565b610e6390600161194b565b9392505050565b610e4b600160f861197c565b50919050565b80515f908190811a6080811015610e965760019150610f1d565b60b8811015610ebc57610eaa608082611995565b610eb590600161194b565b9150610f1d565b60c0811015610ee95760b78103600185019450806020036101000a85510460018201810193505050610f1d565b60f8811015610efd57610eaa60c082611995565b60f78103600185019450806020036101000a855104600182018101935050505b5092915050565b5f805f610f348460200151610df6565b90505f818560200151610f47919061194b565b90505f82865f0151610f599190611995565b9196919550909350505050565b805f03610f7257505050565b60208110610faa5782518252610f8960208461194b565b9250610f9660208361194b565b9150610fa3602082611995565b9050610f72565b8015610fe2575f6001610fbe836020611995565b610fca90610100611a8b565b610fd49190611995565b845184518216911916178352505b505050565b604080516101808101825260608082525f602083018190529282018390528082018390526080820181905260a0820183905260c0820181905260e082018190526101008201839052610120820181905261014082015261016081019190915290565b604051806101600160405280606081526020015f80191681526020015f81526020015f8019168152602001606081526020015f8152602001606081526020016060815260200160608152602001606081526020015f80191681525090565b634e487b7160e01b5f52604160045260245ffd5b604051601f8201601f191681016001600160401b03811182821017156110e3576110e36110a7565b604052919050565b5f82601f8301126110fa575f80fd5b81356001600160401b03811115611113576111136110a7565b611126601f8201601f19166020016110bb565b81815284602083860101111561113a575f80fd5b816020850160208301375f918101602001919091529392505050565b5f805f8060808587031215611169575f80fd5b84359350602085013592506040850135915060608501356001600160401b03811115611193575f80fd5b61119f878288016110eb565b91505092959194509250565b5f82601f8301126111ba575f80fd5b81356001600160401b038111156111d3576111d36110a7565b8060051b6111e3602082016110bb565b918252602081850181019290810190868411156111fe575f80fd5b6020860192505b838310156112435782356001600160401b03811115611222575f80fd5b611231886020838a01016110eb565b83525060209283019290910190611205565b9695505050505050565b5f805f805f60a08688031215611261575f80fd5b8535945060208601356001600160401b0381111561127d575f80fd5b611289888289016111ab565b94505060408601356001600160401b038111156112a4575f80fd5b6112b0888289016110eb565b93505060608601356001600160401b038111156112cb575f80fd5b6112d7888289016110eb565b95989497509295608001359392505050565b5f602082840312156112f9575f80fd5b81356001600160401b0381111561130e575f80fd5b610d37848285016110eb565b5f81518084528060208401602086015e5f602082860101526020601f19601f83011685010191505092915050565b5f82825180855260208501945060208160051b830101602085015f5b8381101561139657601f1985840301885261138083835161131a565b6020988901989093509190910190600101611364565b50909695505050505050565b604081525f835161018060408401526113bf6101c084018261131a565b90506020850151606084015260408501516080840152606085015160a08401526080850151603f198483030160c08501526113fa828261131a565b91505060a085015160e084015260c0850151603f1984830301610100850152611423828261131a565b91505060e0850151603f19848303016101208501526114428282611348565b915050610100850151610140840152610120850151603f198483030161016085015261146e828261131a565b915050610140850151603f198483030161018085015261148e828261131a565b61016096909601516101a08501525050506020015290565b5f805f805f60a086880312156114ba575f80fd5b8535945060208601356001600160401b038111156114d6575f80fd5b6114e2888289016111ab565b9450506040860135925060608601356001600160401b03811115611504575f80fd5b611510888289016110eb565b92505060808601356001600160401b0381111561152b575f80fd5b611537888289016110eb565b9150509295509295909350565b604081525f835161016060408401526115616101a084018261131a565b90506020850151606084015260408501516080840152606085015160a08401526080850151603f198483030160c085015261159c828261131a565b91505060a085015160e084015260c0850151603f19848303016101008501526115c5828261131a565b91505060e0850151603f19848303016101208501526115e48282611348565b915050610100850151603f1984830301610140850152611604828261131a565b915050610120850151603f1984830301610160850152611624828261131a565b61014096909601516101808501525050506020015290565b604081528251604082015260208301516060820152604083015160808201525f6060840151608060a084015261167560c084018261131a565b9150508260208301529392505050565b5f81518060208401855e5f93019283525090919050565b8481528360208201528260408201525f6112436060830184611685565b634e487b7160e01b5f52603260045260245ffd5b5f610d376116db8386611685565b84611685565b8381525f6116f56116db6020840186611685565b95945050505050565b6020808252602e908201527f496e636f7272656374206e756d626572206f66206669656c647320696e20524c60408201526d5020656e636f646564206461746160901b606082015260800190565b80516020808301519190811015610e76575f1960209190910360031b1b16919050565b61016081525f61178361016083018e61131a565b8c60208401528b60408401528a606084015282810360808401526117a7818b61131a565b90508860a084015282810360c08401526117c1818961131a565b905082810360e08401526117d58188611348565b9050856101008401528281036101208401526117f1818661131a565b9050828103610140840152611806818561131a565b9e9d5050505050505050505050505050565b602081525f610e63602083018461131a565b8581525f61184461183e6020840188611685565b86611685565b8481526118546020820185611685565b98975050505050505050565b61014081525f61187461014083018d61131a565b8b60208401528a60408401528960608401528281036080840152611898818a61131a565b90508760a084015282810360c08401526118b2818861131a565b905082810360e08401526118c68187611348565b90508281036101008401526118db818661131a565b90508281036101208401526118f0818561131a565b9d9c50505050505050505050505050565b85815284602082015283604082015260a060608201525f61192560a083018561131a565b90508260808301529695505050505050565b634e487b7160e01b5f52601160045260245ffd5b8082018082111561195e5761195e611937565b92915050565b5f6001820161197557611975611937565b5060010190565b60ff828116828216039081111561195e5761195e611937565b8181038181111561195e5761195e611937565b6001815b60018411156119e3578085048111156119c7576119c7611937565b60018416156119d557908102905b60019390931c9280026119ac565b935093915050565b5f826119f95750600161195e565b81611a0557505f61195e565b8160018114611a1b5760028114611a2557611a41565b600191505061195e565b60ff841115611a3657611a36611937565b50506001821b61195e565b5060208310610133831016604e8410600b8410161715611a64575081810a61195e565b611a705f1984846119a8565b805f1904821115611a8357611a83611937565b029392505050565b5f610e6383836119eb56fea26469706673582212207fa6453f4a3c30371dbc488865bd249f5c9e3bf5516caca017a8bfbe21cb245d64736f6c634300081a0033",
			"opcodes": "PUSH2 0x1ACC PUSH2 0x34 PUSH1 0xB DUP3 DUP3 DUP3 CODECOPY DUP1 MLOAD PUSH0 BYTE PUSH1 0x73 EQ PUSH1 0x28 JUMPI PUSH4 0x4E487B71 PUSH1 0xE0 SHL PUSH0 MSTORE PUSH0 PUSH1 0x4 MSTORE PUSH1 0x24 PUSH0 REVERT JUMPDEST ADDRESS PUSH0 MSTORE PUSH1 0x73 DUP2 MSTORE8 DUP3 DUP2 RETURN INVALID PUSH20 0x0 ADDRESS EQ PUSH1 0x80 PUSH1 0x40 MSTORE PUSH1 0x4 CALLDATASIZE LT PUSH2 0x6B JUMPI PUSH0 CALLDATALOAD PUSH1 0xE0 SHR DUP1 PUSH4 0x15515246 EQ PUSH2 0x6F JUMPI DUP1 PUSH4 0x2C66F61A EQ PUSH2 0x95 JUMPI DUP1 PUSH4 0x88EDE4A2 EQ PUSH2 0xA8 JUMPI DUP1 PUSH4 0xC7D60A06 EQ PUSH2 0xD5 JUMPI DUP1 PUSH4 0xE09BC827 EQ PUSH2 0xF4 JUMPI DUP1 PUSH4 0xFE0103F7 EQ PUSH2 0x121 JUMPI JUMPDEST PUSH0 DUP1 REVERT JUMPDEST PUSH2 0x82 PUSH2 0x7D CALLDATASIZE PUSH1 0x4 PUSH2 0x1156 JUMP JUMPDEST PUSH2 0x14E JUMP JUMPDEST PUSH1 0x40 MLOAD SWAP1 DUP2 MSTORE PUSH1 0x20 ADD JUMPDEST PUSH1 0x40 MLOAD DUP1 SWAP2 SUB SWAP1 RETURN JUMPDEST PUSH2 0x82 PUSH2 0xA3 CALLDATASIZE PUSH1 0x4 PUSH2 0x124D JUMP JUMPDEST PUSH2 0x186 JUMP JUMPDEST DUP2 DUP1 ISZERO PUSH2 0xB3 JUMPI PUSH0 DUP1 REVERT JUMPDEST POP PUSH2 0xC7 PUSH2 0xC2 CALLDATASIZE PUSH1 0x4 PUSH2 0x12E9 JUMP JUMPDEST PUSH2 0x212 JUMP JUMPDEST PUSH1 0x40 MLOAD PUSH2 0x8C SWAP3 SWAP2 SWAP1 PUSH2 0x13A2 JUMP JUMPDEST DUP2 DUP1 ISZERO PUSH2 0xE0 JUMPI PUSH0 DUP1 REVERT JUMPDEST POP PUSH2 0x82 PUSH2 0xEF CALLDATASIZE PUSH1 0x4 PUSH2 0x14A6 JUMP JUMPDEST PUSH2 0x5B4 JUMP JUMPDEST DUP2 DUP1 ISZERO PUSH2 0xFF JUMPI PUSH0 DUP1 REVERT JUMPDEST POP PUSH2 0x113 PUSH2 0x10E CALLDATASIZE PUSH1 0x4 PUSH2 0x12E9 JUMP JUMPDEST PUSH2 0x659 JUMP JUMPDEST PUSH1 0x40 MLOAD PUSH2 0x8C SWAP3 SWAP2 SWAP1 PUSH2 0x1544 JUMP JUMPDEST DUP2 DUP1 ISZERO PUSH2 0x12C JUMPI PUSH0 DUP1 REVERT JUMPDEST POP PUSH2 0x140 PUSH2 0x13B CALLDATASIZE PUSH1 0x4 PUSH2 0x12E9 JUMP JUMPDEST PUSH2 0x94E JUMP JUMPDEST PUSH1 0x40 MLOAD PUSH2 0x8C SWAP3 SWAP2 SWAP1 PUSH2 0x163C JUMP JUMPDEST PUSH0 DUP5 DUP5 DUP5 DUP5 PUSH1 0x40 MLOAD PUSH1 0x20 ADD PUSH2 0x166 SWAP5 SWAP4 SWAP3 SWAP2 SWAP1 PUSH2 0x169C JUMP JUMPDEST PUSH1 0x40 MLOAD PUSH1 0x20 DUP2 DUP4 SUB SUB DUP2 MSTORE SWAP1 PUSH1 0x40 MSTORE DUP1 MLOAD SWAP1 PUSH1 0x20 ADD KECCAK256 SWAP1 POP SWAP5 SWAP4 POP POP POP POP JUMP JUMPDEST PUSH0 PUSH1 0x60 PUSH0 JUMPDEST DUP7 MLOAD DUP2 LT ISZERO PUSH2 0x1DA JUMPI DUP2 DUP8 DUP3 DUP2 MLOAD DUP2 LT PUSH2 0x1A7 JUMPI PUSH2 0x1A7 PUSH2 0x16B9 JUMP JUMPDEST PUSH1 0x20 MUL PUSH1 0x20 ADD ADD MLOAD PUSH1 0x40 MLOAD PUSH1 0x20 ADD PUSH2 0x1C0 SWAP3 SWAP2 SWAP1 PUSH2 0x16CD JUMP JUMPDEST PUSH1 0x40 DUP1 MLOAD PUSH1 0x1F NOT DUP2 DUP5 SUB ADD DUP2 MSTORE SWAP2 SWAP1 MSTORE SWAP2 POP PUSH1 0x1 ADD PUSH2 0x18B JUMP JUMPDEST POP DUP7 DUP6 DUP3 PUSH1 0x40 MLOAD PUSH1 0x20 ADD PUSH2 0x1F0 SWAP4 SWAP3 SWAP2 SWAP1 PUSH2 0x16E1 JUMP JUMPDEST PUSH1 0x40 MLOAD PUSH1 0x20 DUP2 DUP4 SUB SUB DUP2 MSTORE SWAP1 PUSH1 0x40 MSTORE DUP1 MLOAD SWAP1 PUSH1 0x20 ADD KECCAK256 SWAP2 POP POP SWAP6 SWAP5 POP POP POP POP POP JUMP JUMPDEST PUSH2 0x21A PUSH2 0xFE7 JUMP JUMPDEST PUSH0 DUP1 PUSH2 0x254 PUSH2 0x24F DUP6 PUSH1 0x40 DUP1 MLOAD DUP1 DUP3 ADD DUP3 MSTORE PUSH0 DUP1 DUP3 MSTORE PUSH1 0x20 SWAP2 DUP3 ADD MSTORE DUP2 MLOAD DUP1 DUP4 ADD SWAP1 SWAP3 MSTORE DUP3 MLOAD DUP3 MSTORE SWAP2 DUP3 ADD SWAP2 DUP2 ADD SWAP2 SWAP1 SWAP2 MSTORE SWAP1 JUMP JUMPDEST PUSH2 0xB75 JUMP JUMPDEST SWAP1 POP DUP1 MLOAD PUSH1 0xC EQ PUSH2 0x280 JUMPI PUSH1 0x40 MLOAD PUSH3 0x461BCD PUSH1 0xE5 SHL DUP2 MSTORE PUSH1 0x4 ADD PUSH2 0x277 SWAP1 PUSH2 0x16FE JUMP JUMPDEST PUSH1 0x40 MLOAD DUP1 SWAP2 SUB SWAP1 REVERT JUMPDEST PUSH2 0x288 PUSH2 0xFE7 JUMP JUMPDEST PUSH2 0x2AA DUP3 PUSH0 DUP2 MLOAD DUP2 LT PUSH2 0x29D JUMPI PUSH2 0x29D PUSH2 0x16B9 JUMP JUMPDEST PUSH1 0x20 MUL PUSH1 0x20 ADD ADD MLOAD PUSH2 0xC7A JUMP JUMPDEST DUP2 MSTORE DUP2 MLOAD PUSH2 0x2C5 SWAP1 DUP4 SWAP1 PUSH1 0x1 SWAP1 DUP2 LT PUSH2 0x29D JUMPI PUSH2 0x29D PUSH2 0x16B9 JUMP JUMPDEST PUSH2 0x2CE SWAP1 PUSH2 0x174C JUMP JUMPDEST PUSH1 0x20 DUP3 ADD MSTORE DUP2 MLOAD PUSH2 0x2F9 SWAP1 DUP4 SWAP1 PUSH1 0x2 SWAP1 DUP2 LT PUSH2 0x2EC JUMPI PUSH2 0x2EC PUSH2 0x16B9 JUMP JUMPDEST PUSH1 0x20 MUL PUSH1 0x20 ADD ADD MLOAD PUSH2 0xCF4 JUMP JUMPDEST PUSH1 0x40 DUP3 ADD MSTORE DUP2 MLOAD PUSH2 0x317 SWAP1 DUP4 SWAP1 PUSH1 0x3 SWAP1 DUP2 LT PUSH2 0x29D JUMPI PUSH2 0x29D PUSH2 0x16B9 JUMP JUMPDEST PUSH2 0x320 SWAP1 PUSH2 0x174C JUMP JUMPDEST PUSH1 0x60 DUP3 ADD MSTORE DUP2 MLOAD PUSH2 0x33E SWAP1 DUP4 SWAP1 PUSH1 0x4 SWAP1 DUP2 LT PUSH2 0x29D JUMPI PUSH2 0x29D PUSH2 0x16B9 JUMP JUMPDEST DUP2 PUSH1 0x80 ADD DUP2 SWAP1 MSTORE POP PUSH2 0x35C DUP3 PUSH1 0x5 DUP2 MLOAD DUP2 LT PUSH2 0x2EC JUMPI PUSH2 0x2EC PUSH2 0x16B9 JUMP JUMPDEST PUSH1 0xA0 DUP3 ADD MSTORE DUP2 MLOAD PUSH2 0x37A SWAP1 DUP4 SWAP1 PUSH1 0x6 SWAP1 DUP2 LT PUSH2 0x29D JUMPI PUSH2 0x29D PUSH2 0x16B9 JUMP JUMPDEST DUP2 PUSH1 0xC0 ADD DUP2 SWAP1 MSTORE POP PUSH0 PUSH2 0x3A6 DUP4 PUSH1 0x7 DUP2 MLOAD DUP2 LT PUSH2 0x399 JUMPI PUSH2 0x399 PUSH2 0x16B9 JUMP JUMPDEST PUSH1 0x20 MUL PUSH1 0x20 ADD ADD MLOAD PUSH2 0xB75 JUMP JUMPDEST SWAP1 POP DUP1 MLOAD PUSH1 0x1 PUSH1 0x1 PUSH1 0x40 SHL SUB DUP2 GT ISZERO PUSH2 0x3C1 JUMPI PUSH2 0x3C1 PUSH2 0x10A7 JUMP JUMPDEST PUSH1 0x40 MLOAD SWAP1 DUP1 DUP3 MSTORE DUP1 PUSH1 0x20 MUL PUSH1 0x20 ADD DUP3 ADD PUSH1 0x40 MSTORE DUP1 ISZERO PUSH2 0x3F4 JUMPI DUP2 PUSH1 0x20 ADD JUMPDEST PUSH1 0x60 DUP2 MSTORE PUSH1 0x20 ADD SWAP1 PUSH1 0x1 SWAP1 SUB SWAP1 DUP2 PUSH2 0x3DF JUMPI SWAP1 POP JUMPDEST POP PUSH1 0xE0 DUP4 ADD MSTORE PUSH0 JUMPDEST DUP2 MLOAD DUP2 LT ISZERO PUSH2 0x443 JUMPI PUSH2 0x41A DUP3 DUP3 DUP2 MLOAD DUP2 LT PUSH2 0x29D JUMPI PUSH2 0x29D PUSH2 0x16B9 JUMP JUMPDEST DUP4 PUSH1 0xE0 ADD MLOAD DUP3 DUP2 MLOAD DUP2 LT PUSH2 0x430 JUMPI PUSH2 0x430 PUSH2 0x16B9 JUMP JUMPDEST PUSH1 0x20 SWAP1 DUP2 MUL SWAP2 SWAP1 SWAP2 ADD ADD MSTORE PUSH1 0x1 ADD PUSH2 0x3FC JUMP JUMPDEST POP PUSH2 0x45A DUP4 PUSH1 0x8 DUP2 MLOAD DUP2 LT PUSH2 0x29D JUMPI PUSH2 0x29D PUSH2 0x16B9 JUMP JUMPDEST PUSH2 0x463 SWAP1 PUSH2 0x174C JUMP JUMPDEST PUSH2 0x100 DUP4 ADD MSTORE DUP3 MLOAD PUSH2 0x482 SWAP1 DUP5 SWAP1 PUSH1 0x9 SWAP1 DUP2 LT PUSH2 0x29D JUMPI PUSH2 0x29D PUSH2 0x16B9 JUMP JUMPDEST DUP3 PUSH2 0x120 ADD DUP2 SWAP1 MSTORE POP PUSH2 0x4A1 DUP4 PUSH1 0xA DUP2 MLOAD DUP2 LT PUSH2 0x29D JUMPI PUSH2 0x29D PUSH2 0x16B9 JUMP JUMPDEST DUP3 PUSH2 0x140 ADD DUP2 SWAP1 MSTORE POP PUSH2 0x4C0 DUP4 PUSH1 0xB DUP2 MLOAD DUP2 LT PUSH2 0x29D JUMPI PUSH2 0x29D PUSH2 0x16B9 JUMP JUMPDEST PUSH2 0x4C9 SWAP1 PUSH2 0x174C JUMP JUMPDEST PUSH2 0x160 DUP4 ADD MSTORE DUP2 MLOAD PUSH1 0x20 DUP4 ADD MLOAD PUSH1 0x40 DUP1 DUP6 ADD MLOAD PUSH1 0x60 DUP7 ADD MLOAD PUSH1 0x80 DUP8 ADD MLOAD PUSH1 0xA0 DUP9 ADD MLOAD PUSH1 0xC0 DUP10 ADD MLOAD PUSH1 0xE0 DUP11 ADD MLOAD PUSH2 0x100 DUP12 ADD MLOAD PUSH2 0x120 DUP13 ADD MLOAD PUSH2 0x140 DUP14 ADD MLOAD SWAP9 MLOAD PUSH32 0x90EEE31558ACFCFED6439516FB8D12F248B9AEF0FA51DD84936C1256090643F0 SWAP12 PUSH2 0x540 SWAP12 SWAP1 SWAP11 SWAP1 SWAP10 SWAP9 SWAP8 SWAP7 SWAP6 SWAP5 SWAP4 SWAP3 SWAP2 PUSH2 0x176F JUMP JUMPDEST PUSH1 0x40 MLOAD DUP1 SWAP2 SUB SWAP1 LOG1 PUSH0 PUSH2 0x56C DUP4 PUSH1 0x20 ADD MLOAD DUP5 PUSH1 0xE0 ADD MLOAD DUP6 PUSH2 0x100 ADD MLOAD DUP7 PUSH2 0x120 ADD MLOAD DUP8 PUSH1 0x80 ADD MLOAD PUSH2 0x5B4 JUMP JUMPDEST SWAP1 POP PUSH32 0xF9A7EA37911815F4A89B25E48DC4EE38541A0E1128907411984B0A228788C879 DUP2 PUSH1 0x40 MLOAD PUSH2 0x59F SWAP2 DUP2 MSTORE PUSH1 0x20 ADD SWAP1 JUMP JUMPDEST PUSH1 0x40 MLOAD DUP1 SWAP2 SUB SWAP1 LOG1 SWAP2 SWAP7 SWAP2 SWAP6 POP SWAP1 SWAP4 POP POP POP POP JUMP JUMPDEST PUSH0 PUSH32 0x5DCADCECA961B7159CEC0E118986188B438287559ED58B29A762182B22A52CAD DUP3 PUSH1 0x40 MLOAD PUSH2 0x5E4 SWAP2 SWAP1 PUSH2 0x1818 JUMP JUMPDEST PUSH1 0x40 MLOAD DUP1 SWAP2 SUB SWAP1 LOG1 PUSH1 0x60 PUSH0 JUMPDEST DUP7 MLOAD DUP2 LT ISZERO PUSH2 0x63F JUMPI DUP2 DUP8 DUP3 DUP2 MLOAD DUP2 LT PUSH2 0x60C JUMPI PUSH2 0x60C PUSH2 0x16B9 JUMP JUMPDEST PUSH1 0x20 MUL PUSH1 0x20 ADD ADD MLOAD PUSH1 0x40 MLOAD PUSH1 0x20 ADD PUSH2 0x625 SWAP3 SWAP2 SWAP1 PUSH2 0x16CD JUMP JUMPDEST PUSH1 0x40 DUP1 MLOAD PUSH1 0x1F NOT DUP2 DUP5 SUB ADD DUP2 MSTORE SWAP2 SWAP1 MSTORE SWAP2 POP PUSH1 0x1 ADD PUSH2 0x5F0 JUMP JUMPDEST POP DUP7 DUP4 DUP3 DUP8 DUP8 PUSH1 0x40 MLOAD PUSH1 0x20 ADD PUSH2 0x1F0 SWAP6 SWAP5 SWAP4 SWAP3 SWAP2 SWAP1 PUSH2 0x182A JUMP JUMPDEST PUSH2 0x661 PUSH2 0x1049 JUMP JUMPDEST PUSH0 DUP1 PUSH2 0x696 PUSH2 0x24F DUP6 PUSH1 0x40 DUP1 MLOAD DUP1 DUP3 ADD DUP3 MSTORE PUSH0 DUP1 DUP3 MSTORE PUSH1 0x20 SWAP2 DUP3 ADD MSTORE DUP2 MLOAD DUP1 DUP4 ADD SWAP1 SWAP3 MSTORE DUP3 MLOAD DUP3 MSTORE SWAP2 DUP3 ADD SWAP2 DUP2 ADD SWAP2 SWAP1 SWAP2 MSTORE SWAP1 JUMP JUMPDEST SWAP1 POP DUP1 MLOAD PUSH1 0xB EQ PUSH2 0x6B9 JUMPI PUSH1 0x40 MLOAD PUSH3 0x461BCD PUSH1 0xE5 SHL DUP2 MSTORE PUSH1 0x4 ADD PUSH2 0x277 SWAP1 PUSH2 0x16FE JUMP JUMPDEST PUSH2 0x6C1 PUSH2 0x1049 JUMP JUMPDEST PUSH2 0x6D6 DUP3 PUSH0 DUP2 MLOAD DUP2 LT PUSH2 0x29D JUMPI PUSH2 0x29D PUSH2 0x16B9 JUMP JUMPDEST DUP2 MSTORE DUP2 MLOAD PUSH2 0x6F1 SWAP1 DUP4 SWAP1 PUSH1 0x1 SWAP1 DUP2 LT PUSH2 0x29D JUMPI PUSH2 0x29D PUSH2 0x16B9 JUMP JUMPDEST PUSH2 0x6FA SWAP1 PUSH2 0x174C JUMP JUMPDEST PUSH1 0x20 DUP3 ADD MSTORE DUP2 MLOAD PUSH2 0x718 SWAP1 DUP4 SWAP1 PUSH1 0x2 SWAP1 DUP2 LT PUSH2 0x2EC JUMPI PUSH2 0x2EC PUSH2 0x16B9 JUMP JUMPDEST PUSH1 0x40 DUP3 ADD MSTORE DUP2 MLOAD PUSH2 0x736 SWAP1 DUP4 SWAP1 PUSH1 0x3 SWAP1 DUP2 LT PUSH2 0x29D JUMPI PUSH2 0x29D PUSH2 0x16B9 JUMP JUMPDEST PUSH2 0x73F SWAP1 PUSH2 0x174C JUMP JUMPDEST PUSH1 0x60 DUP3 ADD MSTORE DUP2 MLOAD PUSH2 0x75D SWAP1 DUP4 SWAP1 PUSH1 0x4 SWAP1 DUP2 LT PUSH2 0x29D JUMPI PUSH2 0x29D PUSH2 0x16B9 JUMP JUMPDEST DUP2 PUSH1 0x80 ADD DUP2 SWAP1 MSTORE POP PUSH2 0x77B DUP3 PUSH1 0x5 DUP2 MLOAD DUP2 LT PUSH2 0x2EC JUMPI PUSH2 0x2EC PUSH2 0x16B9 JUMP JUMPDEST PUSH1 0xA0 DUP3 ADD MSTORE DUP2 MLOAD PUSH2 0x799 SWAP1 DUP4 SWAP1 PUSH1 0x6 SWAP1 DUP2 LT PUSH2 0x29D JUMPI PUSH2 0x29D PUSH2 0x16B9 JUMP JUMPDEST DUP2 PUSH1 0xC0 ADD DUP2 SWAP1 MSTORE POP PUSH0 PUSH2 0x7B8 DUP4 PUSH1 0x7 DUP2 MLOAD DUP2 LT PUSH2 0x399 JUMPI PUSH2 0x399 PUSH2 0x16B9 JUMP JUMPDEST SWAP1 POP DUP1 MLOAD PUSH1 0x1 PUSH1 0x1 PUSH1 0x40 SHL SUB DUP2 GT ISZERO PUSH2 0x7D3 JUMPI PUSH2 0x7D3 PUSH2 0x10A7 JUMP JUMPDEST PUSH1 0x40 MLOAD SWAP1 DUP1 DUP3 MSTORE DUP1 PUSH1 0x20 MUL PUSH1 0x20 ADD DUP3 ADD PUSH1 0x40 MSTORE DUP1 ISZERO PUSH2 0x806 JUMPI DUP2 PUSH1 0x20 ADD JUMPDEST PUSH1 0x60 DUP2 MSTORE PUSH1 0x20 ADD SWAP1 PUSH1 0x1 SWAP1 SUB SWAP1 DUP2 PUSH2 0x7F1 JUMPI SWAP1 POP JUMPDEST POP PUSH1 0xE0 DUP4 ADD MSTORE PUSH0 JUMPDEST DUP2 MLOAD DUP2 LT ISZERO PUSH2 0x855 JUMPI PUSH2 0x82C DUP3 DUP3 DUP2 MLOAD DUP2 LT PUSH2 0x29D JUMPI PUSH2 0x29D PUSH2 0x16B9 JUMP JUMPDEST DUP4 PUSH1 0xE0 ADD MLOAD DUP3 DUP2 MLOAD DUP2 LT PUSH2 0x842 JUMPI PUSH2 0x842 PUSH2 0x16B9 JUMP JUMPDEST PUSH1 0x20 SWAP1 DUP2 MUL SWAP2 SWAP1 SWAP2 ADD ADD MSTORE PUSH1 0x1 ADD PUSH2 0x80E JUMP JUMPDEST POP PUSH2 0x86C DUP4 PUSH1 0x8 DUP2 MLOAD DUP2 LT PUSH2 0x29D JUMPI PUSH2 0x29D PUSH2 0x16B9 JUMP JUMPDEST DUP3 PUSH2 0x100 ADD DUP2 SWAP1 MSTORE POP PUSH2 0x88B DUP4 PUSH1 0x9 DUP2 MLOAD DUP2 LT PUSH2 0x29D JUMPI PUSH2 0x29D PUSH2 0x16B9 JUMP JUMPDEST DUP3 PUSH2 0x120 ADD DUP2 SWAP1 MSTORE POP PUSH2 0x8AA DUP4 PUSH1 0xA DUP2 MLOAD DUP2 LT PUSH2 0x29D JUMPI PUSH2 0x29D PUSH2 0x16B9 JUMP JUMPDEST PUSH2 0x8B3 SWAP1 PUSH2 0x174C JUMP JUMPDEST PUSH2 0x140 DUP4 ADD MSTORE DUP2 MLOAD PUSH1 0x20 DUP4 ADD MLOAD PUSH1 0x40 DUP1 DUP6 ADD MLOAD PUSH1 0x60 DUP7 ADD MLOAD PUSH1 0x80 DUP8 ADD MLOAD PUSH1 0xA0 DUP9 ADD MLOAD PUSH1 0xC0 DUP10 ADD MLOAD PUSH1 0xE0 DUP11 ADD MLOAD PUSH2 0x100 DUP12 ADD MLOAD PUSH2 0x120 DUP13 ADD MLOAD SWAP8 MLOAD PUSH32 0xE5FDA43F81AC665889DC77778F276A13836EE131965D49E6CDD827EA35343F15 SWAP11 PUSH2 0x923 SWAP11 SWAP1 SWAP10 SWAP1 SWAP9 SWAP8 SWAP7 SWAP6 SWAP5 SWAP4 SWAP3 SWAP2 PUSH2 0x1860 JUMP JUMPDEST PUSH1 0x40 MLOAD DUP1 SWAP2 SUB SWAP1 LOG1 PUSH0 PUSH2 0x56C DUP4 PUSH1 0x20 ADD MLOAD DUP5 PUSH1 0xE0 ADD MLOAD DUP6 PUSH1 0x80 ADD MLOAD DUP7 PUSH2 0x100 ADD MLOAD DUP8 PUSH1 0xA0 ADD MLOAD PUSH2 0x186 JUMP JUMPDEST PUSH1 0x40 DUP1 MLOAD PUSH1 0x80 DUP2 ADD DUP3 MSTORE PUSH0 DUP1 DUP3 MSTORE PUSH1 0x20 DUP1 DUP4 ADD DUP3 SWAP1 MSTORE DUP3 DUP5 ADD DUP3 SWAP1 MSTORE PUSH1 0x60 DUP1 DUP5 ADD MSTORE DUP4 MLOAD DUP1 DUP6 ADD DUP6 MSTORE DUP3 DUP2 MSTORE DUP2 ADD DUP3 SWAP1 MSTORE DUP4 MLOAD DUP1 DUP6 ADD SWAP1 SWAP5 MSTORE DUP5 MLOAD DUP5 MSTORE DUP5 DUP2 ADD SWAP1 DUP5 ADD MSTORE SWAP1 SWAP2 DUP2 SWAP1 PUSH2 0x99F SWAP1 PUSH2 0xB75 JUMP JUMPDEST SWAP1 POP DUP1 MLOAD PUSH1 0x4 EQ PUSH2 0x9C2 JUMPI PUSH1 0x40 MLOAD PUSH3 0x461BCD PUSH1 0xE5 SHL DUP2 MSTORE PUSH1 0x4 ADD PUSH2 0x277 SWAP1 PUSH2 0x16FE JUMP JUMPDEST PUSH1 0x40 DUP1 MLOAD PUSH1 0x80 DUP2 ADD DUP3 MSTORE PUSH0 DUP1 DUP3 MSTORE PUSH1 0x20 DUP3 ADD DUP2 SWAP1 MSTORE SWAP2 DUP2 ADD SWAP2 SWAP1 SWAP2 MSTORE PUSH1 0x60 DUP1 DUP3 ADD MSTORE PUSH2 0x9F9 DUP3 PUSH0 DUP2 MLOAD DUP2 LT PUSH2 0x29D JUMPI PUSH2 0x29D PUSH2 0x16B9 JUMP JUMPDEST PUSH2 0xA02 SWAP1 PUSH2 0x174C JUMP JUMPDEST DUP2 MSTORE DUP2 MLOAD PUSH2 0xA1D SWAP1 DUP4 SWAP1 PUSH1 0x1 SWAP1 DUP2 LT PUSH2 0x2EC JUMPI PUSH2 0x2EC PUSH2 0x16B9 JUMP JUMPDEST PUSH1 0x20 DUP3 DUP2 ADD DUP3 SWAP1 MSTORE PUSH1 0x40 MLOAD SWAP2 DUP3 MSTORE PUSH32 0x245716014A178144670148EC993E73F5F2CBC96529AFA0B8FBE731B4A74566BC SWAP2 ADD PUSH1 0x40 MLOAD DUP1 SWAP2 SUB SWAP1 LOG1 PUSH2 0xA6C DUP3 PUSH1 0x2 DUP2 MLOAD DUP2 LT PUSH2 0x29D JUMPI PUSH2 0x29D PUSH2 0x16B9 JUMP JUMPDEST PUSH2 0xA75 SWAP1 PUSH2 0x174C JUMP JUMPDEST PUSH1 0x40 DUP3 DUP2 ADD DUP3 SWAP1 MSTORE MLOAD SWAP1 DUP2 MSTORE PUSH32 0xB7CFA42C424E0E7E35FF08E6EA1CF2789FEC94621F570D48F844B82582A4B8EC SWAP1 PUSH1 0x20 ADD PUSH1 0x40 MLOAD DUP1 SWAP2 SUB SWAP1 LOG1 PUSH2 0xAC4 DUP3 PUSH1 0x3 DUP2 MLOAD DUP2 LT PUSH2 0x29D JUMPI PUSH2 0x29D PUSH2 0x16B9 JUMP JUMPDEST PUSH1 0x60 DUP3 ADD DUP2 SWAP1 MSTORE DUP2 MLOAD PUSH1 0x20 DUP4 ADD MLOAD PUSH1 0x40 DUP1 DUP6 ADD MLOAD DUP7 MLOAD SWAP2 MLOAD PUSH32 0xA690C9F86196602D7FD3DD6934F38B29EE9BD564D1A89BB5D3372AE964F0D537 SWAP6 PUSH2 0xB0B SWAP6 SWAP5 SWAP4 SWAP1 SWAP2 PUSH2 0x1901 JUMP JUMPDEST PUSH1 0x40 MLOAD DUP1 SWAP2 SUB SWAP1 LOG1 PUSH0 PUSH2 0xB2F DUP3 PUSH0 ADD MLOAD DUP4 PUSH1 0x20 ADD MLOAD DUP5 PUSH1 0x40 ADD MLOAD DUP6 PUSH1 0x60 ADD MLOAD PUSH2 0x14E JUMP JUMPDEST SWAP1 POP PUSH32 0xF9A7EA37911815F4A89B25E48DC4EE38541A0E1128907411984B0A228788C879 DUP2 PUSH1 0x40 MLOAD PUSH2 0xB62 SWAP2 DUP2 MSTORE PUSH1 0x20 ADD SWAP1 JUMP JUMPDEST PUSH1 0x40 MLOAD DUP1 SWAP2 SUB SWAP1 LOG1 SWAP1 SWAP6 SWAP1 SWAP5 POP SWAP3 POP POP POP JUMP JUMPDEST PUSH1 0x60 PUSH2 0xB80 DUP3 PUSH2 0xD3F JUMP JUMPDEST PUSH2 0xB88 JUMPI PUSH0 DUP1 REVERT JUMPDEST PUSH0 PUSH2 0xB92 DUP4 PUSH2 0xD76 JUMP JUMPDEST SWAP1 POP PUSH0 DUP2 PUSH1 0x1 PUSH1 0x1 PUSH1 0x40 SHL SUB DUP2 GT ISZERO PUSH2 0xBAD JUMPI PUSH2 0xBAD PUSH2 0x10A7 JUMP JUMPDEST PUSH1 0x40 MLOAD SWAP1 DUP1 DUP3 MSTORE DUP1 PUSH1 0x20 MUL PUSH1 0x20 ADD DUP3 ADD PUSH1 0x40 MSTORE DUP1 ISZERO PUSH2 0xBF1 JUMPI DUP2 PUSH1 0x20 ADD JUMPDEST PUSH1 0x40 DUP1 MLOAD DUP1 DUP3 ADD SWAP1 SWAP2 MSTORE PUSH0 DUP1 DUP3 MSTORE PUSH1 0x20 DUP3 ADD MSTORE DUP2 MSTORE PUSH1 0x20 ADD SWAP1 PUSH1 0x1 SWAP1 SUB SWAP1 DUP2 PUSH2 0xBCB JUMPI SWAP1 POP JUMPDEST POP SWAP1 POP PUSH0 PUSH2 0xC02 DUP6 PUSH1 0x20 ADD MLOAD PUSH2 0xDF6 JUMP JUMPDEST DUP6 PUSH1 0x20 ADD MLOAD PUSH2 0xC11 SWAP2 SWAP1 PUSH2 0x194B JUMP JUMPDEST SWAP1 POP PUSH0 DUP1 JUMPDEST DUP5 DUP2 LT ISZERO PUSH2 0xC6F JUMPI PUSH2 0xC27 DUP4 PUSH2 0xE7C JUMP JUMPDEST SWAP2 POP PUSH1 0x40 MLOAD DUP1 PUSH1 0x40 ADD PUSH1 0x40 MSTORE DUP1 DUP4 DUP2 MSTORE PUSH1 0x20 ADD DUP5 DUP2 MSTORE POP DUP5 DUP3 DUP2 MLOAD DUP2 LT PUSH2 0xC50 JUMPI PUSH2 0xC50 PUSH2 0x16B9 JUMP JUMPDEST PUSH1 0x20 SWAP1 DUP2 MUL SWAP2 SWAP1 SWAP2 ADD ADD MSTORE PUSH2 0xC65 DUP3 DUP5 PUSH2 0x194B JUMP JUMPDEST SWAP3 POP PUSH1 0x1 ADD PUSH2 0xC16 JUMP JUMPDEST POP SWAP2 SWAP6 SWAP5 POP POP POP POP POP JUMP JUMPDEST DUP1 MLOAD PUSH1 0x60 SWAP1 PUSH2 0xC87 JUMPI PUSH0 DUP1 REVERT JUMPDEST PUSH0 DUP1 PUSH2 0xC92 DUP5 PUSH2 0xF24 JUMP JUMPDEST SWAP2 POP SWAP2 POP PUSH0 DUP2 PUSH1 0x1 PUSH1 0x1 PUSH1 0x40 SHL SUB DUP2 GT ISZERO PUSH2 0xCAF JUMPI PUSH2 0xCAF PUSH2 0x10A7 JUMP JUMPDEST PUSH1 0x40 MLOAD SWAP1 DUP1 DUP3 MSTORE DUP1 PUSH1 0x1F ADD PUSH1 0x1F NOT AND PUSH1 0x20 ADD DUP3 ADD PUSH1 0x40 MSTORE DUP1 ISZERO PUSH2 0xCD9 JUMPI PUSH1 0x20 DUP3 ADD DUP2 DUP1 CALLDATASIZE DUP4 CALLDATACOPY ADD SWAP1 POP JUMPDEST POP SWAP1 POP PUSH1 0x20 DUP2 ADD PUSH2 0xCEB DUP5 DUP3 DUP6 PUSH2 0xF66 JUMP JUMPDEST POP SWAP5 SWAP4 POP POP POP POP JUMP JUMPDEST DUP1 MLOAD PUSH0 SWAP1 ISZERO DUP1 ISZERO SWAP1 PUSH2 0xD08 JUMPI POP DUP2 MLOAD PUSH1 0x21 LT ISZERO JUMPDEST PUSH2 0xD10 JUMPI PUSH0 DUP1 REVERT JUMPDEST PUSH0 DUP1 PUSH2 0xD1B DUP5 PUSH2 0xF24 JUMP JUMPDEST DUP2 MLOAD SWAP2 SWAP4 POP SWAP2 POP PUSH1 0x20 DUP3 LT ISZERO PUSH2 0xD37 JUMPI PUSH1 0x20 DUP3 SWAP1 SUB PUSH2 0x100 EXP SWAP1 DIV JUMPDEST SWAP5 SWAP4 POP POP POP POP JUMP JUMPDEST DUP1 MLOAD PUSH0 SWAP1 DUP2 SUB PUSH2 0xD50 JUMPI POP PUSH0 SWAP2 SWAP1 POP JUMP JUMPDEST PUSH1 0x20 DUP3 ADD MLOAD DUP1 MLOAD PUSH0 BYTE SWAP1 PUSH1 0xC0 DUP3 LT ISZERO PUSH2 0xD6C JUMPI POP PUSH0 SWAP4 SWAP3 POP POP POP JUMP JUMPDEST POP PUSH1 0x1 SWAP4 SWAP3 POP POP POP JUMP JUMPDEST DUP1 MLOAD PUSH0 SWAP1 DUP2 SUB PUSH2 0xD87 JUMPI POP PUSH0 SWAP2 SWAP1 POP JUMP JUMPDEST PUSH0 DUP1 PUSH2 0xD96 DUP5 PUSH1 0x20 ADD MLOAD PUSH2 0xDF6 JUMP JUMPDEST DUP5 PUSH1 0x20 ADD MLOAD PUSH2 0xDA5 SWAP2 SWAP1 PUSH2 0x194B JUMP JUMPDEST SWAP1 POP PUSH0 DUP5 PUSH0 ADD MLOAD DUP6 PUSH1 0x20 ADD MLOAD PUSH2 0xDBB SWAP2 SWAP1 PUSH2 0x194B JUMP JUMPDEST SWAP1 POP JUMPDEST DUP1 DUP3 LT ISZERO PUSH2 0xDED JUMPI PUSH2 0xDCF DUP3 PUSH2 0xE7C JUMP JUMPDEST PUSH2 0xDD9 SWAP1 DUP4 PUSH2 0x194B JUMP JUMPDEST SWAP2 POP DUP3 PUSH2 0xDE5 DUP2 PUSH2 0x1964 JUMP JUMPDEST SWAP4 POP POP PUSH2 0xDBE JUMP JUMPDEST POP SWAP1 SWAP4 SWAP3 POP POP POP JUMP JUMPDEST DUP1 MLOAD PUSH0 SWAP1 DUP2 BYTE PUSH1 0x80 DUP2 LT ISZERO PUSH2 0xE0D JUMPI POP PUSH0 SWAP3 SWAP2 POP POP JUMP JUMPDEST PUSH1 0xB8 DUP2 LT DUP1 PUSH2 0xE28 JUMPI POP PUSH1 0xC0 DUP2 LT DUP1 ISZERO SWAP1 PUSH2 0xE28 JUMPI POP PUSH1 0xF8 DUP2 LT JUMPDEST ISZERO PUSH2 0xE36 JUMPI POP PUSH1 0x1 SWAP3 SWAP2 POP POP JUMP JUMPDEST PUSH1 0xC0 DUP2 LT ISZERO PUSH2 0xE6A JUMPI PUSH2 0xE4B PUSH1 0x1 PUSH1 0xB8 PUSH2 0x197C JUMP JUMPDEST PUSH2 0xE58 SWAP1 PUSH1 0xFF AND DUP3 PUSH2 0x1995 JUMP JUMPDEST PUSH2 0xE63 SWAP1 PUSH1 0x1 PUSH2 0x194B JUMP JUMPDEST SWAP4 SWAP3 POP POP POP JUMP JUMPDEST PUSH2 0xE4B PUSH1 0x1 PUSH1 0xF8 PUSH2 0x197C JUMP JUMPDEST POP SWAP2 SWAP1 POP JUMP JUMPDEST DUP1 MLOAD PUSH0 SWAP1 DUP2 SWAP1 DUP2 BYTE PUSH1 0x80 DUP2 LT ISZERO PUSH2 0xE96 JUMPI PUSH1 0x1 SWAP2 POP PUSH2 0xF1D JUMP JUMPDEST PUSH1 0xB8 DUP2 LT ISZERO PUSH2 0xEBC JUMPI PUSH2 0xEAA PUSH1 0x80 DUP3 PUSH2 0x1995 JUMP JUMPDEST PUSH2 0xEB5 SWAP1 PUSH1 0x1 PUSH2 0x194B JUMP JUMPDEST SWAP2 POP PUSH2 0xF1D JUMP JUMPDEST PUSH1 0xC0 DUP2 LT ISZERO PUSH2 0xEE9 JUMPI PUSH1 0xB7 DUP2 SUB PUSH1 0x1 DUP6 ADD SWAP5 POP DUP1 PUSH1 0x20 SUB PUSH2 0x100 EXP DUP6 MLOAD DIV PUSH1 0x1 DUP3 ADD DUP2 ADD SWAP4 POP POP POP PUSH2 0xF1D JUMP JUMPDEST PUSH1 0xF8 DUP2 LT ISZERO PUSH2 0xEFD JUMPI PUSH2 0xEAA PUSH1 0xC0 DUP3 PUSH2 0x1995 JUMP JUMPDEST PUSH1 0xF7 DUP2 SUB PUSH1 0x1 DUP6 ADD SWAP5 POP DUP1 PUSH1 0x20 SUB PUSH2 0x100 EXP DUP6 MLOAD DIV PUSH1 0x1 DUP3 ADD DUP2 ADD SWAP4 POP POP POP JUMPDEST POP SWAP3 SWAP2 POP POP JUMP JUMPDEST PUSH0 DUP1 PUSH0 PUSH2 0xF34 DUP5 PUSH1 0x20 ADD MLOAD PUSH2 0xDF6 JUMP JUMPDEST SWAP1 POP PUSH0 DUP2 DUP6 PUSH1 0x20 ADD MLOAD PUSH2 0xF47 SWAP2 SWAP1 PUSH2 0x194B JUMP JUMPDEST SWAP1 POP PUSH0 DUP3 DUP7 PUSH0 ADD MLOAD PUSH2 0xF59 SWAP2 SWAP1 PUSH2 0x1995 JUMP JUMPDEST SWAP2 SWAP7 SWAP2 SWAP6 POP SWAP1 SWAP4 POP POP POP POP JUMP JUMPDEST DUP1 PUSH0 SUB PUSH2 0xF72 JUMPI POP POP POP JUMP JUMPDEST PUSH1 0x20 DUP2 LT PUSH2 0xFAA JUMPI DUP3 MLOAD DUP3 MSTORE PUSH2 0xF89 PUSH1 0x20 DUP5 PUSH2 0x194B JUMP JUMPDEST SWAP3 POP PUSH2 0xF96 PUSH1 0x20 DUP4 PUSH2 0x194B JUMP JUMPDEST SWAP2 POP PUSH2 0xFA3 PUSH1 0x20 DUP3 PUSH2 0x1995 JUMP JUMPDEST SWAP1 POP PUSH2 0xF72 JUMP JUMPDEST DUP1 ISZERO PUSH2 0xFE2 JUMPI PUSH0 PUSH1 0x1 PUSH2 0xFBE DUP4 PUSH1 0x20 PUSH2 0x1995 JUMP JUMPDEST PUSH2 0xFCA SWAP1 PUSH2 0x100 PUSH2 0x1A8B JUMP JUMPDEST PUSH2 0xFD4 SWAP2 SWAP1 PUSH2 0x1995 JUMP JUMPDEST DUP5 MLOAD DUP5 MLOAD DUP3 AND SWAP2 NOT AND OR DUP4 MSTORE POP JUMPDEST POP POP POP JUMP JUMPDEST PUSH1 0x40 DUP1 MLOAD PUSH2 0x180 DUP2 ADD DUP3 MSTORE PUSH1 0x60 DUP1 DUP3 MSTORE PUSH0 PUSH1 0x20 DUP4 ADD DUP2 SWAP1 MSTORE SWAP3 DUP3 ADD DUP4 SWAP1 MSTORE DUP1 DUP3 ADD DUP4 SWAP1 MSTORE PUSH1 0x80 DUP3 ADD DUP2 SWAP1 MSTORE PUSH1 0xA0 DUP3 ADD DUP4 SWAP1 MSTORE PUSH1 0xC0 DUP3 ADD DUP2 SWAP1 MSTORE PUSH1 0xE0 DUP3 ADD DUP2 SWAP1 MSTORE PUSH2 0x100 DUP3 ADD DUP4 SWAP1 MSTORE PUSH2 0x120 DUP3 ADD DUP2 SWAP1 MSTORE PUSH2 0x140 DUP3 ADD MSTORE PUSH2 0x160 DUP2 ADD SWAP2 SWAP1 SWAP2 MSTORE SWAP1 JUMP JUMPDEST PUSH1 0x40 MLOAD DUP1 PUSH2 0x160 ADD PUSH1 0x40 MSTORE DUP1 PUSH1 0x60 DUP2 MSTORE PUSH1 0x20 ADD PUSH0 DUP1 NOT AND DUP2 MSTORE PUSH1 0x20 ADD PUSH0 DUP2 MSTORE PUSH1 0x20 ADD PUSH0 DUP1 NOT AND DUP2 MSTORE PUSH1 0x20 ADD PUSH1 0x60 DUP2 MSTORE PUSH1 0x20 ADD PUSH0 DUP2 MSTORE PUSH1 0x20 ADD PUSH1 0x60 DUP2 MSTORE PUSH1 0x20 ADD PUSH1 0x60 DUP2 MSTORE PUSH1 0x20 ADD PUSH1 0x60 DUP2 MSTORE PUSH1 0x20 ADD PUSH1 0x60 DUP2 MSTORE PUSH1 0x20 ADD PUSH0 DUP1 NOT AND DUP2 MSTORE POP SWAP1 JUMP JUMPDEST PUSH4 0x4E487B71 PUSH1 0xE0 SHL PUSH0 MSTORE PUSH1 0x41 PUSH1 0x4 MSTORE PUSH1 0x24 PUSH0 REVERT JUMPDEST PUSH1 0x40 MLOAD PUSH1 0x1F DUP3 ADD PUSH1 0x1F NOT AND DUP2 ADD PUSH1 0x1 PUSH1 0x1 PUSH1 0x40 SHL SUB DUP2 GT DUP3 DUP3 LT OR ISZERO PUSH2 0x10E3 JUMPI PUSH2 0x10E3 PUSH2 0x10A7 JUMP JUMPDEST PUSH1 0x40 MSTORE SWAP2 SWAP1 POP JUMP JUMPDEST PUSH0 DUP3 PUSH1 0x1F DUP4 ADD SLT PUSH2 0x10FA JUMPI PUSH0 DUP1 REVERT JUMPDEST DUP2 CALLDATALOAD PUSH1 0x1 PUSH1 0x1 PUSH1 0x40 SHL SUB DUP2 GT ISZERO PUSH2 0x1113 JUMPI PUSH2 0x1113 PUSH2 0x10A7 JUMP JUMPDEST PUSH2 0x1126 PUSH1 0x1F DUP3 ADD PUSH1 0x1F NOT AND PUSH1 0x20 ADD PUSH2 0x10BB JUMP JUMPDEST DUP2 DUP2 MSTORE DUP5 PUSH1 0x20 DUP4 DUP7 ADD ADD GT ISZERO PUSH2 0x113A JUMPI PUSH0 DUP1 REVERT JUMPDEST DUP2 PUSH1 0x20 DUP6 ADD PUSH1 0x20 DUP4 ADD CALLDATACOPY PUSH0 SWAP2 DUP2 ADD PUSH1 0x20 ADD SWAP2 SWAP1 SWAP2 MSTORE SWAP4 SWAP3 POP POP POP JUMP JUMPDEST PUSH0 DUP1 PUSH0 DUP1 PUSH1 0x80 DUP6 DUP8 SUB SLT ISZERO PUSH2 0x1169 JUMPI PUSH0 DUP1 REVERT JUMPDEST DUP5 CALLDATALOAD SWAP4 POP PUSH1 0x20 DUP6 ADD CALLDATALOAD SWAP3 POP PUSH1 0x40 DUP6 ADD CALLDATALOAD SWAP2 POP PUSH1 0x60 DUP6 ADD CALLDATALOAD PUSH1 0x1 PUSH1 0x1 PUSH1 0x40 SHL SUB DUP2 GT ISZERO PUSH2 0x1193 JUMPI PUSH0 DUP1 REVERT JUMPDEST PUSH2 0x119F DUP8 DUP3 DUP9 ADD PUSH2 0x10EB JUMP JUMPDEST SWAP2 POP POP SWAP3 SWAP6 SWAP2 SWAP5 POP SWAP3 POP JUMP JUMPDEST PUSH0 DUP3 PUSH1 0x1F DUP4 ADD SLT PUSH2 0x11BA JUMPI PUSH0 DUP1 REVERT JUMPDEST DUP2 CALLDATALOAD PUSH1 0x1 PUSH1 0x1 PUSH1 0x40 SHL SUB DUP2 GT ISZERO PUSH2 0x11D3 JUMPI PUSH2 0x11D3 PUSH2 0x10A7 JUMP JUMPDEST DUP1 PUSH1 0x5 SHL PUSH2 0x11E3 PUSH1 0x20 DUP3 ADD PUSH2 0x10BB JUMP JUMPDEST SWAP2 DUP3 MSTORE PUSH1 0x20 DUP2 DUP6 ADD DUP2 ADD SWAP3 SWAP1 DUP2 ADD SWAP1 DUP7 DUP5 GT ISZERO PUSH2 0x11FE JUMPI PUSH0 DUP1 REVERT JUMPDEST PUSH1 0x20 DUP7 ADD SWAP3 POP JUMPDEST DUP4 DUP4 LT ISZERO PUSH2 0x1243 JUMPI DUP3 CALLDATALOAD PUSH1 0x1 PUSH1 0x1 PUSH1 0x40 SHL SUB DUP2 GT ISZERO PUSH2 0x1222 JUMPI PUSH0 DUP1 REVERT JUMPDEST PUSH2 0x1231 DUP9 PUSH1 0x20 DUP4 DUP11 ADD ADD PUSH2 0x10EB JUMP JUMPDEST DUP4 MSTORE POP PUSH1 0x20 SWAP3 DUP4 ADD SWAP3 SWAP1 SWAP2 ADD SWAP1 PUSH2 0x1205 JUMP JUMPDEST SWAP7 SWAP6 POP POP POP POP POP POP JUMP JUMPDEST PUSH0 DUP1 PUSH0 DUP1 PUSH0 PUSH1 0xA0 DUP7 DUP9 SUB SLT ISZERO PUSH2 0x1261 JUMPI PUSH0 DUP1 REVERT JUMPDEST DUP6 CALLDATALOAD SWAP5 POP PUSH1 0x20 DUP7 ADD CALLDATALOAD PUSH1 0x1 PUSH1 0x1 PUSH1 0x40 SHL SUB DUP2 GT ISZERO PUSH2 0x127D JUMPI PUSH0 DUP1 REVERT JUMPDEST PUSH2 0x1289 DUP9 DUP3 DUP10 ADD PUSH2 0x11AB JUMP JUMPDEST SWAP5 POP POP PUSH1 0x40 DUP7 ADD CALLDATALOAD PUSH1 0x1 PUSH1 0x1 PUSH1 0x40 SHL SUB DUP2 GT ISZERO PUSH2 0x12A4 JUMPI PUSH0 DUP1 REVERT JUMPDEST PUSH2 0x12B0 DUP9 DUP3 DUP10 ADD PUSH2 0x10EB JUMP JUMPDEST SWAP4 POP POP PUSH1 0x60 DUP7 ADD CALLDATALOAD PUSH1 0x1 PUSH1 0x1 PUSH1 0x40 SHL SUB DUP2 GT ISZERO PUSH2 0x12CB JUMPI PUSH0 DUP1 REVERT JUMPDEST PUSH2 0x12D7 DUP9 DUP3 DUP10 ADD PUSH2 0x10EB JUMP JUMPDEST SWAP6 SWAP9 SWAP5 SWAP8 POP SWAP3 SWAP6 PUSH1 0x80 ADD CALLDATALOAD SWAP4 SWAP3 POP POP POP JUMP JUMPDEST PUSH0 PUSH1 0x20 DUP3 DUP5 SUB SLT ISZERO PUSH2 0x12F9 JUMPI PUSH0 DUP1 REVERT JUMPDEST DUP2 CALLDATALOAD PUSH1 0x1 PUSH1 0x1 PUSH1 0x40 SHL SUB DUP2 GT ISZERO PUSH2 0x130E JUMPI PUSH0 DUP1 REVERT JUMPDEST PUSH2 0xD37 DUP5 DUP3 DUP6 ADD PUSH2 0x10EB JUMP JUMPDEST PUSH0 DUP2 MLOAD DUP1 DUP5 MSTORE DUP1 PUSH1 0x20 DUP5 ADD PUSH1 0x20 DUP7 ADD MCOPY PUSH0 PUSH1 0x20 DUP3 DUP7 ADD ADD MSTORE PUSH1 0x20 PUSH1 0x1F NOT PUSH1 0x1F DUP4 ADD AND DUP6 ADD ADD SWAP2 POP POP SWAP3 SWAP2 POP POP JUMP JUMPDEST PUSH0 DUP3 DUP3 MLOAD DUP1 DUP6 MSTORE PUSH1 0x20 DUP6 ADD SWAP5 POP PUSH1 0x20 DUP2 PUSH1 0x5 SHL DUP4 ADD ADD PUSH1 0x20 DUP6 ADD PUSH0 JUMPDEST DUP4 DUP2 LT ISZERO PUSH2 0x1396 JUMPI PUSH1 0x1F NOT DUP6 DUP5 SUB ADD DUP9 MSTORE PUSH2 0x1380 DUP4 DUP4 MLOAD PUSH2 0x131A JUMP JUMPDEST PUSH1 0x20 SWAP9 DUP10 ADD SWAP9 SWAP1 SWAP4 POP SWAP2 SWAP1 SWAP2 ADD SWAP1 PUSH1 0x1 ADD PUSH2 0x1364 JUMP JUMPDEST POP SWAP1 SWAP7 SWAP6 POP POP POP POP POP POP JUMP JUMPDEST PUSH1 0x40 DUP2 MSTORE PUSH0 DUP4 MLOAD PUSH2 0x180 PUSH1 0x40 DUP5 ADD MSTORE PUSH2 0x13BF PUSH2 0x1C0 DUP5 ADD DUP3 PUSH2 0x131A JUMP JUMPDEST SWAP1 POP PUSH1 0x20 DUP6 ADD MLOAD PUSH1 0x60 DUP5 ADD MSTORE PUSH1 0x40 DUP6 ADD MLOAD PUSH1 0x80 DUP5 ADD MSTORE PUSH1 0x60 DUP6 ADD MLOAD PUSH1 0xA0 DUP5 ADD MSTORE PUSH1 0x80 DUP6 ADD MLOAD PUSH1 0x3F NOT DUP5 DUP4 SUB ADD PUSH1 0xC0 DUP6 ADD MSTORE PUSH2 0x13FA DUP3 DUP3 PUSH2 0x131A JUMP JUMPDEST SWAP2 POP POP PUSH1 0xA0 DUP6 ADD MLOAD PUSH1 0xE0 DUP5 ADD MSTORE PUSH1 0xC0 DUP6 ADD MLOAD PUSH1 0x3F NOT DUP5 DUP4 SUB ADD PUSH2 0x100 DUP6 ADD MSTORE PUSH2 0x1423 DUP3 DUP3 PUSH2 0x131A JUMP JUMPDEST SWAP2 POP POP PUSH1 0xE0 DUP6 ADD MLOAD PUSH1 0x3F NOT DUP5 DUP4 SUB ADD PUSH2 0x120 DUP6 ADD MSTORE PUSH2 0x1442 DUP3 DUP3 PUSH2 0x1348 JUMP JUMPDEST SWAP2 POP POP PUSH2 0x100 DUP6 ADD MLOAD PUSH2 0x140 DUP5 ADD MSTORE PUSH2 0x120 DUP6 ADD MLOAD PUSH1 0x3F NOT DUP5 DUP4 SUB ADD PUSH2 0x160 DUP6 ADD MSTORE PUSH2 0x146E DUP3 DUP3 PUSH2 0x131A JUMP JUMPDEST SWAP2 POP POP PUSH2 0x140 DUP6 ADD MLOAD PUSH1 0x3F NOT DUP5 DUP4 SUB ADD PUSH2 0x180 DUP6 ADD MSTORE PUSH2 0x148E DUP3 DUP3 PUSH2 0x131A JUMP JUMPDEST PUSH2 0x160 SWAP7 SWAP1 SWAP7 ADD MLOAD PUSH2 0x1A0 DUP6 ADD MSTORE POP POP POP PUSH1 0x20 ADD MSTORE SWAP1 JUMP JUMPDEST PUSH0 DUP1 PUSH0 DUP1 PUSH0 PUSH1 0xA0 DUP7 DUP9 SUB SLT ISZERO PUSH2 0x14BA JUMPI PUSH0 DUP1 REVERT JUMPDEST DUP6 CALLDATALOAD SWAP5 POP PUSH1 0x20 DUP7 ADD CALLDATALOAD PUSH1 0x1 PUSH1 0x1 PUSH1 0x40 SHL SUB DUP2 GT ISZERO PUSH2 0x14D6 JUMPI PUSH0 DUP1 REVERT JUMPDEST PUSH2 0x14E2 DUP9 DUP3 DUP10 ADD PUSH2 0x11AB JUMP JUMPDEST SWAP5 POP POP PUSH1 0x40 DUP7 ADD CALLDATALOAD SWAP3 POP PUSH1 0x60 DUP7 ADD CALLDATALOAD PUSH1 0x1 PUSH1 0x1 PUSH1 0x40 SHL SUB DUP2 GT ISZERO PUSH2 0x1504 JUMPI PUSH0 DUP1 REVERT JUMPDEST PUSH2 0x1510 DUP9 DUP3 DUP10 ADD PUSH2 0x10EB JUMP JUMPDEST SWAP3 POP POP PUSH1 0x80 DUP7 ADD CALLDATALOAD PUSH1 0x1 PUSH1 0x1 PUSH1 0x40 SHL SUB DUP2 GT ISZERO PUSH2 0x152B JUMPI PUSH0 DUP1 REVERT JUMPDEST PUSH2 0x1537 DUP9 DUP3 DUP10 ADD PUSH2 0x10EB JUMP JUMPDEST SWAP2 POP POP SWAP3 SWAP6 POP SWAP3 SWAP6 SWAP1 SWAP4 POP JUMP JUMPDEST PUSH1 0x40 DUP2 MSTORE PUSH0 DUP4 MLOAD PUSH2 0x160 PUSH1 0x40 DUP5 ADD MSTORE PUSH2 0x1561 PUSH2 0x1A0 DUP5 ADD DUP3 PUSH2 0x131A JUMP JUMPDEST SWAP1 POP PUSH1 0x20 DUP6 ADD MLOAD PUSH1 0x60 DUP5 ADD MSTORE PUSH1 0x40 DUP6 ADD MLOAD PUSH1 0x80 DUP5 ADD MSTORE PUSH1 0x60 DUP6 ADD MLOAD PUSH1 0xA0 DUP5 ADD MSTORE PUSH1 0x80 DUP6 ADD MLOAD PUSH1 0x3F NOT DUP5 DUP4 SUB ADD PUSH1 0xC0 DUP6 ADD MSTORE PUSH2 0x159C DUP3 DUP3 PUSH2 0x131A JUMP JUMPDEST SWAP2 POP POP PUSH1 0xA0 DUP6 ADD MLOAD PUSH1 0xE0 DUP5 ADD MSTORE PUSH1 0xC0 DUP6 ADD MLOAD PUSH1 0x3F NOT DUP5 DUP4 SUB ADD PUSH2 0x100 DUP6 ADD MSTORE PUSH2 0x15C5 DUP3 DUP3 PUSH2 0x131A JUMP JUMPDEST SWAP2 POP POP PUSH1 0xE0 DUP6 ADD MLOAD PUSH1 0x3F NOT DUP5 DUP4 SUB ADD PUSH2 0x120 DUP6 ADD MSTORE PUSH2 0x15E4 DUP3 DUP3 PUSH2 0x1348 JUMP JUMPDEST SWAP2 POP POP PUSH2 0x100 DUP6 ADD MLOAD PUSH1 0x3F NOT DUP5 DUP4 SUB ADD PUSH2 0x140 DUP6 ADD MSTORE PUSH2 0x1604 DUP3 DUP3 PUSH2 0x131A JUMP JUMPDEST SWAP2 POP POP PUSH2 0x120 DUP6 ADD MLOAD PUSH1 0x3F NOT DUP5 DUP4 SUB ADD PUSH2 0x160 DUP6 ADD MSTORE PUSH2 0x1624 DUP3 DUP3 PUSH2 0x131A JUMP JUMPDEST PUSH2 0x140 SWAP7 SWAP1 SWAP7 ADD MLOAD PUSH2 0x180 DUP6 ADD MSTORE POP POP POP PUSH1 0x20 ADD MSTORE SWAP1 JUMP JUMPDEST PUSH1 0x40 DUP2 MSTORE DUP3 MLOAD PUSH1 0x40 DUP3 ADD MSTORE PUSH1 0x20 DUP4 ADD MLOAD PUSH1 0x60 DUP3 ADD MSTORE PUSH1 0x40 DUP4 ADD MLOAD PUSH1 0x80 DUP3 ADD MSTORE PUSH0 PUSH1 0x60 DUP5 ADD MLOAD PUSH1 0x80 PUSH1 0xA0 DUP5 ADD MSTORE PUSH2 0x1675 PUSH1 0xC0 DUP5 ADD DUP3 PUSH2 0x131A JUMP JUMPDEST SWAP2 POP POP DUP3 PUSH1 0x20 DUP4 ADD MSTORE SWAP4 SWAP3 POP POP POP JUMP JUMPDEST PUSH0 DUP2 MLOAD DUP1 PUSH1 0x20 DUP5 ADD DUP6 MCOPY PUSH0 SWAP4 ADD SWAP3 DUP4 MSTORE POP SWAP1 SWAP2 SWAP1 POP JUMP JUMPDEST DUP5 DUP2 MSTORE DUP4 PUSH1 0x20 DUP3 ADD MSTORE DUP3 PUSH1 0x40 DUP3 ADD MSTORE PUSH0 PUSH2 0x1243 PUSH1 0x60 DUP4 ADD DUP5 PUSH2 0x1685 JUMP JUMPDEST PUSH4 0x4E487B71 PUSH1 0xE0 SHL PUSH0 MSTORE PUSH1 0x32 PUSH1 0x4 MSTORE PUSH1 0x24 PUSH0 REVERT JUMPDEST PUSH0 PUSH2 0xD37 PUSH2 0x16DB DUP4 DUP7 PUSH2 0x1685 JUMP JUMPDEST DUP5 PUSH2 0x1685 JUMP JUMPDEST DUP4 DUP2 MSTORE PUSH0 PUSH2 0x16F5 PUSH2 0x16DB PUSH1 0x20 DUP5 ADD DUP7 PUSH2 0x1685 JUMP JUMPDEST SWAP6 SWAP5 POP POP POP POP POP JUMP JUMPDEST PUSH1 0x20 DUP1 DUP3 MSTORE PUSH1 0x2E SWAP1 DUP3 ADD MSTORE PUSH32 0x496E636F7272656374206E756D626572206F66206669656C647320696E20524C PUSH1 0x40 DUP3 ADD MSTORE PUSH14 0x5020656E636F6465642064617461 PUSH1 0x90 SHL PUSH1 0x60 DUP3 ADD MSTORE PUSH1 0x80 ADD SWAP1 JUMP JUMPDEST DUP1 MLOAD PUSH1 0x20 DUP1 DUP4 ADD MLOAD SWAP2 SWAP1 DUP2 LT ISZERO PUSH2 0xE76 JUMPI PUSH0 NOT PUSH1 0x20 SWAP2 SWAP1 SWAP2 SUB PUSH1 0x3 SHL SHL AND SWAP2 SWAP1 POP JUMP JUMPDEST PUSH2 0x160 DUP2 MSTORE PUSH0 PUSH2 0x1783 PUSH2 0x160 DUP4 ADD DUP15 PUSH2 0x131A JUMP JUMPDEST DUP13 PUSH1 0x20 DUP5 ADD MSTORE DUP12 PUSH1 0x40 DUP5 ADD MSTORE DUP11 PUSH1 0x60 DUP5 ADD MSTORE DUP3 DUP2 SUB PUSH1 0x80 DUP5 ADD MSTORE PUSH2 0x17A7 DUP2 DUP12 PUSH2 0x131A JUMP JUMPDEST SWAP1 POP DUP9 PUSH1 0xA0 DUP5 ADD MSTORE DUP3 DUP2 SUB PUSH1 0xC0 DUP5 ADD MSTORE PUSH2 0x17C1 DUP2 DUP10 PUSH2 0x131A JUMP JUMPDEST SWAP1 POP DUP3 DUP2 SUB PUSH1 0xE0 DUP5 ADD MSTORE PUSH2 0x17D5 DUP2 DUP9 PUSH2 0x1348 JUMP JUMPDEST SWAP1 POP DUP6 PUSH2 0x100 DUP5 ADD MSTORE DUP3 DUP2 SUB PUSH2 0x120 DUP5 ADD MSTORE PUSH2 0x17F1 DUP2 DUP7 PUSH2 0x131A JUMP JUMPDEST SWAP1 POP DUP3 DUP2 SUB PUSH2 0x140 DUP5 ADD MSTORE PUSH2 0x1806 DUP2 DUP6 PUSH2 0x131A JUMP JUMPDEST SWAP15 SWAP14 POP POP POP POP POP POP POP POP POP POP POP POP POP POP JUMP JUMPDEST PUSH1 0x20 DUP2 MSTORE PUSH0 PUSH2 0xE63 PUSH1 0x20 DUP4 ADD DUP5 PUSH2 0x131A JUMP JUMPDEST DUP6 DUP2 MSTORE PUSH0 PUSH2 0x1844 PUSH2 0x183E PUSH1 0x20 DUP5 ADD DUP9 PUSH2 0x1685 JUMP JUMPDEST DUP7 PUSH2 0x1685 JUMP JUMPDEST DUP5 DUP2 MSTORE PUSH2 0x1854 PUSH1 0x20 DUP3 ADD DUP6 PUSH2 0x1685 JUMP JUMPDEST SWAP9 SWAP8 POP POP POP POP POP POP POP POP JUMP JUMPDEST PUSH2 0x140 DUP2 MSTORE PUSH0 PUSH2 0x1874 PUSH2 0x140 DUP4 ADD DUP14 PUSH2 0x131A JUMP JUMPDEST DUP12 PUSH1 0x20 DUP5 ADD MSTORE DUP11 PUSH1 0x40 DUP5 ADD MSTORE DUP10 PUSH1 0x60 DUP5 ADD MSTORE DUP3 DUP2 SUB PUSH1 0x80 DUP5 ADD MSTORE PUSH2 0x1898 DUP2 DUP11 PUSH2 0x131A JUMP JUMPDEST SWAP1 POP DUP8 PUSH1 0xA0 DUP5 ADD MSTORE DUP3 DUP2 SUB PUSH1 0xC0 DUP5 ADD MSTORE PUSH2 0x18B2 DUP2 DUP9 PUSH2 0x131A JUMP JUMPDEST SWAP1 POP DUP3 DUP2 SUB PUSH1 0xE0 DUP5 ADD MSTORE PUSH2 0x18C6 DUP2 DUP8 PUSH2 0x1348 JUMP JUMPDEST SWAP1 POP DUP3 DUP2 SUB PUSH2 0x100 DUP5 ADD MSTORE PUSH2 0x18DB DUP2 DUP7 PUSH2 0x131A JUMP JUMPDEST SWAP1 POP DUP3 DUP2 SUB PUSH2 0x120 DUP5 ADD MSTORE PUSH2 0x18F0 DUP2 DUP6 PUSH2 0x131A JUMP JUMPDEST SWAP14 SWAP13 POP POP POP POP POP POP POP POP POP POP POP POP POP JUMP JUMPDEST DUP6 DUP2 MSTORE DUP5 PUSH1 0x20 DUP3 ADD MSTORE DUP4 PUSH1 0x40 DUP3 ADD MSTORE PUSH1 0xA0 PUSH1 0x60 DUP3 ADD MSTORE PUSH0 PUSH2 0x1925 PUSH1 0xA0 DUP4 ADD DUP6 PUSH2 0x131A JUMP JUMPDEST SWAP1 POP DUP3 PUSH1 0x80 DUP4 ADD MSTORE SWAP7 SWAP6 POP POP POP POP POP POP JUMP JUMPDEST PUSH4 0x4E487B71 PUSH1 0xE0 SHL PUSH0 MSTORE PUSH1 0x11 PUSH1 0x4 MSTORE PUSH1 0x24 PUSH0 REVERT JUMPDEST DUP1 DUP3 ADD DUP1 DUP3 GT ISZERO PUSH2 0x195E JUMPI PUSH2 0x195E PUSH2 0x1937 JUMP JUMPDEST SWAP3 SWAP2 POP POP JUMP JUMPDEST PUSH0 PUSH1 0x1 DUP3 ADD PUSH2 0x1975 JUMPI PUSH2 0x1975 PUSH2 0x1937 JUMP JUMPDEST POP PUSH1 0x1 ADD SWAP1 JUMP JUMPDEST PUSH1 0xFF DUP3 DUP2 AND DUP3 DUP3 AND SUB SWAP1 DUP2 GT ISZERO PUSH2 0x195E JUMPI PUSH2 0x195E PUSH2 0x1937 JUMP JUMPDEST DUP2 DUP2 SUB DUP2 DUP2 GT ISZERO PUSH2 0x195E JUMPI PUSH2 0x195E PUSH2 0x1937 JUMP JUMPDEST PUSH1 0x1 DUP2 JUMPDEST PUSH1 0x1 DUP5 GT ISZERO PUSH2 0x19E3 JUMPI DUP1 DUP6 DIV DUP2 GT ISZERO PUSH2 0x19C7 JUMPI PUSH2 0x19C7 PUSH2 0x1937 JUMP JUMPDEST PUSH1 0x1 DUP5 AND ISZERO PUSH2 0x19D5 JUMPI SWAP1 DUP2 MUL SWAP1 JUMPDEST PUSH1 0x1 SWAP4 SWAP1 SWAP4 SHR SWAP3 DUP1 MUL PUSH2 0x19AC JUMP JUMPDEST SWAP4 POP SWAP4 SWAP2 POP POP JUMP JUMPDEST PUSH0 DUP3 PUSH2 0x19F9 JUMPI POP PUSH1 0x1 PUSH2 0x195E JUMP JUMPDEST DUP2 PUSH2 0x1A05 JUMPI POP PUSH0 PUSH2 0x195E JUMP JUMPDEST DUP2 PUSH1 0x1 DUP2 EQ PUSH2 0x1A1B JUMPI PUSH1 0x2 DUP2 EQ PUSH2 0x1A25 JUMPI PUSH2 0x1A41 JUMP JUMPDEST PUSH1 0x1 SWAP2 POP POP PUSH2 0x195E JUMP JUMPDEST PUSH1 0xFF DUP5 GT ISZERO PUSH2 0x1A36 JUMPI PUSH2 0x1A36 PUSH2 0x1937 JUMP JUMPDEST POP POP PUSH1 0x1 DUP3 SHL PUSH2 0x195E JUMP JUMPDEST POP PUSH1 0x20 DUP4 LT PUSH2 0x133 DUP4 LT AND PUSH1 0x4E DUP5 LT PUSH1 0xB DUP5 LT AND OR ISZERO PUSH2 0x1A64 JUMPI POP DUP2 DUP2 EXP PUSH2 0x195E JUMP JUMPDEST PUSH2 0x1A70 PUSH0 NOT DUP5 DUP5 PUSH2 0x19A8 JUMP JUMPDEST DUP1 PUSH0 NOT DIV DUP3 GT ISZERO PUSH2 0x1A83 JUMPI PUSH2 0x1A83 PUSH2 0x1937 JUMP JUMPDEST MUL SWAP4 SWAP3 POP POP POP JUMP JUMPDEST PUSH0 PUSH2 0xE63 DUP4 DUP4 PUSH2 0x19EB JUMP INVALID LOG2 PUSH5 0x6970667358 0x22 SLT KECCAK256 PUSH32 0xA6453F4A3C30371DBC488865BD249F5C9E3BF5516CACA017A8BFBE21CB245D64 PUSH20 0x6F6C634300081A00330000000000000000000000 "
		},
		"gasEstimates": {
			"creation": {
				"codeDepositCost": "1372000",
				"executionCost": "1458",
				"totalCost": "1373458"
			},
			"external": {
				"decodeRequest(bytes)": "infinite",
				"decodeResponse(bytes)": "infinite",
				"decodeResponseSP(bytes)": "infinite",
				"getMessageHash(bytes32,bytes[],bytes32,bytes,bytes)": "infinite",
				"getMessageHashSP(bytes32,bytes[],bytes,bytes,uint256)": "infinite",
				"getReqMessageHash(bytes32,uint256,bytes32,bytes)": "infinite"
			}
		},
		"methodIdentifiers": {
			"decodeRequest(bytes)": "fe0103f7",
			"decodeResponse(bytes)": "88ede4a2",
			"decodeResponseSP(bytes)": "e09bc827",
			"getMessageHash(bytes32,bytes[],bytes32,bytes,bytes)": "c7d60a06",
			"getMessageHashSP(bytes32,bytes[],bytes,bytes,uint256)": "2c66f61a",
			"getReqMessageHash(bytes32,uint256,bytes32,bytes)": "15515246"
		}
	},
	"abi": [
		{
			"anonymous": false,
			"inputs": [
				{
					"indexed": false,
					"internalType": "bytes32",
					"name": "channelId",
					"type": "bytes32"
				},
				{
					"indexed": false,
					"internalType": "uint256",
					"name": "Amount",
					"type": "uint256"
				},
				{
					"indexed": false,
					"internalType": "bytes32",
					"name": "LocalBlockHash",
					"type": "bytes32"
				},
				{
					"indexed": false,
					"internalType": "bytes",
					"name": "ReqBytes",
					"type": "bytes"
				},
				{
					"indexed": false,
					"internalType": "uint256",
					"name": "length",
					"type": "uint256"
				}
			],
			"name": "DecodeRequest",
			"type": "event"
		},
		{
			"anonymous": false,
			"inputs": [
				{
					"indexed": false,
					"internalType": "string",
					"name": "Type",
					"type": "string"
				},
				{
					"indexed": false,
					"internalType": "bytes32",
					"name": "ChannelId",
					"type": "bytes32"
				},
				{
					"indexed": false,
					"internalType": "uint256",
					"name": "Amount",
					"type": "uint256"
				},
				{
					"indexed": false,
					"internalType": "bytes32",
					"name": "ReqBodyHash",
					"type": "bytes32"
				},
				{
					"indexed": false,
					"internalType": "bytes",
					"name": "SignedReqBody",
					"type": "bytes"
				},
				{
					"indexed": false,
					"internalType": "uint256",
					"name": "CurrentBlockHeight",
					"type": "uint256"
				},
				{
					"indexed": false,
					"internalType": "bytes",
					"name": "ReturnValue",
					"type": "bytes"
				},
				{
					"indexed": false,
					"internalType": "bytes[]",
					"name": "Proof",
					"type": "bytes[]"
				},
				{
					"indexed": false,
					"internalType": "bytes32",
					"name": "TxHash",
					"type": "bytes32"
				},
				{
					"indexed": false,
					"internalType": "bytes",
					"name": "TxIdx",
					"type": "bytes"
				},
				{
					"indexed": false,
					"internalType": "bytes",
					"name": "Signature",
					"type": "bytes"
				}
			],
			"name": "DecodedResponse",
			"type": "event"
		},
		{
			"anonymous": false,
			"inputs": [
				{
					"indexed": false,
					"internalType": "string",
					"name": "Type",
					"type": "string"
				},
				{
					"indexed": false,
					"internalType": "bytes32",
					"name": "ChannelId",
					"type": "bytes32"
				},
				{
					"indexed": false,
					"internalType": "uint256",
					"name": "Amount",
					"type": "uint256"
				},
				{
					"indexed": false,
					"internalType": "bytes32",
					"name": "ReqBodyHash",
					"type": "bytes32"
				},
				{
					"indexed": false,
					"internalType": "bytes",
					"name": "SignedReqBody",
					"type": "bytes"
				},
				{
					"indexed": false,
					"internalType": "uint256",
					"name": "CurrentBlockHeight",
					"type": "uint256"
				},
				{
					"indexed": false,
					"internalType": "bytes",
					"name": "ReturnValue",
					"type": "bytes"
				},
				{
					"indexed": false,
					"internalType": "bytes[]",
					"name": "Proof",
					"type": "bytes[]"
				},
				{
					"indexed": false,
					"internalType": "bytes",
					"name": "Address",
					"type": "bytes"
				},
				{
					"indexed": false,
					"internalType": "bytes",
					"name": "Signature",
					"type": "bytes"
				}
			],
			"name": "DecodedResponseSP",
			"type": "event"
		},
		{
			"anonymous": false,
			"inputs": [
				{
					"indexed": false,
					"internalType": "uint256",
					"name": "amount",
					"type": "uint256"
				}
			],
			"name": "emitAmount",
			"type": "event"
		},
		{
			"anonymous": false,
			"inputs": [
				{
					"indexed": false,
					"internalType": "bytes32",
					"name": "LocalBlockHash",
					"type": "bytes32"
				}
			],
			"name": "emitLocalBlockHash",
			"type": "event"
		},
		{
			"anonymous": false,
			"inputs": [
				{
					"indexed": false,
					"internalType": "bytes32",
					"name": "msgHash",
					"type": "bytes32"
				}
			],
			"name": "msgHash",
			"type": "event"
		},
		{
			"anonymous": false,
			"inputs": [
				{
					"indexed": false,
					"internalType": "bytes",
					"name": "SignedReqBody",
					"type": "bytes"
				}
			],
			"name": "reqByte",
			"type": "event"
		},
		{
			"inputs": [
				{
					"internalType": "bytes32",
					"name": "ChannelId",
					"type": "bytes32"
				},
				{
					"internalType": "bytes[]",
					"name": "proof",
					"type": "bytes[]"
				},
				{
					"internalType": "bytes",
					"name": "SignedReqBody",
					"type": "bytes"
				},
				{
					"internalType": "bytes",
					"name": "Address",
					"type": "bytes"
				},
				{
					"internalType": "uint256",
					"name": "blockNr",
					"type": "uint256"
				}
			],
			"name": "getMessageHashSP",
			"outputs": [
				{
					"internalType": "bytes32",
					"name": "",
					"type": "bytes32"
				}
			],
			"stateMutability": "pure",
			"type": "function"
		},
		{
			"inputs": [
				{
					"internalType": "bytes32",
					"name": "ChannelId",
					"type": "bytes32"
				},
				{
					"internalType": "uint256",
					"name": "Amount",
					"type": "uint256"
				},
				{
					"internalType": "bytes32",
					"name": "LocalBlockHash",
					"type": "bytes32"
				},
				{
					"internalType": "bytes",
					"name": "ReqBytes",
					"type": "bytes"
				}
			],
			"name": "getReqMessageHash",
			"outputs": [
				{
					"internalType": "bytes32",
					"name": "",
					"type": "bytes32"
				}
			],
			"stateMutability": "pure",
			"type": "function"
		}
	]
}