{
	"contracts/trie/EthereumTrieDB.sol": {
		"EthereumTrieDB": {
			"abi": [
				{
					"inputs": [
						{
							"components": [
								{
									"internalType": "bool",
									"name": "isEmpty",
									"type": "bool"
								},
								{
									"internalType": "bool",
									"name": "isLeaf",
									"type": "bool"
								},
								{
									"internalType": "bool",
									"name": "isHashedLeaf",
									"type": "bool"
								},
								{
									"internalType": "bool",
									"name": "isNibbledValueBranch",
									"type": "bool"
								},
								{
									"internalType": "bool",
									"name": "isNibbledHashedValueBranch",
									"type": "bool"
								},
								{
									"internalType": "bool",
									"name": "isNibbledBranch",
									"type": "bool"
								},
								{
									"internalType": "bool",
									"name": "isExtension",
									"type": "bool"
								},
								{
									"internalType": "bool",
									"name": "isBranch",
									"type": "bool"
								},
								{
									"internalType": "uint256",
									"name": "nibbleSize",
									"type": "uint256"
								},
								{
									"components": [
										{
											"internalType": "bytes",
											"name": "data",
											"type": "bytes"
										},
										{
											"internalType": "uint256",
											"name": "offset",
											"type": "uint256"
										}
									],
									"internalType": "struct ByteSlice",
									"name": "data",
									"type": "tuple"
								}
							],
							"internalType": "struct NodeKind",
							"name": "node",
							"type": "tuple"
						}
					],
					"name": "decodeBranch",
					"outputs": [
						{
							"components": [
								{
									"components": [
										{
											"internalType": "bool",
											"name": "isSome",
											"type": "bool"
										},
										{
											"components": [
												{
													"internalType": "bool",
													"name": "isHash",
													"type": "bool"
												},
												{
													"internalType": "bytes32",
													"name": "hash",
													"type": "bytes32"
												},
												{
													"internalType": "bool",
													"name": "isInline",
													"type": "bool"
												},
												{
													"internalType": "bytes",
													"name": "inLine",
													"type": "bytes"
												}
											],
											"internalType": "struct NodeHandle",
											"name": "value",
											"type": "tuple"
										}
									],
									"internalType": "struct NodeHandleOption",
									"name": "value",
									"type": "tuple"
								},
								{
									"components": [
										{
											"internalType": "bool",
											"name": "isSome",
											"type": "bool"
										},
										{
											"components": [
												{
													"internalType": "bool",
													"name": "isHash",
													"type": "bool"
												},
												{
													"internalType": "bytes32",
													"name": "hash",
													"type": "bytes32"
												},
												{
													"internalType": "bool",
													"name": "isInline",
													"type": "bool"
												},
												{
													"internalType": "bytes",
													"name": "inLine",
													"type": "bytes"
												}
											],
											"internalType": "struct NodeHandle",
											"name": "value",
											"type": "tuple"
										}
									],
									"internalType": "struct NodeHandleOption[16]",
									"name": "children",
									"type": "tuple[16]"
								}
							],
							"internalType": "struct Branch",
							"name": "",
							"type": "tuple"
						}
					],
					"stateMutability": "pure",
					"type": "function"
				},
				{
					"inputs": [
						{
							"components": [
								{
									"internalType": "bool",
									"name": "isEmpty",
									"type": "bool"
								},
								{
									"internalType": "bool",
									"name": "isLeaf",
									"type": "bool"
								},
								{
									"internalType": "bool",
									"name": "isHashedLeaf",
									"type": "bool"
								},
								{
									"internalType": "bool",
									"name": "isNibbledValueBranch",
									"type": "bool"
								},
								{
									"internalType": "bool",
									"name": "isNibbledHashedValueBranch",
									"type": "bool"
								},
								{
									"internalType": "bool",
									"name": "isNibbledBranch",
									"type": "bool"
								},
								{
									"internalType": "bool",
									"name": "isExtension",
									"type": "bool"
								},
								{
									"internalType": "bool",
									"name": "isBranch",
									"type": "bool"
								},
								{
									"internalType": "uint256",
									"name": "nibbleSize",
									"type": "uint256"
								},
								{
									"components": [
										{
											"internalType": "bytes",
											"name": "data",
											"type": "bytes"
										},
										{
											"internalType": "uint256",
											"name": "offset",
											"type": "uint256"
										}
									],
									"internalType": "struct ByteSlice",
									"name": "data",
									"type": "tuple"
								}
							],
							"internalType": "struct NodeKind",
							"name": "node",
							"type": "tuple"
						}
					],
					"name": "decodeExtension",
					"outputs": [
						{
							"components": [
								{
									"components": [
										{
											"internalType": "bytes",
											"name": "data",
											"type": "bytes"
										},
										{
											"internalType": "uint256",
											"name": "offset",
											"type": "uint256"
										}
									],
									"internalType": "struct NibbleSlice",
									"name": "key",
									"type": "tuple"
								},
								{
									"components": [
										{
											"internalType": "bool",
											"name": "isHash",
											"type": "bool"
										},
										{
											"internalType": "bytes32",
											"name": "hash",
											"type": "bytes32"
										},
										{
											"internalType": "bool",
											"name": "isInline",
											"type": "bool"
										},
										{
											"internalType": "bytes",
											"name": "inLine",
											"type": "bytes"
										}
									],
									"internalType": "struct NodeHandle",
									"name": "node",
									"type": "tuple"
								}
							],
							"internalType": "struct Extension",
							"name": "",
							"type": "tuple"
						}
					],
					"stateMutability": "pure",
					"type": "function"
				},
				{
					"inputs": [
						{
							"components": [
								{
									"internalType": "bool",
									"name": "isEmpty",
									"type": "bool"
								},
								{
									"internalType": "bool",
									"name": "isLeaf",
									"type": "bool"
								},
								{
									"internalType": "bool",
									"name": "isHashedLeaf",
									"type": "bool"
								},
								{
									"internalType": "bool",
									"name": "isNibbledValueBranch",
									"type": "bool"
								},
								{
									"internalType": "bool",
									"name": "isNibbledHashedValueBranch",
									"type": "bool"
								},
								{
									"internalType": "bool",
									"name": "isNibbledBranch",
									"type": "bool"
								},
								{
									"internalType": "bool",
									"name": "isExtension",
									"type": "bool"
								},
								{
									"internalType": "bool",
									"name": "isBranch",
									"type": "bool"
								},
								{
									"internalType": "uint256",
									"name": "nibbleSize",
									"type": "uint256"
								},
								{
									"components": [
										{
											"internalType": "bytes",
											"name": "data",
											"type": "bytes"
										},
										{
											"internalType": "uint256",
											"name": "offset",
											"type": "uint256"
										}
									],
									"internalType": "struct ByteSlice",
									"name": "data",
									"type": "tuple"
								}
							],
							"internalType": "struct NodeKind",
							"name": "node",
							"type": "tuple"
						}
					],
					"name": "decodeLeaf",
					"outputs": [
						{
							"components": [
								{
									"components": [
										{
											"internalType": "bytes",
											"name": "data",
											"type": "bytes"
										},
										{
											"internalType": "uint256",
											"name": "offset",
											"type": "uint256"
										}
									],
									"internalType": "struct NibbleSlice",
									"name": "key",
									"type": "tuple"
								},
								{
									"components": [
										{
											"internalType": "bool",
											"name": "isHash",
											"type": "bool"
										},
										{
											"internalType": "bytes32",
											"name": "hash",
											"type": "bytes32"
										},
										{
											"internalType": "bool",
											"name": "isInline",
											"type": "bool"
										},
										{
											"internalType": "bytes",
											"name": "inLine",
											"type": "bytes"
										}
									],
									"internalType": "struct NodeHandle",
									"name": "value",
									"type": "tuple"
								}
							],
							"internalType": "struct Leaf",
							"name": "",
							"type": "tuple"
						}
					],
					"stateMutability": "pure",
					"type": "function"
				},
				{
					"inputs": [
						{
							"internalType": "bytes",
							"name": "encoded",
							"type": "bytes"
						}
					],
					"name": "decodeNodeKind",
					"outputs": [
						{
							"components": [
								{
									"internalType": "bool",
									"name": "isEmpty",
									"type": "bool"
								},
								{
									"internalType": "bool",
									"name": "isLeaf",
									"type": "bool"
								},
								{
									"internalType": "bool",
									"name": "isHashedLeaf",
									"type": "bool"
								},
								{
									"internalType": "bool",
									"name": "isNibbledValueBranch",
									"type": "bool"
								},
								{
									"internalType": "bool",
									"name": "isNibbledHashedValueBranch",
									"type": "bool"
								},
								{
									"internalType": "bool",
									"name": "isNibbledBranch",
									"type": "bool"
								},
								{
									"internalType": "bool",
									"name": "isExtension",
									"type": "bool"
								},
								{
									"internalType": "bool",
									"name": "isBranch",
									"type": "bool"
								},
								{
									"internalType": "uint256",
									"name": "nibbleSize",
									"type": "uint256"
								},
								{
									"components": [
										{
											"internalType": "bytes",
											"name": "data",
											"type": "bytes"
										},
										{
											"internalType": "uint256",
											"name": "offset",
											"type": "uint256"
										}
									],
									"internalType": "struct ByteSlice",
									"name": "data",
									"type": "tuple"
								}
							],
							"internalType": "struct NodeKind",
							"name": "",
							"type": "tuple"
						}
					],
					"stateMutability": "pure",
					"type": "function"
				}
			],
			"devdoc": {
				"kind": "dev",
				"methods": {},
				"version": 1
			},
			"evm": {
				"assembly": "    /* \"contracts/trie/EthereumTrieDB.sol\":183:4469  library EthereumTrieDB {... */\n  dataSize(sub_0)\n  dataOffset(sub_0)\n  0x0b\n  dup3\n  dup3\n  dup3\n  codecopy\n  dup1\n  mload\n  0x00\n  byte\n  0x73\n  eq\n  tag_1\n  jumpi\n  mstore(0x00, 0x4e487b7100000000000000000000000000000000000000000000000000000000)\n  mstore(0x04, 0x00)\n  revert(0x00, 0x24)\ntag_1:\n  mstore(0x00, address)\n  0x73\n  dup2\n  mstore8\n  dup3\n  dup2\n  return\nstop\n\nsub_0: assembly {\n        /* \"contracts/trie/EthereumTrieDB.sol\":183:4469  library EthereumTrieDB {... */\n      eq(address, deployTimeAddress())\n      mstore(0x40, 0x80)\n      jumpi(tag_1, lt(calldatasize, 0x04))\n      shr(0xe0, calldataload(0x00))\n      dup1\n      0x91648ac5\n      eq\n      tag_2\n      jumpi\n      dup1\n      0xa948b670\n      eq\n      tag_3\n      jumpi\n      dup1\n      0xba1daf93\n      eq\n      tag_4\n      jumpi\n      dup1\n      0xcbef80f1\n      eq\n      tag_5\n      jumpi\n    tag_1:\n      0x00\n      dup1\n      revert\n        /* \"contracts/trie/EthereumTrieDB.sol\":449:1610  function decodeNodeKind(... */\n    tag_2:\n      tag_6\n      0x04\n      dup1\n      calldatasize\n      sub\n      dup2\n      add\n      swap1\n      tag_7\n      swap2\n      swap1\n      tag_8\n      jump\t// in\n    tag_7:\n      tag_9\n      jump\t// in\n    tag_6:\n      mload(0x40)\n      tag_10\n      swap2\n      swap1\n      tag_11\n      jump\t// in\n    tag_10:\n      mload(0x40)\n      dup1\n      swap2\n      sub\n      swap1\n      return\n        /* \"contracts/trie/EthereumTrieDB.sol\":2185:2976  function decodeExtension(... */\n    tag_3:\n      tag_12\n      0x04\n      dup1\n      calldatasize\n      sub\n      dup2\n      add\n      swap1\n      tag_13\n      swap2\n      swap1\n      tag_14\n      jump\t// in\n    tag_13:\n      tag_15\n      jump\t// in\n    tag_12:\n      mload(0x40)\n      tag_16\n      swap2\n      swap1\n      tag_17\n      jump\t// in\n    tag_16:\n      mload(0x40)\n      dup1\n      swap2\n      sub\n      swap1\n      return\n        /* \"contracts/trie/EthereumTrieDB.sol\":1616:2179  function decodeLeaf(... */\n    tag_4:\n      tag_18\n      0x04\n      dup1\n      calldatasize\n      sub\n      dup2\n      add\n      swap1\n      tag_19\n      swap2\n      swap1\n      tag_14\n      jump\t// in\n    tag_19:\n      tag_20\n      jump\t// in\n    tag_18:\n      mload(0x40)\n      tag_21\n      swap2\n      swap1\n      tag_22\n      jump\t// in\n    tag_21:\n      mload(0x40)\n      dup1\n      swap2\n      sub\n      swap1\n      return\n        /* \"contracts/trie/EthereumTrieDB.sol\":2982:4317  function decodeBranch(... */\n    tag_5:\n      tag_23\n      0x04\n      dup1\n      calldatasize\n      sub\n      dup2\n      add\n      swap1\n      tag_24\n      swap2\n      swap1\n      tag_14\n      jump\t// in\n    tag_24:\n      tag_25\n      jump\t// in\n    tag_23:\n      mload(0x40)\n      tag_26\n      swap2\n      swap1\n      tag_27\n      jump\t// in\n    tag_26:\n      mload(0x40)\n      dup1\n      swap2\n      sub\n      swap1\n      return\n        /* \"contracts/trie/EthereumTrieDB.sol\":449:1610  function decodeNodeKind(... */\n    tag_9:\n        /* \"contracts/trie/EthereumTrieDB.sol\":532:547  NodeKind memory */\n      tag_28\n      tag_29\n      jump\t// in\n    tag_28:\n        /* \"contracts/trie/EthereumTrieDB.sol\":559:579  NodeKind memory node */\n      tag_31\n      tag_29\n      jump\t// in\n    tag_31:\n        /* \"contracts/trie/EthereumTrieDB.sol\":589:611  ByteSlice memory input */\n      0x00\n        /* \"contracts/trie/EthereumTrieDB.sol\":614:635  ByteSlice(encoded, 0) */\n      mload(0x40)\n      dup1\n      0x40\n      add\n      0x40\n      mstore\n      dup1\n        /* \"contracts/trie/EthereumTrieDB.sol\":624:631  encoded */\n      dup6\n        /* \"contracts/trie/EthereumTrieDB.sol\":614:635  ByteSlice(encoded, 0) */\n      dup2\n      mstore\n      0x20\n      add\n        /* \"contracts/trie/EthereumTrieDB.sol\":633:634  0 */\n      0x00\n        /* \"contracts/trie/EthereumTrieDB.sol\":614:635  ByteSlice(encoded, 0) */\n      dup2\n      mstore\n      pop\n        /* \"contracts/trie/EthereumTrieDB.sol\":589:635  ByteSlice memory input = ByteSlice(encoded, 0) */\n      swap1\n      pop\n        /* \"contracts/trie/EthereumTrieDB.sol\":649:688  Bytes.equals(encoded, HASHED_NULL_NODE) */\n      tag_32\n        /* \"contracts/trie/EthereumTrieDB.sol\":662:669  encoded */\n      dup5\n        /* \"contracts/trie/EthereumTrieDB.sol\":671:687  HASHED_NULL_NODE */\n      mload(0x40)\n      dup1\n      0x40\n      add\n      0x40\n      mstore\n      dup1\n      0x20\n      dup2\n      mstore\n      0x20\n      add\n      0x56e81f171bcc55a6ff8345e692c0f86e5b48e01b996cadc001622fb5e363b421\n      dup2\n      mstore\n      pop\n        /* \"contracts/trie/EthereumTrieDB.sol\":649:661  Bytes.equals */\n      tag_33\n        /* \"contracts/trie/EthereumTrieDB.sol\":649:688  Bytes.equals(encoded, HASHED_NULL_NODE) */\n      jump\t// in\n    tag_32:\n        /* \"contracts/trie/EthereumTrieDB.sol\":645:759  if (Bytes.equals(encoded, HASHED_NULL_NODE)) {... */\n      iszero\n      tag_34\n      jumpi\n        /* \"contracts/trie/EthereumTrieDB.sol\":719:723  true */\n      0x01\n        /* \"contracts/trie/EthereumTrieDB.sol\":704:708  node */\n      dup3\n        /* \"contracts/trie/EthereumTrieDB.sol\":704:716  node.isEmpty */\n      0x00\n      add\n        /* \"contracts/trie/EthereumTrieDB.sol\":704:723  node.isEmpty = true */\n      swap1\n      iszero\n      iszero\n      swap1\n      dup2\n      iszero\n      iszero\n      dup2\n      mstore\n      pop\n      pop\n        /* \"contracts/trie/EthereumTrieDB.sol\":744:748  node */\n      dup2\n        /* \"contracts/trie/EthereumTrieDB.sol\":737:748  return node */\n      swap3\n      pop\n      pop\n      pop\n      jump(tag_30)\n        /* \"contracts/trie/EthereumTrieDB.sol\":645:759  if (Bytes.equals(encoded, HASHED_NULL_NODE)) {... */\n    tag_34:\n        /* \"contracts/trie/EthereumTrieDB.sol\":768:803  RLPReader.RLPItem[] memory itemList */\n      0x00\n        /* \"contracts/trie/EthereumTrieDB.sol\":806:834  encoded.toRlpItem().toList() */\n      tag_35\n        /* \"contracts/trie/EthereumTrieDB.sol\":806:825  encoded.toRlpItem() */\n      tag_36\n        /* \"contracts/trie/EthereumTrieDB.sol\":806:813  encoded */\n      dup7\n        /* \"contracts/trie/EthereumTrieDB.sol\":806:823  encoded.toRlpItem */\n      tag_37\n        /* \"contracts/trie/EthereumTrieDB.sol\":806:825  encoded.toRlpItem() */\n      jump\t// in\n    tag_36:\n        /* \"contracts/trie/EthereumTrieDB.sol\":806:832  encoded.toRlpItem().toList */\n      tag_38\n        /* \"contracts/trie/EthereumTrieDB.sol\":806:834  encoded.toRlpItem().toList() */\n      jump\t// in\n    tag_35:\n        /* \"contracts/trie/EthereumTrieDB.sol\":768:834  RLPReader.RLPItem[] memory itemList = encoded.toRlpItem().toList() */\n      swap1\n      pop\n        /* \"contracts/trie/EthereumTrieDB.sol\":844:860  uint256 numItems */\n      0x00\n        /* \"contracts/trie/EthereumTrieDB.sol\":863:871  itemList */\n      dup2\n        /* \"contracts/trie/EthereumTrieDB.sol\":863:878  itemList.length */\n      mload\n        /* \"contracts/trie/EthereumTrieDB.sol\":844:878  uint256 numItems = itemList.length */\n      swap1\n      pop\n        /* \"contracts/trie/EthereumTrieDB.sol\":904:905  0 */\n      0x00\n        /* \"contracts/trie/EthereumTrieDB.sol\":892:900  numItems */\n      dup2\n        /* \"contracts/trie/EthereumTrieDB.sol\":892:905  numItems == 0 */\n      sub\n        /* \"contracts/trie/EthereumTrieDB.sol\":888:1556  if (numItems == 0) {... */\n      tag_39\n      jumpi\n        /* \"contracts/trie/EthereumTrieDB.sol\":936:940  true */\n      0x01\n        /* \"contracts/trie/EthereumTrieDB.sol\":921:925  node */\n      dup5\n        /* \"contracts/trie/EthereumTrieDB.sol\":921:933  node.isEmpty */\n      0x00\n      add\n        /* \"contracts/trie/EthereumTrieDB.sol\":921:940  node.isEmpty = true */\n      swap1\n      iszero\n      iszero\n      swap1\n      dup2\n      iszero\n      iszero\n      dup2\n      mstore\n      pop\n      pop\n        /* \"contracts/trie/EthereumTrieDB.sol\":961:965  node */\n      dup4\n        /* \"contracts/trie/EthereumTrieDB.sol\":954:965  return node */\n      swap5\n      pop\n      pop\n      pop\n      pop\n      pop\n      jump(tag_30)\n        /* \"contracts/trie/EthereumTrieDB.sol\":888:1556  if (numItems == 0) {... */\n    tag_39:\n        /* \"contracts/trie/EthereumTrieDB.sol\":998:999  2 */\n      0x02\n        /* \"contracts/trie/EthereumTrieDB.sol\":986:994  numItems */\n      dup2\n        /* \"contracts/trie/EthereumTrieDB.sol\":986:999  numItems == 2 */\n      sub\n        /* \"contracts/trie/EthereumTrieDB.sol\":982:1556  if (numItems == 2) {... */\n      tag_41\n      jumpi\n        /* \"contracts/trie/EthereumTrieDB.sol\":1059:1075  bytes memory key */\n      0x00\n        /* \"contracts/trie/EthereumTrieDB.sol\":1078:1099  itemList[0].toBytes() */\n      tag_42\n        /* \"contracts/trie/EthereumTrieDB.sol\":1078:1086  itemList */\n      dup4\n        /* \"contracts/trie/EthereumTrieDB.sol\":1087:1088  0 */\n      0x00\n        /* \"contracts/trie/EthereumTrieDB.sol\":1078:1089  itemList[0] */\n      dup2\n      mload\n      dup2\n      lt\n      tag_43\n      jumpi\n      tag_44\n      tag_45\n      jump\t// in\n    tag_44:\n    tag_43:\n      0x20\n      mul\n      0x20\n      add\n      add\n      mload\n        /* \"contracts/trie/EthereumTrieDB.sol\":1078:1097  itemList[0].toBytes */\n      tag_46\n        /* \"contracts/trie/EthereumTrieDB.sol\":1078:1099  itemList[0].toBytes() */\n      jump\t// in\n    tag_42:\n        /* \"contracts/trie/EthereumTrieDB.sol\":1059:1099  bytes memory key = itemList[0].toBytes() */\n      swap1\n      pop\n        /* \"contracts/trie/EthereumTrieDB.sol\":1113:1127  uint256 prefix */\n      0x00\n        /* \"contracts/trie/EthereumTrieDB.sol\":1205:1207  32 */\n      0x20\n        /* \"contracts/trie/EthereumTrieDB.sol\":1200:1203  key */\n      dup3\n        /* \"contracts/trie/EthereumTrieDB.sol\":1196:1208  add(key, 32) */\n      add\n        /* \"contracts/trie/EthereumTrieDB.sol\":1190:1209  mload(add(key, 32)) */\n      mload\n        /* \"contracts/trie/EthereumTrieDB.sol\":1185:1188  248 */\n      0xf8\n        /* \"contracts/trie/EthereumTrieDB.sol\":1181:1210  shr(248, mload(add(key, 32))) */\n      shr\n        /* \"contracts/trie/EthereumTrieDB.sol\":1244:1249  first */\n      dup1\n        /* \"contracts/trie/EthereumTrieDB.sol\":1241:1242  4 */\n      0x04\n        /* \"contracts/trie/EthereumTrieDB.sol\":1237:1250  shr(4, first) */\n      shr\n        /* \"contracts/trie/EthereumTrieDB.sol\":1227:1250  prefix := shr(4, first) */\n      swap2\n      pop\n        /* \"contracts/trie/EthereumTrieDB.sol\":1150:1264  {... */\n      pop\n        /* \"contracts/trie/EthereumTrieDB.sol\":1291:1292  2 */\n      0x02\n        /* \"contracts/trie/EthereumTrieDB.sol\":1281:1287  prefix */\n      dup2\n        /* \"contracts/trie/EthereumTrieDB.sol\":1281:1292  prefix == 2 */\n      eq\n        /* \"contracts/trie/EthereumTrieDB.sol\":1281:1307  prefix == 2 || prefix == 3 */\n      dup1\n      tag_47\n      jumpi\n      pop\n        /* \"contracts/trie/EthereumTrieDB.sol\":1306:1307  3 */\n      0x03\n        /* \"contracts/trie/EthereumTrieDB.sol\":1296:1302  prefix */\n      dup2\n        /* \"contracts/trie/EthereumTrieDB.sol\":1296:1307  prefix == 3 */\n      eq\n        /* \"contracts/trie/EthereumTrieDB.sol\":1281:1307  prefix == 2 || prefix == 3 */\n    tag_47:\n        /* \"contracts/trie/EthereumTrieDB.sol\":1277:1422  if (prefix == 2 || prefix == 3) {... */\n      iszero\n      tag_48\n      jumpi\n        /* \"contracts/trie/EthereumTrieDB.sol\":1341:1345  true */\n      0x01\n        /* \"contracts/trie/EthereumTrieDB.sol\":1327:1331  node */\n      dup7\n        /* \"contracts/trie/EthereumTrieDB.sol\":1327:1338  node.isLeaf */\n      0x20\n      add\n        /* \"contracts/trie/EthereumTrieDB.sol\":1327:1345  node.isLeaf = true */\n      swap1\n      iszero\n      iszero\n      swap1\n      dup2\n      iszero\n      iszero\n      dup2\n      mstore\n      pop\n      pop\n        /* \"contracts/trie/EthereumTrieDB.sol\":1277:1422  if (prefix == 2 || prefix == 3) {... */\n      jump(tag_49)\n    tag_48:\n        /* \"contracts/trie/EthereumTrieDB.sol\":1403:1407  true */\n      0x01\n        /* \"contracts/trie/EthereumTrieDB.sol\":1384:1388  node */\n      dup7\n        /* \"contracts/trie/EthereumTrieDB.sol\":1384:1400  node.isExtension */\n      0xc0\n      add\n        /* \"contracts/trie/EthereumTrieDB.sol\":1384:1407  node.isExtension = true */\n      swap1\n      iszero\n      iszero\n      swap1\n      dup2\n      iszero\n      iszero\n      dup2\n      mstore\n      pop\n      pop\n        /* \"contracts/trie/EthereumTrieDB.sol\":1277:1422  if (prefix == 2 || prefix == 3) {... */\n    tag_49:\n        /* \"contracts/trie/EthereumTrieDB.sol\":1001:1432  {... */\n      pop\n      pop\n        /* \"contracts/trie/EthereumTrieDB.sol\":982:1556  if (numItems == 2) {... */\n      jump(tag_50)\n    tag_41:\n        /* \"contracts/trie/EthereumTrieDB.sol\":1454:1456  17 */\n      0x11\n        /* \"contracts/trie/EthereumTrieDB.sol\":1442:1450  numItems */\n      dup2\n        /* \"contracts/trie/EthereumTrieDB.sol\":1442:1456  numItems == 17 */\n      sub\n        /* \"contracts/trie/EthereumTrieDB.sol\":1438:1556  if (numItems == 17) {... */\n      tag_51\n      jumpi\n        /* \"contracts/trie/EthereumTrieDB.sol\":1488:1492  true */\n      0x01\n        /* \"contracts/trie/EthereumTrieDB.sol\":1472:1476  node */\n      dup5\n        /* \"contracts/trie/EthereumTrieDB.sol\":1472:1485  node.isBranch */\n      0xe0\n      add\n        /* \"contracts/trie/EthereumTrieDB.sol\":1472:1492  node.isBranch = true */\n      swap1\n      iszero\n      iszero\n      swap1\n      dup2\n      iszero\n      iszero\n      dup2\n      mstore\n      pop\n      pop\n        /* \"contracts/trie/EthereumTrieDB.sol\":1438:1556  if (numItems == 17) {... */\n      jump(tag_52)\n    tag_51:\n        /* \"contracts/trie/EthereumTrieDB.sol\":1523:1545  revert(\"Invalid data\") */\n      mload(0x40)\n      0x08c379a000000000000000000000000000000000000000000000000000000000\n      dup2\n      mstore\n      0x04\n      add\n      tag_53\n      swap1\n      tag_54\n      jump\t// in\n    tag_53:\n      mload(0x40)\n      dup1\n      swap2\n      sub\n      swap1\n      revert\n        /* \"contracts/trie/EthereumTrieDB.sol\":1438:1556  if (numItems == 17) {... */\n    tag_52:\n        /* \"contracts/trie/EthereumTrieDB.sol\":982:1556  if (numItems == 2) {... */\n    tag_50:\n        /* \"contracts/trie/EthereumTrieDB.sol\":1577:1582  input */\n      dup3\n        /* \"contracts/trie/EthereumTrieDB.sol\":1565:1569  node */\n      dup5\n        /* \"contracts/trie/EthereumTrieDB.sol\":1565:1574  node.data */\n      0x0120\n      add\n        /* \"contracts/trie/EthereumTrieDB.sol\":1565:1582  node.data = input */\n      dup2\n      swap1\n      mstore\n      pop\n        /* \"contracts/trie/EthereumTrieDB.sol\":1599:1603  node */\n      dup4\n        /* \"contracts/trie/EthereumTrieDB.sol\":1592:1603  return node */\n      swap5\n      pop\n      pop\n      pop\n      pop\n      pop\n        /* \"contracts/trie/EthereumTrieDB.sol\":449:1610  function decodeNodeKind(... */\n    tag_30:\n      swap2\n      swap1\n      pop\n      jump\t// out\n        /* \"contracts/trie/EthereumTrieDB.sol\":2185:2976  function decodeExtension(... */\n    tag_15:\n        /* \"contracts/trie/EthereumTrieDB.sol\":2269:2285  Extension memory */\n      tag_55\n      tag_56\n      jump\t// in\n    tag_55:\n        /* \"contracts/trie/EthereumTrieDB.sol\":2297:2323  Extension memory extension */\n      tag_58\n      tag_56\n      jump\t// in\n    tag_58:\n        /* \"contracts/trie/EthereumTrieDB.sol\":2333:2367  RLPReader.RLPItem[] memory decoded */\n      0x00\n        /* \"contracts/trie/EthereumTrieDB.sol\":2370:2457  node... */\n      tag_59\n        /* \"contracts/trie/EthereumTrieDB.sol\":2370:2435  node... */\n      tag_60\n        /* \"contracts/trie/EthereumTrieDB.sol\":2370:2374  node */\n      dup6\n        /* \"contracts/trie/EthereumTrieDB.sol\":2370:2392  node... */\n      0x0120\n      add\n      mload\n        /* \"contracts/trie/EthereumTrieDB.sol\":2370:2410  node... */\n      0x00\n      add\n      mload\n        /* \"contracts/trie/EthereumTrieDB.sol\":2370:2433  node... */\n      tag_37\n        /* \"contracts/trie/EthereumTrieDB.sol\":2370:2435  node... */\n      jump\t// in\n    tag_60:\n        /* \"contracts/trie/EthereumTrieDB.sol\":2370:2455  node... */\n      tag_38\n        /* \"contracts/trie/EthereumTrieDB.sol\":2370:2457  node... */\n      jump\t// in\n    tag_59:\n        /* \"contracts/trie/EthereumTrieDB.sol\":2333:2457  RLPReader.RLPItem[] memory decoded = node... */\n      swap1\n      pop\n        /* \"contracts/trie/EthereumTrieDB.sol\":2467:2484  bytes memory data */\n      0x00\n        /* \"contracts/trie/EthereumTrieDB.sol\":2487:2507  decoded[1].toBytes() */\n      tag_61\n        /* \"contracts/trie/EthereumTrieDB.sol\":2487:2494  decoded */\n      dup3\n        /* \"contracts/trie/EthereumTrieDB.sol\":2495:2496  1 */\n      0x01\n        /* \"contracts/trie/EthereumTrieDB.sol\":2487:2497  decoded[1] */\n      dup2\n      mload\n      dup2\n      lt\n      tag_62\n      jumpi\n      tag_63\n      tag_45\n      jump\t// in\n    tag_63:\n    tag_62:\n      0x20\n      mul\n      0x20\n      add\n      add\n      mload\n        /* \"contracts/trie/EthereumTrieDB.sol\":2487:2505  decoded[1].toBytes */\n      tag_46\n        /* \"contracts/trie/EthereumTrieDB.sol\":2487:2507  decoded[1].toBytes() */\n      jump\t// in\n    tag_61:\n        /* \"contracts/trie/EthereumTrieDB.sol\":2467:2507  bytes memory data = decoded[1].toBytes() */\n      swap1\n      pop\n        /* \"contracts/trie/EthereumTrieDB.sol\":2517:2528  uint8 isOdd */\n      0x00\n        /* \"contracts/trie/EthereumTrieDB.sol\":2569:2573  0x01 */\n      0x01\n        /* \"contracts/trie/EthereumTrieDB.sol\":2564:2565  4 */\n      0x04\n        /* \"contracts/trie/EthereumTrieDB.sol\":2537:2557  decoded[0].toBytes() */\n      tag_64\n        /* \"contracts/trie/EthereumTrieDB.sol\":2537:2544  decoded */\n      dup6\n        /* \"contracts/trie/EthereumTrieDB.sol\":2545:2546  0 */\n      0x00\n        /* \"contracts/trie/EthereumTrieDB.sol\":2537:2547  decoded[0] */\n      dup2\n      mload\n      dup2\n      lt\n      tag_65\n      jumpi\n      tag_66\n      tag_45\n      jump\t// in\n    tag_66:\n    tag_65:\n      0x20\n      mul\n      0x20\n      add\n      add\n      mload\n        /* \"contracts/trie/EthereumTrieDB.sol\":2537:2555  decoded[0].toBytes */\n      tag_46\n        /* \"contracts/trie/EthereumTrieDB.sol\":2537:2557  decoded[0].toBytes() */\n      jump\t// in\n    tag_64:\n        /* \"contracts/trie/EthereumTrieDB.sol\":2558:2559  0 */\n      0x00\n        /* \"contracts/trie/EthereumTrieDB.sol\":2537:2560  decoded[0].toBytes()[0] */\n      dup2\n      mload\n      dup2\n      lt\n      tag_67\n      jumpi\n      tag_68\n      tag_45\n      jump\t// in\n    tag_68:\n    tag_67:\n      0x20\n      add\n      add\n      mload\n      0xf8\n      shr\n      0xf8\n      shl\n        /* \"contracts/trie/EthereumTrieDB.sol\":2537:2565  decoded[0].toBytes()[0] >> 4 */\n      not(0xffffffffffffffffffffffffffffffffffffffffffffffffffffffffffffff)\n      and\n      swap1\n      shr\n        /* \"contracts/trie/EthereumTrieDB.sol\":2531:2566  uint8(decoded[0].toBytes()[0] >> 4) */\n      0xf8\n      shr\n        /* \"contracts/trie/EthereumTrieDB.sol\":2531:2573  uint8(decoded[0].toBytes()[0] >> 4) & 0x01 */\n      and\n        /* \"contracts/trie/EthereumTrieDB.sol\":2517:2573  uint8 isOdd = uint8(decoded[0].toBytes()[0] >> 4) & 0x01 */\n      swap1\n      pop\n        /* \"contracts/trie/EthereumTrieDB.sol\":2693:2798  NibbleSlice(... */\n      mload(0x40)\n      dup1\n      0x40\n      add\n      0x40\n      mstore\n      dup1\n        /* \"contracts/trie/EthereumTrieDB.sol\":2718:2769  Bytes.substr(decoded[0].toBytes(), (isOdd + 1) % 2) */\n      tag_69\n        /* \"contracts/trie/EthereumTrieDB.sol\":2731:2751  decoded[0].toBytes() */\n      tag_70\n        /* \"contracts/trie/EthereumTrieDB.sol\":2731:2738  decoded */\n      dup7\n        /* \"contracts/trie/EthereumTrieDB.sol\":2739:2740  0 */\n      0x00\n        /* \"contracts/trie/EthereumTrieDB.sol\":2731:2741  decoded[0] */\n      dup2\n      mload\n      dup2\n      lt\n      tag_71\n      jumpi\n      tag_72\n      tag_45\n      jump\t// in\n    tag_72:\n    tag_71:\n      0x20\n      mul\n      0x20\n      add\n      add\n      mload\n        /* \"contracts/trie/EthereumTrieDB.sol\":2731:2749  decoded[0].toBytes */\n      tag_46\n        /* \"contracts/trie/EthereumTrieDB.sol\":2731:2751  decoded[0].toBytes() */\n      jump\t// in\n    tag_70:\n        /* \"contracts/trie/EthereumTrieDB.sol\":2767:2768  2 */\n      0x02\n        /* \"contracts/trie/EthereumTrieDB.sol\":2762:2763  1 */\n      0x01\n        /* \"contracts/trie/EthereumTrieDB.sol\":2754:2759  isOdd */\n      dup7\n        /* \"contracts/trie/EthereumTrieDB.sol\":2754:2763  isOdd + 1 */\n      tag_73\n      swap2\n      swap1\n      tag_74\n      jump\t// in\n    tag_73:\n        /* \"contracts/trie/EthereumTrieDB.sol\":2753:2768  (isOdd + 1) % 2 */\n      tag_75\n      swap2\n      swap1\n      tag_76\n      jump\t// in\n    tag_75:\n        /* \"contracts/trie/EthereumTrieDB.sol\":2718:2769  Bytes.substr(decoded[0].toBytes(), (isOdd + 1) % 2) */\n      0xff\n      and\n        /* \"contracts/trie/EthereumTrieDB.sol\":2718:2730  Bytes.substr */\n      tag_77\n        /* \"contracts/trie/EthereumTrieDB.sol\":2718:2769  Bytes.substr(decoded[0].toBytes(), (isOdd + 1) % 2) */\n      jump\t// in\n    tag_69:\n        /* \"contracts/trie/EthereumTrieDB.sol\":2693:2798  NibbleSlice(... */\n      dup2\n      mstore\n      0x20\n      add\n        /* \"contracts/trie/EthereumTrieDB.sol\":2783:2788  isOdd */\n      dup3\n        /* \"contracts/trie/EthereumTrieDB.sol\":2693:2798  NibbleSlice(... */\n      0xff\n      and\n      dup2\n      mstore\n      pop\n        /* \"contracts/trie/EthereumTrieDB.sol\":2677:2686  extension */\n      dup5\n        /* \"contracts/trie/EthereumTrieDB.sol\":2677:2690  extension.key */\n      0x00\n      add\n        /* \"contracts/trie/EthereumTrieDB.sol\":2677:2798  extension.key = NibbleSlice(... */\n      dup2\n      swap1\n      mstore\n      pop\n        /* \"contracts/trie/EthereumTrieDB.sol\":2825:2943  NodeHandle(... */\n      mload(0x40)\n      dup1\n      0x80\n      add\n      0x40\n      mstore\n      dup1\n        /* \"contracts/trie/EthereumTrieDB.sol\":2849:2853  true */\n      0x01\n        /* \"contracts/trie/EthereumTrieDB.sol\":2825:2943  NodeHandle(... */\n      iszero\n      iszero\n      dup2\n      mstore\n      0x20\n      add\n        /* \"contracts/trie/EthereumTrieDB.sol\":2867:2888  Bytes.toBytes32(data) */\n      tag_78\n        /* \"contracts/trie/EthereumTrieDB.sol\":2883:2887  data */\n      dup5\n        /* \"contracts/trie/EthereumTrieDB.sol\":2867:2882  Bytes.toBytes32 */\n      tag_79\n        /* \"contracts/trie/EthereumTrieDB.sol\":2867:2888  Bytes.toBytes32(data) */\n      jump\t// in\n    tag_78:\n        /* \"contracts/trie/EthereumTrieDB.sol\":2825:2943  NodeHandle(... */\n      dup2\n      mstore\n      0x20\n      add\n        /* \"contracts/trie/EthereumTrieDB.sol\":2902:2907  false */\n      0x00\n        /* \"contracts/trie/EthereumTrieDB.sol\":2825:2943  NodeHandle(... */\n      iszero\n      iszero\n      dup2\n      mstore\n      0x20\n      add\n        /* \"contracts/trie/EthereumTrieDB.sol\":2931:2932  0 */\n      0x00\n        /* \"contracts/trie/EthereumTrieDB.sol\":2921:2933  new bytes(0) */\n      0xffffffffffffffff\n      dup2\n      gt\n      iszero\n      tag_80\n      jumpi\n      tag_81\n      tag_82\n      jump\t// in\n    tag_81:\n    tag_80:\n      mload(0x40)\n      swap1\n      dup1\n      dup3\n      mstore\n      dup1\n      0x1f\n      add\n      not(0x1f)\n      and\n      0x20\n      add\n      dup3\n      add\n      0x40\n      mstore\n      dup1\n      iszero\n      tag_83\n      jumpi\n      dup2\n      0x20\n      add\n      0x01\n      dup3\n      mul\n      dup1\n      calldatasize\n      dup4\n      calldatacopy\n      dup1\n      dup3\n      add\n      swap2\n      pop\n      pop\n      swap1\n      pop\n    tag_83:\n      pop\n        /* \"contracts/trie/EthereumTrieDB.sol\":2825:2943  NodeHandle(... */\n      dup2\n      mstore\n      pop\n        /* \"contracts/trie/EthereumTrieDB.sol\":2808:2817  extension */\n      dup5\n        /* \"contracts/trie/EthereumTrieDB.sol\":2808:2822  extension.node */\n      0x20\n      add\n        /* \"contracts/trie/EthereumTrieDB.sol\":2808:2943  extension.node = NodeHandle(... */\n      dup2\n      swap1\n      mstore\n      pop\n        /* \"contracts/trie/EthereumTrieDB.sol\":2960:2969  extension */\n      dup4\n        /* \"contracts/trie/EthereumTrieDB.sol\":2953:2969  return extension */\n      swap5\n      pop\n      pop\n      pop\n      pop\n      pop\n        /* \"contracts/trie/EthereumTrieDB.sol\":2185:2976  function decodeExtension(... */\n      swap2\n      swap1\n      pop\n      jump\t// out\n        /* \"contracts/trie/EthereumTrieDB.sol\":1616:2179  function decodeLeaf(... */\n    tag_20:\n        /* \"contracts/trie/EthereumTrieDB.sol\":1695:1706  Leaf memory */\n      tag_84\n      tag_85\n      jump\t// in\n    tag_84:\n        /* \"contracts/trie/EthereumTrieDB.sol\":1718:1734  Leaf memory leaf */\n      tag_87\n      tag_85\n      jump\t// in\n    tag_87:\n        /* \"contracts/trie/EthereumTrieDB.sol\":1744:1778  RLPReader.RLPItem[] memory decoded */\n      0x00\n        /* \"contracts/trie/EthereumTrieDB.sol\":1781:1868  node... */\n      tag_88\n        /* \"contracts/trie/EthereumTrieDB.sol\":1781:1846  node... */\n      tag_89\n        /* \"contracts/trie/EthereumTrieDB.sol\":1781:1785  node */\n      dup6\n        /* \"contracts/trie/EthereumTrieDB.sol\":1781:1803  node... */\n      0x0120\n      add\n      mload\n        /* \"contracts/trie/EthereumTrieDB.sol\":1781:1821  node... */\n      0x00\n      add\n      mload\n        /* \"contracts/trie/EthereumTrieDB.sol\":1781:1844  node... */\n      tag_37\n        /* \"contracts/trie/EthereumTrieDB.sol\":1781:1846  node... */\n      jump\t// in\n    tag_89:\n        /* \"contracts/trie/EthereumTrieDB.sol\":1781:1866  node... */\n      tag_38\n        /* \"contracts/trie/EthereumTrieDB.sol\":1781:1868  node... */\n      jump\t// in\n    tag_88:\n        /* \"contracts/trie/EthereumTrieDB.sol\":1744:1868  RLPReader.RLPItem[] memory decoded = node... */\n      swap1\n      pop\n        /* \"contracts/trie/EthereumTrieDB.sol\":1878:1895  bytes memory data */\n      0x00\n        /* \"contracts/trie/EthereumTrieDB.sol\":1898:1918  decoded[1].toBytes() */\n      tag_90\n        /* \"contracts/trie/EthereumTrieDB.sol\":1898:1905  decoded */\n      dup3\n        /* \"contracts/trie/EthereumTrieDB.sol\":1906:1907  1 */\n      0x01\n        /* \"contracts/trie/EthereumTrieDB.sol\":1898:1908  decoded[1] */\n      dup2\n      mload\n      dup2\n      lt\n      tag_91\n      jumpi\n      tag_92\n      tag_45\n      jump\t// in\n    tag_92:\n    tag_91:\n      0x20\n      mul\n      0x20\n      add\n      add\n      mload\n        /* \"contracts/trie/EthereumTrieDB.sol\":1898:1916  decoded[1].toBytes */\n      tag_46\n        /* \"contracts/trie/EthereumTrieDB.sol\":1898:1918  decoded[1].toBytes() */\n      jump\t// in\n    tag_90:\n        /* \"contracts/trie/EthereumTrieDB.sol\":1878:1918  bytes memory data = decoded[1].toBytes() */\n      swap1\n      pop\n        /* \"contracts/trie/EthereumTrieDB.sol\":2033:2086  NibbleSlice(Bytes.substr(decoded[0].toBytes(), 1), 0) */\n      mload(0x40)\n      dup1\n      0x40\n      add\n      0x40\n      mstore\n      dup1\n        /* \"contracts/trie/EthereumTrieDB.sol\":2045:2082  Bytes.substr(decoded[0].toBytes(), 1) */\n      tag_93\n        /* \"contracts/trie/EthereumTrieDB.sol\":2058:2078  decoded[0].toBytes() */\n      tag_94\n        /* \"contracts/trie/EthereumTrieDB.sol\":2058:2065  decoded */\n      dup6\n        /* \"contracts/trie/EthereumTrieDB.sol\":2066:2067  0 */\n      0x00\n        /* \"contracts/trie/EthereumTrieDB.sol\":2058:2068  decoded[0] */\n      dup2\n      mload\n      dup2\n      lt\n      tag_95\n      jumpi\n      tag_96\n      tag_45\n      jump\t// in\n    tag_96:\n    tag_95:\n      0x20\n      mul\n      0x20\n      add\n      add\n      mload\n        /* \"contracts/trie/EthereumTrieDB.sol\":2058:2076  decoded[0].toBytes */\n      tag_46\n        /* \"contracts/trie/EthereumTrieDB.sol\":2058:2078  decoded[0].toBytes() */\n      jump\t// in\n    tag_94:\n        /* \"contracts/trie/EthereumTrieDB.sol\":2080:2081  1 */\n      0x01\n        /* \"contracts/trie/EthereumTrieDB.sol\":2045:2057  Bytes.substr */\n      tag_77\n        /* \"contracts/trie/EthereumTrieDB.sol\":2045:2082  Bytes.substr(decoded[0].toBytes(), 1) */\n      jump\t// in\n    tag_93:\n        /* \"contracts/trie/EthereumTrieDB.sol\":2033:2086  NibbleSlice(Bytes.substr(decoded[0].toBytes(), 1), 0) */\n      dup2\n      mstore\n      0x20\n      add\n        /* \"contracts/trie/EthereumTrieDB.sol\":2084:2085  0 */\n      0x00\n        /* \"contracts/trie/EthereumTrieDB.sol\":2033:2086  NibbleSlice(Bytes.substr(decoded[0].toBytes(), 1), 0) */\n      dup2\n      mstore\n      pop\n        /* \"contracts/trie/EthereumTrieDB.sol\":2022:2026  leaf */\n      dup4\n        /* \"contracts/trie/EthereumTrieDB.sol\":2022:2030  leaf.key */\n      0x00\n      add\n        /* \"contracts/trie/EthereumTrieDB.sol\":2022:2086  leaf.key = NibbleSlice(Bytes.substr(decoded[0].toBytes(), 1), 0) */\n      dup2\n      swap1\n      mstore\n      pop\n        /* \"contracts/trie/EthereumTrieDB.sol\":2109:2150  NodeHandle(false, bytes32(0), true, data) */\n      mload(0x40)\n      dup1\n      0x80\n      add\n      0x40\n      mstore\n      dup1\n        /* \"contracts/trie/EthereumTrieDB.sol\":2120:2125  false */\n      0x00\n        /* \"contracts/trie/EthereumTrieDB.sol\":2109:2150  NodeHandle(false, bytes32(0), true, data) */\n      iszero\n      iszero\n      dup2\n      mstore\n      0x20\n      add\n        /* \"contracts/trie/EthereumTrieDB.sol\":2135:2136  0 */\n      0x00\n        /* \"contracts/trie/EthereumTrieDB.sol\":2127:2137  bytes32(0) */\n      dup1\n      shl\n        /* \"contracts/trie/EthereumTrieDB.sol\":2109:2150  NodeHandle(false, bytes32(0), true, data) */\n      dup2\n      mstore\n      0x20\n      add\n        /* \"contracts/trie/EthereumTrieDB.sol\":2139:2143  true */\n      0x01\n        /* \"contracts/trie/EthereumTrieDB.sol\":2109:2150  NodeHandle(false, bytes32(0), true, data) */\n      iszero\n      iszero\n      dup2\n      mstore\n      0x20\n      add\n        /* \"contracts/trie/EthereumTrieDB.sol\":2145:2149  data */\n      dup3\n        /* \"contracts/trie/EthereumTrieDB.sol\":2109:2150  NodeHandle(false, bytes32(0), true, data) */\n      dup2\n      mstore\n      pop\n        /* \"contracts/trie/EthereumTrieDB.sol\":2096:2100  leaf */\n      dup4\n        /* \"contracts/trie/EthereumTrieDB.sol\":2096:2106  leaf.value */\n      0x20\n      add\n        /* \"contracts/trie/EthereumTrieDB.sol\":2096:2150  leaf.value = NodeHandle(false, bytes32(0), true, data) */\n      dup2\n      swap1\n      mstore\n      pop\n        /* \"contracts/trie/EthereumTrieDB.sol\":2168:2172  leaf */\n      dup3\n        /* \"contracts/trie/EthereumTrieDB.sol\":2161:2172  return leaf */\n      swap4\n      pop\n      pop\n      pop\n      pop\n        /* \"contracts/trie/EthereumTrieDB.sol\":1616:2179  function decodeLeaf(... */\n      swap2\n      swap1\n      pop\n      jump\t// out\n        /* \"contracts/trie/EthereumTrieDB.sol\":2982:4317  function decodeBranch(... */\n    tag_25:\n        /* \"contracts/trie/EthereumTrieDB.sol\":3063:3076  Branch memory */\n      tag_97\n      tag_98\n      jump\t// in\n    tag_97:\n        /* \"contracts/trie/EthereumTrieDB.sol\":3088:3108  Branch memory branch */\n      tag_100\n      tag_98\n      jump\t// in\n    tag_100:\n        /* \"contracts/trie/EthereumTrieDB.sol\":3118:3152  RLPReader.RLPItem[] memory decoded */\n      0x00\n        /* \"contracts/trie/EthereumTrieDB.sol\":3155:3242  node... */\n      tag_101\n        /* \"contracts/trie/EthereumTrieDB.sol\":3155:3220  node... */\n      tag_102\n        /* \"contracts/trie/EthereumTrieDB.sol\":3155:3159  node */\n      dup6\n        /* \"contracts/trie/EthereumTrieDB.sol\":3155:3177  node... */\n      0x0120\n      add\n      mload\n        /* \"contracts/trie/EthereumTrieDB.sol\":3155:3195  node... */\n      0x00\n      add\n      mload\n        /* \"contracts/trie/EthereumTrieDB.sol\":3155:3218  node... */\n      tag_37\n        /* \"contracts/trie/EthereumTrieDB.sol\":3155:3220  node... */\n      jump\t// in\n    tag_102:\n        /* \"contracts/trie/EthereumTrieDB.sol\":3155:3240  node... */\n      tag_38\n        /* \"contracts/trie/EthereumTrieDB.sol\":3155:3242  node... */\n      jump\t// in\n    tag_101:\n        /* \"contracts/trie/EthereumTrieDB.sol\":3118:3242  RLPReader.RLPItem[] memory decoded = node... */\n      swap1\n      pop\n        /* \"contracts/trie/EthereumTrieDB.sol\":3253:3290  NodeHandleOption[16] memory childrens */\n      tag_103\n      tag_104\n      jump\t// in\n    tag_103:\n        /* \"contracts/trie/EthereumTrieDB.sol\":3306:3315  uint256 i */\n      0x00\n        /* \"contracts/trie/EthereumTrieDB.sol\":3301:3870  for (uint256 i = 0; i < 16; i++) {... */\n    tag_105:\n        /* \"contracts/trie/EthereumTrieDB.sol\":3325:3327  16 */\n      0x10\n        /* \"contracts/trie/EthereumTrieDB.sol\":3321:3322  i */\n      dup2\n        /* \"contracts/trie/EthereumTrieDB.sol\":3321:3327  i < 16 */\n      lt\n        /* \"contracts/trie/EthereumTrieDB.sol\":3301:3870  for (uint256 i = 0; i < 16; i++) {... */\n      iszero\n      tag_106\n      jumpi\n        /* \"contracts/trie/EthereumTrieDB.sol\":3348:3372  bytes memory dataAsBytes */\n      0x00\n        /* \"contracts/trie/EthereumTrieDB.sol\":3375:3395  decoded[i].toBytes() */\n      tag_108\n        /* \"contracts/trie/EthereumTrieDB.sol\":3375:3382  decoded */\n      dup5\n        /* \"contracts/trie/EthereumTrieDB.sol\":3383:3384  i */\n      dup4\n        /* \"contracts/trie/EthereumTrieDB.sol\":3375:3385  decoded[i] */\n      dup2\n      mload\n      dup2\n      lt\n      tag_109\n      jumpi\n      tag_110\n      tag_45\n      jump\t// in\n    tag_110:\n    tag_109:\n      0x20\n      mul\n      0x20\n      add\n      add\n      mload\n        /* \"contracts/trie/EthereumTrieDB.sol\":3375:3393  decoded[i].toBytes */\n      tag_46\n        /* \"contracts/trie/EthereumTrieDB.sol\":3375:3395  decoded[i].toBytes() */\n      jump\t// in\n    tag_108:\n        /* \"contracts/trie/EthereumTrieDB.sol\":3348:3395  bytes memory dataAsBytes = decoded[i].toBytes() */\n      swap1\n      pop\n        /* \"contracts/trie/EthereumTrieDB.sol\":3435:3437  32 */\n      0x20\n        /* \"contracts/trie/EthereumTrieDB.sol\":3413:3424  dataAsBytes */\n      dup2\n        /* \"contracts/trie/EthereumTrieDB.sol\":3413:3431  dataAsBytes.length */\n      mload\n        /* \"contracts/trie/EthereumTrieDB.sol\":3413:3437  dataAsBytes.length != 32 */\n      eq\n        /* \"contracts/trie/EthereumTrieDB.sol\":3409:3860  if (dataAsBytes.length != 32) {... */\n      tag_111\n      jumpi\n        /* \"contracts/trie/EthereumTrieDB.sol\":3472:3605  NodeHandleOption(... */\n      mload(0x40)\n      dup1\n      0x40\n      add\n      0x40\n      mstore\n      dup1\n        /* \"contracts/trie/EthereumTrieDB.sol\":3510:3515  false */\n      0x00\n        /* \"contracts/trie/EthereumTrieDB.sol\":3472:3605  NodeHandleOption(... */\n      iszero\n      iszero\n      dup2\n      mstore\n      0x20\n      add\n        /* \"contracts/trie/EthereumTrieDB.sol\":3537:3587  NodeHandle(false, bytes32(0), false, new bytes(0)) */\n      mload(0x40)\n      dup1\n      0x80\n      add\n      0x40\n      mstore\n      dup1\n        /* \"contracts/trie/EthereumTrieDB.sol\":3548:3553  false */\n      0x00\n        /* \"contracts/trie/EthereumTrieDB.sol\":3537:3587  NodeHandle(false, bytes32(0), false, new bytes(0)) */\n      iszero\n      iszero\n      dup2\n      mstore\n      0x20\n      add\n        /* \"contracts/trie/EthereumTrieDB.sol\":3563:3564  0 */\n      0x00\n        /* \"contracts/trie/EthereumTrieDB.sol\":3555:3565  bytes32(0) */\n      dup1\n      shl\n        /* \"contracts/trie/EthereumTrieDB.sol\":3537:3587  NodeHandle(false, bytes32(0), false, new bytes(0)) */\n      dup2\n      mstore\n      0x20\n      add\n        /* \"contracts/trie/EthereumTrieDB.sol\":3567:3572  false */\n      0x00\n        /* \"contracts/trie/EthereumTrieDB.sol\":3537:3587  NodeHandle(false, bytes32(0), false, new bytes(0)) */\n      iszero\n      iszero\n      dup2\n      mstore\n      0x20\n      add\n        /* \"contracts/trie/EthereumTrieDB.sol\":3584:3585  0 */\n      0x00\n        /* \"contracts/trie/EthereumTrieDB.sol\":3574:3586  new bytes(0) */\n      0xffffffffffffffff\n      dup2\n      gt\n      iszero\n      tag_112\n      jumpi\n      tag_113\n      tag_82\n      jump\t// in\n    tag_113:\n    tag_112:\n      mload(0x40)\n      swap1\n      dup1\n      dup3\n      mstore\n      dup1\n      0x1f\n      add\n      not(0x1f)\n      and\n      0x20\n      add\n      dup3\n      add\n      0x40\n      mstore\n      dup1\n      iszero\n      tag_114\n      jumpi\n      dup2\n      0x20\n      add\n      0x01\n      dup3\n      mul\n      dup1\n      calldatasize\n      dup4\n      calldatacopy\n      dup1\n      dup3\n      add\n      swap2\n      pop\n      pop\n      swap1\n      pop\n    tag_114:\n      pop\n        /* \"contracts/trie/EthereumTrieDB.sol\":3537:3587  NodeHandle(false, bytes32(0), false, new bytes(0)) */\n      dup2\n      mstore\n      pop\n        /* \"contracts/trie/EthereumTrieDB.sol\":3472:3605  NodeHandleOption(... */\n      dup2\n      mstore\n      pop\n        /* \"contracts/trie/EthereumTrieDB.sol\":3457:3466  childrens */\n      dup4\n        /* \"contracts/trie/EthereumTrieDB.sol\":3467:3468  i */\n      dup4\n        /* \"contracts/trie/EthereumTrieDB.sol\":3457:3469  childrens[i] */\n      0x10\n      dup2\n      lt\n      tag_115\n      jumpi\n      tag_116\n      tag_45\n      jump\t// in\n    tag_116:\n    tag_115:\n      0x20\n      mul\n      add\n        /* \"contracts/trie/EthereumTrieDB.sol\":3457:3605  childrens[i] = NodeHandleOption(... */\n      dup2\n      swap1\n      mstore\n      pop\n        /* \"contracts/trie/EthereumTrieDB.sol\":3409:3860  if (dataAsBytes.length != 32) {... */\n      jump(tag_117)\n    tag_111:\n        /* \"contracts/trie/EthereumTrieDB.sol\":3644:3656  bytes32 data */\n      0x00\n        /* \"contracts/trie/EthereumTrieDB.sol\":3659:3687  Bytes.toBytes32(dataAsBytes) */\n      tag_118\n        /* \"contracts/trie/EthereumTrieDB.sol\":3675:3686  dataAsBytes */\n      dup3\n        /* \"contracts/trie/EthereumTrieDB.sol\":3659:3674  Bytes.toBytes32 */\n      tag_79\n        /* \"contracts/trie/EthereumTrieDB.sol\":3659:3687  Bytes.toBytes32(dataAsBytes) */\n      jump\t// in\n    tag_118:\n        /* \"contracts/trie/EthereumTrieDB.sol\":3644:3687  bytes32 data = Bytes.toBytes32(dataAsBytes) */\n      swap1\n      pop\n        /* \"contracts/trie/EthereumTrieDB.sol\":3720:3845  NodeHandleOption(... */\n      mload(0x40)\n      dup1\n      0x40\n      add\n      0x40\n      mstore\n      dup1\n        /* \"contracts/trie/EthereumTrieDB.sol\":3758:3762  true */\n      0x01\n        /* \"contracts/trie/EthereumTrieDB.sol\":3720:3845  NodeHandleOption(... */\n      iszero\n      iszero\n      dup2\n      mstore\n      0x20\n      add\n        /* \"contracts/trie/EthereumTrieDB.sol\":3784:3827  NodeHandle(true, data, false, new bytes(0)) */\n      mload(0x40)\n      dup1\n      0x80\n      add\n      0x40\n      mstore\n      dup1\n        /* \"contracts/trie/EthereumTrieDB.sol\":3795:3799  true */\n      0x01\n        /* \"contracts/trie/EthereumTrieDB.sol\":3784:3827  NodeHandle(true, data, false, new bytes(0)) */\n      iszero\n      iszero\n      dup2\n      mstore\n      0x20\n      add\n        /* \"contracts/trie/EthereumTrieDB.sol\":3801:3805  data */\n      dup5\n        /* \"contracts/trie/EthereumTrieDB.sol\":3784:3827  NodeHandle(true, data, false, new bytes(0)) */\n      dup2\n      mstore\n      0x20\n      add\n        /* \"contracts/trie/EthereumTrieDB.sol\":3807:3812  false */\n      0x00\n        /* \"contracts/trie/EthereumTrieDB.sol\":3784:3827  NodeHandle(true, data, false, new bytes(0)) */\n      iszero\n      iszero\n      dup2\n      mstore\n      0x20\n      add\n        /* \"contracts/trie/EthereumTrieDB.sol\":3824:3825  0 */\n      0x00\n        /* \"contracts/trie/EthereumTrieDB.sol\":3814:3826  new bytes(0) */\n      0xffffffffffffffff\n      dup2\n      gt\n      iszero\n      tag_119\n      jumpi\n      tag_120\n      tag_82\n      jump\t// in\n    tag_120:\n    tag_119:\n      mload(0x40)\n      swap1\n      dup1\n      dup3\n      mstore\n      dup1\n      0x1f\n      add\n      not(0x1f)\n      and\n      0x20\n      add\n      dup3\n      add\n      0x40\n      mstore\n      dup1\n      iszero\n      tag_121\n      jumpi\n      dup2\n      0x20\n      add\n      0x01\n      dup3\n      mul\n      dup1\n      calldatasize\n      dup4\n      calldatacopy\n      dup1\n      dup3\n      add\n      swap2\n      pop\n      pop\n      swap1\n      pop\n    tag_121:\n      pop\n        /* \"contracts/trie/EthereumTrieDB.sol\":3784:3827  NodeHandle(true, data, false, new bytes(0)) */\n      dup2\n      mstore\n      pop\n        /* \"contracts/trie/EthereumTrieDB.sol\":3720:3845  NodeHandleOption(... */\n      dup2\n      mstore\n      pop\n        /* \"contracts/trie/EthereumTrieDB.sol\":3705:3714  childrens */\n      dup5\n        /* \"contracts/trie/EthereumTrieDB.sol\":3715:3716  i */\n      dup5\n        /* \"contracts/trie/EthereumTrieDB.sol\":3705:3717  childrens[i] */\n      0x10\n      dup2\n      lt\n      tag_122\n      jumpi\n      tag_123\n      tag_45\n      jump\t// in\n    tag_123:\n    tag_122:\n      0x20\n      mul\n      add\n        /* \"contracts/trie/EthereumTrieDB.sol\":3705:3845  childrens[i] = NodeHandleOption(... */\n      dup2\n      swap1\n      mstore\n      pop\n        /* \"contracts/trie/EthereumTrieDB.sol\":3626:3860  {... */\n      pop\n        /* \"contracts/trie/EthereumTrieDB.sol\":3409:3860  if (dataAsBytes.length != 32) {... */\n    tag_117:\n        /* \"contracts/trie/EthereumTrieDB.sol\":3334:3870  {... */\n      pop\n        /* \"contracts/trie/EthereumTrieDB.sol\":3329:3332  i++ */\n      dup1\n      dup1\n      0x01\n      add\n      swap2\n      pop\n      pop\n        /* \"contracts/trie/EthereumTrieDB.sol\":3301:3870  for (uint256 i = 0; i < 16; i++) {... */\n      jump(tag_105)\n    tag_106:\n      pop\n        /* \"contracts/trie/EthereumTrieDB.sol\":3883:3913  isEmpty(decoded[16].toBytes()) */\n      tag_124\n        /* \"contracts/trie/EthereumTrieDB.sol\":3891:3912  decoded[16].toBytes() */\n      tag_125\n        /* \"contracts/trie/EthereumTrieDB.sol\":3891:3898  decoded */\n      dup4\n        /* \"contracts/trie/EthereumTrieDB.sol\":3899:3901  16 */\n      0x10\n        /* \"contracts/trie/EthereumTrieDB.sol\":3891:3902  decoded[16] */\n      dup2\n      mload\n      dup2\n      lt\n      tag_126\n      jumpi\n      tag_127\n      tag_45\n      jump\t// in\n    tag_127:\n    tag_126:\n      0x20\n      mul\n      0x20\n      add\n      add\n      mload\n        /* \"contracts/trie/EthereumTrieDB.sol\":3891:3910  decoded[16].toBytes */\n      tag_46\n        /* \"contracts/trie/EthereumTrieDB.sol\":3891:3912  decoded[16].toBytes() */\n      jump\t// in\n    tag_125:\n        /* \"contracts/trie/EthereumTrieDB.sol\":3883:3890  isEmpty */\n      tag_128\n        /* \"contracts/trie/EthereumTrieDB.sol\":3883:3913  isEmpty(decoded[16].toBytes()) */\n      jump\t// in\n    tag_124:\n        /* \"contracts/trie/EthereumTrieDB.sol\":3879:4250  if (isEmpty(decoded[16].toBytes())) {... */\n      iszero\n      tag_129\n      jumpi\n        /* \"contracts/trie/EthereumTrieDB.sol\":3944:4065  NodeHandleOption(... */\n      mload(0x40)\n      dup1\n      0x40\n      add\n      0x40\n      mstore\n      dup1\n        /* \"contracts/trie/EthereumTrieDB.sol\":3978:3983  false */\n      0x00\n        /* \"contracts/trie/EthereumTrieDB.sol\":3944:4065  NodeHandleOption(... */\n      iszero\n      iszero\n      dup2\n      mstore\n      0x20\n      add\n        /* \"contracts/trie/EthereumTrieDB.sol\":4001:4051  NodeHandle(false, bytes32(0), false, new bytes(0)) */\n      mload(0x40)\n      dup1\n      0x80\n      add\n      0x40\n      mstore\n      dup1\n        /* \"contracts/trie/EthereumTrieDB.sol\":4012:4017  false */\n      0x00\n        /* \"contracts/trie/EthereumTrieDB.sol\":4001:4051  NodeHandle(false, bytes32(0), false, new bytes(0)) */\n      iszero\n      iszero\n      dup2\n      mstore\n      0x20\n      add\n        /* \"contracts/trie/EthereumTrieDB.sol\":4027:4028  0 */\n      0x00\n        /* \"contracts/trie/EthereumTrieDB.sol\":4019:4029  bytes32(0) */\n      dup1\n      shl\n        /* \"contracts/trie/EthereumTrieDB.sol\":4001:4051  NodeHandle(false, bytes32(0), false, new bytes(0)) */\n      dup2\n      mstore\n      0x20\n      add\n        /* \"contracts/trie/EthereumTrieDB.sol\":4031:4036  false */\n      0x00\n        /* \"contracts/trie/EthereumTrieDB.sol\":4001:4051  NodeHandle(false, bytes32(0), false, new bytes(0)) */\n      iszero\n      iszero\n      dup2\n      mstore\n      0x20\n      add\n        /* \"contracts/trie/EthereumTrieDB.sol\":4048:4049  0 */\n      0x00\n        /* \"contracts/trie/EthereumTrieDB.sol\":4038:4050  new bytes(0) */\n      0xffffffffffffffff\n      dup2\n      gt\n      iszero\n      tag_130\n      jumpi\n      tag_131\n      tag_82\n      jump\t// in\n    tag_131:\n    tag_130:\n      mload(0x40)\n      swap1\n      dup1\n      dup3\n      mstore\n      dup1\n      0x1f\n      add\n      not(0x1f)\n      and\n      0x20\n      add\n      dup3\n      add\n      0x40\n      mstore\n      dup1\n      iszero\n      tag_132\n      jumpi\n      dup2\n      0x20\n      add\n      0x01\n      dup3\n      mul\n      dup1\n      calldatasize\n      dup4\n      calldatacopy\n      dup1\n      dup3\n      add\n      swap2\n      pop\n      pop\n      swap1\n      pop\n    tag_132:\n      pop\n        /* \"contracts/trie/EthereumTrieDB.sol\":4001:4051  NodeHandle(false, bytes32(0), false, new bytes(0)) */\n      dup2\n      mstore\n      pop\n        /* \"contracts/trie/EthereumTrieDB.sol\":3944:4065  NodeHandleOption(... */\n      dup2\n      mstore\n      pop\n        /* \"contracts/trie/EthereumTrieDB.sol\":3929:3935  branch */\n      dup4\n        /* \"contracts/trie/EthereumTrieDB.sol\":3929:3941  branch.value */\n      0x00\n      add\n        /* \"contracts/trie/EthereumTrieDB.sol\":3929:4065  branch.value = NodeHandleOption(... */\n      dup2\n      swap1\n      mstore\n      pop\n        /* \"contracts/trie/EthereumTrieDB.sol\":3879:4250  if (isEmpty(decoded[16].toBytes())) {... */\n      jump(tag_133)\n    tag_129:\n        /* \"contracts/trie/EthereumTrieDB.sol\":4111:4239  NodeHandleOption(... */\n      mload(0x40)\n      dup1\n      0x40\n      add\n      0x40\n      mstore\n      dup1\n        /* \"contracts/trie/EthereumTrieDB.sol\":4145:4149  true */\n      0x01\n        /* \"contracts/trie/EthereumTrieDB.sol\":4111:4239  NodeHandleOption(... */\n      iszero\n      iszero\n      dup2\n      mstore\n      0x20\n      add\n        /* \"contracts/trie/EthereumTrieDB.sol\":4167:4225  NodeHandle(false, bytes32(0), true, decoded[16].toBytes()) */\n      mload(0x40)\n      dup1\n      0x80\n      add\n      0x40\n      mstore\n      dup1\n        /* \"contracts/trie/EthereumTrieDB.sol\":4178:4183  false */\n      0x00\n        /* \"contracts/trie/EthereumTrieDB.sol\":4167:4225  NodeHandle(false, bytes32(0), true, decoded[16].toBytes()) */\n      iszero\n      iszero\n      dup2\n      mstore\n      0x20\n      add\n        /* \"contracts/trie/EthereumTrieDB.sol\":4193:4194  0 */\n      0x00\n        /* \"contracts/trie/EthereumTrieDB.sol\":4185:4195  bytes32(0) */\n      dup1\n      shl\n        /* \"contracts/trie/EthereumTrieDB.sol\":4167:4225  NodeHandle(false, bytes32(0), true, decoded[16].toBytes()) */\n      dup2\n      mstore\n      0x20\n      add\n        /* \"contracts/trie/EthereumTrieDB.sol\":4197:4201  true */\n      0x01\n        /* \"contracts/trie/EthereumTrieDB.sol\":4167:4225  NodeHandle(false, bytes32(0), true, decoded[16].toBytes()) */\n      iszero\n      iszero\n      dup2\n      mstore\n      0x20\n      add\n        /* \"contracts/trie/EthereumTrieDB.sol\":4203:4224  decoded[16].toBytes() */\n      tag_134\n        /* \"contracts/trie/EthereumTrieDB.sol\":4203:4210  decoded */\n      dup7\n        /* \"contracts/trie/EthereumTrieDB.sol\":4211:4213  16 */\n      0x10\n        /* \"contracts/trie/EthereumTrieDB.sol\":4203:4214  decoded[16] */\n      dup2\n      mload\n      dup2\n      lt\n      tag_135\n      jumpi\n      tag_136\n      tag_45\n      jump\t// in\n    tag_136:\n    tag_135:\n      0x20\n      mul\n      0x20\n      add\n      add\n      mload\n        /* \"contracts/trie/EthereumTrieDB.sol\":4203:4222  decoded[16].toBytes */\n      tag_46\n        /* \"contracts/trie/EthereumTrieDB.sol\":4203:4224  decoded[16].toBytes() */\n      jump\t// in\n    tag_134:\n        /* \"contracts/trie/EthereumTrieDB.sol\":4167:4225  NodeHandle(false, bytes32(0), true, decoded[16].toBytes()) */\n      dup2\n      mstore\n      pop\n        /* \"contracts/trie/EthereumTrieDB.sol\":4111:4239  NodeHandleOption(... */\n      dup2\n      mstore\n      pop\n        /* \"contracts/trie/EthereumTrieDB.sol\":4096:4102  branch */\n      dup4\n        /* \"contracts/trie/EthereumTrieDB.sol\":4096:4108  branch.value */\n      0x00\n      add\n        /* \"contracts/trie/EthereumTrieDB.sol\":4096:4239  branch.value = NodeHandleOption(... */\n      dup2\n      swap1\n      mstore\n      pop\n        /* \"contracts/trie/EthereumTrieDB.sol\":3879:4250  if (isEmpty(decoded[16].toBytes())) {... */\n    tag_133:\n        /* \"contracts/trie/EthereumTrieDB.sol\":4277:4286  childrens */\n      dup1\n        /* \"contracts/trie/EthereumTrieDB.sol\":4259:4265  branch */\n      dup4\n        /* \"contracts/trie/EthereumTrieDB.sol\":4259:4274  branch.children */\n      0x20\n      add\n        /* \"contracts/trie/EthereumTrieDB.sol\":4259:4286  branch.children = childrens */\n      dup2\n      swap1\n      mstore\n      pop\n        /* \"contracts/trie/EthereumTrieDB.sol\":4304:4310  branch */\n      dup3\n        /* \"contracts/trie/EthereumTrieDB.sol\":4297:4310  return branch */\n      swap4\n      pop\n      pop\n      pop\n      pop\n        /* \"contracts/trie/EthereumTrieDB.sol\":2982:4317  function decodeBranch(... */\n      swap2\n      swap1\n      pop\n      jump\t// out\n        /* \"contracts/trie/Bytes.sol\":529:972  function equals(... */\n    tag_33:\n        /* \"contracts/trie/Bytes.sol\":629:639  bool equal */\n      0x00\n        /* \"contracts/trie/Bytes.sol\":670:675  other */\n      dup2\n        /* \"contracts/trie/Bytes.sol\":670:682  other.length */\n      mload\n        /* \"contracts/trie/Bytes.sol\":655:659  self */\n      dup4\n        /* \"contracts/trie/Bytes.sol\":655:666  self.length */\n      mload\n        /* \"contracts/trie/Bytes.sol\":655:682  self.length != other.length */\n      eq\n        /* \"contracts/trie/Bytes.sol\":651:721  if (self.length != other.length) {... */\n      tag_138\n      jumpi\n        /* \"contracts/trie/Bytes.sol\":705:710  false */\n      0x00\n        /* \"contracts/trie/Bytes.sol\":698:710  return false */\n      swap1\n      pop\n      jump(tag_137)\n        /* \"contracts/trie/Bytes.sol\":651:721  if (self.length != other.length) {... */\n    tag_138:\n        /* \"contracts/trie/Bytes.sol\":730:742  uint256 addr */\n      0x00\n        /* \"contracts/trie/Bytes.sol\":752:765  uint256 addr2 */\n      dup1\n        /* \"contracts/trie/Bytes.sol\":838:840  32 */\n      0x20\n        /* \"contracts/trie/Bytes.sol\":810:814  self */\n      dup6\n        /* \"contracts/trie/Bytes.sol\":806:841  add(self, /*BYTES_HEADER_SIZE*/ 32) */\n      add\n        /* \"contracts/trie/Bytes.sol\":798:841  addr := add(self, /*BYTES_HEADER_SIZE*/ 32) */\n      swap2\n      pop\n        /* \"contracts/trie/Bytes.sol\":896:898  32 */\n      0x20\n        /* \"contracts/trie/Bytes.sol\":867:872  other */\n      dup5\n        /* \"contracts/trie/Bytes.sol\":863:899  add(other, /*BYTES_HEADER_SIZE*/ 32) */\n      add\n        /* \"contracts/trie/Bytes.sol\":854:899  addr2 := add(other, /*BYTES_HEADER_SIZE*/ 32) */\n      swap1\n      pop\n        /* \"contracts/trie/Bytes.sol\":926:965  Memory.equals(addr, addr2, self.length) */\n      tag_139\n        /* \"contracts/trie/Bytes.sol\":940:944  addr */\n      dup3\n        /* \"contracts/trie/Bytes.sol\":946:951  addr2 */\n      dup3\n        /* \"contracts/trie/Bytes.sol\":953:957  self */\n      dup8\n        /* \"contracts/trie/Bytes.sol\":953:964  self.length */\n      mload\n        /* \"contracts/trie/Bytes.sol\":926:939  Memory.equals */\n      tag_140\n        /* \"contracts/trie/Bytes.sol\":926:965  Memory.equals(addr, addr2, self.length) */\n      jump\t// in\n    tag_139:\n        /* \"contracts/trie/Bytes.sol\":918:965  equal = Memory.equals(addr, addr2, self.length) */\n      swap3\n      pop\n        /* \"contracts/trie/Bytes.sol\":641:972  {... */\n      pop\n      pop\n        /* \"contracts/trie/Bytes.sol\":529:972  function equals(... */\n    tag_137:\n      swap3\n      swap2\n      pop\n      pop\n      jump\t// out\n        /* \"contracts/trie/RLPReader.sol\":1513:1734  function toRlpItem(bytes memory item) internal pure returns (RLPItem memory) {... */\n    tag_37:\n        /* \"contracts/trie/RLPReader.sol\":1574:1588  RLPItem memory */\n      tag_141\n      tag_142\n      jump\t// in\n    tag_141:\n        /* \"contracts/trie/RLPReader.sol\":1600:1614  uint256 memPtr */\n      0x00\n        /* \"contracts/trie/RLPReader.sol\":1667:1671  0x20 */\n      0x20\n        /* \"contracts/trie/RLPReader.sol\":1661:1665  item */\n      dup4\n        /* \"contracts/trie/RLPReader.sol\":1657:1672  add(item, 0x20) */\n      add\n        /* \"contracts/trie/RLPReader.sol\":1647:1672  memPtr := add(item, 0x20) */\n      swap1\n      pop\n        /* \"contracts/trie/RLPReader.sol\":1699:1727  RLPItem(item.length, memPtr) */\n      mload(0x40)\n      dup1\n      0x40\n      add\n      0x40\n      mstore\n      dup1\n        /* \"contracts/trie/RLPReader.sol\":1707:1711  item */\n      dup5\n        /* \"contracts/trie/RLPReader.sol\":1707:1718  item.length */\n      mload\n        /* \"contracts/trie/RLPReader.sol\":1699:1727  RLPItem(item.length, memPtr) */\n      dup2\n      mstore\n      0x20\n      add\n        /* \"contracts/trie/RLPReader.sol\":1720:1726  memPtr */\n      dup3\n        /* \"contracts/trie/RLPReader.sol\":1699:1727  RLPItem(item.length, memPtr) */\n      dup2\n      mstore\n      pop\n        /* \"contracts/trie/RLPReader.sol\":1692:1727  return RLPItem(item.length, memPtr) */\n      swap2\n      pop\n      pop\n        /* \"contracts/trie/RLPReader.sol\":1513:1734  function toRlpItem(bytes memory item) internal pure returns (RLPItem memory) {... */\n      swap2\n      swap1\n      pop\n      jump\t// out\n        /* \"contracts/trie/RLPReader.sol\":2946:3465  function toList(RLPItem memory item) internal pure returns (RLPItem[] memory) {... */\n    tag_38:\n        /* \"contracts/trie/RLPReader.sol\":3006:3022  RLPItem[] memory */\n      0x60\n        /* \"contracts/trie/RLPReader.sol\":3042:3054  isList(item) */\n      tag_145\n        /* \"contracts/trie/RLPReader.sol\":3049:3053  item */\n      dup3\n        /* \"contracts/trie/RLPReader.sol\":3042:3048  isList */\n      tag_146\n        /* \"contracts/trie/RLPReader.sol\":3042:3054  isList(item) */\n      jump\t// in\n    tag_145:\n        /* \"contracts/trie/RLPReader.sol\":3034:3055  require(isList(item)) */\n      tag_147\n      jumpi\n      0x00\n      dup1\n      revert\n    tag_147:\n        /* \"contracts/trie/RLPReader.sol\":3066:3079  uint256 items */\n      0x00\n        /* \"contracts/trie/RLPReader.sol\":3082:3096  numItems(item) */\n      tag_148\n        /* \"contracts/trie/RLPReader.sol\":3091:3095  item */\n      dup4\n        /* \"contracts/trie/RLPReader.sol\":3082:3090  numItems */\n      tag_149\n        /* \"contracts/trie/RLPReader.sol\":3082:3096  numItems(item) */\n      jump\t// in\n    tag_148:\n        /* \"contracts/trie/RLPReader.sol\":3066:3096  uint256 items = numItems(item) */\n      swap1\n      pop\n        /* \"contracts/trie/RLPReader.sol\":3106:3129  RLPItem[] memory result */\n      0x00\n        /* \"contracts/trie/RLPReader.sol\":3146:3151  items */\n      dup2\n        /* \"contracts/trie/RLPReader.sol\":3132:3152  new RLPItem[](items) */\n      0xffffffffffffffff\n      dup2\n      gt\n      iszero\n      tag_150\n      jumpi\n      tag_151\n      tag_82\n      jump\t// in\n    tag_151:\n    tag_150:\n      mload(0x40)\n      swap1\n      dup1\n      dup3\n      mstore\n      dup1\n      0x20\n      mul\n      0x20\n      add\n      dup3\n      add\n      0x40\n      mstore\n      dup1\n      iszero\n      tag_152\n      jumpi\n      dup2\n      0x20\n      add\n    tag_153:\n      tag_154\n      tag_142\n      jump\t// in\n    tag_154:\n      dup2\n      mstore\n      0x20\n      add\n      swap1\n      0x01\n      swap1\n      sub\n      swap1\n      dup2\n      tag_153\n      jumpi\n      swap1\n      pop\n    tag_152:\n      pop\n        /* \"contracts/trie/RLPReader.sol\":3106:3152  RLPItem[] memory result = new RLPItem[](items) */\n      swap1\n      pop\n        /* \"contracts/trie/RLPReader.sol\":3163:3177  uint256 memPtr */\n      0x00\n        /* \"contracts/trie/RLPReader.sol\":3194:3221  _payloadOffset(item.memPtr) */\n      tag_155\n        /* \"contracts/trie/RLPReader.sol\":3209:3213  item */\n      dup6\n        /* \"contracts/trie/RLPReader.sol\":3209:3220  item.memPtr */\n      0x20\n      add\n      mload\n        /* \"contracts/trie/RLPReader.sol\":3194:3208  _payloadOffset */\n      tag_156\n        /* \"contracts/trie/RLPReader.sol\":3194:3221  _payloadOffset(item.memPtr) */\n      jump\t// in\n    tag_155:\n        /* \"contracts/trie/RLPReader.sol\":3180:3184  item */\n      dup6\n        /* \"contracts/trie/RLPReader.sol\":3180:3191  item.memPtr */\n      0x20\n      add\n      mload\n        /* \"contracts/trie/RLPReader.sol\":3180:3221  item.memPtr + _payloadOffset(item.memPtr) */\n      tag_157\n      swap2\n      swap1\n      tag_158\n      jump\t// in\n    tag_157:\n        /* \"contracts/trie/RLPReader.sol\":3163:3221  uint256 memPtr = item.memPtr + _payloadOffset(item.memPtr) */\n      swap1\n      pop\n        /* \"contracts/trie/RLPReader.sol\":3231:3246  uint256 dataLen */\n      0x00\n        /* \"contracts/trie/RLPReader.sol\":3261:3270  uint256 i */\n      dup1\n        /* \"contracts/trie/RLPReader.sol\":3273:3274  0 */\n      0x00\n        /* \"contracts/trie/RLPReader.sol\":3261:3274  uint256 i = 0 */\n      swap1\n      pop\n        /* \"contracts/trie/RLPReader.sol\":3256:3435  for (uint256 i = 0; i < items; i++) {... */\n    tag_159:\n        /* \"contracts/trie/RLPReader.sol\":3280:3285  items */\n      dup5\n        /* \"contracts/trie/RLPReader.sol\":3276:3277  i */\n      dup2\n        /* \"contracts/trie/RLPReader.sol\":3276:3285  i < items */\n      lt\n        /* \"contracts/trie/RLPReader.sol\":3256:3435  for (uint256 i = 0; i < items; i++) {... */\n      iszero\n      tag_160\n      jumpi\n        /* \"contracts/trie/RLPReader.sol\":3316:3335  _itemLength(memPtr) */\n      tag_162\n        /* \"contracts/trie/RLPReader.sol\":3328:3334  memPtr */\n      dup4\n        /* \"contracts/trie/RLPReader.sol\":3316:3327  _itemLength */\n      tag_163\n        /* \"contracts/trie/RLPReader.sol\":3316:3335  _itemLength(memPtr) */\n      jump\t// in\n    tag_162:\n        /* \"contracts/trie/RLPReader.sol\":3306:3335  dataLen = _itemLength(memPtr) */\n      swap2\n      pop\n        /* \"contracts/trie/RLPReader.sol\":3361:3385  RLPItem(dataLen, memPtr) */\n      mload(0x40)\n      dup1\n      0x40\n      add\n      0x40\n      mstore\n      dup1\n        /* \"contracts/trie/RLPReader.sol\":3369:3376  dataLen */\n      dup4\n        /* \"contracts/trie/RLPReader.sol\":3361:3385  RLPItem(dataLen, memPtr) */\n      dup2\n      mstore\n      0x20\n      add\n        /* \"contracts/trie/RLPReader.sol\":3378:3384  memPtr */\n      dup5\n        /* \"contracts/trie/RLPReader.sol\":3361:3385  RLPItem(dataLen, memPtr) */\n      dup2\n      mstore\n      pop\n        /* \"contracts/trie/RLPReader.sol\":3349:3355  result */\n      dup5\n        /* \"contracts/trie/RLPReader.sol\":3356:3357  i */\n      dup3\n        /* \"contracts/trie/RLPReader.sol\":3349:3358  result[i] */\n      dup2\n      mload\n      dup2\n      lt\n      tag_164\n      jumpi\n      tag_165\n      tag_45\n      jump\t// in\n    tag_165:\n    tag_164:\n      0x20\n      mul\n      0x20\n      add\n      add\n        /* \"contracts/trie/RLPReader.sol\":3349:3385  result[i] = RLPItem(dataLen, memPtr) */\n      dup2\n      swap1\n      mstore\n      pop\n        /* \"contracts/trie/RLPReader.sol\":3417:3424  dataLen */\n      dup2\n        /* \"contracts/trie/RLPReader.sol\":3408:3414  memPtr */\n      dup4\n        /* \"contracts/trie/RLPReader.sol\":3408:3424  memPtr + dataLen */\n      tag_166\n      swap2\n      swap1\n      tag_158\n      jump\t// in\n    tag_166:\n        /* \"contracts/trie/RLPReader.sol\":3399:3424  memPtr = memPtr + dataLen */\n      swap3\n      pop\n        /* \"contracts/trie/RLPReader.sol\":3287:3290  i++ */\n      dup1\n      dup1\n      0x01\n      add\n      swap2\n      pop\n      pop\n        /* \"contracts/trie/RLPReader.sol\":3256:3435  for (uint256 i = 0; i < items; i++) {... */\n      jump(tag_159)\n    tag_160:\n      pop\n        /* \"contracts/trie/RLPReader.sol\":3452:3458  result */\n      dup3\n        /* \"contracts/trie/RLPReader.sol\":3445:3458  return result */\n      swap5\n      pop\n      pop\n      pop\n      pop\n      pop\n        /* \"contracts/trie/RLPReader.sol\":2946:3465  function toList(RLPItem memory item) internal pure returns (RLPItem[] memory) {... */\n      swap2\n      swap1\n      pop\n      jump\t// out\n        /* \"contracts/trie/RLPReader.sol\":6842:7221  function toBytes(RLPItem memory item) internal pure returns (bytes memory) {... */\n    tag_46:\n        /* \"contracts/trie/RLPReader.sol\":6903:6915  bytes memory */\n      0x60\n        /* \"contracts/trie/RLPReader.sol\":6946:6947  0 */\n      0x00\n        /* \"contracts/trie/RLPReader.sol\":6935:6939  item */\n      dup3\n        /* \"contracts/trie/RLPReader.sol\":6935:6943  item.len */\n      0x00\n      add\n      mload\n        /* \"contracts/trie/RLPReader.sol\":6935:6947  item.len > 0 */\n      gt\n        /* \"contracts/trie/RLPReader.sol\":6927:6948  require(item.len > 0) */\n      tag_168\n      jumpi\n      0x00\n      dup1\n      revert\n    tag_168:\n        /* \"contracts/trie/RLPReader.sol\":6960:6974  uint256 memPtr */\n      0x00\n        /* \"contracts/trie/RLPReader.sol\":6976:6987  uint256 len */\n      dup1\n        /* \"contracts/trie/RLPReader.sol\":6991:7012  payloadLocation(item) */\n      tag_169\n        /* \"contracts/trie/RLPReader.sol\":7007:7011  item */\n      dup5\n        /* \"contracts/trie/RLPReader.sol\":6991:7006  payloadLocation */\n      tag_170\n        /* \"contracts/trie/RLPReader.sol\":6991:7012  payloadLocation(item) */\n      jump\t// in\n    tag_169:\n        /* \"contracts/trie/RLPReader.sol\":6959:7012  (uint256 memPtr, uint256 len) = payloadLocation(item) */\n      swap2\n      pop\n      swap2\n      pop\n        /* \"contracts/trie/RLPReader.sol\":7022:7041  bytes memory result */\n      0x00\n        /* \"contracts/trie/RLPReader.sol\":7054:7057  len */\n      dup2\n        /* \"contracts/trie/RLPReader.sol\":7044:7058  new bytes(len) */\n      0xffffffffffffffff\n      dup2\n      gt\n      iszero\n      tag_171\n      jumpi\n      tag_172\n      tag_82\n      jump\t// in\n    tag_172:\n    tag_171:\n      mload(0x40)\n      swap1\n      dup1\n      dup3\n      mstore\n      dup1\n      0x1f\n      add\n      not(0x1f)\n      and\n      0x20\n      add\n      dup3\n      add\n      0x40\n      mstore\n      dup1\n      iszero\n      tag_173\n      jumpi\n      dup2\n      0x20\n      add\n      0x01\n      dup3\n      mul\n      dup1\n      calldatasize\n      dup4\n      calldatacopy\n      dup1\n      dup3\n      add\n      swap2\n      pop\n      pop\n      swap1\n      pop\n    tag_173:\n      pop\n        /* \"contracts/trie/RLPReader.sol\":7022:7058  bytes memory result = new bytes(len) */\n      swap1\n      pop\n        /* \"contracts/trie/RLPReader.sol\":7069:7084  uint256 destPtr */\n      0x00\n        /* \"contracts/trie/RLPReader.sol\":7138:7144  result */\n      dup2\n        /* \"contracts/trie/RLPReader.sol\":7132:7136  0x20 */\n      0x20\n        /* \"contracts/trie/RLPReader.sol\":7128:7145  add(0x20, result) */\n      add\n        /* \"contracts/trie/RLPReader.sol\":7117:7145  destPtr := add(0x20, result) */\n      swap1\n      pop\n        /* \"contracts/trie/RLPReader.sol\":7165:7191  copy(memPtr, destPtr, len) */\n      tag_174\n        /* \"contracts/trie/RLPReader.sol\":7170:7176  memPtr */\n      dup5\n        /* \"contracts/trie/RLPReader.sol\":7178:7185  destPtr */\n      dup3\n        /* \"contracts/trie/RLPReader.sol\":7187:7190  len */\n      dup6\n        /* \"contracts/trie/RLPReader.sol\":7165:7169  copy */\n      tag_175\n        /* \"contracts/trie/RLPReader.sol\":7165:7191  copy(memPtr, destPtr, len) */\n      jump\t// in\n    tag_174:\n        /* \"contracts/trie/RLPReader.sol\":7208:7214  result */\n      dup2\n        /* \"contracts/trie/RLPReader.sol\":7201:7214  return result */\n      swap5\n      pop\n      pop\n      pop\n      pop\n      pop\n        /* \"contracts/trie/RLPReader.sol\":6842:7221  function toBytes(RLPItem memory item) internal pure returns (bytes memory) {... */\n      swap2\n      swap1\n      pop\n      jump\t// out\n        /* \"contracts/trie/Bytes.sol\":2128:2441  function substr(... */\n    tag_77:\n        /* \"contracts/trie/Bytes.sol\":2228:2240  bytes memory */\n      0x60\n        /* \"contracts/trie/Bytes.sol\":2274:2278  self */\n      dup3\n        /* \"contracts/trie/Bytes.sol\":2274:2285  self.length */\n      mload\n        /* \"contracts/trie/Bytes.sol\":2260:2270  startIndex */\n      dup3\n        /* \"contracts/trie/Bytes.sol\":2260:2285  startIndex <= self.length */\n      gt\n      iszero\n        /* \"contracts/trie/Bytes.sol\":2252:2286  require(startIndex <= self.length) */\n      tag_177\n      jumpi\n      0x00\n      dup1\n      revert\n    tag_177:\n        /* \"contracts/trie/Bytes.sol\":2296:2307  uint256 len */\n      0x00\n        /* \"contracts/trie/Bytes.sol\":2324:2334  startIndex */\n      dup3\n        /* \"contracts/trie/Bytes.sol\":2310:2314  self */\n      dup5\n        /* \"contracts/trie/Bytes.sol\":2310:2321  self.length */\n      mload\n        /* \"contracts/trie/Bytes.sol\":2310:2334  self.length - startIndex */\n      tag_178\n      swap2\n      swap1\n      tag_179\n      jump\t// in\n    tag_178:\n        /* \"contracts/trie/Bytes.sol\":2296:2334  uint256 len = self.length - startIndex */\n      swap1\n      pop\n        /* \"contracts/trie/Bytes.sol\":2344:2356  uint256 addr */\n      0x00\n        /* \"contracts/trie/Bytes.sol\":2359:2379  Memory.dataPtr(self) */\n      tag_180\n        /* \"contracts/trie/Bytes.sol\":2374:2378  self */\n      dup6\n        /* \"contracts/trie/Bytes.sol\":2359:2373  Memory.dataPtr */\n      tag_181\n        /* \"contracts/trie/Bytes.sol\":2359:2379  Memory.dataPtr(self) */\n      jump\t// in\n    tag_180:\n        /* \"contracts/trie/Bytes.sol\":2344:2379  uint256 addr = Memory.dataPtr(self) */\n      swap1\n      pop\n        /* \"contracts/trie/Bytes.sol\":2396:2434  Memory.toBytes(addr + startIndex, len) */\n      tag_182\n        /* \"contracts/trie/Bytes.sol\":2418:2428  startIndex */\n      dup5\n        /* \"contracts/trie/Bytes.sol\":2411:2415  addr */\n      dup3\n        /* \"contracts/trie/Bytes.sol\":2411:2428  addr + startIndex */\n      tag_183\n      swap2\n      swap1\n      tag_158\n      jump\t// in\n    tag_183:\n        /* \"contracts/trie/Bytes.sol\":2430:2433  len */\n      dup4\n        /* \"contracts/trie/Bytes.sol\":2396:2410  Memory.toBytes */\n      tag_184\n        /* \"contracts/trie/Bytes.sol\":2396:2434  Memory.toBytes(addr + startIndex, len) */\n      jump\t// in\n    tag_182:\n        /* \"contracts/trie/Bytes.sol\":2389:2434  return Memory.toBytes(addr + startIndex, len) */\n      swap3\n      pop\n      pop\n      pop\n        /* \"contracts/trie/Bytes.sol\":2128:2441  function substr(... */\n      swap3\n      swap2\n      pop\n      pop\n      jump\t// out\n        /* \"contracts/trie/Bytes.sol\":3897:4123  function toBytes32(bytes memory self) internal pure returns (bytes32 out) {... */\n    tag_79:\n        /* \"contracts/trie/Bytes.sol\":3958:3969  bytes32 out */\n      0x00\n        /* \"contracts/trie/Bytes.sol\":4004:4006  32 */\n      0x20\n        /* \"contracts/trie/Bytes.sol\":3989:3993  self */\n      dup3\n        /* \"contracts/trie/Bytes.sol\":3989:4000  self.length */\n      mload\n        /* \"contracts/trie/Bytes.sol\":3989:4006  self.length >= 32 */\n      lt\n      iszero\n        /* \"contracts/trie/Bytes.sol\":3981:4047  require(self.length >= 32, \"Bytes:: toBytes32: data is to short.\") */\n      tag_186\n      jumpi\n      mload(0x40)\n      0x08c379a000000000000000000000000000000000000000000000000000000000\n      dup2\n      mstore\n      0x04\n      add\n      tag_187\n      swap1\n      tag_188\n      jump\t// in\n    tag_187:\n      mload(0x40)\n      dup1\n      swap2\n      sub\n      swap1\n      revert\n    tag_186:\n        /* \"contracts/trie/Bytes.sol\":4103:4105  32 */\n      0x20\n        /* \"contracts/trie/Bytes.sol\":4097:4101  self */\n      dup3\n        /* \"contracts/trie/Bytes.sol\":4093:4106  add(self, 32) */\n      add\n        /* \"contracts/trie/Bytes.sol\":4087:4107  mload(add(self, 32)) */\n      mload\n        /* \"contracts/trie/Bytes.sol\":4080:4107  out := mload(add(self, 32)) */\n      swap1\n      pop\n        /* \"contracts/trie/Bytes.sol\":3897:4123  function toBytes32(bytes memory self) internal pure returns (bytes32 out) {... */\n      swap2\n      swap1\n      pop\n      jump\t// out\n        /* \"contracts/trie/EthereumTrieDB.sol\":4323:4467  function isEmpty(bytes memory item) internal pure returns (bool) {... */\n    tag_128:\n        /* \"contracts/trie/EthereumTrieDB.sol\":4382:4386  bool */\n      0x00\n        /* \"contracts/trie/EthereumTrieDB.sol\":4419:4420  0 */\n      dup1\n        /* \"contracts/trie/EthereumTrieDB.sol\":4405:4409  item */\n      dup3\n        /* \"contracts/trie/EthereumTrieDB.sol\":4405:4416  item.length */\n      mload\n        /* \"contracts/trie/EthereumTrieDB.sol\":4405:4420  item.length > 0 */\n      gt\n        /* \"contracts/trie/EthereumTrieDB.sol\":4405:4460  item.length > 0 && (item[0] == 0xc0 || item[0] == 0x80) */\n      dup1\n      iszero\n      tag_190\n      jumpi\n      pop\n        /* \"contracts/trie/EthereumTrieDB.sol\":4436:4440  0xc0 */\n      0xc0\n        /* \"contracts/trie/EthereumTrieDB.sol\":4425:4440  item[0] == 0xc0 */\n      0xf8\n      shl\n        /* \"contracts/trie/EthereumTrieDB.sol\":4425:4429  item */\n      dup3\n        /* \"contracts/trie/EthereumTrieDB.sol\":4430:4431  0 */\n      0x00\n        /* \"contracts/trie/EthereumTrieDB.sol\":4425:4432  item[0] */\n      dup2\n      mload\n      dup2\n      lt\n      tag_191\n      jumpi\n      tag_192\n      tag_45\n      jump\t// in\n    tag_192:\n    tag_191:\n      0x20\n      add\n      add\n      mload\n      0xf8\n      shr\n      0xf8\n      shl\n        /* \"contracts/trie/EthereumTrieDB.sol\":4425:4440  item[0] == 0xc0 */\n      not(0xffffffffffffffffffffffffffffffffffffffffffffffffffffffffffffff)\n      and\n      eq\n        /* \"contracts/trie/EthereumTrieDB.sol\":4425:4459  item[0] == 0xc0 || item[0] == 0x80 */\n      dup1\n      tag_193\n      jumpi\n      pop\n        /* \"contracts/trie/EthereumTrieDB.sol\":4455:4459  0x80 */\n      0x80\n        /* \"contracts/trie/EthereumTrieDB.sol\":4444:4459  item[0] == 0x80 */\n      0xf8\n      shl\n        /* \"contracts/trie/EthereumTrieDB.sol\":4444:4448  item */\n      dup3\n        /* \"contracts/trie/EthereumTrieDB.sol\":4449:4450  0 */\n      0x00\n        /* \"contracts/trie/EthereumTrieDB.sol\":4444:4451  item[0] */\n      dup2\n      mload\n      dup2\n      lt\n      tag_194\n      jumpi\n      tag_195\n      tag_45\n      jump\t// in\n    tag_195:\n    tag_194:\n      0x20\n      add\n      add\n      mload\n      0xf8\n      shr\n      0xf8\n      shl\n        /* \"contracts/trie/EthereumTrieDB.sol\":4444:4459  item[0] == 0x80 */\n      not(0xffffffffffffffffffffffffffffffffffffffffffffffffffffffffffffff)\n      and\n      eq\n        /* \"contracts/trie/EthereumTrieDB.sol\":4425:4459  item[0] == 0xc0 || item[0] == 0x80 */\n    tag_193:\n        /* \"contracts/trie/EthereumTrieDB.sol\":4405:4460  item.length > 0 && (item[0] == 0xc0 || item[0] == 0x80) */\n    tag_190:\n        /* \"contracts/trie/EthereumTrieDB.sol\":4398:4460  return item.length > 0 && (item[0] == 0xc0 || item[0] == 0x80) */\n      swap1\n      pop\n        /* \"contracts/trie/EthereumTrieDB.sol\":4323:4467  function isEmpty(bytes memory item) internal pure returns (bool) {... */\n      swap2\n      swap1\n      pop\n      jump\t// out\n        /* \"contracts/trie/Memory.sol\":317:545  function equals(... */\n    tag_140:\n        /* \"contracts/trie/Memory.sol\":428:438  bool equal */\n      0x00\n        /* \"contracts/trie/Memory.sol\":524:527  len */\n      dup2\n        /* \"contracts/trie/Memory.sol\":517:522  addr2 */\n      dup4\n        /* \"contracts/trie/Memory.sol\":507:528  keccak256(addr2, len) */\n      keccak256\n        /* \"contracts/trie/Memory.sol\":501:504  len */\n      dup3\n        /* \"contracts/trie/Memory.sol\":495:499  addr */\n      dup6\n        /* \"contracts/trie/Memory.sol\":485:505  keccak256(addr, len) */\n      keccak256\n        /* \"contracts/trie/Memory.sol\":482:529  eq(keccak256(addr, len), keccak256(addr2, len)) */\n      eq\n        /* \"contracts/trie/Memory.sol\":473:529  equal := eq(keccak256(addr, len), keccak256(addr2, len)) */\n      swap1\n      pop\n        /* \"contracts/trie/Memory.sol\":317:545  function equals(... */\n      swap4\n      swap3\n      pop\n      pop\n      pop\n      jump\t// out\n        /* \"contracts/trie/RLPReader.sol\":3569:3890  function isList(RLPItem memory item) internal pure returns (bool) {... */\n    tag_146:\n        /* \"contracts/trie/RLPReader.sol\":3629:3633  bool */\n      0x00\n        /* \"contracts/trie/RLPReader.sol\":3661:3662  0 */\n      dup1\n        /* \"contracts/trie/RLPReader.sol\":3649:3653  item */\n      dup3\n        /* \"contracts/trie/RLPReader.sol\":3649:3657  item.len */\n      0x00\n      add\n      mload\n        /* \"contracts/trie/RLPReader.sol\":3649:3662  item.len == 0 */\n      sub\n        /* \"contracts/trie/RLPReader.sol\":3645:3676  if (item.len == 0) return false */\n      tag_198\n      jumpi\n        /* \"contracts/trie/RLPReader.sol\":3671:3676  false */\n      0x00\n        /* \"contracts/trie/RLPReader.sol\":3664:3676  return false */\n      swap1\n      pop\n      jump(tag_197)\n        /* \"contracts/trie/RLPReader.sol\":3645:3676  if (item.len == 0) return false */\n    tag_198:\n        /* \"contracts/trie/RLPReader.sol\":3687:3698  uint8 byte0 */\n      0x00\n        /* \"contracts/trie/RLPReader.sol\":3708:3722  uint256 memPtr */\n      dup1\n        /* \"contracts/trie/RLPReader.sol\":3725:3729  item */\n      dup4\n        /* \"contracts/trie/RLPReader.sol\":3725:3736  item.memPtr */\n      0x20\n      add\n      mload\n        /* \"contracts/trie/RLPReader.sol\":3708:3736  uint256 memPtr = item.memPtr */\n      swap1\n      pop\n        /* \"contracts/trie/RLPReader.sol\":3792:3798  memPtr */\n      dup1\n        /* \"contracts/trie/RLPReader.sol\":3786:3799  mload(memPtr) */\n      mload\n        /* \"contracts/trie/RLPReader.sol\":3783:3784  0 */\n      0x00\n        /* \"contracts/trie/RLPReader.sol\":3778:3800  byte(0, mload(memPtr)) */\n      byte\n        /* \"contracts/trie/RLPReader.sol\":3769:3800  byte0 := byte(0, mload(memPtr)) */\n      swap2\n      pop\n        /* \"contracts/trie/RLPReader.sol\":328:332  0xc0 */\n      0xc0\n        /* \"contracts/trie/RLPReader.sol\":3824:3848  byte0 < LIST_SHORT_START */\n      0xff\n      and\n        /* \"contracts/trie/RLPReader.sol\":3824:3829  byte0 */\n      dup3\n        /* \"contracts/trie/RLPReader.sol\":3824:3848  byte0 < LIST_SHORT_START */\n      0xff\n      and\n      lt\n        /* \"contracts/trie/RLPReader.sol\":3820:3862  if (byte0 < LIST_SHORT_START) return false */\n      iszero\n      tag_199\n      jumpi\n        /* \"contracts/trie/RLPReader.sol\":3857:3862  false */\n      0x00\n        /* \"contracts/trie/RLPReader.sol\":3850:3862  return false */\n      swap3\n      pop\n      pop\n      pop\n      jump(tag_197)\n        /* \"contracts/trie/RLPReader.sol\":3820:3862  if (byte0 < LIST_SHORT_START) return false */\n    tag_199:\n        /* \"contracts/trie/RLPReader.sol\":3879:3883  true */\n      0x01\n        /* \"contracts/trie/RLPReader.sol\":3872:3883  return true */\n      swap3\n      pop\n      pop\n      pop\n        /* \"contracts/trie/RLPReader.sol\":3569:3890  function isList(RLPItem memory item) internal pure returns (bool) {... */\n    tag_197:\n      swap2\n      swap1\n      pop\n      jump\t// out\n        /* \"contracts/trie/RLPReader.sol\":7329:7753  function numItems(RLPItem memory item) private pure returns (uint256) {... */\n    tag_149:\n        /* \"contracts/trie/RLPReader.sol\":7390:7397  uint256 */\n      0x00\n        /* \"contracts/trie/RLPReader.sol\":7425:7426  0 */\n      dup1\n        /* \"contracts/trie/RLPReader.sol\":7413:7417  item */\n      dup3\n        /* \"contracts/trie/RLPReader.sol\":7413:7421  item.len */\n      0x00\n      add\n      mload\n        /* \"contracts/trie/RLPReader.sol\":7413:7426  item.len == 0 */\n      sub\n        /* \"contracts/trie/RLPReader.sol\":7409:7436  if (item.len == 0) return 0 */\n      tag_201\n      jumpi\n        /* \"contracts/trie/RLPReader.sol\":7435:7436  0 */\n      0x00\n        /* \"contracts/trie/RLPReader.sol\":7428:7436  return 0 */\n      swap1\n      pop\n      jump(tag_200)\n        /* \"contracts/trie/RLPReader.sol\":7409:7436  if (item.len == 0) return 0 */\n    tag_201:\n        /* \"contracts/trie/RLPReader.sol\":7447:7460  uint256 count */\n      0x00\n        /* \"contracts/trie/RLPReader.sol\":7474:7489  uint256 currPtr */\n      dup1\n        /* \"contracts/trie/RLPReader.sol\":7506:7533  _payloadOffset(item.memPtr) */\n      tag_202\n        /* \"contracts/trie/RLPReader.sol\":7521:7525  item */\n      dup5\n        /* \"contracts/trie/RLPReader.sol\":7521:7532  item.memPtr */\n      0x20\n      add\n      mload\n        /* \"contracts/trie/RLPReader.sol\":7506:7520  _payloadOffset */\n      tag_156\n        /* \"contracts/trie/RLPReader.sol\":7506:7533  _payloadOffset(item.memPtr) */\n      jump\t// in\n    tag_202:\n        /* \"contracts/trie/RLPReader.sol\":7492:7496  item */\n      dup5\n        /* \"contracts/trie/RLPReader.sol\":7492:7503  item.memPtr */\n      0x20\n      add\n      mload\n        /* \"contracts/trie/RLPReader.sol\":7492:7533  item.memPtr + _payloadOffset(item.memPtr) */\n      tag_203\n      swap2\n      swap1\n      tag_158\n      jump\t// in\n    tag_203:\n        /* \"contracts/trie/RLPReader.sol\":7474:7533  uint256 currPtr = item.memPtr + _payloadOffset(item.memPtr) */\n      swap1\n      pop\n        /* \"contracts/trie/RLPReader.sol\":7543:7557  uint256 endPtr */\n      0x00\n        /* \"contracts/trie/RLPReader.sol\":7574:7578  item */\n      dup5\n        /* \"contracts/trie/RLPReader.sol\":7574:7582  item.len */\n      0x00\n      add\n      mload\n        /* \"contracts/trie/RLPReader.sol\":7560:7564  item */\n      dup6\n        /* \"contracts/trie/RLPReader.sol\":7560:7571  item.memPtr */\n      0x20\n      add\n      mload\n        /* \"contracts/trie/RLPReader.sol\":7560:7582  item.memPtr + item.len */\n      tag_204\n      swap2\n      swap1\n      tag_158\n      jump\t// in\n    tag_204:\n        /* \"contracts/trie/RLPReader.sol\":7543:7582  uint256 endPtr = item.memPtr + item.len */\n      swap1\n      pop\n        /* \"contracts/trie/RLPReader.sol\":7592:7724  while (currPtr < endPtr) {... */\n    tag_205:\n        /* \"contracts/trie/RLPReader.sol\":7609:7615  endPtr */\n      dup1\n        /* \"contracts/trie/RLPReader.sol\":7599:7606  currPtr */\n      dup3\n        /* \"contracts/trie/RLPReader.sol\":7599:7615  currPtr < endPtr */\n      lt\n        /* \"contracts/trie/RLPReader.sol\":7592:7724  while (currPtr < endPtr) {... */\n      iszero\n      tag_206\n      jumpi\n        /* \"contracts/trie/RLPReader.sol\":7651:7671  _itemLength(currPtr) */\n      tag_207\n        /* \"contracts/trie/RLPReader.sol\":7663:7670  currPtr */\n      dup3\n        /* \"contracts/trie/RLPReader.sol\":7651:7662  _itemLength */\n      tag_163\n        /* \"contracts/trie/RLPReader.sol\":7651:7671  _itemLength(currPtr) */\n      jump\t// in\n    tag_207:\n        /* \"contracts/trie/RLPReader.sol\":7641:7648  currPtr */\n      dup3\n        /* \"contracts/trie/RLPReader.sol\":7641:7671  currPtr + _itemLength(currPtr) */\n      tag_208\n      swap2\n      swap1\n      tag_158\n      jump\t// in\n    tag_208:\n        /* \"contracts/trie/RLPReader.sol\":7631:7671  currPtr = currPtr + _itemLength(currPtr) */\n      swap2\n      pop\n        /* \"contracts/trie/RLPReader.sol\":7706:7713  count++ */\n      dup3\n      dup1\n      tag_209\n      swap1\n      tag_210\n      jump\t// in\n    tag_209:\n      swap4\n      pop\n      pop\n        /* \"contracts/trie/RLPReader.sol\":7592:7724  while (currPtr < endPtr) {... */\n      jump(tag_205)\n    tag_206:\n        /* \"contracts/trie/RLPReader.sol\":7741:7746  count */\n      dup3\n        /* \"contracts/trie/RLPReader.sol\":7734:7746  return count */\n      swap4\n      pop\n      pop\n      pop\n      pop\n        /* \"contracts/trie/RLPReader.sol\":7329:7753  function numItems(RLPItem memory item) private pure returns (uint256) {... */\n    tag_200:\n      swap2\n      swap1\n      pop\n      jump\t// out\n        /* \"contracts/trie/RLPReader.sol\":9117:9698  function _payloadOffset(uint256 memPtr) private pure returns (uint256) {... */\n    tag_156:\n        /* \"contracts/trie/RLPReader.sol\":9179:9186  uint256 */\n      0x00\n        /* \"contracts/trie/RLPReader.sol\":9198:9211  uint256 byte0 */\n      dup1\n        /* \"contracts/trie/RLPReader.sol\":9267:9273  memPtr */\n      dup3\n        /* \"contracts/trie/RLPReader.sol\":9261:9274  mload(memPtr) */\n      mload\n        /* \"contracts/trie/RLPReader.sol\":9258:9259  0 */\n      0x00\n        /* \"contracts/trie/RLPReader.sol\":9253:9275  byte(0, mload(memPtr)) */\n      byte\n        /* \"contracts/trie/RLPReader.sol\":9244:9275  byte0 := byte(0, mload(memPtr)) */\n      swap1\n      pop\n        /* \"contracts/trie/RLPReader.sol\":239:243  0x80 */\n      0x80\n        /* \"contracts/trie/RLPReader.sol\":9299:9325  byte0 < STRING_SHORT_START */\n      0xff\n      and\n        /* \"contracts/trie/RLPReader.sol\":9299:9304  byte0 */\n      dup2\n        /* \"contracts/trie/RLPReader.sol\":9299:9325  byte0 < STRING_SHORT_START */\n      lt\n        /* \"contracts/trie/RLPReader.sol\":9295:9692  if (byte0 < STRING_SHORT_START) {... */\n      iszero\n      tag_212\n      jumpi\n        /* \"contracts/trie/RLPReader.sol\":9348:9349  0 */\n      0x00\n        /* \"contracts/trie/RLPReader.sol\":9341:9349  return 0 */\n      swap2\n      pop\n      pop\n      jump(tag_211)\n        /* \"contracts/trie/RLPReader.sol\":9295:9692  if (byte0 < STRING_SHORT_START) {... */\n    tag_212:\n        /* \"contracts/trie/RLPReader.sol\":284:288  0xb8 */\n      0xb8\n        /* \"contracts/trie/RLPReader.sol\":9370:9395  byte0 < STRING_LONG_START */\n      0xff\n      and\n        /* \"contracts/trie/RLPReader.sol\":9370:9375  byte0 */\n      dup2\n        /* \"contracts/trie/RLPReader.sol\":9370:9395  byte0 < STRING_LONG_START */\n      lt\n        /* \"contracts/trie/RLPReader.sol\":9370:9453  byte0 < STRING_LONG_START || (byte0 >= LIST_SHORT_START && byte0 < LIST_LONG_START) */\n      dup1\n      tag_214\n      jumpi\n      pop\n        /* \"contracts/trie/RLPReader.sol\":328:332  0xc0 */\n      0xc0\n        /* \"contracts/trie/RLPReader.sol\":9400:9425  byte0 >= LIST_SHORT_START */\n      0xff\n      and\n        /* \"contracts/trie/RLPReader.sol\":9400:9405  byte0 */\n      dup2\n        /* \"contracts/trie/RLPReader.sol\":9400:9425  byte0 >= LIST_SHORT_START */\n      lt\n      iszero\n        /* \"contracts/trie/RLPReader.sol\":9400:9452  byte0 >= LIST_SHORT_START && byte0 < LIST_LONG_START */\n      dup1\n      iszero\n      tag_215\n      jumpi\n      pop\n        /* \"contracts/trie/RLPReader.sol\":371:375  0xf8 */\n      0xf8\n        /* \"contracts/trie/RLPReader.sol\":9429:9452  byte0 < LIST_LONG_START */\n      0xff\n      and\n        /* \"contracts/trie/RLPReader.sol\":9429:9434  byte0 */\n      dup2\n        /* \"contracts/trie/RLPReader.sol\":9429:9452  byte0 < LIST_LONG_START */\n      lt\n        /* \"contracts/trie/RLPReader.sol\":9400:9452  byte0 >= LIST_SHORT_START && byte0 < LIST_LONG_START */\n    tag_215:\n        /* \"contracts/trie/RLPReader.sol\":9370:9453  byte0 < STRING_LONG_START || (byte0 >= LIST_SHORT_START && byte0 < LIST_LONG_START) */\n    tag_214:\n        /* \"contracts/trie/RLPReader.sol\":9366:9692  if (byte0 < STRING_LONG_START || (byte0 >= LIST_SHORT_START && byte0 < LIST_LONG_START)) {... */\n      iszero\n      tag_216\n      jumpi\n        /* \"contracts/trie/RLPReader.sol\":9476:9477  1 */\n      0x01\n        /* \"contracts/trie/RLPReader.sol\":9469:9477  return 1 */\n      swap2\n      pop\n      pop\n      jump(tag_211)\n        /* \"contracts/trie/RLPReader.sol\":9366:9692  if (byte0 < STRING_LONG_START || (byte0 >= LIST_SHORT_START && byte0 < LIST_LONG_START)) {... */\n    tag_216:\n        /* \"contracts/trie/RLPReader.sol\":328:332  0xc0 */\n      0xc0\n        /* \"contracts/trie/RLPReader.sol\":9498:9522  byte0 < LIST_SHORT_START */\n      0xff\n      and\n        /* \"contracts/trie/RLPReader.sol\":9498:9503  byte0 */\n      dup2\n        /* \"contracts/trie/RLPReader.sol\":9498:9522  byte0 < LIST_SHORT_START */\n      lt\n        /* \"contracts/trie/RLPReader.sol\":9494:9692  if (byte0 < LIST_SHORT_START) {... */\n      iszero\n      tag_218\n      jumpi\n        /* \"contracts/trie/RLPReader.sol\":9609:9610  1 */\n      0x01\n        /* \"contracts/trie/RLPReader.sol\":9604:9605  1 */\n      dup1\n        /* \"contracts/trie/RLPReader.sol\":284:288  0xb8 */\n      0xb8\n        /* \"contracts/trie/RLPReader.sol\":9584:9605  STRING_LONG_START - 1 */\n      tag_219\n      swap2\n      swap1\n      tag_220\n      jump\t// in\n    tag_219:\n        /* \"contracts/trie/RLPReader.sol\":9575:9606  byte0 - (STRING_LONG_START - 1) */\n      0xff\n      and\n        /* \"contracts/trie/RLPReader.sol\":9575:9580  byte0 */\n      dup3\n        /* \"contracts/trie/RLPReader.sol\":9575:9606  byte0 - (STRING_LONG_START - 1) */\n      tag_221\n      swap2\n      swap1\n      tag_179\n      jump\t// in\n    tag_221:\n        /* \"contracts/trie/RLPReader.sol\":9575:9610  byte0 - (STRING_LONG_START - 1) + 1 */\n      tag_222\n      swap2\n      swap1\n      tag_158\n      jump\t// in\n    tag_222:\n        /* \"contracts/trie/RLPReader.sol\":9568:9610  return byte0 - (STRING_LONG_START - 1) + 1 */\n      swap2\n      pop\n      pop\n      jump(tag_211)\n        /* \"contracts/trie/RLPReader.sol\":9494:9692  if (byte0 < LIST_SHORT_START) {... */\n    tag_218:\n        /* \"contracts/trie/RLPReader.sol\":9680:9681  1 */\n      0x01\n        /* \"contracts/trie/RLPReader.sol\":9675:9676  1 */\n      dup1\n        /* \"contracts/trie/RLPReader.sol\":371:375  0xf8 */\n      0xf8\n        /* \"contracts/trie/RLPReader.sol\":9657:9676  LIST_LONG_START - 1 */\n      tag_224\n      swap2\n      swap1\n      tag_220\n      jump\t// in\n    tag_224:\n        /* \"contracts/trie/RLPReader.sol\":9648:9677  byte0 - (LIST_LONG_START - 1) */\n      0xff\n      and\n        /* \"contracts/trie/RLPReader.sol\":9648:9653  byte0 */\n      dup3\n        /* \"contracts/trie/RLPReader.sol\":9648:9677  byte0 - (LIST_LONG_START - 1) */\n      tag_225\n      swap2\n      swap1\n      tag_179\n      jump\t// in\n    tag_225:\n        /* \"contracts/trie/RLPReader.sol\":9648:9681  byte0 - (LIST_LONG_START - 1) + 1 */\n      tag_226\n      swap2\n      swap1\n      tag_158\n      jump\t// in\n    tag_226:\n        /* \"contracts/trie/RLPReader.sol\":9641:9681  return byte0 - (LIST_LONG_START - 1) + 1 */\n      swap2\n      pop\n      pop\n        /* \"contracts/trie/RLPReader.sol\":9117:9698  function _payloadOffset(uint256 memPtr) private pure returns (uint256) {... */\n    tag_211:\n      swap2\n      swap1\n      pop\n      jump\t// out\n        /* \"contracts/trie/RLPReader.sol\":7802:9065  function _itemLength(uint256 memPtr) private pure returns (uint256) {... */\n    tag_163:\n        /* \"contracts/trie/RLPReader.sol\":7861:7868  uint256 */\n      0x00\n        /* \"contracts/trie/RLPReader.sol\":7880:7895  uint256 itemLen */\n      dup1\n        /* \"contracts/trie/RLPReader.sol\":7905:7918  uint256 byte0 */\n      0x00\n        /* \"contracts/trie/RLPReader.sol\":7974:7980  memPtr */\n      dup4\n        /* \"contracts/trie/RLPReader.sol\":7968:7981  mload(memPtr) */\n      mload\n        /* \"contracts/trie/RLPReader.sol\":7965:7966  0 */\n      0x00\n        /* \"contracts/trie/RLPReader.sol\":7960:7982  byte(0, mload(memPtr)) */\n      byte\n        /* \"contracts/trie/RLPReader.sol\":7951:7982  byte0 := byte(0, mload(memPtr)) */\n      swap1\n      pop\n        /* \"contracts/trie/RLPReader.sol\":239:243  0x80 */\n      0x80\n        /* \"contracts/trie/RLPReader.sol\":8006:8032  byte0 < STRING_SHORT_START */\n      0xff\n      and\n        /* \"contracts/trie/RLPReader.sol\":8006:8011  byte0 */\n      dup2\n        /* \"contracts/trie/RLPReader.sol\":8006:8032  byte0 < STRING_SHORT_START */\n      lt\n        /* \"contracts/trie/RLPReader.sol\":8002:9034  if (byte0 < STRING_SHORT_START) {... */\n      iszero\n      tag_228\n      jumpi\n        /* \"contracts/trie/RLPReader.sol\":8058:8059  1 */\n      0x01\n        /* \"contracts/trie/RLPReader.sol\":8048:8059  itemLen = 1 */\n      swap2\n      pop\n        /* \"contracts/trie/RLPReader.sol\":8002:9034  if (byte0 < STRING_SHORT_START) {... */\n      jump(tag_229)\n    tag_228:\n        /* \"contracts/trie/RLPReader.sol\":284:288  0xb8 */\n      0xb8\n        /* \"contracts/trie/RLPReader.sol\":8080:8105  byte0 < STRING_LONG_START */\n      0xff\n      and\n        /* \"contracts/trie/RLPReader.sol\":8080:8085  byte0 */\n      dup2\n        /* \"contracts/trie/RLPReader.sol\":8080:8105  byte0 < STRING_LONG_START */\n      lt\n        /* \"contracts/trie/RLPReader.sol\":8076:9034  if (byte0 < STRING_LONG_START) {... */\n      iszero\n      tag_230\n      jumpi\n        /* \"contracts/trie/RLPReader.sol\":8160:8161  1 */\n      0x01\n        /* \"contracts/trie/RLPReader.sol\":239:243  0x80 */\n      0x80\n        /* \"contracts/trie/RLPReader.sol\":8131:8157  byte0 - STRING_SHORT_START */\n      0xff\n      and\n        /* \"contracts/trie/RLPReader.sol\":8131:8136  byte0 */\n      dup3\n        /* \"contracts/trie/RLPReader.sol\":8131:8157  byte0 - STRING_SHORT_START */\n      tag_231\n      swap2\n      swap1\n      tag_179\n      jump\t// in\n    tag_231:\n        /* \"contracts/trie/RLPReader.sol\":8131:8161  byte0 - STRING_SHORT_START + 1 */\n      tag_232\n      swap2\n      swap1\n      tag_158\n      jump\t// in\n    tag_232:\n        /* \"contracts/trie/RLPReader.sol\":8121:8161  itemLen = byte0 - STRING_SHORT_START + 1 */\n      swap2\n      pop\n        /* \"contracts/trie/RLPReader.sol\":8076:9034  if (byte0 < STRING_LONG_START) {... */\n      jump(tag_233)\n    tag_230:\n        /* \"contracts/trie/RLPReader.sol\":328:332  0xc0 */\n      0xc0\n        /* \"contracts/trie/RLPReader.sol\":8182:8206  byte0 < LIST_SHORT_START */\n      0xff\n      and\n        /* \"contracts/trie/RLPReader.sol\":8182:8187  byte0 */\n      dup2\n        /* \"contracts/trie/RLPReader.sol\":8182:8206  byte0 < LIST_SHORT_START */\n      lt\n        /* \"contracts/trie/RLPReader.sol\":8178:9034  if (byte0 < LIST_SHORT_START) {... */\n      iszero\n      tag_234\n      jumpi\n        /* \"contracts/trie/RLPReader.sol\":8275:8279  0xb7 */\n      0xb7\n        /* \"contracts/trie/RLPReader.sol\":8268:8273  byte0 */\n      dup2\n        /* \"contracts/trie/RLPReader.sol\":8264:8280  sub(byte0, 0xb7) */\n      sub\n        /* \"contracts/trie/RLPReader.sol\":8354:8355  1 */\n      0x01\n        /* \"contracts/trie/RLPReader.sol\":8346:8352  memPtr */\n      dup6\n        /* \"contracts/trie/RLPReader.sol\":8342:8356  add(memPtr, 1) */\n      add\n        /* \"contracts/trie/RLPReader.sol\":8332:8356  memPtr := add(memPtr, 1) */\n      swap5\n      pop\n        /* \"contracts/trie/RLPReader.sol\":8493:8500  byteLen */\n      dup1\n        /* \"contracts/trie/RLPReader.sol\":8489:8491  32 */\n      0x20\n        /* \"contracts/trie/RLPReader.sol\":8485:8501  sub(32, byteLen) */\n      sub\n        /* \"contracts/trie/RLPReader.sol\":8480:8483  256 */\n      0x0100\n        /* \"contracts/trie/RLPReader.sol\":8476:8502  exp(256, sub(32, byteLen)) */\n      exp\n        /* \"contracts/trie/RLPReader.sol\":8467:8473  memPtr */\n      dup6\n        /* \"contracts/trie/RLPReader.sol\":8461:8474  mload(memPtr) */\n      mload\n        /* \"contracts/trie/RLPReader.sol\":8457:8503  div(mload(memPtr), exp(256, sub(32, byteLen))) */\n      div\n        /* \"contracts/trie/RLPReader.sol\":8590:8591  1 */\n      0x01\n        /* \"contracts/trie/RLPReader.sol\":8581:8588  byteLen */\n      dup3\n        /* \"contracts/trie/RLPReader.sol\":8577:8592  add(byteLen, 1) */\n      add\n        /* \"contracts/trie/RLPReader.sol\":8568:8575  dataLen */\n      dup2\n        /* \"contracts/trie/RLPReader.sol\":8564:8593  add(dataLen, add(byteLen, 1)) */\n      add\n        /* \"contracts/trie/RLPReader.sol\":8553:8593  itemLen := add(dataLen, add(byteLen, 1)) */\n      swap4\n      pop\n        /* \"contracts/trie/RLPReader.sol\":8231:8607  {... */\n      pop\n      pop\n        /* \"contracts/trie/RLPReader.sol\":8178:9034  if (byte0 < LIST_SHORT_START) {... */\n      jump(tag_235)\n    tag_234:\n        /* \"contracts/trie/RLPReader.sol\":371:375  0xf8 */\n      0xf8\n        /* \"contracts/trie/RLPReader.sol\":8627:8650  byte0 < LIST_LONG_START */\n      0xff\n      and\n        /* \"contracts/trie/RLPReader.sol\":8627:8632  byte0 */\n      dup2\n        /* \"contracts/trie/RLPReader.sol\":8627:8650  byte0 < LIST_LONG_START */\n      lt\n        /* \"contracts/trie/RLPReader.sol\":8623:9034  if (byte0 < LIST_LONG_START) {... */\n      iszero\n      tag_236\n      jumpi\n        /* \"contracts/trie/RLPReader.sol\":8703:8704  1 */\n      0x01\n        /* \"contracts/trie/RLPReader.sol\":328:332  0xc0 */\n      0xc0\n        /* \"contracts/trie/RLPReader.sol\":8676:8700  byte0 - LIST_SHORT_START */\n      0xff\n      and\n        /* \"contracts/trie/RLPReader.sol\":8676:8681  byte0 */\n      dup3\n        /* \"contracts/trie/RLPReader.sol\":8676:8700  byte0 - LIST_SHORT_START */\n      tag_237\n      swap2\n      swap1\n      tag_179\n      jump\t// in\n    tag_237:\n        /* \"contracts/trie/RLPReader.sol\":8676:8704  byte0 - LIST_SHORT_START + 1 */\n      tag_238\n      swap2\n      swap1\n      tag_158\n      jump\t// in\n    tag_238:\n        /* \"contracts/trie/RLPReader.sol\":8666:8704  itemLen = byte0 - LIST_SHORT_START + 1 */\n      swap2\n      pop\n        /* \"contracts/trie/RLPReader.sol\":8623:9034  if (byte0 < LIST_LONG_START) {... */\n      jump(tag_239)\n    tag_236:\n        /* \"contracts/trie/RLPReader.sol\":8788:8792  0xf7 */\n      0xf7\n        /* \"contracts/trie/RLPReader.sol\":8781:8786  byte0 */\n      dup2\n        /* \"contracts/trie/RLPReader.sol\":8777:8793  sub(byte0, 0xf7) */\n      sub\n        /* \"contracts/trie/RLPReader.sol\":8832:8833  1 */\n      0x01\n        /* \"contracts/trie/RLPReader.sol\":8824:8830  memPtr */\n      dup6\n        /* \"contracts/trie/RLPReader.sol\":8820:8834  add(memPtr, 1) */\n      add\n        /* \"contracts/trie/RLPReader.sol\":8810:8834  memPtr := add(memPtr, 1) */\n      swap5\n      pop\n        /* \"contracts/trie/RLPReader.sol\":8903:8910  byteLen */\n      dup1\n        /* \"contracts/trie/RLPReader.sol\":8899:8901  32 */\n      0x20\n        /* \"contracts/trie/RLPReader.sol\":8895:8911  sub(32, byteLen) */\n      sub\n        /* \"contracts/trie/RLPReader.sol\":8890:8893  256 */\n      0x0100\n        /* \"contracts/trie/RLPReader.sol\":8886:8912  exp(256, sub(32, byteLen)) */\n      exp\n        /* \"contracts/trie/RLPReader.sol\":8877:8883  memPtr */\n      dup6\n        /* \"contracts/trie/RLPReader.sol\":8871:8884  mload(memPtr) */\n      mload\n        /* \"contracts/trie/RLPReader.sol\":8867:8913  div(mload(memPtr), exp(256, sub(32, byteLen))) */\n      div\n        /* \"contracts/trie/RLPReader.sol\":9007:9008  1 */\n      0x01\n        /* \"contracts/trie/RLPReader.sol\":8998:9005  byteLen */\n      dup3\n        /* \"contracts/trie/RLPReader.sol\":8994:9009  add(byteLen, 1) */\n      add\n        /* \"contracts/trie/RLPReader.sol\":8985:8992  dataLen */\n      dup2\n        /* \"contracts/trie/RLPReader.sol\":8981:9010  add(dataLen, add(byteLen, 1)) */\n      add\n        /* \"contracts/trie/RLPReader.sol\":8970:9010  itemLen := add(dataLen, add(byteLen, 1)) */\n      swap4\n      pop\n        /* \"contracts/trie/RLPReader.sol\":8744:9024  {... */\n      pop\n      pop\n        /* \"contracts/trie/RLPReader.sol\":8623:9034  if (byte0 < LIST_LONG_START) {... */\n    tag_239:\n        /* \"contracts/trie/RLPReader.sol\":8178:9034  if (byte0 < LIST_SHORT_START) {... */\n    tag_235:\n        /* \"contracts/trie/RLPReader.sol\":8076:9034  if (byte0 < STRING_LONG_START) {... */\n    tag_233:\n        /* \"contracts/trie/RLPReader.sol\":8002:9034  if (byte0 < STRING_SHORT_START) {... */\n    tag_229:\n        /* \"contracts/trie/RLPReader.sol\":9051:9058  itemLen */\n      dup2\n        /* \"contracts/trie/RLPReader.sol\":9044:9058  return itemLen */\n      swap3\n      pop\n      pop\n      pop\n        /* \"contracts/trie/RLPReader.sol\":7802:9065  function _itemLength(uint256 memPtr) private pure returns (uint256) {... */\n      swap2\n      swap1\n      pop\n      jump\t// out\n        /* \"contracts/trie/RLPReader.sol\":2390:2671  function payloadLocation(RLPItem memory item) internal pure returns (uint256, uint256) {... */\n    tag_170:\n        /* \"contracts/trie/RLPReader.sol\":2459:2466  uint256 */\n      0x00\n        /* \"contracts/trie/RLPReader.sol\":2468:2475  uint256 */\n      dup1\n        /* \"contracts/trie/RLPReader.sol\":2487:2501  uint256 offset */\n      0x00\n        /* \"contracts/trie/RLPReader.sol\":2504:2531  _payloadOffset(item.memPtr) */\n      tag_241\n        /* \"contracts/trie/RLPReader.sol\":2519:2523  item */\n      dup5\n        /* \"contracts/trie/RLPReader.sol\":2519:2530  item.memPtr */\n      0x20\n      add\n      mload\n        /* \"contracts/trie/RLPReader.sol\":2504:2518  _payloadOffset */\n      tag_156\n        /* \"contracts/trie/RLPReader.sol\":2504:2531  _payloadOffset(item.memPtr) */\n      jump\t// in\n    tag_241:\n        /* \"contracts/trie/RLPReader.sol\":2487:2531  uint256 offset = _payloadOffset(item.memPtr) */\n      swap1\n      pop\n        /* \"contracts/trie/RLPReader.sol\":2541:2555  uint256 memPtr */\n      0x00\n        /* \"contracts/trie/RLPReader.sol\":2572:2578  offset */\n      dup2\n        /* \"contracts/trie/RLPReader.sol\":2558:2562  item */\n      dup6\n        /* \"contracts/trie/RLPReader.sol\":2558:2569  item.memPtr */\n      0x20\n      add\n      mload\n        /* \"contracts/trie/RLPReader.sol\":2558:2578  item.memPtr + offset */\n      tag_242\n      swap2\n      swap1\n      tag_158\n      jump\t// in\n    tag_242:\n        /* \"contracts/trie/RLPReader.sol\":2541:2578  uint256 memPtr = item.memPtr + offset */\n      swap1\n      pop\n        /* \"contracts/trie/RLPReader.sol\":2588:2599  uint256 len */\n      0x00\n        /* \"contracts/trie/RLPReader.sol\":2613:2619  offset */\n      dup3\n        /* \"contracts/trie/RLPReader.sol\":2602:2606  item */\n      dup7\n        /* \"contracts/trie/RLPReader.sol\":2602:2610  item.len */\n      0x00\n      add\n      mload\n        /* \"contracts/trie/RLPReader.sol\":2602:2619  item.len - offset */\n      tag_243\n      swap2\n      swap1\n      tag_179\n      jump\t// in\n    tag_243:\n        /* \"contracts/trie/RLPReader.sol\":2588:2619  uint256 len = item.len - offset */\n      swap1\n      pop\n        /* \"contracts/trie/RLPReader.sol\":2652:2658  memPtr */\n      dup2\n        /* \"contracts/trie/RLPReader.sol\":2660:2663  len */\n      dup2\n        /* \"contracts/trie/RLPReader.sol\":2644:2664  return (memPtr, len) */\n      swap5\n      pop\n      swap5\n      pop\n      pop\n      pop\n      pop\n        /* \"contracts/trie/RLPReader.sol\":2390:2671  function payloadLocation(RLPItem memory item) internal pure returns (uint256, uint256) {... */\n      swap2\n      pop\n      swap2\n      jump\t// out\n        /* \"contracts/trie/RLPReader.sol\":9856:10626  function copy(uint256 src, uint256 dest, uint256 len) private pure {... */\n    tag_175:\n        /* \"contracts/trie/RLPReader.sol\":9944:9945  0 */\n      0x00\n        /* \"contracts/trie/RLPReader.sol\":9937:9940  len */\n      dup2\n        /* \"contracts/trie/RLPReader.sol\":9937:9945  len == 0 */\n      sub\n        /* \"contracts/trie/RLPReader.sol\":9933:9954  if (len == 0) return; */\n      iszero\n        /* \"contracts/trie/RLPReader.sol\":9947:9954  return; */\n      tag_244\n        /* \"contracts/trie/RLPReader.sol\":9933:9954  if (len == 0) return; */\n      jumpi\n        /* \"contracts/trie/RLPReader.sol\":10011:10205  for (; len >= WORD_SIZE; len -= WORD_SIZE) {... */\n    tag_246:\n        /* \"contracts/trie/RLPReader.sol\":408:410  32 */\n      0x20\n        /* \"contracts/trie/RLPReader.sol\":10018:10034  len >= WORD_SIZE */\n      0xff\n      and\n        /* \"contracts/trie/RLPReader.sol\":10018:10021  len */\n      dup2\n        /* \"contracts/trie/RLPReader.sol\":10018:10034  len >= WORD_SIZE */\n      lt\n        /* \"contracts/trie/RLPReader.sol\":10011:10205  for (; len >= WORD_SIZE; len -= WORD_SIZE) {... */\n      tag_247\n      jumpi\n        /* \"contracts/trie/RLPReader.sol\":10114:10117  src */\n      dup3\n        /* \"contracts/trie/RLPReader.sol\":10108:10118  mload(src) */\n      mload\n        /* \"contracts/trie/RLPReader.sol\":10102:10106  dest */\n      dup3\n        /* \"contracts/trie/RLPReader.sol\":10095:10119  mstore(dest, mload(src)) */\n      mstore\n        /* \"contracts/trie/RLPReader.sol\":408:410  32 */\n      0x20\n        /* \"contracts/trie/RLPReader.sol\":10147:10163  src += WORD_SIZE */\n      0xff\n      and\n      dup4\n      tag_249\n      swap2\n      swap1\n      tag_158\n      jump\t// in\n    tag_249:\n      swap3\n      pop\n        /* \"contracts/trie/RLPReader.sol\":408:410  32 */\n      0x20\n        /* \"contracts/trie/RLPReader.sol\":10177:10194  dest += WORD_SIZE */\n      0xff\n      and\n      dup3\n      tag_250\n      swap2\n      swap1\n      tag_158\n      jump\t// in\n    tag_250:\n      swap2\n      pop\n        /* \"contracts/trie/RLPReader.sol\":408:410  32 */\n      0x20\n        /* \"contracts/trie/RLPReader.sol\":10036:10052  len -= WORD_SIZE */\n      0xff\n      and\n      dup2\n      tag_251\n      swap2\n      swap1\n      tag_179\n      jump\t// in\n    tag_251:\n      swap1\n      pop\n        /* \"contracts/trie/RLPReader.sol\":10011:10205  for (; len >= WORD_SIZE; len -= WORD_SIZE) {... */\n      jump(tag_246)\n    tag_247:\n        /* \"contracts/trie/RLPReader.sol\":10225:10226  0 */\n      0x00\n        /* \"contracts/trie/RLPReader.sol\":10219:10222  len */\n      dup2\n        /* \"contracts/trie/RLPReader.sol\":10219:10226  len > 0 */\n      gt\n        /* \"contracts/trie/RLPReader.sol\":10215:10620  if (len > 0) {... */\n      iszero\n      tag_252\n      jumpi\n        /* \"contracts/trie/RLPReader.sol\":10326:10338  uint256 mask */\n      0x00\n        /* \"contracts/trie/RLPReader.sol\":10368:10369  1 */\n      0x01\n        /* \"contracts/trie/RLPReader.sol\":10361:10364  len */\n      dup3\n        /* \"contracts/trie/RLPReader.sol\":408:410  32 */\n      0x20\n        /* \"contracts/trie/RLPReader.sol\":10349:10364  WORD_SIZE - len */\n      0xff\n      and\n      tag_253\n      swap2\n      swap1\n      tag_179\n      jump\t// in\n    tag_253:\n        /* \"contracts/trie/RLPReader.sol\":10341:10344  256 */\n      0x0100\n        /* \"contracts/trie/RLPReader.sol\":10341:10365  256 ** (WORD_SIZE - len) */\n      tag_254\n      swap2\n      swap1\n      tag_255\n      jump\t// in\n    tag_254:\n        /* \"contracts/trie/RLPReader.sol\":10341:10369  256 ** (WORD_SIZE - len) - 1 */\n      tag_256\n      swap2\n      swap1\n      tag_179\n      jump\t// in\n    tag_256:\n        /* \"contracts/trie/RLPReader.sol\":10326:10369  uint256 mask = 256 ** (WORD_SIZE - len) - 1 */\n      swap1\n      pop\n        /* \"contracts/trie/RLPReader.sol\":10445:10449  mask */\n      dup1\n        /* \"contracts/trie/RLPReader.sol\":10441:10450  not(mask) */\n      not\n        /* \"contracts/trie/RLPReader.sol\":10435:10438  src */\n      dup5\n        /* \"contracts/trie/RLPReader.sol\":10429:10439  mload(src) */\n      mload\n        /* \"contracts/trie/RLPReader.sol\":10425:10451  and(mload(src), not(mask)) */\n      and\n        /* \"contracts/trie/RLPReader.sol\":10517:10521  mask */\n      dup2\n        /* \"contracts/trie/RLPReader.sol\":10510:10514  dest */\n      dup5\n        /* \"contracts/trie/RLPReader.sol\":10504:10515  mload(dest) */\n      mload\n        /* \"contracts/trie/RLPReader.sol\":10500:10522  and(mload(dest), mask) */\n      and\n        /* \"contracts/trie/RLPReader.sol\":10587:10594  srcpart */\n      dup2\n        /* \"contracts/trie/RLPReader.sol\":10577:10585  destpart */\n      dup2\n        /* \"contracts/trie/RLPReader.sol\":10574:10595  or(destpart, srcpart) */\n      or\n        /* \"contracts/trie/RLPReader.sol\":10568:10572  dest */\n      dup6\n        /* \"contracts/trie/RLPReader.sol\":10561:10596  mstore(dest, or(destpart, srcpart)) */\n      mstore\n        /* \"contracts/trie/RLPReader.sol\":10392:10610  {... */\n      pop\n      pop\n      pop\n        /* \"contracts/trie/RLPReader.sol\":10215:10620  if (len > 0) {... */\n    tag_252:\n        /* \"contracts/trie/RLPReader.sol\":9856:10626  function copy(uint256 src, uint256 dest, uint256 len) private pure {... */\n    tag_244:\n      pop\n      pop\n      pop\n      jump\t// out\n        /* \"contracts/trie/Memory.sol\":1235:1398  function dataPtr(bytes memory bts) internal pure returns (uint256 addr) {... */\n    tag_181:\n        /* \"contracts/trie/Memory.sol\":1293:1305  uint256 addr */\n      0x00\n        /* \"contracts/trie/Memory.sol\":1379:1381  32 */\n      0x20\n        /* \"contracts/trie/Memory.sol\":1352:1355  bts */\n      dup3\n        /* \"contracts/trie/Memory.sol\":1348:1382  add(bts, /*BYTES_HEADER_SIZE*/ 32) */\n      add\n        /* \"contracts/trie/Memory.sol\":1340:1382  addr := add(bts, /*BYTES_HEADER_SIZE*/ 32) */\n      swap1\n      pop\n        /* \"contracts/trie/Memory.sol\":1235:1398  function dataPtr(bytes memory bts) internal pure returns (uint256 addr) {... */\n      swap2\n      swap1\n      pop\n      jump\t// out\n        /* \"contracts/trie/Memory.sol\":1648:1935  function toBytes(... */\n    tag_184:\n        /* \"contracts/trie/Memory.sol\":1737:1753  bytes memory bts */\n      0x60\n        /* \"contracts/trie/Memory.sol\":1781:1784  len */\n      dup2\n        /* \"contracts/trie/Memory.sol\":1771:1785  new bytes(len) */\n      0xffffffffffffffff\n      dup2\n      gt\n      iszero\n      tag_259\n      jumpi\n      tag_260\n      tag_82\n      jump\t// in\n    tag_260:\n    tag_259:\n      mload(0x40)\n      swap1\n      dup1\n      dup3\n      mstore\n      dup1\n      0x1f\n      add\n      not(0x1f)\n      and\n      0x20\n      add\n      dup3\n      add\n      0x40\n      mstore\n      dup1\n      iszero\n      tag_261\n      jumpi\n      dup2\n      0x20\n      add\n      0x01\n      dup3\n      mul\n      dup1\n      calldatasize\n      dup4\n      calldatacopy\n      dup1\n      dup3\n      add\n      swap2\n      pop\n      pop\n      swap1\n      pop\n    tag_261:\n      pop\n        /* \"contracts/trie/Memory.sol\":1765:1785  bts = new bytes(len) */\n      swap1\n      pop\n        /* \"contracts/trie/Memory.sol\":1795:1809  uint256 btsptr */\n      0x00\n        /* \"contracts/trie/Memory.sol\":1883:1885  32 */\n      0x20\n        /* \"contracts/trie/Memory.sol\":1856:1859  bts */\n      dup3\n        /* \"contracts/trie/Memory.sol\":1852:1886  add(bts, /*BYTES_HEADER_SIZE*/ 32) */\n      add\n        /* \"contracts/trie/Memory.sol\":1842:1886  btsptr := add(bts, /*BYTES_HEADER_SIZE*/ 32) */\n      swap1\n      pop\n        /* \"contracts/trie/Memory.sol\":1905:1928  copy(addr, btsptr, len) */\n      tag_262\n        /* \"contracts/trie/Memory.sol\":1910:1914  addr */\n      dup5\n        /* \"contracts/trie/Memory.sol\":1916:1922  btsptr */\n      dup3\n        /* \"contracts/trie/Memory.sol\":1924:1927  len */\n      dup6\n        /* \"contracts/trie/Memory.sol\":1905:1909  copy */\n      tag_263\n        /* \"contracts/trie/Memory.sol\":1905:1928  copy(addr, btsptr, len) */\n      jump\t// in\n    tag_262:\n        /* \"contracts/trie/Memory.sol\":1755:1935  {... */\n      pop\n        /* \"contracts/trie/Memory.sol\":1648:1935  function toBytes(... */\n      swap3\n      swap2\n      pop\n      pop\n      jump\t// out\n        /* \"contracts/trie/Memory.sol\":2450:3149  function copy(uint256 src, uint256 dest, uint256 len) internal pure {... */\n    tag_263:\n        /* \"contracts/trie/Memory.sol\":2578:2771  for (; len >= WORD_SIZE; len -= WORD_SIZE) {... */\n    tag_265:\n        /* \"contracts/trie/Memory.sol\":122:124  32 */\n      0x20\n        /* \"contracts/trie/Memory.sol\":2585:2588  len */\n      dup2\n        /* \"contracts/trie/Memory.sol\":2585:2601  len >= WORD_SIZE */\n      lt\n        /* \"contracts/trie/Memory.sol\":2578:2771  for (; len >= WORD_SIZE; len -= WORD_SIZE) {... */\n      tag_266\n      jumpi\n        /* \"contracts/trie/Memory.sol\":2681:2684  src */\n      dup3\n        /* \"contracts/trie/Memory.sol\":2675:2685  mload(src) */\n      mload\n        /* \"contracts/trie/Memory.sol\":2669:2673  dest */\n      dup3\n        /* \"contracts/trie/Memory.sol\":2662:2686  mstore(dest, mload(src)) */\n      mstore\n        /* \"contracts/trie/Memory.sol\":122:124  32 */\n      0x20\n        /* \"contracts/trie/Memory.sol\":2713:2730  dest += WORD_SIZE */\n      dup3\n      tag_268\n      swap2\n      swap1\n      tag_158\n      jump\t// in\n    tag_268:\n      swap2\n      pop\n        /* \"contracts/trie/Memory.sol\":122:124  32 */\n      0x20\n        /* \"contracts/trie/Memory.sol\":2744:2760  src += WORD_SIZE */\n      dup4\n      tag_269\n      swap2\n      swap1\n      tag_158\n      jump\t// in\n    tag_269:\n      swap3\n      pop\n        /* \"contracts/trie/Memory.sol\":122:124  32 */\n      0x20\n        /* \"contracts/trie/Memory.sol\":2603:2619  len -= WORD_SIZE */\n      dup2\n      tag_270\n      swap2\n      swap1\n      tag_179\n      jump\t// in\n    tag_270:\n      swap1\n      pop\n        /* \"contracts/trie/Memory.sol\":2578:2771  for (; len >= WORD_SIZE; len -= WORD_SIZE) {... */\n      jump(tag_265)\n    tag_266:\n        /* \"contracts/trie/Memory.sol\":2813:2825  uint256 mask */\n      0x00\n        /* \"contracts/trie/Memory.sol\":2835:2836  0 */\n      dup1\n        /* \"contracts/trie/Memory.sol\":2828:2831  len */\n      dup3\n        /* \"contracts/trie/Memory.sol\":2828:2836  len == 0 */\n      eq\n        /* \"contracts/trie/Memory.sol\":2828:2960  len == 0... */\n      tag_271\n      jumpi\n        /* \"contracts/trie/Memory.sol\":2959:2960  1 */\n      0x01\n        /* \"contracts/trie/Memory.sol\":2952:2955  len */\n      dup3\n        /* \"contracts/trie/Memory.sol\":122:124  32 */\n      0x20\n        /* \"contracts/trie/Memory.sol\":2940:2955  WORD_SIZE - len */\n      tag_272\n      swap2\n      swap1\n      tag_179\n      jump\t// in\n    tag_272:\n        /* \"contracts/trie/Memory.sol\":2932:2935  256 */\n      0x0100\n        /* \"contracts/trie/Memory.sol\":2932:2956  256 ** (WORD_SIZE - len) */\n      tag_273\n      swap2\n      swap1\n      tag_255\n      jump\t// in\n    tag_273:\n        /* \"contracts/trie/Memory.sol\":2932:2960  256 ** (WORD_SIZE - len) - 1 */\n      tag_274\n      swap2\n      swap1\n      tag_179\n      jump\t// in\n    tag_274:\n        /* \"contracts/trie/Memory.sol\":2828:2960  len == 0... */\n      jump(tag_275)\n    tag_271:\n        /* \"contracts/trie/Memory.sol\":2851:2917  0xffffffffffffffffffffffffffffffffffffffffffffffffffffffffffffffff */\n      0xffffffffffffffffffffffffffffffffffffffffffffffffffffffffffffffff\n        /* \"contracts/trie/Memory.sol\":2828:2960  len == 0... */\n    tag_275:\n        /* \"contracts/trie/Memory.sol\":2813:2960  uint256 mask = len == 0... */\n      swap1\n      pop\n        /* \"contracts/trie/Memory.sol\":3028:3032  mask */\n      dup1\n        /* \"contracts/trie/Memory.sol\":3024:3033  not(mask) */\n      not\n        /* \"contracts/trie/Memory.sol\":3018:3021  src */\n      dup5\n        /* \"contracts/trie/Memory.sol\":3012:3022  mload(src) */\n      mload\n        /* \"contracts/trie/Memory.sol\":3008:3034  and(mload(src), not(mask)) */\n      and\n        /* \"contracts/trie/Memory.sol\":3080:3084  mask */\n      dup2\n        /* \"contracts/trie/Memory.sol\":3073:3077  dest */\n      dup5\n        /* \"contracts/trie/Memory.sol\":3067:3078  mload(dest) */\n      mload\n        /* \"contracts/trie/Memory.sol\":3063:3085  and(mload(dest), mask) */\n      and\n        /* \"contracts/trie/Memory.sol\":3124:3131  srcpart */\n      dup2\n        /* \"contracts/trie/Memory.sol\":3114:3122  destpart */\n      dup2\n        /* \"contracts/trie/Memory.sol\":3111:3132  or(destpart, srcpart) */\n      or\n        /* \"contracts/trie/Memory.sol\":3105:3109  dest */\n      dup6\n        /* \"contracts/trie/Memory.sol\":3098:3133  mstore(dest, or(destpart, srcpart)) */\n      mstore\n        /* \"contracts/trie/Memory.sol\":2979:3143  {... */\n      pop\n      pop\n      pop\n        /* \"contracts/trie/Memory.sol\":2450:3149  function copy(uint256 src, uint256 dest, uint256 len) internal pure {... */\n      pop\n      pop\n      pop\n      jump\t// out\n    tag_29:\n      mload(0x40)\n      dup1\n      0x0140\n      add\n      0x40\n      mstore\n      dup1\n      iszero(iszero(0x00))\n      dup2\n      mstore\n      0x20\n      add\n      iszero(iszero(0x00))\n      dup2\n      mstore\n      0x20\n      add\n      iszero(iszero(0x00))\n      dup2\n      mstore\n      0x20\n      add\n      iszero(iszero(0x00))\n      dup2\n      mstore\n      0x20\n      add\n      iszero(iszero(0x00))\n      dup2\n      mstore\n      0x20\n      add\n      iszero(iszero(0x00))\n      dup2\n      mstore\n      0x20\n      add\n      iszero(iszero(0x00))\n      dup2\n      mstore\n      0x20\n      add\n      iszero(iszero(0x00))\n      dup2\n      mstore\n      0x20\n      add\n      0x00\n      dup2\n      mstore\n      0x20\n      add\n      tag_276\n      tag_277\n      jump\t// in\n    tag_276:\n      dup2\n      mstore\n      pop\n      swap1\n      jump\t// out\n    tag_56:\n      mload(0x40)\n      dup1\n      0x40\n      add\n      0x40\n      mstore\n      dup1\n      tag_278\n      tag_279\n      jump\t// in\n    tag_278:\n      dup2\n      mstore\n      0x20\n      add\n      tag_280\n      tag_281\n      jump\t// in\n    tag_280:\n      dup2\n      mstore\n      pop\n      swap1\n      jump\t// out\n    tag_85:\n      mload(0x40)\n      dup1\n      0x40\n      add\n      0x40\n      mstore\n      dup1\n      tag_282\n      tag_279\n      jump\t// in\n    tag_282:\n      dup2\n      mstore\n      0x20\n      add\n      tag_283\n      tag_281\n      jump\t// in\n    tag_283:\n      dup2\n      mstore\n      pop\n      swap1\n      jump\t// out\n    tag_98:\n      mload(0x40)\n      dup1\n      0x40\n      add\n      0x40\n      mstore\n      dup1\n      tag_284\n      tag_285\n      jump\t// in\n    tag_284:\n      dup2\n      mstore\n      0x20\n      add\n      tag_286\n      tag_104\n      jump\t// in\n    tag_286:\n      dup2\n      mstore\n      pop\n      swap1\n      jump\t// out\n    tag_104:\n      mload(0x40)\n      dup1\n      0x0200\n      add\n      0x40\n      mstore\n      dup1\n      0x10\n      swap1\n    tag_287:\n      tag_288\n      tag_285\n      jump\t// in\n    tag_288:\n      dup2\n      mstore\n      0x20\n      add\n      swap1\n      0x01\n      swap1\n      sub\n      swap1\n      dup2\n      tag_287\n      jumpi\n      swap1\n      pop\n      pop\n      swap1\n      jump\t// out\n    tag_142:\n      mload(0x40)\n      dup1\n      0x40\n      add\n      0x40\n      mstore\n      dup1\n      0x00\n      dup2\n      mstore\n      0x20\n      add\n      0x00\n      dup2\n      mstore\n      pop\n      swap1\n      jump\t// out\n    tag_277:\n      mload(0x40)\n      dup1\n      0x40\n      add\n      0x40\n      mstore\n      dup1\n      0x60\n      dup2\n      mstore\n      0x20\n      add\n      0x00\n      dup2\n      mstore\n      pop\n      swap1\n      jump\t// out\n    tag_279:\n      mload(0x40)\n      dup1\n      0x40\n      add\n      0x40\n      mstore\n      dup1\n      0x60\n      dup2\n      mstore\n      0x20\n      add\n      0x00\n      dup2\n      mstore\n      pop\n      swap1\n      jump\t// out\n    tag_281:\n      mload(0x40)\n      dup1\n      0x80\n      add\n      0x40\n      mstore\n      dup1\n      iszero(iszero(0x00))\n      dup2\n      mstore\n      0x20\n      add\n      0x00\n      dup1\n      not\n      and\n      dup2\n      mstore\n      0x20\n      add\n      iszero(iszero(0x00))\n      dup2\n      mstore\n      0x20\n      add\n      0x60\n      dup2\n      mstore\n      pop\n      swap1\n      jump\t// out\n    tag_285:\n      mload(0x40)\n      dup1\n      0x40\n      add\n      0x40\n      mstore\n      dup1\n      iszero(iszero(0x00))\n      dup2\n      mstore\n      0x20\n      add\n      tag_289\n      tag_281\n      jump\t// in\n    tag_289:\n      dup2\n      mstore\n      pop\n      swap1\n      jump\t// out\n        /* \"#utility.yul\":7:82   */\n    tag_290:\n        /* \"#utility.yul\":40:46   */\n      0x00\n        /* \"#utility.yul\":73:75   */\n      0x40\n        /* \"#utility.yul\":67:76   */\n      mload\n        /* \"#utility.yul\":57:76   */\n      swap1\n      pop\n        /* \"#utility.yul\":7:82   */\n      swap1\n      jump\t// out\n        /* \"#utility.yul\":88:205   */\n    tag_291:\n        /* \"#utility.yul\":197:198   */\n      0x00\n        /* \"#utility.yul\":194:195   */\n      dup1\n        /* \"#utility.yul\":187:199   */\n      revert\n        /* \"#utility.yul\":211:328   */\n    tag_292:\n        /* \"#utility.yul\":320:321   */\n      0x00\n        /* \"#utility.yul\":317:318   */\n      dup1\n        /* \"#utility.yul\":310:322   */\n      revert\n        /* \"#utility.yul\":334:451   */\n    tag_293:\n        /* \"#utility.yul\":443:444   */\n      0x00\n        /* \"#utility.yul\":440:441   */\n      dup1\n        /* \"#utility.yul\":433:445   */\n      revert\n        /* \"#utility.yul\":457:574   */\n    tag_294:\n        /* \"#utility.yul\":566:567   */\n      0x00\n        /* \"#utility.yul\":563:564   */\n      dup1\n        /* \"#utility.yul\":556:568   */\n      revert\n        /* \"#utility.yul\":580:682   */\n    tag_295:\n        /* \"#utility.yul\":621:627   */\n      0x00\n        /* \"#utility.yul\":672:674   */\n      0x1f\n        /* \"#utility.yul\":668:675   */\n      not\n        /* \"#utility.yul\":663:665   */\n      0x1f\n        /* \"#utility.yul\":656:661   */\n      dup4\n        /* \"#utility.yul\":652:666   */\n      add\n        /* \"#utility.yul\":648:676   */\n      and\n        /* \"#utility.yul\":638:676   */\n      swap1\n      pop\n        /* \"#utility.yul\":580:682   */\n      swap2\n      swap1\n      pop\n      jump\t// out\n        /* \"#utility.yul\":688:868   */\n    tag_82:\n        /* \"#utility.yul\":736:813   */\n      0x4e487b7100000000000000000000000000000000000000000000000000000000\n        /* \"#utility.yul\":733:734   */\n      0x00\n        /* \"#utility.yul\":726:814   */\n      mstore\n        /* \"#utility.yul\":833:837   */\n      0x41\n        /* \"#utility.yul\":830:831   */\n      0x04\n        /* \"#utility.yul\":823:838   */\n      mstore\n        /* \"#utility.yul\":857:861   */\n      0x24\n        /* \"#utility.yul\":854:855   */\n      0x00\n        /* \"#utility.yul\":847:862   */\n      revert\n        /* \"#utility.yul\":874:1155   */\n    tag_296:\n        /* \"#utility.yul\":957:984   */\n      tag_354\n        /* \"#utility.yul\":979:983   */\n      dup3\n        /* \"#utility.yul\":957:984   */\n      tag_295\n      jump\t// in\n    tag_354:\n        /* \"#utility.yul\":949:955   */\n      dup2\n        /* \"#utility.yul\":945:985   */\n      add\n        /* \"#utility.yul\":1087:1093   */\n      dup2\n        /* \"#utility.yul\":1075:1085   */\n      dup2\n        /* \"#utility.yul\":1072:1094   */\n      lt\n        /* \"#utility.yul\":1051:1069   */\n      0xffffffffffffffff\n        /* \"#utility.yul\":1039:1049   */\n      dup3\n        /* \"#utility.yul\":1036:1070   */\n      gt\n        /* \"#utility.yul\":1033:1095   */\n      or\n        /* \"#utility.yul\":1030:1118   */\n      iszero\n      tag_355\n      jumpi\n        /* \"#utility.yul\":1098:1116   */\n      tag_356\n      tag_82\n      jump\t// in\n    tag_356:\n        /* \"#utility.yul\":1030:1118   */\n    tag_355:\n        /* \"#utility.yul\":1138:1148   */\n      dup1\n        /* \"#utility.yul\":1134:1136   */\n      0x40\n        /* \"#utility.yul\":1127:1149   */\n      mstore\n        /* \"#utility.yul\":917:1155   */\n      pop\n        /* \"#utility.yul\":874:1155   */\n      pop\n      pop\n      jump\t// out\n        /* \"#utility.yul\":1161:1290   */\n    tag_297:\n        /* \"#utility.yul\":1195:1201   */\n      0x00\n        /* \"#utility.yul\":1222:1242   */\n      tag_358\n      tag_290\n      jump\t// in\n    tag_358:\n        /* \"#utility.yul\":1212:1242   */\n      swap1\n      pop\n        /* \"#utility.yul\":1251:1284   */\n      tag_359\n        /* \"#utility.yul\":1279:1283   */\n      dup3\n        /* \"#utility.yul\":1271:1277   */\n      dup3\n        /* \"#utility.yul\":1251:1284   */\n      tag_296\n      jump\t// in\n    tag_359:\n        /* \"#utility.yul\":1161:1290   */\n      swap2\n      swap1\n      pop\n      jump\t// out\n        /* \"#utility.yul\":1296:1603   */\n    tag_298:\n        /* \"#utility.yul\":1357:1361   */\n      0x00\n        /* \"#utility.yul\":1447:1465   */\n      0xffffffffffffffff\n        /* \"#utility.yul\":1439:1445   */\n      dup3\n        /* \"#utility.yul\":1436:1466   */\n      gt\n        /* \"#utility.yul\":1433:1489   */\n      iszero\n      tag_361\n      jumpi\n        /* \"#utility.yul\":1469:1487   */\n      tag_362\n      tag_82\n      jump\t// in\n    tag_362:\n        /* \"#utility.yul\":1433:1489   */\n    tag_361:\n        /* \"#utility.yul\":1507:1536   */\n      tag_363\n        /* \"#utility.yul\":1529:1535   */\n      dup3\n        /* \"#utility.yul\":1507:1536   */\n      tag_295\n      jump\t// in\n    tag_363:\n        /* \"#utility.yul\":1499:1536   */\n      swap1\n      pop\n        /* \"#utility.yul\":1591:1595   */\n      0x20\n        /* \"#utility.yul\":1585:1589   */\n      dup2\n        /* \"#utility.yul\":1581:1596   */\n      add\n        /* \"#utility.yul\":1573:1596   */\n      swap1\n      pop\n        /* \"#utility.yul\":1296:1603   */\n      swap2\n      swap1\n      pop\n      jump\t// out\n        /* \"#utility.yul\":1609:1757   */\n    tag_299:\n        /* \"#utility.yul\":1707:1713   */\n      dup3\n        /* \"#utility.yul\":1702:1705   */\n      dup2\n        /* \"#utility.yul\":1697:1700   */\n      dup4\n        /* \"#utility.yul\":1684:1714   */\n      calldatacopy\n        /* \"#utility.yul\":1748:1749   */\n      0x00\n        /* \"#utility.yul\":1739:1745   */\n      dup4\n        /* \"#utility.yul\":1734:1737   */\n      dup4\n        /* \"#utility.yul\":1730:1746   */\n      add\n        /* \"#utility.yul\":1723:1750   */\n      mstore\n        /* \"#utility.yul\":1609:1757   */\n      pop\n      pop\n      pop\n      jump\t// out\n        /* \"#utility.yul\":1763:2186   */\n    tag_300:\n        /* \"#utility.yul\":1840:1845   */\n      0x00\n        /* \"#utility.yul\":1865:1930   */\n      tag_366\n        /* \"#utility.yul\":1881:1929   */\n      tag_367\n        /* \"#utility.yul\":1922:1928   */\n      dup5\n        /* \"#utility.yul\":1881:1929   */\n      tag_298\n      jump\t// in\n    tag_367:\n        /* \"#utility.yul\":1865:1930   */\n      tag_297\n      jump\t// in\n    tag_366:\n        /* \"#utility.yul\":1856:1930   */\n      swap1\n      pop\n        /* \"#utility.yul\":1953:1959   */\n      dup3\n        /* \"#utility.yul\":1946:1951   */\n      dup2\n        /* \"#utility.yul\":1939:1960   */\n      mstore\n        /* \"#utility.yul\":1991:1995   */\n      0x20\n        /* \"#utility.yul\":1984:1989   */\n      dup2\n        /* \"#utility.yul\":1980:1996   */\n      add\n        /* \"#utility.yul\":2029:2032   */\n      dup5\n        /* \"#utility.yul\":2020:2026   */\n      dup5\n        /* \"#utility.yul\":2015:2018   */\n      dup5\n        /* \"#utility.yul\":2011:2027   */\n      add\n        /* \"#utility.yul\":2008:2033   */\n      gt\n        /* \"#utility.yul\":2005:2117   */\n      iszero\n      tag_368\n      jumpi\n        /* \"#utility.yul\":2036:2115   */\n      tag_369\n      tag_294\n      jump\t// in\n    tag_369:\n        /* \"#utility.yul\":2005:2117   */\n    tag_368:\n        /* \"#utility.yul\":2126:2180   */\n      tag_370\n        /* \"#utility.yul\":2173:2179   */\n      dup5\n        /* \"#utility.yul\":2168:2171   */\n      dup3\n        /* \"#utility.yul\":2163:2166   */\n      dup6\n        /* \"#utility.yul\":2126:2180   */\n      tag_299\n      jump\t// in\n    tag_370:\n        /* \"#utility.yul\":1846:2186   */\n      pop\n        /* \"#utility.yul\":1763:2186   */\n      swap4\n      swap3\n      pop\n      pop\n      pop\n      jump\t// out\n        /* \"#utility.yul\":2205:2543   */\n    tag_301:\n        /* \"#utility.yul\":2260:2265   */\n      0x00\n        /* \"#utility.yul\":2309:2312   */\n      dup3\n        /* \"#utility.yul\":2302:2306   */\n      0x1f\n        /* \"#utility.yul\":2294:2300   */\n      dup4\n        /* \"#utility.yul\":2290:2307   */\n      add\n        /* \"#utility.yul\":2286:2313   */\n      slt\n        /* \"#utility.yul\":2276:2398   */\n      tag_372\n      jumpi\n        /* \"#utility.yul\":2317:2396   */\n      tag_373\n      tag_293\n      jump\t// in\n    tag_373:\n        /* \"#utility.yul\":2276:2398   */\n    tag_372:\n        /* \"#utility.yul\":2434:2440   */\n      dup2\n        /* \"#utility.yul\":2421:2441   */\n      calldataload\n        /* \"#utility.yul\":2459:2537   */\n      tag_374\n        /* \"#utility.yul\":2533:2536   */\n      dup5\n        /* \"#utility.yul\":2525:2531   */\n      dup3\n        /* \"#utility.yul\":2518:2522   */\n      0x20\n        /* \"#utility.yul\":2510:2516   */\n      dup7\n        /* \"#utility.yul\":2506:2523   */\n      add\n        /* \"#utility.yul\":2459:2537   */\n      tag_300\n      jump\t// in\n    tag_374:\n        /* \"#utility.yul\":2450:2537   */\n      swap2\n      pop\n        /* \"#utility.yul\":2266:2543   */\n      pop\n        /* \"#utility.yul\":2205:2543   */\n      swap3\n      swap2\n      pop\n      pop\n      jump\t// out\n        /* \"#utility.yul\":2549:3056   */\n    tag_8:\n        /* \"#utility.yul\":2617:2623   */\n      0x00\n        /* \"#utility.yul\":2666:2668   */\n      0x20\n        /* \"#utility.yul\":2654:2663   */\n      dup3\n        /* \"#utility.yul\":2645:2652   */\n      dup5\n        /* \"#utility.yul\":2641:2664   */\n      sub\n        /* \"#utility.yul\":2637:2669   */\n      slt\n        /* \"#utility.yul\":2634:2753   */\n      iszero\n      tag_376\n      jumpi\n        /* \"#utility.yul\":2672:2751   */\n      tag_377\n      tag_291\n      jump\t// in\n    tag_377:\n        /* \"#utility.yul\":2634:2753   */\n    tag_376:\n        /* \"#utility.yul\":2820:2821   */\n      0x00\n        /* \"#utility.yul\":2809:2818   */\n      dup3\n        /* \"#utility.yul\":2805:2822   */\n      add\n        /* \"#utility.yul\":2792:2823   */\n      calldataload\n        /* \"#utility.yul\":2850:2868   */\n      0xffffffffffffffff\n        /* \"#utility.yul\":2842:2848   */\n      dup2\n        /* \"#utility.yul\":2839:2869   */\n      gt\n        /* \"#utility.yul\":2836:2953   */\n      iszero\n      tag_378\n      jumpi\n        /* \"#utility.yul\":2872:2951   */\n      tag_379\n      tag_292\n      jump\t// in\n    tag_379:\n        /* \"#utility.yul\":2836:2953   */\n    tag_378:\n        /* \"#utility.yul\":2977:3039   */\n      tag_380\n        /* \"#utility.yul\":3031:3038   */\n      dup5\n        /* \"#utility.yul\":3022:3028   */\n      dup3\n        /* \"#utility.yul\":3011:3020   */\n      dup6\n        /* \"#utility.yul\":3007:3029   */\n      add\n        /* \"#utility.yul\":2977:3039   */\n      tag_301\n      jump\t// in\n    tag_380:\n        /* \"#utility.yul\":2967:3039   */\n      swap2\n      pop\n        /* \"#utility.yul\":2763:3049   */\n      pop\n        /* \"#utility.yul\":2549:3056   */\n      swap3\n      swap2\n      pop\n      pop\n      jump\t// out\n        /* \"#utility.yul\":3062:3152   */\n    tag_302:\n        /* \"#utility.yul\":3096:3103   */\n      0x00\n        /* \"#utility.yul\":3139:3144   */\n      dup2\n        /* \"#utility.yul\":3132:3145   */\n      iszero\n        /* \"#utility.yul\":3125:3146   */\n      iszero\n        /* \"#utility.yul\":3114:3146   */\n      swap1\n      pop\n        /* \"#utility.yul\":3062:3152   */\n      swap2\n      swap1\n      pop\n      jump\t// out\n        /* \"#utility.yul\":3158:3265   */\n    tag_303:\n        /* \"#utility.yul\":3237:3258   */\n      tag_383\n        /* \"#utility.yul\":3252:3257   */\n      dup2\n        /* \"#utility.yul\":3237:3258   */\n      tag_302\n      jump\t// in\n    tag_383:\n        /* \"#utility.yul\":3232:3235   */\n      dup3\n        /* \"#utility.yul\":3225:3259   */\n      mstore\n        /* \"#utility.yul\":3158:3265   */\n      pop\n      pop\n      jump\t// out\n        /* \"#utility.yul\":3271:3348   */\n    tag_304:\n        /* \"#utility.yul\":3308:3315   */\n      0x00\n        /* \"#utility.yul\":3337:3342   */\n      dup2\n        /* \"#utility.yul\":3326:3342   */\n      swap1\n      pop\n        /* \"#utility.yul\":3271:3348   */\n      swap2\n      swap1\n      pop\n      jump\t// out\n        /* \"#utility.yul\":3354:3470   */\n    tag_305:\n        /* \"#utility.yul\":3439:3463   */\n      tag_386\n        /* \"#utility.yul\":3457:3462   */\n      dup2\n        /* \"#utility.yul\":3439:3463   */\n      tag_304\n      jump\t// in\n    tag_386:\n        /* \"#utility.yul\":3434:3437   */\n      dup3\n        /* \"#utility.yul\":3427:3464   */\n      mstore\n        /* \"#utility.yul\":3354:3470   */\n      pop\n      pop\n      jump\t// out\n        /* \"#utility.yul\":3476:3574   */\n    tag_306:\n        /* \"#utility.yul\":3527:3533   */\n      0x00\n        /* \"#utility.yul\":3561:3566   */\n      dup2\n        /* \"#utility.yul\":3555:3567   */\n      mload\n        /* \"#utility.yul\":3545:3567   */\n      swap1\n      pop\n        /* \"#utility.yul\":3476:3574   */\n      swap2\n      swap1\n      pop\n      jump\t// out\n        /* \"#utility.yul\":3580:3746   */\n    tag_307:\n        /* \"#utility.yul\":3661:3672   */\n      0x00\n        /* \"#utility.yul\":3695:3701   */\n      dup3\n        /* \"#utility.yul\":3690:3693   */\n      dup3\n        /* \"#utility.yul\":3683:3702   */\n      mstore\n        /* \"#utility.yul\":3735:3739   */\n      0x20\n        /* \"#utility.yul\":3730:3733   */\n      dup3\n        /* \"#utility.yul\":3726:3740   */\n      add\n        /* \"#utility.yul\":3711:3740   */\n      swap1\n      pop\n        /* \"#utility.yul\":3580:3746   */\n      swap3\n      swap2\n      pop\n      pop\n      jump\t// out\n        /* \"#utility.yul\":3752:3891   */\n    tag_308:\n        /* \"#utility.yul\":3841:3847   */\n      dup3\n        /* \"#utility.yul\":3836:3839   */\n      dup2\n        /* \"#utility.yul\":3831:3834   */\n      dup4\n        /* \"#utility.yul\":3825:3848   */\n      mcopy\n        /* \"#utility.yul\":3882:3883   */\n      0x00\n        /* \"#utility.yul\":3873:3879   */\n      dup4\n        /* \"#utility.yul\":3868:3871   */\n      dup4\n        /* \"#utility.yul\":3864:3880   */\n      add\n        /* \"#utility.yul\":3857:3884   */\n      mstore\n        /* \"#utility.yul\":3752:3891   */\n      pop\n      pop\n      pop\n      jump\t// out\n        /* \"#utility.yul\":3897:4266   */\n    tag_309:\n        /* \"#utility.yul\":3981:3984   */\n      0x00\n        /* \"#utility.yul\":4009:4047   */\n      tag_391\n        /* \"#utility.yul\":4041:4046   */\n      dup3\n        /* \"#utility.yul\":4009:4047   */\n      tag_306\n      jump\t// in\n    tag_391:\n        /* \"#utility.yul\":4063:4131   */\n      tag_392\n        /* \"#utility.yul\":4124:4130   */\n      dup2\n        /* \"#utility.yul\":4119:4122   */\n      dup6\n        /* \"#utility.yul\":4063:4131   */\n      tag_307\n      jump\t// in\n    tag_392:\n        /* \"#utility.yul\":4056:4131   */\n      swap4\n      pop\n        /* \"#utility.yul\":4140:4205   */\n      tag_393\n        /* \"#utility.yul\":4198:4204   */\n      dup2\n        /* \"#utility.yul\":4193:4196   */\n      dup6\n        /* \"#utility.yul\":4186:4190   */\n      0x20\n        /* \"#utility.yul\":4179:4184   */\n      dup7\n        /* \"#utility.yul\":4175:4191   */\n      add\n        /* \"#utility.yul\":4140:4205   */\n      tag_308\n      jump\t// in\n    tag_393:\n        /* \"#utility.yul\":4230:4259   */\n      tag_394\n        /* \"#utility.yul\":4252:4258   */\n      dup2\n        /* \"#utility.yul\":4230:4259   */\n      tag_295\n      jump\t// in\n    tag_394:\n        /* \"#utility.yul\":4225:4228   */\n      dup5\n        /* \"#utility.yul\":4221:4260   */\n      add\n        /* \"#utility.yul\":4214:4260   */\n      swap2\n      pop\n        /* \"#utility.yul\":3985:4266   */\n      pop\n        /* \"#utility.yul\":3897:4266   */\n      swap3\n      swap2\n      pop\n      pop\n      jump\t// out\n        /* \"#utility.yul\":4316:4934   */\n    tag_310:\n        /* \"#utility.yul\":4431:4434   */\n      0x00\n        /* \"#utility.yul\":4467:4471   */\n      0x40\n        /* \"#utility.yul\":4462:4465   */\n      dup4\n        /* \"#utility.yul\":4458:4472   */\n      add\n        /* \"#utility.yul\":4554:4558   */\n      0x00\n        /* \"#utility.yul\":4547:4552   */\n      dup4\n        /* \"#utility.yul\":4543:4559   */\n      add\n        /* \"#utility.yul\":4537:4560   */\n      mload\n        /* \"#utility.yul\":4607:4610   */\n      dup5\n        /* \"#utility.yul\":4601:4605   */\n      dup3\n        /* \"#utility.yul\":4597:4611   */\n      sub\n        /* \"#utility.yul\":4590:4594   */\n      0x00\n        /* \"#utility.yul\":4585:4588   */\n      dup7\n        /* \"#utility.yul\":4581:4595   */\n      add\n        /* \"#utility.yul\":4574:4612   */\n      mstore\n        /* \"#utility.yul\":4633:4712   */\n      tag_396\n        /* \"#utility.yul\":4707:4711   */\n      dup3\n        /* \"#utility.yul\":4693:4705   */\n      dup3\n        /* \"#utility.yul\":4633:4712   */\n      tag_309\n      jump\t// in\n    tag_396:\n        /* \"#utility.yul\":4625:4712   */\n      swap2\n      pop\n        /* \"#utility.yul\":4482:4723   */\n      pop\n        /* \"#utility.yul\":4807:4811   */\n      0x20\n        /* \"#utility.yul\":4800:4805   */\n      dup4\n        /* \"#utility.yul\":4796:4812   */\n      add\n        /* \"#utility.yul\":4790:4813   */\n      mload\n        /* \"#utility.yul\":4826:4897   */\n      tag_397\n        /* \"#utility.yul\":4891:4895   */\n      0x20\n        /* \"#utility.yul\":4886:4889   */\n      dup7\n        /* \"#utility.yul\":4882:4896   */\n      add\n        /* \"#utility.yul\":4868:4880   */\n      dup3\n        /* \"#utility.yul\":4826:4897   */\n      tag_305\n      jump\t// in\n    tag_397:\n        /* \"#utility.yul\":4733:4907   */\n      pop\n        /* \"#utility.yul\":4924:4928   */\n      dup1\n        /* \"#utility.yul\":4917:4928   */\n      swap2\n      pop\n        /* \"#utility.yul\":4436:4934   */\n      pop\n        /* \"#utility.yul\":4316:4934   */\n      swap3\n      swap2\n      pop\n      pop\n      jump\t// out\n        /* \"#utility.yul\":4982:7139   */\n    tag_311:\n        /* \"#utility.yul\":5111:5114   */\n      0x00\n        /* \"#utility.yul\":5147:5153   */\n      0x0140\n        /* \"#utility.yul\":5142:5145   */\n      dup4\n        /* \"#utility.yul\":5138:5154   */\n      add\n        /* \"#utility.yul\":5239:5243   */\n      0x00\n        /* \"#utility.yul\":5232:5237   */\n      dup4\n        /* \"#utility.yul\":5228:5244   */\n      add\n        /* \"#utility.yul\":5222:5245   */\n      mload\n        /* \"#utility.yul\":5258:5323   */\n      tag_399\n        /* \"#utility.yul\":5317:5321   */\n      0x00\n        /* \"#utility.yul\":5312:5315   */\n      dup7\n        /* \"#utility.yul\":5308:5322   */\n      add\n        /* \"#utility.yul\":5294:5306   */\n      dup3\n        /* \"#utility.yul\":5258:5323   */\n      tag_303\n      jump\t// in\n    tag_399:\n        /* \"#utility.yul\":5164:5333   */\n      pop\n        /* \"#utility.yul\":5417:5421   */\n      0x20\n        /* \"#utility.yul\":5410:5415   */\n      dup4\n        /* \"#utility.yul\":5406:5422   */\n      add\n        /* \"#utility.yul\":5400:5423   */\n      mload\n        /* \"#utility.yul\":5436:5501   */\n      tag_400\n        /* \"#utility.yul\":5495:5499   */\n      0x20\n        /* \"#utility.yul\":5490:5493   */\n      dup7\n        /* \"#utility.yul\":5486:5500   */\n      add\n        /* \"#utility.yul\":5472:5484   */\n      dup3\n        /* \"#utility.yul\":5436:5501   */\n      tag_303\n      jump\t// in\n    tag_400:\n        /* \"#utility.yul\":5343:5511   */\n      pop\n        /* \"#utility.yul\":5601:5605   */\n      0x40\n        /* \"#utility.yul\":5594:5599   */\n      dup4\n        /* \"#utility.yul\":5590:5606   */\n      add\n        /* \"#utility.yul\":5584:5607   */\n      mload\n        /* \"#utility.yul\":5620:5685   */\n      tag_401\n        /* \"#utility.yul\":5679:5683   */\n      0x40\n        /* \"#utility.yul\":5674:5677   */\n      dup7\n        /* \"#utility.yul\":5670:5684   */\n      add\n        /* \"#utility.yul\":5656:5668   */\n      dup3\n        /* \"#utility.yul\":5620:5685   */\n      tag_303\n      jump\t// in\n    tag_401:\n        /* \"#utility.yul\":5521:5695   */\n      pop\n        /* \"#utility.yul\":5793:5797   */\n      0x60\n        /* \"#utility.yul\":5786:5791   */\n      dup4\n        /* \"#utility.yul\":5782:5798   */\n      add\n        /* \"#utility.yul\":5776:5799   */\n      mload\n        /* \"#utility.yul\":5812:5877   */\n      tag_402\n        /* \"#utility.yul\":5871:5875   */\n      0x60\n        /* \"#utility.yul\":5866:5869   */\n      dup7\n        /* \"#utility.yul\":5862:5876   */\n      add\n        /* \"#utility.yul\":5848:5860   */\n      dup3\n        /* \"#utility.yul\":5812:5877   */\n      tag_303\n      jump\t// in\n    tag_402:\n        /* \"#utility.yul\":5705:5887   */\n      pop\n        /* \"#utility.yul\":5991:5995   */\n      0x80\n        /* \"#utility.yul\":5984:5989   */\n      dup4\n        /* \"#utility.yul\":5980:5996   */\n      add\n        /* \"#utility.yul\":5974:5997   */\n      mload\n        /* \"#utility.yul\":6010:6075   */\n      tag_403\n        /* \"#utility.yul\":6069:6073   */\n      0x80\n        /* \"#utility.yul\":6064:6067   */\n      dup7\n        /* \"#utility.yul\":6060:6074   */\n      add\n        /* \"#utility.yul\":6046:6058   */\n      dup3\n        /* \"#utility.yul\":6010:6075   */\n      tag_303\n      jump\t// in\n    tag_403:\n        /* \"#utility.yul\":5897:6085   */\n      pop\n        /* \"#utility.yul\":6178:6182   */\n      0xa0\n        /* \"#utility.yul\":6171:6176   */\n      dup4\n        /* \"#utility.yul\":6167:6183   */\n      add\n        /* \"#utility.yul\":6161:6184   */\n      mload\n        /* \"#utility.yul\":6197:6262   */\n      tag_404\n        /* \"#utility.yul\":6256:6260   */\n      0xa0\n        /* \"#utility.yul\":6251:6254   */\n      dup7\n        /* \"#utility.yul\":6247:6261   */\n      add\n        /* \"#utility.yul\":6233:6245   */\n      dup3\n        /* \"#utility.yul\":6197:6262   */\n      tag_303\n      jump\t// in\n    tag_404:\n        /* \"#utility.yul\":6095:6272   */\n      pop\n        /* \"#utility.yul\":6361:6365   */\n      0xc0\n        /* \"#utility.yul\":6354:6359   */\n      dup4\n        /* \"#utility.yul\":6350:6366   */\n      add\n        /* \"#utility.yul\":6344:6367   */\n      mload\n        /* \"#utility.yul\":6380:6445   */\n      tag_405\n        /* \"#utility.yul\":6439:6443   */\n      0xc0\n        /* \"#utility.yul\":6434:6437   */\n      dup7\n        /* \"#utility.yul\":6430:6444   */\n      add\n        /* \"#utility.yul\":6416:6428   */\n      dup3\n        /* \"#utility.yul\":6380:6445   */\n      tag_303\n      jump\t// in\n    tag_405:\n        /* \"#utility.yul\":6282:6455   */\n      pop\n        /* \"#utility.yul\":6541:6545   */\n      0xe0\n        /* \"#utility.yul\":6534:6539   */\n      dup4\n        /* \"#utility.yul\":6530:6546   */\n      add\n        /* \"#utility.yul\":6524:6547   */\n      mload\n        /* \"#utility.yul\":6560:6625   */\n      tag_406\n        /* \"#utility.yul\":6619:6623   */\n      0xe0\n        /* \"#utility.yul\":6614:6617   */\n      dup7\n        /* \"#utility.yul\":6610:6624   */\n      add\n        /* \"#utility.yul\":6596:6608   */\n      dup3\n        /* \"#utility.yul\":6560:6625   */\n      tag_303\n      jump\t// in\n    tag_406:\n        /* \"#utility.yul\":6465:6635   */\n      pop\n        /* \"#utility.yul\":6723:6729   */\n      0x0100\n        /* \"#utility.yul\":6716:6721   */\n      dup4\n        /* \"#utility.yul\":6712:6730   */\n      add\n        /* \"#utility.yul\":6706:6731   */\n      mload\n        /* \"#utility.yul\":6744:6817   */\n      tag_407\n        /* \"#utility.yul\":6809:6815   */\n      0x0100\n        /* \"#utility.yul\":6804:6807   */\n      dup7\n        /* \"#utility.yul\":6800:6816   */\n      add\n        /* \"#utility.yul\":6786:6798   */\n      dup3\n        /* \"#utility.yul\":6744:6817   */\n      tag_305\n      jump\t// in\n    tag_407:\n        /* \"#utility.yul\":6645:6827   */\n      pop\n        /* \"#utility.yul\":6909:6915   */\n      0x0120\n        /* \"#utility.yul\":6902:6907   */\n      dup4\n        /* \"#utility.yul\":6898:6916   */\n      add\n        /* \"#utility.yul\":6892:6917   */\n      mload\n        /* \"#utility.yul\":6966:6969   */\n      dup5\n        /* \"#utility.yul\":6960:6964   */\n      dup3\n        /* \"#utility.yul\":6956:6970   */\n      sub\n        /* \"#utility.yul\":6947:6953   */\n      0x0120\n        /* \"#utility.yul\":6942:6945   */\n      dup7\n        /* \"#utility.yul\":6938:6954   */\n      add\n        /* \"#utility.yul\":6931:6971   */\n      mstore\n        /* \"#utility.yul\":6992:7101   */\n      tag_408\n        /* \"#utility.yul\":7096:7100   */\n      dup3\n        /* \"#utility.yul\":7082:7094   */\n      dup3\n        /* \"#utility.yul\":6992:7101   */\n      tag_310\n      jump\t// in\n    tag_408:\n        /* \"#utility.yul\":6984:7101   */\n      swap2\n      pop\n        /* \"#utility.yul\":6837:7112   */\n      pop\n        /* \"#utility.yul\":7129:7133   */\n      dup1\n        /* \"#utility.yul\":7122:7133   */\n      swap2\n      pop\n        /* \"#utility.yul\":5116:7139   */\n      pop\n        /* \"#utility.yul\":4982:7139   */\n      swap3\n      swap2\n      pop\n      pop\n      jump\t// out\n        /* \"#utility.yul\":7145:7538   */\n    tag_11:\n        /* \"#utility.yul\":7298:7302   */\n      0x00\n        /* \"#utility.yul\":7336:7338   */\n      0x20\n        /* \"#utility.yul\":7325:7334   */\n      dup3\n        /* \"#utility.yul\":7321:7339   */\n      add\n        /* \"#utility.yul\":7313:7339   */\n      swap1\n      pop\n        /* \"#utility.yul\":7385:7394   */\n      dup2\n        /* \"#utility.yul\":7379:7383   */\n      dup2\n        /* \"#utility.yul\":7375:7395   */\n      sub\n        /* \"#utility.yul\":7371:7372   */\n      0x00\n        /* \"#utility.yul\":7360:7369   */\n      dup4\n        /* \"#utility.yul\":7356:7373   */\n      add\n        /* \"#utility.yul\":7349:7396   */\n      mstore\n        /* \"#utility.yul\":7413:7531   */\n      tag_410\n        /* \"#utility.yul\":7526:7530   */\n      dup2\n        /* \"#utility.yul\":7517:7523   */\n      dup5\n        /* \"#utility.yul\":7413:7531   */\n      tag_311\n      jump\t// in\n    tag_410:\n        /* \"#utility.yul\":7405:7531   */\n      swap1\n      pop\n        /* \"#utility.yul\":7145:7538   */\n      swap3\n      swap2\n      pop\n      pop\n      jump\t// out\n        /* \"#utility.yul\":7544:7661   */\n    tag_312:\n        /* \"#utility.yul\":7653:7654   */\n      0x00\n        /* \"#utility.yul\":7650:7651   */\n      dup1\n        /* \"#utility.yul\":7643:7655   */\n      revert\n        /* \"#utility.yul\":7667:7784   */\n    tag_313:\n        /* \"#utility.yul\":7776:7777   */\n      0x00\n        /* \"#utility.yul\":7773:7774   */\n      dup1\n        /* \"#utility.yul\":7766:7778   */\n      revert\n        /* \"#utility.yul\":7790:7906   */\n    tag_314:\n        /* \"#utility.yul\":7860:7881   */\n      tag_414\n        /* \"#utility.yul\":7875:7880   */\n      dup2\n        /* \"#utility.yul\":7860:7881   */\n      tag_302\n      jump\t// in\n    tag_414:\n        /* \"#utility.yul\":7853:7858   */\n      dup2\n        /* \"#utility.yul\":7850:7882   */\n      eq\n        /* \"#utility.yul\":7840:7900   */\n      tag_415\n      jumpi\n        /* \"#utility.yul\":7896:7897   */\n      0x00\n        /* \"#utility.yul\":7893:7894   */\n      dup1\n        /* \"#utility.yul\":7886:7898   */\n      revert\n        /* \"#utility.yul\":7840:7900   */\n    tag_415:\n        /* \"#utility.yul\":7790:7906   */\n      pop\n      jump\t// out\n        /* \"#utility.yul\":7912:8045   */\n    tag_315:\n        /* \"#utility.yul\":7955:7960   */\n      0x00\n        /* \"#utility.yul\":7993:7999   */\n      dup2\n        /* \"#utility.yul\":7980:8000   */\n      calldataload\n        /* \"#utility.yul\":7971:8000   */\n      swap1\n      pop\n        /* \"#utility.yul\":8009:8039   */\n      tag_417\n        /* \"#utility.yul\":8033:8038   */\n      dup2\n        /* \"#utility.yul\":8009:8039   */\n      tag_314\n      jump\t// in\n    tag_417:\n        /* \"#utility.yul\":7912:8045   */\n      swap3\n      swap2\n      pop\n      pop\n      jump\t// out\n        /* \"#utility.yul\":8051:8173   */\n    tag_316:\n        /* \"#utility.yul\":8124:8148   */\n      tag_419\n        /* \"#utility.yul\":8142:8147   */\n      dup2\n        /* \"#utility.yul\":8124:8148   */\n      tag_304\n      jump\t// in\n    tag_419:\n        /* \"#utility.yul\":8117:8122   */\n      dup2\n        /* \"#utility.yul\":8114:8149   */\n      eq\n        /* \"#utility.yul\":8104:8167   */\n      tag_420\n      jumpi\n        /* \"#utility.yul\":8163:8164   */\n      0x00\n        /* \"#utility.yul\":8160:8161   */\n      dup1\n        /* \"#utility.yul\":8153:8165   */\n      revert\n        /* \"#utility.yul\":8104:8167   */\n    tag_420:\n        /* \"#utility.yul\":8051:8173   */\n      pop\n      jump\t// out\n        /* \"#utility.yul\":8179:8318   */\n    tag_317:\n        /* \"#utility.yul\":8225:8230   */\n      0x00\n        /* \"#utility.yul\":8263:8269   */\n      dup2\n        /* \"#utility.yul\":8250:8270   */\n      calldataload\n        /* \"#utility.yul\":8241:8270   */\n      swap1\n      pop\n        /* \"#utility.yul\":8279:8312   */\n      tag_422\n        /* \"#utility.yul\":8306:8311   */\n      dup2\n        /* \"#utility.yul\":8279:8312   */\n      tag_316\n      jump\t// in\n    tag_422:\n        /* \"#utility.yul\":8179:8318   */\n      swap3\n      swap2\n      pop\n      pop\n      jump\t// out\n        /* \"#utility.yul\":8348:9092   */\n    tag_318:\n        /* \"#utility.yul\":8421:8426   */\n      0x00\n        /* \"#utility.yul\":8465:8469   */\n      0x40\n        /* \"#utility.yul\":8453:8462   */\n      dup3\n        /* \"#utility.yul\":8448:8451   */\n      dup5\n        /* \"#utility.yul\":8444:8463   */\n      sub\n        /* \"#utility.yul\":8440:8470   */\n      slt\n        /* \"#utility.yul\":8437:8554   */\n      iszero\n      tag_424\n      jumpi\n        /* \"#utility.yul\":8473:8552   */\n      tag_425\n      tag_312\n      jump\t// in\n    tag_425:\n        /* \"#utility.yul\":8437:8554   */\n    tag_424:\n        /* \"#utility.yul\":8572:8593   */\n      tag_426\n        /* \"#utility.yul\":8588:8592   */\n      0x40\n        /* \"#utility.yul\":8572:8593   */\n      tag_297\n      jump\t// in\n    tag_426:\n        /* \"#utility.yul\":8563:8593   */\n      swap1\n      pop\n        /* \"#utility.yul\":8680:8681   */\n      0x00\n        /* \"#utility.yul\":8669:8678   */\n      dup3\n        /* \"#utility.yul\":8665:8682   */\n      add\n        /* \"#utility.yul\":8652:8683   */\n      calldataload\n        /* \"#utility.yul\":8710:8728   */\n      0xffffffffffffffff\n        /* \"#utility.yul\":8702:8708   */\n      dup2\n        /* \"#utility.yul\":8699:8729   */\n      gt\n        /* \"#utility.yul\":8696:8813   */\n      iszero\n      tag_427\n      jumpi\n        /* \"#utility.yul\":8732:8811   */\n      tag_428\n      tag_313\n      jump\t// in\n    tag_428:\n        /* \"#utility.yul\":8696:8813   */\n    tag_427:\n        /* \"#utility.yul\":8852:8910   */\n      tag_429\n        /* \"#utility.yul\":8906:8909   */\n      dup5\n        /* \"#utility.yul\":8897:8903   */\n      dup3\n        /* \"#utility.yul\":8886:8895   */\n      dup6\n        /* \"#utility.yul\":8882:8904   */\n      add\n        /* \"#utility.yul\":8852:8910   */\n      tag_301\n      jump\t// in\n    tag_429:\n        /* \"#utility.yul\":8845:8849   */\n      0x00\n        /* \"#utility.yul\":8838:8843   */\n      dup4\n        /* \"#utility.yul\":8834:8850   */\n      add\n        /* \"#utility.yul\":8827:8911   */\n      mstore\n        /* \"#utility.yul\":8603:8922   */\n      pop\n        /* \"#utility.yul\":8983:8985   */\n      0x20\n        /* \"#utility.yul\":9024:9073   */\n      tag_430\n        /* \"#utility.yul\":9069:9072   */\n      dup5\n        /* \"#utility.yul\":9060:9066   */\n      dup3\n        /* \"#utility.yul\":9049:9058   */\n      dup6\n        /* \"#utility.yul\":9045:9067   */\n      add\n        /* \"#utility.yul\":9024:9073   */\n      tag_317\n      jump\t// in\n    tag_430:\n        /* \"#utility.yul\":9017:9021   */\n      0x20\n        /* \"#utility.yul\":9010:9015   */\n      dup4\n        /* \"#utility.yul\":9006:9022   */\n      add\n        /* \"#utility.yul\":8999:9074   */\n      mstore\n        /* \"#utility.yul\":8932:9085   */\n      pop\n        /* \"#utility.yul\":8348:9092   */\n      swap3\n      swap2\n      pop\n      pop\n      jump\t// out\n        /* \"#utility.yul\":9121:11237   */\n    tag_319:\n        /* \"#utility.yul\":9196:9201   */\n      0x00\n        /* \"#utility.yul\":9240:9246   */\n      0x0140\n        /* \"#utility.yul\":9228:9237   */\n      dup3\n        /* \"#utility.yul\":9223:9226   */\n      dup5\n        /* \"#utility.yul\":9219:9238   */\n      sub\n        /* \"#utility.yul\":9215:9247   */\n      slt\n        /* \"#utility.yul\":9212:9331   */\n      iszero\n      tag_432\n      jumpi\n        /* \"#utility.yul\":9250:9329   */\n      tag_433\n      tag_312\n      jump\t// in\n    tag_433:\n        /* \"#utility.yul\":9212:9331   */\n    tag_432:\n        /* \"#utility.yul\":9349:9372   */\n      tag_434\n        /* \"#utility.yul\":9365:9371   */\n      0x0140\n        /* \"#utility.yul\":9349:9372   */\n      tag_297\n      jump\t// in\n    tag_434:\n        /* \"#utility.yul\":9340:9372   */\n      swap1\n      pop\n        /* \"#utility.yul\":9434:9435   */\n      0x00\n        /* \"#utility.yul\":9474:9520   */\n      tag_435\n        /* \"#utility.yul\":9516:9519   */\n      dup5\n        /* \"#utility.yul\":9507:9513   */\n      dup3\n        /* \"#utility.yul\":9496:9505   */\n      dup6\n        /* \"#utility.yul\":9492:9514   */\n      add\n        /* \"#utility.yul\":9474:9520   */\n      tag_315\n      jump\t// in\n    tag_435:\n        /* \"#utility.yul\":9467:9471   */\n      0x00\n        /* \"#utility.yul\":9460:9465   */\n      dup4\n        /* \"#utility.yul\":9456:9472   */\n      add\n        /* \"#utility.yul\":9449:9521   */\n      mstore\n        /* \"#utility.yul\":9382:9532   */\n      pop\n        /* \"#utility.yul\":9593:9595   */\n      0x20\n        /* \"#utility.yul\":9634:9680   */\n      tag_436\n        /* \"#utility.yul\":9676:9679   */\n      dup5\n        /* \"#utility.yul\":9667:9673   */\n      dup3\n        /* \"#utility.yul\":9656:9665   */\n      dup6\n        /* \"#utility.yul\":9652:9674   */\n      add\n        /* \"#utility.yul\":9634:9680   */\n      tag_315\n      jump\t// in\n    tag_436:\n        /* \"#utility.yul\":9627:9631   */\n      0x20\n        /* \"#utility.yul\":9620:9625   */\n      dup4\n        /* \"#utility.yul\":9616:9632   */\n      add\n        /* \"#utility.yul\":9609:9681   */\n      mstore\n        /* \"#utility.yul\":9542:9692   */\n      pop\n        /* \"#utility.yul\":9759:9761   */\n      0x40\n        /* \"#utility.yul\":9800:9846   */\n      tag_437\n        /* \"#utility.yul\":9842:9845   */\n      dup5\n        /* \"#utility.yul\":9833:9839   */\n      dup3\n        /* \"#utility.yul\":9822:9831   */\n      dup6\n        /* \"#utility.yul\":9818:9840   */\n      add\n        /* \"#utility.yul\":9800:9846   */\n      tag_315\n      jump\t// in\n    tag_437:\n        /* \"#utility.yul\":9793:9797   */\n      0x40\n        /* \"#utility.yul\":9786:9791   */\n      dup4\n        /* \"#utility.yul\":9782:9798   */\n      add\n        /* \"#utility.yul\":9775:9847   */\n      mstore\n        /* \"#utility.yul\":9702:9858   */\n      pop\n        /* \"#utility.yul\":9933:9935   */\n      0x60\n        /* \"#utility.yul\":9974:10020   */\n      tag_438\n        /* \"#utility.yul\":10016:10019   */\n      dup5\n        /* \"#utility.yul\":10007:10013   */\n      dup3\n        /* \"#utility.yul\":9996:10005   */\n      dup6\n        /* \"#utility.yul\":9992:10014   */\n      add\n        /* \"#utility.yul\":9974:10020   */\n      tag_315\n      jump\t// in\n    tag_438:\n        /* \"#utility.yul\":9967:9971   */\n      0x60\n        /* \"#utility.yul\":9960:9965   */\n      dup4\n        /* \"#utility.yul\":9956:9972   */\n      add\n        /* \"#utility.yul\":9949:10021   */\n      mstore\n        /* \"#utility.yul\":9868:10032   */\n      pop\n        /* \"#utility.yul\":10113:10116   */\n      0x80\n        /* \"#utility.yul\":10155:10201   */\n      tag_439\n        /* \"#utility.yul\":10197:10200   */\n      dup5\n        /* \"#utility.yul\":10188:10194   */\n      dup3\n        /* \"#utility.yul\":10177:10186   */\n      dup6\n        /* \"#utility.yul\":10173:10195   */\n      add\n        /* \"#utility.yul\":10155:10201   */\n      tag_315\n      jump\t// in\n    tag_439:\n        /* \"#utility.yul\":10148:10152   */\n      0x80\n        /* \"#utility.yul\":10141:10146   */\n      dup4\n        /* \"#utility.yul\":10137:10153   */\n      add\n        /* \"#utility.yul\":10130:10202   */\n      mstore\n        /* \"#utility.yul\":10042:10213   */\n      pop\n        /* \"#utility.yul\":10283:10286   */\n      0xa0\n        /* \"#utility.yul\":10325:10371   */\n      tag_440\n        /* \"#utility.yul\":10367:10370   */\n      dup5\n        /* \"#utility.yul\":10358:10364   */\n      dup3\n        /* \"#utility.yul\":10347:10356   */\n      dup6\n        /* \"#utility.yul\":10343:10365   */\n      add\n        /* \"#utility.yul\":10325:10371   */\n      tag_315\n      jump\t// in\n    tag_440:\n        /* \"#utility.yul\":10318:10322   */\n      0xa0\n        /* \"#utility.yul\":10311:10316   */\n      dup4\n        /* \"#utility.yul\":10307:10323   */\n      add\n        /* \"#utility.yul\":10300:10372   */\n      mstore\n        /* \"#utility.yul\":10223:10383   */\n      pop\n        /* \"#utility.yul\":10449:10452   */\n      0xc0\n        /* \"#utility.yul\":10491:10537   */\n      tag_441\n        /* \"#utility.yul\":10533:10536   */\n      dup5\n        /* \"#utility.yul\":10524:10530   */\n      dup3\n        /* \"#utility.yul\":10513:10522   */\n      dup6\n        /* \"#utility.yul\":10509:10531   */\n      add\n        /* \"#utility.yul\":10491:10537   */\n      tag_315\n      jump\t// in\n    tag_441:\n        /* \"#utility.yul\":10484:10488   */\n      0xc0\n        /* \"#utility.yul\":10477:10482   */\n      dup4\n        /* \"#utility.yul\":10473:10489   */\n      add\n        /* \"#utility.yul\":10466:10538   */\n      mstore\n        /* \"#utility.yul\":10393:10549   */\n      pop\n        /* \"#utility.yul\":10612:10615   */\n      0xe0\n        /* \"#utility.yul\":10654:10700   */\n      tag_442\n        /* \"#utility.yul\":10696:10699   */\n      dup5\n        /* \"#utility.yul\":10687:10693   */\n      dup3\n        /* \"#utility.yul\":10676:10685   */\n      dup6\n        /* \"#utility.yul\":10672:10694   */\n      add\n        /* \"#utility.yul\":10654:10700   */\n      tag_315\n      jump\t// in\n    tag_442:\n        /* \"#utility.yul\":10647:10651   */\n      0xe0\n        /* \"#utility.yul\":10640:10645   */\n      dup4\n        /* \"#utility.yul\":10636:10652   */\n      add\n        /* \"#utility.yul\":10629:10701   */\n      mstore\n        /* \"#utility.yul\":10559:10712   */\n      pop\n        /* \"#utility.yul\":10777:10780   */\n      0x0100\n        /* \"#utility.yul\":10821:10870   */\n      tag_443\n        /* \"#utility.yul\":10866:10869   */\n      dup5\n        /* \"#utility.yul\":10857:10863   */\n      dup3\n        /* \"#utility.yul\":10846:10855   */\n      dup6\n        /* \"#utility.yul\":10842:10864   */\n      add\n        /* \"#utility.yul\":10821:10870   */\n      tag_317\n      jump\t// in\n    tag_443:\n        /* \"#utility.yul\":10812:10818   */\n      0x0100\n        /* \"#utility.yul\":10805:10810   */\n      dup4\n        /* \"#utility.yul\":10801:10819   */\n      add\n        /* \"#utility.yul\":10794:10871   */\n      mstore\n        /* \"#utility.yul\":10722:10882   */\n      pop\n        /* \"#utility.yul\":10969:10972   */\n      0x0120\n        /* \"#utility.yul\":10958:10967   */\n      dup3\n        /* \"#utility.yul\":10954:10973   */\n      add\n        /* \"#utility.yul\":10941:10974   */\n      calldataload\n        /* \"#utility.yul\":11001:11019   */\n      0xffffffffffffffff\n        /* \"#utility.yul\":10993:10999   */\n      dup2\n        /* \"#utility.yul\":10990:11020   */\n      gt\n        /* \"#utility.yul\":10987:11104   */\n      iszero\n      tag_444\n      jumpi\n        /* \"#utility.yul\":11023:11102   */\n      tag_445\n      tag_313\n      jump\t// in\n    tag_445:\n        /* \"#utility.yul\":10987:11104   */\n    tag_444:\n        /* \"#utility.yul\":11145:11218   */\n      tag_446\n        /* \"#utility.yul\":11214:11217   */\n      dup5\n        /* \"#utility.yul\":11205:11211   */\n      dup3\n        /* \"#utility.yul\":11194:11203   */\n      dup6\n        /* \"#utility.yul\":11190:11212   */\n      add\n        /* \"#utility.yul\":11145:11218   */\n      tag_318\n      jump\t// in\n    tag_446:\n        /* \"#utility.yul\":11136:11142   */\n      0x0120\n        /* \"#utility.yul\":11129:11134   */\n      dup4\n        /* \"#utility.yul\":11125:11143   */\n      add\n        /* \"#utility.yul\":11118:11219   */\n      mstore\n        /* \"#utility.yul\":10892:11230   */\n      pop\n        /* \"#utility.yul\":9121:11237   */\n      swap3\n      swap2\n      pop\n      pop\n      jump\t// out\n        /* \"#utility.yul\":11243:11784   */\n    tag_14:\n        /* \"#utility.yul\":11328:11334   */\n      0x00\n        /* \"#utility.yul\":11377:11379   */\n      0x20\n        /* \"#utility.yul\":11365:11374   */\n      dup3\n        /* \"#utility.yul\":11356:11363   */\n      dup5\n        /* \"#utility.yul\":11352:11375   */\n      sub\n        /* \"#utility.yul\":11348:11380   */\n      slt\n        /* \"#utility.yul\":11345:11464   */\n      iszero\n      tag_448\n      jumpi\n        /* \"#utility.yul\":11383:11462   */\n      tag_449\n      tag_291\n      jump\t// in\n    tag_449:\n        /* \"#utility.yul\":11345:11464   */\n    tag_448:\n        /* \"#utility.yul\":11531:11532   */\n      0x00\n        /* \"#utility.yul\":11520:11529   */\n      dup3\n        /* \"#utility.yul\":11516:11533   */\n      add\n        /* \"#utility.yul\":11503:11534   */\n      calldataload\n        /* \"#utility.yul\":11561:11579   */\n      0xffffffffffffffff\n        /* \"#utility.yul\":11553:11559   */\n      dup2\n        /* \"#utility.yul\":11550:11580   */\n      gt\n        /* \"#utility.yul\":11547:11664   */\n      iszero\n      tag_450\n      jumpi\n        /* \"#utility.yul\":11583:11662   */\n      tag_451\n      tag_292\n      jump\t// in\n    tag_451:\n        /* \"#utility.yul\":11547:11664   */\n    tag_450:\n        /* \"#utility.yul\":11688:11767   */\n      tag_452\n        /* \"#utility.yul\":11759:11766   */\n      dup5\n        /* \"#utility.yul\":11750:11756   */\n      dup3\n        /* \"#utility.yul\":11739:11748   */\n      dup6\n        /* \"#utility.yul\":11735:11757   */\n      add\n        /* \"#utility.yul\":11688:11767   */\n      tag_319\n      jump\t// in\n    tag_452:\n        /* \"#utility.yul\":11678:11767   */\n      swap2\n      pop\n        /* \"#utility.yul\":11474:11777   */\n      pop\n        /* \"#utility.yul\":11243:11784   */\n      swap3\n      swap2\n      pop\n      pop\n      jump\t// out\n        /* \"#utility.yul\":11838:12466   */\n    tag_320:\n        /* \"#utility.yul\":11963:11966   */\n      0x00\n        /* \"#utility.yul\":11999:12003   */\n      0x40\n        /* \"#utility.yul\":11994:11997   */\n      dup4\n        /* \"#utility.yul\":11990:12004   */\n      add\n        /* \"#utility.yul\":12086:12090   */\n      0x00\n        /* \"#utility.yul\":12079:12084   */\n      dup4\n        /* \"#utility.yul\":12075:12091   */\n      add\n        /* \"#utility.yul\":12069:12092   */\n      mload\n        /* \"#utility.yul\":12139:12142   */\n      dup5\n        /* \"#utility.yul\":12133:12137   */\n      dup3\n        /* \"#utility.yul\":12129:12143   */\n      sub\n        /* \"#utility.yul\":12122:12126   */\n      0x00\n        /* \"#utility.yul\":12117:12120   */\n      dup7\n        /* \"#utility.yul\":12113:12127   */\n      add\n        /* \"#utility.yul\":12106:12144   */\n      mstore\n        /* \"#utility.yul\":12165:12244   */\n      tag_454\n        /* \"#utility.yul\":12239:12243   */\n      dup3\n        /* \"#utility.yul\":12225:12237   */\n      dup3\n        /* \"#utility.yul\":12165:12244   */\n      tag_309\n      jump\t// in\n    tag_454:\n        /* \"#utility.yul\":12157:12244   */\n      swap2\n      pop\n        /* \"#utility.yul\":12014:12255   */\n      pop\n        /* \"#utility.yul\":12339:12343   */\n      0x20\n        /* \"#utility.yul\":12332:12337   */\n      dup4\n        /* \"#utility.yul\":12328:12344   */\n      add\n        /* \"#utility.yul\":12322:12345   */\n      mload\n        /* \"#utility.yul\":12358:12429   */\n      tag_455\n        /* \"#utility.yul\":12423:12427   */\n      0x20\n        /* \"#utility.yul\":12418:12421   */\n      dup7\n        /* \"#utility.yul\":12414:12428   */\n      add\n        /* \"#utility.yul\":12400:12412   */\n      dup3\n        /* \"#utility.yul\":12358:12429   */\n      tag_305\n      jump\t// in\n    tag_455:\n        /* \"#utility.yul\":12265:12439   */\n      pop\n        /* \"#utility.yul\":12456:12460   */\n      dup1\n        /* \"#utility.yul\":12449:12460   */\n      swap2\n      pop\n        /* \"#utility.yul\":11968:12466   */\n      pop\n        /* \"#utility.yul\":11838:12466   */\n      swap3\n      swap2\n      pop\n      pop\n      jump\t// out\n        /* \"#utility.yul\":12472:12549   */\n    tag_321:\n        /* \"#utility.yul\":12509:12516   */\n      0x00\n        /* \"#utility.yul\":12538:12543   */\n      dup2\n        /* \"#utility.yul\":12527:12543   */\n      swap1\n      pop\n        /* \"#utility.yul\":12472:12549   */\n      swap2\n      swap1\n      pop\n      jump\t// out\n        /* \"#utility.yul\":12555:12671   */\n    tag_322:\n        /* \"#utility.yul\":12640:12664   */\n      tag_458\n        /* \"#utility.yul\":12658:12663   */\n      dup2\n        /* \"#utility.yul\":12640:12664   */\n      tag_321\n      jump\t// in\n    tag_458:\n        /* \"#utility.yul\":12635:12638   */\n      dup3\n        /* \"#utility.yul\":12628:12665   */\n      mstore\n        /* \"#utility.yul\":12555:12671   */\n      pop\n      pop\n      jump\t// out\n        /* \"#utility.yul\":12723:13707   */\n    tag_323:\n        /* \"#utility.yul\":12846:12849   */\n      0x00\n        /* \"#utility.yul\":12882:12886   */\n      0x80\n        /* \"#utility.yul\":12877:12880   */\n      dup4\n        /* \"#utility.yul\":12873:12887   */\n      add\n        /* \"#utility.yul\":12971:12975   */\n      0x00\n        /* \"#utility.yul\":12964:12969   */\n      dup4\n        /* \"#utility.yul\":12960:12976   */\n      add\n        /* \"#utility.yul\":12954:12977   */\n      mload\n        /* \"#utility.yul\":12990:13055   */\n      tag_460\n        /* \"#utility.yul\":13049:13053   */\n      0x00\n        /* \"#utility.yul\":13044:13047   */\n      dup7\n        /* \"#utility.yul\":13040:13054   */\n      add\n        /* \"#utility.yul\":13026:13038   */\n      dup3\n        /* \"#utility.yul\":12990:13055   */\n      tag_303\n      jump\t// in\n    tag_460:\n        /* \"#utility.yul\":12897:13065   */\n      pop\n        /* \"#utility.yul\":13147:13151   */\n      0x20\n        /* \"#utility.yul\":13140:13145   */\n      dup4\n        /* \"#utility.yul\":13136:13152   */\n      add\n        /* \"#utility.yul\":13130:13153   */\n      mload\n        /* \"#utility.yul\":13166:13237   */\n      tag_461\n        /* \"#utility.yul\":13231:13235   */\n      0x20\n        /* \"#utility.yul\":13226:13229   */\n      dup7\n        /* \"#utility.yul\":13222:13236   */\n      add\n        /* \"#utility.yul\":13208:13220   */\n      dup3\n        /* \"#utility.yul\":13166:13237   */\n      tag_322\n      jump\t// in\n    tag_461:\n        /* \"#utility.yul\":13075:13247   */\n      pop\n        /* \"#utility.yul\":13333:13337   */\n      0x40\n        /* \"#utility.yul\":13326:13331   */\n      dup4\n        /* \"#utility.yul\":13322:13338   */\n      add\n        /* \"#utility.yul\":13316:13339   */\n      mload\n        /* \"#utility.yul\":13352:13417   */\n      tag_462\n        /* \"#utility.yul\":13411:13415   */\n      0x40\n        /* \"#utility.yul\":13406:13409   */\n      dup7\n        /* \"#utility.yul\":13402:13416   */\n      add\n        /* \"#utility.yul\":13388:13400   */\n      dup3\n        /* \"#utility.yul\":13352:13417   */\n      tag_303\n      jump\t// in\n    tag_462:\n        /* \"#utility.yul\":13257:13427   */\n      pop\n        /* \"#utility.yul\":13511:13515   */\n      0x60\n        /* \"#utility.yul\":13504:13509   */\n      dup4\n        /* \"#utility.yul\":13500:13516   */\n      add\n        /* \"#utility.yul\":13494:13517   */\n      mload\n        /* \"#utility.yul\":13564:13567   */\n      dup5\n        /* \"#utility.yul\":13558:13562   */\n      dup3\n        /* \"#utility.yul\":13554:13568   */\n      sub\n        /* \"#utility.yul\":13547:13551   */\n      0x60\n        /* \"#utility.yul\":13542:13545   */\n      dup7\n        /* \"#utility.yul\":13538:13552   */\n      add\n        /* \"#utility.yul\":13531:13569   */\n      mstore\n        /* \"#utility.yul\":13590:13669   */\n      tag_463\n        /* \"#utility.yul\":13664:13668   */\n      dup3\n        /* \"#utility.yul\":13650:13662   */\n      dup3\n        /* \"#utility.yul\":13590:13669   */\n      tag_309\n      jump\t// in\n    tag_463:\n        /* \"#utility.yul\":13582:13669   */\n      swap2\n      pop\n        /* \"#utility.yul\":13437:13680   */\n      pop\n        /* \"#utility.yul\":13697:13701   */\n      dup1\n        /* \"#utility.yul\":13690:13701   */\n      swap2\n      pop\n        /* \"#utility.yul\":12851:13707   */\n      pop\n        /* \"#utility.yul\":12723:13707   */\n      swap3\n      swap2\n      pop\n      pop\n      jump\t// out\n        /* \"#utility.yul\":13757:14535   */\n    tag_324:\n        /* \"#utility.yul\":13888:13891   */\n      0x00\n        /* \"#utility.yul\":13924:13928   */\n      0x40\n        /* \"#utility.yul\":13919:13922   */\n      dup4\n        /* \"#utility.yul\":13915:13929   */\n      add\n        /* \"#utility.yul\":14010:14014   */\n      0x00\n        /* \"#utility.yul\":14003:14008   */\n      dup4\n        /* \"#utility.yul\":13999:14015   */\n      add\n        /* \"#utility.yul\":13993:14016   */\n      mload\n        /* \"#utility.yul\":14063:14066   */\n      dup5\n        /* \"#utility.yul\":14057:14061   */\n      dup3\n        /* \"#utility.yul\":14053:14067   */\n      sub\n        /* \"#utility.yul\":14046:14050   */\n      0x00\n        /* \"#utility.yul\":14041:14044   */\n      dup7\n        /* \"#utility.yul\":14037:14051   */\n      add\n        /* \"#utility.yul\":14030:14068   */\n      mstore\n        /* \"#utility.yul\":14089:14208   */\n      tag_465\n        /* \"#utility.yul\":14203:14207   */\n      dup3\n        /* \"#utility.yul\":14189:14201   */\n      dup3\n        /* \"#utility.yul\":14089:14208   */\n      tag_320\n      jump\t// in\n    tag_465:\n        /* \"#utility.yul\":14081:14208   */\n      swap2\n      pop\n        /* \"#utility.yul\":13939:14219   */\n      pop\n        /* \"#utility.yul\":14301:14305   */\n      0x20\n        /* \"#utility.yul\":14294:14299   */\n      dup4\n        /* \"#utility.yul\":14290:14306   */\n      add\n        /* \"#utility.yul\":14284:14307   */\n      mload\n        /* \"#utility.yul\":14354:14357   */\n      dup5\n        /* \"#utility.yul\":14348:14352   */\n      dup3\n        /* \"#utility.yul\":14344:14358   */\n      sub\n        /* \"#utility.yul\":14337:14341   */\n      0x20\n        /* \"#utility.yul\":14332:14335   */\n      dup7\n        /* \"#utility.yul\":14328:14342   */\n      add\n        /* \"#utility.yul\":14321:14359   */\n      mstore\n        /* \"#utility.yul\":14380:14497   */\n      tag_466\n        /* \"#utility.yul\":14492:14496   */\n      dup3\n        /* \"#utility.yul\":14478:14490   */\n      dup3\n        /* \"#utility.yul\":14380:14497   */\n      tag_323\n      jump\t// in\n    tag_466:\n        /* \"#utility.yul\":14372:14497   */\n      swap2\n      pop\n        /* \"#utility.yul\":14229:14508   */\n      pop\n        /* \"#utility.yul\":14525:14529   */\n      dup1\n        /* \"#utility.yul\":14518:14529   */\n      swap2\n      pop\n        /* \"#utility.yul\":13893:14535   */\n      pop\n        /* \"#utility.yul\":13757:14535   */\n      swap3\n      swap2\n      pop\n      pop\n      jump\t// out\n        /* \"#utility.yul\":14541:14938   */\n    tag_17:\n        /* \"#utility.yul\":14696:14700   */\n      0x00\n        /* \"#utility.yul\":14734:14736   */\n      0x20\n        /* \"#utility.yul\":14723:14732   */\n      dup3\n        /* \"#utility.yul\":14719:14737   */\n      add\n        /* \"#utility.yul\":14711:14737   */\n      swap1\n      pop\n        /* \"#utility.yul\":14783:14792   */\n      dup2\n        /* \"#utility.yul\":14777:14781   */\n      dup2\n        /* \"#utility.yul\":14773:14793   */\n      sub\n        /* \"#utility.yul\":14769:14770   */\n      0x00\n        /* \"#utility.yul\":14758:14767   */\n      dup4\n        /* \"#utility.yul\":14754:14771   */\n      add\n        /* \"#utility.yul\":14747:14794   */\n      mstore\n        /* \"#utility.yul\":14811:14931   */\n      tag_468\n        /* \"#utility.yul\":14926:14930   */\n      dup2\n        /* \"#utility.yul\":14917:14923   */\n      dup5\n        /* \"#utility.yul\":14811:14931   */\n      tag_324\n      jump\t// in\n    tag_468:\n        /* \"#utility.yul\":14803:14931   */\n      swap1\n      pop\n        /* \"#utility.yul\":14541:14938   */\n      swap3\n      swap2\n      pop\n      pop\n      jump\t// out\n        /* \"#utility.yul\":14978:15747   */\n    tag_325:\n        /* \"#utility.yul\":15099:15102   */\n      0x00\n        /* \"#utility.yul\":15135:15139   */\n      0x40\n        /* \"#utility.yul\":15130:15133   */\n      dup4\n        /* \"#utility.yul\":15126:15140   */\n      add\n        /* \"#utility.yul\":15221:15225   */\n      0x00\n        /* \"#utility.yul\":15214:15219   */\n      dup4\n        /* \"#utility.yul\":15210:15226   */\n      add\n        /* \"#utility.yul\":15204:15227   */\n      mload\n        /* \"#utility.yul\":15274:15277   */\n      dup5\n        /* \"#utility.yul\":15268:15272   */\n      dup3\n        /* \"#utility.yul\":15264:15278   */\n      sub\n        /* \"#utility.yul\":15257:15261   */\n      0x00\n        /* \"#utility.yul\":15252:15255   */\n      dup7\n        /* \"#utility.yul\":15248:15262   */\n      add\n        /* \"#utility.yul\":15241:15279   */\n      mstore\n        /* \"#utility.yul\":15300:15419   */\n      tag_470\n        /* \"#utility.yul\":15414:15418   */\n      dup3\n        /* \"#utility.yul\":15400:15412   */\n      dup3\n        /* \"#utility.yul\":15300:15419   */\n      tag_320\n      jump\t// in\n    tag_470:\n        /* \"#utility.yul\":15292:15419   */\n      swap2\n      pop\n        /* \"#utility.yul\":15150:15430   */\n      pop\n        /* \"#utility.yul\":15513:15517   */\n      0x20\n        /* \"#utility.yul\":15506:15511   */\n      dup4\n        /* \"#utility.yul\":15502:15518   */\n      add\n        /* \"#utility.yul\":15496:15519   */\n      mload\n        /* \"#utility.yul\":15566:15569   */\n      dup5\n        /* \"#utility.yul\":15560:15564   */\n      dup3\n        /* \"#utility.yul\":15556:15570   */\n      sub\n        /* \"#utility.yul\":15549:15553   */\n      0x20\n        /* \"#utility.yul\":15544:15547   */\n      dup7\n        /* \"#utility.yul\":15540:15554   */\n      add\n        /* \"#utility.yul\":15533:15571   */\n      mstore\n        /* \"#utility.yul\":15592:15709   */\n      tag_471\n        /* \"#utility.yul\":15704:15708   */\n      dup3\n        /* \"#utility.yul\":15690:15702   */\n      dup3\n        /* \"#utility.yul\":15592:15709   */\n      tag_323\n      jump\t// in\n    tag_471:\n        /* \"#utility.yul\":15584:15709   */\n      swap2\n      pop\n        /* \"#utility.yul\":15440:15720   */\n      pop\n        /* \"#utility.yul\":15737:15741   */\n      dup1\n        /* \"#utility.yul\":15730:15741   */\n      swap2\n      pop\n        /* \"#utility.yul\":15104:15747   */\n      pop\n        /* \"#utility.yul\":14978:15747   */\n      swap3\n      swap2\n      pop\n      pop\n      jump\t// out\n        /* \"#utility.yul\":15753:16130   */\n    tag_22:\n        /* \"#utility.yul\":15898:15902   */\n      0x00\n        /* \"#utility.yul\":15936:15938   */\n      0x20\n        /* \"#utility.yul\":15925:15934   */\n      dup3\n        /* \"#utility.yul\":15921:15939   */\n      add\n        /* \"#utility.yul\":15913:15939   */\n      swap1\n      pop\n        /* \"#utility.yul\":15985:15994   */\n      dup2\n        /* \"#utility.yul\":15979:15983   */\n      dup2\n        /* \"#utility.yul\":15975:15995   */\n      sub\n        /* \"#utility.yul\":15971:15972   */\n      0x00\n        /* \"#utility.yul\":15960:15969   */\n      dup4\n        /* \"#utility.yul\":15956:15973   */\n      add\n        /* \"#utility.yul\":15949:15996   */\n      mstore\n        /* \"#utility.yul\":16013:16123   */\n      tag_473\n        /* \"#utility.yul\":16118:16122   */\n      dup2\n        /* \"#utility.yul\":16109:16115   */\n      dup5\n        /* \"#utility.yul\":16013:16123   */\n      tag_325\n      jump\t// in\n    tag_473:\n        /* \"#utility.yul\":16005:16123   */\n      swap1\n      pop\n        /* \"#utility.yul\":15753:16130   */\n      swap3\n      swap2\n      pop\n      pop\n      jump\t// out\n        /* \"#utility.yul\":16194:16865   */\n    tag_326:\n        /* \"#utility.yul\":16329:16332   */\n      0x00\n        /* \"#utility.yul\":16365:16369   */\n      0x40\n        /* \"#utility.yul\":16360:16363   */\n      dup4\n        /* \"#utility.yul\":16356:16370   */\n      add\n        /* \"#utility.yul\":16454:16458   */\n      0x00\n        /* \"#utility.yul\":16447:16452   */\n      dup4\n        /* \"#utility.yul\":16443:16459   */\n      add\n        /* \"#utility.yul\":16437:16460   */\n      mload\n        /* \"#utility.yul\":16473:16538   */\n      tag_475\n        /* \"#utility.yul\":16532:16536   */\n      0x00\n        /* \"#utility.yul\":16527:16530   */\n      dup7\n        /* \"#utility.yul\":16523:16537   */\n      add\n        /* \"#utility.yul\":16509:16521   */\n      dup3\n        /* \"#utility.yul\":16473:16538   */\n      tag_303\n      jump\t// in\n    tag_475:\n        /* \"#utility.yul\":16380:16548   */\n      pop\n        /* \"#utility.yul\":16631:16635   */\n      0x20\n        /* \"#utility.yul\":16624:16629   */\n      dup4\n        /* \"#utility.yul\":16620:16636   */\n      add\n        /* \"#utility.yul\":16614:16637   */\n      mload\n        /* \"#utility.yul\":16684:16687   */\n      dup5\n        /* \"#utility.yul\":16678:16682   */\n      dup3\n        /* \"#utility.yul\":16674:16688   */\n      sub\n        /* \"#utility.yul\":16667:16671   */\n      0x20\n        /* \"#utility.yul\":16662:16665   */\n      dup7\n        /* \"#utility.yul\":16658:16672   */\n      add\n        /* \"#utility.yul\":16651:16689   */\n      mstore\n        /* \"#utility.yul\":16710:16827   */\n      tag_476\n        /* \"#utility.yul\":16822:16826   */\n      dup3\n        /* \"#utility.yul\":16808:16820   */\n      dup3\n        /* \"#utility.yul\":16710:16827   */\n      tag_323\n      jump\t// in\n    tag_476:\n        /* \"#utility.yul\":16702:16827   */\n      swap2\n      pop\n        /* \"#utility.yul\":16558:16838   */\n      pop\n        /* \"#utility.yul\":16855:16859   */\n      dup1\n        /* \"#utility.yul\":16848:16859   */\n      swap2\n      pop\n        /* \"#utility.yul\":16334:16865   */\n      pop\n        /* \"#utility.yul\":16194:16865   */\n      swap3\n      swap2\n      pop\n      pop\n      jump\t// out\n        /* \"#utility.yul\":16871:17010   */\n    tag_327:\n        /* \"#utility.yul\":16971:16977   */\n      0x00\n        /* \"#utility.yul\":16999:17003   */\n      0x10\n        /* \"#utility.yul\":16989:17003   */\n      swap1\n      pop\n        /* \"#utility.yul\":16871:17010   */\n      swap2\n      swap1\n      pop\n      jump\t// out\n        /* \"#utility.yul\":17016:17192   */\n    tag_328:\n        /* \"#utility.yul\":17146:17157   */\n      0x00\n        /* \"#utility.yul\":17183:17186   */\n      dup2\n        /* \"#utility.yul\":17168:17186   */\n      swap1\n      pop\n        /* \"#utility.yul\":17016:17192   */\n      swap3\n      swap2\n      pop\n      pop\n      jump\t// out\n        /* \"#utility.yul\":17198:17331   */\n    tag_329:\n        /* \"#utility.yul\":17298:17302   */\n      0x00\n        /* \"#utility.yul\":17321:17324   */\n      dup2\n        /* \"#utility.yul\":17313:17324   */\n      swap1\n      pop\n        /* \"#utility.yul\":17198:17331   */\n      swap2\n      swap1\n      pop\n      jump\t// out\n        /* \"#utility.yul\":17337:17645   */\n    tag_330:\n        /* \"#utility.yul\":17482:17492   */\n      0x00\n        /* \"#utility.yul\":17517:17639   */\n      tag_481\n        /* \"#utility.yul\":17635:17638   */\n      dup4\n        /* \"#utility.yul\":17627:17633   */\n      dup4\n        /* \"#utility.yul\":17517:17639   */\n      tag_326\n      jump\t// in\n    tag_481:\n        /* \"#utility.yul\":17503:17639   */\n      swap1\n      pop\n        /* \"#utility.yul\":17337:17645   */\n      swap3\n      swap2\n      pop\n      pop\n      jump\t// out\n        /* \"#utility.yul\":17651:17797   */\n    tag_331:\n        /* \"#utility.yul\":17754:17758   */\n      0x00\n        /* \"#utility.yul\":17786:17790   */\n      0x20\n        /* \"#utility.yul\":17781:17784   */\n      dup3\n        /* \"#utility.yul\":17777:17791   */\n      add\n        /* \"#utility.yul\":17769:17791   */\n      swap1\n      pop\n        /* \"#utility.yul\":17651:17797   */\n      swap2\n      swap1\n      pop\n      jump\t// out\n        /* \"#utility.yul\":17869:19050   */\n    tag_332:\n        /* \"#utility.yul\":18052:18055   */\n      0x00\n        /* \"#utility.yul\":18081:18168   */\n      tag_484\n        /* \"#utility.yul\":18162:18167   */\n      dup3\n        /* \"#utility.yul\":18081:18168   */\n      tag_327\n      jump\t// in\n    tag_484:\n        /* \"#utility.yul\":18184:18301   */\n      tag_485\n        /* \"#utility.yul\":18294:18300   */\n      dup2\n        /* \"#utility.yul\":18289:18292   */\n      dup6\n        /* \"#utility.yul\":18184:18301   */\n      tag_328\n      jump\t// in\n    tag_485:\n        /* \"#utility.yul\":18177:18301   */\n      swap4\n      pop\n        /* \"#utility.yul\":18327:18330   */\n      dup4\n        /* \"#utility.yul\":18372:18376   */\n      0x20\n        /* \"#utility.yul\":18364:18370   */\n      dup3\n        /* \"#utility.yul\":18360:18377   */\n      mul\n        /* \"#utility.yul\":18355:18358   */\n      dup6\n        /* \"#utility.yul\":18351:18378   */\n      add\n        /* \"#utility.yul\":18402:18491   */\n      tag_486\n        /* \"#utility.yul\":18485:18490   */\n      dup6\n        /* \"#utility.yul\":18402:18491   */\n      tag_329\n      jump\t// in\n    tag_486:\n        /* \"#utility.yul\":18514:18521   */\n      dup1\n        /* \"#utility.yul\":18545:18546   */\n      0x00\n        /* \"#utility.yul\":18530:19005   */\n    tag_487:\n        /* \"#utility.yul\":18555:18561   */\n      dup6\n        /* \"#utility.yul\":18552:18553   */\n      dup2\n        /* \"#utility.yul\":18549:18562   */\n      lt\n        /* \"#utility.yul\":18530:19005   */\n      iszero\n      tag_489\n      jumpi\n        /* \"#utility.yul\":18626:18635   */\n      dup5\n        /* \"#utility.yul\":18620:18624   */\n      dup5\n        /* \"#utility.yul\":18616:18636   */\n      sub\n        /* \"#utility.yul\":18611:18614   */\n      dup10\n        /* \"#utility.yul\":18604:18637   */\n      mstore\n        /* \"#utility.yul\":18677:18683   */\n      dup2\n        /* \"#utility.yul\":18671:18684   */\n      mload\n        /* \"#utility.yul\":18705:18845   */\n      tag_490\n        /* \"#utility.yul\":18840:18844   */\n      dup6\n        /* \"#utility.yul\":18825:18838   */\n      dup3\n        /* \"#utility.yul\":18705:18845   */\n      tag_330\n      jump\t// in\n    tag_490:\n        /* \"#utility.yul\":18697:18845   */\n      swap5\n      pop\n        /* \"#utility.yul\":18868:18961   */\n      tag_491\n        /* \"#utility.yul\":18954:18960   */\n      dup4\n        /* \"#utility.yul\":18868:18961   */\n      tag_331\n      jump\t// in\n    tag_491:\n        /* \"#utility.yul\":18858:18961   */\n      swap3\n      pop\n        /* \"#utility.yul\":18990:18994   */\n      0x20\n        /* \"#utility.yul\":18985:18988   */\n      dup11\n        /* \"#utility.yul\":18981:18995   */\n      add\n        /* \"#utility.yul\":18974:18995   */\n      swap10\n      pop\n        /* \"#utility.yul\":18590:19005   */\n      pop\n        /* \"#utility.yul\":18577:18578   */\n      0x01\n        /* \"#utility.yul\":18574:18575   */\n      dup2\n        /* \"#utility.yul\":18570:18579   */\n      add\n        /* \"#utility.yul\":18565:18579   */\n      swap1\n      pop\n        /* \"#utility.yul\":18530:19005   */\n      jump(tag_487)\n    tag_489:\n        /* \"#utility.yul\":18534:18548   */\n      pop\n        /* \"#utility.yul\":19021:19025   */\n      dup3\n        /* \"#utility.yul\":19014:19025   */\n      swap8\n      pop\n        /* \"#utility.yul\":19041:19044   */\n      dup8\n        /* \"#utility.yul\":19034:19044   */\n      swap6\n      pop\n        /* \"#utility.yul\":18057:19050   */\n      pop\n      pop\n      pop\n      pop\n      pop\n        /* \"#utility.yul\":17869:19050   */\n      swap3\n      swap2\n      pop\n      pop\n      jump\t// out\n        /* \"#utility.yul\":19094:19942   */\n    tag_333:\n        /* \"#utility.yul\":19219:19222   */\n      0x00\n        /* \"#utility.yul\":19255:19259   */\n      0x40\n        /* \"#utility.yul\":19250:19253   */\n      dup4\n        /* \"#utility.yul\":19246:19260   */\n      add\n        /* \"#utility.yul\":19343:19347   */\n      0x00\n        /* \"#utility.yul\":19336:19341   */\n      dup4\n        /* \"#utility.yul\":19332:19348   */\n      add\n        /* \"#utility.yul\":19326:19349   */\n      mload\n        /* \"#utility.yul\":19396:19399   */\n      dup5\n        /* \"#utility.yul\":19390:19394   */\n      dup3\n        /* \"#utility.yul\":19386:19400   */\n      sub\n        /* \"#utility.yul\":19379:19383   */\n      0x00\n        /* \"#utility.yul\":19374:19377   */\n      dup7\n        /* \"#utility.yul\":19370:19384   */\n      add\n        /* \"#utility.yul\":19363:19401   */\n      mstore\n        /* \"#utility.yul\":19422:19551   */\n      tag_493\n        /* \"#utility.yul\":19546:19550   */\n      dup3\n        /* \"#utility.yul\":19532:19544   */\n      dup3\n        /* \"#utility.yul\":19422:19551   */\n      tag_326\n      jump\t// in\n    tag_493:\n        /* \"#utility.yul\":19414:19551   */\n      swap2\n      pop\n        /* \"#utility.yul\":19270:19562   */\n      pop\n        /* \"#utility.yul\":19648:19652   */\n      0x20\n        /* \"#utility.yul\":19641:19646   */\n      dup4\n        /* \"#utility.yul\":19637:19653   */\n      add\n        /* \"#utility.yul\":19631:19654   */\n      mload\n        /* \"#utility.yul\":19701:19704   */\n      dup5\n        /* \"#utility.yul\":19695:19699   */\n      dup3\n        /* \"#utility.yul\":19691:19705   */\n      sub\n        /* \"#utility.yul\":19684:19688   */\n      0x20\n        /* \"#utility.yul\":19679:19682   */\n      dup7\n        /* \"#utility.yul\":19675:19689   */\n      add\n        /* \"#utility.yul\":19668:19706   */\n      mstore\n        /* \"#utility.yul\":19727:19904   */\n      tag_494\n        /* \"#utility.yul\":19899:19903   */\n      dup3\n        /* \"#utility.yul\":19885:19897   */\n      dup3\n        /* \"#utility.yul\":19727:19904   */\n      tag_332\n      jump\t// in\n    tag_494:\n        /* \"#utility.yul\":19719:19904   */\n      swap2\n      pop\n        /* \"#utility.yul\":19572:19915   */\n      pop\n        /* \"#utility.yul\":19932:19936   */\n      dup1\n        /* \"#utility.yul\":19925:19936   */\n      swap2\n      pop\n        /* \"#utility.yul\":19224:19942   */\n      pop\n        /* \"#utility.yul\":19094:19942   */\n      swap3\n      swap2\n      pop\n      pop\n      jump\t// out\n        /* \"#utility.yul\":19948:20333   */\n    tag_27:\n        /* \"#utility.yul\":20097:20101   */\n      0x00\n        /* \"#utility.yul\":20135:20137   */\n      0x20\n        /* \"#utility.yul\":20124:20133   */\n      dup3\n        /* \"#utility.yul\":20120:20138   */\n      add\n        /* \"#utility.yul\":20112:20138   */\n      swap1\n      pop\n        /* \"#utility.yul\":20184:20193   */\n      dup2\n        /* \"#utility.yul\":20178:20182   */\n      dup2\n        /* \"#utility.yul\":20174:20194   */\n      sub\n        /* \"#utility.yul\":20170:20171   */\n      0x00\n        /* \"#utility.yul\":20159:20168   */\n      dup4\n        /* \"#utility.yul\":20155:20172   */\n      add\n        /* \"#utility.yul\":20148:20195   */\n      mstore\n        /* \"#utility.yul\":20212:20326   */\n      tag_496\n        /* \"#utility.yul\":20321:20325   */\n      dup2\n        /* \"#utility.yul\":20312:20318   */\n      dup5\n        /* \"#utility.yul\":20212:20326   */\n      tag_333\n      jump\t// in\n    tag_496:\n        /* \"#utility.yul\":20204:20326   */\n      swap1\n      pop\n        /* \"#utility.yul\":19948:20333   */\n      swap3\n      swap2\n      pop\n      pop\n      jump\t// out\n        /* \"#utility.yul\":20339:20519   */\n    tag_45:\n        /* \"#utility.yul\":20387:20464   */\n      0x4e487b7100000000000000000000000000000000000000000000000000000000\n        /* \"#utility.yul\":20384:20385   */\n      0x00\n        /* \"#utility.yul\":20377:20465   */\n      mstore\n        /* \"#utility.yul\":20484:20488   */\n      0x32\n        /* \"#utility.yul\":20481:20482   */\n      0x04\n        /* \"#utility.yul\":20474:20489   */\n      mstore\n        /* \"#utility.yul\":20508:20512   */\n      0x24\n        /* \"#utility.yul\":20505:20506   */\n      0x00\n        /* \"#utility.yul\":20498:20513   */\n      revert\n        /* \"#utility.yul\":20525:20694   */\n    tag_334:\n        /* \"#utility.yul\":20609:20620   */\n      0x00\n        /* \"#utility.yul\":20643:20649   */\n      dup3\n        /* \"#utility.yul\":20638:20641   */\n      dup3\n        /* \"#utility.yul\":20631:20650   */\n      mstore\n        /* \"#utility.yul\":20683:20687   */\n      0x20\n        /* \"#utility.yul\":20678:20681   */\n      dup3\n        /* \"#utility.yul\":20674:20688   */\n      add\n        /* \"#utility.yul\":20659:20688   */\n      swap1\n      pop\n        /* \"#utility.yul\":20525:20694   */\n      swap3\n      swap2\n      pop\n      pop\n      jump\t// out\n        /* \"#utility.yul\":20700:20862   */\n    tag_335:\n        /* \"#utility.yul\":20840:20854   */\n      0x496e76616c696420646174610000000000000000000000000000000000000000\n        /* \"#utility.yul\":20836:20837   */\n      0x00\n        /* \"#utility.yul\":20828:20834   */\n      dup3\n        /* \"#utility.yul\":20824:20838   */\n      add\n        /* \"#utility.yul\":20817:20855   */\n      mstore\n        /* \"#utility.yul\":20700:20862   */\n      pop\n      jump\t// out\n        /* \"#utility.yul\":20868:21234   */\n    tag_336:\n        /* \"#utility.yul\":21010:21013   */\n      0x00\n        /* \"#utility.yul\":21031:21098   */\n      tag_501\n        /* \"#utility.yul\":21095:21097   */\n      0x0c\n        /* \"#utility.yul\":21090:21093   */\n      dup4\n        /* \"#utility.yul\":21031:21098   */\n      tag_334\n      jump\t// in\n    tag_501:\n        /* \"#utility.yul\":21024:21098   */\n      swap2\n      pop\n        /* \"#utility.yul\":21107:21200   */\n      tag_502\n        /* \"#utility.yul\":21196:21199   */\n      dup3\n        /* \"#utility.yul\":21107:21200   */\n      tag_335\n      jump\t// in\n    tag_502:\n        /* \"#utility.yul\":21225:21227   */\n      0x20\n        /* \"#utility.yul\":21220:21223   */\n      dup3\n        /* \"#utility.yul\":21216:21228   */\n      add\n        /* \"#utility.yul\":21209:21228   */\n      swap1\n      pop\n        /* \"#utility.yul\":20868:21234   */\n      swap2\n      swap1\n      pop\n      jump\t// out\n        /* \"#utility.yul\":21240:21659   */\n    tag_54:\n        /* \"#utility.yul\":21406:21410   */\n      0x00\n        /* \"#utility.yul\":21444:21446   */\n      0x20\n        /* \"#utility.yul\":21433:21442   */\n      dup3\n        /* \"#utility.yul\":21429:21447   */\n      add\n        /* \"#utility.yul\":21421:21447   */\n      swap1\n      pop\n        /* \"#utility.yul\":21493:21502   */\n      dup2\n        /* \"#utility.yul\":21487:21491   */\n      dup2\n        /* \"#utility.yul\":21483:21503   */\n      sub\n        /* \"#utility.yul\":21479:21480   */\n      0x00\n        /* \"#utility.yul\":21468:21477   */\n      dup4\n        /* \"#utility.yul\":21464:21481   */\n      add\n        /* \"#utility.yul\":21457:21504   */\n      mstore\n        /* \"#utility.yul\":21521:21652   */\n      tag_504\n        /* \"#utility.yul\":21647:21651   */\n      dup2\n        /* \"#utility.yul\":21521:21652   */\n      tag_336\n      jump\t// in\n    tag_504:\n        /* \"#utility.yul\":21513:21652   */\n      swap1\n      pop\n        /* \"#utility.yul\":21240:21659   */\n      swap2\n      swap1\n      pop\n      jump\t// out\n        /* \"#utility.yul\":21665:21751   */\n    tag_337:\n        /* \"#utility.yul\":21700:21707   */\n      0x00\n        /* \"#utility.yul\":21740:21744   */\n      0xff\n        /* \"#utility.yul\":21733:21738   */\n      dup3\n        /* \"#utility.yul\":21729:21745   */\n      and\n        /* \"#utility.yul\":21718:21745   */\n      swap1\n      pop\n        /* \"#utility.yul\":21665:21751   */\n      swap2\n      swap1\n      pop\n      jump\t// out\n        /* \"#utility.yul\":21757:21937   */\n    tag_338:\n        /* \"#utility.yul\":21805:21882   */\n      0x4e487b7100000000000000000000000000000000000000000000000000000000\n        /* \"#utility.yul\":21802:21803   */\n      0x00\n        /* \"#utility.yul\":21795:21883   */\n      mstore\n        /* \"#utility.yul\":21902:21906   */\n      0x11\n        /* \"#utility.yul\":21899:21900   */\n      0x04\n        /* \"#utility.yul\":21892:21907   */\n      mstore\n        /* \"#utility.yul\":21926:21930   */\n      0x24\n        /* \"#utility.yul\":21923:21924   */\n      0x00\n        /* \"#utility.yul\":21916:21931   */\n      revert\n        /* \"#utility.yul\":21943:22131   */\n    tag_74:\n        /* \"#utility.yul\":21981:21984   */\n      0x00\n        /* \"#utility.yul\":22000:22018   */\n      tag_508\n        /* \"#utility.yul\":22016:22017   */\n      dup3\n        /* \"#utility.yul\":22000:22018   */\n      tag_337\n      jump\t// in\n    tag_508:\n        /* \"#utility.yul\":21995:22018   */\n      swap2\n      pop\n        /* \"#utility.yul\":22032:22050   */\n      tag_509\n        /* \"#utility.yul\":22048:22049   */\n      dup4\n        /* \"#utility.yul\":22032:22050   */\n      tag_337\n      jump\t// in\n    tag_509:\n        /* \"#utility.yul\":22027:22050   */\n      swap3\n      pop\n        /* \"#utility.yul\":22073:22074   */\n      dup3\n        /* \"#utility.yul\":22070:22071   */\n      dup3\n        /* \"#utility.yul\":22066:22075   */\n      add\n        /* \"#utility.yul\":22059:22075   */\n      swap1\n      pop\n        /* \"#utility.yul\":22096:22100   */\n      0xff\n        /* \"#utility.yul\":22091:22094   */\n      dup2\n        /* \"#utility.yul\":22088:22101   */\n      gt\n        /* \"#utility.yul\":22085:22124   */\n      iszero\n      tag_510\n      jumpi\n        /* \"#utility.yul\":22104:22122   */\n      tag_511\n      tag_338\n      jump\t// in\n    tag_511:\n        /* \"#utility.yul\":22085:22124   */\n    tag_510:\n        /* \"#utility.yul\":21943:22131   */\n      swap3\n      swap2\n      pop\n      pop\n      jump\t// out\n        /* \"#utility.yul\":22137:22317   */\n    tag_339:\n        /* \"#utility.yul\":22185:22262   */\n      0x4e487b7100000000000000000000000000000000000000000000000000000000\n        /* \"#utility.yul\":22182:22183   */\n      0x00\n        /* \"#utility.yul\":22175:22263   */\n      mstore\n        /* \"#utility.yul\":22282:22286   */\n      0x12\n        /* \"#utility.yul\":22279:22280   */\n      0x04\n        /* \"#utility.yul\":22272:22287   */\n      mstore\n        /* \"#utility.yul\":22306:22310   */\n      0x24\n        /* \"#utility.yul\":22303:22304   */\n      0x00\n        /* \"#utility.yul\":22296:22311   */\n      revert\n        /* \"#utility.yul\":22323:22493   */\n    tag_76:\n        /* \"#utility.yul\":22353:22354   */\n      0x00\n        /* \"#utility.yul\":22370:22388   */\n      tag_514\n        /* \"#utility.yul\":22386:22387   */\n      dup3\n        /* \"#utility.yul\":22370:22388   */\n      tag_337\n      jump\t// in\n    tag_514:\n        /* \"#utility.yul\":22365:22388   */\n      swap2\n      pop\n        /* \"#utility.yul\":22402:22420   */\n      tag_515\n        /* \"#utility.yul\":22418:22419   */\n      dup4\n        /* \"#utility.yul\":22402:22420   */\n      tag_337\n      jump\t// in\n    tag_515:\n        /* \"#utility.yul\":22397:22420   */\n      swap3\n      pop\n        /* \"#utility.yul\":22439:22440   */\n      dup3\n        /* \"#utility.yul\":22429:22464   */\n      tag_516\n      jumpi\n        /* \"#utility.yul\":22444:22462   */\n      tag_517\n      tag_339\n      jump\t// in\n    tag_517:\n        /* \"#utility.yul\":22429:22464   */\n    tag_516:\n        /* \"#utility.yul\":22485:22486   */\n      dup3\n        /* \"#utility.yul\":22482:22483   */\n      dup3\n        /* \"#utility.yul\":22478:22487   */\n      mod\n        /* \"#utility.yul\":22473:22487   */\n      swap1\n      pop\n        /* \"#utility.yul\":22323:22493   */\n      swap3\n      swap2\n      pop\n      pop\n      jump\t// out\n        /* \"#utility.yul\":22499:22690   */\n    tag_158:\n        /* \"#utility.yul\":22539:22542   */\n      0x00\n        /* \"#utility.yul\":22558:22578   */\n      tag_519\n        /* \"#utility.yul\":22576:22577   */\n      dup3\n        /* \"#utility.yul\":22558:22578   */\n      tag_304\n      jump\t// in\n    tag_519:\n        /* \"#utility.yul\":22553:22578   */\n      swap2\n      pop\n        /* \"#utility.yul\":22592:22612   */\n      tag_520\n        /* \"#utility.yul\":22610:22611   */\n      dup4\n        /* \"#utility.yul\":22592:22612   */\n      tag_304\n      jump\t// in\n    tag_520:\n        /* \"#utility.yul\":22587:22612   */\n      swap3\n      pop\n        /* \"#utility.yul\":22635:22636   */\n      dup3\n        /* \"#utility.yul\":22632:22633   */\n      dup3\n        /* \"#utility.yul\":22628:22637   */\n      add\n        /* \"#utility.yul\":22621:22637   */\n      swap1\n      pop\n        /* \"#utility.yul\":22656:22659   */\n      dup1\n        /* \"#utility.yul\":22653:22654   */\n      dup3\n        /* \"#utility.yul\":22650:22660   */\n      gt\n        /* \"#utility.yul\":22647:22683   */\n      iszero\n      tag_521\n      jumpi\n        /* \"#utility.yul\":22663:22681   */\n      tag_522\n      tag_338\n      jump\t// in\n    tag_522:\n        /* \"#utility.yul\":22647:22683   */\n    tag_521:\n        /* \"#utility.yul\":22499:22690   */\n      swap3\n      swap2\n      pop\n      pop\n      jump\t// out\n        /* \"#utility.yul\":22696:22890   */\n    tag_179:\n        /* \"#utility.yul\":22736:22740   */\n      0x00\n        /* \"#utility.yul\":22756:22776   */\n      tag_524\n        /* \"#utility.yul\":22774:22775   */\n      dup3\n        /* \"#utility.yul\":22756:22776   */\n      tag_304\n      jump\t// in\n    tag_524:\n        /* \"#utility.yul\":22751:22776   */\n      swap2\n      pop\n        /* \"#utility.yul\":22790:22810   */\n      tag_525\n        /* \"#utility.yul\":22808:22809   */\n      dup4\n        /* \"#utility.yul\":22790:22810   */\n      tag_304\n      jump\t// in\n    tag_525:\n        /* \"#utility.yul\":22785:22810   */\n      swap3\n      pop\n        /* \"#utility.yul\":22834:22835   */\n      dup3\n        /* \"#utility.yul\":22831:22832   */\n      dup3\n        /* \"#utility.yul\":22827:22836   */\n      sub\n        /* \"#utility.yul\":22819:22836   */\n      swap1\n      pop\n        /* \"#utility.yul\":22858:22859   */\n      dup2\n        /* \"#utility.yul\":22852:22856   */\n      dup2\n        /* \"#utility.yul\":22849:22860   */\n      gt\n        /* \"#utility.yul\":22846:22883   */\n      iszero\n      tag_526\n      jumpi\n        /* \"#utility.yul\":22863:22881   */\n      tag_527\n      tag_338\n      jump\t// in\n    tag_527:\n        /* \"#utility.yul\":22846:22883   */\n    tag_526:\n        /* \"#utility.yul\":22696:22890   */\n      swap3\n      swap2\n      pop\n      pop\n      jump\t// out\n        /* \"#utility.yul\":22896:23119   */\n    tag_340:\n        /* \"#utility.yul\":23036:23070   */\n      0x42797465733a3a20746f427974657333323a206461746120697320746f207368\n        /* \"#utility.yul\":23032:23033   */\n      0x00\n        /* \"#utility.yul\":23024:23030   */\n      dup3\n        /* \"#utility.yul\":23020:23034   */\n      add\n        /* \"#utility.yul\":23013:23071   */\n      mstore\n        /* \"#utility.yul\":23105:23111   */\n      0x6f72742e00000000000000000000000000000000000000000000000000000000\n        /* \"#utility.yul\":23100:23102   */\n      0x20\n        /* \"#utility.yul\":23092:23098   */\n      dup3\n        /* \"#utility.yul\":23088:23103   */\n      add\n        /* \"#utility.yul\":23081:23112   */\n      mstore\n        /* \"#utility.yul\":22896:23119   */\n      pop\n      jump\t// out\n        /* \"#utility.yul\":23125:23491   */\n    tag_341:\n        /* \"#utility.yul\":23267:23270   */\n      0x00\n        /* \"#utility.yul\":23288:23355   */\n      tag_530\n        /* \"#utility.yul\":23352:23354   */\n      0x24\n        /* \"#utility.yul\":23347:23350   */\n      dup4\n        /* \"#utility.yul\":23288:23355   */\n      tag_334\n      jump\t// in\n    tag_530:\n        /* \"#utility.yul\":23281:23355   */\n      swap2\n      pop\n        /* \"#utility.yul\":23364:23457   */\n      tag_531\n        /* \"#utility.yul\":23453:23456   */\n      dup3\n        /* \"#utility.yul\":23364:23457   */\n      tag_340\n      jump\t// in\n    tag_531:\n        /* \"#utility.yul\":23482:23484   */\n      0x40\n        /* \"#utility.yul\":23477:23480   */\n      dup3\n        /* \"#utility.yul\":23473:23485   */\n      add\n        /* \"#utility.yul\":23466:23485   */\n      swap1\n      pop\n        /* \"#utility.yul\":23125:23491   */\n      swap2\n      swap1\n      pop\n      jump\t// out\n        /* \"#utility.yul\":23497:23916   */\n    tag_188:\n        /* \"#utility.yul\":23663:23667   */\n      0x00\n        /* \"#utility.yul\":23701:23703   */\n      0x20\n        /* \"#utility.yul\":23690:23699   */\n      dup3\n        /* \"#utility.yul\":23686:23704   */\n      add\n        /* \"#utility.yul\":23678:23704   */\n      swap1\n      pop\n        /* \"#utility.yul\":23750:23759   */\n      dup2\n        /* \"#utility.yul\":23744:23748   */\n      dup2\n        /* \"#utility.yul\":23740:23760   */\n      sub\n        /* \"#utility.yul\":23736:23737   */\n      0x00\n        /* \"#utility.yul\":23725:23734   */\n      dup4\n        /* \"#utility.yul\":23721:23738   */\n      add\n        /* \"#utility.yul\":23714:23761   */\n      mstore\n        /* \"#utility.yul\":23778:23909   */\n      tag_533\n        /* \"#utility.yul\":23904:23908   */\n      dup2\n        /* \"#utility.yul\":23778:23909   */\n      tag_341\n      jump\t// in\n    tag_533:\n        /* \"#utility.yul\":23770:23909   */\n      swap1\n      pop\n        /* \"#utility.yul\":23497:23916   */\n      swap2\n      swap1\n      pop\n      jump\t// out\n        /* \"#utility.yul\":23922:24155   */\n    tag_210:\n        /* \"#utility.yul\":23961:23964   */\n      0x00\n        /* \"#utility.yul\":23984:24008   */\n      tag_535\n        /* \"#utility.yul\":24002:24007   */\n      dup3\n        /* \"#utility.yul\":23984:24008   */\n      tag_304\n      jump\t// in\n    tag_535:\n        /* \"#utility.yul\":23975:24008   */\n      swap2\n      pop\n        /* \"#utility.yul\":24030:24096   */\n      0xffffffffffffffffffffffffffffffffffffffffffffffffffffffffffffffff\n        /* \"#utility.yul\":24023:24028   */\n      dup3\n        /* \"#utility.yul\":24020:24097   */\n      sub\n        /* \"#utility.yul\":24017:24120   */\n      tag_536\n      jumpi\n        /* \"#utility.yul\":24100:24118   */\n      tag_537\n      tag_338\n      jump\t// in\n    tag_537:\n        /* \"#utility.yul\":24017:24120   */\n    tag_536:\n        /* \"#utility.yul\":24147:24148   */\n      0x01\n        /* \"#utility.yul\":24140:24145   */\n      dup3\n        /* \"#utility.yul\":24136:24149   */\n      add\n        /* \"#utility.yul\":24129:24149   */\n      swap1\n      pop\n        /* \"#utility.yul\":23922:24155   */\n      swap2\n      swap1\n      pop\n      jump\t// out\n        /* \"#utility.yul\":24161:24352   */\n    tag_220:\n        /* \"#utility.yul\":24199:24203   */\n      0x00\n        /* \"#utility.yul\":24219:24237   */\n      tag_539\n        /* \"#utility.yul\":24235:24236   */\n      dup3\n        /* \"#utility.yul\":24219:24237   */\n      tag_337\n      jump\t// in\n    tag_539:\n        /* \"#utility.yul\":24214:24237   */\n      swap2\n      pop\n        /* \"#utility.yul\":24251:24269   */\n      tag_540\n        /* \"#utility.yul\":24267:24268   */\n      dup4\n        /* \"#utility.yul\":24251:24269   */\n      tag_337\n      jump\t// in\n    tag_540:\n        /* \"#utility.yul\":24246:24269   */\n      swap3\n      pop\n        /* \"#utility.yul\":24293:24294   */\n      dup3\n        /* \"#utility.yul\":24290:24291   */\n      dup3\n        /* \"#utility.yul\":24286:24295   */\n      sub\n        /* \"#utility.yul\":24278:24295   */\n      swap1\n      pop\n        /* \"#utility.yul\":24317:24321   */\n      0xff\n        /* \"#utility.yul\":24311:24315   */\n      dup2\n        /* \"#utility.yul\":24308:24322   */\n      gt\n        /* \"#utility.yul\":24305:24345   */\n      iszero\n      tag_541\n      jumpi\n        /* \"#utility.yul\":24325:24343   */\n      tag_542\n      tag_338\n      jump\t// in\n    tag_542:\n        /* \"#utility.yul\":24305:24345   */\n    tag_541:\n        /* \"#utility.yul\":24161:24352   */\n      swap3\n      swap2\n      pop\n      pop\n      jump\t// out\n        /* \"#utility.yul\":24358:24460   */\n    tag_342:\n        /* \"#utility.yul\":24400:24408   */\n      0x00\n        /* \"#utility.yul\":24447:24452   */\n      dup2\n        /* \"#utility.yul\":24444:24445   */\n      0x01\n        /* \"#utility.yul\":24440:24453   */\n      shr\n        /* \"#utility.yul\":24419:24453   */\n      swap1\n      pop\n        /* \"#utility.yul\":24358:24460   */\n      swap2\n      swap1\n      pop\n      jump\t// out\n        /* \"#utility.yul\":24466:25314   */\n    tag_343:\n        /* \"#utility.yul\":24527:24532   */\n      0x00\n        /* \"#utility.yul\":24534:24538   */\n      dup1\n        /* \"#utility.yul\":24558:24564   */\n      dup3\n        /* \"#utility.yul\":24549:24564   */\n      swap2\n      pop\n        /* \"#utility.yul\":24582:24587   */\n      dup4\n        /* \"#utility.yul\":24573:24587   */\n      swap1\n      pop\n        /* \"#utility.yul\":24596:25308   */\n    tag_545:\n        /* \"#utility.yul\":24617:24618   */\n      0x01\n        /* \"#utility.yul\":24607:24615   */\n      dup6\n        /* \"#utility.yul\":24604:24619   */\n      gt\n        /* \"#utility.yul\":24596:25308   */\n      iszero\n      tag_547\n      jumpi\n        /* \"#utility.yul\":24712:24716   */\n      dup1\n        /* \"#utility.yul\":24707:24710   */\n      dup7\n        /* \"#utility.yul\":24703:24717   */\n      div\n        /* \"#utility.yul\":24697:24701   */\n      dup2\n        /* \"#utility.yul\":24694:24718   */\n      gt\n        /* \"#utility.yul\":24691:24741   */\n      iszero\n      tag_548\n      jumpi\n        /* \"#utility.yul\":24721:24739   */\n      tag_549\n      tag_338\n      jump\t// in\n    tag_549:\n        /* \"#utility.yul\":24691:24741   */\n    tag_548:\n        /* \"#utility.yul\":24771:24772   */\n      0x01\n        /* \"#utility.yul\":24761:24769   */\n      dup6\n        /* \"#utility.yul\":24757:24773   */\n      and\n        /* \"#utility.yul\":24754:25205   */\n      iszero\n      tag_550\n      jumpi\n        /* \"#utility.yul\":25186:25190   */\n      dup1\n        /* \"#utility.yul\":25179:25184   */\n      dup3\n        /* \"#utility.yul\":25175:25191   */\n      mul\n        /* \"#utility.yul\":25166:25191   */\n      swap2\n      pop\n        /* \"#utility.yul\":24754:25205   */\n    tag_550:\n        /* \"#utility.yul\":25236:25240   */\n      dup1\n        /* \"#utility.yul\":25230:25234   */\n      dup2\n        /* \"#utility.yul\":25226:25241   */\n      mul\n        /* \"#utility.yul\":25218:25241   */\n      swap1\n      pop\n        /* \"#utility.yul\":25266:25298   */\n      tag_551\n        /* \"#utility.yul\":25289:25297   */\n      dup6\n        /* \"#utility.yul\":25266:25298   */\n      tag_342\n      jump\t// in\n    tag_551:\n        /* \"#utility.yul\":25254:25298   */\n      swap5\n      pop\n        /* \"#utility.yul\":24596:25308   */\n      jump(tag_545)\n    tag_547:\n        /* \"#utility.yul\":24466:25314   */\n      swap5\n      pop\n      swap5\n      swap3\n      pop\n      pop\n      pop\n      jump\t// out\n        /* \"#utility.yul\":25320:26393   */\n    tag_344:\n        /* \"#utility.yul\":25374:25379   */\n      0x00\n        /* \"#utility.yul\":25565:25573   */\n      dup3\n        /* \"#utility.yul\":25555:25595   */\n      tag_553\n      jumpi\n        /* \"#utility.yul\":25586:25587   */\n      0x01\n        /* \"#utility.yul\":25577:25587   */\n      swap1\n      pop\n        /* \"#utility.yul\":25588:25593   */\n      jump(tag_552)\n        /* \"#utility.yul\":25555:25595   */\n    tag_553:\n        /* \"#utility.yul\":25614:25618   */\n      dup2\n        /* \"#utility.yul\":25604:25640   */\n      tag_554\n      jumpi\n        /* \"#utility.yul\":25631:25632   */\n      0x00\n        /* \"#utility.yul\":25622:25632   */\n      swap1\n      pop\n        /* \"#utility.yul\":25633:25638   */\n      jump(tag_552)\n        /* \"#utility.yul\":25604:25640   */\n    tag_554:\n        /* \"#utility.yul\":25700:25704   */\n      dup2\n        /* \"#utility.yul\":25748:25749   */\n      0x01\n        /* \"#utility.yul\":25743:25770   */\n      dup2\n      eq\n      tag_556\n      jumpi\n        /* \"#utility.yul\":25784:25785   */\n      0x02\n        /* \"#utility.yul\":25779:25970   */\n      dup2\n      eq\n      tag_557\n      jumpi\n        /* \"#utility.yul\":25693:25970   */\n      jump(tag_555)\n        /* \"#utility.yul\":25743:25770   */\n    tag_556:\n        /* \"#utility.yul\":25761:25762   */\n      0x01\n        /* \"#utility.yul\":25752:25762   */\n      swap2\n      pop\n        /* \"#utility.yul\":25763:25768   */\n      pop\n      jump(tag_552)\n        /* \"#utility.yul\":25779:25970   */\n    tag_557:\n        /* \"#utility.yul\":25824:25827   */\n      0xff\n        /* \"#utility.yul\":25814:25822   */\n      dup5\n        /* \"#utility.yul\":25811:25828   */\n      gt\n        /* \"#utility.yul\":25808:25851   */\n      iszero\n      tag_558\n      jumpi\n        /* \"#utility.yul\":25831:25849   */\n      tag_559\n      tag_338\n      jump\t// in\n    tag_559:\n        /* \"#utility.yul\":25808:25851   */\n    tag_558:\n        /* \"#utility.yul\":25880:25888   */\n      dup4\n        /* \"#utility.yul\":25877:25878   */\n      0x02\n        /* \"#utility.yul\":25873:25889   */\n      exp\n        /* \"#utility.yul\":25864:25889   */\n      swap2\n      pop\n        /* \"#utility.yul\":25915:25918   */\n      dup5\n        /* \"#utility.yul\":25908:25913   */\n      dup3\n        /* \"#utility.yul\":25905:25919   */\n      gt\n        /* \"#utility.yul\":25902:25942   */\n      iszero\n      tag_560\n      jumpi\n        /* \"#utility.yul\":25922:25940   */\n      tag_561\n      tag_338\n      jump\t// in\n    tag_561:\n        /* \"#utility.yul\":25902:25942   */\n    tag_560:\n        /* \"#utility.yul\":25955:25960   */\n      pop\n      jump(tag_552)\n        /* \"#utility.yul\":25693:25970   */\n    tag_555:\n      pop\n        /* \"#utility.yul\":26079:26081   */\n      0x20\n        /* \"#utility.yul\":26069:26077   */\n      dup4\n        /* \"#utility.yul\":26066:26082   */\n      lt\n        /* \"#utility.yul\":26060:26063   */\n      0x0133\n        /* \"#utility.yul\":26054:26058   */\n      dup4\n        /* \"#utility.yul\":26051:26064   */\n      lt\n        /* \"#utility.yul\":26047:26083   */\n      and\n        /* \"#utility.yul\":26029:26031   */\n      0x4e\n        /* \"#utility.yul\":26019:26027   */\n      dup5\n        /* \"#utility.yul\":26016:26032   */\n      lt\n        /* \"#utility.yul\":26011:26013   */\n      0x0b\n        /* \"#utility.yul\":26005:26009   */\n      dup5\n        /* \"#utility.yul\":26002:26014   */\n      lt\n        /* \"#utility.yul\":25998:26033   */\n      and\n        /* \"#utility.yul\":25982:26093   */\n      or\n        /* \"#utility.yul\":25979:26225   */\n      iszero\n      tag_562\n      jumpi\n        /* \"#utility.yul\":26135:26143   */\n      dup3\n        /* \"#utility.yul\":26129:26133   */\n      dup3\n        /* \"#utility.yul\":26125:26144   */\n      exp\n        /* \"#utility.yul\":26116:26144   */\n      swap1\n      pop\n        /* \"#utility.yul\":26170:26173   */\n      dup4\n        /* \"#utility.yul\":26163:26168   */\n      dup2\n        /* \"#utility.yul\":26160:26174   */\n      gt\n        /* \"#utility.yul\":26157:26197   */\n      iszero\n      tag_563\n      jumpi\n        /* \"#utility.yul\":26177:26195   */\n      tag_564\n      tag_338\n      jump\t// in\n    tag_564:\n        /* \"#utility.yul\":26157:26197   */\n    tag_563:\n        /* \"#utility.yul\":26210:26215   */\n      jump(tag_552)\n        /* \"#utility.yul\":25979:26225   */\n    tag_562:\n        /* \"#utility.yul\":26250:26292   */\n      tag_565\n        /* \"#utility.yul\":26288:26291   */\n      dup5\n        /* \"#utility.yul\":26278:26286   */\n      dup5\n        /* \"#utility.yul\":26272:26276   */\n      dup5\n        /* \"#utility.yul\":26269:26270   */\n      0x01\n        /* \"#utility.yul\":26250:26292   */\n      tag_343\n      jump\t// in\n    tag_565:\n        /* \"#utility.yul\":26235:26292   */\n      swap3\n      pop\n      swap1\n      pop\n        /* \"#utility.yul\":26324:26328   */\n      dup2\n        /* \"#utility.yul\":26319:26322   */\n      dup5\n        /* \"#utility.yul\":26315:26329   */\n      div\n        /* \"#utility.yul\":26308:26313   */\n      dup2\n        /* \"#utility.yul\":26305:26330   */\n      gt\n        /* \"#utility.yul\":26302:26353   */\n      iszero\n      tag_566\n      jumpi\n        /* \"#utility.yul\":26333:26351   */\n      tag_567\n      tag_338\n      jump\t// in\n    tag_567:\n        /* \"#utility.yul\":26302:26353   */\n    tag_566:\n        /* \"#utility.yul\":26382:26386   */\n      dup2\n        /* \"#utility.yul\":26375:26380   */\n      dup2\n        /* \"#utility.yul\":26371:26387   */\n      mul\n        /* \"#utility.yul\":26362:26387   */\n      swap1\n      pop\n        /* \"#utility.yul\":25320:26393   */\n    tag_552:\n      swap4\n      swap3\n      pop\n      pop\n      pop\n      jump\t// out\n        /* \"#utility.yul\":26399:26684   */\n    tag_255:\n        /* \"#utility.yul\":26459:26464   */\n      0x00\n        /* \"#utility.yul\":26483:26506   */\n      tag_569\n        /* \"#utility.yul\":26501:26505   */\n      dup3\n        /* \"#utility.yul\":26483:26506   */\n      tag_304\n      jump\t// in\n    tag_569:\n        /* \"#utility.yul\":26475:26506   */\n      swap2\n      pop\n        /* \"#utility.yul\":26527:26554   */\n      tag_570\n        /* \"#utility.yul\":26545:26553   */\n      dup4\n        /* \"#utility.yul\":26527:26554   */\n      tag_304\n      jump\t// in\n    tag_570:\n        /* \"#utility.yul\":26515:26554   */\n      swap3\n      pop\n        /* \"#utility.yul\":26573:26677   */\n      tag_571\n        /* \"#utility.yul\":26610:26676   */\n      0xffffffffffffffffffffffffffffffffffffffffffffffffffffffffffffffff\n        /* \"#utility.yul\":26600:26608   */\n      dup5\n        /* \"#utility.yul\":26594:26598   */\n      dup5\n        /* \"#utility.yul\":26573:26677   */\n      tag_344\n      jump\t// in\n    tag_571:\n        /* \"#utility.yul\":26564:26677   */\n      swap1\n      pop\n        /* \"#utility.yul\":26399:26684   */\n      swap3\n      swap2\n      pop\n      pop\n      jump\t// out\n\n    auxdata: 0xa264697066735822122083be8d047667dfb62aa5a2d63c06ad86b868dfc83208585ebb0f884dfc8ace2664736f6c634300081a0033\n}\n",
				"bytecode": {
					"linkReferences": {},
					"object": "611e7f61004d600b8282823980515f1a6073146041577f4e487b71000000000000000000000000000000000000000000000000000000005f525f60045260245ffd5b305f52607381538281f3fe7300000000000000000000000000000000000000003014608060405260043610610055575f3560e01c806391648ac514610059578063a948b67014610089578063ba1daf93146100b9578063cbef80f1146100e9575b5f80fd5b610073600480360381019061006e919061130f565b610119565b60405161008091906114f9565b60405180910390f35b6100a3600480360381019061009e91906116ed565b6102cd565b6040516100b09190611827565b60405180910390f35b6100d360048036038101906100ce91906116ed565b610482565b6040516100e09190611888565b60405180910390f35b61010360048036038101906100fe91906116ed565b610558565b60405161011091906119d2565b60405180910390f35b61012161102b565b61012961102b565b5f60405180604001604052808581526020015f8152509050610180846040518060400160405280602081526020017f56e81f171bcc55a6ff8345e692c0f86e5b48e01b996cadc001622fb5e363b421815250610874565b1561019f576001825f01901515908115158152505081925050506102c8565b5f6101b16101ac866108ab565b6108d8565b90505f815190505f81036101db576001845f019015159081151581525050839450505050506102c8565b6002810361025c575f610207835f815181106101fa576101f96119f2565b5b60200260200101516109e1565b90505f602082015160f81c8060041c91505060028114806102285750600381145b15610243576001866020019015159081151581525050610255565b60018660c00190151590811515815250505b50506102b6565b6011810361027a5760018460e00190151590811515815250506102b5565b6040517f08c379a00000000000000000000000000000000000000000000000000000000081526004016102ac90611a79565b60405180910390fd5b5b82846101200181905250839450505050505b919050565b6102d561108b565b6102dd61108b565b5f6102f76102f28561012001515f01516108ab565b6108d8565b90505f61031e82600181518110610311576103106119f2565b5b60200260200101516109e1565b90505f60016004610348855f8151811061033b5761033a6119f2565b5b60200260200101516109e1565b5f8151811061035a576103596119f2565b5b602001015160f81c60f81b7effffffffffffffffffffffffffffffffffffffffffffffffffffffffffffff1916901c60f81c16905060405180604001604052806103e16103c0865f815181106103b3576103b26119f2565b5b60200260200101516109e1565b60026001866103cf9190611ad0565b6103d99190611b31565b60ff16610a6e565b81526020018260ff16815250845f0181905250604051806080016040528060011515815260200161041184610ab8565b81526020015f151581526020015f67ffffffffffffffff811115610438576104376111eb565b5b6040519080825280601f01601f19166020018201604052801561046a5781602001600182028036833780820191505090505b50815250846020018190525083945050505050919050565b61048a6110b1565b6104926110b1565b5f6104ac6104a78561012001515f01516108ab565b6108d8565b90505f6104d3826001815181106104c6576104c56119f2565b5b60200260200101516109e1565b9050604051806040016040528061050d610506855f815181106104f9576104f86119f2565b5b60200260200101516109e1565b6001610a6e565b81526020015f815250835f018190525060405180608001604052805f151581526020015f801b8152602001600115158152602001828152508360200181905250829350505050919050565b6105606110d7565b6105686110d7565b5f61058261057d8561012001515f01516108ab565b6108d8565b905061058c6110fd565b5f5b601081101561072f575f6105bb8483815181106105ae576105ad6119f2565b5b60200260200101516109e1565b9050602081511461066f5760405180604001604052805f1515815260200160405180608001604052805f151581526020015f801b81526020015f151581526020015f67ffffffffffffffff811115610616576106156111eb565b5b6040519080825280601f01601f1916602001820160405280156106485781602001600182028036833780820191505090505b50815250815250838360108110610662576106616119f2565b5b6020020181905250610721565b5f61067982610ab8565b9050604051806040016040528060011515815260200160405180608001604052806001151581526020018481526020015f151581526020015f67ffffffffffffffff8111156106cb576106ca6111eb565b5b6040519080825280601f01601f1916602001820160405280156106fd5781602001600182028036833780820191505090505b50815250815250848460108110610717576107166119f2565b5b6020020181905250505b50808060010191505061058e565b5061075c6107578360108151811061074a576107496119f2565b5b60200260200101516109e1565b610b0a565b156107f65760405180604001604052805f1515815260200160405180608001604052805f151581526020015f801b81526020015f151581526020015f67ffffffffffffffff8111156107b1576107b06111eb565b5b6040519080825280601f01601f1916602001820160405280156107e35781602001600182028036833780820191505090505b50815250815250835f0181905250610860565b604051806040016040528060011515815260200160405180608001604052805f151581526020015f801b815260200160011515815260200161085286601081518110610845576108446119f2565b5b60200260200101516109e1565b815250815250835f01819052505b808360200181905250829350505050919050565b5f8151835114610886575f90506108a5565b5f806020850191506020840190506108a082828751610bb1565b925050505b92915050565b6108b361112b565b5f60208301905060405180604001604052808451815260200182815250915050919050565b60606108e382610bc2565b6108eb575f80fd5b5f6108f583610c09565b90505f8167ffffffffffffffff811115610912576109116111eb565b5b60405190808252806020026020018201604052801561094b57816020015b61093861112b565b8152602001906001900390816109305790505b5090505f61095c8560200151610c90565b856020015161096b9190611b61565b90505f805f90505b848110156109d45761098483610d4c565b91506040518060400160405280838152602001848152508482815181106109ae576109ad6119f2565b5b602002602001018190525081836109c59190611b61565b92508080600101915050610973565b5082945050505050919050565b60605f825f0151116109f1575f80fd5b5f806109fc84610e25565b915091505f8167ffffffffffffffff811115610a1b57610a1a6111eb565b5b6040519080825280601f01601f191660200182016040528015610a4d5781602001600182028036833780820191505090505b5090505f816020019050610a62848285610e6a565b81945050505050919050565b60608251821115610a7d575f80fd5b5f828451610a8b9190611b94565b90505f610a9785610f09565b9050610aae8482610aa89190611b61565b83610f15565b9250505092915050565b5f602082511015610afe576040517f08c379a0000000000000000000000000000000000000000000000000000000008152600401610af590611c37565b60405180910390fd5b60208201519050919050565b5f808251118015610baa575060c060f81b825f81518110610b2e57610b2d6119f2565b5b602001015160f81c60f81b7effffffffffffffffffffffffffffffffffffffffffffffffffffffffffffff19161480610ba95750608060f81b825f81518110610b7a57610b796119f2565b5b602001015160f81c60f81b7effffffffffffffffffffffffffffffffffffffffffffffffffffffffffffff1916145b5b9050919050565b5f8183208285201490509392505050565b5f80825f015103610bd5575f9050610c04565b5f808360200151905080515f1a915060c060ff168260ff161015610bfd575f92505050610c04565b6001925050505b919050565b5f80825f015103610c1c575f9050610c8b565b5f80610c2b8460200151610c90565b8460200151610c3a9190611b61565b90505f845f01518560200151610c509190611b61565b90505b80821015610c8457610c6482610d4c565b82610c6f9190611b61565b91508280610c7c90611c55565b935050610c53565b8293505050505b919050565b5f8082515f1a9050608060ff16811015610cad575f915050610d47565b60b860ff16811080610cd2575060c060ff168110158015610cd1575060f860ff1681105b5b15610ce1576001915050610d47565b60c060ff16811015610d1c5760018060b8610cfc9190611c9c565b60ff1682610d0a9190611b94565b610d149190611b61565b915050610d47565b60018060f8610d2b9190611c9c565b60ff1682610d399190611b94565b610d439190611b61565b9150505b919050565b5f805f83515f1a9050608060ff16811015610d6a5760019150610e1b565b60b860ff16811015610d99576001608060ff1682610d889190611b94565b610d929190611b61565b9150610e1a565b60c060ff16811015610dc95760b78103600185019450806020036101000a85510460018201810193505050610e19565b60f860ff16811015610df857600160c060ff1682610de79190611b94565b610df19190611b61565b9150610e18565b60f78103600185019450806020036101000a855104600182018101935050505b5b5b5b8192505050919050565b5f805f610e358460200151610c90565b90505f818560200151610e489190611b61565b90505f82865f0151610e5a9190611b94565b9050818194509450505050915091565b5f810315610f04575b602060ff168110610ebd5782518252602060ff1683610e929190611b61565b9250602060ff1682610ea49190611b61565b9150602060ff1681610eb69190611b94565b9050610e73565b5f811115610f03575f600182602060ff16610ed89190611b94565b610100610ee59190611dff565b610eef9190611b94565b905080198451168184511681811785525050505b5b505050565b5f602082019050919050565b60608167ffffffffffffffff811115610f3157610f306111eb565b5b6040519080825280601f01601f191660200182016040528015610f635781602001600182028036833780820191505090505b5090505f602082019050610f78848285610f7f565b5092915050565b5b60208110610fbe5782518252602082610f999190611b61565b9150602083610fa89190611b61565b9250602081610fb79190611b94565b9050610f80565b5f808214610ff1576001826020610fd59190611b94565b610100610fe29190611dff565b610fec9190611b94565b611013565b7fffffffffffffffffffffffffffffffffffffffffffffffffffffffffffffffff5b90508019845116818451168181178552505050505050565b6040518061014001604052805f151581526020015f151581526020015f151581526020015f151581526020015f151581526020015f151581526020015f151581526020015f151581526020015f8152602001611085611143565b81525090565b604051806040016040528061109e61115c565b81526020016110ab611175565b81525090565b60405180604001604052806110c461115c565b81526020016110d1611175565b81525090565b60405180604001604052806110ea6111a1565b81526020016110f76110fd565b81525090565b6040518061020001604052806010905b6111156111a1565b81526020019060019003908161110d5790505090565b60405180604001604052805f81526020015f81525090565b6040518060400160405280606081526020015f81525090565b6040518060400160405280606081526020015f81525090565b60405180608001604052805f151581526020015f80191681526020015f15158152602001606081525090565b60405180604001604052805f151581526020016111bc611175565b81525090565b5f604051905090565b5f80fd5b5f80fd5b5f80fd5b5f80fd5b5f601f19601f8301169050919050565b7f4e487b71000000000000000000000000000000000000000000000000000000005f52604160045260245ffd5b611221826111db565b810181811067ffffffffffffffff821117156112405761123f6111eb565b5b80604052505050565b5f6112526111c2565b905061125e8282611218565b919050565b5f67ffffffffffffffff82111561127d5761127c6111eb565b5b611286826111db565b9050602081019050919050565b828183375f83830152505050565b5f6112b36112ae84611263565b611249565b9050828152602081018484840111156112cf576112ce6111d7565b5b6112da848285611293565b509392505050565b5f82601f8301126112f6576112f56111d3565b5b81356113068482602086016112a1565b91505092915050565b5f60208284031215611324576113236111cb565b5b5f82013567ffffffffffffffff811115611341576113406111cf565b5b61134d848285016112e2565b91505092915050565b5f8115159050919050565b61136a81611356565b82525050565b5f819050919050565b61138281611370565b82525050565b5f81519050919050565b5f82825260208201905092915050565b8281835e5f83830152505050565b5f6113ba82611388565b6113c48185611392565b93506113d48185602086016113a2565b6113dd816111db565b840191505092915050565b5f604083015f8301518482035f86015261140282826113b0565b91505060208301516114176020860182611379565b508091505092915050565b5f61014083015f8301516114385f860182611361565b50602083015161144b6020860182611361565b50604083015161145e6040860182611361565b5060608301516114716060860182611361565b5060808301516114846080860182611361565b5060a083015161149760a0860182611361565b5060c08301516114aa60c0860182611361565b5060e08301516114bd60e0860182611361565b506101008301516114d2610100860182611379565b506101208301518482036101208601526114ec82826113e8565b9150508091505092915050565b5f6020820190508181035f8301526115118184611422565b905092915050565b5f80fd5b5f80fd5b61152a81611356565b8114611534575f80fd5b50565b5f8135905061154581611521565b92915050565b61155481611370565b811461155e575f80fd5b50565b5f8135905061156f8161154b565b92915050565b5f6040828403121561158a57611589611519565b5b6115946040611249565b90505f82013567ffffffffffffffff8111156115b3576115b261151d565b5b6115bf848285016112e2565b5f8301525060206115d284828501611561565b60208301525092915050565b5f61014082840312156115f4576115f3611519565b5b6115ff610140611249565b90505f61160e84828501611537565b5f83015250602061162184828501611537565b602083015250604061163584828501611537565b604083015250606061164984828501611537565b606083015250608061165d84828501611537565b60808301525060a061167184828501611537565b60a08301525060c061168584828501611537565b60c08301525060e061169984828501611537565b60e0830152506101006116ae84828501611561565b6101008301525061012082013567ffffffffffffffff8111156116d4576116d361151d565b5b6116e084828501611575565b6101208301525092915050565b5f60208284031215611702576117016111cb565b5b5f82013567ffffffffffffffff81111561171f5761171e6111cf565b5b61172b848285016115de565b91505092915050565b5f604083015f8301518482035f86015261174e82826113b0565b91505060208301516117636020860182611379565b508091505092915050565b5f819050919050565b6117808161176e565b82525050565b5f608083015f83015161179b5f860182611361565b5060208301516117ae6020860182611777565b5060408301516117c16040860182611361565b50606083015184820360608601526117d982826113b0565b9150508091505092915050565b5f604083015f8301518482035f8601526118008282611734565b9150506020830151848203602086015261181a8282611786565b9150508091505092915050565b5f6020820190508181035f83015261183f81846117e6565b905092915050565b5f604083015f8301518482035f8601526118618282611734565b9150506020830151848203602086015261187b8282611786565b9150508091505092915050565b5f6020820190508181035f8301526118a08184611847565b905092915050565b5f604083015f8301516118bd5f860182611361565b50602083015184820360208601526118d58282611786565b9150508091505092915050565b5f60109050919050565b5f81905092915050565b5f819050919050565b5f61190a83836118a8565b905092915050565b5f602082019050919050565b5f611928826118e2565b61193281856118ec565b935083602082028501611944856118f6565b805f5b8581101561197f578484038952815161196085826118ff565b945061196b83611912565b925060208a01995050600181019050611947565b50829750879550505050505092915050565b5f604083015f8301518482035f8601526119ab82826118a8565b915050602083015184820360208601526119c5828261191e565b9150508091505092915050565b5f6020820190508181035f8301526119ea8184611991565b905092915050565b7f4e487b71000000000000000000000000000000000000000000000000000000005f52603260045260245ffd5b5f82825260208201905092915050565b7f496e76616c6964206461746100000000000000000000000000000000000000005f82015250565b5f611a63600c83611a1f565b9150611a6e82611a2f565b602082019050919050565b5f6020820190508181035f830152611a9081611a57565b9050919050565b5f60ff82169050919050565b7f4e487b71000000000000000000000000000000000000000000000000000000005f52601160045260245ffd5b5f611ada82611a97565b9150611ae583611a97565b9250828201905060ff811115611afe57611afd611aa3565b5b92915050565b7f4e487b71000000000000000000000000000000000000000000000000000000005f52601260045260245ffd5b5f611b3b82611a97565b9150611b4683611a97565b925082611b5657611b55611b04565b5b828206905092915050565b5f611b6b82611370565b9150611b7683611370565b9250828201905080821115611b8e57611b8d611aa3565b5b92915050565b5f611b9e82611370565b9150611ba983611370565b9250828203905081811115611bc157611bc0611aa3565b5b92915050565b7f42797465733a3a20746f427974657333323a206461746120697320746f2073685f8201527f6f72742e00000000000000000000000000000000000000000000000000000000602082015250565b5f611c21602483611a1f565b9150611c2c82611bc7565b604082019050919050565b5f6020820190508181035f830152611c4e81611c15565b9050919050565b5f611c5f82611370565b91507fffffffffffffffffffffffffffffffffffffffffffffffffffffffffffffffff8203611c9157611c90611aa3565b5b600182019050919050565b5f611ca682611a97565b9150611cb183611a97565b9250828203905060ff811115611cca57611cc9611aa3565b5b92915050565b5f8160011c9050919050565b5f808291508390505b6001851115611d2557808604811115611d0157611d00611aa3565b5b6001851615611d105780820291505b8081029050611d1e85611cd0565b9450611ce5565b94509492505050565b5f82611d3d5760019050611df8565b81611d4a575f9050611df8565b8160018114611d605760028114611d6a57611d99565b6001915050611df8565b60ff841115611d7c57611d7b611aa3565b5b8360020a915084821115611d9357611d92611aa3565b5b50611df8565b5060208310610133831016604e8410600b8410161715611dce5782820a905083811115611dc957611dc8611aa3565b5b611df8565b611ddb8484846001611cdc565b92509050818404811115611df257611df1611aa3565b5b81810290505b9392505050565b5f611e0982611370565b9150611e1483611370565b9250611e417fffffffffffffffffffffffffffffffffffffffffffffffffffffffffffffffff8484611d2e565b90509291505056fea264697066735822122083be8d047667dfb62aa5a2d63c06ad86b868dfc83208585ebb0f884dfc8ace2664736f6c634300081a0033",
					"opcodes": "PUSH2 0x1E7F PUSH2 0x4D PUSH1 0xB DUP3 DUP3 DUP3 CODECOPY DUP1 MLOAD PUSH0 BYTE PUSH1 0x73 EQ PUSH1 0x41 JUMPI PUSH32 0x4E487B7100000000000000000000000000000000000000000000000000000000 PUSH0 MSTORE PUSH0 PUSH1 0x4 MSTORE PUSH1 0x24 PUSH0 REVERT JUMPDEST ADDRESS PUSH0 MSTORE PUSH1 0x73 DUP2 MSTORE8 DUP3 DUP2 RETURN INVALID PUSH20 0x0 ADDRESS EQ PUSH1 0x80 PUSH1 0x40 MSTORE PUSH1 0x4 CALLDATASIZE LT PUSH2 0x55 JUMPI PUSH0 CALLDATALOAD PUSH1 0xE0 SHR DUP1 PUSH4 0x91648AC5 EQ PUSH2 0x59 JUMPI DUP1 PUSH4 0xA948B670 EQ PUSH2 0x89 JUMPI DUP1 PUSH4 0xBA1DAF93 EQ PUSH2 0xB9 JUMPI DUP1 PUSH4 0xCBEF80F1 EQ PUSH2 0xE9 JUMPI JUMPDEST PUSH0 DUP1 REVERT JUMPDEST PUSH2 0x73 PUSH1 0x4 DUP1 CALLDATASIZE SUB DUP2 ADD SWAP1 PUSH2 0x6E SWAP2 SWAP1 PUSH2 0x130F JUMP JUMPDEST PUSH2 0x119 JUMP JUMPDEST PUSH1 0x40 MLOAD PUSH2 0x80 SWAP2 SWAP1 PUSH2 0x14F9 JUMP JUMPDEST PUSH1 0x40 MLOAD DUP1 SWAP2 SUB SWAP1 RETURN JUMPDEST PUSH2 0xA3 PUSH1 0x4 DUP1 CALLDATASIZE SUB DUP2 ADD SWAP1 PUSH2 0x9E SWAP2 SWAP1 PUSH2 0x16ED JUMP JUMPDEST PUSH2 0x2CD JUMP JUMPDEST PUSH1 0x40 MLOAD PUSH2 0xB0 SWAP2 SWAP1 PUSH2 0x1827 JUMP JUMPDEST PUSH1 0x40 MLOAD DUP1 SWAP2 SUB SWAP1 RETURN JUMPDEST PUSH2 0xD3 PUSH1 0x4 DUP1 CALLDATASIZE SUB DUP2 ADD SWAP1 PUSH2 0xCE SWAP2 SWAP1 PUSH2 0x16ED JUMP JUMPDEST PUSH2 0x482 JUMP JUMPDEST PUSH1 0x40 MLOAD PUSH2 0xE0 SWAP2 SWAP1 PUSH2 0x1888 JUMP JUMPDEST PUSH1 0x40 MLOAD DUP1 SWAP2 SUB SWAP1 RETURN JUMPDEST PUSH2 0x103 PUSH1 0x4 DUP1 CALLDATASIZE SUB DUP2 ADD SWAP1 PUSH2 0xFE SWAP2 SWAP1 PUSH2 0x16ED JUMP JUMPDEST PUSH2 0x558 JUMP JUMPDEST PUSH1 0x40 MLOAD PUSH2 0x110 SWAP2 SWAP1 PUSH2 0x19D2 JUMP JUMPDEST PUSH1 0x40 MLOAD DUP1 SWAP2 SUB SWAP1 RETURN JUMPDEST PUSH2 0x121 PUSH2 0x102B JUMP JUMPDEST PUSH2 0x129 PUSH2 0x102B JUMP JUMPDEST PUSH0 PUSH1 0x40 MLOAD DUP1 PUSH1 0x40 ADD PUSH1 0x40 MSTORE DUP1 DUP6 DUP2 MSTORE PUSH1 0x20 ADD PUSH0 DUP2 MSTORE POP SWAP1 POP PUSH2 0x180 DUP5 PUSH1 0x40 MLOAD DUP1 PUSH1 0x40 ADD PUSH1 0x40 MSTORE DUP1 PUSH1 0x20 DUP2 MSTORE PUSH1 0x20 ADD PUSH32 0x56E81F171BCC55A6FF8345E692C0F86E5B48E01B996CADC001622FB5E363B421 DUP2 MSTORE POP PUSH2 0x874 JUMP JUMPDEST ISZERO PUSH2 0x19F JUMPI PUSH1 0x1 DUP3 PUSH0 ADD SWAP1 ISZERO ISZERO SWAP1 DUP2 ISZERO ISZERO DUP2 MSTORE POP POP DUP2 SWAP3 POP POP POP PUSH2 0x2C8 JUMP JUMPDEST PUSH0 PUSH2 0x1B1 PUSH2 0x1AC DUP7 PUSH2 0x8AB JUMP JUMPDEST PUSH2 0x8D8 JUMP JUMPDEST SWAP1 POP PUSH0 DUP2 MLOAD SWAP1 POP PUSH0 DUP2 SUB PUSH2 0x1DB JUMPI PUSH1 0x1 DUP5 PUSH0 ADD SWAP1 ISZERO ISZERO SWAP1 DUP2 ISZERO ISZERO DUP2 MSTORE POP POP DUP4 SWAP5 POP POP POP POP POP PUSH2 0x2C8 JUMP JUMPDEST PUSH1 0x2 DUP2 SUB PUSH2 0x25C JUMPI PUSH0 PUSH2 0x207 DUP4 PUSH0 DUP2 MLOAD DUP2 LT PUSH2 0x1FA JUMPI PUSH2 0x1F9 PUSH2 0x19F2 JUMP JUMPDEST JUMPDEST PUSH1 0x20 MUL PUSH1 0x20 ADD ADD MLOAD PUSH2 0x9E1 JUMP JUMPDEST SWAP1 POP PUSH0 PUSH1 0x20 DUP3 ADD MLOAD PUSH1 0xF8 SHR DUP1 PUSH1 0x4 SHR SWAP2 POP POP PUSH1 0x2 DUP2 EQ DUP1 PUSH2 0x228 JUMPI POP PUSH1 0x3 DUP2 EQ JUMPDEST ISZERO PUSH2 0x243 JUMPI PUSH1 0x1 DUP7 PUSH1 0x20 ADD SWAP1 ISZERO ISZERO SWAP1 DUP2 ISZERO ISZERO DUP2 MSTORE POP POP PUSH2 0x255 JUMP JUMPDEST PUSH1 0x1 DUP7 PUSH1 0xC0 ADD SWAP1 ISZERO ISZERO SWAP1 DUP2 ISZERO ISZERO DUP2 MSTORE POP POP JUMPDEST POP POP PUSH2 0x2B6 JUMP JUMPDEST PUSH1 0x11 DUP2 SUB PUSH2 0x27A JUMPI PUSH1 0x1 DUP5 PUSH1 0xE0 ADD SWAP1 ISZERO ISZERO SWAP1 DUP2 ISZERO ISZERO DUP2 MSTORE POP POP PUSH2 0x2B5 JUMP JUMPDEST PUSH1 0x40 MLOAD PUSH32 0x8C379A000000000000000000000000000000000000000000000000000000000 DUP2 MSTORE PUSH1 0x4 ADD PUSH2 0x2AC SWAP1 PUSH2 0x1A79 JUMP JUMPDEST PUSH1 0x40 MLOAD DUP1 SWAP2 SUB SWAP1 REVERT JUMPDEST JUMPDEST DUP3 DUP5 PUSH2 0x120 ADD DUP2 SWAP1 MSTORE POP DUP4 SWAP5 POP POP POP POP POP JUMPDEST SWAP2 SWAP1 POP JUMP JUMPDEST PUSH2 0x2D5 PUSH2 0x108B JUMP JUMPDEST PUSH2 0x2DD PUSH2 0x108B JUMP JUMPDEST PUSH0 PUSH2 0x2F7 PUSH2 0x2F2 DUP6 PUSH2 0x120 ADD MLOAD PUSH0 ADD MLOAD PUSH2 0x8AB JUMP JUMPDEST PUSH2 0x8D8 JUMP JUMPDEST SWAP1 POP PUSH0 PUSH2 0x31E DUP3 PUSH1 0x1 DUP2 MLOAD DUP2 LT PUSH2 0x311 JUMPI PUSH2 0x310 PUSH2 0x19F2 JUMP JUMPDEST JUMPDEST PUSH1 0x20 MUL PUSH1 0x20 ADD ADD MLOAD PUSH2 0x9E1 JUMP JUMPDEST SWAP1 POP PUSH0 PUSH1 0x1 PUSH1 0x4 PUSH2 0x348 DUP6 PUSH0 DUP2 MLOAD DUP2 LT PUSH2 0x33B JUMPI PUSH2 0x33A PUSH2 0x19F2 JUMP JUMPDEST JUMPDEST PUSH1 0x20 MUL PUSH1 0x20 ADD ADD MLOAD PUSH2 0x9E1 JUMP JUMPDEST PUSH0 DUP2 MLOAD DUP2 LT PUSH2 0x35A JUMPI PUSH2 0x359 PUSH2 0x19F2 JUMP JUMPDEST JUMPDEST PUSH1 0x20 ADD ADD MLOAD PUSH1 0xF8 SHR PUSH1 0xF8 SHL PUSH31 0xFFFFFFFFFFFFFFFFFFFFFFFFFFFFFFFFFFFFFFFFFFFFFFFFFFFFFFFFFFFFFF NOT AND SWAP1 SHR PUSH1 0xF8 SHR AND SWAP1 POP PUSH1 0x40 MLOAD DUP1 PUSH1 0x40 ADD PUSH1 0x40 MSTORE DUP1 PUSH2 0x3E1 PUSH2 0x3C0 DUP7 PUSH0 DUP2 MLOAD DUP2 LT PUSH2 0x3B3 JUMPI PUSH2 0x3B2 PUSH2 0x19F2 JUMP JUMPDEST JUMPDEST PUSH1 0x20 MUL PUSH1 0x20 ADD ADD MLOAD PUSH2 0x9E1 JUMP JUMPDEST PUSH1 0x2 PUSH1 0x1 DUP7 PUSH2 0x3CF SWAP2 SWAP1 PUSH2 0x1AD0 JUMP JUMPDEST PUSH2 0x3D9 SWAP2 SWAP1 PUSH2 0x1B31 JUMP JUMPDEST PUSH1 0xFF AND PUSH2 0xA6E JUMP JUMPDEST DUP2 MSTORE PUSH1 0x20 ADD DUP3 PUSH1 0xFF AND DUP2 MSTORE POP DUP5 PUSH0 ADD DUP2 SWAP1 MSTORE POP PUSH1 0x40 MLOAD DUP1 PUSH1 0x80 ADD PUSH1 0x40 MSTORE DUP1 PUSH1 0x1 ISZERO ISZERO DUP2 MSTORE PUSH1 0x20 ADD PUSH2 0x411 DUP5 PUSH2 0xAB8 JUMP JUMPDEST DUP2 MSTORE PUSH1 0x20 ADD PUSH0 ISZERO ISZERO DUP2 MSTORE PUSH1 0x20 ADD PUSH0 PUSH8 0xFFFFFFFFFFFFFFFF DUP2 GT ISZERO PUSH2 0x438 JUMPI PUSH2 0x437 PUSH2 0x11EB JUMP JUMPDEST JUMPDEST PUSH1 0x40 MLOAD SWAP1 DUP1 DUP3 MSTORE DUP1 PUSH1 0x1F ADD PUSH1 0x1F NOT AND PUSH1 0x20 ADD DUP3 ADD PUSH1 0x40 MSTORE DUP1 ISZERO PUSH2 0x46A JUMPI DUP2 PUSH1 0x20 ADD PUSH1 0x1 DUP3 MUL DUP1 CALLDATASIZE DUP4 CALLDATACOPY DUP1 DUP3 ADD SWAP2 POP POP SWAP1 POP JUMPDEST POP DUP2 MSTORE POP DUP5 PUSH1 0x20 ADD DUP2 SWAP1 MSTORE POP DUP4 SWAP5 POP POP POP POP POP SWAP2 SWAP1 POP JUMP JUMPDEST PUSH2 0x48A PUSH2 0x10B1 JUMP JUMPDEST PUSH2 0x492 PUSH2 0x10B1 JUMP JUMPDEST PUSH0 PUSH2 0x4AC PUSH2 0x4A7 DUP6 PUSH2 0x120 ADD MLOAD PUSH0 ADD MLOAD PUSH2 0x8AB JUMP JUMPDEST PUSH2 0x8D8 JUMP JUMPDEST SWAP1 POP PUSH0 PUSH2 0x4D3 DUP3 PUSH1 0x1 DUP2 MLOAD DUP2 LT PUSH2 0x4C6 JUMPI PUSH2 0x4C5 PUSH2 0x19F2 JUMP JUMPDEST JUMPDEST PUSH1 0x20 MUL PUSH1 0x20 ADD ADD MLOAD PUSH2 0x9E1 JUMP JUMPDEST SWAP1 POP PUSH1 0x40 MLOAD DUP1 PUSH1 0x40 ADD PUSH1 0x40 MSTORE DUP1 PUSH2 0x50D PUSH2 0x506 DUP6 PUSH0 DUP2 MLOAD DUP2 LT PUSH2 0x4F9 JUMPI PUSH2 0x4F8 PUSH2 0x19F2 JUMP JUMPDEST JUMPDEST PUSH1 0x20 MUL PUSH1 0x20 ADD ADD MLOAD PUSH2 0x9E1 JUMP JUMPDEST PUSH1 0x1 PUSH2 0xA6E JUMP JUMPDEST DUP2 MSTORE PUSH1 0x20 ADD PUSH0 DUP2 MSTORE POP DUP4 PUSH0 ADD DUP2 SWAP1 MSTORE POP PUSH1 0x40 MLOAD DUP1 PUSH1 0x80 ADD PUSH1 0x40 MSTORE DUP1 PUSH0 ISZERO ISZERO DUP2 MSTORE PUSH1 0x20 ADD PUSH0 DUP1 SHL DUP2 MSTORE PUSH1 0x20 ADD PUSH1 0x1 ISZERO ISZERO DUP2 MSTORE PUSH1 0x20 ADD DUP3 DUP2 MSTORE POP DUP4 PUSH1 0x20 ADD DUP2 SWAP1 MSTORE POP DUP3 SWAP4 POP POP POP POP SWAP2 SWAP1 POP JUMP JUMPDEST PUSH2 0x560 PUSH2 0x10D7 JUMP JUMPDEST PUSH2 0x568 PUSH2 0x10D7 JUMP JUMPDEST PUSH0 PUSH2 0x582 PUSH2 0x57D DUP6 PUSH2 0x120 ADD MLOAD PUSH0 ADD MLOAD PUSH2 0x8AB JUMP JUMPDEST PUSH2 0x8D8 JUMP JUMPDEST SWAP1 POP PUSH2 0x58C PUSH2 0x10FD JUMP JUMPDEST PUSH0 JUMPDEST PUSH1 0x10 DUP2 LT ISZERO PUSH2 0x72F JUMPI PUSH0 PUSH2 0x5BB DUP5 DUP4 DUP2 MLOAD DUP2 LT PUSH2 0x5AE JUMPI PUSH2 0x5AD PUSH2 0x19F2 JUMP JUMPDEST JUMPDEST PUSH1 0x20 MUL PUSH1 0x20 ADD ADD MLOAD PUSH2 0x9E1 JUMP JUMPDEST SWAP1 POP PUSH1 0x20 DUP2 MLOAD EQ PUSH2 0x66F JUMPI PUSH1 0x40 MLOAD DUP1 PUSH1 0x40 ADD PUSH1 0x40 MSTORE DUP1 PUSH0 ISZERO ISZERO DUP2 MSTORE PUSH1 0x20 ADD PUSH1 0x40 MLOAD DUP1 PUSH1 0x80 ADD PUSH1 0x40 MSTORE DUP1 PUSH0 ISZERO ISZERO DUP2 MSTORE PUSH1 0x20 ADD PUSH0 DUP1 SHL DUP2 MSTORE PUSH1 0x20 ADD PUSH0 ISZERO ISZERO DUP2 MSTORE PUSH1 0x20 ADD PUSH0 PUSH8 0xFFFFFFFFFFFFFFFF DUP2 GT ISZERO PUSH2 0x616 JUMPI PUSH2 0x615 PUSH2 0x11EB JUMP JUMPDEST JUMPDEST PUSH1 0x40 MLOAD SWAP1 DUP1 DUP3 MSTORE DUP1 PUSH1 0x1F ADD PUSH1 0x1F NOT AND PUSH1 0x20 ADD DUP3 ADD PUSH1 0x40 MSTORE DUP1 ISZERO PUSH2 0x648 JUMPI DUP2 PUSH1 0x20 ADD PUSH1 0x1 DUP3 MUL DUP1 CALLDATASIZE DUP4 CALLDATACOPY DUP1 DUP3 ADD SWAP2 POP POP SWAP1 POP JUMPDEST POP DUP2 MSTORE POP DUP2 MSTORE POP DUP4 DUP4 PUSH1 0x10 DUP2 LT PUSH2 0x662 JUMPI PUSH2 0x661 PUSH2 0x19F2 JUMP JUMPDEST JUMPDEST PUSH1 0x20 MUL ADD DUP2 SWAP1 MSTORE POP PUSH2 0x721 JUMP JUMPDEST PUSH0 PUSH2 0x679 DUP3 PUSH2 0xAB8 JUMP JUMPDEST SWAP1 POP PUSH1 0x40 MLOAD DUP1 PUSH1 0x40 ADD PUSH1 0x40 MSTORE DUP1 PUSH1 0x1 ISZERO ISZERO DUP2 MSTORE PUSH1 0x20 ADD PUSH1 0x40 MLOAD DUP1 PUSH1 0x80 ADD PUSH1 0x40 MSTORE DUP1 PUSH1 0x1 ISZERO ISZERO DUP2 MSTORE PUSH1 0x20 ADD DUP5 DUP2 MSTORE PUSH1 0x20 ADD PUSH0 ISZERO ISZERO DUP2 MSTORE PUSH1 0x20 ADD PUSH0 PUSH8 0xFFFFFFFFFFFFFFFF DUP2 GT ISZERO PUSH2 0x6CB JUMPI PUSH2 0x6CA PUSH2 0x11EB JUMP JUMPDEST JUMPDEST PUSH1 0x40 MLOAD SWAP1 DUP1 DUP3 MSTORE DUP1 PUSH1 0x1F ADD PUSH1 0x1F NOT AND PUSH1 0x20 ADD DUP3 ADD PUSH1 0x40 MSTORE DUP1 ISZERO PUSH2 0x6FD JUMPI DUP2 PUSH1 0x20 ADD PUSH1 0x1 DUP3 MUL DUP1 CALLDATASIZE DUP4 CALLDATACOPY DUP1 DUP3 ADD SWAP2 POP POP SWAP1 POP JUMPDEST POP DUP2 MSTORE POP DUP2 MSTORE POP DUP5 DUP5 PUSH1 0x10 DUP2 LT PUSH2 0x717 JUMPI PUSH2 0x716 PUSH2 0x19F2 JUMP JUMPDEST JUMPDEST PUSH1 0x20 MUL ADD DUP2 SWAP1 MSTORE POP POP JUMPDEST POP DUP1 DUP1 PUSH1 0x1 ADD SWAP2 POP POP PUSH2 0x58E JUMP JUMPDEST POP PUSH2 0x75C PUSH2 0x757 DUP4 PUSH1 0x10 DUP2 MLOAD DUP2 LT PUSH2 0x74A JUMPI PUSH2 0x749 PUSH2 0x19F2 JUMP JUMPDEST JUMPDEST PUSH1 0x20 MUL PUSH1 0x20 ADD ADD MLOAD PUSH2 0x9E1 JUMP JUMPDEST PUSH2 0xB0A JUMP JUMPDEST ISZERO PUSH2 0x7F6 JUMPI PUSH1 0x40 MLOAD DUP1 PUSH1 0x40 ADD PUSH1 0x40 MSTORE DUP1 PUSH0 ISZERO ISZERO DUP2 MSTORE PUSH1 0x20 ADD PUSH1 0x40 MLOAD DUP1 PUSH1 0x80 ADD PUSH1 0x40 MSTORE DUP1 PUSH0 ISZERO ISZERO DUP2 MSTORE PUSH1 0x20 ADD PUSH0 DUP1 SHL DUP2 MSTORE PUSH1 0x20 ADD PUSH0 ISZERO ISZERO DUP2 MSTORE PUSH1 0x20 ADD PUSH0 PUSH8 0xFFFFFFFFFFFFFFFF DUP2 GT ISZERO PUSH2 0x7B1 JUMPI PUSH2 0x7B0 PUSH2 0x11EB JUMP JUMPDEST JUMPDEST PUSH1 0x40 MLOAD SWAP1 DUP1 DUP3 MSTORE DUP1 PUSH1 0x1F ADD PUSH1 0x1F NOT AND PUSH1 0x20 ADD DUP3 ADD PUSH1 0x40 MSTORE DUP1 ISZERO PUSH2 0x7E3 JUMPI DUP2 PUSH1 0x20 ADD PUSH1 0x1 DUP3 MUL DUP1 CALLDATASIZE DUP4 CALLDATACOPY DUP1 DUP3 ADD SWAP2 POP POP SWAP1 POP JUMPDEST POP DUP2 MSTORE POP DUP2 MSTORE POP DUP4 PUSH0 ADD DUP2 SWAP1 MSTORE POP PUSH2 0x860 JUMP JUMPDEST PUSH1 0x40 MLOAD DUP1 PUSH1 0x40 ADD PUSH1 0x40 MSTORE DUP1 PUSH1 0x1 ISZERO ISZERO DUP2 MSTORE PUSH1 0x20 ADD PUSH1 0x40 MLOAD DUP1 PUSH1 0x80 ADD PUSH1 0x40 MSTORE DUP1 PUSH0 ISZERO ISZERO DUP2 MSTORE PUSH1 0x20 ADD PUSH0 DUP1 SHL DUP2 MSTORE PUSH1 0x20 ADD PUSH1 0x1 ISZERO ISZERO DUP2 MSTORE PUSH1 0x20 ADD PUSH2 0x852 DUP7 PUSH1 0x10 DUP2 MLOAD DUP2 LT PUSH2 0x845 JUMPI PUSH2 0x844 PUSH2 0x19F2 JUMP JUMPDEST JUMPDEST PUSH1 0x20 MUL PUSH1 0x20 ADD ADD MLOAD PUSH2 0x9E1 JUMP JUMPDEST DUP2 MSTORE POP DUP2 MSTORE POP DUP4 PUSH0 ADD DUP2 SWAP1 MSTORE POP JUMPDEST DUP1 DUP4 PUSH1 0x20 ADD DUP2 SWAP1 MSTORE POP DUP3 SWAP4 POP POP POP POP SWAP2 SWAP1 POP JUMP JUMPDEST PUSH0 DUP2 MLOAD DUP4 MLOAD EQ PUSH2 0x886 JUMPI PUSH0 SWAP1 POP PUSH2 0x8A5 JUMP JUMPDEST PUSH0 DUP1 PUSH1 0x20 DUP6 ADD SWAP2 POP PUSH1 0x20 DUP5 ADD SWAP1 POP PUSH2 0x8A0 DUP3 DUP3 DUP8 MLOAD PUSH2 0xBB1 JUMP JUMPDEST SWAP3 POP POP POP JUMPDEST SWAP3 SWAP2 POP POP JUMP JUMPDEST PUSH2 0x8B3 PUSH2 0x112B JUMP JUMPDEST PUSH0 PUSH1 0x20 DUP4 ADD SWAP1 POP PUSH1 0x40 MLOAD DUP1 PUSH1 0x40 ADD PUSH1 0x40 MSTORE DUP1 DUP5 MLOAD DUP2 MSTORE PUSH1 0x20 ADD DUP3 DUP2 MSTORE POP SWAP2 POP POP SWAP2 SWAP1 POP JUMP JUMPDEST PUSH1 0x60 PUSH2 0x8E3 DUP3 PUSH2 0xBC2 JUMP JUMPDEST PUSH2 0x8EB JUMPI PUSH0 DUP1 REVERT JUMPDEST PUSH0 PUSH2 0x8F5 DUP4 PUSH2 0xC09 JUMP JUMPDEST SWAP1 POP PUSH0 DUP2 PUSH8 0xFFFFFFFFFFFFFFFF DUP2 GT ISZERO PUSH2 0x912 JUMPI PUSH2 0x911 PUSH2 0x11EB JUMP JUMPDEST JUMPDEST PUSH1 0x40 MLOAD SWAP1 DUP1 DUP3 MSTORE DUP1 PUSH1 0x20 MUL PUSH1 0x20 ADD DUP3 ADD PUSH1 0x40 MSTORE DUP1 ISZERO PUSH2 0x94B JUMPI DUP2 PUSH1 0x20 ADD JUMPDEST PUSH2 0x938 PUSH2 0x112B JUMP JUMPDEST DUP2 MSTORE PUSH1 0x20 ADD SWAP1 PUSH1 0x1 SWAP1 SUB SWAP1 DUP2 PUSH2 0x930 JUMPI SWAP1 POP JUMPDEST POP SWAP1 POP PUSH0 PUSH2 0x95C DUP6 PUSH1 0x20 ADD MLOAD PUSH2 0xC90 JUMP JUMPDEST DUP6 PUSH1 0x20 ADD MLOAD PUSH2 0x96B SWAP2 SWAP1 PUSH2 0x1B61 JUMP JUMPDEST SWAP1 POP PUSH0 DUP1 PUSH0 SWAP1 POP JUMPDEST DUP5 DUP2 LT ISZERO PUSH2 0x9D4 JUMPI PUSH2 0x984 DUP4 PUSH2 0xD4C JUMP JUMPDEST SWAP2 POP PUSH1 0x40 MLOAD DUP1 PUSH1 0x40 ADD PUSH1 0x40 MSTORE DUP1 DUP4 DUP2 MSTORE PUSH1 0x20 ADD DUP5 DUP2 MSTORE POP DUP5 DUP3 DUP2 MLOAD DUP2 LT PUSH2 0x9AE JUMPI PUSH2 0x9AD PUSH2 0x19F2 JUMP JUMPDEST JUMPDEST PUSH1 0x20 MUL PUSH1 0x20 ADD ADD DUP2 SWAP1 MSTORE POP DUP2 DUP4 PUSH2 0x9C5 SWAP2 SWAP1 PUSH2 0x1B61 JUMP JUMPDEST SWAP3 POP DUP1 DUP1 PUSH1 0x1 ADD SWAP2 POP POP PUSH2 0x973 JUMP JUMPDEST POP DUP3 SWAP5 POP POP POP POP POP SWAP2 SWAP1 POP JUMP JUMPDEST PUSH1 0x60 PUSH0 DUP3 PUSH0 ADD MLOAD GT PUSH2 0x9F1 JUMPI PUSH0 DUP1 REVERT JUMPDEST PUSH0 DUP1 PUSH2 0x9FC DUP5 PUSH2 0xE25 JUMP JUMPDEST SWAP2 POP SWAP2 POP PUSH0 DUP2 PUSH8 0xFFFFFFFFFFFFFFFF DUP2 GT ISZERO PUSH2 0xA1B JUMPI PUSH2 0xA1A PUSH2 0x11EB JUMP JUMPDEST JUMPDEST PUSH1 0x40 MLOAD SWAP1 DUP1 DUP3 MSTORE DUP1 PUSH1 0x1F ADD PUSH1 0x1F NOT AND PUSH1 0x20 ADD DUP3 ADD PUSH1 0x40 MSTORE DUP1 ISZERO PUSH2 0xA4D JUMPI DUP2 PUSH1 0x20 ADD PUSH1 0x1 DUP3 MUL DUP1 CALLDATASIZE DUP4 CALLDATACOPY DUP1 DUP3 ADD SWAP2 POP POP SWAP1 POP JUMPDEST POP SWAP1 POP PUSH0 DUP2 PUSH1 0x20 ADD SWAP1 POP PUSH2 0xA62 DUP5 DUP3 DUP6 PUSH2 0xE6A JUMP JUMPDEST DUP2 SWAP5 POP POP POP POP POP SWAP2 SWAP1 POP JUMP JUMPDEST PUSH1 0x60 DUP3 MLOAD DUP3 GT ISZERO PUSH2 0xA7D JUMPI PUSH0 DUP1 REVERT JUMPDEST PUSH0 DUP3 DUP5 MLOAD PUSH2 0xA8B SWAP2 SWAP1 PUSH2 0x1B94 JUMP JUMPDEST SWAP1 POP PUSH0 PUSH2 0xA97 DUP6 PUSH2 0xF09 JUMP JUMPDEST SWAP1 POP PUSH2 0xAAE DUP5 DUP3 PUSH2 0xAA8 SWAP2 SWAP1 PUSH2 0x1B61 JUMP JUMPDEST DUP4 PUSH2 0xF15 JUMP JUMPDEST SWAP3 POP POP POP SWAP3 SWAP2 POP POP JUMP JUMPDEST PUSH0 PUSH1 0x20 DUP3 MLOAD LT ISZERO PUSH2 0xAFE JUMPI PUSH1 0x40 MLOAD PUSH32 0x8C379A000000000000000000000000000000000000000000000000000000000 DUP2 MSTORE PUSH1 0x4 ADD PUSH2 0xAF5 SWAP1 PUSH2 0x1C37 JUMP JUMPDEST PUSH1 0x40 MLOAD DUP1 SWAP2 SUB SWAP1 REVERT JUMPDEST PUSH1 0x20 DUP3 ADD MLOAD SWAP1 POP SWAP2 SWAP1 POP JUMP JUMPDEST PUSH0 DUP1 DUP3 MLOAD GT DUP1 ISZERO PUSH2 0xBAA JUMPI POP PUSH1 0xC0 PUSH1 0xF8 SHL DUP3 PUSH0 DUP2 MLOAD DUP2 LT PUSH2 0xB2E JUMPI PUSH2 0xB2D PUSH2 0x19F2 JUMP JUMPDEST JUMPDEST PUSH1 0x20 ADD ADD MLOAD PUSH1 0xF8 SHR PUSH1 0xF8 SHL PUSH31 0xFFFFFFFFFFFFFFFFFFFFFFFFFFFFFFFFFFFFFFFFFFFFFFFFFFFFFFFFFFFFFF NOT AND EQ DUP1 PUSH2 0xBA9 JUMPI POP PUSH1 0x80 PUSH1 0xF8 SHL DUP3 PUSH0 DUP2 MLOAD DUP2 LT PUSH2 0xB7A JUMPI PUSH2 0xB79 PUSH2 0x19F2 JUMP JUMPDEST JUMPDEST PUSH1 0x20 ADD ADD MLOAD PUSH1 0xF8 SHR PUSH1 0xF8 SHL PUSH31 0xFFFFFFFFFFFFFFFFFFFFFFFFFFFFFFFFFFFFFFFFFFFFFFFFFFFFFFFFFFFFFF NOT AND EQ JUMPDEST JUMPDEST SWAP1 POP SWAP2 SWAP1 POP JUMP JUMPDEST PUSH0 DUP2 DUP4 KECCAK256 DUP3 DUP6 KECCAK256 EQ SWAP1 POP SWAP4 SWAP3 POP POP POP JUMP JUMPDEST PUSH0 DUP1 DUP3 PUSH0 ADD MLOAD SUB PUSH2 0xBD5 JUMPI PUSH0 SWAP1 POP PUSH2 0xC04 JUMP JUMPDEST PUSH0 DUP1 DUP4 PUSH1 0x20 ADD MLOAD SWAP1 POP DUP1 MLOAD PUSH0 BYTE SWAP2 POP PUSH1 0xC0 PUSH1 0xFF AND DUP3 PUSH1 0xFF AND LT ISZERO PUSH2 0xBFD JUMPI PUSH0 SWAP3 POP POP POP PUSH2 0xC04 JUMP JUMPDEST PUSH1 0x1 SWAP3 POP POP POP JUMPDEST SWAP2 SWAP1 POP JUMP JUMPDEST PUSH0 DUP1 DUP3 PUSH0 ADD MLOAD SUB PUSH2 0xC1C JUMPI PUSH0 SWAP1 POP PUSH2 0xC8B JUMP JUMPDEST PUSH0 DUP1 PUSH2 0xC2B DUP5 PUSH1 0x20 ADD MLOAD PUSH2 0xC90 JUMP JUMPDEST DUP5 PUSH1 0x20 ADD MLOAD PUSH2 0xC3A SWAP2 SWAP1 PUSH2 0x1B61 JUMP JUMPDEST SWAP1 POP PUSH0 DUP5 PUSH0 ADD MLOAD DUP6 PUSH1 0x20 ADD MLOAD PUSH2 0xC50 SWAP2 SWAP1 PUSH2 0x1B61 JUMP JUMPDEST SWAP1 POP JUMPDEST DUP1 DUP3 LT ISZERO PUSH2 0xC84 JUMPI PUSH2 0xC64 DUP3 PUSH2 0xD4C JUMP JUMPDEST DUP3 PUSH2 0xC6F SWAP2 SWAP1 PUSH2 0x1B61 JUMP JUMPDEST SWAP2 POP DUP3 DUP1 PUSH2 0xC7C SWAP1 PUSH2 0x1C55 JUMP JUMPDEST SWAP4 POP POP PUSH2 0xC53 JUMP JUMPDEST DUP3 SWAP4 POP POP POP POP JUMPDEST SWAP2 SWAP1 POP JUMP JUMPDEST PUSH0 DUP1 DUP3 MLOAD PUSH0 BYTE SWAP1 POP PUSH1 0x80 PUSH1 0xFF AND DUP2 LT ISZERO PUSH2 0xCAD JUMPI PUSH0 SWAP2 POP POP PUSH2 0xD47 JUMP JUMPDEST PUSH1 0xB8 PUSH1 0xFF AND DUP2 LT DUP1 PUSH2 0xCD2 JUMPI POP PUSH1 0xC0 PUSH1 0xFF AND DUP2 LT ISZERO DUP1 ISZERO PUSH2 0xCD1 JUMPI POP PUSH1 0xF8 PUSH1 0xFF AND DUP2 LT JUMPDEST JUMPDEST ISZERO PUSH2 0xCE1 JUMPI PUSH1 0x1 SWAP2 POP POP PUSH2 0xD47 JUMP JUMPDEST PUSH1 0xC0 PUSH1 0xFF AND DUP2 LT ISZERO PUSH2 0xD1C JUMPI PUSH1 0x1 DUP1 PUSH1 0xB8 PUSH2 0xCFC SWAP2 SWAP1 PUSH2 0x1C9C JUMP JUMPDEST PUSH1 0xFF AND DUP3 PUSH2 0xD0A SWAP2 SWAP1 PUSH2 0x1B94 JUMP JUMPDEST PUSH2 0xD14 SWAP2 SWAP1 PUSH2 0x1B61 JUMP JUMPDEST SWAP2 POP POP PUSH2 0xD47 JUMP JUMPDEST PUSH1 0x1 DUP1 PUSH1 0xF8 PUSH2 0xD2B SWAP2 SWAP1 PUSH2 0x1C9C JUMP JUMPDEST PUSH1 0xFF AND DUP3 PUSH2 0xD39 SWAP2 SWAP1 PUSH2 0x1B94 JUMP JUMPDEST PUSH2 0xD43 SWAP2 SWAP1 PUSH2 0x1B61 JUMP JUMPDEST SWAP2 POP POP JUMPDEST SWAP2 SWAP1 POP JUMP JUMPDEST PUSH0 DUP1 PUSH0 DUP4 MLOAD PUSH0 BYTE SWAP1 POP PUSH1 0x80 PUSH1 0xFF AND DUP2 LT ISZERO PUSH2 0xD6A JUMPI PUSH1 0x1 SWAP2 POP PUSH2 0xE1B JUMP JUMPDEST PUSH1 0xB8 PUSH1 0xFF AND DUP2 LT ISZERO PUSH2 0xD99 JUMPI PUSH1 0x1 PUSH1 0x80 PUSH1 0xFF AND DUP3 PUSH2 0xD88 SWAP2 SWAP1 PUSH2 0x1B94 JUMP JUMPDEST PUSH2 0xD92 SWAP2 SWAP1 PUSH2 0x1B61 JUMP JUMPDEST SWAP2 POP PUSH2 0xE1A JUMP JUMPDEST PUSH1 0xC0 PUSH1 0xFF AND DUP2 LT ISZERO PUSH2 0xDC9 JUMPI PUSH1 0xB7 DUP2 SUB PUSH1 0x1 DUP6 ADD SWAP5 POP DUP1 PUSH1 0x20 SUB PUSH2 0x100 EXP DUP6 MLOAD DIV PUSH1 0x1 DUP3 ADD DUP2 ADD SWAP4 POP POP POP PUSH2 0xE19 JUMP JUMPDEST PUSH1 0xF8 PUSH1 0xFF AND DUP2 LT ISZERO PUSH2 0xDF8 JUMPI PUSH1 0x1 PUSH1 0xC0 PUSH1 0xFF AND DUP3 PUSH2 0xDE7 SWAP2 SWAP1 PUSH2 0x1B94 JUMP JUMPDEST PUSH2 0xDF1 SWAP2 SWAP1 PUSH2 0x1B61 JUMP JUMPDEST SWAP2 POP PUSH2 0xE18 JUMP JUMPDEST PUSH1 0xF7 DUP2 SUB PUSH1 0x1 DUP6 ADD SWAP5 POP DUP1 PUSH1 0x20 SUB PUSH2 0x100 EXP DUP6 MLOAD DIV PUSH1 0x1 DUP3 ADD DUP2 ADD SWAP4 POP POP POP JUMPDEST JUMPDEST JUMPDEST JUMPDEST DUP2 SWAP3 POP POP POP SWAP2 SWAP1 POP JUMP JUMPDEST PUSH0 DUP1 PUSH0 PUSH2 0xE35 DUP5 PUSH1 0x20 ADD MLOAD PUSH2 0xC90 JUMP JUMPDEST SWAP1 POP PUSH0 DUP2 DUP6 PUSH1 0x20 ADD MLOAD PUSH2 0xE48 SWAP2 SWAP1 PUSH2 0x1B61 JUMP JUMPDEST SWAP1 POP PUSH0 DUP3 DUP7 PUSH0 ADD MLOAD PUSH2 0xE5A SWAP2 SWAP1 PUSH2 0x1B94 JUMP JUMPDEST SWAP1 POP DUP2 DUP2 SWAP5 POP SWAP5 POP POP POP POP SWAP2 POP SWAP2 JUMP JUMPDEST PUSH0 DUP2 SUB ISZERO PUSH2 0xF04 JUMPI JUMPDEST PUSH1 0x20 PUSH1 0xFF AND DUP2 LT PUSH2 0xEBD JUMPI DUP3 MLOAD DUP3 MSTORE PUSH1 0x20 PUSH1 0xFF AND DUP4 PUSH2 0xE92 SWAP2 SWAP1 PUSH2 0x1B61 JUMP JUMPDEST SWAP3 POP PUSH1 0x20 PUSH1 0xFF AND DUP3 PUSH2 0xEA4 SWAP2 SWAP1 PUSH2 0x1B61 JUMP JUMPDEST SWAP2 POP PUSH1 0x20 PUSH1 0xFF AND DUP2 PUSH2 0xEB6 SWAP2 SWAP1 PUSH2 0x1B94 JUMP JUMPDEST SWAP1 POP PUSH2 0xE73 JUMP JUMPDEST PUSH0 DUP2 GT ISZERO PUSH2 0xF03 JUMPI PUSH0 PUSH1 0x1 DUP3 PUSH1 0x20 PUSH1 0xFF AND PUSH2 0xED8 SWAP2 SWAP1 PUSH2 0x1B94 JUMP JUMPDEST PUSH2 0x100 PUSH2 0xEE5 SWAP2 SWAP1 PUSH2 0x1DFF JUMP JUMPDEST PUSH2 0xEEF SWAP2 SWAP1 PUSH2 0x1B94 JUMP JUMPDEST SWAP1 POP DUP1 NOT DUP5 MLOAD AND DUP2 DUP5 MLOAD AND DUP2 DUP2 OR DUP6 MSTORE POP POP POP JUMPDEST JUMPDEST POP POP POP JUMP JUMPDEST PUSH0 PUSH1 0x20 DUP3 ADD SWAP1 POP SWAP2 SWAP1 POP JUMP JUMPDEST PUSH1 0x60 DUP2 PUSH8 0xFFFFFFFFFFFFFFFF DUP2 GT ISZERO PUSH2 0xF31 JUMPI PUSH2 0xF30 PUSH2 0x11EB JUMP JUMPDEST JUMPDEST PUSH1 0x40 MLOAD SWAP1 DUP1 DUP3 MSTORE DUP1 PUSH1 0x1F ADD PUSH1 0x1F NOT AND PUSH1 0x20 ADD DUP3 ADD PUSH1 0x40 MSTORE DUP1 ISZERO PUSH2 0xF63 JUMPI DUP2 PUSH1 0x20 ADD PUSH1 0x1 DUP3 MUL DUP1 CALLDATASIZE DUP4 CALLDATACOPY DUP1 DUP3 ADD SWAP2 POP POP SWAP1 POP JUMPDEST POP SWAP1 POP PUSH0 PUSH1 0x20 DUP3 ADD SWAP1 POP PUSH2 0xF78 DUP5 DUP3 DUP6 PUSH2 0xF7F JUMP JUMPDEST POP SWAP3 SWAP2 POP POP JUMP JUMPDEST JUMPDEST PUSH1 0x20 DUP2 LT PUSH2 0xFBE JUMPI DUP3 MLOAD DUP3 MSTORE PUSH1 0x20 DUP3 PUSH2 0xF99 SWAP2 SWAP1 PUSH2 0x1B61 JUMP JUMPDEST SWAP2 POP PUSH1 0x20 DUP4 PUSH2 0xFA8 SWAP2 SWAP1 PUSH2 0x1B61 JUMP JUMPDEST SWAP3 POP PUSH1 0x20 DUP2 PUSH2 0xFB7 SWAP2 SWAP1 PUSH2 0x1B94 JUMP JUMPDEST SWAP1 POP PUSH2 0xF80 JUMP JUMPDEST PUSH0 DUP1 DUP3 EQ PUSH2 0xFF1 JUMPI PUSH1 0x1 DUP3 PUSH1 0x20 PUSH2 0xFD5 SWAP2 SWAP1 PUSH2 0x1B94 JUMP JUMPDEST PUSH2 0x100 PUSH2 0xFE2 SWAP2 SWAP1 PUSH2 0x1DFF JUMP JUMPDEST PUSH2 0xFEC SWAP2 SWAP1 PUSH2 0x1B94 JUMP JUMPDEST PUSH2 0x1013 JUMP JUMPDEST PUSH32 0xFFFFFFFFFFFFFFFFFFFFFFFFFFFFFFFFFFFFFFFFFFFFFFFFFFFFFFFFFFFFFFFF JUMPDEST SWAP1 POP DUP1 NOT DUP5 MLOAD AND DUP2 DUP5 MLOAD AND DUP2 DUP2 OR DUP6 MSTORE POP POP POP POP POP POP JUMP JUMPDEST PUSH1 0x40 MLOAD DUP1 PUSH2 0x140 ADD PUSH1 0x40 MSTORE DUP1 PUSH0 ISZERO ISZERO DUP2 MSTORE PUSH1 0x20 ADD PUSH0 ISZERO ISZERO DUP2 MSTORE PUSH1 0x20 ADD PUSH0 ISZERO ISZERO DUP2 MSTORE PUSH1 0x20 ADD PUSH0 ISZERO ISZERO DUP2 MSTORE PUSH1 0x20 ADD PUSH0 ISZERO ISZERO DUP2 MSTORE PUSH1 0x20 ADD PUSH0 ISZERO ISZERO DUP2 MSTORE PUSH1 0x20 ADD PUSH0 ISZERO ISZERO DUP2 MSTORE PUSH1 0x20 ADD PUSH0 ISZERO ISZERO DUP2 MSTORE PUSH1 0x20 ADD PUSH0 DUP2 MSTORE PUSH1 0x20 ADD PUSH2 0x1085 PUSH2 0x1143 JUMP JUMPDEST DUP2 MSTORE POP SWAP1 JUMP JUMPDEST PUSH1 0x40 MLOAD DUP1 PUSH1 0x40 ADD PUSH1 0x40 MSTORE DUP1 PUSH2 0x109E PUSH2 0x115C JUMP JUMPDEST DUP2 MSTORE PUSH1 0x20 ADD PUSH2 0x10AB PUSH2 0x1175 JUMP JUMPDEST DUP2 MSTORE POP SWAP1 JUMP JUMPDEST PUSH1 0x40 MLOAD DUP1 PUSH1 0x40 ADD PUSH1 0x40 MSTORE DUP1 PUSH2 0x10C4 PUSH2 0x115C JUMP JUMPDEST DUP2 MSTORE PUSH1 0x20 ADD PUSH2 0x10D1 PUSH2 0x1175 JUMP JUMPDEST DUP2 MSTORE POP SWAP1 JUMP JUMPDEST PUSH1 0x40 MLOAD DUP1 PUSH1 0x40 ADD PUSH1 0x40 MSTORE DUP1 PUSH2 0x10EA PUSH2 0x11A1 JUMP JUMPDEST DUP2 MSTORE PUSH1 0x20 ADD PUSH2 0x10F7 PUSH2 0x10FD JUMP JUMPDEST DUP2 MSTORE POP SWAP1 JUMP JUMPDEST PUSH1 0x40 MLOAD DUP1 PUSH2 0x200 ADD PUSH1 0x40 MSTORE DUP1 PUSH1 0x10 SWAP1 JUMPDEST PUSH2 0x1115 PUSH2 0x11A1 JUMP JUMPDEST DUP2 MSTORE PUSH1 0x20 ADD SWAP1 PUSH1 0x1 SWAP1 SUB SWAP1 DUP2 PUSH2 0x110D JUMPI SWAP1 POP POP SWAP1 JUMP JUMPDEST PUSH1 0x40 MLOAD DUP1 PUSH1 0x40 ADD PUSH1 0x40 MSTORE DUP1 PUSH0 DUP2 MSTORE PUSH1 0x20 ADD PUSH0 DUP2 MSTORE POP SWAP1 JUMP JUMPDEST PUSH1 0x40 MLOAD DUP1 PUSH1 0x40 ADD PUSH1 0x40 MSTORE DUP1 PUSH1 0x60 DUP2 MSTORE PUSH1 0x20 ADD PUSH0 DUP2 MSTORE POP SWAP1 JUMP JUMPDEST PUSH1 0x40 MLOAD DUP1 PUSH1 0x40 ADD PUSH1 0x40 MSTORE DUP1 PUSH1 0x60 DUP2 MSTORE PUSH1 0x20 ADD PUSH0 DUP2 MSTORE POP SWAP1 JUMP JUMPDEST PUSH1 0x40 MLOAD DUP1 PUSH1 0x80 ADD PUSH1 0x40 MSTORE DUP1 PUSH0 ISZERO ISZERO DUP2 MSTORE PUSH1 0x20 ADD PUSH0 DUP1 NOT AND DUP2 MSTORE PUSH1 0x20 ADD PUSH0 ISZERO ISZERO DUP2 MSTORE PUSH1 0x20 ADD PUSH1 0x60 DUP2 MSTORE POP SWAP1 JUMP JUMPDEST PUSH1 0x40 MLOAD DUP1 PUSH1 0x40 ADD PUSH1 0x40 MSTORE DUP1 PUSH0 ISZERO ISZERO DUP2 MSTORE PUSH1 0x20 ADD PUSH2 0x11BC PUSH2 0x1175 JUMP JUMPDEST DUP2 MSTORE POP SWAP1 JUMP JUMPDEST PUSH0 PUSH1 0x40 MLOAD SWAP1 POP SWAP1 JUMP JUMPDEST PUSH0 DUP1 REVERT JUMPDEST PUSH0 DUP1 REVERT JUMPDEST PUSH0 DUP1 REVERT JUMPDEST PUSH0 DUP1 REVERT JUMPDEST PUSH0 PUSH1 0x1F NOT PUSH1 0x1F DUP4 ADD AND SWAP1 POP SWAP2 SWAP1 POP JUMP JUMPDEST PUSH32 0x4E487B7100000000000000000000000000000000000000000000000000000000 PUSH0 MSTORE PUSH1 0x41 PUSH1 0x4 MSTORE PUSH1 0x24 PUSH0 REVERT JUMPDEST PUSH2 0x1221 DUP3 PUSH2 0x11DB JUMP JUMPDEST DUP2 ADD DUP2 DUP2 LT PUSH8 0xFFFFFFFFFFFFFFFF DUP3 GT OR ISZERO PUSH2 0x1240 JUMPI PUSH2 0x123F PUSH2 0x11EB JUMP JUMPDEST JUMPDEST DUP1 PUSH1 0x40 MSTORE POP POP POP JUMP JUMPDEST PUSH0 PUSH2 0x1252 PUSH2 0x11C2 JUMP JUMPDEST SWAP1 POP PUSH2 0x125E DUP3 DUP3 PUSH2 0x1218 JUMP JUMPDEST SWAP2 SWAP1 POP JUMP JUMPDEST PUSH0 PUSH8 0xFFFFFFFFFFFFFFFF DUP3 GT ISZERO PUSH2 0x127D JUMPI PUSH2 0x127C PUSH2 0x11EB JUMP JUMPDEST JUMPDEST PUSH2 0x1286 DUP3 PUSH2 0x11DB JUMP JUMPDEST SWAP1 POP PUSH1 0x20 DUP2 ADD SWAP1 POP SWAP2 SWAP1 POP JUMP JUMPDEST DUP3 DUP2 DUP4 CALLDATACOPY PUSH0 DUP4 DUP4 ADD MSTORE POP POP POP JUMP JUMPDEST PUSH0 PUSH2 0x12B3 PUSH2 0x12AE DUP5 PUSH2 0x1263 JUMP JUMPDEST PUSH2 0x1249 JUMP JUMPDEST SWAP1 POP DUP3 DUP2 MSTORE PUSH1 0x20 DUP2 ADD DUP5 DUP5 DUP5 ADD GT ISZERO PUSH2 0x12CF JUMPI PUSH2 0x12CE PUSH2 0x11D7 JUMP JUMPDEST JUMPDEST PUSH2 0x12DA DUP5 DUP3 DUP6 PUSH2 0x1293 JUMP JUMPDEST POP SWAP4 SWAP3 POP POP POP JUMP JUMPDEST PUSH0 DUP3 PUSH1 0x1F DUP4 ADD SLT PUSH2 0x12F6 JUMPI PUSH2 0x12F5 PUSH2 0x11D3 JUMP JUMPDEST JUMPDEST DUP2 CALLDATALOAD PUSH2 0x1306 DUP5 DUP3 PUSH1 0x20 DUP7 ADD PUSH2 0x12A1 JUMP JUMPDEST SWAP2 POP POP SWAP3 SWAP2 POP POP JUMP JUMPDEST PUSH0 PUSH1 0x20 DUP3 DUP5 SUB SLT ISZERO PUSH2 0x1324 JUMPI PUSH2 0x1323 PUSH2 0x11CB JUMP JUMPDEST JUMPDEST PUSH0 DUP3 ADD CALLDATALOAD PUSH8 0xFFFFFFFFFFFFFFFF DUP2 GT ISZERO PUSH2 0x1341 JUMPI PUSH2 0x1340 PUSH2 0x11CF JUMP JUMPDEST JUMPDEST PUSH2 0x134D DUP5 DUP3 DUP6 ADD PUSH2 0x12E2 JUMP JUMPDEST SWAP2 POP POP SWAP3 SWAP2 POP POP JUMP JUMPDEST PUSH0 DUP2 ISZERO ISZERO SWAP1 POP SWAP2 SWAP1 POP JUMP JUMPDEST PUSH2 0x136A DUP2 PUSH2 0x1356 JUMP JUMPDEST DUP3 MSTORE POP POP JUMP JUMPDEST PUSH0 DUP2 SWAP1 POP SWAP2 SWAP1 POP JUMP JUMPDEST PUSH2 0x1382 DUP2 PUSH2 0x1370 JUMP JUMPDEST DUP3 MSTORE POP POP JUMP JUMPDEST PUSH0 DUP2 MLOAD SWAP1 POP SWAP2 SWAP1 POP JUMP JUMPDEST PUSH0 DUP3 DUP3 MSTORE PUSH1 0x20 DUP3 ADD SWAP1 POP SWAP3 SWAP2 POP POP JUMP JUMPDEST DUP3 DUP2 DUP4 MCOPY PUSH0 DUP4 DUP4 ADD MSTORE POP POP POP JUMP JUMPDEST PUSH0 PUSH2 0x13BA DUP3 PUSH2 0x1388 JUMP JUMPDEST PUSH2 0x13C4 DUP2 DUP6 PUSH2 0x1392 JUMP JUMPDEST SWAP4 POP PUSH2 0x13D4 DUP2 DUP6 PUSH1 0x20 DUP7 ADD PUSH2 0x13A2 JUMP JUMPDEST PUSH2 0x13DD DUP2 PUSH2 0x11DB JUMP JUMPDEST DUP5 ADD SWAP2 POP POP SWAP3 SWAP2 POP POP JUMP JUMPDEST PUSH0 PUSH1 0x40 DUP4 ADD PUSH0 DUP4 ADD MLOAD DUP5 DUP3 SUB PUSH0 DUP7 ADD MSTORE PUSH2 0x1402 DUP3 DUP3 PUSH2 0x13B0 JUMP JUMPDEST SWAP2 POP POP PUSH1 0x20 DUP4 ADD MLOAD PUSH2 0x1417 PUSH1 0x20 DUP7 ADD DUP3 PUSH2 0x1379 JUMP JUMPDEST POP DUP1 SWAP2 POP POP SWAP3 SWAP2 POP POP JUMP JUMPDEST PUSH0 PUSH2 0x140 DUP4 ADD PUSH0 DUP4 ADD MLOAD PUSH2 0x1438 PUSH0 DUP7 ADD DUP3 PUSH2 0x1361 JUMP JUMPDEST POP PUSH1 0x20 DUP4 ADD MLOAD PUSH2 0x144B PUSH1 0x20 DUP7 ADD DUP3 PUSH2 0x1361 JUMP JUMPDEST POP PUSH1 0x40 DUP4 ADD MLOAD PUSH2 0x145E PUSH1 0x40 DUP7 ADD DUP3 PUSH2 0x1361 JUMP JUMPDEST POP PUSH1 0x60 DUP4 ADD MLOAD PUSH2 0x1471 PUSH1 0x60 DUP7 ADD DUP3 PUSH2 0x1361 JUMP JUMPDEST POP PUSH1 0x80 DUP4 ADD MLOAD PUSH2 0x1484 PUSH1 0x80 DUP7 ADD DUP3 PUSH2 0x1361 JUMP JUMPDEST POP PUSH1 0xA0 DUP4 ADD MLOAD PUSH2 0x1497 PUSH1 0xA0 DUP7 ADD DUP3 PUSH2 0x1361 JUMP JUMPDEST POP PUSH1 0xC0 DUP4 ADD MLOAD PUSH2 0x14AA PUSH1 0xC0 DUP7 ADD DUP3 PUSH2 0x1361 JUMP JUMPDEST POP PUSH1 0xE0 DUP4 ADD MLOAD PUSH2 0x14BD PUSH1 0xE0 DUP7 ADD DUP3 PUSH2 0x1361 JUMP JUMPDEST POP PUSH2 0x100 DUP4 ADD MLOAD PUSH2 0x14D2 PUSH2 0x100 DUP7 ADD DUP3 PUSH2 0x1379 JUMP JUMPDEST POP PUSH2 0x120 DUP4 ADD MLOAD DUP5 DUP3 SUB PUSH2 0x120 DUP7 ADD MSTORE PUSH2 0x14EC DUP3 DUP3 PUSH2 0x13E8 JUMP JUMPDEST SWAP2 POP POP DUP1 SWAP2 POP POP SWAP3 SWAP2 POP POP JUMP JUMPDEST PUSH0 PUSH1 0x20 DUP3 ADD SWAP1 POP DUP2 DUP2 SUB PUSH0 DUP4 ADD MSTORE PUSH2 0x1511 DUP2 DUP5 PUSH2 0x1422 JUMP JUMPDEST SWAP1 POP SWAP3 SWAP2 POP POP JUMP JUMPDEST PUSH0 DUP1 REVERT JUMPDEST PUSH0 DUP1 REVERT JUMPDEST PUSH2 0x152A DUP2 PUSH2 0x1356 JUMP JUMPDEST DUP2 EQ PUSH2 0x1534 JUMPI PUSH0 DUP1 REVERT JUMPDEST POP JUMP JUMPDEST PUSH0 DUP2 CALLDATALOAD SWAP1 POP PUSH2 0x1545 DUP2 PUSH2 0x1521 JUMP JUMPDEST SWAP3 SWAP2 POP POP JUMP JUMPDEST PUSH2 0x1554 DUP2 PUSH2 0x1370 JUMP JUMPDEST DUP2 EQ PUSH2 0x155E JUMPI PUSH0 DUP1 REVERT JUMPDEST POP JUMP JUMPDEST PUSH0 DUP2 CALLDATALOAD SWAP1 POP PUSH2 0x156F DUP2 PUSH2 0x154B JUMP JUMPDEST SWAP3 SWAP2 POP POP JUMP JUMPDEST PUSH0 PUSH1 0x40 DUP3 DUP5 SUB SLT ISZERO PUSH2 0x158A JUMPI PUSH2 0x1589 PUSH2 0x1519 JUMP JUMPDEST JUMPDEST PUSH2 0x1594 PUSH1 0x40 PUSH2 0x1249 JUMP JUMPDEST SWAP1 POP PUSH0 DUP3 ADD CALLDATALOAD PUSH8 0xFFFFFFFFFFFFFFFF DUP2 GT ISZERO PUSH2 0x15B3 JUMPI PUSH2 0x15B2 PUSH2 0x151D JUMP JUMPDEST JUMPDEST PUSH2 0x15BF DUP5 DUP3 DUP6 ADD PUSH2 0x12E2 JUMP JUMPDEST PUSH0 DUP4 ADD MSTORE POP PUSH1 0x20 PUSH2 0x15D2 DUP5 DUP3 DUP6 ADD PUSH2 0x1561 JUMP JUMPDEST PUSH1 0x20 DUP4 ADD MSTORE POP SWAP3 SWAP2 POP POP JUMP JUMPDEST PUSH0 PUSH2 0x140 DUP3 DUP5 SUB SLT ISZERO PUSH2 0x15F4 JUMPI PUSH2 0x15F3 PUSH2 0x1519 JUMP JUMPDEST JUMPDEST PUSH2 0x15FF PUSH2 0x140 PUSH2 0x1249 JUMP JUMPDEST SWAP1 POP PUSH0 PUSH2 0x160E DUP5 DUP3 DUP6 ADD PUSH2 0x1537 JUMP JUMPDEST PUSH0 DUP4 ADD MSTORE POP PUSH1 0x20 PUSH2 0x1621 DUP5 DUP3 DUP6 ADD PUSH2 0x1537 JUMP JUMPDEST PUSH1 0x20 DUP4 ADD MSTORE POP PUSH1 0x40 PUSH2 0x1635 DUP5 DUP3 DUP6 ADD PUSH2 0x1537 JUMP JUMPDEST PUSH1 0x40 DUP4 ADD MSTORE POP PUSH1 0x60 PUSH2 0x1649 DUP5 DUP3 DUP6 ADD PUSH2 0x1537 JUMP JUMPDEST PUSH1 0x60 DUP4 ADD MSTORE POP PUSH1 0x80 PUSH2 0x165D DUP5 DUP3 DUP6 ADD PUSH2 0x1537 JUMP JUMPDEST PUSH1 0x80 DUP4 ADD MSTORE POP PUSH1 0xA0 PUSH2 0x1671 DUP5 DUP3 DUP6 ADD PUSH2 0x1537 JUMP JUMPDEST PUSH1 0xA0 DUP4 ADD MSTORE POP PUSH1 0xC0 PUSH2 0x1685 DUP5 DUP3 DUP6 ADD PUSH2 0x1537 JUMP JUMPDEST PUSH1 0xC0 DUP4 ADD MSTORE POP PUSH1 0xE0 PUSH2 0x1699 DUP5 DUP3 DUP6 ADD PUSH2 0x1537 JUMP JUMPDEST PUSH1 0xE0 DUP4 ADD MSTORE POP PUSH2 0x100 PUSH2 0x16AE DUP5 DUP3 DUP6 ADD PUSH2 0x1561 JUMP JUMPDEST PUSH2 0x100 DUP4 ADD MSTORE POP PUSH2 0x120 DUP3 ADD CALLDATALOAD PUSH8 0xFFFFFFFFFFFFFFFF DUP2 GT ISZERO PUSH2 0x16D4 JUMPI PUSH2 0x16D3 PUSH2 0x151D JUMP JUMPDEST JUMPDEST PUSH2 0x16E0 DUP5 DUP3 DUP6 ADD PUSH2 0x1575 JUMP JUMPDEST PUSH2 0x120 DUP4 ADD MSTORE POP SWAP3 SWAP2 POP POP JUMP JUMPDEST PUSH0 PUSH1 0x20 DUP3 DUP5 SUB SLT ISZERO PUSH2 0x1702 JUMPI PUSH2 0x1701 PUSH2 0x11CB JUMP JUMPDEST JUMPDEST PUSH0 DUP3 ADD CALLDATALOAD PUSH8 0xFFFFFFFFFFFFFFFF DUP2 GT ISZERO PUSH2 0x171F JUMPI PUSH2 0x171E PUSH2 0x11CF JUMP JUMPDEST JUMPDEST PUSH2 0x172B DUP5 DUP3 DUP6 ADD PUSH2 0x15DE JUMP JUMPDEST SWAP2 POP POP SWAP3 SWAP2 POP POP JUMP JUMPDEST PUSH0 PUSH1 0x40 DUP4 ADD PUSH0 DUP4 ADD MLOAD DUP5 DUP3 SUB PUSH0 DUP7 ADD MSTORE PUSH2 0x174E DUP3 DUP3 PUSH2 0x13B0 JUMP JUMPDEST SWAP2 POP POP PUSH1 0x20 DUP4 ADD MLOAD PUSH2 0x1763 PUSH1 0x20 DUP7 ADD DUP3 PUSH2 0x1379 JUMP JUMPDEST POP DUP1 SWAP2 POP POP SWAP3 SWAP2 POP POP JUMP JUMPDEST PUSH0 DUP2 SWAP1 POP SWAP2 SWAP1 POP JUMP JUMPDEST PUSH2 0x1780 DUP2 PUSH2 0x176E JUMP JUMPDEST DUP3 MSTORE POP POP JUMP JUMPDEST PUSH0 PUSH1 0x80 DUP4 ADD PUSH0 DUP4 ADD MLOAD PUSH2 0x179B PUSH0 DUP7 ADD DUP3 PUSH2 0x1361 JUMP JUMPDEST POP PUSH1 0x20 DUP4 ADD MLOAD PUSH2 0x17AE PUSH1 0x20 DUP7 ADD DUP3 PUSH2 0x1777 JUMP JUMPDEST POP PUSH1 0x40 DUP4 ADD MLOAD PUSH2 0x17C1 PUSH1 0x40 DUP7 ADD DUP3 PUSH2 0x1361 JUMP JUMPDEST POP PUSH1 0x60 DUP4 ADD MLOAD DUP5 DUP3 SUB PUSH1 0x60 DUP7 ADD MSTORE PUSH2 0x17D9 DUP3 DUP3 PUSH2 0x13B0 JUMP JUMPDEST SWAP2 POP POP DUP1 SWAP2 POP POP SWAP3 SWAP2 POP POP JUMP JUMPDEST PUSH0 PUSH1 0x40 DUP4 ADD PUSH0 DUP4 ADD MLOAD DUP5 DUP3 SUB PUSH0 DUP7 ADD MSTORE PUSH2 0x1800 DUP3 DUP3 PUSH2 0x1734 JUMP JUMPDEST SWAP2 POP POP PUSH1 0x20 DUP4 ADD MLOAD DUP5 DUP3 SUB PUSH1 0x20 DUP7 ADD MSTORE PUSH2 0x181A DUP3 DUP3 PUSH2 0x1786 JUMP JUMPDEST SWAP2 POP POP DUP1 SWAP2 POP POP SWAP3 SWAP2 POP POP JUMP JUMPDEST PUSH0 PUSH1 0x20 DUP3 ADD SWAP1 POP DUP2 DUP2 SUB PUSH0 DUP4 ADD MSTORE PUSH2 0x183F DUP2 DUP5 PUSH2 0x17E6 JUMP JUMPDEST SWAP1 POP SWAP3 SWAP2 POP POP JUMP JUMPDEST PUSH0 PUSH1 0x40 DUP4 ADD PUSH0 DUP4 ADD MLOAD DUP5 DUP3 SUB PUSH0 DUP7 ADD MSTORE PUSH2 0x1861 DUP3 DUP3 PUSH2 0x1734 JUMP JUMPDEST SWAP2 POP POP PUSH1 0x20 DUP4 ADD MLOAD DUP5 DUP3 SUB PUSH1 0x20 DUP7 ADD MSTORE PUSH2 0x187B DUP3 DUP3 PUSH2 0x1786 JUMP JUMPDEST SWAP2 POP POP DUP1 SWAP2 POP POP SWAP3 SWAP2 POP POP JUMP JUMPDEST PUSH0 PUSH1 0x20 DUP3 ADD SWAP1 POP DUP2 DUP2 SUB PUSH0 DUP4 ADD MSTORE PUSH2 0x18A0 DUP2 DUP5 PUSH2 0x1847 JUMP JUMPDEST SWAP1 POP SWAP3 SWAP2 POP POP JUMP JUMPDEST PUSH0 PUSH1 0x40 DUP4 ADD PUSH0 DUP4 ADD MLOAD PUSH2 0x18BD PUSH0 DUP7 ADD DUP3 PUSH2 0x1361 JUMP JUMPDEST POP PUSH1 0x20 DUP4 ADD MLOAD DUP5 DUP3 SUB PUSH1 0x20 DUP7 ADD MSTORE PUSH2 0x18D5 DUP3 DUP3 PUSH2 0x1786 JUMP JUMPDEST SWAP2 POP POP DUP1 SWAP2 POP POP SWAP3 SWAP2 POP POP JUMP JUMPDEST PUSH0 PUSH1 0x10 SWAP1 POP SWAP2 SWAP1 POP JUMP JUMPDEST PUSH0 DUP2 SWAP1 POP SWAP3 SWAP2 POP POP JUMP JUMPDEST PUSH0 DUP2 SWAP1 POP SWAP2 SWAP1 POP JUMP JUMPDEST PUSH0 PUSH2 0x190A DUP4 DUP4 PUSH2 0x18A8 JUMP JUMPDEST SWAP1 POP SWAP3 SWAP2 POP POP JUMP JUMPDEST PUSH0 PUSH1 0x20 DUP3 ADD SWAP1 POP SWAP2 SWAP1 POP JUMP JUMPDEST PUSH0 PUSH2 0x1928 DUP3 PUSH2 0x18E2 JUMP JUMPDEST PUSH2 0x1932 DUP2 DUP6 PUSH2 0x18EC JUMP JUMPDEST SWAP4 POP DUP4 PUSH1 0x20 DUP3 MUL DUP6 ADD PUSH2 0x1944 DUP6 PUSH2 0x18F6 JUMP JUMPDEST DUP1 PUSH0 JUMPDEST DUP6 DUP2 LT ISZERO PUSH2 0x197F JUMPI DUP5 DUP5 SUB DUP10 MSTORE DUP2 MLOAD PUSH2 0x1960 DUP6 DUP3 PUSH2 0x18FF JUMP JUMPDEST SWAP5 POP PUSH2 0x196B DUP4 PUSH2 0x1912 JUMP JUMPDEST SWAP3 POP PUSH1 0x20 DUP11 ADD SWAP10 POP POP PUSH1 0x1 DUP2 ADD SWAP1 POP PUSH2 0x1947 JUMP JUMPDEST POP DUP3 SWAP8 POP DUP8 SWAP6 POP POP POP POP POP POP SWAP3 SWAP2 POP POP JUMP JUMPDEST PUSH0 PUSH1 0x40 DUP4 ADD PUSH0 DUP4 ADD MLOAD DUP5 DUP3 SUB PUSH0 DUP7 ADD MSTORE PUSH2 0x19AB DUP3 DUP3 PUSH2 0x18A8 JUMP JUMPDEST SWAP2 POP POP PUSH1 0x20 DUP4 ADD MLOAD DUP5 DUP3 SUB PUSH1 0x20 DUP7 ADD MSTORE PUSH2 0x19C5 DUP3 DUP3 PUSH2 0x191E JUMP JUMPDEST SWAP2 POP POP DUP1 SWAP2 POP POP SWAP3 SWAP2 POP POP JUMP JUMPDEST PUSH0 PUSH1 0x20 DUP3 ADD SWAP1 POP DUP2 DUP2 SUB PUSH0 DUP4 ADD MSTORE PUSH2 0x19EA DUP2 DUP5 PUSH2 0x1991 JUMP JUMPDEST SWAP1 POP SWAP3 SWAP2 POP POP JUMP JUMPDEST PUSH32 0x4E487B7100000000000000000000000000000000000000000000000000000000 PUSH0 MSTORE PUSH1 0x32 PUSH1 0x4 MSTORE PUSH1 0x24 PUSH0 REVERT JUMPDEST PUSH0 DUP3 DUP3 MSTORE PUSH1 0x20 DUP3 ADD SWAP1 POP SWAP3 SWAP2 POP POP JUMP JUMPDEST PUSH32 0x496E76616C696420646174610000000000000000000000000000000000000000 PUSH0 DUP3 ADD MSTORE POP JUMP JUMPDEST PUSH0 PUSH2 0x1A63 PUSH1 0xC DUP4 PUSH2 0x1A1F JUMP JUMPDEST SWAP2 POP PUSH2 0x1A6E DUP3 PUSH2 0x1A2F JUMP JUMPDEST PUSH1 0x20 DUP3 ADD SWAP1 POP SWAP2 SWAP1 POP JUMP JUMPDEST PUSH0 PUSH1 0x20 DUP3 ADD SWAP1 POP DUP2 DUP2 SUB PUSH0 DUP4 ADD MSTORE PUSH2 0x1A90 DUP2 PUSH2 0x1A57 JUMP JUMPDEST SWAP1 POP SWAP2 SWAP1 POP JUMP JUMPDEST PUSH0 PUSH1 0xFF DUP3 AND SWAP1 POP SWAP2 SWAP1 POP JUMP JUMPDEST PUSH32 0x4E487B7100000000000000000000000000000000000000000000000000000000 PUSH0 MSTORE PUSH1 0x11 PUSH1 0x4 MSTORE PUSH1 0x24 PUSH0 REVERT JUMPDEST PUSH0 PUSH2 0x1ADA DUP3 PUSH2 0x1A97 JUMP JUMPDEST SWAP2 POP PUSH2 0x1AE5 DUP4 PUSH2 0x1A97 JUMP JUMPDEST SWAP3 POP DUP3 DUP3 ADD SWAP1 POP PUSH1 0xFF DUP2 GT ISZERO PUSH2 0x1AFE JUMPI PUSH2 0x1AFD PUSH2 0x1AA3 JUMP JUMPDEST JUMPDEST SWAP3 SWAP2 POP POP JUMP JUMPDEST PUSH32 0x4E487B7100000000000000000000000000000000000000000000000000000000 PUSH0 MSTORE PUSH1 0x12 PUSH1 0x4 MSTORE PUSH1 0x24 PUSH0 REVERT JUMPDEST PUSH0 PUSH2 0x1B3B DUP3 PUSH2 0x1A97 JUMP JUMPDEST SWAP2 POP PUSH2 0x1B46 DUP4 PUSH2 0x1A97 JUMP JUMPDEST SWAP3 POP DUP3 PUSH2 0x1B56 JUMPI PUSH2 0x1B55 PUSH2 0x1B04 JUMP JUMPDEST JUMPDEST DUP3 DUP3 MOD SWAP1 POP SWAP3 SWAP2 POP POP JUMP JUMPDEST PUSH0 PUSH2 0x1B6B DUP3 PUSH2 0x1370 JUMP JUMPDEST SWAP2 POP PUSH2 0x1B76 DUP4 PUSH2 0x1370 JUMP JUMPDEST SWAP3 POP DUP3 DUP3 ADD SWAP1 POP DUP1 DUP3 GT ISZERO PUSH2 0x1B8E JUMPI PUSH2 0x1B8D PUSH2 0x1AA3 JUMP JUMPDEST JUMPDEST SWAP3 SWAP2 POP POP JUMP JUMPDEST PUSH0 PUSH2 0x1B9E DUP3 PUSH2 0x1370 JUMP JUMPDEST SWAP2 POP PUSH2 0x1BA9 DUP4 PUSH2 0x1370 JUMP JUMPDEST SWAP3 POP DUP3 DUP3 SUB SWAP1 POP DUP2 DUP2 GT ISZERO PUSH2 0x1BC1 JUMPI PUSH2 0x1BC0 PUSH2 0x1AA3 JUMP JUMPDEST JUMPDEST SWAP3 SWAP2 POP POP JUMP JUMPDEST PUSH32 0x42797465733A3A20746F427974657333323A206461746120697320746F207368 PUSH0 DUP3 ADD MSTORE PUSH32 0x6F72742E00000000000000000000000000000000000000000000000000000000 PUSH1 0x20 DUP3 ADD MSTORE POP JUMP JUMPDEST PUSH0 PUSH2 0x1C21 PUSH1 0x24 DUP4 PUSH2 0x1A1F JUMP JUMPDEST SWAP2 POP PUSH2 0x1C2C DUP3 PUSH2 0x1BC7 JUMP JUMPDEST PUSH1 0x40 DUP3 ADD SWAP1 POP SWAP2 SWAP1 POP JUMP JUMPDEST PUSH0 PUSH1 0x20 DUP3 ADD SWAP1 POP DUP2 DUP2 SUB PUSH0 DUP4 ADD MSTORE PUSH2 0x1C4E DUP2 PUSH2 0x1C15 JUMP JUMPDEST SWAP1 POP SWAP2 SWAP1 POP JUMP JUMPDEST PUSH0 PUSH2 0x1C5F DUP3 PUSH2 0x1370 JUMP JUMPDEST SWAP2 POP PUSH32 0xFFFFFFFFFFFFFFFFFFFFFFFFFFFFFFFFFFFFFFFFFFFFFFFFFFFFFFFFFFFFFFFF DUP3 SUB PUSH2 0x1C91 JUMPI PUSH2 0x1C90 PUSH2 0x1AA3 JUMP JUMPDEST JUMPDEST PUSH1 0x1 DUP3 ADD SWAP1 POP SWAP2 SWAP1 POP JUMP JUMPDEST PUSH0 PUSH2 0x1CA6 DUP3 PUSH2 0x1A97 JUMP JUMPDEST SWAP2 POP PUSH2 0x1CB1 DUP4 PUSH2 0x1A97 JUMP JUMPDEST SWAP3 POP DUP3 DUP3 SUB SWAP1 POP PUSH1 0xFF DUP2 GT ISZERO PUSH2 0x1CCA JUMPI PUSH2 0x1CC9 PUSH2 0x1AA3 JUMP JUMPDEST JUMPDEST SWAP3 SWAP2 POP POP JUMP JUMPDEST PUSH0 DUP2 PUSH1 0x1 SHR SWAP1 POP SWAP2 SWAP1 POP JUMP JUMPDEST PUSH0 DUP1 DUP3 SWAP2 POP DUP4 SWAP1 POP JUMPDEST PUSH1 0x1 DUP6 GT ISZERO PUSH2 0x1D25 JUMPI DUP1 DUP7 DIV DUP2 GT ISZERO PUSH2 0x1D01 JUMPI PUSH2 0x1D00 PUSH2 0x1AA3 JUMP JUMPDEST JUMPDEST PUSH1 0x1 DUP6 AND ISZERO PUSH2 0x1D10 JUMPI DUP1 DUP3 MUL SWAP2 POP JUMPDEST DUP1 DUP2 MUL SWAP1 POP PUSH2 0x1D1E DUP6 PUSH2 0x1CD0 JUMP JUMPDEST SWAP5 POP PUSH2 0x1CE5 JUMP JUMPDEST SWAP5 POP SWAP5 SWAP3 POP POP POP JUMP JUMPDEST PUSH0 DUP3 PUSH2 0x1D3D JUMPI PUSH1 0x1 SWAP1 POP PUSH2 0x1DF8 JUMP JUMPDEST DUP2 PUSH2 0x1D4A JUMPI PUSH0 SWAP1 POP PUSH2 0x1DF8 JUMP JUMPDEST DUP2 PUSH1 0x1 DUP2 EQ PUSH2 0x1D60 JUMPI PUSH1 0x2 DUP2 EQ PUSH2 0x1D6A JUMPI PUSH2 0x1D99 JUMP JUMPDEST PUSH1 0x1 SWAP2 POP POP PUSH2 0x1DF8 JUMP JUMPDEST PUSH1 0xFF DUP5 GT ISZERO PUSH2 0x1D7C JUMPI PUSH2 0x1D7B PUSH2 0x1AA3 JUMP JUMPDEST JUMPDEST DUP4 PUSH1 0x2 EXP SWAP2 POP DUP5 DUP3 GT ISZERO PUSH2 0x1D93 JUMPI PUSH2 0x1D92 PUSH2 0x1AA3 JUMP JUMPDEST JUMPDEST POP PUSH2 0x1DF8 JUMP JUMPDEST POP PUSH1 0x20 DUP4 LT PUSH2 0x133 DUP4 LT AND PUSH1 0x4E DUP5 LT PUSH1 0xB DUP5 LT AND OR ISZERO PUSH2 0x1DCE JUMPI DUP3 DUP3 EXP SWAP1 POP DUP4 DUP2 GT ISZERO PUSH2 0x1DC9 JUMPI PUSH2 0x1DC8 PUSH2 0x1AA3 JUMP JUMPDEST JUMPDEST PUSH2 0x1DF8 JUMP JUMPDEST PUSH2 0x1DDB DUP5 DUP5 DUP5 PUSH1 0x1 PUSH2 0x1CDC JUMP JUMPDEST SWAP3 POP SWAP1 POP DUP2 DUP5 DIV DUP2 GT ISZERO PUSH2 0x1DF2 JUMPI PUSH2 0x1DF1 PUSH2 0x1AA3 JUMP JUMPDEST JUMPDEST DUP2 DUP2 MUL SWAP1 POP JUMPDEST SWAP4 SWAP3 POP POP POP JUMP JUMPDEST PUSH0 PUSH2 0x1E09 DUP3 PUSH2 0x1370 JUMP JUMPDEST SWAP2 POP PUSH2 0x1E14 DUP4 PUSH2 0x1370 JUMP JUMPDEST SWAP3 POP PUSH2 0x1E41 PUSH32 0xFFFFFFFFFFFFFFFFFFFFFFFFFFFFFFFFFFFFFFFFFFFFFFFFFFFFFFFFFFFFFFFF DUP5 DUP5 PUSH2 0x1D2E JUMP JUMPDEST SWAP1 POP SWAP3 SWAP2 POP POP JUMP INVALID LOG2 PUSH5 0x6970667358 0x22 SLT KECCAK256 DUP4 0xBE DUP14 DIV PUSH23 0x67DFB62AA5A2D63C06AD86B868DFC83208585EBB0F884D 0xFC DUP11 0xCE 0x26 PUSH5 0x736F6C6343 STOP ADDMOD BYTE STOP CALLER "
				},
				"gasEstimates": {
					"creation": {
						"codeDepositCost": "1561400",
						"executionCost": "1658",
						"totalCost": "1563058"
					},
					"external": {
						"decodeBranch(NodeKind)": "infinite",
						"decodeExtension(NodeKind)": "infinite",
						"decodeLeaf(NodeKind)": "infinite",
						"decodeNodeKind(bytes)": "infinite"
					},
					"internal": {
						"isEmpty(bytes memory)": "infinite"
					}
				},
				"methodIdentifiers": {
					"decodeBranch(NodeKind)": "cbef80f1",
					"decodeExtension(NodeKind)": "a948b670",
					"decodeLeaf(NodeKind)": "ba1daf93",
					"decodeNodeKind(bytes)": "91648ac5"
				}
			},
			"storageLayout": {
				"storage": [],
				"types": null
			},
			"userdoc": {
				"kind": "user",
				"methods": {},
				"version": 1
			}
		}
	}
}