{
	"data": {
		"bytecode": {
			"linkReferences": {},
			"object": "608060405234801561000f575f80fd5b50611bc18061001d5f395ff3fe608060405234801561000f575f80fd5b5060043610610135575f3560e01c806374c4c494116100b6578063d03ca5a31161007a578063d03ca5a31461040f578063dd208ea11461042b578063e7617bf81461045b578063e79fbcec14610495578063eb4eb372146104c5578063f29cddc0146104f557610135565b806374c4c4941461031f57806376193f8c1461034f5780638109672f1461037f5780638529d576146103af578063aac19545146103df57610135565b80632d888869116100fd5780632d8888691461022c57806333c82d181461025c57806339614e4f1461028c57806345fce4f9146102bc57806364ea1929146102ee57610135565b806304ba342714610139578063059a97fb1461016957806315943cb61461019b57806319921bd0146101cc57806320f91849146101fc575b5f80fd5b610153600480360381019061014e919061152a565b610525565b604051610160919061158b565b60405180910390f35b610183600480360381019061017e919061152a565b610543565b604051610192939291906115fb565b60405180910390f35b6101b560048036038101906101b0919061152a565b6105d3565b6040516101c3929190611630565b60405180910390f35b6101e660048036038101906101e1919061152a565b61065f565b6040516101f3919061158b565b60405180910390f35b6102166004803603810190610211919061152a565b61067d565b6040516102239190611657565b60405180910390f35b6102466004803603810190610241919061152a565b61069b565b6040516102539190611670565b60405180910390f35b6102766004803603810190610271919061152a565b6106b9565b6040516102839190611703565b60405180910390f35b6102a660048036038101906102a1919061152a565b6106d8565b6040516102b39190611775565b60405180910390f35b6102d660048036038101906102d1919061152a565b6106f7565b6040516102e593929190611795565b60405180910390f35b6103086004803603810190610303919061152a565b61072c565b6040516103169291906117e2565b60405180910390f35b6103396004803603810190610334919061152a565b6107b8565b6040516103469190611703565b60405180910390f35b6103696004803603810190610364919061152a565b6107f9565b6040516103769190611775565b60405180910390f35b6103996004803603810190610394919061152a565b610866565b6040516103a69190611657565b60405180910390f35b6103c960048036038101906103c4919061152a565b61087f565b6040516103d69190611657565b60405180910390f35b6103f960048036038101906103f4919061152a565b61089d565b6040516104069190611657565b60405180910390f35b6104296004803603810190610424919061152a565b6108bb565b005b6104456004803603810190610440919061152a565b6108d0565b6040516104529190611657565b60405180910390f35b6104756004803603810190610470919061152a565b6108ef565b60405161048c9b9a99989796959493929190611809565b60405180910390f35b6104af60048036038101906104aa919061152a565b610ac0565b6040516104bc9190611703565b60405180910390f35b6104df60048036038101906104da919061152a565b610adf565b6040516104ec91906118b2565b60405180910390f35b61050f600480360381019061050a919061152a565b610afd565b60405161051c91906118b2565b60405180910390f35b5f8061053083610b1b565b905061053b81610b48565b915050919050565b5f805f8061055861055386610b1b565b610b93565b905061057d815f815181106105705761056f6118cb565b5b6020026020010151610c9c565b6105a182600181518110610594576105936118cb565b5b6020026020010151610b48565b6105c5836002815181106105b8576105b76118cb565b5b6020026020010151610cbc565b935093509350509193909250565b5f805f6105e76105e285610b1b565b610b93565b905061060c815f815181106105ff576105fe6118cb565b5b6020026020010151610b93565b9050610631815f81518110610624576106236118cb565b5b6020026020010151610c9c565b61065582600181518110610648576106476118cb565b5b6020026020010151610cbc565b9250925050915091565b5f8061066a83610b1b565b905061067581610d10565b915050919050565b5f8061068883610b1b565b905061069381610d57565b915050919050565b5f806106a683610b1b565b90506106b181610c9c565b915050919050565b60605f6106c583610b1b565b90506106d081610d8a565b915050919050565b60605f6106e483610b1b565b90506106ef81610e14565b915050919050565b5f805f8061070485610b1b565b90505f8061071183610ea1565b91509150818184602001519550955095505050509193909250565b5f805f61074061073b85610b1b565b610b93565b9050610765815f81518110610758576107576118cb565b5b6020026020010151610b93565b905061078a815f8151811061077d5761077c6118cb565b5b6020026020010151610ee6565b6107ae826001815181106107a1576107a06118cb565b5b6020026020010151610ee6565b9250925050915091565b60605f6107cc6107c784610b1b565b610b93565b90506107f1815f815181106107e4576107e36118cb565b5b6020026020010151610d8a565b915050919050565b60605f61080d61080884610b1b565b610f07565b90505f61082161081c83610f5c565b610f07565b90505f61083561083083610f5c565b610e14565b905061084083610fbc565b15610849575f80fd5b61085282610fbc565b1561085b575f80fd5b809350505050919050565b5f8060208301905061087781610fe5565b915050919050565b5f8061088a83610b1b565b905061089581610cbc565b915050919050565b5f806108a883610b1b565b90506108b3816110be565b915050919050565b6108cc6108c782610b1b565b610f07565b5050565b5f806108e36108de84610b1b565b610b93565b90508051915050919050565b5f805f805f805f805f805f8061090c6109078e610b1b565b610f07565b90505f5b61091982610fbc565b15610aaf575f810361093f5761093661093183610f5c565b610cbc565b5f1b9c50610a9c565b600181036109615761095861095383610f5c565b610cbc565b5f1b9b50610a9b565b600381036109835761097a61097583610f5c565b610cbc565b5f1b9a50610a9a565b600481036109a55761099c61099783610f5c565b610cbc565b5f1b9950610a99565b600581036109c7576109be6109b983610f5c565b610cbc565b5f1b9850610a98565b600781036109e7576109e06109db83610f5c565b610cbc565b9750610a97565b60088103610a0757610a006109fb83610f5c565b610cbc565b9650610a96565b60098103610a2757610a20610a1b83610f5c565b610cbc565b9550610a95565b600a8103610a4757610a40610a3b83610f5c565b610cbc565b9450610a94565b600b8103610a6757610a60610a5b83610f5c565b610cbc565b9350610a93565b600e8103610a8757610a80610a7b83610f5c565b610cbc565b9250610a92565b610a9082610f5c565b505b5b5b5b5b5b5b5b5b5b5b8080610aa790611925565b915050610910565b505091939597999b90929496989a50565b60605f610acc83610b1b565b9050610ad781610e14565b915050919050565b5f80610aea83610b1b565b9050610af581610ee6565b915050919050565b5f80610b0883610b1b565b9050610b13816110ca565b915050919050565b610b236113a6565b5f60208301905060405180604001604052808451815260200182815250915050919050565b5f6001825f015114610b58575f80fd5b5f808360200151905080515f1a91505f821480610b785750608060ff1682145b15610b87575f92505050610b8e565b6001925050505b919050565b6060610b9e82610d10565b610ba6575f80fd5b5f610bb0836110eb565b90505f8167ffffffffffffffff811115610bcd57610bcc611406565b5b604051908082528060200260200182016040528015610c0657816020015b610bf36113a6565b815260200190600190039081610beb5790505b5090505f610c178560200151611172565b8560200151610c26919061196c565b90505f805f90505b84811015610c8f57610c3f8361122e565b9150604051806040016040528083815260200184815250848281518110610c6957610c686118cb565b5b60200260200101819052508183610c80919061196c565b92508080600101915050610c2e565b5082945050505050919050565b5f6015825f015114610cac575f80fd5b610cb582610cbc565b9050919050565b5f80825f0151118015610cd357506021825f015111155b610cdb575f80fd5b5f80610ce684610ea1565b915091505f825190506020821015610d0557816020036101000a810490505b809350505050919050565b5f80825f015103610d23575f9050610d52565b5f808360200151905080515f1a915060c060ff168260ff161015610d4b575f92505050610d52565b6001925050505b919050565b5f6021825f015114610d67575f80fd5b5f8060018460200151610d7a919061196c565b9050805191508192505050919050565b60605f825f015167ffffffffffffffff811115610daa57610da9611406565b5b6040519080825280601f01601f191660200182016040528015610ddc5781602001600182028036833780820191505090505b5090505f815103610df05780915050610e0f565b5f816020019050610e09846020015182865f0151611307565b81925050505b919050565b60605f825f015111610e24575f80fd5b5f80610e2f84610ea1565b915091505f8167ffffffffffffffff811115610e4e57610e4d611406565b5b6040519080825280601f01601f191660200182016040528015610e805781602001600182028036833780820191505090505b5090505f816020019050610e95848285611307565b81945050505050919050565b5f805f610eb18460200151611172565b90505f818560200151610ec4919061196c565b90505f82865f0151610ed6919061199f565b9050818194509450505050915091565b5f805f610ef284610ea1565b915091505f8183209050809350505050919050565b610f0f6113be565b610f1882610d10565b610f20575f80fd5b5f610f2e8360200151611172565b8360200151610f3d919061196c565b9050604051806040016040528084815260200182815250915050919050565b610f646113a6565b610f6d82610fbc565b610f75575f80fd5b5f826020015190505f610f878261122e565b90508082610f95919061196c565b84602001818152505060405180604001604052808281526020018381525092505050919050565b5f80825f01519050805f01518160200151610fd7919061196c565b836020015110915050919050565b5f805f83515f1a9050608060ff1681101561100357600191506110b4565b60b860ff16811015611032576001608060ff1682611021919061199f565b61102b919061196c565b91506110b3565b60c060ff168110156110625760b78103600185019450806020036101000a855104600182018101935050506110b2565b60f860ff1681101561109157600160c060ff1682611080919061199f565b61108a919061196c565b91506110b1565b60f78103600185019450806020036101000a855104600182018101935050505b5b5b5b8192505050919050565b5f815f01519050919050565b5f80826020015190505f835f015190505f8183209050809350505050919050565b5f80825f0151036110fe575f905061116d565b5f8061110d8460200151611172565b846020015161111c919061196c565b90505f845f01518560200151611132919061196c565b90505b80821015611166576111468261122e565b82611151919061196c565b9150828061115e90611925565b935050611135565b8293505050505b919050565b5f8082515f1a9050608060ff1681101561118f575f915050611229565b60b860ff168110806111b4575060c060ff1681101580156111b3575060f860ff1681105b5b156111c3576001915050611229565b60c060ff168110156111fe5760018060b86111de91906119de565b60ff16826111ec919061199f565b6111f6919061196c565b915050611229565b60018060f861120d91906119de565b60ff168261121b919061199f565b611225919061196c565b9150505b919050565b5f805f83515f1a9050608060ff1681101561124c57600191506112fd565b60b860ff1681101561127b576001608060ff168261126a919061199f565b611274919061196c565b91506112fc565b60c060ff168110156112ab5760b78103600185019450806020036101000a855104600182018101935050506112fb565b60f860ff168110156112da57600160c060ff16826112c9919061199f565b6112d3919061196c565b91506112fa565b60f78103600185019450806020036101000a855104600182018101935050505b5b5b5b8192505050919050565b5f8103156113a1575b602060ff16811061135a5782518252602060ff168361132f919061196c565b9250602060ff1682611341919061196c565b9150602060ff1681611353919061199f565b9050611310565b5f8111156113a0575f600182602060ff16611375919061199f565b6101006113829190611b41565b61138c919061199f565b905080198451168184511681811785525050505b5b505050565b60405180604001604052805f81526020015f81525090565b60405180604001604052806113d16113a6565b81526020015f81525090565b5f604051905090565b5f80fd5b5f80fd5b5f80fd5b5f80fd5b5f601f19601f8301169050919050565b7f4e487b71000000000000000000000000000000000000000000000000000000005f52604160045260245ffd5b61143c826113f6565b810181811067ffffffffffffffff8211171561145b5761145a611406565b5b80604052505050565b5f61146d6113dd565b90506114798282611433565b919050565b5f67ffffffffffffffff82111561149857611497611406565b5b6114a1826113f6565b9050602081019050919050565b828183375f83830152505050565b5f6114ce6114c98461147e565b611464565b9050828152602081018484840111156114ea576114e96113f2565b5b6114f58482856114ae565b509392505050565b5f82601f830112611511576115106113ee565b5b81356115218482602086016114bc565b91505092915050565b5f6020828403121561153f5761153e6113e6565b5b5f82013567ffffffffffffffff81111561155c5761155b6113ea565b5b611568848285016114fd565b91505092915050565b5f8115159050919050565b61158581611571565b82525050565b5f60208201905061159e5f83018461157c565b92915050565b5f73ffffffffffffffffffffffffffffffffffffffff82169050919050565b5f6115cd826115a4565b9050919050565b6115dd816115c3565b82525050565b5f819050919050565b6115f5816115e3565b82525050565b5f60608201905061160e5f8301866115d4565b61161b602083018561157c565b61162860408301846115ec565b949350505050565b5f6040820190506116435f8301856115d4565b61165060208301846115ec565b9392505050565b5f60208201905061166a5f8301846115ec565b92915050565b5f6020820190506116835f8301846115d4565b92915050565b5f81519050919050565b5f82825260208201905092915050565b5f5b838110156116c05780820151818401526020810190506116a5565b5f8484015250505050565b5f6116d582611689565b6116df8185611693565b93506116ef8185602086016116a3565b6116f8816113f6565b840191505092915050565b5f6020820190508181035f83015261171b81846116cb565b905092915050565b5f81519050919050565b5f82825260208201905092915050565b5f61174782611723565b611751818561172d565b93506117618185602086016116a3565b61176a816113f6565b840191505092915050565b5f6020820190508181035f83015261178d818461173d565b905092915050565b5f6060820190506117a85f8301866115ec565b6117b560208301856115ec565b6117c260408301846115ec565b949350505050565b5f819050919050565b6117dc816117ca565b82525050565b5f6040820190506117f55f8301856117d3565b61180260208301846117d3565b9392505050565b5f6101608201905061181d5f83018e6117d3565b61182a602083018d6117d3565b611837604083018c6117d3565b611844606083018b6117d3565b611851608083018a6117d3565b61185e60a08301896115ec565b61186b60c08301886115ec565b61187860e08301876115ec565b6118866101008301866115ec565b6118946101208301856115ec565b6118a26101408301846115ec565b9c9b505050505050505050505050565b5f6020820190506118c55f8301846117d3565b92915050565b7f4e487b71000000000000000000000000000000000000000000000000000000005f52603260045260245ffd5b7f4e487b71000000000000000000000000000000000000000000000000000000005f52601160045260245ffd5b5f61192f826115e3565b91507fffffffffffffffffffffffffffffffffffffffffffffffffffffffffffffffff8203611961576119606118f8565b5b600182019050919050565b5f611976826115e3565b9150611981836115e3565b9250828201905080821115611999576119986118f8565b5b92915050565b5f6119a9826115e3565b91506119b4836115e3565b92508282039050818111156119cc576119cb6118f8565b5b92915050565b5f60ff82169050919050565b5f6119e8826119d2565b91506119f3836119d2565b9250828203905060ff811115611a0c57611a0b6118f8565b5b92915050565b5f8160011c9050919050565b5f808291508390505b6001851115611a6757808604811115611a4357611a426118f8565b5b6001851615611a525780820291505b8081029050611a6085611a12565b9450611a27565b94509492505050565b5f82611a7f5760019050611b3a565b81611a8c575f9050611b3a565b8160018114611aa25760028114611aac57611adb565b6001915050611b3a565b60ff841115611abe57611abd6118f8565b5b8360020a915084821115611ad557611ad46118f8565b5b50611b3a565b5060208310610133831016604e8410600b8410161715611b105782820a905083811115611b0b57611b0a6118f8565b5b611b3a565b611b1d8484846001611a1e565b92509050818404811115611b3457611b336118f8565b5b81810290505b9392505050565b5f611b4b826115e3565b9150611b56836115e3565b9250611b837fffffffffffffffffffffffffffffffffffffffffffffffffffffffffffffffff8484611a70565b90509291505056fea2646970667358221220dbaab8c3f3ad474eb0ee07787f48da58b018b963146b464477a42d8a8910cc0164736f6c63430008180033",
			"opcodes": "PUSH1 0x80 PUSH1 0x40 MSTORE CALLVALUE DUP1 ISZERO PUSH2 0xF JUMPI PUSH0 DUP1 REVERT JUMPDEST POP PUSH2 0x1BC1 DUP1 PUSH2 0x1D PUSH0 CODECOPY PUSH0 RETURN INVALID PUSH1 0x80 PUSH1 0x40 MSTORE CALLVALUE DUP1 ISZERO PUSH2 0xF JUMPI PUSH0 DUP1 REVERT JUMPDEST POP PUSH1 0x4 CALLDATASIZE LT PUSH2 0x135 JUMPI PUSH0 CALLDATALOAD PUSH1 0xE0 SHR DUP1 PUSH4 0x74C4C494 GT PUSH2 0xB6 JUMPI DUP1 PUSH4 0xD03CA5A3 GT PUSH2 0x7A JUMPI DUP1 PUSH4 0xD03CA5A3 EQ PUSH2 0x40F JUMPI DUP1 PUSH4 0xDD208EA1 EQ PUSH2 0x42B JUMPI DUP1 PUSH4 0xE7617BF8 EQ PUSH2 0x45B JUMPI DUP1 PUSH4 0xE79FBCEC EQ PUSH2 0x495 JUMPI DUP1 PUSH4 0xEB4EB372 EQ PUSH2 0x4C5 JUMPI DUP1 PUSH4 0xF29CDDC0 EQ PUSH2 0x4F5 JUMPI PUSH2 0x135 JUMP JUMPDEST DUP1 PUSH4 0x74C4C494 EQ PUSH2 0x31F JUMPI DUP1 PUSH4 0x76193F8C EQ PUSH2 0x34F JUMPI DUP1 PUSH4 0x8109672F EQ PUSH2 0x37F JUMPI DUP1 PUSH4 0x8529D576 EQ PUSH2 0x3AF JUMPI DUP1 PUSH4 0xAAC19545 EQ PUSH2 0x3DF JUMPI PUSH2 0x135 JUMP JUMPDEST DUP1 PUSH4 0x2D888869 GT PUSH2 0xFD JUMPI DUP1 PUSH4 0x2D888869 EQ PUSH2 0x22C JUMPI DUP1 PUSH4 0x33C82D18 EQ PUSH2 0x25C JUMPI DUP1 PUSH4 0x39614E4F EQ PUSH2 0x28C JUMPI DUP1 PUSH4 0x45FCE4F9 EQ PUSH2 0x2BC JUMPI DUP1 PUSH4 0x64EA1929 EQ PUSH2 0x2EE JUMPI PUSH2 0x135 JUMP JUMPDEST DUP1 PUSH4 0x4BA3427 EQ PUSH2 0x139 JUMPI DUP1 PUSH4 0x59A97FB EQ PUSH2 0x169 JUMPI DUP1 PUSH4 0x15943CB6 EQ PUSH2 0x19B JUMPI DUP1 PUSH4 0x19921BD0 EQ PUSH2 0x1CC JUMPI DUP1 PUSH4 0x20F91849 EQ PUSH2 0x1FC JUMPI JUMPDEST PUSH0 DUP1 REVERT JUMPDEST PUSH2 0x153 PUSH1 0x4 DUP1 CALLDATASIZE SUB DUP2 ADD SWAP1 PUSH2 0x14E SWAP2 SWAP1 PUSH2 0x152A JUMP JUMPDEST PUSH2 0x525 JUMP JUMPDEST PUSH1 0x40 MLOAD PUSH2 0x160 SWAP2 SWAP1 PUSH2 0x158B JUMP JUMPDEST PUSH1 0x40 MLOAD DUP1 SWAP2 SUB SWAP1 RETURN JUMPDEST PUSH2 0x183 PUSH1 0x4 DUP1 CALLDATASIZE SUB DUP2 ADD SWAP1 PUSH2 0x17E SWAP2 SWAP1 PUSH2 0x152A JUMP JUMPDEST PUSH2 0x543 JUMP JUMPDEST PUSH1 0x40 MLOAD PUSH2 0x192 SWAP4 SWAP3 SWAP2 SWAP1 PUSH2 0x15FB JUMP JUMPDEST PUSH1 0x40 MLOAD DUP1 SWAP2 SUB SWAP1 RETURN JUMPDEST PUSH2 0x1B5 PUSH1 0x4 DUP1 CALLDATASIZE SUB DUP2 ADD SWAP1 PUSH2 0x1B0 SWAP2 SWAP1 PUSH2 0x152A JUMP JUMPDEST PUSH2 0x5D3 JUMP JUMPDEST PUSH1 0x40 MLOAD PUSH2 0x1C3 SWAP3 SWAP2 SWAP1 PUSH2 0x1630 JUMP JUMPDEST PUSH1 0x40 MLOAD DUP1 SWAP2 SUB SWAP1 RETURN JUMPDEST PUSH2 0x1E6 PUSH1 0x4 DUP1 CALLDATASIZE SUB DUP2 ADD SWAP1 PUSH2 0x1E1 SWAP2 SWAP1 PUSH2 0x152A JUMP JUMPDEST PUSH2 0x65F JUMP JUMPDEST PUSH1 0x40 MLOAD PUSH2 0x1F3 SWAP2 SWAP1 PUSH2 0x158B JUMP JUMPDEST PUSH1 0x40 MLOAD DUP1 SWAP2 SUB SWAP1 RETURN JUMPDEST PUSH2 0x216 PUSH1 0x4 DUP1 CALLDATASIZE SUB DUP2 ADD SWAP1 PUSH2 0x211 SWAP2 SWAP1 PUSH2 0x152A JUMP JUMPDEST PUSH2 0x67D JUMP JUMPDEST PUSH1 0x40 MLOAD PUSH2 0x223 SWAP2 SWAP1 PUSH2 0x1657 JUMP JUMPDEST PUSH1 0x40 MLOAD DUP1 SWAP2 SUB SWAP1 RETURN JUMPDEST PUSH2 0x246 PUSH1 0x4 DUP1 CALLDATASIZE SUB DUP2 ADD SWAP1 PUSH2 0x241 SWAP2 SWAP1 PUSH2 0x152A JUMP JUMPDEST PUSH2 0x69B JUMP JUMPDEST PUSH1 0x40 MLOAD PUSH2 0x253 SWAP2 SWAP1 PUSH2 0x1670 JUMP JUMPDEST PUSH1 0x40 MLOAD DUP1 SWAP2 SUB SWAP1 RETURN JUMPDEST PUSH2 0x276 PUSH1 0x4 DUP1 CALLDATASIZE SUB DUP2 ADD SWAP1 PUSH2 0x271 SWAP2 SWAP1 PUSH2 0x152A JUMP JUMPDEST PUSH2 0x6B9 JUMP JUMPDEST PUSH1 0x40 MLOAD PUSH2 0x283 SWAP2 SWAP1 PUSH2 0x1703 JUMP JUMPDEST PUSH1 0x40 MLOAD DUP1 SWAP2 SUB SWAP1 RETURN JUMPDEST PUSH2 0x2A6 PUSH1 0x4 DUP1 CALLDATASIZE SUB DUP2 ADD SWAP1 PUSH2 0x2A1 SWAP2 SWAP1 PUSH2 0x152A JUMP JUMPDEST PUSH2 0x6D8 JUMP JUMPDEST PUSH1 0x40 MLOAD PUSH2 0x2B3 SWAP2 SWAP1 PUSH2 0x1775 JUMP JUMPDEST PUSH1 0x40 MLOAD DUP1 SWAP2 SUB SWAP1 RETURN JUMPDEST PUSH2 0x2D6 PUSH1 0x4 DUP1 CALLDATASIZE SUB DUP2 ADD SWAP1 PUSH2 0x2D1 SWAP2 SWAP1 PUSH2 0x152A JUMP JUMPDEST PUSH2 0x6F7 JUMP JUMPDEST PUSH1 0x40 MLOAD PUSH2 0x2E5 SWAP4 SWAP3 SWAP2 SWAP1 PUSH2 0x1795 JUMP JUMPDEST PUSH1 0x40 MLOAD DUP1 SWAP2 SUB SWAP1 RETURN JUMPDEST PUSH2 0x308 PUSH1 0x4 DUP1 CALLDATASIZE SUB DUP2 ADD SWAP1 PUSH2 0x303 SWAP2 SWAP1 PUSH2 0x152A JUMP JUMPDEST PUSH2 0x72C JUMP JUMPDEST PUSH1 0x40 MLOAD PUSH2 0x316 SWAP3 SWAP2 SWAP1 PUSH2 0x17E2 JUMP JUMPDEST PUSH1 0x40 MLOAD DUP1 SWAP2 SUB SWAP1 RETURN JUMPDEST PUSH2 0x339 PUSH1 0x4 DUP1 CALLDATASIZE SUB DUP2 ADD SWAP1 PUSH2 0x334 SWAP2 SWAP1 PUSH2 0x152A JUMP JUMPDEST PUSH2 0x7B8 JUMP JUMPDEST PUSH1 0x40 MLOAD PUSH2 0x346 SWAP2 SWAP1 PUSH2 0x1703 JUMP JUMPDEST PUSH1 0x40 MLOAD DUP1 SWAP2 SUB SWAP1 RETURN JUMPDEST PUSH2 0x369 PUSH1 0x4 DUP1 CALLDATASIZE SUB DUP2 ADD SWAP1 PUSH2 0x364 SWAP2 SWAP1 PUSH2 0x152A JUMP JUMPDEST PUSH2 0x7F9 JUMP JUMPDEST PUSH1 0x40 MLOAD PUSH2 0x376 SWAP2 SWAP1 PUSH2 0x1775 JUMP JUMPDEST PUSH1 0x40 MLOAD DUP1 SWAP2 SUB SWAP1 RETURN JUMPDEST PUSH2 0x399 PUSH1 0x4 DUP1 CALLDATASIZE SUB DUP2 ADD SWAP1 PUSH2 0x394 SWAP2 SWAP1 PUSH2 0x152A JUMP JUMPDEST PUSH2 0x866 JUMP JUMPDEST PUSH1 0x40 MLOAD PUSH2 0x3A6 SWAP2 SWAP1 PUSH2 0x1657 JUMP JUMPDEST PUSH1 0x40 MLOAD DUP1 SWAP2 SUB SWAP1 RETURN JUMPDEST PUSH2 0x3C9 PUSH1 0x4 DUP1 CALLDATASIZE SUB DUP2 ADD SWAP1 PUSH2 0x3C4 SWAP2 SWAP1 PUSH2 0x152A JUMP JUMPDEST PUSH2 0x87F JUMP JUMPDEST PUSH1 0x40 MLOAD PUSH2 0x3D6 SWAP2 SWAP1 PUSH2 0x1657 JUMP JUMPDEST PUSH1 0x40 MLOAD DUP1 SWAP2 SUB SWAP1 RETURN JUMPDEST PUSH2 0x3F9 PUSH1 0x4 DUP1 CALLDATASIZE SUB DUP2 ADD SWAP1 PUSH2 0x3F4 SWAP2 SWAP1 PUSH2 0x152A JUMP JUMPDEST PUSH2 0x89D JUMP JUMPDEST PUSH1 0x40 MLOAD PUSH2 0x406 SWAP2 SWAP1 PUSH2 0x1657 JUMP JUMPDEST PUSH1 0x40 MLOAD DUP1 SWAP2 SUB SWAP1 RETURN JUMPDEST PUSH2 0x429 PUSH1 0x4 DUP1 CALLDATASIZE SUB DUP2 ADD SWAP1 PUSH2 0x424 SWAP2 SWAP1 PUSH2 0x152A JUMP JUMPDEST PUSH2 0x8BB JUMP JUMPDEST STOP JUMPDEST PUSH2 0x445 PUSH1 0x4 DUP1 CALLDATASIZE SUB DUP2 ADD SWAP1 PUSH2 0x440 SWAP2 SWAP1 PUSH2 0x152A JUMP JUMPDEST PUSH2 0x8D0 JUMP JUMPDEST PUSH1 0x40 MLOAD PUSH2 0x452 SWAP2 SWAP1 PUSH2 0x1657 JUMP JUMPDEST PUSH1 0x40 MLOAD DUP1 SWAP2 SUB SWAP1 RETURN JUMPDEST PUSH2 0x475 PUSH1 0x4 DUP1 CALLDATASIZE SUB DUP2 ADD SWAP1 PUSH2 0x470 SWAP2 SWAP1 PUSH2 0x152A JUMP JUMPDEST PUSH2 0x8EF JUMP JUMPDEST PUSH1 0x40 MLOAD PUSH2 0x48C SWAP12 SWAP11 SWAP10 SWAP9 SWAP8 SWAP7 SWAP6 SWAP5 SWAP4 SWAP3 SWAP2 SWAP1 PUSH2 0x1809 JUMP JUMPDEST PUSH1 0x40 MLOAD DUP1 SWAP2 SUB SWAP1 RETURN JUMPDEST PUSH2 0x4AF PUSH1 0x4 DUP1 CALLDATASIZE SUB DUP2 ADD SWAP1 PUSH2 0x4AA SWAP2 SWAP1 PUSH2 0x152A JUMP JUMPDEST PUSH2 0xAC0 JUMP JUMPDEST PUSH1 0x40 MLOAD PUSH2 0x4BC SWAP2 SWAP1 PUSH2 0x1703 JUMP JUMPDEST PUSH1 0x40 MLOAD DUP1 SWAP2 SUB SWAP1 RETURN JUMPDEST PUSH2 0x4DF PUSH1 0x4 DUP1 CALLDATASIZE SUB DUP2 ADD SWAP1 PUSH2 0x4DA SWAP2 SWAP1 PUSH2 0x152A JUMP JUMPDEST PUSH2 0xADF JUMP JUMPDEST PUSH1 0x40 MLOAD PUSH2 0x4EC SWAP2 SWAP1 PUSH2 0x18B2 JUMP JUMPDEST PUSH1 0x40 MLOAD DUP1 SWAP2 SUB SWAP1 RETURN JUMPDEST PUSH2 0x50F PUSH1 0x4 DUP1 CALLDATASIZE SUB DUP2 ADD SWAP1 PUSH2 0x50A SWAP2 SWAP1 PUSH2 0x152A JUMP JUMPDEST PUSH2 0xAFD JUMP JUMPDEST PUSH1 0x40 MLOAD PUSH2 0x51C SWAP2 SWAP1 PUSH2 0x18B2 JUMP JUMPDEST PUSH1 0x40 MLOAD DUP1 SWAP2 SUB SWAP1 RETURN JUMPDEST PUSH0 DUP1 PUSH2 0x530 DUP4 PUSH2 0xB1B JUMP JUMPDEST SWAP1 POP PUSH2 0x53B DUP2 PUSH2 0xB48 JUMP JUMPDEST SWAP2 POP POP SWAP2 SWAP1 POP JUMP JUMPDEST PUSH0 DUP1 PUSH0 DUP1 PUSH2 0x558 PUSH2 0x553 DUP7 PUSH2 0xB1B JUMP JUMPDEST PUSH2 0xB93 JUMP JUMPDEST SWAP1 POP PUSH2 0x57D DUP2 PUSH0 DUP2 MLOAD DUP2 LT PUSH2 0x570 JUMPI PUSH2 0x56F PUSH2 0x18CB JUMP JUMPDEST JUMPDEST PUSH1 0x20 MUL PUSH1 0x20 ADD ADD MLOAD PUSH2 0xC9C JUMP JUMPDEST PUSH2 0x5A1 DUP3 PUSH1 0x1 DUP2 MLOAD DUP2 LT PUSH2 0x594 JUMPI PUSH2 0x593 PUSH2 0x18CB JUMP JUMPDEST JUMPDEST PUSH1 0x20 MUL PUSH1 0x20 ADD ADD MLOAD PUSH2 0xB48 JUMP JUMPDEST PUSH2 0x5C5 DUP4 PUSH1 0x2 DUP2 MLOAD DUP2 LT PUSH2 0x5B8 JUMPI PUSH2 0x5B7 PUSH2 0x18CB JUMP JUMPDEST JUMPDEST PUSH1 0x20 MUL PUSH1 0x20 ADD ADD MLOAD PUSH2 0xCBC JUMP JUMPDEST SWAP4 POP SWAP4 POP SWAP4 POP POP SWAP2 SWAP4 SWAP1 SWAP3 POP JUMP JUMPDEST PUSH0 DUP1 PUSH0 PUSH2 0x5E7 PUSH2 0x5E2 DUP6 PUSH2 0xB1B JUMP JUMPDEST PUSH2 0xB93 JUMP JUMPDEST SWAP1 POP PUSH2 0x60C DUP2 PUSH0 DUP2 MLOAD DUP2 LT PUSH2 0x5FF JUMPI PUSH2 0x5FE PUSH2 0x18CB JUMP JUMPDEST JUMPDEST PUSH1 0x20 MUL PUSH1 0x20 ADD ADD MLOAD PUSH2 0xB93 JUMP JUMPDEST SWAP1 POP PUSH2 0x631 DUP2 PUSH0 DUP2 MLOAD DUP2 LT PUSH2 0x624 JUMPI PUSH2 0x623 PUSH2 0x18CB JUMP JUMPDEST JUMPDEST PUSH1 0x20 MUL PUSH1 0x20 ADD ADD MLOAD PUSH2 0xC9C JUMP JUMPDEST PUSH2 0x655 DUP3 PUSH1 0x1 DUP2 MLOAD DUP2 LT PUSH2 0x648 JUMPI PUSH2 0x647 PUSH2 0x18CB JUMP JUMPDEST JUMPDEST PUSH1 0x20 MUL PUSH1 0x20 ADD ADD MLOAD PUSH2 0xCBC JUMP JUMPDEST SWAP3 POP SWAP3 POP POP SWAP2 POP SWAP2 JUMP JUMPDEST PUSH0 DUP1 PUSH2 0x66A DUP4 PUSH2 0xB1B JUMP JUMPDEST SWAP1 POP PUSH2 0x675 DUP2 PUSH2 0xD10 JUMP JUMPDEST SWAP2 POP POP SWAP2 SWAP1 POP JUMP JUMPDEST PUSH0 DUP1 PUSH2 0x688 DUP4 PUSH2 0xB1B JUMP JUMPDEST SWAP1 POP PUSH2 0x693 DUP2 PUSH2 0xD57 JUMP JUMPDEST SWAP2 POP POP SWAP2 SWAP1 POP JUMP JUMPDEST PUSH0 DUP1 PUSH2 0x6A6 DUP4 PUSH2 0xB1B JUMP JUMPDEST SWAP1 POP PUSH2 0x6B1 DUP2 PUSH2 0xC9C JUMP JUMPDEST SWAP2 POP POP SWAP2 SWAP1 POP JUMP JUMPDEST PUSH1 0x60 PUSH0 PUSH2 0x6C5 DUP4 PUSH2 0xB1B JUMP JUMPDEST SWAP1 POP PUSH2 0x6D0 DUP2 PUSH2 0xD8A JUMP JUMPDEST SWAP2 POP POP SWAP2 SWAP1 POP JUMP JUMPDEST PUSH1 0x60 PUSH0 PUSH2 0x6E4 DUP4 PUSH2 0xB1B JUMP JUMPDEST SWAP1 POP PUSH2 0x6EF DUP2 PUSH2 0xE14 JUMP JUMPDEST SWAP2 POP POP SWAP2 SWAP1 POP JUMP JUMPDEST PUSH0 DUP1 PUSH0 DUP1 PUSH2 0x704 DUP6 PUSH2 0xB1B JUMP JUMPDEST SWAP1 POP PUSH0 DUP1 PUSH2 0x711 DUP4 PUSH2 0xEA1 JUMP JUMPDEST SWAP2 POP SWAP2 POP DUP2 DUP2 DUP5 PUSH1 0x20 ADD MLOAD SWAP6 POP SWAP6 POP SWAP6 POP POP POP POP SWAP2 SWAP4 SWAP1 SWAP3 POP JUMP JUMPDEST PUSH0 DUP1 PUSH0 PUSH2 0x740 PUSH2 0x73B DUP6 PUSH2 0xB1B JUMP JUMPDEST PUSH2 0xB93 JUMP JUMPDEST SWAP1 POP PUSH2 0x765 DUP2 PUSH0 DUP2 MLOAD DUP2 LT PUSH2 0x758 JUMPI PUSH2 0x757 PUSH2 0x18CB JUMP JUMPDEST JUMPDEST PUSH1 0x20 MUL PUSH1 0x20 ADD ADD MLOAD PUSH2 0xB93 JUMP JUMPDEST SWAP1 POP PUSH2 0x78A DUP2 PUSH0 DUP2 MLOAD DUP2 LT PUSH2 0x77D JUMPI PUSH2 0x77C PUSH2 0x18CB JUMP JUMPDEST JUMPDEST PUSH1 0x20 MUL PUSH1 0x20 ADD ADD MLOAD PUSH2 0xEE6 JUMP JUMPDEST PUSH2 0x7AE DUP3 PUSH1 0x1 DUP2 MLOAD DUP2 LT PUSH2 0x7A1 JUMPI PUSH2 0x7A0 PUSH2 0x18CB JUMP JUMPDEST JUMPDEST PUSH1 0x20 MUL PUSH1 0x20 ADD ADD MLOAD PUSH2 0xEE6 JUMP JUMPDEST SWAP3 POP SWAP3 POP POP SWAP2 POP SWAP2 JUMP JUMPDEST PUSH1 0x60 PUSH0 PUSH2 0x7CC PUSH2 0x7C7 DUP5 PUSH2 0xB1B JUMP JUMPDEST PUSH2 0xB93 JUMP JUMPDEST SWAP1 POP PUSH2 0x7F1 DUP2 PUSH0 DUP2 MLOAD DUP2 LT PUSH2 0x7E4 JUMPI PUSH2 0x7E3 PUSH2 0x18CB JUMP JUMPDEST JUMPDEST PUSH1 0x20 MUL PUSH1 0x20 ADD ADD MLOAD PUSH2 0xD8A JUMP JUMPDEST SWAP2 POP POP SWAP2 SWAP1 POP JUMP JUMPDEST PUSH1 0x60 PUSH0 PUSH2 0x80D PUSH2 0x808 DUP5 PUSH2 0xB1B JUMP JUMPDEST PUSH2 0xF07 JUMP JUMPDEST SWAP1 POP PUSH0 PUSH2 0x821 PUSH2 0x81C DUP4 PUSH2 0xF5C JUMP JUMPDEST PUSH2 0xF07 JUMP JUMPDEST SWAP1 POP PUSH0 PUSH2 0x835 PUSH2 0x830 DUP4 PUSH2 0xF5C JUMP JUMPDEST PUSH2 0xE14 JUMP JUMPDEST SWAP1 POP PUSH2 0x840 DUP4 PUSH2 0xFBC JUMP JUMPDEST ISZERO PUSH2 0x849 JUMPI PUSH0 DUP1 REVERT JUMPDEST PUSH2 0x852 DUP3 PUSH2 0xFBC JUMP JUMPDEST ISZERO PUSH2 0x85B JUMPI PUSH0 DUP1 REVERT JUMPDEST DUP1 SWAP4 POP POP POP POP SWAP2 SWAP1 POP JUMP JUMPDEST PUSH0 DUP1 PUSH1 0x20 DUP4 ADD SWAP1 POP PUSH2 0x877 DUP2 PUSH2 0xFE5 JUMP JUMPDEST SWAP2 POP POP SWAP2 SWAP1 POP JUMP JUMPDEST PUSH0 DUP1 PUSH2 0x88A DUP4 PUSH2 0xB1B JUMP JUMPDEST SWAP1 POP PUSH2 0x895 DUP2 PUSH2 0xCBC JUMP JUMPDEST SWAP2 POP POP SWAP2 SWAP1 POP JUMP JUMPDEST PUSH0 DUP1 PUSH2 0x8A8 DUP4 PUSH2 0xB1B JUMP JUMPDEST SWAP1 POP PUSH2 0x8B3 DUP2 PUSH2 0x10BE JUMP JUMPDEST SWAP2 POP POP SWAP2 SWAP1 POP JUMP JUMPDEST PUSH2 0x8CC PUSH2 0x8C7 DUP3 PUSH2 0xB1B JUMP JUMPDEST PUSH2 0xF07 JUMP JUMPDEST POP POP JUMP JUMPDEST PUSH0 DUP1 PUSH2 0x8E3 PUSH2 0x8DE DUP5 PUSH2 0xB1B JUMP JUMPDEST PUSH2 0xB93 JUMP JUMPDEST SWAP1 POP DUP1 MLOAD SWAP2 POP POP SWAP2 SWAP1 POP JUMP JUMPDEST PUSH0 DUP1 PUSH0 DUP1 PUSH0 DUP1 PUSH0 DUP1 PUSH0 DUP1 PUSH0 DUP1 PUSH2 0x90C PUSH2 0x907 DUP15 PUSH2 0xB1B JUMP JUMPDEST PUSH2 0xF07 JUMP JUMPDEST SWAP1 POP PUSH0 JUMPDEST PUSH2 0x919 DUP3 PUSH2 0xFBC JUMP JUMPDEST ISZERO PUSH2 0xAAF JUMPI PUSH0 DUP2 SUB PUSH2 0x93F JUMPI PUSH2 0x936 PUSH2 0x931 DUP4 PUSH2 0xF5C JUMP JUMPDEST PUSH2 0xCBC JUMP JUMPDEST PUSH0 SHL SWAP13 POP PUSH2 0xA9C JUMP JUMPDEST PUSH1 0x1 DUP2 SUB PUSH2 0x961 JUMPI PUSH2 0x958 PUSH2 0x953 DUP4 PUSH2 0xF5C JUMP JUMPDEST PUSH2 0xCBC JUMP JUMPDEST PUSH0 SHL SWAP12 POP PUSH2 0xA9B JUMP JUMPDEST PUSH1 0x3 DUP2 SUB PUSH2 0x983 JUMPI PUSH2 0x97A PUSH2 0x975 DUP4 PUSH2 0xF5C JUMP JUMPDEST PUSH2 0xCBC JUMP JUMPDEST PUSH0 SHL SWAP11 POP PUSH2 0xA9A JUMP JUMPDEST PUSH1 0x4 DUP2 SUB PUSH2 0x9A5 JUMPI PUSH2 0x99C PUSH2 0x997 DUP4 PUSH2 0xF5C JUMP JUMPDEST PUSH2 0xCBC JUMP JUMPDEST PUSH0 SHL SWAP10 POP PUSH2 0xA99 JUMP JUMPDEST PUSH1 0x5 DUP2 SUB PUSH2 0x9C7 JUMPI PUSH2 0x9BE PUSH2 0x9B9 DUP4 PUSH2 0xF5C JUMP JUMPDEST PUSH2 0xCBC JUMP JUMPDEST PUSH0 SHL SWAP9 POP PUSH2 0xA98 JUMP JUMPDEST PUSH1 0x7 DUP2 SUB PUSH2 0x9E7 JUMPI PUSH2 0x9E0 PUSH2 0x9DB DUP4 PUSH2 0xF5C JUMP JUMPDEST PUSH2 0xCBC JUMP JUMPDEST SWAP8 POP PUSH2 0xA97 JUMP JUMPDEST PUSH1 0x8 DUP2 SUB PUSH2 0xA07 JUMPI PUSH2 0xA00 PUSH2 0x9FB DUP4 PUSH2 0xF5C JUMP JUMPDEST PUSH2 0xCBC JUMP JUMPDEST SWAP7 POP PUSH2 0xA96 JUMP JUMPDEST PUSH1 0x9 DUP2 SUB PUSH2 0xA27 JUMPI PUSH2 0xA20 PUSH2 0xA1B DUP4 PUSH2 0xF5C JUMP JUMPDEST PUSH2 0xCBC JUMP JUMPDEST SWAP6 POP PUSH2 0xA95 JUMP JUMPDEST PUSH1 0xA DUP2 SUB PUSH2 0xA47 JUMPI PUSH2 0xA40 PUSH2 0xA3B DUP4 PUSH2 0xF5C JUMP JUMPDEST PUSH2 0xCBC JUMP JUMPDEST SWAP5 POP PUSH2 0xA94 JUMP JUMPDEST PUSH1 0xB DUP2 SUB PUSH2 0xA67 JUMPI PUSH2 0xA60 PUSH2 0xA5B DUP4 PUSH2 0xF5C JUMP JUMPDEST PUSH2 0xCBC JUMP JUMPDEST SWAP4 POP PUSH2 0xA93 JUMP JUMPDEST PUSH1 0xE DUP2 SUB PUSH2 0xA87 JUMPI PUSH2 0xA80 PUSH2 0xA7B DUP4 PUSH2 0xF5C JUMP JUMPDEST PUSH2 0xCBC JUMP JUMPDEST SWAP3 POP PUSH2 0xA92 JUMP JUMPDEST PUSH2 0xA90 DUP3 PUSH2 0xF5C JUMP JUMPDEST POP JUMPDEST JUMPDEST JUMPDEST JUMPDEST JUMPDEST JUMPDEST JUMPDEST JUMPDEST JUMPDEST JUMPDEST JUMPDEST DUP1 DUP1 PUSH2 0xAA7 SWAP1 PUSH2 0x1925 JUMP JUMPDEST SWAP2 POP POP PUSH2 0x910 JUMP JUMPDEST POP POP SWAP2 SWAP4 SWAP6 SWAP8 SWAP10 SWAP12 SWAP1 SWAP3 SWAP5 SWAP7 SWAP9 SWAP11 POP JUMP JUMPDEST PUSH1 0x60 PUSH0 PUSH2 0xACC DUP4 PUSH2 0xB1B JUMP JUMPDEST SWAP1 POP PUSH2 0xAD7 DUP2 PUSH2 0xE14 JUMP JUMPDEST SWAP2 POP POP SWAP2 SWAP1 POP JUMP JUMPDEST PUSH0 DUP1 PUSH2 0xAEA DUP4 PUSH2 0xB1B JUMP JUMPDEST SWAP1 POP PUSH2 0xAF5 DUP2 PUSH2 0xEE6 JUMP JUMPDEST SWAP2 POP POP SWAP2 SWAP1 POP JUMP JUMPDEST PUSH0 DUP1 PUSH2 0xB08 DUP4 PUSH2 0xB1B JUMP JUMPDEST SWAP1 POP PUSH2 0xB13 DUP2 PUSH2 0x10CA JUMP JUMPDEST SWAP2 POP POP SWAP2 SWAP1 POP JUMP JUMPDEST PUSH2 0xB23 PUSH2 0x13A6 JUMP JUMPDEST PUSH0 PUSH1 0x20 DUP4 ADD SWAP1 POP PUSH1 0x40 MLOAD DUP1 PUSH1 0x40 ADD PUSH1 0x40 MSTORE DUP1 DUP5 MLOAD DUP2 MSTORE PUSH1 0x20 ADD DUP3 DUP2 MSTORE POP SWAP2 POP POP SWAP2 SWAP1 POP JUMP JUMPDEST PUSH0 PUSH1 0x1 DUP3 PUSH0 ADD MLOAD EQ PUSH2 0xB58 JUMPI PUSH0 DUP1 REVERT JUMPDEST PUSH0 DUP1 DUP4 PUSH1 0x20 ADD MLOAD SWAP1 POP DUP1 MLOAD PUSH0 BYTE SWAP2 POP PUSH0 DUP3 EQ DUP1 PUSH2 0xB78 JUMPI POP PUSH1 0x80 PUSH1 0xFF AND DUP3 EQ JUMPDEST ISZERO PUSH2 0xB87 JUMPI PUSH0 SWAP3 POP POP POP PUSH2 0xB8E JUMP JUMPDEST PUSH1 0x1 SWAP3 POP POP POP JUMPDEST SWAP2 SWAP1 POP JUMP JUMPDEST PUSH1 0x60 PUSH2 0xB9E DUP3 PUSH2 0xD10 JUMP JUMPDEST PUSH2 0xBA6 JUMPI PUSH0 DUP1 REVERT JUMPDEST PUSH0 PUSH2 0xBB0 DUP4 PUSH2 0x10EB JUMP JUMPDEST SWAP1 POP PUSH0 DUP2 PUSH8 0xFFFFFFFFFFFFFFFF DUP2 GT ISZERO PUSH2 0xBCD JUMPI PUSH2 0xBCC PUSH2 0x1406 JUMP JUMPDEST JUMPDEST PUSH1 0x40 MLOAD SWAP1 DUP1 DUP3 MSTORE DUP1 PUSH1 0x20 MUL PUSH1 0x20 ADD DUP3 ADD PUSH1 0x40 MSTORE DUP1 ISZERO PUSH2 0xC06 JUMPI DUP2 PUSH1 0x20 ADD JUMPDEST PUSH2 0xBF3 PUSH2 0x13A6 JUMP JUMPDEST DUP2 MSTORE PUSH1 0x20 ADD SWAP1 PUSH1 0x1 SWAP1 SUB SWAP1 DUP2 PUSH2 0xBEB JUMPI SWAP1 POP JUMPDEST POP SWAP1 POP PUSH0 PUSH2 0xC17 DUP6 PUSH1 0x20 ADD MLOAD PUSH2 0x1172 JUMP JUMPDEST DUP6 PUSH1 0x20 ADD MLOAD PUSH2 0xC26 SWAP2 SWAP1 PUSH2 0x196C JUMP JUMPDEST SWAP1 POP PUSH0 DUP1 PUSH0 SWAP1 POP JUMPDEST DUP5 DUP2 LT ISZERO PUSH2 0xC8F JUMPI PUSH2 0xC3F DUP4 PUSH2 0x122E JUMP JUMPDEST SWAP2 POP PUSH1 0x40 MLOAD DUP1 PUSH1 0x40 ADD PUSH1 0x40 MSTORE DUP1 DUP4 DUP2 MSTORE PUSH1 0x20 ADD DUP5 DUP2 MSTORE POP DUP5 DUP3 DUP2 MLOAD DUP2 LT PUSH2 0xC69 JUMPI PUSH2 0xC68 PUSH2 0x18CB JUMP JUMPDEST JUMPDEST PUSH1 0x20 MUL PUSH1 0x20 ADD ADD DUP2 SWAP1 MSTORE POP DUP2 DUP4 PUSH2 0xC80 SWAP2 SWAP1 PUSH2 0x196C JUMP JUMPDEST SWAP3 POP DUP1 DUP1 PUSH1 0x1 ADD SWAP2 POP POP PUSH2 0xC2E JUMP JUMPDEST POP DUP3 SWAP5 POP POP POP POP POP SWAP2 SWAP1 POP JUMP JUMPDEST PUSH0 PUSH1 0x15 DUP3 PUSH0 ADD MLOAD EQ PUSH2 0xCAC JUMPI PUSH0 DUP1 REVERT JUMPDEST PUSH2 0xCB5 DUP3 PUSH2 0xCBC JUMP JUMPDEST SWAP1 POP SWAP2 SWAP1 POP JUMP JUMPDEST PUSH0 DUP1 DUP3 PUSH0 ADD MLOAD GT DUP1 ISZERO PUSH2 0xCD3 JUMPI POP PUSH1 0x21 DUP3 PUSH0 ADD MLOAD GT ISZERO JUMPDEST PUSH2 0xCDB JUMPI PUSH0 DUP1 REVERT JUMPDEST PUSH0 DUP1 PUSH2 0xCE6 DUP5 PUSH2 0xEA1 JUMP JUMPDEST SWAP2 POP SWAP2 POP PUSH0 DUP3 MLOAD SWAP1 POP PUSH1 0x20 DUP3 LT ISZERO PUSH2 0xD05 JUMPI DUP2 PUSH1 0x20 SUB PUSH2 0x100 EXP DUP2 DIV SWAP1 POP JUMPDEST DUP1 SWAP4 POP POP POP POP SWAP2 SWAP1 POP JUMP JUMPDEST PUSH0 DUP1 DUP3 PUSH0 ADD MLOAD SUB PUSH2 0xD23 JUMPI PUSH0 SWAP1 POP PUSH2 0xD52 JUMP JUMPDEST PUSH0 DUP1 DUP4 PUSH1 0x20 ADD MLOAD SWAP1 POP DUP1 MLOAD PUSH0 BYTE SWAP2 POP PUSH1 0xC0 PUSH1 0xFF AND DUP3 PUSH1 0xFF AND LT ISZERO PUSH2 0xD4B JUMPI PUSH0 SWAP3 POP POP POP PUSH2 0xD52 JUMP JUMPDEST PUSH1 0x1 SWAP3 POP POP POP JUMPDEST SWAP2 SWAP1 POP JUMP JUMPDEST PUSH0 PUSH1 0x21 DUP3 PUSH0 ADD MLOAD EQ PUSH2 0xD67 JUMPI PUSH0 DUP1 REVERT JUMPDEST PUSH0 DUP1 PUSH1 0x1 DUP5 PUSH1 0x20 ADD MLOAD PUSH2 0xD7A SWAP2 SWAP1 PUSH2 0x196C JUMP JUMPDEST SWAP1 POP DUP1 MLOAD SWAP2 POP DUP2 SWAP3 POP POP POP SWAP2 SWAP1 POP JUMP JUMPDEST PUSH1 0x60 PUSH0 DUP3 PUSH0 ADD MLOAD PUSH8 0xFFFFFFFFFFFFFFFF DUP2 GT ISZERO PUSH2 0xDAA JUMPI PUSH2 0xDA9 PUSH2 0x1406 JUMP JUMPDEST JUMPDEST PUSH1 0x40 MLOAD SWAP1 DUP1 DUP3 MSTORE DUP1 PUSH1 0x1F ADD PUSH1 0x1F NOT AND PUSH1 0x20 ADD DUP3 ADD PUSH1 0x40 MSTORE DUP1 ISZERO PUSH2 0xDDC JUMPI DUP2 PUSH1 0x20 ADD PUSH1 0x1 DUP3 MUL DUP1 CALLDATASIZE DUP4 CALLDATACOPY DUP1 DUP3 ADD SWAP2 POP POP SWAP1 POP JUMPDEST POP SWAP1 POP PUSH0 DUP2 MLOAD SUB PUSH2 0xDF0 JUMPI DUP1 SWAP2 POP POP PUSH2 0xE0F JUMP JUMPDEST PUSH0 DUP2 PUSH1 0x20 ADD SWAP1 POP PUSH2 0xE09 DUP5 PUSH1 0x20 ADD MLOAD DUP3 DUP7 PUSH0 ADD MLOAD PUSH2 0x1307 JUMP JUMPDEST DUP2 SWAP3 POP POP POP JUMPDEST SWAP2 SWAP1 POP JUMP JUMPDEST PUSH1 0x60 PUSH0 DUP3 PUSH0 ADD MLOAD GT PUSH2 0xE24 JUMPI PUSH0 DUP1 REVERT JUMPDEST PUSH0 DUP1 PUSH2 0xE2F DUP5 PUSH2 0xEA1 JUMP JUMPDEST SWAP2 POP SWAP2 POP PUSH0 DUP2 PUSH8 0xFFFFFFFFFFFFFFFF DUP2 GT ISZERO PUSH2 0xE4E JUMPI PUSH2 0xE4D PUSH2 0x1406 JUMP JUMPDEST JUMPDEST PUSH1 0x40 MLOAD SWAP1 DUP1 DUP3 MSTORE DUP1 PUSH1 0x1F ADD PUSH1 0x1F NOT AND PUSH1 0x20 ADD DUP3 ADD PUSH1 0x40 MSTORE DUP1 ISZERO PUSH2 0xE80 JUMPI DUP2 PUSH1 0x20 ADD PUSH1 0x1 DUP3 MUL DUP1 CALLDATASIZE DUP4 CALLDATACOPY DUP1 DUP3 ADD SWAP2 POP POP SWAP1 POP JUMPDEST POP SWAP1 POP PUSH0 DUP2 PUSH1 0x20 ADD SWAP1 POP PUSH2 0xE95 DUP5 DUP3 DUP6 PUSH2 0x1307 JUMP JUMPDEST DUP2 SWAP5 POP POP POP POP POP SWAP2 SWAP1 POP JUMP JUMPDEST PUSH0 DUP1 PUSH0 PUSH2 0xEB1 DUP5 PUSH1 0x20 ADD MLOAD PUSH2 0x1172 JUMP JUMPDEST SWAP1 POP PUSH0 DUP2 DUP6 PUSH1 0x20 ADD MLOAD PUSH2 0xEC4 SWAP2 SWAP1 PUSH2 0x196C JUMP JUMPDEST SWAP1 POP PUSH0 DUP3 DUP7 PUSH0 ADD MLOAD PUSH2 0xED6 SWAP2 SWAP1 PUSH2 0x199F JUMP JUMPDEST SWAP1 POP DUP2 DUP2 SWAP5 POP SWAP5 POP POP POP POP SWAP2 POP SWAP2 JUMP JUMPDEST PUSH0 DUP1 PUSH0 PUSH2 0xEF2 DUP5 PUSH2 0xEA1 JUMP JUMPDEST SWAP2 POP SWAP2 POP PUSH0 DUP2 DUP4 KECCAK256 SWAP1 POP DUP1 SWAP4 POP POP POP POP SWAP2 SWAP1 POP JUMP JUMPDEST PUSH2 0xF0F PUSH2 0x13BE JUMP JUMPDEST PUSH2 0xF18 DUP3 PUSH2 0xD10 JUMP JUMPDEST PUSH2 0xF20 JUMPI PUSH0 DUP1 REVERT JUMPDEST PUSH0 PUSH2 0xF2E DUP4 PUSH1 0x20 ADD MLOAD PUSH2 0x1172 JUMP JUMPDEST DUP4 PUSH1 0x20 ADD MLOAD PUSH2 0xF3D SWAP2 SWAP1 PUSH2 0x196C JUMP JUMPDEST SWAP1 POP PUSH1 0x40 MLOAD DUP1 PUSH1 0x40 ADD PUSH1 0x40 MSTORE DUP1 DUP5 DUP2 MSTORE PUSH1 0x20 ADD DUP3 DUP2 MSTORE POP SWAP2 POP POP SWAP2 SWAP1 POP JUMP JUMPDEST PUSH2 0xF64 PUSH2 0x13A6 JUMP JUMPDEST PUSH2 0xF6D DUP3 PUSH2 0xFBC JUMP JUMPDEST PUSH2 0xF75 JUMPI PUSH0 DUP1 REVERT JUMPDEST PUSH0 DUP3 PUSH1 0x20 ADD MLOAD SWAP1 POP PUSH0 PUSH2 0xF87 DUP3 PUSH2 0x122E JUMP JUMPDEST SWAP1 POP DUP1 DUP3 PUSH2 0xF95 SWAP2 SWAP1 PUSH2 0x196C JUMP JUMPDEST DUP5 PUSH1 0x20 ADD DUP2 DUP2 MSTORE POP POP PUSH1 0x40 MLOAD DUP1 PUSH1 0x40 ADD PUSH1 0x40 MSTORE DUP1 DUP3 DUP2 MSTORE PUSH1 0x20 ADD DUP4 DUP2 MSTORE POP SWAP3 POP POP POP SWAP2 SWAP1 POP JUMP JUMPDEST PUSH0 DUP1 DUP3 PUSH0 ADD MLOAD SWAP1 POP DUP1 PUSH0 ADD MLOAD DUP2 PUSH1 0x20 ADD MLOAD PUSH2 0xFD7 SWAP2 SWAP1 PUSH2 0x196C JUMP JUMPDEST DUP4 PUSH1 0x20 ADD MLOAD LT SWAP2 POP POP SWAP2 SWAP1 POP JUMP JUMPDEST PUSH0 DUP1 PUSH0 DUP4 MLOAD PUSH0 BYTE SWAP1 POP PUSH1 0x80 PUSH1 0xFF AND DUP2 LT ISZERO PUSH2 0x1003 JUMPI PUSH1 0x1 SWAP2 POP PUSH2 0x10B4 JUMP JUMPDEST PUSH1 0xB8 PUSH1 0xFF AND DUP2 LT ISZERO PUSH2 0x1032 JUMPI PUSH1 0x1 PUSH1 0x80 PUSH1 0xFF AND DUP3 PUSH2 0x1021 SWAP2 SWAP1 PUSH2 0x199F JUMP JUMPDEST PUSH2 0x102B SWAP2 SWAP1 PUSH2 0x196C JUMP JUMPDEST SWAP2 POP PUSH2 0x10B3 JUMP JUMPDEST PUSH1 0xC0 PUSH1 0xFF AND DUP2 LT ISZERO PUSH2 0x1062 JUMPI PUSH1 0xB7 DUP2 SUB PUSH1 0x1 DUP6 ADD SWAP5 POP DUP1 PUSH1 0x20 SUB PUSH2 0x100 EXP DUP6 MLOAD DIV PUSH1 0x1 DUP3 ADD DUP2 ADD SWAP4 POP POP POP PUSH2 0x10B2 JUMP JUMPDEST PUSH1 0xF8 PUSH1 0xFF AND DUP2 LT ISZERO PUSH2 0x1091 JUMPI PUSH1 0x1 PUSH1 0xC0 PUSH1 0xFF AND DUP3 PUSH2 0x1080 SWAP2 SWAP1 PUSH2 0x199F JUMP JUMPDEST PUSH2 0x108A SWAP2 SWAP1 PUSH2 0x196C JUMP JUMPDEST SWAP2 POP PUSH2 0x10B1 JUMP JUMPDEST PUSH1 0xF7 DUP2 SUB PUSH1 0x1 DUP6 ADD SWAP5 POP DUP1 PUSH1 0x20 SUB PUSH2 0x100 EXP DUP6 MLOAD DIV PUSH1 0x1 DUP3 ADD DUP2 ADD SWAP4 POP POP POP JUMPDEST JUMPDEST JUMPDEST JUMPDEST DUP2 SWAP3 POP POP POP SWAP2 SWAP1 POP JUMP JUMPDEST PUSH0 DUP2 PUSH0 ADD MLOAD SWAP1 POP SWAP2 SWAP1 POP JUMP JUMPDEST PUSH0 DUP1 DUP3 PUSH1 0x20 ADD MLOAD SWAP1 POP PUSH0 DUP4 PUSH0 ADD MLOAD SWAP1 POP PUSH0 DUP2 DUP4 KECCAK256 SWAP1 POP DUP1 SWAP4 POP POP POP POP SWAP2 SWAP1 POP JUMP JUMPDEST PUSH0 DUP1 DUP3 PUSH0 ADD MLOAD SUB PUSH2 0x10FE JUMPI PUSH0 SWAP1 POP PUSH2 0x116D JUMP JUMPDEST PUSH0 DUP1 PUSH2 0x110D DUP5 PUSH1 0x20 ADD MLOAD PUSH2 0x1172 JUMP JUMPDEST DUP5 PUSH1 0x20 ADD MLOAD PUSH2 0x111C SWAP2 SWAP1 PUSH2 0x196C JUMP JUMPDEST SWAP1 POP PUSH0 DUP5 PUSH0 ADD MLOAD DUP6 PUSH1 0x20 ADD MLOAD PUSH2 0x1132 SWAP2 SWAP1 PUSH2 0x196C JUMP JUMPDEST SWAP1 POP JUMPDEST DUP1 DUP3 LT ISZERO PUSH2 0x1166 JUMPI PUSH2 0x1146 DUP3 PUSH2 0x122E JUMP JUMPDEST DUP3 PUSH2 0x1151 SWAP2 SWAP1 PUSH2 0x196C JUMP JUMPDEST SWAP2 POP DUP3 DUP1 PUSH2 0x115E SWAP1 PUSH2 0x1925 JUMP JUMPDEST SWAP4 POP POP PUSH2 0x1135 JUMP JUMPDEST DUP3 SWAP4 POP POP POP POP JUMPDEST SWAP2 SWAP1 POP JUMP JUMPDEST PUSH0 DUP1 DUP3 MLOAD PUSH0 BYTE SWAP1 POP PUSH1 0x80 PUSH1 0xFF AND DUP2 LT ISZERO PUSH2 0x118F JUMPI PUSH0 SWAP2 POP POP PUSH2 0x1229 JUMP JUMPDEST PUSH1 0xB8 PUSH1 0xFF AND DUP2 LT DUP1 PUSH2 0x11B4 JUMPI POP PUSH1 0xC0 PUSH1 0xFF AND DUP2 LT ISZERO DUP1 ISZERO PUSH2 0x11B3 JUMPI POP PUSH1 0xF8 PUSH1 0xFF AND DUP2 LT JUMPDEST JUMPDEST ISZERO PUSH2 0x11C3 JUMPI PUSH1 0x1 SWAP2 POP POP PUSH2 0x1229 JUMP JUMPDEST PUSH1 0xC0 PUSH1 0xFF AND DUP2 LT ISZERO PUSH2 0x11FE JUMPI PUSH1 0x1 DUP1 PUSH1 0xB8 PUSH2 0x11DE SWAP2 SWAP1 PUSH2 0x19DE JUMP JUMPDEST PUSH1 0xFF AND DUP3 PUSH2 0x11EC SWAP2 SWAP1 PUSH2 0x199F JUMP JUMPDEST PUSH2 0x11F6 SWAP2 SWAP1 PUSH2 0x196C JUMP JUMPDEST SWAP2 POP POP PUSH2 0x1229 JUMP JUMPDEST PUSH1 0x1 DUP1 PUSH1 0xF8 PUSH2 0x120D SWAP2 SWAP1 PUSH2 0x19DE JUMP JUMPDEST PUSH1 0xFF AND DUP3 PUSH2 0x121B SWAP2 SWAP1 PUSH2 0x199F JUMP JUMPDEST PUSH2 0x1225 SWAP2 SWAP1 PUSH2 0x196C JUMP JUMPDEST SWAP2 POP POP JUMPDEST SWAP2 SWAP1 POP JUMP JUMPDEST PUSH0 DUP1 PUSH0 DUP4 MLOAD PUSH0 BYTE SWAP1 POP PUSH1 0x80 PUSH1 0xFF AND DUP2 LT ISZERO PUSH2 0x124C JUMPI PUSH1 0x1 SWAP2 POP PUSH2 0x12FD JUMP JUMPDEST PUSH1 0xB8 PUSH1 0xFF AND DUP2 LT ISZERO PUSH2 0x127B JUMPI PUSH1 0x1 PUSH1 0x80 PUSH1 0xFF AND DUP3 PUSH2 0x126A SWAP2 SWAP1 PUSH2 0x199F JUMP JUMPDEST PUSH2 0x1274 SWAP2 SWAP1 PUSH2 0x196C JUMP JUMPDEST SWAP2 POP PUSH2 0x12FC JUMP JUMPDEST PUSH1 0xC0 PUSH1 0xFF AND DUP2 LT ISZERO PUSH2 0x12AB JUMPI PUSH1 0xB7 DUP2 SUB PUSH1 0x1 DUP6 ADD SWAP5 POP DUP1 PUSH1 0x20 SUB PUSH2 0x100 EXP DUP6 MLOAD DIV PUSH1 0x1 DUP3 ADD DUP2 ADD SWAP4 POP POP POP PUSH2 0x12FB JUMP JUMPDEST PUSH1 0xF8 PUSH1 0xFF AND DUP2 LT ISZERO PUSH2 0x12DA JUMPI PUSH1 0x1 PUSH1 0xC0 PUSH1 0xFF AND DUP3 PUSH2 0x12C9 SWAP2 SWAP1 PUSH2 0x199F JUMP JUMPDEST PUSH2 0x12D3 SWAP2 SWAP1 PUSH2 0x196C JUMP JUMPDEST SWAP2 POP PUSH2 0x12FA JUMP JUMPDEST PUSH1 0xF7 DUP2 SUB PUSH1 0x1 DUP6 ADD SWAP5 POP DUP1 PUSH1 0x20 SUB PUSH2 0x100 EXP DUP6 MLOAD DIV PUSH1 0x1 DUP3 ADD DUP2 ADD SWAP4 POP POP POP JUMPDEST JUMPDEST JUMPDEST JUMPDEST DUP2 SWAP3 POP POP POP SWAP2 SWAP1 POP JUMP JUMPDEST PUSH0 DUP2 SUB ISZERO PUSH2 0x13A1 JUMPI JUMPDEST PUSH1 0x20 PUSH1 0xFF AND DUP2 LT PUSH2 0x135A JUMPI DUP3 MLOAD DUP3 MSTORE PUSH1 0x20 PUSH1 0xFF AND DUP4 PUSH2 0x132F SWAP2 SWAP1 PUSH2 0x196C JUMP JUMPDEST SWAP3 POP PUSH1 0x20 PUSH1 0xFF AND DUP3 PUSH2 0x1341 SWAP2 SWAP1 PUSH2 0x196C JUMP JUMPDEST SWAP2 POP PUSH1 0x20 PUSH1 0xFF AND DUP2 PUSH2 0x1353 SWAP2 SWAP1 PUSH2 0x199F JUMP JUMPDEST SWAP1 POP PUSH2 0x1310 JUMP JUMPDEST PUSH0 DUP2 GT ISZERO PUSH2 0x13A0 JUMPI PUSH0 PUSH1 0x1 DUP3 PUSH1 0x20 PUSH1 0xFF AND PUSH2 0x1375 SWAP2 SWAP1 PUSH2 0x199F JUMP JUMPDEST PUSH2 0x100 PUSH2 0x1382 SWAP2 SWAP1 PUSH2 0x1B41 JUMP JUMPDEST PUSH2 0x138C SWAP2 SWAP1 PUSH2 0x199F JUMP JUMPDEST SWAP1 POP DUP1 NOT DUP5 MLOAD AND DUP2 DUP5 MLOAD AND DUP2 DUP2 OR DUP6 MSTORE POP POP POP JUMPDEST JUMPDEST POP POP POP JUMP JUMPDEST PUSH1 0x40 MLOAD DUP1 PUSH1 0x40 ADD PUSH1 0x40 MSTORE DUP1 PUSH0 DUP2 MSTORE PUSH1 0x20 ADD PUSH0 DUP2 MSTORE POP SWAP1 JUMP JUMPDEST PUSH1 0x40 MLOAD DUP1 PUSH1 0x40 ADD PUSH1 0x40 MSTORE DUP1 PUSH2 0x13D1 PUSH2 0x13A6 JUMP JUMPDEST DUP2 MSTORE PUSH1 0x20 ADD PUSH0 DUP2 MSTORE POP SWAP1 JUMP JUMPDEST PUSH0 PUSH1 0x40 MLOAD SWAP1 POP SWAP1 JUMP JUMPDEST PUSH0 DUP1 REVERT JUMPDEST PUSH0 DUP1 REVERT JUMPDEST PUSH0 DUP1 REVERT JUMPDEST PUSH0 DUP1 REVERT JUMPDEST PUSH0 PUSH1 0x1F NOT PUSH1 0x1F DUP4 ADD AND SWAP1 POP SWAP2 SWAP1 POP JUMP JUMPDEST PUSH32 0x4E487B7100000000000000000000000000000000000000000000000000000000 PUSH0 MSTORE PUSH1 0x41 PUSH1 0x4 MSTORE PUSH1 0x24 PUSH0 REVERT JUMPDEST PUSH2 0x143C DUP3 PUSH2 0x13F6 JUMP JUMPDEST DUP2 ADD DUP2 DUP2 LT PUSH8 0xFFFFFFFFFFFFFFFF DUP3 GT OR ISZERO PUSH2 0x145B JUMPI PUSH2 0x145A PUSH2 0x1406 JUMP JUMPDEST JUMPDEST DUP1 PUSH1 0x40 MSTORE POP POP POP JUMP JUMPDEST PUSH0 PUSH2 0x146D PUSH2 0x13DD JUMP JUMPDEST SWAP1 POP PUSH2 0x1479 DUP3 DUP3 PUSH2 0x1433 JUMP JUMPDEST SWAP2 SWAP1 POP JUMP JUMPDEST PUSH0 PUSH8 0xFFFFFFFFFFFFFFFF DUP3 GT ISZERO PUSH2 0x1498 JUMPI PUSH2 0x1497 PUSH2 0x1406 JUMP JUMPDEST JUMPDEST PUSH2 0x14A1 DUP3 PUSH2 0x13F6 JUMP JUMPDEST SWAP1 POP PUSH1 0x20 DUP2 ADD SWAP1 POP SWAP2 SWAP1 POP JUMP JUMPDEST DUP3 DUP2 DUP4 CALLDATACOPY PUSH0 DUP4 DUP4 ADD MSTORE POP POP POP JUMP JUMPDEST PUSH0 PUSH2 0x14CE PUSH2 0x14C9 DUP5 PUSH2 0x147E JUMP JUMPDEST PUSH2 0x1464 JUMP JUMPDEST SWAP1 POP DUP3 DUP2 MSTORE PUSH1 0x20 DUP2 ADD DUP5 DUP5 DUP5 ADD GT ISZERO PUSH2 0x14EA JUMPI PUSH2 0x14E9 PUSH2 0x13F2 JUMP JUMPDEST JUMPDEST PUSH2 0x14F5 DUP5 DUP3 DUP6 PUSH2 0x14AE JUMP JUMPDEST POP SWAP4 SWAP3 POP POP POP JUMP JUMPDEST PUSH0 DUP3 PUSH1 0x1F DUP4 ADD SLT PUSH2 0x1511 JUMPI PUSH2 0x1510 PUSH2 0x13EE JUMP JUMPDEST JUMPDEST DUP2 CALLDATALOAD PUSH2 0x1521 DUP5 DUP3 PUSH1 0x20 DUP7 ADD PUSH2 0x14BC JUMP JUMPDEST SWAP2 POP POP SWAP3 SWAP2 POP POP JUMP JUMPDEST PUSH0 PUSH1 0x20 DUP3 DUP5 SUB SLT ISZERO PUSH2 0x153F JUMPI PUSH2 0x153E PUSH2 0x13E6 JUMP JUMPDEST JUMPDEST PUSH0 DUP3 ADD CALLDATALOAD PUSH8 0xFFFFFFFFFFFFFFFF DUP2 GT ISZERO PUSH2 0x155C JUMPI PUSH2 0x155B PUSH2 0x13EA JUMP JUMPDEST JUMPDEST PUSH2 0x1568 DUP5 DUP3 DUP6 ADD PUSH2 0x14FD JUMP JUMPDEST SWAP2 POP POP SWAP3 SWAP2 POP POP JUMP JUMPDEST PUSH0 DUP2 ISZERO ISZERO SWAP1 POP SWAP2 SWAP1 POP JUMP JUMPDEST PUSH2 0x1585 DUP2 PUSH2 0x1571 JUMP JUMPDEST DUP3 MSTORE POP POP JUMP JUMPDEST PUSH0 PUSH1 0x20 DUP3 ADD SWAP1 POP PUSH2 0x159E PUSH0 DUP4 ADD DUP5 PUSH2 0x157C JUMP JUMPDEST SWAP3 SWAP2 POP POP JUMP JUMPDEST PUSH0 PUSH20 0xFFFFFFFFFFFFFFFFFFFFFFFFFFFFFFFFFFFFFFFF DUP3 AND SWAP1 POP SWAP2 SWAP1 POP JUMP JUMPDEST PUSH0 PUSH2 0x15CD DUP3 PUSH2 0x15A4 JUMP JUMPDEST SWAP1 POP SWAP2 SWAP1 POP JUMP JUMPDEST PUSH2 0x15DD DUP2 PUSH2 0x15C3 JUMP JUMPDEST DUP3 MSTORE POP POP JUMP JUMPDEST PUSH0 DUP2 SWAP1 POP SWAP2 SWAP1 POP JUMP JUMPDEST PUSH2 0x15F5 DUP2 PUSH2 0x15E3 JUMP JUMPDEST DUP3 MSTORE POP POP JUMP JUMPDEST PUSH0 PUSH1 0x60 DUP3 ADD SWAP1 POP PUSH2 0x160E PUSH0 DUP4 ADD DUP7 PUSH2 0x15D4 JUMP JUMPDEST PUSH2 0x161B PUSH1 0x20 DUP4 ADD DUP6 PUSH2 0x157C JUMP JUMPDEST PUSH2 0x1628 PUSH1 0x40 DUP4 ADD DUP5 PUSH2 0x15EC JUMP JUMPDEST SWAP5 SWAP4 POP POP POP POP JUMP JUMPDEST PUSH0 PUSH1 0x40 DUP3 ADD SWAP1 POP PUSH2 0x1643 PUSH0 DUP4 ADD DUP6 PUSH2 0x15D4 JUMP JUMPDEST PUSH2 0x1650 PUSH1 0x20 DUP4 ADD DUP5 PUSH2 0x15EC JUMP JUMPDEST SWAP4 SWAP3 POP POP POP JUMP JUMPDEST PUSH0 PUSH1 0x20 DUP3 ADD SWAP1 POP PUSH2 0x166A PUSH0 DUP4 ADD DUP5 PUSH2 0x15EC JUMP JUMPDEST SWAP3 SWAP2 POP POP JUMP JUMPDEST PUSH0 PUSH1 0x20 DUP3 ADD SWAP1 POP PUSH2 0x1683 PUSH0 DUP4 ADD DUP5 PUSH2 0x15D4 JUMP JUMPDEST SWAP3 SWAP2 POP POP JUMP JUMPDEST PUSH0 DUP2 MLOAD SWAP1 POP SWAP2 SWAP1 POP JUMP JUMPDEST PUSH0 DUP3 DUP3 MSTORE PUSH1 0x20 DUP3 ADD SWAP1 POP SWAP3 SWAP2 POP POP JUMP JUMPDEST PUSH0 JUMPDEST DUP4 DUP2 LT ISZERO PUSH2 0x16C0 JUMPI DUP1 DUP3 ADD MLOAD DUP2 DUP5 ADD MSTORE PUSH1 0x20 DUP2 ADD SWAP1 POP PUSH2 0x16A5 JUMP JUMPDEST PUSH0 DUP5 DUP5 ADD MSTORE POP POP POP POP JUMP JUMPDEST PUSH0 PUSH2 0x16D5 DUP3 PUSH2 0x1689 JUMP JUMPDEST PUSH2 0x16DF DUP2 DUP6 PUSH2 0x1693 JUMP JUMPDEST SWAP4 POP PUSH2 0x16EF DUP2 DUP6 PUSH1 0x20 DUP7 ADD PUSH2 0x16A3 JUMP JUMPDEST PUSH2 0x16F8 DUP2 PUSH2 0x13F6 JUMP JUMPDEST DUP5 ADD SWAP2 POP POP SWAP3 SWAP2 POP POP JUMP JUMPDEST PUSH0 PUSH1 0x20 DUP3 ADD SWAP1 POP DUP2 DUP2 SUB PUSH0 DUP4 ADD MSTORE PUSH2 0x171B DUP2 DUP5 PUSH2 0x16CB JUMP JUMPDEST SWAP1 POP SWAP3 SWAP2 POP POP JUMP JUMPDEST PUSH0 DUP2 MLOAD SWAP1 POP SWAP2 SWAP1 POP JUMP JUMPDEST PUSH0 DUP3 DUP3 MSTORE PUSH1 0x20 DUP3 ADD SWAP1 POP SWAP3 SWAP2 POP POP JUMP JUMPDEST PUSH0 PUSH2 0x1747 DUP3 PUSH2 0x1723 JUMP JUMPDEST PUSH2 0x1751 DUP2 DUP6 PUSH2 0x172D JUMP JUMPDEST SWAP4 POP PUSH2 0x1761 DUP2 DUP6 PUSH1 0x20 DUP7 ADD PUSH2 0x16A3 JUMP JUMPDEST PUSH2 0x176A DUP2 PUSH2 0x13F6 JUMP JUMPDEST DUP5 ADD SWAP2 POP POP SWAP3 SWAP2 POP POP JUMP JUMPDEST PUSH0 PUSH1 0x20 DUP3 ADD SWAP1 POP DUP2 DUP2 SUB PUSH0 DUP4 ADD MSTORE PUSH2 0x178D DUP2 DUP5 PUSH2 0x173D JUMP JUMPDEST SWAP1 POP SWAP3 SWAP2 POP POP JUMP JUMPDEST PUSH0 PUSH1 0x60 DUP3 ADD SWAP1 POP PUSH2 0x17A8 PUSH0 DUP4 ADD DUP7 PUSH2 0x15EC JUMP JUMPDEST PUSH2 0x17B5 PUSH1 0x20 DUP4 ADD DUP6 PUSH2 0x15EC JUMP JUMPDEST PUSH2 0x17C2 PUSH1 0x40 DUP4 ADD DUP5 PUSH2 0x15EC JUMP JUMPDEST SWAP5 SWAP4 POP POP POP POP JUMP JUMPDEST PUSH0 DUP2 SWAP1 POP SWAP2 SWAP1 POP JUMP JUMPDEST PUSH2 0x17DC DUP2 PUSH2 0x17CA JUMP JUMPDEST DUP3 MSTORE POP POP JUMP JUMPDEST PUSH0 PUSH1 0x40 DUP3 ADD SWAP1 POP PUSH2 0x17F5 PUSH0 DUP4 ADD DUP6 PUSH2 0x17D3 JUMP JUMPDEST PUSH2 0x1802 PUSH1 0x20 DUP4 ADD DUP5 PUSH2 0x17D3 JUMP JUMPDEST SWAP4 SWAP3 POP POP POP JUMP JUMPDEST PUSH0 PUSH2 0x160 DUP3 ADD SWAP1 POP PUSH2 0x181D PUSH0 DUP4 ADD DUP15 PUSH2 0x17D3 JUMP JUMPDEST PUSH2 0x182A PUSH1 0x20 DUP4 ADD DUP14 PUSH2 0x17D3 JUMP JUMPDEST PUSH2 0x1837 PUSH1 0x40 DUP4 ADD DUP13 PUSH2 0x17D3 JUMP JUMPDEST PUSH2 0x1844 PUSH1 0x60 DUP4 ADD DUP12 PUSH2 0x17D3 JUMP JUMPDEST PUSH2 0x1851 PUSH1 0x80 DUP4 ADD DUP11 PUSH2 0x17D3 JUMP JUMPDEST PUSH2 0x185E PUSH1 0xA0 DUP4 ADD DUP10 PUSH2 0x15EC JUMP JUMPDEST PUSH2 0x186B PUSH1 0xC0 DUP4 ADD DUP9 PUSH2 0x15EC JUMP JUMPDEST PUSH2 0x1878 PUSH1 0xE0 DUP4 ADD DUP8 PUSH2 0x15EC JUMP JUMPDEST PUSH2 0x1886 PUSH2 0x100 DUP4 ADD DUP7 PUSH2 0x15EC JUMP JUMPDEST PUSH2 0x1894 PUSH2 0x120 DUP4 ADD DUP6 PUSH2 0x15EC JUMP JUMPDEST PUSH2 0x18A2 PUSH2 0x140 DUP4 ADD DUP5 PUSH2 0x15EC JUMP JUMPDEST SWAP13 SWAP12 POP POP POP POP POP POP POP POP POP POP POP POP JUMP JUMPDEST PUSH0 PUSH1 0x20 DUP3 ADD SWAP1 POP PUSH2 0x18C5 PUSH0 DUP4 ADD DUP5 PUSH2 0x17D3 JUMP JUMPDEST SWAP3 SWAP2 POP POP JUMP JUMPDEST PUSH32 0x4E487B7100000000000000000000000000000000000000000000000000000000 PUSH0 MSTORE PUSH1 0x32 PUSH1 0x4 MSTORE PUSH1 0x24 PUSH0 REVERT JUMPDEST PUSH32 0x4E487B7100000000000000000000000000000000000000000000000000000000 PUSH0 MSTORE PUSH1 0x11 PUSH1 0x4 MSTORE PUSH1 0x24 PUSH0 REVERT JUMPDEST PUSH0 PUSH2 0x192F DUP3 PUSH2 0x15E3 JUMP JUMPDEST SWAP2 POP PUSH32 0xFFFFFFFFFFFFFFFFFFFFFFFFFFFFFFFFFFFFFFFFFFFFFFFFFFFFFFFFFFFFFFFF DUP3 SUB PUSH2 0x1961 JUMPI PUSH2 0x1960 PUSH2 0x18F8 JUMP JUMPDEST JUMPDEST PUSH1 0x1 DUP3 ADD SWAP1 POP SWAP2 SWAP1 POP JUMP JUMPDEST PUSH0 PUSH2 0x1976 DUP3 PUSH2 0x15E3 JUMP JUMPDEST SWAP2 POP PUSH2 0x1981 DUP4 PUSH2 0x15E3 JUMP JUMPDEST SWAP3 POP DUP3 DUP3 ADD SWAP1 POP DUP1 DUP3 GT ISZERO PUSH2 0x1999 JUMPI PUSH2 0x1998 PUSH2 0x18F8 JUMP JUMPDEST JUMPDEST SWAP3 SWAP2 POP POP JUMP JUMPDEST PUSH0 PUSH2 0x19A9 DUP3 PUSH2 0x15E3 JUMP JUMPDEST SWAP2 POP PUSH2 0x19B4 DUP4 PUSH2 0x15E3 JUMP JUMPDEST SWAP3 POP DUP3 DUP3 SUB SWAP1 POP DUP2 DUP2 GT ISZERO PUSH2 0x19CC JUMPI PUSH2 0x19CB PUSH2 0x18F8 JUMP JUMPDEST JUMPDEST SWAP3 SWAP2 POP POP JUMP JUMPDEST PUSH0 PUSH1 0xFF DUP3 AND SWAP1 POP SWAP2 SWAP1 POP JUMP JUMPDEST PUSH0 PUSH2 0x19E8 DUP3 PUSH2 0x19D2 JUMP JUMPDEST SWAP2 POP PUSH2 0x19F3 DUP4 PUSH2 0x19D2 JUMP JUMPDEST SWAP3 POP DUP3 DUP3 SUB SWAP1 POP PUSH1 0xFF DUP2 GT ISZERO PUSH2 0x1A0C JUMPI PUSH2 0x1A0B PUSH2 0x18F8 JUMP JUMPDEST JUMPDEST SWAP3 SWAP2 POP POP JUMP JUMPDEST PUSH0 DUP2 PUSH1 0x1 SHR SWAP1 POP SWAP2 SWAP1 POP JUMP JUMPDEST PUSH0 DUP1 DUP3 SWAP2 POP DUP4 SWAP1 POP JUMPDEST PUSH1 0x1 DUP6 GT ISZERO PUSH2 0x1A67 JUMPI DUP1 DUP7 DIV DUP2 GT ISZERO PUSH2 0x1A43 JUMPI PUSH2 0x1A42 PUSH2 0x18F8 JUMP JUMPDEST JUMPDEST PUSH1 0x1 DUP6 AND ISZERO PUSH2 0x1A52 JUMPI DUP1 DUP3 MUL SWAP2 POP JUMPDEST DUP1 DUP2 MUL SWAP1 POP PUSH2 0x1A60 DUP6 PUSH2 0x1A12 JUMP JUMPDEST SWAP5 POP PUSH2 0x1A27 JUMP JUMPDEST SWAP5 POP SWAP5 SWAP3 POP POP POP JUMP JUMPDEST PUSH0 DUP3 PUSH2 0x1A7F JUMPI PUSH1 0x1 SWAP1 POP PUSH2 0x1B3A JUMP JUMPDEST DUP2 PUSH2 0x1A8C JUMPI PUSH0 SWAP1 POP PUSH2 0x1B3A JUMP JUMPDEST DUP2 PUSH1 0x1 DUP2 EQ PUSH2 0x1AA2 JUMPI PUSH1 0x2 DUP2 EQ PUSH2 0x1AAC JUMPI PUSH2 0x1ADB JUMP JUMPDEST PUSH1 0x1 SWAP2 POP POP PUSH2 0x1B3A JUMP JUMPDEST PUSH1 0xFF DUP5 GT ISZERO PUSH2 0x1ABE JUMPI PUSH2 0x1ABD PUSH2 0x18F8 JUMP JUMPDEST JUMPDEST DUP4 PUSH1 0x2 EXP SWAP2 POP DUP5 DUP3 GT ISZERO PUSH2 0x1AD5 JUMPI PUSH2 0x1AD4 PUSH2 0x18F8 JUMP JUMPDEST JUMPDEST POP PUSH2 0x1B3A JUMP JUMPDEST POP PUSH1 0x20 DUP4 LT PUSH2 0x133 DUP4 LT AND PUSH1 0x4E DUP5 LT PUSH1 0xB DUP5 LT AND OR ISZERO PUSH2 0x1B10 JUMPI DUP3 DUP3 EXP SWAP1 POP DUP4 DUP2 GT ISZERO PUSH2 0x1B0B JUMPI PUSH2 0x1B0A PUSH2 0x18F8 JUMP JUMPDEST JUMPDEST PUSH2 0x1B3A JUMP JUMPDEST PUSH2 0x1B1D DUP5 DUP5 DUP5 PUSH1 0x1 PUSH2 0x1A1E JUMP JUMPDEST SWAP3 POP SWAP1 POP DUP2 DUP5 DIV DUP2 GT ISZERO PUSH2 0x1B34 JUMPI PUSH2 0x1B33 PUSH2 0x18F8 JUMP JUMPDEST JUMPDEST DUP2 DUP2 MUL SWAP1 POP JUMPDEST SWAP4 SWAP3 POP POP POP JUMP JUMPDEST PUSH0 PUSH2 0x1B4B DUP3 PUSH2 0x15E3 JUMP JUMPDEST SWAP2 POP PUSH2 0x1B56 DUP4 PUSH2 0x15E3 JUMP JUMPDEST SWAP3 POP PUSH2 0x1B83 PUSH32 0xFFFFFFFFFFFFFFFFFFFFFFFFFFFFFFFFFFFFFFFFFFFFFFFFFFFFFFFFFFFFFFFF DUP5 DUP5 PUSH2 0x1A70 JUMP JUMPDEST SWAP1 POP SWAP3 SWAP2 POP POP JUMP INVALID LOG2 PUSH5 0x6970667358 0x22 SLT KECCAK256 0xDB 0xAA 0xB8 0xC3 RETURN 0xAD SELFBALANCE 0x4E 0xB0 0xEE SMOD PUSH25 0x7F48DA58B018B963146B464477A42D8A8910CC0164736F6C63 NUMBER STOP ADDMOD XOR STOP CALLER "
		},
		"gasEstimates": {
			"creation": {
				"codeDepositCost": "1421000",
				"executionCost": "1484",
				"totalCost": "1422484"
			},
			"external": {
				"bytesToString(bytes)": "infinite",
				"customDestructure(bytes)": "infinite",
				"customNestedDestructure(bytes)": "infinite",
				"customNestedDestructureKeccak(bytes)": "infinite",
				"customNestedToRlpBytes(bytes)": "infinite",
				"isList(bytes)": "infinite",
				"itemLength(bytes)": "infinite",
				"nestedIteration(bytes)": "infinite",
				"numItems(bytes)": "infinite",
				"payloadKeccak256(bytes)": "infinite",
				"payloadLocation(bytes)": "infinite",
				"rlpBytesKeccak256(bytes)": "infinite",
				"rlpLen(bytes)": "infinite",
				"toAddress(bytes)": "infinite",
				"toBlockHeader(bytes)": "infinite",
				"toBoolean(bytes)": "infinite",
				"toBytes(bytes)": "infinite",
				"toIterator(bytes)": "infinite",
				"toRlpBytes(bytes)": "infinite",
				"toUint(bytes)": "infinite",
				"toUintStrict(bytes)": "infinite"
			},
			"internal": {
				"_itemLength(uint256)": "infinite"
			}
		},
		"methodIdentifiers": {
			"bytesToString(bytes)": "39614e4f",
			"customDestructure(bytes)": "059a97fb",
			"customNestedDestructure(bytes)": "15943cb6",
			"customNestedDestructureKeccak(bytes)": "64ea1929",
			"customNestedToRlpBytes(bytes)": "74c4c494",
			"isList(bytes)": "19921bd0",
			"itemLength(bytes)": "8109672f",
			"nestedIteration(bytes)": "76193f8c",
			"numItems(bytes)": "dd208ea1",
			"payloadKeccak256(bytes)": "eb4eb372",
			"payloadLocation(bytes)": "45fce4f9",
			"rlpBytesKeccak256(bytes)": "f29cddc0",
			"rlpLen(bytes)": "aac19545",
			"toAddress(bytes)": "2d888869",
			"toBlockHeader(bytes)": "e7617bf8",
			"toBoolean(bytes)": "04ba3427",
			"toBytes(bytes)": "e79fbcec",
			"toIterator(bytes)": "d03ca5a3",
			"toRlpBytes(bytes)": "33c82d18",
			"toUint(bytes)": "8529d576",
			"toUintStrict(bytes)": "20f91849"
		}
	},
	"abi": [
		{
			"inputs": [
				{
					"internalType": "bytes",
					"name": "item",
					"type": "bytes"
				}
			],
			"name": "bytesToString",
			"outputs": [
				{
					"internalType": "string",
					"name": "",
					"type": "string"
				}
			],
			"stateMutability": "pure",
			"type": "function"
		},
		{
			"inputs": [
				{
					"internalType": "bytes",
					"name": "item",
					"type": "bytes"
				}
			],
			"name": "customDestructure",
			"outputs": [
				{
					"internalType": "address",
					"name": "",
					"type": "address"
				},
				{
					"internalType": "bool",
					"name": "",
					"type": "bool"
				},
				{
					"internalType": "uint256",
					"name": "",
					"type": "uint256"
				}
			],
			"stateMutability": "pure",
			"type": "function"
		},
		{
			"inputs": [
				{
					"internalType": "bytes",
					"name": "item",
					"type": "bytes"
				}
			],
			"name": "customNestedDestructure",
			"outputs": [
				{
					"internalType": "address",
					"name": "",
					"type": "address"
				},
				{
					"internalType": "uint256",
					"name": "",
					"type": "uint256"
				}
			],
			"stateMutability": "pure",
			"type": "function"
		},
		{
			"inputs": [
				{
					"internalType": "bytes",
					"name": "item",
					"type": "bytes"
				}
			],
			"name": "customNestedDestructureKeccak",
			"outputs": [
				{
					"internalType": "bytes32",
					"name": "",
					"type": "bytes32"
				},
				{
					"internalType": "bytes32",
					"name": "",
					"type": "bytes32"
				}
			],
			"stateMutability": "pure",
			"type": "function"
		},
		{
			"inputs": [
				{
					"internalType": "bytes",
					"name": "item",
					"type": "bytes"
				}
			],
			"name": "customNestedToRlpBytes",
			"outputs": [
				{
					"internalType": "bytes",
					"name": "",
					"type": "bytes"
				}
			],
			"stateMutability": "pure",
			"type": "function"
		},
		{
			"inputs": [
				{
					"internalType": "bytes",
					"name": "item",
					"type": "bytes"
				}
			],
			"name": "isList",
			"outputs": [
				{
					"internalType": "bool",
					"name": "",
					"type": "bool"
				}
			],
			"stateMutability": "pure",
			"type": "function"
		},
		{
			"inputs": [
				{
					"internalType": "bytes",
					"name": "item",
					"type": "bytes"
				}
			],
			"name": "itemLength",
			"outputs": [
				{
					"internalType": "uint256",
					"name": "",
					"type": "uint256"
				}
			],
			"stateMutability": "pure",
			"type": "function"
		},
		{
			"inputs": [
				{
					"internalType": "bytes",
					"name": "item",
					"type": "bytes"
				}
			],
			"name": "nestedIteration",
			"outputs": [
				{
					"internalType": "string",
					"name": "",
					"type": "string"
				}
			],
			"stateMutability": "pure",
			"type": "function"
		},
		{
			"inputs": [
				{
					"internalType": "bytes",
					"name": "item",
					"type": "bytes"
				}
			],
			"name": "numItems",
			"outputs": [
				{
					"internalType": "uint256",
					"name": "",
					"type": "uint256"
				}
			],
			"stateMutability": "pure",
			"type": "function"
		},
		{
			"inputs": [
				{
					"internalType": "bytes",
					"name": "item",
					"type": "bytes"
				}
			],
			"name": "payloadKeccak256",
			"outputs": [
				{
					"internalType": "bytes32",
					"name": "",
					"type": "bytes32"
				}
			],
			"stateMutability": "pure",
			"type": "function"
		},
		{
			"inputs": [
				{
					"internalType": "bytes",
					"name": "item",
					"type": "bytes"
				}
			],
			"name": "payloadLocation",
			"outputs": [
				{
					"internalType": "uint256",
					"name": "payloadMemPtr",
					"type": "uint256"
				},
				{
					"internalType": "uint256",
					"name": "payloadLen",
					"type": "uint256"
				},
				{
					"internalType": "uint256",
					"name": "itemMemPtr",
					"type": "uint256"
				}
			],
			"stateMutability": "pure",
			"type": "function"
		},
		{
			"inputs": [
				{
					"internalType": "bytes",
					"name": "item",
					"type": "bytes"
				}
			],
			"name": "rlpBytesKeccak256",
			"outputs": [
				{
					"internalType": "bytes32",
					"name": "",
					"type": "bytes32"
				}
			],
			"stateMutability": "pure",
			"type": "function"
		},
		{
			"inputs": [
				{
					"internalType": "bytes",
					"name": "item",
					"type": "bytes"
				}
			],
			"name": "rlpLen",
			"outputs": [
				{
					"internalType": "uint256",
					"name": "",
					"type": "uint256"
				}
			],
			"stateMutability": "pure",
			"type": "function"
		},
		{
			"inputs": [
				{
					"internalType": "bytes",
					"name": "item",
					"type": "bytes"
				}
			],
			"name": "toAddress",
			"outputs": [
				{
					"internalType": "address",
					"name": "",
					"type": "address"
				}
			],
			"stateMutability": "pure",
			"type": "function"
		},
		{
			"inputs": [
				{
					"internalType": "bytes",
					"name": "rlpHeader",
					"type": "bytes"
				}
			],
			"name": "toBlockHeader",
			"outputs": [
				{
					"internalType": "bytes32",
					"name": "parentHash",
					"type": "bytes32"
				},
				{
					"internalType": "bytes32",
					"name": "sha3Uncles",
					"type": "bytes32"
				},
				{
					"internalType": "bytes32",
					"name": "stateRoot",
					"type": "bytes32"
				},
				{
					"internalType": "bytes32",
					"name": "transactionsRoot",
					"type": "bytes32"
				},
				{
					"internalType": "bytes32",
					"name": "receiptsRoot",
					"type": "bytes32"
				},
				{
					"internalType": "uint256",
					"name": "difficulty",
					"type": "uint256"
				},
				{
					"internalType": "uint256",
					"name": "number",
					"type": "uint256"
				},
				{
					"internalType": "uint256",
					"name": "gasLimit",
					"type": "uint256"
				},
				{
					"internalType": "uint256",
					"name": "gasUsed",
					"type": "uint256"
				},
				{
					"internalType": "uint256",
					"name": "timestamp",
					"type": "uint256"
				},
				{
					"internalType": "uint256",
					"name": "nonce",
					"type": "uint256"
				}
			],
			"stateMutability": "pure",
			"type": "function"
		},
		{
			"inputs": [
				{
					"internalType": "bytes",
					"name": "item",
					"type": "bytes"
				}
			],
			"name": "toBoolean",
			"outputs": [
				{
					"internalType": "bool",
					"name": "",
					"type": "bool"
				}
			],
			"stateMutability": "pure",
			"type": "function"
		},
		{
			"inputs": [
				{
					"internalType": "bytes",
					"name": "item",
					"type": "bytes"
				}
			],
			"name": "toBytes",
			"outputs": [
				{
					"internalType": "bytes",
					"name": "",
					"type": "bytes"
				}
			],
			"stateMutability": "pure",
			"type": "function"
		},
		{
			"inputs": [
				{
					"internalType": "bytes",
					"name": "item",
					"type": "bytes"
				}
			],
			"name": "toIterator",
			"outputs": [],
			"stateMutability": "pure",
			"type": "function"
		},
		{
			"inputs": [
				{
					"internalType": "bytes",
					"name": "item",
					"type": "bytes"
				}
			],
			"name": "toRlpBytes",
			"outputs": [
				{
					"internalType": "bytes",
					"name": "",
					"type": "bytes"
				}
			],
			"stateMutability": "pure",
			"type": "function"
		},
		{
			"inputs": [
				{
					"internalType": "bytes",
					"name": "item",
					"type": "bytes"
				}
			],
			"name": "toUint",
			"outputs": [
				{
					"internalType": "uint256",
					"name": "",
					"type": "uint256"
				}
			],
			"stateMutability": "pure",
			"type": "function"
		},
		{
			"inputs": [
				{
					"internalType": "bytes",
					"name": "item",
					"type": "bytes"
				}
			],
			"name": "toUintStrict",
			"outputs": [
				{
					"internalType": "uint256",
					"name": "",
					"type": "uint256"
				}
			],
			"stateMutability": "pure",
			"type": "function"
		}
	]
}