{
	"data": {
		"bytecode": {
			"linkReferences": {
				"contracts/fraud-detector/libs/decode/msgDecoding.sol": {
					"FraudProofDecoderLibrary": [
						{
							"length": 20,
							"start": 130
						},
						{
							"length": 20,
							"start": 258
						}
					]
				}
			},
			"object": "6080604052348015600e575f80fd5b50610a798061001c5f395ff3fe608060405234801561000f575f80fd5b5060043610610029575f3560e01c80633116dc501461002d575b5f80fd5b61004061003b366004610576565b61005b565b604051610052969594939291906105e0565b60405180910390f35b5f805f60605f805f8073__$cf4e464779e327044a8b0f3baedf8c509a$__63fe0103f78d8d6040518363ffffffff1660e01b815260040161009d929190610642565b5f60405180830381865af41580156100b7573d5f803e3d5ffd5b505050506040513d5f823e601f3d908101601f191682016040526100de9190810190610770565b915091505f8073__$cf4e464779e327044a8b0f3baedf8c509a$__6388ede4a28d8d6040518363ffffffff1660e01b815260040161011d929190610642565b5f60405180830381865af4158015610137573d5f803e3d5ffd5b505050506040513d5f823e601f3d908101601f1916820160405261015e91908101906108a4565b91509150835f015199508360200151985083604001519750836060015196508295505f61018f84846080015161033d565b905073d25a31702b7b86b2e953baf9ff88ef716a5306cc6001600160a01b0382161461021c5760405162461bcd60e51b815260206004820152603160248201527f4974206d75737420626520612076616c696420726571756573742066726f6d206044820152703a3432903634b3b43a1031b634b2b73a1760791b60648201526084015b60405180910390fd5b6040516001600160a01b03821681527f30a9cba22f04abaefbfe0de03bdeaf183347f0a666239ffcc91dffbbbd7cf65f9060200160405180910390a15f6102688385610140015161033d565b905073c8a7ae3f6ae079c20ba19164089143f48f7b965f6001600160a01b038216146102ed5760405162461bcd60e51b815260206004820152602e60248201527f4974206d7573742062652061207661696420726573706f6e73652066726f6d2060448201526d3a343290333ab636103737b2329760911b6064820152608401610213565b6040516001600160a01b03821681527f30a9cba22f04abaefbfe0de03bdeaf183347f0a666239ffcc91dffbbbd7cf65f9060200160405180910390a1509450505050509499939850945094509450565b5f805f8061034b8686610365565b92509250925061035b82826103ae565b5090949350505050565b5f805f835160410361039c576020840151604085015160608601515f1a61038e8882858561046a565b9550955095505050506103a7565b505081515f91506002905b9250925092565b5f8260038111156103c1576103c1610a2f565b036103ca575050565b60018260038111156103de576103de610a2f565b036103fc5760405163f645eedf60e01b815260040160405180910390fd5b600282600381111561041057610410610a2f565b036104315760405163fce698f760e01b815260048101829052602401610213565b600382600381111561044557610445610a2f565b03610466576040516335e2f38360e21b815260048101829052602401610213565b5050565b5f80807f7fffffffffffffffffffffffffffffff5d576e7357a4501ddfe92f46681b20a08411156104a357505f91506003905082610528565b604080515f808252602082018084528a905260ff891692820192909252606081018790526080810186905260019060a0016020604051602081039080840390855afa1580156104f4573d5f803e3d5ffd5b5050604051601f1901519150506001600160a01b03811661051f57505f925060019150829050610528565b92505f91508190505b9450945094915050565b5f8083601f840112610542575f80fd5b5081356001600160401b03811115610558575f80fd5b60208301915083602082850101111561056f575f80fd5b9250929050565b5f805f8060408587031215610589575f80fd5b84356001600160401b0381111561059e575f80fd5b6105aa87828801610532565b90955093505060208501356001600160401b038111156105c8575f80fd5b6105d487828801610532565b95989497509550505050565b86815285602082015284604082015260c060608201525f84518060c0840152806020870160e085015e5f60e082850181019190915260808401959095526001600160a01b039390931660a083015250601f909101601f19160101949350505050565b60208152816020820152818360408301375f818301604090810191909152601f909201601f19160101919050565b634e487b7160e01b5f52604160045260245ffd5b604051608081016001600160401b03811182821017156106a6576106a6610670565b60405290565b60405161018081016001600160401b03811182821017156106a6576106a6610670565b604051601f8201601f191681016001600160401b03811182821017156106f7576106f7610670565b604052919050565b5f82601f83011261070e575f80fd5b8151602083015f806001600160401b0384111561072d5761072d610670565b50601f8301601f1916602001610742816106cf565b915050828152858383011115610756575f80fd5b8282602083015e5f92810160200192909252509392505050565b5f8060408385031215610781575f80fd5b82516001600160401b03811115610796575f80fd5b8301608081860312156107a7575f80fd5b6107af610684565b81518152602080830151908201526040808301519082015260608201516001600160401b038111156107df575f80fd5b6107eb878285016106ff565b606083015250602094909401519395939450505050565b5f82601f830112610811575f80fd5b81516001600160401b0381111561082a5761082a610670565b8060051b61083a602082016106cf565b91825260208185018101929081019086841115610855575f80fd5b6020860192505b8383101561089a5782516001600160401b03811115610879575f80fd5b610888886020838a01016106ff565b8352506020928301929091019061085c565b9695505050505050565b5f80604083850312156108b5575f80fd5b82516001600160401b038111156108ca575f80fd5b830161018081860312156108dc575f80fd5b6108e46106ac565b81516001600160401b038111156108f9575f80fd5b610905878285016106ff565b82525060208281015190820152604080830151908201526060808301519082015260808201516001600160401b0381111561093e575f80fd5b61094a878285016106ff565b60808301525060a0828101519082015260c08201516001600160401b03811115610972575f80fd5b61097e878285016106ff565b60c08301525060e08201516001600160401b0381111561099c575f80fd5b6109a887828501610802565b60e08301525061010082810151908201526101208201516001600160401b038111156109d2575f80fd5b6109de878285016106ff565b610120830152506101408201516001600160401b038111156109fe575f80fd5b610a0a878285016106ff565b6101408301525061016091820151918101919091526020939093015192949293505050565b634e487b7160e01b5f52602160045260245ffdfea26469706673582212200d827dee220be17d505174d4cd8296532f13e17b56f18a4115f2db3c08a351c164736f6c634300081a0033",
			"opcodes": "PUSH1 0x80 PUSH1 0x40 MSTORE CALLVALUE DUP1 ISZERO PUSH1 0xE JUMPI PUSH0 DUP1 REVERT JUMPDEST POP PUSH2 0xA79 DUP1 PUSH2 0x1C PUSH0 CODECOPY PUSH0 RETURN INVALID PUSH1 0x80 PUSH1 0x40 MSTORE CALLVALUE DUP1 ISZERO PUSH2 0xF JUMPI PUSH0 DUP1 REVERT JUMPDEST POP PUSH1 0x4 CALLDATASIZE LT PUSH2 0x29 JUMPI PUSH0 CALLDATALOAD PUSH1 0xE0 SHR DUP1 PUSH4 0x3116DC50 EQ PUSH2 0x2D JUMPI JUMPDEST PUSH0 DUP1 REVERT JUMPDEST PUSH2 0x40 PUSH2 0x3B CALLDATASIZE PUSH1 0x4 PUSH2 0x576 JUMP JUMPDEST PUSH2 0x5B JUMP JUMPDEST PUSH1 0x40 MLOAD PUSH2 0x52 SWAP7 SWAP6 SWAP5 SWAP4 SWAP3 SWAP2 SWAP1 PUSH2 0x5E0 JUMP JUMPDEST PUSH1 0x40 MLOAD DUP1 SWAP2 SUB SWAP1 RETURN JUMPDEST PUSH0 DUP1 PUSH0 PUSH1 0x60 PUSH0 DUP1 PUSH0 DUP1 PUSH20 0x0 PUSH4 0xFE0103F7 DUP14 DUP14 PUSH1 0x40 MLOAD DUP4 PUSH4 0xFFFFFFFF AND PUSH1 0xE0 SHL DUP2 MSTORE PUSH1 0x4 ADD PUSH2 0x9D SWAP3 SWAP2 SWAP1 PUSH2 0x642 JUMP JUMPDEST PUSH0 PUSH1 0x40 MLOAD DUP1 DUP4 SUB DUP2 DUP7 GAS DELEGATECALL ISZERO DUP1 ISZERO PUSH2 0xB7 JUMPI RETURNDATASIZE PUSH0 DUP1 RETURNDATACOPY RETURNDATASIZE PUSH0 REVERT JUMPDEST POP POP POP POP PUSH1 0x40 MLOAD RETURNDATASIZE PUSH0 DUP3 RETURNDATACOPY PUSH1 0x1F RETURNDATASIZE SWAP1 DUP2 ADD PUSH1 0x1F NOT AND DUP3 ADD PUSH1 0x40 MSTORE PUSH2 0xDE SWAP2 SWAP1 DUP2 ADD SWAP1 PUSH2 0x770 JUMP JUMPDEST SWAP2 POP SWAP2 POP PUSH0 DUP1 PUSH20 0x0 PUSH4 0x88EDE4A2 DUP14 DUP14 PUSH1 0x40 MLOAD DUP4 PUSH4 0xFFFFFFFF AND PUSH1 0xE0 SHL DUP2 MSTORE PUSH1 0x4 ADD PUSH2 0x11D SWAP3 SWAP2 SWAP1 PUSH2 0x642 JUMP JUMPDEST PUSH0 PUSH1 0x40 MLOAD DUP1 DUP4 SUB DUP2 DUP7 GAS DELEGATECALL ISZERO DUP1 ISZERO PUSH2 0x137 JUMPI RETURNDATASIZE PUSH0 DUP1 RETURNDATACOPY RETURNDATASIZE PUSH0 REVERT JUMPDEST POP POP POP POP PUSH1 0x40 MLOAD RETURNDATASIZE PUSH0 DUP3 RETURNDATACOPY PUSH1 0x1F RETURNDATASIZE SWAP1 DUP2 ADD PUSH1 0x1F NOT AND DUP3 ADD PUSH1 0x40 MSTORE PUSH2 0x15E SWAP2 SWAP1 DUP2 ADD SWAP1 PUSH2 0x8A4 JUMP JUMPDEST SWAP2 POP SWAP2 POP DUP4 PUSH0 ADD MLOAD SWAP10 POP DUP4 PUSH1 0x20 ADD MLOAD SWAP9 POP DUP4 PUSH1 0x40 ADD MLOAD SWAP8 POP DUP4 PUSH1 0x60 ADD MLOAD SWAP7 POP DUP3 SWAP6 POP PUSH0 PUSH2 0x18F DUP5 DUP5 PUSH1 0x80 ADD MLOAD PUSH2 0x33D JUMP JUMPDEST SWAP1 POP PUSH20 0xD25A31702B7B86B2E953BAF9FF88EF716A5306CC PUSH1 0x1 PUSH1 0x1 PUSH1 0xA0 SHL SUB DUP3 AND EQ PUSH2 0x21C JUMPI PUSH1 0x40 MLOAD PUSH3 0x461BCD PUSH1 0xE5 SHL DUP2 MSTORE PUSH1 0x20 PUSH1 0x4 DUP3 ADD MSTORE PUSH1 0x31 PUSH1 0x24 DUP3 ADD MSTORE PUSH32 0x4974206D75737420626520612076616C696420726571756573742066726F6D20 PUSH1 0x44 DUP3 ADD MSTORE PUSH17 0x3A3432903634B3B43A1031B634B2B73A17 PUSH1 0x79 SHL PUSH1 0x64 DUP3 ADD MSTORE PUSH1 0x84 ADD JUMPDEST PUSH1 0x40 MLOAD DUP1 SWAP2 SUB SWAP1 REVERT JUMPDEST PUSH1 0x40 MLOAD PUSH1 0x1 PUSH1 0x1 PUSH1 0xA0 SHL SUB DUP3 AND DUP2 MSTORE PUSH32 0x30A9CBA22F04ABAEFBFE0DE03BDEAF183347F0A666239FFCC91DFFBBBD7CF65F SWAP1 PUSH1 0x20 ADD PUSH1 0x40 MLOAD DUP1 SWAP2 SUB SWAP1 LOG1 PUSH0 PUSH2 0x268 DUP4 DUP6 PUSH2 0x140 ADD MLOAD PUSH2 0x33D JUMP JUMPDEST SWAP1 POP PUSH20 0xC8A7AE3F6AE079C20BA19164089143F48F7B965F PUSH1 0x1 PUSH1 0x1 PUSH1 0xA0 SHL SUB DUP3 AND EQ PUSH2 0x2ED JUMPI PUSH1 0x40 MLOAD PUSH3 0x461BCD PUSH1 0xE5 SHL DUP2 MSTORE PUSH1 0x20 PUSH1 0x4 DUP3 ADD MSTORE PUSH1 0x2E PUSH1 0x24 DUP3 ADD MSTORE PUSH32 0x4974206D7573742062652061207661696420726573706F6E73652066726F6D20 PUSH1 0x44 DUP3 ADD MSTORE PUSH14 0x3A343290333AB636103737B23297 PUSH1 0x91 SHL PUSH1 0x64 DUP3 ADD MSTORE PUSH1 0x84 ADD PUSH2 0x213 JUMP JUMPDEST PUSH1 0x40 MLOAD PUSH1 0x1 PUSH1 0x1 PUSH1 0xA0 SHL SUB DUP3 AND DUP2 MSTORE PUSH32 0x30A9CBA22F04ABAEFBFE0DE03BDEAF183347F0A666239FFCC91DFFBBBD7CF65F SWAP1 PUSH1 0x20 ADD PUSH1 0x40 MLOAD DUP1 SWAP2 SUB SWAP1 LOG1 POP SWAP5 POP POP POP POP POP SWAP5 SWAP10 SWAP4 SWAP9 POP SWAP5 POP SWAP5 POP SWAP5 POP JUMP JUMPDEST PUSH0 DUP1 PUSH0 DUP1 PUSH2 0x34B DUP7 DUP7 PUSH2 0x365 JUMP JUMPDEST SWAP3 POP SWAP3 POP SWAP3 POP PUSH2 0x35B DUP3 DUP3 PUSH2 0x3AE JUMP JUMPDEST POP SWAP1 SWAP5 SWAP4 POP POP POP POP JUMP JUMPDEST PUSH0 DUP1 PUSH0 DUP4 MLOAD PUSH1 0x41 SUB PUSH2 0x39C JUMPI PUSH1 0x20 DUP5 ADD MLOAD PUSH1 0x40 DUP6 ADD MLOAD PUSH1 0x60 DUP7 ADD MLOAD PUSH0 BYTE PUSH2 0x38E DUP9 DUP3 DUP6 DUP6 PUSH2 0x46A JUMP JUMPDEST SWAP6 POP SWAP6 POP SWAP6 POP POP POP POP PUSH2 0x3A7 JUMP JUMPDEST POP POP DUP2 MLOAD PUSH0 SWAP2 POP PUSH1 0x2 SWAP1 JUMPDEST SWAP3 POP SWAP3 POP SWAP3 JUMP JUMPDEST PUSH0 DUP3 PUSH1 0x3 DUP2 GT ISZERO PUSH2 0x3C1 JUMPI PUSH2 0x3C1 PUSH2 0xA2F JUMP JUMPDEST SUB PUSH2 0x3CA JUMPI POP POP JUMP JUMPDEST PUSH1 0x1 DUP3 PUSH1 0x3 DUP2 GT ISZERO PUSH2 0x3DE JUMPI PUSH2 0x3DE PUSH2 0xA2F JUMP JUMPDEST SUB PUSH2 0x3FC JUMPI PUSH1 0x40 MLOAD PUSH4 0xF645EEDF PUSH1 0xE0 SHL DUP2 MSTORE PUSH1 0x4 ADD PUSH1 0x40 MLOAD DUP1 SWAP2 SUB SWAP1 REVERT JUMPDEST PUSH1 0x2 DUP3 PUSH1 0x3 DUP2 GT ISZERO PUSH2 0x410 JUMPI PUSH2 0x410 PUSH2 0xA2F JUMP JUMPDEST SUB PUSH2 0x431 JUMPI PUSH1 0x40 MLOAD PUSH4 0xFCE698F7 PUSH1 0xE0 SHL DUP2 MSTORE PUSH1 0x4 DUP2 ADD DUP3 SWAP1 MSTORE PUSH1 0x24 ADD PUSH2 0x213 JUMP JUMPDEST PUSH1 0x3 DUP3 PUSH1 0x3 DUP2 GT ISZERO PUSH2 0x445 JUMPI PUSH2 0x445 PUSH2 0xA2F JUMP JUMPDEST SUB PUSH2 0x466 JUMPI PUSH1 0x40 MLOAD PUSH4 0x35E2F383 PUSH1 0xE2 SHL DUP2 MSTORE PUSH1 0x4 DUP2 ADD DUP3 SWAP1 MSTORE PUSH1 0x24 ADD PUSH2 0x213 JUMP JUMPDEST POP POP JUMP JUMPDEST PUSH0 DUP1 DUP1 PUSH32 0x7FFFFFFFFFFFFFFFFFFFFFFFFFFFFFFF5D576E7357A4501DDFE92F46681B20A0 DUP5 GT ISZERO PUSH2 0x4A3 JUMPI POP PUSH0 SWAP2 POP PUSH1 0x3 SWAP1 POP DUP3 PUSH2 0x528 JUMP JUMPDEST PUSH1 0x40 DUP1 MLOAD PUSH0 DUP1 DUP3 MSTORE PUSH1 0x20 DUP3 ADD DUP1 DUP5 MSTORE DUP11 SWAP1 MSTORE PUSH1 0xFF DUP10 AND SWAP3 DUP3 ADD SWAP3 SWAP1 SWAP3 MSTORE PUSH1 0x60 DUP2 ADD DUP8 SWAP1 MSTORE PUSH1 0x80 DUP2 ADD DUP7 SWAP1 MSTORE PUSH1 0x1 SWAP1 PUSH1 0xA0 ADD PUSH1 0x20 PUSH1 0x40 MLOAD PUSH1 0x20 DUP2 SUB SWAP1 DUP1 DUP5 SUB SWAP1 DUP6 GAS STATICCALL ISZERO DUP1 ISZERO PUSH2 0x4F4 JUMPI RETURNDATASIZE PUSH0 DUP1 RETURNDATACOPY RETURNDATASIZE PUSH0 REVERT JUMPDEST POP POP PUSH1 0x40 MLOAD PUSH1 0x1F NOT ADD MLOAD SWAP2 POP POP PUSH1 0x1 PUSH1 0x1 PUSH1 0xA0 SHL SUB DUP2 AND PUSH2 0x51F JUMPI POP PUSH0 SWAP3 POP PUSH1 0x1 SWAP2 POP DUP3 SWAP1 POP PUSH2 0x528 JUMP JUMPDEST SWAP3 POP PUSH0 SWAP2 POP DUP2 SWAP1 POP JUMPDEST SWAP5 POP SWAP5 POP SWAP5 SWAP2 POP POP JUMP JUMPDEST PUSH0 DUP1 DUP4 PUSH1 0x1F DUP5 ADD SLT PUSH2 0x542 JUMPI PUSH0 DUP1 REVERT JUMPDEST POP DUP2 CALLDATALOAD PUSH1 0x1 PUSH1 0x1 PUSH1 0x40 SHL SUB DUP2 GT ISZERO PUSH2 0x558 JUMPI PUSH0 DUP1 REVERT JUMPDEST PUSH1 0x20 DUP4 ADD SWAP2 POP DUP4 PUSH1 0x20 DUP3 DUP6 ADD ADD GT ISZERO PUSH2 0x56F JUMPI PUSH0 DUP1 REVERT JUMPDEST SWAP3 POP SWAP3 SWAP1 POP JUMP JUMPDEST PUSH0 DUP1 PUSH0 DUP1 PUSH1 0x40 DUP6 DUP8 SUB SLT ISZERO PUSH2 0x589 JUMPI PUSH0 DUP1 REVERT JUMPDEST DUP5 CALLDATALOAD PUSH1 0x1 PUSH1 0x1 PUSH1 0x40 SHL SUB DUP2 GT ISZERO PUSH2 0x59E JUMPI PUSH0 DUP1 REVERT JUMPDEST PUSH2 0x5AA DUP8 DUP3 DUP9 ADD PUSH2 0x532 JUMP JUMPDEST SWAP1 SWAP6 POP SWAP4 POP POP PUSH1 0x20 DUP6 ADD CALLDATALOAD PUSH1 0x1 PUSH1 0x1 PUSH1 0x40 SHL SUB DUP2 GT ISZERO PUSH2 0x5C8 JUMPI PUSH0 DUP1 REVERT JUMPDEST PUSH2 0x5D4 DUP8 DUP3 DUP9 ADD PUSH2 0x532 JUMP JUMPDEST SWAP6 SWAP9 SWAP5 SWAP8 POP SWAP6 POP POP POP POP JUMP JUMPDEST DUP7 DUP2 MSTORE DUP6 PUSH1 0x20 DUP3 ADD MSTORE DUP5 PUSH1 0x40 DUP3 ADD MSTORE PUSH1 0xC0 PUSH1 0x60 DUP3 ADD MSTORE PUSH0 DUP5 MLOAD DUP1 PUSH1 0xC0 DUP5 ADD MSTORE DUP1 PUSH1 0x20 DUP8 ADD PUSH1 0xE0 DUP6 ADD MCOPY PUSH0 PUSH1 0xE0 DUP3 DUP6 ADD DUP2 ADD SWAP2 SWAP1 SWAP2 MSTORE PUSH1 0x80 DUP5 ADD SWAP6 SWAP1 SWAP6 MSTORE PUSH1 0x1 PUSH1 0x1 PUSH1 0xA0 SHL SUB SWAP4 SWAP1 SWAP4 AND PUSH1 0xA0 DUP4 ADD MSTORE POP PUSH1 0x1F SWAP1 SWAP2 ADD PUSH1 0x1F NOT AND ADD ADD SWAP5 SWAP4 POP POP POP POP JUMP JUMPDEST PUSH1 0x20 DUP2 MSTORE DUP2 PUSH1 0x20 DUP3 ADD MSTORE DUP2 DUP4 PUSH1 0x40 DUP4 ADD CALLDATACOPY PUSH0 DUP2 DUP4 ADD PUSH1 0x40 SWAP1 DUP2 ADD SWAP2 SWAP1 SWAP2 MSTORE PUSH1 0x1F SWAP1 SWAP3 ADD PUSH1 0x1F NOT AND ADD ADD SWAP2 SWAP1 POP JUMP JUMPDEST PUSH4 0x4E487B71 PUSH1 0xE0 SHL PUSH0 MSTORE PUSH1 0x41 PUSH1 0x4 MSTORE PUSH1 0x24 PUSH0 REVERT JUMPDEST PUSH1 0x40 MLOAD PUSH1 0x80 DUP2 ADD PUSH1 0x1 PUSH1 0x1 PUSH1 0x40 SHL SUB DUP2 GT DUP3 DUP3 LT OR ISZERO PUSH2 0x6A6 JUMPI PUSH2 0x6A6 PUSH2 0x670 JUMP JUMPDEST PUSH1 0x40 MSTORE SWAP1 JUMP JUMPDEST PUSH1 0x40 MLOAD PUSH2 0x180 DUP2 ADD PUSH1 0x1 PUSH1 0x1 PUSH1 0x40 SHL SUB DUP2 GT DUP3 DUP3 LT OR ISZERO PUSH2 0x6A6 JUMPI PUSH2 0x6A6 PUSH2 0x670 JUMP JUMPDEST PUSH1 0x40 MLOAD PUSH1 0x1F DUP3 ADD PUSH1 0x1F NOT AND DUP2 ADD PUSH1 0x1 PUSH1 0x1 PUSH1 0x40 SHL SUB DUP2 GT DUP3 DUP3 LT OR ISZERO PUSH2 0x6F7 JUMPI PUSH2 0x6F7 PUSH2 0x670 JUMP JUMPDEST PUSH1 0x40 MSTORE SWAP2 SWAP1 POP JUMP JUMPDEST PUSH0 DUP3 PUSH1 0x1F DUP4 ADD SLT PUSH2 0x70E JUMPI PUSH0 DUP1 REVERT JUMPDEST DUP2 MLOAD PUSH1 0x20 DUP4 ADD PUSH0 DUP1 PUSH1 0x1 PUSH1 0x1 PUSH1 0x40 SHL SUB DUP5 GT ISZERO PUSH2 0x72D JUMPI PUSH2 0x72D PUSH2 0x670 JUMP JUMPDEST POP PUSH1 0x1F DUP4 ADD PUSH1 0x1F NOT AND PUSH1 0x20 ADD PUSH2 0x742 DUP2 PUSH2 0x6CF JUMP JUMPDEST SWAP2 POP POP DUP3 DUP2 MSTORE DUP6 DUP4 DUP4 ADD GT ISZERO PUSH2 0x756 JUMPI PUSH0 DUP1 REVERT JUMPDEST DUP3 DUP3 PUSH1 0x20 DUP4 ADD MCOPY PUSH0 SWAP3 DUP2 ADD PUSH1 0x20 ADD SWAP3 SWAP1 SWAP3 MSTORE POP SWAP4 SWAP3 POP POP POP JUMP JUMPDEST PUSH0 DUP1 PUSH1 0x40 DUP4 DUP6 SUB SLT ISZERO PUSH2 0x781 JUMPI PUSH0 DUP1 REVERT JUMPDEST DUP3 MLOAD PUSH1 0x1 PUSH1 0x1 PUSH1 0x40 SHL SUB DUP2 GT ISZERO PUSH2 0x796 JUMPI PUSH0 DUP1 REVERT JUMPDEST DUP4 ADD PUSH1 0x80 DUP2 DUP7 SUB SLT ISZERO PUSH2 0x7A7 JUMPI PUSH0 DUP1 REVERT JUMPDEST PUSH2 0x7AF PUSH2 0x684 JUMP JUMPDEST DUP2 MLOAD DUP2 MSTORE PUSH1 0x20 DUP1 DUP4 ADD MLOAD SWAP1 DUP3 ADD MSTORE PUSH1 0x40 DUP1 DUP4 ADD MLOAD SWAP1 DUP3 ADD MSTORE PUSH1 0x60 DUP3 ADD MLOAD PUSH1 0x1 PUSH1 0x1 PUSH1 0x40 SHL SUB DUP2 GT ISZERO PUSH2 0x7DF JUMPI PUSH0 DUP1 REVERT JUMPDEST PUSH2 0x7EB DUP8 DUP3 DUP6 ADD PUSH2 0x6FF JUMP JUMPDEST PUSH1 0x60 DUP4 ADD MSTORE POP PUSH1 0x20 SWAP5 SWAP1 SWAP5 ADD MLOAD SWAP4 SWAP6 SWAP4 SWAP5 POP POP POP POP JUMP JUMPDEST PUSH0 DUP3 PUSH1 0x1F DUP4 ADD SLT PUSH2 0x811 JUMPI PUSH0 DUP1 REVERT JUMPDEST DUP2 MLOAD PUSH1 0x1 PUSH1 0x1 PUSH1 0x40 SHL SUB DUP2 GT ISZERO PUSH2 0x82A JUMPI PUSH2 0x82A PUSH2 0x670 JUMP JUMPDEST DUP1 PUSH1 0x5 SHL PUSH2 0x83A PUSH1 0x20 DUP3 ADD PUSH2 0x6CF JUMP JUMPDEST SWAP2 DUP3 MSTORE PUSH1 0x20 DUP2 DUP6 ADD DUP2 ADD SWAP3 SWAP1 DUP2 ADD SWAP1 DUP7 DUP5 GT ISZERO PUSH2 0x855 JUMPI PUSH0 DUP1 REVERT JUMPDEST PUSH1 0x20 DUP7 ADD SWAP3 POP JUMPDEST DUP4 DUP4 LT ISZERO PUSH2 0x89A JUMPI DUP3 MLOAD PUSH1 0x1 PUSH1 0x1 PUSH1 0x40 SHL SUB DUP2 GT ISZERO PUSH2 0x879 JUMPI PUSH0 DUP1 REVERT JUMPDEST PUSH2 0x888 DUP9 PUSH1 0x20 DUP4 DUP11 ADD ADD PUSH2 0x6FF JUMP JUMPDEST DUP4 MSTORE POP PUSH1 0x20 SWAP3 DUP4 ADD SWAP3 SWAP1 SWAP2 ADD SWAP1 PUSH2 0x85C JUMP JUMPDEST SWAP7 SWAP6 POP POP POP POP POP POP JUMP JUMPDEST PUSH0 DUP1 PUSH1 0x40 DUP4 DUP6 SUB SLT ISZERO PUSH2 0x8B5 JUMPI PUSH0 DUP1 REVERT JUMPDEST DUP3 MLOAD PUSH1 0x1 PUSH1 0x1 PUSH1 0x40 SHL SUB DUP2 GT ISZERO PUSH2 0x8CA JUMPI PUSH0 DUP1 REVERT JUMPDEST DUP4 ADD PUSH2 0x180 DUP2 DUP7 SUB SLT ISZERO PUSH2 0x8DC JUMPI PUSH0 DUP1 REVERT JUMPDEST PUSH2 0x8E4 PUSH2 0x6AC JUMP JUMPDEST DUP2 MLOAD PUSH1 0x1 PUSH1 0x1 PUSH1 0x40 SHL SUB DUP2 GT ISZERO PUSH2 0x8F9 JUMPI PUSH0 DUP1 REVERT JUMPDEST PUSH2 0x905 DUP8 DUP3 DUP6 ADD PUSH2 0x6FF JUMP JUMPDEST DUP3 MSTORE POP PUSH1 0x20 DUP3 DUP2 ADD MLOAD SWAP1 DUP3 ADD MSTORE PUSH1 0x40 DUP1 DUP4 ADD MLOAD SWAP1 DUP3 ADD MSTORE PUSH1 0x60 DUP1 DUP4 ADD MLOAD SWAP1 DUP3 ADD MSTORE PUSH1 0x80 DUP3 ADD MLOAD PUSH1 0x1 PUSH1 0x1 PUSH1 0x40 SHL SUB DUP2 GT ISZERO PUSH2 0x93E JUMPI PUSH0 DUP1 REVERT JUMPDEST PUSH2 0x94A DUP8 DUP3 DUP6 ADD PUSH2 0x6FF JUMP JUMPDEST PUSH1 0x80 DUP4 ADD MSTORE POP PUSH1 0xA0 DUP3 DUP2 ADD MLOAD SWAP1 DUP3 ADD MSTORE PUSH1 0xC0 DUP3 ADD MLOAD PUSH1 0x1 PUSH1 0x1 PUSH1 0x40 SHL SUB DUP2 GT ISZERO PUSH2 0x972 JUMPI PUSH0 DUP1 REVERT JUMPDEST PUSH2 0x97E DUP8 DUP3 DUP6 ADD PUSH2 0x6FF JUMP JUMPDEST PUSH1 0xC0 DUP4 ADD MSTORE POP PUSH1 0xE0 DUP3 ADD MLOAD PUSH1 0x1 PUSH1 0x1 PUSH1 0x40 SHL SUB DUP2 GT ISZERO PUSH2 0x99C JUMPI PUSH0 DUP1 REVERT JUMPDEST PUSH2 0x9A8 DUP8 DUP3 DUP6 ADD PUSH2 0x802 JUMP JUMPDEST PUSH1 0xE0 DUP4 ADD MSTORE POP PUSH2 0x100 DUP3 DUP2 ADD MLOAD SWAP1 DUP3 ADD MSTORE PUSH2 0x120 DUP3 ADD MLOAD PUSH1 0x1 PUSH1 0x1 PUSH1 0x40 SHL SUB DUP2 GT ISZERO PUSH2 0x9D2 JUMPI PUSH0 DUP1 REVERT JUMPDEST PUSH2 0x9DE DUP8 DUP3 DUP6 ADD PUSH2 0x6FF JUMP JUMPDEST PUSH2 0x120 DUP4 ADD MSTORE POP PUSH2 0x140 DUP3 ADD MLOAD PUSH1 0x1 PUSH1 0x1 PUSH1 0x40 SHL SUB DUP2 GT ISZERO PUSH2 0x9FE JUMPI PUSH0 DUP1 REVERT JUMPDEST PUSH2 0xA0A DUP8 DUP3 DUP6 ADD PUSH2 0x6FF JUMP JUMPDEST PUSH2 0x140 DUP4 ADD MSTORE POP PUSH2 0x160 SWAP2 DUP3 ADD MLOAD SWAP2 DUP2 ADD SWAP2 SWAP1 SWAP2 MSTORE PUSH1 0x20 SWAP4 SWAP1 SWAP4 ADD MLOAD SWAP3 SWAP5 SWAP3 SWAP4 POP POP POP JUMP JUMPDEST PUSH4 0x4E487B71 PUSH1 0xE0 SHL PUSH0 MSTORE PUSH1 0x21 PUSH1 0x4 MSTORE PUSH1 0x24 PUSH0 REVERT INVALID LOG2 PUSH5 0x6970667358 0x22 SLT KECCAK256 0xD DUP3 PUSH30 0xEE220BE17D505174D4CD8296532F13E17B56F18A4115F2DB3C08A351C164 PUSH20 0x6F6C634300081A00330000000000000000000000 "
		},
		"gasEstimates": {
			"creation": {
				"codeDepositCost": "536200",
				"executionCost": "566",
				"totalCost": "536766"
			},
			"external": {
				"testDecodeRequest(bytes,bytes)": "infinite"
			}
		},
		"methodIdentifiers": {
			"testDecodeRequest(bytes,bytes)": "3116dc50"
		}
	},
	"abi": [
		{
			"inputs": [],
			"name": "ECDSAInvalidSignature",
			"type": "error"
		},
		{
			"inputs": [
				{
					"internalType": "uint256",
					"name": "length",
					"type": "uint256"
				}
			],
			"name": "ECDSAInvalidSignatureLength",
			"type": "error"
		},
		{
			"inputs": [
				{
					"internalType": "bytes32",
					"name": "s",
					"type": "bytes32"
				}
			],
			"name": "ECDSAInvalidSignatureS",
			"type": "error"
		},
		{
			"anonymous": false,
			"inputs": [
				{
					"indexed": false,
					"internalType": "address",
					"name": "signer",
					"type": "address"
				}
			],
			"name": "SignerRecovered",
			"type": "event"
		},
		{
			"inputs": [
				{
					"internalType": "bytes",
					"name": "serializedReqBody",
					"type": "bytes"
				},
				{
					"internalType": "bytes",
					"name": "res",
					"type": "bytes"
				}
			],
			"name": "testDecodeRequest",
			"outputs": [
				{
					"internalType": "bytes32",
					"name": "channelId",
					"type": "bytes32"
				},
				{
					"internalType": "uint256",
					"name": "amount",
					"type": "uint256"
				},
				{
					"internalType": "bytes32",
					"name": "localBlockHash",
					"type": "bytes32"
				},
				{
					"internalType": "bytes",
					"name": "reqBytes",
					"type": "bytes"
				},
				{
					"internalType": "bytes32",
					"name": "messageHash",
					"type": "bytes32"
				},
				{
					"internalType": "address",
					"name": "signer",
					"type": "address"
				}
			],
			"stateMutability": "nonpayable",
			"type": "function"
		}
	]
}