{
	"data": {
		"bytecode": {
			"linkReferences": {
				"contracts/fraud-detector/libs/ProofHelper.sol": {
					"FraudProofHelper": [
						{
							"length": 20,
							"start": 2647
						},
						{
							"length": 20,
							"start": 2780
						}
					]
				},
				"contracts/fraud-detector/libs/decode/msgDecoding.sol": {
					"FraudProofDecoderLibrary": [
						{
							"length": 20,
							"start": 1694
						},
						{
							"length": 20,
							"start": 1935
						},
						{
							"length": 20,
							"start": 2217
						}
					]
				},
				"contracts/fraud-detector/libs/merkleverify.sol": {
					"MerkleVerify": [
						{
							"length": 20,
							"start": 424
						}
					]
				},
				"contracts/fraud-detector/newHeader.sol": {
					"HeaderDecoder": [
						{
							"length": 20,
							"start": 1263
						}
					]
				}
			},
			"object": "6080604052348015600e575f80fd5b50604051611fac380380611fac833981016040819052602b916074565b5f80546001600160a01b039384166001600160a01b0319918216179091556001805492909316911617905560a0565b80516001600160a01b0381168114606f575f80fd5b919050565b5f80604083850312156084575f80fd5b608b83605a565b9150609760208401605a565b90509250929050565b611eff806100ad5f395ff3fe608060405260043610610041575f3560e01c80633d937b4a1461004c5780636c2190ab14610080578063a1804788146100b6578063e94ad65b146100d7575f80fd5b3661004857005b5f80fd5b348015610057575f80fd5b5061006b610066366004611458565b6100f6565b60405190151581526020015b60405180910390f35b34801561008b575f80fd5b505f5461009e906001600160a01b031681565b6040516001600160a01b039091168152602001610077565b3480156100c1575f80fd5b506100d56100d03660046114da565b610202565b005b3480156100e2575f80fd5b5060015461009e906001600160a01b031681565b5f805f73__$3722496103718914d7ca0167ec75882f47$__63b7371fcc8787876040518463ffffffff1660e01b815260040161013493929190611600565b5f60405180830381865af415801561014e573d5f803e3d5ffd5b505050506040513d5f823e601f3d908101601f191682016040526101759190810190611697565b9150915081156101f5577fb4676d1a01634d88fa8d6ccb546ce14758f92286577febcdf9f1cef2bcb6955e816040516101ae91906117c5565b60405180910390a1604051600181527fc33356bc2bad2ce263b056da5d061d4e89c336823d5e77f14c1383aedb7a1b3a9060200160405180910390a16001925050506101fb565b5f925050505b9392505050565b5f61020d85856105a3565b604080516080810182525f80825260208201819052818301819052606082018190525460c08401519251631577ffaf60e11b81526004810193909352929350916001600160a01b031690632aefff5e90602401608060405180830381865afa15801561027b573d5f803e3d5ffd5b505050506040513d601f19601f8201168201806040525081019061029f919061184f565b50604084018190526001600160a01b039182166020850152911682525f0361030e5760405162461bcd60e51b815260206004820152601f60248201527f546865206368616e6e656c206d757374206e6f7420626520636c6f7365642e0060448201526064015b60405180910390fd5b5f6103208360600151845f0151610918565b9050815f01516001600160a01b0316816001600160a01b0316146103a05760405162461bcd60e51b815260206004820152603160248201527f4974206d75737420626520612076616c696420726571756573742066726f6d206044820152703a3432903634b3b43a1031b634b2b73a1760791b6064820152608401610305565b5f6103b384608001518560200151610918565b905082602001516001600160a01b0316816001600160a01b0316146104315760405162461bcd60e51b815260206004820152602e60248201527f4974206d7573742062652061207661696420726573706f6e73652066726f6d2060448201526d3a343290333ab636103737b2329760911b6064820152608401610305565b60405163326d7ceb60e11b81525f9073__$2352dfa7e72cff1f4542e4b84ebffb1ad8$__906364daf9d69061046a908a90600401611894565b606060405180830381865af4158015610485573d5f803e3d5ffd5b505050506040513d601f19601f820116820180604052508101906104a991906118a6565b60408601518151919250409081146105035760405162461bcd60e51b815260206004820152601b60248201527f43616e7420747275737420796f757220726f6f742076616c75657300000000006044820152606401610305565b5f61051d8760a00151848960e001518a6101000151610942565b90506001811515146105845760405162461bcd60e51b815260206004820152602a60248201527f46726175642070726f6f662069732076616c69642e2046756c6c206e6f64652060448201526934b9903437b732b9ba1760b11b6064820152608401610305565b610596865f015187602001518a610adb565b5050505050505050505050565b60408051610120810182526060808252602082018190525f9282018390528082018390526080820183905260a0820183905260c082019290925260e081018290526101008101919091525f8073__$cf4e464779e327044a8b0f3baedf8c509a$__63fe0103f7856040518263ffffffff1660e01b81526004016106269190611894565b5f60405180830381865af4158015610640573d5f803e3d5ffd5b505050506040513d5f823e601f3d908101601f1916820160405261066791908101906118fe565b6060850181905260405167726573706f6e736560c01b60208201529193509150602801604051602081830303815290604052805190602001206106a986610b4a565b6040516020016106b99190611990565b60408051601f198184030181529190528051602090910120141560a084018190526107f8575f8073__$cf4e464779e327044a8b0f3baedf8c509a$__6388ede4a2886040518263ffffffff1660e01b81526004016107179190611894565b5f60405180830381865af4158015610731573d5f803e3d5ffd5b505050506040513d5f823e601f3d908101601f191682016040526107589190810190611a24565b915091508160200151845f0151146107b25760405162461bcd60e51b815260206004820152601c60248201527f4368616e6e656c204944206d757374206265207468652073616d652e000000006044820152606401610305565b835160c08601526080808301518652610140830151602087015260a0830151604087015261012083015160e0808801919091529092015161010086015290840152610910565b5f8073__$cf4e464779e327044a8b0f3baedf8c509a$__63e09bc827886040518263ffffffff1660e01b81526004016108319190611894565b5f60405180830381865af415801561084b573d5f803e3d5ffd5b505050506040513d5f823e601f3d908101601f191682016040526108729190810190611baf565b915091508160200151845f0151146108cc5760405162461bcd60e51b815260206004820152601c60248201527f4368616e6e656c204944206d757374206265207468652073616d652e000000006044820152606401610305565b835160c08601526080808301518652610120830151602087015260a083015160408701526101008084015160e0808901919091529093015192860192909252908401525b505092915050565b5f805f806109268686610c7b565b9250925092506109368282610cc4565b50909150505b92915050565b6040805160018082528183019092525f9182918291816020015b606081526020019060019003908161095c57905050905084815f8151811061098657610986611d2f565b602002602001018190525086610a1b576020860151604051631ec9bda560e11b815273__$c162d7ca774e0bc768bb2a137718a87192$__91633d937b4a916109d5919088908690600401611600565b602060405180830381865af41580156109f0573d5f803e3d5ffd5b505050506040513d601f19601f82011682018060405250810190610a149190611d43565b9150610a9c565b6040808701519051631ec9bda560e11b815273__$c162d7ca774e0bc768bb2a137718a87192$__91633d937b4a91610a5a919088908690600401611600565b602060405180830381865af4158015610a75573d5f803e3d5ffd5b505050506040513d601f19601f82011682018060405250810190610a999190611d43565b91505b60405182151581527fc33356bc2bad2ce263b056da5d061d4e89c336823d5e77f14c1383aedb7a1b3a9060200160405180910390a15095945050505050565b60015460405163158efc9960e21b81526001600160a01b038481166004830152858116602483015283811660448301529091169063563bf264906064015f604051808303815f87803b158015610b2f575f80fd5b505af1158015610b41573d5f803e3d5ffd5b50505050505050565b60605f610b85610b80846040805180820182525f8082526020918201528151808301909252825182529182019181019190915290565b610d80565b90506001815111610bef5760405162461bcd60e51b815260206004820152602e60248201527f496e636f7272656374206e756d626572206f66206669656c647320696e20524c60448201526d5020656e636f646564206461746160901b6064820152608401610305565b604080516101808101825260608082525f602083018190529282018390528082018390526080820181905260a0820183905260c0820181905260e0820181905261010082018390526101208201819052610140820152610160810191909152610c70825f81518110610c6357610c63611d2f565b6020026020010151610e85565b908190529392505050565b5f805f8351604103610cb2576020840151604085015160608601515f1a610ca488828585610eff565b955095509550505050610cbd565b505081515f91506002905b9250925092565b5f826003811115610cd757610cd7611d5c565b03610ce0575050565b6001826003811115610cf457610cf4611d5c565b03610d125760405163f645eedf60e01b815260040160405180910390fd5b6002826003811115610d2657610d26611d5c565b03610d475760405163fce698f760e01b815260048101829052602401610305565b6003826003811115610d5b57610d5b611d5c565b03610d7c576040516335e2f38360e21b815260048101829052602401610305565b5050565b6060610d8b82610fc7565b610d93575f80fd5b5f610d9d83610ffe565b90505f816001600160401b03811115610db857610db8611262565b604051908082528060200260200182016040528015610dfc57816020015b604080518082019091525f8082526020820152815260200190600190039081610dd65790505b5090505f610e0d856020015161107e565b8560200151610e1c9190611d84565b90505f805b84811015610e7a57610e32836110f7565b9150604051806040016040528083815260200184815250848281518110610e5b57610e5b611d2f565b6020908102919091010152610e708284611d84565b9250600101610e21565b509195945050505050565b8051606090610e92575f80fd5b5f80610e9d8461119f565b915091505f816001600160401b03811115610eba57610eba611262565b6040519080825280601f01601f191660200182016040528015610ee4576020820181803683370190505b50905060208101610ef68482856111e1565b50949350505050565b5f80807f7fffffffffffffffffffffffffffffff5d576e7357a4501ddfe92f46681b20a0841115610f3857505f91506003905082610fbd565b604080515f808252602082018084528a905260ff891692820192909252606081018790526080810186905260019060a0016020604051602081039080840390855afa158015610f89573d5f803e3d5ffd5b5050604051601f1901519150506001600160a01b038116610fb457505f925060019150829050610fbd565b92505f91508190505b9450945094915050565b80515f908103610fd857505f919050565b602082015180515f1a9060c0821015610ff457505f9392505050565b5060019392505050565b80515f90810361100f57505f919050565b5f8061101e846020015161107e565b846020015161102d9190611d84565b90505f845f015185602001516110439190611d84565b90505b8082101561107557611057826110f7565b6110619083611d84565b91508261106d81611d97565b935050611046565b50909392505050565b80515f90811a608081101561109557505f92915050565b60b88110806110b0575060c081108015906110b0575060f881105b156110be5750600192915050565b60c08110156110eb576110d3600160b8611daf565b6110e09060ff1682611dc8565b6101fb906001611d84565b6110d3600160f8611daf565b80515f908190811a60808110156111115760019150611198565b60b881101561113757611125608082611dc8565b611130906001611d84565b9150611198565b60c08110156111645760b78103600185019450806020036101000a85510460018201810193505050611198565b60f88110156111785761112560c082611dc8565b60f78103600185019450806020036101000a855104600182018101935050505b5092915050565b5f805f6111af846020015161107e565b90505f8185602001516111c29190611d84565b90505f82865f01516111d49190611dc8565b9196919550909350505050565b805f036111ed57505050565b602081106112255782518252611204602084611d84565b9250611211602083611d84565b915061121e602082611dc8565b90506111ed565b801561125d575f6001611239836020611dc8565b61124590610100611ebe565b61124f9190611dc8565b845184518216911916178352505b505050565b634e487b7160e01b5f52604160045260245ffd5b604080519081016001600160401b038111828210171561129857611298611262565b60405290565b604051608081016001600160401b038111828210171561129857611298611262565b60405161018081016001600160401b038111828210171561129857611298611262565b60405161016081016001600160401b038111828210171561129857611298611262565b604051601f8201601f191681016001600160401b038111828210171561132e5761132e611262565b604052919050565b5f6001600160401b0382111561134e5761134e611262565b5060051b60200190565b5f6001600160401b0382111561137057611370611262565b50601f01601f191660200190565b5f82601f83011261138d575f80fd5b81356113a061139b82611358565b611306565b8181528460208386010111156113b4575f80fd5b816020850160208301375f918101602001919091529392505050565b5f82601f8301126113df575f80fd5b81356113ed61139b82611336565b8082825260208201915060208360051b86010192508583111561140e575f80fd5b602085015b8381101561144e5780356001600160401b03811115611430575f80fd5b61143f886020838a010161137e565b84525060209283019201611413565b5095945050505050565b5f805f6060848603121561146a575f80fd5b8335925060208401356001600160401b03811115611486575f80fd5b611492868287016113d0565b92505060408401356001600160401b038111156114ad575f80fd5b6114b9868287016113d0565b9150509250925092565b6001600160a01b03811681146114d7575f80fd5b50565b5f805f80608085870312156114ed575f80fd5b84356001600160401b03811115611502575f80fd5b61150e8782880161137e565b94505060208501356001600160401b03811115611529575f80fd5b6115358782880161137e565b93505060408501356001600160401b03811115611550575f80fd5b61155c8782880161137e565b925050606085013561156d816114c3565b939692955090935050565b5f81518084528060208401602086015e5f602082860101526020601f19601f83011685010191505092915050565b5f82825180855260208501945060208160051b830101602085015f5b838110156115f457601f198584030188526115de838351611578565b60209889019890935091909101906001016115c2565b50909695505050505050565b838152606060208201525f61161860608301856115a6565b828103604084015261162a81856115a6565b9695505050505050565b80518015158114611643575f80fd5b919050565b5f82601f830112611657575f80fd5b8151602083015f61166a61139b84611358565b905082815285838301111561167d575f80fd5b8282602083015e5f92810160200192909252509392505050565b5f80604083850312156116a8575f80fd5b6116b183611634565b915060208301516001600160401b038111156116cb575f80fd5b8301601f810185136116db575f80fd5b80516116e961139b82611336565b8082825260208201915060208360051b85010192508783111561170a575f80fd5b602084015b838110156117b65780516001600160401b0381111561172c575f80fd5b85016040818b03601f19011215611741575f80fd5b611749611276565b60208201516001600160401b03811115611761575f80fd5b6117708c602083860101611648565b82525060408201516001600160401b0381111561178b575f80fd5b61179a8c602083860101611648565b602083015250808552505060208301925060208101905061170f565b50809450505050509250929050565b5f602082016020835280845180835260408501915060408160051b8601019250602086015f5b8281101561184357603f1987860301845281518051604087526118116040880182611578565b905060208201519150868103602088015261182c8183611578565b9650505060209384019391909101906001016117eb565b50929695505050505050565b5f805f8060808587031215611862575f80fd5b845161186d816114c3565b602086015190945061187e816114c3565b6040860151606090960151949790965092505050565b602081525f6101fb6020830184611578565b5f60608284031280156118b7575f80fd5b50604051606081016001600160401b03811182821017156118da576118da611262565b60409081528351825260208085015190830152928301519281019290925250919050565b5f806040838503121561190f575f80fd5b82516001600160401b03811115611924575f80fd5b830160808186031215611935575f80fd5b61193d61129e565b81518152602080830151908201526040808301519082015260608201516001600160401b0381111561196d575f80fd5b61197987828501611648565b606083015250602094909401519395939450505050565b5f82518060208501845e5f920191825250919050565b5f82601f8301126119b5575f80fd5b81516119c361139b82611336565b8082825260208201915060208360051b8601019250858311156119e4575f80fd5b602085015b8381101561144e5780516001600160401b03811115611a06575f80fd5b611a15886020838a0101611648565b845250602092830192016119e9565b5f8060408385031215611a35575f80fd5b82516001600160401b03811115611a4a575f80fd5b83016101808186031215611a5c575f80fd5b611a646112c0565b81516001600160401b03811115611a79575f80fd5b611a8587828501611648565b82525060208281015190820152604080830151908201526060808301519082015260808201516001600160401b03811115611abe575f80fd5b611aca87828501611648565b60808301525060a0828101519082015260c08201516001600160401b03811115611af2575f80fd5b611afe87828501611648565b60c08301525060e08201516001600160401b03811115611b1c575f80fd5b611b28878285016119a6565b60e08301525061010082810151908201526101208201516001600160401b03811115611b52575f80fd5b611b5e87828501611648565b610120830152506101408201516001600160401b03811115611b7e575f80fd5b611b8a87828501611648565b6101408301525061016091820151918101919091526020939093015192949293505050565b5f8060408385031215611bc0575f80fd5b82516001600160401b03811115611bd5575f80fd5b83016101608186031215611be7575f80fd5b611bef6112e3565b81516001600160401b03811115611c04575f80fd5b611c1087828501611648565b82525060208281015190820152604080830151908201526060808301519082015260808201516001600160401b03811115611c49575f80fd5b611c5587828501611648565b60808301525060a0828101519082015260c08201516001600160401b03811115611c7d575f80fd5b611c8987828501611648565b60c08301525060e08201516001600160401b03811115611ca7575f80fd5b611cb3878285016119a6565b60e0830152506101008201516001600160401b03811115611cd2575f80fd5b611cde87828501611648565b610100830152506101208201516001600160401b03811115611cfe575f80fd5b611d0a87828501611648565b6101208301525061014091820151918101919091526020939093015192949293505050565b634e487b7160e01b5f52603260045260245ffd5b5f60208284031215611d53575f80fd5b6101fb82611634565b634e487b7160e01b5f52602160045260245ffd5b634e487b7160e01b5f52601160045260245ffd5b8082018082111561093c5761093c611d70565b5f60018201611da857611da8611d70565b5060010190565b60ff828116828216039081111561093c5761093c611d70565b8181038181111561093c5761093c611d70565b6001815b6001841115611e1657808504811115611dfa57611dfa611d70565b6001841615611e0857908102905b60019390931c928002611ddf565b935093915050565b5f82611e2c5750600161093c565b81611e3857505f61093c565b8160018114611e4e5760028114611e5857611e74565b600191505061093c565b60ff841115611e6957611e69611d70565b50506001821b61093c565b5060208310610133831016604e8410600b8410161715611e97575081810a61093c565b611ea35f198484611ddb565b805f1904821115611eb657611eb6611d70565b029392505050565b5f6101fb8383611e1e56fea2646970667358221220d59182d0f83c07b85c2793fd572f2ab15aae6adea52bd3bef91fc6a669c5856b64736f6c634300081a0033",
			"opcodes": "PUSH1 0x80 PUSH1 0x40 MSTORE CALLVALUE DUP1 ISZERO PUSH1 0xE JUMPI PUSH0 DUP1 REVERT JUMPDEST POP PUSH1 0x40 MLOAD PUSH2 0x1FAC CODESIZE SUB DUP1 PUSH2 0x1FAC DUP4 CODECOPY DUP2 ADD PUSH1 0x40 DUP2 SWAP1 MSTORE PUSH1 0x2B SWAP2 PUSH1 0x74 JUMP JUMPDEST PUSH0 DUP1 SLOAD PUSH1 0x1 PUSH1 0x1 PUSH1 0xA0 SHL SUB SWAP4 DUP5 AND PUSH1 0x1 PUSH1 0x1 PUSH1 0xA0 SHL SUB NOT SWAP2 DUP3 AND OR SWAP1 SWAP2 SSTORE PUSH1 0x1 DUP1 SLOAD SWAP3 SWAP1 SWAP4 AND SWAP2 AND OR SWAP1 SSTORE PUSH1 0xA0 JUMP JUMPDEST DUP1 MLOAD PUSH1 0x1 PUSH1 0x1 PUSH1 0xA0 SHL SUB DUP2 AND DUP2 EQ PUSH1 0x6F JUMPI PUSH0 DUP1 REVERT JUMPDEST SWAP2 SWAP1 POP JUMP JUMPDEST PUSH0 DUP1 PUSH1 0x40 DUP4 DUP6 SUB SLT ISZERO PUSH1 0x84 JUMPI PUSH0 DUP1 REVERT JUMPDEST PUSH1 0x8B DUP4 PUSH1 0x5A JUMP JUMPDEST SWAP2 POP PUSH1 0x97 PUSH1 0x20 DUP5 ADD PUSH1 0x5A JUMP JUMPDEST SWAP1 POP SWAP3 POP SWAP3 SWAP1 POP JUMP JUMPDEST PUSH2 0x1EFF DUP1 PUSH2 0xAD PUSH0 CODECOPY PUSH0 RETURN INVALID PUSH1 0x80 PUSH1 0x40 MSTORE PUSH1 0x4 CALLDATASIZE LT PUSH2 0x41 JUMPI PUSH0 CALLDATALOAD PUSH1 0xE0 SHR DUP1 PUSH4 0x3D937B4A EQ PUSH2 0x4C JUMPI DUP1 PUSH4 0x6C2190AB EQ PUSH2 0x80 JUMPI DUP1 PUSH4 0xA1804788 EQ PUSH2 0xB6 JUMPI DUP1 PUSH4 0xE94AD65B EQ PUSH2 0xD7 JUMPI PUSH0 DUP1 REVERT JUMPDEST CALLDATASIZE PUSH2 0x48 JUMPI STOP JUMPDEST PUSH0 DUP1 REVERT JUMPDEST CALLVALUE DUP1 ISZERO PUSH2 0x57 JUMPI PUSH0 DUP1 REVERT JUMPDEST POP PUSH2 0x6B PUSH2 0x66 CALLDATASIZE PUSH1 0x4 PUSH2 0x1458 JUMP JUMPDEST PUSH2 0xF6 JUMP JUMPDEST PUSH1 0x40 MLOAD SWAP1 ISZERO ISZERO DUP2 MSTORE PUSH1 0x20 ADD JUMPDEST PUSH1 0x40 MLOAD DUP1 SWAP2 SUB SWAP1 RETURN JUMPDEST CALLVALUE DUP1 ISZERO PUSH2 0x8B JUMPI PUSH0 DUP1 REVERT JUMPDEST POP PUSH0 SLOAD PUSH2 0x9E SWAP1 PUSH1 0x1 PUSH1 0x1 PUSH1 0xA0 SHL SUB AND DUP2 JUMP JUMPDEST PUSH1 0x40 MLOAD PUSH1 0x1 PUSH1 0x1 PUSH1 0xA0 SHL SUB SWAP1 SWAP2 AND DUP2 MSTORE PUSH1 0x20 ADD PUSH2 0x77 JUMP JUMPDEST CALLVALUE DUP1 ISZERO PUSH2 0xC1 JUMPI PUSH0 DUP1 REVERT JUMPDEST POP PUSH2 0xD5 PUSH2 0xD0 CALLDATASIZE PUSH1 0x4 PUSH2 0x14DA JUMP JUMPDEST PUSH2 0x202 JUMP JUMPDEST STOP JUMPDEST CALLVALUE DUP1 ISZERO PUSH2 0xE2 JUMPI PUSH0 DUP1 REVERT JUMPDEST POP PUSH1 0x1 SLOAD PUSH2 0x9E SWAP1 PUSH1 0x1 PUSH1 0x1 PUSH1 0xA0 SHL SUB AND DUP2 JUMP JUMPDEST PUSH0 DUP1 PUSH0 PUSH20 0x0 PUSH4 0xB7371FCC DUP8 DUP8 DUP8 PUSH1 0x40 MLOAD DUP5 PUSH4 0xFFFFFFFF AND PUSH1 0xE0 SHL DUP2 MSTORE PUSH1 0x4 ADD PUSH2 0x134 SWAP4 SWAP3 SWAP2 SWAP1 PUSH2 0x1600 JUMP JUMPDEST PUSH0 PUSH1 0x40 MLOAD DUP1 DUP4 SUB DUP2 DUP7 GAS DELEGATECALL ISZERO DUP1 ISZERO PUSH2 0x14E JUMPI RETURNDATASIZE PUSH0 DUP1 RETURNDATACOPY RETURNDATASIZE PUSH0 REVERT JUMPDEST POP POP POP POP PUSH1 0x40 MLOAD RETURNDATASIZE PUSH0 DUP3 RETURNDATACOPY PUSH1 0x1F RETURNDATASIZE SWAP1 DUP2 ADD PUSH1 0x1F NOT AND DUP3 ADD PUSH1 0x40 MSTORE PUSH2 0x175 SWAP2 SWAP1 DUP2 ADD SWAP1 PUSH2 0x1697 JUMP JUMPDEST SWAP2 POP SWAP2 POP DUP2 ISZERO PUSH2 0x1F5 JUMPI PUSH32 0xB4676D1A01634D88FA8D6CCB546CE14758F92286577FEBCDF9F1CEF2BCB6955E DUP2 PUSH1 0x40 MLOAD PUSH2 0x1AE SWAP2 SWAP1 PUSH2 0x17C5 JUMP JUMPDEST PUSH1 0x40 MLOAD DUP1 SWAP2 SUB SWAP1 LOG1 PUSH1 0x40 MLOAD PUSH1 0x1 DUP2 MSTORE PUSH32 0xC33356BC2BAD2CE263B056DA5D061D4E89C336823D5E77F14C1383AEDB7A1B3A SWAP1 PUSH1 0x20 ADD PUSH1 0x40 MLOAD DUP1 SWAP2 SUB SWAP1 LOG1 PUSH1 0x1 SWAP3 POP POP POP PUSH2 0x1FB JUMP JUMPDEST PUSH0 SWAP3 POP POP POP JUMPDEST SWAP4 SWAP3 POP POP POP JUMP JUMPDEST PUSH0 PUSH2 0x20D DUP6 DUP6 PUSH2 0x5A3 JUMP JUMPDEST PUSH1 0x40 DUP1 MLOAD PUSH1 0x80 DUP2 ADD DUP3 MSTORE PUSH0 DUP1 DUP3 MSTORE PUSH1 0x20 DUP3 ADD DUP2 SWAP1 MSTORE DUP2 DUP4 ADD DUP2 SWAP1 MSTORE PUSH1 0x60 DUP3 ADD DUP2 SWAP1 MSTORE SLOAD PUSH1 0xC0 DUP5 ADD MLOAD SWAP3 MLOAD PUSH4 0x1577FFAF PUSH1 0xE1 SHL DUP2 MSTORE PUSH1 0x4 DUP2 ADD SWAP4 SWAP1 SWAP4 MSTORE SWAP3 SWAP4 POP SWAP2 PUSH1 0x1 PUSH1 0x1 PUSH1 0xA0 SHL SUB AND SWAP1 PUSH4 0x2AEFFF5E SWAP1 PUSH1 0x24 ADD PUSH1 0x80 PUSH1 0x40 MLOAD DUP1 DUP4 SUB DUP2 DUP7 GAS STATICCALL ISZERO DUP1 ISZERO PUSH2 0x27B JUMPI RETURNDATASIZE PUSH0 DUP1 RETURNDATACOPY RETURNDATASIZE PUSH0 REVERT JUMPDEST POP POP POP POP PUSH1 0x40 MLOAD RETURNDATASIZE PUSH1 0x1F NOT PUSH1 0x1F DUP3 ADD AND DUP3 ADD DUP1 PUSH1 0x40 MSTORE POP DUP2 ADD SWAP1 PUSH2 0x29F SWAP2 SWAP1 PUSH2 0x184F JUMP JUMPDEST POP PUSH1 0x40 DUP5 ADD DUP2 SWAP1 MSTORE PUSH1 0x1 PUSH1 0x1 PUSH1 0xA0 SHL SUB SWAP2 DUP3 AND PUSH1 0x20 DUP6 ADD MSTORE SWAP2 AND DUP3 MSTORE PUSH0 SUB PUSH2 0x30E JUMPI PUSH1 0x40 MLOAD PUSH3 0x461BCD PUSH1 0xE5 SHL DUP2 MSTORE PUSH1 0x20 PUSH1 0x4 DUP3 ADD MSTORE PUSH1 0x1F PUSH1 0x24 DUP3 ADD MSTORE PUSH32 0x546865206368616E6E656C206D757374206E6F7420626520636C6F7365642E00 PUSH1 0x44 DUP3 ADD MSTORE PUSH1 0x64 ADD JUMPDEST PUSH1 0x40 MLOAD DUP1 SWAP2 SUB SWAP1 REVERT JUMPDEST PUSH0 PUSH2 0x320 DUP4 PUSH1 0x60 ADD MLOAD DUP5 PUSH0 ADD MLOAD PUSH2 0x918 JUMP JUMPDEST SWAP1 POP DUP2 PUSH0 ADD MLOAD PUSH1 0x1 PUSH1 0x1 PUSH1 0xA0 SHL SUB AND DUP2 PUSH1 0x1 PUSH1 0x1 PUSH1 0xA0 SHL SUB AND EQ PUSH2 0x3A0 JUMPI PUSH1 0x40 MLOAD PUSH3 0x461BCD PUSH1 0xE5 SHL DUP2 MSTORE PUSH1 0x20 PUSH1 0x4 DUP3 ADD MSTORE PUSH1 0x31 PUSH1 0x24 DUP3 ADD MSTORE PUSH32 0x4974206D75737420626520612076616C696420726571756573742066726F6D20 PUSH1 0x44 DUP3 ADD MSTORE PUSH17 0x3A3432903634B3B43A1031B634B2B73A17 PUSH1 0x79 SHL PUSH1 0x64 DUP3 ADD MSTORE PUSH1 0x84 ADD PUSH2 0x305 JUMP JUMPDEST PUSH0 PUSH2 0x3B3 DUP5 PUSH1 0x80 ADD MLOAD DUP6 PUSH1 0x20 ADD MLOAD PUSH2 0x918 JUMP JUMPDEST SWAP1 POP DUP3 PUSH1 0x20 ADD MLOAD PUSH1 0x1 PUSH1 0x1 PUSH1 0xA0 SHL SUB AND DUP2 PUSH1 0x1 PUSH1 0x1 PUSH1 0xA0 SHL SUB AND EQ PUSH2 0x431 JUMPI PUSH1 0x40 MLOAD PUSH3 0x461BCD PUSH1 0xE5 SHL DUP2 MSTORE PUSH1 0x20 PUSH1 0x4 DUP3 ADD MSTORE PUSH1 0x2E PUSH1 0x24 DUP3 ADD MSTORE PUSH32 0x4974206D7573742062652061207661696420726573706F6E73652066726F6D20 PUSH1 0x44 DUP3 ADD MSTORE PUSH14 0x3A343290333AB636103737B23297 PUSH1 0x91 SHL PUSH1 0x64 DUP3 ADD MSTORE PUSH1 0x84 ADD PUSH2 0x305 JUMP JUMPDEST PUSH1 0x40 MLOAD PUSH4 0x326D7CEB PUSH1 0xE1 SHL DUP2 MSTORE PUSH0 SWAP1 PUSH20 0x0 SWAP1 PUSH4 0x64DAF9D6 SWAP1 PUSH2 0x46A SWAP1 DUP11 SWAP1 PUSH1 0x4 ADD PUSH2 0x1894 JUMP JUMPDEST PUSH1 0x60 PUSH1 0x40 MLOAD DUP1 DUP4 SUB DUP2 DUP7 GAS DELEGATECALL ISZERO DUP1 ISZERO PUSH2 0x485 JUMPI RETURNDATASIZE PUSH0 DUP1 RETURNDATACOPY RETURNDATASIZE PUSH0 REVERT JUMPDEST POP POP POP POP PUSH1 0x40 MLOAD RETURNDATASIZE PUSH1 0x1F NOT PUSH1 0x1F DUP3 ADD AND DUP3 ADD DUP1 PUSH1 0x40 MSTORE POP DUP2 ADD SWAP1 PUSH2 0x4A9 SWAP2 SWAP1 PUSH2 0x18A6 JUMP JUMPDEST PUSH1 0x40 DUP7 ADD MLOAD DUP2 MLOAD SWAP2 SWAP3 POP BLOCKHASH SWAP1 DUP2 EQ PUSH2 0x503 JUMPI PUSH1 0x40 MLOAD PUSH3 0x461BCD PUSH1 0xE5 SHL DUP2 MSTORE PUSH1 0x20 PUSH1 0x4 DUP3 ADD MSTORE PUSH1 0x1B PUSH1 0x24 DUP3 ADD MSTORE PUSH32 0x43616E7420747275737420796F757220726F6F742076616C7565730000000000 PUSH1 0x44 DUP3 ADD MSTORE PUSH1 0x64 ADD PUSH2 0x305 JUMP JUMPDEST PUSH0 PUSH2 0x51D DUP8 PUSH1 0xA0 ADD MLOAD DUP5 DUP10 PUSH1 0xE0 ADD MLOAD DUP11 PUSH2 0x100 ADD MLOAD PUSH2 0x942 JUMP JUMPDEST SWAP1 POP PUSH1 0x1 DUP2 ISZERO ISZERO EQ PUSH2 0x584 JUMPI PUSH1 0x40 MLOAD PUSH3 0x461BCD PUSH1 0xE5 SHL DUP2 MSTORE PUSH1 0x20 PUSH1 0x4 DUP3 ADD MSTORE PUSH1 0x2A PUSH1 0x24 DUP3 ADD MSTORE PUSH32 0x46726175642070726F6F662069732076616C69642E2046756C6C206E6F646520 PUSH1 0x44 DUP3 ADD MSTORE PUSH10 0x34B9903437B732B9BA17 PUSH1 0xB1 SHL PUSH1 0x64 DUP3 ADD MSTORE PUSH1 0x84 ADD PUSH2 0x305 JUMP JUMPDEST PUSH2 0x596 DUP7 PUSH0 ADD MLOAD DUP8 PUSH1 0x20 ADD MLOAD DUP11 PUSH2 0xADB JUMP JUMPDEST POP POP POP POP POP POP POP POP POP POP POP JUMP JUMPDEST PUSH1 0x40 DUP1 MLOAD PUSH2 0x120 DUP2 ADD DUP3 MSTORE PUSH1 0x60 DUP1 DUP3 MSTORE PUSH1 0x20 DUP3 ADD DUP2 SWAP1 MSTORE PUSH0 SWAP3 DUP3 ADD DUP4 SWAP1 MSTORE DUP1 DUP3 ADD DUP4 SWAP1 MSTORE PUSH1 0x80 DUP3 ADD DUP4 SWAP1 MSTORE PUSH1 0xA0 DUP3 ADD DUP4 SWAP1 MSTORE PUSH1 0xC0 DUP3 ADD SWAP3 SWAP1 SWAP3 MSTORE PUSH1 0xE0 DUP2 ADD DUP3 SWAP1 MSTORE PUSH2 0x100 DUP2 ADD SWAP2 SWAP1 SWAP2 MSTORE PUSH0 DUP1 PUSH20 0x0 PUSH4 0xFE0103F7 DUP6 PUSH1 0x40 MLOAD DUP3 PUSH4 0xFFFFFFFF AND PUSH1 0xE0 SHL DUP2 MSTORE PUSH1 0x4 ADD PUSH2 0x626 SWAP2 SWAP1 PUSH2 0x1894 JUMP JUMPDEST PUSH0 PUSH1 0x40 MLOAD DUP1 DUP4 SUB DUP2 DUP7 GAS DELEGATECALL ISZERO DUP1 ISZERO PUSH2 0x640 JUMPI RETURNDATASIZE PUSH0 DUP1 RETURNDATACOPY RETURNDATASIZE PUSH0 REVERT JUMPDEST POP POP POP POP PUSH1 0x40 MLOAD RETURNDATASIZE PUSH0 DUP3 RETURNDATACOPY PUSH1 0x1F RETURNDATASIZE SWAP1 DUP2 ADD PUSH1 0x1F NOT AND DUP3 ADD PUSH1 0x40 MSTORE PUSH2 0x667 SWAP2 SWAP1 DUP2 ADD SWAP1 PUSH2 0x18FE JUMP JUMPDEST PUSH1 0x60 DUP6 ADD DUP2 SWAP1 MSTORE PUSH1 0x40 MLOAD PUSH8 0x726573706F6E7365 PUSH1 0xC0 SHL PUSH1 0x20 DUP3 ADD MSTORE SWAP2 SWAP4 POP SWAP2 POP PUSH1 0x28 ADD PUSH1 0x40 MLOAD PUSH1 0x20 DUP2 DUP4 SUB SUB DUP2 MSTORE SWAP1 PUSH1 0x40 MSTORE DUP1 MLOAD SWAP1 PUSH1 0x20 ADD KECCAK256 PUSH2 0x6A9 DUP7 PUSH2 0xB4A JUMP JUMPDEST PUSH1 0x40 MLOAD PUSH1 0x20 ADD PUSH2 0x6B9 SWAP2 SWAP1 PUSH2 0x1990 JUMP JUMPDEST PUSH1 0x40 DUP1 MLOAD PUSH1 0x1F NOT DUP2 DUP5 SUB ADD DUP2 MSTORE SWAP2 SWAP1 MSTORE DUP1 MLOAD PUSH1 0x20 SWAP1 SWAP2 ADD KECCAK256 EQ ISZERO PUSH1 0xA0 DUP5 ADD DUP2 SWAP1 MSTORE PUSH2 0x7F8 JUMPI PUSH0 DUP1 PUSH20 0x0 PUSH4 0x88EDE4A2 DUP9 PUSH1 0x40 MLOAD DUP3 PUSH4 0xFFFFFFFF AND PUSH1 0xE0 SHL DUP2 MSTORE PUSH1 0x4 ADD PUSH2 0x717 SWAP2 SWAP1 PUSH2 0x1894 JUMP JUMPDEST PUSH0 PUSH1 0x40 MLOAD DUP1 DUP4 SUB DUP2 DUP7 GAS DELEGATECALL ISZERO DUP1 ISZERO PUSH2 0x731 JUMPI RETURNDATASIZE PUSH0 DUP1 RETURNDATACOPY RETURNDATASIZE PUSH0 REVERT JUMPDEST POP POP POP POP PUSH1 0x40 MLOAD RETURNDATASIZE PUSH0 DUP3 RETURNDATACOPY PUSH1 0x1F RETURNDATASIZE SWAP1 DUP2 ADD PUSH1 0x1F NOT AND DUP3 ADD PUSH1 0x40 MSTORE PUSH2 0x758 SWAP2 SWAP1 DUP2 ADD SWAP1 PUSH2 0x1A24 JUMP JUMPDEST SWAP2 POP SWAP2 POP DUP2 PUSH1 0x20 ADD MLOAD DUP5 PUSH0 ADD MLOAD EQ PUSH2 0x7B2 JUMPI PUSH1 0x40 MLOAD PUSH3 0x461BCD PUSH1 0xE5 SHL DUP2 MSTORE PUSH1 0x20 PUSH1 0x4 DUP3 ADD MSTORE PUSH1 0x1C PUSH1 0x24 DUP3 ADD MSTORE PUSH32 0x4368616E6E656C204944206D757374206265207468652073616D652E00000000 PUSH1 0x44 DUP3 ADD MSTORE PUSH1 0x64 ADD PUSH2 0x305 JUMP JUMPDEST DUP4 MLOAD PUSH1 0xC0 DUP7 ADD MSTORE PUSH1 0x80 DUP1 DUP4 ADD MLOAD DUP7 MSTORE PUSH2 0x140 DUP4 ADD MLOAD PUSH1 0x20 DUP8 ADD MSTORE PUSH1 0xA0 DUP4 ADD MLOAD PUSH1 0x40 DUP8 ADD MSTORE PUSH2 0x120 DUP4 ADD MLOAD PUSH1 0xE0 DUP1 DUP9 ADD SWAP2 SWAP1 SWAP2 MSTORE SWAP1 SWAP3 ADD MLOAD PUSH2 0x100 DUP7 ADD MSTORE SWAP1 DUP5 ADD MSTORE PUSH2 0x910 JUMP JUMPDEST PUSH0 DUP1 PUSH20 0x0 PUSH4 0xE09BC827 DUP9 PUSH1 0x40 MLOAD DUP3 PUSH4 0xFFFFFFFF AND PUSH1 0xE0 SHL DUP2 MSTORE PUSH1 0x4 ADD PUSH2 0x831 SWAP2 SWAP1 PUSH2 0x1894 JUMP JUMPDEST PUSH0 PUSH1 0x40 MLOAD DUP1 DUP4 SUB DUP2 DUP7 GAS DELEGATECALL ISZERO DUP1 ISZERO PUSH2 0x84B JUMPI RETURNDATASIZE PUSH0 DUP1 RETURNDATACOPY RETURNDATASIZE PUSH0 REVERT JUMPDEST POP POP POP POP PUSH1 0x40 MLOAD RETURNDATASIZE PUSH0 DUP3 RETURNDATACOPY PUSH1 0x1F RETURNDATASIZE SWAP1 DUP2 ADD PUSH1 0x1F NOT AND DUP3 ADD PUSH1 0x40 MSTORE PUSH2 0x872 SWAP2 SWAP1 DUP2 ADD SWAP1 PUSH2 0x1BAF JUMP JUMPDEST SWAP2 POP SWAP2 POP DUP2 PUSH1 0x20 ADD MLOAD DUP5 PUSH0 ADD MLOAD EQ PUSH2 0x8CC JUMPI PUSH1 0x40 MLOAD PUSH3 0x461BCD PUSH1 0xE5 SHL DUP2 MSTORE PUSH1 0x20 PUSH1 0x4 DUP3 ADD MSTORE PUSH1 0x1C PUSH1 0x24 DUP3 ADD MSTORE PUSH32 0x4368616E6E656C204944206D757374206265207468652073616D652E00000000 PUSH1 0x44 DUP3 ADD MSTORE PUSH1 0x64 ADD PUSH2 0x305 JUMP JUMPDEST DUP4 MLOAD PUSH1 0xC0 DUP7 ADD MSTORE PUSH1 0x80 DUP1 DUP4 ADD MLOAD DUP7 MSTORE PUSH2 0x120 DUP4 ADD MLOAD PUSH1 0x20 DUP8 ADD MSTORE PUSH1 0xA0 DUP4 ADD MLOAD PUSH1 0x40 DUP8 ADD MSTORE PUSH2 0x100 DUP1 DUP5 ADD MLOAD PUSH1 0xE0 DUP1 DUP10 ADD SWAP2 SWAP1 SWAP2 MSTORE SWAP1 SWAP4 ADD MLOAD SWAP3 DUP7 ADD SWAP3 SWAP1 SWAP3 MSTORE SWAP1 DUP5 ADD MSTORE JUMPDEST POP POP SWAP3 SWAP2 POP POP JUMP JUMPDEST PUSH0 DUP1 PUSH0 DUP1 PUSH2 0x926 DUP7 DUP7 PUSH2 0xC7B JUMP JUMPDEST SWAP3 POP SWAP3 POP SWAP3 POP PUSH2 0x936 DUP3 DUP3 PUSH2 0xCC4 JUMP JUMPDEST POP SWAP1 SWAP2 POP POP JUMPDEST SWAP3 SWAP2 POP POP JUMP JUMPDEST PUSH1 0x40 DUP1 MLOAD PUSH1 0x1 DUP1 DUP3 MSTORE DUP2 DUP4 ADD SWAP1 SWAP3 MSTORE PUSH0 SWAP2 DUP3 SWAP2 DUP3 SWAP2 DUP2 PUSH1 0x20 ADD JUMPDEST PUSH1 0x60 DUP2 MSTORE PUSH1 0x20 ADD SWAP1 PUSH1 0x1 SWAP1 SUB SWAP1 DUP2 PUSH2 0x95C JUMPI SWAP1 POP POP SWAP1 POP DUP5 DUP2 PUSH0 DUP2 MLOAD DUP2 LT PUSH2 0x986 JUMPI PUSH2 0x986 PUSH2 0x1D2F JUMP JUMPDEST PUSH1 0x20 MUL PUSH1 0x20 ADD ADD DUP2 SWAP1 MSTORE POP DUP7 PUSH2 0xA1B JUMPI PUSH1 0x20 DUP7 ADD MLOAD PUSH1 0x40 MLOAD PUSH4 0x1EC9BDA5 PUSH1 0xE1 SHL DUP2 MSTORE PUSH20 0x0 SWAP2 PUSH4 0x3D937B4A SWAP2 PUSH2 0x9D5 SWAP2 SWAP1 DUP9 SWAP1 DUP7 SWAP1 PUSH1 0x4 ADD PUSH2 0x1600 JUMP JUMPDEST PUSH1 0x20 PUSH1 0x40 MLOAD DUP1 DUP4 SUB DUP2 DUP7 GAS DELEGATECALL ISZERO DUP1 ISZERO PUSH2 0x9F0 JUMPI RETURNDATASIZE PUSH0 DUP1 RETURNDATACOPY RETURNDATASIZE PUSH0 REVERT JUMPDEST POP POP POP POP PUSH1 0x40 MLOAD RETURNDATASIZE PUSH1 0x1F NOT PUSH1 0x1F DUP3 ADD AND DUP3 ADD DUP1 PUSH1 0x40 MSTORE POP DUP2 ADD SWAP1 PUSH2 0xA14 SWAP2 SWAP1 PUSH2 0x1D43 JUMP JUMPDEST SWAP2 POP PUSH2 0xA9C JUMP JUMPDEST PUSH1 0x40 DUP1 DUP8 ADD MLOAD SWAP1 MLOAD PUSH4 0x1EC9BDA5 PUSH1 0xE1 SHL DUP2 MSTORE PUSH20 0x0 SWAP2 PUSH4 0x3D937B4A SWAP2 PUSH2 0xA5A SWAP2 SWAP1 DUP9 SWAP1 DUP7 SWAP1 PUSH1 0x4 ADD PUSH2 0x1600 JUMP JUMPDEST PUSH1 0x20 PUSH1 0x40 MLOAD DUP1 DUP4 SUB DUP2 DUP7 GAS DELEGATECALL ISZERO DUP1 ISZERO PUSH2 0xA75 JUMPI RETURNDATASIZE PUSH0 DUP1 RETURNDATACOPY RETURNDATASIZE PUSH0 REVERT JUMPDEST POP POP POP POP PUSH1 0x40 MLOAD RETURNDATASIZE PUSH1 0x1F NOT PUSH1 0x1F DUP3 ADD AND DUP3 ADD DUP1 PUSH1 0x40 MSTORE POP DUP2 ADD SWAP1 PUSH2 0xA99 SWAP2 SWAP1 PUSH2 0x1D43 JUMP JUMPDEST SWAP2 POP JUMPDEST PUSH1 0x40 MLOAD DUP3 ISZERO ISZERO DUP2 MSTORE PUSH32 0xC33356BC2BAD2CE263B056DA5D061D4E89C336823D5E77F14C1383AEDB7A1B3A SWAP1 PUSH1 0x20 ADD PUSH1 0x40 MLOAD DUP1 SWAP2 SUB SWAP1 LOG1 POP SWAP6 SWAP5 POP POP POP POP POP JUMP JUMPDEST PUSH1 0x1 SLOAD PUSH1 0x40 MLOAD PUSH4 0x158EFC99 PUSH1 0xE2 SHL DUP2 MSTORE PUSH1 0x1 PUSH1 0x1 PUSH1 0xA0 SHL SUB DUP5 DUP2 AND PUSH1 0x4 DUP4 ADD MSTORE DUP6 DUP2 AND PUSH1 0x24 DUP4 ADD MSTORE DUP4 DUP2 AND PUSH1 0x44 DUP4 ADD MSTORE SWAP1 SWAP2 AND SWAP1 PUSH4 0x563BF264 SWAP1 PUSH1 0x64 ADD PUSH0 PUSH1 0x40 MLOAD DUP1 DUP4 SUB DUP2 PUSH0 DUP8 DUP1 EXTCODESIZE ISZERO DUP1 ISZERO PUSH2 0xB2F JUMPI PUSH0 DUP1 REVERT JUMPDEST POP GAS CALL ISZERO DUP1 ISZERO PUSH2 0xB41 JUMPI RETURNDATASIZE PUSH0 DUP1 RETURNDATACOPY RETURNDATASIZE PUSH0 REVERT JUMPDEST POP POP POP POP POP POP POP JUMP JUMPDEST PUSH1 0x60 PUSH0 PUSH2 0xB85 PUSH2 0xB80 DUP5 PUSH1 0x40 DUP1 MLOAD DUP1 DUP3 ADD DUP3 MSTORE PUSH0 DUP1 DUP3 MSTORE PUSH1 0x20 SWAP2 DUP3 ADD MSTORE DUP2 MLOAD DUP1 DUP4 ADD SWAP1 SWAP3 MSTORE DUP3 MLOAD DUP3 MSTORE SWAP2 DUP3 ADD SWAP2 DUP2 ADD SWAP2 SWAP1 SWAP2 MSTORE SWAP1 JUMP JUMPDEST PUSH2 0xD80 JUMP JUMPDEST SWAP1 POP PUSH1 0x1 DUP2 MLOAD GT PUSH2 0xBEF JUMPI PUSH1 0x40 MLOAD PUSH3 0x461BCD PUSH1 0xE5 SHL DUP2 MSTORE PUSH1 0x20 PUSH1 0x4 DUP3 ADD MSTORE PUSH1 0x2E PUSH1 0x24 DUP3 ADD MSTORE PUSH32 0x496E636F7272656374206E756D626572206F66206669656C647320696E20524C PUSH1 0x44 DUP3 ADD MSTORE PUSH14 0x5020656E636F6465642064617461 PUSH1 0x90 SHL PUSH1 0x64 DUP3 ADD MSTORE PUSH1 0x84 ADD PUSH2 0x305 JUMP JUMPDEST PUSH1 0x40 DUP1 MLOAD PUSH2 0x180 DUP2 ADD DUP3 MSTORE PUSH1 0x60 DUP1 DUP3 MSTORE PUSH0 PUSH1 0x20 DUP4 ADD DUP2 SWAP1 MSTORE SWAP3 DUP3 ADD DUP4 SWAP1 MSTORE DUP1 DUP3 ADD DUP4 SWAP1 MSTORE PUSH1 0x80 DUP3 ADD DUP2 SWAP1 MSTORE PUSH1 0xA0 DUP3 ADD DUP4 SWAP1 MSTORE PUSH1 0xC0 DUP3 ADD DUP2 SWAP1 MSTORE PUSH1 0xE0 DUP3 ADD DUP2 SWAP1 MSTORE PUSH2 0x100 DUP3 ADD DUP4 SWAP1 MSTORE PUSH2 0x120 DUP3 ADD DUP2 SWAP1 MSTORE PUSH2 0x140 DUP3 ADD MSTORE PUSH2 0x160 DUP2 ADD SWAP2 SWAP1 SWAP2 MSTORE PUSH2 0xC70 DUP3 PUSH0 DUP2 MLOAD DUP2 LT PUSH2 0xC63 JUMPI PUSH2 0xC63 PUSH2 0x1D2F JUMP JUMPDEST PUSH1 0x20 MUL PUSH1 0x20 ADD ADD MLOAD PUSH2 0xE85 JUMP JUMPDEST SWAP1 DUP2 SWAP1 MSTORE SWAP4 SWAP3 POP POP POP JUMP JUMPDEST PUSH0 DUP1 PUSH0 DUP4 MLOAD PUSH1 0x41 SUB PUSH2 0xCB2 JUMPI PUSH1 0x20 DUP5 ADD MLOAD PUSH1 0x40 DUP6 ADD MLOAD PUSH1 0x60 DUP7 ADD MLOAD PUSH0 BYTE PUSH2 0xCA4 DUP9 DUP3 DUP6 DUP6 PUSH2 0xEFF JUMP JUMPDEST SWAP6 POP SWAP6 POP SWAP6 POP POP POP POP PUSH2 0xCBD JUMP JUMPDEST POP POP DUP2 MLOAD PUSH0 SWAP2 POP PUSH1 0x2 SWAP1 JUMPDEST SWAP3 POP SWAP3 POP SWAP3 JUMP JUMPDEST PUSH0 DUP3 PUSH1 0x3 DUP2 GT ISZERO PUSH2 0xCD7 JUMPI PUSH2 0xCD7 PUSH2 0x1D5C JUMP JUMPDEST SUB PUSH2 0xCE0 JUMPI POP POP JUMP JUMPDEST PUSH1 0x1 DUP3 PUSH1 0x3 DUP2 GT ISZERO PUSH2 0xCF4 JUMPI PUSH2 0xCF4 PUSH2 0x1D5C JUMP JUMPDEST SUB PUSH2 0xD12 JUMPI PUSH1 0x40 MLOAD PUSH4 0xF645EEDF PUSH1 0xE0 SHL DUP2 MSTORE PUSH1 0x4 ADD PUSH1 0x40 MLOAD DUP1 SWAP2 SUB SWAP1 REVERT JUMPDEST PUSH1 0x2 DUP3 PUSH1 0x3 DUP2 GT ISZERO PUSH2 0xD26 JUMPI PUSH2 0xD26 PUSH2 0x1D5C JUMP JUMPDEST SUB PUSH2 0xD47 JUMPI PUSH1 0x40 MLOAD PUSH4 0xFCE698F7 PUSH1 0xE0 SHL DUP2 MSTORE PUSH1 0x4 DUP2 ADD DUP3 SWAP1 MSTORE PUSH1 0x24 ADD PUSH2 0x305 JUMP JUMPDEST PUSH1 0x3 DUP3 PUSH1 0x3 DUP2 GT ISZERO PUSH2 0xD5B JUMPI PUSH2 0xD5B PUSH2 0x1D5C JUMP JUMPDEST SUB PUSH2 0xD7C JUMPI PUSH1 0x40 MLOAD PUSH4 0x35E2F383 PUSH1 0xE2 SHL DUP2 MSTORE PUSH1 0x4 DUP2 ADD DUP3 SWAP1 MSTORE PUSH1 0x24 ADD PUSH2 0x305 JUMP JUMPDEST POP POP JUMP JUMPDEST PUSH1 0x60 PUSH2 0xD8B DUP3 PUSH2 0xFC7 JUMP JUMPDEST PUSH2 0xD93 JUMPI PUSH0 DUP1 REVERT JUMPDEST PUSH0 PUSH2 0xD9D DUP4 PUSH2 0xFFE JUMP JUMPDEST SWAP1 POP PUSH0 DUP2 PUSH1 0x1 PUSH1 0x1 PUSH1 0x40 SHL SUB DUP2 GT ISZERO PUSH2 0xDB8 JUMPI PUSH2 0xDB8 PUSH2 0x1262 JUMP JUMPDEST PUSH1 0x40 MLOAD SWAP1 DUP1 DUP3 MSTORE DUP1 PUSH1 0x20 MUL PUSH1 0x20 ADD DUP3 ADD PUSH1 0x40 MSTORE DUP1 ISZERO PUSH2 0xDFC JUMPI DUP2 PUSH1 0x20 ADD JUMPDEST PUSH1 0x40 DUP1 MLOAD DUP1 DUP3 ADD SWAP1 SWAP2 MSTORE PUSH0 DUP1 DUP3 MSTORE PUSH1 0x20 DUP3 ADD MSTORE DUP2 MSTORE PUSH1 0x20 ADD SWAP1 PUSH1 0x1 SWAP1 SUB SWAP1 DUP2 PUSH2 0xDD6 JUMPI SWAP1 POP JUMPDEST POP SWAP1 POP PUSH0 PUSH2 0xE0D DUP6 PUSH1 0x20 ADD MLOAD PUSH2 0x107E JUMP JUMPDEST DUP6 PUSH1 0x20 ADD MLOAD PUSH2 0xE1C SWAP2 SWAP1 PUSH2 0x1D84 JUMP JUMPDEST SWAP1 POP PUSH0 DUP1 JUMPDEST DUP5 DUP2 LT ISZERO PUSH2 0xE7A JUMPI PUSH2 0xE32 DUP4 PUSH2 0x10F7 JUMP JUMPDEST SWAP2 POP PUSH1 0x40 MLOAD DUP1 PUSH1 0x40 ADD PUSH1 0x40 MSTORE DUP1 DUP4 DUP2 MSTORE PUSH1 0x20 ADD DUP5 DUP2 MSTORE POP DUP5 DUP3 DUP2 MLOAD DUP2 LT PUSH2 0xE5B JUMPI PUSH2 0xE5B PUSH2 0x1D2F JUMP JUMPDEST PUSH1 0x20 SWAP1 DUP2 MUL SWAP2 SWAP1 SWAP2 ADD ADD MSTORE PUSH2 0xE70 DUP3 DUP5 PUSH2 0x1D84 JUMP JUMPDEST SWAP3 POP PUSH1 0x1 ADD PUSH2 0xE21 JUMP JUMPDEST POP SWAP2 SWAP6 SWAP5 POP POP POP POP POP JUMP JUMPDEST DUP1 MLOAD PUSH1 0x60 SWAP1 PUSH2 0xE92 JUMPI PUSH0 DUP1 REVERT JUMPDEST PUSH0 DUP1 PUSH2 0xE9D DUP5 PUSH2 0x119F JUMP JUMPDEST SWAP2 POP SWAP2 POP PUSH0 DUP2 PUSH1 0x1 PUSH1 0x1 PUSH1 0x40 SHL SUB DUP2 GT ISZERO PUSH2 0xEBA JUMPI PUSH2 0xEBA PUSH2 0x1262 JUMP JUMPDEST PUSH1 0x40 MLOAD SWAP1 DUP1 DUP3 MSTORE DUP1 PUSH1 0x1F ADD PUSH1 0x1F NOT AND PUSH1 0x20 ADD DUP3 ADD PUSH1 0x40 MSTORE DUP1 ISZERO PUSH2 0xEE4 JUMPI PUSH1 0x20 DUP3 ADD DUP2 DUP1 CALLDATASIZE DUP4 CALLDATACOPY ADD SWAP1 POP JUMPDEST POP SWAP1 POP PUSH1 0x20 DUP2 ADD PUSH2 0xEF6 DUP5 DUP3 DUP6 PUSH2 0x11E1 JUMP JUMPDEST POP SWAP5 SWAP4 POP POP POP POP JUMP JUMPDEST PUSH0 DUP1 DUP1 PUSH32 0x7FFFFFFFFFFFFFFFFFFFFFFFFFFFFFFF5D576E7357A4501DDFE92F46681B20A0 DUP5 GT ISZERO PUSH2 0xF38 JUMPI POP PUSH0 SWAP2 POP PUSH1 0x3 SWAP1 POP DUP3 PUSH2 0xFBD JUMP JUMPDEST PUSH1 0x40 DUP1 MLOAD PUSH0 DUP1 DUP3 MSTORE PUSH1 0x20 DUP3 ADD DUP1 DUP5 MSTORE DUP11 SWAP1 MSTORE PUSH1 0xFF DUP10 AND SWAP3 DUP3 ADD SWAP3 SWAP1 SWAP3 MSTORE PUSH1 0x60 DUP2 ADD DUP8 SWAP1 MSTORE PUSH1 0x80 DUP2 ADD DUP7 SWAP1 MSTORE PUSH1 0x1 SWAP1 PUSH1 0xA0 ADD PUSH1 0x20 PUSH1 0x40 MLOAD PUSH1 0x20 DUP2 SUB SWAP1 DUP1 DUP5 SUB SWAP1 DUP6 GAS STATICCALL ISZERO DUP1 ISZERO PUSH2 0xF89 JUMPI RETURNDATASIZE PUSH0 DUP1 RETURNDATACOPY RETURNDATASIZE PUSH0 REVERT JUMPDEST POP POP PUSH1 0x40 MLOAD PUSH1 0x1F NOT ADD MLOAD SWAP2 POP POP PUSH1 0x1 PUSH1 0x1 PUSH1 0xA0 SHL SUB DUP2 AND PUSH2 0xFB4 JUMPI POP PUSH0 SWAP3 POP PUSH1 0x1 SWAP2 POP DUP3 SWAP1 POP PUSH2 0xFBD JUMP JUMPDEST SWAP3 POP PUSH0 SWAP2 POP DUP2 SWAP1 POP JUMPDEST SWAP5 POP SWAP5 POP SWAP5 SWAP2 POP POP JUMP JUMPDEST DUP1 MLOAD PUSH0 SWAP1 DUP2 SUB PUSH2 0xFD8 JUMPI POP PUSH0 SWAP2 SWAP1 POP JUMP JUMPDEST PUSH1 0x20 DUP3 ADD MLOAD DUP1 MLOAD PUSH0 BYTE SWAP1 PUSH1 0xC0 DUP3 LT ISZERO PUSH2 0xFF4 JUMPI POP PUSH0 SWAP4 SWAP3 POP POP POP JUMP JUMPDEST POP PUSH1 0x1 SWAP4 SWAP3 POP POP POP JUMP JUMPDEST DUP1 MLOAD PUSH0 SWAP1 DUP2 SUB PUSH2 0x100F JUMPI POP PUSH0 SWAP2 SWAP1 POP JUMP JUMPDEST PUSH0 DUP1 PUSH2 0x101E DUP5 PUSH1 0x20 ADD MLOAD PUSH2 0x107E JUMP JUMPDEST DUP5 PUSH1 0x20 ADD MLOAD PUSH2 0x102D SWAP2 SWAP1 PUSH2 0x1D84 JUMP JUMPDEST SWAP1 POP PUSH0 DUP5 PUSH0 ADD MLOAD DUP6 PUSH1 0x20 ADD MLOAD PUSH2 0x1043 SWAP2 SWAP1 PUSH2 0x1D84 JUMP JUMPDEST SWAP1 POP JUMPDEST DUP1 DUP3 LT ISZERO PUSH2 0x1075 JUMPI PUSH2 0x1057 DUP3 PUSH2 0x10F7 JUMP JUMPDEST PUSH2 0x1061 SWAP1 DUP4 PUSH2 0x1D84 JUMP JUMPDEST SWAP2 POP DUP3 PUSH2 0x106D DUP2 PUSH2 0x1D97 JUMP JUMPDEST SWAP4 POP POP PUSH2 0x1046 JUMP JUMPDEST POP SWAP1 SWAP4 SWAP3 POP POP POP JUMP JUMPDEST DUP1 MLOAD PUSH0 SWAP1 DUP2 BYTE PUSH1 0x80 DUP2 LT ISZERO PUSH2 0x1095 JUMPI POP PUSH0 SWAP3 SWAP2 POP POP JUMP JUMPDEST PUSH1 0xB8 DUP2 LT DUP1 PUSH2 0x10B0 JUMPI POP PUSH1 0xC0 DUP2 LT DUP1 ISZERO SWAP1 PUSH2 0x10B0 JUMPI POP PUSH1 0xF8 DUP2 LT JUMPDEST ISZERO PUSH2 0x10BE JUMPI POP PUSH1 0x1 SWAP3 SWAP2 POP POP JUMP JUMPDEST PUSH1 0xC0 DUP2 LT ISZERO PUSH2 0x10EB JUMPI PUSH2 0x10D3 PUSH1 0x1 PUSH1 0xB8 PUSH2 0x1DAF JUMP JUMPDEST PUSH2 0x10E0 SWAP1 PUSH1 0xFF AND DUP3 PUSH2 0x1DC8 JUMP JUMPDEST PUSH2 0x1FB SWAP1 PUSH1 0x1 PUSH2 0x1D84 JUMP JUMPDEST PUSH2 0x10D3 PUSH1 0x1 PUSH1 0xF8 PUSH2 0x1DAF JUMP JUMPDEST DUP1 MLOAD PUSH0 SWAP1 DUP2 SWAP1 DUP2 BYTE PUSH1 0x80 DUP2 LT ISZERO PUSH2 0x1111 JUMPI PUSH1 0x1 SWAP2 POP PUSH2 0x1198 JUMP JUMPDEST PUSH1 0xB8 DUP2 LT ISZERO PUSH2 0x1137 JUMPI PUSH2 0x1125 PUSH1 0x80 DUP3 PUSH2 0x1DC8 JUMP JUMPDEST PUSH2 0x1130 SWAP1 PUSH1 0x1 PUSH2 0x1D84 JUMP JUMPDEST SWAP2 POP PUSH2 0x1198 JUMP JUMPDEST PUSH1 0xC0 DUP2 LT ISZERO PUSH2 0x1164 JUMPI PUSH1 0xB7 DUP2 SUB PUSH1 0x1 DUP6 ADD SWAP5 POP DUP1 PUSH1 0x20 SUB PUSH2 0x100 EXP DUP6 MLOAD DIV PUSH1 0x1 DUP3 ADD DUP2 ADD SWAP4 POP POP POP PUSH2 0x1198 JUMP JUMPDEST PUSH1 0xF8 DUP2 LT ISZERO PUSH2 0x1178 JUMPI PUSH2 0x1125 PUSH1 0xC0 DUP3 PUSH2 0x1DC8 JUMP JUMPDEST PUSH1 0xF7 DUP2 SUB PUSH1 0x1 DUP6 ADD SWAP5 POP DUP1 PUSH1 0x20 SUB PUSH2 0x100 EXP DUP6 MLOAD DIV PUSH1 0x1 DUP3 ADD DUP2 ADD SWAP4 POP POP POP JUMPDEST POP SWAP3 SWAP2 POP POP JUMP JUMPDEST PUSH0 DUP1 PUSH0 PUSH2 0x11AF DUP5 PUSH1 0x20 ADD MLOAD PUSH2 0x107E JUMP JUMPDEST SWAP1 POP PUSH0 DUP2 DUP6 PUSH1 0x20 ADD MLOAD PUSH2 0x11C2 SWAP2 SWAP1 PUSH2 0x1D84 JUMP JUMPDEST SWAP1 POP PUSH0 DUP3 DUP7 PUSH0 ADD MLOAD PUSH2 0x11D4 SWAP2 SWAP1 PUSH2 0x1DC8 JUMP JUMPDEST SWAP2 SWAP7 SWAP2 SWAP6 POP SWAP1 SWAP4 POP POP POP POP JUMP JUMPDEST DUP1 PUSH0 SUB PUSH2 0x11ED JUMPI POP POP POP JUMP JUMPDEST PUSH1 0x20 DUP2 LT PUSH2 0x1225 JUMPI DUP3 MLOAD DUP3 MSTORE PUSH2 0x1204 PUSH1 0x20 DUP5 PUSH2 0x1D84 JUMP JUMPDEST SWAP3 POP PUSH2 0x1211 PUSH1 0x20 DUP4 PUSH2 0x1D84 JUMP JUMPDEST SWAP2 POP PUSH2 0x121E PUSH1 0x20 DUP3 PUSH2 0x1DC8 JUMP JUMPDEST SWAP1 POP PUSH2 0x11ED JUMP JUMPDEST DUP1 ISZERO PUSH2 0x125D JUMPI PUSH0 PUSH1 0x1 PUSH2 0x1239 DUP4 PUSH1 0x20 PUSH2 0x1DC8 JUMP JUMPDEST PUSH2 0x1245 SWAP1 PUSH2 0x100 PUSH2 0x1EBE JUMP JUMPDEST PUSH2 0x124F SWAP2 SWAP1 PUSH2 0x1DC8 JUMP JUMPDEST DUP5 MLOAD DUP5 MLOAD DUP3 AND SWAP2 NOT AND OR DUP4 MSTORE POP JUMPDEST POP POP POP JUMP JUMPDEST PUSH4 0x4E487B71 PUSH1 0xE0 SHL PUSH0 MSTORE PUSH1 0x41 PUSH1 0x4 MSTORE PUSH1 0x24 PUSH0 REVERT JUMPDEST PUSH1 0x40 DUP1 MLOAD SWAP1 DUP2 ADD PUSH1 0x1 PUSH1 0x1 PUSH1 0x40 SHL SUB DUP2 GT DUP3 DUP3 LT OR ISZERO PUSH2 0x1298 JUMPI PUSH2 0x1298 PUSH2 0x1262 JUMP JUMPDEST PUSH1 0x40 MSTORE SWAP1 JUMP JUMPDEST PUSH1 0x40 MLOAD PUSH1 0x80 DUP2 ADD PUSH1 0x1 PUSH1 0x1 PUSH1 0x40 SHL SUB DUP2 GT DUP3 DUP3 LT OR ISZERO PUSH2 0x1298 JUMPI PUSH2 0x1298 PUSH2 0x1262 JUMP JUMPDEST PUSH1 0x40 MLOAD PUSH2 0x180 DUP2 ADD PUSH1 0x1 PUSH1 0x1 PUSH1 0x40 SHL SUB DUP2 GT DUP3 DUP3 LT OR ISZERO PUSH2 0x1298 JUMPI PUSH2 0x1298 PUSH2 0x1262 JUMP JUMPDEST PUSH1 0x40 MLOAD PUSH2 0x160 DUP2 ADD PUSH1 0x1 PUSH1 0x1 PUSH1 0x40 SHL SUB DUP2 GT DUP3 DUP3 LT OR ISZERO PUSH2 0x1298 JUMPI PUSH2 0x1298 PUSH2 0x1262 JUMP JUMPDEST PUSH1 0x40 MLOAD PUSH1 0x1F DUP3 ADD PUSH1 0x1F NOT AND DUP2 ADD PUSH1 0x1 PUSH1 0x1 PUSH1 0x40 SHL SUB DUP2 GT DUP3 DUP3 LT OR ISZERO PUSH2 0x132E JUMPI PUSH2 0x132E PUSH2 0x1262 JUMP JUMPDEST PUSH1 0x40 MSTORE SWAP2 SWAP1 POP JUMP JUMPDEST PUSH0 PUSH1 0x1 PUSH1 0x1 PUSH1 0x40 SHL SUB DUP3 GT ISZERO PUSH2 0x134E JUMPI PUSH2 0x134E PUSH2 0x1262 JUMP JUMPDEST POP PUSH1 0x5 SHL PUSH1 0x20 ADD SWAP1 JUMP JUMPDEST PUSH0 PUSH1 0x1 PUSH1 0x1 PUSH1 0x40 SHL SUB DUP3 GT ISZERO PUSH2 0x1370 JUMPI PUSH2 0x1370 PUSH2 0x1262 JUMP JUMPDEST POP PUSH1 0x1F ADD PUSH1 0x1F NOT AND PUSH1 0x20 ADD SWAP1 JUMP JUMPDEST PUSH0 DUP3 PUSH1 0x1F DUP4 ADD SLT PUSH2 0x138D JUMPI PUSH0 DUP1 REVERT JUMPDEST DUP2 CALLDATALOAD PUSH2 0x13A0 PUSH2 0x139B DUP3 PUSH2 0x1358 JUMP JUMPDEST PUSH2 0x1306 JUMP JUMPDEST DUP2 DUP2 MSTORE DUP5 PUSH1 0x20 DUP4 DUP7 ADD ADD GT ISZERO PUSH2 0x13B4 JUMPI PUSH0 DUP1 REVERT JUMPDEST DUP2 PUSH1 0x20 DUP6 ADD PUSH1 0x20 DUP4 ADD CALLDATACOPY PUSH0 SWAP2 DUP2 ADD PUSH1 0x20 ADD SWAP2 SWAP1 SWAP2 MSTORE SWAP4 SWAP3 POP POP POP JUMP JUMPDEST PUSH0 DUP3 PUSH1 0x1F DUP4 ADD SLT PUSH2 0x13DF JUMPI PUSH0 DUP1 REVERT JUMPDEST DUP2 CALLDATALOAD PUSH2 0x13ED PUSH2 0x139B DUP3 PUSH2 0x1336 JUMP JUMPDEST DUP1 DUP3 DUP3 MSTORE PUSH1 0x20 DUP3 ADD SWAP2 POP PUSH1 0x20 DUP4 PUSH1 0x5 SHL DUP7 ADD ADD SWAP3 POP DUP6 DUP4 GT ISZERO PUSH2 0x140E JUMPI PUSH0 DUP1 REVERT JUMPDEST PUSH1 0x20 DUP6 ADD JUMPDEST DUP4 DUP2 LT ISZERO PUSH2 0x144E JUMPI DUP1 CALLDATALOAD PUSH1 0x1 PUSH1 0x1 PUSH1 0x40 SHL SUB DUP2 GT ISZERO PUSH2 0x1430 JUMPI PUSH0 DUP1 REVERT JUMPDEST PUSH2 0x143F DUP9 PUSH1 0x20 DUP4 DUP11 ADD ADD PUSH2 0x137E JUMP JUMPDEST DUP5 MSTORE POP PUSH1 0x20 SWAP3 DUP4 ADD SWAP3 ADD PUSH2 0x1413 JUMP JUMPDEST POP SWAP6 SWAP5 POP POP POP POP POP JUMP JUMPDEST PUSH0 DUP1 PUSH0 PUSH1 0x60 DUP5 DUP7 SUB SLT ISZERO PUSH2 0x146A JUMPI PUSH0 DUP1 REVERT JUMPDEST DUP4 CALLDATALOAD SWAP3 POP PUSH1 0x20 DUP5 ADD CALLDATALOAD PUSH1 0x1 PUSH1 0x1 PUSH1 0x40 SHL SUB DUP2 GT ISZERO PUSH2 0x1486 JUMPI PUSH0 DUP1 REVERT JUMPDEST PUSH2 0x1492 DUP7 DUP3 DUP8 ADD PUSH2 0x13D0 JUMP JUMPDEST SWAP3 POP POP PUSH1 0x40 DUP5 ADD CALLDATALOAD PUSH1 0x1 PUSH1 0x1 PUSH1 0x40 SHL SUB DUP2 GT ISZERO PUSH2 0x14AD JUMPI PUSH0 DUP1 REVERT JUMPDEST PUSH2 0x14B9 DUP7 DUP3 DUP8 ADD PUSH2 0x13D0 JUMP JUMPDEST SWAP2 POP POP SWAP3 POP SWAP3 POP SWAP3 JUMP JUMPDEST PUSH1 0x1 PUSH1 0x1 PUSH1 0xA0 SHL SUB DUP2 AND DUP2 EQ PUSH2 0x14D7 JUMPI PUSH0 DUP1 REVERT JUMPDEST POP JUMP JUMPDEST PUSH0 DUP1 PUSH0 DUP1 PUSH1 0x80 DUP6 DUP8 SUB SLT ISZERO PUSH2 0x14ED JUMPI PUSH0 DUP1 REVERT JUMPDEST DUP5 CALLDATALOAD PUSH1 0x1 PUSH1 0x1 PUSH1 0x40 SHL SUB DUP2 GT ISZERO PUSH2 0x1502 JUMPI PUSH0 DUP1 REVERT JUMPDEST PUSH2 0x150E DUP8 DUP3 DUP9 ADD PUSH2 0x137E JUMP JUMPDEST SWAP5 POP POP PUSH1 0x20 DUP6 ADD CALLDATALOAD PUSH1 0x1 PUSH1 0x1 PUSH1 0x40 SHL SUB DUP2 GT ISZERO PUSH2 0x1529 JUMPI PUSH0 DUP1 REVERT JUMPDEST PUSH2 0x1535 DUP8 DUP3 DUP9 ADD PUSH2 0x137E JUMP JUMPDEST SWAP4 POP POP PUSH1 0x40 DUP6 ADD CALLDATALOAD PUSH1 0x1 PUSH1 0x1 PUSH1 0x40 SHL SUB DUP2 GT ISZERO PUSH2 0x1550 JUMPI PUSH0 DUP1 REVERT JUMPDEST PUSH2 0x155C DUP8 DUP3 DUP9 ADD PUSH2 0x137E JUMP JUMPDEST SWAP3 POP POP PUSH1 0x60 DUP6 ADD CALLDATALOAD PUSH2 0x156D DUP2 PUSH2 0x14C3 JUMP JUMPDEST SWAP4 SWAP7 SWAP3 SWAP6 POP SWAP1 SWAP4 POP POP JUMP JUMPDEST PUSH0 DUP2 MLOAD DUP1 DUP5 MSTORE DUP1 PUSH1 0x20 DUP5 ADD PUSH1 0x20 DUP7 ADD MCOPY PUSH0 PUSH1 0x20 DUP3 DUP7 ADD ADD MSTORE PUSH1 0x20 PUSH1 0x1F NOT PUSH1 0x1F DUP4 ADD AND DUP6 ADD ADD SWAP2 POP POP SWAP3 SWAP2 POP POP JUMP JUMPDEST PUSH0 DUP3 DUP3 MLOAD DUP1 DUP6 MSTORE PUSH1 0x20 DUP6 ADD SWAP5 POP PUSH1 0x20 DUP2 PUSH1 0x5 SHL DUP4 ADD ADD PUSH1 0x20 DUP6 ADD PUSH0 JUMPDEST DUP4 DUP2 LT ISZERO PUSH2 0x15F4 JUMPI PUSH1 0x1F NOT DUP6 DUP5 SUB ADD DUP9 MSTORE PUSH2 0x15DE DUP4 DUP4 MLOAD PUSH2 0x1578 JUMP JUMPDEST PUSH1 0x20 SWAP9 DUP10 ADD SWAP9 SWAP1 SWAP4 POP SWAP2 SWAP1 SWAP2 ADD SWAP1 PUSH1 0x1 ADD PUSH2 0x15C2 JUMP JUMPDEST POP SWAP1 SWAP7 SWAP6 POP POP POP POP POP POP JUMP JUMPDEST DUP4 DUP2 MSTORE PUSH1 0x60 PUSH1 0x20 DUP3 ADD MSTORE PUSH0 PUSH2 0x1618 PUSH1 0x60 DUP4 ADD DUP6 PUSH2 0x15A6 JUMP JUMPDEST DUP3 DUP2 SUB PUSH1 0x40 DUP5 ADD MSTORE PUSH2 0x162A DUP2 DUP6 PUSH2 0x15A6 JUMP JUMPDEST SWAP7 SWAP6 POP POP POP POP POP POP JUMP JUMPDEST DUP1 MLOAD DUP1 ISZERO ISZERO DUP2 EQ PUSH2 0x1643 JUMPI PUSH0 DUP1 REVERT JUMPDEST SWAP2 SWAP1 POP JUMP JUMPDEST PUSH0 DUP3 PUSH1 0x1F DUP4 ADD SLT PUSH2 0x1657 JUMPI PUSH0 DUP1 REVERT JUMPDEST DUP2 MLOAD PUSH1 0x20 DUP4 ADD PUSH0 PUSH2 0x166A PUSH2 0x139B DUP5 PUSH2 0x1358 JUMP JUMPDEST SWAP1 POP DUP3 DUP2 MSTORE DUP6 DUP4 DUP4 ADD GT ISZERO PUSH2 0x167D JUMPI PUSH0 DUP1 REVERT JUMPDEST DUP3 DUP3 PUSH1 0x20 DUP4 ADD MCOPY PUSH0 SWAP3 DUP2 ADD PUSH1 0x20 ADD SWAP3 SWAP1 SWAP3 MSTORE POP SWAP4 SWAP3 POP POP POP JUMP JUMPDEST PUSH0 DUP1 PUSH1 0x40 DUP4 DUP6 SUB SLT ISZERO PUSH2 0x16A8 JUMPI PUSH0 DUP1 REVERT JUMPDEST PUSH2 0x16B1 DUP4 PUSH2 0x1634 JUMP JUMPDEST SWAP2 POP PUSH1 0x20 DUP4 ADD MLOAD PUSH1 0x1 PUSH1 0x1 PUSH1 0x40 SHL SUB DUP2 GT ISZERO PUSH2 0x16CB JUMPI PUSH0 DUP1 REVERT JUMPDEST DUP4 ADD PUSH1 0x1F DUP2 ADD DUP6 SGT PUSH2 0x16DB JUMPI PUSH0 DUP1 REVERT JUMPDEST DUP1 MLOAD PUSH2 0x16E9 PUSH2 0x139B DUP3 PUSH2 0x1336 JUMP JUMPDEST DUP1 DUP3 DUP3 MSTORE PUSH1 0x20 DUP3 ADD SWAP2 POP PUSH1 0x20 DUP4 PUSH1 0x5 SHL DUP6 ADD ADD SWAP3 POP DUP8 DUP4 GT ISZERO PUSH2 0x170A JUMPI PUSH0 DUP1 REVERT JUMPDEST PUSH1 0x20 DUP5 ADD JUMPDEST DUP4 DUP2 LT ISZERO PUSH2 0x17B6 JUMPI DUP1 MLOAD PUSH1 0x1 PUSH1 0x1 PUSH1 0x40 SHL SUB DUP2 GT ISZERO PUSH2 0x172C JUMPI PUSH0 DUP1 REVERT JUMPDEST DUP6 ADD PUSH1 0x40 DUP2 DUP12 SUB PUSH1 0x1F NOT ADD SLT ISZERO PUSH2 0x1741 JUMPI PUSH0 DUP1 REVERT JUMPDEST PUSH2 0x1749 PUSH2 0x1276 JUMP JUMPDEST PUSH1 0x20 DUP3 ADD MLOAD PUSH1 0x1 PUSH1 0x1 PUSH1 0x40 SHL SUB DUP2 GT ISZERO PUSH2 0x1761 JUMPI PUSH0 DUP1 REVERT JUMPDEST PUSH2 0x1770 DUP13 PUSH1 0x20 DUP4 DUP7 ADD ADD PUSH2 0x1648 JUMP JUMPDEST DUP3 MSTORE POP PUSH1 0x40 DUP3 ADD MLOAD PUSH1 0x1 PUSH1 0x1 PUSH1 0x40 SHL SUB DUP2 GT ISZERO PUSH2 0x178B JUMPI PUSH0 DUP1 REVERT JUMPDEST PUSH2 0x179A DUP13 PUSH1 0x20 DUP4 DUP7 ADD ADD PUSH2 0x1648 JUMP JUMPDEST PUSH1 0x20 DUP4 ADD MSTORE POP DUP1 DUP6 MSTORE POP POP PUSH1 0x20 DUP4 ADD SWAP3 POP PUSH1 0x20 DUP2 ADD SWAP1 POP PUSH2 0x170F JUMP JUMPDEST POP DUP1 SWAP5 POP POP POP POP POP SWAP3 POP SWAP3 SWAP1 POP JUMP JUMPDEST PUSH0 PUSH1 0x20 DUP3 ADD PUSH1 0x20 DUP4 MSTORE DUP1 DUP5 MLOAD DUP1 DUP4 MSTORE PUSH1 0x40 DUP6 ADD SWAP2 POP PUSH1 0x40 DUP2 PUSH1 0x5 SHL DUP7 ADD ADD SWAP3 POP PUSH1 0x20 DUP7 ADD PUSH0 JUMPDEST DUP3 DUP2 LT ISZERO PUSH2 0x1843 JUMPI PUSH1 0x3F NOT DUP8 DUP7 SUB ADD DUP5 MSTORE DUP2 MLOAD DUP1 MLOAD PUSH1 0x40 DUP8 MSTORE PUSH2 0x1811 PUSH1 0x40 DUP9 ADD DUP3 PUSH2 0x1578 JUMP JUMPDEST SWAP1 POP PUSH1 0x20 DUP3 ADD MLOAD SWAP2 POP DUP7 DUP2 SUB PUSH1 0x20 DUP9 ADD MSTORE PUSH2 0x182C DUP2 DUP4 PUSH2 0x1578 JUMP JUMPDEST SWAP7 POP POP POP PUSH1 0x20 SWAP4 DUP5 ADD SWAP4 SWAP2 SWAP1 SWAP2 ADD SWAP1 PUSH1 0x1 ADD PUSH2 0x17EB JUMP JUMPDEST POP SWAP3 SWAP7 SWAP6 POP POP POP POP POP POP JUMP JUMPDEST PUSH0 DUP1 PUSH0 DUP1 PUSH1 0x80 DUP6 DUP8 SUB SLT ISZERO PUSH2 0x1862 JUMPI PUSH0 DUP1 REVERT JUMPDEST DUP5 MLOAD PUSH2 0x186D DUP2 PUSH2 0x14C3 JUMP JUMPDEST PUSH1 0x20 DUP7 ADD MLOAD SWAP1 SWAP5 POP PUSH2 0x187E DUP2 PUSH2 0x14C3 JUMP JUMPDEST PUSH1 0x40 DUP7 ADD MLOAD PUSH1 0x60 SWAP1 SWAP7 ADD MLOAD SWAP5 SWAP8 SWAP1 SWAP7 POP SWAP3 POP POP POP JUMP JUMPDEST PUSH1 0x20 DUP2 MSTORE PUSH0 PUSH2 0x1FB PUSH1 0x20 DUP4 ADD DUP5 PUSH2 0x1578 JUMP JUMPDEST PUSH0 PUSH1 0x60 DUP3 DUP5 SUB SLT DUP1 ISZERO PUSH2 0x18B7 JUMPI PUSH0 DUP1 REVERT JUMPDEST POP PUSH1 0x40 MLOAD PUSH1 0x60 DUP2 ADD PUSH1 0x1 PUSH1 0x1 PUSH1 0x40 SHL SUB DUP2 GT DUP3 DUP3 LT OR ISZERO PUSH2 0x18DA JUMPI PUSH2 0x18DA PUSH2 0x1262 JUMP JUMPDEST PUSH1 0x40 SWAP1 DUP2 MSTORE DUP4 MLOAD DUP3 MSTORE PUSH1 0x20 DUP1 DUP6 ADD MLOAD SWAP1 DUP4 ADD MSTORE SWAP3 DUP4 ADD MLOAD SWAP3 DUP2 ADD SWAP3 SWAP1 SWAP3 MSTORE POP SWAP2 SWAP1 POP JUMP JUMPDEST PUSH0 DUP1 PUSH1 0x40 DUP4 DUP6 SUB SLT ISZERO PUSH2 0x190F JUMPI PUSH0 DUP1 REVERT JUMPDEST DUP3 MLOAD PUSH1 0x1 PUSH1 0x1 PUSH1 0x40 SHL SUB DUP2 GT ISZERO PUSH2 0x1924 JUMPI PUSH0 DUP1 REVERT JUMPDEST DUP4 ADD PUSH1 0x80 DUP2 DUP7 SUB SLT ISZERO PUSH2 0x1935 JUMPI PUSH0 DUP1 REVERT JUMPDEST PUSH2 0x193D PUSH2 0x129E JUMP JUMPDEST DUP2 MLOAD DUP2 MSTORE PUSH1 0x20 DUP1 DUP4 ADD MLOAD SWAP1 DUP3 ADD MSTORE PUSH1 0x40 DUP1 DUP4 ADD MLOAD SWAP1 DUP3 ADD MSTORE PUSH1 0x60 DUP3 ADD MLOAD PUSH1 0x1 PUSH1 0x1 PUSH1 0x40 SHL SUB DUP2 GT ISZERO PUSH2 0x196D JUMPI PUSH0 DUP1 REVERT JUMPDEST PUSH2 0x1979 DUP8 DUP3 DUP6 ADD PUSH2 0x1648 JUMP JUMPDEST PUSH1 0x60 DUP4 ADD MSTORE POP PUSH1 0x20 SWAP5 SWAP1 SWAP5 ADD MLOAD SWAP4 SWAP6 SWAP4 SWAP5 POP POP POP POP JUMP JUMPDEST PUSH0 DUP3 MLOAD DUP1 PUSH1 0x20 DUP6 ADD DUP5 MCOPY PUSH0 SWAP3 ADD SWAP2 DUP3 MSTORE POP SWAP2 SWAP1 POP JUMP JUMPDEST PUSH0 DUP3 PUSH1 0x1F DUP4 ADD SLT PUSH2 0x19B5 JUMPI PUSH0 DUP1 REVERT JUMPDEST DUP2 MLOAD PUSH2 0x19C3 PUSH2 0x139B DUP3 PUSH2 0x1336 JUMP JUMPDEST DUP1 DUP3 DUP3 MSTORE PUSH1 0x20 DUP3 ADD SWAP2 POP PUSH1 0x20 DUP4 PUSH1 0x5 SHL DUP7 ADD ADD SWAP3 POP DUP6 DUP4 GT ISZERO PUSH2 0x19E4 JUMPI PUSH0 DUP1 REVERT JUMPDEST PUSH1 0x20 DUP6 ADD JUMPDEST DUP4 DUP2 LT ISZERO PUSH2 0x144E JUMPI DUP1 MLOAD PUSH1 0x1 PUSH1 0x1 PUSH1 0x40 SHL SUB DUP2 GT ISZERO PUSH2 0x1A06 JUMPI PUSH0 DUP1 REVERT JUMPDEST PUSH2 0x1A15 DUP9 PUSH1 0x20 DUP4 DUP11 ADD ADD PUSH2 0x1648 JUMP JUMPDEST DUP5 MSTORE POP PUSH1 0x20 SWAP3 DUP4 ADD SWAP3 ADD PUSH2 0x19E9 JUMP JUMPDEST PUSH0 DUP1 PUSH1 0x40 DUP4 DUP6 SUB SLT ISZERO PUSH2 0x1A35 JUMPI PUSH0 DUP1 REVERT JUMPDEST DUP3 MLOAD PUSH1 0x1 PUSH1 0x1 PUSH1 0x40 SHL SUB DUP2 GT ISZERO PUSH2 0x1A4A JUMPI PUSH0 DUP1 REVERT JUMPDEST DUP4 ADD PUSH2 0x180 DUP2 DUP7 SUB SLT ISZERO PUSH2 0x1A5C JUMPI PUSH0 DUP1 REVERT JUMPDEST PUSH2 0x1A64 PUSH2 0x12C0 JUMP JUMPDEST DUP2 MLOAD PUSH1 0x1 PUSH1 0x1 PUSH1 0x40 SHL SUB DUP2 GT ISZERO PUSH2 0x1A79 JUMPI PUSH0 DUP1 REVERT JUMPDEST PUSH2 0x1A85 DUP8 DUP3 DUP6 ADD PUSH2 0x1648 JUMP JUMPDEST DUP3 MSTORE POP PUSH1 0x20 DUP3 DUP2 ADD MLOAD SWAP1 DUP3 ADD MSTORE PUSH1 0x40 DUP1 DUP4 ADD MLOAD SWAP1 DUP3 ADD MSTORE PUSH1 0x60 DUP1 DUP4 ADD MLOAD SWAP1 DUP3 ADD MSTORE PUSH1 0x80 DUP3 ADD MLOAD PUSH1 0x1 PUSH1 0x1 PUSH1 0x40 SHL SUB DUP2 GT ISZERO PUSH2 0x1ABE JUMPI PUSH0 DUP1 REVERT JUMPDEST PUSH2 0x1ACA DUP8 DUP3 DUP6 ADD PUSH2 0x1648 JUMP JUMPDEST PUSH1 0x80 DUP4 ADD MSTORE POP PUSH1 0xA0 DUP3 DUP2 ADD MLOAD SWAP1 DUP3 ADD MSTORE PUSH1 0xC0 DUP3 ADD MLOAD PUSH1 0x1 PUSH1 0x1 PUSH1 0x40 SHL SUB DUP2 GT ISZERO PUSH2 0x1AF2 JUMPI PUSH0 DUP1 REVERT JUMPDEST PUSH2 0x1AFE DUP8 DUP3 DUP6 ADD PUSH2 0x1648 JUMP JUMPDEST PUSH1 0xC0 DUP4 ADD MSTORE POP PUSH1 0xE0 DUP3 ADD MLOAD PUSH1 0x1 PUSH1 0x1 PUSH1 0x40 SHL SUB DUP2 GT ISZERO PUSH2 0x1B1C JUMPI PUSH0 DUP1 REVERT JUMPDEST PUSH2 0x1B28 DUP8 DUP3 DUP6 ADD PUSH2 0x19A6 JUMP JUMPDEST PUSH1 0xE0 DUP4 ADD MSTORE POP PUSH2 0x100 DUP3 DUP2 ADD MLOAD SWAP1 DUP3 ADD MSTORE PUSH2 0x120 DUP3 ADD MLOAD PUSH1 0x1 PUSH1 0x1 PUSH1 0x40 SHL SUB DUP2 GT ISZERO PUSH2 0x1B52 JUMPI PUSH0 DUP1 REVERT JUMPDEST PUSH2 0x1B5E DUP8 DUP3 DUP6 ADD PUSH2 0x1648 JUMP JUMPDEST PUSH2 0x120 DUP4 ADD MSTORE POP PUSH2 0x140 DUP3 ADD MLOAD PUSH1 0x1 PUSH1 0x1 PUSH1 0x40 SHL SUB DUP2 GT ISZERO PUSH2 0x1B7E JUMPI PUSH0 DUP1 REVERT JUMPDEST PUSH2 0x1B8A DUP8 DUP3 DUP6 ADD PUSH2 0x1648 JUMP JUMPDEST PUSH2 0x140 DUP4 ADD MSTORE POP PUSH2 0x160 SWAP2 DUP3 ADD MLOAD SWAP2 DUP2 ADD SWAP2 SWAP1 SWAP2 MSTORE PUSH1 0x20 SWAP4 SWAP1 SWAP4 ADD MLOAD SWAP3 SWAP5 SWAP3 SWAP4 POP POP POP JUMP JUMPDEST PUSH0 DUP1 PUSH1 0x40 DUP4 DUP6 SUB SLT ISZERO PUSH2 0x1BC0 JUMPI PUSH0 DUP1 REVERT JUMPDEST DUP3 MLOAD PUSH1 0x1 PUSH1 0x1 PUSH1 0x40 SHL SUB DUP2 GT ISZERO PUSH2 0x1BD5 JUMPI PUSH0 DUP1 REVERT JUMPDEST DUP4 ADD PUSH2 0x160 DUP2 DUP7 SUB SLT ISZERO PUSH2 0x1BE7 JUMPI PUSH0 DUP1 REVERT JUMPDEST PUSH2 0x1BEF PUSH2 0x12E3 JUMP JUMPDEST DUP2 MLOAD PUSH1 0x1 PUSH1 0x1 PUSH1 0x40 SHL SUB DUP2 GT ISZERO PUSH2 0x1C04 JUMPI PUSH0 DUP1 REVERT JUMPDEST PUSH2 0x1C10 DUP8 DUP3 DUP6 ADD PUSH2 0x1648 JUMP JUMPDEST DUP3 MSTORE POP PUSH1 0x20 DUP3 DUP2 ADD MLOAD SWAP1 DUP3 ADD MSTORE PUSH1 0x40 DUP1 DUP4 ADD MLOAD SWAP1 DUP3 ADD MSTORE PUSH1 0x60 DUP1 DUP4 ADD MLOAD SWAP1 DUP3 ADD MSTORE PUSH1 0x80 DUP3 ADD MLOAD PUSH1 0x1 PUSH1 0x1 PUSH1 0x40 SHL SUB DUP2 GT ISZERO PUSH2 0x1C49 JUMPI PUSH0 DUP1 REVERT JUMPDEST PUSH2 0x1C55 DUP8 DUP3 DUP6 ADD PUSH2 0x1648 JUMP JUMPDEST PUSH1 0x80 DUP4 ADD MSTORE POP PUSH1 0xA0 DUP3 DUP2 ADD MLOAD SWAP1 DUP3 ADD MSTORE PUSH1 0xC0 DUP3 ADD MLOAD PUSH1 0x1 PUSH1 0x1 PUSH1 0x40 SHL SUB DUP2 GT ISZERO PUSH2 0x1C7D JUMPI PUSH0 DUP1 REVERT JUMPDEST PUSH2 0x1C89 DUP8 DUP3 DUP6 ADD PUSH2 0x1648 JUMP JUMPDEST PUSH1 0xC0 DUP4 ADD MSTORE POP PUSH1 0xE0 DUP3 ADD MLOAD PUSH1 0x1 PUSH1 0x1 PUSH1 0x40 SHL SUB DUP2 GT ISZERO PUSH2 0x1CA7 JUMPI PUSH0 DUP1 REVERT JUMPDEST PUSH2 0x1CB3 DUP8 DUP3 DUP6 ADD PUSH2 0x19A6 JUMP JUMPDEST PUSH1 0xE0 DUP4 ADD MSTORE POP PUSH2 0x100 DUP3 ADD MLOAD PUSH1 0x1 PUSH1 0x1 PUSH1 0x40 SHL SUB DUP2 GT ISZERO PUSH2 0x1CD2 JUMPI PUSH0 DUP1 REVERT JUMPDEST PUSH2 0x1CDE DUP8 DUP3 DUP6 ADD PUSH2 0x1648 JUMP JUMPDEST PUSH2 0x100 DUP4 ADD MSTORE POP PUSH2 0x120 DUP3 ADD MLOAD PUSH1 0x1 PUSH1 0x1 PUSH1 0x40 SHL SUB DUP2 GT ISZERO PUSH2 0x1CFE JUMPI PUSH0 DUP1 REVERT JUMPDEST PUSH2 0x1D0A DUP8 DUP3 DUP6 ADD PUSH2 0x1648 JUMP JUMPDEST PUSH2 0x120 DUP4 ADD MSTORE POP PUSH2 0x140 SWAP2 DUP3 ADD MLOAD SWAP2 DUP2 ADD SWAP2 SWAP1 SWAP2 MSTORE PUSH1 0x20 SWAP4 SWAP1 SWAP4 ADD MLOAD SWAP3 SWAP5 SWAP3 SWAP4 POP POP POP JUMP JUMPDEST PUSH4 0x4E487B71 PUSH1 0xE0 SHL PUSH0 MSTORE PUSH1 0x32 PUSH1 0x4 MSTORE PUSH1 0x24 PUSH0 REVERT JUMPDEST PUSH0 PUSH1 0x20 DUP3 DUP5 SUB SLT ISZERO PUSH2 0x1D53 JUMPI PUSH0 DUP1 REVERT JUMPDEST PUSH2 0x1FB DUP3 PUSH2 0x1634 JUMP JUMPDEST PUSH4 0x4E487B71 PUSH1 0xE0 SHL PUSH0 MSTORE PUSH1 0x21 PUSH1 0x4 MSTORE PUSH1 0x24 PUSH0 REVERT JUMPDEST PUSH4 0x4E487B71 PUSH1 0xE0 SHL PUSH0 MSTORE PUSH1 0x11 PUSH1 0x4 MSTORE PUSH1 0x24 PUSH0 REVERT JUMPDEST DUP1 DUP3 ADD DUP1 DUP3 GT ISZERO PUSH2 0x93C JUMPI PUSH2 0x93C PUSH2 0x1D70 JUMP JUMPDEST PUSH0 PUSH1 0x1 DUP3 ADD PUSH2 0x1DA8 JUMPI PUSH2 0x1DA8 PUSH2 0x1D70 JUMP JUMPDEST POP PUSH1 0x1 ADD SWAP1 JUMP JUMPDEST PUSH1 0xFF DUP3 DUP2 AND DUP3 DUP3 AND SUB SWAP1 DUP2 GT ISZERO PUSH2 0x93C JUMPI PUSH2 0x93C PUSH2 0x1D70 JUMP JUMPDEST DUP2 DUP2 SUB DUP2 DUP2 GT ISZERO PUSH2 0x93C JUMPI PUSH2 0x93C PUSH2 0x1D70 JUMP JUMPDEST PUSH1 0x1 DUP2 JUMPDEST PUSH1 0x1 DUP5 GT ISZERO PUSH2 0x1E16 JUMPI DUP1 DUP6 DIV DUP2 GT ISZERO PUSH2 0x1DFA JUMPI PUSH2 0x1DFA PUSH2 0x1D70 JUMP JUMPDEST PUSH1 0x1 DUP5 AND ISZERO PUSH2 0x1E08 JUMPI SWAP1 DUP2 MUL SWAP1 JUMPDEST PUSH1 0x1 SWAP4 SWAP1 SWAP4 SHR SWAP3 DUP1 MUL PUSH2 0x1DDF JUMP JUMPDEST SWAP4 POP SWAP4 SWAP2 POP POP JUMP JUMPDEST PUSH0 DUP3 PUSH2 0x1E2C JUMPI POP PUSH1 0x1 PUSH2 0x93C JUMP JUMPDEST DUP2 PUSH2 0x1E38 JUMPI POP PUSH0 PUSH2 0x93C JUMP JUMPDEST DUP2 PUSH1 0x1 DUP2 EQ PUSH2 0x1E4E JUMPI PUSH1 0x2 DUP2 EQ PUSH2 0x1E58 JUMPI PUSH2 0x1E74 JUMP JUMPDEST PUSH1 0x1 SWAP2 POP POP PUSH2 0x93C JUMP JUMPDEST PUSH1 0xFF DUP5 GT ISZERO PUSH2 0x1E69 JUMPI PUSH2 0x1E69 PUSH2 0x1D70 JUMP JUMPDEST POP POP PUSH1 0x1 DUP3 SHL PUSH2 0x93C JUMP JUMPDEST POP PUSH1 0x20 DUP4 LT PUSH2 0x133 DUP4 LT AND PUSH1 0x4E DUP5 LT PUSH1 0xB DUP5 LT AND OR ISZERO PUSH2 0x1E97 JUMPI POP DUP2 DUP2 EXP PUSH2 0x93C JUMP JUMPDEST PUSH2 0x1EA3 PUSH0 NOT DUP5 DUP5 PUSH2 0x1DDB JUMP JUMPDEST DUP1 PUSH0 NOT DIV DUP3 GT ISZERO PUSH2 0x1EB6 JUMPI PUSH2 0x1EB6 PUSH2 0x1D70 JUMP JUMPDEST MUL SWAP4 SWAP3 POP POP POP JUMP JUMPDEST PUSH0 PUSH2 0x1FB DUP4 DUP4 PUSH2 0x1E1E JUMP INVALID LOG2 PUSH5 0x6970667358 0x22 SLT KECCAK256 0xD5 SWAP2 DUP3 0xD0 0xF8 EXTCODECOPY SMOD 0xB8 TLOAD 0x27 SWAP4 REVERT JUMPI 0x2F 0x2A 0xB1 GAS 0xAE PUSH11 0xDEA52BD3BEF91FC6A669C5 DUP6 PUSH12 0x64736F6C634300081A003300 "
		},
		"gasEstimates": {
			"creation": {
				"codeDepositCost": "1587000",
				"executionCost": "infinite",
				"totalCost": "infinite"
			},
			"external": {
				"decodeAllSP(bytes,bytes,bytes,address)": "infinite",
				"depositContract()": "2380",
				"paychanContract()": "2335",
				"verifyProof(bytes32,bytes[],bytes[])": "infinite"
			},
			"internal": {
				"_decodeReqResAndChanValid(bytes memory,bytes memory)": "infinite",
				"getType(bytes memory)": "infinite",
				"slashWithAddresses(address,address,address)": "infinite",
				"verifyFraudDetection(bool,struct HeaderDecoder.HeaderResults memory,bytes memory,bytes memory[] memory)": "infinite"
			}
		},
		"methodIdentifiers": {
			"decodeAllSP(bytes,bytes,bytes,address)": "a1804788",
			"depositContract()": "e94ad65b",
			"paychanContract()": "6c2190ab",
			"verifyProof(bytes32,bytes[],bytes[])": "3d937b4a"
		}
	},
	"abi": [
		{
			"inputs": [
				{
					"internalType": "address",
					"name": "_paychanContractAddress",
					"type": "address"
				},
				{
					"internalType": "address",
					"name": "_depositContract",
					"type": "address"
				}
			],
			"stateMutability": "nonpayable",
			"type": "constructor"
		},
		{
			"inputs": [],
			"name": "ECDSAInvalidSignature",
			"type": "error"
		},
		{
			"inputs": [
				{
					"internalType": "uint256",
					"name": "length",
					"type": "uint256"
				}
			],
			"name": "ECDSAInvalidSignatureLength",
			"type": "error"
		},
		{
			"inputs": [
				{
					"internalType": "bytes32",
					"name": "s",
					"type": "bytes32"
				}
			],
			"name": "ECDSAInvalidSignatureS",
			"type": "error"
		},
		{
			"anonymous": false,
			"inputs": [
				{
					"indexed": false,
					"internalType": "bool",
					"name": "",
					"type": "bool"
				}
			],
			"name": "LogBool",
			"type": "event"
		},
		{
			"anonymous": false,
			"inputs": [
				{
					"components": [
						{
							"internalType": "bytes",
							"name": "key",
							"type": "bytes"
						},
						{
							"internalType": "bytes",
							"name": "value",
							"type": "bytes"
						}
					],
					"indexed": false,
					"internalType": "struct StorageValue[]",
					"name": "proofReturnValues",
					"type": "tuple[]"
				}
			],
			"name": "emitProofValues",
			"type": "event"
		},
		{
			"inputs": [
				{
					"internalType": "bytes",
					"name": "res",
					"type": "bytes"
				},
				{
					"internalType": "bytes",
					"name": "req",
					"type": "bytes"
				},
				{
					"internalType": "bytes",
					"name": "blockHeaderInfo",
					"type": "bytes"
				},
				{
					"internalType": "address",
					"name": "witness",
					"type": "address"
				}
			],
			"name": "decodeAllSP",
			"outputs": [],
			"stateMutability": "nonpayable",
			"type": "function"
		},
		{
			"inputs": [],
			"name": "depositContract",
			"outputs": [
				{
					"internalType": "contract IDepositContract",
					"name": "",
					"type": "address"
				}
			],
			"stateMutability": "view",
			"type": "function"
		},
		{
			"inputs": [],
			"name": "paychanContract",
			"outputs": [
				{
					"internalType": "contract IPaychan",
					"name": "",
					"type": "address"
				}
			],
			"stateMutability": "view",
			"type": "function"
		},
		{
			"inputs": [
				{
					"internalType": "bytes32",
					"name": "root",
					"type": "bytes32"
				},
				{
					"internalType": "bytes[]",
					"name": "proof",
					"type": "bytes[]"
				},
				{
					"internalType": "bytes[]",
					"name": "keys",
					"type": "bytes[]"
				}
			],
			"name": "verifyProof",
			"outputs": [
				{
					"internalType": "bool",
					"name": "",
					"type": "bool"
				}
			],
			"stateMutability": "nonpayable",
			"type": "function"
		},
		{
			"stateMutability": "payable",
			"type": "receive"
		}
	]
}