{
	"data": {
		"bytecode": {
			"linkReferences": {
				"contracts/fraud-detector/libs/ProofHelper.sol": {
					"FraudProofHelper": [
						{
							"length": 20,
							"start": 1766
						},
						{
							"length": 20,
							"start": 2134
						}
					]
				},
				"contracts/fraud-detector/libs/decode/msgDecoding.sol": {
					"FraudProofDecoderLibrary": [
						{
							"length": 20,
							"start": 1027
						},
						{
							"length": 20,
							"start": 1204
						},
						{
							"length": 20,
							"start": 2411
						}
					]
				},
				"contracts/fraud-detector/libs/merkleverify.sol": {
					"MerkleVerify": [
						{
							"length": 20,
							"start": 3084
						}
					]
				},
				"contracts/fraud-detector/newHeader.sol": {
					"HeaderDecoder": [
						{
							"length": 20,
							"start": 1576
						}
					]
				}
			},
			"object": "60803461008e57601f62001bbe38819003918201601f19168301916001600160401b0383118484101761009257808492604094855283398101031261008e57610053602061004c836100a6565b92016100a6565b5f80546001600160a01b039384166001600160a01b03199182161790915560018054929093169116179055604051611b039081620000bb8239f35b5f80fd5b634e487b7160e01b5f52604160045260245ffd5b51906001600160a01b038216820361008e5756fe6080604052600436101561001a575b3615610018575f80fd5b005b5f3560e01c80633d937b4a146100595780636c2190ab14610054578063a18047881461004f5763e94ad65b0361000e57610953565b6102ae565b610276565b346100bc5760603660031901126100bc576001600160401b036024358181116100bc5761008a9036906004016101f7565b906044359081116100bc576020916100a96100b29236906004016101f7565b90600435610b29565b6040519015158152f35b5f80fd5b634e487b7160e01b5f52604160045260245ffd5b604081019081106001600160401b038211176100ef57604052565b6100c0565b608081019081106001600160401b038211176100ef57604052565b90601f801991011681019081106001600160401b038211176100ef57604052565b6040519061016082018281106001600160401b038211176100ef57604052565b6040519061018082018281106001600160401b038211176100ef57604052565b6040519061017d826100d4565b565b6001600160401b0381116100ef5760051b60200190565b6001600160401b0381116100ef57601f01601f191660200190565b81601f820112156100bc578035906101c882610196565b926101d6604051948561010f565b828452602083830101116100bc57815f926020809301838601378301015290565b81601f820112156100bc578035916020916102118461017f565b9361021f604051958661010f565b808552838086019160051b830101928084116100bc57848301915b84831061024a5750505050505090565b82356001600160401b0381116100bc57869161026b848480948901016101b1565b81520192019161023a565b346100bc575f3660031901126100bc575f546040516001600160a01b039091168152602090f35b6001600160a01b038116036100bc57565b346100bc576080806003193601126100bc576001600160401b036004358181116100bc576102e09036906004016101b1565b6024358281116100bc576102f89036906004016101b1565b6044359283116100bc576103136103449336906004016101b1565b9361031f60643561029d565b5f610329846114ce565b926040518096819263fe0103f760e01b835260048301610d56565b038173__$cf4e464779e327044a8b0f3baedf8c509a$__5af49182156106dc575f945f93610929575b50610376610d67565b61037e610dd0565b906040516103a1816103936020820187610e32565b03601f19810183528261010f565b6020815191012060405160208101906103cd816103938460089067726573706f6e736560c01b81520190565b5190200361088a57505f6103f59560405180978192634476f25160e11b835260048301610d56565b038173__$cf4e464779e327044a8b0f3baedf8c509a$__5af480156106dc575f955f91610862575b50610491908694610434895160208a015114610fe2565b808801519760a0610140820151910151985b8261044f611153565b5f54909c9061046e906001600160a01b03165b6001600160a01b031690565b9051906040518080998194631577ffaf60e11b8352600483019190602083019252565b03915afa9081156106dc57610569996104f18d6104f69461054499610522985f915f915f94610827575b5050604084019283526001600160a01b0316602084015290916104e991905b6001600160a01b039091169052565b5115156111ab565b6115e7565b8a519093906104f190610511906001600160a01b0316610462565b6001600160a01b03958616146111f7565b602089015190919061053c906001600160a01b0316610462565b91161461125d565b606061054e6112c0565b976040518096819263326d7ceb60e11b835260048301610d56565b038173__$2352dfa7e72cff1f4542e4b84ebffb1ad8$__5af49182156106dc576020955f905f965f956107ec575b50906105a491401461130f565b6040516105b8816103938982018095610e32565b51902060405167726573706f6e736560c01b878201908152906105de8160088401610393565b519020036106e15750508061012060e09201516105fa8761136f565b526106048661136f565b500151604051631ec9bda560e11b81529485928392610627929160048501610a6f565b038173__$c162d7ca774e0bc768bb2a137718a87192$__5af480156106dc57600161068f91610018945f916106ad575b505b60405181151581527fc33356bc2bad2ce263b056da5d061d4e89c336823d5e77f14c1383aedb7a1b3a90602090a115151461140c565b8051602090910151606435916001600160a01b0391821691166115fd565b6106cf915060203d6020116106d5575b6106c7818361010f565b8101906113f8565b5f610657565b503d6106bd565b610a9a565b90925060e091506101008101516106f78761136f565b526107018661136f565b506040518381527ff9a7ea37911815f4a89b25e48dc4ee38541a0e1128907411984b0a228788c87990602090a1016107628151604051807fbfca9eedc3c89469b344a99a30e4f08e375a01fc8c3618713197c268e747518c93849382611395565b0390a1604051806107738882611395565b0390a151604051631ec9bda560e11b81529485928392610797929160048501610a6f565b038173__$c162d7ca774e0bc768bb2a137718a87192$__5af480156106dc57600161068f91610018945f916107cd575b50610659565b6107e6915060203d6020116106d5576106c7818361010f565b5f6107c7565b9094506105a49650610816915060603d606011610820575b61080e818361010f565b8101906112f4565b9096909490610597565b503d610804565b6104e994506104da93506108509250803d1061085b575b610848818361010f565b810190611177565b5093919290916104bb565b503d61083e565b610491965061088391503d805f833e61087b818361010f565b81019061102e565b909561041d565b9290505f6108ac956040518097819263e09bc82760e01b835260048301610d56565b038173__$cf4e464779e327044a8b0f3baedf8c509a$__5af480156106dc575f955f91610901575b506104919086926108eb895160208a015114610fe2565b808801519760a061012082015191015198610446565b610491965061092291503d805f833e61091a818361010f565b810190610ec8565b90956108d4565b9092506109499194503d805f833e610941818361010f565b810190610ce2565b939093915f61036d565b346100bc575f3660031901126100bc576001546040516001600160a01b039091168152602090f35b519081151582036100bc57565b5f5b8381106109995750505f910152565b818101518382015260200161098a565b81601f820112156100bc5780516109bf81610196565b926109cd604051948561010f565b818452602082840101116100bc576109eb9160208085019101610988565b90565b90602091610a0781518092818552858086019101610988565b601f01601f1916010190565b90808251908181526020809101926020808460051b8301019501935f915b848310610a415750505050505090565b9091929394958480610a5f600193601f198682030187528a516109ee565b9801930193019194939290610a31565b91610a8c906109eb94928452606060208501526060840190610a13565b916040818403910152610a13565b6040513d5f823e3d90fd5b6020808201908083528351809252604092604081018260408560051b8401019601945f925b858410610adb575050505050505090565b909192939495968580610b18600193603f198682030188528b519083610b0883518a84528a8401906109ee565b92015190848184039101526109ee565b990194019401929594939190610aca565b60408051632dcdc7f360e21b81529390925f9285928392610b4d9260048501610a6f565b038173__$3722496103718914d7ca0167ec75882f47$__5af49182156106dc575f905f93610be4575b5015610bde577fb4676d1a01634d88fa8d6ccb546ce14758f92286577febcdf9f1cef2bcb6955e610bcd7fc33356bc2bad2ce263b056da5d061d4e89c336823d5e77f14c1383aedb7a1b3a93835191829182610aa5565b0390a15160018152602090a1600190565b50505f90565b9250503d805f843e610bf6818461010f565b820181838203126100bc57610c0a8361097b565b90602090818501516001600160401b03958682116100bc57019080601f830112156100bc578151610c3a8161017f565b96610c478751988961010f565b818852848089019260051b850101938385116100bc57858101925b858410610c7657505050505050505f610b76565b83518381116100bc5782019089601f1983880301126100bc57895190610c9b826100d4565b888301518581116100bc57878a610cb4928601016109a9565b82528a830151918583116100bc57610cd3888b809695819601016109a9565b83820152815201930192610c62565b91906040838203126100bc578251906001600160401b03918281116100bc5784016080818303126100bc5760405191610d1a836100f4565b81518352602082015160208401526040820151604084015260608201519384116100bc57602093610d4b92016109a9565b606082015292015190565b9060206109eb9281815201906109ee565b6040519061018082018281106001600160401b038211176100ef576040525f61016083606080825283602083015283604083015283818301528060808301528360a08301528060c08301528060e083015283610100830152806101208301526101408201520152565b6040519061016082018281106001600160401b038211176100ef576040525f61014083606080825283602083015283604083015283818301528060808301528360a08301528060c08301528060e0830152806101008301526101208201520152565b90610e4560209282815194859201610988565b0190565b81601f820112156100bc57805191602091610e638461017f565b93610e71604051958661010f565b808552838086019160051b830101928084116100bc57848301915b848310610e9c5750505050505090565b82516001600160401b0381116100bc578691610ebd848480948901016109a9565b815201920191610e8c565b91906040838203126100bc5782516001600160401b03908181116100bc578401610160818403126100bc57610efb610130565b9181518181116100bc5784610f119184016109a9565b835260208201516020840152604082015160408401526060820151606084015260808201518181116100bc5784610f499184016109a9565b608084015260a082015160a084015260c08201518181116100bc5784610f709184016109a9565b60c084015260e08201518181116100bc5784610f8d918401610e49565b60e0840152610100808301518281116100bc5785610fac9185016109a9565b9084015261012090818301519081116100bc57602094610fcd9184016109a9565b90830152610140809101519082015292015190565b15610fe957565b60405162461bcd60e51b815260206004820152601c60248201527f4368616e6e656c204944206d757374206265207468652073616d652e000000006044820152606490fd5b91906040838203126100bc5782516001600160401b03908181116100bc578401610180818403126100bc57611061610150565b9181518181116100bc57846110779184016109a9565b835260208201516020840152604082015160408401526060820151606084015260808201518181116100bc57846110af9184016109a9565b608084015260a082015160a084015260c08201518181116100bc57846110d69184016109a9565b60c084015260e08201518181116100bc57846110f3918401610e49565b60e08401526101008083015190840152610120808301518281116100bc578561111d9185016109a9565b9084015261014090818301519081116100bc5760209461113e9184016109a9565b90830152610160809101519082015292015190565b60405190611160826100f4565b5f6060838281528260208201528260408201520152565b91908260809103126100bc57815161118e8161029d565b91602081015161119d8161029d565b916060604083015192015190565b156111b257565b60405162461bcd60e51b815260206004820152601f60248201527f546865206368616e6e656c206d757374206e6f7420626520636c6f7365642e006044820152606490fd5b156111fe57565b60405162461bcd60e51b815260206004820152603160248201527f4974206d75737420626520612076616c696420726571756573742066726f6d206044820152703a3432903634b3b43a1031b634b2b73a1760791b6064820152608490fd5b1561126457565b60405162461bcd60e51b815260206004820152602e60248201527f4974206d7573742062652061207661696420726573706f6e73652066726f6d2060448201526d3a343290333ab636103737b2329760911b6064820152608490fd5b6040516112cc816100d4565b60018152805f5b6020808210156112ee579060606020928285010152016112d3565b50505090565b908160609103126100bc578051916040602083015192015190565b1561131657565b60405162461bcd60e51b815260206004820152601b60248201527f43616e7420747275737420796f757220726f6f742076616c75657300000000006044820152606490fd5b634e487b7160e01b5f52603260045260245ffd5b80511561137c5760200190565b61135b565b805182101561137c5760209160051b010190565b6020808201906020835283518092526040830192602060408460051b8301019501935f915b8483106113ca5750505050505090565b90919293949584806113e8600193603f198682030187528a516109ee565b98019301930191949392906113ba565b908160209103126100bc576109eb9061097b565b1561141357565b60405162461bcd60e51b815260206004820152602a60248201527f46726175642070726f6f662069732076616c69642e2046756c6c206e6f64652060448201526934b9903437b732b9ba1760b11b6064820152608490fd5b1561147257565b60405162461bcd60e51b815260206004820152602e60248201527f496e636f7272656374206e756d626572206f66206669656c647320696e20524c60448201526d5020656e636f646564206461746160901b6064820152608490fd5b6114d6611664565b5060208151604051906114e8826100d4565b81526020808201930183526114fc816117fd565b156100bc5761150a90611821565b906115148261017f565b92611522604051948561010f565b828452601f196115318461017f565b01825f5b8281106115d157505050611553905161154d816118dc565b906116a3565b5f905b83821061158e575050505061156e600182511161146b565b61158861158261157c610d67565b9261136f565b516116b0565b80915290565b6115c98161159d60019361193f565b906115a6610170565b82815281878201526115b8868a611381565b526115c38589611381565b506116a3565b910190611556565b6115d9611664565b828289010152018390611535565b6109eb916115f491611718565b90929192611770565b6001549092916001600160a01b0391821690813b156100bc575f60649284829681604051998a98899763158efc9960e21b89521660048801521660248601521660448401525af180156106dc576116515750565b6001600160401b0381116100ef57604052565b60405190611671826100d4565b5f6020838281520152565b634e487b7160e01b5f52601160045260245ffd5b906001820180921161169e57565b61167c565b9190820180921161169e57565b8051156100bc57602081016116c581516118dc565b90519181830180931161169e575190810390811161169e57806116ea6109eb92610196565b926116f8604051948561010f565b818452601f1961170783610196565b0136602086013783602001906119ce565b8151919060418303611748576117419250602082015190606060408401519301515f1a90611a4b565b9192909190565b50505f9160029190565b6004111561175c57565b634e487b7160e01b5f52602160045260245ffd5b61177981611752565b80611782575050565b61178b81611752565b600181036117a55760405163f645eedf60e01b8152600490fd5b6117ae81611752565b600281036117cf5760405163fce698f760e01b815260048101839052602490fd5b806117db600392611752565b146117e35750565b6040516335e2f38360e21b81526004810191909152602490fd5b80511561181c57602060c0910151515f1a1061181857600190565b5f90565b505f90565b80511561181c575f906020810190815161183a816118dc565b810180911161169e5791519051810180911161169e5791905b8281106118605750905090565b6118698161193f565b810180911161169e57905f19811461169e5760010190611853565b60bf1981019190821161169e57565b607f1981019190821161169e57565b602003906020821161169e57565b5f1981019190821161169e57565b60f61981019190821161169e57565b60b61981019190821161169e57565b515f1a60808110156118ed57505f90565b60b881108015611929575b156119035750600190565b60c081101561191d576119186109eb916118cd565b611690565b6119186109eb916118be565b5060c081101580156118f8575060f881106118f8565b80515f1a906080821015611954575050600190565b60b882101561196a57506119186109eb91611893565b9060c081101561198e5760b51991600160b783602003016101000a91015104010190565b9060f88210156119a557506119186109eb91611884565b60010151602082900360f7016101000a90040160f5190190565b601f811161169e576101000a90565b929091928315611a455792915b602093848410611a10578051825284810180911161169e5793810180911161169e5791601f19810190811161169e57916119db565b9193509180611a1e57505050565b611a32611a2d611a37926118a2565b6119bf565b6118b0565b905182518216911916179052565b50915050565b91907f7fffffffffffffffffffffffffffffff5d576e7357a4501ddfe92f46681b20a08411611ac2579160209360809260ff5f9560405194855216868401526040830152606082015282805260015afa156106dc575f516001600160a01b03811615611ab857905f905f90565b505f906001905f90565b5050505f916003919056fea2646970667358221220c70bf96eb89bf22d604b190dc40b234c01c574a2d803b027d2f59c294e17501364736f6c63430008180033",
			"opcodes": "PUSH1 0x80 CALLVALUE PUSH2 0x8E JUMPI PUSH1 0x1F PUSH3 0x1BBE CODESIZE DUP2 SWAP1 SUB SWAP2 DUP3 ADD PUSH1 0x1F NOT AND DUP4 ADD SWAP2 PUSH1 0x1 PUSH1 0x1 PUSH1 0x40 SHL SUB DUP4 GT DUP5 DUP5 LT OR PUSH2 0x92 JUMPI DUP1 DUP5 SWAP3 PUSH1 0x40 SWAP5 DUP6 MSTORE DUP4 CODECOPY DUP2 ADD SUB SLT PUSH2 0x8E JUMPI PUSH2 0x53 PUSH1 0x20 PUSH2 0x4C DUP4 PUSH2 0xA6 JUMP JUMPDEST SWAP3 ADD PUSH2 0xA6 JUMP JUMPDEST PUSH0 DUP1 SLOAD PUSH1 0x1 PUSH1 0x1 PUSH1 0xA0 SHL SUB SWAP4 DUP5 AND PUSH1 0x1 PUSH1 0x1 PUSH1 0xA0 SHL SUB NOT SWAP2 DUP3 AND OR SWAP1 SWAP2 SSTORE PUSH1 0x1 DUP1 SLOAD SWAP3 SWAP1 SWAP4 AND SWAP2 AND OR SWAP1 SSTORE PUSH1 0x40 MLOAD PUSH2 0x1B03 SWAP1 DUP2 PUSH3 0xBB DUP3 CODECOPY RETURN JUMPDEST PUSH0 DUP1 REVERT JUMPDEST PUSH4 0x4E487B71 PUSH1 0xE0 SHL PUSH0 MSTORE PUSH1 0x41 PUSH1 0x4 MSTORE PUSH1 0x24 PUSH0 REVERT JUMPDEST MLOAD SWAP1 PUSH1 0x1 PUSH1 0x1 PUSH1 0xA0 SHL SUB DUP3 AND DUP3 SUB PUSH2 0x8E JUMPI JUMP INVALID PUSH1 0x80 PUSH1 0x40 MSTORE PUSH1 0x4 CALLDATASIZE LT ISZERO PUSH2 0x1A JUMPI JUMPDEST CALLDATASIZE ISZERO PUSH2 0x18 JUMPI PUSH0 DUP1 REVERT JUMPDEST STOP JUMPDEST PUSH0 CALLDATALOAD PUSH1 0xE0 SHR DUP1 PUSH4 0x3D937B4A EQ PUSH2 0x59 JUMPI DUP1 PUSH4 0x6C2190AB EQ PUSH2 0x54 JUMPI DUP1 PUSH4 0xA1804788 EQ PUSH2 0x4F JUMPI PUSH4 0xE94AD65B SUB PUSH2 0xE JUMPI PUSH2 0x953 JUMP JUMPDEST PUSH2 0x2AE JUMP JUMPDEST PUSH2 0x276 JUMP JUMPDEST CALLVALUE PUSH2 0xBC JUMPI PUSH1 0x60 CALLDATASIZE PUSH1 0x3 NOT ADD SLT PUSH2 0xBC JUMPI PUSH1 0x1 PUSH1 0x1 PUSH1 0x40 SHL SUB PUSH1 0x24 CALLDATALOAD DUP2 DUP2 GT PUSH2 0xBC JUMPI PUSH2 0x8A SWAP1 CALLDATASIZE SWAP1 PUSH1 0x4 ADD PUSH2 0x1F7 JUMP JUMPDEST SWAP1 PUSH1 0x44 CALLDATALOAD SWAP1 DUP2 GT PUSH2 0xBC JUMPI PUSH1 0x20 SWAP2 PUSH2 0xA9 PUSH2 0xB2 SWAP3 CALLDATASIZE SWAP1 PUSH1 0x4 ADD PUSH2 0x1F7 JUMP JUMPDEST SWAP1 PUSH1 0x4 CALLDATALOAD PUSH2 0xB29 JUMP JUMPDEST PUSH1 0x40 MLOAD SWAP1 ISZERO ISZERO DUP2 MSTORE RETURN JUMPDEST PUSH0 DUP1 REVERT JUMPDEST PUSH4 0x4E487B71 PUSH1 0xE0 SHL PUSH0 MSTORE PUSH1 0x41 PUSH1 0x4 MSTORE PUSH1 0x24 PUSH0 REVERT JUMPDEST PUSH1 0x40 DUP2 ADD SWAP1 DUP2 LT PUSH1 0x1 PUSH1 0x1 PUSH1 0x40 SHL SUB DUP3 GT OR PUSH2 0xEF JUMPI PUSH1 0x40 MSTORE JUMP JUMPDEST PUSH2 0xC0 JUMP JUMPDEST PUSH1 0x80 DUP2 ADD SWAP1 DUP2 LT PUSH1 0x1 PUSH1 0x1 PUSH1 0x40 SHL SUB DUP3 GT OR PUSH2 0xEF JUMPI PUSH1 0x40 MSTORE JUMP JUMPDEST SWAP1 PUSH1 0x1F DUP1 NOT SWAP2 ADD AND DUP2 ADD SWAP1 DUP2 LT PUSH1 0x1 PUSH1 0x1 PUSH1 0x40 SHL SUB DUP3 GT OR PUSH2 0xEF JUMPI PUSH1 0x40 MSTORE JUMP JUMPDEST PUSH1 0x40 MLOAD SWAP1 PUSH2 0x160 DUP3 ADD DUP3 DUP2 LT PUSH1 0x1 PUSH1 0x1 PUSH1 0x40 SHL SUB DUP3 GT OR PUSH2 0xEF JUMPI PUSH1 0x40 MSTORE JUMP JUMPDEST PUSH1 0x40 MLOAD SWAP1 PUSH2 0x180 DUP3 ADD DUP3 DUP2 LT PUSH1 0x1 PUSH1 0x1 PUSH1 0x40 SHL SUB DUP3 GT OR PUSH2 0xEF JUMPI PUSH1 0x40 MSTORE JUMP JUMPDEST PUSH1 0x40 MLOAD SWAP1 PUSH2 0x17D DUP3 PUSH2 0xD4 JUMP JUMPDEST JUMP JUMPDEST PUSH1 0x1 PUSH1 0x1 PUSH1 0x40 SHL SUB DUP2 GT PUSH2 0xEF JUMPI PUSH1 0x5 SHL PUSH1 0x20 ADD SWAP1 JUMP JUMPDEST PUSH1 0x1 PUSH1 0x1 PUSH1 0x40 SHL SUB DUP2 GT PUSH2 0xEF JUMPI PUSH1 0x1F ADD PUSH1 0x1F NOT AND PUSH1 0x20 ADD SWAP1 JUMP JUMPDEST DUP2 PUSH1 0x1F DUP3 ADD SLT ISZERO PUSH2 0xBC JUMPI DUP1 CALLDATALOAD SWAP1 PUSH2 0x1C8 DUP3 PUSH2 0x196 JUMP JUMPDEST SWAP3 PUSH2 0x1D6 PUSH1 0x40 MLOAD SWAP5 DUP6 PUSH2 0x10F JUMP JUMPDEST DUP3 DUP5 MSTORE PUSH1 0x20 DUP4 DUP4 ADD ADD GT PUSH2 0xBC JUMPI DUP2 PUSH0 SWAP3 PUSH1 0x20 DUP1 SWAP4 ADD DUP4 DUP7 ADD CALLDATACOPY DUP4 ADD ADD MSTORE SWAP1 JUMP JUMPDEST DUP2 PUSH1 0x1F DUP3 ADD SLT ISZERO PUSH2 0xBC JUMPI DUP1 CALLDATALOAD SWAP2 PUSH1 0x20 SWAP2 PUSH2 0x211 DUP5 PUSH2 0x17F JUMP JUMPDEST SWAP4 PUSH2 0x21F PUSH1 0x40 MLOAD SWAP6 DUP7 PUSH2 0x10F JUMP JUMPDEST DUP1 DUP6 MSTORE DUP4 DUP1 DUP7 ADD SWAP2 PUSH1 0x5 SHL DUP4 ADD ADD SWAP3 DUP1 DUP5 GT PUSH2 0xBC JUMPI DUP5 DUP4 ADD SWAP2 JUMPDEST DUP5 DUP4 LT PUSH2 0x24A JUMPI POP POP POP POP POP POP SWAP1 JUMP JUMPDEST DUP3 CALLDATALOAD PUSH1 0x1 PUSH1 0x1 PUSH1 0x40 SHL SUB DUP2 GT PUSH2 0xBC JUMPI DUP7 SWAP2 PUSH2 0x26B DUP5 DUP5 DUP1 SWAP5 DUP10 ADD ADD PUSH2 0x1B1 JUMP JUMPDEST DUP2 MSTORE ADD SWAP3 ADD SWAP2 PUSH2 0x23A JUMP JUMPDEST CALLVALUE PUSH2 0xBC JUMPI PUSH0 CALLDATASIZE PUSH1 0x3 NOT ADD SLT PUSH2 0xBC JUMPI PUSH0 SLOAD PUSH1 0x40 MLOAD PUSH1 0x1 PUSH1 0x1 PUSH1 0xA0 SHL SUB SWAP1 SWAP2 AND DUP2 MSTORE PUSH1 0x20 SWAP1 RETURN JUMPDEST PUSH1 0x1 PUSH1 0x1 PUSH1 0xA0 SHL SUB DUP2 AND SUB PUSH2 0xBC JUMPI JUMP JUMPDEST CALLVALUE PUSH2 0xBC JUMPI PUSH1 0x80 DUP1 PUSH1 0x3 NOT CALLDATASIZE ADD SLT PUSH2 0xBC JUMPI PUSH1 0x1 PUSH1 0x1 PUSH1 0x40 SHL SUB PUSH1 0x4 CALLDATALOAD DUP2 DUP2 GT PUSH2 0xBC JUMPI PUSH2 0x2E0 SWAP1 CALLDATASIZE SWAP1 PUSH1 0x4 ADD PUSH2 0x1B1 JUMP JUMPDEST PUSH1 0x24 CALLDATALOAD DUP3 DUP2 GT PUSH2 0xBC JUMPI PUSH2 0x2F8 SWAP1 CALLDATASIZE SWAP1 PUSH1 0x4 ADD PUSH2 0x1B1 JUMP JUMPDEST PUSH1 0x44 CALLDATALOAD SWAP3 DUP4 GT PUSH2 0xBC JUMPI PUSH2 0x313 PUSH2 0x344 SWAP4 CALLDATASIZE SWAP1 PUSH1 0x4 ADD PUSH2 0x1B1 JUMP JUMPDEST SWAP4 PUSH2 0x31F PUSH1 0x64 CALLDATALOAD PUSH2 0x29D JUMP JUMPDEST PUSH0 PUSH2 0x329 DUP5 PUSH2 0x14CE JUMP JUMPDEST SWAP3 PUSH1 0x40 MLOAD DUP1 SWAP7 DUP2 SWAP3 PUSH4 0xFE0103F7 PUSH1 0xE0 SHL DUP4 MSTORE PUSH1 0x4 DUP4 ADD PUSH2 0xD56 JUMP JUMPDEST SUB DUP2 PUSH20 0x0 GAS DELEGATECALL SWAP2 DUP3 ISZERO PUSH2 0x6DC JUMPI PUSH0 SWAP5 PUSH0 SWAP4 PUSH2 0x929 JUMPI JUMPDEST POP PUSH2 0x376 PUSH2 0xD67 JUMP JUMPDEST PUSH2 0x37E PUSH2 0xDD0 JUMP JUMPDEST SWAP1 PUSH1 0x40 MLOAD PUSH2 0x3A1 DUP2 PUSH2 0x393 PUSH1 0x20 DUP3 ADD DUP8 PUSH2 0xE32 JUMP JUMPDEST SUB PUSH1 0x1F NOT DUP2 ADD DUP4 MSTORE DUP3 PUSH2 0x10F JUMP JUMPDEST PUSH1 0x20 DUP2 MLOAD SWAP2 ADD KECCAK256 PUSH1 0x40 MLOAD PUSH1 0x20 DUP2 ADD SWAP1 PUSH2 0x3CD DUP2 PUSH2 0x393 DUP5 PUSH1 0x8 SWAP1 PUSH8 0x726573706F6E7365 PUSH1 0xC0 SHL DUP2 MSTORE ADD SWAP1 JUMP JUMPDEST MLOAD SWAP1 KECCAK256 SUB PUSH2 0x88A JUMPI POP PUSH0 PUSH2 0x3F5 SWAP6 PUSH1 0x40 MLOAD DUP1 SWAP8 DUP2 SWAP3 PUSH4 0x4476F251 PUSH1 0xE1 SHL DUP4 MSTORE PUSH1 0x4 DUP4 ADD PUSH2 0xD56 JUMP JUMPDEST SUB DUP2 PUSH20 0x0 GAS DELEGATECALL DUP1 ISZERO PUSH2 0x6DC JUMPI PUSH0 SWAP6 PUSH0 SWAP2 PUSH2 0x862 JUMPI JUMPDEST POP PUSH2 0x491 SWAP1 DUP7 SWAP5 PUSH2 0x434 DUP10 MLOAD PUSH1 0x20 DUP11 ADD MLOAD EQ PUSH2 0xFE2 JUMP JUMPDEST DUP1 DUP9 ADD MLOAD SWAP8 PUSH1 0xA0 PUSH2 0x140 DUP3 ADD MLOAD SWAP2 ADD MLOAD SWAP9 JUMPDEST DUP3 PUSH2 0x44F PUSH2 0x1153 JUMP JUMPDEST PUSH0 SLOAD SWAP1 SWAP13 SWAP1 PUSH2 0x46E SWAP1 PUSH1 0x1 PUSH1 0x1 PUSH1 0xA0 SHL SUB AND JUMPDEST PUSH1 0x1 PUSH1 0x1 PUSH1 0xA0 SHL SUB AND SWAP1 JUMP JUMPDEST SWAP1 MLOAD SWAP1 PUSH1 0x40 MLOAD DUP1 DUP1 SWAP10 DUP2 SWAP5 PUSH4 0x1577FFAF PUSH1 0xE1 SHL DUP4 MSTORE PUSH1 0x4 DUP4 ADD SWAP2 SWAP1 PUSH1 0x20 DUP4 ADD SWAP3 MSTORE JUMP JUMPDEST SUB SWAP2 GAS STATICCALL SWAP1 DUP2 ISZERO PUSH2 0x6DC JUMPI PUSH2 0x569 SWAP10 PUSH2 0x4F1 DUP14 PUSH2 0x4F6 SWAP5 PUSH2 0x544 SWAP10 PUSH2 0x522 SWAP9 PUSH0 SWAP2 PUSH0 SWAP2 PUSH0 SWAP5 PUSH2 0x827 JUMPI JUMPDEST POP POP PUSH1 0x40 DUP5 ADD SWAP3 DUP4 MSTORE PUSH1 0x1 PUSH1 0x1 PUSH1 0xA0 SHL SUB AND PUSH1 0x20 DUP5 ADD MSTORE SWAP1 SWAP2 PUSH2 0x4E9 SWAP2 SWAP1 JUMPDEST PUSH1 0x1 PUSH1 0x1 PUSH1 0xA0 SHL SUB SWAP1 SWAP2 AND SWAP1 MSTORE JUMP JUMPDEST MLOAD ISZERO ISZERO PUSH2 0x11AB JUMP JUMPDEST PUSH2 0x15E7 JUMP JUMPDEST DUP11 MLOAD SWAP1 SWAP4 SWAP1 PUSH2 0x4F1 SWAP1 PUSH2 0x511 SWAP1 PUSH1 0x1 PUSH1 0x1 PUSH1 0xA0 SHL SUB AND PUSH2 0x462 JUMP JUMPDEST PUSH1 0x1 PUSH1 0x1 PUSH1 0xA0 SHL SUB SWAP6 DUP7 AND EQ PUSH2 0x11F7 JUMP JUMPDEST PUSH1 0x20 DUP10 ADD MLOAD SWAP1 SWAP2 SWAP1 PUSH2 0x53C SWAP1 PUSH1 0x1 PUSH1 0x1 PUSH1 0xA0 SHL SUB AND PUSH2 0x462 JUMP JUMPDEST SWAP2 AND EQ PUSH2 0x125D JUMP JUMPDEST PUSH1 0x60 PUSH2 0x54E PUSH2 0x12C0 JUMP JUMPDEST SWAP8 PUSH1 0x40 MLOAD DUP1 SWAP7 DUP2 SWAP3 PUSH4 0x326D7CEB PUSH1 0xE1 SHL DUP4 MSTORE PUSH1 0x4 DUP4 ADD PUSH2 0xD56 JUMP JUMPDEST SUB DUP2 PUSH20 0x0 GAS DELEGATECALL SWAP2 DUP3 ISZERO PUSH2 0x6DC JUMPI PUSH1 0x20 SWAP6 PUSH0 SWAP1 PUSH0 SWAP7 PUSH0 SWAP6 PUSH2 0x7EC JUMPI JUMPDEST POP SWAP1 PUSH2 0x5A4 SWAP2 BLOCKHASH EQ PUSH2 0x130F JUMP JUMPDEST PUSH1 0x40 MLOAD PUSH2 0x5B8 DUP2 PUSH2 0x393 DUP10 DUP3 ADD DUP1 SWAP6 PUSH2 0xE32 JUMP JUMPDEST MLOAD SWAP1 KECCAK256 PUSH1 0x40 MLOAD PUSH8 0x726573706F6E7365 PUSH1 0xC0 SHL DUP8 DUP3 ADD SWAP1 DUP2 MSTORE SWAP1 PUSH2 0x5DE DUP2 PUSH1 0x8 DUP5 ADD PUSH2 0x393 JUMP JUMPDEST MLOAD SWAP1 KECCAK256 SUB PUSH2 0x6E1 JUMPI POP POP DUP1 PUSH2 0x120 PUSH1 0xE0 SWAP3 ADD MLOAD PUSH2 0x5FA DUP8 PUSH2 0x136F JUMP JUMPDEST MSTORE PUSH2 0x604 DUP7 PUSH2 0x136F JUMP JUMPDEST POP ADD MLOAD PUSH1 0x40 MLOAD PUSH4 0x1EC9BDA5 PUSH1 0xE1 SHL DUP2 MSTORE SWAP5 DUP6 SWAP3 DUP4 SWAP3 PUSH2 0x627 SWAP3 SWAP2 PUSH1 0x4 DUP6 ADD PUSH2 0xA6F JUMP JUMPDEST SUB DUP2 PUSH20 0x0 GAS DELEGATECALL DUP1 ISZERO PUSH2 0x6DC JUMPI PUSH1 0x1 PUSH2 0x68F SWAP2 PUSH2 0x18 SWAP5 PUSH0 SWAP2 PUSH2 0x6AD JUMPI JUMPDEST POP JUMPDEST PUSH1 0x40 MLOAD DUP2 ISZERO ISZERO DUP2 MSTORE PUSH32 0xC33356BC2BAD2CE263B056DA5D061D4E89C336823D5E77F14C1383AEDB7A1B3A SWAP1 PUSH1 0x20 SWAP1 LOG1 ISZERO ISZERO EQ PUSH2 0x140C JUMP JUMPDEST DUP1 MLOAD PUSH1 0x20 SWAP1 SWAP2 ADD MLOAD PUSH1 0x64 CALLDATALOAD SWAP2 PUSH1 0x1 PUSH1 0x1 PUSH1 0xA0 SHL SUB SWAP2 DUP3 AND SWAP2 AND PUSH2 0x15FD JUMP JUMPDEST PUSH2 0x6CF SWAP2 POP PUSH1 0x20 RETURNDATASIZE PUSH1 0x20 GT PUSH2 0x6D5 JUMPI JUMPDEST PUSH2 0x6C7 DUP2 DUP4 PUSH2 0x10F JUMP JUMPDEST DUP2 ADD SWAP1 PUSH2 0x13F8 JUMP JUMPDEST PUSH0 PUSH2 0x657 JUMP JUMPDEST POP RETURNDATASIZE PUSH2 0x6BD JUMP JUMPDEST PUSH2 0xA9A JUMP JUMPDEST SWAP1 SWAP3 POP PUSH1 0xE0 SWAP2 POP PUSH2 0x100 DUP2 ADD MLOAD PUSH2 0x6F7 DUP8 PUSH2 0x136F JUMP JUMPDEST MSTORE PUSH2 0x701 DUP7 PUSH2 0x136F JUMP JUMPDEST POP PUSH1 0x40 MLOAD DUP4 DUP2 MSTORE PUSH32 0xF9A7EA37911815F4A89B25E48DC4EE38541A0E1128907411984B0A228788C879 SWAP1 PUSH1 0x20 SWAP1 LOG1 ADD PUSH2 0x762 DUP2 MLOAD PUSH1 0x40 MLOAD DUP1 PUSH32 0xBFCA9EEDC3C89469B344A99A30E4F08E375A01FC8C3618713197C268E747518C SWAP4 DUP5 SWAP4 DUP3 PUSH2 0x1395 JUMP JUMPDEST SUB SWAP1 LOG1 PUSH1 0x40 MLOAD DUP1 PUSH2 0x773 DUP9 DUP3 PUSH2 0x1395 JUMP JUMPDEST SUB SWAP1 LOG1 MLOAD PUSH1 0x40 MLOAD PUSH4 0x1EC9BDA5 PUSH1 0xE1 SHL DUP2 MSTORE SWAP5 DUP6 SWAP3 DUP4 SWAP3 PUSH2 0x797 SWAP3 SWAP2 PUSH1 0x4 DUP6 ADD PUSH2 0xA6F JUMP JUMPDEST SUB DUP2 PUSH20 0x0 GAS DELEGATECALL DUP1 ISZERO PUSH2 0x6DC JUMPI PUSH1 0x1 PUSH2 0x68F SWAP2 PUSH2 0x18 SWAP5 PUSH0 SWAP2 PUSH2 0x7CD JUMPI JUMPDEST POP PUSH2 0x659 JUMP JUMPDEST PUSH2 0x7E6 SWAP2 POP PUSH1 0x20 RETURNDATASIZE PUSH1 0x20 GT PUSH2 0x6D5 JUMPI PUSH2 0x6C7 DUP2 DUP4 PUSH2 0x10F JUMP JUMPDEST PUSH0 PUSH2 0x7C7 JUMP JUMPDEST SWAP1 SWAP5 POP PUSH2 0x5A4 SWAP7 POP PUSH2 0x816 SWAP2 POP PUSH1 0x60 RETURNDATASIZE PUSH1 0x60 GT PUSH2 0x820 JUMPI JUMPDEST PUSH2 0x80E DUP2 DUP4 PUSH2 0x10F JUMP JUMPDEST DUP2 ADD SWAP1 PUSH2 0x12F4 JUMP JUMPDEST SWAP1 SWAP7 SWAP1 SWAP5 SWAP1 PUSH2 0x597 JUMP JUMPDEST POP RETURNDATASIZE PUSH2 0x804 JUMP JUMPDEST PUSH2 0x4E9 SWAP5 POP PUSH2 0x4DA SWAP4 POP PUSH2 0x850 SWAP3 POP DUP1 RETURNDATASIZE LT PUSH2 0x85B JUMPI JUMPDEST PUSH2 0x848 DUP2 DUP4 PUSH2 0x10F JUMP JUMPDEST DUP2 ADD SWAP1 PUSH2 0x1177 JUMP JUMPDEST POP SWAP4 SWAP2 SWAP3 SWAP1 SWAP2 PUSH2 0x4BB JUMP JUMPDEST POP RETURNDATASIZE PUSH2 0x83E JUMP JUMPDEST PUSH2 0x491 SWAP7 POP PUSH2 0x883 SWAP2 POP RETURNDATASIZE DUP1 PUSH0 DUP4 RETURNDATACOPY PUSH2 0x87B DUP2 DUP4 PUSH2 0x10F JUMP JUMPDEST DUP2 ADD SWAP1 PUSH2 0x102E JUMP JUMPDEST SWAP1 SWAP6 PUSH2 0x41D JUMP JUMPDEST SWAP3 SWAP1 POP PUSH0 PUSH2 0x8AC SWAP6 PUSH1 0x40 MLOAD DUP1 SWAP8 DUP2 SWAP3 PUSH4 0xE09BC827 PUSH1 0xE0 SHL DUP4 MSTORE PUSH1 0x4 DUP4 ADD PUSH2 0xD56 JUMP JUMPDEST SUB DUP2 PUSH20 0x0 GAS DELEGATECALL DUP1 ISZERO PUSH2 0x6DC JUMPI PUSH0 SWAP6 PUSH0 SWAP2 PUSH2 0x901 JUMPI JUMPDEST POP PUSH2 0x491 SWAP1 DUP7 SWAP3 PUSH2 0x8EB DUP10 MLOAD PUSH1 0x20 DUP11 ADD MLOAD EQ PUSH2 0xFE2 JUMP JUMPDEST DUP1 DUP9 ADD MLOAD SWAP8 PUSH1 0xA0 PUSH2 0x120 DUP3 ADD MLOAD SWAP2 ADD MLOAD SWAP9 PUSH2 0x446 JUMP JUMPDEST PUSH2 0x491 SWAP7 POP PUSH2 0x922 SWAP2 POP RETURNDATASIZE DUP1 PUSH0 DUP4 RETURNDATACOPY PUSH2 0x91A DUP2 DUP4 PUSH2 0x10F JUMP JUMPDEST DUP2 ADD SWAP1 PUSH2 0xEC8 JUMP JUMPDEST SWAP1 SWAP6 PUSH2 0x8D4 JUMP JUMPDEST SWAP1 SWAP3 POP PUSH2 0x949 SWAP2 SWAP5 POP RETURNDATASIZE DUP1 PUSH0 DUP4 RETURNDATACOPY PUSH2 0x941 DUP2 DUP4 PUSH2 0x10F JUMP JUMPDEST DUP2 ADD SWAP1 PUSH2 0xCE2 JUMP JUMPDEST SWAP4 SWAP1 SWAP4 SWAP2 PUSH0 PUSH2 0x36D JUMP JUMPDEST CALLVALUE PUSH2 0xBC JUMPI PUSH0 CALLDATASIZE PUSH1 0x3 NOT ADD SLT PUSH2 0xBC JUMPI PUSH1 0x1 SLOAD PUSH1 0x40 MLOAD PUSH1 0x1 PUSH1 0x1 PUSH1 0xA0 SHL SUB SWAP1 SWAP2 AND DUP2 MSTORE PUSH1 0x20 SWAP1 RETURN JUMPDEST MLOAD SWAP1 DUP2 ISZERO ISZERO DUP3 SUB PUSH2 0xBC JUMPI JUMP JUMPDEST PUSH0 JUMPDEST DUP4 DUP2 LT PUSH2 0x999 JUMPI POP POP PUSH0 SWAP2 ADD MSTORE JUMP JUMPDEST DUP2 DUP2 ADD MLOAD DUP4 DUP3 ADD MSTORE PUSH1 0x20 ADD PUSH2 0x98A JUMP JUMPDEST DUP2 PUSH1 0x1F DUP3 ADD SLT ISZERO PUSH2 0xBC JUMPI DUP1 MLOAD PUSH2 0x9BF DUP2 PUSH2 0x196 JUMP JUMPDEST SWAP3 PUSH2 0x9CD PUSH1 0x40 MLOAD SWAP5 DUP6 PUSH2 0x10F JUMP JUMPDEST DUP2 DUP5 MSTORE PUSH1 0x20 DUP3 DUP5 ADD ADD GT PUSH2 0xBC JUMPI PUSH2 0x9EB SWAP2 PUSH1 0x20 DUP1 DUP6 ADD SWAP2 ADD PUSH2 0x988 JUMP JUMPDEST SWAP1 JUMP JUMPDEST SWAP1 PUSH1 0x20 SWAP2 PUSH2 0xA07 DUP2 MLOAD DUP1 SWAP3 DUP2 DUP6 MSTORE DUP6 DUP1 DUP7 ADD SWAP2 ADD PUSH2 0x988 JUMP JUMPDEST PUSH1 0x1F ADD PUSH1 0x1F NOT AND ADD ADD SWAP1 JUMP JUMPDEST SWAP1 DUP1 DUP3 MLOAD SWAP1 DUP2 DUP2 MSTORE PUSH1 0x20 DUP1 SWAP2 ADD SWAP3 PUSH1 0x20 DUP1 DUP5 PUSH1 0x5 SHL DUP4 ADD ADD SWAP6 ADD SWAP4 PUSH0 SWAP2 JUMPDEST DUP5 DUP4 LT PUSH2 0xA41 JUMPI POP POP POP POP POP POP SWAP1 JUMP JUMPDEST SWAP1 SWAP2 SWAP3 SWAP4 SWAP5 SWAP6 DUP5 DUP1 PUSH2 0xA5F PUSH1 0x1 SWAP4 PUSH1 0x1F NOT DUP7 DUP3 SUB ADD DUP8 MSTORE DUP11 MLOAD PUSH2 0x9EE JUMP JUMPDEST SWAP9 ADD SWAP4 ADD SWAP4 ADD SWAP2 SWAP5 SWAP4 SWAP3 SWAP1 PUSH2 0xA31 JUMP JUMPDEST SWAP2 PUSH2 0xA8C SWAP1 PUSH2 0x9EB SWAP5 SWAP3 DUP5 MSTORE PUSH1 0x60 PUSH1 0x20 DUP6 ADD MSTORE PUSH1 0x60 DUP5 ADD SWAP1 PUSH2 0xA13 JUMP JUMPDEST SWAP2 PUSH1 0x40 DUP2 DUP5 SUB SWAP2 ADD MSTORE PUSH2 0xA13 JUMP JUMPDEST PUSH1 0x40 MLOAD RETURNDATASIZE PUSH0 DUP3 RETURNDATACOPY RETURNDATASIZE SWAP1 REVERT JUMPDEST PUSH1 0x20 DUP1 DUP3 ADD SWAP1 DUP1 DUP4 MSTORE DUP4 MLOAD DUP1 SWAP3 MSTORE PUSH1 0x40 SWAP3 PUSH1 0x40 DUP2 ADD DUP3 PUSH1 0x40 DUP6 PUSH1 0x5 SHL DUP5 ADD ADD SWAP7 ADD SWAP5 PUSH0 SWAP3 JUMPDEST DUP6 DUP5 LT PUSH2 0xADB JUMPI POP POP POP POP POP POP POP SWAP1 JUMP JUMPDEST SWAP1 SWAP2 SWAP3 SWAP4 SWAP5 SWAP6 SWAP7 DUP6 DUP1 PUSH2 0xB18 PUSH1 0x1 SWAP4 PUSH1 0x3F NOT DUP7 DUP3 SUB ADD DUP9 MSTORE DUP12 MLOAD SWAP1 DUP4 PUSH2 0xB08 DUP4 MLOAD DUP11 DUP5 MSTORE DUP11 DUP5 ADD SWAP1 PUSH2 0x9EE JUMP JUMPDEST SWAP3 ADD MLOAD SWAP1 DUP5 DUP2 DUP5 SUB SWAP2 ADD MSTORE PUSH2 0x9EE JUMP JUMPDEST SWAP10 ADD SWAP5 ADD SWAP5 ADD SWAP3 SWAP6 SWAP5 SWAP4 SWAP2 SWAP1 PUSH2 0xACA JUMP JUMPDEST PUSH1 0x40 DUP1 MLOAD PUSH4 0x2DCDC7F3 PUSH1 0xE2 SHL DUP2 MSTORE SWAP4 SWAP1 SWAP3 PUSH0 SWAP3 DUP6 SWAP3 DUP4 SWAP3 PUSH2 0xB4D SWAP3 PUSH1 0x4 DUP6 ADD PUSH2 0xA6F JUMP JUMPDEST SUB DUP2 PUSH20 0x0 GAS DELEGATECALL SWAP2 DUP3 ISZERO PUSH2 0x6DC JUMPI PUSH0 SWAP1 PUSH0 SWAP4 PUSH2 0xBE4 JUMPI JUMPDEST POP ISZERO PUSH2 0xBDE JUMPI PUSH32 0xB4676D1A01634D88FA8D6CCB546CE14758F92286577FEBCDF9F1CEF2BCB6955E PUSH2 0xBCD PUSH32 0xC33356BC2BAD2CE263B056DA5D061D4E89C336823D5E77F14C1383AEDB7A1B3A SWAP4 DUP4 MLOAD SWAP2 DUP3 SWAP2 DUP3 PUSH2 0xAA5 JUMP JUMPDEST SUB SWAP1 LOG1 MLOAD PUSH1 0x1 DUP2 MSTORE PUSH1 0x20 SWAP1 LOG1 PUSH1 0x1 SWAP1 JUMP JUMPDEST POP POP PUSH0 SWAP1 JUMP JUMPDEST SWAP3 POP POP RETURNDATASIZE DUP1 PUSH0 DUP5 RETURNDATACOPY PUSH2 0xBF6 DUP2 DUP5 PUSH2 0x10F JUMP JUMPDEST DUP3 ADD DUP2 DUP4 DUP3 SUB SLT PUSH2 0xBC JUMPI PUSH2 0xC0A DUP4 PUSH2 0x97B JUMP JUMPDEST SWAP1 PUSH1 0x20 SWAP1 DUP2 DUP6 ADD MLOAD PUSH1 0x1 PUSH1 0x1 PUSH1 0x40 SHL SUB SWAP6 DUP7 DUP3 GT PUSH2 0xBC JUMPI ADD SWAP1 DUP1 PUSH1 0x1F DUP4 ADD SLT ISZERO PUSH2 0xBC JUMPI DUP2 MLOAD PUSH2 0xC3A DUP2 PUSH2 0x17F JUMP JUMPDEST SWAP7 PUSH2 0xC47 DUP8 MLOAD SWAP9 DUP10 PUSH2 0x10F JUMP JUMPDEST DUP2 DUP9 MSTORE DUP5 DUP1 DUP10 ADD SWAP3 PUSH1 0x5 SHL DUP6 ADD ADD SWAP4 DUP4 DUP6 GT PUSH2 0xBC JUMPI DUP6 DUP2 ADD SWAP3 JUMPDEST DUP6 DUP5 LT PUSH2 0xC76 JUMPI POP POP POP POP POP POP POP PUSH0 PUSH2 0xB76 JUMP JUMPDEST DUP4 MLOAD DUP4 DUP2 GT PUSH2 0xBC JUMPI DUP3 ADD SWAP1 DUP10 PUSH1 0x1F NOT DUP4 DUP9 SUB ADD SLT PUSH2 0xBC JUMPI DUP10 MLOAD SWAP1 PUSH2 0xC9B DUP3 PUSH2 0xD4 JUMP JUMPDEST DUP9 DUP4 ADD MLOAD DUP6 DUP2 GT PUSH2 0xBC JUMPI DUP8 DUP11 PUSH2 0xCB4 SWAP3 DUP7 ADD ADD PUSH2 0x9A9 JUMP JUMPDEST DUP3 MSTORE DUP11 DUP4 ADD MLOAD SWAP2 DUP6 DUP4 GT PUSH2 0xBC JUMPI PUSH2 0xCD3 DUP9 DUP12 DUP1 SWAP7 SWAP6 DUP2 SWAP7 ADD ADD PUSH2 0x9A9 JUMP JUMPDEST DUP4 DUP3 ADD MSTORE DUP2 MSTORE ADD SWAP4 ADD SWAP3 PUSH2 0xC62 JUMP JUMPDEST SWAP2 SWAP1 PUSH1 0x40 DUP4 DUP3 SUB SLT PUSH2 0xBC JUMPI DUP3 MLOAD SWAP1 PUSH1 0x1 PUSH1 0x1 PUSH1 0x40 SHL SUB SWAP2 DUP3 DUP2 GT PUSH2 0xBC JUMPI DUP5 ADD PUSH1 0x80 DUP2 DUP4 SUB SLT PUSH2 0xBC JUMPI PUSH1 0x40 MLOAD SWAP2 PUSH2 0xD1A DUP4 PUSH2 0xF4 JUMP JUMPDEST DUP2 MLOAD DUP4 MSTORE PUSH1 0x20 DUP3 ADD MLOAD PUSH1 0x20 DUP5 ADD MSTORE PUSH1 0x40 DUP3 ADD MLOAD PUSH1 0x40 DUP5 ADD MSTORE PUSH1 0x60 DUP3 ADD MLOAD SWAP4 DUP5 GT PUSH2 0xBC JUMPI PUSH1 0x20 SWAP4 PUSH2 0xD4B SWAP3 ADD PUSH2 0x9A9 JUMP JUMPDEST PUSH1 0x60 DUP3 ADD MSTORE SWAP3 ADD MLOAD SWAP1 JUMP JUMPDEST SWAP1 PUSH1 0x20 PUSH2 0x9EB SWAP3 DUP2 DUP2 MSTORE ADD SWAP1 PUSH2 0x9EE JUMP JUMPDEST PUSH1 0x40 MLOAD SWAP1 PUSH2 0x180 DUP3 ADD DUP3 DUP2 LT PUSH1 0x1 PUSH1 0x1 PUSH1 0x40 SHL SUB DUP3 GT OR PUSH2 0xEF JUMPI PUSH1 0x40 MSTORE PUSH0 PUSH2 0x160 DUP4 PUSH1 0x60 DUP1 DUP3 MSTORE DUP4 PUSH1 0x20 DUP4 ADD MSTORE DUP4 PUSH1 0x40 DUP4 ADD MSTORE DUP4 DUP2 DUP4 ADD MSTORE DUP1 PUSH1 0x80 DUP4 ADD MSTORE DUP4 PUSH1 0xA0 DUP4 ADD MSTORE DUP1 PUSH1 0xC0 DUP4 ADD MSTORE DUP1 PUSH1 0xE0 DUP4 ADD MSTORE DUP4 PUSH2 0x100 DUP4 ADD MSTORE DUP1 PUSH2 0x120 DUP4 ADD MSTORE PUSH2 0x140 DUP3 ADD MSTORE ADD MSTORE JUMP JUMPDEST PUSH1 0x40 MLOAD SWAP1 PUSH2 0x160 DUP3 ADD DUP3 DUP2 LT PUSH1 0x1 PUSH1 0x1 PUSH1 0x40 SHL SUB DUP3 GT OR PUSH2 0xEF JUMPI PUSH1 0x40 MSTORE PUSH0 PUSH2 0x140 DUP4 PUSH1 0x60 DUP1 DUP3 MSTORE DUP4 PUSH1 0x20 DUP4 ADD MSTORE DUP4 PUSH1 0x40 DUP4 ADD MSTORE DUP4 DUP2 DUP4 ADD MSTORE DUP1 PUSH1 0x80 DUP4 ADD MSTORE DUP4 PUSH1 0xA0 DUP4 ADD MSTORE DUP1 PUSH1 0xC0 DUP4 ADD MSTORE DUP1 PUSH1 0xE0 DUP4 ADD MSTORE DUP1 PUSH2 0x100 DUP4 ADD MSTORE PUSH2 0x120 DUP3 ADD MSTORE ADD MSTORE JUMP JUMPDEST SWAP1 PUSH2 0xE45 PUSH1 0x20 SWAP3 DUP3 DUP2 MLOAD SWAP5 DUP6 SWAP3 ADD PUSH2 0x988 JUMP JUMPDEST ADD SWAP1 JUMP JUMPDEST DUP2 PUSH1 0x1F DUP3 ADD SLT ISZERO PUSH2 0xBC JUMPI DUP1 MLOAD SWAP2 PUSH1 0x20 SWAP2 PUSH2 0xE63 DUP5 PUSH2 0x17F JUMP JUMPDEST SWAP4 PUSH2 0xE71 PUSH1 0x40 MLOAD SWAP6 DUP7 PUSH2 0x10F JUMP JUMPDEST DUP1 DUP6 MSTORE DUP4 DUP1 DUP7 ADD SWAP2 PUSH1 0x5 SHL DUP4 ADD ADD SWAP3 DUP1 DUP5 GT PUSH2 0xBC JUMPI DUP5 DUP4 ADD SWAP2 JUMPDEST DUP5 DUP4 LT PUSH2 0xE9C JUMPI POP POP POP POP POP POP SWAP1 JUMP JUMPDEST DUP3 MLOAD PUSH1 0x1 PUSH1 0x1 PUSH1 0x40 SHL SUB DUP2 GT PUSH2 0xBC JUMPI DUP7 SWAP2 PUSH2 0xEBD DUP5 DUP5 DUP1 SWAP5 DUP10 ADD ADD PUSH2 0x9A9 JUMP JUMPDEST DUP2 MSTORE ADD SWAP3 ADD SWAP2 PUSH2 0xE8C JUMP JUMPDEST SWAP2 SWAP1 PUSH1 0x40 DUP4 DUP3 SUB SLT PUSH2 0xBC JUMPI DUP3 MLOAD PUSH1 0x1 PUSH1 0x1 PUSH1 0x40 SHL SUB SWAP1 DUP2 DUP2 GT PUSH2 0xBC JUMPI DUP5 ADD PUSH2 0x160 DUP2 DUP5 SUB SLT PUSH2 0xBC JUMPI PUSH2 0xEFB PUSH2 0x130 JUMP JUMPDEST SWAP2 DUP2 MLOAD DUP2 DUP2 GT PUSH2 0xBC JUMPI DUP5 PUSH2 0xF11 SWAP2 DUP5 ADD PUSH2 0x9A9 JUMP JUMPDEST DUP4 MSTORE PUSH1 0x20 DUP3 ADD MLOAD PUSH1 0x20 DUP5 ADD MSTORE PUSH1 0x40 DUP3 ADD MLOAD PUSH1 0x40 DUP5 ADD MSTORE PUSH1 0x60 DUP3 ADD MLOAD PUSH1 0x60 DUP5 ADD MSTORE PUSH1 0x80 DUP3 ADD MLOAD DUP2 DUP2 GT PUSH2 0xBC JUMPI DUP5 PUSH2 0xF49 SWAP2 DUP5 ADD PUSH2 0x9A9 JUMP JUMPDEST PUSH1 0x80 DUP5 ADD MSTORE PUSH1 0xA0 DUP3 ADD MLOAD PUSH1 0xA0 DUP5 ADD MSTORE PUSH1 0xC0 DUP3 ADD MLOAD DUP2 DUP2 GT PUSH2 0xBC JUMPI DUP5 PUSH2 0xF70 SWAP2 DUP5 ADD PUSH2 0x9A9 JUMP JUMPDEST PUSH1 0xC0 DUP5 ADD MSTORE PUSH1 0xE0 DUP3 ADD MLOAD DUP2 DUP2 GT PUSH2 0xBC JUMPI DUP5 PUSH2 0xF8D SWAP2 DUP5 ADD PUSH2 0xE49 JUMP JUMPDEST PUSH1 0xE0 DUP5 ADD MSTORE PUSH2 0x100 DUP1 DUP4 ADD MLOAD DUP3 DUP2 GT PUSH2 0xBC JUMPI DUP6 PUSH2 0xFAC SWAP2 DUP6 ADD PUSH2 0x9A9 JUMP JUMPDEST SWAP1 DUP5 ADD MSTORE PUSH2 0x120 SWAP1 DUP2 DUP4 ADD MLOAD SWAP1 DUP2 GT PUSH2 0xBC JUMPI PUSH1 0x20 SWAP5 PUSH2 0xFCD SWAP2 DUP5 ADD PUSH2 0x9A9 JUMP JUMPDEST SWAP1 DUP4 ADD MSTORE PUSH2 0x140 DUP1 SWAP2 ADD MLOAD SWAP1 DUP3 ADD MSTORE SWAP3 ADD MLOAD SWAP1 JUMP JUMPDEST ISZERO PUSH2 0xFE9 JUMPI JUMP JUMPDEST PUSH1 0x40 MLOAD PUSH3 0x461BCD PUSH1 0xE5 SHL DUP2 MSTORE PUSH1 0x20 PUSH1 0x4 DUP3 ADD MSTORE PUSH1 0x1C PUSH1 0x24 DUP3 ADD MSTORE PUSH32 0x4368616E6E656C204944206D757374206265207468652073616D652E00000000 PUSH1 0x44 DUP3 ADD MSTORE PUSH1 0x64 SWAP1 REVERT JUMPDEST SWAP2 SWAP1 PUSH1 0x40 DUP4 DUP3 SUB SLT PUSH2 0xBC JUMPI DUP3 MLOAD PUSH1 0x1 PUSH1 0x1 PUSH1 0x40 SHL SUB SWAP1 DUP2 DUP2 GT PUSH2 0xBC JUMPI DUP5 ADD PUSH2 0x180 DUP2 DUP5 SUB SLT PUSH2 0xBC JUMPI PUSH2 0x1061 PUSH2 0x150 JUMP JUMPDEST SWAP2 DUP2 MLOAD DUP2 DUP2 GT PUSH2 0xBC JUMPI DUP5 PUSH2 0x1077 SWAP2 DUP5 ADD PUSH2 0x9A9 JUMP JUMPDEST DUP4 MSTORE PUSH1 0x20 DUP3 ADD MLOAD PUSH1 0x20 DUP5 ADD MSTORE PUSH1 0x40 DUP3 ADD MLOAD PUSH1 0x40 DUP5 ADD MSTORE PUSH1 0x60 DUP3 ADD MLOAD PUSH1 0x60 DUP5 ADD MSTORE PUSH1 0x80 DUP3 ADD MLOAD DUP2 DUP2 GT PUSH2 0xBC JUMPI DUP5 PUSH2 0x10AF SWAP2 DUP5 ADD PUSH2 0x9A9 JUMP JUMPDEST PUSH1 0x80 DUP5 ADD MSTORE PUSH1 0xA0 DUP3 ADD MLOAD PUSH1 0xA0 DUP5 ADD MSTORE PUSH1 0xC0 DUP3 ADD MLOAD DUP2 DUP2 GT PUSH2 0xBC JUMPI DUP5 PUSH2 0x10D6 SWAP2 DUP5 ADD PUSH2 0x9A9 JUMP JUMPDEST PUSH1 0xC0 DUP5 ADD MSTORE PUSH1 0xE0 DUP3 ADD MLOAD DUP2 DUP2 GT PUSH2 0xBC JUMPI DUP5 PUSH2 0x10F3 SWAP2 DUP5 ADD PUSH2 0xE49 JUMP JUMPDEST PUSH1 0xE0 DUP5 ADD MSTORE PUSH2 0x100 DUP1 DUP4 ADD MLOAD SWAP1 DUP5 ADD MSTORE PUSH2 0x120 DUP1 DUP4 ADD MLOAD DUP3 DUP2 GT PUSH2 0xBC JUMPI DUP6 PUSH2 0x111D SWAP2 DUP6 ADD PUSH2 0x9A9 JUMP JUMPDEST SWAP1 DUP5 ADD MSTORE PUSH2 0x140 SWAP1 DUP2 DUP4 ADD MLOAD SWAP1 DUP2 GT PUSH2 0xBC JUMPI PUSH1 0x20 SWAP5 PUSH2 0x113E SWAP2 DUP5 ADD PUSH2 0x9A9 JUMP JUMPDEST SWAP1 DUP4 ADD MSTORE PUSH2 0x160 DUP1 SWAP2 ADD MLOAD SWAP1 DUP3 ADD MSTORE SWAP3 ADD MLOAD SWAP1 JUMP JUMPDEST PUSH1 0x40 MLOAD SWAP1 PUSH2 0x1160 DUP3 PUSH2 0xF4 JUMP JUMPDEST PUSH0 PUSH1 0x60 DUP4 DUP3 DUP2 MSTORE DUP3 PUSH1 0x20 DUP3 ADD MSTORE DUP3 PUSH1 0x40 DUP3 ADD MSTORE ADD MSTORE JUMP JUMPDEST SWAP2 SWAP1 DUP3 PUSH1 0x80 SWAP2 SUB SLT PUSH2 0xBC JUMPI DUP2 MLOAD PUSH2 0x118E DUP2 PUSH2 0x29D JUMP JUMPDEST SWAP2 PUSH1 0x20 DUP2 ADD MLOAD PUSH2 0x119D DUP2 PUSH2 0x29D JUMP JUMPDEST SWAP2 PUSH1 0x60 PUSH1 0x40 DUP4 ADD MLOAD SWAP3 ADD MLOAD SWAP1 JUMP JUMPDEST ISZERO PUSH2 0x11B2 JUMPI JUMP JUMPDEST PUSH1 0x40 MLOAD PUSH3 0x461BCD PUSH1 0xE5 SHL DUP2 MSTORE PUSH1 0x20 PUSH1 0x4 DUP3 ADD MSTORE PUSH1 0x1F PUSH1 0x24 DUP3 ADD MSTORE PUSH32 0x546865206368616E6E656C206D757374206E6F7420626520636C6F7365642E00 PUSH1 0x44 DUP3 ADD MSTORE PUSH1 0x64 SWAP1 REVERT JUMPDEST ISZERO PUSH2 0x11FE JUMPI JUMP JUMPDEST PUSH1 0x40 MLOAD PUSH3 0x461BCD PUSH1 0xE5 SHL DUP2 MSTORE PUSH1 0x20 PUSH1 0x4 DUP3 ADD MSTORE PUSH1 0x31 PUSH1 0x24 DUP3 ADD MSTORE PUSH32 0x4974206D75737420626520612076616C696420726571756573742066726F6D20 PUSH1 0x44 DUP3 ADD MSTORE PUSH17 0x3A3432903634B3B43A1031B634B2B73A17 PUSH1 0x79 SHL PUSH1 0x64 DUP3 ADD MSTORE PUSH1 0x84 SWAP1 REVERT JUMPDEST ISZERO PUSH2 0x1264 JUMPI JUMP JUMPDEST PUSH1 0x40 MLOAD PUSH3 0x461BCD PUSH1 0xE5 SHL DUP2 MSTORE PUSH1 0x20 PUSH1 0x4 DUP3 ADD MSTORE PUSH1 0x2E PUSH1 0x24 DUP3 ADD MSTORE PUSH32 0x4974206D7573742062652061207661696420726573706F6E73652066726F6D20 PUSH1 0x44 DUP3 ADD MSTORE PUSH14 0x3A343290333AB636103737B23297 PUSH1 0x91 SHL PUSH1 0x64 DUP3 ADD MSTORE PUSH1 0x84 SWAP1 REVERT JUMPDEST PUSH1 0x40 MLOAD PUSH2 0x12CC DUP2 PUSH2 0xD4 JUMP JUMPDEST PUSH1 0x1 DUP2 MSTORE DUP1 PUSH0 JUMPDEST PUSH1 0x20 DUP1 DUP3 LT ISZERO PUSH2 0x12EE JUMPI SWAP1 PUSH1 0x60 PUSH1 0x20 SWAP3 DUP3 DUP6 ADD ADD MSTORE ADD PUSH2 0x12D3 JUMP JUMPDEST POP POP POP SWAP1 JUMP JUMPDEST SWAP1 DUP2 PUSH1 0x60 SWAP2 SUB SLT PUSH2 0xBC JUMPI DUP1 MLOAD SWAP2 PUSH1 0x40 PUSH1 0x20 DUP4 ADD MLOAD SWAP3 ADD MLOAD SWAP1 JUMP JUMPDEST ISZERO PUSH2 0x1316 JUMPI JUMP JUMPDEST PUSH1 0x40 MLOAD PUSH3 0x461BCD PUSH1 0xE5 SHL DUP2 MSTORE PUSH1 0x20 PUSH1 0x4 DUP3 ADD MSTORE PUSH1 0x1B PUSH1 0x24 DUP3 ADD MSTORE PUSH32 0x43616E7420747275737420796F757220726F6F742076616C7565730000000000 PUSH1 0x44 DUP3 ADD MSTORE PUSH1 0x64 SWAP1 REVERT JUMPDEST PUSH4 0x4E487B71 PUSH1 0xE0 SHL PUSH0 MSTORE PUSH1 0x32 PUSH1 0x4 MSTORE PUSH1 0x24 PUSH0 REVERT JUMPDEST DUP1 MLOAD ISZERO PUSH2 0x137C JUMPI PUSH1 0x20 ADD SWAP1 JUMP JUMPDEST PUSH2 0x135B JUMP JUMPDEST DUP1 MLOAD DUP3 LT ISZERO PUSH2 0x137C JUMPI PUSH1 0x20 SWAP2 PUSH1 0x5 SHL ADD ADD SWAP1 JUMP JUMPDEST PUSH1 0x20 DUP1 DUP3 ADD SWAP1 PUSH1 0x20 DUP4 MSTORE DUP4 MLOAD DUP1 SWAP3 MSTORE PUSH1 0x40 DUP4 ADD SWAP3 PUSH1 0x20 PUSH1 0x40 DUP5 PUSH1 0x5 SHL DUP4 ADD ADD SWAP6 ADD SWAP4 PUSH0 SWAP2 JUMPDEST DUP5 DUP4 LT PUSH2 0x13CA JUMPI POP POP POP POP POP POP SWAP1 JUMP JUMPDEST SWAP1 SWAP2 SWAP3 SWAP4 SWAP5 SWAP6 DUP5 DUP1 PUSH2 0x13E8 PUSH1 0x1 SWAP4 PUSH1 0x3F NOT DUP7 DUP3 SUB ADD DUP8 MSTORE DUP11 MLOAD PUSH2 0x9EE JUMP JUMPDEST SWAP9 ADD SWAP4 ADD SWAP4 ADD SWAP2 SWAP5 SWAP4 SWAP3 SWAP1 PUSH2 0x13BA JUMP JUMPDEST SWAP1 DUP2 PUSH1 0x20 SWAP2 SUB SLT PUSH2 0xBC JUMPI PUSH2 0x9EB SWAP1 PUSH2 0x97B JUMP JUMPDEST ISZERO PUSH2 0x1413 JUMPI JUMP JUMPDEST PUSH1 0x40 MLOAD PUSH3 0x461BCD PUSH1 0xE5 SHL DUP2 MSTORE PUSH1 0x20 PUSH1 0x4 DUP3 ADD MSTORE PUSH1 0x2A PUSH1 0x24 DUP3 ADD MSTORE PUSH32 0x46726175642070726F6F662069732076616C69642E2046756C6C206E6F646520 PUSH1 0x44 DUP3 ADD MSTORE PUSH10 0x34B9903437B732B9BA17 PUSH1 0xB1 SHL PUSH1 0x64 DUP3 ADD MSTORE PUSH1 0x84 SWAP1 REVERT JUMPDEST ISZERO PUSH2 0x1472 JUMPI JUMP JUMPDEST PUSH1 0x40 MLOAD PUSH3 0x461BCD PUSH1 0xE5 SHL DUP2 MSTORE PUSH1 0x20 PUSH1 0x4 DUP3 ADD MSTORE PUSH1 0x2E PUSH1 0x24 DUP3 ADD MSTORE PUSH32 0x496E636F7272656374206E756D626572206F66206669656C647320696E20524C PUSH1 0x44 DUP3 ADD MSTORE PUSH14 0x5020656E636F6465642064617461 PUSH1 0x90 SHL PUSH1 0x64 DUP3 ADD MSTORE PUSH1 0x84 SWAP1 REVERT JUMPDEST PUSH2 0x14D6 PUSH2 0x1664 JUMP JUMPDEST POP PUSH1 0x20 DUP2 MLOAD PUSH1 0x40 MLOAD SWAP1 PUSH2 0x14E8 DUP3 PUSH2 0xD4 JUMP JUMPDEST DUP2 MSTORE PUSH1 0x20 DUP1 DUP3 ADD SWAP4 ADD DUP4 MSTORE PUSH2 0x14FC DUP2 PUSH2 0x17FD JUMP JUMPDEST ISZERO PUSH2 0xBC JUMPI PUSH2 0x150A SWAP1 PUSH2 0x1821 JUMP JUMPDEST SWAP1 PUSH2 0x1514 DUP3 PUSH2 0x17F JUMP JUMPDEST SWAP3 PUSH2 0x1522 PUSH1 0x40 MLOAD SWAP5 DUP6 PUSH2 0x10F JUMP JUMPDEST DUP3 DUP5 MSTORE PUSH1 0x1F NOT PUSH2 0x1531 DUP5 PUSH2 0x17F JUMP JUMPDEST ADD DUP3 PUSH0 JUMPDEST DUP3 DUP2 LT PUSH2 0x15D1 JUMPI POP POP POP PUSH2 0x1553 SWAP1 MLOAD PUSH2 0x154D DUP2 PUSH2 0x18DC JUMP JUMPDEST SWAP1 PUSH2 0x16A3 JUMP JUMPDEST PUSH0 SWAP1 JUMPDEST DUP4 DUP3 LT PUSH2 0x158E JUMPI POP POP POP POP PUSH2 0x156E PUSH1 0x1 DUP3 MLOAD GT PUSH2 0x146B JUMP JUMPDEST PUSH2 0x1588 PUSH2 0x1582 PUSH2 0x157C PUSH2 0xD67 JUMP JUMPDEST SWAP3 PUSH2 0x136F JUMP JUMPDEST MLOAD PUSH2 0x16B0 JUMP JUMPDEST DUP1 SWAP2 MSTORE SWAP1 JUMP JUMPDEST PUSH2 0x15C9 DUP2 PUSH2 0x159D PUSH1 0x1 SWAP4 PUSH2 0x193F JUMP JUMPDEST SWAP1 PUSH2 0x15A6 PUSH2 0x170 JUMP JUMPDEST DUP3 DUP2 MSTORE DUP2 DUP8 DUP3 ADD MSTORE PUSH2 0x15B8 DUP7 DUP11 PUSH2 0x1381 JUMP JUMPDEST MSTORE PUSH2 0x15C3 DUP6 DUP10 PUSH2 0x1381 JUMP JUMPDEST POP PUSH2 0x16A3 JUMP JUMPDEST SWAP2 ADD SWAP1 PUSH2 0x1556 JUMP JUMPDEST PUSH2 0x15D9 PUSH2 0x1664 JUMP JUMPDEST DUP3 DUP3 DUP10 ADD ADD MSTORE ADD DUP4 SWAP1 PUSH2 0x1535 JUMP JUMPDEST PUSH2 0x9EB SWAP2 PUSH2 0x15F4 SWAP2 PUSH2 0x1718 JUMP JUMPDEST SWAP1 SWAP3 SWAP2 SWAP3 PUSH2 0x1770 JUMP JUMPDEST PUSH1 0x1 SLOAD SWAP1 SWAP3 SWAP2 PUSH1 0x1 PUSH1 0x1 PUSH1 0xA0 SHL SUB SWAP2 DUP3 AND SWAP1 DUP2 EXTCODESIZE ISZERO PUSH2 0xBC JUMPI PUSH0 PUSH1 0x64 SWAP3 DUP5 DUP3 SWAP7 DUP2 PUSH1 0x40 MLOAD SWAP10 DUP11 SWAP9 DUP10 SWAP8 PUSH4 0x158EFC99 PUSH1 0xE2 SHL DUP10 MSTORE AND PUSH1 0x4 DUP9 ADD MSTORE AND PUSH1 0x24 DUP7 ADD MSTORE AND PUSH1 0x44 DUP5 ADD MSTORE GAS CALL DUP1 ISZERO PUSH2 0x6DC JUMPI PUSH2 0x1651 JUMPI POP JUMP JUMPDEST PUSH1 0x1 PUSH1 0x1 PUSH1 0x40 SHL SUB DUP2 GT PUSH2 0xEF JUMPI PUSH1 0x40 MSTORE JUMP JUMPDEST PUSH1 0x40 MLOAD SWAP1 PUSH2 0x1671 DUP3 PUSH2 0xD4 JUMP JUMPDEST PUSH0 PUSH1 0x20 DUP4 DUP3 DUP2 MSTORE ADD MSTORE JUMP JUMPDEST PUSH4 0x4E487B71 PUSH1 0xE0 SHL PUSH0 MSTORE PUSH1 0x11 PUSH1 0x4 MSTORE PUSH1 0x24 PUSH0 REVERT JUMPDEST SWAP1 PUSH1 0x1 DUP3 ADD DUP1 SWAP3 GT PUSH2 0x169E JUMPI JUMP JUMPDEST PUSH2 0x167C JUMP JUMPDEST SWAP2 SWAP1 DUP3 ADD DUP1 SWAP3 GT PUSH2 0x169E JUMPI JUMP JUMPDEST DUP1 MLOAD ISZERO PUSH2 0xBC JUMPI PUSH1 0x20 DUP2 ADD PUSH2 0x16C5 DUP2 MLOAD PUSH2 0x18DC JUMP JUMPDEST SWAP1 MLOAD SWAP2 DUP2 DUP4 ADD DUP1 SWAP4 GT PUSH2 0x169E JUMPI MLOAD SWAP1 DUP2 SUB SWAP1 DUP2 GT PUSH2 0x169E JUMPI DUP1 PUSH2 0x16EA PUSH2 0x9EB SWAP3 PUSH2 0x196 JUMP JUMPDEST SWAP3 PUSH2 0x16F8 PUSH1 0x40 MLOAD SWAP5 DUP6 PUSH2 0x10F JUMP JUMPDEST DUP2 DUP5 MSTORE PUSH1 0x1F NOT PUSH2 0x1707 DUP4 PUSH2 0x196 JUMP JUMPDEST ADD CALLDATASIZE PUSH1 0x20 DUP7 ADD CALLDATACOPY DUP4 PUSH1 0x20 ADD SWAP1 PUSH2 0x19CE JUMP JUMPDEST DUP2 MLOAD SWAP2 SWAP1 PUSH1 0x41 DUP4 SUB PUSH2 0x1748 JUMPI PUSH2 0x1741 SWAP3 POP PUSH1 0x20 DUP3 ADD MLOAD SWAP1 PUSH1 0x60 PUSH1 0x40 DUP5 ADD MLOAD SWAP4 ADD MLOAD PUSH0 BYTE SWAP1 PUSH2 0x1A4B JUMP JUMPDEST SWAP2 SWAP3 SWAP1 SWAP2 SWAP1 JUMP JUMPDEST POP POP PUSH0 SWAP2 PUSH1 0x2 SWAP2 SWAP1 JUMP JUMPDEST PUSH1 0x4 GT ISZERO PUSH2 0x175C JUMPI JUMP JUMPDEST PUSH4 0x4E487B71 PUSH1 0xE0 SHL PUSH0 MSTORE PUSH1 0x21 PUSH1 0x4 MSTORE PUSH1 0x24 PUSH0 REVERT JUMPDEST PUSH2 0x1779 DUP2 PUSH2 0x1752 JUMP JUMPDEST DUP1 PUSH2 0x1782 JUMPI POP POP JUMP JUMPDEST PUSH2 0x178B DUP2 PUSH2 0x1752 JUMP JUMPDEST PUSH1 0x1 DUP2 SUB PUSH2 0x17A5 JUMPI PUSH1 0x40 MLOAD PUSH4 0xF645EEDF PUSH1 0xE0 SHL DUP2 MSTORE PUSH1 0x4 SWAP1 REVERT JUMPDEST PUSH2 0x17AE DUP2 PUSH2 0x1752 JUMP JUMPDEST PUSH1 0x2 DUP2 SUB PUSH2 0x17CF JUMPI PUSH1 0x40 MLOAD PUSH4 0xFCE698F7 PUSH1 0xE0 SHL DUP2 MSTORE PUSH1 0x4 DUP2 ADD DUP4 SWAP1 MSTORE PUSH1 0x24 SWAP1 REVERT JUMPDEST DUP1 PUSH2 0x17DB PUSH1 0x3 SWAP3 PUSH2 0x1752 JUMP JUMPDEST EQ PUSH2 0x17E3 JUMPI POP JUMP JUMPDEST PUSH1 0x40 MLOAD PUSH4 0x35E2F383 PUSH1 0xE2 SHL DUP2 MSTORE PUSH1 0x4 DUP2 ADD SWAP2 SWAP1 SWAP2 MSTORE PUSH1 0x24 SWAP1 REVERT JUMPDEST DUP1 MLOAD ISZERO PUSH2 0x181C JUMPI PUSH1 0x20 PUSH1 0xC0 SWAP2 ADD MLOAD MLOAD PUSH0 BYTE LT PUSH2 0x1818 JUMPI PUSH1 0x1 SWAP1 JUMP JUMPDEST PUSH0 SWAP1 JUMP JUMPDEST POP PUSH0 SWAP1 JUMP JUMPDEST DUP1 MLOAD ISZERO PUSH2 0x181C JUMPI PUSH0 SWAP1 PUSH1 0x20 DUP2 ADD SWAP1 DUP2 MLOAD PUSH2 0x183A DUP2 PUSH2 0x18DC JUMP JUMPDEST DUP2 ADD DUP1 SWAP2 GT PUSH2 0x169E JUMPI SWAP2 MLOAD SWAP1 MLOAD DUP2 ADD DUP1 SWAP2 GT PUSH2 0x169E JUMPI SWAP2 SWAP1 JUMPDEST DUP3 DUP2 LT PUSH2 0x1860 JUMPI POP SWAP1 POP SWAP1 JUMP JUMPDEST PUSH2 0x1869 DUP2 PUSH2 0x193F JUMP JUMPDEST DUP2 ADD DUP1 SWAP2 GT PUSH2 0x169E JUMPI SWAP1 PUSH0 NOT DUP2 EQ PUSH2 0x169E JUMPI PUSH1 0x1 ADD SWAP1 PUSH2 0x1853 JUMP JUMPDEST PUSH1 0xBF NOT DUP2 ADD SWAP2 SWAP1 DUP3 GT PUSH2 0x169E JUMPI JUMP JUMPDEST PUSH1 0x7F NOT DUP2 ADD SWAP2 SWAP1 DUP3 GT PUSH2 0x169E JUMPI JUMP JUMPDEST PUSH1 0x20 SUB SWAP1 PUSH1 0x20 DUP3 GT PUSH2 0x169E JUMPI JUMP JUMPDEST PUSH0 NOT DUP2 ADD SWAP2 SWAP1 DUP3 GT PUSH2 0x169E JUMPI JUMP JUMPDEST PUSH1 0xF6 NOT DUP2 ADD SWAP2 SWAP1 DUP3 GT PUSH2 0x169E JUMPI JUMP JUMPDEST PUSH1 0xB6 NOT DUP2 ADD SWAP2 SWAP1 DUP3 GT PUSH2 0x169E JUMPI JUMP JUMPDEST MLOAD PUSH0 BYTE PUSH1 0x80 DUP2 LT ISZERO PUSH2 0x18ED JUMPI POP PUSH0 SWAP1 JUMP JUMPDEST PUSH1 0xB8 DUP2 LT DUP1 ISZERO PUSH2 0x1929 JUMPI JUMPDEST ISZERO PUSH2 0x1903 JUMPI POP PUSH1 0x1 SWAP1 JUMP JUMPDEST PUSH1 0xC0 DUP2 LT ISZERO PUSH2 0x191D JUMPI PUSH2 0x1918 PUSH2 0x9EB SWAP2 PUSH2 0x18CD JUMP JUMPDEST PUSH2 0x1690 JUMP JUMPDEST PUSH2 0x1918 PUSH2 0x9EB SWAP2 PUSH2 0x18BE JUMP JUMPDEST POP PUSH1 0xC0 DUP2 LT ISZERO DUP1 ISZERO PUSH2 0x18F8 JUMPI POP PUSH1 0xF8 DUP2 LT PUSH2 0x18F8 JUMP JUMPDEST DUP1 MLOAD PUSH0 BYTE SWAP1 PUSH1 0x80 DUP3 LT ISZERO PUSH2 0x1954 JUMPI POP POP PUSH1 0x1 SWAP1 JUMP JUMPDEST PUSH1 0xB8 DUP3 LT ISZERO PUSH2 0x196A JUMPI POP PUSH2 0x1918 PUSH2 0x9EB SWAP2 PUSH2 0x1893 JUMP JUMPDEST SWAP1 PUSH1 0xC0 DUP2 LT ISZERO PUSH2 0x198E JUMPI PUSH1 0xB5 NOT SWAP2 PUSH1 0x1 PUSH1 0xB7 DUP4 PUSH1 0x20 SUB ADD PUSH2 0x100 EXP SWAP2 ADD MLOAD DIV ADD ADD SWAP1 JUMP JUMPDEST SWAP1 PUSH1 0xF8 DUP3 LT ISZERO PUSH2 0x19A5 JUMPI POP PUSH2 0x1918 PUSH2 0x9EB SWAP2 PUSH2 0x1884 JUMP JUMPDEST PUSH1 0x1 ADD MLOAD PUSH1 0x20 DUP3 SWAP1 SUB PUSH1 0xF7 ADD PUSH2 0x100 EXP SWAP1 DIV ADD PUSH1 0xF5 NOT ADD SWAP1 JUMP JUMPDEST PUSH1 0x1F DUP2 GT PUSH2 0x169E JUMPI PUSH2 0x100 EXP SWAP1 JUMP JUMPDEST SWAP3 SWAP1 SWAP2 SWAP3 DUP4 ISZERO PUSH2 0x1A45 JUMPI SWAP3 SWAP2 JUMPDEST PUSH1 0x20 SWAP4 DUP5 DUP5 LT PUSH2 0x1A10 JUMPI DUP1 MLOAD DUP3 MSTORE DUP5 DUP2 ADD DUP1 SWAP2 GT PUSH2 0x169E JUMPI SWAP4 DUP2 ADD DUP1 SWAP2 GT PUSH2 0x169E JUMPI SWAP2 PUSH1 0x1F NOT DUP2 ADD SWAP1 DUP2 GT PUSH2 0x169E JUMPI SWAP2 PUSH2 0x19DB JUMP JUMPDEST SWAP2 SWAP4 POP SWAP2 DUP1 PUSH2 0x1A1E JUMPI POP POP POP JUMP JUMPDEST PUSH2 0x1A32 PUSH2 0x1A2D PUSH2 0x1A37 SWAP3 PUSH2 0x18A2 JUMP JUMPDEST PUSH2 0x19BF JUMP JUMPDEST PUSH2 0x18B0 JUMP JUMPDEST SWAP1 MLOAD DUP3 MLOAD DUP3 AND SWAP2 NOT AND OR SWAP1 MSTORE JUMP JUMPDEST POP SWAP2 POP POP JUMP JUMPDEST SWAP2 SWAP1 PUSH32 0x7FFFFFFFFFFFFFFFFFFFFFFFFFFFFFFF5D576E7357A4501DDFE92F46681B20A0 DUP5 GT PUSH2 0x1AC2 JUMPI SWAP2 PUSH1 0x20 SWAP4 PUSH1 0x80 SWAP3 PUSH1 0xFF PUSH0 SWAP6 PUSH1 0x40 MLOAD SWAP5 DUP6 MSTORE AND DUP7 DUP5 ADD MSTORE PUSH1 0x40 DUP4 ADD MSTORE PUSH1 0x60 DUP3 ADD MSTORE DUP3 DUP1 MSTORE PUSH1 0x1 GAS STATICCALL ISZERO PUSH2 0x6DC JUMPI PUSH0 MLOAD PUSH1 0x1 PUSH1 0x1 PUSH1 0xA0 SHL SUB DUP2 AND ISZERO PUSH2 0x1AB8 JUMPI SWAP1 PUSH0 SWAP1 PUSH0 SWAP1 JUMP JUMPDEST POP PUSH0 SWAP1 PUSH1 0x1 SWAP1 PUSH0 SWAP1 JUMP JUMPDEST POP POP POP PUSH0 SWAP2 PUSH1 0x3 SWAP2 SWAP1 JUMP INVALID LOG2 PUSH5 0x6970667358 0x22 SLT KECCAK256 0xC7 SIGNEXTEND 0xF9 PUSH15 0xB89BF22D604B190DC40B234C01C574 LOG2 0xD8 SUB 0xB0 0x27 0xD2 CREATE2 SWAP13 0x29 0x4E OR POP SGT PUSH5 0x736F6C6343 STOP ADDMOD XOR STOP CALLER "
		},
		"gasEstimates": {
			"creation": {
				"codeDepositCost": "1383000",
				"executionCost": "infinite",
				"totalCost": "infinite"
			},
			"external": {
				"decodeAllSP(bytes,bytes,bytes,address)": "infinite",
				"depositContract()": "2346",
				"paychanContract()": "2305",
				"verifyProof(bytes32,bytes[],bytes[])": "infinite"
			},
			"internal": {
				"getType(bytes memory)": "infinite",
				"slashWithAddresses(address,address,address)": "infinite"
			}
		},
		"methodIdentifiers": {
			"decodeAllSP(bytes,bytes,bytes,address)": "a1804788",
			"depositContract()": "e94ad65b",
			"paychanContract()": "6c2190ab",
			"verifyProof(bytes32,bytes[],bytes[])": "3d937b4a"
		}
	},
	"abi": [
		{
			"inputs": [
				{
					"internalType": "address",
					"name": "_paychanContractAddress",
					"type": "address"
				},
				{
					"internalType": "address",
					"name": "_depositContract",
					"type": "address"
				}
			],
			"stateMutability": "nonpayable",
			"type": "constructor"
		},
		{
			"inputs": [],
			"name": "ECDSAInvalidSignature",
			"type": "error"
		},
		{
			"inputs": [
				{
					"internalType": "uint256",
					"name": "length",
					"type": "uint256"
				}
			],
			"name": "ECDSAInvalidSignatureLength",
			"type": "error"
		},
		{
			"inputs": [
				{
					"internalType": "bytes32",
					"name": "s",
					"type": "bytes32"
				}
			],
			"name": "ECDSAInvalidSignatureS",
			"type": "error"
		},
		{
			"anonymous": false,
			"inputs": [
				{
					"indexed": false,
					"internalType": "bool",
					"name": "",
					"type": "bool"
				}
			],
			"name": "LogBool",
			"type": "event"
		},
		{
			"anonymous": false,
			"inputs": [
				{
					"indexed": false,
					"internalType": "bytes[]",
					"name": "Proof",
					"type": "bytes[]"
				}
			],
			"name": "emitProof",
			"type": "event"
		},
		{
			"anonymous": false,
			"inputs": [
				{
					"components": [
						{
							"internalType": "bytes",
							"name": "key",
							"type": "bytes"
						},
						{
							"internalType": "bytes",
							"name": "value",
							"type": "bytes"
						}
					],
					"indexed": false,
					"internalType": "struct StorageValue[]",
					"name": "proofReturnValues",
					"type": "tuple[]"
				}
			],
			"name": "emitProofValues",
			"type": "event"
		},
		{
			"anonymous": false,
			"inputs": [
				{
					"indexed": false,
					"internalType": "bytes32",
					"name": "msgHash",
					"type": "bytes32"
				}
			],
			"name": "msgHash",
			"type": "event"
		},
		{
			"inputs": [
				{
					"internalType": "bytes",
					"name": "res",
					"type": "bytes"
				},
				{
					"internalType": "bytes",
					"name": "req",
					"type": "bytes"
				},
				{
					"internalType": "bytes",
					"name": "blockHeaderInfo",
					"type": "bytes"
				},
				{
					"internalType": "address",
					"name": "witness",
					"type": "address"
				}
			],
			"name": "decodeAllSP",
			"outputs": [],
			"stateMutability": "nonpayable",
			"type": "function"
		},
		{
			"inputs": [],
			"name": "depositContract",
			"outputs": [
				{
					"internalType": "contract IDepositContract",
					"name": "",
					"type": "address"
				}
			],
			"stateMutability": "view",
			"type": "function"
		},
		{
			"inputs": [],
			"name": "paychanContract",
			"outputs": [
				{
					"internalType": "contract IPaychan",
					"name": "",
					"type": "address"
				}
			],
			"stateMutability": "view",
			"type": "function"
		},
		{
			"inputs": [
				{
					"internalType": "bytes32",
					"name": "root",
					"type": "bytes32"
				},
				{
					"internalType": "bytes[]",
					"name": "proof",
					"type": "bytes[]"
				},
				{
					"internalType": "bytes[]",
					"name": "keys",
					"type": "bytes[]"
				}
			],
			"name": "verifyProof",
			"outputs": [
				{
					"internalType": "bool",
					"name": "",
					"type": "bool"
				}
			],
			"stateMutability": "nonpayable",
			"type": "function"
		},
		{
			"stateMutability": "payable",
			"type": "receive"
		}
	]
}