{
	"data": {
		"bytecode": {
			"linkReferences": {},
			"object": "611e7f61004d600b8282823980515f1a6073146041577f4e487b71000000000000000000000000000000000000000000000000000000005f525f60045260245ffd5b305f52607381538281f3fe7300000000000000000000000000000000000000003014608060405260043610610055575f3560e01c806391648ac514610059578063a948b67014610089578063ba1daf93146100b9578063cbef80f1146100e9575b5f80fd5b610073600480360381019061006e919061130f565b610119565b60405161008091906114f9565b60405180910390f35b6100a3600480360381019061009e91906116ed565b6102cd565b6040516100b09190611827565b60405180910390f35b6100d360048036038101906100ce91906116ed565b610482565b6040516100e09190611888565b60405180910390f35b61010360048036038101906100fe91906116ed565b610558565b60405161011091906119d2565b60405180910390f35b61012161102b565b61012961102b565b5f60405180604001604052808581526020015f8152509050610180846040518060400160405280602081526020017f56e81f171bcc55a6ff8345e692c0f86e5b48e01b996cadc001622fb5e363b421815250610874565b1561019f576001825f01901515908115158152505081925050506102c8565b5f6101b16101ac866108ab565b6108d8565b90505f815190505f81036101db576001845f019015159081151581525050839450505050506102c8565b6002810361025c575f610207835f815181106101fa576101f96119f2565b5b60200260200101516109e1565b90505f602082015160f81c8060041c91505060028114806102285750600381145b15610243576001866020019015159081151581525050610255565b60018660c00190151590811515815250505b50506102b6565b6011810361027a5760018460e00190151590811515815250506102b5565b6040517f08c379a00000000000000000000000000000000000000000000000000000000081526004016102ac90611a79565b60405180910390fd5b5b82846101200181905250839450505050505b919050565b6102d561108b565b6102dd61108b565b5f6102f76102f28561012001515f01516108ab565b6108d8565b90505f61031e82600181518110610311576103106119f2565b5b60200260200101516109e1565b90505f60016004610348855f8151811061033b5761033a6119f2565b5b60200260200101516109e1565b5f8151811061035a576103596119f2565b5b602001015160f81c60f81b7effffffffffffffffffffffffffffffffffffffffffffffffffffffffffffff1916901c60f81c16905060405180604001604052806103e16103c0865f815181106103b3576103b26119f2565b5b60200260200101516109e1565b60026001866103cf9190611ad0565b6103d99190611b31565b60ff16610a6e565b81526020018260ff16815250845f0181905250604051806080016040528060011515815260200161041184610ab8565b81526020015f151581526020015f67ffffffffffffffff811115610438576104376111eb565b5b6040519080825280601f01601f19166020018201604052801561046a5781602001600182028036833780820191505090505b50815250846020018190525083945050505050919050565b61048a6110b1565b6104926110b1565b5f6104ac6104a78561012001515f01516108ab565b6108d8565b90505f6104d3826001815181106104c6576104c56119f2565b5b60200260200101516109e1565b9050604051806040016040528061050d610506855f815181106104f9576104f86119f2565b5b60200260200101516109e1565b6001610a6e565b81526020015f815250835f018190525060405180608001604052805f151581526020015f801b8152602001600115158152602001828152508360200181905250829350505050919050565b6105606110d7565b6105686110d7565b5f61058261057d8561012001515f01516108ab565b6108d8565b905061058c6110fd565b5f5b601081101561072f575f6105bb8483815181106105ae576105ad6119f2565b5b60200260200101516109e1565b9050602081511461066f5760405180604001604052805f1515815260200160405180608001604052805f151581526020015f801b81526020015f151581526020015f67ffffffffffffffff811115610616576106156111eb565b5b6040519080825280601f01601f1916602001820160405280156106485781602001600182028036833780820191505090505b50815250815250838360108110610662576106616119f2565b5b6020020181905250610721565b5f61067982610ab8565b9050604051806040016040528060011515815260200160405180608001604052806001151581526020018481526020015f151581526020015f67ffffffffffffffff8111156106cb576106ca6111eb565b5b6040519080825280601f01601f1916602001820160405280156106fd5781602001600182028036833780820191505090505b50815250815250848460108110610717576107166119f2565b5b6020020181905250505b50808060010191505061058e565b5061075c6107578360108151811061074a576107496119f2565b5b60200260200101516109e1565b610b0a565b156107f65760405180604001604052805f1515815260200160405180608001604052805f151581526020015f801b81526020015f151581526020015f67ffffffffffffffff8111156107b1576107b06111eb565b5b6040519080825280601f01601f1916602001820160405280156107e35781602001600182028036833780820191505090505b50815250815250835f0181905250610860565b604051806040016040528060011515815260200160405180608001604052805f151581526020015f801b815260200160011515815260200161085286601081518110610845576108446119f2565b5b60200260200101516109e1565b815250815250835f01819052505b808360200181905250829350505050919050565b5f8151835114610886575f90506108a5565b5f806020850191506020840190506108a082828751610bb1565b925050505b92915050565b6108b361112b565b5f60208301905060405180604001604052808451815260200182815250915050919050565b60606108e382610bc2565b6108eb575f80fd5b5f6108f583610c09565b90505f8167ffffffffffffffff811115610912576109116111eb565b5b60405190808252806020026020018201604052801561094b57816020015b61093861112b565b8152602001906001900390816109305790505b5090505f61095c8560200151610c90565b856020015161096b9190611b61565b90505f805f90505b848110156109d45761098483610d4c565b91506040518060400160405280838152602001848152508482815181106109ae576109ad6119f2565b5b602002602001018190525081836109c59190611b61565b92508080600101915050610973565b5082945050505050919050565b60605f825f0151116109f1575f80fd5b5f806109fc84610e25565b915091505f8167ffffffffffffffff811115610a1b57610a1a6111eb565b5b6040519080825280601f01601f191660200182016040528015610a4d5781602001600182028036833780820191505090505b5090505f816020019050610a62848285610e6a565b81945050505050919050565b60608251821115610a7d575f80fd5b5f828451610a8b9190611b94565b90505f610a9785610f09565b9050610aae8482610aa89190611b61565b83610f15565b9250505092915050565b5f602082511015610afe576040517f08c379a0000000000000000000000000000000000000000000000000000000008152600401610af590611c37565b60405180910390fd5b60208201519050919050565b5f808251118015610baa575060c060f81b825f81518110610b2e57610b2d6119f2565b5b602001015160f81c60f81b7effffffffffffffffffffffffffffffffffffffffffffffffffffffffffffff19161480610ba95750608060f81b825f81518110610b7a57610b796119f2565b5b602001015160f81c60f81b7effffffffffffffffffffffffffffffffffffffffffffffffffffffffffffff1916145b5b9050919050565b5f8183208285201490509392505050565b5f80825f015103610bd5575f9050610c04565b5f808360200151905080515f1a915060c060ff168260ff161015610bfd575f92505050610c04565b6001925050505b919050565b5f80825f015103610c1c575f9050610c8b565b5f80610c2b8460200151610c90565b8460200151610c3a9190611b61565b90505f845f01518560200151610c509190611b61565b90505b80821015610c8457610c6482610d4c565b82610c6f9190611b61565b91508280610c7c90611c55565b935050610c53565b8293505050505b919050565b5f8082515f1a9050608060ff16811015610cad575f915050610d47565b60b860ff16811080610cd2575060c060ff168110158015610cd1575060f860ff1681105b5b15610ce1576001915050610d47565b60c060ff16811015610d1c5760018060b8610cfc9190611c9c565b60ff1682610d0a9190611b94565b610d149190611b61565b915050610d47565b60018060f8610d2b9190611c9c565b60ff1682610d399190611b94565b610d439190611b61565b9150505b919050565b5f805f83515f1a9050608060ff16811015610d6a5760019150610e1b565b60b860ff16811015610d99576001608060ff1682610d889190611b94565b610d929190611b61565b9150610e1a565b60c060ff16811015610dc95760b78103600185019450806020036101000a85510460018201810193505050610e19565b60f860ff16811015610df857600160c060ff1682610de79190611b94565b610df19190611b61565b9150610e18565b60f78103600185019450806020036101000a855104600182018101935050505b5b5b5b8192505050919050565b5f805f610e358460200151610c90565b90505f818560200151610e489190611b61565b90505f82865f0151610e5a9190611b94565b9050818194509450505050915091565b5f810315610f04575b602060ff168110610ebd5782518252602060ff1683610e929190611b61565b9250602060ff1682610ea49190611b61565b9150602060ff1681610eb69190611b94565b9050610e73565b5f811115610f03575f600182602060ff16610ed89190611b94565b610100610ee59190611dff565b610eef9190611b94565b905080198451168184511681811785525050505b5b505050565b5f602082019050919050565b60608167ffffffffffffffff811115610f3157610f306111eb565b5b6040519080825280601f01601f191660200182016040528015610f635781602001600182028036833780820191505090505b5090505f602082019050610f78848285610f7f565b5092915050565b5b60208110610fbe5782518252602082610f999190611b61565b9150602083610fa89190611b61565b9250602081610fb79190611b94565b9050610f80565b5f808214610ff1576001826020610fd59190611b94565b610100610fe29190611dff565b610fec9190611b94565b611013565b7fffffffffffffffffffffffffffffffffffffffffffffffffffffffffffffffff5b90508019845116818451168181178552505050505050565b6040518061014001604052805f151581526020015f151581526020015f151581526020015f151581526020015f151581526020015f151581526020015f151581526020015f151581526020015f8152602001611085611143565b81525090565b604051806040016040528061109e61115c565b81526020016110ab611175565b81525090565b60405180604001604052806110c461115c565b81526020016110d1611175565b81525090565b60405180604001604052806110ea6111a1565b81526020016110f76110fd565b81525090565b6040518061020001604052806010905b6111156111a1565b81526020019060019003908161110d5790505090565b60405180604001604052805f81526020015f81525090565b6040518060400160405280606081526020015f81525090565b6040518060400160405280606081526020015f81525090565b60405180608001604052805f151581526020015f80191681526020015f15158152602001606081525090565b60405180604001604052805f151581526020016111bc611175565b81525090565b5f604051905090565b5f80fd5b5f80fd5b5f80fd5b5f80fd5b5f601f19601f8301169050919050565b7f4e487b71000000000000000000000000000000000000000000000000000000005f52604160045260245ffd5b611221826111db565b810181811067ffffffffffffffff821117156112405761123f6111eb565b5b80604052505050565b5f6112526111c2565b905061125e8282611218565b919050565b5f67ffffffffffffffff82111561127d5761127c6111eb565b5b611286826111db565b9050602081019050919050565b828183375f83830152505050565b5f6112b36112ae84611263565b611249565b9050828152602081018484840111156112cf576112ce6111d7565b5b6112da848285611293565b509392505050565b5f82601f8301126112f6576112f56111d3565b5b81356113068482602086016112a1565b91505092915050565b5f60208284031215611324576113236111cb565b5b5f82013567ffffffffffffffff811115611341576113406111cf565b5b61134d848285016112e2565b91505092915050565b5f8115159050919050565b61136a81611356565b82525050565b5f819050919050565b61138281611370565b82525050565b5f81519050919050565b5f82825260208201905092915050565b8281835e5f83830152505050565b5f6113ba82611388565b6113c48185611392565b93506113d48185602086016113a2565b6113dd816111db565b840191505092915050565b5f604083015f8301518482035f86015261140282826113b0565b91505060208301516114176020860182611379565b508091505092915050565b5f61014083015f8301516114385f860182611361565b50602083015161144b6020860182611361565b50604083015161145e6040860182611361565b5060608301516114716060860182611361565b5060808301516114846080860182611361565b5060a083015161149760a0860182611361565b5060c08301516114aa60c0860182611361565b5060e08301516114bd60e0860182611361565b506101008301516114d2610100860182611379565b506101208301518482036101208601526114ec82826113e8565b9150508091505092915050565b5f6020820190508181035f8301526115118184611422565b905092915050565b5f80fd5b5f80fd5b61152a81611356565b8114611534575f80fd5b50565b5f8135905061154581611521565b92915050565b61155481611370565b811461155e575f80fd5b50565b5f8135905061156f8161154b565b92915050565b5f6040828403121561158a57611589611519565b5b6115946040611249565b90505f82013567ffffffffffffffff8111156115b3576115b261151d565b5b6115bf848285016112e2565b5f8301525060206115d284828501611561565b60208301525092915050565b5f61014082840312156115f4576115f3611519565b5b6115ff610140611249565b90505f61160e84828501611537565b5f83015250602061162184828501611537565b602083015250604061163584828501611537565b604083015250606061164984828501611537565b606083015250608061165d84828501611537565b60808301525060a061167184828501611537565b60a08301525060c061168584828501611537565b60c08301525060e061169984828501611537565b60e0830152506101006116ae84828501611561565b6101008301525061012082013567ffffffffffffffff8111156116d4576116d361151d565b5b6116e084828501611575565b6101208301525092915050565b5f60208284031215611702576117016111cb565b5b5f82013567ffffffffffffffff81111561171f5761171e6111cf565b5b61172b848285016115de565b91505092915050565b5f604083015f8301518482035f86015261174e82826113b0565b91505060208301516117636020860182611379565b508091505092915050565b5f819050919050565b6117808161176e565b82525050565b5f608083015f83015161179b5f860182611361565b5060208301516117ae6020860182611777565b5060408301516117c16040860182611361565b50606083015184820360608601526117d982826113b0565b9150508091505092915050565b5f604083015f8301518482035f8601526118008282611734565b9150506020830151848203602086015261181a8282611786565b9150508091505092915050565b5f6020820190508181035f83015261183f81846117e6565b905092915050565b5f604083015f8301518482035f8601526118618282611734565b9150506020830151848203602086015261187b8282611786565b9150508091505092915050565b5f6020820190508181035f8301526118a08184611847565b905092915050565b5f604083015f8301516118bd5f860182611361565b50602083015184820360208601526118d58282611786565b9150508091505092915050565b5f60109050919050565b5f81905092915050565b5f819050919050565b5f61190a83836118a8565b905092915050565b5f602082019050919050565b5f611928826118e2565b61193281856118ec565b935083602082028501611944856118f6565b805f5b8581101561197f578484038952815161196085826118ff565b945061196b83611912565b925060208a01995050600181019050611947565b50829750879550505050505092915050565b5f604083015f8301518482035f8601526119ab82826118a8565b915050602083015184820360208601526119c5828261191e565b9150508091505092915050565b5f6020820190508181035f8301526119ea8184611991565b905092915050565b7f4e487b71000000000000000000000000000000000000000000000000000000005f52603260045260245ffd5b5f82825260208201905092915050565b7f496e76616c6964206461746100000000000000000000000000000000000000005f82015250565b5f611a63600c83611a1f565b9150611a6e82611a2f565b602082019050919050565b5f6020820190508181035f830152611a9081611a57565b9050919050565b5f60ff82169050919050565b7f4e487b71000000000000000000000000000000000000000000000000000000005f52601160045260245ffd5b5f611ada82611a97565b9150611ae583611a97565b9250828201905060ff811115611afe57611afd611aa3565b5b92915050565b7f4e487b71000000000000000000000000000000000000000000000000000000005f52601260045260245ffd5b5f611b3b82611a97565b9150611b4683611a97565b925082611b5657611b55611b04565b5b828206905092915050565b5f611b6b82611370565b9150611b7683611370565b9250828201905080821115611b8e57611b8d611aa3565b5b92915050565b5f611b9e82611370565b9150611ba983611370565b9250828203905081811115611bc157611bc0611aa3565b5b92915050565b7f42797465733a3a20746f427974657333323a206461746120697320746f2073685f8201527f6f72742e00000000000000000000000000000000000000000000000000000000602082015250565b5f611c21602483611a1f565b9150611c2c82611bc7565b604082019050919050565b5f6020820190508181035f830152611c4e81611c15565b9050919050565b5f611c5f82611370565b91507fffffffffffffffffffffffffffffffffffffffffffffffffffffffffffffffff8203611c9157611c90611aa3565b5b600182019050919050565b5f611ca682611a97565b9150611cb183611a97565b9250828203905060ff811115611cca57611cc9611aa3565b5b92915050565b5f8160011c9050919050565b5f808291508390505b6001851115611d2557808604811115611d0157611d00611aa3565b5b6001851615611d105780820291505b8081029050611d1e85611cd0565b9450611ce5565b94509492505050565b5f82611d3d5760019050611df8565b81611d4a575f9050611df8565b8160018114611d605760028114611d6a57611d99565b6001915050611df8565b60ff841115611d7c57611d7b611aa3565b5b8360020a915084821115611d9357611d92611aa3565b5b50611df8565b5060208310610133831016604e8410600b8410161715611dce5782820a905083811115611dc957611dc8611aa3565b5b611df8565b611ddb8484846001611cdc565b92509050818404811115611df257611df1611aa3565b5b81810290505b9392505050565b5f611e0982611370565b9150611e1483611370565b9250611e417fffffffffffffffffffffffffffffffffffffffffffffffffffffffffffffffff8484611d2e565b90509291505056fea264697066735822122083be8d047667dfb62aa5a2d63c06ad86b868dfc83208585ebb0f884dfc8ace2664736f6c634300081a0033",
			"opcodes": "PUSH2 0x1E7F PUSH2 0x4D PUSH1 0xB DUP3 DUP3 DUP3 CODECOPY DUP1 MLOAD PUSH0 BYTE PUSH1 0x73 EQ PUSH1 0x41 JUMPI PUSH32 0x4E487B7100000000000000000000000000000000000000000000000000000000 PUSH0 MSTORE PUSH0 PUSH1 0x4 MSTORE PUSH1 0x24 PUSH0 REVERT JUMPDEST ADDRESS PUSH0 MSTORE PUSH1 0x73 DUP2 MSTORE8 DUP3 DUP2 RETURN INVALID PUSH20 0x0 ADDRESS EQ PUSH1 0x80 PUSH1 0x40 MSTORE PUSH1 0x4 CALLDATASIZE LT PUSH2 0x55 JUMPI PUSH0 CALLDATALOAD PUSH1 0xE0 SHR DUP1 PUSH4 0x91648AC5 EQ PUSH2 0x59 JUMPI DUP1 PUSH4 0xA948B670 EQ PUSH2 0x89 JUMPI DUP1 PUSH4 0xBA1DAF93 EQ PUSH2 0xB9 JUMPI DUP1 PUSH4 0xCBEF80F1 EQ PUSH2 0xE9 JUMPI JUMPDEST PUSH0 DUP1 REVERT JUMPDEST PUSH2 0x73 PUSH1 0x4 DUP1 CALLDATASIZE SUB DUP2 ADD SWAP1 PUSH2 0x6E SWAP2 SWAP1 PUSH2 0x130F JUMP JUMPDEST PUSH2 0x119 JUMP JUMPDEST PUSH1 0x40 MLOAD PUSH2 0x80 SWAP2 SWAP1 PUSH2 0x14F9 JUMP JUMPDEST PUSH1 0x40 MLOAD DUP1 SWAP2 SUB SWAP1 RETURN JUMPDEST PUSH2 0xA3 PUSH1 0x4 DUP1 CALLDATASIZE SUB DUP2 ADD SWAP1 PUSH2 0x9E SWAP2 SWAP1 PUSH2 0x16ED JUMP JUMPDEST PUSH2 0x2CD JUMP JUMPDEST PUSH1 0x40 MLOAD PUSH2 0xB0 SWAP2 SWAP1 PUSH2 0x1827 JUMP JUMPDEST PUSH1 0x40 MLOAD DUP1 SWAP2 SUB SWAP1 RETURN JUMPDEST PUSH2 0xD3 PUSH1 0x4 DUP1 CALLDATASIZE SUB DUP2 ADD SWAP1 PUSH2 0xCE SWAP2 SWAP1 PUSH2 0x16ED JUMP JUMPDEST PUSH2 0x482 JUMP JUMPDEST PUSH1 0x40 MLOAD PUSH2 0xE0 SWAP2 SWAP1 PUSH2 0x1888 JUMP JUMPDEST PUSH1 0x40 MLOAD DUP1 SWAP2 SUB SWAP1 RETURN JUMPDEST PUSH2 0x103 PUSH1 0x4 DUP1 CALLDATASIZE SUB DUP2 ADD SWAP1 PUSH2 0xFE SWAP2 SWAP1 PUSH2 0x16ED JUMP JUMPDEST PUSH2 0x558 JUMP JUMPDEST PUSH1 0x40 MLOAD PUSH2 0x110 SWAP2 SWAP1 PUSH2 0x19D2 JUMP JUMPDEST PUSH1 0x40 MLOAD DUP1 SWAP2 SUB SWAP1 RETURN JUMPDEST PUSH2 0x121 PUSH2 0x102B JUMP JUMPDEST PUSH2 0x129 PUSH2 0x102B JUMP JUMPDEST PUSH0 PUSH1 0x40 MLOAD DUP1 PUSH1 0x40 ADD PUSH1 0x40 MSTORE DUP1 DUP6 DUP2 MSTORE PUSH1 0x20 ADD PUSH0 DUP2 MSTORE POP SWAP1 POP PUSH2 0x180 DUP5 PUSH1 0x40 MLOAD DUP1 PUSH1 0x40 ADD PUSH1 0x40 MSTORE DUP1 PUSH1 0x20 DUP2 MSTORE PUSH1 0x20 ADD PUSH32 0x56E81F171BCC55A6FF8345E692C0F86E5B48E01B996CADC001622FB5E363B421 DUP2 MSTORE POP PUSH2 0x874 JUMP JUMPDEST ISZERO PUSH2 0x19F JUMPI PUSH1 0x1 DUP3 PUSH0 ADD SWAP1 ISZERO ISZERO SWAP1 DUP2 ISZERO ISZERO DUP2 MSTORE POP POP DUP2 SWAP3 POP POP POP PUSH2 0x2C8 JUMP JUMPDEST PUSH0 PUSH2 0x1B1 PUSH2 0x1AC DUP7 PUSH2 0x8AB JUMP JUMPDEST PUSH2 0x8D8 JUMP JUMPDEST SWAP1 POP PUSH0 DUP2 MLOAD SWAP1 POP PUSH0 DUP2 SUB PUSH2 0x1DB JUMPI PUSH1 0x1 DUP5 PUSH0 ADD SWAP1 ISZERO ISZERO SWAP1 DUP2 ISZERO ISZERO DUP2 MSTORE POP POP DUP4 SWAP5 POP POP POP POP POP PUSH2 0x2C8 JUMP JUMPDEST PUSH1 0x2 DUP2 SUB PUSH2 0x25C JUMPI PUSH0 PUSH2 0x207 DUP4 PUSH0 DUP2 MLOAD DUP2 LT PUSH2 0x1FA JUMPI PUSH2 0x1F9 PUSH2 0x19F2 JUMP JUMPDEST JUMPDEST PUSH1 0x20 MUL PUSH1 0x20 ADD ADD MLOAD PUSH2 0x9E1 JUMP JUMPDEST SWAP1 POP PUSH0 PUSH1 0x20 DUP3 ADD MLOAD PUSH1 0xF8 SHR DUP1 PUSH1 0x4 SHR SWAP2 POP POP PUSH1 0x2 DUP2 EQ DUP1 PUSH2 0x228 JUMPI POP PUSH1 0x3 DUP2 EQ JUMPDEST ISZERO PUSH2 0x243 JUMPI PUSH1 0x1 DUP7 PUSH1 0x20 ADD SWAP1 ISZERO ISZERO SWAP1 DUP2 ISZERO ISZERO DUP2 MSTORE POP POP PUSH2 0x255 JUMP JUMPDEST PUSH1 0x1 DUP7 PUSH1 0xC0 ADD SWAP1 ISZERO ISZERO SWAP1 DUP2 ISZERO ISZERO DUP2 MSTORE POP POP JUMPDEST POP POP PUSH2 0x2B6 JUMP JUMPDEST PUSH1 0x11 DUP2 SUB PUSH2 0x27A JUMPI PUSH1 0x1 DUP5 PUSH1 0xE0 ADD SWAP1 ISZERO ISZERO SWAP1 DUP2 ISZERO ISZERO DUP2 MSTORE POP POP PUSH2 0x2B5 JUMP JUMPDEST PUSH1 0x40 MLOAD PUSH32 0x8C379A000000000000000000000000000000000000000000000000000000000 DUP2 MSTORE PUSH1 0x4 ADD PUSH2 0x2AC SWAP1 PUSH2 0x1A79 JUMP JUMPDEST PUSH1 0x40 MLOAD DUP1 SWAP2 SUB SWAP1 REVERT JUMPDEST JUMPDEST DUP3 DUP5 PUSH2 0x120 ADD DUP2 SWAP1 MSTORE POP DUP4 SWAP5 POP POP POP POP POP JUMPDEST SWAP2 SWAP1 POP JUMP JUMPDEST PUSH2 0x2D5 PUSH2 0x108B JUMP JUMPDEST PUSH2 0x2DD PUSH2 0x108B JUMP JUMPDEST PUSH0 PUSH2 0x2F7 PUSH2 0x2F2 DUP6 PUSH2 0x120 ADD MLOAD PUSH0 ADD MLOAD PUSH2 0x8AB JUMP JUMPDEST PUSH2 0x8D8 JUMP JUMPDEST SWAP1 POP PUSH0 PUSH2 0x31E DUP3 PUSH1 0x1 DUP2 MLOAD DUP2 LT PUSH2 0x311 JUMPI PUSH2 0x310 PUSH2 0x19F2 JUMP JUMPDEST JUMPDEST PUSH1 0x20 MUL PUSH1 0x20 ADD ADD MLOAD PUSH2 0x9E1 JUMP JUMPDEST SWAP1 POP PUSH0 PUSH1 0x1 PUSH1 0x4 PUSH2 0x348 DUP6 PUSH0 DUP2 MLOAD DUP2 LT PUSH2 0x33B JUMPI PUSH2 0x33A PUSH2 0x19F2 JUMP JUMPDEST JUMPDEST PUSH1 0x20 MUL PUSH1 0x20 ADD ADD MLOAD PUSH2 0x9E1 JUMP JUMPDEST PUSH0 DUP2 MLOAD DUP2 LT PUSH2 0x35A JUMPI PUSH2 0x359 PUSH2 0x19F2 JUMP JUMPDEST JUMPDEST PUSH1 0x20 ADD ADD MLOAD PUSH1 0xF8 SHR PUSH1 0xF8 SHL PUSH31 0xFFFFFFFFFFFFFFFFFFFFFFFFFFFFFFFFFFFFFFFFFFFFFFFFFFFFFFFFFFFFFF NOT AND SWAP1 SHR PUSH1 0xF8 SHR AND SWAP1 POP PUSH1 0x40 MLOAD DUP1 PUSH1 0x40 ADD PUSH1 0x40 MSTORE DUP1 PUSH2 0x3E1 PUSH2 0x3C0 DUP7 PUSH0 DUP2 MLOAD DUP2 LT PUSH2 0x3B3 JUMPI PUSH2 0x3B2 PUSH2 0x19F2 JUMP JUMPDEST JUMPDEST PUSH1 0x20 MUL PUSH1 0x20 ADD ADD MLOAD PUSH2 0x9E1 JUMP JUMPDEST PUSH1 0x2 PUSH1 0x1 DUP7 PUSH2 0x3CF SWAP2 SWAP1 PUSH2 0x1AD0 JUMP JUMPDEST PUSH2 0x3D9 SWAP2 SWAP1 PUSH2 0x1B31 JUMP JUMPDEST PUSH1 0xFF AND PUSH2 0xA6E JUMP JUMPDEST DUP2 MSTORE PUSH1 0x20 ADD DUP3 PUSH1 0xFF AND DUP2 MSTORE POP DUP5 PUSH0 ADD DUP2 SWAP1 MSTORE POP PUSH1 0x40 MLOAD DUP1 PUSH1 0x80 ADD PUSH1 0x40 MSTORE DUP1 PUSH1 0x1 ISZERO ISZERO DUP2 MSTORE PUSH1 0x20 ADD PUSH2 0x411 DUP5 PUSH2 0xAB8 JUMP JUMPDEST DUP2 MSTORE PUSH1 0x20 ADD PUSH0 ISZERO ISZERO DUP2 MSTORE PUSH1 0x20 ADD PUSH0 PUSH8 0xFFFFFFFFFFFFFFFF DUP2 GT ISZERO PUSH2 0x438 JUMPI PUSH2 0x437 PUSH2 0x11EB JUMP JUMPDEST JUMPDEST PUSH1 0x40 MLOAD SWAP1 DUP1 DUP3 MSTORE DUP1 PUSH1 0x1F ADD PUSH1 0x1F NOT AND PUSH1 0x20 ADD DUP3 ADD PUSH1 0x40 MSTORE DUP1 ISZERO PUSH2 0x46A JUMPI DUP2 PUSH1 0x20 ADD PUSH1 0x1 DUP3 MUL DUP1 CALLDATASIZE DUP4 CALLDATACOPY DUP1 DUP3 ADD SWAP2 POP POP SWAP1 POP JUMPDEST POP DUP2 MSTORE POP DUP5 PUSH1 0x20 ADD DUP2 SWAP1 MSTORE POP DUP4 SWAP5 POP POP POP POP POP SWAP2 SWAP1 POP JUMP JUMPDEST PUSH2 0x48A PUSH2 0x10B1 JUMP JUMPDEST PUSH2 0x492 PUSH2 0x10B1 JUMP JUMPDEST PUSH0 PUSH2 0x4AC PUSH2 0x4A7 DUP6 PUSH2 0x120 ADD MLOAD PUSH0 ADD MLOAD PUSH2 0x8AB JUMP JUMPDEST PUSH2 0x8D8 JUMP JUMPDEST SWAP1 POP PUSH0 PUSH2 0x4D3 DUP3 PUSH1 0x1 DUP2 MLOAD DUP2 LT PUSH2 0x4C6 JUMPI PUSH2 0x4C5 PUSH2 0x19F2 JUMP JUMPDEST JUMPDEST PUSH1 0x20 MUL PUSH1 0x20 ADD ADD MLOAD PUSH2 0x9E1 JUMP JUMPDEST SWAP1 POP PUSH1 0x40 MLOAD DUP1 PUSH1 0x40 ADD PUSH1 0x40 MSTORE DUP1 PUSH2 0x50D PUSH2 0x506 DUP6 PUSH0 DUP2 MLOAD DUP2 LT PUSH2 0x4F9 JUMPI PUSH2 0x4F8 PUSH2 0x19F2 JUMP JUMPDEST JUMPDEST PUSH1 0x20 MUL PUSH1 0x20 ADD ADD MLOAD PUSH2 0x9E1 JUMP JUMPDEST PUSH1 0x1 PUSH2 0xA6E JUMP JUMPDEST DUP2 MSTORE PUSH1 0x20 ADD PUSH0 DUP2 MSTORE POP DUP4 PUSH0 ADD DUP2 SWAP1 MSTORE POP PUSH1 0x40 MLOAD DUP1 PUSH1 0x80 ADD PUSH1 0x40 MSTORE DUP1 PUSH0 ISZERO ISZERO DUP2 MSTORE PUSH1 0x20 ADD PUSH0 DUP1 SHL DUP2 MSTORE PUSH1 0x20 ADD PUSH1 0x1 ISZERO ISZERO DUP2 MSTORE PUSH1 0x20 ADD DUP3 DUP2 MSTORE POP DUP4 PUSH1 0x20 ADD DUP2 SWAP1 MSTORE POP DUP3 SWAP4 POP POP POP POP SWAP2 SWAP1 POP JUMP JUMPDEST PUSH2 0x560 PUSH2 0x10D7 JUMP JUMPDEST PUSH2 0x568 PUSH2 0x10D7 JUMP JUMPDEST PUSH0 PUSH2 0x582 PUSH2 0x57D DUP6 PUSH2 0x120 ADD MLOAD PUSH0 ADD MLOAD PUSH2 0x8AB JUMP JUMPDEST PUSH2 0x8D8 JUMP JUMPDEST SWAP1 POP PUSH2 0x58C PUSH2 0x10FD JUMP JUMPDEST PUSH0 JUMPDEST PUSH1 0x10 DUP2 LT ISZERO PUSH2 0x72F JUMPI PUSH0 PUSH2 0x5BB DUP5 DUP4 DUP2 MLOAD DUP2 LT PUSH2 0x5AE JUMPI PUSH2 0x5AD PUSH2 0x19F2 JUMP JUMPDEST JUMPDEST PUSH1 0x20 MUL PUSH1 0x20 ADD ADD MLOAD PUSH2 0x9E1 JUMP JUMPDEST SWAP1 POP PUSH1 0x20 DUP2 MLOAD EQ PUSH2 0x66F JUMPI PUSH1 0x40 MLOAD DUP1 PUSH1 0x40 ADD PUSH1 0x40 MSTORE DUP1 PUSH0 ISZERO ISZERO DUP2 MSTORE PUSH1 0x20 ADD PUSH1 0x40 MLOAD DUP1 PUSH1 0x80 ADD PUSH1 0x40 MSTORE DUP1 PUSH0 ISZERO ISZERO DUP2 MSTORE PUSH1 0x20 ADD PUSH0 DUP1 SHL DUP2 MSTORE PUSH1 0x20 ADD PUSH0 ISZERO ISZERO DUP2 MSTORE PUSH1 0x20 ADD PUSH0 PUSH8 0xFFFFFFFFFFFFFFFF DUP2 GT ISZERO PUSH2 0x616 JUMPI PUSH2 0x615 PUSH2 0x11EB JUMP JUMPDEST JUMPDEST PUSH1 0x40 MLOAD SWAP1 DUP1 DUP3 MSTORE DUP1 PUSH1 0x1F ADD PUSH1 0x1F NOT AND PUSH1 0x20 ADD DUP3 ADD PUSH1 0x40 MSTORE DUP1 ISZERO PUSH2 0x648 JUMPI DUP2 PUSH1 0x20 ADD PUSH1 0x1 DUP3 MUL DUP1 CALLDATASIZE DUP4 CALLDATACOPY DUP1 DUP3 ADD SWAP2 POP POP SWAP1 POP JUMPDEST POP DUP2 MSTORE POP DUP2 MSTORE POP DUP4 DUP4 PUSH1 0x10 DUP2 LT PUSH2 0x662 JUMPI PUSH2 0x661 PUSH2 0x19F2 JUMP JUMPDEST JUMPDEST PUSH1 0x20 MUL ADD DUP2 SWAP1 MSTORE POP PUSH2 0x721 JUMP JUMPDEST PUSH0 PUSH2 0x679 DUP3 PUSH2 0xAB8 JUMP JUMPDEST SWAP1 POP PUSH1 0x40 MLOAD DUP1 PUSH1 0x40 ADD PUSH1 0x40 MSTORE DUP1 PUSH1 0x1 ISZERO ISZERO DUP2 MSTORE PUSH1 0x20 ADD PUSH1 0x40 MLOAD DUP1 PUSH1 0x80 ADD PUSH1 0x40 MSTORE DUP1 PUSH1 0x1 ISZERO ISZERO DUP2 MSTORE PUSH1 0x20 ADD DUP5 DUP2 MSTORE PUSH1 0x20 ADD PUSH0 ISZERO ISZERO DUP2 MSTORE PUSH1 0x20 ADD PUSH0 PUSH8 0xFFFFFFFFFFFFFFFF DUP2 GT ISZERO PUSH2 0x6CB JUMPI PUSH2 0x6CA PUSH2 0x11EB JUMP JUMPDEST JUMPDEST PUSH1 0x40 MLOAD SWAP1 DUP1 DUP3 MSTORE DUP1 PUSH1 0x1F ADD PUSH1 0x1F NOT AND PUSH1 0x20 ADD DUP3 ADD PUSH1 0x40 MSTORE DUP1 ISZERO PUSH2 0x6FD JUMPI DUP2 PUSH1 0x20 ADD PUSH1 0x1 DUP3 MUL DUP1 CALLDATASIZE DUP4 CALLDATACOPY DUP1 DUP3 ADD SWAP2 POP POP SWAP1 POP JUMPDEST POP DUP2 MSTORE POP DUP2 MSTORE POP DUP5 DUP5 PUSH1 0x10 DUP2 LT PUSH2 0x717 JUMPI PUSH2 0x716 PUSH2 0x19F2 JUMP JUMPDEST JUMPDEST PUSH1 0x20 MUL ADD DUP2 SWAP1 MSTORE POP POP JUMPDEST POP DUP1 DUP1 PUSH1 0x1 ADD SWAP2 POP POP PUSH2 0x58E JUMP JUMPDEST POP PUSH2 0x75C PUSH2 0x757 DUP4 PUSH1 0x10 DUP2 MLOAD DUP2 LT PUSH2 0x74A JUMPI PUSH2 0x749 PUSH2 0x19F2 JUMP JUMPDEST JUMPDEST PUSH1 0x20 MUL PUSH1 0x20 ADD ADD MLOAD PUSH2 0x9E1 JUMP JUMPDEST PUSH2 0xB0A JUMP JUMPDEST ISZERO PUSH2 0x7F6 JUMPI PUSH1 0x40 MLOAD DUP1 PUSH1 0x40 ADD PUSH1 0x40 MSTORE DUP1 PUSH0 ISZERO ISZERO DUP2 MSTORE PUSH1 0x20 ADD PUSH1 0x40 MLOAD DUP1 PUSH1 0x80 ADD PUSH1 0x40 MSTORE DUP1 PUSH0 ISZERO ISZERO DUP2 MSTORE PUSH1 0x20 ADD PUSH0 DUP1 SHL DUP2 MSTORE PUSH1 0x20 ADD PUSH0 ISZERO ISZERO DUP2 MSTORE PUSH1 0x20 ADD PUSH0 PUSH8 0xFFFFFFFFFFFFFFFF DUP2 GT ISZERO PUSH2 0x7B1 JUMPI PUSH2 0x7B0 PUSH2 0x11EB JUMP JUMPDEST JUMPDEST PUSH1 0x40 MLOAD SWAP1 DUP1 DUP3 MSTORE DUP1 PUSH1 0x1F ADD PUSH1 0x1F NOT AND PUSH1 0x20 ADD DUP3 ADD PUSH1 0x40 MSTORE DUP1 ISZERO PUSH2 0x7E3 JUMPI DUP2 PUSH1 0x20 ADD PUSH1 0x1 DUP3 MUL DUP1 CALLDATASIZE DUP4 CALLDATACOPY DUP1 DUP3 ADD SWAP2 POP POP SWAP1 POP JUMPDEST POP DUP2 MSTORE POP DUP2 MSTORE POP DUP4 PUSH0 ADD DUP2 SWAP1 MSTORE POP PUSH2 0x860 JUMP JUMPDEST PUSH1 0x40 MLOAD DUP1 PUSH1 0x40 ADD PUSH1 0x40 MSTORE DUP1 PUSH1 0x1 ISZERO ISZERO DUP2 MSTORE PUSH1 0x20 ADD PUSH1 0x40 MLOAD DUP1 PUSH1 0x80 ADD PUSH1 0x40 MSTORE DUP1 PUSH0 ISZERO ISZERO DUP2 MSTORE PUSH1 0x20 ADD PUSH0 DUP1 SHL DUP2 MSTORE PUSH1 0x20 ADD PUSH1 0x1 ISZERO ISZERO DUP2 MSTORE PUSH1 0x20 ADD PUSH2 0x852 DUP7 PUSH1 0x10 DUP2 MLOAD DUP2 LT PUSH2 0x845 JUMPI PUSH2 0x844 PUSH2 0x19F2 JUMP JUMPDEST JUMPDEST PUSH1 0x20 MUL PUSH1 0x20 ADD ADD MLOAD PUSH2 0x9E1 JUMP JUMPDEST DUP2 MSTORE POP DUP2 MSTORE POP DUP4 PUSH0 ADD DUP2 SWAP1 MSTORE POP JUMPDEST DUP1 DUP4 PUSH1 0x20 ADD DUP2 SWAP1 MSTORE POP DUP3 SWAP4 POP POP POP POP SWAP2 SWAP1 POP JUMP JUMPDEST PUSH0 DUP2 MLOAD DUP4 MLOAD EQ PUSH2 0x886 JUMPI PUSH0 SWAP1 POP PUSH2 0x8A5 JUMP JUMPDEST PUSH0 DUP1 PUSH1 0x20 DUP6 ADD SWAP2 POP PUSH1 0x20 DUP5 ADD SWAP1 POP PUSH2 0x8A0 DUP3 DUP3 DUP8 MLOAD PUSH2 0xBB1 JUMP JUMPDEST SWAP3 POP POP POP JUMPDEST SWAP3 SWAP2 POP POP JUMP JUMPDEST PUSH2 0x8B3 PUSH2 0x112B JUMP JUMPDEST PUSH0 PUSH1 0x20 DUP4 ADD SWAP1 POP PUSH1 0x40 MLOAD DUP1 PUSH1 0x40 ADD PUSH1 0x40 MSTORE DUP1 DUP5 MLOAD DUP2 MSTORE PUSH1 0x20 ADD DUP3 DUP2 MSTORE POP SWAP2 POP POP SWAP2 SWAP1 POP JUMP JUMPDEST PUSH1 0x60 PUSH2 0x8E3 DUP3 PUSH2 0xBC2 JUMP JUMPDEST PUSH2 0x8EB JUMPI PUSH0 DUP1 REVERT JUMPDEST PUSH0 PUSH2 0x8F5 DUP4 PUSH2 0xC09 JUMP JUMPDEST SWAP1 POP PUSH0 DUP2 PUSH8 0xFFFFFFFFFFFFFFFF DUP2 GT ISZERO PUSH2 0x912 JUMPI PUSH2 0x911 PUSH2 0x11EB JUMP JUMPDEST JUMPDEST PUSH1 0x40 MLOAD SWAP1 DUP1 DUP3 MSTORE DUP1 PUSH1 0x20 MUL PUSH1 0x20 ADD DUP3 ADD PUSH1 0x40 MSTORE DUP1 ISZERO PUSH2 0x94B JUMPI DUP2 PUSH1 0x20 ADD JUMPDEST PUSH2 0x938 PUSH2 0x112B JUMP JUMPDEST DUP2 MSTORE PUSH1 0x20 ADD SWAP1 PUSH1 0x1 SWAP1 SUB SWAP1 DUP2 PUSH2 0x930 JUMPI SWAP1 POP JUMPDEST POP SWAP1 POP PUSH0 PUSH2 0x95C DUP6 PUSH1 0x20 ADD MLOAD PUSH2 0xC90 JUMP JUMPDEST DUP6 PUSH1 0x20 ADD MLOAD PUSH2 0x96B SWAP2 SWAP1 PUSH2 0x1B61 JUMP JUMPDEST SWAP1 POP PUSH0 DUP1 PUSH0 SWAP1 POP JUMPDEST DUP5 DUP2 LT ISZERO PUSH2 0x9D4 JUMPI PUSH2 0x984 DUP4 PUSH2 0xD4C JUMP JUMPDEST SWAP2 POP PUSH1 0x40 MLOAD DUP1 PUSH1 0x40 ADD PUSH1 0x40 MSTORE DUP1 DUP4 DUP2 MSTORE PUSH1 0x20 ADD DUP5 DUP2 MSTORE POP DUP5 DUP3 DUP2 MLOAD DUP2 LT PUSH2 0x9AE JUMPI PUSH2 0x9AD PUSH2 0x19F2 JUMP JUMPDEST JUMPDEST PUSH1 0x20 MUL PUSH1 0x20 ADD ADD DUP2 SWAP1 MSTORE POP DUP2 DUP4 PUSH2 0x9C5 SWAP2 SWAP1 PUSH2 0x1B61 JUMP JUMPDEST SWAP3 POP DUP1 DUP1 PUSH1 0x1 ADD SWAP2 POP POP PUSH2 0x973 JUMP JUMPDEST POP DUP3 SWAP5 POP POP POP POP POP SWAP2 SWAP1 POP JUMP JUMPDEST PUSH1 0x60 PUSH0 DUP3 PUSH0 ADD MLOAD GT PUSH2 0x9F1 JUMPI PUSH0 DUP1 REVERT JUMPDEST PUSH0 DUP1 PUSH2 0x9FC DUP5 PUSH2 0xE25 JUMP JUMPDEST SWAP2 POP SWAP2 POP PUSH0 DUP2 PUSH8 0xFFFFFFFFFFFFFFFF DUP2 GT ISZERO PUSH2 0xA1B JUMPI PUSH2 0xA1A PUSH2 0x11EB JUMP JUMPDEST JUMPDEST PUSH1 0x40 MLOAD SWAP1 DUP1 DUP3 MSTORE DUP1 PUSH1 0x1F ADD PUSH1 0x1F NOT AND PUSH1 0x20 ADD DUP3 ADD PUSH1 0x40 MSTORE DUP1 ISZERO PUSH2 0xA4D JUMPI DUP2 PUSH1 0x20 ADD PUSH1 0x1 DUP3 MUL DUP1 CALLDATASIZE DUP4 CALLDATACOPY DUP1 DUP3 ADD SWAP2 POP POP SWAP1 POP JUMPDEST POP SWAP1 POP PUSH0 DUP2 PUSH1 0x20 ADD SWAP1 POP PUSH2 0xA62 DUP5 DUP3 DUP6 PUSH2 0xE6A JUMP JUMPDEST DUP2 SWAP5 POP POP POP POP POP SWAP2 SWAP1 POP JUMP JUMPDEST PUSH1 0x60 DUP3 MLOAD DUP3 GT ISZERO PUSH2 0xA7D JUMPI PUSH0 DUP1 REVERT JUMPDEST PUSH0 DUP3 DUP5 MLOAD PUSH2 0xA8B SWAP2 SWAP1 PUSH2 0x1B94 JUMP JUMPDEST SWAP1 POP PUSH0 PUSH2 0xA97 DUP6 PUSH2 0xF09 JUMP JUMPDEST SWAP1 POP PUSH2 0xAAE DUP5 DUP3 PUSH2 0xAA8 SWAP2 SWAP1 PUSH2 0x1B61 JUMP JUMPDEST DUP4 PUSH2 0xF15 JUMP JUMPDEST SWAP3 POP POP POP SWAP3 SWAP2 POP POP JUMP JUMPDEST PUSH0 PUSH1 0x20 DUP3 MLOAD LT ISZERO PUSH2 0xAFE JUMPI PUSH1 0x40 MLOAD PUSH32 0x8C379A000000000000000000000000000000000000000000000000000000000 DUP2 MSTORE PUSH1 0x4 ADD PUSH2 0xAF5 SWAP1 PUSH2 0x1C37 JUMP JUMPDEST PUSH1 0x40 MLOAD DUP1 SWAP2 SUB SWAP1 REVERT JUMPDEST PUSH1 0x20 DUP3 ADD MLOAD SWAP1 POP SWAP2 SWAP1 POP JUMP JUMPDEST PUSH0 DUP1 DUP3 MLOAD GT DUP1 ISZERO PUSH2 0xBAA JUMPI POP PUSH1 0xC0 PUSH1 0xF8 SHL DUP3 PUSH0 DUP2 MLOAD DUP2 LT PUSH2 0xB2E JUMPI PUSH2 0xB2D PUSH2 0x19F2 JUMP JUMPDEST JUMPDEST PUSH1 0x20 ADD ADD MLOAD PUSH1 0xF8 SHR PUSH1 0xF8 SHL PUSH31 0xFFFFFFFFFFFFFFFFFFFFFFFFFFFFFFFFFFFFFFFFFFFFFFFFFFFFFFFFFFFFFF NOT AND EQ DUP1 PUSH2 0xBA9 JUMPI POP PUSH1 0x80 PUSH1 0xF8 SHL DUP3 PUSH0 DUP2 MLOAD DUP2 LT PUSH2 0xB7A JUMPI PUSH2 0xB79 PUSH2 0x19F2 JUMP JUMPDEST JUMPDEST PUSH1 0x20 ADD ADD MLOAD PUSH1 0xF8 SHR PUSH1 0xF8 SHL PUSH31 0xFFFFFFFFFFFFFFFFFFFFFFFFFFFFFFFFFFFFFFFFFFFFFFFFFFFFFFFFFFFFFF NOT AND EQ JUMPDEST JUMPDEST SWAP1 POP SWAP2 SWAP1 POP JUMP JUMPDEST PUSH0 DUP2 DUP4 KECCAK256 DUP3 DUP6 KECCAK256 EQ SWAP1 POP SWAP4 SWAP3 POP POP POP JUMP JUMPDEST PUSH0 DUP1 DUP3 PUSH0 ADD MLOAD SUB PUSH2 0xBD5 JUMPI PUSH0 SWAP1 POP PUSH2 0xC04 JUMP JUMPDEST PUSH0 DUP1 DUP4 PUSH1 0x20 ADD MLOAD SWAP1 POP DUP1 MLOAD PUSH0 BYTE SWAP2 POP PUSH1 0xC0 PUSH1 0xFF AND DUP3 PUSH1 0xFF AND LT ISZERO PUSH2 0xBFD JUMPI PUSH0 SWAP3 POP POP POP PUSH2 0xC04 JUMP JUMPDEST PUSH1 0x1 SWAP3 POP POP POP JUMPDEST SWAP2 SWAP1 POP JUMP JUMPDEST PUSH0 DUP1 DUP3 PUSH0 ADD MLOAD SUB PUSH2 0xC1C JUMPI PUSH0 SWAP1 POP PUSH2 0xC8B JUMP JUMPDEST PUSH0 DUP1 PUSH2 0xC2B DUP5 PUSH1 0x20 ADD MLOAD PUSH2 0xC90 JUMP JUMPDEST DUP5 PUSH1 0x20 ADD MLOAD PUSH2 0xC3A SWAP2 SWAP1 PUSH2 0x1B61 JUMP JUMPDEST SWAP1 POP PUSH0 DUP5 PUSH0 ADD MLOAD DUP6 PUSH1 0x20 ADD MLOAD PUSH2 0xC50 SWAP2 SWAP1 PUSH2 0x1B61 JUMP JUMPDEST SWAP1 POP JUMPDEST DUP1 DUP3 LT ISZERO PUSH2 0xC84 JUMPI PUSH2 0xC64 DUP3 PUSH2 0xD4C JUMP JUMPDEST DUP3 PUSH2 0xC6F SWAP2 SWAP1 PUSH2 0x1B61 JUMP JUMPDEST SWAP2 POP DUP3 DUP1 PUSH2 0xC7C SWAP1 PUSH2 0x1C55 JUMP JUMPDEST SWAP4 POP POP PUSH2 0xC53 JUMP JUMPDEST DUP3 SWAP4 POP POP POP POP JUMPDEST SWAP2 SWAP1 POP JUMP JUMPDEST PUSH0 DUP1 DUP3 MLOAD PUSH0 BYTE SWAP1 POP PUSH1 0x80 PUSH1 0xFF AND DUP2 LT ISZERO PUSH2 0xCAD JUMPI PUSH0 SWAP2 POP POP PUSH2 0xD47 JUMP JUMPDEST PUSH1 0xB8 PUSH1 0xFF AND DUP2 LT DUP1 PUSH2 0xCD2 JUMPI POP PUSH1 0xC0 PUSH1 0xFF AND DUP2 LT ISZERO DUP1 ISZERO PUSH2 0xCD1 JUMPI POP PUSH1 0xF8 PUSH1 0xFF AND DUP2 LT JUMPDEST JUMPDEST ISZERO PUSH2 0xCE1 JUMPI PUSH1 0x1 SWAP2 POP POP PUSH2 0xD47 JUMP JUMPDEST PUSH1 0xC0 PUSH1 0xFF AND DUP2 LT ISZERO PUSH2 0xD1C JUMPI PUSH1 0x1 DUP1 PUSH1 0xB8 PUSH2 0xCFC SWAP2 SWAP1 PUSH2 0x1C9C JUMP JUMPDEST PUSH1 0xFF AND DUP3 PUSH2 0xD0A SWAP2 SWAP1 PUSH2 0x1B94 JUMP JUMPDEST PUSH2 0xD14 SWAP2 SWAP1 PUSH2 0x1B61 JUMP JUMPDEST SWAP2 POP POP PUSH2 0xD47 JUMP JUMPDEST PUSH1 0x1 DUP1 PUSH1 0xF8 PUSH2 0xD2B SWAP2 SWAP1 PUSH2 0x1C9C JUMP JUMPDEST PUSH1 0xFF AND DUP3 PUSH2 0xD39 SWAP2 SWAP1 PUSH2 0x1B94 JUMP JUMPDEST PUSH2 0xD43 SWAP2 SWAP1 PUSH2 0x1B61 JUMP JUMPDEST SWAP2 POP POP JUMPDEST SWAP2 SWAP1 POP JUMP JUMPDEST PUSH0 DUP1 PUSH0 DUP4 MLOAD PUSH0 BYTE SWAP1 POP PUSH1 0x80 PUSH1 0xFF AND DUP2 LT ISZERO PUSH2 0xD6A JUMPI PUSH1 0x1 SWAP2 POP PUSH2 0xE1B JUMP JUMPDEST PUSH1 0xB8 PUSH1 0xFF AND DUP2 LT ISZERO PUSH2 0xD99 JUMPI PUSH1 0x1 PUSH1 0x80 PUSH1 0xFF AND DUP3 PUSH2 0xD88 SWAP2 SWAP1 PUSH2 0x1B94 JUMP JUMPDEST PUSH2 0xD92 SWAP2 SWAP1 PUSH2 0x1B61 JUMP JUMPDEST SWAP2 POP PUSH2 0xE1A JUMP JUMPDEST PUSH1 0xC0 PUSH1 0xFF AND DUP2 LT ISZERO PUSH2 0xDC9 JUMPI PUSH1 0xB7 DUP2 SUB PUSH1 0x1 DUP6 ADD SWAP5 POP DUP1 PUSH1 0x20 SUB PUSH2 0x100 EXP DUP6 MLOAD DIV PUSH1 0x1 DUP3 ADD DUP2 ADD SWAP4 POP POP POP PUSH2 0xE19 JUMP JUMPDEST PUSH1 0xF8 PUSH1 0xFF AND DUP2 LT ISZERO PUSH2 0xDF8 JUMPI PUSH1 0x1 PUSH1 0xC0 PUSH1 0xFF AND DUP3 PUSH2 0xDE7 SWAP2 SWAP1 PUSH2 0x1B94 JUMP JUMPDEST PUSH2 0xDF1 SWAP2 SWAP1 PUSH2 0x1B61 JUMP JUMPDEST SWAP2 POP PUSH2 0xE18 JUMP JUMPDEST PUSH1 0xF7 DUP2 SUB PUSH1 0x1 DUP6 ADD SWAP5 POP DUP1 PUSH1 0x20 SUB PUSH2 0x100 EXP DUP6 MLOAD DIV PUSH1 0x1 DUP3 ADD DUP2 ADD SWAP4 POP POP POP JUMPDEST JUMPDEST JUMPDEST JUMPDEST DUP2 SWAP3 POP POP POP SWAP2 SWAP1 POP JUMP JUMPDEST PUSH0 DUP1 PUSH0 PUSH2 0xE35 DUP5 PUSH1 0x20 ADD MLOAD PUSH2 0xC90 JUMP JUMPDEST SWAP1 POP PUSH0 DUP2 DUP6 PUSH1 0x20 ADD MLOAD PUSH2 0xE48 SWAP2 SWAP1 PUSH2 0x1B61 JUMP JUMPDEST SWAP1 POP PUSH0 DUP3 DUP7 PUSH0 ADD MLOAD PUSH2 0xE5A SWAP2 SWAP1 PUSH2 0x1B94 JUMP JUMPDEST SWAP1 POP DUP2 DUP2 SWAP5 POP SWAP5 POP POP POP POP SWAP2 POP SWAP2 JUMP JUMPDEST PUSH0 DUP2 SUB ISZERO PUSH2 0xF04 JUMPI JUMPDEST PUSH1 0x20 PUSH1 0xFF AND DUP2 LT PUSH2 0xEBD JUMPI DUP3 MLOAD DUP3 MSTORE PUSH1 0x20 PUSH1 0xFF AND DUP4 PUSH2 0xE92 SWAP2 SWAP1 PUSH2 0x1B61 JUMP JUMPDEST SWAP3 POP PUSH1 0x20 PUSH1 0xFF AND DUP3 PUSH2 0xEA4 SWAP2 SWAP1 PUSH2 0x1B61 JUMP JUMPDEST SWAP2 POP PUSH1 0x20 PUSH1 0xFF AND DUP2 PUSH2 0xEB6 SWAP2 SWAP1 PUSH2 0x1B94 JUMP JUMPDEST SWAP1 POP PUSH2 0xE73 JUMP JUMPDEST PUSH0 DUP2 GT ISZERO PUSH2 0xF03 JUMPI PUSH0 PUSH1 0x1 DUP3 PUSH1 0x20 PUSH1 0xFF AND PUSH2 0xED8 SWAP2 SWAP1 PUSH2 0x1B94 JUMP JUMPDEST PUSH2 0x100 PUSH2 0xEE5 SWAP2 SWAP1 PUSH2 0x1DFF JUMP JUMPDEST PUSH2 0xEEF SWAP2 SWAP1 PUSH2 0x1B94 JUMP JUMPDEST SWAP1 POP DUP1 NOT DUP5 MLOAD AND DUP2 DUP5 MLOAD AND DUP2 DUP2 OR DUP6 MSTORE POP POP POP JUMPDEST JUMPDEST POP POP POP JUMP JUMPDEST PUSH0 PUSH1 0x20 DUP3 ADD SWAP1 POP SWAP2 SWAP1 POP JUMP JUMPDEST PUSH1 0x60 DUP2 PUSH8 0xFFFFFFFFFFFFFFFF DUP2 GT ISZERO PUSH2 0xF31 JUMPI PUSH2 0xF30 PUSH2 0x11EB JUMP JUMPDEST JUMPDEST PUSH1 0x40 MLOAD SWAP1 DUP1 DUP3 MSTORE DUP1 PUSH1 0x1F ADD PUSH1 0x1F NOT AND PUSH1 0x20 ADD DUP3 ADD PUSH1 0x40 MSTORE DUP1 ISZERO PUSH2 0xF63 JUMPI DUP2 PUSH1 0x20 ADD PUSH1 0x1 DUP3 MUL DUP1 CALLDATASIZE DUP4 CALLDATACOPY DUP1 DUP3 ADD SWAP2 POP POP SWAP1 POP JUMPDEST POP SWAP1 POP PUSH0 PUSH1 0x20 DUP3 ADD SWAP1 POP PUSH2 0xF78 DUP5 DUP3 DUP6 PUSH2 0xF7F JUMP JUMPDEST POP SWAP3 SWAP2 POP POP JUMP JUMPDEST JUMPDEST PUSH1 0x20 DUP2 LT PUSH2 0xFBE JUMPI DUP3 MLOAD DUP3 MSTORE PUSH1 0x20 DUP3 PUSH2 0xF99 SWAP2 SWAP1 PUSH2 0x1B61 JUMP JUMPDEST SWAP2 POP PUSH1 0x20 DUP4 PUSH2 0xFA8 SWAP2 SWAP1 PUSH2 0x1B61 JUMP JUMPDEST SWAP3 POP PUSH1 0x20 DUP2 PUSH2 0xFB7 SWAP2 SWAP1 PUSH2 0x1B94 JUMP JUMPDEST SWAP1 POP PUSH2 0xF80 JUMP JUMPDEST PUSH0 DUP1 DUP3 EQ PUSH2 0xFF1 JUMPI PUSH1 0x1 DUP3 PUSH1 0x20 PUSH2 0xFD5 SWAP2 SWAP1 PUSH2 0x1B94 JUMP JUMPDEST PUSH2 0x100 PUSH2 0xFE2 SWAP2 SWAP1 PUSH2 0x1DFF JUMP JUMPDEST PUSH2 0xFEC SWAP2 SWAP1 PUSH2 0x1B94 JUMP JUMPDEST PUSH2 0x1013 JUMP JUMPDEST PUSH32 0xFFFFFFFFFFFFFFFFFFFFFFFFFFFFFFFFFFFFFFFFFFFFFFFFFFFFFFFFFFFFFFFF JUMPDEST SWAP1 POP DUP1 NOT DUP5 MLOAD AND DUP2 DUP5 MLOAD AND DUP2 DUP2 OR DUP6 MSTORE POP POP POP POP POP POP JUMP JUMPDEST PUSH1 0x40 MLOAD DUP1 PUSH2 0x140 ADD PUSH1 0x40 MSTORE DUP1 PUSH0 ISZERO ISZERO DUP2 MSTORE PUSH1 0x20 ADD PUSH0 ISZERO ISZERO DUP2 MSTORE PUSH1 0x20 ADD PUSH0 ISZERO ISZERO DUP2 MSTORE PUSH1 0x20 ADD PUSH0 ISZERO ISZERO DUP2 MSTORE PUSH1 0x20 ADD PUSH0 ISZERO ISZERO DUP2 MSTORE PUSH1 0x20 ADD PUSH0 ISZERO ISZERO DUP2 MSTORE PUSH1 0x20 ADD PUSH0 ISZERO ISZERO DUP2 MSTORE PUSH1 0x20 ADD PUSH0 ISZERO ISZERO DUP2 MSTORE PUSH1 0x20 ADD PUSH0 DUP2 MSTORE PUSH1 0x20 ADD PUSH2 0x1085 PUSH2 0x1143 JUMP JUMPDEST DUP2 MSTORE POP SWAP1 JUMP JUMPDEST PUSH1 0x40 MLOAD DUP1 PUSH1 0x40 ADD PUSH1 0x40 MSTORE DUP1 PUSH2 0x109E PUSH2 0x115C JUMP JUMPDEST DUP2 MSTORE PUSH1 0x20 ADD PUSH2 0x10AB PUSH2 0x1175 JUMP JUMPDEST DUP2 MSTORE POP SWAP1 JUMP JUMPDEST PUSH1 0x40 MLOAD DUP1 PUSH1 0x40 ADD PUSH1 0x40 MSTORE DUP1 PUSH2 0x10C4 PUSH2 0x115C JUMP JUMPDEST DUP2 MSTORE PUSH1 0x20 ADD PUSH2 0x10D1 PUSH2 0x1175 JUMP JUMPDEST DUP2 MSTORE POP SWAP1 JUMP JUMPDEST PUSH1 0x40 MLOAD DUP1 PUSH1 0x40 ADD PUSH1 0x40 MSTORE DUP1 PUSH2 0x10EA PUSH2 0x11A1 JUMP JUMPDEST DUP2 MSTORE PUSH1 0x20 ADD PUSH2 0x10F7 PUSH2 0x10FD JUMP JUMPDEST DUP2 MSTORE POP SWAP1 JUMP JUMPDEST PUSH1 0x40 MLOAD DUP1 PUSH2 0x200 ADD PUSH1 0x40 MSTORE DUP1 PUSH1 0x10 SWAP1 JUMPDEST PUSH2 0x1115 PUSH2 0x11A1 JUMP JUMPDEST DUP2 MSTORE PUSH1 0x20 ADD SWAP1 PUSH1 0x1 SWAP1 SUB SWAP1 DUP2 PUSH2 0x110D JUMPI SWAP1 POP POP SWAP1 JUMP JUMPDEST PUSH1 0x40 MLOAD DUP1 PUSH1 0x40 ADD PUSH1 0x40 MSTORE DUP1 PUSH0 DUP2 MSTORE PUSH1 0x20 ADD PUSH0 DUP2 MSTORE POP SWAP1 JUMP JUMPDEST PUSH1 0x40 MLOAD DUP1 PUSH1 0x40 ADD PUSH1 0x40 MSTORE DUP1 PUSH1 0x60 DUP2 MSTORE PUSH1 0x20 ADD PUSH0 DUP2 MSTORE POP SWAP1 JUMP JUMPDEST PUSH1 0x40 MLOAD DUP1 PUSH1 0x40 ADD PUSH1 0x40 MSTORE DUP1 PUSH1 0x60 DUP2 MSTORE PUSH1 0x20 ADD PUSH0 DUP2 MSTORE POP SWAP1 JUMP JUMPDEST PUSH1 0x40 MLOAD DUP1 PUSH1 0x80 ADD PUSH1 0x40 MSTORE DUP1 PUSH0 ISZERO ISZERO DUP2 MSTORE PUSH1 0x20 ADD PUSH0 DUP1 NOT AND DUP2 MSTORE PUSH1 0x20 ADD PUSH0 ISZERO ISZERO DUP2 MSTORE PUSH1 0x20 ADD PUSH1 0x60 DUP2 MSTORE POP SWAP1 JUMP JUMPDEST PUSH1 0x40 MLOAD DUP1 PUSH1 0x40 ADD PUSH1 0x40 MSTORE DUP1 PUSH0 ISZERO ISZERO DUP2 MSTORE PUSH1 0x20 ADD PUSH2 0x11BC PUSH2 0x1175 JUMP JUMPDEST DUP2 MSTORE POP SWAP1 JUMP JUMPDEST PUSH0 PUSH1 0x40 MLOAD SWAP1 POP SWAP1 JUMP JUMPDEST PUSH0 DUP1 REVERT JUMPDEST PUSH0 DUP1 REVERT JUMPDEST PUSH0 DUP1 REVERT JUMPDEST PUSH0 DUP1 REVERT JUMPDEST PUSH0 PUSH1 0x1F NOT PUSH1 0x1F DUP4 ADD AND SWAP1 POP SWAP2 SWAP1 POP JUMP JUMPDEST PUSH32 0x4E487B7100000000000000000000000000000000000000000000000000000000 PUSH0 MSTORE PUSH1 0x41 PUSH1 0x4 MSTORE PUSH1 0x24 PUSH0 REVERT JUMPDEST PUSH2 0x1221 DUP3 PUSH2 0x11DB JUMP JUMPDEST DUP2 ADD DUP2 DUP2 LT PUSH8 0xFFFFFFFFFFFFFFFF DUP3 GT OR ISZERO PUSH2 0x1240 JUMPI PUSH2 0x123F PUSH2 0x11EB JUMP JUMPDEST JUMPDEST DUP1 PUSH1 0x40 MSTORE POP POP POP JUMP JUMPDEST PUSH0 PUSH2 0x1252 PUSH2 0x11C2 JUMP JUMPDEST SWAP1 POP PUSH2 0x125E DUP3 DUP3 PUSH2 0x1218 JUMP JUMPDEST SWAP2 SWAP1 POP JUMP JUMPDEST PUSH0 PUSH8 0xFFFFFFFFFFFFFFFF DUP3 GT ISZERO PUSH2 0x127D JUMPI PUSH2 0x127C PUSH2 0x11EB JUMP JUMPDEST JUMPDEST PUSH2 0x1286 DUP3 PUSH2 0x11DB JUMP JUMPDEST SWAP1 POP PUSH1 0x20 DUP2 ADD SWAP1 POP SWAP2 SWAP1 POP JUMP JUMPDEST DUP3 DUP2 DUP4 CALLDATACOPY PUSH0 DUP4 DUP4 ADD MSTORE POP POP POP JUMP JUMPDEST PUSH0 PUSH2 0x12B3 PUSH2 0x12AE DUP5 PUSH2 0x1263 JUMP JUMPDEST PUSH2 0x1249 JUMP JUMPDEST SWAP1 POP DUP3 DUP2 MSTORE PUSH1 0x20 DUP2 ADD DUP5 DUP5 DUP5 ADD GT ISZERO PUSH2 0x12CF JUMPI PUSH2 0x12CE PUSH2 0x11D7 JUMP JUMPDEST JUMPDEST PUSH2 0x12DA DUP5 DUP3 DUP6 PUSH2 0x1293 JUMP JUMPDEST POP SWAP4 SWAP3 POP POP POP JUMP JUMPDEST PUSH0 DUP3 PUSH1 0x1F DUP4 ADD SLT PUSH2 0x12F6 JUMPI PUSH2 0x12F5 PUSH2 0x11D3 JUMP JUMPDEST JUMPDEST DUP2 CALLDATALOAD PUSH2 0x1306 DUP5 DUP3 PUSH1 0x20 DUP7 ADD PUSH2 0x12A1 JUMP JUMPDEST SWAP2 POP POP SWAP3 SWAP2 POP POP JUMP JUMPDEST PUSH0 PUSH1 0x20 DUP3 DUP5 SUB SLT ISZERO PUSH2 0x1324 JUMPI PUSH2 0x1323 PUSH2 0x11CB JUMP JUMPDEST JUMPDEST PUSH0 DUP3 ADD CALLDATALOAD PUSH8 0xFFFFFFFFFFFFFFFF DUP2 GT ISZERO PUSH2 0x1341 JUMPI PUSH2 0x1340 PUSH2 0x11CF JUMP JUMPDEST JUMPDEST PUSH2 0x134D DUP5 DUP3 DUP6 ADD PUSH2 0x12E2 JUMP JUMPDEST SWAP2 POP POP SWAP3 SWAP2 POP POP JUMP JUMPDEST PUSH0 DUP2 ISZERO ISZERO SWAP1 POP SWAP2 SWAP1 POP JUMP JUMPDEST PUSH2 0x136A DUP2 PUSH2 0x1356 JUMP JUMPDEST DUP3 MSTORE POP POP JUMP JUMPDEST PUSH0 DUP2 SWAP1 POP SWAP2 SWAP1 POP JUMP JUMPDEST PUSH2 0x1382 DUP2 PUSH2 0x1370 JUMP JUMPDEST DUP3 MSTORE POP POP JUMP JUMPDEST PUSH0 DUP2 MLOAD SWAP1 POP SWAP2 SWAP1 POP JUMP JUMPDEST PUSH0 DUP3 DUP3 MSTORE PUSH1 0x20 DUP3 ADD SWAP1 POP SWAP3 SWAP2 POP POP JUMP JUMPDEST DUP3 DUP2 DUP4 MCOPY PUSH0 DUP4 DUP4 ADD MSTORE POP POP POP JUMP JUMPDEST PUSH0 PUSH2 0x13BA DUP3 PUSH2 0x1388 JUMP JUMPDEST PUSH2 0x13C4 DUP2 DUP6 PUSH2 0x1392 JUMP JUMPDEST SWAP4 POP PUSH2 0x13D4 DUP2 DUP6 PUSH1 0x20 DUP7 ADD PUSH2 0x13A2 JUMP JUMPDEST PUSH2 0x13DD DUP2 PUSH2 0x11DB JUMP JUMPDEST DUP5 ADD SWAP2 POP POP SWAP3 SWAP2 POP POP JUMP JUMPDEST PUSH0 PUSH1 0x40 DUP4 ADD PUSH0 DUP4 ADD MLOAD DUP5 DUP3 SUB PUSH0 DUP7 ADD MSTORE PUSH2 0x1402 DUP3 DUP3 PUSH2 0x13B0 JUMP JUMPDEST SWAP2 POP POP PUSH1 0x20 DUP4 ADD MLOAD PUSH2 0x1417 PUSH1 0x20 DUP7 ADD DUP3 PUSH2 0x1379 JUMP JUMPDEST POP DUP1 SWAP2 POP POP SWAP3 SWAP2 POP POP JUMP JUMPDEST PUSH0 PUSH2 0x140 DUP4 ADD PUSH0 DUP4 ADD MLOAD PUSH2 0x1438 PUSH0 DUP7 ADD DUP3 PUSH2 0x1361 JUMP JUMPDEST POP PUSH1 0x20 DUP4 ADD MLOAD PUSH2 0x144B PUSH1 0x20 DUP7 ADD DUP3 PUSH2 0x1361 JUMP JUMPDEST POP PUSH1 0x40 DUP4 ADD MLOAD PUSH2 0x145E PUSH1 0x40 DUP7 ADD DUP3 PUSH2 0x1361 JUMP JUMPDEST POP PUSH1 0x60 DUP4 ADD MLOAD PUSH2 0x1471 PUSH1 0x60 DUP7 ADD DUP3 PUSH2 0x1361 JUMP JUMPDEST POP PUSH1 0x80 DUP4 ADD MLOAD PUSH2 0x1484 PUSH1 0x80 DUP7 ADD DUP3 PUSH2 0x1361 JUMP JUMPDEST POP PUSH1 0xA0 DUP4 ADD MLOAD PUSH2 0x1497 PUSH1 0xA0 DUP7 ADD DUP3 PUSH2 0x1361 JUMP JUMPDEST POP PUSH1 0xC0 DUP4 ADD MLOAD PUSH2 0x14AA PUSH1 0xC0 DUP7 ADD DUP3 PUSH2 0x1361 JUMP JUMPDEST POP PUSH1 0xE0 DUP4 ADD MLOAD PUSH2 0x14BD PUSH1 0xE0 DUP7 ADD DUP3 PUSH2 0x1361 JUMP JUMPDEST POP PUSH2 0x100 DUP4 ADD MLOAD PUSH2 0x14D2 PUSH2 0x100 DUP7 ADD DUP3 PUSH2 0x1379 JUMP JUMPDEST POP PUSH2 0x120 DUP4 ADD MLOAD DUP5 DUP3 SUB PUSH2 0x120 DUP7 ADD MSTORE PUSH2 0x14EC DUP3 DUP3 PUSH2 0x13E8 JUMP JUMPDEST SWAP2 POP POP DUP1 SWAP2 POP POP SWAP3 SWAP2 POP POP JUMP JUMPDEST PUSH0 PUSH1 0x20 DUP3 ADD SWAP1 POP DUP2 DUP2 SUB PUSH0 DUP4 ADD MSTORE PUSH2 0x1511 DUP2 DUP5 PUSH2 0x1422 JUMP JUMPDEST SWAP1 POP SWAP3 SWAP2 POP POP JUMP JUMPDEST PUSH0 DUP1 REVERT JUMPDEST PUSH0 DUP1 REVERT JUMPDEST PUSH2 0x152A DUP2 PUSH2 0x1356 JUMP JUMPDEST DUP2 EQ PUSH2 0x1534 JUMPI PUSH0 DUP1 REVERT JUMPDEST POP JUMP JUMPDEST PUSH0 DUP2 CALLDATALOAD SWAP1 POP PUSH2 0x1545 DUP2 PUSH2 0x1521 JUMP JUMPDEST SWAP3 SWAP2 POP POP JUMP JUMPDEST PUSH2 0x1554 DUP2 PUSH2 0x1370 JUMP JUMPDEST DUP2 EQ PUSH2 0x155E JUMPI PUSH0 DUP1 REVERT JUMPDEST POP JUMP JUMPDEST PUSH0 DUP2 CALLDATALOAD SWAP1 POP PUSH2 0x156F DUP2 PUSH2 0x154B JUMP JUMPDEST SWAP3 SWAP2 POP POP JUMP JUMPDEST PUSH0 PUSH1 0x40 DUP3 DUP5 SUB SLT ISZERO PUSH2 0x158A JUMPI PUSH2 0x1589 PUSH2 0x1519 JUMP JUMPDEST JUMPDEST PUSH2 0x1594 PUSH1 0x40 PUSH2 0x1249 JUMP JUMPDEST SWAP1 POP PUSH0 DUP3 ADD CALLDATALOAD PUSH8 0xFFFFFFFFFFFFFFFF DUP2 GT ISZERO PUSH2 0x15B3 JUMPI PUSH2 0x15B2 PUSH2 0x151D JUMP JUMPDEST JUMPDEST PUSH2 0x15BF DUP5 DUP3 DUP6 ADD PUSH2 0x12E2 JUMP JUMPDEST PUSH0 DUP4 ADD MSTORE POP PUSH1 0x20 PUSH2 0x15D2 DUP5 DUP3 DUP6 ADD PUSH2 0x1561 JUMP JUMPDEST PUSH1 0x20 DUP4 ADD MSTORE POP SWAP3 SWAP2 POP POP JUMP JUMPDEST PUSH0 PUSH2 0x140 DUP3 DUP5 SUB SLT ISZERO PUSH2 0x15F4 JUMPI PUSH2 0x15F3 PUSH2 0x1519 JUMP JUMPDEST JUMPDEST PUSH2 0x15FF PUSH2 0x140 PUSH2 0x1249 JUMP JUMPDEST SWAP1 POP PUSH0 PUSH2 0x160E DUP5 DUP3 DUP6 ADD PUSH2 0x1537 JUMP JUMPDEST PUSH0 DUP4 ADD MSTORE POP PUSH1 0x20 PUSH2 0x1621 DUP5 DUP3 DUP6 ADD PUSH2 0x1537 JUMP JUMPDEST PUSH1 0x20 DUP4 ADD MSTORE POP PUSH1 0x40 PUSH2 0x1635 DUP5 DUP3 DUP6 ADD PUSH2 0x1537 JUMP JUMPDEST PUSH1 0x40 DUP4 ADD MSTORE POP PUSH1 0x60 PUSH2 0x1649 DUP5 DUP3 DUP6 ADD PUSH2 0x1537 JUMP JUMPDEST PUSH1 0x60 DUP4 ADD MSTORE POP PUSH1 0x80 PUSH2 0x165D DUP5 DUP3 DUP6 ADD PUSH2 0x1537 JUMP JUMPDEST PUSH1 0x80 DUP4 ADD MSTORE POP PUSH1 0xA0 PUSH2 0x1671 DUP5 DUP3 DUP6 ADD PUSH2 0x1537 JUMP JUMPDEST PUSH1 0xA0 DUP4 ADD MSTORE POP PUSH1 0xC0 PUSH2 0x1685 DUP5 DUP3 DUP6 ADD PUSH2 0x1537 JUMP JUMPDEST PUSH1 0xC0 DUP4 ADD MSTORE POP PUSH1 0xE0 PUSH2 0x1699 DUP5 DUP3 DUP6 ADD PUSH2 0x1537 JUMP JUMPDEST PUSH1 0xE0 DUP4 ADD MSTORE POP PUSH2 0x100 PUSH2 0x16AE DUP5 DUP3 DUP6 ADD PUSH2 0x1561 JUMP JUMPDEST PUSH2 0x100 DUP4 ADD MSTORE POP PUSH2 0x120 DUP3 ADD CALLDATALOAD PUSH8 0xFFFFFFFFFFFFFFFF DUP2 GT ISZERO PUSH2 0x16D4 JUMPI PUSH2 0x16D3 PUSH2 0x151D JUMP JUMPDEST JUMPDEST PUSH2 0x16E0 DUP5 DUP3 DUP6 ADD PUSH2 0x1575 JUMP JUMPDEST PUSH2 0x120 DUP4 ADD MSTORE POP SWAP3 SWAP2 POP POP JUMP JUMPDEST PUSH0 PUSH1 0x20 DUP3 DUP5 SUB SLT ISZERO PUSH2 0x1702 JUMPI PUSH2 0x1701 PUSH2 0x11CB JUMP JUMPDEST JUMPDEST PUSH0 DUP3 ADD CALLDATALOAD PUSH8 0xFFFFFFFFFFFFFFFF DUP2 GT ISZERO PUSH2 0x171F JUMPI PUSH2 0x171E PUSH2 0x11CF JUMP JUMPDEST JUMPDEST PUSH2 0x172B DUP5 DUP3 DUP6 ADD PUSH2 0x15DE JUMP JUMPDEST SWAP2 POP POP SWAP3 SWAP2 POP POP JUMP JUMPDEST PUSH0 PUSH1 0x40 DUP4 ADD PUSH0 DUP4 ADD MLOAD DUP5 DUP3 SUB PUSH0 DUP7 ADD MSTORE PUSH2 0x174E DUP3 DUP3 PUSH2 0x13B0 JUMP JUMPDEST SWAP2 POP POP PUSH1 0x20 DUP4 ADD MLOAD PUSH2 0x1763 PUSH1 0x20 DUP7 ADD DUP3 PUSH2 0x1379 JUMP JUMPDEST POP DUP1 SWAP2 POP POP SWAP3 SWAP2 POP POP JUMP JUMPDEST PUSH0 DUP2 SWAP1 POP SWAP2 SWAP1 POP JUMP JUMPDEST PUSH2 0x1780 DUP2 PUSH2 0x176E JUMP JUMPDEST DUP3 MSTORE POP POP JUMP JUMPDEST PUSH0 PUSH1 0x80 DUP4 ADD PUSH0 DUP4 ADD MLOAD PUSH2 0x179B PUSH0 DUP7 ADD DUP3 PUSH2 0x1361 JUMP JUMPDEST POP PUSH1 0x20 DUP4 ADD MLOAD PUSH2 0x17AE PUSH1 0x20 DUP7 ADD DUP3 PUSH2 0x1777 JUMP JUMPDEST POP PUSH1 0x40 DUP4 ADD MLOAD PUSH2 0x17C1 PUSH1 0x40 DUP7 ADD DUP3 PUSH2 0x1361 JUMP JUMPDEST POP PUSH1 0x60 DUP4 ADD MLOAD DUP5 DUP3 SUB PUSH1 0x60 DUP7 ADD MSTORE PUSH2 0x17D9 DUP3 DUP3 PUSH2 0x13B0 JUMP JUMPDEST SWAP2 POP POP DUP1 SWAP2 POP POP SWAP3 SWAP2 POP POP JUMP JUMPDEST PUSH0 PUSH1 0x40 DUP4 ADD PUSH0 DUP4 ADD MLOAD DUP5 DUP3 SUB PUSH0 DUP7 ADD MSTORE PUSH2 0x1800 DUP3 DUP3 PUSH2 0x1734 JUMP JUMPDEST SWAP2 POP POP PUSH1 0x20 DUP4 ADD MLOAD DUP5 DUP3 SUB PUSH1 0x20 DUP7 ADD MSTORE PUSH2 0x181A DUP3 DUP3 PUSH2 0x1786 JUMP JUMPDEST SWAP2 POP POP DUP1 SWAP2 POP POP SWAP3 SWAP2 POP POP JUMP JUMPDEST PUSH0 PUSH1 0x20 DUP3 ADD SWAP1 POP DUP2 DUP2 SUB PUSH0 DUP4 ADD MSTORE PUSH2 0x183F DUP2 DUP5 PUSH2 0x17E6 JUMP JUMPDEST SWAP1 POP SWAP3 SWAP2 POP POP JUMP JUMPDEST PUSH0 PUSH1 0x40 DUP4 ADD PUSH0 DUP4 ADD MLOAD DUP5 DUP3 SUB PUSH0 DUP7 ADD MSTORE PUSH2 0x1861 DUP3 DUP3 PUSH2 0x1734 JUMP JUMPDEST SWAP2 POP POP PUSH1 0x20 DUP4 ADD MLOAD DUP5 DUP3 SUB PUSH1 0x20 DUP7 ADD MSTORE PUSH2 0x187B DUP3 DUP3 PUSH2 0x1786 JUMP JUMPDEST SWAP2 POP POP DUP1 SWAP2 POP POP SWAP3 SWAP2 POP POP JUMP JUMPDEST PUSH0 PUSH1 0x20 DUP3 ADD SWAP1 POP DUP2 DUP2 SUB PUSH0 DUP4 ADD MSTORE PUSH2 0x18A0 DUP2 DUP5 PUSH2 0x1847 JUMP JUMPDEST SWAP1 POP SWAP3 SWAP2 POP POP JUMP JUMPDEST PUSH0 PUSH1 0x40 DUP4 ADD PUSH0 DUP4 ADD MLOAD PUSH2 0x18BD PUSH0 DUP7 ADD DUP3 PUSH2 0x1361 JUMP JUMPDEST POP PUSH1 0x20 DUP4 ADD MLOAD DUP5 DUP3 SUB PUSH1 0x20 DUP7 ADD MSTORE PUSH2 0x18D5 DUP3 DUP3 PUSH2 0x1786 JUMP JUMPDEST SWAP2 POP POP DUP1 SWAP2 POP POP SWAP3 SWAP2 POP POP JUMP JUMPDEST PUSH0 PUSH1 0x10 SWAP1 POP SWAP2 SWAP1 POP JUMP JUMPDEST PUSH0 DUP2 SWAP1 POP SWAP3 SWAP2 POP POP JUMP JUMPDEST PUSH0 DUP2 SWAP1 POP SWAP2 SWAP1 POP JUMP JUMPDEST PUSH0 PUSH2 0x190A DUP4 DUP4 PUSH2 0x18A8 JUMP JUMPDEST SWAP1 POP SWAP3 SWAP2 POP POP JUMP JUMPDEST PUSH0 PUSH1 0x20 DUP3 ADD SWAP1 POP SWAP2 SWAP1 POP JUMP JUMPDEST PUSH0 PUSH2 0x1928 DUP3 PUSH2 0x18E2 JUMP JUMPDEST PUSH2 0x1932 DUP2 DUP6 PUSH2 0x18EC JUMP JUMPDEST SWAP4 POP DUP4 PUSH1 0x20 DUP3 MUL DUP6 ADD PUSH2 0x1944 DUP6 PUSH2 0x18F6 JUMP JUMPDEST DUP1 PUSH0 JUMPDEST DUP6 DUP2 LT ISZERO PUSH2 0x197F JUMPI DUP5 DUP5 SUB DUP10 MSTORE DUP2 MLOAD PUSH2 0x1960 DUP6 DUP3 PUSH2 0x18FF JUMP JUMPDEST SWAP5 POP PUSH2 0x196B DUP4 PUSH2 0x1912 JUMP JUMPDEST SWAP3 POP PUSH1 0x20 DUP11 ADD SWAP10 POP POP PUSH1 0x1 DUP2 ADD SWAP1 POP PUSH2 0x1947 JUMP JUMPDEST POP DUP3 SWAP8 POP DUP8 SWAP6 POP POP POP POP POP POP SWAP3 SWAP2 POP POP JUMP JUMPDEST PUSH0 PUSH1 0x40 DUP4 ADD PUSH0 DUP4 ADD MLOAD DUP5 DUP3 SUB PUSH0 DUP7 ADD MSTORE PUSH2 0x19AB DUP3 DUP3 PUSH2 0x18A8 JUMP JUMPDEST SWAP2 POP POP PUSH1 0x20 DUP4 ADD MLOAD DUP5 DUP3 SUB PUSH1 0x20 DUP7 ADD MSTORE PUSH2 0x19C5 DUP3 DUP3 PUSH2 0x191E JUMP JUMPDEST SWAP2 POP POP DUP1 SWAP2 POP POP SWAP3 SWAP2 POP POP JUMP JUMPDEST PUSH0 PUSH1 0x20 DUP3 ADD SWAP1 POP DUP2 DUP2 SUB PUSH0 DUP4 ADD MSTORE PUSH2 0x19EA DUP2 DUP5 PUSH2 0x1991 JUMP JUMPDEST SWAP1 POP SWAP3 SWAP2 POP POP JUMP JUMPDEST PUSH32 0x4E487B7100000000000000000000000000000000000000000000000000000000 PUSH0 MSTORE PUSH1 0x32 PUSH1 0x4 MSTORE PUSH1 0x24 PUSH0 REVERT JUMPDEST PUSH0 DUP3 DUP3 MSTORE PUSH1 0x20 DUP3 ADD SWAP1 POP SWAP3 SWAP2 POP POP JUMP JUMPDEST PUSH32 0x496E76616C696420646174610000000000000000000000000000000000000000 PUSH0 DUP3 ADD MSTORE POP JUMP JUMPDEST PUSH0 PUSH2 0x1A63 PUSH1 0xC DUP4 PUSH2 0x1A1F JUMP JUMPDEST SWAP2 POP PUSH2 0x1A6E DUP3 PUSH2 0x1A2F JUMP JUMPDEST PUSH1 0x20 DUP3 ADD SWAP1 POP SWAP2 SWAP1 POP JUMP JUMPDEST PUSH0 PUSH1 0x20 DUP3 ADD SWAP1 POP DUP2 DUP2 SUB PUSH0 DUP4 ADD MSTORE PUSH2 0x1A90 DUP2 PUSH2 0x1A57 JUMP JUMPDEST SWAP1 POP SWAP2 SWAP1 POP JUMP JUMPDEST PUSH0 PUSH1 0xFF DUP3 AND SWAP1 POP SWAP2 SWAP1 POP JUMP JUMPDEST PUSH32 0x4E487B7100000000000000000000000000000000000000000000000000000000 PUSH0 MSTORE PUSH1 0x11 PUSH1 0x4 MSTORE PUSH1 0x24 PUSH0 REVERT JUMPDEST PUSH0 PUSH2 0x1ADA DUP3 PUSH2 0x1A97 JUMP JUMPDEST SWAP2 POP PUSH2 0x1AE5 DUP4 PUSH2 0x1A97 JUMP JUMPDEST SWAP3 POP DUP3 DUP3 ADD SWAP1 POP PUSH1 0xFF DUP2 GT ISZERO PUSH2 0x1AFE JUMPI PUSH2 0x1AFD PUSH2 0x1AA3 JUMP JUMPDEST JUMPDEST SWAP3 SWAP2 POP POP JUMP JUMPDEST PUSH32 0x4E487B7100000000000000000000000000000000000000000000000000000000 PUSH0 MSTORE PUSH1 0x12 PUSH1 0x4 MSTORE PUSH1 0x24 PUSH0 REVERT JUMPDEST PUSH0 PUSH2 0x1B3B DUP3 PUSH2 0x1A97 JUMP JUMPDEST SWAP2 POP PUSH2 0x1B46 DUP4 PUSH2 0x1A97 JUMP JUMPDEST SWAP3 POP DUP3 PUSH2 0x1B56 JUMPI PUSH2 0x1B55 PUSH2 0x1B04 JUMP JUMPDEST JUMPDEST DUP3 DUP3 MOD SWAP1 POP SWAP3 SWAP2 POP POP JUMP JUMPDEST PUSH0 PUSH2 0x1B6B DUP3 PUSH2 0x1370 JUMP JUMPDEST SWAP2 POP PUSH2 0x1B76 DUP4 PUSH2 0x1370 JUMP JUMPDEST SWAP3 POP DUP3 DUP3 ADD SWAP1 POP DUP1 DUP3 GT ISZERO PUSH2 0x1B8E JUMPI PUSH2 0x1B8D PUSH2 0x1AA3 JUMP JUMPDEST JUMPDEST SWAP3 SWAP2 POP POP JUMP JUMPDEST PUSH0 PUSH2 0x1B9E DUP3 PUSH2 0x1370 JUMP JUMPDEST SWAP2 POP PUSH2 0x1BA9 DUP4 PUSH2 0x1370 JUMP JUMPDEST SWAP3 POP DUP3 DUP3 SUB SWAP1 POP DUP2 DUP2 GT ISZERO PUSH2 0x1BC1 JUMPI PUSH2 0x1BC0 PUSH2 0x1AA3 JUMP JUMPDEST JUMPDEST SWAP3 SWAP2 POP POP JUMP JUMPDEST PUSH32 0x42797465733A3A20746F427974657333323A206461746120697320746F207368 PUSH0 DUP3 ADD MSTORE PUSH32 0x6F72742E00000000000000000000000000000000000000000000000000000000 PUSH1 0x20 DUP3 ADD MSTORE POP JUMP JUMPDEST PUSH0 PUSH2 0x1C21 PUSH1 0x24 DUP4 PUSH2 0x1A1F JUMP JUMPDEST SWAP2 POP PUSH2 0x1C2C DUP3 PUSH2 0x1BC7 JUMP JUMPDEST PUSH1 0x40 DUP3 ADD SWAP1 POP SWAP2 SWAP1 POP JUMP JUMPDEST PUSH0 PUSH1 0x20 DUP3 ADD SWAP1 POP DUP2 DUP2 SUB PUSH0 DUP4 ADD MSTORE PUSH2 0x1C4E DUP2 PUSH2 0x1C15 JUMP JUMPDEST SWAP1 POP SWAP2 SWAP1 POP JUMP JUMPDEST PUSH0 PUSH2 0x1C5F DUP3 PUSH2 0x1370 JUMP JUMPDEST SWAP2 POP PUSH32 0xFFFFFFFFFFFFFFFFFFFFFFFFFFFFFFFFFFFFFFFFFFFFFFFFFFFFFFFFFFFFFFFF DUP3 SUB PUSH2 0x1C91 JUMPI PUSH2 0x1C90 PUSH2 0x1AA3 JUMP JUMPDEST JUMPDEST PUSH1 0x1 DUP3 ADD SWAP1 POP SWAP2 SWAP1 POP JUMP JUMPDEST PUSH0 PUSH2 0x1CA6 DUP3 PUSH2 0x1A97 JUMP JUMPDEST SWAP2 POP PUSH2 0x1CB1 DUP4 PUSH2 0x1A97 JUMP JUMPDEST SWAP3 POP DUP3 DUP3 SUB SWAP1 POP PUSH1 0xFF DUP2 GT ISZERO PUSH2 0x1CCA JUMPI PUSH2 0x1CC9 PUSH2 0x1AA3 JUMP JUMPDEST JUMPDEST SWAP3 SWAP2 POP POP JUMP JUMPDEST PUSH0 DUP2 PUSH1 0x1 SHR SWAP1 POP SWAP2 SWAP1 POP JUMP JUMPDEST PUSH0 DUP1 DUP3 SWAP2 POP DUP4 SWAP1 POP JUMPDEST PUSH1 0x1 DUP6 GT ISZERO PUSH2 0x1D25 JUMPI DUP1 DUP7 DIV DUP2 GT ISZERO PUSH2 0x1D01 JUMPI PUSH2 0x1D00 PUSH2 0x1AA3 JUMP JUMPDEST JUMPDEST PUSH1 0x1 DUP6 AND ISZERO PUSH2 0x1D10 JUMPI DUP1 DUP3 MUL SWAP2 POP JUMPDEST DUP1 DUP2 MUL SWAP1 POP PUSH2 0x1D1E DUP6 PUSH2 0x1CD0 JUMP JUMPDEST SWAP5 POP PUSH2 0x1CE5 JUMP JUMPDEST SWAP5 POP SWAP5 SWAP3 POP POP POP JUMP JUMPDEST PUSH0 DUP3 PUSH2 0x1D3D JUMPI PUSH1 0x1 SWAP1 POP PUSH2 0x1DF8 JUMP JUMPDEST DUP2 PUSH2 0x1D4A JUMPI PUSH0 SWAP1 POP PUSH2 0x1DF8 JUMP JUMPDEST DUP2 PUSH1 0x1 DUP2 EQ PUSH2 0x1D60 JUMPI PUSH1 0x2 DUP2 EQ PUSH2 0x1D6A JUMPI PUSH2 0x1D99 JUMP JUMPDEST PUSH1 0x1 SWAP2 POP POP PUSH2 0x1DF8 JUMP JUMPDEST PUSH1 0xFF DUP5 GT ISZERO PUSH2 0x1D7C JUMPI PUSH2 0x1D7B PUSH2 0x1AA3 JUMP JUMPDEST JUMPDEST DUP4 PUSH1 0x2 EXP SWAP2 POP DUP5 DUP3 GT ISZERO PUSH2 0x1D93 JUMPI PUSH2 0x1D92 PUSH2 0x1AA3 JUMP JUMPDEST JUMPDEST POP PUSH2 0x1DF8 JUMP JUMPDEST POP PUSH1 0x20 DUP4 LT PUSH2 0x133 DUP4 LT AND PUSH1 0x4E DUP5 LT PUSH1 0xB DUP5 LT AND OR ISZERO PUSH2 0x1DCE JUMPI DUP3 DUP3 EXP SWAP1 POP DUP4 DUP2 GT ISZERO PUSH2 0x1DC9 JUMPI PUSH2 0x1DC8 PUSH2 0x1AA3 JUMP JUMPDEST JUMPDEST PUSH2 0x1DF8 JUMP JUMPDEST PUSH2 0x1DDB DUP5 DUP5 DUP5 PUSH1 0x1 PUSH2 0x1CDC JUMP JUMPDEST SWAP3 POP SWAP1 POP DUP2 DUP5 DIV DUP2 GT ISZERO PUSH2 0x1DF2 JUMPI PUSH2 0x1DF1 PUSH2 0x1AA3 JUMP JUMPDEST JUMPDEST DUP2 DUP2 MUL SWAP1 POP JUMPDEST SWAP4 SWAP3 POP POP POP JUMP JUMPDEST PUSH0 PUSH2 0x1E09 DUP3 PUSH2 0x1370 JUMP JUMPDEST SWAP2 POP PUSH2 0x1E14 DUP4 PUSH2 0x1370 JUMP JUMPDEST SWAP3 POP PUSH2 0x1E41 PUSH32 0xFFFFFFFFFFFFFFFFFFFFFFFFFFFFFFFFFFFFFFFFFFFFFFFFFFFFFFFFFFFFFFFF DUP5 DUP5 PUSH2 0x1D2E JUMP JUMPDEST SWAP1 POP SWAP3 SWAP2 POP POP JUMP INVALID LOG2 PUSH5 0x6970667358 0x22 SLT KECCAK256 DUP4 0xBE DUP14 DIV PUSH23 0x67DFB62AA5A2D63C06AD86B868DFC83208585EBB0F884D 0xFC DUP11 0xCE 0x26 PUSH5 0x736F6C6343 STOP ADDMOD BYTE STOP CALLER "
		},
		"gasEstimates": {
			"creation": {
				"codeDepositCost": "1561400",
				"executionCost": "1658",
				"totalCost": "1563058"
			},
			"external": {
				"decodeBranch(NodeKind)": "infinite",
				"decodeExtension(NodeKind)": "infinite",
				"decodeLeaf(NodeKind)": "infinite",
				"decodeNodeKind(bytes)": "infinite"
			},
			"internal": {
				"isEmpty(bytes memory)": "infinite"
			}
		},
		"methodIdentifiers": {
			"decodeBranch(NodeKind)": "cbef80f1",
			"decodeExtension(NodeKind)": "a948b670",
			"decodeLeaf(NodeKind)": "ba1daf93",
			"decodeNodeKind(bytes)": "91648ac5"
		}
	},
	"abi": [
		{
			"inputs": [
				{
					"components": [
						{
							"internalType": "bool",
							"name": "isEmpty",
							"type": "bool"
						},
						{
							"internalType": "bool",
							"name": "isLeaf",
							"type": "bool"
						},
						{
							"internalType": "bool",
							"name": "isHashedLeaf",
							"type": "bool"
						},
						{
							"internalType": "bool",
							"name": "isNibbledValueBranch",
							"type": "bool"
						},
						{
							"internalType": "bool",
							"name": "isNibbledHashedValueBranch",
							"type": "bool"
						},
						{
							"internalType": "bool",
							"name": "isNibbledBranch",
							"type": "bool"
						},
						{
							"internalType": "bool",
							"name": "isExtension",
							"type": "bool"
						},
						{
							"internalType": "bool",
							"name": "isBranch",
							"type": "bool"
						},
						{
							"internalType": "uint256",
							"name": "nibbleSize",
							"type": "uint256"
						},
						{
							"components": [
								{
									"internalType": "bytes",
									"name": "data",
									"type": "bytes"
								},
								{
									"internalType": "uint256",
									"name": "offset",
									"type": "uint256"
								}
							],
							"internalType": "struct ByteSlice",
							"name": "data",
							"type": "tuple"
						}
					],
					"internalType": "struct NodeKind",
					"name": "node",
					"type": "tuple"
				}
			],
			"name": "decodeBranch",
			"outputs": [
				{
					"components": [
						{
							"components": [
								{
									"internalType": "bool",
									"name": "isSome",
									"type": "bool"
								},
								{
									"components": [
										{
											"internalType": "bool",
											"name": "isHash",
											"type": "bool"
										},
										{
											"internalType": "bytes32",
											"name": "hash",
											"type": "bytes32"
										},
										{
											"internalType": "bool",
											"name": "isInline",
											"type": "bool"
										},
										{
											"internalType": "bytes",
											"name": "inLine",
											"type": "bytes"
										}
									],
									"internalType": "struct NodeHandle",
									"name": "value",
									"type": "tuple"
								}
							],
							"internalType": "struct NodeHandleOption",
							"name": "value",
							"type": "tuple"
						},
						{
							"components": [
								{
									"internalType": "bool",
									"name": "isSome",
									"type": "bool"
								},
								{
									"components": [
										{
											"internalType": "bool",
											"name": "isHash",
											"type": "bool"
										},
										{
											"internalType": "bytes32",
											"name": "hash",
											"type": "bytes32"
										},
										{
											"internalType": "bool",
											"name": "isInline",
											"type": "bool"
										},
										{
											"internalType": "bytes",
											"name": "inLine",
											"type": "bytes"
										}
									],
									"internalType": "struct NodeHandle",
									"name": "value",
									"type": "tuple"
								}
							],
							"internalType": "struct NodeHandleOption[16]",
							"name": "children",
							"type": "tuple[16]"
						}
					],
					"internalType": "struct Branch",
					"name": "",
					"type": "tuple"
				}
			],
			"stateMutability": "pure",
			"type": "function"
		},
		{
			"inputs": [
				{
					"components": [
						{
							"internalType": "bool",
							"name": "isEmpty",
							"type": "bool"
						},
						{
							"internalType": "bool",
							"name": "isLeaf",
							"type": "bool"
						},
						{
							"internalType": "bool",
							"name": "isHashedLeaf",
							"type": "bool"
						},
						{
							"internalType": "bool",
							"name": "isNibbledValueBranch",
							"type": "bool"
						},
						{
							"internalType": "bool",
							"name": "isNibbledHashedValueBranch",
							"type": "bool"
						},
						{
							"internalType": "bool",
							"name": "isNibbledBranch",
							"type": "bool"
						},
						{
							"internalType": "bool",
							"name": "isExtension",
							"type": "bool"
						},
						{
							"internalType": "bool",
							"name": "isBranch",
							"type": "bool"
						},
						{
							"internalType": "uint256",
							"name": "nibbleSize",
							"type": "uint256"
						},
						{
							"components": [
								{
									"internalType": "bytes",
									"name": "data",
									"type": "bytes"
								},
								{
									"internalType": "uint256",
									"name": "offset",
									"type": "uint256"
								}
							],
							"internalType": "struct ByteSlice",
							"name": "data",
							"type": "tuple"
						}
					],
					"internalType": "struct NodeKind",
					"name": "node",
					"type": "tuple"
				}
			],
			"name": "decodeExtension",
			"outputs": [
				{
					"components": [
						{
							"components": [
								{
									"internalType": "bytes",
									"name": "data",
									"type": "bytes"
								},
								{
									"internalType": "uint256",
									"name": "offset",
									"type": "uint256"
								}
							],
							"internalType": "struct NibbleSlice",
							"name": "key",
							"type": "tuple"
						},
						{
							"components": [
								{
									"internalType": "bool",
									"name": "isHash",
									"type": "bool"
								},
								{
									"internalType": "bytes32",
									"name": "hash",
									"type": "bytes32"
								},
								{
									"internalType": "bool",
									"name": "isInline",
									"type": "bool"
								},
								{
									"internalType": "bytes",
									"name": "inLine",
									"type": "bytes"
								}
							],
							"internalType": "struct NodeHandle",
							"name": "node",
							"type": "tuple"
						}
					],
					"internalType": "struct Extension",
					"name": "",
					"type": "tuple"
				}
			],
			"stateMutability": "pure",
			"type": "function"
		},
		{
			"inputs": [
				{
					"components": [
						{
							"internalType": "bool",
							"name": "isEmpty",
							"type": "bool"
						},
						{
							"internalType": "bool",
							"name": "isLeaf",
							"type": "bool"
						},
						{
							"internalType": "bool",
							"name": "isHashedLeaf",
							"type": "bool"
						},
						{
							"internalType": "bool",
							"name": "isNibbledValueBranch",
							"type": "bool"
						},
						{
							"internalType": "bool",
							"name": "isNibbledHashedValueBranch",
							"type": "bool"
						},
						{
							"internalType": "bool",
							"name": "isNibbledBranch",
							"type": "bool"
						},
						{
							"internalType": "bool",
							"name": "isExtension",
							"type": "bool"
						},
						{
							"internalType": "bool",
							"name": "isBranch",
							"type": "bool"
						},
						{
							"internalType": "uint256",
							"name": "nibbleSize",
							"type": "uint256"
						},
						{
							"components": [
								{
									"internalType": "bytes",
									"name": "data",
									"type": "bytes"
								},
								{
									"internalType": "uint256",
									"name": "offset",
									"type": "uint256"
								}
							],
							"internalType": "struct ByteSlice",
							"name": "data",
							"type": "tuple"
						}
					],
					"internalType": "struct NodeKind",
					"name": "node",
					"type": "tuple"
				}
			],
			"name": "decodeLeaf",
			"outputs": [
				{
					"components": [
						{
							"components": [
								{
									"internalType": "bytes",
									"name": "data",
									"type": "bytes"
								},
								{
									"internalType": "uint256",
									"name": "offset",
									"type": "uint256"
								}
							],
							"internalType": "struct NibbleSlice",
							"name": "key",
							"type": "tuple"
						},
						{
							"components": [
								{
									"internalType": "bool",
									"name": "isHash",
									"type": "bool"
								},
								{
									"internalType": "bytes32",
									"name": "hash",
									"type": "bytes32"
								},
								{
									"internalType": "bool",
									"name": "isInline",
									"type": "bool"
								},
								{
									"internalType": "bytes",
									"name": "inLine",
									"type": "bytes"
								}
							],
							"internalType": "struct NodeHandle",
							"name": "value",
							"type": "tuple"
						}
					],
					"internalType": "struct Leaf",
					"name": "",
					"type": "tuple"
				}
			],
			"stateMutability": "pure",
			"type": "function"
		},
		{
			"inputs": [
				{
					"internalType": "bytes",
					"name": "encoded",
					"type": "bytes"
				}
			],
			"name": "decodeNodeKind",
			"outputs": [
				{
					"components": [
						{
							"internalType": "bool",
							"name": "isEmpty",
							"type": "bool"
						},
						{
							"internalType": "bool",
							"name": "isLeaf",
							"type": "bool"
						},
						{
							"internalType": "bool",
							"name": "isHashedLeaf",
							"type": "bool"
						},
						{
							"internalType": "bool",
							"name": "isNibbledValueBranch",
							"type": "bool"
						},
						{
							"internalType": "bool",
							"name": "isNibbledHashedValueBranch",
							"type": "bool"
						},
						{
							"internalType": "bool",
							"name": "isNibbledBranch",
							"type": "bool"
						},
						{
							"internalType": "bool",
							"name": "isExtension",
							"type": "bool"
						},
						{
							"internalType": "bool",
							"name": "isBranch",
							"type": "bool"
						},
						{
							"internalType": "uint256",
							"name": "nibbleSize",
							"type": "uint256"
						},
						{
							"components": [
								{
									"internalType": "bytes",
									"name": "data",
									"type": "bytes"
								},
								{
									"internalType": "uint256",
									"name": "offset",
									"type": "uint256"
								}
							],
							"internalType": "struct ByteSlice",
							"name": "data",
							"type": "tuple"
						}
					],
					"internalType": "struct NodeKind",
					"name": "",
					"type": "tuple"
				}
			],
			"stateMutability": "pure",
			"type": "function"
		}
	]
}